{"contracts/Gateway.sol":{"Gateway":{"abi":[{"inputs":[],"stateMutability":"nonpayable","type":"constructor"},{"anonymous":false,"inputs":[{"indexed":true,"internalType":"bytes32","name":"orderId","type":"bytes32"},{"indexed":false,"internalType":"uint256","name":"senderAmount","type":"uint256"},{"indexed":false,"internalType":"uint256","name":"aggregatorAmount","type":"uint256"}],"name":"FxTransferFeeSplit","type":"event"},{"anonymous":false,"inputs":[{"indexed":false,"internalType":"uint8","name":"version","type":"uint8"}],"name":"Initialized","type":"event"},{"anonymous":false,"inputs":[{"indexed":true,"internalType":"bytes32","name":"orderId","type":"bytes32"},{"indexed":false,"internalType":"uint256","name":"senderAmount","type":"uint256"},{"indexed":false,"internalType":"uint256","name":"providerAmount","type":"uint256"},{"indexed":false,"internalType":"uint256","name":"aggregatorAmount","type":"uint256"}],"name":"LocalTransferFeeSplit","type":"event"},{"anonymous":false,"inputs":[{"indexed":true,"internalType":"address","name":"sender","type":"address"},{"indexed":true,"internalType":"address","name":"token","type":"address"},{"indexed":true,"internalType":"uint256","name":"amount","type":"uint256"},{"indexed":false,"internalType":"uint256","name":"protocolFee","type":"uint256"},{"indexed":false,"internalType":"bytes32","name":"orderId","type":"bytes32"},{"indexed":false,"internalType":"uint256","name":"rate","type":"uint256"},{"indexed":false,"internalType":"string","name":"messageHash","type":"string"}],"name":"OrderCreated","type":"event"},{"anonymous":false,"inputs":[{"indexed":false,"internalType":"uint256","name":"fee","type":"uint256"},{"indexed":true,"internalType":"bytes32","name":"orderId","type":"bytes32"}],"name":"OrderRefunded","type":"event"},{"anonymous":false,"inputs":[{"indexed":false,"internalType":"bytes32","name":"splitOrderId","type":"bytes32"},{"indexed":true,"internalType":"bytes32","name":"orderId","type":"bytes32"},{"indexed":true,"internalType":"address","name":"liquidityProvider","type":"address"},{"indexed":false,"internalType":"uint64","name":"settlePercent","type":"uint64"},{"indexed":false,"internalType":"uint64","name":"rebatePercent","type":"uint64"}],"name":"OrderSettled","type":"event"},{"anonymous":false,"inputs":[{"indexed":true,"internalType":"address","name":"previousOwner","type":"address"},{"indexed":true,"internalType":"address","name":"newOwner","type":"address"}],"name":"OwnershipTransferStarted","type":"event"},{"anonymous":false,"inputs":[{"indexed":true,"internalType":"address","name":"previousOwner","type":"address"},{"indexed":true,"internalType":"address","name":"newOwner","type":"address"}],"name":"OwnershipTransferred","type":"event"},{"anonymous":false,"inputs":[{"indexed":false,"internalType":"address","name":"account","type":"address"}],"name":"Paused","type":"event"},{"anonymous":false,"inputs":[{"indexed":true,"internalType":"bytes32","name":"what","type":"bytes32"},{"indexed":true,"internalType":"address","name":"treasuryAddress","type":"address"}],"name":"ProtocolAddressUpdated","type":"event"},{"anonymous":false,"inputs":[{"indexed":true,"internalType":"address","name":"sender","type":"address"},{"indexed":true,"internalType":"uint256","name":"amount","type":"uint256"}],"name":"SenderFeeTransferred","type":"event"},{"anonymous":false,"inputs":[{"indexed":true,"internalType":"address","name":"treasuryAddress","type":"address"}],"name":"SetFeeRecipient","type":"event"},{"anonymous":false,"inputs":[{"indexed":true,"internalType":"bytes32","name":"what","type":"bytes32"},{"indexed":true,"internalType":"address","name":"value","type":"address"},{"indexed":false,"internalType":"uint256","name":"status","type":"uint256"}],"name":"SettingManagerBool","type":"event"},{"anonymous":false,"inputs":[{"indexed":true,"internalType":"address","name":"token","type":"address"},{"indexed":false,"internalType":"uint256","name":"senderToProvider","type":"uint256"},{"indexed":false,"internalType":"uint256","name":"providerToAggregator","type":"uint256"},{"indexed":false,"internalType":"uint256","name":"senderToAggregator","type":"uint256"},{"indexed":false,"internalType":"uint256","name":"providerToAggregatorFx","type":"uint256"}],"name":"TokenFeeSettingsUpdated","type":"event"},{"anonymous":false,"inputs":[{"indexed":false,"internalType":"address","name":"account","type":"address"}],"name":"Unpaused","type":"event"},{"inputs":[],"name":"acceptOwnership","outputs":[],"stateMutability":"nonpayable","type":"function"},{"inputs":[{"internalType":"address","name":"_token","type":"address"},{"internalType":"uint256","name":"_amount","type":"uint256"},{"internalType":"uint96","name":"_rate","type":"uint96"},{"internalType":"address","name":"_senderFeeRecipient","type":"address"},{"internalType":"uint256","name":"_senderFee","type":"uint256"},{"internalType":"address","name":"_refundAddress","type":"address"},{"internalType":"string","name":"messageHash","type":"string"}],"name":"createOrder","outputs":[{"internalType":"bytes32","name":"orderId","type":"bytes32"}],"stateMutability":"nonpayable","type":"function"},{"inputs":[{"internalType":"bytes32","name":"_orderId","type":"bytes32"}],"name":"getOrderInfo","outputs":[{"components":[{"internalType":"address","name":"sender","type":"address"},{"internalType":"address","name":"token","type":"address"},{"internalType":"address","name":"senderFeeRecipient","type":"address"},{"internalType":"uint256","name":"senderFee","type":"uint256"},{"internalType":"uint256","name":"protocolFee","type":"uint256"},{"internalType":"bool","name":"isFulfilled","type":"bool"},{"internalType":"bool","name":"isRefunded","type":"bool"},{"internalType":"address","name":"refundAddress","type":"address"},{"internalType":"uint96","name":"currentBPS","type":"uint96"},{"internalType":"uint256","name":"amount","type":"uint256"}],"internalType":"struct IGateway.Order","name":"","type":"tuple"}],"stateMutability":"view","type":"function"},{"inputs":[{"internalType":"address","name":"token","type":"address"}],"name":"getTokenFeeSettings","outputs":[{"components":[{"internalType":"uint256","name":"senderToProvider","type":"uint256"},{"internalType":"uint256","name":"providerToAggregator","type":"uint256"},{"internalType":"uint256","name":"senderToAggregator","type":"uint256"},{"internalType":"uint256","name":"providerToAggregatorFx","type":"uint256"}],"internalType":"struct GatewaySettingManager.TokenFeeSettings","name":"","type":"tuple"}],"stateMutability":"view","type":"function"},{"inputs":[],"name":"initialize","outputs":[],"stateMutability":"nonpayable","type":"function"},{"inputs":[{"internalType":"address","name":"_token","type":"address"}],"name":"isTokenSupported","outputs":[{"internalType":"bool","name":"","type":"bool"}],"stateMutability":"view","type":"function"},{"inputs":[],"name":"owner","outputs":[{"internalType":"address","name":"","type":"address"}],"stateMutability":"view","type":"function"},{"inputs":[],"name":"pause","outputs":[],"stateMutability":"nonpayable","type":"function"},{"inputs":[],"name":"paused","outputs":[{"internalType":"bool","name":"","type":"bool"}],"stateMutability":"view","type":"function"},{"inputs":[],"name":"pendingOwner","outputs":[{"internalType":"address","name":"","type":"address"}],"stateMutability":"view","type":"function"},{"inputs":[{"internalType":"uint256","name":"_fee","type":"uint256"},{"internalType":"bytes32","name":"_orderId","type":"bytes32"}],"name":"refund","outputs":[{"internalType":"bool","name":"","type":"bool"}],"stateMutability":"nonpayable","type":"function"},{"inputs":[],"name":"renounceOwnership","outputs":[],"stateMutability":"nonpayable","type":"function"},{"inputs":[{"internalType":"address","name":"token","type":"address"},{"internalType":"uint256","name":"senderToProvider","type":"uint256"},{"internalType":"uint256","name":"providerToAggregator","type":"uint256"},{"internalType":"uint256","name":"senderToAggregator","type":"uint256"},{"internalType":"uint256","name":"providerToAggregatorFx","type":"uint256"}],"name":"setTokenFeeSettings","outputs":[],"stateMutability":"nonpayable","type":"function"},{"inputs":[{"internalType":"bytes32","name":"what","type":"bytes32"},{"internalType":"address","name":"value","type":"address"},{"internalType":"uint256","name":"status","type":"uint256"}],"name":"settingManagerBool","outputs":[],"stateMutability":"nonpayable","type":"function"},{"inputs":[{"internalType":"bytes32","name":"_splitOrderId","type":"bytes32"},{"internalType":"bytes32","name":"_orderId","type":"bytes32"},{"internalType":"address","name":"_liquidityProvider","type":"address"},{"internalType":"uint64","name":"_settlePercent","type":"uint64"},{"internalType":"uint64","name":"_rebatePercent","type":"uint64"}],"name":"settle","outputs":[{"internalType":"bool","name":"","type":"bool"}],"stateMutability":"nonpayable","type":"function"},{"inputs":[{"internalType":"address","name":"newOwner","type":"address"}],"name":"transferOwnership","outputs":[],"stateMutability":"nonpayable","type":"function"},{"inputs":[],"name":"unpause","outputs":[],"stateMutability":"nonpayable","type":"function"},{"inputs":[{"internalType":"bytes32","name":"what","type":"bytes32"},{"internalType":"address","name":"value","type":"address"}],"name":"updateProtocolAddress","outputs":[],"stateMutability":"nonpayable","type":"function"}],"devdoc":{"events":{"FxTransferFeeSplit(bytes32,uint256,uint256)":{"details":"Emitted when an FX transfer fee is split.","params":{"aggregatorAmount":"The amount that goes to the aggregator.","orderId":"The ID of the order.","senderAmount":"The amount that goes to the sender."}},"Initialized(uint8)":{"details":"Triggered when the contract has been initialized or reinitialized."},"LocalTransferFeeSplit(bytes32,uint256,uint256,uint256)":{"details":"Emitted when a local transfer fee is split.","params":{"aggregatorAmount":"The amount that goes to the aggregator.","orderId":"The ID of the order.","providerAmount":"The amount that goes to the provider.","senderAmount":"The amount that goes to the sender."}},"OrderCreated(address,address,uint256,uint256,bytes32,uint256,string)":{"details":"Emitted when a deposit is made.","params":{"amount":"The amount of the deposit.","messageHash":"The hash of the message.","orderId":"The ID of the order.","rate":"The rate at which the deposit is made.","sender":"The address of the sender.","token":"The address of the deposited token."}},"OrderRefunded(uint256,bytes32)":{"details":"Emitted when an aggregator refunds a transaction.","params":{"fee":"The fee deducted from the refund amount.","orderId":"The ID of the order."}},"OrderSettled(bytes32,bytes32,address,uint64,uint64)":{"details":"Emitted when an aggregator settles a transaction.","params":{"liquidityProvider":"The address of the liquidity provider.","orderId":"The ID of the order.","rebatePercent":"The percentage of the aggregator fee that is given back to the provider.","settlePercent":"The percentage at which the transaction is settled.","splitOrderId":"The ID of the split order."}},"Paused(address)":{"details":"Emitted when the pause is triggered by `account`."},"SenderFeeTransferred(address,uint256)":{"details":"Emitted when the sender's fee is transferred.","params":{"amount":"The amount of the fee transferred.","sender":"The address of the sender."}},"Unpaused(address)":{"details":"Emitted when the pause is lifted by `account`."}},"kind":"dev","methods":{"acceptOwnership()":{"details":"The new owner accepts the ownership transfer."},"constructor":{"custom:oz-upgrades-unsafe-allow":"constructor"},"createOrder(address,uint256,uint96,address,uint256,address,string)":{"details":"See {createOrder-IGateway}. "},"getOrderInfo(bytes32)":{"details":"See {getOrderInfo-IGateway}. "},"getTokenFeeSettings(address)":{"details":"Gets token-specific fee settings.","params":{"token":"The token address to query."},"returns":{"_0":"TokenFeeSettings struct containing all fee settings for the token."}},"initialize()":{"details":"Initialize function."},"isTokenSupported(address)":{"details":"See {isTokenSupported-IGateway}. "},"owner()":{"details":"Returns the address of the current owner."},"pause()":{"details":"Pause the contract."},"paused()":{"details":"Returns true if the contract is paused, and false otherwise."},"pendingOwner()":{"details":"Returns the address of the pending owner."},"refund(uint256,bytes32)":{"details":"See {refund-IGateway}. "},"renounceOwnership()":{"details":"Leaves the contract without owner. It will not be possible to call `onlyOwner` functions. Can only be called by the current owner. NOTE: Renouncing ownership will leave the contract without an owner, thereby disabling any functionality that is only available to the owner."},"setTokenFeeSettings(address,uint256,uint256,uint256,uint256)":{"details":"Sets token-specific fee settings for stablecoins.","params":{"providerToAggregator":"Percentage of provider's share that goes to aggregator (local mode).","providerToAggregatorFx":"Percentage of transaction amount provider pays to aggregator (fx mode). Requirements: - The token must be supported. - Fee percentages must be within valid ranges.","senderToAggregator":"Percentage of sender fee that goes to aggregator (fx mode).","senderToProvider":"Percentage of sender fee that goes to provider (local mode).","token":"The token address to configure."}},"settingManagerBool(bytes32,address,uint256)":{"details":"Sets the boolean value for a specific setting.","params":{"status":"The boolean value to be set. Requirements: - The value must not be a zero address.","value":"The address or value associated with the setting.","what":"The setting to be updated."}},"settle(bytes32,bytes32,address,uint64,uint64)":{"details":"See {settle-IGateway}. "},"transferOwnership(address)":{"details":"Starts the ownership transfer of the contract to a new account. Replaces the pending transfer if there is one. Can only be called by the current owner."},"unpause()":{"details":"Unpause the contract."},"updateProtocolAddress(bytes32,address)":{"details":"Updates a protocol address.","params":{"value":"The new address to be set. Requirements: - The value must not be a zero address.","what":"The address type to be updated (treasury or aggregator)."}}},"title":"Gateway","version":1},"evm":{"bytecode":{"linkReferences":{},"object":"608060405234801562000010575f80fd5b50620000216200002760201b60201c565b620001c6565b5f60019054906101000a900460ff161562000079576040517f08c379a000000000000000000000000000000000000000000000000000000000815260040162000070906200016e565b60405180910390fd5b60ff80165f8054906101000a900460ff1660ff1614620000e85760ff5f806101000a81548160ff021916908360ff1602179055507f7f26b83ff96e1f2b6a682f133852f6798a09c465da95921460cefb384740249860ff604051620000df9190620001ab565b60405180910390a15b565b5f82825260208201905092915050565b7f496e697469616c697a61626c653a20636f6e747261637420697320696e6974695f8201527f616c697a696e6700000000000000000000000000000000000000000000000000602082015250565b5f62000156602783620000ea565b91506200016382620000fa565b604082019050919050565b5f6020820190508181035f830152620001878162000148565b9050919050565b5f60ff82169050919050565b620001a5816200018e565b82525050565b5f602082019050620001c05f8301846200019a565b92915050565b6148fb80620001d45f395ff3fe608060405234801561000f575f80fd5b5060043610610114575f3560e01c80638129fc1c116100a05780638da5cb5b1161006f5780638da5cb5b14610290578063cd992400146102ae578063df51b359146102ca578063e30c3978146102fa578063f2fde38b1461031857610114565b80638129fc1c146102305780638456cb591461023a578063898861b0146102445780638bfa05491461026057610114565b806371eedb88116100e757806371eedb881461016657806375151b6314610196578063768c6ec0146101c657806379ba5097146101f6578063809804f71461020057610114565b80633f4ba83a1461011857806340ebc677146101225780635c975abb1461013e578063715018a61461015c575b5f80fd5b610120610334565b005b61013c6004803603810190610137919061313c565b610346565b005b61014661060a565b6040516101539190613194565b60405180910390f35b61016461061f565b005b610180600480360381019061017b91906131e0565b610632565b60405161018d9190613194565b60405180910390f35b6101b060048036038101906101ab919061321e565b610a8d565b6040516101bd9190613194565b60405180910390f35b6101e060048036038101906101db9190613249565b610ae5565b6040516101ed9190613391565b60405180910390f35b6101fe610cf5565b005b61021a60048036038101906102159190613436565b610d81565b6040516102279190613502565b60405180910390f35b610238611408565b005b610242611552565b005b61025e6004803603810190610259919061351b565b611564565b005b61027a6004803603810190610275919061321e565b6117e2565b60405161028791906135e5565b60405180910390f35b610298611860565b6040516102a5919061360d565b60405180910390f35b6102c860048036038101906102c39190613626565b611888565b005b6102e460048036038101906102df91906136b3565b611a0a565b6040516102f19190613194565b60405180910390f35b6103026120b3565b60405161030f919061360d565b60405180910390f35b610332600480360381019061032d919061321e565b6120db565b005b61033c612187565b610344612205565b565b61034e612187565b5f73ffffffffffffffffffffffffffffffffffffffff168173ffffffffffffffffffffffffffffffffffffffff16036103bc576040517f08c379a00000000000000000000000000000000000000000000000000000000081526004016103b390613784565b60405180910390fd5b5f7f747265617375727900000000000000000000000000000000000000000000000083036104be578173ffffffffffffffffffffffffffffffffffffffff16609860089054906101000a900473ffffffffffffffffffffffffffffffffffffffff1673ffffffffffffffffffffffffffffffffffffffff1603610474576040517f08c379a000000000000000000000000000000000000000000000000000000000815260040161046b90613812565b60405180910390fd5b81609860086101000a81548173ffffffffffffffffffffffffffffffffffffffff021916908373ffffffffffffffffffffffffffffffffffffffff160217905550600190506105ba565b7f61676772656761746f720000000000000000000000000000000000000000000083036105b9578173ffffffffffffffffffffffffffffffffffffffff1660995f9054906101000a900473ffffffffffffffffffffffffffffffffffffffff1673ffffffffffffffffffffffffffffffffffffffff1603610574576040517f08c379a000000000000000000000000000000000000000000000000000000000815260040161056b906138a0565b60405180910390fd5b8160995f6101000a81548173ffffffffffffffffffffffffffffffffffffffff021916908373ffffffffffffffffffffffffffffffffffffffff160217905550600190505b5b8015610605578173ffffffffffffffffffffffffffffffffffffffff16837fbbc5b96e57cfecb3dbeeadf92e87f15e58e64fcd75cbe256dcc5d9ef2e51e8a460405160405180910390a35b505050565b5f60cd5f9054906101000a900460ff16905090565b610627612187565b6106305f612266565b565b5f60995f9054906101000a900473ffffffffffffffffffffffffffffffffffffffff1673ffffffffffffffffffffffffffffffffffffffff163373ffffffffffffffffffffffffffffffffffffffff16146106c2576040517f08c379a00000000000000000000000000000000000000000000000000000000081526004016106b990613908565b60405180910390fd5b60ff5f8381526020019081526020015f206005015f9054906101000a900460ff1615610723576040517f08c379a000000000000000000000000000000000000000000000000000000000815260040161071a90613970565b60405180910390fd5b60ff5f8381526020019081526020015f2060050160019054906101000a900460ff1615610785576040517f08c379a000000000000000000000000000000000000000000000000000000000815260040161077c906139d8565b60405180910390fd5b8260ff5f8481526020019081526020015f206004015410156107dc576040517f08c379a00000000000000000000000000000000000000000000000000000000081526004016107d390613a40565b60405180910390fd5b5f8311156108b65760ff5f8381526020019081526020015f206001015f9054906101000a900473ffffffffffffffffffffffffffffffffffffffff1673ffffffffffffffffffffffffffffffffffffffff1663a9059cbb609860089054906101000a900473ffffffffffffffffffffffffffffffffffffffff16856040518363ffffffff1660e01b8152600401610874929190613a6d565b6020604051808303815f875af1158015610890573d5f803e3d5ffd5b505050506040513d601f19601f820116820180604052508101906108b49190613abe565b505b600160ff5f8481526020019081526020015f2060050160016101000a81548160ff0219169083151502179055505f60ff5f8481526020019081526020015f206006015f6101000a8154816bffffffffffffffffffffffff02191690836bffffffffffffffffffffffff1602179055505f8360ff5f8581526020019081526020015f20600701546109469190613b16565b905060ff5f8481526020019081526020015f206001015f9054906101000a900473ffffffffffffffffffffffffffffffffffffffff1673ffffffffffffffffffffffffffffffffffffffff1663a9059cbb60ff5f8681526020019081526020015f2060050160029054906101000a900473ffffffffffffffffffffffffffffffffffffffff1660ff5f8781526020019081526020015f2060030154846109ec9190613b49565b6040518363ffffffff1660e01b8152600401610a09929190613a6d565b6020604051808303815f875af1158015610a25573d5f803e3d5ffd5b505050506040513d601f19601f82011682018060405250810190610a499190613abe565b50827f0736fe428e1747ca8d387c2e6fa1a31a0cde62d3a167c40a46ade59a3cdc828e85604051610a7a9190613b7c565b60405180910390a2600191505092915050565b5f6001609a5f8473ffffffffffffffffffffffffffffffffffffffff1673ffffffffffffffffffffffffffffffffffffffff1681526020019081526020015f205403610adc5760019050610ae0565b5f90505b919050565b610aed612fd0565b60ff5f8381526020019081526020015f20604051806101400160405290815f82015f9054906101000a900473ffffffffffffffffffffffffffffffffffffffff1673ffffffffffffffffffffffffffffffffffffffff1673ffffffffffffffffffffffffffffffffffffffff168152602001600182015f9054906101000a900473ffffffffffffffffffffffffffffffffffffffff1673ffffffffffffffffffffffffffffffffffffffff1673ffffffffffffffffffffffffffffffffffffffff168152602001600282015f9054906101000a900473ffffffffffffffffffffffffffffffffffffffff1673ffffffffffffffffffffffffffffffffffffffff1673ffffffffffffffffffffffffffffffffffffffff1681526020016003820154815260200160048201548152602001600582015f9054906101000a900460ff161515151581526020016005820160019054906101000a900460ff161515151581526020016005820160029054906101000a900473ffffffffffffffffffffffffffffffffffffffff1673ffffffffffffffffffffffffffffffffffffffff1673ffffffffffffffffffffffffffffffffffffffff168152602001600682015f9054906101000a90046bffffffffffffffffffffffff166bffffffffffffffffffffffff166bffffffffffffffffffffffff1681526020016007820154815250509050919050565b5f610cfe612296565b90508073ffffffffffffffffffffffffffffffffffffffff16610d1f6120b3565b73ffffffffffffffffffffffffffffffffffffffff1614610d75576040517f08c379a0000000000000000000000000000000000000000000000000000000008152600401610d6c90613c05565b60405180910390fd5b610d7e81612266565b50565b5f610d8a61229d565b610d9789898689896122e7565b5f8383905003610ddc576040517f08c379a0000000000000000000000000000000000000000000000000000000008152600401610dd390613c6d565b60405180910390fd5b8873ffffffffffffffffffffffffffffffffffffffff166323b872dd3330888c610e069190613b49565b6040518463ffffffff1660e01b8152600401610e2493929190613c8b565b6020604051808303815f875af1158015610e40573d5f803e3d5ffd5b505050506040513d601f19601f82011682018060405250810190610e649190613abe565b506101005f3373ffffffffffffffffffffffffffffffffffffffff1673ffffffffffffffffffffffffffffffffffffffff1681526020019081526020015f205f815480929190610eb390613cc0565b9190505550336101005f3373ffffffffffffffffffffffffffffffffffffffff1673ffffffffffffffffffffffffffffffffffffffff1681526020019081526020015f205446604051602001610f0b93929190613d07565b6040516020818303038152906040528051906020012090505f73ffffffffffffffffffffffffffffffffffffffff1660ff5f8381526020019081526020015f205f015f9054906101000a900473ffffffffffffffffffffffffffffffffffffffff1673ffffffffffffffffffffffffffffffffffffffff1614610fc3576040517f08c379a0000000000000000000000000000000000000000000000000000000008152600401610fba90613d86565b60405180910390fd5b5f6064886bffffffffffffffffffffffff1603611024575f90505f861161101f576040517f08c379a000000000000000000000000000000000000000000000000000000000815260040161101690613dee565b60405180910390fd5b6110fd565b5f609b5f8c73ffffffffffffffffffffffffffffffffffffffff1673ffffffffffffffffffffffffffffffffffffffff1681526020019081526020015f206040518060800160405290815f8201548152602001600182015481526020016002820154815260200160038201548152505090505f8160600151116110dc576040517f08c379a00000000000000000000000000000000000000000000000000000000081526004016110d390613e56565b60405180910390fd5b60975481606001518b6110ef9190613e74565b6110f99190613ee2565b9150505b6040518061014001604052803373ffffffffffffffffffffffffffffffffffffffff1681526020018b73ffffffffffffffffffffffffffffffffffffffff1681526020018873ffffffffffffffffffffffffffffffffffffffff1681526020018781526020018281526020015f151581526020015f151581526020018673ffffffffffffffffffffffffffffffffffffffff16815260200160975467ffffffffffffffff166bffffffffffffffffffffffff1681526020018a81525060ff5f8481526020019081526020015f205f820151815f015f6101000a81548173ffffffffffffffffffffffffffffffffffffffff021916908373ffffffffffffffffffffffffffffffffffffffff1602179055506020820151816001015f6101000a81548173ffffffffffffffffffffffffffffffffffffffff021916908373ffffffffffffffffffffffffffffffffffffffff1602179055506040820151816002015f6101000a81548173ffffffffffffffffffffffffffffffffffffffff021916908373ffffffffffffffffffffffffffffffffffffffff160217905550606082015181600301556080820151816004015560a0820151816005015f6101000a81548160ff02191690831515021790555060c08201518160050160016101000a81548160ff02191690831515021790555060e08201518160050160026101000a81548173ffffffffffffffffffffffffffffffffffffffff021916908373ffffffffffffffffffffffffffffffffffffffff160217905550610100820151816006015f6101000a8154816bffffffffffffffffffffffff02191690836bffffffffffffffffffffffff160217905550610120820151816007015590505060ff5f8381526020019081526020015f20600701548a73ffffffffffffffffffffffffffffffffffffffff168673ffffffffffffffffffffffffffffffffffffffff167f40ccd1ceb111a3c186ef9911e1b876dc1f789ed331b86097b3b8851055b6a13784868d8a8a6040516113f3959493929190613f95565b60405180910390a45098975050505050505050565b5f8060019054906101000a900460ff16159050808015611437575060015f8054906101000a900460ff1660ff16105b80611463575061144630612494565b158015611462575060015f8054906101000a900460ff1660ff16145b5b6114a2576040517f08c379a000000000000000000000000000000000000000000000000000000000815260040161149990614051565b60405180910390fd5b60015f806101000a81548160ff021916908360ff16021790555080156114dd5760015f60016101000a81548160ff0219169083151502179055505b620186a06097819055506114ef6124b6565b6114f761250e565b801561154f575f8060016101000a81548160ff0219169083151502179055507f7f26b83ff96e1f2b6a682f133852f6798a09c465da95921460cefb3847402498600160405161154691906140b4565b60405180910390a15b50565b61155a612187565b611562612566565b565b61156c612187565b6001609a5f8773ffffffffffffffffffffffffffffffffffffffff1673ffffffffffffffffffffffffffffffffffffffff1681526020019081526020015f2054146115ec576040517f08c379a00000000000000000000000000000000000000000000000000000000081526004016115e390614117565b60405180910390fd5b609754841115611631576040517f08c379a0000000000000000000000000000000000000000000000000000000008152600401611628906141a5565b60405180910390fd5b609754831115611676576040517f08c379a000000000000000000000000000000000000000000000000000000000815260040161166d90614233565b60405180910390fd5b6097548211156116bb576040517f08c379a00000000000000000000000000000000000000000000000000000000081526004016116b2906142c1565b60405180910390fd5b609754811115611700576040517f08c379a00000000000000000000000000000000000000000000000000000000081526004016116f79061434f565b60405180910390fd5b604051806080016040528085815260200184815260200183815260200182815250609b5f8773ffffffffffffffffffffffffffffffffffffffff1673ffffffffffffffffffffffffffffffffffffffff1681526020019081526020015f205f820151815f01556020820151816001015560408201518160020155606082015181600301559050508473ffffffffffffffffffffffffffffffffffffffff167fd4d646cffa66ebf695b792bd660c97076ed45a889e14d544eb8ab8a44b34a59c858585856040516117d3949392919061436d565b60405180910390a25050505050565b6117ea613083565b609b5f8373ffffffffffffffffffffffffffffffffffffffff1673ffffffffffffffffffffffffffffffffffffffff1681526020019081526020015f206040518060800160405290815f820154815260200160018201548152602001600282015481526020016003820154815250509050919050565b5f60335f9054906101000a900473ffffffffffffffffffffffffffffffffffffffff16905090565b611890612187565b5f73ffffffffffffffffffffffffffffffffffffffff168273ffffffffffffffffffffffffffffffffffffffff16036118fe576040517f08c379a00000000000000000000000000000000000000000000000000000000081526004016118f590613784565b60405180910390fd5b600181148061190d5750600281145b61194c576040517f08c379a0000000000000000000000000000000000000000000000000000000008152600401611943906143fa565b60405180910390fd5b7f746f6b656e0000000000000000000000000000000000000000000000000000008303611a055780609a5f8473ffffffffffffffffffffffffffffffffffffffff1673ffffffffffffffffffffffffffffffffffffffff1681526020019081526020015f20819055508173ffffffffffffffffffffffffffffffffffffffff16837fcfa976492af7c14a916cc3a239f4c9c75bbd7f5f0e398beb41d892c7eeccae4c836040516119fc9190613b7c565b60405180910390a35b505050565b5f60995f9054906101000a900473ffffffffffffffffffffffffffffffffffffffff1673ffffffffffffffffffffffffffffffffffffffff163373ffffffffffffffffffffffffffffffffffffffff1614611a9a576040517f08c379a0000000000000000000000000000000000000000000000000000000008152600401611a9190613908565b60405180910390fd5b60ff5f8681526020019081526020015f206005015f9054906101000a900460ff1615611afb576040517f08c379a0000000000000000000000000000000000000000000000000000000008152600401611af290613970565b60405180910390fd5b60ff5f8681526020019081526020015f2060050160019054906101000a900460ff1615611b5d576040517f08c379a0000000000000000000000000000000000000000000000000000000008152600401611b54906139d8565b60405180910390fd5b6097548267ffffffffffffffff161115611bac576040517f08c379a0000000000000000000000000000000000000000000000000000000008152600401611ba390614462565b60405180910390fd5b5f60ff5f8781526020019081526020015f206001015f9054906101000a900473ffffffffffffffffffffffffffffffffffffffff1690505f60ff5f8881526020019081526020015f206006015f9054906101000a90046bffffffffffffffffffffffff166bffffffffffffffffffffffff1690508467ffffffffffffffff1660ff5f8981526020019081526020015f206006015f8282829054906101000a90046bffffffffffffffffffffffff16611c649190614480565b92506101000a8154816bffffffffffffffffffffffff02191690836bffffffffffffffffffffffff1602179055505f60ff5f8981526020019081526020015f206006015f9054906101000a90046bffffffffffffffffffffffff166bffffffffffffffffffffffff1603611d4657600160ff5f8981526020019081526020015f206005015f6101000a81548160ff0219169083151502179055505f60ff5f8981526020019081526020015f206003015414158015611d3657505f60ff5f8981526020019081526020015f206004015414155b15611d4557611d44876125c8565b5b5b5f60ff5f8981526020019081526020015f206003015414158015611d7d57505f60ff5f8981526020019081526020015f2060040154145b15611d8e57611d8d87878761293e565b5b5f818667ffffffffffffffff1660ff5f8b81526020019081526020015f2060070154611dba9190613e74565b611dc49190613ee2565b90508060ff5f8a81526020019081526020015f206007015f828254611de99190613b16565b925050819055505f60ff5f8a81526020019081526020015f206004015414611fd4575f609b5f60ff5f8c81526020019081526020015f206001015f9054906101000a900473ffffffffffffffffffffffffffffffffffffffff1673ffffffffffffffffffffffffffffffffffffffff1673ffffffffffffffffffffffffffffffffffffffff1681526020019081526020015f206040518060800160405290815f8201548152602001600182015481526020016002820154815260200160038201548152505090505f609754826060015184611ec49190613e74565b611ece9190613ee2565b90508083611edc9190613b16565b92505f8767ffffffffffffffff1614611f33575f6097548867ffffffffffffffff1683611f099190613e74565b611f139190613ee2565b90508082611f219190613b16565b91508084611f2f9190613b49565b9350505b8473ffffffffffffffffffffffffffffffffffffffff1663a9059cbb609860089054906101000a900473ffffffffffffffffffffffffffffffffffffffff16836040518363ffffffff1660e01b8152600401611f90929190613a6d565b6020604051808303815f875af1158015611fac573d5f803e3d5ffd5b505050506040513d601f19601f82011682018060405250810190611fd09190613abe565b5050505b8273ffffffffffffffffffffffffffffffffffffffff1663a9059cbb88836040518363ffffffff1660e01b815260040161200f929190613a6d565b6020604051808303815f875af115801561202b573d5f803e3d5ffd5b505050506040513d601f19601f8201168201806040525081019061204f9190613abe565b508673ffffffffffffffffffffffffffffffffffffffff16887f57c683de2e7c8263c7f57fd108416b9bdaa7a6e7f2e4e7102c3b6f9e37f1cc378b898960405161209b939291906144ce565b60405180910390a36001935050505095945050505050565b5f60655f9054906101000a900473ffffffffffffffffffffffffffffffffffffffff16905090565b6120e3612187565b8060655f6101000a81548173ffffffffffffffffffffffffffffffffffffffff021916908373ffffffffffffffffffffffffffffffffffffffff1602179055508073ffffffffffffffffffffffffffffffffffffffff16612142611860565b73ffffffffffffffffffffffffffffffffffffffff167f38d16b8cac22d99fc7c124b9cd0de2d3fa1faef420bfe791d8c362d765e2270060405160405180910390a350565b61218f612296565b73ffffffffffffffffffffffffffffffffffffffff166121ad611860565b73ffffffffffffffffffffffffffffffffffffffff1614612203576040517f08c379a00000000000000000000000000000000000000000000000000000000081526004016121fa9061454d565b60405180910390fd5b565b61220d612dfb565b5f60cd5f6101000a81548160ff0219169083151502179055507f5db9ee0a495bf2e6ff9c91a7834c1ba4fdd244a5e8aa4e537bd38aeae4b073aa61224f612296565b60405161225c919061360d565b60405180910390a1565b60655f6101000a81549073ffffffffffffffffffffffffffffffffffffffff021916905561229381612e44565b50565b5f33905090565b6122a561060a565b156122e5576040517f08c379a00000000000000000000000000000000000000000000000000000000081526004016122dc906145b5565b60405180910390fd5b565b6001609a5f8773ffffffffffffffffffffffffffffffffffffffff1673ffffffffffffffffffffffffffffffffffffffff1681526020019081526020015f205414612367576040517f08c379a000000000000000000000000000000000000000000000000000000000815260040161235e9061461d565b60405180910390fd5b5f84036123a9576040517f08c379a00000000000000000000000000000000000000000000000000000000081526004016123a090614685565b60405180910390fd5b5f73ffffffffffffffffffffffffffffffffffffffff168373ffffffffffffffffffffffffffffffffffffffff1603612417576040517f08c379a000000000000000000000000000000000000000000000000000000000815260040161240e906146ed565b60405180910390fd5b5f811461248d575f73ffffffffffffffffffffffffffffffffffffffff168273ffffffffffffffffffffffffffffffffffffffff160361248c576040517f08c379a000000000000000000000000000000000000000000000000000000000815260040161248390614755565b60405180910390fd5b5b5050505050565b5f808273ffffffffffffffffffffffffffffffffffffffff163b119050919050565b5f60019054906101000a900460ff16612504576040517f08c379a00000000000000000000000000000000000000000000000000000000081526004016124fb906147e3565b60405180910390fd5b61250c612f07565b565b5f60019054906101000a900460ff1661255c576040517f08c379a0000000000000000000000000000000000000000000000000000000008152600401612553906147e3565b60405180910390fd5b612564612f67565b565b61256e61229d565b600160cd5f6101000a81548160ff0219169083151502179055507f62e78cea01bee320cd4e420270b5ea74000d11b0c9f74754ebdbfc544b05a2586125b1612296565b6040516125be919061360d565b60405180910390a1565b5f609b5f60ff5f8581526020019081526020015f206001015f9054906101000a900473ffffffffffffffffffffffffffffffffffffffff1673ffffffffffffffffffffffffffffffffffffffff1673ffffffffffffffffffffffffffffffffffffffff1681526020019081526020015f206040518060800160405290815f8201548152602001600182015481526020016002820154815260200160038201548152505090505f60ff5f8481526020019081526020015f206003015490505f609754836040015160975461269b9190613b16565b836126a69190613e74565b6126b09190613ee2565b90505f81836126bf9190613b16565b90505f8211156127ac5760ff5f8681526020019081526020015f206001015f9054906101000a900473ffffffffffffffffffffffffffffffffffffffff1673ffffffffffffffffffffffffffffffffffffffff1663a9059cbb60ff5f8881526020019081526020015f206002015f9054906101000a900473ffffffffffffffffffffffffffffffffffffffff16846040518363ffffffff1660e01b815260040161276a929190613a6d565b6020604051808303815f875af1158015612786573d5f803e3d5ffd5b505050506040513d601f19601f820116820180604052508101906127aa9190613abe565b505b5f8111156128865760ff5f8681526020019081526020015f206001015f9054906101000a900473ffffffffffffffffffffffffffffffffffffffff1673ffffffffffffffffffffffffffffffffffffffff1663a9059cbb609860089054906101000a900473ffffffffffffffffffffffffffffffffffffffff16836040518363ffffffff1660e01b8152600401612844929190613a6d565b6020604051808303815f875af1158015612860573d5f803e3d5ffd5b505050506040513d601f19601f820116820180604052508101906128849190613abe565b505b8160ff5f8781526020019081526020015f206002015f9054906101000a900473ffffffffffffffffffffffffffffffffffffffff1673ffffffffffffffffffffffffffffffffffffffff167f44f6938ca4a10313aabb76f874cced61e35710a734a126e4afb34461bf8c250160405160405180910390a3847f88592047496a7850992dc5e8cd92a9b633cef0d191a4f5e87fd745c7d382630a838360405161292f929190614801565b60405180910390a25050505050565b5f609b5f60ff5f8781526020019081526020015f206001015f9054906101000a900473ffffffffffffffffffffffffffffffffffffffff1673ffffffffffffffffffffffffffffffffffffffff1673ffffffffffffffffffffffffffffffffffffffff1681526020019081526020015f206040518060800160405290815f8201548152602001600182015481526020016002820154815260200160038201548152505090505f60ff5f8681526020019081526020015f206003015490505f609754835f015183612a0e9190613e74565b612a189190613ee2565b90505f6097548567ffffffffffffffff1683612a349190613e74565b612a3e9190613ee2565b90505f609754856020015183612a549190613e74565b612a5e9190613ee2565b90505f8385612a6d9190613b16565b90505f8114158015612ab757505f60ff5f8b81526020019081526020015f206006015f9054906101000a90046bffffffffffffffffffffffff166bffffffffffffffffffffffff16145b15612b9f5760ff5f8a81526020019081526020015f206001015f9054906101000a900473ffffffffffffffffffffffffffffffffffffffff1673ffffffffffffffffffffffffffffffffffffffff1663a9059cbb60ff5f8c81526020019081526020015f206002015f9054906101000a900473ffffffffffffffffffffffffffffffffffffffff16836040518363ffffffff1660e01b8152600401612b5d929190613a6d565b6020604051808303815f875af1158015612b79573d5f803e3d5ffd5b505050506040513d601f19601f82011682018060405250810190612b9d9190613abe565b505b5f8214612c785760ff5f8a81526020019081526020015f206001015f9054906101000a900473ffffffffffffffffffffffffffffffffffffffff1673ffffffffffffffffffffffffffffffffffffffff1663a9059cbb609860089054906101000a900473ffffffffffffffffffffffffffffffffffffffff16846040518363ffffffff1660e01b8152600401612c36929190613a6d565b6020604051808303815f875af1158015612c52573d5f803e3d5ffd5b505050506040513d601f19601f82011682018060405250810190612c769190613abe565b505b8183612c849190613b16565b92505f8314612d3d5760ff5f8a81526020019081526020015f206001015f9054906101000a900473ffffffffffffffffffffffffffffffffffffffff1673ffffffffffffffffffffffffffffffffffffffff1663a9059cbb89856040518363ffffffff1660e01b8152600401612cfb929190613a6d565b6020604051808303815f875af1158015612d17573d5f803e3d5ffd5b505050506040513d601f19601f82011682018060405250810190612d3b9190613abe565b505b8060ff5f8b81526020019081526020015f206002015f9054906101000a900473ffffffffffffffffffffffffffffffffffffffff1673ffffffffffffffffffffffffffffffffffffffff167f44f6938ca4a10313aabb76f874cced61e35710a734a126e4afb34461bf8c250160405160405180910390a3887f831c7cc0006d91462607c476603366c48469d125de6228c0791a7090efd7f7a4828585604051612de893929190614828565b60405180910390a2505050505050505050565b612e0361060a565b612e42576040517f08c379a0000000000000000000000000000000000000000000000000000000008152600401612e39906148a7565b60405180910390fd5b565b5f60335f9054906101000a900473ffffffffffffffffffffffffffffffffffffffff1690508160335f6101000a81548173ffffffffffffffffffffffffffffffffffffffff021916908373ffffffffffffffffffffffffffffffffffffffff1602179055508173ffffffffffffffffffffffffffffffffffffffff168173ffffffffffffffffffffffffffffffffffffffff167f8be0079c531659141344cd1fd0a4f28419497f9722a3daafe3b4186f6b6457e060405160405180910390a35050565b5f60019054906101000a900460ff16612f55576040517f08c379a0000000000000000000000000000000000000000000000000000000008152600401612f4c906147e3565b60405180910390fd5b612f65612f60612296565b612266565b565b5f60019054906101000a900460ff16612fb5576040517f08c379a0000000000000000000000000000000000000000000000000000000008152600401612fac906147e3565b60405180910390fd5b5f60cd5f6101000a81548160ff021916908315150217905550565b6040518061014001604052805f73ffffffffffffffffffffffffffffffffffffffff1681526020015f73ffffffffffffffffffffffffffffffffffffffff1681526020015f73ffffffffffffffffffffffffffffffffffffffff1681526020015f81526020015f81526020015f151581526020015f151581526020015f73ffffffffffffffffffffffffffffffffffffffff1681526020015f6bffffffffffffffffffffffff1681526020015f81525090565b60405180608001604052805f81526020015f81526020015f81526020015f81525090565b5f80fd5b5f80fd5b5f819050919050565b6130c1816130af565b81146130cb575f80fd5b50565b5f813590506130dc816130b8565b92915050565b5f73ffffffffffffffffffffffffffffffffffffffff82169050919050565b5f61310b826130e2565b9050919050565b61311b81613101565b8114613125575f80fd5b50565b5f8135905061313681613112565b92915050565b5f8060408385031215613152576131516130a7565b5b5f61315f858286016130ce565b925050602061317085828601613128565b9150509250929050565b5f8115159050919050565b61318e8161317a565b82525050565b5f6020820190506131a75f830184613185565b92915050565b5f819050919050565b6131bf816131ad565b81146131c9575f80fd5b50565b5f813590506131da816131b6565b92915050565b5f80604083850312156131f6576131f56130a7565b5b5f613203858286016131cc565b9250506020613214858286016130ce565b9150509250929050565b5f60208284031215613233576132326130a7565b5b5f61324084828501613128565b91505092915050565b5f6020828403121561325e5761325d6130a7565b5b5f61326b848285016130ce565b91505092915050565b61327d81613101565b82525050565b61328c816131ad565b82525050565b61329b8161317a565b82525050565b5f6bffffffffffffffffffffffff82169050919050565b6132c1816132a1565b82525050565b61014082015f8201516132dc5f850182613274565b5060208201516132ef6020850182613274565b5060408201516133026040850182613274565b5060608201516133156060850182613283565b5060808201516133286080850182613283565b5060a082015161333b60a0850182613292565b5060c082015161334e60c0850182613292565b5060e082015161336160e0850182613274565b506101008201516133766101008501826132b8565b5061012082015161338b610120850182613283565b50505050565b5f610140820190506133a55f8301846132c7565b92915050565b6133b4816132a1565b81146133be575f80fd5b50565b5f813590506133cf816133ab565b92915050565b5f80fd5b5f80fd5b5f80fd5b5f8083601f8401126133f6576133f56133d5565b5b8235905067ffffffffffffffff811115613413576134126133d9565b5b60208301915083600182028301111561342f5761342e6133dd565b5b9250929050565b5f805f805f805f8060e0898b031215613452576134516130a7565b5b5f61345f8b828c01613128565b98505060206134708b828c016131cc565b97505060406134818b828c016133c1565b96505060606134928b828c01613128565b95505060806134a38b828c016131cc565b94505060a06134b48b828c01613128565b93505060c089013567ffffffffffffffff8111156134d5576134d46130ab565b5b6134e18b828c016133e1565b92509250509295985092959890939650565b6134fc816130af565b82525050565b5f6020820190506135155f8301846134f3565b92915050565b5f805f805f60a08688031215613534576135336130a7565b5b5f61354188828901613128565b9550506020613552888289016131cc565b9450506040613563888289016131cc565b9350506060613574888289016131cc565b9250506080613585888289016131cc565b9150509295509295909350565b608082015f8201516135a65f850182613283565b5060208201516135b96020850182613283565b5060408201516135cc6040850182613283565b5060608201516135df6060850182613283565b50505050565b5f6080820190506135f85f830184613592565b92915050565b61360781613101565b82525050565b5f6020820190506136205f8301846135fe565b92915050565b5f805f6060848603121561363d5761363c6130a7565b5b5f61364a868287016130ce565b935050602061365b86828701613128565b925050604061366c868287016131cc565b9150509250925092565b5f67ffffffffffffffff82169050919050565b61369281613676565b811461369c575f80fd5b50565b5f813590506136ad81613689565b92915050565b5f805f805f60a086880312156136cc576136cb6130a7565b5b5f6136d9888289016130ce565b95505060206136ea888289016130ce565b94505060406136fb88828901613128565b935050606061370c8882890161369f565b925050608061371d8882890161369f565b9150509295509295909350565b5f82825260208201905092915050565b7f476174657761793a207a65726f206164647265737300000000000000000000005f82015250565b5f61376e60158361372a565b91506137798261373a565b602082019050919050565b5f6020820190508181035f83015261379b81613762565b9050919050565b7f476174657761793a207472656173757279206164647265737320616c726561645f8201527f7920736574000000000000000000000000000000000000000000000000000000602082015250565b5f6137fc60258361372a565b9150613807826137a2565b604082019050919050565b5f6020820190508181035f830152613829816137f0565b9050919050565b7f476174657761793a2061676772656761746f72206164647265737320616c72655f8201527f6164792073657400000000000000000000000000000000000000000000000000602082015250565b5f61388a60278361372a565b915061389582613830565b604082019050919050565b5f6020820190508181035f8301526138b78161387e565b9050919050565b7f4f6e6c7941676772656761746f720000000000000000000000000000000000005f82015250565b5f6138f2600e8361372a565b91506138fd826138be565b602082019050919050565b5f6020820190508181035f83015261391f816138e6565b9050919050565b7f4f7264657246756c66696c6c65640000000000000000000000000000000000005f82015250565b5f61395a600e8361372a565b915061396582613926565b602082019050919050565b5f6020820190508181035f8301526139878161394e565b9050919050565b7f4f72646572526566756e646564000000000000000000000000000000000000005f82015250565b5f6139c2600d8361372a565b91506139cd8261398e565b602082019050919050565b5f6020820190508181035f8301526139ef816139b6565b9050919050565b7f4665654578636565647350726f746f636f6c46656500000000000000000000005f82015250565b5f613a2a60158361372a565b9150613a35826139f6565b602082019050919050565b5f6020820190508181035f830152613a5781613a1e565b9050919050565b613a67816131ad565b82525050565b5f604082019050613a805f8301856135fe565b613a8d6020830184613a5e565b9392505050565b613a9d8161317a565b8114613aa7575f80fd5b50565b5f81519050613ab881613a94565b92915050565b5f60208284031215613ad357613ad26130a7565b5b5f613ae084828501613aaa565b91505092915050565b7f4e487b71000000000000000000000000000000000000000000000000000000005f52601160045260245ffd5b5f613b20826131ad565b9150613b2b836131ad565b9250828203905081811115613b4357613b42613ae9565b5b92915050565b5f613b53826131ad565b9150613b5e836131ad565b9250828201905080821115613b7657613b75613ae9565b5b92915050565b5f602082019050613b8f5f830184613a5e565b92915050565b7f4f776e61626c6532537465703a2063616c6c6572206973206e6f7420746865205f8201527f6e6577206f776e65720000000000000000000000000000000000000000000000602082015250565b5f613bef60298361372a565b9150613bfa82613b95565b604082019050919050565b5f6020820190508181035f830152613c1c81613be3565b9050919050565b7f496e76616c69644d6573736167654861736800000000000000000000000000005f82015250565b5f613c5760128361372a565b9150613c6282613c23565b602082019050919050565b5f6020820190508181035f830152613c8481613c4b565b9050919050565b5f606082019050613c9e5f8301866135fe565b613cab60208301856135fe565b613cb86040830184613a5e565b949350505050565b5f613cca826131ad565b91507fffffffffffffffffffffffffffffffffffffffffffffffffffffffffffffffff8203613cfc57613cfb613ae9565b5b600182019050919050565b5f606082019050613d1a5f8301866135fe565b613d276020830185613a5e565b613d346040830184613a5e565b949350505050565b7f4f72646572416c726561647945786973747300000000000000000000000000005f82015250565b5f613d7060128361372a565b9150613d7b82613d3c565b602082019050919050565b5f6020820190508181035f830152613d9d81613d64565b9050919050565b7f53656e64657246656549735a65726f00000000000000000000000000000000005f82015250565b5f613dd8600f8361372a565b9150613de382613da4565b602082019050919050565b5f6020820190508181035f830152613e0581613dcc565b9050919050565b7f546f6b656e46656553657474696e67734e6f74436f6e666967757265640000005f82015250565b5f613e40601d8361372a565b9150613e4b82613e0c565b602082019050919050565b5f6020820190508181035f830152613e6d81613e34565b9050919050565b5f613e7e826131ad565b9150613e89836131ad565b9250828202613e97816131ad565b91508282048414831517613eae57613ead613ae9565b5b5092915050565b7f4e487b71000000000000000000000000000000000000000000000000000000005f52601260045260245ffd5b5f613eec826131ad565b9150613ef7836131ad565b925082613f0757613f06613eb5565b5b828204905092915050565b5f819050919050565b5f613f35613f30613f2b846132a1565b613f12565b6131ad565b9050919050565b613f4581613f1b565b82525050565b828183375f83830152505050565b5f601f19601f8301169050919050565b5f613f74838561372a565b9350613f81838584613f4b565b613f8a83613f59565b840190509392505050565b5f608082019050613fa85f830188613a5e565b613fb560208301876134f3565b613fc26040830186613f3c565b8181036060830152613fd5818486613f69565b90509695505050505050565b7f496e697469616c697a61626c653a20636f6e747261637420697320616c7265615f8201527f647920696e697469616c697a6564000000000000000000000000000000000000602082015250565b5f61403b602e8361372a565b915061404682613fe1565b604082019050919050565b5f6020820190508181035f8301526140688161402f565b9050919050565b5f819050919050565b5f60ff82169050919050565b5f61409e6140996140948461406f565b613f12565b614078565b9050919050565b6140ae81614084565b82525050565b5f6020820190506140c75f8301846140a5565b92915050565b7f476174657761793a20746f6b656e206e6f7420737570706f72746564000000005f82015250565b5f614101601c8361372a565b915061410c826140cd565b602082019050919050565b5f6020820190508181035f83015261412e816140f5565b9050919050565b7f476174657761793a20696e76616c69642073656e64657220746f2070726f76695f8201527f6465720000000000000000000000000000000000000000000000000000000000602082015250565b5f61418f60238361372a565b915061419a82614135565b604082019050919050565b5f6020820190508181035f8301526141bc81614183565b9050919050565b7f476174657761793a20696e76616c69642070726f766964657220746f206167675f8201527f72656761746f7200000000000000000000000000000000000000000000000000602082015250565b5f61421d60278361372a565b9150614228826141c3565b604082019050919050565b5f6020820190508181035f83015261424a81614211565b9050919050565b7f476174657761793a20696e76616c69642073656e64657220746f2061676772655f8201527f6761746f72000000000000000000000000000000000000000000000000000000602082015250565b5f6142ab60258361372a565b91506142b682614251565b604082019050919050565b5f6020820190508181035f8301526142d88161429f565b9050919050565b7f476174657761793a20696e76616c69642070726f766964657220746f206167675f8201527f72656761746f7220667800000000000000000000000000000000000000000000602082015250565b5f614339602a8361372a565b9150614344826142df565b604082019050919050565b5f6020820190508181035f8301526143668161432d565b9050919050565b5f6080820190506143805f830187613a5e565b61438d6020830186613a5e565b61439a6040830185613a5e565b6143a76060830184613a5e565b95945050505050565b7f476174657761793a20696e76616c6964207374617475730000000000000000005f82015250565b5f6143e460178361372a565b91506143ef826143b0565b602082019050919050565b5f6020820190508181035f830152614411816143d8565b9050919050565b7f496e76616c696452656261746550657263656e740000000000000000000000005f82015250565b5f61444c60148361372a565b915061445782614418565b602082019050919050565b5f6020820190508181035f83015261447981614440565b9050919050565b5f61448a826132a1565b9150614495836132a1565b925082820390506bffffffffffffffffffffffff8111156144b9576144b8613ae9565b5b92915050565b6144c881613676565b82525050565b5f6060820190506144e15f8301866134f3565b6144ee60208301856144bf565b6144fb60408301846144bf565b949350505050565b7f4f776e61626c653a2063616c6c6572206973206e6f7420746865206f776e65725f82015250565b5f61453760208361372a565b915061454282614503565b602082019050919050565b5f6020820190508181035f8301526145648161452b565b9050919050565b7f5061757361626c653a20706175736564000000000000000000000000000000005f82015250565b5f61459f60108361372a565b91506145aa8261456b565b602082019050919050565b5f6020820190508181035f8301526145cc81614593565b9050919050565b7f546f6b656e4e6f74537570706f727465640000000000000000000000000000005f82015250565b5f61460760118361372a565b9150614612826145d3565b602082019050919050565b5f6020820190508181035f830152614634816145fb565b9050919050565b7f416d6f756e7449735a65726f00000000000000000000000000000000000000005f82015250565b5f61466f600c8361372a565b915061467a8261463b565b602082019050919050565b5f6020820190508181035f83015261469c81614663565b9050919050565b7f5468726f775a65726f41646472657373000000000000000000000000000000005f82015250565b5f6146d760108361372a565b91506146e2826146a3565b602082019050919050565b5f6020820190508181035f830152614704816146cb565b9050919050565b7f496e76616c696453656e646572466565526563697069656e74000000000000005f82015250565b5f61473f60198361372a565b915061474a8261470b565b602082019050919050565b5f6020820190508181035f83015261476c81614733565b9050919050565b7f496e697469616c697a61626c653a20636f6e7472616374206973206e6f7420695f8201527f6e697469616c697a696e67000000000000000000000000000000000000000000602082015250565b5f6147cd602b8361372a565b91506147d882614773565b604082019050919050565b5f6020820190508181035f8301526147fa816147c1565b9050919050565b5f6040820190506148145f830185613a5e565b6148216020830184613a5e565b9392505050565b5f60608201905061483b5f830186613a5e565b6148486020830185613a5e565b6148556040830184613a5e565b949350505050565b7f5061757361626c653a206e6f74207061757365640000000000000000000000005f82015250565b5f61489160148361372a565b915061489c8261485d565b602082019050919050565b5f6020820190508181035f8301526148be81614885565b905091905056fea2646970667358221220039a17c0ebb0f09c3837d6bfd7843968f1541a8d63bc2784f173950574c7bec164736f6c63430008140033","opcodes":"PUSH1 0x80 PUSH1 0x40 MSTORE CALLVALUE DUP1 ISZERO PUSH3 0x10 JUMPI PUSH0 DUP1 REVERT JUMPDEST POP PUSH3 0x21 PUSH3 0x27 PUSH1 0x20 SHL PUSH1 0x20 SHR JUMP JUMPDEST PUSH3 0x1C6 JUMP JUMPDEST PUSH0 PUSH1 0x1 SWAP1 SLOAD SWAP1 PUSH2 0x100 EXP SWAP1 DIV PUSH1 0xFF AND ISZERO PUSH3 0x79 JUMPI PUSH1 0x40 MLOAD PUSH32 0x8C379A000000000000000000000000000000000000000000000000000000000 DUP2 MSTORE PUSH1 0x4 ADD PUSH3 0x70 SWAP1 PUSH3 0x16E JUMP JUMPDEST PUSH1 0x40 MLOAD DUP1 SWAP2 SUB SWAP1 REVERT JUMPDEST PUSH1 0xFF DUP1 AND PUSH0 DUP1 SLOAD SWAP1 PUSH2 0x100 EXP SWAP1 DIV PUSH1 0xFF AND PUSH1 0xFF AND EQ PUSH3 0xE8 JUMPI PUSH1 0xFF PUSH0 DUP1 PUSH2 0x100 EXP DUP2 SLOAD DUP2 PUSH1 0xFF MUL NOT AND SWAP1 DUP4 PUSH1 0xFF AND MUL OR SWAP1 SSTORE POP PUSH32 0x7F26B83FF96E1F2B6A682F133852F6798A09C465DA95921460CEFB3847402498 PUSH1 0xFF PUSH1 0x40 MLOAD PUSH3 0xDF SWAP2 SWAP1 PUSH3 0x1AB JUMP JUMPDEST PUSH1 0x40 MLOAD DUP1 SWAP2 SUB SWAP1 LOG1 JUMPDEST JUMP JUMPDEST PUSH0 DUP3 DUP3 MSTORE PUSH1 0x20 DUP3 ADD SWAP1 POP SWAP3 SWAP2 POP POP JUMP JUMPDEST PUSH32 0x496E697469616C697A61626C653A20636F6E747261637420697320696E697469 PUSH0 DUP3 ADD MSTORE PUSH32 0x616C697A696E6700000000000000000000000000000000000000000000000000 PUSH1 0x20 DUP3 ADD MSTORE POP JUMP JUMPDEST PUSH0 PUSH3 0x156 PUSH1 0x27 DUP4 PUSH3 0xEA JUMP JUMPDEST SWAP2 POP PUSH3 0x163 DUP3 PUSH3 0xFA JUMP JUMPDEST PUSH1 0x40 DUP3 ADD SWAP1 POP SWAP2 SWAP1 POP JUMP JUMPDEST PUSH0 PUSH1 0x20 DUP3 ADD SWAP1 POP DUP2 DUP2 SUB PUSH0 DUP4 ADD MSTORE PUSH3 0x187 DUP2 PUSH3 0x148 JUMP JUMPDEST SWAP1 POP SWAP2 SWAP1 POP JUMP JUMPDEST PUSH0 PUSH1 0xFF DUP3 AND SWAP1 POP SWAP2 SWAP1 POP JUMP JUMPDEST PUSH3 0x1A5 DUP2 PUSH3 0x18E JUMP JUMPDEST DUP3 MSTORE POP POP JUMP JUMPDEST PUSH0 PUSH1 0x20 DUP3 ADD SWAP1 POP PUSH3 0x1C0 PUSH0 DUP4 ADD DUP5 PUSH3 0x19A JUMP JUMPDEST SWAP3 SWAP2 POP POP JUMP JUMPDEST PUSH2 0x48FB DUP1 PUSH3 0x1D4 PUSH0 CODECOPY PUSH0 RETURN INVALID PUSH1 0x80 PUSH1 0x40 MSTORE CALLVALUE DUP1 ISZERO PUSH2 0xF JUMPI PUSH0 DUP1 REVERT JUMPDEST POP PUSH1 0x4 CALLDATASIZE LT PUSH2 0x114 JUMPI PUSH0 CALLDATALOAD PUSH1 0xE0 SHR DUP1 PUSH4 0x8129FC1C GT PUSH2 0xA0 JUMPI DUP1 PUSH4 0x8DA5CB5B GT PUSH2 0x6F JUMPI DUP1 PUSH4 0x8DA5CB5B EQ PUSH2 0x290 JUMPI DUP1 PUSH4 0xCD992400 EQ PUSH2 0x2AE JUMPI DUP1 PUSH4 0xDF51B359 EQ PUSH2 0x2CA JUMPI DUP1 PUSH4 0xE30C3978 EQ PUSH2 0x2FA JUMPI DUP1 PUSH4 0xF2FDE38B EQ PUSH2 0x318 JUMPI PUSH2 0x114 JUMP JUMPDEST DUP1 PUSH4 0x8129FC1C EQ PUSH2 0x230 JUMPI DUP1 PUSH4 0x8456CB59 EQ PUSH2 0x23A JUMPI DUP1 PUSH4 0x898861B0 EQ PUSH2 0x244 JUMPI DUP1 PUSH4 0x8BFA0549 EQ PUSH2 0x260 JUMPI PUSH2 0x114 JUMP JUMPDEST DUP1 PUSH4 0x71EEDB88 GT PUSH2 0xE7 JUMPI DUP1 PUSH4 0x71EEDB88 EQ PUSH2 0x166 JUMPI DUP1 PUSH4 0x75151B63 EQ PUSH2 0x196 JUMPI DUP1 PUSH4 0x768C6EC0 EQ PUSH2 0x1C6 JUMPI DUP1 PUSH4 0x79BA5097 EQ PUSH2 0x1F6 JUMPI DUP1 PUSH4 0x809804F7 EQ PUSH2 0x200 JUMPI PUSH2 0x114 JUMP JUMPDEST DUP1 PUSH4 0x3F4BA83A EQ PUSH2 0x118 JUMPI DUP1 PUSH4 0x40EBC677 EQ PUSH2 0x122 JUMPI DUP1 PUSH4 0x5C975ABB EQ PUSH2 0x13E JUMPI DUP1 PUSH4 0x715018A6 EQ PUSH2 0x15C JUMPI JUMPDEST PUSH0 DUP1 REVERT JUMPDEST PUSH2 0x120 PUSH2 0x334 JUMP JUMPDEST STOP JUMPDEST PUSH2 0x13C PUSH1 0x4 DUP1 CALLDATASIZE SUB DUP2 ADD SWAP1 PUSH2 0x137 SWAP2 SWAP1 PUSH2 0x313C JUMP JUMPDEST PUSH2 0x346 JUMP JUMPDEST STOP JUMPDEST PUSH2 0x146 PUSH2 0x60A JUMP JUMPDEST PUSH1 0x40 MLOAD PUSH2 0x153 SWAP2 SWAP1 PUSH2 0x3194 JUMP JUMPDEST PUSH1 0x40 MLOAD DUP1 SWAP2 SUB SWAP1 RETURN JUMPDEST PUSH2 0x164 PUSH2 0x61F JUMP JUMPDEST STOP JUMPDEST PUSH2 0x180 PUSH1 0x4 DUP1 CALLDATASIZE SUB DUP2 ADD SWAP1 PUSH2 0x17B SWAP2 SWAP1 PUSH2 0x31E0 JUMP JUMPDEST PUSH2 0x632 JUMP JUMPDEST PUSH1 0x40 MLOAD PUSH2 0x18D SWAP2 SWAP1 PUSH2 0x3194 JUMP JUMPDEST PUSH1 0x40 MLOAD DUP1 SWAP2 SUB SWAP1 RETURN JUMPDEST PUSH2 0x1B0 PUSH1 0x4 DUP1 CALLDATASIZE SUB DUP2 ADD SWAP1 PUSH2 0x1AB SWAP2 SWAP1 PUSH2 0x321E JUMP JUMPDEST PUSH2 0xA8D JUMP JUMPDEST PUSH1 0x40 MLOAD PUSH2 0x1BD SWAP2 SWAP1 PUSH2 0x3194 JUMP JUMPDEST PUSH1 0x40 MLOAD DUP1 SWAP2 SUB SWAP1 RETURN JUMPDEST PUSH2 0x1E0 PUSH1 0x4 DUP1 CALLDATASIZE SUB DUP2 ADD SWAP1 PUSH2 0x1DB SWAP2 SWAP1 PUSH2 0x3249 JUMP JUMPDEST PUSH2 0xAE5 JUMP JUMPDEST PUSH1 0x40 MLOAD PUSH2 0x1ED SWAP2 SWAP1 PUSH2 0x3391 JUMP JUMPDEST PUSH1 0x40 MLOAD DUP1 SWAP2 SUB SWAP1 RETURN JUMPDEST PUSH2 0x1FE PUSH2 0xCF5 JUMP JUMPDEST STOP JUMPDEST PUSH2 0x21A PUSH1 0x4 DUP1 CALLDATASIZE SUB DUP2 ADD SWAP1 PUSH2 0x215 SWAP2 SWAP1 PUSH2 0x3436 JUMP JUMPDEST PUSH2 0xD81 JUMP JUMPDEST PUSH1 0x40 MLOAD PUSH2 0x227 SWAP2 SWAP1 PUSH2 0x3502 JUMP JUMPDEST PUSH1 0x40 MLOAD DUP1 SWAP2 SUB SWAP1 RETURN JUMPDEST PUSH2 0x238 PUSH2 0x1408 JUMP JUMPDEST STOP JUMPDEST PUSH2 0x242 PUSH2 0x1552 JUMP JUMPDEST STOP JUMPDEST PUSH2 0x25E PUSH1 0x4 DUP1 CALLDATASIZE SUB DUP2 ADD SWAP1 PUSH2 0x259 SWAP2 SWAP1 PUSH2 0x351B JUMP JUMPDEST PUSH2 0x1564 JUMP JUMPDEST STOP JUMPDEST PUSH2 0x27A PUSH1 0x4 DUP1 CALLDATASIZE SUB DUP2 ADD SWAP1 PUSH2 0x275 SWAP2 SWAP1 PUSH2 0x321E JUMP JUMPDEST PUSH2 0x17E2 JUMP JUMPDEST PUSH1 0x40 MLOAD PUSH2 0x287 SWAP2 SWAP1 PUSH2 0x35E5 JUMP JUMPDEST PUSH1 0x40 MLOAD DUP1 SWAP2 SUB SWAP1 RETURN JUMPDEST PUSH2 0x298 PUSH2 0x1860 JUMP JUMPDEST PUSH1 0x40 MLOAD PUSH2 0x2A5 SWAP2 SWAP1 PUSH2 0x360D JUMP JUMPDEST PUSH1 0x40 MLOAD DUP1 SWAP2 SUB SWAP1 RETURN JUMPDEST PUSH2 0x2C8 PUSH1 0x4 DUP1 CALLDATASIZE SUB DUP2 ADD SWAP1 PUSH2 0x2C3 SWAP2 SWAP1 PUSH2 0x3626 JUMP JUMPDEST PUSH2 0x1888 JUMP JUMPDEST STOP JUMPDEST PUSH2 0x2E4 PUSH1 0x4 DUP1 CALLDATASIZE SUB DUP2 ADD SWAP1 PUSH2 0x2DF SWAP2 SWAP1 PUSH2 0x36B3 JUMP JUMPDEST PUSH2 0x1A0A JUMP JUMPDEST PUSH1 0x40 MLOAD PUSH2 0x2F1 SWAP2 SWAP1 PUSH2 0x3194 JUMP JUMPDEST PUSH1 0x40 MLOAD DUP1 SWAP2 SUB SWAP1 RETURN JUMPDEST PUSH2 0x302 PUSH2 0x20B3 JUMP JUMPDEST PUSH1 0x40 MLOAD PUSH2 0x30F SWAP2 SWAP1 PUSH2 0x360D JUMP JUMPDEST PUSH1 0x40 MLOAD DUP1 SWAP2 SUB SWAP1 RETURN JUMPDEST PUSH2 0x332 PUSH1 0x4 DUP1 CALLDATASIZE SUB DUP2 ADD SWAP1 PUSH2 0x32D SWAP2 SWAP1 PUSH2 0x321E JUMP JUMPDEST PUSH2 0x20DB JUMP JUMPDEST STOP JUMPDEST PUSH2 0x33C PUSH2 0x2187 JUMP JUMPDEST PUSH2 0x344 PUSH2 0x2205 JUMP JUMPDEST JUMP JUMPDEST PUSH2 0x34E PUSH2 0x2187 JUMP JUMPDEST PUSH0 PUSH20 0xFFFFFFFFFFFFFFFFFFFFFFFFFFFFFFFFFFFFFFFF AND DUP2 PUSH20 0xFFFFFFFFFFFFFFFFFFFFFFFFFFFFFFFFFFFFFFFF AND SUB PUSH2 0x3BC JUMPI PUSH1 0x40 MLOAD PUSH32 0x8C379A000000000000000000000000000000000000000000000000000000000 DUP2 MSTORE PUSH1 0x4 ADD PUSH2 0x3B3 SWAP1 PUSH2 0x3784 JUMP JUMPDEST PUSH1 0x40 MLOAD DUP1 SWAP2 SUB SWAP1 REVERT JUMPDEST PUSH0 PUSH32 0x7472656173757279000000000000000000000000000000000000000000000000 DUP4 SUB PUSH2 0x4BE JUMPI DUP2 PUSH20 0xFFFFFFFFFFFFFFFFFFFFFFFFFFFFFFFFFFFFFFFF AND PUSH1 0x98 PUSH1 0x8 SWAP1 SLOAD SWAP1 PUSH2 0x100 EXP SWAP1 DIV PUSH20 0xFFFFFFFFFFFFFFFFFFFFFFFFFFFFFFFFFFFFFFFF AND PUSH20 0xFFFFFFFFFFFFFFFFFFFFFFFFFFFFFFFFFFFFFFFF AND SUB PUSH2 0x474 JUMPI PUSH1 0x40 MLOAD PUSH32 0x8C379A000000000000000000000000000000000000000000000000000000000 DUP2 MSTORE PUSH1 0x4 ADD PUSH2 0x46B SWAP1 PUSH2 0x3812 JUMP JUMPDEST PUSH1 0x40 MLOAD DUP1 SWAP2 SUB SWAP1 REVERT JUMPDEST DUP2 PUSH1 0x98 PUSH1 0x8 PUSH2 0x100 EXP DUP2 SLOAD DUP2 PUSH20 0xFFFFFFFFFFFFFFFFFFFFFFFFFFFFFFFFFFFFFFFF MUL NOT AND SWAP1 DUP4 PUSH20 0xFFFFFFFFFFFFFFFFFFFFFFFFFFFFFFFFFFFFFFFF AND MUL OR SWAP1 SSTORE POP PUSH1 0x1 SWAP1 POP PUSH2 0x5BA JUMP JUMPDEST PUSH32 0x61676772656761746F7200000000000000000000000000000000000000000000 DUP4 SUB PUSH2 0x5B9 JUMPI DUP2 PUSH20 0xFFFFFFFFFFFFFFFFFFFFFFFFFFFFFFFFFFFFFFFF AND PUSH1 0x99 PUSH0 SWAP1 SLOAD SWAP1 PUSH2 0x100 EXP SWAP1 DIV PUSH20 0xFFFFFFFFFFFFFFFFFFFFFFFFFFFFFFFFFFFFFFFF AND PUSH20 0xFFFFFFFFFFFFFFFFFFFFFFFFFFFFFFFFFFFFFFFF AND SUB PUSH2 0x574 JUMPI PUSH1 0x40 MLOAD PUSH32 0x8C379A000000000000000000000000000000000000000000000000000000000 DUP2 MSTORE PUSH1 0x4 ADD PUSH2 0x56B SWAP1 PUSH2 0x38A0 JUMP JUMPDEST PUSH1 0x40 MLOAD DUP1 SWAP2 SUB SWAP1 REVERT JUMPDEST DUP2 PUSH1 0x99 PUSH0 PUSH2 0x100 EXP DUP2 SLOAD DUP2 PUSH20 0xFFFFFFFFFFFFFFFFFFFFFFFFFFFFFFFFFFFFFFFF MUL NOT AND SWAP1 DUP4 PUSH20 0xFFFFFFFFFFFFFFFFFFFFFFFFFFFFFFFFFFFFFFFF AND MUL OR SWAP1 SSTORE POP PUSH1 0x1 SWAP1 POP JUMPDEST JUMPDEST DUP1 ISZERO PUSH2 0x605 JUMPI DUP2 PUSH20 0xFFFFFFFFFFFFFFFFFFFFFFFFFFFFFFFFFFFFFFFF AND DUP4 PUSH32 0xBBC5B96E57CFECB3DBEEADF92E87F15E58E64FCD75CBE256DCC5D9EF2E51E8A4 PUSH1 0x40 MLOAD PUSH1 0x40 MLOAD DUP1 SWAP2 SUB SWAP1 LOG3 JUMPDEST POP POP POP JUMP JUMPDEST PUSH0 PUSH1 0xCD PUSH0 SWAP1 SLOAD SWAP1 PUSH2 0x100 EXP SWAP1 DIV PUSH1 0xFF AND SWAP1 POP SWAP1 JUMP JUMPDEST PUSH2 0x627 PUSH2 0x2187 JUMP JUMPDEST PUSH2 0x630 PUSH0 PUSH2 0x2266 JUMP JUMPDEST JUMP JUMPDEST PUSH0 PUSH1 0x99 PUSH0 SWAP1 SLOAD SWAP1 PUSH2 0x100 EXP SWAP1 DIV PUSH20 0xFFFFFFFFFFFFFFFFFFFFFFFFFFFFFFFFFFFFFFFF AND PUSH20 0xFFFFFFFFFFFFFFFFFFFFFFFFFFFFFFFFFFFFFFFF AND CALLER PUSH20 0xFFFFFFFFFFFFFFFFFFFFFFFFFFFFFFFFFFFFFFFF AND EQ PUSH2 0x6C2 JUMPI PUSH1 0x40 MLOAD PUSH32 0x8C379A000000000000000000000000000000000000000000000000000000000 DUP2 MSTORE PUSH1 0x4 ADD PUSH2 0x6B9 SWAP1 PUSH2 0x3908 JUMP JUMPDEST PUSH1 0x40 MLOAD DUP1 SWAP2 SUB SWAP1 REVERT JUMPDEST PUSH1 0xFF PUSH0 DUP4 DUP2 MSTORE PUSH1 0x20 ADD SWAP1 DUP2 MSTORE PUSH1 0x20 ADD PUSH0 KECCAK256 PUSH1 0x5 ADD PUSH0 SWAP1 SLOAD SWAP1 PUSH2 0x100 EXP SWAP1 DIV PUSH1 0xFF AND ISZERO PUSH2 0x723 JUMPI PUSH1 0x40 MLOAD PUSH32 0x8C379A000000000000000000000000000000000000000000000000000000000 DUP2 MSTORE PUSH1 0x4 ADD PUSH2 0x71A SWAP1 PUSH2 0x3970 JUMP JUMPDEST PUSH1 0x40 MLOAD DUP1 SWAP2 SUB SWAP1 REVERT JUMPDEST PUSH1 0xFF PUSH0 DUP4 DUP2 MSTORE PUSH1 0x20 ADD SWAP1 DUP2 MSTORE PUSH1 0x20 ADD PUSH0 KECCAK256 PUSH1 0x5 ADD PUSH1 0x1 SWAP1 SLOAD SWAP1 PUSH2 0x100 EXP SWAP1 DIV PUSH1 0xFF AND ISZERO PUSH2 0x785 JUMPI PUSH1 0x40 MLOAD PUSH32 0x8C379A000000000000000000000000000000000000000000000000000000000 DUP2 MSTORE PUSH1 0x4 ADD PUSH2 0x77C SWAP1 PUSH2 0x39D8 JUMP JUMPDEST PUSH1 0x40 MLOAD DUP1 SWAP2 SUB SWAP1 REVERT JUMPDEST DUP3 PUSH1 0xFF PUSH0 DUP5 DUP2 MSTORE PUSH1 0x20 ADD SWAP1 DUP2 MSTORE PUSH1 0x20 ADD PUSH0 KECCAK256 PUSH1 0x4 ADD SLOAD LT ISZERO PUSH2 0x7DC JUMPI PUSH1 0x40 MLOAD PUSH32 0x8C379A000000000000000000000000000000000000000000000000000000000 DUP2 MSTORE PUSH1 0x4 ADD PUSH2 0x7D3 SWAP1 PUSH2 0x3A40 JUMP JUMPDEST PUSH1 0x40 MLOAD DUP1 SWAP2 SUB SWAP1 REVERT JUMPDEST PUSH0 DUP4 GT ISZERO PUSH2 0x8B6 JUMPI PUSH1 0xFF PUSH0 DUP4 DUP2 MSTORE PUSH1 0x20 ADD SWAP1 DUP2 MSTORE PUSH1 0x20 ADD PUSH0 KECCAK256 PUSH1 0x1 ADD PUSH0 SWAP1 SLOAD SWAP1 PUSH2 0x100 EXP SWAP1 DIV PUSH20 0xFFFFFFFFFFFFFFFFFFFFFFFFFFFFFFFFFFFFFFFF AND PUSH20 0xFFFFFFFFFFFFFFFFFFFFFFFFFFFFFFFFFFFFFFFF AND PUSH4 0xA9059CBB PUSH1 0x98 PUSH1 0x8 SWAP1 SLOAD SWAP1 PUSH2 0x100 EXP SWAP1 DIV PUSH20 0xFFFFFFFFFFFFFFFFFFFFFFFFFFFFFFFFFFFFFFFF AND DUP6 PUSH1 0x40 MLOAD DUP4 PUSH4 0xFFFFFFFF AND PUSH1 0xE0 SHL DUP2 MSTORE PUSH1 0x4 ADD PUSH2 0x874 SWAP3 SWAP2 SWAP1 PUSH2 0x3A6D JUMP JUMPDEST PUSH1 0x20 PUSH1 0x40 MLOAD DUP1 DUP4 SUB DUP2 PUSH0 DUP8 GAS CALL ISZERO DUP1 ISZERO PUSH2 0x890 JUMPI RETURNDATASIZE PUSH0 DUP1 RETURNDATACOPY RETURNDATASIZE PUSH0 REVERT JUMPDEST POP POP POP POP PUSH1 0x40 MLOAD RETURNDATASIZE PUSH1 0x1F NOT PUSH1 0x1F DUP3 ADD AND DUP3 ADD DUP1 PUSH1 0x40 MSTORE POP DUP2 ADD SWAP1 PUSH2 0x8B4 SWAP2 SWAP1 PUSH2 0x3ABE JUMP JUMPDEST POP JUMPDEST PUSH1 0x1 PUSH1 0xFF PUSH0 DUP5 DUP2 MSTORE PUSH1 0x20 ADD SWAP1 DUP2 MSTORE PUSH1 0x20 ADD PUSH0 KECCAK256 PUSH1 0x5 ADD PUSH1 0x1 PUSH2 0x100 EXP DUP2 SLOAD DUP2 PUSH1 0xFF MUL NOT AND SWAP1 DUP4 ISZERO ISZERO MUL OR SWAP1 SSTORE POP PUSH0 PUSH1 0xFF PUSH0 DUP5 DUP2 MSTORE PUSH1 0x20 ADD SWAP1 DUP2 MSTORE PUSH1 0x20 ADD PUSH0 KECCAK256 PUSH1 0x6 ADD PUSH0 PUSH2 0x100 EXP DUP2 SLOAD DUP2 PUSH12 0xFFFFFFFFFFFFFFFFFFFFFFFF MUL NOT AND SWAP1 DUP4 PUSH12 0xFFFFFFFFFFFFFFFFFFFFFFFF AND MUL OR SWAP1 SSTORE POP PUSH0 DUP4 PUSH1 0xFF PUSH0 DUP6 DUP2 MSTORE PUSH1 0x20 ADD SWAP1 DUP2 MSTORE PUSH1 0x20 ADD PUSH0 KECCAK256 PUSH1 0x7 ADD SLOAD PUSH2 0x946 SWAP2 SWAP1 PUSH2 0x3B16 JUMP JUMPDEST SWAP1 POP PUSH1 0xFF PUSH0 DUP5 DUP2 MSTORE PUSH1 0x20 ADD SWAP1 DUP2 MSTORE PUSH1 0x20 ADD PUSH0 KECCAK256 PUSH1 0x1 ADD PUSH0 SWAP1 SLOAD SWAP1 PUSH2 0x100 EXP SWAP1 DIV PUSH20 0xFFFFFFFFFFFFFFFFFFFFFFFFFFFFFFFFFFFFFFFF AND PUSH20 0xFFFFFFFFFFFFFFFFFFFFFFFFFFFFFFFFFFFFFFFF AND PUSH4 0xA9059CBB PUSH1 0xFF PUSH0 DUP7 DUP2 MSTORE PUSH1 0x20 ADD SWAP1 DUP2 MSTORE PUSH1 0x20 ADD PUSH0 KECCAK256 PUSH1 0x5 ADD PUSH1 0x2 SWAP1 SLOAD SWAP1 PUSH2 0x100 EXP SWAP1 DIV PUSH20 0xFFFFFFFFFFFFFFFFFFFFFFFFFFFFFFFFFFFFFFFF AND PUSH1 0xFF PUSH0 DUP8 DUP2 MSTORE PUSH1 0x20 ADD SWAP1 DUP2 MSTORE PUSH1 0x20 ADD PUSH0 KECCAK256 PUSH1 0x3 ADD SLOAD DUP5 PUSH2 0x9EC SWAP2 SWAP1 PUSH2 0x3B49 JUMP JUMPDEST PUSH1 0x40 MLOAD DUP4 PUSH4 0xFFFFFFFF AND PUSH1 0xE0 SHL DUP2 MSTORE PUSH1 0x4 ADD PUSH2 0xA09 SWAP3 SWAP2 SWAP1 PUSH2 0x3A6D JUMP JUMPDEST PUSH1 0x20 PUSH1 0x40 MLOAD DUP1 DUP4 SUB DUP2 PUSH0 DUP8 GAS CALL ISZERO DUP1 ISZERO PUSH2 0xA25 JUMPI RETURNDATASIZE PUSH0 DUP1 RETURNDATACOPY RETURNDATASIZE PUSH0 REVERT JUMPDEST POP POP POP POP PUSH1 0x40 MLOAD RETURNDATASIZE PUSH1 0x1F NOT PUSH1 0x1F DUP3 ADD AND DUP3 ADD DUP1 PUSH1 0x40 MSTORE POP DUP2 ADD SWAP1 PUSH2 0xA49 SWAP2 SWAP1 PUSH2 0x3ABE JUMP JUMPDEST POP DUP3 PUSH32 0x736FE428E1747CA8D387C2E6FA1A31A0CDE62D3A167C40A46ADE59A3CDC828E DUP6 PUSH1 0x40 MLOAD PUSH2 0xA7A SWAP2 SWAP1 PUSH2 0x3B7C JUMP JUMPDEST PUSH1 0x40 MLOAD DUP1 SWAP2 SUB SWAP1 LOG2 PUSH1 0x1 SWAP2 POP POP SWAP3 SWAP2 POP POP JUMP JUMPDEST PUSH0 PUSH1 0x1 PUSH1 0x9A PUSH0 DUP5 PUSH20 0xFFFFFFFFFFFFFFFFFFFFFFFFFFFFFFFFFFFFFFFF AND PUSH20 0xFFFFFFFFFFFFFFFFFFFFFFFFFFFFFFFFFFFFFFFF AND DUP2 MSTORE PUSH1 0x20 ADD SWAP1 DUP2 MSTORE PUSH1 0x20 ADD PUSH0 KECCAK256 SLOAD SUB PUSH2 0xADC JUMPI PUSH1 0x1 SWAP1 POP PUSH2 0xAE0 JUMP JUMPDEST PUSH0 SWAP1 POP JUMPDEST SWAP2 SWAP1 POP JUMP JUMPDEST PUSH2 0xAED PUSH2 0x2FD0 JUMP JUMPDEST PUSH1 0xFF PUSH0 DUP4 DUP2 MSTORE PUSH1 0x20 ADD SWAP1 DUP2 MSTORE PUSH1 0x20 ADD PUSH0 KECCAK256 PUSH1 0x40 MLOAD DUP1 PUSH2 0x140 ADD PUSH1 0x40 MSTORE SWAP1 DUP2 PUSH0 DUP3 ADD PUSH0 SWAP1 SLOAD SWAP1 PUSH2 0x100 EXP SWAP1 DIV PUSH20 0xFFFFFFFFFFFFFFFFFFFFFFFFFFFFFFFFFFFFFFFF AND PUSH20 0xFFFFFFFFFFFFFFFFFFFFFFFFFFFFFFFFFFFFFFFF AND PUSH20 0xFFFFFFFFFFFFFFFFFFFFFFFFFFFFFFFFFFFFFFFF AND DUP2 MSTORE PUSH1 0x20 ADD PUSH1 0x1 DUP3 ADD PUSH0 SWAP1 SLOAD SWAP1 PUSH2 0x100 EXP SWAP1 DIV PUSH20 0xFFFFFFFFFFFFFFFFFFFFFFFFFFFFFFFFFFFFFFFF AND PUSH20 0xFFFFFFFFFFFFFFFFFFFFFFFFFFFFFFFFFFFFFFFF AND PUSH20 0xFFFFFFFFFFFFFFFFFFFFFFFFFFFFFFFFFFFFFFFF AND DUP2 MSTORE PUSH1 0x20 ADD PUSH1 0x2 DUP3 ADD PUSH0 SWAP1 SLOAD SWAP1 PUSH2 0x100 EXP SWAP1 DIV PUSH20 0xFFFFFFFFFFFFFFFFFFFFFFFFFFFFFFFFFFFFFFFF AND PUSH20 0xFFFFFFFFFFFFFFFFFFFFFFFFFFFFFFFFFFFFFFFF AND PUSH20 0xFFFFFFFFFFFFFFFFFFFFFFFFFFFFFFFFFFFFFFFF AND DUP2 MSTORE PUSH1 0x20 ADD PUSH1 0x3 DUP3 ADD SLOAD DUP2 MSTORE PUSH1 0x20 ADD PUSH1 0x4 DUP3 ADD SLOAD DUP2 MSTORE PUSH1 0x20 ADD PUSH1 0x5 DUP3 ADD PUSH0 SWAP1 SLOAD SWAP1 PUSH2 0x100 EXP SWAP1 DIV PUSH1 0xFF AND ISZERO ISZERO ISZERO ISZERO DUP2 MSTORE PUSH1 0x20 ADD PUSH1 0x5 DUP3 ADD PUSH1 0x1 SWAP1 SLOAD SWAP1 PUSH2 0x100 EXP SWAP1 DIV PUSH1 0xFF AND ISZERO ISZERO ISZERO ISZERO DUP2 MSTORE PUSH1 0x20 ADD PUSH1 0x5 DUP3 ADD PUSH1 0x2 SWAP1 SLOAD SWAP1 PUSH2 0x100 EXP SWAP1 DIV PUSH20 0xFFFFFFFFFFFFFFFFFFFFFFFFFFFFFFFFFFFFFFFF AND PUSH20 0xFFFFFFFFFFFFFFFFFFFFFFFFFFFFFFFFFFFFFFFF AND PUSH20 0xFFFFFFFFFFFFFFFFFFFFFFFFFFFFFFFFFFFFFFFF AND DUP2 MSTORE PUSH1 0x20 ADD PUSH1 0x6 DUP3 ADD PUSH0 SWAP1 SLOAD SWAP1 PUSH2 0x100 EXP SWAP1 DIV PUSH12 0xFFFFFFFFFFFFFFFFFFFFFFFF AND PUSH12 0xFFFFFFFFFFFFFFFFFFFFFFFF AND PUSH12 0xFFFFFFFFFFFFFFFFFFFFFFFF AND DUP2 MSTORE PUSH1 0x20 ADD PUSH1 0x7 DUP3 ADD SLOAD DUP2 MSTORE POP POP SWAP1 POP SWAP2 SWAP1 POP JUMP JUMPDEST PUSH0 PUSH2 0xCFE PUSH2 0x2296 JUMP JUMPDEST SWAP1 POP DUP1 PUSH20 0xFFFFFFFFFFFFFFFFFFFFFFFFFFFFFFFFFFFFFFFF AND PUSH2 0xD1F PUSH2 0x20B3 JUMP JUMPDEST PUSH20 0xFFFFFFFFFFFFFFFFFFFFFFFFFFFFFFFFFFFFFFFF AND EQ PUSH2 0xD75 JUMPI PUSH1 0x40 MLOAD PUSH32 0x8C379A000000000000000000000000000000000000000000000000000000000 DUP2 MSTORE PUSH1 0x4 ADD PUSH2 0xD6C SWAP1 PUSH2 0x3C05 JUMP JUMPDEST PUSH1 0x40 MLOAD DUP1 SWAP2 SUB SWAP1 REVERT JUMPDEST PUSH2 0xD7E DUP2 PUSH2 0x2266 JUMP JUMPDEST POP JUMP JUMPDEST PUSH0 PUSH2 0xD8A PUSH2 0x229D JUMP JUMPDEST PUSH2 0xD97 DUP10 DUP10 DUP7 DUP10 DUP10 PUSH2 0x22E7 JUMP JUMPDEST PUSH0 DUP4 DUP4 SWAP1 POP SUB PUSH2 0xDDC JUMPI PUSH1 0x40 MLOAD PUSH32 0x8C379A000000000000000000000000000000000000000000000000000000000 DUP2 MSTORE PUSH1 0x4 ADD PUSH2 0xDD3 SWAP1 PUSH2 0x3C6D JUMP JUMPDEST PUSH1 0x40 MLOAD DUP1 SWAP2 SUB SWAP1 REVERT JUMPDEST DUP9 PUSH20 0xFFFFFFFFFFFFFFFFFFFFFFFFFFFFFFFFFFFFFFFF AND PUSH4 0x23B872DD CALLER ADDRESS DUP9 DUP13 PUSH2 0xE06 SWAP2 SWAP1 PUSH2 0x3B49 JUMP JUMPDEST PUSH1 0x40 MLOAD DUP5 PUSH4 0xFFFFFFFF AND PUSH1 0xE0 SHL DUP2 MSTORE PUSH1 0x4 ADD PUSH2 0xE24 SWAP4 SWAP3 SWAP2 SWAP1 PUSH2 0x3C8B JUMP JUMPDEST PUSH1 0x20 PUSH1 0x40 MLOAD DUP1 DUP4 SUB DUP2 PUSH0 DUP8 GAS CALL ISZERO DUP1 ISZERO PUSH2 0xE40 JUMPI RETURNDATASIZE PUSH0 DUP1 RETURNDATACOPY RETURNDATASIZE PUSH0 REVERT JUMPDEST POP POP POP POP PUSH1 0x40 MLOAD RETURNDATASIZE PUSH1 0x1F NOT PUSH1 0x1F DUP3 ADD AND DUP3 ADD DUP1 PUSH1 0x40 MSTORE POP DUP2 ADD SWAP1 PUSH2 0xE64 SWAP2 SWAP1 PUSH2 0x3ABE JUMP JUMPDEST POP PUSH2 0x100 PUSH0 CALLER PUSH20 0xFFFFFFFFFFFFFFFFFFFFFFFFFFFFFFFFFFFFFFFF AND PUSH20 0xFFFFFFFFFFFFFFFFFFFFFFFFFFFFFFFFFFFFFFFF AND DUP2 MSTORE PUSH1 0x20 ADD SWAP1 DUP2 MSTORE PUSH1 0x20 ADD PUSH0 KECCAK256 PUSH0 DUP2 SLOAD DUP1 SWAP3 SWAP2 SWAP1 PUSH2 0xEB3 SWAP1 PUSH2 0x3CC0 JUMP JUMPDEST SWAP2 SWAP1 POP SSTORE POP CALLER PUSH2 0x100 PUSH0 CALLER PUSH20 0xFFFFFFFFFFFFFFFFFFFFFFFFFFFFFFFFFFFFFFFF AND PUSH20 0xFFFFFFFFFFFFFFFFFFFFFFFFFFFFFFFFFFFFFFFF AND DUP2 MSTORE PUSH1 0x20 ADD SWAP1 DUP2 MSTORE PUSH1 0x20 ADD PUSH0 KECCAK256 SLOAD CHAINID PUSH1 0x40 MLOAD PUSH1 0x20 ADD PUSH2 0xF0B SWAP4 SWAP3 SWAP2 SWAP1 PUSH2 0x3D07 JUMP JUMPDEST PUSH1 0x40 MLOAD PUSH1 0x20 DUP2 DUP4 SUB SUB DUP2 MSTORE SWAP1 PUSH1 0x40 MSTORE DUP1 MLOAD SWAP1 PUSH1 0x20 ADD KECCAK256 SWAP1 POP PUSH0 PUSH20 0xFFFFFFFFFFFFFFFFFFFFFFFFFFFFFFFFFFFFFFFF AND PUSH1 0xFF PUSH0 DUP4 DUP2 MSTORE PUSH1 0x20 ADD SWAP1 DUP2 MSTORE PUSH1 0x20 ADD PUSH0 KECCAK256 PUSH0 ADD PUSH0 SWAP1 SLOAD SWAP1 PUSH2 0x100 EXP SWAP1 DIV PUSH20 0xFFFFFFFFFFFFFFFFFFFFFFFFFFFFFFFFFFFFFFFF AND PUSH20 0xFFFFFFFFFFFFFFFFFFFFFFFFFFFFFFFFFFFFFFFF AND EQ PUSH2 0xFC3 JUMPI PUSH1 0x40 MLOAD PUSH32 0x8C379A000000000000000000000000000000000000000000000000000000000 DUP2 MSTORE PUSH1 0x4 ADD PUSH2 0xFBA SWAP1 PUSH2 0x3D86 JUMP JUMPDEST PUSH1 0x40 MLOAD DUP1 SWAP2 SUB SWAP1 REVERT JUMPDEST PUSH0 PUSH1 0x64 DUP9 PUSH12 0xFFFFFFFFFFFFFFFFFFFFFFFF AND SUB PUSH2 0x1024 JUMPI PUSH0 SWAP1 POP PUSH0 DUP7 GT PUSH2 0x101F JUMPI PUSH1 0x40 MLOAD PUSH32 0x8C379A000000000000000000000000000000000000000000000000000000000 DUP2 MSTORE PUSH1 0x4 ADD PUSH2 0x1016 SWAP1 PUSH2 0x3DEE JUMP JUMPDEST PUSH1 0x40 MLOAD DUP1 SWAP2 SUB SWAP1 REVERT JUMPDEST PUSH2 0x10FD JUMP JUMPDEST PUSH0 PUSH1 0x9B PUSH0 DUP13 PUSH20 0xFFFFFFFFFFFFFFFFFFFFFFFFFFFFFFFFFFFFFFFF AND PUSH20 0xFFFFFFFFFFFFFFFFFFFFFFFFFFFFFFFFFFFFFFFF AND DUP2 MSTORE PUSH1 0x20 ADD SWAP1 DUP2 MSTORE PUSH1 0x20 ADD PUSH0 KECCAK256 PUSH1 0x40 MLOAD DUP1 PUSH1 0x80 ADD PUSH1 0x40 MSTORE SWAP1 DUP2 PUSH0 DUP3 ADD SLOAD DUP2 MSTORE PUSH1 0x20 ADD PUSH1 0x1 DUP3 ADD SLOAD DUP2 MSTORE PUSH1 0x20 ADD PUSH1 0x2 DUP3 ADD SLOAD DUP2 MSTORE PUSH1 0x20 ADD PUSH1 0x3 DUP3 ADD SLOAD DUP2 MSTORE POP POP SWAP1 POP PUSH0 DUP2 PUSH1 0x60 ADD MLOAD GT PUSH2 0x10DC JUMPI PUSH1 0x40 MLOAD PUSH32 0x8C379A000000000000000000000000000000000000000000000000000000000 DUP2 MSTORE PUSH1 0x4 ADD PUSH2 0x10D3 SWAP1 PUSH2 0x3E56 JUMP JUMPDEST PUSH1 0x40 MLOAD DUP1 SWAP2 SUB SWAP1 REVERT JUMPDEST PUSH1 0x97 SLOAD DUP2 PUSH1 0x60 ADD MLOAD DUP12 PUSH2 0x10EF SWAP2 SWAP1 PUSH2 0x3E74 JUMP JUMPDEST PUSH2 0x10F9 SWAP2 SWAP1 PUSH2 0x3EE2 JUMP JUMPDEST SWAP2 POP POP JUMPDEST PUSH1 0x40 MLOAD DUP1 PUSH2 0x140 ADD PUSH1 0x40 MSTORE DUP1 CALLER PUSH20 0xFFFFFFFFFFFFFFFFFFFFFFFFFFFFFFFFFFFFFFFF AND DUP2 MSTORE PUSH1 0x20 ADD DUP12 PUSH20 0xFFFFFFFFFFFFFFFFFFFFFFFFFFFFFFFFFFFFFFFF AND DUP2 MSTORE PUSH1 0x20 ADD DUP9 PUSH20 0xFFFFFFFFFFFFFFFFFFFFFFFFFFFFFFFFFFFFFFFF AND DUP2 MSTORE PUSH1 0x20 ADD DUP8 DUP2 MSTORE PUSH1 0x20 ADD DUP3 DUP2 MSTORE PUSH1 0x20 ADD PUSH0 ISZERO ISZERO DUP2 MSTORE PUSH1 0x20 ADD PUSH0 ISZERO ISZERO DUP2 MSTORE PUSH1 0x20 ADD DUP7 PUSH20 0xFFFFFFFFFFFFFFFFFFFFFFFFFFFFFFFFFFFFFFFF AND DUP2 MSTORE PUSH1 0x20 ADD PUSH1 0x97 SLOAD PUSH8 0xFFFFFFFFFFFFFFFF AND PUSH12 0xFFFFFFFFFFFFFFFFFFFFFFFF AND DUP2 MSTORE PUSH1 0x20 ADD DUP11 DUP2 MSTORE POP PUSH1 0xFF PUSH0 DUP5 DUP2 MSTORE PUSH1 0x20 ADD SWAP1 DUP2 MSTORE PUSH1 0x20 ADD PUSH0 KECCAK256 PUSH0 DUP3 ADD MLOAD DUP2 PUSH0 ADD PUSH0 PUSH2 0x100 EXP DUP2 SLOAD DUP2 PUSH20 0xFFFFFFFFFFFFFFFFFFFFFFFFFFFFFFFFFFFFFFFF MUL NOT AND SWAP1 DUP4 PUSH20 0xFFFFFFFFFFFFFFFFFFFFFFFFFFFFFFFFFFFFFFFF AND MUL OR SWAP1 SSTORE POP PUSH1 0x20 DUP3 ADD MLOAD DUP2 PUSH1 0x1 ADD PUSH0 PUSH2 0x100 EXP DUP2 SLOAD DUP2 PUSH20 0xFFFFFFFFFFFFFFFFFFFFFFFFFFFFFFFFFFFFFFFF MUL NOT AND SWAP1 DUP4 PUSH20 0xFFFFFFFFFFFFFFFFFFFFFFFFFFFFFFFFFFFFFFFF AND MUL OR SWAP1 SSTORE POP PUSH1 0x40 DUP3 ADD MLOAD DUP2 PUSH1 0x2 ADD PUSH0 PUSH2 0x100 EXP DUP2 SLOAD DUP2 PUSH20 0xFFFFFFFFFFFFFFFFFFFFFFFFFFFFFFFFFFFFFFFF MUL NOT AND SWAP1 DUP4 PUSH20 0xFFFFFFFFFFFFFFFFFFFFFFFFFFFFFFFFFFFFFFFF AND MUL OR SWAP1 SSTORE POP PUSH1 0x60 DUP3 ADD MLOAD DUP2 PUSH1 0x3 ADD SSTORE PUSH1 0x80 DUP3 ADD MLOAD DUP2 PUSH1 0x4 ADD SSTORE PUSH1 0xA0 DUP3 ADD MLOAD DUP2 PUSH1 0x5 ADD PUSH0 PUSH2 0x100 EXP DUP2 SLOAD DUP2 PUSH1 0xFF MUL NOT AND SWAP1 DUP4 ISZERO ISZERO MUL OR SWAP1 SSTORE POP PUSH1 0xC0 DUP3 ADD MLOAD DUP2 PUSH1 0x5 ADD PUSH1 0x1 PUSH2 0x100 EXP DUP2 SLOAD DUP2 PUSH1 0xFF MUL NOT AND SWAP1 DUP4 ISZERO ISZERO MUL OR SWAP1 SSTORE POP PUSH1 0xE0 DUP3 ADD MLOAD DUP2 PUSH1 0x5 ADD PUSH1 0x2 PUSH2 0x100 EXP DUP2 SLOAD DUP2 PUSH20 0xFFFFFFFFFFFFFFFFFFFFFFFFFFFFFFFFFFFFFFFF MUL NOT AND SWAP1 DUP4 PUSH20 0xFFFFFFFFFFFFFFFFFFFFFFFFFFFFFFFFFFFFFFFF AND MUL OR SWAP1 SSTORE POP PUSH2 0x100 DUP3 ADD MLOAD DUP2 PUSH1 0x6 ADD PUSH0 PUSH2 0x100 EXP DUP2 SLOAD DUP2 PUSH12 0xFFFFFFFFFFFFFFFFFFFFFFFF MUL NOT AND SWAP1 DUP4 PUSH12 0xFFFFFFFFFFFFFFFFFFFFFFFF AND MUL OR SWAP1 SSTORE POP PUSH2 0x120 DUP3 ADD MLOAD DUP2 PUSH1 0x7 ADD SSTORE SWAP1 POP POP PUSH1 0xFF PUSH0 DUP4 DUP2 MSTORE PUSH1 0x20 ADD SWAP1 DUP2 MSTORE PUSH1 0x20 ADD PUSH0 KECCAK256 PUSH1 0x7 ADD SLOAD DUP11 PUSH20 0xFFFFFFFFFFFFFFFFFFFFFFFFFFFFFFFFFFFFFFFF AND DUP7 PUSH20 0xFFFFFFFFFFFFFFFFFFFFFFFFFFFFFFFFFFFFFFFF AND PUSH32 0x40CCD1CEB111A3C186EF9911E1B876DC1F789ED331B86097B3B8851055B6A137 DUP5 DUP7 DUP14 DUP11 DUP11 PUSH1 0x40 MLOAD PUSH2 0x13F3 SWAP6 SWAP5 SWAP4 SWAP3 SWAP2 SWAP1 PUSH2 0x3F95 JUMP JUMPDEST PUSH1 0x40 MLOAD DUP1 SWAP2 SUB SWAP1 LOG4 POP SWAP9 SWAP8 POP POP POP POP POP POP POP POP JUMP JUMPDEST PUSH0 DUP1 PUSH1 0x1 SWAP1 SLOAD SWAP1 PUSH2 0x100 EXP SWAP1 DIV PUSH1 0xFF AND ISZERO SWAP1 POP DUP1 DUP1 ISZERO PUSH2 0x1437 JUMPI POP PUSH1 0x1 PUSH0 DUP1 SLOAD SWAP1 PUSH2 0x100 EXP SWAP1 DIV PUSH1 0xFF AND PUSH1 0xFF AND LT JUMPDEST DUP1 PUSH2 0x1463 JUMPI POP PUSH2 0x1446 ADDRESS PUSH2 0x2494 JUMP JUMPDEST ISZERO DUP1 ISZERO PUSH2 0x1462 JUMPI POP PUSH1 0x1 PUSH0 DUP1 SLOAD SWAP1 PUSH2 0x100 EXP SWAP1 DIV PUSH1 0xFF AND PUSH1 0xFF AND EQ JUMPDEST JUMPDEST PUSH2 0x14A2 JUMPI PUSH1 0x40 MLOAD PUSH32 0x8C379A000000000000000000000000000000000000000000000000000000000 DUP2 MSTORE PUSH1 0x4 ADD PUSH2 0x1499 SWAP1 PUSH2 0x4051 JUMP JUMPDEST PUSH1 0x40 MLOAD DUP1 SWAP2 SUB SWAP1 REVERT JUMPDEST PUSH1 0x1 PUSH0 DUP1 PUSH2 0x100 EXP DUP2 SLOAD DUP2 PUSH1 0xFF MUL NOT AND SWAP1 DUP4 PUSH1 0xFF AND MUL OR SWAP1 SSTORE POP DUP1 ISZERO PUSH2 0x14DD JUMPI PUSH1 0x1 PUSH0 PUSH1 0x1 PUSH2 0x100 EXP DUP2 SLOAD DUP2 PUSH1 0xFF MUL NOT AND SWAP1 DUP4 ISZERO ISZERO MUL OR SWAP1 SSTORE POP JUMPDEST PUSH3 0x186A0 PUSH1 0x97 DUP2 SWAP1 SSTORE POP PUSH2 0x14EF PUSH2 0x24B6 JUMP JUMPDEST PUSH2 0x14F7 PUSH2 0x250E JUMP JUMPDEST DUP1 ISZERO PUSH2 0x154F JUMPI PUSH0 DUP1 PUSH1 0x1 PUSH2 0x100 EXP DUP2 SLOAD DUP2 PUSH1 0xFF MUL NOT AND SWAP1 DUP4 ISZERO ISZERO MUL OR SWAP1 SSTORE POP PUSH32 0x7F26B83FF96E1F2B6A682F133852F6798A09C465DA95921460CEFB3847402498 PUSH1 0x1 PUSH1 0x40 MLOAD PUSH2 0x1546 SWAP2 SWAP1 PUSH2 0x40B4 JUMP JUMPDEST PUSH1 0x40 MLOAD DUP1 SWAP2 SUB SWAP1 LOG1 JUMPDEST POP JUMP JUMPDEST PUSH2 0x155A PUSH2 0x2187 JUMP JUMPDEST PUSH2 0x1562 PUSH2 0x2566 JUMP JUMPDEST JUMP JUMPDEST PUSH2 0x156C PUSH2 0x2187 JUMP JUMPDEST PUSH1 0x1 PUSH1 0x9A PUSH0 DUP8 PUSH20 0xFFFFFFFFFFFFFFFFFFFFFFFFFFFFFFFFFFFFFFFF AND PUSH20 0xFFFFFFFFFFFFFFFFFFFFFFFFFFFFFFFFFFFFFFFF AND DUP2 MSTORE PUSH1 0x20 ADD SWAP1 DUP2 MSTORE PUSH1 0x20 ADD PUSH0 KECCAK256 SLOAD EQ PUSH2 0x15EC JUMPI PUSH1 0x40 MLOAD PUSH32 0x8C379A000000000000000000000000000000000000000000000000000000000 DUP2 MSTORE PUSH1 0x4 ADD PUSH2 0x15E3 SWAP1 PUSH2 0x4117 JUMP JUMPDEST PUSH1 0x40 MLOAD DUP1 SWAP2 SUB SWAP1 REVERT JUMPDEST PUSH1 0x97 SLOAD DUP5 GT ISZERO PUSH2 0x1631 JUMPI PUSH1 0x40 MLOAD PUSH32 0x8C379A000000000000000000000000000000000000000000000000000000000 DUP2 MSTORE PUSH1 0x4 ADD PUSH2 0x1628 SWAP1 PUSH2 0x41A5 JUMP JUMPDEST PUSH1 0x40 MLOAD DUP1 SWAP2 SUB SWAP1 REVERT JUMPDEST PUSH1 0x97 SLOAD DUP4 GT ISZERO PUSH2 0x1676 JUMPI PUSH1 0x40 MLOAD PUSH32 0x8C379A000000000000000000000000000000000000000000000000000000000 DUP2 MSTORE PUSH1 0x4 ADD PUSH2 0x166D SWAP1 PUSH2 0x4233 JUMP JUMPDEST PUSH1 0x40 MLOAD DUP1 SWAP2 SUB SWAP1 REVERT JUMPDEST PUSH1 0x97 SLOAD DUP3 GT ISZERO PUSH2 0x16BB JUMPI PUSH1 0x40 MLOAD PUSH32 0x8C379A000000000000000000000000000000000000000000000000000000000 DUP2 MSTORE PUSH1 0x4 ADD PUSH2 0x16B2 SWAP1 PUSH2 0x42C1 JUMP JUMPDEST PUSH1 0x40 MLOAD DUP1 SWAP2 SUB SWAP1 REVERT JUMPDEST PUSH1 0x97 SLOAD DUP2 GT ISZERO PUSH2 0x1700 JUMPI PUSH1 0x40 MLOAD PUSH32 0x8C379A000000000000000000000000000000000000000000000000000000000 DUP2 MSTORE PUSH1 0x4 ADD PUSH2 0x16F7 SWAP1 PUSH2 0x434F JUMP JUMPDEST PUSH1 0x40 MLOAD DUP1 SWAP2 SUB SWAP1 REVERT JUMPDEST PUSH1 0x40 MLOAD DUP1 PUSH1 0x80 ADD PUSH1 0x40 MSTORE DUP1 DUP6 DUP2 MSTORE PUSH1 0x20 ADD DUP5 DUP2 MSTORE PUSH1 0x20 ADD DUP4 DUP2 MSTORE PUSH1 0x20 ADD DUP3 DUP2 MSTORE POP PUSH1 0x9B PUSH0 DUP8 PUSH20 0xFFFFFFFFFFFFFFFFFFFFFFFFFFFFFFFFFFFFFFFF AND PUSH20 0xFFFFFFFFFFFFFFFFFFFFFFFFFFFFFFFFFFFFFFFF AND DUP2 MSTORE PUSH1 0x20 ADD SWAP1 DUP2 MSTORE PUSH1 0x20 ADD PUSH0 KECCAK256 PUSH0 DUP3 ADD MLOAD DUP2 PUSH0 ADD SSTORE PUSH1 0x20 DUP3 ADD MLOAD DUP2 PUSH1 0x1 ADD SSTORE PUSH1 0x40 DUP3 ADD MLOAD DUP2 PUSH1 0x2 ADD SSTORE PUSH1 0x60 DUP3 ADD MLOAD DUP2 PUSH1 0x3 ADD SSTORE SWAP1 POP POP DUP5 PUSH20 0xFFFFFFFFFFFFFFFFFFFFFFFFFFFFFFFFFFFFFFFF AND PUSH32 0xD4D646CFFA66EBF695B792BD660C97076ED45A889E14D544EB8AB8A44B34A59C DUP6 DUP6 DUP6 DUP6 PUSH1 0x40 MLOAD PUSH2 0x17D3 SWAP5 SWAP4 SWAP3 SWAP2 SWAP1 PUSH2 0x436D JUMP JUMPDEST PUSH1 0x40 MLOAD DUP1 SWAP2 SUB SWAP1 LOG2 POP POP POP POP POP JUMP JUMPDEST PUSH2 0x17EA PUSH2 0x3083 JUMP JUMPDEST PUSH1 0x9B PUSH0 DUP4 PUSH20 0xFFFFFFFFFFFFFFFFFFFFFFFFFFFFFFFFFFFFFFFF AND PUSH20 0xFFFFFFFFFFFFFFFFFFFFFFFFFFFFFFFFFFFFFFFF AND DUP2 MSTORE PUSH1 0x20 ADD SWAP1 DUP2 MSTORE PUSH1 0x20 ADD PUSH0 KECCAK256 PUSH1 0x40 MLOAD DUP1 PUSH1 0x80 ADD PUSH1 0x40 MSTORE SWAP1 DUP2 PUSH0 DUP3 ADD SLOAD DUP2 MSTORE PUSH1 0x20 ADD PUSH1 0x1 DUP3 ADD SLOAD DUP2 MSTORE PUSH1 0x20 ADD PUSH1 0x2 DUP3 ADD SLOAD DUP2 MSTORE PUSH1 0x20 ADD PUSH1 0x3 DUP3 ADD SLOAD DUP2 MSTORE POP POP SWAP1 POP SWAP2 SWAP1 POP JUMP JUMPDEST PUSH0 PUSH1 0x33 PUSH0 SWAP1 SLOAD SWAP1 PUSH2 0x100 EXP SWAP1 DIV PUSH20 0xFFFFFFFFFFFFFFFFFFFFFFFFFFFFFFFFFFFFFFFF AND SWAP1 POP SWAP1 JUMP JUMPDEST PUSH2 0x1890 PUSH2 0x2187 JUMP JUMPDEST PUSH0 PUSH20 0xFFFFFFFFFFFFFFFFFFFFFFFFFFFFFFFFFFFFFFFF AND DUP3 PUSH20 0xFFFFFFFFFFFFFFFFFFFFFFFFFFFFFFFFFFFFFFFF AND SUB PUSH2 0x18FE JUMPI PUSH1 0x40 MLOAD PUSH32 0x8C379A000000000000000000000000000000000000000000000000000000000 DUP2 MSTORE PUSH1 0x4 ADD PUSH2 0x18F5 SWAP1 PUSH2 0x3784 JUMP JUMPDEST PUSH1 0x40 MLOAD DUP1 SWAP2 SUB SWAP1 REVERT JUMPDEST PUSH1 0x1 DUP2 EQ DUP1 PUSH2 0x190D JUMPI POP PUSH1 0x2 DUP2 EQ JUMPDEST PUSH2 0x194C JUMPI PUSH1 0x40 MLOAD PUSH32 0x8C379A000000000000000000000000000000000000000000000000000000000 DUP2 MSTORE PUSH1 0x4 ADD PUSH2 0x1943 SWAP1 PUSH2 0x43FA JUMP JUMPDEST PUSH1 0x40 MLOAD DUP1 SWAP2 SUB SWAP1 REVERT JUMPDEST PUSH32 0x746F6B656E000000000000000000000000000000000000000000000000000000 DUP4 SUB PUSH2 0x1A05 JUMPI DUP1 PUSH1 0x9A PUSH0 DUP5 PUSH20 0xFFFFFFFFFFFFFFFFFFFFFFFFFFFFFFFFFFFFFFFF AND PUSH20 0xFFFFFFFFFFFFFFFFFFFFFFFFFFFFFFFFFFFFFFFF AND DUP2 MSTORE PUSH1 0x20 ADD SWAP1 DUP2 MSTORE PUSH1 0x20 ADD PUSH0 KECCAK256 DUP2 SWAP1 SSTORE POP DUP2 PUSH20 0xFFFFFFFFFFFFFFFFFFFFFFFFFFFFFFFFFFFFFFFF AND DUP4 PUSH32 0xCFA976492AF7C14A916CC3A239F4C9C75BBD7F5F0E398BEB41D892C7EECCAE4C DUP4 PUSH1 0x40 MLOAD PUSH2 0x19FC SWAP2 SWAP1 PUSH2 0x3B7C JUMP JUMPDEST PUSH1 0x40 MLOAD DUP1 SWAP2 SUB SWAP1 LOG3 JUMPDEST POP POP POP JUMP JUMPDEST PUSH0 PUSH1 0x99 PUSH0 SWAP1 SLOAD SWAP1 PUSH2 0x100 EXP SWAP1 DIV PUSH20 0xFFFFFFFFFFFFFFFFFFFFFFFFFFFFFFFFFFFFFFFF AND PUSH20 0xFFFFFFFFFFFFFFFFFFFFFFFFFFFFFFFFFFFFFFFF AND CALLER PUSH20 0xFFFFFFFFFFFFFFFFFFFFFFFFFFFFFFFFFFFFFFFF AND EQ PUSH2 0x1A9A JUMPI PUSH1 0x40 MLOAD PUSH32 0x8C379A000000000000000000000000000000000000000000000000000000000 DUP2 MSTORE PUSH1 0x4 ADD PUSH2 0x1A91 SWAP1 PUSH2 0x3908 JUMP JUMPDEST PUSH1 0x40 MLOAD DUP1 SWAP2 SUB SWAP1 REVERT JUMPDEST PUSH1 0xFF PUSH0 DUP7 DUP2 MSTORE PUSH1 0x20 ADD SWAP1 DUP2 MSTORE PUSH1 0x20 ADD PUSH0 KECCAK256 PUSH1 0x5 ADD PUSH0 SWAP1 SLOAD SWAP1 PUSH2 0x100 EXP SWAP1 DIV PUSH1 0xFF AND ISZERO PUSH2 0x1AFB JUMPI PUSH1 0x40 MLOAD PUSH32 0x8C379A000000000000000000000000000000000000000000000000000000000 DUP2 MSTORE PUSH1 0x4 ADD PUSH2 0x1AF2 SWAP1 PUSH2 0x3970 JUMP JUMPDEST PUSH1 0x40 MLOAD DUP1 SWAP2 SUB SWAP1 REVERT JUMPDEST PUSH1 0xFF PUSH0 DUP7 DUP2 MSTORE PUSH1 0x20 ADD SWAP1 DUP2 MSTORE PUSH1 0x20 ADD PUSH0 KECCAK256 PUSH1 0x5 ADD PUSH1 0x1 SWAP1 SLOAD SWAP1 PUSH2 0x100 EXP SWAP1 DIV PUSH1 0xFF AND ISZERO PUSH2 0x1B5D JUMPI PUSH1 0x40 MLOAD PUSH32 0x8C379A000000000000000000000000000000000000000000000000000000000 DUP2 MSTORE PUSH1 0x4 ADD PUSH2 0x1B54 SWAP1 PUSH2 0x39D8 JUMP JUMPDEST PUSH1 0x40 MLOAD DUP1 SWAP2 SUB SWAP1 REVERT JUMPDEST PUSH1 0x97 SLOAD DUP3 PUSH8 0xFFFFFFFFFFFFFFFF AND GT ISZERO PUSH2 0x1BAC JUMPI PUSH1 0x40 MLOAD PUSH32 0x8C379A000000000000000000000000000000000000000000000000000000000 DUP2 MSTORE PUSH1 0x4 ADD PUSH2 0x1BA3 SWAP1 PUSH2 0x4462 JUMP JUMPDEST PUSH1 0x40 MLOAD DUP1 SWAP2 SUB SWAP1 REVERT JUMPDEST PUSH0 PUSH1 0xFF PUSH0 DUP8 DUP2 MSTORE PUSH1 0x20 ADD SWAP1 DUP2 MSTORE PUSH1 0x20 ADD PUSH0 KECCAK256 PUSH1 0x1 ADD PUSH0 SWAP1 SLOAD SWAP1 PUSH2 0x100 EXP SWAP1 DIV PUSH20 0xFFFFFFFFFFFFFFFFFFFFFFFFFFFFFFFFFFFFFFFF AND SWAP1 POP PUSH0 PUSH1 0xFF PUSH0 DUP9 DUP2 MSTORE PUSH1 0x20 ADD SWAP1 DUP2 MSTORE PUSH1 0x20 ADD PUSH0 KECCAK256 PUSH1 0x6 ADD PUSH0 SWAP1 SLOAD SWAP1 PUSH2 0x100 EXP SWAP1 DIV PUSH12 0xFFFFFFFFFFFFFFFFFFFFFFFF AND PUSH12 0xFFFFFFFFFFFFFFFFFFFFFFFF AND SWAP1 POP DUP5 PUSH8 0xFFFFFFFFFFFFFFFF AND PUSH1 0xFF PUSH0 DUP10 DUP2 MSTORE PUSH1 0x20 ADD SWAP1 DUP2 MSTORE PUSH1 0x20 ADD PUSH0 KECCAK256 PUSH1 0x6 ADD PUSH0 DUP3 DUP3 DUP3 SWAP1 SLOAD SWAP1 PUSH2 0x100 EXP SWAP1 DIV PUSH12 0xFFFFFFFFFFFFFFFFFFFFFFFF AND PUSH2 0x1C64 SWAP2 SWAP1 PUSH2 0x4480 JUMP JUMPDEST SWAP3 POP PUSH2 0x100 EXP DUP2 SLOAD DUP2 PUSH12 0xFFFFFFFFFFFFFFFFFFFFFFFF MUL NOT AND SWAP1 DUP4 PUSH12 0xFFFFFFFFFFFFFFFFFFFFFFFF AND MUL OR SWAP1 SSTORE POP PUSH0 PUSH1 0xFF PUSH0 DUP10 DUP2 MSTORE PUSH1 0x20 ADD SWAP1 DUP2 MSTORE PUSH1 0x20 ADD PUSH0 KECCAK256 PUSH1 0x6 ADD PUSH0 SWAP1 SLOAD SWAP1 PUSH2 0x100 EXP SWAP1 DIV PUSH12 0xFFFFFFFFFFFFFFFFFFFFFFFF AND PUSH12 0xFFFFFFFFFFFFFFFFFFFFFFFF AND SUB PUSH2 0x1D46 JUMPI PUSH1 0x1 PUSH1 0xFF PUSH0 DUP10 DUP2 MSTORE PUSH1 0x20 ADD SWAP1 DUP2 MSTORE PUSH1 0x20 ADD PUSH0 KECCAK256 PUSH1 0x5 ADD PUSH0 PUSH2 0x100 EXP DUP2 SLOAD DUP2 PUSH1 0xFF MUL NOT AND SWAP1 DUP4 ISZERO ISZERO MUL OR SWAP1 SSTORE POP PUSH0 PUSH1 0xFF PUSH0 DUP10 DUP2 MSTORE PUSH1 0x20 ADD SWAP1 DUP2 MSTORE PUSH1 0x20 ADD PUSH0 KECCAK256 PUSH1 0x3 ADD SLOAD EQ ISZERO DUP1 ISZERO PUSH2 0x1D36 JUMPI POP PUSH0 PUSH1 0xFF PUSH0 DUP10 DUP2 MSTORE PUSH1 0x20 ADD SWAP1 DUP2 MSTORE PUSH1 0x20 ADD PUSH0 KECCAK256 PUSH1 0x4 ADD SLOAD EQ ISZERO JUMPDEST ISZERO PUSH2 0x1D45 JUMPI PUSH2 0x1D44 DUP8 PUSH2 0x25C8 JUMP JUMPDEST JUMPDEST JUMPDEST PUSH0 PUSH1 0xFF PUSH0 DUP10 DUP2 MSTORE PUSH1 0x20 ADD SWAP1 DUP2 MSTORE PUSH1 0x20 ADD PUSH0 KECCAK256 PUSH1 0x3 ADD SLOAD EQ ISZERO DUP1 ISZERO PUSH2 0x1D7D JUMPI POP PUSH0 PUSH1 0xFF PUSH0 DUP10 DUP2 MSTORE PUSH1 0x20 ADD SWAP1 DUP2 MSTORE PUSH1 0x20 ADD PUSH0 KECCAK256 PUSH1 0x4 ADD SLOAD EQ JUMPDEST ISZERO PUSH2 0x1D8E JUMPI PUSH2 0x1D8D DUP8 DUP8 DUP8 PUSH2 0x293E JUMP JUMPDEST JUMPDEST PUSH0 DUP2 DUP7 PUSH8 0xFFFFFFFFFFFFFFFF AND PUSH1 0xFF PUSH0 DUP12 DUP2 MSTORE PUSH1 0x20 ADD SWAP1 DUP2 MSTORE PUSH1 0x20 ADD PUSH0 KECCAK256 PUSH1 0x7 ADD SLOAD PUSH2 0x1DBA SWAP2 SWAP1 PUSH2 0x3E74 JUMP JUMPDEST PUSH2 0x1DC4 SWAP2 SWAP1 PUSH2 0x3EE2 JUMP JUMPDEST SWAP1 POP DUP1 PUSH1 0xFF PUSH0 DUP11 DUP2 MSTORE PUSH1 0x20 ADD SWAP1 DUP2 MSTORE PUSH1 0x20 ADD PUSH0 KECCAK256 PUSH1 0x7 ADD PUSH0 DUP3 DUP3 SLOAD PUSH2 0x1DE9 SWAP2 SWAP1 PUSH2 0x3B16 JUMP JUMPDEST SWAP3 POP POP DUP2 SWAP1 SSTORE POP PUSH0 PUSH1 0xFF PUSH0 DUP11 DUP2 MSTORE PUSH1 0x20 ADD SWAP1 DUP2 MSTORE PUSH1 0x20 ADD PUSH0 KECCAK256 PUSH1 0x4 ADD SLOAD EQ PUSH2 0x1FD4 JUMPI PUSH0 PUSH1 0x9B PUSH0 PUSH1 0xFF PUSH0 DUP13 DUP2 MSTORE PUSH1 0x20 ADD SWAP1 DUP2 MSTORE PUSH1 0x20 ADD PUSH0 KECCAK256 PUSH1 0x1 ADD PUSH0 SWAP1 SLOAD SWAP1 PUSH2 0x100 EXP SWAP1 DIV PUSH20 0xFFFFFFFFFFFFFFFFFFFFFFFFFFFFFFFFFFFFFFFF AND PUSH20 0xFFFFFFFFFFFFFFFFFFFFFFFFFFFFFFFFFFFFFFFF AND PUSH20 0xFFFFFFFFFFFFFFFFFFFFFFFFFFFFFFFFFFFFFFFF AND DUP2 MSTORE PUSH1 0x20 ADD SWAP1 DUP2 MSTORE PUSH1 0x20 ADD PUSH0 KECCAK256 PUSH1 0x40 MLOAD DUP1 PUSH1 0x80 ADD PUSH1 0x40 MSTORE SWAP1 DUP2 PUSH0 DUP3 ADD SLOAD DUP2 MSTORE PUSH1 0x20 ADD PUSH1 0x1 DUP3 ADD SLOAD DUP2 MSTORE PUSH1 0x20 ADD PUSH1 0x2 DUP3 ADD SLOAD DUP2 MSTORE PUSH1 0x20 ADD PUSH1 0x3 DUP3 ADD SLOAD DUP2 MSTORE POP POP SWAP1 POP PUSH0 PUSH1 0x97 SLOAD DUP3 PUSH1 0x60 ADD MLOAD DUP5 PUSH2 0x1EC4 SWAP2 SWAP1 PUSH2 0x3E74 JUMP JUMPDEST PUSH2 0x1ECE SWAP2 SWAP1 PUSH2 0x3EE2 JUMP JUMPDEST SWAP1 POP DUP1 DUP4 PUSH2 0x1EDC SWAP2 SWAP1 PUSH2 0x3B16 JUMP JUMPDEST SWAP3 POP PUSH0 DUP8 PUSH8 0xFFFFFFFFFFFFFFFF AND EQ PUSH2 0x1F33 JUMPI PUSH0 PUSH1 0x97 SLOAD DUP9 PUSH8 0xFFFFFFFFFFFFFFFF AND DUP4 PUSH2 0x1F09 SWAP2 SWAP1 PUSH2 0x3E74 JUMP JUMPDEST PUSH2 0x1F13 SWAP2 SWAP1 PUSH2 0x3EE2 JUMP JUMPDEST SWAP1 POP DUP1 DUP3 PUSH2 0x1F21 SWAP2 SWAP1 PUSH2 0x3B16 JUMP JUMPDEST SWAP2 POP DUP1 DUP5 PUSH2 0x1F2F SWAP2 SWAP1 PUSH2 0x3B49 JUMP JUMPDEST SWAP4 POP POP JUMPDEST DUP5 PUSH20 0xFFFFFFFFFFFFFFFFFFFFFFFFFFFFFFFFFFFFFFFF AND PUSH4 0xA9059CBB PUSH1 0x98 PUSH1 0x8 SWAP1 SLOAD SWAP1 PUSH2 0x100 EXP SWAP1 DIV PUSH20 0xFFFFFFFFFFFFFFFFFFFFFFFFFFFFFFFFFFFFFFFF AND DUP4 PUSH1 0x40 MLOAD DUP4 PUSH4 0xFFFFFFFF AND PUSH1 0xE0 SHL DUP2 MSTORE PUSH1 0x4 ADD PUSH2 0x1F90 SWAP3 SWAP2 SWAP1 PUSH2 0x3A6D JUMP JUMPDEST PUSH1 0x20 PUSH1 0x40 MLOAD DUP1 DUP4 SUB DUP2 PUSH0 DUP8 GAS CALL ISZERO DUP1 ISZERO PUSH2 0x1FAC JUMPI RETURNDATASIZE PUSH0 DUP1 RETURNDATACOPY RETURNDATASIZE PUSH0 REVERT JUMPDEST POP POP POP POP PUSH1 0x40 MLOAD RETURNDATASIZE PUSH1 0x1F NOT PUSH1 0x1F DUP3 ADD AND DUP3 ADD DUP1 PUSH1 0x40 MSTORE POP DUP2 ADD SWAP1 PUSH2 0x1FD0 SWAP2 SWAP1 PUSH2 0x3ABE JUMP JUMPDEST POP POP POP JUMPDEST DUP3 PUSH20 0xFFFFFFFFFFFFFFFFFFFFFFFFFFFFFFFFFFFFFFFF AND PUSH4 0xA9059CBB DUP9 DUP4 PUSH1 0x40 MLOAD DUP4 PUSH4 0xFFFFFFFF AND PUSH1 0xE0 SHL DUP2 MSTORE PUSH1 0x4 ADD PUSH2 0x200F SWAP3 SWAP2 SWAP1 PUSH2 0x3A6D JUMP JUMPDEST PUSH1 0x20 PUSH1 0x40 MLOAD DUP1 DUP4 SUB DUP2 PUSH0 DUP8 GAS CALL ISZERO DUP1 ISZERO PUSH2 0x202B JUMPI RETURNDATASIZE PUSH0 DUP1 RETURNDATACOPY RETURNDATASIZE PUSH0 REVERT JUMPDEST POP POP POP POP PUSH1 0x40 MLOAD RETURNDATASIZE PUSH1 0x1F NOT PUSH1 0x1F DUP3 ADD AND DUP3 ADD DUP1 PUSH1 0x40 MSTORE POP DUP2 ADD SWAP1 PUSH2 0x204F SWAP2 SWAP1 PUSH2 0x3ABE JUMP JUMPDEST POP DUP7 PUSH20 0xFFFFFFFFFFFFFFFFFFFFFFFFFFFFFFFFFFFFFFFF AND DUP9 PUSH32 0x57C683DE2E7C8263C7F57FD108416B9BDAA7A6E7F2E4E7102C3B6F9E37F1CC37 DUP12 DUP10 DUP10 PUSH1 0x40 MLOAD PUSH2 0x209B SWAP4 SWAP3 SWAP2 SWAP1 PUSH2 0x44CE JUMP JUMPDEST PUSH1 0x40 MLOAD DUP1 SWAP2 SUB SWAP1 LOG3 PUSH1 0x1 SWAP4 POP POP POP POP SWAP6 SWAP5 POP POP POP POP POP JUMP JUMPDEST PUSH0 PUSH1 0x65 PUSH0 SWAP1 SLOAD SWAP1 PUSH2 0x100 EXP SWAP1 DIV PUSH20 0xFFFFFFFFFFFFFFFFFFFFFFFFFFFFFFFFFFFFFFFF AND SWAP1 POP SWAP1 JUMP JUMPDEST PUSH2 0x20E3 PUSH2 0x2187 JUMP JUMPDEST DUP1 PUSH1 0x65 PUSH0 PUSH2 0x100 EXP DUP2 SLOAD DUP2 PUSH20 0xFFFFFFFFFFFFFFFFFFFFFFFFFFFFFFFFFFFFFFFF MUL NOT AND SWAP1 DUP4 PUSH20 0xFFFFFFFFFFFFFFFFFFFFFFFFFFFFFFFFFFFFFFFF AND MUL OR SWAP1 SSTORE POP DUP1 PUSH20 0xFFFFFFFFFFFFFFFFFFFFFFFFFFFFFFFFFFFFFFFF AND PUSH2 0x2142 PUSH2 0x1860 JUMP JUMPDEST PUSH20 0xFFFFFFFFFFFFFFFFFFFFFFFFFFFFFFFFFFFFFFFF AND PUSH32 0x38D16B8CAC22D99FC7C124B9CD0DE2D3FA1FAEF420BFE791D8C362D765E22700 PUSH1 0x40 MLOAD PUSH1 0x40 MLOAD DUP1 SWAP2 SUB SWAP1 LOG3 POP JUMP JUMPDEST PUSH2 0x218F PUSH2 0x2296 JUMP JUMPDEST PUSH20 0xFFFFFFFFFFFFFFFFFFFFFFFFFFFFFFFFFFFFFFFF AND PUSH2 0x21AD PUSH2 0x1860 JUMP JUMPDEST PUSH20 0xFFFFFFFFFFFFFFFFFFFFFFFFFFFFFFFFFFFFFFFF AND EQ PUSH2 0x2203 JUMPI PUSH1 0x40 MLOAD PUSH32 0x8C379A000000000000000000000000000000000000000000000000000000000 DUP2 MSTORE PUSH1 0x4 ADD PUSH2 0x21FA SWAP1 PUSH2 0x454D JUMP JUMPDEST PUSH1 0x40 MLOAD DUP1 SWAP2 SUB SWAP1 REVERT JUMPDEST JUMP JUMPDEST PUSH2 0x220D PUSH2 0x2DFB JUMP JUMPDEST PUSH0 PUSH1 0xCD PUSH0 PUSH2 0x100 EXP DUP2 SLOAD DUP2 PUSH1 0xFF MUL NOT AND SWAP1 DUP4 ISZERO ISZERO MUL OR SWAP1 SSTORE POP PUSH32 0x5DB9EE0A495BF2E6FF9C91A7834C1BA4FDD244A5E8AA4E537BD38AEAE4B073AA PUSH2 0x224F PUSH2 0x2296 JUMP JUMPDEST PUSH1 0x40 MLOAD PUSH2 0x225C SWAP2 SWAP1 PUSH2 0x360D JUMP JUMPDEST PUSH1 0x40 MLOAD DUP1 SWAP2 SUB SWAP1 LOG1 JUMP JUMPDEST PUSH1 0x65 PUSH0 PUSH2 0x100 EXP DUP2 SLOAD SWAP1 PUSH20 0xFFFFFFFFFFFFFFFFFFFFFFFFFFFFFFFFFFFFFFFF MUL NOT AND SWAP1 SSTORE PUSH2 0x2293 DUP2 PUSH2 0x2E44 JUMP JUMPDEST POP JUMP JUMPDEST PUSH0 CALLER SWAP1 POP SWAP1 JUMP JUMPDEST PUSH2 0x22A5 PUSH2 0x60A JUMP JUMPDEST ISZERO PUSH2 0x22E5 JUMPI PUSH1 0x40 MLOAD PUSH32 0x8C379A000000000000000000000000000000000000000000000000000000000 DUP2 MSTORE PUSH1 0x4 ADD PUSH2 0x22DC SWAP1 PUSH2 0x45B5 JUMP JUMPDEST PUSH1 0x40 MLOAD DUP1 SWAP2 SUB SWAP1 REVERT JUMPDEST JUMP JUMPDEST PUSH1 0x1 PUSH1 0x9A PUSH0 DUP8 PUSH20 0xFFFFFFFFFFFFFFFFFFFFFFFFFFFFFFFFFFFFFFFF AND PUSH20 0xFFFFFFFFFFFFFFFFFFFFFFFFFFFFFFFFFFFFFFFF AND DUP2 MSTORE PUSH1 0x20 ADD SWAP1 DUP2 MSTORE PUSH1 0x20 ADD PUSH0 KECCAK256 SLOAD EQ PUSH2 0x2367 JUMPI PUSH1 0x40 MLOAD PUSH32 0x8C379A000000000000000000000000000000000000000000000000000000000 DUP2 MSTORE PUSH1 0x4 ADD PUSH2 0x235E SWAP1 PUSH2 0x461D JUMP JUMPDEST PUSH1 0x40 MLOAD DUP1 SWAP2 SUB SWAP1 REVERT JUMPDEST PUSH0 DUP5 SUB PUSH2 0x23A9 JUMPI PUSH1 0x40 MLOAD PUSH32 0x8C379A000000000000000000000000000000000000000000000000000000000 DUP2 MSTORE PUSH1 0x4 ADD PUSH2 0x23A0 SWAP1 PUSH2 0x4685 JUMP JUMPDEST PUSH1 0x40 MLOAD DUP1 SWAP2 SUB SWAP1 REVERT JUMPDEST PUSH0 PUSH20 0xFFFFFFFFFFFFFFFFFFFFFFFFFFFFFFFFFFFFFFFF AND DUP4 PUSH20 0xFFFFFFFFFFFFFFFFFFFFFFFFFFFFFFFFFFFFFFFF AND SUB PUSH2 0x2417 JUMPI PUSH1 0x40 MLOAD PUSH32 0x8C379A000000000000000000000000000000000000000000000000000000000 DUP2 MSTORE PUSH1 0x4 ADD PUSH2 0x240E SWAP1 PUSH2 0x46ED JUMP JUMPDEST PUSH1 0x40 MLOAD DUP1 SWAP2 SUB SWAP1 REVERT JUMPDEST PUSH0 DUP2 EQ PUSH2 0x248D JUMPI PUSH0 PUSH20 0xFFFFFFFFFFFFFFFFFFFFFFFFFFFFFFFFFFFFFFFF AND DUP3 PUSH20 0xFFFFFFFFFFFFFFFFFFFFFFFFFFFFFFFFFFFFFFFF AND SUB PUSH2 0x248C JUMPI PUSH1 0x40 MLOAD PUSH32 0x8C379A000000000000000000000000000000000000000000000000000000000 DUP2 MSTORE PUSH1 0x4 ADD PUSH2 0x2483 SWAP1 PUSH2 0x4755 JUMP JUMPDEST PUSH1 0x40 MLOAD DUP1 SWAP2 SUB SWAP1 REVERT JUMPDEST JUMPDEST POP POP POP POP POP JUMP JUMPDEST PUSH0 DUP1 DUP3 PUSH20 0xFFFFFFFFFFFFFFFFFFFFFFFFFFFFFFFFFFFFFFFF AND EXTCODESIZE GT SWAP1 POP SWAP2 SWAP1 POP JUMP JUMPDEST PUSH0 PUSH1 0x1 SWAP1 SLOAD SWAP1 PUSH2 0x100 EXP SWAP1 DIV PUSH1 0xFF AND PUSH2 0x2504 JUMPI PUSH1 0x40 MLOAD PUSH32 0x8C379A000000000000000000000000000000000000000000000000000000000 DUP2 MSTORE PUSH1 0x4 ADD PUSH2 0x24FB SWAP1 PUSH2 0x47E3 JUMP JUMPDEST PUSH1 0x40 MLOAD DUP1 SWAP2 SUB SWAP1 REVERT JUMPDEST PUSH2 0x250C PUSH2 0x2F07 JUMP JUMPDEST JUMP JUMPDEST PUSH0 PUSH1 0x1 SWAP1 SLOAD SWAP1 PUSH2 0x100 EXP SWAP1 DIV PUSH1 0xFF AND PUSH2 0x255C JUMPI PUSH1 0x40 MLOAD PUSH32 0x8C379A000000000000000000000000000000000000000000000000000000000 DUP2 MSTORE PUSH1 0x4 ADD PUSH2 0x2553 SWAP1 PUSH2 0x47E3 JUMP JUMPDEST PUSH1 0x40 MLOAD DUP1 SWAP2 SUB SWAP1 REVERT JUMPDEST PUSH2 0x2564 PUSH2 0x2F67 JUMP JUMPDEST JUMP JUMPDEST PUSH2 0x256E PUSH2 0x229D JUMP JUMPDEST PUSH1 0x1 PUSH1 0xCD PUSH0 PUSH2 0x100 EXP DUP2 SLOAD DUP2 PUSH1 0xFF MUL NOT AND SWAP1 DUP4 ISZERO ISZERO MUL OR SWAP1 SSTORE POP PUSH32 0x62E78CEA01BEE320CD4E420270B5EA74000D11B0C9F74754EBDBFC544B05A258 PUSH2 0x25B1 PUSH2 0x2296 JUMP JUMPDEST PUSH1 0x40 MLOAD PUSH2 0x25BE SWAP2 SWAP1 PUSH2 0x360D JUMP JUMPDEST PUSH1 0x40 MLOAD DUP1 SWAP2 SUB SWAP1 LOG1 JUMP JUMPDEST PUSH0 PUSH1 0x9B PUSH0 PUSH1 0xFF PUSH0 DUP6 DUP2 MSTORE PUSH1 0x20 ADD SWAP1 DUP2 MSTORE PUSH1 0x20 ADD PUSH0 KECCAK256 PUSH1 0x1 ADD PUSH0 SWAP1 SLOAD SWAP1 PUSH2 0x100 EXP SWAP1 DIV PUSH20 0xFFFFFFFFFFFFFFFFFFFFFFFFFFFFFFFFFFFFFFFF AND PUSH20 0xFFFFFFFFFFFFFFFFFFFFFFFFFFFFFFFFFFFFFFFF AND PUSH20 0xFFFFFFFFFFFFFFFFFFFFFFFFFFFFFFFFFFFFFFFF AND DUP2 MSTORE PUSH1 0x20 ADD SWAP1 DUP2 MSTORE PUSH1 0x20 ADD PUSH0 KECCAK256 PUSH1 0x40 MLOAD DUP1 PUSH1 0x80 ADD PUSH1 0x40 MSTORE SWAP1 DUP2 PUSH0 DUP3 ADD SLOAD DUP2 MSTORE PUSH1 0x20 ADD PUSH1 0x1 DUP3 ADD SLOAD DUP2 MSTORE PUSH1 0x20 ADD PUSH1 0x2 DUP3 ADD SLOAD DUP2 MSTORE PUSH1 0x20 ADD PUSH1 0x3 DUP3 ADD SLOAD DUP2 MSTORE POP POP SWAP1 POP PUSH0 PUSH1 0xFF PUSH0 DUP5 DUP2 MSTORE PUSH1 0x20 ADD SWAP1 DUP2 MSTORE PUSH1 0x20 ADD PUSH0 KECCAK256 PUSH1 0x3 ADD SLOAD SWAP1 POP PUSH0 PUSH1 0x97 SLOAD DUP4 PUSH1 0x40 ADD MLOAD PUSH1 0x97 SLOAD PUSH2 0x269B SWAP2 SWAP1 PUSH2 0x3B16 JUMP JUMPDEST DUP4 PUSH2 0x26A6 SWAP2 SWAP1 PUSH2 0x3E74 JUMP JUMPDEST PUSH2 0x26B0 SWAP2 SWAP1 PUSH2 0x3EE2 JUMP JUMPDEST SWAP1 POP PUSH0 DUP2 DUP4 PUSH2 0x26BF SWAP2 SWAP1 PUSH2 0x3B16 JUMP JUMPDEST SWAP1 POP PUSH0 DUP3 GT ISZERO PUSH2 0x27AC JUMPI PUSH1 0xFF PUSH0 DUP7 DUP2 MSTORE PUSH1 0x20 ADD SWAP1 DUP2 MSTORE PUSH1 0x20 ADD PUSH0 KECCAK256 PUSH1 0x1 ADD PUSH0 SWAP1 SLOAD SWAP1 PUSH2 0x100 EXP SWAP1 DIV PUSH20 0xFFFFFFFFFFFFFFFFFFFFFFFFFFFFFFFFFFFFFFFF AND PUSH20 0xFFFFFFFFFFFFFFFFFFFFFFFFFFFFFFFFFFFFFFFF AND PUSH4 0xA9059CBB PUSH1 0xFF PUSH0 DUP9 DUP2 MSTORE PUSH1 0x20 ADD SWAP1 DUP2 MSTORE PUSH1 0x20 ADD PUSH0 KECCAK256 PUSH1 0x2 ADD PUSH0 SWAP1 SLOAD SWAP1 PUSH2 0x100 EXP SWAP1 DIV PUSH20 0xFFFFFFFFFFFFFFFFFFFFFFFFFFFFFFFFFFFFFFFF AND DUP5 PUSH1 0x40 MLOAD DUP4 PUSH4 0xFFFFFFFF AND PUSH1 0xE0 SHL DUP2 MSTORE PUSH1 0x4 ADD PUSH2 0x276A SWAP3 SWAP2 SWAP1 PUSH2 0x3A6D JUMP JUMPDEST PUSH1 0x20 PUSH1 0x40 MLOAD DUP1 DUP4 SUB DUP2 PUSH0 DUP8 GAS CALL ISZERO DUP1 ISZERO PUSH2 0x2786 JUMPI RETURNDATASIZE PUSH0 DUP1 RETURNDATACOPY RETURNDATASIZE PUSH0 REVERT JUMPDEST POP POP POP POP PUSH1 0x40 MLOAD RETURNDATASIZE PUSH1 0x1F NOT PUSH1 0x1F DUP3 ADD AND DUP3 ADD DUP1 PUSH1 0x40 MSTORE POP DUP2 ADD SWAP1 PUSH2 0x27AA SWAP2 SWAP1 PUSH2 0x3ABE JUMP JUMPDEST POP JUMPDEST PUSH0 DUP2 GT ISZERO PUSH2 0x2886 JUMPI PUSH1 0xFF PUSH0 DUP7 DUP2 MSTORE PUSH1 0x20 ADD SWAP1 DUP2 MSTORE PUSH1 0x20 ADD PUSH0 KECCAK256 PUSH1 0x1 ADD PUSH0 SWAP1 SLOAD SWAP1 PUSH2 0x100 EXP SWAP1 DIV PUSH20 0xFFFFFFFFFFFFFFFFFFFFFFFFFFFFFFFFFFFFFFFF AND PUSH20 0xFFFFFFFFFFFFFFFFFFFFFFFFFFFFFFFFFFFFFFFF AND PUSH4 0xA9059CBB PUSH1 0x98 PUSH1 0x8 SWAP1 SLOAD SWAP1 PUSH2 0x100 EXP SWAP1 DIV PUSH20 0xFFFFFFFFFFFFFFFFFFFFFFFFFFFFFFFFFFFFFFFF AND DUP4 PUSH1 0x40 MLOAD DUP4 PUSH4 0xFFFFFFFF AND PUSH1 0xE0 SHL DUP2 MSTORE PUSH1 0x4 ADD PUSH2 0x2844 SWAP3 SWAP2 SWAP1 PUSH2 0x3A6D JUMP JUMPDEST PUSH1 0x20 PUSH1 0x40 MLOAD DUP1 DUP4 SUB DUP2 PUSH0 DUP8 GAS CALL ISZERO DUP1 ISZERO PUSH2 0x2860 JUMPI RETURNDATASIZE PUSH0 DUP1 RETURNDATACOPY RETURNDATASIZE PUSH0 REVERT JUMPDEST POP POP POP POP PUSH1 0x40 MLOAD RETURNDATASIZE PUSH1 0x1F NOT PUSH1 0x1F DUP3 ADD AND DUP3 ADD DUP1 PUSH1 0x40 MSTORE POP DUP2 ADD SWAP1 PUSH2 0x2884 SWAP2 SWAP1 PUSH2 0x3ABE JUMP JUMPDEST POP JUMPDEST DUP2 PUSH1 0xFF PUSH0 DUP8 DUP2 MSTORE PUSH1 0x20 ADD SWAP1 DUP2 MSTORE PUSH1 0x20 ADD PUSH0 KECCAK256 PUSH1 0x2 ADD PUSH0 SWAP1 SLOAD SWAP1 PUSH2 0x100 EXP SWAP1 DIV PUSH20 0xFFFFFFFFFFFFFFFFFFFFFFFFFFFFFFFFFFFFFFFF AND PUSH20 0xFFFFFFFFFFFFFFFFFFFFFFFFFFFFFFFFFFFFFFFF AND PUSH32 0x44F6938CA4A10313AABB76F874CCED61E35710A734A126E4AFB34461BF8C2501 PUSH1 0x40 MLOAD PUSH1 0x40 MLOAD DUP1 SWAP2 SUB SWAP1 LOG3 DUP5 PUSH32 0x88592047496A7850992DC5E8CD92A9B633CEF0D191A4F5E87FD745C7D382630A DUP4 DUP4 PUSH1 0x40 MLOAD PUSH2 0x292F SWAP3 SWAP2 SWAP1 PUSH2 0x4801 JUMP JUMPDEST PUSH1 0x40 MLOAD DUP1 SWAP2 SUB SWAP1 LOG2 POP POP POP POP POP JUMP JUMPDEST PUSH0 PUSH1 0x9B PUSH0 PUSH1 0xFF PUSH0 DUP8 DUP2 MSTORE PUSH1 0x20 ADD SWAP1 DUP2 MSTORE PUSH1 0x20 ADD PUSH0 KECCAK256 PUSH1 0x1 ADD PUSH0 SWAP1 SLOAD SWAP1 PUSH2 0x100 EXP SWAP1 DIV PUSH20 0xFFFFFFFFFFFFFFFFFFFFFFFFFFFFFFFFFFFFFFFF AND PUSH20 0xFFFFFFFFFFFFFFFFFFFFFFFFFFFFFFFFFFFFFFFF AND PUSH20 0xFFFFFFFFFFFFFFFFFFFFFFFFFFFFFFFFFFFFFFFF AND DUP2 MSTORE PUSH1 0x20 ADD SWAP1 DUP2 MSTORE PUSH1 0x20 ADD PUSH0 KECCAK256 PUSH1 0x40 MLOAD DUP1 PUSH1 0x80 ADD PUSH1 0x40 MSTORE SWAP1 DUP2 PUSH0 DUP3 ADD SLOAD DUP2 MSTORE PUSH1 0x20 ADD PUSH1 0x1 DUP3 ADD SLOAD DUP2 MSTORE PUSH1 0x20 ADD PUSH1 0x2 DUP3 ADD SLOAD DUP2 MSTORE PUSH1 0x20 ADD PUSH1 0x3 DUP3 ADD SLOAD DUP2 MSTORE POP POP SWAP1 POP PUSH0 PUSH1 0xFF PUSH0 DUP7 DUP2 MSTORE PUSH1 0x20 ADD SWAP1 DUP2 MSTORE PUSH1 0x20 ADD PUSH0 KECCAK256 PUSH1 0x3 ADD SLOAD SWAP1 POP PUSH0 PUSH1 0x97 SLOAD DUP4 PUSH0 ADD MLOAD DUP4 PUSH2 0x2A0E SWAP2 SWAP1 PUSH2 0x3E74 JUMP JUMPDEST PUSH2 0x2A18 SWAP2 SWAP1 PUSH2 0x3EE2 JUMP JUMPDEST SWAP1 POP PUSH0 PUSH1 0x97 SLOAD DUP6 PUSH8 0xFFFFFFFFFFFFFFFF AND DUP4 PUSH2 0x2A34 SWAP2 SWAP1 PUSH2 0x3E74 JUMP JUMPDEST PUSH2 0x2A3E SWAP2 SWAP1 PUSH2 0x3EE2 JUMP JUMPDEST SWAP1 POP PUSH0 PUSH1 0x97 SLOAD DUP6 PUSH1 0x20 ADD MLOAD DUP4 PUSH2 0x2A54 SWAP2 SWAP1 PUSH2 0x3E74 JUMP JUMPDEST PUSH2 0x2A5E SWAP2 SWAP1 PUSH2 0x3EE2 JUMP JUMPDEST SWAP1 POP PUSH0 DUP4 DUP6 PUSH2 0x2A6D SWAP2 SWAP1 PUSH2 0x3B16 JUMP JUMPDEST SWAP1 POP PUSH0 DUP2 EQ ISZERO DUP1 ISZERO PUSH2 0x2AB7 JUMPI POP PUSH0 PUSH1 0xFF PUSH0 DUP12 DUP2 MSTORE PUSH1 0x20 ADD SWAP1 DUP2 MSTORE PUSH1 0x20 ADD PUSH0 KECCAK256 PUSH1 0x6 ADD PUSH0 SWAP1 SLOAD SWAP1 PUSH2 0x100 EXP SWAP1 DIV PUSH12 0xFFFFFFFFFFFFFFFFFFFFFFFF AND PUSH12 0xFFFFFFFFFFFFFFFFFFFFFFFF AND EQ JUMPDEST ISZERO PUSH2 0x2B9F JUMPI PUSH1 0xFF PUSH0 DUP11 DUP2 MSTORE PUSH1 0x20 ADD SWAP1 DUP2 MSTORE PUSH1 0x20 ADD PUSH0 KECCAK256 PUSH1 0x1 ADD PUSH0 SWAP1 SLOAD SWAP1 PUSH2 0x100 EXP SWAP1 DIV PUSH20 0xFFFFFFFFFFFFFFFFFFFFFFFFFFFFFFFFFFFFFFFF AND PUSH20 0xFFFFFFFFFFFFFFFFFFFFFFFFFFFFFFFFFFFFFFFF AND PUSH4 0xA9059CBB PUSH1 0xFF PUSH0 DUP13 DUP2 MSTORE PUSH1 0x20 ADD SWAP1 DUP2 MSTORE PUSH1 0x20 ADD PUSH0 KECCAK256 PUSH1 0x2 ADD PUSH0 SWAP1 SLOAD SWAP1 PUSH2 0x100 EXP SWAP1 DIV PUSH20 0xFFFFFFFFFFFFFFFFFFFFFFFFFFFFFFFFFFFFFFFF AND DUP4 PUSH1 0x40 MLOAD DUP4 PUSH4 0xFFFFFFFF AND PUSH1 0xE0 SHL DUP2 MSTORE PUSH1 0x4 ADD PUSH2 0x2B5D SWAP3 SWAP2 SWAP1 PUSH2 0x3A6D JUMP JUMPDEST PUSH1 0x20 PUSH1 0x40 MLOAD DUP1 DUP4 SUB DUP2 PUSH0 DUP8 GAS CALL ISZERO DUP1 ISZERO PUSH2 0x2B79 JUMPI RETURNDATASIZE PUSH0 DUP1 RETURNDATACOPY RETURNDATASIZE PUSH0 REVERT JUMPDEST POP POP POP POP PUSH1 0x40 MLOAD RETURNDATASIZE PUSH1 0x1F NOT PUSH1 0x1F DUP3 ADD AND DUP3 ADD DUP1 PUSH1 0x40 MSTORE POP DUP2 ADD SWAP1 PUSH2 0x2B9D SWAP2 SWAP1 PUSH2 0x3ABE JUMP JUMPDEST POP JUMPDEST PUSH0 DUP3 EQ PUSH2 0x2C78 JUMPI PUSH1 0xFF PUSH0 DUP11 DUP2 MSTORE PUSH1 0x20 ADD SWAP1 DUP2 MSTORE PUSH1 0x20 ADD PUSH0 KECCAK256 PUSH1 0x1 ADD PUSH0 SWAP1 SLOAD SWAP1 PUSH2 0x100 EXP SWAP1 DIV PUSH20 0xFFFFFFFFFFFFFFFFFFFFFFFFFFFFFFFFFFFFFFFF AND PUSH20 0xFFFFFFFFFFFFFFFFFFFFFFFFFFFFFFFFFFFFFFFF AND PUSH4 0xA9059CBB PUSH1 0x98 PUSH1 0x8 SWAP1 SLOAD SWAP1 PUSH2 0x100 EXP SWAP1 DIV PUSH20 0xFFFFFFFFFFFFFFFFFFFFFFFFFFFFFFFFFFFFFFFF AND DUP5 PUSH1 0x40 MLOAD DUP4 PUSH4 0xFFFFFFFF AND PUSH1 0xE0 SHL DUP2 MSTORE PUSH1 0x4 ADD PUSH2 0x2C36 SWAP3 SWAP2 SWAP1 PUSH2 0x3A6D JUMP JUMPDEST PUSH1 0x20 PUSH1 0x40 MLOAD DUP1 DUP4 SUB DUP2 PUSH0 DUP8 GAS CALL ISZERO DUP1 ISZERO PUSH2 0x2C52 JUMPI RETURNDATASIZE PUSH0 DUP1 RETURNDATACOPY RETURNDATASIZE PUSH0 REVERT JUMPDEST POP POP POP POP PUSH1 0x40 MLOAD RETURNDATASIZE PUSH1 0x1F NOT PUSH1 0x1F DUP3 ADD AND DUP3 ADD DUP1 PUSH1 0x40 MSTORE POP DUP2 ADD SWAP1 PUSH2 0x2C76 SWAP2 SWAP1 PUSH2 0x3ABE JUMP JUMPDEST POP JUMPDEST DUP2 DUP4 PUSH2 0x2C84 SWAP2 SWAP1 PUSH2 0x3B16 JUMP JUMPDEST SWAP3 POP PUSH0 DUP4 EQ PUSH2 0x2D3D JUMPI PUSH1 0xFF PUSH0 DUP11 DUP2 MSTORE PUSH1 0x20 ADD SWAP1 DUP2 MSTORE PUSH1 0x20 ADD PUSH0 KECCAK256 PUSH1 0x1 ADD PUSH0 SWAP1 SLOAD SWAP1 PUSH2 0x100 EXP SWAP1 DIV PUSH20 0xFFFFFFFFFFFFFFFFFFFFFFFFFFFFFFFFFFFFFFFF AND PUSH20 0xFFFFFFFFFFFFFFFFFFFFFFFFFFFFFFFFFFFFFFFF AND PUSH4 0xA9059CBB DUP10 DUP6 PUSH1 0x40 MLOAD DUP4 PUSH4 0xFFFFFFFF AND PUSH1 0xE0 SHL DUP2 MSTORE PUSH1 0x4 ADD PUSH2 0x2CFB SWAP3 SWAP2 SWAP1 PUSH2 0x3A6D JUMP JUMPDEST PUSH1 0x20 PUSH1 0x40 MLOAD DUP1 DUP4 SUB DUP2 PUSH0 DUP8 GAS CALL ISZERO DUP1 ISZERO PUSH2 0x2D17 JUMPI RETURNDATASIZE PUSH0 DUP1 RETURNDATACOPY RETURNDATASIZE PUSH0 REVERT JUMPDEST POP POP POP POP PUSH1 0x40 MLOAD RETURNDATASIZE PUSH1 0x1F NOT PUSH1 0x1F DUP3 ADD AND DUP3 ADD DUP1 PUSH1 0x40 MSTORE POP DUP2 ADD SWAP1 PUSH2 0x2D3B SWAP2 SWAP1 PUSH2 0x3ABE JUMP JUMPDEST POP JUMPDEST DUP1 PUSH1 0xFF PUSH0 DUP12 DUP2 MSTORE PUSH1 0x20 ADD SWAP1 DUP2 MSTORE PUSH1 0x20 ADD PUSH0 KECCAK256 PUSH1 0x2 ADD PUSH0 SWAP1 SLOAD SWAP1 PUSH2 0x100 EXP SWAP1 DIV PUSH20 0xFFFFFFFFFFFFFFFFFFFFFFFFFFFFFFFFFFFFFFFF AND PUSH20 0xFFFFFFFFFFFFFFFFFFFFFFFFFFFFFFFFFFFFFFFF AND PUSH32 0x44F6938CA4A10313AABB76F874CCED61E35710A734A126E4AFB34461BF8C2501 PUSH1 0x40 MLOAD PUSH1 0x40 MLOAD DUP1 SWAP2 SUB SWAP1 LOG3 DUP9 PUSH32 0x831C7CC0006D91462607C476603366C48469D125DE6228C0791A7090EFD7F7A4 DUP3 DUP6 DUP6 PUSH1 0x40 MLOAD PUSH2 0x2DE8 SWAP4 SWAP3 SWAP2 SWAP1 PUSH2 0x4828 JUMP JUMPDEST PUSH1 0x40 MLOAD DUP1 SWAP2 SUB SWAP1 LOG2 POP POP POP POP POP POP POP POP POP JUMP JUMPDEST PUSH2 0x2E03 PUSH2 0x60A JUMP JUMPDEST PUSH2 0x2E42 JUMPI PUSH1 0x40 MLOAD PUSH32 0x8C379A000000000000000000000000000000000000000000000000000000000 DUP2 MSTORE PUSH1 0x4 ADD PUSH2 0x2E39 SWAP1 PUSH2 0x48A7 JUMP JUMPDEST PUSH1 0x40 MLOAD DUP1 SWAP2 SUB SWAP1 REVERT JUMPDEST JUMP JUMPDEST PUSH0 PUSH1 0x33 PUSH0 SWAP1 SLOAD SWAP1 PUSH2 0x100 EXP SWAP1 DIV PUSH20 0xFFFFFFFFFFFFFFFFFFFFFFFFFFFFFFFFFFFFFFFF AND SWAP1 POP DUP2 PUSH1 0x33 PUSH0 PUSH2 0x100 EXP DUP2 SLOAD DUP2 PUSH20 0xFFFFFFFFFFFFFFFFFFFFFFFFFFFFFFFFFFFFFFFF MUL NOT AND SWAP1 DUP4 PUSH20 0xFFFFFFFFFFFFFFFFFFFFFFFFFFFFFFFFFFFFFFFF AND MUL OR SWAP1 SSTORE POP DUP2 PUSH20 0xFFFFFFFFFFFFFFFFFFFFFFFFFFFFFFFFFFFFFFFF AND DUP2 PUSH20 0xFFFFFFFFFFFFFFFFFFFFFFFFFFFFFFFFFFFFFFFF AND PUSH32 0x8BE0079C531659141344CD1FD0A4F28419497F9722A3DAAFE3B4186F6B6457E0 PUSH1 0x40 MLOAD PUSH1 0x40 MLOAD DUP1 SWAP2 SUB SWAP1 LOG3 POP POP JUMP JUMPDEST PUSH0 PUSH1 0x1 SWAP1 SLOAD SWAP1 PUSH2 0x100 EXP SWAP1 DIV PUSH1 0xFF AND PUSH2 0x2F55 JUMPI PUSH1 0x40 MLOAD PUSH32 0x8C379A000000000000000000000000000000000000000000000000000000000 DUP2 MSTORE PUSH1 0x4 ADD PUSH2 0x2F4C SWAP1 PUSH2 0x47E3 JUMP JUMPDEST PUSH1 0x40 MLOAD DUP1 SWAP2 SUB SWAP1 REVERT JUMPDEST PUSH2 0x2F65 PUSH2 0x2F60 PUSH2 0x2296 JUMP JUMPDEST PUSH2 0x2266 JUMP JUMPDEST JUMP JUMPDEST PUSH0 PUSH1 0x1 SWAP1 SLOAD SWAP1 PUSH2 0x100 EXP SWAP1 DIV PUSH1 0xFF AND PUSH2 0x2FB5 JUMPI PUSH1 0x40 MLOAD PUSH32 0x8C379A000000000000000000000000000000000000000000000000000000000 DUP2 MSTORE PUSH1 0x4 ADD PUSH2 0x2FAC SWAP1 PUSH2 0x47E3 JUMP JUMPDEST PUSH1 0x40 MLOAD DUP1 SWAP2 SUB SWAP1 REVERT JUMPDEST PUSH0 PUSH1 0xCD PUSH0 PUSH2 0x100 EXP DUP2 SLOAD DUP2 PUSH1 0xFF MUL NOT AND SWAP1 DUP4 ISZERO ISZERO MUL OR SWAP1 SSTORE POP JUMP JUMPDEST PUSH1 0x40 MLOAD DUP1 PUSH2 0x140 ADD PUSH1 0x40 MSTORE DUP1 PUSH0 PUSH20 0xFFFFFFFFFFFFFFFFFFFFFFFFFFFFFFFFFFFFFFFF AND DUP2 MSTORE PUSH1 0x20 ADD PUSH0 PUSH20 0xFFFFFFFFFFFFFFFFFFFFFFFFFFFFFFFFFFFFFFFF AND DUP2 MSTORE PUSH1 0x20 ADD PUSH0 PUSH20 0xFFFFFFFFFFFFFFFFFFFFFFFFFFFFFFFFFFFFFFFF AND DUP2 MSTORE PUSH1 0x20 ADD PUSH0 DUP2 MSTORE PUSH1 0x20 ADD PUSH0 DUP2 MSTORE PUSH1 0x20 ADD PUSH0 ISZERO ISZERO DUP2 MSTORE PUSH1 0x20 ADD PUSH0 ISZERO ISZERO DUP2 MSTORE PUSH1 0x20 ADD PUSH0 PUSH20 0xFFFFFFFFFFFFFFFFFFFFFFFFFFFFFFFFFFFFFFFF AND DUP2 MSTORE PUSH1 0x20 ADD PUSH0 PUSH12 0xFFFFFFFFFFFFFFFFFFFFFFFF AND DUP2 MSTORE PUSH1 0x20 ADD PUSH0 DUP2 MSTORE POP SWAP1 JUMP JUMPDEST PUSH1 0x40 MLOAD DUP1 PUSH1 0x80 ADD PUSH1 0x40 MSTORE DUP1 PUSH0 DUP2 MSTORE PUSH1 0x20 ADD PUSH0 DUP2 MSTORE PUSH1 0x20 ADD PUSH0 DUP2 MSTORE PUSH1 0x20 ADD PUSH0 DUP2 MSTORE POP SWAP1 JUMP JUMPDEST PUSH0 DUP1 REVERT JUMPDEST PUSH0 DUP1 REVERT JUMPDEST PUSH0 DUP2 SWAP1 POP SWAP2 SWAP1 POP JUMP JUMPDEST PUSH2 0x30C1 DUP2 PUSH2 0x30AF JUMP JUMPDEST DUP2 EQ PUSH2 0x30CB JUMPI PUSH0 DUP1 REVERT JUMPDEST POP JUMP JUMPDEST PUSH0 DUP2 CALLDATALOAD SWAP1 POP PUSH2 0x30DC DUP2 PUSH2 0x30B8 JUMP JUMPDEST SWAP3 SWAP2 POP POP JUMP JUMPDEST PUSH0 PUSH20 0xFFFFFFFFFFFFFFFFFFFFFFFFFFFFFFFFFFFFFFFF DUP3 AND SWAP1 POP SWAP2 SWAP1 POP JUMP JUMPDEST PUSH0 PUSH2 0x310B DUP3 PUSH2 0x30E2 JUMP JUMPDEST SWAP1 POP SWAP2 SWAP1 POP JUMP JUMPDEST PUSH2 0x311B DUP2 PUSH2 0x3101 JUMP JUMPDEST DUP2 EQ PUSH2 0x3125 JUMPI PUSH0 DUP1 REVERT JUMPDEST POP JUMP JUMPDEST PUSH0 DUP2 CALLDATALOAD SWAP1 POP PUSH2 0x3136 DUP2 PUSH2 0x3112 JUMP JUMPDEST SWAP3 SWAP2 POP POP JUMP JUMPDEST PUSH0 DUP1 PUSH1 0x40 DUP4 DUP6 SUB SLT ISZERO PUSH2 0x3152 JUMPI PUSH2 0x3151 PUSH2 0x30A7 JUMP JUMPDEST JUMPDEST PUSH0 PUSH2 0x315F DUP6 DUP3 DUP7 ADD PUSH2 0x30CE JUMP JUMPDEST SWAP3 POP POP PUSH1 0x20 PUSH2 0x3170 DUP6 DUP3 DUP7 ADD PUSH2 0x3128 JUMP JUMPDEST SWAP2 POP POP SWAP3 POP SWAP3 SWAP1 POP JUMP JUMPDEST PUSH0 DUP2 ISZERO ISZERO SWAP1 POP SWAP2 SWAP1 POP JUMP JUMPDEST PUSH2 0x318E DUP2 PUSH2 0x317A JUMP JUMPDEST DUP3 MSTORE POP POP JUMP JUMPDEST PUSH0 PUSH1 0x20 DUP3 ADD SWAP1 POP PUSH2 0x31A7 PUSH0 DUP4 ADD DUP5 PUSH2 0x3185 JUMP JUMPDEST SWAP3 SWAP2 POP POP JUMP JUMPDEST PUSH0 DUP2 SWAP1 POP SWAP2 SWAP1 POP JUMP JUMPDEST PUSH2 0x31BF DUP2 PUSH2 0x31AD JUMP JUMPDEST DUP2 EQ PUSH2 0x31C9 JUMPI PUSH0 DUP1 REVERT JUMPDEST POP JUMP JUMPDEST PUSH0 DUP2 CALLDATALOAD SWAP1 POP PUSH2 0x31DA DUP2 PUSH2 0x31B6 JUMP JUMPDEST SWAP3 SWAP2 POP POP JUMP JUMPDEST PUSH0 DUP1 PUSH1 0x40 DUP4 DUP6 SUB SLT ISZERO PUSH2 0x31F6 JUMPI PUSH2 0x31F5 PUSH2 0x30A7 JUMP JUMPDEST JUMPDEST PUSH0 PUSH2 0x3203 DUP6 DUP3 DUP7 ADD PUSH2 0x31CC JUMP JUMPDEST SWAP3 POP POP PUSH1 0x20 PUSH2 0x3214 DUP6 DUP3 DUP7 ADD PUSH2 0x30CE JUMP JUMPDEST SWAP2 POP POP SWAP3 POP SWAP3 SWAP1 POP JUMP JUMPDEST PUSH0 PUSH1 0x20 DUP3 DUP5 SUB SLT ISZERO PUSH2 0x3233 JUMPI PUSH2 0x3232 PUSH2 0x30A7 JUMP JUMPDEST JUMPDEST PUSH0 PUSH2 0x3240 DUP5 DUP3 DUP6 ADD PUSH2 0x3128 JUMP JUMPDEST SWAP2 POP POP SWAP3 SWAP2 POP POP JUMP JUMPDEST PUSH0 PUSH1 0x20 DUP3 DUP5 SUB SLT ISZERO PUSH2 0x325E JUMPI PUSH2 0x325D PUSH2 0x30A7 JUMP JUMPDEST JUMPDEST PUSH0 PUSH2 0x326B DUP5 DUP3 DUP6 ADD PUSH2 0x30CE JUMP JUMPDEST SWAP2 POP POP SWAP3 SWAP2 POP POP JUMP JUMPDEST PUSH2 0x327D DUP2 PUSH2 0x3101 JUMP JUMPDEST DUP3 MSTORE POP POP JUMP JUMPDEST PUSH2 0x328C DUP2 PUSH2 0x31AD JUMP JUMPDEST DUP3 MSTORE POP POP JUMP JUMPDEST PUSH2 0x329B DUP2 PUSH2 0x317A JUMP JUMPDEST DUP3 MSTORE POP POP JUMP JUMPDEST PUSH0 PUSH12 0xFFFFFFFFFFFFFFFFFFFFFFFF DUP3 AND SWAP1 POP SWAP2 SWAP1 POP JUMP JUMPDEST PUSH2 0x32C1 DUP2 PUSH2 0x32A1 JUMP JUMPDEST DUP3 MSTORE POP POP JUMP JUMPDEST PUSH2 0x140 DUP3 ADD PUSH0 DUP3 ADD MLOAD PUSH2 0x32DC PUSH0 DUP6 ADD DUP3 PUSH2 0x3274 JUMP JUMPDEST POP PUSH1 0x20 DUP3 ADD MLOAD PUSH2 0x32EF PUSH1 0x20 DUP6 ADD DUP3 PUSH2 0x3274 JUMP JUMPDEST POP PUSH1 0x40 DUP3 ADD MLOAD PUSH2 0x3302 PUSH1 0x40 DUP6 ADD DUP3 PUSH2 0x3274 JUMP JUMPDEST POP PUSH1 0x60 DUP3 ADD MLOAD PUSH2 0x3315 PUSH1 0x60 DUP6 ADD DUP3 PUSH2 0x3283 JUMP JUMPDEST POP PUSH1 0x80 DUP3 ADD MLOAD PUSH2 0x3328 PUSH1 0x80 DUP6 ADD DUP3 PUSH2 0x3283 JUMP JUMPDEST POP PUSH1 0xA0 DUP3 ADD MLOAD PUSH2 0x333B PUSH1 0xA0 DUP6 ADD DUP3 PUSH2 0x3292 JUMP JUMPDEST POP PUSH1 0xC0 DUP3 ADD MLOAD PUSH2 0x334E PUSH1 0xC0 DUP6 ADD DUP3 PUSH2 0x3292 JUMP JUMPDEST POP PUSH1 0xE0 DUP3 ADD MLOAD PUSH2 0x3361 PUSH1 0xE0 DUP6 ADD DUP3 PUSH2 0x3274 JUMP JUMPDEST POP PUSH2 0x100 DUP3 ADD MLOAD PUSH2 0x3376 PUSH2 0x100 DUP6 ADD DUP3 PUSH2 0x32B8 JUMP JUMPDEST POP PUSH2 0x120 DUP3 ADD MLOAD PUSH2 0x338B PUSH2 0x120 DUP6 ADD DUP3 PUSH2 0x3283 JUMP JUMPDEST POP POP POP POP JUMP JUMPDEST PUSH0 PUSH2 0x140 DUP3 ADD SWAP1 POP PUSH2 0x33A5 PUSH0 DUP4 ADD DUP5 PUSH2 0x32C7 JUMP JUMPDEST SWAP3 SWAP2 POP POP JUMP JUMPDEST PUSH2 0x33B4 DUP2 PUSH2 0x32A1 JUMP JUMPDEST DUP2 EQ PUSH2 0x33BE JUMPI PUSH0 DUP1 REVERT JUMPDEST POP JUMP JUMPDEST PUSH0 DUP2 CALLDATALOAD SWAP1 POP PUSH2 0x33CF DUP2 PUSH2 0x33AB JUMP JUMPDEST SWAP3 SWAP2 POP POP JUMP JUMPDEST PUSH0 DUP1 REVERT JUMPDEST PUSH0 DUP1 REVERT JUMPDEST PUSH0 DUP1 REVERT JUMPDEST PUSH0 DUP1 DUP4 PUSH1 0x1F DUP5 ADD SLT PUSH2 0x33F6 JUMPI PUSH2 0x33F5 PUSH2 0x33D5 JUMP JUMPDEST JUMPDEST DUP3 CALLDATALOAD SWAP1 POP PUSH8 0xFFFFFFFFFFFFFFFF DUP2 GT ISZERO PUSH2 0x3413 JUMPI PUSH2 0x3412 PUSH2 0x33D9 JUMP JUMPDEST JUMPDEST PUSH1 0x20 DUP4 ADD SWAP2 POP DUP4 PUSH1 0x1 DUP3 MUL DUP4 ADD GT ISZERO PUSH2 0x342F JUMPI PUSH2 0x342E PUSH2 0x33DD JUMP JUMPDEST JUMPDEST SWAP3 POP SWAP3 SWAP1 POP JUMP JUMPDEST PUSH0 DUP1 PUSH0 DUP1 PUSH0 DUP1 PUSH0 DUP1 PUSH1 0xE0 DUP10 DUP12 SUB SLT ISZERO PUSH2 0x3452 JUMPI PUSH2 0x3451 PUSH2 0x30A7 JUMP JUMPDEST JUMPDEST PUSH0 PUSH2 0x345F DUP12 DUP3 DUP13 ADD PUSH2 0x3128 JUMP JUMPDEST SWAP9 POP POP PUSH1 0x20 PUSH2 0x3470 DUP12 DUP3 DUP13 ADD PUSH2 0x31CC JUMP JUMPDEST SWAP8 POP POP PUSH1 0x40 PUSH2 0x3481 DUP12 DUP3 DUP13 ADD PUSH2 0x33C1 JUMP JUMPDEST SWAP7 POP POP PUSH1 0x60 PUSH2 0x3492 DUP12 DUP3 DUP13 ADD PUSH2 0x3128 JUMP JUMPDEST SWAP6 POP POP PUSH1 0x80 PUSH2 0x34A3 DUP12 DUP3 DUP13 ADD PUSH2 0x31CC JUMP JUMPDEST SWAP5 POP POP PUSH1 0xA0 PUSH2 0x34B4 DUP12 DUP3 DUP13 ADD PUSH2 0x3128 JUMP JUMPDEST SWAP4 POP POP PUSH1 0xC0 DUP10 ADD CALLDATALOAD PUSH8 0xFFFFFFFFFFFFFFFF DUP2 GT ISZERO PUSH2 0x34D5 JUMPI PUSH2 0x34D4 PUSH2 0x30AB JUMP JUMPDEST JUMPDEST PUSH2 0x34E1 DUP12 DUP3 DUP13 ADD PUSH2 0x33E1 JUMP JUMPDEST SWAP3 POP SWAP3 POP POP SWAP3 SWAP6 SWAP9 POP SWAP3 SWAP6 SWAP9 SWAP1 SWAP4 SWAP7 POP JUMP JUMPDEST PUSH2 0x34FC DUP2 PUSH2 0x30AF JUMP JUMPDEST DUP3 MSTORE POP POP JUMP JUMPDEST PUSH0 PUSH1 0x20 DUP3 ADD SWAP1 POP PUSH2 0x3515 PUSH0 DUP4 ADD DUP5 PUSH2 0x34F3 JUMP JUMPDEST SWAP3 SWAP2 POP POP JUMP JUMPDEST PUSH0 DUP1 PUSH0 DUP1 PUSH0 PUSH1 0xA0 DUP7 DUP9 SUB SLT ISZERO PUSH2 0x3534 JUMPI PUSH2 0x3533 PUSH2 0x30A7 JUMP JUMPDEST JUMPDEST PUSH0 PUSH2 0x3541 DUP9 DUP3 DUP10 ADD PUSH2 0x3128 JUMP JUMPDEST SWAP6 POP POP PUSH1 0x20 PUSH2 0x3552 DUP9 DUP3 DUP10 ADD PUSH2 0x31CC JUMP JUMPDEST SWAP5 POP POP PUSH1 0x40 PUSH2 0x3563 DUP9 DUP3 DUP10 ADD PUSH2 0x31CC JUMP JUMPDEST SWAP4 POP POP PUSH1 0x60 PUSH2 0x3574 DUP9 DUP3 DUP10 ADD PUSH2 0x31CC JUMP JUMPDEST SWAP3 POP POP PUSH1 0x80 PUSH2 0x3585 DUP9 DUP3 DUP10 ADD PUSH2 0x31CC JUMP JUMPDEST SWAP2 POP POP SWAP3 SWAP6 POP SWAP3 SWAP6 SWAP1 SWAP4 POP JUMP JUMPDEST PUSH1 0x80 DUP3 ADD PUSH0 DUP3 ADD MLOAD PUSH2 0x35A6 PUSH0 DUP6 ADD DUP3 PUSH2 0x3283 JUMP JUMPDEST POP PUSH1 0x20 DUP3 ADD MLOAD PUSH2 0x35B9 PUSH1 0x20 DUP6 ADD DUP3 PUSH2 0x3283 JUMP JUMPDEST POP PUSH1 0x40 DUP3 ADD MLOAD PUSH2 0x35CC PUSH1 0x40 DUP6 ADD DUP3 PUSH2 0x3283 JUMP JUMPDEST POP PUSH1 0x60 DUP3 ADD MLOAD PUSH2 0x35DF PUSH1 0x60 DUP6 ADD DUP3 PUSH2 0x3283 JUMP JUMPDEST POP POP POP POP JUMP JUMPDEST PUSH0 PUSH1 0x80 DUP3 ADD SWAP1 POP PUSH2 0x35F8 PUSH0 DUP4 ADD DUP5 PUSH2 0x3592 JUMP JUMPDEST SWAP3 SWAP2 POP POP JUMP JUMPDEST PUSH2 0x3607 DUP2 PUSH2 0x3101 JUMP JUMPDEST DUP3 MSTORE POP POP JUMP JUMPDEST PUSH0 PUSH1 0x20 DUP3 ADD SWAP1 POP PUSH2 0x3620 PUSH0 DUP4 ADD DUP5 PUSH2 0x35FE JUMP JUMPDEST SWAP3 SWAP2 POP POP JUMP JUMPDEST PUSH0 DUP1 PUSH0 PUSH1 0x60 DUP5 DUP7 SUB SLT ISZERO PUSH2 0x363D JUMPI PUSH2 0x363C PUSH2 0x30A7 JUMP JUMPDEST JUMPDEST PUSH0 PUSH2 0x364A DUP7 DUP3 DUP8 ADD PUSH2 0x30CE JUMP JUMPDEST SWAP4 POP POP PUSH1 0x20 PUSH2 0x365B DUP7 DUP3 DUP8 ADD PUSH2 0x3128 JUMP JUMPDEST SWAP3 POP POP PUSH1 0x40 PUSH2 0x366C DUP7 DUP3 DUP8 ADD PUSH2 0x31CC JUMP JUMPDEST SWAP2 POP POP SWAP3 POP SWAP3 POP SWAP3 JUMP JUMPDEST PUSH0 PUSH8 0xFFFFFFFFFFFFFFFF DUP3 AND SWAP1 POP SWAP2 SWAP1 POP JUMP JUMPDEST PUSH2 0x3692 DUP2 PUSH2 0x3676 JUMP JUMPDEST DUP2 EQ PUSH2 0x369C JUMPI PUSH0 DUP1 REVERT JUMPDEST POP JUMP JUMPDEST PUSH0 DUP2 CALLDATALOAD SWAP1 POP PUSH2 0x36AD DUP2 PUSH2 0x3689 JUMP JUMPDEST SWAP3 SWAP2 POP POP JUMP JUMPDEST PUSH0 DUP1 PUSH0 DUP1 PUSH0 PUSH1 0xA0 DUP7 DUP9 SUB SLT ISZERO PUSH2 0x36CC JUMPI PUSH2 0x36CB PUSH2 0x30A7 JUMP JUMPDEST JUMPDEST PUSH0 PUSH2 0x36D9 DUP9 DUP3 DUP10 ADD PUSH2 0x30CE JUMP JUMPDEST SWAP6 POP POP PUSH1 0x20 PUSH2 0x36EA DUP9 DUP3 DUP10 ADD PUSH2 0x30CE JUMP JUMPDEST SWAP5 POP POP PUSH1 0x40 PUSH2 0x36FB DUP9 DUP3 DUP10 ADD PUSH2 0x3128 JUMP JUMPDEST SWAP4 POP POP PUSH1 0x60 PUSH2 0x370C DUP9 DUP3 DUP10 ADD PUSH2 0x369F JUMP JUMPDEST SWAP3 POP POP PUSH1 0x80 PUSH2 0x371D DUP9 DUP3 DUP10 ADD PUSH2 0x369F JUMP JUMPDEST SWAP2 POP POP SWAP3 SWAP6 POP SWAP3 SWAP6 SWAP1 SWAP4 POP JUMP JUMPDEST PUSH0 DUP3 DUP3 MSTORE PUSH1 0x20 DUP3 ADD SWAP1 POP SWAP3 SWAP2 POP POP JUMP JUMPDEST PUSH32 0x476174657761793A207A65726F20616464726573730000000000000000000000 PUSH0 DUP3 ADD MSTORE POP JUMP JUMPDEST PUSH0 PUSH2 0x376E PUSH1 0x15 DUP4 PUSH2 0x372A JUMP JUMPDEST SWAP2 POP PUSH2 0x3779 DUP3 PUSH2 0x373A JUMP JUMPDEST PUSH1 0x20 DUP3 ADD SWAP1 POP SWAP2 SWAP1 POP JUMP JUMPDEST PUSH0 PUSH1 0x20 DUP3 ADD SWAP1 POP DUP2 DUP2 SUB PUSH0 DUP4 ADD MSTORE PUSH2 0x379B DUP2 PUSH2 0x3762 JUMP JUMPDEST SWAP1 POP SWAP2 SWAP1 POP JUMP JUMPDEST PUSH32 0x476174657761793A207472656173757279206164647265737320616C72656164 PUSH0 DUP3 ADD MSTORE PUSH32 0x7920736574000000000000000000000000000000000000000000000000000000 PUSH1 0x20 DUP3 ADD MSTORE POP JUMP JUMPDEST PUSH0 PUSH2 0x37FC PUSH1 0x25 DUP4 PUSH2 0x372A JUMP JUMPDEST SWAP2 POP PUSH2 0x3807 DUP3 PUSH2 0x37A2 JUMP JUMPDEST PUSH1 0x40 DUP3 ADD SWAP1 POP SWAP2 SWAP1 POP JUMP JUMPDEST PUSH0 PUSH1 0x20 DUP3 ADD SWAP1 POP DUP2 DUP2 SUB PUSH0 DUP4 ADD MSTORE PUSH2 0x3829 DUP2 PUSH2 0x37F0 JUMP JUMPDEST SWAP1 POP SWAP2 SWAP1 POP JUMP JUMPDEST PUSH32 0x476174657761793A2061676772656761746F72206164647265737320616C7265 PUSH0 DUP3 ADD MSTORE PUSH32 0x6164792073657400000000000000000000000000000000000000000000000000 PUSH1 0x20 DUP3 ADD MSTORE POP JUMP JUMPDEST PUSH0 PUSH2 0x388A PUSH1 0x27 DUP4 PUSH2 0x372A JUMP JUMPDEST SWAP2 POP PUSH2 0x3895 DUP3 PUSH2 0x3830 JUMP JUMPDEST PUSH1 0x40 DUP3 ADD SWAP1 POP SWAP2 SWAP1 POP JUMP JUMPDEST PUSH0 PUSH1 0x20 DUP3 ADD SWAP1 POP DUP2 DUP2 SUB PUSH0 DUP4 ADD MSTORE PUSH2 0x38B7 DUP2 PUSH2 0x387E JUMP JUMPDEST SWAP1 POP SWAP2 SWAP1 POP JUMP JUMPDEST PUSH32 0x4F6E6C7941676772656761746F72000000000000000000000000000000000000 PUSH0 DUP3 ADD MSTORE POP JUMP JUMPDEST PUSH0 PUSH2 0x38F2 PUSH1 0xE DUP4 PUSH2 0x372A JUMP JUMPDEST SWAP2 POP PUSH2 0x38FD DUP3 PUSH2 0x38BE JUMP JUMPDEST PUSH1 0x20 DUP3 ADD SWAP1 POP SWAP2 SWAP1 POP JUMP JUMPDEST PUSH0 PUSH1 0x20 DUP3 ADD SWAP1 POP DUP2 DUP2 SUB PUSH0 DUP4 ADD MSTORE PUSH2 0x391F DUP2 PUSH2 0x38E6 JUMP JUMPDEST SWAP1 POP SWAP2 SWAP1 POP JUMP JUMPDEST PUSH32 0x4F7264657246756C66696C6C6564000000000000000000000000000000000000 PUSH0 DUP3 ADD MSTORE POP JUMP JUMPDEST PUSH0 PUSH2 0x395A PUSH1 0xE DUP4 PUSH2 0x372A JUMP JUMPDEST SWAP2 POP PUSH2 0x3965 DUP3 PUSH2 0x3926 JUMP JUMPDEST PUSH1 0x20 DUP3 ADD SWAP1 POP SWAP2 SWAP1 POP JUMP JUMPDEST PUSH0 PUSH1 0x20 DUP3 ADD SWAP1 POP DUP2 DUP2 SUB PUSH0 DUP4 ADD MSTORE PUSH2 0x3987 DUP2 PUSH2 0x394E JUMP JUMPDEST SWAP1 POP SWAP2 SWAP1 POP JUMP JUMPDEST PUSH32 0x4F72646572526566756E64656400000000000000000000000000000000000000 PUSH0 DUP3 ADD MSTORE POP JUMP JUMPDEST PUSH0 PUSH2 0x39C2 PUSH1 0xD DUP4 PUSH2 0x372A JUMP JUMPDEST SWAP2 POP PUSH2 0x39CD DUP3 PUSH2 0x398E JUMP JUMPDEST PUSH1 0x20 DUP3 ADD SWAP1 POP SWAP2 SWAP1 POP JUMP JUMPDEST PUSH0 PUSH1 0x20 DUP3 ADD SWAP1 POP DUP2 DUP2 SUB PUSH0 DUP4 ADD MSTORE PUSH2 0x39EF DUP2 PUSH2 0x39B6 JUMP JUMPDEST SWAP1 POP SWAP2 SWAP1 POP JUMP JUMPDEST PUSH32 0x4665654578636565647350726F746F636F6C4665650000000000000000000000 PUSH0 DUP3 ADD MSTORE POP JUMP JUMPDEST PUSH0 PUSH2 0x3A2A PUSH1 0x15 DUP4 PUSH2 0x372A JUMP JUMPDEST SWAP2 POP PUSH2 0x3A35 DUP3 PUSH2 0x39F6 JUMP JUMPDEST PUSH1 0x20 DUP3 ADD SWAP1 POP SWAP2 SWAP1 POP JUMP JUMPDEST PUSH0 PUSH1 0x20 DUP3 ADD SWAP1 POP DUP2 DUP2 SUB PUSH0 DUP4 ADD MSTORE PUSH2 0x3A57 DUP2 PUSH2 0x3A1E JUMP JUMPDEST SWAP1 POP SWAP2 SWAP1 POP JUMP JUMPDEST PUSH2 0x3A67 DUP2 PUSH2 0x31AD JUMP JUMPDEST DUP3 MSTORE POP POP JUMP JUMPDEST PUSH0 PUSH1 0x40 DUP3 ADD SWAP1 POP PUSH2 0x3A80 PUSH0 DUP4 ADD DUP6 PUSH2 0x35FE JUMP JUMPDEST PUSH2 0x3A8D PUSH1 0x20 DUP4 ADD DUP5 PUSH2 0x3A5E JUMP JUMPDEST SWAP4 SWAP3 POP POP POP JUMP JUMPDEST PUSH2 0x3A9D DUP2 PUSH2 0x317A JUMP JUMPDEST DUP2 EQ PUSH2 0x3AA7 JUMPI PUSH0 DUP1 REVERT JUMPDEST POP JUMP JUMPDEST PUSH0 DUP2 MLOAD SWAP1 POP PUSH2 0x3AB8 DUP2 PUSH2 0x3A94 JUMP JUMPDEST SWAP3 SWAP2 POP POP JUMP JUMPDEST PUSH0 PUSH1 0x20 DUP3 DUP5 SUB SLT ISZERO PUSH2 0x3AD3 JUMPI PUSH2 0x3AD2 PUSH2 0x30A7 JUMP JUMPDEST JUMPDEST PUSH0 PUSH2 0x3AE0 DUP5 DUP3 DUP6 ADD PUSH2 0x3AAA JUMP JUMPDEST SWAP2 POP POP SWAP3 SWAP2 POP POP JUMP JUMPDEST PUSH32 0x4E487B7100000000000000000000000000000000000000000000000000000000 PUSH0 MSTORE PUSH1 0x11 PUSH1 0x4 MSTORE PUSH1 0x24 PUSH0 REVERT JUMPDEST PUSH0 PUSH2 0x3B20 DUP3 PUSH2 0x31AD JUMP JUMPDEST SWAP2 POP PUSH2 0x3B2B DUP4 PUSH2 0x31AD JUMP JUMPDEST SWAP3 POP DUP3 DUP3 SUB SWAP1 POP DUP2 DUP2 GT ISZERO PUSH2 0x3B43 JUMPI PUSH2 0x3B42 PUSH2 0x3AE9 JUMP JUMPDEST JUMPDEST SWAP3 SWAP2 POP POP JUMP JUMPDEST PUSH0 PUSH2 0x3B53 DUP3 PUSH2 0x31AD JUMP JUMPDEST SWAP2 POP PUSH2 0x3B5E DUP4 PUSH2 0x31AD JUMP JUMPDEST SWAP3 POP DUP3 DUP3 ADD SWAP1 POP DUP1 DUP3 GT ISZERO PUSH2 0x3B76 JUMPI PUSH2 0x3B75 PUSH2 0x3AE9 JUMP JUMPDEST JUMPDEST SWAP3 SWAP2 POP POP JUMP JUMPDEST PUSH0 PUSH1 0x20 DUP3 ADD SWAP1 POP PUSH2 0x3B8F PUSH0 DUP4 ADD DUP5 PUSH2 0x3A5E JUMP JUMPDEST SWAP3 SWAP2 POP POP JUMP JUMPDEST PUSH32 0x4F776E61626C6532537465703A2063616C6C6572206973206E6F742074686520 PUSH0 DUP3 ADD MSTORE PUSH32 0x6E6577206F776E65720000000000000000000000000000000000000000000000 PUSH1 0x20 DUP3 ADD MSTORE POP JUMP JUMPDEST PUSH0 PUSH2 0x3BEF PUSH1 0x29 DUP4 PUSH2 0x372A JUMP JUMPDEST SWAP2 POP PUSH2 0x3BFA DUP3 PUSH2 0x3B95 JUMP JUMPDEST PUSH1 0x40 DUP3 ADD SWAP1 POP SWAP2 SWAP1 POP JUMP JUMPDEST PUSH0 PUSH1 0x20 DUP3 ADD SWAP1 POP DUP2 DUP2 SUB PUSH0 DUP4 ADD MSTORE PUSH2 0x3C1C DUP2 PUSH2 0x3BE3 JUMP JUMPDEST SWAP1 POP SWAP2 SWAP1 POP JUMP JUMPDEST PUSH32 0x496E76616C69644D657373616765486173680000000000000000000000000000 PUSH0 DUP3 ADD MSTORE POP JUMP JUMPDEST PUSH0 PUSH2 0x3C57 PUSH1 0x12 DUP4 PUSH2 0x372A JUMP JUMPDEST SWAP2 POP PUSH2 0x3C62 DUP3 PUSH2 0x3C23 JUMP JUMPDEST PUSH1 0x20 DUP3 ADD SWAP1 POP SWAP2 SWAP1 POP JUMP JUMPDEST PUSH0 PUSH1 0x20 DUP3 ADD SWAP1 POP DUP2 DUP2 SUB PUSH0 DUP4 ADD MSTORE PUSH2 0x3C84 DUP2 PUSH2 0x3C4B JUMP JUMPDEST SWAP1 POP SWAP2 SWAP1 POP JUMP JUMPDEST PUSH0 PUSH1 0x60 DUP3 ADD SWAP1 POP PUSH2 0x3C9E PUSH0 DUP4 ADD DUP7 PUSH2 0x35FE JUMP JUMPDEST PUSH2 0x3CAB PUSH1 0x20 DUP4 ADD DUP6 PUSH2 0x35FE JUMP JUMPDEST PUSH2 0x3CB8 PUSH1 0x40 DUP4 ADD DUP5 PUSH2 0x3A5E JUMP JUMPDEST SWAP5 SWAP4 POP POP POP POP JUMP JUMPDEST PUSH0 PUSH2 0x3CCA DUP3 PUSH2 0x31AD JUMP JUMPDEST SWAP2 POP PUSH32 0xFFFFFFFFFFFFFFFFFFFFFFFFFFFFFFFFFFFFFFFFFFFFFFFFFFFFFFFFFFFFFFFF DUP3 SUB PUSH2 0x3CFC JUMPI PUSH2 0x3CFB PUSH2 0x3AE9 JUMP JUMPDEST JUMPDEST PUSH1 0x1 DUP3 ADD SWAP1 POP SWAP2 SWAP1 POP JUMP JUMPDEST PUSH0 PUSH1 0x60 DUP3 ADD SWAP1 POP PUSH2 0x3D1A PUSH0 DUP4 ADD DUP7 PUSH2 0x35FE JUMP JUMPDEST PUSH2 0x3D27 PUSH1 0x20 DUP4 ADD DUP6 PUSH2 0x3A5E JUMP JUMPDEST PUSH2 0x3D34 PUSH1 0x40 DUP4 ADD DUP5 PUSH2 0x3A5E JUMP JUMPDEST SWAP5 SWAP4 POP POP POP POP JUMP JUMPDEST PUSH32 0x4F72646572416C72656164794578697374730000000000000000000000000000 PUSH0 DUP3 ADD MSTORE POP JUMP JUMPDEST PUSH0 PUSH2 0x3D70 PUSH1 0x12 DUP4 PUSH2 0x372A JUMP JUMPDEST SWAP2 POP PUSH2 0x3D7B DUP3 PUSH2 0x3D3C JUMP JUMPDEST PUSH1 0x20 DUP3 ADD SWAP1 POP SWAP2 SWAP1 POP JUMP JUMPDEST PUSH0 PUSH1 0x20 DUP3 ADD SWAP1 POP DUP2 DUP2 SUB PUSH0 DUP4 ADD MSTORE PUSH2 0x3D9D DUP2 PUSH2 0x3D64 JUMP JUMPDEST SWAP1 POP SWAP2 SWAP1 POP JUMP JUMPDEST PUSH32 0x53656E64657246656549735A65726F0000000000000000000000000000000000 PUSH0 DUP3 ADD MSTORE POP JUMP JUMPDEST PUSH0 PUSH2 0x3DD8 PUSH1 0xF DUP4 PUSH2 0x372A JUMP JUMPDEST SWAP2 POP PUSH2 0x3DE3 DUP3 PUSH2 0x3DA4 JUMP JUMPDEST PUSH1 0x20 DUP3 ADD SWAP1 POP SWAP2 SWAP1 POP JUMP JUMPDEST PUSH0 PUSH1 0x20 DUP3 ADD SWAP1 POP DUP2 DUP2 SUB PUSH0 DUP4 ADD MSTORE PUSH2 0x3E05 DUP2 PUSH2 0x3DCC JUMP JUMPDEST SWAP1 POP SWAP2 SWAP1 POP JUMP JUMPDEST PUSH32 0x546F6B656E46656553657474696E67734E6F74436F6E66696775726564000000 PUSH0 DUP3 ADD MSTORE POP JUMP JUMPDEST PUSH0 PUSH2 0x3E40 PUSH1 0x1D DUP4 PUSH2 0x372A JUMP JUMPDEST SWAP2 POP PUSH2 0x3E4B DUP3 PUSH2 0x3E0C JUMP JUMPDEST PUSH1 0x20 DUP3 ADD SWAP1 POP SWAP2 SWAP1 POP JUMP JUMPDEST PUSH0 PUSH1 0x20 DUP3 ADD SWAP1 POP DUP2 DUP2 SUB PUSH0 DUP4 ADD MSTORE PUSH2 0x3E6D DUP2 PUSH2 0x3E34 JUMP JUMPDEST SWAP1 POP SWAP2 SWAP1 POP JUMP JUMPDEST PUSH0 PUSH2 0x3E7E DUP3 PUSH2 0x31AD JUMP JUMPDEST SWAP2 POP PUSH2 0x3E89 DUP4 PUSH2 0x31AD JUMP JUMPDEST SWAP3 POP DUP3 DUP3 MUL PUSH2 0x3E97 DUP2 PUSH2 0x31AD JUMP JUMPDEST SWAP2 POP DUP3 DUP3 DIV DUP5 EQ DUP4 ISZERO OR PUSH2 0x3EAE JUMPI PUSH2 0x3EAD PUSH2 0x3AE9 JUMP JUMPDEST JUMPDEST POP SWAP3 SWAP2 POP POP JUMP JUMPDEST PUSH32 0x4E487B7100000000000000000000000000000000000000000000000000000000 PUSH0 MSTORE PUSH1 0x12 PUSH1 0x4 MSTORE PUSH1 0x24 PUSH0 REVERT JUMPDEST PUSH0 PUSH2 0x3EEC DUP3 PUSH2 0x31AD JUMP JUMPDEST SWAP2 POP PUSH2 0x3EF7 DUP4 PUSH2 0x31AD JUMP JUMPDEST SWAP3 POP DUP3 PUSH2 0x3F07 JUMPI PUSH2 0x3F06 PUSH2 0x3EB5 JUMP JUMPDEST JUMPDEST DUP3 DUP3 DIV SWAP1 POP SWAP3 SWAP2 POP POP JUMP JUMPDEST PUSH0 DUP2 SWAP1 POP SWAP2 SWAP1 POP JUMP JUMPDEST PUSH0 PUSH2 0x3F35 PUSH2 0x3F30 PUSH2 0x3F2B DUP5 PUSH2 0x32A1 JUMP JUMPDEST PUSH2 0x3F12 JUMP JUMPDEST PUSH2 0x31AD JUMP JUMPDEST SWAP1 POP SWAP2 SWAP1 POP JUMP JUMPDEST PUSH2 0x3F45 DUP2 PUSH2 0x3F1B JUMP JUMPDEST DUP3 MSTORE POP POP JUMP JUMPDEST DUP3 DUP2 DUP4 CALLDATACOPY PUSH0 DUP4 DUP4 ADD MSTORE POP POP POP JUMP JUMPDEST PUSH0 PUSH1 0x1F NOT PUSH1 0x1F DUP4 ADD AND SWAP1 POP SWAP2 SWAP1 POP JUMP JUMPDEST PUSH0 PUSH2 0x3F74 DUP4 DUP6 PUSH2 0x372A JUMP JUMPDEST SWAP4 POP PUSH2 0x3F81 DUP4 DUP6 DUP5 PUSH2 0x3F4B JUMP JUMPDEST PUSH2 0x3F8A DUP4 PUSH2 0x3F59 JUMP JUMPDEST DUP5 ADD SWAP1 POP SWAP4 SWAP3 POP POP POP JUMP JUMPDEST PUSH0 PUSH1 0x80 DUP3 ADD SWAP1 POP PUSH2 0x3FA8 PUSH0 DUP4 ADD DUP9 PUSH2 0x3A5E JUMP JUMPDEST PUSH2 0x3FB5 PUSH1 0x20 DUP4 ADD DUP8 PUSH2 0x34F3 JUMP JUMPDEST PUSH2 0x3FC2 PUSH1 0x40 DUP4 ADD DUP7 PUSH2 0x3F3C JUMP JUMPDEST DUP2 DUP2 SUB PUSH1 0x60 DUP4 ADD MSTORE PUSH2 0x3FD5 DUP2 DUP5 DUP7 PUSH2 0x3F69 JUMP JUMPDEST SWAP1 POP SWAP7 SWAP6 POP POP POP POP POP POP JUMP JUMPDEST PUSH32 0x496E697469616C697A61626C653A20636F6E747261637420697320616C726561 PUSH0 DUP3 ADD MSTORE PUSH32 0x647920696E697469616C697A6564000000000000000000000000000000000000 PUSH1 0x20 DUP3 ADD MSTORE POP JUMP JUMPDEST PUSH0 PUSH2 0x403B PUSH1 0x2E DUP4 PUSH2 0x372A JUMP JUMPDEST SWAP2 POP PUSH2 0x4046 DUP3 PUSH2 0x3FE1 JUMP JUMPDEST PUSH1 0x40 DUP3 ADD SWAP1 POP SWAP2 SWAP1 POP JUMP JUMPDEST PUSH0 PUSH1 0x20 DUP3 ADD SWAP1 POP DUP2 DUP2 SUB PUSH0 DUP4 ADD MSTORE PUSH2 0x4068 DUP2 PUSH2 0x402F JUMP JUMPDEST SWAP1 POP SWAP2 SWAP1 POP JUMP JUMPDEST PUSH0 DUP2 SWAP1 POP SWAP2 SWAP1 POP JUMP JUMPDEST PUSH0 PUSH1 0xFF DUP3 AND SWAP1 POP SWAP2 SWAP1 POP JUMP JUMPDEST PUSH0 PUSH2 0x409E PUSH2 0x4099 PUSH2 0x4094 DUP5 PUSH2 0x406F JUMP JUMPDEST PUSH2 0x3F12 JUMP JUMPDEST PUSH2 0x4078 JUMP JUMPDEST SWAP1 POP SWAP2 SWAP1 POP JUMP JUMPDEST PUSH2 0x40AE DUP2 PUSH2 0x4084 JUMP JUMPDEST DUP3 MSTORE POP POP JUMP JUMPDEST PUSH0 PUSH1 0x20 DUP3 ADD SWAP1 POP PUSH2 0x40C7 PUSH0 DUP4 ADD DUP5 PUSH2 0x40A5 JUMP JUMPDEST SWAP3 SWAP2 POP POP JUMP JUMPDEST PUSH32 0x476174657761793A20746F6B656E206E6F7420737570706F7274656400000000 PUSH0 DUP3 ADD MSTORE POP JUMP JUMPDEST PUSH0 PUSH2 0x4101 PUSH1 0x1C DUP4 PUSH2 0x372A JUMP JUMPDEST SWAP2 POP PUSH2 0x410C DUP3 PUSH2 0x40CD JUMP JUMPDEST PUSH1 0x20 DUP3 ADD SWAP1 POP SWAP2 SWAP1 POP JUMP JUMPDEST PUSH0 PUSH1 0x20 DUP3 ADD SWAP1 POP DUP2 DUP2 SUB PUSH0 DUP4 ADD MSTORE PUSH2 0x412E DUP2 PUSH2 0x40F5 JUMP JUMPDEST SWAP1 POP SWAP2 SWAP1 POP JUMP JUMPDEST PUSH32 0x476174657761793A20696E76616C69642073656E64657220746F2070726F7669 PUSH0 DUP3 ADD MSTORE PUSH32 0x6465720000000000000000000000000000000000000000000000000000000000 PUSH1 0x20 DUP3 ADD MSTORE POP JUMP JUMPDEST PUSH0 PUSH2 0x418F PUSH1 0x23 DUP4 PUSH2 0x372A JUMP JUMPDEST SWAP2 POP PUSH2 0x419A DUP3 PUSH2 0x4135 JUMP JUMPDEST PUSH1 0x40 DUP3 ADD SWAP1 POP SWAP2 SWAP1 POP JUMP JUMPDEST PUSH0 PUSH1 0x20 DUP3 ADD SWAP1 POP DUP2 DUP2 SUB PUSH0 DUP4 ADD MSTORE PUSH2 0x41BC DUP2 PUSH2 0x4183 JUMP JUMPDEST SWAP1 POP SWAP2 SWAP1 POP JUMP JUMPDEST PUSH32 0x476174657761793A20696E76616C69642070726F766964657220746F20616767 PUSH0 DUP3 ADD MSTORE PUSH32 0x72656761746F7200000000000000000000000000000000000000000000000000 PUSH1 0x20 DUP3 ADD MSTORE POP JUMP JUMPDEST PUSH0 PUSH2 0x421D PUSH1 0x27 DUP4 PUSH2 0x372A JUMP JUMPDEST SWAP2 POP PUSH2 0x4228 DUP3 PUSH2 0x41C3 JUMP JUMPDEST PUSH1 0x40 DUP3 ADD SWAP1 POP SWAP2 SWAP1 POP JUMP JUMPDEST PUSH0 PUSH1 0x20 DUP3 ADD SWAP1 POP DUP2 DUP2 SUB PUSH0 DUP4 ADD MSTORE PUSH2 0x424A DUP2 PUSH2 0x4211 JUMP JUMPDEST SWAP1 POP SWAP2 SWAP1 POP JUMP JUMPDEST PUSH32 0x476174657761793A20696E76616C69642073656E64657220746F206167677265 PUSH0 DUP3 ADD MSTORE PUSH32 0x6761746F72000000000000000000000000000000000000000000000000000000 PUSH1 0x20 DUP3 ADD MSTORE POP JUMP JUMPDEST PUSH0 PUSH2 0x42AB PUSH1 0x25 DUP4 PUSH2 0x372A JUMP JUMPDEST SWAP2 POP PUSH2 0x42B6 DUP3 PUSH2 0x4251 JUMP JUMPDEST PUSH1 0x40 DUP3 ADD SWAP1 POP SWAP2 SWAP1 POP JUMP JUMPDEST PUSH0 PUSH1 0x20 DUP3 ADD SWAP1 POP DUP2 DUP2 SUB PUSH0 DUP4 ADD MSTORE PUSH2 0x42D8 DUP2 PUSH2 0x429F JUMP JUMPDEST SWAP1 POP SWAP2 SWAP1 POP JUMP JUMPDEST PUSH32 0x476174657761793A20696E76616C69642070726F766964657220746F20616767 PUSH0 DUP3 ADD MSTORE PUSH32 0x72656761746F7220667800000000000000000000000000000000000000000000 PUSH1 0x20 DUP3 ADD MSTORE POP JUMP JUMPDEST PUSH0 PUSH2 0x4339 PUSH1 0x2A DUP4 PUSH2 0x372A JUMP JUMPDEST SWAP2 POP PUSH2 0x4344 DUP3 PUSH2 0x42DF JUMP JUMPDEST PUSH1 0x40 DUP3 ADD SWAP1 POP SWAP2 SWAP1 POP JUMP JUMPDEST PUSH0 PUSH1 0x20 DUP3 ADD SWAP1 POP DUP2 DUP2 SUB PUSH0 DUP4 ADD MSTORE PUSH2 0x4366 DUP2 PUSH2 0x432D JUMP JUMPDEST SWAP1 POP SWAP2 SWAP1 POP JUMP JUMPDEST PUSH0 PUSH1 0x80 DUP3 ADD SWAP1 POP PUSH2 0x4380 PUSH0 DUP4 ADD DUP8 PUSH2 0x3A5E JUMP JUMPDEST PUSH2 0x438D PUSH1 0x20 DUP4 ADD DUP7 PUSH2 0x3A5E JUMP JUMPDEST PUSH2 0x439A PUSH1 0x40 DUP4 ADD DUP6 PUSH2 0x3A5E JUMP JUMPDEST PUSH2 0x43A7 PUSH1 0x60 DUP4 ADD DUP5 PUSH2 0x3A5E JUMP JUMPDEST SWAP6 SWAP5 POP POP POP POP POP JUMP JUMPDEST PUSH32 0x476174657761793A20696E76616C696420737461747573000000000000000000 PUSH0 DUP3 ADD MSTORE POP JUMP JUMPDEST PUSH0 PUSH2 0x43E4 PUSH1 0x17 DUP4 PUSH2 0x372A JUMP JUMPDEST SWAP2 POP PUSH2 0x43EF DUP3 PUSH2 0x43B0 JUMP JUMPDEST PUSH1 0x20 DUP3 ADD SWAP1 POP SWAP2 SWAP1 POP JUMP JUMPDEST PUSH0 PUSH1 0x20 DUP3 ADD SWAP1 POP DUP2 DUP2 SUB PUSH0 DUP4 ADD MSTORE PUSH2 0x4411 DUP2 PUSH2 0x43D8 JUMP JUMPDEST SWAP1 POP SWAP2 SWAP1 POP JUMP JUMPDEST PUSH32 0x496E76616C696452656261746550657263656E74000000000000000000000000 PUSH0 DUP3 ADD MSTORE POP JUMP JUMPDEST PUSH0 PUSH2 0x444C PUSH1 0x14 DUP4 PUSH2 0x372A JUMP JUMPDEST SWAP2 POP PUSH2 0x4457 DUP3 PUSH2 0x4418 JUMP JUMPDEST PUSH1 0x20 DUP3 ADD SWAP1 POP SWAP2 SWAP1 POP JUMP JUMPDEST PUSH0 PUSH1 0x20 DUP3 ADD SWAP1 POP DUP2 DUP2 SUB PUSH0 DUP4 ADD MSTORE PUSH2 0x4479 DUP2 PUSH2 0x4440 JUMP JUMPDEST SWAP1 POP SWAP2 SWAP1 POP JUMP JUMPDEST PUSH0 PUSH2 0x448A DUP3 PUSH2 0x32A1 JUMP JUMPDEST SWAP2 POP PUSH2 0x4495 DUP4 PUSH2 0x32A1 JUMP JUMPDEST SWAP3 POP DUP3 DUP3 SUB SWAP1 POP PUSH12 0xFFFFFFFFFFFFFFFFFFFFFFFF DUP2 GT ISZERO PUSH2 0x44B9 JUMPI PUSH2 0x44B8 PUSH2 0x3AE9 JUMP JUMPDEST JUMPDEST SWAP3 SWAP2 POP POP JUMP JUMPDEST PUSH2 0x44C8 DUP2 PUSH2 0x3676 JUMP JUMPDEST DUP3 MSTORE POP POP JUMP JUMPDEST PUSH0 PUSH1 0x60 DUP3 ADD SWAP1 POP PUSH2 0x44E1 PUSH0 DUP4 ADD DUP7 PUSH2 0x34F3 JUMP JUMPDEST PUSH2 0x44EE PUSH1 0x20 DUP4 ADD DUP6 PUSH2 0x44BF JUMP JUMPDEST PUSH2 0x44FB PUSH1 0x40 DUP4 ADD DUP5 PUSH2 0x44BF JUMP JUMPDEST SWAP5 SWAP4 POP POP POP POP JUMP JUMPDEST PUSH32 0x4F776E61626C653A2063616C6C6572206973206E6F7420746865206F776E6572 PUSH0 DUP3 ADD MSTORE POP JUMP JUMPDEST PUSH0 PUSH2 0x4537 PUSH1 0x20 DUP4 PUSH2 0x372A JUMP JUMPDEST SWAP2 POP PUSH2 0x4542 DUP3 PUSH2 0x4503 JUMP JUMPDEST PUSH1 0x20 DUP3 ADD SWAP1 POP SWAP2 SWAP1 POP JUMP JUMPDEST PUSH0 PUSH1 0x20 DUP3 ADD SWAP1 POP DUP2 DUP2 SUB PUSH0 DUP4 ADD MSTORE PUSH2 0x4564 DUP2 PUSH2 0x452B JUMP JUMPDEST SWAP1 POP SWAP2 SWAP1 POP JUMP JUMPDEST PUSH32 0x5061757361626C653A2070617573656400000000000000000000000000000000 PUSH0 DUP3 ADD MSTORE POP JUMP JUMPDEST PUSH0 PUSH2 0x459F PUSH1 0x10 DUP4 PUSH2 0x372A JUMP JUMPDEST SWAP2 POP PUSH2 0x45AA DUP3 PUSH2 0x456B JUMP JUMPDEST PUSH1 0x20 DUP3 ADD SWAP1 POP SWAP2 SWAP1 POP JUMP JUMPDEST PUSH0 PUSH1 0x20 DUP3 ADD SWAP1 POP DUP2 DUP2 SUB PUSH0 DUP4 ADD MSTORE PUSH2 0x45CC DUP2 PUSH2 0x4593 JUMP JUMPDEST SWAP1 POP SWAP2 SWAP1 POP JUMP JUMPDEST PUSH32 0x546F6B656E4E6F74537570706F72746564000000000000000000000000000000 PUSH0 DUP3 ADD MSTORE POP JUMP JUMPDEST PUSH0 PUSH2 0x4607 PUSH1 0x11 DUP4 PUSH2 0x372A JUMP JUMPDEST SWAP2 POP PUSH2 0x4612 DUP3 PUSH2 0x45D3 JUMP JUMPDEST PUSH1 0x20 DUP3 ADD SWAP1 POP SWAP2 SWAP1 POP JUMP JUMPDEST PUSH0 PUSH1 0x20 DUP3 ADD SWAP1 POP DUP2 DUP2 SUB PUSH0 DUP4 ADD MSTORE PUSH2 0x4634 DUP2 PUSH2 0x45FB JUMP JUMPDEST SWAP1 POP SWAP2 SWAP1 POP JUMP JUMPDEST PUSH32 0x416D6F756E7449735A65726F0000000000000000000000000000000000000000 PUSH0 DUP3 ADD MSTORE POP JUMP JUMPDEST PUSH0 PUSH2 0x466F PUSH1 0xC DUP4 PUSH2 0x372A JUMP JUMPDEST SWAP2 POP PUSH2 0x467A DUP3 PUSH2 0x463B JUMP JUMPDEST PUSH1 0x20 DUP3 ADD SWAP1 POP SWAP2 SWAP1 POP JUMP JUMPDEST PUSH0 PUSH1 0x20 DUP3 ADD SWAP1 POP DUP2 DUP2 SUB PUSH0 DUP4 ADD MSTORE PUSH2 0x469C DUP2 PUSH2 0x4663 JUMP JUMPDEST SWAP1 POP SWAP2 SWAP1 POP JUMP JUMPDEST PUSH32 0x5468726F775A65726F4164647265737300000000000000000000000000000000 PUSH0 DUP3 ADD MSTORE POP JUMP JUMPDEST PUSH0 PUSH2 0x46D7 PUSH1 0x10 DUP4 PUSH2 0x372A JUMP JUMPDEST SWAP2 POP PUSH2 0x46E2 DUP3 PUSH2 0x46A3 JUMP JUMPDEST PUSH1 0x20 DUP3 ADD SWAP1 POP SWAP2 SWAP1 POP JUMP JUMPDEST PUSH0 PUSH1 0x20 DUP3 ADD SWAP1 POP DUP2 DUP2 SUB PUSH0 DUP4 ADD MSTORE PUSH2 0x4704 DUP2 PUSH2 0x46CB JUMP JUMPDEST SWAP1 POP SWAP2 SWAP1 POP JUMP JUMPDEST PUSH32 0x496E76616C696453656E646572466565526563697069656E7400000000000000 PUSH0 DUP3 ADD MSTORE POP JUMP JUMPDEST PUSH0 PUSH2 0x473F PUSH1 0x19 DUP4 PUSH2 0x372A JUMP JUMPDEST SWAP2 POP PUSH2 0x474A DUP3 PUSH2 0x470B JUMP JUMPDEST PUSH1 0x20 DUP3 ADD SWAP1 POP SWAP2 SWAP1 POP JUMP JUMPDEST PUSH0 PUSH1 0x20 DUP3 ADD SWAP1 POP DUP2 DUP2 SUB PUSH0 DUP4 ADD MSTORE PUSH2 0x476C DUP2 PUSH2 0x4733 JUMP JUMPDEST SWAP1 POP SWAP2 SWAP1 POP JUMP JUMPDEST PUSH32 0x496E697469616C697A61626C653A20636F6E7472616374206973206E6F742069 PUSH0 DUP3 ADD MSTORE PUSH32 0x6E697469616C697A696E67000000000000000000000000000000000000000000 PUSH1 0x20 DUP3 ADD MSTORE POP JUMP JUMPDEST PUSH0 PUSH2 0x47CD PUSH1 0x2B DUP4 PUSH2 0x372A JUMP JUMPDEST SWAP2 POP PUSH2 0x47D8 DUP3 PUSH2 0x4773 JUMP JUMPDEST PUSH1 0x40 DUP3 ADD SWAP1 POP SWAP2 SWAP1 POP JUMP JUMPDEST PUSH0 PUSH1 0x20 DUP3 ADD SWAP1 POP DUP2 DUP2 SUB PUSH0 DUP4 ADD MSTORE PUSH2 0x47FA DUP2 PUSH2 0x47C1 JUMP JUMPDEST SWAP1 POP SWAP2 SWAP1 POP JUMP JUMPDEST PUSH0 PUSH1 0x40 DUP3 ADD SWAP1 POP PUSH2 0x4814 PUSH0 DUP4 ADD DUP6 PUSH2 0x3A5E JUMP JUMPDEST PUSH2 0x4821 PUSH1 0x20 DUP4 ADD DUP5 PUSH2 0x3A5E JUMP JUMPDEST SWAP4 SWAP3 POP POP POP JUMP JUMPDEST PUSH0 PUSH1 0x60 DUP3 ADD SWAP1 POP PUSH2 0x483B PUSH0 DUP4 ADD DUP7 PUSH2 0x3A5E JUMP JUMPDEST PUSH2 0x4848 PUSH1 0x20 DUP4 ADD DUP6 PUSH2 0x3A5E JUMP JUMPDEST PUSH2 0x4855 PUSH1 0x40 DUP4 ADD DUP5 PUSH2 0x3A5E JUMP JUMPDEST SWAP5 SWAP4 POP POP POP POP JUMP JUMPDEST PUSH32 0x5061757361626C653A206E6F7420706175736564000000000000000000000000 PUSH0 DUP3 ADD MSTORE POP JUMP JUMPDEST PUSH0 PUSH2 0x4891 PUSH1 0x14 DUP4 PUSH2 0x372A JUMP JUMPDEST SWAP2 POP PUSH2 0x489C DUP3 PUSH2 0x485D JUMP JUMPDEST PUSH1 0x20 DUP3 ADD SWAP1 POP SWAP2 SWAP1 POP JUMP JUMPDEST PUSH0 PUSH1 0x20 DUP3 ADD SWAP1 POP DUP2 DUP2 SUB PUSH0 DUP4 ADD MSTORE PUSH2 0x48BE DUP2 PUSH2 0x4885 JUMP JUMPDEST SWAP1 POP SWAP2 SWAP1 POP JUMP INVALID LOG2 PUSH5 0x6970667358 0x22 SLT KECCAK256 SUB SWAP11 OR 0xC0 0xEB 0xB0 CREATE SWAP13 CODESIZE CALLDATACOPY 0xD6 0xBF 0xD7 DUP5 CODECOPY PUSH9 0xF1541A8D63BC2784F1 PUSH20 0x950574C7BEC164736F6C63430008140033000000 "},"gasEstimates":{"creation":{"codeDepositCost":"3736600","executionCost":"infinite","totalCost":"infinite"},"external":{"acceptOwnership()":"54738","createOrder(address,uint256,uint96,address,uint256,address,string)":"infinite","getOrderInfo(bytes32)":"infinite","getTokenFeeSettings(address)":"infinite","initialize()":"191231","isTokenSupported(address)":"2914","owner()":"2537","pause()":"infinite","paused()":"2541","pendingOwner()":"2603","refund(uint256,bytes32)":"infinite","renounceOwnership()":"54750","setTokenFeeSettings(address,uint256,uint256,uint256,uint256)":"infinite","settingManagerBool(bytes32,address,uint256)":"infinite","settle(bytes32,bytes32,address,uint64,uint64)":"infinite","transferOwnership(address)":"infinite","unpause()":"infinite","updateProtocolAddress(bytes32,address)":"31104"},"internal":{"_handleFxTransferFeeSplitting(bytes32)":"infinite","_handleLocalTransferFeeSplitting(bytes32,address,uint64)":"infinite","_handler(address,uint256,address,address,uint256)":"infinite"}},"methodIdentifiers":{"acceptOwnership()":"79ba5097","createOrder(address,uint256,uint96,address,uint256,address,string)":"809804f7","getOrderInfo(bytes32)":"768c6ec0","getTokenFeeSettings(address)":"8bfa0549","initialize()":"8129fc1c","isTokenSupported(address)":"75151b63","owner()":"8da5cb5b","pause()":"8456cb59","paused()":"5c975abb","pendingOwner()":"e30c3978","refund(uint256,bytes32)":"71eedb88","renounceOwnership()":"715018a6","setTokenFeeSettings(address,uint256,uint256,uint256,uint256)":"898861b0","settingManagerBool(bytes32,address,uint256)":"cd992400","settle(bytes32,bytes32,address,uint64,uint64)":"df51b359","transferOwnership(address)":"f2fde38b","unpause()":"3f4ba83a","updateProtocolAddress(bytes32,address)":"40ebc677"}},"storageLayout":{"storage":[{"astId":246,"contract":"contracts/Gateway.sol:Gateway","label":"_initialized","offset":0,"slot":"0","type":"t_uint8"},{"astId":249,"contract":"contracts/Gateway.sol:Gateway","label":"_initializing","offset":1,"slot":"0","type":"t_bool"},{"astId":916,"contract":"contracts/Gateway.sol:Gateway","label":"__gap","offset":0,"slot":"1","type":"t_array(t_uint256)50_storage"},{"astId":118,"contract":"contracts/Gateway.sol:Gateway","label":"_owner","offset":0,"slot":"51","type":"t_address"},{"astId":238,"contract":"contracts/Gateway.sol:Gateway","label":"__gap","offset":0,"slot":"52","type":"t_array(t_uint256)49_storage"},{"astId":11,"contract":"contracts/Gateway.sol:Gateway","label":"_pendingOwner","offset":0,"slot":"101","type":"t_address"},{"astId":105,"contract":"contracts/Gateway.sol:Gateway","label":"__gap","offset":0,"slot":"102","type":"t_array(t_uint256)49_storage"},{"astId":1913,"contract":"contracts/Gateway.sol:Gateway","label":"MAX_BPS","offset":0,"slot":"151","type":"t_uint256"},{"astId":1915,"contract":"contracts/Gateway.sol:Gateway","label":"protocolFeePercent","offset":0,"slot":"152","type":"t_uint64"},{"astId":1917,"contract":"contracts/Gateway.sol:Gateway","label":"treasuryAddress","offset":8,"slot":"152","type":"t_address"},{"astId":1919,"contract":"contracts/Gateway.sol:Gateway","label":"_aggregatorAddress","offset":0,"slot":"153","type":"t_address"},{"astId":1923,"contract":"contracts/Gateway.sol:Gateway","label":"_isTokenSupported","offset":0,"slot":"154","type":"t_mapping(t_address,t_uint256)"},{"astId":1937,"contract":"contracts/Gateway.sol:Gateway","label":"_tokenFeeSettings","offset":0,"slot":"155","type":"t_mapping(t_address,t_struct(TokenFeeSettings)1932_storage)"},{"astId":1941,"contract":"contracts/Gateway.sol:Gateway","label":"__gap","offset":0,"slot":"156","type":"t_array(t_uint256)49_storage"},{"astId":430,"contract":"contracts/Gateway.sol:Gateway","label":"_paused","offset":0,"slot":"205","type":"t_bool"},{"astId":535,"contract":"contracts/Gateway.sol:Gateway","label":"__gap","offset":0,"slot":"206","type":"t_array(t_uint256)49_storage"},{"astId":1020,"contract":"contracts/Gateway.sol:Gateway","label":"order","offset":0,"slot":"255","type":"t_mapping(t_bytes32,t_struct(Order)2273_storage)"},{"astId":1024,"contract":"contracts/Gateway.sol:Gateway","label":"_nonce","offset":0,"slot":"256","type":"t_mapping(t_address,t_uint256)"},{"astId":1028,"contract":"contracts/Gateway.sol:Gateway","label":"__gap","offset":0,"slot":"257","type":"t_array(t_uint256)50_storage"}],"types":{"t_address":{"encoding":"inplace","label":"address","numberOfBytes":"20"},"t_array(t_uint256)49_storage":{"base":"t_uint256","encoding":"inplace","label":"uint256[49]","numberOfBytes":"1568"},"t_array(t_uint256)50_storage":{"base":"t_uint256","encoding":"inplace","label":"uint256[50]","numberOfBytes":"1600"},"t_bool":{"encoding":"inplace","label":"bool","numberOfBytes":"1"},"t_bytes32":{"encoding":"inplace","label":"bytes32","numberOfBytes":"32"},"t_mapping(t_address,t_struct(TokenFeeSettings)1932_storage)":{"encoding":"mapping","key":"t_address","label":"mapping(address => struct GatewaySettingManager.TokenFeeSettings)","numberOfBytes":"32","value":"t_struct(TokenFeeSettings)1932_storage"},"t_mapping(t_address,t_uint256)":{"encoding":"mapping","key":"t_address","label":"mapping(address => uint256)","numberOfBytes":"32","value":"t_uint256"},"t_mapping(t_bytes32,t_struct(Order)2273_storage)":{"encoding":"mapping","key":"t_bytes32","label":"mapping(bytes32 => struct IGateway.Order)","numberOfBytes":"32","value":"t_struct(Order)2273_storage"},"t_struct(Order)2273_storage":{"encoding":"inplace","label":"struct IGateway.Order","members":[{"astId":2254,"contract":"contracts/Gateway.sol:Gateway","label":"sender","offset":0,"slot":"0","type":"t_address"},{"astId":2256,"contract":"contracts/Gateway.sol:Gateway","label":"token","offset":0,"slot":"1","type":"t_address"},{"astId":2258,"contract":"contracts/Gateway.sol:Gateway","label":"senderFeeRecipient","offset":0,"slot":"2","type":"t_address"},{"astId":2260,"contract":"contracts/Gateway.sol:Gateway","label":"senderFee","offset":0,"slot":"3","type":"t_uint256"},{"astId":2262,"contract":"contracts/Gateway.sol:Gateway","label":"protocolFee","offset":0,"slot":"4","type":"t_uint256"},{"astId":2264,"contract":"contracts/Gateway.sol:Gateway","label":"isFulfilled","offset":0,"slot":"5","type":"t_bool"},{"astId":2266,"contract":"contracts/Gateway.sol:Gateway","label":"isRefunded","offset":1,"slot":"5","type":"t_bool"},{"astId":2268,"contract":"contracts/Gateway.sol:Gateway","label":"refundAddress","offset":2,"slot":"5","type":"t_address"},{"astId":2270,"contract":"contracts/Gateway.sol:Gateway","label":"currentBPS","offset":0,"slot":"6","type":"t_uint96"},{"astId":2272,"contract":"contracts/Gateway.sol:Gateway","label":"amount","offset":0,"slot":"7","type":"t_uint256"}],"numberOfBytes":"256"},"t_struct(TokenFeeSettings)1932_storage":{"encoding":"inplace","label":"struct GatewaySettingManager.TokenFeeSettings","members":[{"astId":1925,"contract":"contracts/Gateway.sol:Gateway","label":"senderToProvider","offset":0,"slot":"0","type":"t_uint256"},{"astId":1927,"contract":"contracts/Gateway.sol:Gateway","label":"providerToAggregator","offset":0,"slot":"1","type":"t_uint256"},{"astId":1929,"contract":"contracts/Gateway.sol:Gateway","label":"senderToAggregator","offset":0,"slot":"2","type":"t_uint256"},{"astId":1931,"contract":"contracts/Gateway.sol:Gateway","label":"providerToAggregatorFx","offset":0,"slot":"3","type":"t_uint256"}],"numberOfBytes":"128"},"t_uint256":{"encoding":"inplace","label":"uint256","numberOfBytes":"32"},"t_uint64":{"encoding":"inplace","label":"uint64","numberOfBytes":"8"},"t_uint8":{"encoding":"inplace","label":"uint8","numberOfBytes":"1"},"t_uint96":{"encoding":"inplace","label":"uint96","numberOfBytes":"12"}}},"userdoc":{"kind":"user","methods":{},"notice":"This contract serves as a gateway for creating orders and managing settlements.","version":1}}}}