{"contracts/PaycrestSettingManager.sol":{"PaycrestSettingManager":{"abi":[{"anonymous":false,"inputs":[{"indexed":false,"internalType":"uint8","name":"version","type":"uint8"}],"name":"Initialized","type":"event"},{"anonymous":false,"inputs":[{"indexed":true,"internalType":"address","name":"previousOwner","type":"address"},{"indexed":true,"internalType":"address","name":"newOwner","type":"address"}],"name":"OwnershipTransferred","type":"event"},{"anonymous":false,"inputs":[{"indexed":false,"internalType":"uint128","name":"protocolFee","type":"uint128"},{"indexed":false,"internalType":"uint128","name":"validatorFeePercent","type":"uint128"}],"name":"PaycrestFees","type":"event"},{"anonymous":false,"inputs":[{"indexed":false,"internalType":"bytes","name":"aggregator","type":"bytes"}],"name":"SetAggregator","type":"event"},{"anonymous":false,"inputs":[{"indexed":false,"internalType":"address","name":"feeRecipient","type":"address"}],"name":"SetFeeRecipient","type":"event"},{"anonymous":false,"inputs":[{"indexed":false,"internalType":"bytes32","name":"what","type":"bytes32"},{"indexed":false,"internalType":"address","name":"value","type":"address"},{"indexed":false,"internalType":"bool","name":"status","type":"bool"}],"name":"SettingManagerBool","type":"event"},{"inputs":[],"name":"owner","outputs":[{"internalType":"address","name":"","type":"address"}],"stateMutability":"view","type":"function"},{"inputs":[],"name":"renounceOwnership","outputs":[],"stateMutability":"nonpayable","type":"function"},{"inputs":[{"internalType":"bytes32","name":"currency","type":"bytes32"},{"components":[{"internalType":"bytes32","name":"code","type":"bytes32"},{"internalType":"bytes32","name":"name","type":"bytes32"}],"internalType":"struct PaycrestSettingManager.Institution[]","name":"institutions","type":"tuple[]"}],"name":"setSupportedInstitutions","outputs":[],"stateMutability":"nonpayable","type":"function"},{"inputs":[{"internalType":"bytes32","name":"what","type":"bytes32"},{"internalType":"address","name":"value","type":"address"},{"internalType":"bool","name":"status","type":"bool"}],"name":"settingManagerBool","outputs":[],"stateMutability":"nonpayable","type":"function"},{"inputs":[{"internalType":"address","name":"newOwner","type":"address"}],"name":"transferOwnership","outputs":[],"stateMutability":"nonpayable","type":"function"},{"inputs":[{"internalType":"bytes32","name":"what","type":"bytes32"},{"internalType":"address","name":"value","type":"address"}],"name":"updateProtocolAddresses","outputs":[],"stateMutability":"nonpayable","type":"function"},{"inputs":[{"internalType":"bytes","name":"aggregator","type":"bytes"}],"name":"updateProtocolAggregator","outputs":[],"stateMutability":"nonpayable","type":"function"},{"inputs":[{"internalType":"uint128","name":"_protocolFeePercent","type":"uint128"},{"internalType":"uint128","name":"_validatorFeePercent","type":"uint128"}],"name":"updateProtocolFees","outputs":[],"stateMutability":"nonpayable","type":"function"}],"devdoc":{"events":{"Initialized(uint8)":{"details":"Triggered when the contract has been initialized or reinitialized."}},"kind":"dev","methods":{"owner()":{"details":"Returns the address of the current owner."},"renounceOwnership()":{"details":"Leaves the contract without owner. It will not be possible to call `onlyOwner` functions. Can only be called by the current owner. NOTE: Renouncing ownership will leave the contract without an owner, thereby disabling any functionality that is only available to the owner."},"transferOwnership(address)":{"details":"Transfers ownership of the contract to a new account (`newOwner`). Can only be called by the current owner."}},"version":1},"evm":{"bytecode":{"linkReferences":{},"object":"608060405234801561001057600080fd5b50611361806100206000396000f3fe608060405234801561001057600080fd5b50600436106100885760003560e01c806399e3c0b41161005b57806399e3c0b4146100ed578063cb79455b14610109578063f2fde38b14610125578063f5326b191461014157610088565b8063322008821461008d578063715018a6146100a957806379a0effb146100b35780638da5cb5b146100cf575b600080fd5b6100a760048036038101906100a29190610a86565b61015d565b005b6100b1610271565b005b6100cd60048036038101906100c89190610b40565b610285565b005b6100d76103d2565b6040516100e49190610b8f565b60405180910390f35b61010760048036038101906101029190610be2565b6103fc565b005b610123600480360381019061011e9190610c90565b6105b1565b005b61013f600480360381019061013a9190610cdd565b610608565b005b61015b60048036038101906101569190610d52565b61068b565b005b610165610742565b60008151905060005b8181101561026b57609e600085815260200190815260200160002083828151811061019c5761019b610d92565b5b6020026020010151908060018154018082558091505060019003906000526020600020906002020160009091909190915060008201518160000155602082015181600101555050604051806040016040528084838151811061020157610200610d92565b5b602002602001015160200151815260200185815250609f600085848151811061022d5761022c610d92565b5b60200260200101516000015181526020019081526020016000206000820151816000015560208201518160010155905050808060010191505061016e565b50505050565b610279610742565b61028360006107c0565b565b61028d610742565b600073ffffffffffffffffffffffffffffffffffffffff168173ffffffffffffffffffffffffffffffffffffffff16036102fc576040517f08c379a00000000000000000000000000000000000000000000000000000000081526004016102f390610e1e565b60405180910390fd5b7f666565000000000000000000000000000000000000000000000000000000000082036103655780606760006101000a81548173ffffffffffffffffffffffffffffffffffffffff021916908373ffffffffffffffffffffffffffffffffffffffff1602179055505b7f61676772656761746f720000000000000000000000000000000000000000000082036103ce5780606860006101000a81548173ffffffffffffffffffffffffffffffffffffffff021916908373ffffffffffffffffffffffffffffffffffffffff1602179055505b5050565b6000603360009054906101000a900473ffffffffffffffffffffffffffffffffffffffff16905090565b610404610742565b600073ffffffffffffffffffffffffffffffffffffffff168273ffffffffffffffffffffffffffffffffffffffff1603610473576040517f08c379a000000000000000000000000000000000000000000000000000000000815260040161046a90610e1e565b60405180910390fd5b7f746f6b656e00000000000000000000000000000000000000000000000000000083036104f25780609c60008473ffffffffffffffffffffffffffffffffffffffff1673ffffffffffffffffffffffffffffffffffffffff16815260200190815260200160002060006101000a81548160ff0219169083151502179055505b7f77686974656c697374000000000000000000000000000000000000000000000083036105715780609d60008473ffffffffffffffffffffffffffffffffffffffff1673ffffffffffffffffffffffffffffffffffffffff16815260200190815260200160002060006101000a81548160ff0219169083151502179055505b7fe22cadcc5ddbc0a185e8920eaa6825bcc06dcd6b432988e7e9912caa59ace9308383836040516105a493929190610e5c565b60405180910390a1505050565b6105b9610742565b8181606991826105ca9291906110b4565b507f6a6600b7242975868d8321b5e64d0c9f2fcc92eb1af72254a6357be77ee7dcef82826040516105fc9291906111d1565b60405180910390a15050565b610610610742565b600073ffffffffffffffffffffffffffffffffffffffff168173ffffffffffffffffffffffffffffffffffffffff160361067f576040517f08c379a000000000000000000000000000000000000000000000000000000000815260040161067690611267565b60405180910390fd5b610688816107c0565b50565b610693610742565b81606660006101000a8154816fffffffffffffffffffffffffffffffff02191690836fffffffffffffffffffffffffffffffff16021790555080606660106101000a8154816fffffffffffffffffffffffffffffffff02191690836fffffffffffffffffffffffffffffffff1602179055507fe38926c5806b98a6fd00c5d791a36fbd196537fe48d11c45c9f1d0acd1ea74df8282604051610736929190611296565b60405180910390a15050565b61074a610886565b73ffffffffffffffffffffffffffffffffffffffff166107686103d2565b73ffffffffffffffffffffffffffffffffffffffff16146107be576040517f08c379a00000000000000000000000000000000000000000000000000000000081526004016107b59061130b565b60405180910390fd5b565b6000603360009054906101000a900473ffffffffffffffffffffffffffffffffffffffff16905081603360006101000a81548173ffffffffffffffffffffffffffffffffffffffff021916908373ffffffffffffffffffffffffffffffffffffffff1602179055508173ffffffffffffffffffffffffffffffffffffffff168173ffffffffffffffffffffffffffffffffffffffff167f8be0079c531659141344cd1fd0a4f28419497f9722a3daafe3b4186f6b6457e060405160405180910390a35050565b600033905090565b6000604051905090565b600080fd5b600080fd5b6000819050919050565b6108b5816108a2565b81146108c057600080fd5b50565b6000813590506108d2816108ac565b92915050565b600080fd5b6000601f19601f8301169050919050565b7f4e487b7100000000000000000000000000000000000000000000000000000000600052604160045260246000fd5b610926826108dd565b810181811067ffffffffffffffff82111715610945576109446108ee565b5b80604052505050565b600061095861088e565b9050610964828261091d565b919050565b600067ffffffffffffffff821115610984576109836108ee565b5b602082029050602081019050919050565b600080fd5b600080fd5b6000604082840312156109b5576109b461099a565b5b6109bf604061094e565b905060006109cf848285016108c3565b60008301525060206109e3848285016108c3565b60208301525092915050565b6000610a026109fd84610969565b61094e565b90508083825260208201905060408402830185811115610a2557610a24610995565b5b835b81811015610a4e5780610a3a888261099f565b845260208401935050604081019050610a27565b5050509392505050565b600082601f830112610a6d57610a6c6108d8565b5b8135610a7d8482602086016109ef565b91505092915050565b60008060408385031215610a9d57610a9c610898565b5b6000610aab858286016108c3565b925050602083013567ffffffffffffffff811115610acc57610acb61089d565b5b610ad885828601610a58565b9150509250929050565b600073ffffffffffffffffffffffffffffffffffffffff82169050919050565b6000610b0d82610ae2565b9050919050565b610b1d81610b02565b8114610b2857600080fd5b50565b600081359050610b3a81610b14565b92915050565b60008060408385031215610b5757610b56610898565b5b6000610b65858286016108c3565b9250506020610b7685828601610b2b565b9150509250929050565b610b8981610b02565b82525050565b6000602082019050610ba46000830184610b80565b92915050565b60008115159050919050565b610bbf81610baa565b8114610bca57600080fd5b50565b600081359050610bdc81610bb6565b92915050565b600080600060608486031215610bfb57610bfa610898565b5b6000610c09868287016108c3565b9350506020610c1a86828701610b2b565b9250506040610c2b86828701610bcd565b9150509250925092565b600080fd5b60008083601f840112610c5057610c4f6108d8565b5b8235905067ffffffffffffffff811115610c6d57610c6c610c35565b5b602083019150836001820283011115610c8957610c88610995565b5b9250929050565b60008060208385031215610ca757610ca6610898565b5b600083013567ffffffffffffffff811115610cc557610cc461089d565b5b610cd185828601610c3a565b92509250509250929050565b600060208284031215610cf357610cf2610898565b5b6000610d0184828501610b2b565b91505092915050565b60006fffffffffffffffffffffffffffffffff82169050919050565b610d2f81610d0a565b8114610d3a57600080fd5b50565b600081359050610d4c81610d26565b92915050565b60008060408385031215610d6957610d68610898565b5b6000610d7785828601610d3d565b9250506020610d8885828601610d3d565b9150509250929050565b7f4e487b7100000000000000000000000000000000000000000000000000000000600052603260045260246000fd5b600082825260208201905092915050565b7f50617963726573743a207a65726f206164647265737300000000000000000000600082015250565b6000610e08601683610dc1565b9150610e1382610dd2565b602082019050919050565b60006020820190508181036000830152610e3781610dfb565b9050919050565b610e47816108a2565b82525050565b610e5681610baa565b82525050565b6000606082019050610e716000830186610e3e565b610e7e6020830185610b80565b610e8b6040830184610e4d565b949350505050565b600082905092915050565b7f4e487b7100000000000000000000000000000000000000000000000000000000600052602260045260246000fd5b60006002820490506001821680610ee557607f821691505b602082108103610ef857610ef7610e9e565b5b50919050565b60008190508160005260206000209050919050565b60006020601f8301049050919050565b600082821b905092915050565b600060088302610f607fffffffffffffffffffffffffffffffffffffffffffffffffffffffffffffffff82610f23565b610f6a8683610f23565b95508019841693508086168417925050509392505050565b6000819050919050565b6000819050919050565b6000610fb1610fac610fa784610f82565b610f8c565b610f82565b9050919050565b6000819050919050565b610fcb83610f96565b610fdf610fd782610fb8565b848454610f30565b825550505050565b600090565b610ff4610fe7565b610fff818484610fc2565b505050565b5b8181101561102357611018600082610fec565b600181019050611005565b5050565b601f8211156110685761103981610efe565b61104284610f13565b81016020851015611051578190505b61106561105d85610f13565b830182611004565b50505b505050565b600082821c905092915050565b600061108b6000198460080261106d565b1980831691505092915050565b60006110a4838361107a565b9150826002028217905092915050565b6110be8383610e93565b67ffffffffffffffff8111156110d7576110d66108ee565b5b6110e18254610ecd565b6110ec828285611027565b6000601f83116001811461111b5760008415611109578287013590505b6111138582611098565b86555061117b565b601f19841661112986610efe565b60005b828110156111515784890135825560018201915060208501945060208101905061112c565b8683101561116e578489013561116a601f89168261107a565b8355505b6001600288020188555050505b50505050505050565b600082825260208201905092915050565b82818337600083830152505050565b60006111b08385611184565b93506111bd838584611195565b6111c6836108dd565b840190509392505050565b600060208201905081810360008301526111ec8184866111a4565b90509392505050565b7f4f776e61626c653a206e6577206f776e657220697320746865207a65726f206160008201527f6464726573730000000000000000000000000000000000000000000000000000602082015250565b6000611251602683610dc1565b915061125c826111f5565b604082019050919050565b6000602082019050818103600083015261128081611244565b9050919050565b61129081610d0a565b82525050565b60006040820190506112ab6000830185611287565b6112b86020830184611287565b9392505050565b7f4f776e61626c653a2063616c6c6572206973206e6f7420746865206f776e6572600082015250565b60006112f5602083610dc1565b9150611300826112bf565b602082019050919050565b60006020820190508181036000830152611324816112e8565b905091905056fea2646970667358221220519d0c70788b99a2d1848dfa65b13d3a2ef8458e73293529a114706c7123d96664736f6c63430008120033","opcodes":"PUSH1 0x80 PUSH1 0x40 MSTORE CALLVALUE DUP1 ISZERO PUSH2 0x10 JUMPI PUSH1 0x0 DUP1 REVERT JUMPDEST POP PUSH2 0x1361 DUP1 PUSH2 0x20 PUSH1 0x0 CODECOPY PUSH1 0x0 RETURN INVALID PUSH1 0x80 PUSH1 0x40 MSTORE CALLVALUE DUP1 ISZERO PUSH2 0x10 JUMPI PUSH1 0x0 DUP1 REVERT JUMPDEST POP PUSH1 0x4 CALLDATASIZE LT PUSH2 0x88 JUMPI PUSH1 0x0 CALLDATALOAD PUSH1 0xE0 SHR DUP1 PUSH4 0x99E3C0B4 GT PUSH2 0x5B JUMPI DUP1 PUSH4 0x99E3C0B4 EQ PUSH2 0xED JUMPI DUP1 PUSH4 0xCB79455B EQ PUSH2 0x109 JUMPI DUP1 PUSH4 0xF2FDE38B EQ PUSH2 0x125 JUMPI DUP1 PUSH4 0xF5326B19 EQ PUSH2 0x141 JUMPI PUSH2 0x88 JUMP JUMPDEST DUP1 PUSH4 0x32200882 EQ PUSH2 0x8D JUMPI DUP1 PUSH4 0x715018A6 EQ PUSH2 0xA9 JUMPI DUP1 PUSH4 0x79A0EFFB EQ PUSH2 0xB3 JUMPI DUP1 PUSH4 0x8DA5CB5B EQ PUSH2 0xCF JUMPI JUMPDEST PUSH1 0x0 DUP1 REVERT JUMPDEST PUSH2 0xA7 PUSH1 0x4 DUP1 CALLDATASIZE SUB DUP2 ADD SWAP1 PUSH2 0xA2 SWAP2 SWAP1 PUSH2 0xA86 JUMP JUMPDEST PUSH2 0x15D JUMP JUMPDEST STOP JUMPDEST PUSH2 0xB1 PUSH2 0x271 JUMP JUMPDEST STOP JUMPDEST PUSH2 0xCD PUSH1 0x4 DUP1 CALLDATASIZE SUB DUP2 ADD SWAP1 PUSH2 0xC8 SWAP2 SWAP1 PUSH2 0xB40 JUMP JUMPDEST PUSH2 0x285 JUMP JUMPDEST STOP JUMPDEST PUSH2 0xD7 PUSH2 0x3D2 JUMP JUMPDEST PUSH1 0x40 MLOAD PUSH2 0xE4 SWAP2 SWAP1 PUSH2 0xB8F JUMP JUMPDEST PUSH1 0x40 MLOAD DUP1 SWAP2 SUB SWAP1 RETURN JUMPDEST PUSH2 0x107 PUSH1 0x4 DUP1 CALLDATASIZE SUB DUP2 ADD SWAP1 PUSH2 0x102 SWAP2 SWAP1 PUSH2 0xBE2 JUMP JUMPDEST PUSH2 0x3FC JUMP JUMPDEST STOP JUMPDEST PUSH2 0x123 PUSH1 0x4 DUP1 CALLDATASIZE SUB DUP2 ADD SWAP1 PUSH2 0x11E SWAP2 SWAP1 PUSH2 0xC90 JUMP JUMPDEST PUSH2 0x5B1 JUMP JUMPDEST STOP JUMPDEST PUSH2 0x13F PUSH1 0x4 DUP1 CALLDATASIZE SUB DUP2 ADD SWAP1 PUSH2 0x13A SWAP2 SWAP1 PUSH2 0xCDD JUMP JUMPDEST PUSH2 0x608 JUMP JUMPDEST STOP JUMPDEST PUSH2 0x15B PUSH1 0x4 DUP1 CALLDATASIZE SUB DUP2 ADD SWAP1 PUSH2 0x156 SWAP2 SWAP1 PUSH2 0xD52 JUMP JUMPDEST PUSH2 0x68B JUMP JUMPDEST STOP JUMPDEST PUSH2 0x165 PUSH2 0x742 JUMP JUMPDEST PUSH1 0x0 DUP2 MLOAD SWAP1 POP PUSH1 0x0 JUMPDEST DUP2 DUP2 LT ISZERO PUSH2 0x26B JUMPI PUSH1 0x9E PUSH1 0x0 DUP6 DUP2 MSTORE PUSH1 0x20 ADD SWAP1 DUP2 MSTORE PUSH1 0x20 ADD PUSH1 0x0 KECCAK256 DUP4 DUP3 DUP2 MLOAD DUP2 LT PUSH2 0x19C JUMPI PUSH2 0x19B PUSH2 0xD92 JUMP JUMPDEST JUMPDEST PUSH1 0x20 MUL PUSH1 0x20 ADD ADD MLOAD SWAP1 DUP1 PUSH1 0x1 DUP2 SLOAD ADD DUP1 DUP3 SSTORE DUP1 SWAP2 POP POP PUSH1 0x1 SWAP1 SUB SWAP1 PUSH1 0x0 MSTORE PUSH1 0x20 PUSH1 0x0 KECCAK256 SWAP1 PUSH1 0x2 MUL ADD PUSH1 0x0 SWAP1 SWAP2 SWAP1 SWAP2 SWAP1 SWAP2 POP PUSH1 0x0 DUP3 ADD MLOAD DUP2 PUSH1 0x0 ADD SSTORE PUSH1 0x20 DUP3 ADD MLOAD DUP2 PUSH1 0x1 ADD SSTORE POP POP PUSH1 0x40 MLOAD DUP1 PUSH1 0x40 ADD PUSH1 0x40 MSTORE DUP1 DUP5 DUP4 DUP2 MLOAD DUP2 LT PUSH2 0x201 JUMPI PUSH2 0x200 PUSH2 0xD92 JUMP JUMPDEST JUMPDEST PUSH1 0x20 MUL PUSH1 0x20 ADD ADD MLOAD PUSH1 0x20 ADD MLOAD DUP2 MSTORE PUSH1 0x20 ADD DUP6 DUP2 MSTORE POP PUSH1 0x9F PUSH1 0x0 DUP6 DUP5 DUP2 MLOAD DUP2 LT PUSH2 0x22D JUMPI PUSH2 0x22C PUSH2 0xD92 JUMP JUMPDEST JUMPDEST PUSH1 0x20 MUL PUSH1 0x20 ADD ADD MLOAD PUSH1 0x0 ADD MLOAD DUP2 MSTORE PUSH1 0x20 ADD SWAP1 DUP2 MSTORE PUSH1 0x20 ADD PUSH1 0x0 KECCAK256 PUSH1 0x0 DUP3 ADD MLOAD DUP2 PUSH1 0x0 ADD SSTORE PUSH1 0x20 DUP3 ADD MLOAD DUP2 PUSH1 0x1 ADD SSTORE SWAP1 POP POP DUP1 DUP1 PUSH1 0x1 ADD SWAP2 POP POP PUSH2 0x16E JUMP JUMPDEST POP POP POP POP JUMP JUMPDEST PUSH2 0x279 PUSH2 0x742 JUMP JUMPDEST PUSH2 0x283 PUSH1 0x0 PUSH2 0x7C0 JUMP JUMPDEST JUMP JUMPDEST PUSH2 0x28D PUSH2 0x742 JUMP JUMPDEST PUSH1 0x0 PUSH20 0xFFFFFFFFFFFFFFFFFFFFFFFFFFFFFFFFFFFFFFFF AND DUP2 PUSH20 0xFFFFFFFFFFFFFFFFFFFFFFFFFFFFFFFFFFFFFFFF AND SUB PUSH2 0x2FC JUMPI PUSH1 0x40 MLOAD PUSH32 0x8C379A000000000000000000000000000000000000000000000000000000000 DUP2 MSTORE PUSH1 0x4 ADD PUSH2 0x2F3 SWAP1 PUSH2 0xE1E JUMP JUMPDEST PUSH1 0x40 MLOAD DUP1 SWAP2 SUB SWAP1 REVERT JUMPDEST PUSH32 0x6665650000000000000000000000000000000000000000000000000000000000 DUP3 SUB PUSH2 0x365 JUMPI DUP1 PUSH1 0x67 PUSH1 0x0 PUSH2 0x100 EXP DUP2 SLOAD DUP2 PUSH20 0xFFFFFFFFFFFFFFFFFFFFFFFFFFFFFFFFFFFFFFFF MUL NOT AND SWAP1 DUP4 PUSH20 0xFFFFFFFFFFFFFFFFFFFFFFFFFFFFFFFFFFFFFFFF AND MUL OR SWAP1 SSTORE POP JUMPDEST PUSH32 0x61676772656761746F7200000000000000000000000000000000000000000000 DUP3 SUB PUSH2 0x3CE JUMPI DUP1 PUSH1 0x68 PUSH1 0x0 PUSH2 0x100 EXP DUP2 SLOAD DUP2 PUSH20 0xFFFFFFFFFFFFFFFFFFFFFFFFFFFFFFFFFFFFFFFF MUL NOT AND SWAP1 DUP4 PUSH20 0xFFFFFFFFFFFFFFFFFFFFFFFFFFFFFFFFFFFFFFFF AND MUL OR SWAP1 SSTORE POP JUMPDEST POP POP JUMP JUMPDEST PUSH1 0x0 PUSH1 0x33 PUSH1 0x0 SWAP1 SLOAD SWAP1 PUSH2 0x100 EXP SWAP1 DIV PUSH20 0xFFFFFFFFFFFFFFFFFFFFFFFFFFFFFFFFFFFFFFFF AND SWAP1 POP SWAP1 JUMP JUMPDEST PUSH2 0x404 PUSH2 0x742 JUMP JUMPDEST PUSH1 0x0 PUSH20 0xFFFFFFFFFFFFFFFFFFFFFFFFFFFFFFFFFFFFFFFF AND DUP3 PUSH20 0xFFFFFFFFFFFFFFFFFFFFFFFFFFFFFFFFFFFFFFFF AND SUB PUSH2 0x473 JUMPI PUSH1 0x40 MLOAD PUSH32 0x8C379A000000000000000000000000000000000000000000000000000000000 DUP2 MSTORE PUSH1 0x4 ADD PUSH2 0x46A SWAP1 PUSH2 0xE1E JUMP JUMPDEST PUSH1 0x40 MLOAD DUP1 SWAP2 SUB SWAP1 REVERT JUMPDEST PUSH32 0x746F6B656E000000000000000000000000000000000000000000000000000000 DUP4 SUB PUSH2 0x4F2 JUMPI DUP1 PUSH1 0x9C PUSH1 0x0 DUP5 PUSH20 0xFFFFFFFFFFFFFFFFFFFFFFFFFFFFFFFFFFFFFFFF AND PUSH20 0xFFFFFFFFFFFFFFFFFFFFFFFFFFFFFFFFFFFFFFFF AND DUP2 MSTORE PUSH1 0x20 ADD SWAP1 DUP2 MSTORE PUSH1 0x20 ADD PUSH1 0x0 KECCAK256 PUSH1 0x0 PUSH2 0x100 EXP DUP2 SLOAD DUP2 PUSH1 0xFF MUL NOT AND SWAP1 DUP4 ISZERO ISZERO MUL OR SWAP1 SSTORE POP JUMPDEST PUSH32 0x77686974656C6973740000000000000000000000000000000000000000000000 DUP4 SUB PUSH2 0x571 JUMPI DUP1 PUSH1 0x9D PUSH1 0x0 DUP5 PUSH20 0xFFFFFFFFFFFFFFFFFFFFFFFFFFFFFFFFFFFFFFFF AND PUSH20 0xFFFFFFFFFFFFFFFFFFFFFFFFFFFFFFFFFFFFFFFF AND DUP2 MSTORE PUSH1 0x20 ADD SWAP1 DUP2 MSTORE PUSH1 0x20 ADD PUSH1 0x0 KECCAK256 PUSH1 0x0 PUSH2 0x100 EXP DUP2 SLOAD DUP2 PUSH1 0xFF MUL NOT AND SWAP1 DUP4 ISZERO ISZERO MUL OR SWAP1 SSTORE POP JUMPDEST PUSH32 0xE22CADCC5DDBC0A185E8920EAA6825BCC06DCD6B432988E7E9912CAA59ACE930 DUP4 DUP4 DUP4 PUSH1 0x40 MLOAD PUSH2 0x5A4 SWAP4 SWAP3 SWAP2 SWAP1 PUSH2 0xE5C JUMP JUMPDEST PUSH1 0x40 MLOAD DUP1 SWAP2 SUB SWAP1 LOG1 POP POP POP JUMP JUMPDEST PUSH2 0x5B9 PUSH2 0x742 JUMP JUMPDEST DUP2 DUP2 PUSH1 0x69 SWAP2 DUP3 PUSH2 0x5CA SWAP3 SWAP2 SWAP1 PUSH2 0x10B4 JUMP JUMPDEST POP PUSH32 0x6A6600B7242975868D8321B5E64D0C9F2FCC92EB1AF72254A6357BE77EE7DCEF DUP3 DUP3 PUSH1 0x40 MLOAD PUSH2 0x5FC SWAP3 SWAP2 SWAP1 PUSH2 0x11D1 JUMP JUMPDEST PUSH1 0x40 MLOAD DUP1 SWAP2 SUB SWAP1 LOG1 POP POP JUMP JUMPDEST PUSH2 0x610 PUSH2 0x742 JUMP JUMPDEST PUSH1 0x0 PUSH20 0xFFFFFFFFFFFFFFFFFFFFFFFFFFFFFFFFFFFFFFFF AND DUP2 PUSH20 0xFFFFFFFFFFFFFFFFFFFFFFFFFFFFFFFFFFFFFFFF AND SUB PUSH2 0x67F JUMPI PUSH1 0x40 MLOAD PUSH32 0x8C379A000000000000000000000000000000000000000000000000000000000 DUP2 MSTORE PUSH1 0x4 ADD PUSH2 0x676 SWAP1 PUSH2 0x1267 JUMP JUMPDEST PUSH1 0x40 MLOAD DUP1 SWAP2 SUB SWAP1 REVERT JUMPDEST PUSH2 0x688 DUP2 PUSH2 0x7C0 JUMP JUMPDEST POP JUMP JUMPDEST PUSH2 0x693 PUSH2 0x742 JUMP JUMPDEST DUP2 PUSH1 0x66 PUSH1 0x0 PUSH2 0x100 EXP DUP2 SLOAD DUP2 PUSH16 0xFFFFFFFFFFFFFFFFFFFFFFFFFFFFFFFF MUL NOT AND SWAP1 DUP4 PUSH16 0xFFFFFFFFFFFFFFFFFFFFFFFFFFFFFFFF AND MUL OR SWAP1 SSTORE POP DUP1 PUSH1 0x66 PUSH1 0x10 PUSH2 0x100 EXP DUP2 SLOAD DUP2 PUSH16 0xFFFFFFFFFFFFFFFFFFFFFFFFFFFFFFFF MUL NOT AND SWAP1 DUP4 PUSH16 0xFFFFFFFFFFFFFFFFFFFFFFFFFFFFFFFF AND MUL OR SWAP1 SSTORE POP PUSH32 0xE38926C5806B98A6FD00C5D791A36FBD196537FE48D11C45C9F1D0ACD1EA74DF DUP3 DUP3 PUSH1 0x40 MLOAD PUSH2 0x736 SWAP3 SWAP2 SWAP1 PUSH2 0x1296 JUMP JUMPDEST PUSH1 0x40 MLOAD DUP1 SWAP2 SUB SWAP1 LOG1 POP POP JUMP JUMPDEST PUSH2 0x74A PUSH2 0x886 JUMP JUMPDEST PUSH20 0xFFFFFFFFFFFFFFFFFFFFFFFFFFFFFFFFFFFFFFFF AND PUSH2 0x768 PUSH2 0x3D2 JUMP JUMPDEST PUSH20 0xFFFFFFFFFFFFFFFFFFFFFFFFFFFFFFFFFFFFFFFF AND EQ PUSH2 0x7BE JUMPI PUSH1 0x40 MLOAD PUSH32 0x8C379A000000000000000000000000000000000000000000000000000000000 DUP2 MSTORE PUSH1 0x4 ADD PUSH2 0x7B5 SWAP1 PUSH2 0x130B JUMP JUMPDEST PUSH1 0x40 MLOAD DUP1 SWAP2 SUB SWAP1 REVERT JUMPDEST JUMP JUMPDEST PUSH1 0x0 PUSH1 0x33 PUSH1 0x0 SWAP1 SLOAD SWAP1 PUSH2 0x100 EXP SWAP1 DIV PUSH20 0xFFFFFFFFFFFFFFFFFFFFFFFFFFFFFFFFFFFFFFFF AND SWAP1 POP DUP2 PUSH1 0x33 PUSH1 0x0 PUSH2 0x100 EXP DUP2 SLOAD DUP2 PUSH20 0xFFFFFFFFFFFFFFFFFFFFFFFFFFFFFFFFFFFFFFFF MUL NOT AND SWAP1 DUP4 PUSH20 0xFFFFFFFFFFFFFFFFFFFFFFFFFFFFFFFFFFFFFFFF AND MUL OR SWAP1 SSTORE POP DUP2 PUSH20 0xFFFFFFFFFFFFFFFFFFFFFFFFFFFFFFFFFFFFFFFF AND DUP2 PUSH20 0xFFFFFFFFFFFFFFFFFFFFFFFFFFFFFFFFFFFFFFFF AND PUSH32 0x8BE0079C531659141344CD1FD0A4F28419497F9722A3DAAFE3B4186F6B6457E0 PUSH1 0x40 MLOAD PUSH1 0x40 MLOAD DUP1 SWAP2 SUB SWAP1 LOG3 POP POP JUMP JUMPDEST PUSH1 0x0 CALLER SWAP1 POP SWAP1 JUMP JUMPDEST PUSH1 0x0 PUSH1 0x40 MLOAD SWAP1 POP SWAP1 JUMP JUMPDEST PUSH1 0x0 DUP1 REVERT JUMPDEST PUSH1 0x0 DUP1 REVERT JUMPDEST PUSH1 0x0 DUP2 SWAP1 POP SWAP2 SWAP1 POP JUMP JUMPDEST PUSH2 0x8B5 DUP2 PUSH2 0x8A2 JUMP JUMPDEST DUP2 EQ PUSH2 0x8C0 JUMPI PUSH1 0x0 DUP1 REVERT JUMPDEST POP JUMP JUMPDEST PUSH1 0x0 DUP2 CALLDATALOAD SWAP1 POP PUSH2 0x8D2 DUP2 PUSH2 0x8AC JUMP JUMPDEST SWAP3 SWAP2 POP POP JUMP JUMPDEST PUSH1 0x0 DUP1 REVERT JUMPDEST PUSH1 0x0 PUSH1 0x1F NOT PUSH1 0x1F DUP4 ADD AND SWAP1 POP SWAP2 SWAP1 POP JUMP JUMPDEST PUSH32 0x4E487B7100000000000000000000000000000000000000000000000000000000 PUSH1 0x0 MSTORE PUSH1 0x41 PUSH1 0x4 MSTORE PUSH1 0x24 PUSH1 0x0 REVERT JUMPDEST PUSH2 0x926 DUP3 PUSH2 0x8DD JUMP JUMPDEST DUP2 ADD DUP2 DUP2 LT PUSH8 0xFFFFFFFFFFFFFFFF DUP3 GT OR ISZERO PUSH2 0x945 JUMPI PUSH2 0x944 PUSH2 0x8EE JUMP JUMPDEST JUMPDEST DUP1 PUSH1 0x40 MSTORE POP POP POP JUMP JUMPDEST PUSH1 0x0 PUSH2 0x958 PUSH2 0x88E JUMP JUMPDEST SWAP1 POP PUSH2 0x964 DUP3 DUP3 PUSH2 0x91D JUMP JUMPDEST SWAP2 SWAP1 POP JUMP JUMPDEST PUSH1 0x0 PUSH8 0xFFFFFFFFFFFFFFFF DUP3 GT ISZERO PUSH2 0x984 JUMPI PUSH2 0x983 PUSH2 0x8EE JUMP JUMPDEST JUMPDEST PUSH1 0x20 DUP3 MUL SWAP1 POP PUSH1 0x20 DUP2 ADD SWAP1 POP SWAP2 SWAP1 POP JUMP JUMPDEST PUSH1 0x0 DUP1 REVERT JUMPDEST PUSH1 0x0 DUP1 REVERT JUMPDEST PUSH1 0x0 PUSH1 0x40 DUP3 DUP5 SUB SLT ISZERO PUSH2 0x9B5 JUMPI PUSH2 0x9B4 PUSH2 0x99A JUMP JUMPDEST JUMPDEST PUSH2 0x9BF PUSH1 0x40 PUSH2 0x94E JUMP JUMPDEST SWAP1 POP PUSH1 0x0 PUSH2 0x9CF DUP5 DUP3 DUP6 ADD PUSH2 0x8C3 JUMP JUMPDEST PUSH1 0x0 DUP4 ADD MSTORE POP PUSH1 0x20 PUSH2 0x9E3 DUP5 DUP3 DUP6 ADD PUSH2 0x8C3 JUMP JUMPDEST PUSH1 0x20 DUP4 ADD MSTORE POP SWAP3 SWAP2 POP POP JUMP JUMPDEST PUSH1 0x0 PUSH2 0xA02 PUSH2 0x9FD DUP5 PUSH2 0x969 JUMP JUMPDEST PUSH2 0x94E JUMP JUMPDEST SWAP1 POP DUP1 DUP4 DUP3 MSTORE PUSH1 0x20 DUP3 ADD SWAP1 POP PUSH1 0x40 DUP5 MUL DUP4 ADD DUP6 DUP2 GT ISZERO PUSH2 0xA25 JUMPI PUSH2 0xA24 PUSH2 0x995 JUMP JUMPDEST JUMPDEST DUP4 JUMPDEST DUP2 DUP2 LT ISZERO PUSH2 0xA4E JUMPI DUP1 PUSH2 0xA3A DUP9 DUP3 PUSH2 0x99F JUMP JUMPDEST DUP5 MSTORE PUSH1 0x20 DUP5 ADD SWAP4 POP POP PUSH1 0x40 DUP2 ADD SWAP1 POP PUSH2 0xA27 JUMP JUMPDEST POP POP POP SWAP4 SWAP3 POP POP POP JUMP JUMPDEST PUSH1 0x0 DUP3 PUSH1 0x1F DUP4 ADD SLT PUSH2 0xA6D JUMPI PUSH2 0xA6C PUSH2 0x8D8 JUMP JUMPDEST JUMPDEST DUP2 CALLDATALOAD PUSH2 0xA7D DUP5 DUP3 PUSH1 0x20 DUP7 ADD PUSH2 0x9EF JUMP JUMPDEST SWAP2 POP POP SWAP3 SWAP2 POP POP JUMP JUMPDEST PUSH1 0x0 DUP1 PUSH1 0x40 DUP4 DUP6 SUB SLT ISZERO PUSH2 0xA9D JUMPI PUSH2 0xA9C PUSH2 0x898 JUMP JUMPDEST JUMPDEST PUSH1 0x0 PUSH2 0xAAB DUP6 DUP3 DUP7 ADD PUSH2 0x8C3 JUMP JUMPDEST SWAP3 POP POP PUSH1 0x20 DUP4 ADD CALLDATALOAD PUSH8 0xFFFFFFFFFFFFFFFF DUP2 GT ISZERO PUSH2 0xACC JUMPI PUSH2 0xACB PUSH2 0x89D JUMP JUMPDEST JUMPDEST PUSH2 0xAD8 DUP6 DUP3 DUP7 ADD PUSH2 0xA58 JUMP JUMPDEST SWAP2 POP POP SWAP3 POP SWAP3 SWAP1 POP JUMP JUMPDEST PUSH1 0x0 PUSH20 0xFFFFFFFFFFFFFFFFFFFFFFFFFFFFFFFFFFFFFFFF DUP3 AND SWAP1 POP SWAP2 SWAP1 POP JUMP JUMPDEST PUSH1 0x0 PUSH2 0xB0D DUP3 PUSH2 0xAE2 JUMP JUMPDEST SWAP1 POP SWAP2 SWAP1 POP JUMP JUMPDEST PUSH2 0xB1D DUP2 PUSH2 0xB02 JUMP JUMPDEST DUP2 EQ PUSH2 0xB28 JUMPI PUSH1 0x0 DUP1 REVERT JUMPDEST POP JUMP JUMPDEST PUSH1 0x0 DUP2 CALLDATALOAD SWAP1 POP PUSH2 0xB3A DUP2 PUSH2 0xB14 JUMP JUMPDEST SWAP3 SWAP2 POP POP JUMP JUMPDEST PUSH1 0x0 DUP1 PUSH1 0x40 DUP4 DUP6 SUB SLT ISZERO PUSH2 0xB57 JUMPI PUSH2 0xB56 PUSH2 0x898 JUMP JUMPDEST JUMPDEST PUSH1 0x0 PUSH2 0xB65 DUP6 DUP3 DUP7 ADD PUSH2 0x8C3 JUMP JUMPDEST SWAP3 POP POP PUSH1 0x20 PUSH2 0xB76 DUP6 DUP3 DUP7 ADD PUSH2 0xB2B JUMP JUMPDEST SWAP2 POP POP SWAP3 POP SWAP3 SWAP1 POP JUMP JUMPDEST PUSH2 0xB89 DUP2 PUSH2 0xB02 JUMP JUMPDEST DUP3 MSTORE POP POP JUMP JUMPDEST PUSH1 0x0 PUSH1 0x20 DUP3 ADD SWAP1 POP PUSH2 0xBA4 PUSH1 0x0 DUP4 ADD DUP5 PUSH2 0xB80 JUMP JUMPDEST SWAP3 SWAP2 POP POP JUMP JUMPDEST PUSH1 0x0 DUP2 ISZERO ISZERO SWAP1 POP SWAP2 SWAP1 POP JUMP JUMPDEST PUSH2 0xBBF DUP2 PUSH2 0xBAA JUMP JUMPDEST DUP2 EQ PUSH2 0xBCA JUMPI PUSH1 0x0 DUP1 REVERT JUMPDEST POP JUMP JUMPDEST PUSH1 0x0 DUP2 CALLDATALOAD SWAP1 POP PUSH2 0xBDC DUP2 PUSH2 0xBB6 JUMP JUMPDEST SWAP3 SWAP2 POP POP JUMP JUMPDEST PUSH1 0x0 DUP1 PUSH1 0x0 PUSH1 0x60 DUP5 DUP7 SUB SLT ISZERO PUSH2 0xBFB JUMPI PUSH2 0xBFA PUSH2 0x898 JUMP JUMPDEST JUMPDEST PUSH1 0x0 PUSH2 0xC09 DUP7 DUP3 DUP8 ADD PUSH2 0x8C3 JUMP JUMPDEST SWAP4 POP POP PUSH1 0x20 PUSH2 0xC1A DUP7 DUP3 DUP8 ADD PUSH2 0xB2B JUMP JUMPDEST SWAP3 POP POP PUSH1 0x40 PUSH2 0xC2B DUP7 DUP3 DUP8 ADD PUSH2 0xBCD JUMP JUMPDEST SWAP2 POP POP SWAP3 POP SWAP3 POP SWAP3 JUMP JUMPDEST PUSH1 0x0 DUP1 REVERT JUMPDEST PUSH1 0x0 DUP1 DUP4 PUSH1 0x1F DUP5 ADD SLT PUSH2 0xC50 JUMPI PUSH2 0xC4F PUSH2 0x8D8 JUMP JUMPDEST JUMPDEST DUP3 CALLDATALOAD SWAP1 POP PUSH8 0xFFFFFFFFFFFFFFFF DUP2 GT ISZERO PUSH2 0xC6D JUMPI PUSH2 0xC6C PUSH2 0xC35 JUMP JUMPDEST JUMPDEST PUSH1 0x20 DUP4 ADD SWAP2 POP DUP4 PUSH1 0x1 DUP3 MUL DUP4 ADD GT ISZERO PUSH2 0xC89 JUMPI PUSH2 0xC88 PUSH2 0x995 JUMP JUMPDEST JUMPDEST SWAP3 POP SWAP3 SWAP1 POP JUMP JUMPDEST PUSH1 0x0 DUP1 PUSH1 0x20 DUP4 DUP6 SUB SLT ISZERO PUSH2 0xCA7 JUMPI PUSH2 0xCA6 PUSH2 0x898 JUMP JUMPDEST JUMPDEST PUSH1 0x0 DUP4 ADD CALLDATALOAD PUSH8 0xFFFFFFFFFFFFFFFF DUP2 GT ISZERO PUSH2 0xCC5 JUMPI PUSH2 0xCC4 PUSH2 0x89D JUMP JUMPDEST JUMPDEST PUSH2 0xCD1 DUP6 DUP3 DUP7 ADD PUSH2 0xC3A JUMP JUMPDEST SWAP3 POP SWAP3 POP POP SWAP3 POP SWAP3 SWAP1 POP JUMP JUMPDEST PUSH1 0x0 PUSH1 0x20 DUP3 DUP5 SUB SLT ISZERO PUSH2 0xCF3 JUMPI PUSH2 0xCF2 PUSH2 0x898 JUMP JUMPDEST JUMPDEST PUSH1 0x0 PUSH2 0xD01 DUP5 DUP3 DUP6 ADD PUSH2 0xB2B JUMP JUMPDEST SWAP2 POP POP SWAP3 SWAP2 POP POP JUMP JUMPDEST PUSH1 0x0 PUSH16 0xFFFFFFFFFFFFFFFFFFFFFFFFFFFFFFFF DUP3 AND SWAP1 POP SWAP2 SWAP1 POP JUMP JUMPDEST PUSH2 0xD2F DUP2 PUSH2 0xD0A JUMP JUMPDEST DUP2 EQ PUSH2 0xD3A JUMPI PUSH1 0x0 DUP1 REVERT JUMPDEST POP JUMP JUMPDEST PUSH1 0x0 DUP2 CALLDATALOAD SWAP1 POP PUSH2 0xD4C DUP2 PUSH2 0xD26 JUMP JUMPDEST SWAP3 SWAP2 POP POP JUMP JUMPDEST PUSH1 0x0 DUP1 PUSH1 0x40 DUP4 DUP6 SUB SLT ISZERO PUSH2 0xD69 JUMPI PUSH2 0xD68 PUSH2 0x898 JUMP JUMPDEST JUMPDEST PUSH1 0x0 PUSH2 0xD77 DUP6 DUP3 DUP7 ADD PUSH2 0xD3D JUMP JUMPDEST SWAP3 POP POP PUSH1 0x20 PUSH2 0xD88 DUP6 DUP3 DUP7 ADD PUSH2 0xD3D JUMP JUMPDEST SWAP2 POP POP SWAP3 POP SWAP3 SWAP1 POP JUMP JUMPDEST PUSH32 0x4E487B7100000000000000000000000000000000000000000000000000000000 PUSH1 0x0 MSTORE PUSH1 0x32 PUSH1 0x4 MSTORE PUSH1 0x24 PUSH1 0x0 REVERT JUMPDEST PUSH1 0x0 DUP3 DUP3 MSTORE PUSH1 0x20 DUP3 ADD SWAP1 POP SWAP3 SWAP2 POP POP JUMP JUMPDEST PUSH32 0x50617963726573743A207A65726F206164647265737300000000000000000000 PUSH1 0x0 DUP3 ADD MSTORE POP JUMP JUMPDEST PUSH1 0x0 PUSH2 0xE08 PUSH1 0x16 DUP4 PUSH2 0xDC1 JUMP JUMPDEST SWAP2 POP PUSH2 0xE13 DUP3 PUSH2 0xDD2 JUMP JUMPDEST PUSH1 0x20 DUP3 ADD SWAP1 POP SWAP2 SWAP1 POP JUMP JUMPDEST PUSH1 0x0 PUSH1 0x20 DUP3 ADD SWAP1 POP DUP2 DUP2 SUB PUSH1 0x0 DUP4 ADD MSTORE PUSH2 0xE37 DUP2 PUSH2 0xDFB JUMP JUMPDEST SWAP1 POP SWAP2 SWAP1 POP JUMP JUMPDEST PUSH2 0xE47 DUP2 PUSH2 0x8A2 JUMP JUMPDEST DUP3 MSTORE POP POP JUMP JUMPDEST PUSH2 0xE56 DUP2 PUSH2 0xBAA JUMP JUMPDEST DUP3 MSTORE POP POP JUMP JUMPDEST PUSH1 0x0 PUSH1 0x60 DUP3 ADD SWAP1 POP PUSH2 0xE71 PUSH1 0x0 DUP4 ADD DUP7 PUSH2 0xE3E JUMP JUMPDEST PUSH2 0xE7E PUSH1 0x20 DUP4 ADD DUP6 PUSH2 0xB80 JUMP JUMPDEST PUSH2 0xE8B PUSH1 0x40 DUP4 ADD DUP5 PUSH2 0xE4D JUMP JUMPDEST SWAP5 SWAP4 POP POP POP POP JUMP JUMPDEST PUSH1 0x0 DUP3 SWAP1 POP SWAP3 SWAP2 POP POP JUMP JUMPDEST PUSH32 0x4E487B7100000000000000000000000000000000000000000000000000000000 PUSH1 0x0 MSTORE PUSH1 0x22 PUSH1 0x4 MSTORE PUSH1 0x24 PUSH1 0x0 REVERT JUMPDEST PUSH1 0x0 PUSH1 0x2 DUP3 DIV SWAP1 POP PUSH1 0x1 DUP3 AND DUP1 PUSH2 0xEE5 JUMPI PUSH1 0x7F DUP3 AND SWAP2 POP JUMPDEST PUSH1 0x20 DUP3 LT DUP2 SUB PUSH2 0xEF8 JUMPI PUSH2 0xEF7 PUSH2 0xE9E JUMP JUMPDEST JUMPDEST POP SWAP2 SWAP1 POP JUMP JUMPDEST PUSH1 0x0 DUP2 SWAP1 POP DUP2 PUSH1 0x0 MSTORE PUSH1 0x20 PUSH1 0x0 KECCAK256 SWAP1 POP SWAP2 SWAP1 POP JUMP JUMPDEST PUSH1 0x0 PUSH1 0x20 PUSH1 0x1F DUP4 ADD DIV SWAP1 POP SWAP2 SWAP1 POP JUMP JUMPDEST PUSH1 0x0 DUP3 DUP3 SHL SWAP1 POP SWAP3 SWAP2 POP POP JUMP JUMPDEST PUSH1 0x0 PUSH1 0x8 DUP4 MUL PUSH2 0xF60 PUSH32 0xFFFFFFFFFFFFFFFFFFFFFFFFFFFFFFFFFFFFFFFFFFFFFFFFFFFFFFFFFFFFFFFF DUP3 PUSH2 0xF23 JUMP JUMPDEST PUSH2 0xF6A DUP7 DUP4 PUSH2 0xF23 JUMP JUMPDEST SWAP6 POP DUP1 NOT DUP5 AND SWAP4 POP DUP1 DUP7 AND DUP5 OR SWAP3 POP POP POP SWAP4 SWAP3 POP POP POP JUMP JUMPDEST PUSH1 0x0 DUP2 SWAP1 POP SWAP2 SWAP1 POP JUMP JUMPDEST PUSH1 0x0 DUP2 SWAP1 POP SWAP2 SWAP1 POP JUMP JUMPDEST PUSH1 0x0 PUSH2 0xFB1 PUSH2 0xFAC PUSH2 0xFA7 DUP5 PUSH2 0xF82 JUMP JUMPDEST PUSH2 0xF8C JUMP JUMPDEST PUSH2 0xF82 JUMP JUMPDEST SWAP1 POP SWAP2 SWAP1 POP JUMP JUMPDEST PUSH1 0x0 DUP2 SWAP1 POP SWAP2 SWAP1 POP JUMP JUMPDEST PUSH2 0xFCB DUP4 PUSH2 0xF96 JUMP JUMPDEST PUSH2 0xFDF PUSH2 0xFD7 DUP3 PUSH2 0xFB8 JUMP JUMPDEST DUP5 DUP5 SLOAD PUSH2 0xF30 JUMP JUMPDEST DUP3 SSTORE POP POP POP POP JUMP JUMPDEST PUSH1 0x0 SWAP1 JUMP JUMPDEST PUSH2 0xFF4 PUSH2 0xFE7 JUMP JUMPDEST PUSH2 0xFFF DUP2 DUP5 DUP5 PUSH2 0xFC2 JUMP JUMPDEST POP POP POP JUMP JUMPDEST JUMPDEST DUP2 DUP2 LT ISZERO PUSH2 0x1023 JUMPI PUSH2 0x1018 PUSH1 0x0 DUP3 PUSH2 0xFEC JUMP JUMPDEST PUSH1 0x1 DUP2 ADD SWAP1 POP PUSH2 0x1005 JUMP JUMPDEST POP POP JUMP JUMPDEST PUSH1 0x1F DUP3 GT ISZERO PUSH2 0x1068 JUMPI PUSH2 0x1039 DUP2 PUSH2 0xEFE JUMP JUMPDEST PUSH2 0x1042 DUP5 PUSH2 0xF13 JUMP JUMPDEST DUP2 ADD PUSH1 0x20 DUP6 LT ISZERO PUSH2 0x1051 JUMPI DUP2 SWAP1 POP JUMPDEST PUSH2 0x1065 PUSH2 0x105D DUP6 PUSH2 0xF13 JUMP JUMPDEST DUP4 ADD DUP3 PUSH2 0x1004 JUMP JUMPDEST POP POP JUMPDEST POP POP POP JUMP JUMPDEST PUSH1 0x0 DUP3 DUP3 SHR SWAP1 POP SWAP3 SWAP2 POP POP JUMP JUMPDEST PUSH1 0x0 PUSH2 0x108B PUSH1 0x0 NOT DUP5 PUSH1 0x8 MUL PUSH2 0x106D JUMP JUMPDEST NOT DUP1 DUP4 AND SWAP2 POP POP SWAP3 SWAP2 POP POP JUMP JUMPDEST PUSH1 0x0 PUSH2 0x10A4 DUP4 DUP4 PUSH2 0x107A JUMP JUMPDEST SWAP2 POP DUP3 PUSH1 0x2 MUL DUP3 OR SWAP1 POP SWAP3 SWAP2 POP POP JUMP JUMPDEST PUSH2 0x10BE DUP4 DUP4 PUSH2 0xE93 JUMP JUMPDEST PUSH8 0xFFFFFFFFFFFFFFFF DUP2 GT ISZERO PUSH2 0x10D7 JUMPI PUSH2 0x10D6 PUSH2 0x8EE JUMP JUMPDEST JUMPDEST PUSH2 0x10E1 DUP3 SLOAD PUSH2 0xECD JUMP JUMPDEST PUSH2 0x10EC DUP3 DUP3 DUP6 PUSH2 0x1027 JUMP JUMPDEST PUSH1 0x0 PUSH1 0x1F DUP4 GT PUSH1 0x1 DUP2 EQ PUSH2 0x111B JUMPI PUSH1 0x0 DUP5 ISZERO PUSH2 0x1109 JUMPI DUP3 DUP8 ADD CALLDATALOAD SWAP1 POP JUMPDEST PUSH2 0x1113 DUP6 DUP3 PUSH2 0x1098 JUMP JUMPDEST DUP7 SSTORE POP PUSH2 0x117B JUMP JUMPDEST PUSH1 0x1F NOT DUP5 AND PUSH2 0x1129 DUP7 PUSH2 0xEFE JUMP JUMPDEST PUSH1 0x0 JUMPDEST DUP3 DUP2 LT ISZERO PUSH2 0x1151 JUMPI DUP5 DUP10 ADD CALLDATALOAD DUP3 SSTORE PUSH1 0x1 DUP3 ADD SWAP2 POP PUSH1 0x20 DUP6 ADD SWAP5 POP PUSH1 0x20 DUP2 ADD SWAP1 POP PUSH2 0x112C JUMP JUMPDEST DUP7 DUP4 LT ISZERO PUSH2 0x116E JUMPI DUP5 DUP10 ADD CALLDATALOAD PUSH2 0x116A PUSH1 0x1F DUP10 AND DUP3 PUSH2 0x107A JUMP JUMPDEST DUP4 SSTORE POP JUMPDEST PUSH1 0x1 PUSH1 0x2 DUP9 MUL ADD DUP9 SSTORE POP POP POP JUMPDEST POP POP POP POP POP POP POP JUMP JUMPDEST PUSH1 0x0 DUP3 DUP3 MSTORE PUSH1 0x20 DUP3 ADD SWAP1 POP SWAP3 SWAP2 POP POP JUMP JUMPDEST DUP3 DUP2 DUP4 CALLDATACOPY PUSH1 0x0 DUP4 DUP4 ADD MSTORE POP POP POP JUMP JUMPDEST PUSH1 0x0 PUSH2 0x11B0 DUP4 DUP6 PUSH2 0x1184 JUMP JUMPDEST SWAP4 POP PUSH2 0x11BD DUP4 DUP6 DUP5 PUSH2 0x1195 JUMP JUMPDEST PUSH2 0x11C6 DUP4 PUSH2 0x8DD JUMP JUMPDEST DUP5 ADD SWAP1 POP SWAP4 SWAP3 POP POP POP JUMP JUMPDEST PUSH1 0x0 PUSH1 0x20 DUP3 ADD SWAP1 POP DUP2 DUP2 SUB PUSH1 0x0 DUP4 ADD MSTORE PUSH2 0x11EC DUP2 DUP5 DUP7 PUSH2 0x11A4 JUMP JUMPDEST SWAP1 POP SWAP4 SWAP3 POP POP POP JUMP JUMPDEST PUSH32 0x4F776E61626C653A206E6577206F776E657220697320746865207A65726F2061 PUSH1 0x0 DUP3 ADD MSTORE PUSH32 0x6464726573730000000000000000000000000000000000000000000000000000 PUSH1 0x20 DUP3 ADD MSTORE POP JUMP JUMPDEST PUSH1 0x0 PUSH2 0x1251 PUSH1 0x26 DUP4 PUSH2 0xDC1 JUMP JUMPDEST SWAP2 POP PUSH2 0x125C DUP3 PUSH2 0x11F5 JUMP JUMPDEST PUSH1 0x40 DUP3 ADD SWAP1 POP SWAP2 SWAP1 POP JUMP JUMPDEST PUSH1 0x0 PUSH1 0x20 DUP3 ADD SWAP1 POP DUP2 DUP2 SUB PUSH1 0x0 DUP4 ADD MSTORE PUSH2 0x1280 DUP2 PUSH2 0x1244 JUMP JUMPDEST SWAP1 POP SWAP2 SWAP1 POP JUMP JUMPDEST PUSH2 0x1290 DUP2 PUSH2 0xD0A JUMP JUMPDEST DUP3 MSTORE POP POP JUMP JUMPDEST PUSH1 0x0 PUSH1 0x40 DUP3 ADD SWAP1 POP PUSH2 0x12AB PUSH1 0x0 DUP4 ADD DUP6 PUSH2 0x1287 JUMP JUMPDEST PUSH2 0x12B8 PUSH1 0x20 DUP4 ADD DUP5 PUSH2 0x1287 JUMP JUMPDEST SWAP4 SWAP3 POP POP POP JUMP JUMPDEST PUSH32 0x4F776E61626C653A2063616C6C6572206973206E6F7420746865206F776E6572 PUSH1 0x0 DUP3 ADD MSTORE POP JUMP JUMPDEST PUSH1 0x0 PUSH2 0x12F5 PUSH1 0x20 DUP4 PUSH2 0xDC1 JUMP JUMPDEST SWAP2 POP PUSH2 0x1300 DUP3 PUSH2 0x12BF JUMP JUMPDEST PUSH1 0x20 DUP3 ADD SWAP1 POP SWAP2 SWAP1 POP JUMP JUMPDEST PUSH1 0x0 PUSH1 0x20 DUP3 ADD SWAP1 POP DUP2 DUP2 SUB PUSH1 0x0 DUP4 ADD MSTORE PUSH2 0x1324 DUP2 PUSH2 0x12E8 JUMP JUMPDEST SWAP1 POP SWAP2 SWAP1 POP JUMP INVALID LOG2 PUSH5 0x6970667358 0x22 SLT KECCAK256 MLOAD SWAP14 0xC PUSH17 0x788B99A2D1848DFA65B13D3A2EF8458E73 0x29 CALLDATALOAD 0x29 LOG1 EQ PUSH17 0x6C7123D96664736F6C6343000812003300 "},"gasEstimates":{"creation":{"codeDepositCost":"992200","executionCost":"1034","totalCost":"993234"},"external":{"owner()":"2589","renounceOwnership()":"30421","setSupportedInstitutions(bytes32,(bytes32,bytes32)[])":"infinite","settingManagerBool(bytes32,address,bool)":"infinite","transferOwnership(address)":"30788","updateProtocolAddresses(bytes32,address)":"51552","updateProtocolAggregator(bytes)":"infinite","updateProtocolFees(uint128,uint128)":"infinite"}},"methodIdentifiers":{"owner()":"8da5cb5b","renounceOwnership()":"715018a6","setSupportedInstitutions(bytes32,(bytes32,bytes32)[])":"32200882","settingManagerBool(bytes32,address,bool)":"99e3c0b4","transferOwnership(address)":"f2fde38b","updateProtocolAddresses(bytes32,address)":"79a0effb","updateProtocolAggregator(bytes)":"cb79455b","updateProtocolFees(uint128,uint128)":"f5326b19"}},"storageLayout":{"storage":[{"astId":138,"contract":"contracts/PaycrestSettingManager.sol:PaycrestSettingManager","label":"_initialized","offset":0,"slot":"0","type":"t_uint8"},{"astId":141,"contract":"contracts/PaycrestSettingManager.sol:PaycrestSettingManager","label":"_initializing","offset":1,"slot":"0","type":"t_bool"},{"astId":1161,"contract":"contracts/PaycrestSettingManager.sol:PaycrestSettingManager","label":"__gap","offset":0,"slot":"1","type":"t_array(t_uint256)50_storage"},{"astId":10,"contract":"contracts/PaycrestSettingManager.sol:PaycrestSettingManager","label":"_owner","offset":0,"slot":"51","type":"t_address"},{"astId":130,"contract":"contracts/PaycrestSettingManager.sol:PaycrestSettingManager","label":"__gap","offset":0,"slot":"52","type":"t_array(t_uint256)49_storage"},{"astId":3565,"contract":"contracts/PaycrestSettingManager.sol:PaycrestSettingManager","label":"MAX_BPS","offset":0,"slot":"101","type":"t_uint256"},{"astId":3567,"contract":"contracts/PaycrestSettingManager.sol:PaycrestSettingManager","label":"protocolFeePercent","offset":0,"slot":"102","type":"t_uint128"},{"astId":3569,"contract":"contracts/PaycrestSettingManager.sol:PaycrestSettingManager","label":"validatorFeePercent","offset":16,"slot":"102","type":"t_uint128"},{"astId":3571,"contract":"contracts/PaycrestSettingManager.sol:PaycrestSettingManager","label":"feeRecipient","offset":0,"slot":"103","type":"t_address"},{"astId":3573,"contract":"contracts/PaycrestSettingManager.sol:PaycrestSettingManager","label":"_liquidityAggregator","offset":0,"slot":"104","type":"t_address"},{"astId":3575,"contract":"contracts/PaycrestSettingManager.sol:PaycrestSettingManager","label":"_aggregator","offset":0,"slot":"105","type":"t_bytes_storage"},{"astId":3579,"contract":"contracts/PaycrestSettingManager.sol:PaycrestSettingManager","label":"__gap","offset":0,"slot":"106","type":"t_array(t_uint256)50_storage"},{"astId":3583,"contract":"contracts/PaycrestSettingManager.sol:PaycrestSettingManager","label":"_isTokenSupported","offset":0,"slot":"156","type":"t_mapping(t_address,t_bool)"},{"astId":3587,"contract":"contracts/PaycrestSettingManager.sol:PaycrestSettingManager","label":"_isWhitelisted","offset":0,"slot":"157","type":"t_mapping(t_address,t_bool)"},{"astId":3593,"contract":"contracts/PaycrestSettingManager.sol:PaycrestSettingManager","label":"supportedInstitutions","offset":0,"slot":"158","type":"t_mapping(t_bytes32,t_array(t_struct(Institution)3558_storage)dyn_storage)"},{"astId":3598,"contract":"contracts/PaycrestSettingManager.sol:PaycrestSettingManager","label":"supportedInstitutionsByCode","offset":0,"slot":"159","type":"t_mapping(t_bytes32,t_struct(InstitutionByCode)3563_storage)"}],"types":{"t_address":{"encoding":"inplace","label":"address","numberOfBytes":"20"},"t_array(t_struct(Institution)3558_storage)dyn_storage":{"base":"t_struct(Institution)3558_storage","encoding":"dynamic_array","label":"struct PaycrestSettingManager.Institution[]","numberOfBytes":"32"},"t_array(t_uint256)49_storage":{"base":"t_uint256","encoding":"inplace","label":"uint256[49]","numberOfBytes":"1568"},"t_array(t_uint256)50_storage":{"base":"t_uint256","encoding":"inplace","label":"uint256[50]","numberOfBytes":"1600"},"t_bool":{"encoding":"inplace","label":"bool","numberOfBytes":"1"},"t_bytes32":{"encoding":"inplace","label":"bytes32","numberOfBytes":"32"},"t_bytes_storage":{"encoding":"bytes","label":"bytes","numberOfBytes":"32"},"t_mapping(t_address,t_bool)":{"encoding":"mapping","key":"t_address","label":"mapping(address => bool)","numberOfBytes":"32","value":"t_bool"},"t_mapping(t_bytes32,t_array(t_struct(Institution)3558_storage)dyn_storage)":{"encoding":"mapping","key":"t_bytes32","label":"mapping(bytes32 => struct PaycrestSettingManager.Institution[])","numberOfBytes":"32","value":"t_array(t_struct(Institution)3558_storage)dyn_storage"},"t_mapping(t_bytes32,t_struct(InstitutionByCode)3563_storage)":{"encoding":"mapping","key":"t_bytes32","label":"mapping(bytes32 => struct PaycrestSettingManager.InstitutionByCode)","numberOfBytes":"32","value":"t_struct(InstitutionByCode)3563_storage"},"t_struct(Institution)3558_storage":{"encoding":"inplace","label":"struct PaycrestSettingManager.Institution","members":[{"astId":3555,"contract":"contracts/PaycrestSettingManager.sol:PaycrestSettingManager","label":"code","offset":0,"slot":"0","type":"t_bytes32"},{"astId":3557,"contract":"contracts/PaycrestSettingManager.sol:PaycrestSettingManager","label":"name","offset":0,"slot":"1","type":"t_bytes32"}],"numberOfBytes":"64"},"t_struct(InstitutionByCode)3563_storage":{"encoding":"inplace","label":"struct PaycrestSettingManager.InstitutionByCode","members":[{"astId":3560,"contract":"contracts/PaycrestSettingManager.sol:PaycrestSettingManager","label":"name","offset":0,"slot":"0","type":"t_bytes32"},{"astId":3562,"contract":"contracts/PaycrestSettingManager.sol:PaycrestSettingManager","label":"currency","offset":0,"slot":"1","type":"t_bytes32"}],"numberOfBytes":"64"},"t_uint128":{"encoding":"inplace","label":"uint128","numberOfBytes":"16"},"t_uint256":{"encoding":"inplace","label":"uint256","numberOfBytes":"32"},"t_uint8":{"encoding":"inplace","label":"uint8","numberOfBytes":"1"}}},"userdoc":{"kind":"user","methods":{},"version":1}}}}