{"contracts/Paycrest.sol":{"Paycrest":{"abi":[{"inputs":[],"stateMutability":"nonpayable","type":"constructor"},{"anonymous":false,"inputs":[{"indexed":true,"internalType":"address","name":"token","type":"address"},{"indexed":true,"internalType":"uint256","name":"amount","type":"uint256"},{"indexed":true,"internalType":"bytes32","name":"orderId","type":"bytes32"},{"indexed":false,"internalType":"uint256","name":"rate","type":"uint256"},{"indexed":false,"internalType":"bytes32","name":"institutionCode","type":"bytes32"},{"indexed":false,"internalType":"bytes32","name":"label","type":"bytes32"},{"indexed":false,"internalType":"string","name":"messageHash","type":"string"}],"name":"Deposit","type":"event"},{"anonymous":false,"inputs":[{"indexed":false,"internalType":"uint8","name":"version","type":"uint8"}],"name":"Initialized","type":"event"},{"anonymous":false,"inputs":[{"indexed":true,"internalType":"address","name":"previousOwner","type":"address"},{"indexed":true,"internalType":"address","name":"newOwner","type":"address"}],"name":"OwnershipTransferred","type":"event"},{"anonymous":false,"inputs":[{"indexed":false,"internalType":"uint128","name":"protocolFee","type":"uint128"},{"indexed":false,"internalType":"uint128","name":"validatorFeePercent","type":"uint128"}],"name":"PaycrestFees","type":"event"},{"anonymous":false,"inputs":[{"indexed":true,"internalType":"bytes32","name":"orderId","type":"bytes32"},{"indexed":false,"internalType":"bytes32","name":"label","type":"bytes32"}],"name":"Refunded","type":"event"},{"anonymous":false,"inputs":[{"indexed":true,"internalType":"address","name":"validator","type":"address"},{"indexed":true,"internalType":"uint256","name":"amount","type":"uint256"}],"name":"RewardValidator","type":"event"},{"anonymous":false,"inputs":[{"indexed":false,"internalType":"bytes","name":"aggregator","type":"bytes"}],"name":"SetAggregator","type":"event"},{"anonymous":false,"inputs":[{"indexed":false,"internalType":"address","name":"feeRecipient","type":"address"}],"name":"SetFeeRecipient","type":"event"},{"anonymous":false,"inputs":[{"indexed":false,"internalType":"bytes32","name":"what","type":"bytes32"},{"indexed":false,"internalType":"address","name":"value","type":"address"},{"indexed":false,"internalType":"bool","name":"status","type":"bool"}],"name":"SettingManagerBool","type":"event"},{"anonymous":false,"inputs":[{"indexed":false,"internalType":"bytes32","name":"_splitOrderId","type":"bytes32"},{"indexed":true,"internalType":"bytes32","name":"orderId","type":"bytes32"},{"indexed":false,"internalType":"bytes32","name":"label","type":"bytes32"},{"indexed":true,"internalType":"address","name":"liquidityProvider","type":"address"},{"indexed":false,"internalType":"uint96","name":"settlePercent","type":"uint96"}],"name":"Settled","type":"event"},{"anonymous":false,"inputs":[{"indexed":true,"internalType":"address","name":"sender","type":"address"},{"indexed":true,"internalType":"uint256","name":"amount","type":"uint256"}],"name":"TransferSenderFee","type":"event"},{"inputs":[{"internalType":"address","name":"_token","type":"address"},{"internalType":"uint256","name":"_amount","type":"uint256"},{"internalType":"bytes32","name":"_institutionCode","type":"bytes32"},{"internalType":"bytes32","name":"_label","type":"bytes32"},{"internalType":"uint96","name":"_rate","type":"uint96"},{"internalType":"address","name":"_senderFeeRecipient","type":"address"},{"internalType":"uint256","name":"_senderFee","type":"uint256"},{"internalType":"address","name":"_refundAddress","type":"address"},{"internalType":"string","name":"messageHash","type":"string"}],"name":"createOrder","outputs":[{"internalType":"bytes32","name":"orderId","type":"bytes32"}],"stateMutability":"nonpayable","type":"function"},{"inputs":[],"name":"getAggregator","outputs":[{"internalType":"bytes","name":"","type":"bytes"}],"stateMutability":"view","type":"function"},{"inputs":[],"name":"getAggregatorAddress","outputs":[{"internalType":"address","name":"","type":"address"}],"stateMutability":"view","type":"function"},{"inputs":[],"name":"getFeeDetails","outputs":[{"internalType":"uint128","name":"","type":"uint128"},{"internalType":"uint128","name":"","type":"uint128"},{"internalType":"uint256","name":"","type":"uint256"}],"stateMutability":"view","type":"function"},{"inputs":[{"internalType":"bytes32","name":"_orderId","type":"bytes32"}],"name":"getOrderInfo","outputs":[{"components":[{"internalType":"address","name":"seller","type":"address"},{"internalType":"address","name":"token","type":"address"},{"internalType":"address","name":"senderFeeRecipient","type":"address"},{"internalType":"uint256","name":"senderFee","type":"uint256"},{"internalType":"uint96","name":"rate","type":"uint96"},{"internalType":"bool","name":"isFulfilled","type":"bool"},{"internalType":"address","name":"refundAddress","type":"address"},{"internalType":"uint96","name":"currentBPS","type":"uint96"},{"internalType":"uint256","name":"amount","type":"uint256"}],"internalType":"struct IPaycrest.Order","name":"","type":"tuple"}],"stateMutability":"view","type":"function"},{"inputs":[{"internalType":"bytes32","name":"code","type":"bytes32"}],"name":"getSupportedInstitutionName","outputs":[{"components":[{"internalType":"bytes32","name":"name","type":"bytes32"},{"internalType":"bytes32","name":"currency","type":"bytes32"}],"internalType":"struct PaycrestSettingManager.InstitutionByCode","name":"","type":"tuple"}],"stateMutability":"view","type":"function"},{"inputs":[{"internalType":"bytes32","name":"currency","type":"bytes32"}],"name":"getSupportedInstitutions","outputs":[{"components":[{"internalType":"bytes32","name":"code","type":"bytes32"},{"internalType":"bytes32","name":"name","type":"bytes32"}],"internalType":"struct PaycrestSettingManager.Institution[]","name":"","type":"tuple[]"}],"stateMutability":"view","type":"function"},{"inputs":[{"internalType":"address","name":"sender","type":"address"}],"name":"getWhitelistedStatus","outputs":[{"internalType":"bool","name":"","type":"bool"}],"stateMutability":"view","type":"function"},{"inputs":[{"internalType":"address","name":"_usdc","type":"address"}],"name":"initialize","outputs":[],"stateMutability":"nonpayable","type":"function"},{"inputs":[{"internalType":"address","name":"_token","type":"address"}],"name":"isTokenSupported","outputs":[{"internalType":"bool","name":"","type":"bool"}],"stateMutability":"view","type":"function"},{"inputs":[],"name":"owner","outputs":[{"internalType":"address","name":"","type":"address"}],"stateMutability":"view","type":"function"},{"inputs":[{"internalType":"bytes32","name":"_orderId","type":"bytes32"},{"internalType":"bytes32","name":"_label","type":"bytes32"}],"name":"refund","outputs":[{"internalType":"bool","name":"","type":"bool"}],"stateMutability":"nonpayable","type":"function"},{"inputs":[],"name":"renounceOwnership","outputs":[],"stateMutability":"nonpayable","type":"function"},{"inputs":[{"internalType":"bytes32","name":"currency","type":"bytes32"},{"components":[{"internalType":"bytes32","name":"code","type":"bytes32"},{"internalType":"bytes32","name":"name","type":"bytes32"}],"internalType":"struct PaycrestSettingManager.Institution[]","name":"institutions","type":"tuple[]"}],"name":"setSupportedInstitutions","outputs":[],"stateMutability":"nonpayable","type":"function"},{"inputs":[{"internalType":"bytes32","name":"what","type":"bytes32"},{"internalType":"address","name":"value","type":"address"},{"internalType":"bool","name":"status","type":"bool"}],"name":"settingManagerBool","outputs":[],"stateMutability":"nonpayable","type":"function"},{"inputs":[{"internalType":"bytes32","name":"_splitOrderId","type":"bytes32"},{"internalType":"bytes32","name":"_orderId","type":"bytes32"},{"internalType":"bytes32","name":"_label","type":"bytes32"},{"internalType":"address[]","name":"_validators","type":"address[]"},{"internalType":"address","name":"_liquidityProvider","type":"address"},{"internalType":"uint64","name":"_settlePercent","type":"uint64"},{"internalType":"bool","name":"_isPartner","type":"bool"}],"name":"settle","outputs":[{"internalType":"bytes32","name":"","type":"bytes32"},{"internalType":"address","name":"","type":"address"}],"stateMutability":"nonpayable","type":"function"},{"inputs":[{"internalType":"address","name":"newOwner","type":"address"}],"name":"transferOwnership","outputs":[],"stateMutability":"nonpayable","type":"function"},{"inputs":[{"internalType":"bytes32","name":"what","type":"bytes32"},{"internalType":"address","name":"value","type":"address"}],"name":"updateProtocolAddresses","outputs":[],"stateMutability":"nonpayable","type":"function"},{"inputs":[{"internalType":"bytes","name":"aggregator","type":"bytes"}],"name":"updateProtocolAggregator","outputs":[],"stateMutability":"nonpayable","type":"function"},{"inputs":[{"internalType":"uint128","name":"_protocolFeePercent","type":"uint128"},{"internalType":"uint128","name":"_validatorFeePercent","type":"uint128"}],"name":"updateProtocolFees","outputs":[],"stateMutability":"nonpayable","type":"function"},{"inputs":[{"internalType":"address","name":"_token","type":"address"},{"internalType":"address","name":"_recipient","type":"address"},{"internalType":"uint256","name":"_amount","type":"uint256"}],"name":"withdraw","outputs":[],"stateMutability":"nonpayable","type":"function"}],"devdoc":{"events":{"Deposit(address,uint256,bytes32,uint256,bytes32,bytes32,string)":{"details":"Emitted when deposit is made."},"Initialized(uint8)":{"details":"Triggered when the contract has been initialized or reinitialized."},"Refunded(bytes32,bytes32)":{"details":"Emitted when aggregator refund transaction."},"RewardValidator(address,uint256)":{"details":"Emitted when primary validator get therir rewards."},"Settled(bytes32,bytes32,bytes32,address,uint96)":{"details":"Emitted when aggregator settle transaction."},"TransferSenderFee(address,uint256)":{"details":"Emitted when sender get therir rewards."}},"kind":"dev","methods":{"constructor":{"custom:oz-upgrades-unsafe-allow":"constructor"},"createOrder(address,uint256,bytes32,bytes32,uint96,address,uint256,address,string)":{"details":"See {createOrder-IPaycrest}. "},"getAggregator()":{"details":"See {getAggregator-IPaycrest}. "},"getAggregatorAddress()":{"details":"See {getAggregatorAddress-IPaycrest}. "},"getFeeDetails()":{"details":"See {getFeeDetails-IPaycrest}. "},"getOrderInfo(bytes32)":{"details":"See {getOrderInfo-IPaycrest}. "},"getSupportedInstitutionName(bytes32)":{"details":"See {getSupportedInstitutionName-IPaycrest}. "},"getWhitelistedStatus(address)":{"details":"See {getWhitelistedStatus-IPaycrest}. "},"isTokenSupported(address)":{"details":"See {isTokenSupported-IPaycrest}. "},"owner()":{"details":"Returns the address of the current owner."},"refund(bytes32,bytes32)":{"details":"See {refund-IPaycrest}. "},"renounceOwnership()":{"details":"Leaves the contract without owner. It will not be possible to call `onlyOwner` functions. Can only be called by the current owner. NOTE: Renouncing ownership will leave the contract without an owner, thereby disabling any functionality that is only available to the owner."},"settle(bytes32,bytes32,bytes32,address[],address,uint64,bool)":{"details":"See {settle-IPaycrest}. "},"transferOwnership(address)":{"details":"Transfers ownership of the contract to a new account (`newOwner`). Can only be called by the current owner."}},"version":1},"evm":{"bytecode":{"linkReferences":{},"object":"60806040523480156200001157600080fd5b50620000226200002860201b60201c565b620001d2565b600060019054906101000a900460ff16156200007b576040517f08c379a0000000000000000000000000000000000000000000000000000000008152600401620000729062000175565b60405180910390fd5b60ff801660008054906101000a900460ff1660ff1614620000ec5760ff6000806101000a81548160ff021916908360ff1602179055507f7f26b83ff96e1f2b6a682f133852f6798a09c465da95921460cefb384740249860ff604051620000e39190620001b5565b60405180910390a15b565b600082825260208201905092915050565b7f496e697469616c697a61626c653a20636f6e747261637420697320696e69746960008201527f616c697a696e6700000000000000000000000000000000000000000000000000602082015250565b60006200015d602783620000ee565b91506200016a82620000ff565b604082019050919050565b6000602082019050818103600083015262000190816200014e565b9050919050565b600060ff82169050919050565b620001af8162000197565b82525050565b6000602082019050620001cc6000830184620001a4565b92915050565b61416180620001e26000396000f3fe608060405234801561001057600080fd5b50600436106101375760003560e01c80638da5cb5b116100b8578063d8e8de341161007c578063d8e8de341461034f578063d9caed121461037f578063e4683a791461039b578063e8d6e0de146103cb578063f2fde38b146103e9578063f5326b191461040557610137565b80638da5cb5b146102bd57806399e3c0b4146102db578063b810c636146102f7578063c4d66de814610317578063cb79455b1461033357610137565b8063715018a6116100ff578063715018a61461020757806375151b6314610211578063768c6ec01461024157806379a0effb1461027157806387490d861461028d57610137565b8063026213381461013c578063137764fb1461016c5780632654ec7e1461019d57806332200882146101cd5780633ad59dbc146101e9575b600080fd5b61015660048036038101906101519190612780565b610421565b604051610163919061289a565b60405180910390f35b610186600480360381019061018191906129f7565b61055f565b604051610194929190612ad7565b60405180910390f35b6101b760048036038101906101b29190612bd0565b61096a565b6040516101c49190612cbb565b60405180910390f35b6101e760048036038101906101e29190612e7a565b610e42565b005b6101f1610f56565b6040516101fe9190612f55565b60405180910390f35b61020f610fe8565b005b61022b60048036038101906102269190612f77565b610ffc565b6040516102389190612fb3565b60405180910390f35b61025b60048036038101906102569190612780565b611052565b60405161026891906130c1565b60405180910390f35b61028b600480360381019061028691906130dd565b611283565b005b6102a760048036038101906102a29190612780565b6113d0565b6040516102b4919061314c565b60405180910390f35b6102c5611411565b6040516102d29190613167565b60405180910390f35b6102f560048036038101906102f09190613182565b61143b565b005b6102ff6115f0565b60405161030e9392919061320f565b60405180910390f35b610331600480360381019061032c9190612f77565b611641565b005b61034d6004803603810190610348919061329c565b611858565b005b61036960048036038101906103649190612f77565b6118af565b6040516103769190612fb3565b60405180910390f35b610399600480360381019061039491906132e9565b611905565b005b6103b560048036038101906103b0919061333c565b611991565b6040516103c29190612fb3565b60405180910390f35b6103d3611c3e565b6040516103e09190613167565b60405180910390f35b61040360048036038101906103fe9190612f77565b611c68565b005b61041f600480360381019061041a91906133a8565b611ceb565b005b60606000609e6000848152602001908152602001600020805480602002602001604051908101604052809291908181526020016000905b8282101561049e57838290600052602060002090600202016040518060400160405290816000820154815260200160018201548152505081526020019060010190610458565b50505050905060008151905060008167ffffffffffffffff8111156104c6576104c5612ce7565b5b6040519080825280602002602001820160405280156104ff57816020015b6104ec612613565b8152602001906001900390816104e45790505b50905060005b82811015610553578381815181106105205761051f6133e8565b5b602002602001015182828151811061053b5761053a6133e8565b5b60200260200101819052508080600101915050610505565b50809350505050919050565b600080606860009054906101000a900473ffffffffffffffffffffffffffffffffffffffff1673ffffffffffffffffffffffffffffffffffffffff163373ffffffffffffffffffffffffffffffffffffffff16146105f2576040517f08c379a00000000000000000000000000000000000000000000000000000000081526004016105e990613474565b60405180910390fd5b60a060008a8152602001908152602001600020600401600c9054906101000a900460ff1615610656576040517f08c379a000000000000000000000000000000000000000000000000000000000815260040161064d906134e0565b60405180910390fd5b600060a060008b815260200190815260200160002060010160009054906101000a900473ffffffffffffffffffffffffffffffffffffffff1690508467ffffffffffffffff1660a060008c815260200190815260200160002060050160148282829054906101000a90046bffffffffffffffffffffffff166106d8919061352f565b92506101000a8154816bffffffffffffffffffffffff02191690836bffffffffffffffffffffffff160217905550600061071d8b8767ffffffffffffffff1687611da2565b9050600060a060008d815260200190815260200160002060050160149054906101000a90046bffffffffffffffffffffffff166bffffffffffffffffffffffff16036107bc57600160a060008d8152602001908152602001600020600401600c6101000a81548160ff021916908315150217905550600060a060008d81526020019081526020016000206003015411156107bb576107ba8b611f3d565b5b5b60008160000151111561086f578173ffffffffffffffffffffffffffffffffffffffff1663a9059cbb606760009054906101000a900473ffffffffffffffffffffffffffffffffffffffff1683600001516040518363ffffffff1660e01b815260040161082a92919061356f565b6020604051808303816000875af1158015610849573d6000803e3d6000fd5b505050506040513d601f19601f8201168201806040525081019061086d91906135ad565b505b8173ffffffffffffffffffffffffffffffffffffffff1663a9059cbb8883602001516040518363ffffffff1660e01b81526004016108ae92919061356f565b6020604051808303816000875af11580156108cd573d6000803e3d6000fd5b505050506040513d601f19601f820116820180604052508101906108f191906135ad565b506109028989848460400151612091565b8673ffffffffffffffffffffffffffffffffffffffff168b7ff26de978cbaea68ea699627155a10ad53df3321b0f95a08264c0cfd6d4c053268e8d8a60405161094d93929190613615565b60405180910390a38a829350935050509850989650505050505050565b60006109798b8b86898d6121db565b606554606660009054906101000a90046fffffffffffffffffffffffffffffffff166fffffffffffffffffffffffffffffffff168b6109b8919061364c565b6109c291906136bd565b851115610a04576040517f08c379a00000000000000000000000000000000000000000000000000000000081526004016109fb9061373a565b60405180910390fd5b8a73ffffffffffffffffffffffffffffffffffffffff166323b872dd33308d6040518463ffffffff1660e01b8152600401610a419392919061375a565b6020604051808303816000875af1158015610a60573d6000803e3d6000fd5b505050506040513d601f19601f82011682018060405250810190610a8491906135ad565b5060a160003373ffffffffffffffffffffffffffffffffffffffff1673ffffffffffffffffffffffffffffffffffffffff1681526020019081526020016000206000815480929190610ad590613791565b91905055503360a160003373ffffffffffffffffffffffffffffffffffffffff1673ffffffffffffffffffffffffffffffffffffffff16815260200190815260200160002054604051602001610b2c92919061356f565b6040516020818303038152906040528051906020012090506040518061012001604052803373ffffffffffffffffffffffffffffffffffffffff1681526020018c73ffffffffffffffffffffffffffffffffffffffff1681526020018773ffffffffffffffffffffffffffffffffffffffff168152602001868152602001886bffffffffffffffffffffffff1681526020016000151581526020018573ffffffffffffffffffffffffffffffffffffffff16815260200160655467ffffffffffffffff166bffffffffffffffffffffffff1681526020018b81525060a0600083815260200190815260200160002060008201518160000160006101000a81548173ffffffffffffffffffffffffffffffffffffffff021916908373ffffffffffffffffffffffffffffffffffffffff16021790555060208201518160010160006101000a81548173ffffffffffffffffffffffffffffffffffffffff021916908373ffffffffffffffffffffffffffffffffffffffff16021790555060408201518160020160006101000a81548173ffffffffffffffffffffffffffffffffffffffff021916908373ffffffffffffffffffffffffffffffffffffffff1602179055506060820151816003015560808201518160040160006101000a8154816bffffffffffffffffffffffff02191690836bffffffffffffffffffffffff16021790555060a082015181600401600c6101000a81548160ff02191690831515021790555060c08201518160050160006101000a81548173ffffffffffffffffffffffffffffffffffffffff021916908373ffffffffffffffffffffffffffffffffffffffff16021790555060e08201518160050160146101000a8154816bffffffffffffffffffffffff02191690836bffffffffffffffffffffffff1602179055506101008201518160060155905050808a8c73ffffffffffffffffffffffffffffffffffffffff167f2c205f90c01160d42994a0eb521810056d94bb82a1fcb038d7179c4158a1f15b8a8d8d8989604051610e2c959493929190613846565b60405180910390a49a9950505050505050505050565b610e4a6123ea565b60008151905060005b81811015610f5057609e6000858152602001908152602001600020838281518110610e8157610e806133e8565b5b60200260200101519080600181540180825580915050600190039060005260206000209060020201600090919091909150600082015181600001556020820151816001015550506040518060400160405280848381518110610ee657610ee56133e8565b5b602002602001015160200151815260200185815250609f6000858481518110610f1257610f116133e8565b5b602002602001015160000151815260200190815260200160002060008201518160000155602082015181600101559050508080600101915050610e53565b50505050565b606060698054610f65906138c3565b80601f0160208091040260200160405190810160405280929190818152602001828054610f91906138c3565b8015610fde5780601f10610fb357610100808354040283529160200191610fde565b820191906000526020600020905b815481529060010190602001808311610fc157829003601f168201915b5050505050905090565b610ff06123ea565b610ffa6000612468565b565b6000609c60008373ffffffffffffffffffffffffffffffffffffffff1673ffffffffffffffffffffffffffffffffffffffff16815260200190815260200160002060009054906101000a900460ff169050919050565b61105a612633565b60a06000838152602001908152602001600020604051806101200160405290816000820160009054906101000a900473ffffffffffffffffffffffffffffffffffffffff1673ffffffffffffffffffffffffffffffffffffffff1673ffffffffffffffffffffffffffffffffffffffff1681526020016001820160009054906101000a900473ffffffffffffffffffffffffffffffffffffffff1673ffffffffffffffffffffffffffffffffffffffff1673ffffffffffffffffffffffffffffffffffffffff1681526020016002820160009054906101000a900473ffffffffffffffffffffffffffffffffffffffff1673ffffffffffffffffffffffffffffffffffffffff1673ffffffffffffffffffffffffffffffffffffffff168152602001600382015481526020016004820160009054906101000a90046bffffffffffffffffffffffff166bffffffffffffffffffffffff166bffffffffffffffffffffffff16815260200160048201600c9054906101000a900460ff161515151581526020016005820160009054906101000a900473ffffffffffffffffffffffffffffffffffffffff1673ffffffffffffffffffffffffffffffffffffffff1673ffffffffffffffffffffffffffffffffffffffff1681526020016005820160149054906101000a90046bffffffffffffffffffffffff166bffffffffffffffffffffffff166bffffffffffffffffffffffff1681526020016006820154815250509050919050565b61128b6123ea565b600073ffffffffffffffffffffffffffffffffffffffff168173ffffffffffffffffffffffffffffffffffffffff16036112fa576040517f08c379a00000000000000000000000000000000000000000000000000000000081526004016112f190613940565b60405180910390fd5b7f666565000000000000000000000000000000000000000000000000000000000082036113635780606760006101000a81548173ffffffffffffffffffffffffffffffffffffffff021916908373ffffffffffffffffffffffffffffffffffffffff1602179055505b7f61676772656761746f720000000000000000000000000000000000000000000082036113cc5780606860006101000a81548173ffffffffffffffffffffffffffffffffffffffff021916908373ffffffffffffffffffffffffffffffffffffffff1602179055505b5050565b6113d86126f5565b609f6000838152602001908152602001600020604051806040016040529081600082015481526020016001820154815250509050919050565b6000603360009054906101000a900473ffffffffffffffffffffffffffffffffffffffff16905090565b6114436123ea565b600073ffffffffffffffffffffffffffffffffffffffff168273ffffffffffffffffffffffffffffffffffffffff16036114b2576040517f08c379a00000000000000000000000000000000000000000000000000000000081526004016114a990613940565b60405180910390fd5b7f746f6b656e00000000000000000000000000000000000000000000000000000083036115315780609c60008473ffffffffffffffffffffffffffffffffffffffff1673ffffffffffffffffffffffffffffffffffffffff16815260200190815260200160002060006101000a81548160ff0219169083151502179055505b7f77686974656c697374000000000000000000000000000000000000000000000083036115b05780609d60008473ffffffffffffffffffffffffffffffffffffffff1673ffffffffffffffffffffffffffffffffffffffff16815260200190815260200160002060006101000a81548160ff0219169083151502179055505b7fe22cadcc5ddbc0a185e8920eaa6825bcc06dcd6b432988e7e9912caa59ace9308383836040516115e393929190613960565b60405180910390a1505050565b6000806000606660009054906101000a90046fffffffffffffffffffffffffffffffff16606660109054906101000a90046fffffffffffffffffffffffffffffffff16606554925092509250909192565b60008060019054906101000a900460ff161590508080156116725750600160008054906101000a900460ff1660ff16105b8061169f57506116813061252e565b15801561169e5750600160008054906101000a900460ff1660ff16145b5b6116de576040517f08c379a00000000000000000000000000000000000000000000000000000000081526004016116d590613a09565b60405180910390fd5b60016000806101000a81548160ff021916908360ff160217905550801561171b576001600060016101000a81548160ff0219169083151502179055505b6001609c60008473ffffffffffffffffffffffffffffffffffffffff1673ffffffffffffffffffffffffffffffffffffffff16815260200190815260200160002060006101000a81548160ff021916908315150217905550620186a0606581905550611388606660006101000a8154816fffffffffffffffffffffffffffffffff02191690836fffffffffffffffffffffffffffffffff1602179055506101f4606660106101000a8154816fffffffffffffffffffffffffffffffff02191690836fffffffffffffffffffffffffffffffff1602179055506117fb612551565b80156118545760008060016101000a81548160ff0219169083151502179055507f7f26b83ff96e1f2b6a682f133852f6798a09c465da95921460cefb3847402498600160405161184b9190613a71565b60405180910390a15b5050565b6118606123ea565b818160699182611871929190613c39565b507f6a6600b7242975868d8321b5e64d0c9f2fcc92eb1af72254a6357be77ee7dcef82826040516118a3929190613d36565b60405180910390a15050565b6000609d60008373ffffffffffffffffffffffffffffffffffffffff1673ffffffffffffffffffffffffffffffffffffffff16815260200190815260200160002060009054906101000a900460ff169050919050565b61190d6123ea565b8273ffffffffffffffffffffffffffffffffffffffff1663a9059cbb83836040518363ffffffff1660e01b815260040161194892919061356f565b6020604051808303816000875af1158015611967573d6000803e3d6000fd5b505050506040513d601f19601f8201168201806040525081019061198b91906135ad565b50505050565b6000606860009054906101000a900473ffffffffffffffffffffffffffffffffffffffff1673ffffffffffffffffffffffffffffffffffffffff163373ffffffffffffffffffffffffffffffffffffffff1614611a23576040517f08c379a0000000000000000000000000000000000000000000000000000000008152600401611a1a90613474565b60405180910390fd5b60a06000848152602001908152602001600020600401600c9054906101000a900460ff1615611a87576040517f08c379a0000000000000000000000000000000000000000000000000000000008152600401611a7e906134e0565b60405180910390fd5b600160a06000858152602001908152602001600020600401600c6101000a81548160ff021916908315150217905550600060a0600085815260200190815260200160002060050160146101000a8154816bffffffffffffffffffffffff02191690836bffffffffffffffffffffffff16021790555060a0600084815260200190815260200160002060010160009054906101000a900473ffffffffffffffffffffffffffffffffffffffff1673ffffffffffffffffffffffffffffffffffffffff1663a9059cbb60a0600086815260200190815260200160002060050160009054906101000a900473ffffffffffffffffffffffffffffffffffffffff1660a06000878152602001908152602001600020600601546040518363ffffffff1660e01b8152600401611bb992919061356f565b6020604051808303816000875af1158015611bd8573d6000803e3d6000fd5b505050506040513d601f19601f82011682018060405250810190611bfc91906135ad565b50827e7c875846b687732a7579c19bb1dade66cd14e9f4f809565e2b2b5e76c72b4f83604051611c2c9190612cbb565b60405180910390a26001905092915050565b6000606860009054906101000a900473ffffffffffffffffffffffffffffffffffffffff16905090565b611c706123ea565b600073ffffffffffffffffffffffffffffffffffffffff168173ffffffffffffffffffffffffffffffffffffffff1603611cdf576040517f08c379a0000000000000000000000000000000000000000000000000000000008152600401611cd690613dcc565b60405180910390fd5b611ce881612468565b50565b611cf36123ea565b81606660006101000a8154816fffffffffffffffffffffffffffffffff02191690836fffffffffffffffffffffffffffffffff16021790555080606660106101000a8154816fffffffffffffffffffffffffffffffff02191690836fffffffffffffffffffffffffffffffff1602179055507fe38926c5806b98a6fd00c5d791a36fbd196537fe48d11c45c9f1d0acd1ea74df8282604051611d96929190613dec565b60405180910390a15050565b611daa612715565b600060a0600086815260200190815260200160002060060154905060a060008681526020019081526020016000206003015481611de79190613e15565b9050606554846bffffffffffffffffffffffff1682611e06919061364c565b611e1091906136bd565b826020018181525050606554606660009054906101000a90046fffffffffffffffffffffffffffffffff166fffffffffffffffffffffffffffffffff168360200151611e5c919061364c565b611e6691906136bd565b82600001818152505081600001518260200151611e839190613e15565b826020018181525050606554606660109054906101000a90046fffffffffffffffffffffffffffffffff166fffffffffffffffffffffffffffffffff168360000151611ecf919061364c565b611ed991906136bd565b826040018181525050600082604001518360000151611ef89190613e15565b90508315611f29578083602001818151611f129190613e49565b915081815250506000836000018181525050611f34565b808360000181815250505b50509392505050565b600060a0600083815260200190815260200160002060020160009054906101000a900473ffffffffffffffffffffffffffffffffffffffff169050600060a0600084815260200190815260200160002060030154905060a0600084815260200190815260200160002060010160009054906101000a900473ffffffffffffffffffffffffffffffffffffffff1673ffffffffffffffffffffffffffffffffffffffff1663a9059cbb83836040518363ffffffff1660e01b815260040161200492919061356f565b6020604051808303816000875af1158015612023573d6000803e3d6000fd5b505050506040513d601f19601f8201168201806040525081019061204791906135ad565b50808273ffffffffffffffffffffffffffffffffffffffff167f96c76d5aec8a8c11a9c8e02768e3fa309347330d08961e0cf9fd43b349b684c260405160405180910390a3505050565b6000848490509050600081836120a791906136bd565b905060005b828110156121d2578473ffffffffffffffffffffffffffffffffffffffff1663a9059cbb8888848181106120e3576120e26133e8565b5b90506020020160208101906120f89190612f77565b846040518363ffffffff1660e01b815260040161211692919061356f565b6020604051808303816000875af1158015612135573d6000803e3d6000fd5b505050506040513d601f19601f8201168201806040525081019061215991906135ad565b508187878381811061216e5761216d6133e8565b5b90506020020160208101906121839190612f77565b73ffffffffffffffffffffffffffffffffffffffff167f61dceb70b8f97239c33a3f9c0d0efc6c8759c7e9a808f75dd42b3a0f213186c260405160405180910390a380806001019150506120ac565b50505050505050565b609c60008673ffffffffffffffffffffffffffffffffffffffff1673ffffffffffffffffffffffffffffffffffffffff16815260200190815260200160002060009054906101000a900460ff16612267576040517f08c379a000000000000000000000000000000000000000000000000000000000815260040161225e90613ec9565b60405180910390fd5b600084116122aa576040517f08c379a00000000000000000000000000000000000000000000000000000000081526004016122a190613f35565b60405180910390fd5b600073ffffffffffffffffffffffffffffffffffffffff168373ffffffffffffffffffffffffffffffffffffffff1603612319576040517f08c379a000000000000000000000000000000000000000000000000000000000815260040161231090613fa1565b60405180910390fd5b600073ffffffffffffffffffffffffffffffffffffffff168273ffffffffffffffffffffffffffffffffffffffff1603612388576040517f08c379a000000000000000000000000000000000000000000000000000000000815260040161237f90613fa1565b60405180910390fd5b6000801b609f600083815260200190815260200160002060000154036123e3576040517f08c379a00000000000000000000000000000000000000000000000000000000081526004016123da9061400d565b60405180910390fd5b5050505050565b6123f26125aa565b73ffffffffffffffffffffffffffffffffffffffff16612410611411565b73ffffffffffffffffffffffffffffffffffffffff1614612466576040517f08c379a000000000000000000000000000000000000000000000000000000000815260040161245d90614079565b60405180910390fd5b565b6000603360009054906101000a900473ffffffffffffffffffffffffffffffffffffffff16905081603360006101000a81548173ffffffffffffffffffffffffffffffffffffffff021916908373ffffffffffffffffffffffffffffffffffffffff1602179055508173ffffffffffffffffffffffffffffffffffffffff168173ffffffffffffffffffffffffffffffffffffffff167f8be0079c531659141344cd1fd0a4f28419497f9722a3daafe3b4186f6b6457e060405160405180910390a35050565b6000808273ffffffffffffffffffffffffffffffffffffffff163b119050919050565b600060019054906101000a900460ff166125a0576040517f08c379a00000000000000000000000000000000000000000000000000000000081526004016125979061410b565b60405180910390fd5b6125a86125b2565b565b600033905090565b600060019054906101000a900460ff16612601576040517f08c379a00000000000000000000000000000000000000000000000000000000081526004016125f89061410b565b60405180910390fd5b61261161260c6125aa565b612468565b565b604051806040016040528060008019168152602001600080191681525090565b604051806101200160405280600073ffffffffffffffffffffffffffffffffffffffff168152602001600073ffffffffffffffffffffffffffffffffffffffff168152602001600073ffffffffffffffffffffffffffffffffffffffff1681526020016000815260200160006bffffffffffffffffffffffff168152602001600015158152602001600073ffffffffffffffffffffffffffffffffffffffff16815260200160006bffffffffffffffffffffffff168152602001600081525090565b604051806040016040528060008019168152602001600080191681525090565b60405180606001604052806000815260200160008152602001600081525090565b6000604051905090565b600080fd5b600080fd5b6000819050919050565b61275d8161274a565b811461276857600080fd5b50565b60008135905061277a81612754565b92915050565b60006020828403121561279657612795612740565b5b60006127a48482850161276b565b91505092915050565b600081519050919050565b600082825260208201905092915050565b6000819050602082019050919050565b6127e28161274a565b82525050565b6040820160008201516127fe60008501826127d9565b50602082015161281160208501826127d9565b50505050565b600061282383836127e8565b60408301905092915050565b6000602082019050919050565b6000612847826127ad565b61285181856127b8565b935061285c836127c9565b8060005b8381101561288d5781516128748882612817565b975061287f8361282f565b925050600181019050612860565b5085935050505092915050565b600060208201905081810360008301526128b4818461283c565b905092915050565b600080fd5b600080fd5b600080fd5b60008083601f8401126128e1576128e06128bc565b5b8235905067ffffffffffffffff8111156128fe576128fd6128c1565b5b60208301915083602082028301111561291a576129196128c6565b5b9250929050565b600073ffffffffffffffffffffffffffffffffffffffff82169050919050565b600061294c82612921565b9050919050565b61295c81612941565b811461296757600080fd5b50565b60008135905061297981612953565b92915050565b600067ffffffffffffffff82169050919050565b61299c8161297f565b81146129a757600080fd5b50565b6000813590506129b981612993565b92915050565b60008115159050919050565b6129d4816129bf565b81146129df57600080fd5b50565b6000813590506129f1816129cb565b92915050565b60008060008060008060008060e0898b031215612a1757612a16612740565b5b6000612a258b828c0161276b565b9850506020612a368b828c0161276b565b9750506040612a478b828c0161276b565b965050606089013567ffffffffffffffff811115612a6857612a67612745565b5b612a748b828c016128cb565b95509550506080612a878b828c0161296a565b93505060a0612a988b828c016129aa565b92505060c0612aa98b828c016129e2565b9150509295985092959890939650565b612ac28161274a565b82525050565b612ad181612941565b82525050565b6000604082019050612aec6000830185612ab9565b612af96020830184612ac8565b9392505050565b6000819050919050565b612b1381612b00565b8114612b1e57600080fd5b50565b600081359050612b3081612b0a565b92915050565b60006bffffffffffffffffffffffff82169050919050565b612b5781612b36565b8114612b6257600080fd5b50565b600081359050612b7481612b4e565b92915050565b60008083601f840112612b9057612b8f6128bc565b5b8235905067ffffffffffffffff811115612bad57612bac6128c1565b5b602083019150836001820283011115612bc957612bc86128c6565b5b9250929050565b6000806000806000806000806000806101208b8d031215612bf457612bf3612740565b5b6000612c028d828e0161296a565b9a50506020612c138d828e01612b21565b9950506040612c248d828e0161276b565b9850506060612c358d828e0161276b565b9750506080612c468d828e01612b65565b96505060a0612c578d828e0161296a565b95505060c0612c688d828e01612b21565b94505060e0612c798d828e0161296a565b9350506101008b013567ffffffffffffffff811115612c9b57612c9a612745565b5b612ca78d828e01612b7a565b92509250509295989b9194979a5092959850565b6000602082019050612cd06000830184612ab9565b92915050565b6000601f19601f8301169050919050565b7f4e487b7100000000000000000000000000000000000000000000000000000000600052604160045260246000fd5b612d1f82612cd6565b810181811067ffffffffffffffff82111715612d3e57612d3d612ce7565b5b80604052505050565b6000612d51612736565b9050612d5d8282612d16565b919050565b600067ffffffffffffffff821115612d7d57612d7c612ce7565b5b602082029050602081019050919050565b600080fd5b600060408284031215612da957612da8612d8e565b5b612db36040612d47565b90506000612dc38482850161276b565b6000830152506020612dd78482850161276b565b60208301525092915050565b6000612df6612df184612d62565b612d47565b90508083825260208201905060408402830185811115612e1957612e186128c6565b5b835b81811015612e425780612e2e8882612d93565b845260208401935050604081019050612e1b565b5050509392505050565b600082601f830112612e6157612e606128bc565b5b8135612e71848260208601612de3565b91505092915050565b60008060408385031215612e9157612e90612740565b5b6000612e9f8582860161276b565b925050602083013567ffffffffffffffff811115612ec057612ebf612745565b5b612ecc85828601612e4c565b9150509250929050565b600081519050919050565b600082825260208201905092915050565b60005b83811015612f10578082015181840152602081019050612ef5565b60008484015250505050565b6000612f2782612ed6565b612f318185612ee1565b9350612f41818560208601612ef2565b612f4a81612cd6565b840191505092915050565b60006020820190508181036000830152612f6f8184612f1c565b905092915050565b600060208284031215612f8d57612f8c612740565b5b6000612f9b8482850161296a565b91505092915050565b612fad816129bf565b82525050565b6000602082019050612fc86000830184612fa4565b92915050565b612fd781612941565b82525050565b612fe681612b00565b82525050565b612ff581612b36565b82525050565b613004816129bf565b82525050565b610120820160008201516130216000850182612fce565b5060208201516130346020850182612fce565b5060408201516130476040850182612fce565b50606082015161305a6060850182612fdd565b50608082015161306d6080850182612fec565b5060a082015161308060a0850182612ffb565b5060c082015161309360c0850182612fce565b5060e08201516130a660e0850182612fec565b506101008201516130bb610100850182612fdd565b50505050565b6000610120820190506130d7600083018461300a565b92915050565b600080604083850312156130f4576130f3612740565b5b60006131028582860161276b565b92505060206131138582860161296a565b9150509250929050565b60408201600082015161313360008501826127d9565b50602082015161314660208501826127d9565b50505050565b6000604082019050613161600083018461311d565b92915050565b600060208201905061317c6000830184612ac8565b92915050565b60008060006060848603121561319b5761319a612740565b5b60006131a98682870161276b565b93505060206131ba8682870161296a565b92505060406131cb868287016129e2565b9150509250925092565b60006fffffffffffffffffffffffffffffffff82169050919050565b6131fa816131d5565b82525050565b61320981612b00565b82525050565b600060608201905061322460008301866131f1565b61323160208301856131f1565b61323e6040830184613200565b949350505050565b60008083601f84011261325c5761325b6128bc565b5b8235905067ffffffffffffffff811115613279576132786128c1565b5b602083019150836001820283011115613295576132946128c6565b5b9250929050565b600080602083850312156132b3576132b2612740565b5b600083013567ffffffffffffffff8111156132d1576132d0612745565b5b6132dd85828601613246565b92509250509250929050565b60008060006060848603121561330257613301612740565b5b60006133108682870161296a565b93505060206133218682870161296a565b925050604061333286828701612b21565b9150509250925092565b6000806040838503121561335357613352612740565b5b60006133618582860161276b565b92505060206133728582860161276b565b9150509250929050565b613385816131d5565b811461339057600080fd5b50565b6000813590506133a28161337c565b92915050565b600080604083850312156133bf576133be612740565b5b60006133cd85828601613393565b92505060206133de85828601613393565b9150509250929050565b7f4e487b7100000000000000000000000000000000000000000000000000000000600052603260045260246000fd5b600082825260208201905092915050565b7f4f6e6c7941676772656761746f72000000000000000000000000000000000000600082015250565b600061345e600e83613417565b915061346982613428565b602082019050919050565b6000602082019050818103600083015261348d81613451565b9050919050565b7f4f7264657246756c66696c6c6564000000000000000000000000000000000000600082015250565b60006134ca600e83613417565b91506134d582613494565b602082019050919050565b600060208201905081810360008301526134f9816134bd565b9050919050565b7f4e487b7100000000000000000000000000000000000000000000000000000000600052601160045260246000fd5b600061353a82612b36565b915061354583612b36565b925082820390506bffffffffffffffffffffffff81111561356957613568613500565b5b92915050565b60006040820190506135846000830185612ac8565b6135916020830184613200565b9392505050565b6000815190506135a7816129cb565b92915050565b6000602082840312156135c3576135c2612740565b5b60006135d184828501613598565b91505092915050565b6000819050919050565b60006135ff6135fa6135f58461297f565b6135da565b612b36565b9050919050565b61360f816135e4565b82525050565b600060608201905061362a6000830186612ab9565b6136376020830185612ab9565b6136446040830184613606565b949350505050565b600061365782612b00565b915061366283612b00565b925082820261367081612b00565b9150828204841483151761368757613686613500565b5b5092915050565b7f4e487b7100000000000000000000000000000000000000000000000000000000600052601260045260246000fd5b60006136c882612b00565b91506136d383612b00565b9250826136e3576136e261368e565b5b828204905092915050565b7f53656e646572466565546f6f4869676800000000000000000000000000000000600082015250565b6000613724601083613417565b915061372f826136ee565b602082019050919050565b6000602082019050818103600083015261375381613717565b9050919050565b600060608201905061376f6000830186612ac8565b61377c6020830185612ac8565b6137896040830184613200565b949350505050565b600061379c82612b00565b91507fffffffffffffffffffffffffffffffffffffffffffffffffffffffffffffffff82036137ce576137cd613500565b5b600182019050919050565b60006137f46137ef6137ea84612b36565b6135da565b612b00565b9050919050565b613804816137d9565b82525050565b82818337600083830152505050565b60006138258385613417565b935061383283858461380a565b61383b83612cd6565b840190509392505050565b600060808201905061385b60008301886137fb565b6138686020830187612ab9565b6138756040830186612ab9565b8181036060830152613888818486613819565b90509695505050505050565b7f4e487b7100000000000000000000000000000000000000000000000000000000600052602260045260246000fd5b600060028204905060018216806138db57607f821691505b6020821081036138ee576138ed613894565b5b50919050565b7f50617963726573743a207a65726f206164647265737300000000000000000000600082015250565b600061392a601683613417565b9150613935826138f4565b602082019050919050565b600060208201905081810360008301526139598161391d565b9050919050565b60006060820190506139756000830186612ab9565b6139826020830185612ac8565b61398f6040830184612fa4565b949350505050565b7f496e697469616c697a61626c653a20636f6e747261637420697320616c72656160008201527f647920696e697469616c697a6564000000000000000000000000000000000000602082015250565b60006139f3602e83613417565b91506139fe82613997565b604082019050919050565b60006020820190508181036000830152613a22816139e6565b9050919050565b6000819050919050565b600060ff82169050919050565b6000613a5b613a56613a5184613a29565b6135da565b613a33565b9050919050565b613a6b81613a40565b82525050565b6000602082019050613a866000830184613a62565b92915050565b600082905092915050565b60008190508160005260206000209050919050565b60006020601f8301049050919050565b600082821b905092915050565b600060088302613af97fffffffffffffffffffffffffffffffffffffffffffffffffffffffffffffffff82613abc565b613b038683613abc565b95508019841693508086168417925050509392505050565b6000613b36613b31613b2c84612b00565b6135da565b612b00565b9050919050565b6000819050919050565b613b5083613b1b565b613b64613b5c82613b3d565b848454613ac9565b825550505050565b600090565b613b79613b6c565b613b84818484613b47565b505050565b5b81811015613ba857613b9d600082613b71565b600181019050613b8a565b5050565b601f821115613bed57613bbe81613a97565b613bc784613aac565b81016020851015613bd6578190505b613bea613be285613aac565b830182613b89565b50505b505050565b600082821c905092915050565b6000613c1060001984600802613bf2565b1980831691505092915050565b6000613c298383613bff565b9150826002028217905092915050565b613c438383613a8c565b67ffffffffffffffff811115613c5c57613c5b612ce7565b5b613c6682546138c3565b613c71828285613bac565b6000601f831160018114613ca05760008415613c8e578287013590505b613c988582613c1d565b865550613d00565b601f198416613cae86613a97565b60005b82811015613cd657848901358255600182019150602085019450602081019050613cb1565b86831015613cf35784890135613cef601f891682613bff565b8355505b6001600288020188555050505b50505050505050565b6000613d158385612ee1565b9350613d2283858461380a565b613d2b83612cd6565b840190509392505050565b60006020820190508181036000830152613d51818486613d09565b90509392505050565b7f4f776e61626c653a206e6577206f776e657220697320746865207a65726f206160008201527f6464726573730000000000000000000000000000000000000000000000000000602082015250565b6000613db6602683613417565b9150613dc182613d5a565b604082019050919050565b60006020820190508181036000830152613de581613da9565b9050919050565b6000604082019050613e0160008301856131f1565b613e0e60208301846131f1565b9392505050565b6000613e2082612b00565b9150613e2b83612b00565b9250828203905081811115613e4357613e42613500565b5b92915050565b6000613e5482612b00565b9150613e5f83612b00565b9250828201905080821115613e7757613e76613500565b5b92915050565b7f546f6b656e4e6f74537570706f72746564000000000000000000000000000000600082015250565b6000613eb3601183613417565b9150613ebe82613e7d565b602082019050919050565b60006020820190508181036000830152613ee281613ea6565b9050919050565b7f416d6f756e7449735a65726f0000000000000000000000000000000000000000600082015250565b6000613f1f600c83613417565b9150613f2a82613ee9565b602082019050919050565b60006020820190508181036000830152613f4e81613f12565b9050919050565b7f5468726f775a65726f4164647265737300000000000000000000000000000000600082015250565b6000613f8b601083613417565b9150613f9682613f55565b602082019050919050565b60006020820190508181036000830152613fba81613f7e565b9050919050565b7f496e76616c6964496e737469747574696f6e436f646500000000000000000000600082015250565b6000613ff7601683613417565b915061400282613fc1565b602082019050919050565b6000602082019050818103600083015261402681613fea565b9050919050565b7f4f776e61626c653a2063616c6c6572206973206e6f7420746865206f776e6572600082015250565b6000614063602083613417565b915061406e8261402d565b602082019050919050565b6000602082019050818103600083015261409281614056565b9050919050565b7f496e697469616c697a61626c653a20636f6e7472616374206973206e6f74206960008201527f6e697469616c697a696e67000000000000000000000000000000000000000000602082015250565b60006140f5602b83613417565b915061410082614099565b604082019050919050565b60006020820190508181036000830152614124816140e8565b905091905056fea26469706673582212208b3d52873e081656e3e1c7f7db950185305cc50b26459ed56e4b7d69aa27310664736f6c63430008120033","opcodes":"PUSH1 0x80 PUSH1 0x40 MSTORE CALLVALUE DUP1 ISZERO PUSH3 0x11 JUMPI PUSH1 0x0 DUP1 REVERT JUMPDEST POP PUSH3 0x22 PUSH3 0x28 PUSH1 0x20 SHL PUSH1 0x20 SHR JUMP JUMPDEST PUSH3 0x1D2 JUMP JUMPDEST PUSH1 0x0 PUSH1 0x1 SWAP1 SLOAD SWAP1 PUSH2 0x100 EXP SWAP1 DIV PUSH1 0xFF AND ISZERO PUSH3 0x7B JUMPI PUSH1 0x40 MLOAD PUSH32 0x8C379A000000000000000000000000000000000000000000000000000000000 DUP2 MSTORE PUSH1 0x4 ADD PUSH3 0x72 SWAP1 PUSH3 0x175 JUMP JUMPDEST PUSH1 0x40 MLOAD DUP1 SWAP2 SUB SWAP1 REVERT JUMPDEST PUSH1 0xFF DUP1 AND PUSH1 0x0 DUP1 SLOAD SWAP1 PUSH2 0x100 EXP SWAP1 DIV PUSH1 0xFF AND PUSH1 0xFF AND EQ PUSH3 0xEC JUMPI PUSH1 0xFF PUSH1 0x0 DUP1 PUSH2 0x100 EXP DUP2 SLOAD DUP2 PUSH1 0xFF MUL NOT AND SWAP1 DUP4 PUSH1 0xFF AND MUL OR SWAP1 SSTORE POP PUSH32 0x7F26B83FF96E1F2B6A682F133852F6798A09C465DA95921460CEFB3847402498 PUSH1 0xFF PUSH1 0x40 MLOAD PUSH3 0xE3 SWAP2 SWAP1 PUSH3 0x1B5 JUMP JUMPDEST PUSH1 0x40 MLOAD DUP1 SWAP2 SUB SWAP1 LOG1 JUMPDEST JUMP JUMPDEST PUSH1 0x0 DUP3 DUP3 MSTORE PUSH1 0x20 DUP3 ADD SWAP1 POP SWAP3 SWAP2 POP POP JUMP JUMPDEST PUSH32 0x496E697469616C697A61626C653A20636F6E747261637420697320696E697469 PUSH1 0x0 DUP3 ADD MSTORE PUSH32 0x616C697A696E6700000000000000000000000000000000000000000000000000 PUSH1 0x20 DUP3 ADD MSTORE POP JUMP JUMPDEST PUSH1 0x0 PUSH3 0x15D PUSH1 0x27 DUP4 PUSH3 0xEE JUMP JUMPDEST SWAP2 POP PUSH3 0x16A DUP3 PUSH3 0xFF JUMP JUMPDEST PUSH1 0x40 DUP3 ADD SWAP1 POP SWAP2 SWAP1 POP JUMP JUMPDEST PUSH1 0x0 PUSH1 0x20 DUP3 ADD SWAP1 POP DUP2 DUP2 SUB PUSH1 0x0 DUP4 ADD MSTORE PUSH3 0x190 DUP2 PUSH3 0x14E JUMP JUMPDEST SWAP1 POP SWAP2 SWAP1 POP JUMP JUMPDEST PUSH1 0x0 PUSH1 0xFF DUP3 AND SWAP1 POP SWAP2 SWAP1 POP JUMP JUMPDEST PUSH3 0x1AF DUP2 PUSH3 0x197 JUMP JUMPDEST DUP3 MSTORE POP POP JUMP JUMPDEST PUSH1 0x0 PUSH1 0x20 DUP3 ADD SWAP1 POP PUSH3 0x1CC PUSH1 0x0 DUP4 ADD DUP5 PUSH3 0x1A4 JUMP JUMPDEST SWAP3 SWAP2 POP POP JUMP JUMPDEST PUSH2 0x4161 DUP1 PUSH3 0x1E2 PUSH1 0x0 CODECOPY PUSH1 0x0 RETURN INVALID PUSH1 0x80 PUSH1 0x40 MSTORE CALLVALUE DUP1 ISZERO PUSH2 0x10 JUMPI PUSH1 0x0 DUP1 REVERT JUMPDEST POP PUSH1 0x4 CALLDATASIZE LT PUSH2 0x137 JUMPI PUSH1 0x0 CALLDATALOAD PUSH1 0xE0 SHR DUP1 PUSH4 0x8DA5CB5B GT PUSH2 0xB8 JUMPI DUP1 PUSH4 0xD8E8DE34 GT PUSH2 0x7C JUMPI DUP1 PUSH4 0xD8E8DE34 EQ PUSH2 0x34F JUMPI DUP1 PUSH4 0xD9CAED12 EQ PUSH2 0x37F JUMPI DUP1 PUSH4 0xE4683A79 EQ PUSH2 0x39B JUMPI DUP1 PUSH4 0xE8D6E0DE EQ PUSH2 0x3CB JUMPI DUP1 PUSH4 0xF2FDE38B EQ PUSH2 0x3E9 JUMPI DUP1 PUSH4 0xF5326B19 EQ PUSH2 0x405 JUMPI PUSH2 0x137 JUMP JUMPDEST DUP1 PUSH4 0x8DA5CB5B EQ PUSH2 0x2BD JUMPI DUP1 PUSH4 0x99E3C0B4 EQ PUSH2 0x2DB JUMPI DUP1 PUSH4 0xB810C636 EQ PUSH2 0x2F7 JUMPI DUP1 PUSH4 0xC4D66DE8 EQ PUSH2 0x317 JUMPI DUP1 PUSH4 0xCB79455B EQ PUSH2 0x333 JUMPI PUSH2 0x137 JUMP JUMPDEST DUP1 PUSH4 0x715018A6 GT PUSH2 0xFF JUMPI DUP1 PUSH4 0x715018A6 EQ PUSH2 0x207 JUMPI DUP1 PUSH4 0x75151B63 EQ PUSH2 0x211 JUMPI DUP1 PUSH4 0x768C6EC0 EQ PUSH2 0x241 JUMPI DUP1 PUSH4 0x79A0EFFB EQ PUSH2 0x271 JUMPI DUP1 PUSH4 0x87490D86 EQ PUSH2 0x28D JUMPI PUSH2 0x137 JUMP JUMPDEST DUP1 PUSH4 0x2621338 EQ PUSH2 0x13C JUMPI DUP1 PUSH4 0x137764FB EQ PUSH2 0x16C JUMPI DUP1 PUSH4 0x2654EC7E EQ PUSH2 0x19D JUMPI DUP1 PUSH4 0x32200882 EQ PUSH2 0x1CD JUMPI DUP1 PUSH4 0x3AD59DBC EQ PUSH2 0x1E9 JUMPI JUMPDEST PUSH1 0x0 DUP1 REVERT JUMPDEST PUSH2 0x156 PUSH1 0x4 DUP1 CALLDATASIZE SUB DUP2 ADD SWAP1 PUSH2 0x151 SWAP2 SWAP1 PUSH2 0x2780 JUMP JUMPDEST PUSH2 0x421 JUMP JUMPDEST PUSH1 0x40 MLOAD PUSH2 0x163 SWAP2 SWAP1 PUSH2 0x289A JUMP JUMPDEST PUSH1 0x40 MLOAD DUP1 SWAP2 SUB SWAP1 RETURN JUMPDEST PUSH2 0x186 PUSH1 0x4 DUP1 CALLDATASIZE SUB DUP2 ADD SWAP1 PUSH2 0x181 SWAP2 SWAP1 PUSH2 0x29F7 JUMP JUMPDEST PUSH2 0x55F JUMP JUMPDEST PUSH1 0x40 MLOAD PUSH2 0x194 SWAP3 SWAP2 SWAP1 PUSH2 0x2AD7 JUMP JUMPDEST PUSH1 0x40 MLOAD DUP1 SWAP2 SUB SWAP1 RETURN JUMPDEST PUSH2 0x1B7 PUSH1 0x4 DUP1 CALLDATASIZE SUB DUP2 ADD SWAP1 PUSH2 0x1B2 SWAP2 SWAP1 PUSH2 0x2BD0 JUMP JUMPDEST PUSH2 0x96A JUMP JUMPDEST PUSH1 0x40 MLOAD PUSH2 0x1C4 SWAP2 SWAP1 PUSH2 0x2CBB JUMP JUMPDEST PUSH1 0x40 MLOAD DUP1 SWAP2 SUB SWAP1 RETURN JUMPDEST PUSH2 0x1E7 PUSH1 0x4 DUP1 CALLDATASIZE SUB DUP2 ADD SWAP1 PUSH2 0x1E2 SWAP2 SWAP1 PUSH2 0x2E7A JUMP JUMPDEST PUSH2 0xE42 JUMP JUMPDEST STOP JUMPDEST PUSH2 0x1F1 PUSH2 0xF56 JUMP JUMPDEST PUSH1 0x40 MLOAD PUSH2 0x1FE SWAP2 SWAP1 PUSH2 0x2F55 JUMP JUMPDEST PUSH1 0x40 MLOAD DUP1 SWAP2 SUB SWAP1 RETURN JUMPDEST PUSH2 0x20F PUSH2 0xFE8 JUMP JUMPDEST STOP JUMPDEST PUSH2 0x22B PUSH1 0x4 DUP1 CALLDATASIZE SUB DUP2 ADD SWAP1 PUSH2 0x226 SWAP2 SWAP1 PUSH2 0x2F77 JUMP JUMPDEST PUSH2 0xFFC JUMP JUMPDEST PUSH1 0x40 MLOAD PUSH2 0x238 SWAP2 SWAP1 PUSH2 0x2FB3 JUMP JUMPDEST PUSH1 0x40 MLOAD DUP1 SWAP2 SUB SWAP1 RETURN JUMPDEST PUSH2 0x25B PUSH1 0x4 DUP1 CALLDATASIZE SUB DUP2 ADD SWAP1 PUSH2 0x256 SWAP2 SWAP1 PUSH2 0x2780 JUMP JUMPDEST PUSH2 0x1052 JUMP JUMPDEST PUSH1 0x40 MLOAD PUSH2 0x268 SWAP2 SWAP1 PUSH2 0x30C1 JUMP JUMPDEST PUSH1 0x40 MLOAD DUP1 SWAP2 SUB SWAP1 RETURN JUMPDEST PUSH2 0x28B PUSH1 0x4 DUP1 CALLDATASIZE SUB DUP2 ADD SWAP1 PUSH2 0x286 SWAP2 SWAP1 PUSH2 0x30DD JUMP JUMPDEST PUSH2 0x1283 JUMP JUMPDEST STOP JUMPDEST PUSH2 0x2A7 PUSH1 0x4 DUP1 CALLDATASIZE SUB DUP2 ADD SWAP1 PUSH2 0x2A2 SWAP2 SWAP1 PUSH2 0x2780 JUMP JUMPDEST PUSH2 0x13D0 JUMP JUMPDEST PUSH1 0x40 MLOAD PUSH2 0x2B4 SWAP2 SWAP1 PUSH2 0x314C JUMP JUMPDEST PUSH1 0x40 MLOAD DUP1 SWAP2 SUB SWAP1 RETURN JUMPDEST PUSH2 0x2C5 PUSH2 0x1411 JUMP JUMPDEST PUSH1 0x40 MLOAD PUSH2 0x2D2 SWAP2 SWAP1 PUSH2 0x3167 JUMP JUMPDEST PUSH1 0x40 MLOAD DUP1 SWAP2 SUB SWAP1 RETURN JUMPDEST PUSH2 0x2F5 PUSH1 0x4 DUP1 CALLDATASIZE SUB DUP2 ADD SWAP1 PUSH2 0x2F0 SWAP2 SWAP1 PUSH2 0x3182 JUMP JUMPDEST PUSH2 0x143B JUMP JUMPDEST STOP JUMPDEST PUSH2 0x2FF PUSH2 0x15F0 JUMP JUMPDEST PUSH1 0x40 MLOAD PUSH2 0x30E SWAP4 SWAP3 SWAP2 SWAP1 PUSH2 0x320F JUMP JUMPDEST PUSH1 0x40 MLOAD DUP1 SWAP2 SUB SWAP1 RETURN JUMPDEST PUSH2 0x331 PUSH1 0x4 DUP1 CALLDATASIZE SUB DUP2 ADD SWAP1 PUSH2 0x32C SWAP2 SWAP1 PUSH2 0x2F77 JUMP JUMPDEST PUSH2 0x1641 JUMP JUMPDEST STOP JUMPDEST PUSH2 0x34D PUSH1 0x4 DUP1 CALLDATASIZE SUB DUP2 ADD SWAP1 PUSH2 0x348 SWAP2 SWAP1 PUSH2 0x329C JUMP JUMPDEST PUSH2 0x1858 JUMP JUMPDEST STOP JUMPDEST PUSH2 0x369 PUSH1 0x4 DUP1 CALLDATASIZE SUB DUP2 ADD SWAP1 PUSH2 0x364 SWAP2 SWAP1 PUSH2 0x2F77 JUMP JUMPDEST PUSH2 0x18AF JUMP JUMPDEST PUSH1 0x40 MLOAD PUSH2 0x376 SWAP2 SWAP1 PUSH2 0x2FB3 JUMP JUMPDEST PUSH1 0x40 MLOAD DUP1 SWAP2 SUB SWAP1 RETURN JUMPDEST PUSH2 0x399 PUSH1 0x4 DUP1 CALLDATASIZE SUB DUP2 ADD SWAP1 PUSH2 0x394 SWAP2 SWAP1 PUSH2 0x32E9 JUMP JUMPDEST PUSH2 0x1905 JUMP JUMPDEST STOP JUMPDEST PUSH2 0x3B5 PUSH1 0x4 DUP1 CALLDATASIZE SUB DUP2 ADD SWAP1 PUSH2 0x3B0 SWAP2 SWAP1 PUSH2 0x333C JUMP JUMPDEST PUSH2 0x1991 JUMP JUMPDEST PUSH1 0x40 MLOAD PUSH2 0x3C2 SWAP2 SWAP1 PUSH2 0x2FB3 JUMP JUMPDEST PUSH1 0x40 MLOAD DUP1 SWAP2 SUB SWAP1 RETURN JUMPDEST PUSH2 0x3D3 PUSH2 0x1C3E JUMP JUMPDEST PUSH1 0x40 MLOAD PUSH2 0x3E0 SWAP2 SWAP1 PUSH2 0x3167 JUMP JUMPDEST PUSH1 0x40 MLOAD DUP1 SWAP2 SUB SWAP1 RETURN JUMPDEST PUSH2 0x403 PUSH1 0x4 DUP1 CALLDATASIZE SUB DUP2 ADD SWAP1 PUSH2 0x3FE SWAP2 SWAP1 PUSH2 0x2F77 JUMP JUMPDEST PUSH2 0x1C68 JUMP JUMPDEST STOP JUMPDEST PUSH2 0x41F PUSH1 0x4 DUP1 CALLDATASIZE SUB DUP2 ADD SWAP1 PUSH2 0x41A SWAP2 SWAP1 PUSH2 0x33A8 JUMP JUMPDEST PUSH2 0x1CEB JUMP JUMPDEST STOP JUMPDEST PUSH1 0x60 PUSH1 0x0 PUSH1 0x9E PUSH1 0x0 DUP5 DUP2 MSTORE PUSH1 0x20 ADD SWAP1 DUP2 MSTORE PUSH1 0x20 ADD PUSH1 0x0 KECCAK256 DUP1 SLOAD DUP1 PUSH1 0x20 MUL PUSH1 0x20 ADD PUSH1 0x40 MLOAD SWAP1 DUP2 ADD PUSH1 0x40 MSTORE DUP1 SWAP3 SWAP2 SWAP1 DUP2 DUP2 MSTORE PUSH1 0x20 ADD PUSH1 0x0 SWAP1 JUMPDEST DUP3 DUP3 LT ISZERO PUSH2 0x49E JUMPI DUP4 DUP3 SWAP1 PUSH1 0x0 MSTORE PUSH1 0x20 PUSH1 0x0 KECCAK256 SWAP1 PUSH1 0x2 MUL ADD PUSH1 0x40 MLOAD DUP1 PUSH1 0x40 ADD PUSH1 0x40 MSTORE SWAP1 DUP2 PUSH1 0x0 DUP3 ADD SLOAD DUP2 MSTORE PUSH1 0x20 ADD PUSH1 0x1 DUP3 ADD SLOAD DUP2 MSTORE POP POP DUP2 MSTORE PUSH1 0x20 ADD SWAP1 PUSH1 0x1 ADD SWAP1 PUSH2 0x458 JUMP JUMPDEST POP POP POP POP SWAP1 POP PUSH1 0x0 DUP2 MLOAD SWAP1 POP PUSH1 0x0 DUP2 PUSH8 0xFFFFFFFFFFFFFFFF DUP2 GT ISZERO PUSH2 0x4C6 JUMPI PUSH2 0x4C5 PUSH2 0x2CE7 JUMP JUMPDEST JUMPDEST PUSH1 0x40 MLOAD SWAP1 DUP1 DUP3 MSTORE DUP1 PUSH1 0x20 MUL PUSH1 0x20 ADD DUP3 ADD PUSH1 0x40 MSTORE DUP1 ISZERO PUSH2 0x4FF JUMPI DUP2 PUSH1 0x20 ADD JUMPDEST PUSH2 0x4EC PUSH2 0x2613 JUMP JUMPDEST DUP2 MSTORE PUSH1 0x20 ADD SWAP1 PUSH1 0x1 SWAP1 SUB SWAP1 DUP2 PUSH2 0x4E4 JUMPI SWAP1 POP JUMPDEST POP SWAP1 POP PUSH1 0x0 JUMPDEST DUP3 DUP2 LT ISZERO PUSH2 0x553 JUMPI DUP4 DUP2 DUP2 MLOAD DUP2 LT PUSH2 0x520 JUMPI PUSH2 0x51F PUSH2 0x33E8 JUMP JUMPDEST JUMPDEST PUSH1 0x20 MUL PUSH1 0x20 ADD ADD MLOAD DUP3 DUP3 DUP2 MLOAD DUP2 LT PUSH2 0x53B JUMPI PUSH2 0x53A PUSH2 0x33E8 JUMP JUMPDEST JUMPDEST PUSH1 0x20 MUL PUSH1 0x20 ADD ADD DUP2 SWAP1 MSTORE POP DUP1 DUP1 PUSH1 0x1 ADD SWAP2 POP POP PUSH2 0x505 JUMP JUMPDEST POP DUP1 SWAP4 POP POP POP POP SWAP2 SWAP1 POP JUMP JUMPDEST PUSH1 0x0 DUP1 PUSH1 0x68 PUSH1 0x0 SWAP1 SLOAD SWAP1 PUSH2 0x100 EXP SWAP1 DIV PUSH20 0xFFFFFFFFFFFFFFFFFFFFFFFFFFFFFFFFFFFFFFFF AND PUSH20 0xFFFFFFFFFFFFFFFFFFFFFFFFFFFFFFFFFFFFFFFF AND CALLER PUSH20 0xFFFFFFFFFFFFFFFFFFFFFFFFFFFFFFFFFFFFFFFF AND EQ PUSH2 0x5F2 JUMPI PUSH1 0x40 MLOAD PUSH32 0x8C379A000000000000000000000000000000000000000000000000000000000 DUP2 MSTORE PUSH1 0x4 ADD PUSH2 0x5E9 SWAP1 PUSH2 0x3474 JUMP JUMPDEST PUSH1 0x40 MLOAD DUP1 SWAP2 SUB SWAP1 REVERT JUMPDEST PUSH1 0xA0 PUSH1 0x0 DUP11 DUP2 MSTORE PUSH1 0x20 ADD SWAP1 DUP2 MSTORE PUSH1 0x20 ADD PUSH1 0x0 KECCAK256 PUSH1 0x4 ADD PUSH1 0xC SWAP1 SLOAD SWAP1 PUSH2 0x100 EXP SWAP1 DIV PUSH1 0xFF AND ISZERO PUSH2 0x656 JUMPI PUSH1 0x40 MLOAD PUSH32 0x8C379A000000000000000000000000000000000000000000000000000000000 DUP2 MSTORE PUSH1 0x4 ADD PUSH2 0x64D SWAP1 PUSH2 0x34E0 JUMP JUMPDEST PUSH1 0x40 MLOAD DUP1 SWAP2 SUB SWAP1 REVERT JUMPDEST PUSH1 0x0 PUSH1 0xA0 PUSH1 0x0 DUP12 DUP2 MSTORE PUSH1 0x20 ADD SWAP1 DUP2 MSTORE PUSH1 0x20 ADD PUSH1 0x0 KECCAK256 PUSH1 0x1 ADD PUSH1 0x0 SWAP1 SLOAD SWAP1 PUSH2 0x100 EXP SWAP1 DIV PUSH20 0xFFFFFFFFFFFFFFFFFFFFFFFFFFFFFFFFFFFFFFFF AND SWAP1 POP DUP5 PUSH8 0xFFFFFFFFFFFFFFFF AND PUSH1 0xA0 PUSH1 0x0 DUP13 DUP2 MSTORE PUSH1 0x20 ADD SWAP1 DUP2 MSTORE PUSH1 0x20 ADD PUSH1 0x0 KECCAK256 PUSH1 0x5 ADD PUSH1 0x14 DUP3 DUP3 DUP3 SWAP1 SLOAD SWAP1 PUSH2 0x100 EXP SWAP1 DIV PUSH12 0xFFFFFFFFFFFFFFFFFFFFFFFF AND PUSH2 0x6D8 SWAP2 SWAP1 PUSH2 0x352F JUMP JUMPDEST SWAP3 POP PUSH2 0x100 EXP DUP2 SLOAD DUP2 PUSH12 0xFFFFFFFFFFFFFFFFFFFFFFFF MUL NOT AND SWAP1 DUP4 PUSH12 0xFFFFFFFFFFFFFFFFFFFFFFFF AND MUL OR SWAP1 SSTORE POP PUSH1 0x0 PUSH2 0x71D DUP12 DUP8 PUSH8 0xFFFFFFFFFFFFFFFF AND DUP8 PUSH2 0x1DA2 JUMP JUMPDEST SWAP1 POP PUSH1 0x0 PUSH1 0xA0 PUSH1 0x0 DUP14 DUP2 MSTORE PUSH1 0x20 ADD SWAP1 DUP2 MSTORE PUSH1 0x20 ADD PUSH1 0x0 KECCAK256 PUSH1 0x5 ADD PUSH1 0x14 SWAP1 SLOAD SWAP1 PUSH2 0x100 EXP SWAP1 DIV PUSH12 0xFFFFFFFFFFFFFFFFFFFFFFFF AND PUSH12 0xFFFFFFFFFFFFFFFFFFFFFFFF AND SUB PUSH2 0x7BC JUMPI PUSH1 0x1 PUSH1 0xA0 PUSH1 0x0 DUP14 DUP2 MSTORE PUSH1 0x20 ADD SWAP1 DUP2 MSTORE PUSH1 0x20 ADD PUSH1 0x0 KECCAK256 PUSH1 0x4 ADD PUSH1 0xC PUSH2 0x100 EXP DUP2 SLOAD DUP2 PUSH1 0xFF MUL NOT AND SWAP1 DUP4 ISZERO ISZERO MUL OR SWAP1 SSTORE POP PUSH1 0x0 PUSH1 0xA0 PUSH1 0x0 DUP14 DUP2 MSTORE PUSH1 0x20 ADD SWAP1 DUP2 MSTORE PUSH1 0x20 ADD PUSH1 0x0 KECCAK256 PUSH1 0x3 ADD SLOAD GT ISZERO PUSH2 0x7BB JUMPI PUSH2 0x7BA DUP12 PUSH2 0x1F3D JUMP JUMPDEST JUMPDEST JUMPDEST PUSH1 0x0 DUP2 PUSH1 0x0 ADD MLOAD GT ISZERO PUSH2 0x86F JUMPI DUP2 PUSH20 0xFFFFFFFFFFFFFFFFFFFFFFFFFFFFFFFFFFFFFFFF AND PUSH4 0xA9059CBB PUSH1 0x67 PUSH1 0x0 SWAP1 SLOAD SWAP1 PUSH2 0x100 EXP SWAP1 DIV PUSH20 0xFFFFFFFFFFFFFFFFFFFFFFFFFFFFFFFFFFFFFFFF AND DUP4 PUSH1 0x0 ADD MLOAD PUSH1 0x40 MLOAD DUP4 PUSH4 0xFFFFFFFF AND PUSH1 0xE0 SHL DUP2 MSTORE PUSH1 0x4 ADD PUSH2 0x82A SWAP3 SWAP2 SWAP1 PUSH2 0x356F JUMP JUMPDEST PUSH1 0x20 PUSH1 0x40 MLOAD DUP1 DUP4 SUB DUP2 PUSH1 0x0 DUP8 GAS CALL ISZERO DUP1 ISZERO PUSH2 0x849 JUMPI RETURNDATASIZE PUSH1 0x0 DUP1 RETURNDATACOPY RETURNDATASIZE PUSH1 0x0 REVERT JUMPDEST POP POP POP POP PUSH1 0x40 MLOAD RETURNDATASIZE PUSH1 0x1F NOT PUSH1 0x1F DUP3 ADD AND DUP3 ADD DUP1 PUSH1 0x40 MSTORE POP DUP2 ADD SWAP1 PUSH2 0x86D SWAP2 SWAP1 PUSH2 0x35AD JUMP JUMPDEST POP JUMPDEST DUP2 PUSH20 0xFFFFFFFFFFFFFFFFFFFFFFFFFFFFFFFFFFFFFFFF AND PUSH4 0xA9059CBB DUP9 DUP4 PUSH1 0x20 ADD MLOAD PUSH1 0x40 MLOAD DUP4 PUSH4 0xFFFFFFFF AND PUSH1 0xE0 SHL DUP2 MSTORE PUSH1 0x4 ADD PUSH2 0x8AE SWAP3 SWAP2 SWAP1 PUSH2 0x356F JUMP JUMPDEST PUSH1 0x20 PUSH1 0x40 MLOAD DUP1 DUP4 SUB DUP2 PUSH1 0x0 DUP8 GAS CALL ISZERO DUP1 ISZERO PUSH2 0x8CD JUMPI RETURNDATASIZE PUSH1 0x0 DUP1 RETURNDATACOPY RETURNDATASIZE PUSH1 0x0 REVERT JUMPDEST POP POP POP POP PUSH1 0x40 MLOAD RETURNDATASIZE PUSH1 0x1F NOT PUSH1 0x1F DUP3 ADD AND DUP3 ADD DUP1 PUSH1 0x40 MSTORE POP DUP2 ADD SWAP1 PUSH2 0x8F1 SWAP2 SWAP1 PUSH2 0x35AD JUMP JUMPDEST POP PUSH2 0x902 DUP10 DUP10 DUP5 DUP5 PUSH1 0x40 ADD MLOAD PUSH2 0x2091 JUMP JUMPDEST DUP7 PUSH20 0xFFFFFFFFFFFFFFFFFFFFFFFFFFFFFFFFFFFFFFFF AND DUP12 PUSH32 0xF26DE978CBAEA68EA699627155A10AD53DF3321B0F95A08264C0CFD6D4C05326 DUP15 DUP14 DUP11 PUSH1 0x40 MLOAD PUSH2 0x94D SWAP4 SWAP3 SWAP2 SWAP1 PUSH2 0x3615 JUMP JUMPDEST PUSH1 0x40 MLOAD DUP1 SWAP2 SUB SWAP1 LOG3 DUP11 DUP3 SWAP4 POP SWAP4 POP POP POP SWAP9 POP SWAP9 SWAP7 POP POP POP POP POP POP POP JUMP JUMPDEST PUSH1 0x0 PUSH2 0x979 DUP12 DUP12 DUP7 DUP10 DUP14 PUSH2 0x21DB JUMP JUMPDEST PUSH1 0x65 SLOAD PUSH1 0x66 PUSH1 0x0 SWAP1 SLOAD SWAP1 PUSH2 0x100 EXP SWAP1 DIV PUSH16 0xFFFFFFFFFFFFFFFFFFFFFFFFFFFFFFFF AND PUSH16 0xFFFFFFFFFFFFFFFFFFFFFFFFFFFFFFFF AND DUP12 PUSH2 0x9B8 SWAP2 SWAP1 PUSH2 0x364C JUMP JUMPDEST PUSH2 0x9C2 SWAP2 SWAP1 PUSH2 0x36BD JUMP JUMPDEST DUP6 GT ISZERO PUSH2 0xA04 JUMPI PUSH1 0x40 MLOAD PUSH32 0x8C379A000000000000000000000000000000000000000000000000000000000 DUP2 MSTORE PUSH1 0x4 ADD PUSH2 0x9FB SWAP1 PUSH2 0x373A JUMP JUMPDEST PUSH1 0x40 MLOAD DUP1 SWAP2 SUB SWAP1 REVERT JUMPDEST DUP11 PUSH20 0xFFFFFFFFFFFFFFFFFFFFFFFFFFFFFFFFFFFFFFFF AND PUSH4 0x23B872DD CALLER ADDRESS DUP14 PUSH1 0x40 MLOAD DUP5 PUSH4 0xFFFFFFFF AND PUSH1 0xE0 SHL DUP2 MSTORE PUSH1 0x4 ADD PUSH2 0xA41 SWAP4 SWAP3 SWAP2 SWAP1 PUSH2 0x375A JUMP JUMPDEST PUSH1 0x20 PUSH1 0x40 MLOAD DUP1 DUP4 SUB DUP2 PUSH1 0x0 DUP8 GAS CALL ISZERO DUP1 ISZERO PUSH2 0xA60 JUMPI RETURNDATASIZE PUSH1 0x0 DUP1 RETURNDATACOPY RETURNDATASIZE PUSH1 0x0 REVERT JUMPDEST POP POP POP POP PUSH1 0x40 MLOAD RETURNDATASIZE PUSH1 0x1F NOT PUSH1 0x1F DUP3 ADD AND DUP3 ADD DUP1 PUSH1 0x40 MSTORE POP DUP2 ADD SWAP1 PUSH2 0xA84 SWAP2 SWAP1 PUSH2 0x35AD JUMP JUMPDEST POP PUSH1 0xA1 PUSH1 0x0 CALLER PUSH20 0xFFFFFFFFFFFFFFFFFFFFFFFFFFFFFFFFFFFFFFFF AND PUSH20 0xFFFFFFFFFFFFFFFFFFFFFFFFFFFFFFFFFFFFFFFF AND DUP2 MSTORE PUSH1 0x20 ADD SWAP1 DUP2 MSTORE PUSH1 0x20 ADD PUSH1 0x0 KECCAK256 PUSH1 0x0 DUP2 SLOAD DUP1 SWAP3 SWAP2 SWAP1 PUSH2 0xAD5 SWAP1 PUSH2 0x3791 JUMP JUMPDEST SWAP2 SWAP1 POP SSTORE POP CALLER PUSH1 0xA1 PUSH1 0x0 CALLER PUSH20 0xFFFFFFFFFFFFFFFFFFFFFFFFFFFFFFFFFFFFFFFF AND PUSH20 0xFFFFFFFFFFFFFFFFFFFFFFFFFFFFFFFFFFFFFFFF AND DUP2 MSTORE PUSH1 0x20 ADD SWAP1 DUP2 MSTORE PUSH1 0x20 ADD PUSH1 0x0 KECCAK256 SLOAD PUSH1 0x40 MLOAD PUSH1 0x20 ADD PUSH2 0xB2C SWAP3 SWAP2 SWAP1 PUSH2 0x356F JUMP JUMPDEST PUSH1 0x40 MLOAD PUSH1 0x20 DUP2 DUP4 SUB SUB DUP2 MSTORE SWAP1 PUSH1 0x40 MSTORE DUP1 MLOAD SWAP1 PUSH1 0x20 ADD KECCAK256 SWAP1 POP PUSH1 0x40 MLOAD DUP1 PUSH2 0x120 ADD PUSH1 0x40 MSTORE DUP1 CALLER PUSH20 0xFFFFFFFFFFFFFFFFFFFFFFFFFFFFFFFFFFFFFFFF AND DUP2 MSTORE PUSH1 0x20 ADD DUP13 PUSH20 0xFFFFFFFFFFFFFFFFFFFFFFFFFFFFFFFFFFFFFFFF AND DUP2 MSTORE PUSH1 0x20 ADD DUP8 PUSH20 0xFFFFFFFFFFFFFFFFFFFFFFFFFFFFFFFFFFFFFFFF AND DUP2 MSTORE PUSH1 0x20 ADD DUP7 DUP2 MSTORE PUSH1 0x20 ADD DUP9 PUSH12 0xFFFFFFFFFFFFFFFFFFFFFFFF AND DUP2 MSTORE PUSH1 0x20 ADD PUSH1 0x0 ISZERO ISZERO DUP2 MSTORE PUSH1 0x20 ADD DUP6 PUSH20 0xFFFFFFFFFFFFFFFFFFFFFFFFFFFFFFFFFFFFFFFF AND DUP2 MSTORE PUSH1 0x20 ADD PUSH1 0x65 SLOAD PUSH8 0xFFFFFFFFFFFFFFFF AND PUSH12 0xFFFFFFFFFFFFFFFFFFFFFFFF AND DUP2 MSTORE PUSH1 0x20 ADD DUP12 DUP2 MSTORE POP PUSH1 0xA0 PUSH1 0x0 DUP4 DUP2 MSTORE PUSH1 0x20 ADD SWAP1 DUP2 MSTORE PUSH1 0x20 ADD PUSH1 0x0 KECCAK256 PUSH1 0x0 DUP3 ADD MLOAD DUP2 PUSH1 0x0 ADD PUSH1 0x0 PUSH2 0x100 EXP DUP2 SLOAD DUP2 PUSH20 0xFFFFFFFFFFFFFFFFFFFFFFFFFFFFFFFFFFFFFFFF MUL NOT AND SWAP1 DUP4 PUSH20 0xFFFFFFFFFFFFFFFFFFFFFFFFFFFFFFFFFFFFFFFF AND MUL OR SWAP1 SSTORE POP PUSH1 0x20 DUP3 ADD MLOAD DUP2 PUSH1 0x1 ADD PUSH1 0x0 PUSH2 0x100 EXP DUP2 SLOAD DUP2 PUSH20 0xFFFFFFFFFFFFFFFFFFFFFFFFFFFFFFFFFFFFFFFF MUL NOT AND SWAP1 DUP4 PUSH20 0xFFFFFFFFFFFFFFFFFFFFFFFFFFFFFFFFFFFFFFFF AND MUL OR SWAP1 SSTORE POP PUSH1 0x40 DUP3 ADD MLOAD DUP2 PUSH1 0x2 ADD PUSH1 0x0 PUSH2 0x100 EXP DUP2 SLOAD DUP2 PUSH20 0xFFFFFFFFFFFFFFFFFFFFFFFFFFFFFFFFFFFFFFFF MUL NOT AND SWAP1 DUP4 PUSH20 0xFFFFFFFFFFFFFFFFFFFFFFFFFFFFFFFFFFFFFFFF AND MUL OR SWAP1 SSTORE POP PUSH1 0x60 DUP3 ADD MLOAD DUP2 PUSH1 0x3 ADD SSTORE PUSH1 0x80 DUP3 ADD MLOAD DUP2 PUSH1 0x4 ADD PUSH1 0x0 PUSH2 0x100 EXP DUP2 SLOAD DUP2 PUSH12 0xFFFFFFFFFFFFFFFFFFFFFFFF MUL NOT AND SWAP1 DUP4 PUSH12 0xFFFFFFFFFFFFFFFFFFFFFFFF AND MUL OR SWAP1 SSTORE POP PUSH1 0xA0 DUP3 ADD MLOAD DUP2 PUSH1 0x4 ADD PUSH1 0xC PUSH2 0x100 EXP DUP2 SLOAD DUP2 PUSH1 0xFF MUL NOT AND SWAP1 DUP4 ISZERO ISZERO MUL OR SWAP1 SSTORE POP PUSH1 0xC0 DUP3 ADD MLOAD DUP2 PUSH1 0x5 ADD PUSH1 0x0 PUSH2 0x100 EXP DUP2 SLOAD DUP2 PUSH20 0xFFFFFFFFFFFFFFFFFFFFFFFFFFFFFFFFFFFFFFFF MUL NOT AND SWAP1 DUP4 PUSH20 0xFFFFFFFFFFFFFFFFFFFFFFFFFFFFFFFFFFFFFFFF AND MUL OR SWAP1 SSTORE POP PUSH1 0xE0 DUP3 ADD MLOAD DUP2 PUSH1 0x5 ADD PUSH1 0x14 PUSH2 0x100 EXP DUP2 SLOAD DUP2 PUSH12 0xFFFFFFFFFFFFFFFFFFFFFFFF MUL NOT AND SWAP1 DUP4 PUSH12 0xFFFFFFFFFFFFFFFFFFFFFFFF AND MUL OR SWAP1 SSTORE POP PUSH2 0x100 DUP3 ADD MLOAD DUP2 PUSH1 0x6 ADD SSTORE SWAP1 POP POP DUP1 DUP11 DUP13 PUSH20 0xFFFFFFFFFFFFFFFFFFFFFFFFFFFFFFFFFFFFFFFF AND PUSH32 0x2C205F90C01160D42994A0EB521810056D94BB82A1FCB038D7179C4158A1F15B DUP11 DUP14 DUP14 DUP10 DUP10 PUSH1 0x40 MLOAD PUSH2 0xE2C SWAP6 SWAP5 SWAP4 SWAP3 SWAP2 SWAP1 PUSH2 0x3846 JUMP JUMPDEST PUSH1 0x40 MLOAD DUP1 SWAP2 SUB SWAP1 LOG4 SWAP11 SWAP10 POP POP POP POP POP POP POP POP POP POP JUMP JUMPDEST PUSH2 0xE4A PUSH2 0x23EA JUMP JUMPDEST PUSH1 0x0 DUP2 MLOAD SWAP1 POP PUSH1 0x0 JUMPDEST DUP2 DUP2 LT ISZERO PUSH2 0xF50 JUMPI PUSH1 0x9E PUSH1 0x0 DUP6 DUP2 MSTORE PUSH1 0x20 ADD SWAP1 DUP2 MSTORE PUSH1 0x20 ADD PUSH1 0x0 KECCAK256 DUP4 DUP3 DUP2 MLOAD DUP2 LT PUSH2 0xE81 JUMPI PUSH2 0xE80 PUSH2 0x33E8 JUMP JUMPDEST JUMPDEST PUSH1 0x20 MUL PUSH1 0x20 ADD ADD MLOAD SWAP1 DUP1 PUSH1 0x1 DUP2 SLOAD ADD DUP1 DUP3 SSTORE DUP1 SWAP2 POP POP PUSH1 0x1 SWAP1 SUB SWAP1 PUSH1 0x0 MSTORE PUSH1 0x20 PUSH1 0x0 KECCAK256 SWAP1 PUSH1 0x2 MUL ADD PUSH1 0x0 SWAP1 SWAP2 SWAP1 SWAP2 SWAP1 SWAP2 POP PUSH1 0x0 DUP3 ADD MLOAD DUP2 PUSH1 0x0 ADD SSTORE PUSH1 0x20 DUP3 ADD MLOAD DUP2 PUSH1 0x1 ADD SSTORE POP POP PUSH1 0x40 MLOAD DUP1 PUSH1 0x40 ADD PUSH1 0x40 MSTORE DUP1 DUP5 DUP4 DUP2 MLOAD DUP2 LT PUSH2 0xEE6 JUMPI PUSH2 0xEE5 PUSH2 0x33E8 JUMP JUMPDEST JUMPDEST PUSH1 0x20 MUL PUSH1 0x20 ADD ADD MLOAD PUSH1 0x20 ADD MLOAD DUP2 MSTORE PUSH1 0x20 ADD DUP6 DUP2 MSTORE POP PUSH1 0x9F PUSH1 0x0 DUP6 DUP5 DUP2 MLOAD DUP2 LT PUSH2 0xF12 JUMPI PUSH2 0xF11 PUSH2 0x33E8 JUMP JUMPDEST JUMPDEST PUSH1 0x20 MUL PUSH1 0x20 ADD ADD MLOAD PUSH1 0x0 ADD MLOAD DUP2 MSTORE PUSH1 0x20 ADD SWAP1 DUP2 MSTORE PUSH1 0x20 ADD PUSH1 0x0 KECCAK256 PUSH1 0x0 DUP3 ADD MLOAD DUP2 PUSH1 0x0 ADD SSTORE PUSH1 0x20 DUP3 ADD MLOAD DUP2 PUSH1 0x1 ADD SSTORE SWAP1 POP POP DUP1 DUP1 PUSH1 0x1 ADD SWAP2 POP POP PUSH2 0xE53 JUMP JUMPDEST POP POP POP POP JUMP JUMPDEST PUSH1 0x60 PUSH1 0x69 DUP1 SLOAD PUSH2 0xF65 SWAP1 PUSH2 0x38C3 JUMP JUMPDEST DUP1 PUSH1 0x1F ADD PUSH1 0x20 DUP1 SWAP2 DIV MUL PUSH1 0x20 ADD PUSH1 0x40 MLOAD SWAP1 DUP2 ADD PUSH1 0x40 MSTORE DUP1 SWAP3 SWAP2 SWAP1 DUP2 DUP2 MSTORE PUSH1 0x20 ADD DUP3 DUP1 SLOAD PUSH2 0xF91 SWAP1 PUSH2 0x38C3 JUMP JUMPDEST DUP1 ISZERO PUSH2 0xFDE JUMPI DUP1 PUSH1 0x1F LT PUSH2 0xFB3 JUMPI PUSH2 0x100 DUP1 DUP4 SLOAD DIV MUL DUP4 MSTORE SWAP2 PUSH1 0x20 ADD SWAP2 PUSH2 0xFDE JUMP JUMPDEST DUP3 ADD SWAP2 SWAP1 PUSH1 0x0 MSTORE PUSH1 0x20 PUSH1 0x0 KECCAK256 SWAP1 JUMPDEST DUP2 SLOAD DUP2 MSTORE SWAP1 PUSH1 0x1 ADD SWAP1 PUSH1 0x20 ADD DUP1 DUP4 GT PUSH2 0xFC1 JUMPI DUP3 SWAP1 SUB PUSH1 0x1F AND DUP3 ADD SWAP2 JUMPDEST POP POP POP POP POP SWAP1 POP SWAP1 JUMP JUMPDEST PUSH2 0xFF0 PUSH2 0x23EA JUMP JUMPDEST PUSH2 0xFFA PUSH1 0x0 PUSH2 0x2468 JUMP JUMPDEST JUMP JUMPDEST PUSH1 0x0 PUSH1 0x9C PUSH1 0x0 DUP4 PUSH20 0xFFFFFFFFFFFFFFFFFFFFFFFFFFFFFFFFFFFFFFFF AND PUSH20 0xFFFFFFFFFFFFFFFFFFFFFFFFFFFFFFFFFFFFFFFF AND DUP2 MSTORE PUSH1 0x20 ADD SWAP1 DUP2 MSTORE PUSH1 0x20 ADD PUSH1 0x0 KECCAK256 PUSH1 0x0 SWAP1 SLOAD SWAP1 PUSH2 0x100 EXP SWAP1 DIV PUSH1 0xFF AND SWAP1 POP SWAP2 SWAP1 POP JUMP JUMPDEST PUSH2 0x105A PUSH2 0x2633 JUMP JUMPDEST PUSH1 0xA0 PUSH1 0x0 DUP4 DUP2 MSTORE PUSH1 0x20 ADD SWAP1 DUP2 MSTORE PUSH1 0x20 ADD PUSH1 0x0 KECCAK256 PUSH1 0x40 MLOAD DUP1 PUSH2 0x120 ADD PUSH1 0x40 MSTORE SWAP1 DUP2 PUSH1 0x0 DUP3 ADD PUSH1 0x0 SWAP1 SLOAD SWAP1 PUSH2 0x100 EXP SWAP1 DIV PUSH20 0xFFFFFFFFFFFFFFFFFFFFFFFFFFFFFFFFFFFFFFFF AND PUSH20 0xFFFFFFFFFFFFFFFFFFFFFFFFFFFFFFFFFFFFFFFF AND PUSH20 0xFFFFFFFFFFFFFFFFFFFFFFFFFFFFFFFFFFFFFFFF AND DUP2 MSTORE PUSH1 0x20 ADD PUSH1 0x1 DUP3 ADD PUSH1 0x0 SWAP1 SLOAD SWAP1 PUSH2 0x100 EXP SWAP1 DIV PUSH20 0xFFFFFFFFFFFFFFFFFFFFFFFFFFFFFFFFFFFFFFFF AND PUSH20 0xFFFFFFFFFFFFFFFFFFFFFFFFFFFFFFFFFFFFFFFF AND PUSH20 0xFFFFFFFFFFFFFFFFFFFFFFFFFFFFFFFFFFFFFFFF AND DUP2 MSTORE PUSH1 0x20 ADD PUSH1 0x2 DUP3 ADD PUSH1 0x0 SWAP1 SLOAD SWAP1 PUSH2 0x100 EXP SWAP1 DIV PUSH20 0xFFFFFFFFFFFFFFFFFFFFFFFFFFFFFFFFFFFFFFFF AND PUSH20 0xFFFFFFFFFFFFFFFFFFFFFFFFFFFFFFFFFFFFFFFF AND PUSH20 0xFFFFFFFFFFFFFFFFFFFFFFFFFFFFFFFFFFFFFFFF AND DUP2 MSTORE PUSH1 0x20 ADD PUSH1 0x3 DUP3 ADD SLOAD DUP2 MSTORE PUSH1 0x20 ADD PUSH1 0x4 DUP3 ADD PUSH1 0x0 SWAP1 SLOAD SWAP1 PUSH2 0x100 EXP SWAP1 DIV PUSH12 0xFFFFFFFFFFFFFFFFFFFFFFFF AND PUSH12 0xFFFFFFFFFFFFFFFFFFFFFFFF AND PUSH12 0xFFFFFFFFFFFFFFFFFFFFFFFF AND DUP2 MSTORE PUSH1 0x20 ADD PUSH1 0x4 DUP3 ADD PUSH1 0xC SWAP1 SLOAD SWAP1 PUSH2 0x100 EXP SWAP1 DIV PUSH1 0xFF AND ISZERO ISZERO ISZERO ISZERO DUP2 MSTORE PUSH1 0x20 ADD PUSH1 0x5 DUP3 ADD PUSH1 0x0 SWAP1 SLOAD SWAP1 PUSH2 0x100 EXP SWAP1 DIV PUSH20 0xFFFFFFFFFFFFFFFFFFFFFFFFFFFFFFFFFFFFFFFF AND PUSH20 0xFFFFFFFFFFFFFFFFFFFFFFFFFFFFFFFFFFFFFFFF AND PUSH20 0xFFFFFFFFFFFFFFFFFFFFFFFFFFFFFFFFFFFFFFFF AND DUP2 MSTORE PUSH1 0x20 ADD PUSH1 0x5 DUP3 ADD PUSH1 0x14 SWAP1 SLOAD SWAP1 PUSH2 0x100 EXP SWAP1 DIV PUSH12 0xFFFFFFFFFFFFFFFFFFFFFFFF AND PUSH12 0xFFFFFFFFFFFFFFFFFFFFFFFF AND PUSH12 0xFFFFFFFFFFFFFFFFFFFFFFFF AND DUP2 MSTORE PUSH1 0x20 ADD PUSH1 0x6 DUP3 ADD SLOAD DUP2 MSTORE POP POP SWAP1 POP SWAP2 SWAP1 POP JUMP JUMPDEST PUSH2 0x128B PUSH2 0x23EA JUMP JUMPDEST PUSH1 0x0 PUSH20 0xFFFFFFFFFFFFFFFFFFFFFFFFFFFFFFFFFFFFFFFF AND DUP2 PUSH20 0xFFFFFFFFFFFFFFFFFFFFFFFFFFFFFFFFFFFFFFFF AND SUB PUSH2 0x12FA JUMPI PUSH1 0x40 MLOAD PUSH32 0x8C379A000000000000000000000000000000000000000000000000000000000 DUP2 MSTORE PUSH1 0x4 ADD PUSH2 0x12F1 SWAP1 PUSH2 0x3940 JUMP JUMPDEST PUSH1 0x40 MLOAD DUP1 SWAP2 SUB SWAP1 REVERT JUMPDEST PUSH32 0x6665650000000000000000000000000000000000000000000000000000000000 DUP3 SUB PUSH2 0x1363 JUMPI DUP1 PUSH1 0x67 PUSH1 0x0 PUSH2 0x100 EXP DUP2 SLOAD DUP2 PUSH20 0xFFFFFFFFFFFFFFFFFFFFFFFFFFFFFFFFFFFFFFFF MUL NOT AND SWAP1 DUP4 PUSH20 0xFFFFFFFFFFFFFFFFFFFFFFFFFFFFFFFFFFFFFFFF AND MUL OR SWAP1 SSTORE POP JUMPDEST PUSH32 0x61676772656761746F7200000000000000000000000000000000000000000000 DUP3 SUB PUSH2 0x13CC JUMPI DUP1 PUSH1 0x68 PUSH1 0x0 PUSH2 0x100 EXP DUP2 SLOAD DUP2 PUSH20 0xFFFFFFFFFFFFFFFFFFFFFFFFFFFFFFFFFFFFFFFF MUL NOT AND SWAP1 DUP4 PUSH20 0xFFFFFFFFFFFFFFFFFFFFFFFFFFFFFFFFFFFFFFFF AND MUL OR SWAP1 SSTORE POP JUMPDEST POP POP JUMP JUMPDEST PUSH2 0x13D8 PUSH2 0x26F5 JUMP JUMPDEST PUSH1 0x9F PUSH1 0x0 DUP4 DUP2 MSTORE PUSH1 0x20 ADD SWAP1 DUP2 MSTORE PUSH1 0x20 ADD PUSH1 0x0 KECCAK256 PUSH1 0x40 MLOAD DUP1 PUSH1 0x40 ADD PUSH1 0x40 MSTORE SWAP1 DUP2 PUSH1 0x0 DUP3 ADD SLOAD DUP2 MSTORE PUSH1 0x20 ADD PUSH1 0x1 DUP3 ADD SLOAD DUP2 MSTORE POP POP SWAP1 POP SWAP2 SWAP1 POP JUMP JUMPDEST PUSH1 0x0 PUSH1 0x33 PUSH1 0x0 SWAP1 SLOAD SWAP1 PUSH2 0x100 EXP SWAP1 DIV PUSH20 0xFFFFFFFFFFFFFFFFFFFFFFFFFFFFFFFFFFFFFFFF AND SWAP1 POP SWAP1 JUMP JUMPDEST PUSH2 0x1443 PUSH2 0x23EA JUMP JUMPDEST PUSH1 0x0 PUSH20 0xFFFFFFFFFFFFFFFFFFFFFFFFFFFFFFFFFFFFFFFF AND DUP3 PUSH20 0xFFFFFFFFFFFFFFFFFFFFFFFFFFFFFFFFFFFFFFFF AND SUB PUSH2 0x14B2 JUMPI PUSH1 0x40 MLOAD PUSH32 0x8C379A000000000000000000000000000000000000000000000000000000000 DUP2 MSTORE PUSH1 0x4 ADD PUSH2 0x14A9 SWAP1 PUSH2 0x3940 JUMP JUMPDEST PUSH1 0x40 MLOAD DUP1 SWAP2 SUB SWAP1 REVERT JUMPDEST PUSH32 0x746F6B656E000000000000000000000000000000000000000000000000000000 DUP4 SUB PUSH2 0x1531 JUMPI DUP1 PUSH1 0x9C PUSH1 0x0 DUP5 PUSH20 0xFFFFFFFFFFFFFFFFFFFFFFFFFFFFFFFFFFFFFFFF AND PUSH20 0xFFFFFFFFFFFFFFFFFFFFFFFFFFFFFFFFFFFFFFFF AND DUP2 MSTORE PUSH1 0x20 ADD SWAP1 DUP2 MSTORE PUSH1 0x20 ADD PUSH1 0x0 KECCAK256 PUSH1 0x0 PUSH2 0x100 EXP DUP2 SLOAD DUP2 PUSH1 0xFF MUL NOT AND SWAP1 DUP4 ISZERO ISZERO MUL OR SWAP1 SSTORE POP JUMPDEST PUSH32 0x77686974656C6973740000000000000000000000000000000000000000000000 DUP4 SUB PUSH2 0x15B0 JUMPI DUP1 PUSH1 0x9D PUSH1 0x0 DUP5 PUSH20 0xFFFFFFFFFFFFFFFFFFFFFFFFFFFFFFFFFFFFFFFF AND PUSH20 0xFFFFFFFFFFFFFFFFFFFFFFFFFFFFFFFFFFFFFFFF AND DUP2 MSTORE PUSH1 0x20 ADD SWAP1 DUP2 MSTORE PUSH1 0x20 ADD PUSH1 0x0 KECCAK256 PUSH1 0x0 PUSH2 0x100 EXP DUP2 SLOAD DUP2 PUSH1 0xFF MUL NOT AND SWAP1 DUP4 ISZERO ISZERO MUL OR SWAP1 SSTORE POP JUMPDEST PUSH32 0xE22CADCC5DDBC0A185E8920EAA6825BCC06DCD6B432988E7E9912CAA59ACE930 DUP4 DUP4 DUP4 PUSH1 0x40 MLOAD PUSH2 0x15E3 SWAP4 SWAP3 SWAP2 SWAP1 PUSH2 0x3960 JUMP JUMPDEST PUSH1 0x40 MLOAD DUP1 SWAP2 SUB SWAP1 LOG1 POP POP POP JUMP JUMPDEST PUSH1 0x0 DUP1 PUSH1 0x0 PUSH1 0x66 PUSH1 0x0 SWAP1 SLOAD SWAP1 PUSH2 0x100 EXP SWAP1 DIV PUSH16 0xFFFFFFFFFFFFFFFFFFFFFFFFFFFFFFFF AND PUSH1 0x66 PUSH1 0x10 SWAP1 SLOAD SWAP1 PUSH2 0x100 EXP SWAP1 DIV PUSH16 0xFFFFFFFFFFFFFFFFFFFFFFFFFFFFFFFF AND PUSH1 0x65 SLOAD SWAP3 POP SWAP3 POP SWAP3 POP SWAP1 SWAP2 SWAP3 JUMP JUMPDEST PUSH1 0x0 DUP1 PUSH1 0x1 SWAP1 SLOAD SWAP1 PUSH2 0x100 EXP SWAP1 DIV PUSH1 0xFF AND ISZERO SWAP1 POP DUP1 DUP1 ISZERO PUSH2 0x1672 JUMPI POP PUSH1 0x1 PUSH1 0x0 DUP1 SLOAD SWAP1 PUSH2 0x100 EXP SWAP1 DIV PUSH1 0xFF AND PUSH1 0xFF AND LT JUMPDEST DUP1 PUSH2 0x169F JUMPI POP PUSH2 0x1681 ADDRESS PUSH2 0x252E JUMP JUMPDEST ISZERO DUP1 ISZERO PUSH2 0x169E JUMPI POP PUSH1 0x1 PUSH1 0x0 DUP1 SLOAD SWAP1 PUSH2 0x100 EXP SWAP1 DIV PUSH1 0xFF AND PUSH1 0xFF AND EQ JUMPDEST JUMPDEST PUSH2 0x16DE JUMPI PUSH1 0x40 MLOAD PUSH32 0x8C379A000000000000000000000000000000000000000000000000000000000 DUP2 MSTORE PUSH1 0x4 ADD PUSH2 0x16D5 SWAP1 PUSH2 0x3A09 JUMP JUMPDEST PUSH1 0x40 MLOAD DUP1 SWAP2 SUB SWAP1 REVERT JUMPDEST PUSH1 0x1 PUSH1 0x0 DUP1 PUSH2 0x100 EXP DUP2 SLOAD DUP2 PUSH1 0xFF MUL NOT AND SWAP1 DUP4 PUSH1 0xFF AND MUL OR SWAP1 SSTORE POP DUP1 ISZERO PUSH2 0x171B JUMPI PUSH1 0x1 PUSH1 0x0 PUSH1 0x1 PUSH2 0x100 EXP DUP2 SLOAD DUP2 PUSH1 0xFF MUL NOT AND SWAP1 DUP4 ISZERO ISZERO MUL OR SWAP1 SSTORE POP JUMPDEST PUSH1 0x1 PUSH1 0x9C PUSH1 0x0 DUP5 PUSH20 0xFFFFFFFFFFFFFFFFFFFFFFFFFFFFFFFFFFFFFFFF AND PUSH20 0xFFFFFFFFFFFFFFFFFFFFFFFFFFFFFFFFFFFFFFFF AND DUP2 MSTORE PUSH1 0x20 ADD SWAP1 DUP2 MSTORE PUSH1 0x20 ADD PUSH1 0x0 KECCAK256 PUSH1 0x0 PUSH2 0x100 EXP DUP2 SLOAD DUP2 PUSH1 0xFF MUL NOT AND SWAP1 DUP4 ISZERO ISZERO MUL OR SWAP1 SSTORE POP PUSH3 0x186A0 PUSH1 0x65 DUP2 SWAP1 SSTORE POP PUSH2 0x1388 PUSH1 0x66 PUSH1 0x0 PUSH2 0x100 EXP DUP2 SLOAD DUP2 PUSH16 0xFFFFFFFFFFFFFFFFFFFFFFFFFFFFFFFF MUL NOT AND SWAP1 DUP4 PUSH16 0xFFFFFFFFFFFFFFFFFFFFFFFFFFFFFFFF AND MUL OR SWAP1 SSTORE POP PUSH2 0x1F4 PUSH1 0x66 PUSH1 0x10 PUSH2 0x100 EXP DUP2 SLOAD DUP2 PUSH16 0xFFFFFFFFFFFFFFFFFFFFFFFFFFFFFFFF MUL NOT AND SWAP1 DUP4 PUSH16 0xFFFFFFFFFFFFFFFFFFFFFFFFFFFFFFFF AND MUL OR SWAP1 SSTORE POP PUSH2 0x17FB PUSH2 0x2551 JUMP JUMPDEST DUP1 ISZERO PUSH2 0x1854 JUMPI PUSH1 0x0 DUP1 PUSH1 0x1 PUSH2 0x100 EXP DUP2 SLOAD DUP2 PUSH1 0xFF MUL NOT AND SWAP1 DUP4 ISZERO ISZERO MUL OR SWAP1 SSTORE POP PUSH32 0x7F26B83FF96E1F2B6A682F133852F6798A09C465DA95921460CEFB3847402498 PUSH1 0x1 PUSH1 0x40 MLOAD PUSH2 0x184B SWAP2 SWAP1 PUSH2 0x3A71 JUMP JUMPDEST PUSH1 0x40 MLOAD DUP1 SWAP2 SUB SWAP1 LOG1 JUMPDEST POP POP JUMP JUMPDEST PUSH2 0x1860 PUSH2 0x23EA JUMP JUMPDEST DUP2 DUP2 PUSH1 0x69 SWAP2 DUP3 PUSH2 0x1871 SWAP3 SWAP2 SWAP1 PUSH2 0x3C39 JUMP JUMPDEST POP PUSH32 0x6A6600B7242975868D8321B5E64D0C9F2FCC92EB1AF72254A6357BE77EE7DCEF DUP3 DUP3 PUSH1 0x40 MLOAD PUSH2 0x18A3 SWAP3 SWAP2 SWAP1 PUSH2 0x3D36 JUMP JUMPDEST PUSH1 0x40 MLOAD DUP1 SWAP2 SUB SWAP1 LOG1 POP POP JUMP JUMPDEST PUSH1 0x0 PUSH1 0x9D PUSH1 0x0 DUP4 PUSH20 0xFFFFFFFFFFFFFFFFFFFFFFFFFFFFFFFFFFFFFFFF AND PUSH20 0xFFFFFFFFFFFFFFFFFFFFFFFFFFFFFFFFFFFFFFFF AND DUP2 MSTORE PUSH1 0x20 ADD SWAP1 DUP2 MSTORE PUSH1 0x20 ADD PUSH1 0x0 KECCAK256 PUSH1 0x0 SWAP1 SLOAD SWAP1 PUSH2 0x100 EXP SWAP1 DIV PUSH1 0xFF AND SWAP1 POP SWAP2 SWAP1 POP JUMP JUMPDEST PUSH2 0x190D PUSH2 0x23EA JUMP JUMPDEST DUP3 PUSH20 0xFFFFFFFFFFFFFFFFFFFFFFFFFFFFFFFFFFFFFFFF AND PUSH4 0xA9059CBB DUP4 DUP4 PUSH1 0x40 MLOAD DUP4 PUSH4 0xFFFFFFFF AND PUSH1 0xE0 SHL DUP2 MSTORE PUSH1 0x4 ADD PUSH2 0x1948 SWAP3 SWAP2 SWAP1 PUSH2 0x356F JUMP JUMPDEST PUSH1 0x20 PUSH1 0x40 MLOAD DUP1 DUP4 SUB DUP2 PUSH1 0x0 DUP8 GAS CALL ISZERO DUP1 ISZERO PUSH2 0x1967 JUMPI RETURNDATASIZE PUSH1 0x0 DUP1 RETURNDATACOPY RETURNDATASIZE PUSH1 0x0 REVERT JUMPDEST POP POP POP POP PUSH1 0x40 MLOAD RETURNDATASIZE PUSH1 0x1F NOT PUSH1 0x1F DUP3 ADD AND DUP3 ADD DUP1 PUSH1 0x40 MSTORE POP DUP2 ADD SWAP1 PUSH2 0x198B SWAP2 SWAP1 PUSH2 0x35AD JUMP JUMPDEST POP POP POP POP JUMP JUMPDEST PUSH1 0x0 PUSH1 0x68 PUSH1 0x0 SWAP1 SLOAD SWAP1 PUSH2 0x100 EXP SWAP1 DIV PUSH20 0xFFFFFFFFFFFFFFFFFFFFFFFFFFFFFFFFFFFFFFFF AND PUSH20 0xFFFFFFFFFFFFFFFFFFFFFFFFFFFFFFFFFFFFFFFF AND CALLER PUSH20 0xFFFFFFFFFFFFFFFFFFFFFFFFFFFFFFFFFFFFFFFF AND EQ PUSH2 0x1A23 JUMPI PUSH1 0x40 MLOAD PUSH32 0x8C379A000000000000000000000000000000000000000000000000000000000 DUP2 MSTORE PUSH1 0x4 ADD PUSH2 0x1A1A SWAP1 PUSH2 0x3474 JUMP JUMPDEST PUSH1 0x40 MLOAD DUP1 SWAP2 SUB SWAP1 REVERT JUMPDEST PUSH1 0xA0 PUSH1 0x0 DUP5 DUP2 MSTORE PUSH1 0x20 ADD SWAP1 DUP2 MSTORE PUSH1 0x20 ADD PUSH1 0x0 KECCAK256 PUSH1 0x4 ADD PUSH1 0xC SWAP1 SLOAD SWAP1 PUSH2 0x100 EXP SWAP1 DIV PUSH1 0xFF AND ISZERO PUSH2 0x1A87 JUMPI PUSH1 0x40 MLOAD PUSH32 0x8C379A000000000000000000000000000000000000000000000000000000000 DUP2 MSTORE PUSH1 0x4 ADD PUSH2 0x1A7E SWAP1 PUSH2 0x34E0 JUMP JUMPDEST PUSH1 0x40 MLOAD DUP1 SWAP2 SUB SWAP1 REVERT JUMPDEST PUSH1 0x1 PUSH1 0xA0 PUSH1 0x0 DUP6 DUP2 MSTORE PUSH1 0x20 ADD SWAP1 DUP2 MSTORE PUSH1 0x20 ADD PUSH1 0x0 KECCAK256 PUSH1 0x4 ADD PUSH1 0xC PUSH2 0x100 EXP DUP2 SLOAD DUP2 PUSH1 0xFF MUL NOT AND SWAP1 DUP4 ISZERO ISZERO MUL OR SWAP1 SSTORE POP PUSH1 0x0 PUSH1 0xA0 PUSH1 0x0 DUP6 DUP2 MSTORE PUSH1 0x20 ADD SWAP1 DUP2 MSTORE PUSH1 0x20 ADD PUSH1 0x0 KECCAK256 PUSH1 0x5 ADD PUSH1 0x14 PUSH2 0x100 EXP DUP2 SLOAD DUP2 PUSH12 0xFFFFFFFFFFFFFFFFFFFFFFFF MUL NOT AND SWAP1 DUP4 PUSH12 0xFFFFFFFFFFFFFFFFFFFFFFFF AND MUL OR SWAP1 SSTORE POP PUSH1 0xA0 PUSH1 0x0 DUP5 DUP2 MSTORE PUSH1 0x20 ADD SWAP1 DUP2 MSTORE PUSH1 0x20 ADD PUSH1 0x0 KECCAK256 PUSH1 0x1 ADD PUSH1 0x0 SWAP1 SLOAD SWAP1 PUSH2 0x100 EXP SWAP1 DIV PUSH20 0xFFFFFFFFFFFFFFFFFFFFFFFFFFFFFFFFFFFFFFFF AND PUSH20 0xFFFFFFFFFFFFFFFFFFFFFFFFFFFFFFFFFFFFFFFF AND PUSH4 0xA9059CBB PUSH1 0xA0 PUSH1 0x0 DUP7 DUP2 MSTORE PUSH1 0x20 ADD SWAP1 DUP2 MSTORE PUSH1 0x20 ADD PUSH1 0x0 KECCAK256 PUSH1 0x5 ADD PUSH1 0x0 SWAP1 SLOAD SWAP1 PUSH2 0x100 EXP SWAP1 DIV PUSH20 0xFFFFFFFFFFFFFFFFFFFFFFFFFFFFFFFFFFFFFFFF AND PUSH1 0xA0 PUSH1 0x0 DUP8 DUP2 MSTORE PUSH1 0x20 ADD SWAP1 DUP2 MSTORE PUSH1 0x20 ADD PUSH1 0x0 KECCAK256 PUSH1 0x6 ADD SLOAD PUSH1 0x40 MLOAD DUP4 PUSH4 0xFFFFFFFF AND PUSH1 0xE0 SHL DUP2 MSTORE PUSH1 0x4 ADD PUSH2 0x1BB9 SWAP3 SWAP2 SWAP1 PUSH2 0x356F JUMP JUMPDEST PUSH1 0x20 PUSH1 0x40 MLOAD DUP1 DUP4 SUB DUP2 PUSH1 0x0 DUP8 GAS CALL ISZERO DUP1 ISZERO PUSH2 0x1BD8 JUMPI RETURNDATASIZE PUSH1 0x0 DUP1 RETURNDATACOPY RETURNDATASIZE PUSH1 0x0 REVERT JUMPDEST POP POP POP POP PUSH1 0x40 MLOAD RETURNDATASIZE PUSH1 0x1F NOT PUSH1 0x1F DUP3 ADD AND DUP3 ADD DUP1 PUSH1 0x40 MSTORE POP DUP2 ADD SWAP1 PUSH2 0x1BFC SWAP2 SWAP1 PUSH2 0x35AD JUMP JUMPDEST POP DUP3 PUSH31 0x7C875846B687732A7579C19BB1DADE66CD14E9F4F809565E2B2B5E76C72B4F DUP4 PUSH1 0x40 MLOAD PUSH2 0x1C2C SWAP2 SWAP1 PUSH2 0x2CBB JUMP JUMPDEST PUSH1 0x40 MLOAD DUP1 SWAP2 SUB SWAP1 LOG2 PUSH1 0x1 SWAP1 POP SWAP3 SWAP2 POP POP JUMP JUMPDEST PUSH1 0x0 PUSH1 0x68 PUSH1 0x0 SWAP1 SLOAD SWAP1 PUSH2 0x100 EXP SWAP1 DIV PUSH20 0xFFFFFFFFFFFFFFFFFFFFFFFFFFFFFFFFFFFFFFFF AND SWAP1 POP SWAP1 JUMP JUMPDEST PUSH2 0x1C70 PUSH2 0x23EA JUMP JUMPDEST PUSH1 0x0 PUSH20 0xFFFFFFFFFFFFFFFFFFFFFFFFFFFFFFFFFFFFFFFF AND DUP2 PUSH20 0xFFFFFFFFFFFFFFFFFFFFFFFFFFFFFFFFFFFFFFFF AND SUB PUSH2 0x1CDF JUMPI PUSH1 0x40 MLOAD PUSH32 0x8C379A000000000000000000000000000000000000000000000000000000000 DUP2 MSTORE PUSH1 0x4 ADD PUSH2 0x1CD6 SWAP1 PUSH2 0x3DCC JUMP JUMPDEST PUSH1 0x40 MLOAD DUP1 SWAP2 SUB SWAP1 REVERT JUMPDEST PUSH2 0x1CE8 DUP2 PUSH2 0x2468 JUMP JUMPDEST POP JUMP JUMPDEST PUSH2 0x1CF3 PUSH2 0x23EA JUMP JUMPDEST DUP2 PUSH1 0x66 PUSH1 0x0 PUSH2 0x100 EXP DUP2 SLOAD DUP2 PUSH16 0xFFFFFFFFFFFFFFFFFFFFFFFFFFFFFFFF MUL NOT AND SWAP1 DUP4 PUSH16 0xFFFFFFFFFFFFFFFFFFFFFFFFFFFFFFFF AND MUL OR SWAP1 SSTORE POP DUP1 PUSH1 0x66 PUSH1 0x10 PUSH2 0x100 EXP DUP2 SLOAD DUP2 PUSH16 0xFFFFFFFFFFFFFFFFFFFFFFFFFFFFFFFF MUL NOT AND SWAP1 DUP4 PUSH16 0xFFFFFFFFFFFFFFFFFFFFFFFFFFFFFFFF AND MUL OR SWAP1 SSTORE POP PUSH32 0xE38926C5806B98A6FD00C5D791A36FBD196537FE48D11C45C9F1D0ACD1EA74DF DUP3 DUP3 PUSH1 0x40 MLOAD PUSH2 0x1D96 SWAP3 SWAP2 SWAP1 PUSH2 0x3DEC JUMP JUMPDEST PUSH1 0x40 MLOAD DUP1 SWAP2 SUB SWAP1 LOG1 POP POP JUMP JUMPDEST PUSH2 0x1DAA PUSH2 0x2715 JUMP JUMPDEST PUSH1 0x0 PUSH1 0xA0 PUSH1 0x0 DUP7 DUP2 MSTORE PUSH1 0x20 ADD SWAP1 DUP2 MSTORE PUSH1 0x20 ADD PUSH1 0x0 KECCAK256 PUSH1 0x6 ADD SLOAD SWAP1 POP PUSH1 0xA0 PUSH1 0x0 DUP7 DUP2 MSTORE PUSH1 0x20 ADD SWAP1 DUP2 MSTORE PUSH1 0x20 ADD PUSH1 0x0 KECCAK256 PUSH1 0x3 ADD SLOAD DUP2 PUSH2 0x1DE7 SWAP2 SWAP1 PUSH2 0x3E15 JUMP JUMPDEST SWAP1 POP PUSH1 0x65 SLOAD DUP5 PUSH12 0xFFFFFFFFFFFFFFFFFFFFFFFF AND DUP3 PUSH2 0x1E06 SWAP2 SWAP1 PUSH2 0x364C JUMP JUMPDEST PUSH2 0x1E10 SWAP2 SWAP1 PUSH2 0x36BD JUMP JUMPDEST DUP3 PUSH1 0x20 ADD DUP2 DUP2 MSTORE POP POP PUSH1 0x65 SLOAD PUSH1 0x66 PUSH1 0x0 SWAP1 SLOAD SWAP1 PUSH2 0x100 EXP SWAP1 DIV PUSH16 0xFFFFFFFFFFFFFFFFFFFFFFFFFFFFFFFF AND PUSH16 0xFFFFFFFFFFFFFFFFFFFFFFFFFFFFFFFF AND DUP4 PUSH1 0x20 ADD MLOAD PUSH2 0x1E5C SWAP2 SWAP1 PUSH2 0x364C JUMP JUMPDEST PUSH2 0x1E66 SWAP2 SWAP1 PUSH2 0x36BD JUMP JUMPDEST DUP3 PUSH1 0x0 ADD DUP2 DUP2 MSTORE POP POP DUP2 PUSH1 0x0 ADD MLOAD DUP3 PUSH1 0x20 ADD MLOAD PUSH2 0x1E83 SWAP2 SWAP1 PUSH2 0x3E15 JUMP JUMPDEST DUP3 PUSH1 0x20 ADD DUP2 DUP2 MSTORE POP POP PUSH1 0x65 SLOAD PUSH1 0x66 PUSH1 0x10 SWAP1 SLOAD SWAP1 PUSH2 0x100 EXP SWAP1 DIV PUSH16 0xFFFFFFFFFFFFFFFFFFFFFFFFFFFFFFFF AND PUSH16 0xFFFFFFFFFFFFFFFFFFFFFFFFFFFFFFFF AND DUP4 PUSH1 0x0 ADD MLOAD PUSH2 0x1ECF SWAP2 SWAP1 PUSH2 0x364C JUMP JUMPDEST PUSH2 0x1ED9 SWAP2 SWAP1 PUSH2 0x36BD JUMP JUMPDEST DUP3 PUSH1 0x40 ADD DUP2 DUP2 MSTORE POP POP PUSH1 0x0 DUP3 PUSH1 0x40 ADD MLOAD DUP4 PUSH1 0x0 ADD MLOAD PUSH2 0x1EF8 SWAP2 SWAP1 PUSH2 0x3E15 JUMP JUMPDEST SWAP1 POP DUP4 ISZERO PUSH2 0x1F29 JUMPI DUP1 DUP4 PUSH1 0x20 ADD DUP2 DUP2 MLOAD PUSH2 0x1F12 SWAP2 SWAP1 PUSH2 0x3E49 JUMP JUMPDEST SWAP2 POP DUP2 DUP2 MSTORE POP POP PUSH1 0x0 DUP4 PUSH1 0x0 ADD DUP2 DUP2 MSTORE POP POP PUSH2 0x1F34 JUMP JUMPDEST DUP1 DUP4 PUSH1 0x0 ADD DUP2 DUP2 MSTORE POP POP JUMPDEST POP POP SWAP4 SWAP3 POP POP POP JUMP JUMPDEST PUSH1 0x0 PUSH1 0xA0 PUSH1 0x0 DUP4 DUP2 MSTORE PUSH1 0x20 ADD SWAP1 DUP2 MSTORE PUSH1 0x20 ADD PUSH1 0x0 KECCAK256 PUSH1 0x2 ADD PUSH1 0x0 SWAP1 SLOAD SWAP1 PUSH2 0x100 EXP SWAP1 DIV PUSH20 0xFFFFFFFFFFFFFFFFFFFFFFFFFFFFFFFFFFFFFFFF AND SWAP1 POP PUSH1 0x0 PUSH1 0xA0 PUSH1 0x0 DUP5 DUP2 MSTORE PUSH1 0x20 ADD SWAP1 DUP2 MSTORE PUSH1 0x20 ADD PUSH1 0x0 KECCAK256 PUSH1 0x3 ADD SLOAD SWAP1 POP PUSH1 0xA0 PUSH1 0x0 DUP5 DUP2 MSTORE PUSH1 0x20 ADD SWAP1 DUP2 MSTORE PUSH1 0x20 ADD PUSH1 0x0 KECCAK256 PUSH1 0x1 ADD PUSH1 0x0 SWAP1 SLOAD SWAP1 PUSH2 0x100 EXP SWAP1 DIV PUSH20 0xFFFFFFFFFFFFFFFFFFFFFFFFFFFFFFFFFFFFFFFF AND PUSH20 0xFFFFFFFFFFFFFFFFFFFFFFFFFFFFFFFFFFFFFFFF AND PUSH4 0xA9059CBB DUP4 DUP4 PUSH1 0x40 MLOAD DUP4 PUSH4 0xFFFFFFFF AND PUSH1 0xE0 SHL DUP2 MSTORE PUSH1 0x4 ADD PUSH2 0x2004 SWAP3 SWAP2 SWAP1 PUSH2 0x356F JUMP JUMPDEST PUSH1 0x20 PUSH1 0x40 MLOAD DUP1 DUP4 SUB DUP2 PUSH1 0x0 DUP8 GAS CALL ISZERO DUP1 ISZERO PUSH2 0x2023 JUMPI RETURNDATASIZE PUSH1 0x0 DUP1 RETURNDATACOPY RETURNDATASIZE PUSH1 0x0 REVERT JUMPDEST POP POP POP POP PUSH1 0x40 MLOAD RETURNDATASIZE PUSH1 0x1F NOT PUSH1 0x1F DUP3 ADD AND DUP3 ADD DUP1 PUSH1 0x40 MSTORE POP DUP2 ADD SWAP1 PUSH2 0x2047 SWAP2 SWAP1 PUSH2 0x35AD JUMP JUMPDEST POP DUP1 DUP3 PUSH20 0xFFFFFFFFFFFFFFFFFFFFFFFFFFFFFFFFFFFFFFFF AND PUSH32 0x96C76D5AEC8A8C11A9C8E02768E3FA309347330D08961E0CF9FD43B349B684C2 PUSH1 0x40 MLOAD PUSH1 0x40 MLOAD DUP1 SWAP2 SUB SWAP1 LOG3 POP POP POP JUMP JUMPDEST PUSH1 0x0 DUP5 DUP5 SWAP1 POP SWAP1 POP PUSH1 0x0 DUP2 DUP4 PUSH2 0x20A7 SWAP2 SWAP1 PUSH2 0x36BD JUMP JUMPDEST SWAP1 POP PUSH1 0x0 JUMPDEST DUP3 DUP2 LT ISZERO PUSH2 0x21D2 JUMPI DUP5 PUSH20 0xFFFFFFFFFFFFFFFFFFFFFFFFFFFFFFFFFFFFFFFF AND PUSH4 0xA9059CBB DUP9 DUP9 DUP5 DUP2 DUP2 LT PUSH2 0x20E3 JUMPI PUSH2 0x20E2 PUSH2 0x33E8 JUMP JUMPDEST JUMPDEST SWAP1 POP PUSH1 0x20 MUL ADD PUSH1 0x20 DUP2 ADD SWAP1 PUSH2 0x20F8 SWAP2 SWAP1 PUSH2 0x2F77 JUMP JUMPDEST DUP5 PUSH1 0x40 MLOAD DUP4 PUSH4 0xFFFFFFFF AND PUSH1 0xE0 SHL DUP2 MSTORE PUSH1 0x4 ADD PUSH2 0x2116 SWAP3 SWAP2 SWAP1 PUSH2 0x356F JUMP JUMPDEST PUSH1 0x20 PUSH1 0x40 MLOAD DUP1 DUP4 SUB DUP2 PUSH1 0x0 DUP8 GAS CALL ISZERO DUP1 ISZERO PUSH2 0x2135 JUMPI RETURNDATASIZE PUSH1 0x0 DUP1 RETURNDATACOPY RETURNDATASIZE PUSH1 0x0 REVERT JUMPDEST POP POP POP POP PUSH1 0x40 MLOAD RETURNDATASIZE PUSH1 0x1F NOT PUSH1 0x1F DUP3 ADD AND DUP3 ADD DUP1 PUSH1 0x40 MSTORE POP DUP2 ADD SWAP1 PUSH2 0x2159 SWAP2 SWAP1 PUSH2 0x35AD JUMP JUMPDEST POP DUP2 DUP8 DUP8 DUP4 DUP2 DUP2 LT PUSH2 0x216E JUMPI PUSH2 0x216D PUSH2 0x33E8 JUMP JUMPDEST JUMPDEST SWAP1 POP PUSH1 0x20 MUL ADD PUSH1 0x20 DUP2 ADD SWAP1 PUSH2 0x2183 SWAP2 SWAP1 PUSH2 0x2F77 JUMP JUMPDEST PUSH20 0xFFFFFFFFFFFFFFFFFFFFFFFFFFFFFFFFFFFFFFFF AND PUSH32 0x61DCEB70B8F97239C33A3F9C0D0EFC6C8759C7E9A808F75DD42B3A0F213186C2 PUSH1 0x40 MLOAD PUSH1 0x40 MLOAD DUP1 SWAP2 SUB SWAP1 LOG3 DUP1 DUP1 PUSH1 0x1 ADD SWAP2 POP POP PUSH2 0x20AC JUMP JUMPDEST POP POP POP POP POP POP POP JUMP JUMPDEST PUSH1 0x9C PUSH1 0x0 DUP7 PUSH20 0xFFFFFFFFFFFFFFFFFFFFFFFFFFFFFFFFFFFFFFFF AND PUSH20 0xFFFFFFFFFFFFFFFFFFFFFFFFFFFFFFFFFFFFFFFF AND DUP2 MSTORE PUSH1 0x20 ADD SWAP1 DUP2 MSTORE PUSH1 0x20 ADD PUSH1 0x0 KECCAK256 PUSH1 0x0 SWAP1 SLOAD SWAP1 PUSH2 0x100 EXP SWAP1 DIV PUSH1 0xFF AND PUSH2 0x2267 JUMPI PUSH1 0x40 MLOAD PUSH32 0x8C379A000000000000000000000000000000000000000000000000000000000 DUP2 MSTORE PUSH1 0x4 ADD PUSH2 0x225E SWAP1 PUSH2 0x3EC9 JUMP JUMPDEST PUSH1 0x40 MLOAD DUP1 SWAP2 SUB SWAP1 REVERT JUMPDEST PUSH1 0x0 DUP5 GT PUSH2 0x22AA JUMPI PUSH1 0x40 MLOAD PUSH32 0x8C379A000000000000000000000000000000000000000000000000000000000 DUP2 MSTORE PUSH1 0x4 ADD PUSH2 0x22A1 SWAP1 PUSH2 0x3F35 JUMP JUMPDEST PUSH1 0x40 MLOAD DUP1 SWAP2 SUB SWAP1 REVERT JUMPDEST PUSH1 0x0 PUSH20 0xFFFFFFFFFFFFFFFFFFFFFFFFFFFFFFFFFFFFFFFF AND DUP4 PUSH20 0xFFFFFFFFFFFFFFFFFFFFFFFFFFFFFFFFFFFFFFFF AND SUB PUSH2 0x2319 JUMPI PUSH1 0x40 MLOAD PUSH32 0x8C379A000000000000000000000000000000000000000000000000000000000 DUP2 MSTORE PUSH1 0x4 ADD PUSH2 0x2310 SWAP1 PUSH2 0x3FA1 JUMP JUMPDEST PUSH1 0x40 MLOAD DUP1 SWAP2 SUB SWAP1 REVERT JUMPDEST PUSH1 0x0 PUSH20 0xFFFFFFFFFFFFFFFFFFFFFFFFFFFFFFFFFFFFFFFF AND DUP3 PUSH20 0xFFFFFFFFFFFFFFFFFFFFFFFFFFFFFFFFFFFFFFFF AND SUB PUSH2 0x2388 JUMPI PUSH1 0x40 MLOAD PUSH32 0x8C379A000000000000000000000000000000000000000000000000000000000 DUP2 MSTORE PUSH1 0x4 ADD PUSH2 0x237F SWAP1 PUSH2 0x3FA1 JUMP JUMPDEST PUSH1 0x40 MLOAD DUP1 SWAP2 SUB SWAP1 REVERT JUMPDEST PUSH1 0x0 DUP1 SHL PUSH1 0x9F PUSH1 0x0 DUP4 DUP2 MSTORE PUSH1 0x20 ADD SWAP1 DUP2 MSTORE PUSH1 0x20 ADD PUSH1 0x0 KECCAK256 PUSH1 0x0 ADD SLOAD SUB PUSH2 0x23E3 JUMPI PUSH1 0x40 MLOAD PUSH32 0x8C379A000000000000000000000000000000000000000000000000000000000 DUP2 MSTORE PUSH1 0x4 ADD PUSH2 0x23DA SWAP1 PUSH2 0x400D JUMP JUMPDEST PUSH1 0x40 MLOAD DUP1 SWAP2 SUB SWAP1 REVERT JUMPDEST POP POP POP POP POP JUMP JUMPDEST PUSH2 0x23F2 PUSH2 0x25AA JUMP JUMPDEST PUSH20 0xFFFFFFFFFFFFFFFFFFFFFFFFFFFFFFFFFFFFFFFF AND PUSH2 0x2410 PUSH2 0x1411 JUMP JUMPDEST PUSH20 0xFFFFFFFFFFFFFFFFFFFFFFFFFFFFFFFFFFFFFFFF AND EQ PUSH2 0x2466 JUMPI PUSH1 0x40 MLOAD PUSH32 0x8C379A000000000000000000000000000000000000000000000000000000000 DUP2 MSTORE PUSH1 0x4 ADD PUSH2 0x245D SWAP1 PUSH2 0x4079 JUMP JUMPDEST PUSH1 0x40 MLOAD DUP1 SWAP2 SUB SWAP1 REVERT JUMPDEST JUMP JUMPDEST PUSH1 0x0 PUSH1 0x33 PUSH1 0x0 SWAP1 SLOAD SWAP1 PUSH2 0x100 EXP SWAP1 DIV PUSH20 0xFFFFFFFFFFFFFFFFFFFFFFFFFFFFFFFFFFFFFFFF AND SWAP1 POP DUP2 PUSH1 0x33 PUSH1 0x0 PUSH2 0x100 EXP DUP2 SLOAD DUP2 PUSH20 0xFFFFFFFFFFFFFFFFFFFFFFFFFFFFFFFFFFFFFFFF MUL NOT AND SWAP1 DUP4 PUSH20 0xFFFFFFFFFFFFFFFFFFFFFFFFFFFFFFFFFFFFFFFF AND MUL OR SWAP1 SSTORE POP DUP2 PUSH20 0xFFFFFFFFFFFFFFFFFFFFFFFFFFFFFFFFFFFFFFFF AND DUP2 PUSH20 0xFFFFFFFFFFFFFFFFFFFFFFFFFFFFFFFFFFFFFFFF AND PUSH32 0x8BE0079C531659141344CD1FD0A4F28419497F9722A3DAAFE3B4186F6B6457E0 PUSH1 0x40 MLOAD PUSH1 0x40 MLOAD DUP1 SWAP2 SUB SWAP1 LOG3 POP POP JUMP JUMPDEST PUSH1 0x0 DUP1 DUP3 PUSH20 0xFFFFFFFFFFFFFFFFFFFFFFFFFFFFFFFFFFFFFFFF AND EXTCODESIZE GT SWAP1 POP SWAP2 SWAP1 POP JUMP JUMPDEST PUSH1 0x0 PUSH1 0x1 SWAP1 SLOAD SWAP1 PUSH2 0x100 EXP SWAP1 DIV PUSH1 0xFF AND PUSH2 0x25A0 JUMPI PUSH1 0x40 MLOAD PUSH32 0x8C379A000000000000000000000000000000000000000000000000000000000 DUP2 MSTORE PUSH1 0x4 ADD PUSH2 0x2597 SWAP1 PUSH2 0x410B JUMP JUMPDEST PUSH1 0x40 MLOAD DUP1 SWAP2 SUB SWAP1 REVERT JUMPDEST PUSH2 0x25A8 PUSH2 0x25B2 JUMP JUMPDEST JUMP JUMPDEST PUSH1 0x0 CALLER SWAP1 POP SWAP1 JUMP JUMPDEST PUSH1 0x0 PUSH1 0x1 SWAP1 SLOAD SWAP1 PUSH2 0x100 EXP SWAP1 DIV PUSH1 0xFF AND PUSH2 0x2601 JUMPI PUSH1 0x40 MLOAD PUSH32 0x8C379A000000000000000000000000000000000000000000000000000000000 DUP2 MSTORE PUSH1 0x4 ADD PUSH2 0x25F8 SWAP1 PUSH2 0x410B JUMP JUMPDEST PUSH1 0x40 MLOAD DUP1 SWAP2 SUB SWAP1 REVERT JUMPDEST PUSH2 0x2611 PUSH2 0x260C PUSH2 0x25AA JUMP JUMPDEST PUSH2 0x2468 JUMP JUMPDEST JUMP JUMPDEST PUSH1 0x40 MLOAD DUP1 PUSH1 0x40 ADD PUSH1 0x40 MSTORE DUP1 PUSH1 0x0 DUP1 NOT AND DUP2 MSTORE PUSH1 0x20 ADD PUSH1 0x0 DUP1 NOT AND DUP2 MSTORE POP SWAP1 JUMP JUMPDEST PUSH1 0x40 MLOAD DUP1 PUSH2 0x120 ADD PUSH1 0x40 MSTORE DUP1 PUSH1 0x0 PUSH20 0xFFFFFFFFFFFFFFFFFFFFFFFFFFFFFFFFFFFFFFFF AND DUP2 MSTORE PUSH1 0x20 ADD PUSH1 0x0 PUSH20 0xFFFFFFFFFFFFFFFFFFFFFFFFFFFFFFFFFFFFFFFF AND DUP2 MSTORE PUSH1 0x20 ADD PUSH1 0x0 PUSH20 0xFFFFFFFFFFFFFFFFFFFFFFFFFFFFFFFFFFFFFFFF AND DUP2 MSTORE PUSH1 0x20 ADD PUSH1 0x0 DUP2 MSTORE PUSH1 0x20 ADD PUSH1 0x0 PUSH12 0xFFFFFFFFFFFFFFFFFFFFFFFF AND DUP2 MSTORE PUSH1 0x20 ADD PUSH1 0x0 ISZERO ISZERO DUP2 MSTORE PUSH1 0x20 ADD PUSH1 0x0 PUSH20 0xFFFFFFFFFFFFFFFFFFFFFFFFFFFFFFFFFFFFFFFF AND DUP2 MSTORE PUSH1 0x20 ADD PUSH1 0x0 PUSH12 0xFFFFFFFFFFFFFFFFFFFFFFFF AND DUP2 MSTORE PUSH1 0x20 ADD PUSH1 0x0 DUP2 MSTORE POP SWAP1 JUMP JUMPDEST PUSH1 0x40 MLOAD DUP1 PUSH1 0x40 ADD PUSH1 0x40 MSTORE DUP1 PUSH1 0x0 DUP1 NOT AND DUP2 MSTORE PUSH1 0x20 ADD PUSH1 0x0 DUP1 NOT AND DUP2 MSTORE POP SWAP1 JUMP JUMPDEST PUSH1 0x40 MLOAD DUP1 PUSH1 0x60 ADD PUSH1 0x40 MSTORE DUP1 PUSH1 0x0 DUP2 MSTORE PUSH1 0x20 ADD PUSH1 0x0 DUP2 MSTORE PUSH1 0x20 ADD PUSH1 0x0 DUP2 MSTORE POP SWAP1 JUMP JUMPDEST PUSH1 0x0 PUSH1 0x40 MLOAD SWAP1 POP SWAP1 JUMP JUMPDEST PUSH1 0x0 DUP1 REVERT JUMPDEST PUSH1 0x0 DUP1 REVERT JUMPDEST PUSH1 0x0 DUP2 SWAP1 POP SWAP2 SWAP1 POP JUMP JUMPDEST PUSH2 0x275D DUP2 PUSH2 0x274A JUMP JUMPDEST DUP2 EQ PUSH2 0x2768 JUMPI PUSH1 0x0 DUP1 REVERT JUMPDEST POP JUMP JUMPDEST PUSH1 0x0 DUP2 CALLDATALOAD SWAP1 POP PUSH2 0x277A DUP2 PUSH2 0x2754 JUMP JUMPDEST SWAP3 SWAP2 POP POP JUMP JUMPDEST PUSH1 0x0 PUSH1 0x20 DUP3 DUP5 SUB SLT ISZERO PUSH2 0x2796 JUMPI PUSH2 0x2795 PUSH2 0x2740 JUMP JUMPDEST JUMPDEST PUSH1 0x0 PUSH2 0x27A4 DUP5 DUP3 DUP6 ADD PUSH2 0x276B JUMP JUMPDEST SWAP2 POP POP SWAP3 SWAP2 POP POP JUMP JUMPDEST PUSH1 0x0 DUP2 MLOAD SWAP1 POP SWAP2 SWAP1 POP JUMP JUMPDEST PUSH1 0x0 DUP3 DUP3 MSTORE PUSH1 0x20 DUP3 ADD SWAP1 POP SWAP3 SWAP2 POP POP JUMP JUMPDEST PUSH1 0x0 DUP2 SWAP1 POP PUSH1 0x20 DUP3 ADD SWAP1 POP SWAP2 SWAP1 POP JUMP JUMPDEST PUSH2 0x27E2 DUP2 PUSH2 0x274A JUMP JUMPDEST DUP3 MSTORE POP POP JUMP JUMPDEST PUSH1 0x40 DUP3 ADD PUSH1 0x0 DUP3 ADD MLOAD PUSH2 0x27FE PUSH1 0x0 DUP6 ADD DUP3 PUSH2 0x27D9 JUMP JUMPDEST POP PUSH1 0x20 DUP3 ADD MLOAD PUSH2 0x2811 PUSH1 0x20 DUP6 ADD DUP3 PUSH2 0x27D9 JUMP JUMPDEST POP POP POP POP JUMP JUMPDEST PUSH1 0x0 PUSH2 0x2823 DUP4 DUP4 PUSH2 0x27E8 JUMP JUMPDEST PUSH1 0x40 DUP4 ADD SWAP1 POP SWAP3 SWAP2 POP POP JUMP JUMPDEST PUSH1 0x0 PUSH1 0x20 DUP3 ADD SWAP1 POP SWAP2 SWAP1 POP JUMP JUMPDEST PUSH1 0x0 PUSH2 0x2847 DUP3 PUSH2 0x27AD JUMP JUMPDEST PUSH2 0x2851 DUP2 DUP6 PUSH2 0x27B8 JUMP JUMPDEST SWAP4 POP PUSH2 0x285C DUP4 PUSH2 0x27C9 JUMP JUMPDEST DUP1 PUSH1 0x0 JUMPDEST DUP4 DUP2 LT ISZERO PUSH2 0x288D JUMPI DUP2 MLOAD PUSH2 0x2874 DUP9 DUP3 PUSH2 0x2817 JUMP JUMPDEST SWAP8 POP PUSH2 0x287F DUP4 PUSH2 0x282F JUMP JUMPDEST SWAP3 POP POP PUSH1 0x1 DUP2 ADD SWAP1 POP PUSH2 0x2860 JUMP JUMPDEST POP DUP6 SWAP4 POP POP POP POP SWAP3 SWAP2 POP POP JUMP JUMPDEST PUSH1 0x0 PUSH1 0x20 DUP3 ADD SWAP1 POP DUP2 DUP2 SUB PUSH1 0x0 DUP4 ADD MSTORE PUSH2 0x28B4 DUP2 DUP5 PUSH2 0x283C JUMP JUMPDEST SWAP1 POP SWAP3 SWAP2 POP POP JUMP JUMPDEST PUSH1 0x0 DUP1 REVERT JUMPDEST PUSH1 0x0 DUP1 REVERT JUMPDEST PUSH1 0x0 DUP1 REVERT JUMPDEST PUSH1 0x0 DUP1 DUP4 PUSH1 0x1F DUP5 ADD SLT PUSH2 0x28E1 JUMPI PUSH2 0x28E0 PUSH2 0x28BC JUMP JUMPDEST JUMPDEST DUP3 CALLDATALOAD SWAP1 POP PUSH8 0xFFFFFFFFFFFFFFFF DUP2 GT ISZERO PUSH2 0x28FE JUMPI PUSH2 0x28FD PUSH2 0x28C1 JUMP JUMPDEST JUMPDEST PUSH1 0x20 DUP4 ADD SWAP2 POP DUP4 PUSH1 0x20 DUP3 MUL DUP4 ADD GT ISZERO PUSH2 0x291A JUMPI PUSH2 0x2919 PUSH2 0x28C6 JUMP JUMPDEST JUMPDEST SWAP3 POP SWAP3 SWAP1 POP JUMP JUMPDEST PUSH1 0x0 PUSH20 0xFFFFFFFFFFFFFFFFFFFFFFFFFFFFFFFFFFFFFFFF DUP3 AND SWAP1 POP SWAP2 SWAP1 POP JUMP JUMPDEST PUSH1 0x0 PUSH2 0x294C DUP3 PUSH2 0x2921 JUMP JUMPDEST SWAP1 POP SWAP2 SWAP1 POP JUMP JUMPDEST PUSH2 0x295C DUP2 PUSH2 0x2941 JUMP JUMPDEST DUP2 EQ PUSH2 0x2967 JUMPI PUSH1 0x0 DUP1 REVERT JUMPDEST POP JUMP JUMPDEST PUSH1 0x0 DUP2 CALLDATALOAD SWAP1 POP PUSH2 0x2979 DUP2 PUSH2 0x2953 JUMP JUMPDEST SWAP3 SWAP2 POP POP JUMP JUMPDEST PUSH1 0x0 PUSH8 0xFFFFFFFFFFFFFFFF DUP3 AND SWAP1 POP SWAP2 SWAP1 POP JUMP JUMPDEST PUSH2 0x299C DUP2 PUSH2 0x297F JUMP JUMPDEST DUP2 EQ PUSH2 0x29A7 JUMPI PUSH1 0x0 DUP1 REVERT JUMPDEST POP JUMP JUMPDEST PUSH1 0x0 DUP2 CALLDATALOAD SWAP1 POP PUSH2 0x29B9 DUP2 PUSH2 0x2993 JUMP JUMPDEST SWAP3 SWAP2 POP POP JUMP JUMPDEST PUSH1 0x0 DUP2 ISZERO ISZERO SWAP1 POP SWAP2 SWAP1 POP JUMP JUMPDEST PUSH2 0x29D4 DUP2 PUSH2 0x29BF JUMP JUMPDEST DUP2 EQ PUSH2 0x29DF JUMPI PUSH1 0x0 DUP1 REVERT JUMPDEST POP JUMP JUMPDEST PUSH1 0x0 DUP2 CALLDATALOAD SWAP1 POP PUSH2 0x29F1 DUP2 PUSH2 0x29CB JUMP JUMPDEST SWAP3 SWAP2 POP POP JUMP JUMPDEST PUSH1 0x0 DUP1 PUSH1 0x0 DUP1 PUSH1 0x0 DUP1 PUSH1 0x0 DUP1 PUSH1 0xE0 DUP10 DUP12 SUB SLT ISZERO PUSH2 0x2A17 JUMPI PUSH2 0x2A16 PUSH2 0x2740 JUMP JUMPDEST JUMPDEST PUSH1 0x0 PUSH2 0x2A25 DUP12 DUP3 DUP13 ADD PUSH2 0x276B JUMP JUMPDEST SWAP9 POP POP PUSH1 0x20 PUSH2 0x2A36 DUP12 DUP3 DUP13 ADD PUSH2 0x276B JUMP JUMPDEST SWAP8 POP POP PUSH1 0x40 PUSH2 0x2A47 DUP12 DUP3 DUP13 ADD PUSH2 0x276B JUMP JUMPDEST SWAP7 POP POP PUSH1 0x60 DUP10 ADD CALLDATALOAD PUSH8 0xFFFFFFFFFFFFFFFF DUP2 GT ISZERO PUSH2 0x2A68 JUMPI PUSH2 0x2A67 PUSH2 0x2745 JUMP JUMPDEST JUMPDEST PUSH2 0x2A74 DUP12 DUP3 DUP13 ADD PUSH2 0x28CB JUMP JUMPDEST SWAP6 POP SWAP6 POP POP PUSH1 0x80 PUSH2 0x2A87 DUP12 DUP3 DUP13 ADD PUSH2 0x296A JUMP JUMPDEST SWAP4 POP POP PUSH1 0xA0 PUSH2 0x2A98 DUP12 DUP3 DUP13 ADD PUSH2 0x29AA JUMP JUMPDEST SWAP3 POP POP PUSH1 0xC0 PUSH2 0x2AA9 DUP12 DUP3 DUP13 ADD PUSH2 0x29E2 JUMP JUMPDEST SWAP2 POP POP SWAP3 SWAP6 SWAP9 POP SWAP3 SWAP6 SWAP9 SWAP1 SWAP4 SWAP7 POP JUMP JUMPDEST PUSH2 0x2AC2 DUP2 PUSH2 0x274A JUMP JUMPDEST DUP3 MSTORE POP POP JUMP JUMPDEST PUSH2 0x2AD1 DUP2 PUSH2 0x2941 JUMP JUMPDEST DUP3 MSTORE POP POP JUMP JUMPDEST PUSH1 0x0 PUSH1 0x40 DUP3 ADD SWAP1 POP PUSH2 0x2AEC PUSH1 0x0 DUP4 ADD DUP6 PUSH2 0x2AB9 JUMP JUMPDEST PUSH2 0x2AF9 PUSH1 0x20 DUP4 ADD DUP5 PUSH2 0x2AC8 JUMP JUMPDEST SWAP4 SWAP3 POP POP POP JUMP JUMPDEST PUSH1 0x0 DUP2 SWAP1 POP SWAP2 SWAP1 POP JUMP JUMPDEST PUSH2 0x2B13 DUP2 PUSH2 0x2B00 JUMP JUMPDEST DUP2 EQ PUSH2 0x2B1E JUMPI PUSH1 0x0 DUP1 REVERT JUMPDEST POP JUMP JUMPDEST PUSH1 0x0 DUP2 CALLDATALOAD SWAP1 POP PUSH2 0x2B30 DUP2 PUSH2 0x2B0A JUMP JUMPDEST SWAP3 SWAP2 POP POP JUMP JUMPDEST PUSH1 0x0 PUSH12 0xFFFFFFFFFFFFFFFFFFFFFFFF DUP3 AND SWAP1 POP SWAP2 SWAP1 POP JUMP JUMPDEST PUSH2 0x2B57 DUP2 PUSH2 0x2B36 JUMP JUMPDEST DUP2 EQ PUSH2 0x2B62 JUMPI PUSH1 0x0 DUP1 REVERT JUMPDEST POP JUMP JUMPDEST PUSH1 0x0 DUP2 CALLDATALOAD SWAP1 POP PUSH2 0x2B74 DUP2 PUSH2 0x2B4E JUMP JUMPDEST SWAP3 SWAP2 POP POP JUMP JUMPDEST PUSH1 0x0 DUP1 DUP4 PUSH1 0x1F DUP5 ADD SLT PUSH2 0x2B90 JUMPI PUSH2 0x2B8F PUSH2 0x28BC JUMP JUMPDEST JUMPDEST DUP3 CALLDATALOAD SWAP1 POP PUSH8 0xFFFFFFFFFFFFFFFF DUP2 GT ISZERO PUSH2 0x2BAD JUMPI PUSH2 0x2BAC PUSH2 0x28C1 JUMP JUMPDEST JUMPDEST PUSH1 0x20 DUP4 ADD SWAP2 POP DUP4 PUSH1 0x1 DUP3 MUL DUP4 ADD GT ISZERO PUSH2 0x2BC9 JUMPI PUSH2 0x2BC8 PUSH2 0x28C6 JUMP JUMPDEST JUMPDEST SWAP3 POP SWAP3 SWAP1 POP JUMP JUMPDEST PUSH1 0x0 DUP1 PUSH1 0x0 DUP1 PUSH1 0x0 DUP1 PUSH1 0x0 DUP1 PUSH1 0x0 DUP1 PUSH2 0x120 DUP12 DUP14 SUB SLT ISZERO PUSH2 0x2BF4 JUMPI PUSH2 0x2BF3 PUSH2 0x2740 JUMP JUMPDEST JUMPDEST PUSH1 0x0 PUSH2 0x2C02 DUP14 DUP3 DUP15 ADD PUSH2 0x296A JUMP JUMPDEST SWAP11 POP POP PUSH1 0x20 PUSH2 0x2C13 DUP14 DUP3 DUP15 ADD PUSH2 0x2B21 JUMP JUMPDEST SWAP10 POP POP PUSH1 0x40 PUSH2 0x2C24 DUP14 DUP3 DUP15 ADD PUSH2 0x276B JUMP JUMPDEST SWAP9 POP POP PUSH1 0x60 PUSH2 0x2C35 DUP14 DUP3 DUP15 ADD PUSH2 0x276B JUMP JUMPDEST SWAP8 POP POP PUSH1 0x80 PUSH2 0x2C46 DUP14 DUP3 DUP15 ADD PUSH2 0x2B65 JUMP JUMPDEST SWAP7 POP POP PUSH1 0xA0 PUSH2 0x2C57 DUP14 DUP3 DUP15 ADD PUSH2 0x296A JUMP JUMPDEST SWAP6 POP POP PUSH1 0xC0 PUSH2 0x2C68 DUP14 DUP3 DUP15 ADD PUSH2 0x2B21 JUMP JUMPDEST SWAP5 POP POP PUSH1 0xE0 PUSH2 0x2C79 DUP14 DUP3 DUP15 ADD PUSH2 0x296A JUMP JUMPDEST SWAP4 POP POP PUSH2 0x100 DUP12 ADD CALLDATALOAD PUSH8 0xFFFFFFFFFFFFFFFF DUP2 GT ISZERO PUSH2 0x2C9B JUMPI PUSH2 0x2C9A PUSH2 0x2745 JUMP JUMPDEST JUMPDEST PUSH2 0x2CA7 DUP14 DUP3 DUP15 ADD PUSH2 0x2B7A JUMP JUMPDEST SWAP3 POP SWAP3 POP POP SWAP3 SWAP6 SWAP9 SWAP12 SWAP2 SWAP5 SWAP8 SWAP11 POP SWAP3 SWAP6 SWAP9 POP JUMP JUMPDEST PUSH1 0x0 PUSH1 0x20 DUP3 ADD SWAP1 POP PUSH2 0x2CD0 PUSH1 0x0 DUP4 ADD DUP5 PUSH2 0x2AB9 JUMP JUMPDEST SWAP3 SWAP2 POP POP JUMP JUMPDEST PUSH1 0x0 PUSH1 0x1F NOT PUSH1 0x1F DUP4 ADD AND SWAP1 POP SWAP2 SWAP1 POP JUMP JUMPDEST PUSH32 0x4E487B7100000000000000000000000000000000000000000000000000000000 PUSH1 0x0 MSTORE PUSH1 0x41 PUSH1 0x4 MSTORE PUSH1 0x24 PUSH1 0x0 REVERT JUMPDEST PUSH2 0x2D1F DUP3 PUSH2 0x2CD6 JUMP JUMPDEST DUP2 ADD DUP2 DUP2 LT PUSH8 0xFFFFFFFFFFFFFFFF DUP3 GT OR ISZERO PUSH2 0x2D3E JUMPI PUSH2 0x2D3D PUSH2 0x2CE7 JUMP JUMPDEST JUMPDEST DUP1 PUSH1 0x40 MSTORE POP POP POP JUMP JUMPDEST PUSH1 0x0 PUSH2 0x2D51 PUSH2 0x2736 JUMP JUMPDEST SWAP1 POP PUSH2 0x2D5D DUP3 DUP3 PUSH2 0x2D16 JUMP JUMPDEST SWAP2 SWAP1 POP JUMP JUMPDEST PUSH1 0x0 PUSH8 0xFFFFFFFFFFFFFFFF DUP3 GT ISZERO PUSH2 0x2D7D JUMPI PUSH2 0x2D7C PUSH2 0x2CE7 JUMP JUMPDEST JUMPDEST PUSH1 0x20 DUP3 MUL SWAP1 POP PUSH1 0x20 DUP2 ADD SWAP1 POP SWAP2 SWAP1 POP JUMP JUMPDEST PUSH1 0x0 DUP1 REVERT JUMPDEST PUSH1 0x0 PUSH1 0x40 DUP3 DUP5 SUB SLT ISZERO PUSH2 0x2DA9 JUMPI PUSH2 0x2DA8 PUSH2 0x2D8E JUMP JUMPDEST JUMPDEST PUSH2 0x2DB3 PUSH1 0x40 PUSH2 0x2D47 JUMP JUMPDEST SWAP1 POP PUSH1 0x0 PUSH2 0x2DC3 DUP5 DUP3 DUP6 ADD PUSH2 0x276B JUMP JUMPDEST PUSH1 0x0 DUP4 ADD MSTORE POP PUSH1 0x20 PUSH2 0x2DD7 DUP5 DUP3 DUP6 ADD PUSH2 0x276B JUMP JUMPDEST PUSH1 0x20 DUP4 ADD MSTORE POP SWAP3 SWAP2 POP POP JUMP JUMPDEST PUSH1 0x0 PUSH2 0x2DF6 PUSH2 0x2DF1 DUP5 PUSH2 0x2D62 JUMP JUMPDEST PUSH2 0x2D47 JUMP JUMPDEST SWAP1 POP DUP1 DUP4 DUP3 MSTORE PUSH1 0x20 DUP3 ADD SWAP1 POP PUSH1 0x40 DUP5 MUL DUP4 ADD DUP6 DUP2 GT ISZERO PUSH2 0x2E19 JUMPI PUSH2 0x2E18 PUSH2 0x28C6 JUMP JUMPDEST JUMPDEST DUP4 JUMPDEST DUP2 DUP2 LT ISZERO PUSH2 0x2E42 JUMPI DUP1 PUSH2 0x2E2E DUP9 DUP3 PUSH2 0x2D93 JUMP JUMPDEST DUP5 MSTORE PUSH1 0x20 DUP5 ADD SWAP4 POP POP PUSH1 0x40 DUP2 ADD SWAP1 POP PUSH2 0x2E1B JUMP JUMPDEST POP POP POP SWAP4 SWAP3 POP POP POP JUMP JUMPDEST PUSH1 0x0 DUP3 PUSH1 0x1F DUP4 ADD SLT PUSH2 0x2E61 JUMPI PUSH2 0x2E60 PUSH2 0x28BC JUMP JUMPDEST JUMPDEST DUP2 CALLDATALOAD PUSH2 0x2E71 DUP5 DUP3 PUSH1 0x20 DUP7 ADD PUSH2 0x2DE3 JUMP JUMPDEST SWAP2 POP POP SWAP3 SWAP2 POP POP JUMP JUMPDEST PUSH1 0x0 DUP1 PUSH1 0x40 DUP4 DUP6 SUB SLT ISZERO PUSH2 0x2E91 JUMPI PUSH2 0x2E90 PUSH2 0x2740 JUMP JUMPDEST JUMPDEST PUSH1 0x0 PUSH2 0x2E9F DUP6 DUP3 DUP7 ADD PUSH2 0x276B JUMP JUMPDEST SWAP3 POP POP PUSH1 0x20 DUP4 ADD CALLDATALOAD PUSH8 0xFFFFFFFFFFFFFFFF DUP2 GT ISZERO PUSH2 0x2EC0 JUMPI PUSH2 0x2EBF PUSH2 0x2745 JUMP JUMPDEST JUMPDEST PUSH2 0x2ECC DUP6 DUP3 DUP7 ADD PUSH2 0x2E4C JUMP JUMPDEST SWAP2 POP POP SWAP3 POP SWAP3 SWAP1 POP JUMP JUMPDEST PUSH1 0x0 DUP2 MLOAD SWAP1 POP SWAP2 SWAP1 POP JUMP JUMPDEST PUSH1 0x0 DUP3 DUP3 MSTORE PUSH1 0x20 DUP3 ADD SWAP1 POP SWAP3 SWAP2 POP POP JUMP JUMPDEST PUSH1 0x0 JUMPDEST DUP4 DUP2 LT ISZERO PUSH2 0x2F10 JUMPI DUP1 DUP3 ADD MLOAD DUP2 DUP5 ADD MSTORE PUSH1 0x20 DUP2 ADD SWAP1 POP PUSH2 0x2EF5 JUMP JUMPDEST PUSH1 0x0 DUP5 DUP5 ADD MSTORE POP POP POP POP JUMP JUMPDEST PUSH1 0x0 PUSH2 0x2F27 DUP3 PUSH2 0x2ED6 JUMP JUMPDEST PUSH2 0x2F31 DUP2 DUP6 PUSH2 0x2EE1 JUMP JUMPDEST SWAP4 POP PUSH2 0x2F41 DUP2 DUP6 PUSH1 0x20 DUP7 ADD PUSH2 0x2EF2 JUMP JUMPDEST PUSH2 0x2F4A DUP2 PUSH2 0x2CD6 JUMP JUMPDEST DUP5 ADD SWAP2 POP POP SWAP3 SWAP2 POP POP JUMP JUMPDEST PUSH1 0x0 PUSH1 0x20 DUP3 ADD SWAP1 POP DUP2 DUP2 SUB PUSH1 0x0 DUP4 ADD MSTORE PUSH2 0x2F6F DUP2 DUP5 PUSH2 0x2F1C JUMP JUMPDEST SWAP1 POP SWAP3 SWAP2 POP POP JUMP JUMPDEST PUSH1 0x0 PUSH1 0x20 DUP3 DUP5 SUB SLT ISZERO PUSH2 0x2F8D JUMPI PUSH2 0x2F8C PUSH2 0x2740 JUMP JUMPDEST JUMPDEST PUSH1 0x0 PUSH2 0x2F9B DUP5 DUP3 DUP6 ADD PUSH2 0x296A JUMP JUMPDEST SWAP2 POP POP SWAP3 SWAP2 POP POP JUMP JUMPDEST PUSH2 0x2FAD DUP2 PUSH2 0x29BF JUMP JUMPDEST DUP3 MSTORE POP POP JUMP JUMPDEST PUSH1 0x0 PUSH1 0x20 DUP3 ADD SWAP1 POP PUSH2 0x2FC8 PUSH1 0x0 DUP4 ADD DUP5 PUSH2 0x2FA4 JUMP JUMPDEST SWAP3 SWAP2 POP POP JUMP JUMPDEST PUSH2 0x2FD7 DUP2 PUSH2 0x2941 JUMP JUMPDEST DUP3 MSTORE POP POP JUMP JUMPDEST PUSH2 0x2FE6 DUP2 PUSH2 0x2B00 JUMP JUMPDEST DUP3 MSTORE POP POP JUMP JUMPDEST PUSH2 0x2FF5 DUP2 PUSH2 0x2B36 JUMP JUMPDEST DUP3 MSTORE POP POP JUMP JUMPDEST PUSH2 0x3004 DUP2 PUSH2 0x29BF JUMP JUMPDEST DUP3 MSTORE POP POP JUMP JUMPDEST PUSH2 0x120 DUP3 ADD PUSH1 0x0 DUP3 ADD MLOAD PUSH2 0x3021 PUSH1 0x0 DUP6 ADD DUP3 PUSH2 0x2FCE JUMP JUMPDEST POP PUSH1 0x20 DUP3 ADD MLOAD PUSH2 0x3034 PUSH1 0x20 DUP6 ADD DUP3 PUSH2 0x2FCE JUMP JUMPDEST POP PUSH1 0x40 DUP3 ADD MLOAD PUSH2 0x3047 PUSH1 0x40 DUP6 ADD DUP3 PUSH2 0x2FCE JUMP JUMPDEST POP PUSH1 0x60 DUP3 ADD MLOAD PUSH2 0x305A PUSH1 0x60 DUP6 ADD DUP3 PUSH2 0x2FDD JUMP JUMPDEST POP PUSH1 0x80 DUP3 ADD MLOAD PUSH2 0x306D PUSH1 0x80 DUP6 ADD DUP3 PUSH2 0x2FEC JUMP JUMPDEST POP PUSH1 0xA0 DUP3 ADD MLOAD PUSH2 0x3080 PUSH1 0xA0 DUP6 ADD DUP3 PUSH2 0x2FFB JUMP JUMPDEST POP PUSH1 0xC0 DUP3 ADD MLOAD PUSH2 0x3093 PUSH1 0xC0 DUP6 ADD DUP3 PUSH2 0x2FCE JUMP JUMPDEST POP PUSH1 0xE0 DUP3 ADD MLOAD PUSH2 0x30A6 PUSH1 0xE0 DUP6 ADD DUP3 PUSH2 0x2FEC JUMP JUMPDEST POP PUSH2 0x100 DUP3 ADD MLOAD PUSH2 0x30BB PUSH2 0x100 DUP6 ADD DUP3 PUSH2 0x2FDD JUMP JUMPDEST POP POP POP POP JUMP JUMPDEST PUSH1 0x0 PUSH2 0x120 DUP3 ADD SWAP1 POP PUSH2 0x30D7 PUSH1 0x0 DUP4 ADD DUP5 PUSH2 0x300A JUMP JUMPDEST SWAP3 SWAP2 POP POP JUMP JUMPDEST PUSH1 0x0 DUP1 PUSH1 0x40 DUP4 DUP6 SUB SLT ISZERO PUSH2 0x30F4 JUMPI PUSH2 0x30F3 PUSH2 0x2740 JUMP JUMPDEST JUMPDEST PUSH1 0x0 PUSH2 0x3102 DUP6 DUP3 DUP7 ADD PUSH2 0x276B JUMP JUMPDEST SWAP3 POP POP PUSH1 0x20 PUSH2 0x3113 DUP6 DUP3 DUP7 ADD PUSH2 0x296A JUMP JUMPDEST SWAP2 POP POP SWAP3 POP SWAP3 SWAP1 POP JUMP JUMPDEST PUSH1 0x40 DUP3 ADD PUSH1 0x0 DUP3 ADD MLOAD PUSH2 0x3133 PUSH1 0x0 DUP6 ADD DUP3 PUSH2 0x27D9 JUMP JUMPDEST POP PUSH1 0x20 DUP3 ADD MLOAD PUSH2 0x3146 PUSH1 0x20 DUP6 ADD DUP3 PUSH2 0x27D9 JUMP JUMPDEST POP POP POP POP JUMP JUMPDEST PUSH1 0x0 PUSH1 0x40 DUP3 ADD SWAP1 POP PUSH2 0x3161 PUSH1 0x0 DUP4 ADD DUP5 PUSH2 0x311D JUMP JUMPDEST SWAP3 SWAP2 POP POP JUMP JUMPDEST PUSH1 0x0 PUSH1 0x20 DUP3 ADD SWAP1 POP PUSH2 0x317C PUSH1 0x0 DUP4 ADD DUP5 PUSH2 0x2AC8 JUMP JUMPDEST SWAP3 SWAP2 POP POP JUMP JUMPDEST PUSH1 0x0 DUP1 PUSH1 0x0 PUSH1 0x60 DUP5 DUP7 SUB SLT ISZERO PUSH2 0x319B JUMPI PUSH2 0x319A PUSH2 0x2740 JUMP JUMPDEST JUMPDEST PUSH1 0x0 PUSH2 0x31A9 DUP7 DUP3 DUP8 ADD PUSH2 0x276B JUMP JUMPDEST SWAP4 POP POP PUSH1 0x20 PUSH2 0x31BA DUP7 DUP3 DUP8 ADD PUSH2 0x296A JUMP JUMPDEST SWAP3 POP POP PUSH1 0x40 PUSH2 0x31CB DUP7 DUP3 DUP8 ADD PUSH2 0x29E2 JUMP JUMPDEST SWAP2 POP POP SWAP3 POP SWAP3 POP SWAP3 JUMP JUMPDEST PUSH1 0x0 PUSH16 0xFFFFFFFFFFFFFFFFFFFFFFFFFFFFFFFF DUP3 AND SWAP1 POP SWAP2 SWAP1 POP JUMP JUMPDEST PUSH2 0x31FA DUP2 PUSH2 0x31D5 JUMP JUMPDEST DUP3 MSTORE POP POP JUMP JUMPDEST PUSH2 0x3209 DUP2 PUSH2 0x2B00 JUMP JUMPDEST DUP3 MSTORE POP POP JUMP JUMPDEST PUSH1 0x0 PUSH1 0x60 DUP3 ADD SWAP1 POP PUSH2 0x3224 PUSH1 0x0 DUP4 ADD DUP7 PUSH2 0x31F1 JUMP JUMPDEST PUSH2 0x3231 PUSH1 0x20 DUP4 ADD DUP6 PUSH2 0x31F1 JUMP JUMPDEST PUSH2 0x323E PUSH1 0x40 DUP4 ADD DUP5 PUSH2 0x3200 JUMP JUMPDEST SWAP5 SWAP4 POP POP POP POP JUMP JUMPDEST PUSH1 0x0 DUP1 DUP4 PUSH1 0x1F DUP5 ADD SLT PUSH2 0x325C JUMPI PUSH2 0x325B PUSH2 0x28BC JUMP JUMPDEST JUMPDEST DUP3 CALLDATALOAD SWAP1 POP PUSH8 0xFFFFFFFFFFFFFFFF DUP2 GT ISZERO PUSH2 0x3279 JUMPI PUSH2 0x3278 PUSH2 0x28C1 JUMP JUMPDEST JUMPDEST PUSH1 0x20 DUP4 ADD SWAP2 POP DUP4 PUSH1 0x1 DUP3 MUL DUP4 ADD GT ISZERO PUSH2 0x3295 JUMPI PUSH2 0x3294 PUSH2 0x28C6 JUMP JUMPDEST JUMPDEST SWAP3 POP SWAP3 SWAP1 POP JUMP JUMPDEST PUSH1 0x0 DUP1 PUSH1 0x20 DUP4 DUP6 SUB SLT ISZERO PUSH2 0x32B3 JUMPI PUSH2 0x32B2 PUSH2 0x2740 JUMP JUMPDEST JUMPDEST PUSH1 0x0 DUP4 ADD CALLDATALOAD PUSH8 0xFFFFFFFFFFFFFFFF DUP2 GT ISZERO PUSH2 0x32D1 JUMPI PUSH2 0x32D0 PUSH2 0x2745 JUMP JUMPDEST JUMPDEST PUSH2 0x32DD DUP6 DUP3 DUP7 ADD PUSH2 0x3246 JUMP JUMPDEST SWAP3 POP SWAP3 POP POP SWAP3 POP SWAP3 SWAP1 POP JUMP JUMPDEST PUSH1 0x0 DUP1 PUSH1 0x0 PUSH1 0x60 DUP5 DUP7 SUB SLT ISZERO PUSH2 0x3302 JUMPI PUSH2 0x3301 PUSH2 0x2740 JUMP JUMPDEST JUMPDEST PUSH1 0x0 PUSH2 0x3310 DUP7 DUP3 DUP8 ADD PUSH2 0x296A JUMP JUMPDEST SWAP4 POP POP PUSH1 0x20 PUSH2 0x3321 DUP7 DUP3 DUP8 ADD PUSH2 0x296A JUMP JUMPDEST SWAP3 POP POP PUSH1 0x40 PUSH2 0x3332 DUP7 DUP3 DUP8 ADD PUSH2 0x2B21 JUMP JUMPDEST SWAP2 POP POP SWAP3 POP SWAP3 POP SWAP3 JUMP JUMPDEST PUSH1 0x0 DUP1 PUSH1 0x40 DUP4 DUP6 SUB SLT ISZERO PUSH2 0x3353 JUMPI PUSH2 0x3352 PUSH2 0x2740 JUMP JUMPDEST JUMPDEST PUSH1 0x0 PUSH2 0x3361 DUP6 DUP3 DUP7 ADD PUSH2 0x276B JUMP JUMPDEST SWAP3 POP POP PUSH1 0x20 PUSH2 0x3372 DUP6 DUP3 DUP7 ADD PUSH2 0x276B JUMP JUMPDEST SWAP2 POP POP SWAP3 POP SWAP3 SWAP1 POP JUMP JUMPDEST PUSH2 0x3385 DUP2 PUSH2 0x31D5 JUMP JUMPDEST DUP2 EQ PUSH2 0x3390 JUMPI PUSH1 0x0 DUP1 REVERT JUMPDEST POP JUMP JUMPDEST PUSH1 0x0 DUP2 CALLDATALOAD SWAP1 POP PUSH2 0x33A2 DUP2 PUSH2 0x337C JUMP JUMPDEST SWAP3 SWAP2 POP POP JUMP JUMPDEST PUSH1 0x0 DUP1 PUSH1 0x40 DUP4 DUP6 SUB SLT ISZERO PUSH2 0x33BF JUMPI PUSH2 0x33BE PUSH2 0x2740 JUMP JUMPDEST JUMPDEST PUSH1 0x0 PUSH2 0x33CD DUP6 DUP3 DUP7 ADD PUSH2 0x3393 JUMP JUMPDEST SWAP3 POP POP PUSH1 0x20 PUSH2 0x33DE DUP6 DUP3 DUP7 ADD PUSH2 0x3393 JUMP JUMPDEST SWAP2 POP POP SWAP3 POP SWAP3 SWAP1 POP JUMP JUMPDEST PUSH32 0x4E487B7100000000000000000000000000000000000000000000000000000000 PUSH1 0x0 MSTORE PUSH1 0x32 PUSH1 0x4 MSTORE PUSH1 0x24 PUSH1 0x0 REVERT JUMPDEST PUSH1 0x0 DUP3 DUP3 MSTORE PUSH1 0x20 DUP3 ADD SWAP1 POP SWAP3 SWAP2 POP POP JUMP JUMPDEST PUSH32 0x4F6E6C7941676772656761746F72000000000000000000000000000000000000 PUSH1 0x0 DUP3 ADD MSTORE POP JUMP JUMPDEST PUSH1 0x0 PUSH2 0x345E PUSH1 0xE DUP4 PUSH2 0x3417 JUMP JUMPDEST SWAP2 POP PUSH2 0x3469 DUP3 PUSH2 0x3428 JUMP JUMPDEST PUSH1 0x20 DUP3 ADD SWAP1 POP SWAP2 SWAP1 POP JUMP JUMPDEST PUSH1 0x0 PUSH1 0x20 DUP3 ADD SWAP1 POP DUP2 DUP2 SUB PUSH1 0x0 DUP4 ADD MSTORE PUSH2 0x348D DUP2 PUSH2 0x3451 JUMP JUMPDEST SWAP1 POP SWAP2 SWAP1 POP JUMP JUMPDEST PUSH32 0x4F7264657246756C66696C6C6564000000000000000000000000000000000000 PUSH1 0x0 DUP3 ADD MSTORE POP JUMP JUMPDEST PUSH1 0x0 PUSH2 0x34CA PUSH1 0xE DUP4 PUSH2 0x3417 JUMP JUMPDEST SWAP2 POP PUSH2 0x34D5 DUP3 PUSH2 0x3494 JUMP JUMPDEST PUSH1 0x20 DUP3 ADD SWAP1 POP SWAP2 SWAP1 POP JUMP JUMPDEST PUSH1 0x0 PUSH1 0x20 DUP3 ADD SWAP1 POP DUP2 DUP2 SUB PUSH1 0x0 DUP4 ADD MSTORE PUSH2 0x34F9 DUP2 PUSH2 0x34BD JUMP JUMPDEST SWAP1 POP SWAP2 SWAP1 POP JUMP JUMPDEST PUSH32 0x4E487B7100000000000000000000000000000000000000000000000000000000 PUSH1 0x0 MSTORE PUSH1 0x11 PUSH1 0x4 MSTORE PUSH1 0x24 PUSH1 0x0 REVERT JUMPDEST PUSH1 0x0 PUSH2 0x353A DUP3 PUSH2 0x2B36 JUMP JUMPDEST SWAP2 POP PUSH2 0x3545 DUP4 PUSH2 0x2B36 JUMP JUMPDEST SWAP3 POP DUP3 DUP3 SUB SWAP1 POP PUSH12 0xFFFFFFFFFFFFFFFFFFFFFFFF DUP2 GT ISZERO PUSH2 0x3569 JUMPI PUSH2 0x3568 PUSH2 0x3500 JUMP JUMPDEST JUMPDEST SWAP3 SWAP2 POP POP JUMP JUMPDEST PUSH1 0x0 PUSH1 0x40 DUP3 ADD SWAP1 POP PUSH2 0x3584 PUSH1 0x0 DUP4 ADD DUP6 PUSH2 0x2AC8 JUMP JUMPDEST PUSH2 0x3591 PUSH1 0x20 DUP4 ADD DUP5 PUSH2 0x3200 JUMP JUMPDEST SWAP4 SWAP3 POP POP POP JUMP JUMPDEST PUSH1 0x0 DUP2 MLOAD SWAP1 POP PUSH2 0x35A7 DUP2 PUSH2 0x29CB JUMP JUMPDEST SWAP3 SWAP2 POP POP JUMP JUMPDEST PUSH1 0x0 PUSH1 0x20 DUP3 DUP5 SUB SLT ISZERO PUSH2 0x35C3 JUMPI PUSH2 0x35C2 PUSH2 0x2740 JUMP JUMPDEST JUMPDEST PUSH1 0x0 PUSH2 0x35D1 DUP5 DUP3 DUP6 ADD PUSH2 0x3598 JUMP JUMPDEST SWAP2 POP POP SWAP3 SWAP2 POP POP JUMP JUMPDEST PUSH1 0x0 DUP2 SWAP1 POP SWAP2 SWAP1 POP JUMP JUMPDEST PUSH1 0x0 PUSH2 0x35FF PUSH2 0x35FA PUSH2 0x35F5 DUP5 PUSH2 0x297F JUMP JUMPDEST PUSH2 0x35DA JUMP JUMPDEST PUSH2 0x2B36 JUMP JUMPDEST SWAP1 POP SWAP2 SWAP1 POP JUMP JUMPDEST PUSH2 0x360F DUP2 PUSH2 0x35E4 JUMP JUMPDEST DUP3 MSTORE POP POP JUMP JUMPDEST PUSH1 0x0 PUSH1 0x60 DUP3 ADD SWAP1 POP PUSH2 0x362A PUSH1 0x0 DUP4 ADD DUP7 PUSH2 0x2AB9 JUMP JUMPDEST PUSH2 0x3637 PUSH1 0x20 DUP4 ADD DUP6 PUSH2 0x2AB9 JUMP JUMPDEST PUSH2 0x3644 PUSH1 0x40 DUP4 ADD DUP5 PUSH2 0x3606 JUMP JUMPDEST SWAP5 SWAP4 POP POP POP POP JUMP JUMPDEST PUSH1 0x0 PUSH2 0x3657 DUP3 PUSH2 0x2B00 JUMP JUMPDEST SWAP2 POP PUSH2 0x3662 DUP4 PUSH2 0x2B00 JUMP JUMPDEST SWAP3 POP DUP3 DUP3 MUL PUSH2 0x3670 DUP2 PUSH2 0x2B00 JUMP JUMPDEST SWAP2 POP DUP3 DUP3 DIV DUP5 EQ DUP4 ISZERO OR PUSH2 0x3687 JUMPI PUSH2 0x3686 PUSH2 0x3500 JUMP JUMPDEST JUMPDEST POP SWAP3 SWAP2 POP POP JUMP JUMPDEST PUSH32 0x4E487B7100000000000000000000000000000000000000000000000000000000 PUSH1 0x0 MSTORE PUSH1 0x12 PUSH1 0x4 MSTORE PUSH1 0x24 PUSH1 0x0 REVERT JUMPDEST PUSH1 0x0 PUSH2 0x36C8 DUP3 PUSH2 0x2B00 JUMP JUMPDEST SWAP2 POP PUSH2 0x36D3 DUP4 PUSH2 0x2B00 JUMP JUMPDEST SWAP3 POP DUP3 PUSH2 0x36E3 JUMPI PUSH2 0x36E2 PUSH2 0x368E JUMP JUMPDEST JUMPDEST DUP3 DUP3 DIV SWAP1 POP SWAP3 SWAP2 POP POP JUMP JUMPDEST PUSH32 0x53656E646572466565546F6F4869676800000000000000000000000000000000 PUSH1 0x0 DUP3 ADD MSTORE POP JUMP JUMPDEST PUSH1 0x0 PUSH2 0x3724 PUSH1 0x10 DUP4 PUSH2 0x3417 JUMP JUMPDEST SWAP2 POP PUSH2 0x372F DUP3 PUSH2 0x36EE JUMP JUMPDEST PUSH1 0x20 DUP3 ADD SWAP1 POP SWAP2 SWAP1 POP JUMP JUMPDEST PUSH1 0x0 PUSH1 0x20 DUP3 ADD SWAP1 POP DUP2 DUP2 SUB PUSH1 0x0 DUP4 ADD MSTORE PUSH2 0x3753 DUP2 PUSH2 0x3717 JUMP JUMPDEST SWAP1 POP SWAP2 SWAP1 POP JUMP JUMPDEST PUSH1 0x0 PUSH1 0x60 DUP3 ADD SWAP1 POP PUSH2 0x376F PUSH1 0x0 DUP4 ADD DUP7 PUSH2 0x2AC8 JUMP JUMPDEST PUSH2 0x377C PUSH1 0x20 DUP4 ADD DUP6 PUSH2 0x2AC8 JUMP JUMPDEST PUSH2 0x3789 PUSH1 0x40 DUP4 ADD DUP5 PUSH2 0x3200 JUMP JUMPDEST SWAP5 SWAP4 POP POP POP POP JUMP JUMPDEST PUSH1 0x0 PUSH2 0x379C DUP3 PUSH2 0x2B00 JUMP JUMPDEST SWAP2 POP PUSH32 0xFFFFFFFFFFFFFFFFFFFFFFFFFFFFFFFFFFFFFFFFFFFFFFFFFFFFFFFFFFFFFFFF DUP3 SUB PUSH2 0x37CE JUMPI PUSH2 0x37CD PUSH2 0x3500 JUMP JUMPDEST JUMPDEST PUSH1 0x1 DUP3 ADD SWAP1 POP SWAP2 SWAP1 POP JUMP JUMPDEST PUSH1 0x0 PUSH2 0x37F4 PUSH2 0x37EF PUSH2 0x37EA DUP5 PUSH2 0x2B36 JUMP JUMPDEST PUSH2 0x35DA JUMP JUMPDEST PUSH2 0x2B00 JUMP JUMPDEST SWAP1 POP SWAP2 SWAP1 POP JUMP JUMPDEST PUSH2 0x3804 DUP2 PUSH2 0x37D9 JUMP JUMPDEST DUP3 MSTORE POP POP JUMP JUMPDEST DUP3 DUP2 DUP4 CALLDATACOPY PUSH1 0x0 DUP4 DUP4 ADD MSTORE POP POP POP JUMP JUMPDEST PUSH1 0x0 PUSH2 0x3825 DUP4 DUP6 PUSH2 0x3417 JUMP JUMPDEST SWAP4 POP PUSH2 0x3832 DUP4 DUP6 DUP5 PUSH2 0x380A JUMP JUMPDEST PUSH2 0x383B DUP4 PUSH2 0x2CD6 JUMP JUMPDEST DUP5 ADD SWAP1 POP SWAP4 SWAP3 POP POP POP JUMP JUMPDEST PUSH1 0x0 PUSH1 0x80 DUP3 ADD SWAP1 POP PUSH2 0x385B PUSH1 0x0 DUP4 ADD DUP9 PUSH2 0x37FB JUMP JUMPDEST PUSH2 0x3868 PUSH1 0x20 DUP4 ADD DUP8 PUSH2 0x2AB9 JUMP JUMPDEST PUSH2 0x3875 PUSH1 0x40 DUP4 ADD DUP7 PUSH2 0x2AB9 JUMP JUMPDEST DUP2 DUP2 SUB PUSH1 0x60 DUP4 ADD MSTORE PUSH2 0x3888 DUP2 DUP5 DUP7 PUSH2 0x3819 JUMP JUMPDEST SWAP1 POP SWAP7 SWAP6 POP POP POP POP POP POP JUMP JUMPDEST PUSH32 0x4E487B7100000000000000000000000000000000000000000000000000000000 PUSH1 0x0 MSTORE PUSH1 0x22 PUSH1 0x4 MSTORE PUSH1 0x24 PUSH1 0x0 REVERT JUMPDEST PUSH1 0x0 PUSH1 0x2 DUP3 DIV SWAP1 POP PUSH1 0x1 DUP3 AND DUP1 PUSH2 0x38DB JUMPI PUSH1 0x7F DUP3 AND SWAP2 POP JUMPDEST PUSH1 0x20 DUP3 LT DUP2 SUB PUSH2 0x38EE JUMPI PUSH2 0x38ED PUSH2 0x3894 JUMP JUMPDEST JUMPDEST POP SWAP2 SWAP1 POP JUMP JUMPDEST PUSH32 0x50617963726573743A207A65726F206164647265737300000000000000000000 PUSH1 0x0 DUP3 ADD MSTORE POP JUMP JUMPDEST PUSH1 0x0 PUSH2 0x392A PUSH1 0x16 DUP4 PUSH2 0x3417 JUMP JUMPDEST SWAP2 POP PUSH2 0x3935 DUP3 PUSH2 0x38F4 JUMP JUMPDEST PUSH1 0x20 DUP3 ADD SWAP1 POP SWAP2 SWAP1 POP JUMP JUMPDEST PUSH1 0x0 PUSH1 0x20 DUP3 ADD SWAP1 POP DUP2 DUP2 SUB PUSH1 0x0 DUP4 ADD MSTORE PUSH2 0x3959 DUP2 PUSH2 0x391D JUMP JUMPDEST SWAP1 POP SWAP2 SWAP1 POP JUMP JUMPDEST PUSH1 0x0 PUSH1 0x60 DUP3 ADD SWAP1 POP PUSH2 0x3975 PUSH1 0x0 DUP4 ADD DUP7 PUSH2 0x2AB9 JUMP JUMPDEST PUSH2 0x3982 PUSH1 0x20 DUP4 ADD DUP6 PUSH2 0x2AC8 JUMP JUMPDEST PUSH2 0x398F PUSH1 0x40 DUP4 ADD DUP5 PUSH2 0x2FA4 JUMP JUMPDEST SWAP5 SWAP4 POP POP POP POP JUMP JUMPDEST PUSH32 0x496E697469616C697A61626C653A20636F6E747261637420697320616C726561 PUSH1 0x0 DUP3 ADD MSTORE PUSH32 0x647920696E697469616C697A6564000000000000000000000000000000000000 PUSH1 0x20 DUP3 ADD MSTORE POP JUMP JUMPDEST PUSH1 0x0 PUSH2 0x39F3 PUSH1 0x2E DUP4 PUSH2 0x3417 JUMP JUMPDEST SWAP2 POP PUSH2 0x39FE DUP3 PUSH2 0x3997 JUMP JUMPDEST PUSH1 0x40 DUP3 ADD SWAP1 POP SWAP2 SWAP1 POP JUMP JUMPDEST PUSH1 0x0 PUSH1 0x20 DUP3 ADD SWAP1 POP DUP2 DUP2 SUB PUSH1 0x0 DUP4 ADD MSTORE PUSH2 0x3A22 DUP2 PUSH2 0x39E6 JUMP JUMPDEST SWAP1 POP SWAP2 SWAP1 POP JUMP JUMPDEST PUSH1 0x0 DUP2 SWAP1 POP SWAP2 SWAP1 POP JUMP JUMPDEST PUSH1 0x0 PUSH1 0xFF DUP3 AND SWAP1 POP SWAP2 SWAP1 POP JUMP JUMPDEST PUSH1 0x0 PUSH2 0x3A5B PUSH2 0x3A56 PUSH2 0x3A51 DUP5 PUSH2 0x3A29 JUMP JUMPDEST PUSH2 0x35DA JUMP JUMPDEST PUSH2 0x3A33 JUMP JUMPDEST SWAP1 POP SWAP2 SWAP1 POP JUMP JUMPDEST PUSH2 0x3A6B DUP2 PUSH2 0x3A40 JUMP JUMPDEST DUP3 MSTORE POP POP JUMP JUMPDEST PUSH1 0x0 PUSH1 0x20 DUP3 ADD SWAP1 POP PUSH2 0x3A86 PUSH1 0x0 DUP4 ADD DUP5 PUSH2 0x3A62 JUMP JUMPDEST SWAP3 SWAP2 POP POP JUMP JUMPDEST PUSH1 0x0 DUP3 SWAP1 POP SWAP3 SWAP2 POP POP JUMP JUMPDEST PUSH1 0x0 DUP2 SWAP1 POP DUP2 PUSH1 0x0 MSTORE PUSH1 0x20 PUSH1 0x0 KECCAK256 SWAP1 POP SWAP2 SWAP1 POP JUMP JUMPDEST PUSH1 0x0 PUSH1 0x20 PUSH1 0x1F DUP4 ADD DIV SWAP1 POP SWAP2 SWAP1 POP JUMP JUMPDEST PUSH1 0x0 DUP3 DUP3 SHL SWAP1 POP SWAP3 SWAP2 POP POP JUMP JUMPDEST PUSH1 0x0 PUSH1 0x8 DUP4 MUL PUSH2 0x3AF9 PUSH32 0xFFFFFFFFFFFFFFFFFFFFFFFFFFFFFFFFFFFFFFFFFFFFFFFFFFFFFFFFFFFFFFFF DUP3 PUSH2 0x3ABC JUMP JUMPDEST PUSH2 0x3B03 DUP7 DUP4 PUSH2 0x3ABC JUMP JUMPDEST SWAP6 POP DUP1 NOT DUP5 AND SWAP4 POP DUP1 DUP7 AND DUP5 OR SWAP3 POP POP POP SWAP4 SWAP3 POP POP POP JUMP JUMPDEST PUSH1 0x0 PUSH2 0x3B36 PUSH2 0x3B31 PUSH2 0x3B2C DUP5 PUSH2 0x2B00 JUMP JUMPDEST PUSH2 0x35DA JUMP JUMPDEST PUSH2 0x2B00 JUMP JUMPDEST SWAP1 POP SWAP2 SWAP1 POP JUMP JUMPDEST PUSH1 0x0 DUP2 SWAP1 POP SWAP2 SWAP1 POP JUMP JUMPDEST PUSH2 0x3B50 DUP4 PUSH2 0x3B1B JUMP JUMPDEST PUSH2 0x3B64 PUSH2 0x3B5C DUP3 PUSH2 0x3B3D JUMP JUMPDEST DUP5 DUP5 SLOAD PUSH2 0x3AC9 JUMP JUMPDEST DUP3 SSTORE POP POP POP POP JUMP JUMPDEST PUSH1 0x0 SWAP1 JUMP JUMPDEST PUSH2 0x3B79 PUSH2 0x3B6C JUMP JUMPDEST PUSH2 0x3B84 DUP2 DUP5 DUP5 PUSH2 0x3B47 JUMP JUMPDEST POP POP POP JUMP JUMPDEST JUMPDEST DUP2 DUP2 LT ISZERO PUSH2 0x3BA8 JUMPI PUSH2 0x3B9D PUSH1 0x0 DUP3 PUSH2 0x3B71 JUMP JUMPDEST PUSH1 0x1 DUP2 ADD SWAP1 POP PUSH2 0x3B8A JUMP JUMPDEST POP POP JUMP JUMPDEST PUSH1 0x1F DUP3 GT ISZERO PUSH2 0x3BED JUMPI PUSH2 0x3BBE DUP2 PUSH2 0x3A97 JUMP JUMPDEST PUSH2 0x3BC7 DUP5 PUSH2 0x3AAC JUMP JUMPDEST DUP2 ADD PUSH1 0x20 DUP6 LT ISZERO PUSH2 0x3BD6 JUMPI DUP2 SWAP1 POP JUMPDEST PUSH2 0x3BEA PUSH2 0x3BE2 DUP6 PUSH2 0x3AAC JUMP JUMPDEST DUP4 ADD DUP3 PUSH2 0x3B89 JUMP JUMPDEST POP POP JUMPDEST POP POP POP JUMP JUMPDEST PUSH1 0x0 DUP3 DUP3 SHR SWAP1 POP SWAP3 SWAP2 POP POP JUMP JUMPDEST PUSH1 0x0 PUSH2 0x3C10 PUSH1 0x0 NOT DUP5 PUSH1 0x8 MUL PUSH2 0x3BF2 JUMP JUMPDEST NOT DUP1 DUP4 AND SWAP2 POP POP SWAP3 SWAP2 POP POP JUMP JUMPDEST PUSH1 0x0 PUSH2 0x3C29 DUP4 DUP4 PUSH2 0x3BFF JUMP JUMPDEST SWAP2 POP DUP3 PUSH1 0x2 MUL DUP3 OR SWAP1 POP SWAP3 SWAP2 POP POP JUMP JUMPDEST PUSH2 0x3C43 DUP4 DUP4 PUSH2 0x3A8C JUMP JUMPDEST PUSH8 0xFFFFFFFFFFFFFFFF DUP2 GT ISZERO PUSH2 0x3C5C JUMPI PUSH2 0x3C5B PUSH2 0x2CE7 JUMP JUMPDEST JUMPDEST PUSH2 0x3C66 DUP3 SLOAD PUSH2 0x38C3 JUMP JUMPDEST PUSH2 0x3C71 DUP3 DUP3 DUP6 PUSH2 0x3BAC JUMP JUMPDEST PUSH1 0x0 PUSH1 0x1F DUP4 GT PUSH1 0x1 DUP2 EQ PUSH2 0x3CA0 JUMPI PUSH1 0x0 DUP5 ISZERO PUSH2 0x3C8E JUMPI DUP3 DUP8 ADD CALLDATALOAD SWAP1 POP JUMPDEST PUSH2 0x3C98 DUP6 DUP3 PUSH2 0x3C1D JUMP JUMPDEST DUP7 SSTORE POP PUSH2 0x3D00 JUMP JUMPDEST PUSH1 0x1F NOT DUP5 AND PUSH2 0x3CAE DUP7 PUSH2 0x3A97 JUMP JUMPDEST PUSH1 0x0 JUMPDEST DUP3 DUP2 LT ISZERO PUSH2 0x3CD6 JUMPI DUP5 DUP10 ADD CALLDATALOAD DUP3 SSTORE PUSH1 0x1 DUP3 ADD SWAP2 POP PUSH1 0x20 DUP6 ADD SWAP5 POP PUSH1 0x20 DUP2 ADD SWAP1 POP PUSH2 0x3CB1 JUMP JUMPDEST DUP7 DUP4 LT ISZERO PUSH2 0x3CF3 JUMPI DUP5 DUP10 ADD CALLDATALOAD PUSH2 0x3CEF PUSH1 0x1F DUP10 AND DUP3 PUSH2 0x3BFF JUMP JUMPDEST DUP4 SSTORE POP JUMPDEST PUSH1 0x1 PUSH1 0x2 DUP9 MUL ADD DUP9 SSTORE POP POP POP JUMPDEST POP POP POP POP POP POP POP JUMP JUMPDEST PUSH1 0x0 PUSH2 0x3D15 DUP4 DUP6 PUSH2 0x2EE1 JUMP JUMPDEST SWAP4 POP PUSH2 0x3D22 DUP4 DUP6 DUP5 PUSH2 0x380A JUMP JUMPDEST PUSH2 0x3D2B DUP4 PUSH2 0x2CD6 JUMP JUMPDEST DUP5 ADD SWAP1 POP SWAP4 SWAP3 POP POP POP JUMP JUMPDEST PUSH1 0x0 PUSH1 0x20 DUP3 ADD SWAP1 POP DUP2 DUP2 SUB PUSH1 0x0 DUP4 ADD MSTORE PUSH2 0x3D51 DUP2 DUP5 DUP7 PUSH2 0x3D09 JUMP JUMPDEST SWAP1 POP SWAP4 SWAP3 POP POP POP JUMP JUMPDEST PUSH32 0x4F776E61626C653A206E6577206F776E657220697320746865207A65726F2061 PUSH1 0x0 DUP3 ADD MSTORE PUSH32 0x6464726573730000000000000000000000000000000000000000000000000000 PUSH1 0x20 DUP3 ADD MSTORE POP JUMP JUMPDEST PUSH1 0x0 PUSH2 0x3DB6 PUSH1 0x26 DUP4 PUSH2 0x3417 JUMP JUMPDEST SWAP2 POP PUSH2 0x3DC1 DUP3 PUSH2 0x3D5A JUMP JUMPDEST PUSH1 0x40 DUP3 ADD SWAP1 POP SWAP2 SWAP1 POP JUMP JUMPDEST PUSH1 0x0 PUSH1 0x20 DUP3 ADD SWAP1 POP DUP2 DUP2 SUB PUSH1 0x0 DUP4 ADD MSTORE PUSH2 0x3DE5 DUP2 PUSH2 0x3DA9 JUMP JUMPDEST SWAP1 POP SWAP2 SWAP1 POP JUMP JUMPDEST PUSH1 0x0 PUSH1 0x40 DUP3 ADD SWAP1 POP PUSH2 0x3E01 PUSH1 0x0 DUP4 ADD DUP6 PUSH2 0x31F1 JUMP JUMPDEST PUSH2 0x3E0E PUSH1 0x20 DUP4 ADD DUP5 PUSH2 0x31F1 JUMP JUMPDEST SWAP4 SWAP3 POP POP POP JUMP JUMPDEST PUSH1 0x0 PUSH2 0x3E20 DUP3 PUSH2 0x2B00 JUMP JUMPDEST SWAP2 POP PUSH2 0x3E2B DUP4 PUSH2 0x2B00 JUMP JUMPDEST SWAP3 POP DUP3 DUP3 SUB SWAP1 POP DUP2 DUP2 GT ISZERO PUSH2 0x3E43 JUMPI PUSH2 0x3E42 PUSH2 0x3500 JUMP JUMPDEST JUMPDEST SWAP3 SWAP2 POP POP JUMP JUMPDEST PUSH1 0x0 PUSH2 0x3E54 DUP3 PUSH2 0x2B00 JUMP JUMPDEST SWAP2 POP PUSH2 0x3E5F DUP4 PUSH2 0x2B00 JUMP JUMPDEST SWAP3 POP DUP3 DUP3 ADD SWAP1 POP DUP1 DUP3 GT ISZERO PUSH2 0x3E77 JUMPI PUSH2 0x3E76 PUSH2 0x3500 JUMP JUMPDEST JUMPDEST SWAP3 SWAP2 POP POP JUMP JUMPDEST PUSH32 0x546F6B656E4E6F74537570706F72746564000000000000000000000000000000 PUSH1 0x0 DUP3 ADD MSTORE POP JUMP JUMPDEST PUSH1 0x0 PUSH2 0x3EB3 PUSH1 0x11 DUP4 PUSH2 0x3417 JUMP JUMPDEST SWAP2 POP PUSH2 0x3EBE DUP3 PUSH2 0x3E7D JUMP JUMPDEST PUSH1 0x20 DUP3 ADD SWAP1 POP SWAP2 SWAP1 POP JUMP JUMPDEST PUSH1 0x0 PUSH1 0x20 DUP3 ADD SWAP1 POP DUP2 DUP2 SUB PUSH1 0x0 DUP4 ADD MSTORE PUSH2 0x3EE2 DUP2 PUSH2 0x3EA6 JUMP JUMPDEST SWAP1 POP SWAP2 SWAP1 POP JUMP JUMPDEST PUSH32 0x416D6F756E7449735A65726F0000000000000000000000000000000000000000 PUSH1 0x0 DUP3 ADD MSTORE POP JUMP JUMPDEST PUSH1 0x0 PUSH2 0x3F1F PUSH1 0xC DUP4 PUSH2 0x3417 JUMP JUMPDEST SWAP2 POP PUSH2 0x3F2A DUP3 PUSH2 0x3EE9 JUMP JUMPDEST PUSH1 0x20 DUP3 ADD SWAP1 POP SWAP2 SWAP1 POP JUMP JUMPDEST PUSH1 0x0 PUSH1 0x20 DUP3 ADD SWAP1 POP DUP2 DUP2 SUB PUSH1 0x0 DUP4 ADD MSTORE PUSH2 0x3F4E DUP2 PUSH2 0x3F12 JUMP JUMPDEST SWAP1 POP SWAP2 SWAP1 POP JUMP JUMPDEST PUSH32 0x5468726F775A65726F4164647265737300000000000000000000000000000000 PUSH1 0x0 DUP3 ADD MSTORE POP JUMP JUMPDEST PUSH1 0x0 PUSH2 0x3F8B PUSH1 0x10 DUP4 PUSH2 0x3417 JUMP JUMPDEST SWAP2 POP PUSH2 0x3F96 DUP3 PUSH2 0x3F55 JUMP JUMPDEST PUSH1 0x20 DUP3 ADD SWAP1 POP SWAP2 SWAP1 POP JUMP JUMPDEST PUSH1 0x0 PUSH1 0x20 DUP3 ADD SWAP1 POP DUP2 DUP2 SUB PUSH1 0x0 DUP4 ADD MSTORE PUSH2 0x3FBA DUP2 PUSH2 0x3F7E JUMP JUMPDEST SWAP1 POP SWAP2 SWAP1 POP JUMP JUMPDEST PUSH32 0x496E76616C6964496E737469747574696F6E436F646500000000000000000000 PUSH1 0x0 DUP3 ADD MSTORE POP JUMP JUMPDEST PUSH1 0x0 PUSH2 0x3FF7 PUSH1 0x16 DUP4 PUSH2 0x3417 JUMP JUMPDEST SWAP2 POP PUSH2 0x4002 DUP3 PUSH2 0x3FC1 JUMP JUMPDEST PUSH1 0x20 DUP3 ADD SWAP1 POP SWAP2 SWAP1 POP JUMP JUMPDEST PUSH1 0x0 PUSH1 0x20 DUP3 ADD SWAP1 POP DUP2 DUP2 SUB PUSH1 0x0 DUP4 ADD MSTORE PUSH2 0x4026 DUP2 PUSH2 0x3FEA JUMP JUMPDEST SWAP1 POP SWAP2 SWAP1 POP JUMP JUMPDEST PUSH32 0x4F776E61626C653A2063616C6C6572206973206E6F7420746865206F776E6572 PUSH1 0x0 DUP3 ADD MSTORE POP JUMP JUMPDEST PUSH1 0x0 PUSH2 0x4063 PUSH1 0x20 DUP4 PUSH2 0x3417 JUMP JUMPDEST SWAP2 POP PUSH2 0x406E DUP3 PUSH2 0x402D JUMP JUMPDEST PUSH1 0x20 DUP3 ADD SWAP1 POP SWAP2 SWAP1 POP JUMP JUMPDEST PUSH1 0x0 PUSH1 0x20 DUP3 ADD SWAP1 POP DUP2 DUP2 SUB PUSH1 0x0 DUP4 ADD MSTORE PUSH2 0x4092 DUP2 PUSH2 0x4056 JUMP JUMPDEST SWAP1 POP SWAP2 SWAP1 POP JUMP JUMPDEST PUSH32 0x496E697469616C697A61626C653A20636F6E7472616374206973206E6F742069 PUSH1 0x0 DUP3 ADD MSTORE PUSH32 0x6E697469616C697A696E67000000000000000000000000000000000000000000 PUSH1 0x20 DUP3 ADD MSTORE POP JUMP JUMPDEST PUSH1 0x0 PUSH2 0x40F5 PUSH1 0x2B DUP4 PUSH2 0x3417 JUMP JUMPDEST SWAP2 POP PUSH2 0x4100 DUP3 PUSH2 0x4099 JUMP JUMPDEST PUSH1 0x40 DUP3 ADD SWAP1 POP SWAP2 SWAP1 POP JUMP JUMPDEST PUSH1 0x0 PUSH1 0x20 DUP3 ADD SWAP1 POP DUP2 DUP2 SUB PUSH1 0x0 DUP4 ADD MSTORE PUSH2 0x4124 DUP2 PUSH2 0x40E8 JUMP JUMPDEST SWAP1 POP SWAP2 SWAP1 POP JUMP INVALID LOG2 PUSH5 0x6970667358 0x22 SLT KECCAK256 DUP12 RETURNDATASIZE MSTORE DUP8 RETURNDATACOPY ADDMOD AND JUMP 0xE3 0xE1 0xC7 0xF7 0xDB SWAP6 ADD DUP6 ADDRESS 0x5C 0xC5 SIGNEXTEND 0x26 GASLIMIT SWAP15 0xD5 PUSH15 0x4B7D69AA27310664736F6C63430008 SLT STOP CALLER "},"gasEstimates":{"creation":{"codeDepositCost":"3347400","executionCost":"infinite","totalCost":"infinite"},"external":{"createOrder(address,uint256,bytes32,bytes32,uint96,address,uint256,address,string)":"infinite","getAggregator()":"infinite","getAggregatorAddress()":"2610","getFeeDetails()":"infinite","getOrderInfo(bytes32)":"infinite","getSupportedInstitutionName(bytes32)":"infinite","getSupportedInstitutions(bytes32)":"infinite","getWhitelistedStatus(address)":"2905","initialize(address)":"211582","isTokenSupported(address)":"2928","owner()":"2545","refund(bytes32,bytes32)":"infinite","renounceOwnership()":"30421","setSupportedInstitutions(bytes32,(bytes32,bytes32)[])":"infinite","settingManagerBool(bytes32,address,bool)":"infinite","settle(bytes32,bytes32,bytes32,address[],address,uint64,bool)":"infinite","transferOwnership(address)":"30854","updateProtocolAddresses(bytes32,address)":"51596","updateProtocolAggregator(bytes)":"infinite","updateProtocolFees(uint128,uint128)":"infinite","withdraw(address,address,uint256)":"infinite"},"internal":{"_calculateFees(bytes32,uint96,bool)":"infinite","_handler(address,uint256,address,address,bytes32)":"infinite","rewardValidators(address[] calldata,address,uint256)":"infinite","transferSenderFee(bytes32)":"infinite"}},"methodIdentifiers":{"createOrder(address,uint256,bytes32,bytes32,uint96,address,uint256,address,string)":"2654ec7e","getAggregator()":"3ad59dbc","getAggregatorAddress()":"e8d6e0de","getFeeDetails()":"b810c636","getOrderInfo(bytes32)":"768c6ec0","getSupportedInstitutionName(bytes32)":"87490d86","getSupportedInstitutions(bytes32)":"02621338","getWhitelistedStatus(address)":"d8e8de34","initialize(address)":"c4d66de8","isTokenSupported(address)":"75151b63","owner()":"8da5cb5b","refund(bytes32,bytes32)":"e4683a79","renounceOwnership()":"715018a6","setSupportedInstitutions(bytes32,(bytes32,bytes32)[])":"32200882","settingManagerBool(bytes32,address,bool)":"99e3c0b4","settle(bytes32,bytes32,bytes32,address[],address,uint64,bool)":"137764fb","transferOwnership(address)":"f2fde38b","updateProtocolAddresses(bytes32,address)":"79a0effb","updateProtocolAggregator(bytes)":"cb79455b","updateProtocolFees(uint128,uint128)":"f5326b19","withdraw(address,address,uint256)":"d9caed12"}},"storageLayout":{"storage":[{"astId":138,"contract":"contracts/Paycrest.sol:Paycrest","label":"_initialized","offset":0,"slot":"0","type":"t_uint8"},{"astId":141,"contract":"contracts/Paycrest.sol:Paycrest","label":"_initializing","offset":1,"slot":"0","type":"t_bool"},{"astId":1161,"contract":"contracts/Paycrest.sol:Paycrest","label":"__gap","offset":0,"slot":"1","type":"t_array(t_uint256)50_storage"},{"astId":10,"contract":"contracts/Paycrest.sol:Paycrest","label":"_owner","offset":0,"slot":"51","type":"t_address"},{"astId":130,"contract":"contracts/Paycrest.sol:Paycrest","label":"__gap","offset":0,"slot":"52","type":"t_array(t_uint256)49_storage"},{"astId":4265,"contract":"contracts/Paycrest.sol:Paycrest","label":"MAX_BPS","offset":0,"slot":"101","type":"t_uint256"},{"astId":4267,"contract":"contracts/Paycrest.sol:Paycrest","label":"protocolFeePercent","offset":0,"slot":"102","type":"t_uint128"},{"astId":4269,"contract":"contracts/Paycrest.sol:Paycrest","label":"validatorFeePercent","offset":16,"slot":"102","type":"t_uint128"},{"astId":4271,"contract":"contracts/Paycrest.sol:Paycrest","label":"feeRecipient","offset":0,"slot":"103","type":"t_address"},{"astId":4273,"contract":"contracts/Paycrest.sol:Paycrest","label":"_aggregatorAddress","offset":0,"slot":"104","type":"t_address"},{"astId":4275,"contract":"contracts/Paycrest.sol:Paycrest","label":"_aggregator","offset":0,"slot":"105","type":"t_bytes_storage"},{"astId":4279,"contract":"contracts/Paycrest.sol:Paycrest","label":"__gap","offset":0,"slot":"106","type":"t_array(t_uint256)50_storage"},{"astId":4283,"contract":"contracts/Paycrest.sol:Paycrest","label":"_isTokenSupported","offset":0,"slot":"156","type":"t_mapping(t_address,t_bool)"},{"astId":4287,"contract":"contracts/Paycrest.sol:Paycrest","label":"_isWhitelisted","offset":0,"slot":"157","type":"t_mapping(t_address,t_bool)"},{"astId":4293,"contract":"contracts/Paycrest.sol:Paycrest","label":"supportedInstitutions","offset":0,"slot":"158","type":"t_mapping(t_bytes32,t_array(t_struct(Institution)4258_storage)dyn_storage)"},{"astId":4298,"contract":"contracts/Paycrest.sol:Paycrest","label":"supportedInstitutionsByCode","offset":0,"slot":"159","type":"t_mapping(t_bytes32,t_struct(InstitutionByCode)4263_storage)"},{"astId":3472,"contract":"contracts/Paycrest.sol:Paycrest","label":"order","offset":0,"slot":"160","type":"t_mapping(t_bytes32,t_struct(Order)4584_storage)"},{"astId":3476,"contract":"contracts/Paycrest.sol:Paycrest","label":"_nonce","offset":0,"slot":"161","type":"t_mapping(t_address,t_uint256)"},{"astId":3480,"contract":"contracts/Paycrest.sol:Paycrest","label":"__gap","offset":0,"slot":"162","type":"t_array(t_uint256)50_storage"}],"types":{"t_address":{"encoding":"inplace","label":"address","numberOfBytes":"20"},"t_array(t_struct(Institution)4258_storage)dyn_storage":{"base":"t_struct(Institution)4258_storage","encoding":"dynamic_array","label":"struct PaycrestSettingManager.Institution[]","numberOfBytes":"32"},"t_array(t_uint256)49_storage":{"base":"t_uint256","encoding":"inplace","label":"uint256[49]","numberOfBytes":"1568"},"t_array(t_uint256)50_storage":{"base":"t_uint256","encoding":"inplace","label":"uint256[50]","numberOfBytes":"1600"},"t_bool":{"encoding":"inplace","label":"bool","numberOfBytes":"1"},"t_bytes32":{"encoding":"inplace","label":"bytes32","numberOfBytes":"32"},"t_bytes_storage":{"encoding":"bytes","label":"bytes","numberOfBytes":"32"},"t_mapping(t_address,t_bool)":{"encoding":"mapping","key":"t_address","label":"mapping(address => bool)","numberOfBytes":"32","value":"t_bool"},"t_mapping(t_address,t_uint256)":{"encoding":"mapping","key":"t_address","label":"mapping(address => uint256)","numberOfBytes":"32","value":"t_uint256"},"t_mapping(t_bytes32,t_array(t_struct(Institution)4258_storage)dyn_storage)":{"encoding":"mapping","key":"t_bytes32","label":"mapping(bytes32 => struct PaycrestSettingManager.Institution[])","numberOfBytes":"32","value":"t_array(t_struct(Institution)4258_storage)dyn_storage"},"t_mapping(t_bytes32,t_struct(InstitutionByCode)4263_storage)":{"encoding":"mapping","key":"t_bytes32","label":"mapping(bytes32 => struct PaycrestSettingManager.InstitutionByCode)","numberOfBytes":"32","value":"t_struct(InstitutionByCode)4263_storage"},"t_mapping(t_bytes32,t_struct(Order)4584_storage)":{"encoding":"mapping","key":"t_bytes32","label":"mapping(bytes32 => struct IPaycrest.Order)","numberOfBytes":"32","value":"t_struct(Order)4584_storage"},"t_struct(Institution)4258_storage":{"encoding":"inplace","label":"struct PaycrestSettingManager.Institution","members":[{"astId":4255,"contract":"contracts/Paycrest.sol:Paycrest","label":"code","offset":0,"slot":"0","type":"t_bytes32"},{"astId":4257,"contract":"contracts/Paycrest.sol:Paycrest","label":"name","offset":0,"slot":"1","type":"t_bytes32"}],"numberOfBytes":"64"},"t_struct(InstitutionByCode)4263_storage":{"encoding":"inplace","label":"struct PaycrestSettingManager.InstitutionByCode","members":[{"astId":4260,"contract":"contracts/Paycrest.sol:Paycrest","label":"name","offset":0,"slot":"0","type":"t_bytes32"},{"astId":4262,"contract":"contracts/Paycrest.sol:Paycrest","label":"currency","offset":0,"slot":"1","type":"t_bytes32"}],"numberOfBytes":"64"},"t_struct(Order)4584_storage":{"encoding":"inplace","label":"struct IPaycrest.Order","members":[{"astId":4567,"contract":"contracts/Paycrest.sol:Paycrest","label":"seller","offset":0,"slot":"0","type":"t_address"},{"astId":4569,"contract":"contracts/Paycrest.sol:Paycrest","label":"token","offset":0,"slot":"1","type":"t_address"},{"astId":4571,"contract":"contracts/Paycrest.sol:Paycrest","label":"senderFeeRecipient","offset":0,"slot":"2","type":"t_address"},{"astId":4573,"contract":"contracts/Paycrest.sol:Paycrest","label":"senderFee","offset":0,"slot":"3","type":"t_uint256"},{"astId":4575,"contract":"contracts/Paycrest.sol:Paycrest","label":"rate","offset":0,"slot":"4","type":"t_uint96"},{"astId":4577,"contract":"contracts/Paycrest.sol:Paycrest","label":"isFulfilled","offset":12,"slot":"4","type":"t_bool"},{"astId":4579,"contract":"contracts/Paycrest.sol:Paycrest","label":"refundAddress","offset":0,"slot":"5","type":"t_address"},{"astId":4581,"contract":"contracts/Paycrest.sol:Paycrest","label":"currentBPS","offset":20,"slot":"5","type":"t_uint96"},{"astId":4583,"contract":"contracts/Paycrest.sol:Paycrest","label":"amount","offset":0,"slot":"6","type":"t_uint256"}],"numberOfBytes":"224"},"t_uint128":{"encoding":"inplace","label":"uint128","numberOfBytes":"16"},"t_uint256":{"encoding":"inplace","label":"uint256","numberOfBytes":"32"},"t_uint8":{"encoding":"inplace","label":"uint8","numberOfBytes":"1"},"t_uint96":{"encoding":"inplace","label":"uint96","numberOfBytes":"12"}}},"userdoc":{"kind":"user","methods":{},"version":1}}}}