{"contracts/Paycrest.sol":{"Paycrest":{"abi":[{"inputs":[],"stateMutability":"nonpayable","type":"constructor"},{"anonymous":false,"inputs":[{"indexed":false,"internalType":"uint8","name":"version","type":"uint8"}],"name":"Initialized","type":"event"},{"anonymous":false,"inputs":[{"indexed":true,"internalType":"address","name":"token","type":"address"},{"indexed":true,"internalType":"uint256","name":"amount","type":"uint256"},{"indexed":true,"internalType":"bytes32","name":"orderId","type":"bytes32"},{"indexed":false,"internalType":"uint256","name":"rate","type":"uint256"},{"indexed":false,"internalType":"bytes32","name":"institutionCode","type":"bytes32"},{"indexed":false,"internalType":"bytes32","name":"label","type":"bytes32"},{"indexed":false,"internalType":"string","name":"messageHash","type":"string"}],"name":"OrderCreated","type":"event"},{"anonymous":false,"inputs":[{"indexed":false,"internalType":"uint256","name":"fee","type":"uint256"},{"indexed":true,"internalType":"bytes32","name":"orderId","type":"bytes32"},{"indexed":false,"internalType":"bytes32","name":"label","type":"bytes32"}],"name":"OrderRefunded","type":"event"},{"anonymous":false,"inputs":[{"indexed":false,"internalType":"bytes32","name":"splitOrderId","type":"bytes32"},{"indexed":true,"internalType":"bytes32","name":"orderId","type":"bytes32"},{"indexed":false,"internalType":"bytes32","name":"label","type":"bytes32"},{"indexed":true,"internalType":"address","name":"liquidityProvider","type":"address"},{"indexed":false,"internalType":"uint96","name":"settlePercent","type":"uint96"}],"name":"OrderSettled","type":"event"},{"anonymous":false,"inputs":[{"indexed":true,"internalType":"address","name":"previousOwner","type":"address"},{"indexed":true,"internalType":"address","name":"newOwner","type":"address"}],"name":"OwnershipTransferred","type":"event"},{"anonymous":false,"inputs":[{"indexed":false,"internalType":"address","name":"account","type":"address"}],"name":"Paused","type":"event"},{"anonymous":false,"inputs":[{"indexed":false,"internalType":"address","name":"treasuryAddress","type":"address"}],"name":"ProtocolAddressesUpdated","type":"event"},{"anonymous":false,"inputs":[{"indexed":false,"internalType":"uint64","name":"protocolFee","type":"uint64"}],"name":"ProtocolFeesUpdated","type":"event"},{"anonymous":false,"inputs":[{"indexed":true,"internalType":"address","name":"sender","type":"address"},{"indexed":true,"internalType":"uint256","name":"amount","type":"uint256"}],"name":"SenderFeeTransferred","type":"event"},{"anonymous":false,"inputs":[{"indexed":false,"internalType":"bytes","name":"aggregator","type":"bytes"}],"name":"SetAggregator","type":"event"},{"anonymous":false,"inputs":[{"indexed":false,"internalType":"address","name":"treasuryAddress","type":"address"}],"name":"SetFeeRecipient","type":"event"},{"anonymous":false,"inputs":[{"indexed":false,"internalType":"bytes32","name":"what","type":"bytes32"},{"indexed":false,"internalType":"address","name":"value","type":"address"},{"indexed":false,"internalType":"bool","name":"status","type":"bool"}],"name":"SettingManagerBool","type":"event"},{"anonymous":false,"inputs":[{"indexed":false,"internalType":"address","name":"account","type":"address"}],"name":"Unpaused","type":"event"},{"inputs":[{"internalType":"address","name":"_token","type":"address"},{"internalType":"uint256","name":"_amount","type":"uint256"},{"internalType":"bytes32","name":"_institutionCode","type":"bytes32"},{"internalType":"bytes32","name":"_label","type":"bytes32"},{"internalType":"uint96","name":"_rate","type":"uint96"},{"internalType":"address","name":"_senderFeeRecipient","type":"address"},{"internalType":"uint256","name":"_senderFee","type":"uint256"},{"internalType":"address","name":"_refundAddress","type":"address"},{"internalType":"string","name":"messageHash","type":"string"}],"name":"createOrder","outputs":[{"internalType":"bytes32","name":"orderId","type":"bytes32"}],"stateMutability":"nonpayable","type":"function"},{"inputs":[],"name":"getAggregator","outputs":[{"internalType":"bytes","name":"","type":"bytes"}],"stateMutability":"view","type":"function"},{"inputs":[],"name":"getFeeDetails","outputs":[{"internalType":"uint64","name":"","type":"uint64"},{"internalType":"uint256","name":"","type":"uint256"}],"stateMutability":"view","type":"function"},{"inputs":[{"internalType":"bytes32","name":"_orderId","type":"bytes32"}],"name":"getOrderInfo","outputs":[{"components":[{"internalType":"address","name":"seller","type":"address"},{"internalType":"address","name":"token","type":"address"},{"internalType":"address","name":"senderFeeRecipient","type":"address"},{"internalType":"uint256","name":"senderFee","type":"uint256"},{"internalType":"uint96","name":"rate","type":"uint96"},{"internalType":"bool","name":"isFulfilled","type":"bool"},{"internalType":"address","name":"refundAddress","type":"address"},{"internalType":"uint96","name":"currentBPS","type":"uint96"},{"internalType":"uint256","name":"amount","type":"uint256"}],"internalType":"struct IPaycrest.Order","name":"","type":"tuple"}],"stateMutability":"view","type":"function"},{"inputs":[{"internalType":"bytes32","name":"_code","type":"bytes32"}],"name":"getSupportedInstitutionByCode","outputs":[{"components":[{"internalType":"bytes32","name":"name","type":"bytes32"},{"internalType":"bytes32","name":"currency","type":"bytes32"}],"internalType":"struct SharedStructs.InstitutionByCode","name":"","type":"tuple"}],"stateMutability":"view","type":"function"},{"inputs":[{"internalType":"bytes32","name":"_currency","type":"bytes32"}],"name":"getSupportedInstitutions","outputs":[{"components":[{"internalType":"bytes32","name":"code","type":"bytes32"},{"internalType":"bytes32","name":"name","type":"bytes32"}],"internalType":"struct SharedStructs.Institution[]","name":"","type":"tuple[]"}],"stateMutability":"view","type":"function"},{"inputs":[],"name":"initialize","outputs":[],"stateMutability":"nonpayable","type":"function"},{"inputs":[{"internalType":"address","name":"_token","type":"address"}],"name":"isTokenSupported","outputs":[{"internalType":"bool","name":"","type":"bool"}],"stateMutability":"view","type":"function"},{"inputs":[],"name":"owner","outputs":[{"internalType":"address","name":"","type":"address"}],"stateMutability":"view","type":"function"},{"inputs":[],"name":"pause","outputs":[],"stateMutability":"nonpayable","type":"function"},{"inputs":[],"name":"paused","outputs":[{"internalType":"bool","name":"","type":"bool"}],"stateMutability":"view","type":"function"},{"inputs":[{"internalType":"uint256","name":"_fee","type":"uint256"},{"internalType":"bytes32","name":"_orderId","type":"bytes32"},{"internalType":"bytes32","name":"_label","type":"bytes32"}],"name":"refund","outputs":[{"internalType":"bool","name":"","type":"bool"}],"stateMutability":"nonpayable","type":"function"},{"inputs":[],"name":"renounceOwnership","outputs":[],"stateMutability":"nonpayable","type":"function"},{"inputs":[{"internalType":"bytes32","name":"currency","type":"bytes32"},{"components":[{"internalType":"bytes32","name":"code","type":"bytes32"},{"internalType":"bytes32","name":"name","type":"bytes32"}],"internalType":"struct SharedStructs.Institution[]","name":"institutions","type":"tuple[]"}],"name":"setSupportedInstitutions","outputs":[],"stateMutability":"nonpayable","type":"function"},{"inputs":[{"internalType":"bytes32","name":"what","type":"bytes32"},{"internalType":"address","name":"value","type":"address"},{"internalType":"bool","name":"status","type":"bool"}],"name":"settingManagerBool","outputs":[],"stateMutability":"nonpayable","type":"function"},{"inputs":[{"internalType":"bytes32","name":"_splitOrderId","type":"bytes32"},{"internalType":"bytes32","name":"_orderId","type":"bytes32"},{"internalType":"bytes32","name":"_label","type":"bytes32"},{"internalType":"address","name":"_liquidityProvider","type":"address"},{"internalType":"uint64","name":"_settlePercent","type":"uint64"},{"internalType":"bool","name":"_isPartner","type":"bool"}],"name":"settle","outputs":[{"internalType":"bytes32","name":"","type":"bytes32"},{"internalType":"address","name":"","type":"address"}],"stateMutability":"nonpayable","type":"function"},{"inputs":[{"internalType":"address","name":"newOwner","type":"address"}],"name":"transferOwnership","outputs":[],"stateMutability":"nonpayable","type":"function"},{"inputs":[],"name":"unpause","outputs":[],"stateMutability":"nonpayable","type":"function"},{"inputs":[{"internalType":"bytes32","name":"what","type":"bytes32"},{"internalType":"address","name":"value","type":"address"}],"name":"updateProtocolAddresses","outputs":[],"stateMutability":"nonpayable","type":"function"},{"inputs":[{"internalType":"bytes","name":"aggregator","type":"bytes"}],"name":"updateProtocolAggregator","outputs":[],"stateMutability":"nonpayable","type":"function"},{"inputs":[{"internalType":"uint64","name":"_protocolFeePercent","type":"uint64"}],"name":"updateProtocolFees","outputs":[],"stateMutability":"nonpayable","type":"function"}],"devdoc":{"details":"Paycrest contract for handling orders and settlements.","events":{"Initialized(uint8)":{"details":"Triggered when the contract has been initialized or reinitialized."},"OrderCreated(address,uint256,bytes32,uint256,bytes32,bytes32,string)":{"details":"Emitted when a deposit is made.","params":{"amount":"The amount of the deposit.","institutionCode":"The code of the institution.","label":"The label of the deposit.","messageHash":"The hash of the message.","orderId":"The ID of the order.","rate":"The rate at which the deposit is made.","token":"The address of the deposited token."}},"OrderRefunded(uint256,bytes32,bytes32)":{"details":"Emitted when an aggregator refunds a transaction.","params":{"fee":"The fee deducted from the refund amount.","label":"The label of the transaction.","orderId":"The ID of the order."}},"OrderSettled(bytes32,bytes32,bytes32,address,uint96)":{"details":"Emitted when an aggregator settles a transaction.","params":{"label":"The label of the transaction.","liquidityProvider":"The address of the liquidity provider.","orderId":"The ID of the order.","settlePercent":"The percentage at which the transaction is settled.","splitOrderId":"The ID of the split order."}},"Paused(address)":{"details":"Emitted when the pause is triggered by `account`."},"SenderFeeTransferred(address,uint256)":{"details":"Emitted when the sender's fee is transferred.","params":{"amount":"The amount of the fee transferred.","sender":"The address of the sender."}},"Unpaused(address)":{"details":"Emitted when the pause is lifted by `account`."}},"kind":"dev","methods":{"constructor":{"custom:oz-upgrades-unsafe-allow":"constructor"},"createOrder(address,uint256,bytes32,bytes32,uint96,address,uint256,address,string)":{"details":"See {createOrder-IPaycrest}. "},"getAggregator()":{"details":"See {getAggregator-IPaycrest}. "},"getFeeDetails()":{"details":"See {getFeeDetails-IPaycrest}. "},"getOrderInfo(bytes32)":{"details":"See {getOrderInfo-IPaycrest}. "},"getSupportedInstitutionByCode(bytes32)":{"details":"See {getSupportedInstitutionByCode-IPaycrest}. "},"getSupportedInstitutions(bytes32)":{"details":"See {getSupportedInstitutions-IPaycrest}. "},"initialize()":{"details":"Initialize function."},"isTokenSupported(address)":{"details":"See {isTokenSupported-IPaycrest}. "},"owner()":{"details":"Returns the address of the current owner."},"pause()":{"details":"Pause the contract."},"paused()":{"details":"Returns true if the contract is paused, and false otherwise."},"refund(uint256,bytes32,bytes32)":{"details":"See {refund-IPaycrest}. "},"renounceOwnership()":{"details":"Leaves the contract without owner. It will not be possible to call `onlyOwner` functions. Can only be called by the current owner. NOTE: Renouncing ownership will leave the contract without an owner, thereby disabling any functionality that is only available to the owner."},"setSupportedInstitutions(bytes32,(bytes32,bytes32)[])":{"details":"Sets the supported institutions for a specific currency.","params":{"currency":"The currency for which the institutions are being set.","institutions":"The array of institutions to be set."}},"settingManagerBool(bytes32,address,bool)":{"details":"Sets the boolean value for a specific setting.","params":{"status":"The boolean value to be set. Requirements: - The value must not be a zero address.","value":"The address or value associated with the setting.","what":"The setting to be updated."}},"settle(bytes32,bytes32,bytes32,address,uint64,bool)":{"details":"See {settle-IPaycrest}. "},"transferOwnership(address)":{"details":"Transfers ownership of the contract to a new account (`newOwner`). Can only be called by the current owner."},"unpause()":{"details":"Unpause the contract."},"updateProtocolAddresses(bytes32,address)":{"details":"Updates the protocol addresses.","params":{"value":"The new address to be set. Requirements: - The value must not be a zero address.","what":"The address type to be updated (treasury or aggregator)."}},"updateProtocolAggregator(bytes)":{"details":"Updates the protocol aggregator.","params":{"aggregator":"The new aggregator to be set."}},"updateProtocolFees(uint64)":{"details":"Updates the protocol fees percentage.","params":{"_protocolFeePercent":"The new protocol fees percentage to be set."}}},"title":"Paycrest","version":1},"evm":{"bytecode":{"linkReferences":{},"object":"60806040523480156200001157600080fd5b50620000226200002860201b60201c565b620001d2565b600060019054906101000a900460ff16156200007b576040517f08c379a0000000000000000000000000000000000000000000000000000000008152600401620000729062000175565b60405180910390fd5b60ff801660008054906101000a900460ff1660ff1614620000ec5760ff6000806101000a81548160ff021916908360ff1602179055507f7f26b83ff96e1f2b6a682f133852f6798a09c465da95921460cefb384740249860ff604051620000e39190620001b5565b60405180910390a15b565b600082825260208201905092915050565b7f496e697469616c697a61626c653a20636f6e747261637420697320696e69746960008201527f616c697a696e6700000000000000000000000000000000000000000000000000602082015250565b60006200015d602783620000ee565b91506200016a82620000ff565b604082019050919050565b6000602082019050818103600083015262000190816200014e565b9050919050565b600060ff82169050919050565b620001af8162000197565b82525050565b6000602082019050620001cc6000830184620001a4565b92915050565b6140c080620001e26000396000f3fe608060405234801561001057600080fd5b50600436106101375760003560e01c806379a0effb116100b857806399e3c0b41161007c57806399e3c0b414610303578063b810c6361461031f578063c22801031461033e578063cb79455b1461036e578063d28a8d321461038a578063f2fde38b146103ba57610137565b806379a0effb146102995780638129fc1c146102b55780638456cb59146102bf57806384630736146102c95780638da5cb5b146102e557610137565b80635c975abb116100ff5780635c975abb146101e05780635fe44cac146101fe578063715018a61461022f57806375151b6314610239578063768c6ec01461026957610137565b8063026213381461013c5780632654ec7e1461016c578063322008821461019c5780633ad59dbc146101b85780633f4ba83a146101d6575b600080fd5b61015660048036038101906101519190612648565b6103d6565b6040516101639190612762565b60405180910390f35b610186600480360381019061018191906128c1565b610514565b60405161019391906129bb565b60405180910390f35b6101b660048036038101906101b19190612b7a565b6109b0565b005b6101c0610ac4565b6040516101cd9190612c55565b60405180910390f35b6101de610b56565b005b6101e8610b68565b6040516101f59190612c92565b60405180910390f35b61021860048036038101906102139190612d19565b610b7f565b604051610226929190612db5565b60405180910390f35b610237610f78565b005b610253600480360381019061024e9190612dde565b610f8c565b6040516102609190612c92565b60405180910390f35b610283600480360381019061027e9190612648565b610fe2565b6040516102909190612efe565b60405180910390f35b6102b360048036038101906102ae9190612f1a565b611213565b005b6102bd6113b9565b005b6102c7611509565b005b6102e360048036038101906102de9190612f5a565b61151b565b005b6102ed611586565b6040516102fa9190612f87565b60405180910390f35b61031d60048036038101906103189190612fa2565b6115b0565b005b6103276116e6565b604051610335929190613013565b60405180910390f35b61035860048036038101906103539190612648565b61170b565b604051610365919061306b565b60405180910390f35b610388600480360381019061038391906130dc565b61174c565b005b6103a4600480360381019061039f9190613129565b6117a3565b6040516103b19190612c92565b60405180910390f35b6103d460048036038101906103cf9190612dde565b611b3c565b005b60606000609c6000848152602001908152602001600020805480602002602001604051908101604052809291908181526020016000905b828210156104535783829060005260206000209060020201604051806040016040529081600082015481526020016001820154815250508152602001906001019061040d565b50505050905060008151905060008167ffffffffffffffff81111561047b5761047a6129e7565b5b6040519080825280602002602001820160405280156104b457816020015b6104a16124e2565b8152602001906001900390816104995790505b50905060005b82811015610508578381815181106104d5576104d461317c565b5b60200260200101518282815181106104f0576104ef61317c565b5b602002602001018190525080806001019150506104ba565b50809350505050919050565b600061051e611bbf565b61052c8b8b8689898e611c09565b60008383905011610572576040517f08c379a000000000000000000000000000000000000000000000000000000000815260040161056990613208565b60405180910390fd5b8a73ffffffffffffffffffffffffffffffffffffffff166323b872dd33308d6040518463ffffffff1660e01b81526004016105af93929190613228565b6020604051808303816000875af11580156105ce573d6000803e3d6000fd5b505050506040513d601f19601f820116820180604052508101906105f29190613274565b5060d160003373ffffffffffffffffffffffffffffffffffffffff1673ffffffffffffffffffffffffffffffffffffffff1681526020019081526020016000206000815480929190610643906132d0565b91905055503360d160003373ffffffffffffffffffffffffffffffffffffffff1673ffffffffffffffffffffffffffffffffffffffff1681526020019081526020016000205460405160200161069a929190613318565b6040516020818303038152906040528051906020012090506040518061012001604052803373ffffffffffffffffffffffffffffffffffffffff1681526020018c73ffffffffffffffffffffffffffffffffffffffff1681526020018773ffffffffffffffffffffffffffffffffffffffff168152602001868152602001886bffffffffffffffffffffffff1681526020016000151581526020018573ffffffffffffffffffffffffffffffffffffffff16815260200160655467ffffffffffffffff166bffffffffffffffffffffffff1681526020018b81525060d0600083815260200190815260200160002060008201518160000160006101000a81548173ffffffffffffffffffffffffffffffffffffffff021916908373ffffffffffffffffffffffffffffffffffffffff16021790555060208201518160010160006101000a81548173ffffffffffffffffffffffffffffffffffffffff021916908373ffffffffffffffffffffffffffffffffffffffff16021790555060408201518160020160006101000a81548173ffffffffffffffffffffffffffffffffffffffff021916908373ffffffffffffffffffffffffffffffffffffffff1602179055506060820151816003015560808201518160040160006101000a8154816bffffffffffffffffffffffff02191690836bffffffffffffffffffffffff16021790555060a082015181600401600c6101000a81548160ff02191690831515021790555060c08201518160050160006101000a81548173ffffffffffffffffffffffffffffffffffffffff021916908373ffffffffffffffffffffffffffffffffffffffff16021790555060e08201518160050160146101000a8154816bffffffffffffffffffffffff02191690836bffffffffffffffffffffffff1602179055506101008201518160060155905050808a8c73ffffffffffffffffffffffffffffffffffffffff167f63a5ce0c7dda94594842d8817c370279b2c0537f95b6cb628f022d92c8ebc4448a8d8d898960405161099a9594939291906133b8565b60405180910390a49a9950505050505050505050565b6109b8611e80565b60008151905060005b81811015610abe57609c60008581526020019081526020016000208382815181106109ef576109ee61317c565b5b60200260200101519080600181540180825580915050600190039060005260206000209060020201600090919091909150600082015181600001556020820151816001015550506040518060400160405280848381518110610a5457610a5361317c565b5b602002602001015160200151815260200185815250609d6000858481518110610a8057610a7f61317c565b5b6020026020010151600001518152602001908152602001600020600082015181600001556020820151816001015590505080806001019150506109c1565b50505050565b606060688054610ad390613435565b80601f0160208091040260200160405190810160405280929190818152602001828054610aff90613435565b8015610b4c5780601f10610b2157610100808354040283529160200191610b4c565b820191906000526020600020905b815481529060010190602001808311610b2f57829003601f168201915b5050505050905090565b610b5e611e80565b610b66611efe565b565b6000609e60009054906101000a900460ff16905090565b600080606760009054906101000a900473ffffffffffffffffffffffffffffffffffffffff1673ffffffffffffffffffffffffffffffffffffffff163373ffffffffffffffffffffffffffffffffffffffff1614610c12576040517f08c379a0000000000000000000000000000000000000000000000000000000008152600401610c09906134b2565b60405180910390fd5b60d06000888152602001908152602001600020600401600c9054906101000a900460ff1615610c76576040517f08c379a0000000000000000000000000000000000000000000000000000000008152600401610c6d9061351e565b60405180910390fd5b600060d0600089815260200190815260200160002060010160009054906101000a900473ffffffffffffffffffffffffffffffffffffffff1690508467ffffffffffffffff1660d060008a815260200190815260200160002060050160148282829054906101000a90046bffffffffffffffffffffffff16610cf8919061353e565b92506101000a8154816bffffffffffffffffffffffff02191690836bffffffffffffffffffffffff1602179055506000610d3d898767ffffffffffffffff1687611f61565b9050600060d060008b815260200190815260200160002060050160149054906101000a90046bffffffffffffffffffffffff166bffffffffffffffffffffffff1603610ddc57600160d060008b8152602001908152602001600020600401600c6101000a81548160ff021916908315150217905550600060d060008b8152602001908152602001600020600301541115610ddb57610dda89612072565b5b5b600081600001511115610e8f578173ffffffffffffffffffffffffffffffffffffffff1663a9059cbb606660089054906101000a900473ffffffffffffffffffffffffffffffffffffffff1683600001516040518363ffffffff1660e01b8152600401610e4a929190613318565b6020604051808303816000875af1158015610e69573d6000803e3d6000fd5b505050506040513d601f19601f82011682018060405250810190610e8d9190613274565b505b8173ffffffffffffffffffffffffffffffffffffffff1663a9059cbb8883602001516040518363ffffffff1660e01b8152600401610ece929190613318565b6020604051808303816000875af1158015610eed573d6000803e3d6000fd5b505050506040513d601f19601f82011682018060405250810190610f119190613274565b508673ffffffffffffffffffffffffffffffffffffffff16897fa9ec2b6676d3ea3e8da117193c71b1b85fcdbc72f077a624f950241eb38f13c28c8b8a604051610f5d939291906135af565b60405180910390a38882935093505050965096945050505050565b610f80611e80565b610f8a60006121c6565b565b6000609b60008373ffffffffffffffffffffffffffffffffffffffff1673ffffffffffffffffffffffffffffffffffffffff16815260200190815260200160002060009054906101000a900460ff169050919050565b610fea612502565b60d06000838152602001908152602001600020604051806101200160405290816000820160009054906101000a900473ffffffffffffffffffffffffffffffffffffffff1673ffffffffffffffffffffffffffffffffffffffff1673ffffffffffffffffffffffffffffffffffffffff1681526020016001820160009054906101000a900473ffffffffffffffffffffffffffffffffffffffff1673ffffffffffffffffffffffffffffffffffffffff1673ffffffffffffffffffffffffffffffffffffffff1681526020016002820160009054906101000a900473ffffffffffffffffffffffffffffffffffffffff1673ffffffffffffffffffffffffffffffffffffffff1673ffffffffffffffffffffffffffffffffffffffff168152602001600382015481526020016004820160009054906101000a90046bffffffffffffffffffffffff166bffffffffffffffffffffffff166bffffffffffffffffffffffff16815260200160048201600c9054906101000a900460ff161515151581526020016005820160009054906101000a900473ffffffffffffffffffffffffffffffffffffffff1673ffffffffffffffffffffffffffffffffffffffff1673ffffffffffffffffffffffffffffffffffffffff1681526020016005820160149054906101000a90046bffffffffffffffffffffffff166bffffffffffffffffffffffff166bffffffffffffffffffffffff1681526020016006820154815250509050919050565b61121b611e80565b600073ffffffffffffffffffffffffffffffffffffffff168173ffffffffffffffffffffffffffffffffffffffff160361128a576040517f08c379a000000000000000000000000000000000000000000000000000000000815260040161128190613632565b60405180910390fd5b7f747265617375727900000000000000000000000000000000000000000000000082036112f35780606660086101000a81548173ffffffffffffffffffffffffffffffffffffffff021916908373ffffffffffffffffffffffffffffffffffffffff1602179055505b7f61676772656761746f7200000000000000000000000000000000000000000000820361135c5780606760006101000a81548173ffffffffffffffffffffffffffffffffffffffff021916908373ffffffffffffffffffffffffffffffffffffffff1602179055505b7fd8ef77a7d69a6b79f131ecd9aa37060ba0853bbd37cb175ec1abd05738ce27cb606660089054906101000a900473ffffffffffffffffffffffffffffffffffffffff166040516113ad9190612f87565b60405180910390a15050565b60008060019054906101000a900460ff161590508080156113ea5750600160008054906101000a900460ff1660ff16105b8061141757506113f93061228c565b1580156114165750600160008054906101000a900460ff1660ff16145b5b611456576040517f08c379a000000000000000000000000000000000000000000000000000000000815260040161144d906136c4565b60405180910390fd5b60016000806101000a81548160ff021916908360ff1602179055508015611493576001600060016101000a81548160ff0219169083151502179055505b620186a06065819055506114a56122af565b6114ad612308565b80156115065760008060016101000a81548160ff0219169083151502179055507f7f26b83ff96e1f2b6a682f133852f6798a09c465da95921460cefb384740249860016040516114fd919061372c565b60405180910390a15b50565b611511611e80565b611519612361565b565b611523611e80565b80606660006101000a81548167ffffffffffffffff021916908367ffffffffffffffff1602179055507fb94068a4bd2571acee6ac79acc9dcdcf10c31425d35f09e88f154ec520e264468160405161157b9190613747565b60405180910390a150565b6000603360009054906101000a900473ffffffffffffffffffffffffffffffffffffffff16905090565b6115b8611e80565b600073ffffffffffffffffffffffffffffffffffffffff168273ffffffffffffffffffffffffffffffffffffffff1603611627576040517f08c379a000000000000000000000000000000000000000000000000000000000815260040161161e90613632565b60405180910390fd5b7f746f6b656e00000000000000000000000000000000000000000000000000000083036116a65780609b60008473ffffffffffffffffffffffffffffffffffffffff1673ffffffffffffffffffffffffffffffffffffffff16815260200190815260200160002060006101000a81548160ff0219169083151502179055505b7fe22cadcc5ddbc0a185e8920eaa6825bcc06dcd6b432988e7e9912caa59ace9308383836040516116d993929190613762565b60405180910390a1505050565b600080606660009054906101000a900467ffffffffffffffff16606554915091509091565b6117136125c4565b609d6000838152602001908152602001600020604051806040016040529081600082015481526020016001820154815250509050919050565b611754611e80565b818160689182611765929190613946565b507f6a6600b7242975868d8321b5e64d0c9f2fcc92eb1af72254a6357be77ee7dcef8282604051611797929190613a43565b60405180910390a15050565b6000606760009054906101000a900473ffffffffffffffffffffffffffffffffffffffff1673ffffffffffffffffffffffffffffffffffffffff163373ffffffffffffffffffffffffffffffffffffffff1614611835576040517f08c379a000000000000000000000000000000000000000000000000000000000815260040161182c906134b2565b60405180910390fd5b60d06000848152602001908152602001600020600401600c9054906101000a900460ff1615611899576040517f08c379a00000000000000000000000000000000000000000000000000000000081526004016118909061351e565b60405180910390fd5b60008460d06000868152602001908152602001600020600601546118bd9190613a67565b905060d0600085815260200190815260200160002060010160009054906101000a900473ffffffffffffffffffffffffffffffffffffffff1673ffffffffffffffffffffffffffffffffffffffff1663a9059cbb606660089054906101000a900473ffffffffffffffffffffffffffffffffffffffff16876040518363ffffffff1660e01b8152600401611952929190613318565b6020604051808303816000875af1158015611971573d6000803e3d6000fd5b505050506040513d601f19601f820116820180604052508101906119959190613274565b50600160d06000868152602001908152602001600020600401600c6101000a81548160ff021916908315150217905550600060d0600086815260200190815260200160002060050160146101000a8154816bffffffffffffffffffffffff02191690836bffffffffffffffffffffffff16021790555060d0600085815260200190815260200160002060010160009054906101000a900473ffffffffffffffffffffffffffffffffffffffff1673ffffffffffffffffffffffffffffffffffffffff1663a9059cbb60d0600087815260200190815260200160002060050160009054906101000a900473ffffffffffffffffffffffffffffffffffffffff16836040518363ffffffff1660e01b8152600401611ab2929190613318565b6020604051808303816000875af1158015611ad1573d6000803e3d6000fd5b505050506040513d601f19601f82011682018060405250810190611af59190613274565b50837f79252c381c5280f78c77f378791e42b506843a48916430480eab95a898cdae9f8685604051611b28929190613a9b565b60405180910390a260019150509392505050565b611b44611e80565b600073ffffffffffffffffffffffffffffffffffffffff168173ffffffffffffffffffffffffffffffffffffffff1603611bb3576040517f08c379a0000000000000000000000000000000000000000000000000000000008152600401611baa90613b36565b60405180910390fd5b611bbc816121c6565b50565b611bc7610b68565b15611c07576040517f08c379a0000000000000000000000000000000000000000000000000000000008152600401611bfe90613ba2565b60405180910390fd5b565b609b60008773ffffffffffffffffffffffffffffffffffffffff1673ffffffffffffffffffffffffffffffffffffffff16815260200190815260200160002060009054906101000a900460ff16611c95576040517f08c379a0000000000000000000000000000000000000000000000000000000008152600401611c8c90613c0e565b60405180910390fd5b60008511611cd8576040517f08c379a0000000000000000000000000000000000000000000000000000000008152600401611ccf90613c7a565b60405180910390fd5b600073ffffffffffffffffffffffffffffffffffffffff168473ffffffffffffffffffffffffffffffffffffffff1603611d47576040517f08c379a0000000000000000000000000000000000000000000000000000000008152600401611d3e90613ce6565b60405180910390fd5b6000801b609d60008381526020019081526020016000206000015403611da2576040517f08c379a0000000000000000000000000000000000000000000000000000000008152600401611d9990613d52565b60405180910390fd5b6000821115611e1b57600073ffffffffffffffffffffffffffffffffffffffff168373ffffffffffffffffffffffffffffffffffffffff1603611e1a576040517f08c379a0000000000000000000000000000000000000000000000000000000008152600401611e1190613dbe565b60405180910390fd5b5b6065546101f486611e2c9190613dde565b611e369190613e4f565b821115611e78576040517f08c379a0000000000000000000000000000000000000000000000000000000008152600401611e6f90613ecc565b60405180910390fd5b505050505050565b611e886123c4565b73ffffffffffffffffffffffffffffffffffffffff16611ea6611586565b73ffffffffffffffffffffffffffffffffffffffff1614611efc576040517f08c379a0000000000000000000000000000000000000000000000000000000008152600401611ef390613f38565b60405180910390fd5b565b611f066123cc565b6000609e60006101000a81548160ff0219169083151502179055507f5db9ee0a495bf2e6ff9c91a7834c1ba4fdd244a5e8aa4e537bd38aeae4b073aa611f4a6123c4565b604051611f579190612f87565b60405180910390a1565b611f696125e4565b600060d0600086815260200190815260200160002060060154905060d060008681526020019081526020016000206003015481611fa69190613a67565b9050606554846bffffffffffffffffffffffff1682611fc59190613dde565b611fcf9190613e4f565b826020018181525050606554606660009054906101000a900467ffffffffffffffff1667ffffffffffffffff16836020015161200b9190613dde565b6120159190613e4f565b826000018181525050816000015182602001516120329190613a67565b826020018181525050821561206a578160000151826020018181516120579190613f58565b9150818152505060008260000181815250505b509392505050565b600060d0600083815260200190815260200160002060020160009054906101000a900473ffffffffffffffffffffffffffffffffffffffff169050600060d0600084815260200190815260200160002060030154905060d0600084815260200190815260200160002060010160009054906101000a900473ffffffffffffffffffffffffffffffffffffffff1673ffffffffffffffffffffffffffffffffffffffff1663a9059cbb83836040518363ffffffff1660e01b8152600401612139929190613318565b6020604051808303816000875af1158015612158573d6000803e3d6000fd5b505050506040513d601f19601f8201168201806040525081019061217c9190613274565b50808273ffffffffffffffffffffffffffffffffffffffff167f44f6938ca4a10313aabb76f874cced61e35710a734a126e4afb34461bf8c250160405160405180910390a3505050565b6000603360009054906101000a900473ffffffffffffffffffffffffffffffffffffffff16905081603360006101000a81548173ffffffffffffffffffffffffffffffffffffffff021916908373ffffffffffffffffffffffffffffffffffffffff1602179055508173ffffffffffffffffffffffffffffffffffffffff168173ffffffffffffffffffffffffffffffffffffffff167f8be0079c531659141344cd1fd0a4f28419497f9722a3daafe3b4186f6b6457e060405160405180910390a35050565b6000808273ffffffffffffffffffffffffffffffffffffffff163b119050919050565b600060019054906101000a900460ff166122fe576040517f08c379a00000000000000000000000000000000000000000000000000000000081526004016122f590613ffe565b60405180910390fd5b612306612415565b565b600060019054906101000a900460ff16612357576040517f08c379a000000000000000000000000000000000000000000000000000000000815260040161234e90613ffe565b60405180910390fd5b61235f612476565b565b612369611bbf565b6001609e60006101000a81548160ff0219169083151502179055507f62e78cea01bee320cd4e420270b5ea74000d11b0c9f74754ebdbfc544b05a2586123ad6123c4565b6040516123ba9190612f87565b60405180910390a1565b600033905090565b6123d4610b68565b612413576040517f08c379a000000000000000000000000000000000000000000000000000000000815260040161240a9061406a565b60405180910390fd5b565b600060019054906101000a900460ff16612464576040517f08c379a000000000000000000000000000000000000000000000000000000000815260040161245b90613ffe565b60405180910390fd5b61247461246f6123c4565b6121c6565b565b600060019054906101000a900460ff166124c5576040517f08c379a00000000000000000000000000000000000000000000000000000000081526004016124bc90613ffe565b60405180910390fd5b6000609e60006101000a81548160ff021916908315150217905550565b604051806040016040528060008019168152602001600080191681525090565b604051806101200160405280600073ffffffffffffffffffffffffffffffffffffffff168152602001600073ffffffffffffffffffffffffffffffffffffffff168152602001600073ffffffffffffffffffffffffffffffffffffffff1681526020016000815260200160006bffffffffffffffffffffffff168152602001600015158152602001600073ffffffffffffffffffffffffffffffffffffffff16815260200160006bffffffffffffffffffffffff168152602001600081525090565b604051806040016040528060008019168152602001600080191681525090565b604051806040016040528060008152602001600081525090565b6000604051905090565b600080fd5b600080fd5b6000819050919050565b61262581612612565b811461263057600080fd5b50565b6000813590506126428161261c565b92915050565b60006020828403121561265e5761265d612608565b5b600061266c84828501612633565b91505092915050565b600081519050919050565b600082825260208201905092915050565b6000819050602082019050919050565b6126aa81612612565b82525050565b6040820160008201516126c660008501826126a1565b5060208201516126d960208501826126a1565b50505050565b60006126eb83836126b0565b60408301905092915050565b6000602082019050919050565b600061270f82612675565b6127198185612680565b935061272483612691565b8060005b8381101561275557815161273c88826126df565b9750612747836126f7565b925050600181019050612728565b5085935050505092915050565b6000602082019050818103600083015261277c8184612704565b905092915050565b600073ffffffffffffffffffffffffffffffffffffffff82169050919050565b60006127af82612784565b9050919050565b6127bf816127a4565b81146127ca57600080fd5b50565b6000813590506127dc816127b6565b92915050565b6000819050919050565b6127f5816127e2565b811461280057600080fd5b50565b600081359050612812816127ec565b92915050565b60006bffffffffffffffffffffffff82169050919050565b61283981612818565b811461284457600080fd5b50565b60008135905061285681612830565b92915050565b600080fd5b600080fd5b600080fd5b60008083601f8401126128815761288061285c565b5b8235905067ffffffffffffffff81111561289e5761289d612861565b5b6020830191508360018202830111156128ba576128b9612866565b5b9250929050565b6000806000806000806000806000806101208b8d0312156128e5576128e4612608565b5b60006128f38d828e016127cd565b9a505060206129048d828e01612803565b99505060406129158d828e01612633565b98505060606129268d828e01612633565b97505060806129378d828e01612847565b96505060a06129488d828e016127cd565b95505060c06129598d828e01612803565b94505060e061296a8d828e016127cd565b9350506101008b013567ffffffffffffffff81111561298c5761298b61260d565b5b6129988d828e0161286b565b92509250509295989b9194979a5092959850565b6129b581612612565b82525050565b60006020820190506129d060008301846129ac565b92915050565b6000601f19601f8301169050919050565b7f4e487b7100000000000000000000000000000000000000000000000000000000600052604160045260246000fd5b612a1f826129d6565b810181811067ffffffffffffffff82111715612a3e57612a3d6129e7565b5b80604052505050565b6000612a516125fe565b9050612a5d8282612a16565b919050565b600067ffffffffffffffff821115612a7d57612a7c6129e7565b5b602082029050602081019050919050565b600080fd5b600060408284031215612aa957612aa8612a8e565b5b612ab36040612a47565b90506000612ac384828501612633565b6000830152506020612ad784828501612633565b60208301525092915050565b6000612af6612af184612a62565b612a47565b90508083825260208201905060408402830185811115612b1957612b18612866565b5b835b81811015612b425780612b2e8882612a93565b845260208401935050604081019050612b1b565b5050509392505050565b600082601f830112612b6157612b6061285c565b5b8135612b71848260208601612ae3565b91505092915050565b60008060408385031215612b9157612b90612608565b5b6000612b9f85828601612633565b925050602083013567ffffffffffffffff811115612bc057612bbf61260d565b5b612bcc85828601612b4c565b9150509250929050565b600081519050919050565b600082825260208201905092915050565b60005b83811015612c10578082015181840152602081019050612bf5565b60008484015250505050565b6000612c2782612bd6565b612c318185612be1565b9350612c41818560208601612bf2565b612c4a816129d6565b840191505092915050565b60006020820190508181036000830152612c6f8184612c1c565b905092915050565b60008115159050919050565b612c8c81612c77565b82525050565b6000602082019050612ca76000830184612c83565b92915050565b600067ffffffffffffffff82169050919050565b612cca81612cad565b8114612cd557600080fd5b50565b600081359050612ce781612cc1565b92915050565b612cf681612c77565b8114612d0157600080fd5b50565b600081359050612d1381612ced565b92915050565b60008060008060008060c08789031215612d3657612d35612608565b5b6000612d4489828a01612633565b9650506020612d5589828a01612633565b9550506040612d6689828a01612633565b9450506060612d7789828a016127cd565b9350506080612d8889828a01612cd8565b92505060a0612d9989828a01612d04565b9150509295509295509295565b612daf816127a4565b82525050565b6000604082019050612dca60008301856129ac565b612dd76020830184612da6565b9392505050565b600060208284031215612df457612df3612608565b5b6000612e02848285016127cd565b91505092915050565b612e14816127a4565b82525050565b612e23816127e2565b82525050565b612e3281612818565b82525050565b612e4181612c77565b82525050565b61012082016000820151612e5e6000850182612e0b565b506020820151612e716020850182612e0b565b506040820151612e846040850182612e0b565b506060820151612e976060850182612e1a565b506080820151612eaa6080850182612e29565b5060a0820151612ebd60a0850182612e38565b5060c0820151612ed060c0850182612e0b565b5060e0820151612ee360e0850182612e29565b50610100820151612ef8610100850182612e1a565b50505050565b600061012082019050612f146000830184612e47565b92915050565b60008060408385031215612f3157612f30612608565b5b6000612f3f85828601612633565b9250506020612f50858286016127cd565b9150509250929050565b600060208284031215612f7057612f6f612608565b5b6000612f7e84828501612cd8565b91505092915050565b6000602082019050612f9c6000830184612da6565b92915050565b600080600060608486031215612fbb57612fba612608565b5b6000612fc986828701612633565b9350506020612fda868287016127cd565b9250506040612feb86828701612d04565b9150509250925092565b612ffe81612cad565b82525050565b61300d816127e2565b82525050565b60006040820190506130286000830185612ff5565b6130356020830184613004565b9392505050565b60408201600082015161305260008501826126a1565b50602082015161306560208501826126a1565b50505050565b6000604082019050613080600083018461303c565b92915050565b60008083601f84011261309c5761309b61285c565b5b8235905067ffffffffffffffff8111156130b9576130b8612861565b5b6020830191508360018202830111156130d5576130d4612866565b5b9250929050565b600080602083850312156130f3576130f2612608565b5b600083013567ffffffffffffffff8111156131115761311061260d565b5b61311d85828601613086565b92509250509250929050565b60008060006060848603121561314257613141612608565b5b600061315086828701612803565b935050602061316186828701612633565b925050604061317286828701612633565b9150509250925092565b7f4e487b7100000000000000000000000000000000000000000000000000000000600052603260045260246000fd5b600082825260208201905092915050565b7f496e76616c69644d657373616765486173680000000000000000000000000000600082015250565b60006131f26012836131ab565b91506131fd826131bc565b602082019050919050565b60006020820190508181036000830152613221816131e5565b9050919050565b600060608201905061323d6000830186612da6565b61324a6020830185612da6565b6132576040830184613004565b949350505050565b60008151905061326e81612ced565b92915050565b60006020828403121561328a57613289612608565b5b60006132988482850161325f565b91505092915050565b7f4e487b7100000000000000000000000000000000000000000000000000000000600052601160045260246000fd5b60006132db826127e2565b91507fffffffffffffffffffffffffffffffffffffffffffffffffffffffffffffffff820361330d5761330c6132a1565b5b600182019050919050565b600060408201905061332d6000830185612da6565b61333a6020830184613004565b9392505050565b6000819050919050565b600061336661336161335c84612818565b613341565b6127e2565b9050919050565b6133768161334b565b82525050565b82818337600083830152505050565b600061339783856131ab565b93506133a483858461337c565b6133ad836129d6565b840190509392505050565b60006080820190506133cd600083018861336d565b6133da60208301876129ac565b6133e760408301866129ac565b81810360608301526133fa81848661338b565b90509695505050505050565b7f4e487b7100000000000000000000000000000000000000000000000000000000600052602260045260246000fd5b6000600282049050600182168061344d57607f821691505b6020821081036134605761345f613406565b5b50919050565b7f4f6e6c7941676772656761746f72000000000000000000000000000000000000600082015250565b600061349c600e836131ab565b91506134a782613466565b602082019050919050565b600060208201905081810360008301526134cb8161348f565b9050919050565b7f4f7264657246756c66696c6c6564000000000000000000000000000000000000600082015250565b6000613508600e836131ab565b9150613513826134d2565b602082019050919050565b60006020820190508181036000830152613537816134fb565b9050919050565b600061354982612818565b915061355483612818565b925082820390506bffffffffffffffffffffffff811115613578576135776132a1565b5b92915050565b600061359961359461358f84612cad565b613341565b612818565b9050919050565b6135a98161357e565b82525050565b60006060820190506135c460008301866129ac565b6135d160208301856129ac565b6135de60408301846135a0565b949350505050565b7f50617963726573743a207a65726f206164647265737300000000000000000000600082015250565b600061361c6016836131ab565b9150613627826135e6565b602082019050919050565b6000602082019050818103600083015261364b8161360f565b9050919050565b7f496e697469616c697a61626c653a20636f6e747261637420697320616c72656160008201527f647920696e697469616c697a6564000000000000000000000000000000000000602082015250565b60006136ae602e836131ab565b91506136b982613652565b604082019050919050565b600060208201905081810360008301526136dd816136a1565b9050919050565b6000819050919050565b600060ff82169050919050565b600061371661371161370c846136e4565b613341565b6136ee565b9050919050565b613726816136fb565b82525050565b6000602082019050613741600083018461371d565b92915050565b600060208201905061375c6000830184612ff5565b92915050565b600060608201905061377760008301866129ac565b6137846020830185612da6565b6137916040830184612c83565b949350505050565b600082905092915050565b60008190508160005260206000209050919050565b60006020601f8301049050919050565b600082821b905092915050565b6000600883026138067fffffffffffffffffffffffffffffffffffffffffffffffffffffffffffffffff826137c9565b61381086836137c9565b95508019841693508086168417925050509392505050565b600061384361383e613839846127e2565b613341565b6127e2565b9050919050565b6000819050919050565b61385d83613828565b6138716138698261384a565b8484546137d6565b825550505050565b600090565b613886613879565b613891818484613854565b505050565b5b818110156138b5576138aa60008261387e565b600181019050613897565b5050565b601f8211156138fa576138cb816137a4565b6138d4846137b9565b810160208510156138e3578190505b6138f76138ef856137b9565b830182613896565b50505b505050565b600082821c905092915050565b600061391d600019846008026138ff565b1980831691505092915050565b6000613936838361390c565b9150826002028217905092915050565b6139508383613799565b67ffffffffffffffff811115613969576139686129e7565b5b6139738254613435565b61397e8282856138b9565b6000601f8311600181146139ad576000841561399b578287013590505b6139a5858261392a565b865550613a0d565b601f1984166139bb866137a4565b60005b828110156139e3578489013582556001820191506020850194506020810190506139be565b86831015613a0057848901356139fc601f89168261390c565b8355505b6001600288020188555050505b50505050505050565b6000613a228385612be1565b9350613a2f83858461337c565b613a38836129d6565b840190509392505050565b60006020820190508181036000830152613a5e818486613a16565b90509392505050565b6000613a72826127e2565b9150613a7d836127e2565b9250828203905081811115613a9557613a946132a1565b5b92915050565b6000604082019050613ab06000830185613004565b613abd60208301846129ac565b9392505050565b7f4f776e61626c653a206e6577206f776e657220697320746865207a65726f206160008201527f6464726573730000000000000000000000000000000000000000000000000000602082015250565b6000613b206026836131ab565b9150613b2b82613ac4565b604082019050919050565b60006020820190508181036000830152613b4f81613b13565b9050919050565b7f5061757361626c653a2070617573656400000000000000000000000000000000600082015250565b6000613b8c6010836131ab565b9150613b9782613b56565b602082019050919050565b60006020820190508181036000830152613bbb81613b7f565b9050919050565b7f546f6b656e4e6f74537570706f72746564000000000000000000000000000000600082015250565b6000613bf86011836131ab565b9150613c0382613bc2565b602082019050919050565b60006020820190508181036000830152613c2781613beb565b9050919050565b7f416d6f756e7449735a65726f0000000000000000000000000000000000000000600082015250565b6000613c64600c836131ab565b9150613c6f82613c2e565b602082019050919050565b60006020820190508181036000830152613c9381613c57565b9050919050565b7f5468726f775a65726f4164647265737300000000000000000000000000000000600082015250565b6000613cd06010836131ab565b9150613cdb82613c9a565b602082019050919050565b60006020820190508181036000830152613cff81613cc3565b9050919050565b7f496e76616c6964496e737469747574696f6e436f646500000000000000000000600082015250565b6000613d3c6016836131ab565b9150613d4782613d06565b602082019050919050565b60006020820190508181036000830152613d6b81613d2f565b9050919050565b7f496e76616c696453656e646572466565526563697069656e7400000000000000600082015250565b6000613da86019836131ab565b9150613db382613d72565b602082019050919050565b60006020820190508181036000830152613dd781613d9b565b9050919050565b6000613de9826127e2565b9150613df4836127e2565b9250828202613e02816127e2565b91508282048414831517613e1957613e186132a1565b5b5092915050565b7f4e487b7100000000000000000000000000000000000000000000000000000000600052601260045260246000fd5b6000613e5a826127e2565b9150613e65836127e2565b925082613e7557613e74613e20565b5b828204905092915050565b7f53656e646572466565546f6f4869676800000000000000000000000000000000600082015250565b6000613eb66010836131ab565b9150613ec182613e80565b602082019050919050565b60006020820190508181036000830152613ee581613ea9565b9050919050565b7f4f776e61626c653a2063616c6c6572206973206e6f7420746865206f776e6572600082015250565b6000613f226020836131ab565b9150613f2d82613eec565b602082019050919050565b60006020820190508181036000830152613f5181613f15565b9050919050565b6000613f63826127e2565b9150613f6e836127e2565b9250828201905080821115613f8657613f856132a1565b5b92915050565b7f496e697469616c697a61626c653a20636f6e7472616374206973206e6f74206960008201527f6e697469616c697a696e67000000000000000000000000000000000000000000602082015250565b6000613fe8602b836131ab565b9150613ff382613f8c565b604082019050919050565b6000602082019050818103600083015261401781613fdb565b9050919050565b7f5061757361626c653a206e6f7420706175736564000000000000000000000000600082015250565b60006140546014836131ab565b915061405f8261401e565b602082019050919050565b6000602082019050818103600083015261408381614047565b905091905056fea2646970667358221220b0b646aa2cd3c72c2408924e5e96c69307ed3d3fca95cd358f38f51a5646497664736f6c63430008120033","opcodes":"PUSH1 0x80 PUSH1 0x40 MSTORE CALLVALUE DUP1 ISZERO PUSH3 0x11 JUMPI PUSH1 0x0 DUP1 REVERT JUMPDEST POP PUSH3 0x22 PUSH3 0x28 PUSH1 0x20 SHL PUSH1 0x20 SHR JUMP JUMPDEST PUSH3 0x1D2 JUMP JUMPDEST PUSH1 0x0 PUSH1 0x1 SWAP1 SLOAD SWAP1 PUSH2 0x100 EXP SWAP1 DIV PUSH1 0xFF AND ISZERO PUSH3 0x7B JUMPI PUSH1 0x40 MLOAD PUSH32 0x8C379A000000000000000000000000000000000000000000000000000000000 DUP2 MSTORE PUSH1 0x4 ADD PUSH3 0x72 SWAP1 PUSH3 0x175 JUMP JUMPDEST PUSH1 0x40 MLOAD DUP1 SWAP2 SUB SWAP1 REVERT JUMPDEST PUSH1 0xFF DUP1 AND PUSH1 0x0 DUP1 SLOAD SWAP1 PUSH2 0x100 EXP SWAP1 DIV PUSH1 0xFF AND PUSH1 0xFF AND EQ PUSH3 0xEC JUMPI PUSH1 0xFF PUSH1 0x0 DUP1 PUSH2 0x100 EXP DUP2 SLOAD DUP2 PUSH1 0xFF MUL NOT AND SWAP1 DUP4 PUSH1 0xFF AND MUL OR SWAP1 SSTORE POP PUSH32 0x7F26B83FF96E1F2B6A682F133852F6798A09C465DA95921460CEFB3847402498 PUSH1 0xFF PUSH1 0x40 MLOAD PUSH3 0xE3 SWAP2 SWAP1 PUSH3 0x1B5 JUMP JUMPDEST PUSH1 0x40 MLOAD DUP1 SWAP2 SUB SWAP1 LOG1 JUMPDEST JUMP JUMPDEST PUSH1 0x0 DUP3 DUP3 MSTORE PUSH1 0x20 DUP3 ADD SWAP1 POP SWAP3 SWAP2 POP POP JUMP JUMPDEST PUSH32 0x496E697469616C697A61626C653A20636F6E747261637420697320696E697469 PUSH1 0x0 DUP3 ADD MSTORE PUSH32 0x616C697A696E6700000000000000000000000000000000000000000000000000 PUSH1 0x20 DUP3 ADD MSTORE POP JUMP JUMPDEST PUSH1 0x0 PUSH3 0x15D PUSH1 0x27 DUP4 PUSH3 0xEE JUMP JUMPDEST SWAP2 POP PUSH3 0x16A DUP3 PUSH3 0xFF JUMP JUMPDEST PUSH1 0x40 DUP3 ADD SWAP1 POP SWAP2 SWAP1 POP JUMP JUMPDEST PUSH1 0x0 PUSH1 0x20 DUP3 ADD SWAP1 POP DUP2 DUP2 SUB PUSH1 0x0 DUP4 ADD MSTORE PUSH3 0x190 DUP2 PUSH3 0x14E JUMP JUMPDEST SWAP1 POP SWAP2 SWAP1 POP JUMP JUMPDEST PUSH1 0x0 PUSH1 0xFF DUP3 AND SWAP1 POP SWAP2 SWAP1 POP JUMP JUMPDEST PUSH3 0x1AF DUP2 PUSH3 0x197 JUMP JUMPDEST DUP3 MSTORE POP POP JUMP JUMPDEST PUSH1 0x0 PUSH1 0x20 DUP3 ADD SWAP1 POP PUSH3 0x1CC PUSH1 0x0 DUP4 ADD DUP5 PUSH3 0x1A4 JUMP JUMPDEST SWAP3 SWAP2 POP POP JUMP JUMPDEST PUSH2 0x40C0 DUP1 PUSH3 0x1E2 PUSH1 0x0 CODECOPY PUSH1 0x0 RETURN INVALID PUSH1 0x80 PUSH1 0x40 MSTORE CALLVALUE DUP1 ISZERO PUSH2 0x10 JUMPI PUSH1 0x0 DUP1 REVERT JUMPDEST POP PUSH1 0x4 CALLDATASIZE LT PUSH2 0x137 JUMPI PUSH1 0x0 CALLDATALOAD PUSH1 0xE0 SHR DUP1 PUSH4 0x79A0EFFB GT PUSH2 0xB8 JUMPI DUP1 PUSH4 0x99E3C0B4 GT PUSH2 0x7C JUMPI DUP1 PUSH4 0x99E3C0B4 EQ PUSH2 0x303 JUMPI DUP1 PUSH4 0xB810C636 EQ PUSH2 0x31F JUMPI DUP1 PUSH4 0xC2280103 EQ PUSH2 0x33E JUMPI DUP1 PUSH4 0xCB79455B EQ PUSH2 0x36E JUMPI DUP1 PUSH4 0xD28A8D32 EQ PUSH2 0x38A JUMPI DUP1 PUSH4 0xF2FDE38B EQ PUSH2 0x3BA JUMPI PUSH2 0x137 JUMP JUMPDEST DUP1 PUSH4 0x79A0EFFB EQ PUSH2 0x299 JUMPI DUP1 PUSH4 0x8129FC1C EQ PUSH2 0x2B5 JUMPI DUP1 PUSH4 0x8456CB59 EQ PUSH2 0x2BF JUMPI DUP1 PUSH4 0x84630736 EQ PUSH2 0x2C9 JUMPI DUP1 PUSH4 0x8DA5CB5B EQ PUSH2 0x2E5 JUMPI PUSH2 0x137 JUMP JUMPDEST DUP1 PUSH4 0x5C975ABB GT PUSH2 0xFF JUMPI DUP1 PUSH4 0x5C975ABB EQ PUSH2 0x1E0 JUMPI DUP1 PUSH4 0x5FE44CAC EQ PUSH2 0x1FE JUMPI DUP1 PUSH4 0x715018A6 EQ PUSH2 0x22F JUMPI DUP1 PUSH4 0x75151B63 EQ PUSH2 0x239 JUMPI DUP1 PUSH4 0x768C6EC0 EQ PUSH2 0x269 JUMPI PUSH2 0x137 JUMP JUMPDEST DUP1 PUSH4 0x2621338 EQ PUSH2 0x13C JUMPI DUP1 PUSH4 0x2654EC7E EQ PUSH2 0x16C JUMPI DUP1 PUSH4 0x32200882 EQ PUSH2 0x19C JUMPI DUP1 PUSH4 0x3AD59DBC EQ PUSH2 0x1B8 JUMPI DUP1 PUSH4 0x3F4BA83A EQ PUSH2 0x1D6 JUMPI JUMPDEST PUSH1 0x0 DUP1 REVERT JUMPDEST PUSH2 0x156 PUSH1 0x4 DUP1 CALLDATASIZE SUB DUP2 ADD SWAP1 PUSH2 0x151 SWAP2 SWAP1 PUSH2 0x2648 JUMP JUMPDEST PUSH2 0x3D6 JUMP JUMPDEST PUSH1 0x40 MLOAD PUSH2 0x163 SWAP2 SWAP1 PUSH2 0x2762 JUMP JUMPDEST PUSH1 0x40 MLOAD DUP1 SWAP2 SUB SWAP1 RETURN JUMPDEST PUSH2 0x186 PUSH1 0x4 DUP1 CALLDATASIZE SUB DUP2 ADD SWAP1 PUSH2 0x181 SWAP2 SWAP1 PUSH2 0x28C1 JUMP JUMPDEST PUSH2 0x514 JUMP JUMPDEST PUSH1 0x40 MLOAD PUSH2 0x193 SWAP2 SWAP1 PUSH2 0x29BB JUMP JUMPDEST PUSH1 0x40 MLOAD DUP1 SWAP2 SUB SWAP1 RETURN JUMPDEST PUSH2 0x1B6 PUSH1 0x4 DUP1 CALLDATASIZE SUB DUP2 ADD SWAP1 PUSH2 0x1B1 SWAP2 SWAP1 PUSH2 0x2B7A JUMP JUMPDEST PUSH2 0x9B0 JUMP JUMPDEST STOP JUMPDEST PUSH2 0x1C0 PUSH2 0xAC4 JUMP JUMPDEST PUSH1 0x40 MLOAD PUSH2 0x1CD SWAP2 SWAP1 PUSH2 0x2C55 JUMP JUMPDEST PUSH1 0x40 MLOAD DUP1 SWAP2 SUB SWAP1 RETURN JUMPDEST PUSH2 0x1DE PUSH2 0xB56 JUMP JUMPDEST STOP JUMPDEST PUSH2 0x1E8 PUSH2 0xB68 JUMP JUMPDEST PUSH1 0x40 MLOAD PUSH2 0x1F5 SWAP2 SWAP1 PUSH2 0x2C92 JUMP JUMPDEST PUSH1 0x40 MLOAD DUP1 SWAP2 SUB SWAP1 RETURN JUMPDEST PUSH2 0x218 PUSH1 0x4 DUP1 CALLDATASIZE SUB DUP2 ADD SWAP1 PUSH2 0x213 SWAP2 SWAP1 PUSH2 0x2D19 JUMP JUMPDEST PUSH2 0xB7F JUMP JUMPDEST PUSH1 0x40 MLOAD PUSH2 0x226 SWAP3 SWAP2 SWAP1 PUSH2 0x2DB5 JUMP JUMPDEST PUSH1 0x40 MLOAD DUP1 SWAP2 SUB SWAP1 RETURN JUMPDEST PUSH2 0x237 PUSH2 0xF78 JUMP JUMPDEST STOP JUMPDEST PUSH2 0x253 PUSH1 0x4 DUP1 CALLDATASIZE SUB DUP2 ADD SWAP1 PUSH2 0x24E SWAP2 SWAP1 PUSH2 0x2DDE JUMP JUMPDEST PUSH2 0xF8C JUMP JUMPDEST PUSH1 0x40 MLOAD PUSH2 0x260 SWAP2 SWAP1 PUSH2 0x2C92 JUMP JUMPDEST PUSH1 0x40 MLOAD DUP1 SWAP2 SUB SWAP1 RETURN JUMPDEST PUSH2 0x283 PUSH1 0x4 DUP1 CALLDATASIZE SUB DUP2 ADD SWAP1 PUSH2 0x27E SWAP2 SWAP1 PUSH2 0x2648 JUMP JUMPDEST PUSH2 0xFE2 JUMP JUMPDEST PUSH1 0x40 MLOAD PUSH2 0x290 SWAP2 SWAP1 PUSH2 0x2EFE JUMP JUMPDEST PUSH1 0x40 MLOAD DUP1 SWAP2 SUB SWAP1 RETURN JUMPDEST PUSH2 0x2B3 PUSH1 0x4 DUP1 CALLDATASIZE SUB DUP2 ADD SWAP1 PUSH2 0x2AE SWAP2 SWAP1 PUSH2 0x2F1A JUMP JUMPDEST PUSH2 0x1213 JUMP JUMPDEST STOP JUMPDEST PUSH2 0x2BD PUSH2 0x13B9 JUMP JUMPDEST STOP JUMPDEST PUSH2 0x2C7 PUSH2 0x1509 JUMP JUMPDEST STOP JUMPDEST PUSH2 0x2E3 PUSH1 0x4 DUP1 CALLDATASIZE SUB DUP2 ADD SWAP1 PUSH2 0x2DE SWAP2 SWAP1 PUSH2 0x2F5A JUMP JUMPDEST PUSH2 0x151B JUMP JUMPDEST STOP JUMPDEST PUSH2 0x2ED PUSH2 0x1586 JUMP JUMPDEST PUSH1 0x40 MLOAD PUSH2 0x2FA SWAP2 SWAP1 PUSH2 0x2F87 JUMP JUMPDEST PUSH1 0x40 MLOAD DUP1 SWAP2 SUB SWAP1 RETURN JUMPDEST PUSH2 0x31D PUSH1 0x4 DUP1 CALLDATASIZE SUB DUP2 ADD SWAP1 PUSH2 0x318 SWAP2 SWAP1 PUSH2 0x2FA2 JUMP JUMPDEST PUSH2 0x15B0 JUMP JUMPDEST STOP JUMPDEST PUSH2 0x327 PUSH2 0x16E6 JUMP JUMPDEST PUSH1 0x40 MLOAD PUSH2 0x335 SWAP3 SWAP2 SWAP1 PUSH2 0x3013 JUMP JUMPDEST PUSH1 0x40 MLOAD DUP1 SWAP2 SUB SWAP1 RETURN JUMPDEST PUSH2 0x358 PUSH1 0x4 DUP1 CALLDATASIZE SUB DUP2 ADD SWAP1 PUSH2 0x353 SWAP2 SWAP1 PUSH2 0x2648 JUMP JUMPDEST PUSH2 0x170B JUMP JUMPDEST PUSH1 0x40 MLOAD PUSH2 0x365 SWAP2 SWAP1 PUSH2 0x306B JUMP JUMPDEST PUSH1 0x40 MLOAD DUP1 SWAP2 SUB SWAP1 RETURN JUMPDEST PUSH2 0x388 PUSH1 0x4 DUP1 CALLDATASIZE SUB DUP2 ADD SWAP1 PUSH2 0x383 SWAP2 SWAP1 PUSH2 0x30DC JUMP JUMPDEST PUSH2 0x174C JUMP JUMPDEST STOP JUMPDEST PUSH2 0x3A4 PUSH1 0x4 DUP1 CALLDATASIZE SUB DUP2 ADD SWAP1 PUSH2 0x39F SWAP2 SWAP1 PUSH2 0x3129 JUMP JUMPDEST PUSH2 0x17A3 JUMP JUMPDEST PUSH1 0x40 MLOAD PUSH2 0x3B1 SWAP2 SWAP1 PUSH2 0x2C92 JUMP JUMPDEST PUSH1 0x40 MLOAD DUP1 SWAP2 SUB SWAP1 RETURN JUMPDEST PUSH2 0x3D4 PUSH1 0x4 DUP1 CALLDATASIZE SUB DUP2 ADD SWAP1 PUSH2 0x3CF SWAP2 SWAP1 PUSH2 0x2DDE JUMP JUMPDEST PUSH2 0x1B3C JUMP JUMPDEST STOP JUMPDEST PUSH1 0x60 PUSH1 0x0 PUSH1 0x9C PUSH1 0x0 DUP5 DUP2 MSTORE PUSH1 0x20 ADD SWAP1 DUP2 MSTORE PUSH1 0x20 ADD PUSH1 0x0 KECCAK256 DUP1 SLOAD DUP1 PUSH1 0x20 MUL PUSH1 0x20 ADD PUSH1 0x40 MLOAD SWAP1 DUP2 ADD PUSH1 0x40 MSTORE DUP1 SWAP3 SWAP2 SWAP1 DUP2 DUP2 MSTORE PUSH1 0x20 ADD PUSH1 0x0 SWAP1 JUMPDEST DUP3 DUP3 LT ISZERO PUSH2 0x453 JUMPI DUP4 DUP3 SWAP1 PUSH1 0x0 MSTORE PUSH1 0x20 PUSH1 0x0 KECCAK256 SWAP1 PUSH1 0x2 MUL ADD PUSH1 0x40 MLOAD DUP1 PUSH1 0x40 ADD PUSH1 0x40 MSTORE SWAP1 DUP2 PUSH1 0x0 DUP3 ADD SLOAD DUP2 MSTORE PUSH1 0x20 ADD PUSH1 0x1 DUP3 ADD SLOAD DUP2 MSTORE POP POP DUP2 MSTORE PUSH1 0x20 ADD SWAP1 PUSH1 0x1 ADD SWAP1 PUSH2 0x40D JUMP JUMPDEST POP POP POP POP SWAP1 POP PUSH1 0x0 DUP2 MLOAD SWAP1 POP PUSH1 0x0 DUP2 PUSH8 0xFFFFFFFFFFFFFFFF DUP2 GT ISZERO PUSH2 0x47B JUMPI PUSH2 0x47A PUSH2 0x29E7 JUMP JUMPDEST JUMPDEST PUSH1 0x40 MLOAD SWAP1 DUP1 DUP3 MSTORE DUP1 PUSH1 0x20 MUL PUSH1 0x20 ADD DUP3 ADD PUSH1 0x40 MSTORE DUP1 ISZERO PUSH2 0x4B4 JUMPI DUP2 PUSH1 0x20 ADD JUMPDEST PUSH2 0x4A1 PUSH2 0x24E2 JUMP JUMPDEST DUP2 MSTORE PUSH1 0x20 ADD SWAP1 PUSH1 0x1 SWAP1 SUB SWAP1 DUP2 PUSH2 0x499 JUMPI SWAP1 POP JUMPDEST POP SWAP1 POP PUSH1 0x0 JUMPDEST DUP3 DUP2 LT ISZERO PUSH2 0x508 JUMPI DUP4 DUP2 DUP2 MLOAD DUP2 LT PUSH2 0x4D5 JUMPI PUSH2 0x4D4 PUSH2 0x317C JUMP JUMPDEST JUMPDEST PUSH1 0x20 MUL PUSH1 0x20 ADD ADD MLOAD DUP3 DUP3 DUP2 MLOAD DUP2 LT PUSH2 0x4F0 JUMPI PUSH2 0x4EF PUSH2 0x317C JUMP JUMPDEST JUMPDEST PUSH1 0x20 MUL PUSH1 0x20 ADD ADD DUP2 SWAP1 MSTORE POP DUP1 DUP1 PUSH1 0x1 ADD SWAP2 POP POP PUSH2 0x4BA JUMP JUMPDEST POP DUP1 SWAP4 POP POP POP POP SWAP2 SWAP1 POP JUMP JUMPDEST PUSH1 0x0 PUSH2 0x51E PUSH2 0x1BBF JUMP JUMPDEST PUSH2 0x52C DUP12 DUP12 DUP7 DUP10 DUP10 DUP15 PUSH2 0x1C09 JUMP JUMPDEST PUSH1 0x0 DUP4 DUP4 SWAP1 POP GT PUSH2 0x572 JUMPI PUSH1 0x40 MLOAD PUSH32 0x8C379A000000000000000000000000000000000000000000000000000000000 DUP2 MSTORE PUSH1 0x4 ADD PUSH2 0x569 SWAP1 PUSH2 0x3208 JUMP JUMPDEST PUSH1 0x40 MLOAD DUP1 SWAP2 SUB SWAP1 REVERT JUMPDEST DUP11 PUSH20 0xFFFFFFFFFFFFFFFFFFFFFFFFFFFFFFFFFFFFFFFF AND PUSH4 0x23B872DD CALLER ADDRESS DUP14 PUSH1 0x40 MLOAD DUP5 PUSH4 0xFFFFFFFF AND PUSH1 0xE0 SHL DUP2 MSTORE PUSH1 0x4 ADD PUSH2 0x5AF SWAP4 SWAP3 SWAP2 SWAP1 PUSH2 0x3228 JUMP JUMPDEST PUSH1 0x20 PUSH1 0x40 MLOAD DUP1 DUP4 SUB DUP2 PUSH1 0x0 DUP8 GAS CALL ISZERO DUP1 ISZERO PUSH2 0x5CE JUMPI RETURNDATASIZE PUSH1 0x0 DUP1 RETURNDATACOPY RETURNDATASIZE PUSH1 0x0 REVERT JUMPDEST POP POP POP POP PUSH1 0x40 MLOAD RETURNDATASIZE PUSH1 0x1F NOT PUSH1 0x1F DUP3 ADD AND DUP3 ADD DUP1 PUSH1 0x40 MSTORE POP DUP2 ADD SWAP1 PUSH2 0x5F2 SWAP2 SWAP1 PUSH2 0x3274 JUMP JUMPDEST POP PUSH1 0xD1 PUSH1 0x0 CALLER PUSH20 0xFFFFFFFFFFFFFFFFFFFFFFFFFFFFFFFFFFFFFFFF AND PUSH20 0xFFFFFFFFFFFFFFFFFFFFFFFFFFFFFFFFFFFFFFFF AND DUP2 MSTORE PUSH1 0x20 ADD SWAP1 DUP2 MSTORE PUSH1 0x20 ADD PUSH1 0x0 KECCAK256 PUSH1 0x0 DUP2 SLOAD DUP1 SWAP3 SWAP2 SWAP1 PUSH2 0x643 SWAP1 PUSH2 0x32D0 JUMP JUMPDEST SWAP2 SWAP1 POP SSTORE POP CALLER PUSH1 0xD1 PUSH1 0x0 CALLER PUSH20 0xFFFFFFFFFFFFFFFFFFFFFFFFFFFFFFFFFFFFFFFF AND PUSH20 0xFFFFFFFFFFFFFFFFFFFFFFFFFFFFFFFFFFFFFFFF AND DUP2 MSTORE PUSH1 0x20 ADD SWAP1 DUP2 MSTORE PUSH1 0x20 ADD PUSH1 0x0 KECCAK256 SLOAD PUSH1 0x40 MLOAD PUSH1 0x20 ADD PUSH2 0x69A SWAP3 SWAP2 SWAP1 PUSH2 0x3318 JUMP JUMPDEST PUSH1 0x40 MLOAD PUSH1 0x20 DUP2 DUP4 SUB SUB DUP2 MSTORE SWAP1 PUSH1 0x40 MSTORE DUP1 MLOAD SWAP1 PUSH1 0x20 ADD KECCAK256 SWAP1 POP PUSH1 0x40 MLOAD DUP1 PUSH2 0x120 ADD PUSH1 0x40 MSTORE DUP1 CALLER PUSH20 0xFFFFFFFFFFFFFFFFFFFFFFFFFFFFFFFFFFFFFFFF AND DUP2 MSTORE PUSH1 0x20 ADD DUP13 PUSH20 0xFFFFFFFFFFFFFFFFFFFFFFFFFFFFFFFFFFFFFFFF AND DUP2 MSTORE PUSH1 0x20 ADD DUP8 PUSH20 0xFFFFFFFFFFFFFFFFFFFFFFFFFFFFFFFFFFFFFFFF AND DUP2 MSTORE PUSH1 0x20 ADD DUP7 DUP2 MSTORE PUSH1 0x20 ADD DUP9 PUSH12 0xFFFFFFFFFFFFFFFFFFFFFFFF AND DUP2 MSTORE PUSH1 0x20 ADD PUSH1 0x0 ISZERO ISZERO DUP2 MSTORE PUSH1 0x20 ADD DUP6 PUSH20 0xFFFFFFFFFFFFFFFFFFFFFFFFFFFFFFFFFFFFFFFF AND DUP2 MSTORE PUSH1 0x20 ADD PUSH1 0x65 SLOAD PUSH8 0xFFFFFFFFFFFFFFFF AND PUSH12 0xFFFFFFFFFFFFFFFFFFFFFFFF AND DUP2 MSTORE PUSH1 0x20 ADD DUP12 DUP2 MSTORE POP PUSH1 0xD0 PUSH1 0x0 DUP4 DUP2 MSTORE PUSH1 0x20 ADD SWAP1 DUP2 MSTORE PUSH1 0x20 ADD PUSH1 0x0 KECCAK256 PUSH1 0x0 DUP3 ADD MLOAD DUP2 PUSH1 0x0 ADD PUSH1 0x0 PUSH2 0x100 EXP DUP2 SLOAD DUP2 PUSH20 0xFFFFFFFFFFFFFFFFFFFFFFFFFFFFFFFFFFFFFFFF MUL NOT AND SWAP1 DUP4 PUSH20 0xFFFFFFFFFFFFFFFFFFFFFFFFFFFFFFFFFFFFFFFF AND MUL OR SWAP1 SSTORE POP PUSH1 0x20 DUP3 ADD MLOAD DUP2 PUSH1 0x1 ADD PUSH1 0x0 PUSH2 0x100 EXP DUP2 SLOAD DUP2 PUSH20 0xFFFFFFFFFFFFFFFFFFFFFFFFFFFFFFFFFFFFFFFF MUL NOT AND SWAP1 DUP4 PUSH20 0xFFFFFFFFFFFFFFFFFFFFFFFFFFFFFFFFFFFFFFFF AND MUL OR SWAP1 SSTORE POP PUSH1 0x40 DUP3 ADD MLOAD DUP2 PUSH1 0x2 ADD PUSH1 0x0 PUSH2 0x100 EXP DUP2 SLOAD DUP2 PUSH20 0xFFFFFFFFFFFFFFFFFFFFFFFFFFFFFFFFFFFFFFFF MUL NOT AND SWAP1 DUP4 PUSH20 0xFFFFFFFFFFFFFFFFFFFFFFFFFFFFFFFFFFFFFFFF AND MUL OR SWAP1 SSTORE POP PUSH1 0x60 DUP3 ADD MLOAD DUP2 PUSH1 0x3 ADD SSTORE PUSH1 0x80 DUP3 ADD MLOAD DUP2 PUSH1 0x4 ADD PUSH1 0x0 PUSH2 0x100 EXP DUP2 SLOAD DUP2 PUSH12 0xFFFFFFFFFFFFFFFFFFFFFFFF MUL NOT AND SWAP1 DUP4 PUSH12 0xFFFFFFFFFFFFFFFFFFFFFFFF AND MUL OR SWAP1 SSTORE POP PUSH1 0xA0 DUP3 ADD MLOAD DUP2 PUSH1 0x4 ADD PUSH1 0xC PUSH2 0x100 EXP DUP2 SLOAD DUP2 PUSH1 0xFF MUL NOT AND SWAP1 DUP4 ISZERO ISZERO MUL OR SWAP1 SSTORE POP PUSH1 0xC0 DUP3 ADD MLOAD DUP2 PUSH1 0x5 ADD PUSH1 0x0 PUSH2 0x100 EXP DUP2 SLOAD DUP2 PUSH20 0xFFFFFFFFFFFFFFFFFFFFFFFFFFFFFFFFFFFFFFFF MUL NOT AND SWAP1 DUP4 PUSH20 0xFFFFFFFFFFFFFFFFFFFFFFFFFFFFFFFFFFFFFFFF AND MUL OR SWAP1 SSTORE POP PUSH1 0xE0 DUP3 ADD MLOAD DUP2 PUSH1 0x5 ADD PUSH1 0x14 PUSH2 0x100 EXP DUP2 SLOAD DUP2 PUSH12 0xFFFFFFFFFFFFFFFFFFFFFFFF MUL NOT AND SWAP1 DUP4 PUSH12 0xFFFFFFFFFFFFFFFFFFFFFFFF AND MUL OR SWAP1 SSTORE POP PUSH2 0x100 DUP3 ADD MLOAD DUP2 PUSH1 0x6 ADD SSTORE SWAP1 POP POP DUP1 DUP11 DUP13 PUSH20 0xFFFFFFFFFFFFFFFFFFFFFFFFFFFFFFFFFFFFFFFF AND PUSH32 0x63A5CE0C7DDA94594842D8817C370279B2C0537F95B6CB628F022D92C8EBC444 DUP11 DUP14 DUP14 DUP10 DUP10 PUSH1 0x40 MLOAD PUSH2 0x99A SWAP6 SWAP5 SWAP4 SWAP3 SWAP2 SWAP1 PUSH2 0x33B8 JUMP JUMPDEST PUSH1 0x40 MLOAD DUP1 SWAP2 SUB SWAP1 LOG4 SWAP11 SWAP10 POP POP POP POP POP POP POP POP POP POP JUMP JUMPDEST PUSH2 0x9B8 PUSH2 0x1E80 JUMP JUMPDEST PUSH1 0x0 DUP2 MLOAD SWAP1 POP PUSH1 0x0 JUMPDEST DUP2 DUP2 LT ISZERO PUSH2 0xABE JUMPI PUSH1 0x9C PUSH1 0x0 DUP6 DUP2 MSTORE PUSH1 0x20 ADD SWAP1 DUP2 MSTORE PUSH1 0x20 ADD PUSH1 0x0 KECCAK256 DUP4 DUP3 DUP2 MLOAD DUP2 LT PUSH2 0x9EF JUMPI PUSH2 0x9EE PUSH2 0x317C JUMP JUMPDEST JUMPDEST PUSH1 0x20 MUL PUSH1 0x20 ADD ADD MLOAD SWAP1 DUP1 PUSH1 0x1 DUP2 SLOAD ADD DUP1 DUP3 SSTORE DUP1 SWAP2 POP POP PUSH1 0x1 SWAP1 SUB SWAP1 PUSH1 0x0 MSTORE PUSH1 0x20 PUSH1 0x0 KECCAK256 SWAP1 PUSH1 0x2 MUL ADD PUSH1 0x0 SWAP1 SWAP2 SWAP1 SWAP2 SWAP1 SWAP2 POP PUSH1 0x0 DUP3 ADD MLOAD DUP2 PUSH1 0x0 ADD SSTORE PUSH1 0x20 DUP3 ADD MLOAD DUP2 PUSH1 0x1 ADD SSTORE POP POP PUSH1 0x40 MLOAD DUP1 PUSH1 0x40 ADD PUSH1 0x40 MSTORE DUP1 DUP5 DUP4 DUP2 MLOAD DUP2 LT PUSH2 0xA54 JUMPI PUSH2 0xA53 PUSH2 0x317C JUMP JUMPDEST JUMPDEST PUSH1 0x20 MUL PUSH1 0x20 ADD ADD MLOAD PUSH1 0x20 ADD MLOAD DUP2 MSTORE PUSH1 0x20 ADD DUP6 DUP2 MSTORE POP PUSH1 0x9D PUSH1 0x0 DUP6 DUP5 DUP2 MLOAD DUP2 LT PUSH2 0xA80 JUMPI PUSH2 0xA7F PUSH2 0x317C JUMP JUMPDEST JUMPDEST PUSH1 0x20 MUL PUSH1 0x20 ADD ADD MLOAD PUSH1 0x0 ADD MLOAD DUP2 MSTORE PUSH1 0x20 ADD SWAP1 DUP2 MSTORE PUSH1 0x20 ADD PUSH1 0x0 KECCAK256 PUSH1 0x0 DUP3 ADD MLOAD DUP2 PUSH1 0x0 ADD SSTORE PUSH1 0x20 DUP3 ADD MLOAD DUP2 PUSH1 0x1 ADD SSTORE SWAP1 POP POP DUP1 DUP1 PUSH1 0x1 ADD SWAP2 POP POP PUSH2 0x9C1 JUMP JUMPDEST POP POP POP POP JUMP JUMPDEST PUSH1 0x60 PUSH1 0x68 DUP1 SLOAD PUSH2 0xAD3 SWAP1 PUSH2 0x3435 JUMP JUMPDEST DUP1 PUSH1 0x1F ADD PUSH1 0x20 DUP1 SWAP2 DIV MUL PUSH1 0x20 ADD PUSH1 0x40 MLOAD SWAP1 DUP2 ADD PUSH1 0x40 MSTORE DUP1 SWAP3 SWAP2 SWAP1 DUP2 DUP2 MSTORE PUSH1 0x20 ADD DUP3 DUP1 SLOAD PUSH2 0xAFF SWAP1 PUSH2 0x3435 JUMP JUMPDEST DUP1 ISZERO PUSH2 0xB4C JUMPI DUP1 PUSH1 0x1F LT PUSH2 0xB21 JUMPI PUSH2 0x100 DUP1 DUP4 SLOAD DIV MUL DUP4 MSTORE SWAP2 PUSH1 0x20 ADD SWAP2 PUSH2 0xB4C JUMP JUMPDEST DUP3 ADD SWAP2 SWAP1 PUSH1 0x0 MSTORE PUSH1 0x20 PUSH1 0x0 KECCAK256 SWAP1 JUMPDEST DUP2 SLOAD DUP2 MSTORE SWAP1 PUSH1 0x1 ADD SWAP1 PUSH1 0x20 ADD DUP1 DUP4 GT PUSH2 0xB2F JUMPI DUP3 SWAP1 SUB PUSH1 0x1F AND DUP3 ADD SWAP2 JUMPDEST POP POP POP POP POP SWAP1 POP SWAP1 JUMP JUMPDEST PUSH2 0xB5E PUSH2 0x1E80 JUMP JUMPDEST PUSH2 0xB66 PUSH2 0x1EFE JUMP JUMPDEST JUMP JUMPDEST PUSH1 0x0 PUSH1 0x9E PUSH1 0x0 SWAP1 SLOAD SWAP1 PUSH2 0x100 EXP SWAP1 DIV PUSH1 0xFF AND SWAP1 POP SWAP1 JUMP JUMPDEST PUSH1 0x0 DUP1 PUSH1 0x67 PUSH1 0x0 SWAP1 SLOAD SWAP1 PUSH2 0x100 EXP SWAP1 DIV PUSH20 0xFFFFFFFFFFFFFFFFFFFFFFFFFFFFFFFFFFFFFFFF AND PUSH20 0xFFFFFFFFFFFFFFFFFFFFFFFFFFFFFFFFFFFFFFFF AND CALLER PUSH20 0xFFFFFFFFFFFFFFFFFFFFFFFFFFFFFFFFFFFFFFFF AND EQ PUSH2 0xC12 JUMPI PUSH1 0x40 MLOAD PUSH32 0x8C379A000000000000000000000000000000000000000000000000000000000 DUP2 MSTORE PUSH1 0x4 ADD PUSH2 0xC09 SWAP1 PUSH2 0x34B2 JUMP JUMPDEST PUSH1 0x40 MLOAD DUP1 SWAP2 SUB SWAP1 REVERT JUMPDEST PUSH1 0xD0 PUSH1 0x0 DUP9 DUP2 MSTORE PUSH1 0x20 ADD SWAP1 DUP2 MSTORE PUSH1 0x20 ADD PUSH1 0x0 KECCAK256 PUSH1 0x4 ADD PUSH1 0xC SWAP1 SLOAD SWAP1 PUSH2 0x100 EXP SWAP1 DIV PUSH1 0xFF AND ISZERO PUSH2 0xC76 JUMPI PUSH1 0x40 MLOAD PUSH32 0x8C379A000000000000000000000000000000000000000000000000000000000 DUP2 MSTORE PUSH1 0x4 ADD PUSH2 0xC6D SWAP1 PUSH2 0x351E JUMP JUMPDEST PUSH1 0x40 MLOAD DUP1 SWAP2 SUB SWAP1 REVERT JUMPDEST PUSH1 0x0 PUSH1 0xD0 PUSH1 0x0 DUP10 DUP2 MSTORE PUSH1 0x20 ADD SWAP1 DUP2 MSTORE PUSH1 0x20 ADD PUSH1 0x0 KECCAK256 PUSH1 0x1 ADD PUSH1 0x0 SWAP1 SLOAD SWAP1 PUSH2 0x100 EXP SWAP1 DIV PUSH20 0xFFFFFFFFFFFFFFFFFFFFFFFFFFFFFFFFFFFFFFFF AND SWAP1 POP DUP5 PUSH8 0xFFFFFFFFFFFFFFFF AND PUSH1 0xD0 PUSH1 0x0 DUP11 DUP2 MSTORE PUSH1 0x20 ADD SWAP1 DUP2 MSTORE PUSH1 0x20 ADD PUSH1 0x0 KECCAK256 PUSH1 0x5 ADD PUSH1 0x14 DUP3 DUP3 DUP3 SWAP1 SLOAD SWAP1 PUSH2 0x100 EXP SWAP1 DIV PUSH12 0xFFFFFFFFFFFFFFFFFFFFFFFF AND PUSH2 0xCF8 SWAP2 SWAP1 PUSH2 0x353E JUMP JUMPDEST SWAP3 POP PUSH2 0x100 EXP DUP2 SLOAD DUP2 PUSH12 0xFFFFFFFFFFFFFFFFFFFFFFFF MUL NOT AND SWAP1 DUP4 PUSH12 0xFFFFFFFFFFFFFFFFFFFFFFFF AND MUL OR SWAP1 SSTORE POP PUSH1 0x0 PUSH2 0xD3D DUP10 DUP8 PUSH8 0xFFFFFFFFFFFFFFFF AND DUP8 PUSH2 0x1F61 JUMP JUMPDEST SWAP1 POP PUSH1 0x0 PUSH1 0xD0 PUSH1 0x0 DUP12 DUP2 MSTORE PUSH1 0x20 ADD SWAP1 DUP2 MSTORE PUSH1 0x20 ADD PUSH1 0x0 KECCAK256 PUSH1 0x5 ADD PUSH1 0x14 SWAP1 SLOAD SWAP1 PUSH2 0x100 EXP SWAP1 DIV PUSH12 0xFFFFFFFFFFFFFFFFFFFFFFFF AND PUSH12 0xFFFFFFFFFFFFFFFFFFFFFFFF AND SUB PUSH2 0xDDC JUMPI PUSH1 0x1 PUSH1 0xD0 PUSH1 0x0 DUP12 DUP2 MSTORE PUSH1 0x20 ADD SWAP1 DUP2 MSTORE PUSH1 0x20 ADD PUSH1 0x0 KECCAK256 PUSH1 0x4 ADD PUSH1 0xC PUSH2 0x100 EXP DUP2 SLOAD DUP2 PUSH1 0xFF MUL NOT AND SWAP1 DUP4 ISZERO ISZERO MUL OR SWAP1 SSTORE POP PUSH1 0x0 PUSH1 0xD0 PUSH1 0x0 DUP12 DUP2 MSTORE PUSH1 0x20 ADD SWAP1 DUP2 MSTORE PUSH1 0x20 ADD PUSH1 0x0 KECCAK256 PUSH1 0x3 ADD SLOAD GT ISZERO PUSH2 0xDDB JUMPI PUSH2 0xDDA DUP10 PUSH2 0x2072 JUMP JUMPDEST JUMPDEST JUMPDEST PUSH1 0x0 DUP2 PUSH1 0x0 ADD MLOAD GT ISZERO PUSH2 0xE8F JUMPI DUP2 PUSH20 0xFFFFFFFFFFFFFFFFFFFFFFFFFFFFFFFFFFFFFFFF AND PUSH4 0xA9059CBB PUSH1 0x66 PUSH1 0x8 SWAP1 SLOAD SWAP1 PUSH2 0x100 EXP SWAP1 DIV PUSH20 0xFFFFFFFFFFFFFFFFFFFFFFFFFFFFFFFFFFFFFFFF AND DUP4 PUSH1 0x0 ADD MLOAD PUSH1 0x40 MLOAD DUP4 PUSH4 0xFFFFFFFF AND PUSH1 0xE0 SHL DUP2 MSTORE PUSH1 0x4 ADD PUSH2 0xE4A SWAP3 SWAP2 SWAP1 PUSH2 0x3318 JUMP JUMPDEST PUSH1 0x20 PUSH1 0x40 MLOAD DUP1 DUP4 SUB DUP2 PUSH1 0x0 DUP8 GAS CALL ISZERO DUP1 ISZERO PUSH2 0xE69 JUMPI RETURNDATASIZE PUSH1 0x0 DUP1 RETURNDATACOPY RETURNDATASIZE PUSH1 0x0 REVERT JUMPDEST POP POP POP POP PUSH1 0x40 MLOAD RETURNDATASIZE PUSH1 0x1F NOT PUSH1 0x1F DUP3 ADD AND DUP3 ADD DUP1 PUSH1 0x40 MSTORE POP DUP2 ADD SWAP1 PUSH2 0xE8D SWAP2 SWAP1 PUSH2 0x3274 JUMP JUMPDEST POP JUMPDEST DUP2 PUSH20 0xFFFFFFFFFFFFFFFFFFFFFFFFFFFFFFFFFFFFFFFF AND PUSH4 0xA9059CBB DUP9 DUP4 PUSH1 0x20 ADD MLOAD PUSH1 0x40 MLOAD DUP4 PUSH4 0xFFFFFFFF AND PUSH1 0xE0 SHL DUP2 MSTORE PUSH1 0x4 ADD PUSH2 0xECE SWAP3 SWAP2 SWAP1 PUSH2 0x3318 JUMP JUMPDEST PUSH1 0x20 PUSH1 0x40 MLOAD DUP1 DUP4 SUB DUP2 PUSH1 0x0 DUP8 GAS CALL ISZERO DUP1 ISZERO PUSH2 0xEED JUMPI RETURNDATASIZE PUSH1 0x0 DUP1 RETURNDATACOPY RETURNDATASIZE PUSH1 0x0 REVERT JUMPDEST POP POP POP POP PUSH1 0x40 MLOAD RETURNDATASIZE PUSH1 0x1F NOT PUSH1 0x1F DUP3 ADD AND DUP3 ADD DUP1 PUSH1 0x40 MSTORE POP DUP2 ADD SWAP1 PUSH2 0xF11 SWAP2 SWAP1 PUSH2 0x3274 JUMP JUMPDEST POP DUP7 PUSH20 0xFFFFFFFFFFFFFFFFFFFFFFFFFFFFFFFFFFFFFFFF AND DUP10 PUSH32 0xA9EC2B6676D3EA3E8DA117193C71B1B85FCDBC72F077A624F950241EB38F13C2 DUP13 DUP12 DUP11 PUSH1 0x40 MLOAD PUSH2 0xF5D SWAP4 SWAP3 SWAP2 SWAP1 PUSH2 0x35AF JUMP JUMPDEST PUSH1 0x40 MLOAD DUP1 SWAP2 SUB SWAP1 LOG3 DUP9 DUP3 SWAP4 POP SWAP4 POP POP POP SWAP7 POP SWAP7 SWAP5 POP POP POP POP POP JUMP JUMPDEST PUSH2 0xF80 PUSH2 0x1E80 JUMP JUMPDEST PUSH2 0xF8A PUSH1 0x0 PUSH2 0x21C6 JUMP JUMPDEST JUMP JUMPDEST PUSH1 0x0 PUSH1 0x9B PUSH1 0x0 DUP4 PUSH20 0xFFFFFFFFFFFFFFFFFFFFFFFFFFFFFFFFFFFFFFFF AND PUSH20 0xFFFFFFFFFFFFFFFFFFFFFFFFFFFFFFFFFFFFFFFF AND DUP2 MSTORE PUSH1 0x20 ADD SWAP1 DUP2 MSTORE PUSH1 0x20 ADD PUSH1 0x0 KECCAK256 PUSH1 0x0 SWAP1 SLOAD SWAP1 PUSH2 0x100 EXP SWAP1 DIV PUSH1 0xFF AND SWAP1 POP SWAP2 SWAP1 POP JUMP JUMPDEST PUSH2 0xFEA PUSH2 0x2502 JUMP JUMPDEST PUSH1 0xD0 PUSH1 0x0 DUP4 DUP2 MSTORE PUSH1 0x20 ADD SWAP1 DUP2 MSTORE PUSH1 0x20 ADD PUSH1 0x0 KECCAK256 PUSH1 0x40 MLOAD DUP1 PUSH2 0x120 ADD PUSH1 0x40 MSTORE SWAP1 DUP2 PUSH1 0x0 DUP3 ADD PUSH1 0x0 SWAP1 SLOAD SWAP1 PUSH2 0x100 EXP SWAP1 DIV PUSH20 0xFFFFFFFFFFFFFFFFFFFFFFFFFFFFFFFFFFFFFFFF AND PUSH20 0xFFFFFFFFFFFFFFFFFFFFFFFFFFFFFFFFFFFFFFFF AND PUSH20 0xFFFFFFFFFFFFFFFFFFFFFFFFFFFFFFFFFFFFFFFF AND DUP2 MSTORE PUSH1 0x20 ADD PUSH1 0x1 DUP3 ADD PUSH1 0x0 SWAP1 SLOAD SWAP1 PUSH2 0x100 EXP SWAP1 DIV PUSH20 0xFFFFFFFFFFFFFFFFFFFFFFFFFFFFFFFFFFFFFFFF AND PUSH20 0xFFFFFFFFFFFFFFFFFFFFFFFFFFFFFFFFFFFFFFFF AND PUSH20 0xFFFFFFFFFFFFFFFFFFFFFFFFFFFFFFFFFFFFFFFF AND DUP2 MSTORE PUSH1 0x20 ADD PUSH1 0x2 DUP3 ADD PUSH1 0x0 SWAP1 SLOAD SWAP1 PUSH2 0x100 EXP SWAP1 DIV PUSH20 0xFFFFFFFFFFFFFFFFFFFFFFFFFFFFFFFFFFFFFFFF AND PUSH20 0xFFFFFFFFFFFFFFFFFFFFFFFFFFFFFFFFFFFFFFFF AND PUSH20 0xFFFFFFFFFFFFFFFFFFFFFFFFFFFFFFFFFFFFFFFF AND DUP2 MSTORE PUSH1 0x20 ADD PUSH1 0x3 DUP3 ADD SLOAD DUP2 MSTORE PUSH1 0x20 ADD PUSH1 0x4 DUP3 ADD PUSH1 0x0 SWAP1 SLOAD SWAP1 PUSH2 0x100 EXP SWAP1 DIV PUSH12 0xFFFFFFFFFFFFFFFFFFFFFFFF AND PUSH12 0xFFFFFFFFFFFFFFFFFFFFFFFF AND PUSH12 0xFFFFFFFFFFFFFFFFFFFFFFFF AND DUP2 MSTORE PUSH1 0x20 ADD PUSH1 0x4 DUP3 ADD PUSH1 0xC SWAP1 SLOAD SWAP1 PUSH2 0x100 EXP SWAP1 DIV PUSH1 0xFF AND ISZERO ISZERO ISZERO ISZERO DUP2 MSTORE PUSH1 0x20 ADD PUSH1 0x5 DUP3 ADD PUSH1 0x0 SWAP1 SLOAD SWAP1 PUSH2 0x100 EXP SWAP1 DIV PUSH20 0xFFFFFFFFFFFFFFFFFFFFFFFFFFFFFFFFFFFFFFFF AND PUSH20 0xFFFFFFFFFFFFFFFFFFFFFFFFFFFFFFFFFFFFFFFF AND PUSH20 0xFFFFFFFFFFFFFFFFFFFFFFFFFFFFFFFFFFFFFFFF AND DUP2 MSTORE PUSH1 0x20 ADD PUSH1 0x5 DUP3 ADD PUSH1 0x14 SWAP1 SLOAD SWAP1 PUSH2 0x100 EXP SWAP1 DIV PUSH12 0xFFFFFFFFFFFFFFFFFFFFFFFF AND PUSH12 0xFFFFFFFFFFFFFFFFFFFFFFFF AND PUSH12 0xFFFFFFFFFFFFFFFFFFFFFFFF AND DUP2 MSTORE PUSH1 0x20 ADD PUSH1 0x6 DUP3 ADD SLOAD DUP2 MSTORE POP POP SWAP1 POP SWAP2 SWAP1 POP JUMP JUMPDEST PUSH2 0x121B PUSH2 0x1E80 JUMP JUMPDEST PUSH1 0x0 PUSH20 0xFFFFFFFFFFFFFFFFFFFFFFFFFFFFFFFFFFFFFFFF AND DUP2 PUSH20 0xFFFFFFFFFFFFFFFFFFFFFFFFFFFFFFFFFFFFFFFF AND SUB PUSH2 0x128A JUMPI PUSH1 0x40 MLOAD PUSH32 0x8C379A000000000000000000000000000000000000000000000000000000000 DUP2 MSTORE PUSH1 0x4 ADD PUSH2 0x1281 SWAP1 PUSH2 0x3632 JUMP JUMPDEST PUSH1 0x40 MLOAD DUP1 SWAP2 SUB SWAP1 REVERT JUMPDEST PUSH32 0x7472656173757279000000000000000000000000000000000000000000000000 DUP3 SUB PUSH2 0x12F3 JUMPI DUP1 PUSH1 0x66 PUSH1 0x8 PUSH2 0x100 EXP DUP2 SLOAD DUP2 PUSH20 0xFFFFFFFFFFFFFFFFFFFFFFFFFFFFFFFFFFFFFFFF MUL NOT AND SWAP1 DUP4 PUSH20 0xFFFFFFFFFFFFFFFFFFFFFFFFFFFFFFFFFFFFFFFF AND MUL OR SWAP1 SSTORE POP JUMPDEST PUSH32 0x61676772656761746F7200000000000000000000000000000000000000000000 DUP3 SUB PUSH2 0x135C JUMPI DUP1 PUSH1 0x67 PUSH1 0x0 PUSH2 0x100 EXP DUP2 SLOAD DUP2 PUSH20 0xFFFFFFFFFFFFFFFFFFFFFFFFFFFFFFFFFFFFFFFF MUL NOT AND SWAP1 DUP4 PUSH20 0xFFFFFFFFFFFFFFFFFFFFFFFFFFFFFFFFFFFFFFFF AND MUL OR SWAP1 SSTORE POP JUMPDEST PUSH32 0xD8EF77A7D69A6B79F131ECD9AA37060BA0853BBD37CB175EC1ABD05738CE27CB PUSH1 0x66 PUSH1 0x8 SWAP1 SLOAD SWAP1 PUSH2 0x100 EXP SWAP1 DIV PUSH20 0xFFFFFFFFFFFFFFFFFFFFFFFFFFFFFFFFFFFFFFFF AND PUSH1 0x40 MLOAD PUSH2 0x13AD SWAP2 SWAP1 PUSH2 0x2F87 JUMP JUMPDEST PUSH1 0x40 MLOAD DUP1 SWAP2 SUB SWAP1 LOG1 POP POP JUMP JUMPDEST PUSH1 0x0 DUP1 PUSH1 0x1 SWAP1 SLOAD SWAP1 PUSH2 0x100 EXP SWAP1 DIV PUSH1 0xFF AND ISZERO SWAP1 POP DUP1 DUP1 ISZERO PUSH2 0x13EA JUMPI POP PUSH1 0x1 PUSH1 0x0 DUP1 SLOAD SWAP1 PUSH2 0x100 EXP SWAP1 DIV PUSH1 0xFF AND PUSH1 0xFF AND LT JUMPDEST DUP1 PUSH2 0x1417 JUMPI POP PUSH2 0x13F9 ADDRESS PUSH2 0x228C JUMP JUMPDEST ISZERO DUP1 ISZERO PUSH2 0x1416 JUMPI POP PUSH1 0x1 PUSH1 0x0 DUP1 SLOAD SWAP1 PUSH2 0x100 EXP SWAP1 DIV PUSH1 0xFF AND PUSH1 0xFF AND EQ JUMPDEST JUMPDEST PUSH2 0x1456 JUMPI PUSH1 0x40 MLOAD PUSH32 0x8C379A000000000000000000000000000000000000000000000000000000000 DUP2 MSTORE PUSH1 0x4 ADD PUSH2 0x144D SWAP1 PUSH2 0x36C4 JUMP JUMPDEST PUSH1 0x40 MLOAD DUP1 SWAP2 SUB SWAP1 REVERT JUMPDEST PUSH1 0x1 PUSH1 0x0 DUP1 PUSH2 0x100 EXP DUP2 SLOAD DUP2 PUSH1 0xFF MUL NOT AND SWAP1 DUP4 PUSH1 0xFF AND MUL OR SWAP1 SSTORE POP DUP1 ISZERO PUSH2 0x1493 JUMPI PUSH1 0x1 PUSH1 0x0 PUSH1 0x1 PUSH2 0x100 EXP DUP2 SLOAD DUP2 PUSH1 0xFF MUL NOT AND SWAP1 DUP4 ISZERO ISZERO MUL OR SWAP1 SSTORE POP JUMPDEST PUSH3 0x186A0 PUSH1 0x65 DUP2 SWAP1 SSTORE POP PUSH2 0x14A5 PUSH2 0x22AF JUMP JUMPDEST PUSH2 0x14AD PUSH2 0x2308 JUMP JUMPDEST DUP1 ISZERO PUSH2 0x1506 JUMPI PUSH1 0x0 DUP1 PUSH1 0x1 PUSH2 0x100 EXP DUP2 SLOAD DUP2 PUSH1 0xFF MUL NOT AND SWAP1 DUP4 ISZERO ISZERO MUL OR SWAP1 SSTORE POP PUSH32 0x7F26B83FF96E1F2B6A682F133852F6798A09C465DA95921460CEFB3847402498 PUSH1 0x1 PUSH1 0x40 MLOAD PUSH2 0x14FD SWAP2 SWAP1 PUSH2 0x372C JUMP JUMPDEST PUSH1 0x40 MLOAD DUP1 SWAP2 SUB SWAP1 LOG1 JUMPDEST POP JUMP JUMPDEST PUSH2 0x1511 PUSH2 0x1E80 JUMP JUMPDEST PUSH2 0x1519 PUSH2 0x2361 JUMP JUMPDEST JUMP JUMPDEST PUSH2 0x1523 PUSH2 0x1E80 JUMP JUMPDEST DUP1 PUSH1 0x66 PUSH1 0x0 PUSH2 0x100 EXP DUP2 SLOAD DUP2 PUSH8 0xFFFFFFFFFFFFFFFF MUL NOT AND SWAP1 DUP4 PUSH8 0xFFFFFFFFFFFFFFFF AND MUL OR SWAP1 SSTORE POP PUSH32 0xB94068A4BD2571ACEE6AC79ACC9DCDCF10C31425D35F09E88F154EC520E26446 DUP2 PUSH1 0x40 MLOAD PUSH2 0x157B SWAP2 SWAP1 PUSH2 0x3747 JUMP JUMPDEST PUSH1 0x40 MLOAD DUP1 SWAP2 SUB SWAP1 LOG1 POP JUMP JUMPDEST PUSH1 0x0 PUSH1 0x33 PUSH1 0x0 SWAP1 SLOAD SWAP1 PUSH2 0x100 EXP SWAP1 DIV PUSH20 0xFFFFFFFFFFFFFFFFFFFFFFFFFFFFFFFFFFFFFFFF AND SWAP1 POP SWAP1 JUMP JUMPDEST PUSH2 0x15B8 PUSH2 0x1E80 JUMP JUMPDEST PUSH1 0x0 PUSH20 0xFFFFFFFFFFFFFFFFFFFFFFFFFFFFFFFFFFFFFFFF AND DUP3 PUSH20 0xFFFFFFFFFFFFFFFFFFFFFFFFFFFFFFFFFFFFFFFF AND SUB PUSH2 0x1627 JUMPI PUSH1 0x40 MLOAD PUSH32 0x8C379A000000000000000000000000000000000000000000000000000000000 DUP2 MSTORE PUSH1 0x4 ADD PUSH2 0x161E SWAP1 PUSH2 0x3632 JUMP JUMPDEST PUSH1 0x40 MLOAD DUP1 SWAP2 SUB SWAP1 REVERT JUMPDEST PUSH32 0x746F6B656E000000000000000000000000000000000000000000000000000000 DUP4 SUB PUSH2 0x16A6 JUMPI DUP1 PUSH1 0x9B PUSH1 0x0 DUP5 PUSH20 0xFFFFFFFFFFFFFFFFFFFFFFFFFFFFFFFFFFFFFFFF AND PUSH20 0xFFFFFFFFFFFFFFFFFFFFFFFFFFFFFFFFFFFFFFFF AND DUP2 MSTORE PUSH1 0x20 ADD SWAP1 DUP2 MSTORE PUSH1 0x20 ADD PUSH1 0x0 KECCAK256 PUSH1 0x0 PUSH2 0x100 EXP DUP2 SLOAD DUP2 PUSH1 0xFF MUL NOT AND SWAP1 DUP4 ISZERO ISZERO MUL OR SWAP1 SSTORE POP JUMPDEST PUSH32 0xE22CADCC5DDBC0A185E8920EAA6825BCC06DCD6B432988E7E9912CAA59ACE930 DUP4 DUP4 DUP4 PUSH1 0x40 MLOAD PUSH2 0x16D9 SWAP4 SWAP3 SWAP2 SWAP1 PUSH2 0x3762 JUMP JUMPDEST PUSH1 0x40 MLOAD DUP1 SWAP2 SUB SWAP1 LOG1 POP POP POP JUMP JUMPDEST PUSH1 0x0 DUP1 PUSH1 0x66 PUSH1 0x0 SWAP1 SLOAD SWAP1 PUSH2 0x100 EXP SWAP1 DIV PUSH8 0xFFFFFFFFFFFFFFFF AND PUSH1 0x65 SLOAD SWAP2 POP SWAP2 POP SWAP1 SWAP2 JUMP JUMPDEST PUSH2 0x1713 PUSH2 0x25C4 JUMP JUMPDEST PUSH1 0x9D PUSH1 0x0 DUP4 DUP2 MSTORE PUSH1 0x20 ADD SWAP1 DUP2 MSTORE PUSH1 0x20 ADD PUSH1 0x0 KECCAK256 PUSH1 0x40 MLOAD DUP1 PUSH1 0x40 ADD PUSH1 0x40 MSTORE SWAP1 DUP2 PUSH1 0x0 DUP3 ADD SLOAD DUP2 MSTORE PUSH1 0x20 ADD PUSH1 0x1 DUP3 ADD SLOAD DUP2 MSTORE POP POP SWAP1 POP SWAP2 SWAP1 POP JUMP JUMPDEST PUSH2 0x1754 PUSH2 0x1E80 JUMP JUMPDEST DUP2 DUP2 PUSH1 0x68 SWAP2 DUP3 PUSH2 0x1765 SWAP3 SWAP2 SWAP1 PUSH2 0x3946 JUMP JUMPDEST POP PUSH32 0x6A6600B7242975868D8321B5E64D0C9F2FCC92EB1AF72254A6357BE77EE7DCEF DUP3 DUP3 PUSH1 0x40 MLOAD PUSH2 0x1797 SWAP3 SWAP2 SWAP1 PUSH2 0x3A43 JUMP JUMPDEST PUSH1 0x40 MLOAD DUP1 SWAP2 SUB SWAP1 LOG1 POP POP JUMP JUMPDEST PUSH1 0x0 PUSH1 0x67 PUSH1 0x0 SWAP1 SLOAD SWAP1 PUSH2 0x100 EXP SWAP1 DIV PUSH20 0xFFFFFFFFFFFFFFFFFFFFFFFFFFFFFFFFFFFFFFFF AND PUSH20 0xFFFFFFFFFFFFFFFFFFFFFFFFFFFFFFFFFFFFFFFF AND CALLER PUSH20 0xFFFFFFFFFFFFFFFFFFFFFFFFFFFFFFFFFFFFFFFF AND EQ PUSH2 0x1835 JUMPI PUSH1 0x40 MLOAD PUSH32 0x8C379A000000000000000000000000000000000000000000000000000000000 DUP2 MSTORE PUSH1 0x4 ADD PUSH2 0x182C SWAP1 PUSH2 0x34B2 JUMP JUMPDEST PUSH1 0x40 MLOAD DUP1 SWAP2 SUB SWAP1 REVERT JUMPDEST PUSH1 0xD0 PUSH1 0x0 DUP5 DUP2 MSTORE PUSH1 0x20 ADD SWAP1 DUP2 MSTORE PUSH1 0x20 ADD PUSH1 0x0 KECCAK256 PUSH1 0x4 ADD PUSH1 0xC SWAP1 SLOAD SWAP1 PUSH2 0x100 EXP SWAP1 DIV PUSH1 0xFF AND ISZERO PUSH2 0x1899 JUMPI PUSH1 0x40 MLOAD PUSH32 0x8C379A000000000000000000000000000000000000000000000000000000000 DUP2 MSTORE PUSH1 0x4 ADD PUSH2 0x1890 SWAP1 PUSH2 0x351E JUMP JUMPDEST PUSH1 0x40 MLOAD DUP1 SWAP2 SUB SWAP1 REVERT JUMPDEST PUSH1 0x0 DUP5 PUSH1 0xD0 PUSH1 0x0 DUP7 DUP2 MSTORE PUSH1 0x20 ADD SWAP1 DUP2 MSTORE PUSH1 0x20 ADD PUSH1 0x0 KECCAK256 PUSH1 0x6 ADD SLOAD PUSH2 0x18BD SWAP2 SWAP1 PUSH2 0x3A67 JUMP JUMPDEST SWAP1 POP PUSH1 0xD0 PUSH1 0x0 DUP6 DUP2 MSTORE PUSH1 0x20 ADD SWAP1 DUP2 MSTORE PUSH1 0x20 ADD PUSH1 0x0 KECCAK256 PUSH1 0x1 ADD PUSH1 0x0 SWAP1 SLOAD SWAP1 PUSH2 0x100 EXP SWAP1 DIV PUSH20 0xFFFFFFFFFFFFFFFFFFFFFFFFFFFFFFFFFFFFFFFF AND PUSH20 0xFFFFFFFFFFFFFFFFFFFFFFFFFFFFFFFFFFFFFFFF AND PUSH4 0xA9059CBB PUSH1 0x66 PUSH1 0x8 SWAP1 SLOAD SWAP1 PUSH2 0x100 EXP SWAP1 DIV PUSH20 0xFFFFFFFFFFFFFFFFFFFFFFFFFFFFFFFFFFFFFFFF AND DUP8 PUSH1 0x40 MLOAD DUP4 PUSH4 0xFFFFFFFF AND PUSH1 0xE0 SHL DUP2 MSTORE PUSH1 0x4 ADD PUSH2 0x1952 SWAP3 SWAP2 SWAP1 PUSH2 0x3318 JUMP JUMPDEST PUSH1 0x20 PUSH1 0x40 MLOAD DUP1 DUP4 SUB DUP2 PUSH1 0x0 DUP8 GAS CALL ISZERO DUP1 ISZERO PUSH2 0x1971 JUMPI RETURNDATASIZE PUSH1 0x0 DUP1 RETURNDATACOPY RETURNDATASIZE PUSH1 0x0 REVERT JUMPDEST POP POP POP POP PUSH1 0x40 MLOAD RETURNDATASIZE PUSH1 0x1F NOT PUSH1 0x1F DUP3 ADD AND DUP3 ADD DUP1 PUSH1 0x40 MSTORE POP DUP2 ADD SWAP1 PUSH2 0x1995 SWAP2 SWAP1 PUSH2 0x3274 JUMP JUMPDEST POP PUSH1 0x1 PUSH1 0xD0 PUSH1 0x0 DUP7 DUP2 MSTORE PUSH1 0x20 ADD SWAP1 DUP2 MSTORE PUSH1 0x20 ADD PUSH1 0x0 KECCAK256 PUSH1 0x4 ADD PUSH1 0xC PUSH2 0x100 EXP DUP2 SLOAD DUP2 PUSH1 0xFF MUL NOT AND SWAP1 DUP4 ISZERO ISZERO MUL OR SWAP1 SSTORE POP PUSH1 0x0 PUSH1 0xD0 PUSH1 0x0 DUP7 DUP2 MSTORE PUSH1 0x20 ADD SWAP1 DUP2 MSTORE PUSH1 0x20 ADD PUSH1 0x0 KECCAK256 PUSH1 0x5 ADD PUSH1 0x14 PUSH2 0x100 EXP DUP2 SLOAD DUP2 PUSH12 0xFFFFFFFFFFFFFFFFFFFFFFFF MUL NOT AND SWAP1 DUP4 PUSH12 0xFFFFFFFFFFFFFFFFFFFFFFFF AND MUL OR SWAP1 SSTORE POP PUSH1 0xD0 PUSH1 0x0 DUP6 DUP2 MSTORE PUSH1 0x20 ADD SWAP1 DUP2 MSTORE PUSH1 0x20 ADD PUSH1 0x0 KECCAK256 PUSH1 0x1 ADD PUSH1 0x0 SWAP1 SLOAD SWAP1 PUSH2 0x100 EXP SWAP1 DIV PUSH20 0xFFFFFFFFFFFFFFFFFFFFFFFFFFFFFFFFFFFFFFFF AND PUSH20 0xFFFFFFFFFFFFFFFFFFFFFFFFFFFFFFFFFFFFFFFF AND PUSH4 0xA9059CBB PUSH1 0xD0 PUSH1 0x0 DUP8 DUP2 MSTORE PUSH1 0x20 ADD SWAP1 DUP2 MSTORE PUSH1 0x20 ADD PUSH1 0x0 KECCAK256 PUSH1 0x5 ADD PUSH1 0x0 SWAP1 SLOAD SWAP1 PUSH2 0x100 EXP SWAP1 DIV PUSH20 0xFFFFFFFFFFFFFFFFFFFFFFFFFFFFFFFFFFFFFFFF AND DUP4 PUSH1 0x40 MLOAD DUP4 PUSH4 0xFFFFFFFF AND PUSH1 0xE0 SHL DUP2 MSTORE PUSH1 0x4 ADD PUSH2 0x1AB2 SWAP3 SWAP2 SWAP1 PUSH2 0x3318 JUMP JUMPDEST PUSH1 0x20 PUSH1 0x40 MLOAD DUP1 DUP4 SUB DUP2 PUSH1 0x0 DUP8 GAS CALL ISZERO DUP1 ISZERO PUSH2 0x1AD1 JUMPI RETURNDATASIZE PUSH1 0x0 DUP1 RETURNDATACOPY RETURNDATASIZE PUSH1 0x0 REVERT JUMPDEST POP POP POP POP PUSH1 0x40 MLOAD RETURNDATASIZE PUSH1 0x1F NOT PUSH1 0x1F DUP3 ADD AND DUP3 ADD DUP1 PUSH1 0x40 MSTORE POP DUP2 ADD SWAP1 PUSH2 0x1AF5 SWAP2 SWAP1 PUSH2 0x3274 JUMP JUMPDEST POP DUP4 PUSH32 0x79252C381C5280F78C77F378791E42B506843A48916430480EAB95A898CDAE9F DUP7 DUP6 PUSH1 0x40 MLOAD PUSH2 0x1B28 SWAP3 SWAP2 SWAP1 PUSH2 0x3A9B JUMP JUMPDEST PUSH1 0x40 MLOAD DUP1 SWAP2 SUB SWAP1 LOG2 PUSH1 0x1 SWAP2 POP POP SWAP4 SWAP3 POP POP POP JUMP JUMPDEST PUSH2 0x1B44 PUSH2 0x1E80 JUMP JUMPDEST PUSH1 0x0 PUSH20 0xFFFFFFFFFFFFFFFFFFFFFFFFFFFFFFFFFFFFFFFF AND DUP2 PUSH20 0xFFFFFFFFFFFFFFFFFFFFFFFFFFFFFFFFFFFFFFFF AND SUB PUSH2 0x1BB3 JUMPI PUSH1 0x40 MLOAD PUSH32 0x8C379A000000000000000000000000000000000000000000000000000000000 DUP2 MSTORE PUSH1 0x4 ADD PUSH2 0x1BAA SWAP1 PUSH2 0x3B36 JUMP JUMPDEST PUSH1 0x40 MLOAD DUP1 SWAP2 SUB SWAP1 REVERT JUMPDEST PUSH2 0x1BBC DUP2 PUSH2 0x21C6 JUMP JUMPDEST POP JUMP JUMPDEST PUSH2 0x1BC7 PUSH2 0xB68 JUMP JUMPDEST ISZERO PUSH2 0x1C07 JUMPI PUSH1 0x40 MLOAD PUSH32 0x8C379A000000000000000000000000000000000000000000000000000000000 DUP2 MSTORE PUSH1 0x4 ADD PUSH2 0x1BFE SWAP1 PUSH2 0x3BA2 JUMP JUMPDEST PUSH1 0x40 MLOAD DUP1 SWAP2 SUB SWAP1 REVERT JUMPDEST JUMP JUMPDEST PUSH1 0x9B PUSH1 0x0 DUP8 PUSH20 0xFFFFFFFFFFFFFFFFFFFFFFFFFFFFFFFFFFFFFFFF AND PUSH20 0xFFFFFFFFFFFFFFFFFFFFFFFFFFFFFFFFFFFFFFFF AND DUP2 MSTORE PUSH1 0x20 ADD SWAP1 DUP2 MSTORE PUSH1 0x20 ADD PUSH1 0x0 KECCAK256 PUSH1 0x0 SWAP1 SLOAD SWAP1 PUSH2 0x100 EXP SWAP1 DIV PUSH1 0xFF AND PUSH2 0x1C95 JUMPI PUSH1 0x40 MLOAD PUSH32 0x8C379A000000000000000000000000000000000000000000000000000000000 DUP2 MSTORE PUSH1 0x4 ADD PUSH2 0x1C8C SWAP1 PUSH2 0x3C0E JUMP JUMPDEST PUSH1 0x40 MLOAD DUP1 SWAP2 SUB SWAP1 REVERT JUMPDEST PUSH1 0x0 DUP6 GT PUSH2 0x1CD8 JUMPI PUSH1 0x40 MLOAD PUSH32 0x8C379A000000000000000000000000000000000000000000000000000000000 DUP2 MSTORE PUSH1 0x4 ADD PUSH2 0x1CCF SWAP1 PUSH2 0x3C7A JUMP JUMPDEST PUSH1 0x40 MLOAD DUP1 SWAP2 SUB SWAP1 REVERT JUMPDEST PUSH1 0x0 PUSH20 0xFFFFFFFFFFFFFFFFFFFFFFFFFFFFFFFFFFFFFFFF AND DUP5 PUSH20 0xFFFFFFFFFFFFFFFFFFFFFFFFFFFFFFFFFFFFFFFF AND SUB PUSH2 0x1D47 JUMPI PUSH1 0x40 MLOAD PUSH32 0x8C379A000000000000000000000000000000000000000000000000000000000 DUP2 MSTORE PUSH1 0x4 ADD PUSH2 0x1D3E SWAP1 PUSH2 0x3CE6 JUMP JUMPDEST PUSH1 0x40 MLOAD DUP1 SWAP2 SUB SWAP1 REVERT JUMPDEST PUSH1 0x0 DUP1 SHL PUSH1 0x9D PUSH1 0x0 DUP4 DUP2 MSTORE PUSH1 0x20 ADD SWAP1 DUP2 MSTORE PUSH1 0x20 ADD PUSH1 0x0 KECCAK256 PUSH1 0x0 ADD SLOAD SUB PUSH2 0x1DA2 JUMPI PUSH1 0x40 MLOAD PUSH32 0x8C379A000000000000000000000000000000000000000000000000000000000 DUP2 MSTORE PUSH1 0x4 ADD PUSH2 0x1D99 SWAP1 PUSH2 0x3D52 JUMP JUMPDEST PUSH1 0x40 MLOAD DUP1 SWAP2 SUB SWAP1 REVERT JUMPDEST PUSH1 0x0 DUP3 GT ISZERO PUSH2 0x1E1B JUMPI PUSH1 0x0 PUSH20 0xFFFFFFFFFFFFFFFFFFFFFFFFFFFFFFFFFFFFFFFF AND DUP4 PUSH20 0xFFFFFFFFFFFFFFFFFFFFFFFFFFFFFFFFFFFFFFFF AND SUB PUSH2 0x1E1A JUMPI PUSH1 0x40 MLOAD PUSH32 0x8C379A000000000000000000000000000000000000000000000000000000000 DUP2 MSTORE PUSH1 0x4 ADD PUSH2 0x1E11 SWAP1 PUSH2 0x3DBE JUMP JUMPDEST PUSH1 0x40 MLOAD DUP1 SWAP2 SUB SWAP1 REVERT JUMPDEST JUMPDEST PUSH1 0x65 SLOAD PUSH2 0x1F4 DUP7 PUSH2 0x1E2C SWAP2 SWAP1 PUSH2 0x3DDE JUMP JUMPDEST PUSH2 0x1E36 SWAP2 SWAP1 PUSH2 0x3E4F JUMP JUMPDEST DUP3 GT ISZERO PUSH2 0x1E78 JUMPI PUSH1 0x40 MLOAD PUSH32 0x8C379A000000000000000000000000000000000000000000000000000000000 DUP2 MSTORE PUSH1 0x4 ADD PUSH2 0x1E6F SWAP1 PUSH2 0x3ECC JUMP JUMPDEST PUSH1 0x40 MLOAD DUP1 SWAP2 SUB SWAP1 REVERT JUMPDEST POP POP POP POP POP POP JUMP JUMPDEST PUSH2 0x1E88 PUSH2 0x23C4 JUMP JUMPDEST PUSH20 0xFFFFFFFFFFFFFFFFFFFFFFFFFFFFFFFFFFFFFFFF AND PUSH2 0x1EA6 PUSH2 0x1586 JUMP JUMPDEST PUSH20 0xFFFFFFFFFFFFFFFFFFFFFFFFFFFFFFFFFFFFFFFF AND EQ PUSH2 0x1EFC JUMPI PUSH1 0x40 MLOAD PUSH32 0x8C379A000000000000000000000000000000000000000000000000000000000 DUP2 MSTORE PUSH1 0x4 ADD PUSH2 0x1EF3 SWAP1 PUSH2 0x3F38 JUMP JUMPDEST PUSH1 0x40 MLOAD DUP1 SWAP2 SUB SWAP1 REVERT JUMPDEST JUMP JUMPDEST PUSH2 0x1F06 PUSH2 0x23CC JUMP JUMPDEST PUSH1 0x0 PUSH1 0x9E PUSH1 0x0 PUSH2 0x100 EXP DUP2 SLOAD DUP2 PUSH1 0xFF MUL NOT AND SWAP1 DUP4 ISZERO ISZERO MUL OR SWAP1 SSTORE POP PUSH32 0x5DB9EE0A495BF2E6FF9C91A7834C1BA4FDD244A5E8AA4E537BD38AEAE4B073AA PUSH2 0x1F4A PUSH2 0x23C4 JUMP JUMPDEST PUSH1 0x40 MLOAD PUSH2 0x1F57 SWAP2 SWAP1 PUSH2 0x2F87 JUMP JUMPDEST PUSH1 0x40 MLOAD DUP1 SWAP2 SUB SWAP1 LOG1 JUMP JUMPDEST PUSH2 0x1F69 PUSH2 0x25E4 JUMP JUMPDEST PUSH1 0x0 PUSH1 0xD0 PUSH1 0x0 DUP7 DUP2 MSTORE PUSH1 0x20 ADD SWAP1 DUP2 MSTORE PUSH1 0x20 ADD PUSH1 0x0 KECCAK256 PUSH1 0x6 ADD SLOAD SWAP1 POP PUSH1 0xD0 PUSH1 0x0 DUP7 DUP2 MSTORE PUSH1 0x20 ADD SWAP1 DUP2 MSTORE PUSH1 0x20 ADD PUSH1 0x0 KECCAK256 PUSH1 0x3 ADD SLOAD DUP2 PUSH2 0x1FA6 SWAP2 SWAP1 PUSH2 0x3A67 JUMP JUMPDEST SWAP1 POP PUSH1 0x65 SLOAD DUP5 PUSH12 0xFFFFFFFFFFFFFFFFFFFFFFFF AND DUP3 PUSH2 0x1FC5 SWAP2 SWAP1 PUSH2 0x3DDE JUMP JUMPDEST PUSH2 0x1FCF SWAP2 SWAP1 PUSH2 0x3E4F JUMP JUMPDEST DUP3 PUSH1 0x20 ADD DUP2 DUP2 MSTORE POP POP PUSH1 0x65 SLOAD PUSH1 0x66 PUSH1 0x0 SWAP1 SLOAD SWAP1 PUSH2 0x100 EXP SWAP1 DIV PUSH8 0xFFFFFFFFFFFFFFFF AND PUSH8 0xFFFFFFFFFFFFFFFF AND DUP4 PUSH1 0x20 ADD MLOAD PUSH2 0x200B SWAP2 SWAP1 PUSH2 0x3DDE JUMP JUMPDEST PUSH2 0x2015 SWAP2 SWAP1 PUSH2 0x3E4F JUMP JUMPDEST DUP3 PUSH1 0x0 ADD DUP2 DUP2 MSTORE POP POP DUP2 PUSH1 0x0 ADD MLOAD DUP3 PUSH1 0x20 ADD MLOAD PUSH2 0x2032 SWAP2 SWAP1 PUSH2 0x3A67 JUMP JUMPDEST DUP3 PUSH1 0x20 ADD DUP2 DUP2 MSTORE POP POP DUP3 ISZERO PUSH2 0x206A JUMPI DUP2 PUSH1 0x0 ADD MLOAD DUP3 PUSH1 0x20 ADD DUP2 DUP2 MLOAD PUSH2 0x2057 SWAP2 SWAP1 PUSH2 0x3F58 JUMP JUMPDEST SWAP2 POP DUP2 DUP2 MSTORE POP POP PUSH1 0x0 DUP3 PUSH1 0x0 ADD DUP2 DUP2 MSTORE POP POP JUMPDEST POP SWAP4 SWAP3 POP POP POP JUMP JUMPDEST PUSH1 0x0 PUSH1 0xD0 PUSH1 0x0 DUP4 DUP2 MSTORE PUSH1 0x20 ADD SWAP1 DUP2 MSTORE PUSH1 0x20 ADD PUSH1 0x0 KECCAK256 PUSH1 0x2 ADD PUSH1 0x0 SWAP1 SLOAD SWAP1 PUSH2 0x100 EXP SWAP1 DIV PUSH20 0xFFFFFFFFFFFFFFFFFFFFFFFFFFFFFFFFFFFFFFFF AND SWAP1 POP PUSH1 0x0 PUSH1 0xD0 PUSH1 0x0 DUP5 DUP2 MSTORE PUSH1 0x20 ADD SWAP1 DUP2 MSTORE PUSH1 0x20 ADD PUSH1 0x0 KECCAK256 PUSH1 0x3 ADD SLOAD SWAP1 POP PUSH1 0xD0 PUSH1 0x0 DUP5 DUP2 MSTORE PUSH1 0x20 ADD SWAP1 DUP2 MSTORE PUSH1 0x20 ADD PUSH1 0x0 KECCAK256 PUSH1 0x1 ADD PUSH1 0x0 SWAP1 SLOAD SWAP1 PUSH2 0x100 EXP SWAP1 DIV PUSH20 0xFFFFFFFFFFFFFFFFFFFFFFFFFFFFFFFFFFFFFFFF AND PUSH20 0xFFFFFFFFFFFFFFFFFFFFFFFFFFFFFFFFFFFFFFFF AND PUSH4 0xA9059CBB DUP4 DUP4 PUSH1 0x40 MLOAD DUP4 PUSH4 0xFFFFFFFF AND PUSH1 0xE0 SHL DUP2 MSTORE PUSH1 0x4 ADD PUSH2 0x2139 SWAP3 SWAP2 SWAP1 PUSH2 0x3318 JUMP JUMPDEST PUSH1 0x20 PUSH1 0x40 MLOAD DUP1 DUP4 SUB DUP2 PUSH1 0x0 DUP8 GAS CALL ISZERO DUP1 ISZERO PUSH2 0x2158 JUMPI RETURNDATASIZE PUSH1 0x0 DUP1 RETURNDATACOPY RETURNDATASIZE PUSH1 0x0 REVERT JUMPDEST POP POP POP POP PUSH1 0x40 MLOAD RETURNDATASIZE PUSH1 0x1F NOT PUSH1 0x1F DUP3 ADD AND DUP3 ADD DUP1 PUSH1 0x40 MSTORE POP DUP2 ADD SWAP1 PUSH2 0x217C SWAP2 SWAP1 PUSH2 0x3274 JUMP JUMPDEST POP DUP1 DUP3 PUSH20 0xFFFFFFFFFFFFFFFFFFFFFFFFFFFFFFFFFFFFFFFF AND PUSH32 0x44F6938CA4A10313AABB76F874CCED61E35710A734A126E4AFB34461BF8C2501 PUSH1 0x40 MLOAD PUSH1 0x40 MLOAD DUP1 SWAP2 SUB SWAP1 LOG3 POP POP POP JUMP JUMPDEST PUSH1 0x0 PUSH1 0x33 PUSH1 0x0 SWAP1 SLOAD SWAP1 PUSH2 0x100 EXP SWAP1 DIV PUSH20 0xFFFFFFFFFFFFFFFFFFFFFFFFFFFFFFFFFFFFFFFF AND SWAP1 POP DUP2 PUSH1 0x33 PUSH1 0x0 PUSH2 0x100 EXP DUP2 SLOAD DUP2 PUSH20 0xFFFFFFFFFFFFFFFFFFFFFFFFFFFFFFFFFFFFFFFF MUL NOT AND SWAP1 DUP4 PUSH20 0xFFFFFFFFFFFFFFFFFFFFFFFFFFFFFFFFFFFFFFFF AND MUL OR SWAP1 SSTORE POP DUP2 PUSH20 0xFFFFFFFFFFFFFFFFFFFFFFFFFFFFFFFFFFFFFFFF AND DUP2 PUSH20 0xFFFFFFFFFFFFFFFFFFFFFFFFFFFFFFFFFFFFFFFF AND PUSH32 0x8BE0079C531659141344CD1FD0A4F28419497F9722A3DAAFE3B4186F6B6457E0 PUSH1 0x40 MLOAD PUSH1 0x40 MLOAD DUP1 SWAP2 SUB SWAP1 LOG3 POP POP JUMP JUMPDEST PUSH1 0x0 DUP1 DUP3 PUSH20 0xFFFFFFFFFFFFFFFFFFFFFFFFFFFFFFFFFFFFFFFF AND EXTCODESIZE GT SWAP1 POP SWAP2 SWAP1 POP JUMP JUMPDEST PUSH1 0x0 PUSH1 0x1 SWAP1 SLOAD SWAP1 PUSH2 0x100 EXP SWAP1 DIV PUSH1 0xFF AND PUSH2 0x22FE JUMPI PUSH1 0x40 MLOAD PUSH32 0x8C379A000000000000000000000000000000000000000000000000000000000 DUP2 MSTORE PUSH1 0x4 ADD PUSH2 0x22F5 SWAP1 PUSH2 0x3FFE JUMP JUMPDEST PUSH1 0x40 MLOAD DUP1 SWAP2 SUB SWAP1 REVERT JUMPDEST PUSH2 0x2306 PUSH2 0x2415 JUMP JUMPDEST JUMP JUMPDEST PUSH1 0x0 PUSH1 0x1 SWAP1 SLOAD SWAP1 PUSH2 0x100 EXP SWAP1 DIV PUSH1 0xFF AND PUSH2 0x2357 JUMPI PUSH1 0x40 MLOAD PUSH32 0x8C379A000000000000000000000000000000000000000000000000000000000 DUP2 MSTORE PUSH1 0x4 ADD PUSH2 0x234E SWAP1 PUSH2 0x3FFE JUMP JUMPDEST PUSH1 0x40 MLOAD DUP1 SWAP2 SUB SWAP1 REVERT JUMPDEST PUSH2 0x235F PUSH2 0x2476 JUMP JUMPDEST JUMP JUMPDEST PUSH2 0x2369 PUSH2 0x1BBF JUMP JUMPDEST PUSH1 0x1 PUSH1 0x9E PUSH1 0x0 PUSH2 0x100 EXP DUP2 SLOAD DUP2 PUSH1 0xFF MUL NOT AND SWAP1 DUP4 ISZERO ISZERO MUL OR SWAP1 SSTORE POP PUSH32 0x62E78CEA01BEE320CD4E420270B5EA74000D11B0C9F74754EBDBFC544B05A258 PUSH2 0x23AD PUSH2 0x23C4 JUMP JUMPDEST PUSH1 0x40 MLOAD PUSH2 0x23BA SWAP2 SWAP1 PUSH2 0x2F87 JUMP JUMPDEST PUSH1 0x40 MLOAD DUP1 SWAP2 SUB SWAP1 LOG1 JUMP JUMPDEST PUSH1 0x0 CALLER SWAP1 POP SWAP1 JUMP JUMPDEST PUSH2 0x23D4 PUSH2 0xB68 JUMP JUMPDEST PUSH2 0x2413 JUMPI PUSH1 0x40 MLOAD PUSH32 0x8C379A000000000000000000000000000000000000000000000000000000000 DUP2 MSTORE PUSH1 0x4 ADD PUSH2 0x240A SWAP1 PUSH2 0x406A JUMP JUMPDEST PUSH1 0x40 MLOAD DUP1 SWAP2 SUB SWAP1 REVERT JUMPDEST JUMP JUMPDEST PUSH1 0x0 PUSH1 0x1 SWAP1 SLOAD SWAP1 PUSH2 0x100 EXP SWAP1 DIV PUSH1 0xFF AND PUSH2 0x2464 JUMPI PUSH1 0x40 MLOAD PUSH32 0x8C379A000000000000000000000000000000000000000000000000000000000 DUP2 MSTORE PUSH1 0x4 ADD PUSH2 0x245B SWAP1 PUSH2 0x3FFE JUMP JUMPDEST PUSH1 0x40 MLOAD DUP1 SWAP2 SUB SWAP1 REVERT JUMPDEST PUSH2 0x2474 PUSH2 0x246F PUSH2 0x23C4 JUMP JUMPDEST PUSH2 0x21C6 JUMP JUMPDEST JUMP JUMPDEST PUSH1 0x0 PUSH1 0x1 SWAP1 SLOAD SWAP1 PUSH2 0x100 EXP SWAP1 DIV PUSH1 0xFF AND PUSH2 0x24C5 JUMPI PUSH1 0x40 MLOAD PUSH32 0x8C379A000000000000000000000000000000000000000000000000000000000 DUP2 MSTORE PUSH1 0x4 ADD PUSH2 0x24BC SWAP1 PUSH2 0x3FFE JUMP JUMPDEST PUSH1 0x40 MLOAD DUP1 SWAP2 SUB SWAP1 REVERT JUMPDEST PUSH1 0x0 PUSH1 0x9E PUSH1 0x0 PUSH2 0x100 EXP DUP2 SLOAD DUP2 PUSH1 0xFF MUL NOT AND SWAP1 DUP4 ISZERO ISZERO MUL OR SWAP1 SSTORE POP JUMP JUMPDEST PUSH1 0x40 MLOAD DUP1 PUSH1 0x40 ADD PUSH1 0x40 MSTORE DUP1 PUSH1 0x0 DUP1 NOT AND DUP2 MSTORE PUSH1 0x20 ADD PUSH1 0x0 DUP1 NOT AND DUP2 MSTORE POP SWAP1 JUMP JUMPDEST PUSH1 0x40 MLOAD DUP1 PUSH2 0x120 ADD PUSH1 0x40 MSTORE DUP1 PUSH1 0x0 PUSH20 0xFFFFFFFFFFFFFFFFFFFFFFFFFFFFFFFFFFFFFFFF AND DUP2 MSTORE PUSH1 0x20 ADD PUSH1 0x0 PUSH20 0xFFFFFFFFFFFFFFFFFFFFFFFFFFFFFFFFFFFFFFFF AND DUP2 MSTORE PUSH1 0x20 ADD PUSH1 0x0 PUSH20 0xFFFFFFFFFFFFFFFFFFFFFFFFFFFFFFFFFFFFFFFF AND DUP2 MSTORE PUSH1 0x20 ADD PUSH1 0x0 DUP2 MSTORE PUSH1 0x20 ADD PUSH1 0x0 PUSH12 0xFFFFFFFFFFFFFFFFFFFFFFFF AND DUP2 MSTORE PUSH1 0x20 ADD PUSH1 0x0 ISZERO ISZERO DUP2 MSTORE PUSH1 0x20 ADD PUSH1 0x0 PUSH20 0xFFFFFFFFFFFFFFFFFFFFFFFFFFFFFFFFFFFFFFFF AND DUP2 MSTORE PUSH1 0x20 ADD PUSH1 0x0 PUSH12 0xFFFFFFFFFFFFFFFFFFFFFFFF AND DUP2 MSTORE PUSH1 0x20 ADD PUSH1 0x0 DUP2 MSTORE POP SWAP1 JUMP JUMPDEST PUSH1 0x40 MLOAD DUP1 PUSH1 0x40 ADD PUSH1 0x40 MSTORE DUP1 PUSH1 0x0 DUP1 NOT AND DUP2 MSTORE PUSH1 0x20 ADD PUSH1 0x0 DUP1 NOT AND DUP2 MSTORE POP SWAP1 JUMP JUMPDEST PUSH1 0x40 MLOAD DUP1 PUSH1 0x40 ADD PUSH1 0x40 MSTORE DUP1 PUSH1 0x0 DUP2 MSTORE PUSH1 0x20 ADD PUSH1 0x0 DUP2 MSTORE POP SWAP1 JUMP JUMPDEST PUSH1 0x0 PUSH1 0x40 MLOAD SWAP1 POP SWAP1 JUMP JUMPDEST PUSH1 0x0 DUP1 REVERT JUMPDEST PUSH1 0x0 DUP1 REVERT JUMPDEST PUSH1 0x0 DUP2 SWAP1 POP SWAP2 SWAP1 POP JUMP JUMPDEST PUSH2 0x2625 DUP2 PUSH2 0x2612 JUMP JUMPDEST DUP2 EQ PUSH2 0x2630 JUMPI PUSH1 0x0 DUP1 REVERT JUMPDEST POP JUMP JUMPDEST PUSH1 0x0 DUP2 CALLDATALOAD SWAP1 POP PUSH2 0x2642 DUP2 PUSH2 0x261C JUMP JUMPDEST SWAP3 SWAP2 POP POP JUMP JUMPDEST PUSH1 0x0 PUSH1 0x20 DUP3 DUP5 SUB SLT ISZERO PUSH2 0x265E JUMPI PUSH2 0x265D PUSH2 0x2608 JUMP JUMPDEST JUMPDEST PUSH1 0x0 PUSH2 0x266C DUP5 DUP3 DUP6 ADD PUSH2 0x2633 JUMP JUMPDEST SWAP2 POP POP SWAP3 SWAP2 POP POP JUMP JUMPDEST PUSH1 0x0 DUP2 MLOAD SWAP1 POP SWAP2 SWAP1 POP JUMP JUMPDEST PUSH1 0x0 DUP3 DUP3 MSTORE PUSH1 0x20 DUP3 ADD SWAP1 POP SWAP3 SWAP2 POP POP JUMP JUMPDEST PUSH1 0x0 DUP2 SWAP1 POP PUSH1 0x20 DUP3 ADD SWAP1 POP SWAP2 SWAP1 POP JUMP JUMPDEST PUSH2 0x26AA DUP2 PUSH2 0x2612 JUMP JUMPDEST DUP3 MSTORE POP POP JUMP JUMPDEST PUSH1 0x40 DUP3 ADD PUSH1 0x0 DUP3 ADD MLOAD PUSH2 0x26C6 PUSH1 0x0 DUP6 ADD DUP3 PUSH2 0x26A1 JUMP JUMPDEST POP PUSH1 0x20 DUP3 ADD MLOAD PUSH2 0x26D9 PUSH1 0x20 DUP6 ADD DUP3 PUSH2 0x26A1 JUMP JUMPDEST POP POP POP POP JUMP JUMPDEST PUSH1 0x0 PUSH2 0x26EB DUP4 DUP4 PUSH2 0x26B0 JUMP JUMPDEST PUSH1 0x40 DUP4 ADD SWAP1 POP SWAP3 SWAP2 POP POP JUMP JUMPDEST PUSH1 0x0 PUSH1 0x20 DUP3 ADD SWAP1 POP SWAP2 SWAP1 POP JUMP JUMPDEST PUSH1 0x0 PUSH2 0x270F DUP3 PUSH2 0x2675 JUMP JUMPDEST PUSH2 0x2719 DUP2 DUP6 PUSH2 0x2680 JUMP JUMPDEST SWAP4 POP PUSH2 0x2724 DUP4 PUSH2 0x2691 JUMP JUMPDEST DUP1 PUSH1 0x0 JUMPDEST DUP4 DUP2 LT ISZERO PUSH2 0x2755 JUMPI DUP2 MLOAD PUSH2 0x273C DUP9 DUP3 PUSH2 0x26DF JUMP JUMPDEST SWAP8 POP PUSH2 0x2747 DUP4 PUSH2 0x26F7 JUMP JUMPDEST SWAP3 POP POP PUSH1 0x1 DUP2 ADD SWAP1 POP PUSH2 0x2728 JUMP JUMPDEST POP DUP6 SWAP4 POP POP POP POP SWAP3 SWAP2 POP POP JUMP JUMPDEST PUSH1 0x0 PUSH1 0x20 DUP3 ADD SWAP1 POP DUP2 DUP2 SUB PUSH1 0x0 DUP4 ADD MSTORE PUSH2 0x277C DUP2 DUP5 PUSH2 0x2704 JUMP JUMPDEST SWAP1 POP SWAP3 SWAP2 POP POP JUMP JUMPDEST PUSH1 0x0 PUSH20 0xFFFFFFFFFFFFFFFFFFFFFFFFFFFFFFFFFFFFFFFF DUP3 AND SWAP1 POP SWAP2 SWAP1 POP JUMP JUMPDEST PUSH1 0x0 PUSH2 0x27AF DUP3 PUSH2 0x2784 JUMP JUMPDEST SWAP1 POP SWAP2 SWAP1 POP JUMP JUMPDEST PUSH2 0x27BF DUP2 PUSH2 0x27A4 JUMP JUMPDEST DUP2 EQ PUSH2 0x27CA JUMPI PUSH1 0x0 DUP1 REVERT JUMPDEST POP JUMP JUMPDEST PUSH1 0x0 DUP2 CALLDATALOAD SWAP1 POP PUSH2 0x27DC DUP2 PUSH2 0x27B6 JUMP JUMPDEST SWAP3 SWAP2 POP POP JUMP JUMPDEST PUSH1 0x0 DUP2 SWAP1 POP SWAP2 SWAP1 POP JUMP JUMPDEST PUSH2 0x27F5 DUP2 PUSH2 0x27E2 JUMP JUMPDEST DUP2 EQ PUSH2 0x2800 JUMPI PUSH1 0x0 DUP1 REVERT JUMPDEST POP JUMP JUMPDEST PUSH1 0x0 DUP2 CALLDATALOAD SWAP1 POP PUSH2 0x2812 DUP2 PUSH2 0x27EC JUMP JUMPDEST SWAP3 SWAP2 POP POP JUMP JUMPDEST PUSH1 0x0 PUSH12 0xFFFFFFFFFFFFFFFFFFFFFFFF DUP3 AND SWAP1 POP SWAP2 SWAP1 POP JUMP JUMPDEST PUSH2 0x2839 DUP2 PUSH2 0x2818 JUMP JUMPDEST DUP2 EQ PUSH2 0x2844 JUMPI PUSH1 0x0 DUP1 REVERT JUMPDEST POP JUMP JUMPDEST PUSH1 0x0 DUP2 CALLDATALOAD SWAP1 POP PUSH2 0x2856 DUP2 PUSH2 0x2830 JUMP JUMPDEST SWAP3 SWAP2 POP POP JUMP JUMPDEST PUSH1 0x0 DUP1 REVERT JUMPDEST PUSH1 0x0 DUP1 REVERT JUMPDEST PUSH1 0x0 DUP1 REVERT JUMPDEST PUSH1 0x0 DUP1 DUP4 PUSH1 0x1F DUP5 ADD SLT PUSH2 0x2881 JUMPI PUSH2 0x2880 PUSH2 0x285C JUMP JUMPDEST JUMPDEST DUP3 CALLDATALOAD SWAP1 POP PUSH8 0xFFFFFFFFFFFFFFFF DUP2 GT ISZERO PUSH2 0x289E JUMPI PUSH2 0x289D PUSH2 0x2861 JUMP JUMPDEST JUMPDEST PUSH1 0x20 DUP4 ADD SWAP2 POP DUP4 PUSH1 0x1 DUP3 MUL DUP4 ADD GT ISZERO PUSH2 0x28BA JUMPI PUSH2 0x28B9 PUSH2 0x2866 JUMP JUMPDEST JUMPDEST SWAP3 POP SWAP3 SWAP1 POP JUMP JUMPDEST PUSH1 0x0 DUP1 PUSH1 0x0 DUP1 PUSH1 0x0 DUP1 PUSH1 0x0 DUP1 PUSH1 0x0 DUP1 PUSH2 0x120 DUP12 DUP14 SUB SLT ISZERO PUSH2 0x28E5 JUMPI PUSH2 0x28E4 PUSH2 0x2608 JUMP JUMPDEST JUMPDEST PUSH1 0x0 PUSH2 0x28F3 DUP14 DUP3 DUP15 ADD PUSH2 0x27CD JUMP JUMPDEST SWAP11 POP POP PUSH1 0x20 PUSH2 0x2904 DUP14 DUP3 DUP15 ADD PUSH2 0x2803 JUMP JUMPDEST SWAP10 POP POP PUSH1 0x40 PUSH2 0x2915 DUP14 DUP3 DUP15 ADD PUSH2 0x2633 JUMP JUMPDEST SWAP9 POP POP PUSH1 0x60 PUSH2 0x2926 DUP14 DUP3 DUP15 ADD PUSH2 0x2633 JUMP JUMPDEST SWAP8 POP POP PUSH1 0x80 PUSH2 0x2937 DUP14 DUP3 DUP15 ADD PUSH2 0x2847 JUMP JUMPDEST SWAP7 POP POP PUSH1 0xA0 PUSH2 0x2948 DUP14 DUP3 DUP15 ADD PUSH2 0x27CD JUMP JUMPDEST SWAP6 POP POP PUSH1 0xC0 PUSH2 0x2959 DUP14 DUP3 DUP15 ADD PUSH2 0x2803 JUMP JUMPDEST SWAP5 POP POP PUSH1 0xE0 PUSH2 0x296A DUP14 DUP3 DUP15 ADD PUSH2 0x27CD JUMP JUMPDEST SWAP4 POP POP PUSH2 0x100 DUP12 ADD CALLDATALOAD PUSH8 0xFFFFFFFFFFFFFFFF DUP2 GT ISZERO PUSH2 0x298C JUMPI PUSH2 0x298B PUSH2 0x260D JUMP JUMPDEST JUMPDEST PUSH2 0x2998 DUP14 DUP3 DUP15 ADD PUSH2 0x286B JUMP JUMPDEST SWAP3 POP SWAP3 POP POP SWAP3 SWAP6 SWAP9 SWAP12 SWAP2 SWAP5 SWAP8 SWAP11 POP SWAP3 SWAP6 SWAP9 POP JUMP JUMPDEST PUSH2 0x29B5 DUP2 PUSH2 0x2612 JUMP JUMPDEST DUP3 MSTORE POP POP JUMP JUMPDEST PUSH1 0x0 PUSH1 0x20 DUP3 ADD SWAP1 POP PUSH2 0x29D0 PUSH1 0x0 DUP4 ADD DUP5 PUSH2 0x29AC JUMP JUMPDEST SWAP3 SWAP2 POP POP JUMP JUMPDEST PUSH1 0x0 PUSH1 0x1F NOT PUSH1 0x1F DUP4 ADD AND SWAP1 POP SWAP2 SWAP1 POP JUMP JUMPDEST PUSH32 0x4E487B7100000000000000000000000000000000000000000000000000000000 PUSH1 0x0 MSTORE PUSH1 0x41 PUSH1 0x4 MSTORE PUSH1 0x24 PUSH1 0x0 REVERT JUMPDEST PUSH2 0x2A1F DUP3 PUSH2 0x29D6 JUMP JUMPDEST DUP2 ADD DUP2 DUP2 LT PUSH8 0xFFFFFFFFFFFFFFFF DUP3 GT OR ISZERO PUSH2 0x2A3E JUMPI PUSH2 0x2A3D PUSH2 0x29E7 JUMP JUMPDEST JUMPDEST DUP1 PUSH1 0x40 MSTORE POP POP POP JUMP JUMPDEST PUSH1 0x0 PUSH2 0x2A51 PUSH2 0x25FE JUMP JUMPDEST SWAP1 POP PUSH2 0x2A5D DUP3 DUP3 PUSH2 0x2A16 JUMP JUMPDEST SWAP2 SWAP1 POP JUMP JUMPDEST PUSH1 0x0 PUSH8 0xFFFFFFFFFFFFFFFF DUP3 GT ISZERO PUSH2 0x2A7D JUMPI PUSH2 0x2A7C PUSH2 0x29E7 JUMP JUMPDEST JUMPDEST PUSH1 0x20 DUP3 MUL SWAP1 POP PUSH1 0x20 DUP2 ADD SWAP1 POP SWAP2 SWAP1 POP JUMP JUMPDEST PUSH1 0x0 DUP1 REVERT JUMPDEST PUSH1 0x0 PUSH1 0x40 DUP3 DUP5 SUB SLT ISZERO PUSH2 0x2AA9 JUMPI PUSH2 0x2AA8 PUSH2 0x2A8E JUMP JUMPDEST JUMPDEST PUSH2 0x2AB3 PUSH1 0x40 PUSH2 0x2A47 JUMP JUMPDEST SWAP1 POP PUSH1 0x0 PUSH2 0x2AC3 DUP5 DUP3 DUP6 ADD PUSH2 0x2633 JUMP JUMPDEST PUSH1 0x0 DUP4 ADD MSTORE POP PUSH1 0x20 PUSH2 0x2AD7 DUP5 DUP3 DUP6 ADD PUSH2 0x2633 JUMP JUMPDEST PUSH1 0x20 DUP4 ADD MSTORE POP SWAP3 SWAP2 POP POP JUMP JUMPDEST PUSH1 0x0 PUSH2 0x2AF6 PUSH2 0x2AF1 DUP5 PUSH2 0x2A62 JUMP JUMPDEST PUSH2 0x2A47 JUMP JUMPDEST SWAP1 POP DUP1 DUP4 DUP3 MSTORE PUSH1 0x20 DUP3 ADD SWAP1 POP PUSH1 0x40 DUP5 MUL DUP4 ADD DUP6 DUP2 GT ISZERO PUSH2 0x2B19 JUMPI PUSH2 0x2B18 PUSH2 0x2866 JUMP JUMPDEST JUMPDEST DUP4 JUMPDEST DUP2 DUP2 LT ISZERO PUSH2 0x2B42 JUMPI DUP1 PUSH2 0x2B2E DUP9 DUP3 PUSH2 0x2A93 JUMP JUMPDEST DUP5 MSTORE PUSH1 0x20 DUP5 ADD SWAP4 POP POP PUSH1 0x40 DUP2 ADD SWAP1 POP PUSH2 0x2B1B JUMP JUMPDEST POP POP POP SWAP4 SWAP3 POP POP POP JUMP JUMPDEST PUSH1 0x0 DUP3 PUSH1 0x1F DUP4 ADD SLT PUSH2 0x2B61 JUMPI PUSH2 0x2B60 PUSH2 0x285C JUMP JUMPDEST JUMPDEST DUP2 CALLDATALOAD PUSH2 0x2B71 DUP5 DUP3 PUSH1 0x20 DUP7 ADD PUSH2 0x2AE3 JUMP JUMPDEST SWAP2 POP POP SWAP3 SWAP2 POP POP JUMP JUMPDEST PUSH1 0x0 DUP1 PUSH1 0x40 DUP4 DUP6 SUB SLT ISZERO PUSH2 0x2B91 JUMPI PUSH2 0x2B90 PUSH2 0x2608 JUMP JUMPDEST JUMPDEST PUSH1 0x0 PUSH2 0x2B9F DUP6 DUP3 DUP7 ADD PUSH2 0x2633 JUMP JUMPDEST SWAP3 POP POP PUSH1 0x20 DUP4 ADD CALLDATALOAD PUSH8 0xFFFFFFFFFFFFFFFF DUP2 GT ISZERO PUSH2 0x2BC0 JUMPI PUSH2 0x2BBF PUSH2 0x260D JUMP JUMPDEST JUMPDEST PUSH2 0x2BCC DUP6 DUP3 DUP7 ADD PUSH2 0x2B4C JUMP JUMPDEST SWAP2 POP POP SWAP3 POP SWAP3 SWAP1 POP JUMP JUMPDEST PUSH1 0x0 DUP2 MLOAD SWAP1 POP SWAP2 SWAP1 POP JUMP JUMPDEST PUSH1 0x0 DUP3 DUP3 MSTORE PUSH1 0x20 DUP3 ADD SWAP1 POP SWAP3 SWAP2 POP POP JUMP JUMPDEST PUSH1 0x0 JUMPDEST DUP4 DUP2 LT ISZERO PUSH2 0x2C10 JUMPI DUP1 DUP3 ADD MLOAD DUP2 DUP5 ADD MSTORE PUSH1 0x20 DUP2 ADD SWAP1 POP PUSH2 0x2BF5 JUMP JUMPDEST PUSH1 0x0 DUP5 DUP5 ADD MSTORE POP POP POP POP JUMP JUMPDEST PUSH1 0x0 PUSH2 0x2C27 DUP3 PUSH2 0x2BD6 JUMP JUMPDEST PUSH2 0x2C31 DUP2 DUP6 PUSH2 0x2BE1 JUMP JUMPDEST SWAP4 POP PUSH2 0x2C41 DUP2 DUP6 PUSH1 0x20 DUP7 ADD PUSH2 0x2BF2 JUMP JUMPDEST PUSH2 0x2C4A DUP2 PUSH2 0x29D6 JUMP JUMPDEST DUP5 ADD SWAP2 POP POP SWAP3 SWAP2 POP POP JUMP JUMPDEST PUSH1 0x0 PUSH1 0x20 DUP3 ADD SWAP1 POP DUP2 DUP2 SUB PUSH1 0x0 DUP4 ADD MSTORE PUSH2 0x2C6F DUP2 DUP5 PUSH2 0x2C1C JUMP JUMPDEST SWAP1 POP SWAP3 SWAP2 POP POP JUMP JUMPDEST PUSH1 0x0 DUP2 ISZERO ISZERO SWAP1 POP SWAP2 SWAP1 POP JUMP JUMPDEST PUSH2 0x2C8C DUP2 PUSH2 0x2C77 JUMP JUMPDEST DUP3 MSTORE POP POP JUMP JUMPDEST PUSH1 0x0 PUSH1 0x20 DUP3 ADD SWAP1 POP PUSH2 0x2CA7 PUSH1 0x0 DUP4 ADD DUP5 PUSH2 0x2C83 JUMP JUMPDEST SWAP3 SWAP2 POP POP JUMP JUMPDEST PUSH1 0x0 PUSH8 0xFFFFFFFFFFFFFFFF DUP3 AND SWAP1 POP SWAP2 SWAP1 POP JUMP JUMPDEST PUSH2 0x2CCA DUP2 PUSH2 0x2CAD JUMP JUMPDEST DUP2 EQ PUSH2 0x2CD5 JUMPI PUSH1 0x0 DUP1 REVERT JUMPDEST POP JUMP JUMPDEST PUSH1 0x0 DUP2 CALLDATALOAD SWAP1 POP PUSH2 0x2CE7 DUP2 PUSH2 0x2CC1 JUMP JUMPDEST SWAP3 SWAP2 POP POP JUMP JUMPDEST PUSH2 0x2CF6 DUP2 PUSH2 0x2C77 JUMP JUMPDEST DUP2 EQ PUSH2 0x2D01 JUMPI PUSH1 0x0 DUP1 REVERT JUMPDEST POP JUMP JUMPDEST PUSH1 0x0 DUP2 CALLDATALOAD SWAP1 POP PUSH2 0x2D13 DUP2 PUSH2 0x2CED JUMP JUMPDEST SWAP3 SWAP2 POP POP JUMP JUMPDEST PUSH1 0x0 DUP1 PUSH1 0x0 DUP1 PUSH1 0x0 DUP1 PUSH1 0xC0 DUP8 DUP10 SUB SLT ISZERO PUSH2 0x2D36 JUMPI PUSH2 0x2D35 PUSH2 0x2608 JUMP JUMPDEST JUMPDEST PUSH1 0x0 PUSH2 0x2D44 DUP10 DUP3 DUP11 ADD PUSH2 0x2633 JUMP JUMPDEST SWAP7 POP POP PUSH1 0x20 PUSH2 0x2D55 DUP10 DUP3 DUP11 ADD PUSH2 0x2633 JUMP JUMPDEST SWAP6 POP POP PUSH1 0x40 PUSH2 0x2D66 DUP10 DUP3 DUP11 ADD PUSH2 0x2633 JUMP JUMPDEST SWAP5 POP POP PUSH1 0x60 PUSH2 0x2D77 DUP10 DUP3 DUP11 ADD PUSH2 0x27CD JUMP JUMPDEST SWAP4 POP POP PUSH1 0x80 PUSH2 0x2D88 DUP10 DUP3 DUP11 ADD PUSH2 0x2CD8 JUMP JUMPDEST SWAP3 POP POP PUSH1 0xA0 PUSH2 0x2D99 DUP10 DUP3 DUP11 ADD PUSH2 0x2D04 JUMP JUMPDEST SWAP2 POP POP SWAP3 SWAP6 POP SWAP3 SWAP6 POP SWAP3 SWAP6 JUMP JUMPDEST PUSH2 0x2DAF DUP2 PUSH2 0x27A4 JUMP JUMPDEST DUP3 MSTORE POP POP JUMP JUMPDEST PUSH1 0x0 PUSH1 0x40 DUP3 ADD SWAP1 POP PUSH2 0x2DCA PUSH1 0x0 DUP4 ADD DUP6 PUSH2 0x29AC JUMP JUMPDEST PUSH2 0x2DD7 PUSH1 0x20 DUP4 ADD DUP5 PUSH2 0x2DA6 JUMP JUMPDEST SWAP4 SWAP3 POP POP POP JUMP JUMPDEST PUSH1 0x0 PUSH1 0x20 DUP3 DUP5 SUB SLT ISZERO PUSH2 0x2DF4 JUMPI PUSH2 0x2DF3 PUSH2 0x2608 JUMP JUMPDEST JUMPDEST PUSH1 0x0 PUSH2 0x2E02 DUP5 DUP3 DUP6 ADD PUSH2 0x27CD JUMP JUMPDEST SWAP2 POP POP SWAP3 SWAP2 POP POP JUMP JUMPDEST PUSH2 0x2E14 DUP2 PUSH2 0x27A4 JUMP JUMPDEST DUP3 MSTORE POP POP JUMP JUMPDEST PUSH2 0x2E23 DUP2 PUSH2 0x27E2 JUMP JUMPDEST DUP3 MSTORE POP POP JUMP JUMPDEST PUSH2 0x2E32 DUP2 PUSH2 0x2818 JUMP JUMPDEST DUP3 MSTORE POP POP JUMP JUMPDEST PUSH2 0x2E41 DUP2 PUSH2 0x2C77 JUMP JUMPDEST DUP3 MSTORE POP POP JUMP JUMPDEST PUSH2 0x120 DUP3 ADD PUSH1 0x0 DUP3 ADD MLOAD PUSH2 0x2E5E PUSH1 0x0 DUP6 ADD DUP3 PUSH2 0x2E0B JUMP JUMPDEST POP PUSH1 0x20 DUP3 ADD MLOAD PUSH2 0x2E71 PUSH1 0x20 DUP6 ADD DUP3 PUSH2 0x2E0B JUMP JUMPDEST POP PUSH1 0x40 DUP3 ADD MLOAD PUSH2 0x2E84 PUSH1 0x40 DUP6 ADD DUP3 PUSH2 0x2E0B JUMP JUMPDEST POP PUSH1 0x60 DUP3 ADD MLOAD PUSH2 0x2E97 PUSH1 0x60 DUP6 ADD DUP3 PUSH2 0x2E1A JUMP JUMPDEST POP PUSH1 0x80 DUP3 ADD MLOAD PUSH2 0x2EAA PUSH1 0x80 DUP6 ADD DUP3 PUSH2 0x2E29 JUMP JUMPDEST POP PUSH1 0xA0 DUP3 ADD MLOAD PUSH2 0x2EBD PUSH1 0xA0 DUP6 ADD DUP3 PUSH2 0x2E38 JUMP JUMPDEST POP PUSH1 0xC0 DUP3 ADD MLOAD PUSH2 0x2ED0 PUSH1 0xC0 DUP6 ADD DUP3 PUSH2 0x2E0B JUMP JUMPDEST POP PUSH1 0xE0 DUP3 ADD MLOAD PUSH2 0x2EE3 PUSH1 0xE0 DUP6 ADD DUP3 PUSH2 0x2E29 JUMP JUMPDEST POP PUSH2 0x100 DUP3 ADD MLOAD PUSH2 0x2EF8 PUSH2 0x100 DUP6 ADD DUP3 PUSH2 0x2E1A JUMP JUMPDEST POP POP POP POP JUMP JUMPDEST PUSH1 0x0 PUSH2 0x120 DUP3 ADD SWAP1 POP PUSH2 0x2F14 PUSH1 0x0 DUP4 ADD DUP5 PUSH2 0x2E47 JUMP JUMPDEST SWAP3 SWAP2 POP POP JUMP JUMPDEST PUSH1 0x0 DUP1 PUSH1 0x40 DUP4 DUP6 SUB SLT ISZERO PUSH2 0x2F31 JUMPI PUSH2 0x2F30 PUSH2 0x2608 JUMP JUMPDEST JUMPDEST PUSH1 0x0 PUSH2 0x2F3F DUP6 DUP3 DUP7 ADD PUSH2 0x2633 JUMP JUMPDEST SWAP3 POP POP PUSH1 0x20 PUSH2 0x2F50 DUP6 DUP3 DUP7 ADD PUSH2 0x27CD JUMP JUMPDEST SWAP2 POP POP SWAP3 POP SWAP3 SWAP1 POP JUMP JUMPDEST PUSH1 0x0 PUSH1 0x20 DUP3 DUP5 SUB SLT ISZERO PUSH2 0x2F70 JUMPI PUSH2 0x2F6F PUSH2 0x2608 JUMP JUMPDEST JUMPDEST PUSH1 0x0 PUSH2 0x2F7E DUP5 DUP3 DUP6 ADD PUSH2 0x2CD8 JUMP JUMPDEST SWAP2 POP POP SWAP3 SWAP2 POP POP JUMP JUMPDEST PUSH1 0x0 PUSH1 0x20 DUP3 ADD SWAP1 POP PUSH2 0x2F9C PUSH1 0x0 DUP4 ADD DUP5 PUSH2 0x2DA6 JUMP JUMPDEST SWAP3 SWAP2 POP POP JUMP JUMPDEST PUSH1 0x0 DUP1 PUSH1 0x0 PUSH1 0x60 DUP5 DUP7 SUB SLT ISZERO PUSH2 0x2FBB JUMPI PUSH2 0x2FBA PUSH2 0x2608 JUMP JUMPDEST JUMPDEST PUSH1 0x0 PUSH2 0x2FC9 DUP7 DUP3 DUP8 ADD PUSH2 0x2633 JUMP JUMPDEST SWAP4 POP POP PUSH1 0x20 PUSH2 0x2FDA DUP7 DUP3 DUP8 ADD PUSH2 0x27CD JUMP JUMPDEST SWAP3 POP POP PUSH1 0x40 PUSH2 0x2FEB DUP7 DUP3 DUP8 ADD PUSH2 0x2D04 JUMP JUMPDEST SWAP2 POP POP SWAP3 POP SWAP3 POP SWAP3 JUMP JUMPDEST PUSH2 0x2FFE DUP2 PUSH2 0x2CAD JUMP JUMPDEST DUP3 MSTORE POP POP JUMP JUMPDEST PUSH2 0x300D DUP2 PUSH2 0x27E2 JUMP JUMPDEST DUP3 MSTORE POP POP JUMP JUMPDEST PUSH1 0x0 PUSH1 0x40 DUP3 ADD SWAP1 POP PUSH2 0x3028 PUSH1 0x0 DUP4 ADD DUP6 PUSH2 0x2FF5 JUMP JUMPDEST PUSH2 0x3035 PUSH1 0x20 DUP4 ADD DUP5 PUSH2 0x3004 JUMP JUMPDEST SWAP4 SWAP3 POP POP POP JUMP JUMPDEST PUSH1 0x40 DUP3 ADD PUSH1 0x0 DUP3 ADD MLOAD PUSH2 0x3052 PUSH1 0x0 DUP6 ADD DUP3 PUSH2 0x26A1 JUMP JUMPDEST POP PUSH1 0x20 DUP3 ADD MLOAD PUSH2 0x3065 PUSH1 0x20 DUP6 ADD DUP3 PUSH2 0x26A1 JUMP JUMPDEST POP POP POP POP JUMP JUMPDEST PUSH1 0x0 PUSH1 0x40 DUP3 ADD SWAP1 POP PUSH2 0x3080 PUSH1 0x0 DUP4 ADD DUP5 PUSH2 0x303C JUMP JUMPDEST SWAP3 SWAP2 POP POP JUMP JUMPDEST PUSH1 0x0 DUP1 DUP4 PUSH1 0x1F DUP5 ADD SLT PUSH2 0x309C JUMPI PUSH2 0x309B PUSH2 0x285C JUMP JUMPDEST JUMPDEST DUP3 CALLDATALOAD SWAP1 POP PUSH8 0xFFFFFFFFFFFFFFFF DUP2 GT ISZERO PUSH2 0x30B9 JUMPI PUSH2 0x30B8 PUSH2 0x2861 JUMP JUMPDEST JUMPDEST PUSH1 0x20 DUP4 ADD SWAP2 POP DUP4 PUSH1 0x1 DUP3 MUL DUP4 ADD GT ISZERO PUSH2 0x30D5 JUMPI PUSH2 0x30D4 PUSH2 0x2866 JUMP JUMPDEST JUMPDEST SWAP3 POP SWAP3 SWAP1 POP JUMP JUMPDEST PUSH1 0x0 DUP1 PUSH1 0x20 DUP4 DUP6 SUB SLT ISZERO PUSH2 0x30F3 JUMPI PUSH2 0x30F2 PUSH2 0x2608 JUMP JUMPDEST JUMPDEST PUSH1 0x0 DUP4 ADD CALLDATALOAD PUSH8 0xFFFFFFFFFFFFFFFF DUP2 GT ISZERO PUSH2 0x3111 JUMPI PUSH2 0x3110 PUSH2 0x260D JUMP JUMPDEST JUMPDEST PUSH2 0x311D DUP6 DUP3 DUP7 ADD PUSH2 0x3086 JUMP JUMPDEST SWAP3 POP SWAP3 POP POP SWAP3 POP SWAP3 SWAP1 POP JUMP JUMPDEST PUSH1 0x0 DUP1 PUSH1 0x0 PUSH1 0x60 DUP5 DUP7 SUB SLT ISZERO PUSH2 0x3142 JUMPI PUSH2 0x3141 PUSH2 0x2608 JUMP JUMPDEST JUMPDEST PUSH1 0x0 PUSH2 0x3150 DUP7 DUP3 DUP8 ADD PUSH2 0x2803 JUMP JUMPDEST SWAP4 POP POP PUSH1 0x20 PUSH2 0x3161 DUP7 DUP3 DUP8 ADD PUSH2 0x2633 JUMP JUMPDEST SWAP3 POP POP PUSH1 0x40 PUSH2 0x3172 DUP7 DUP3 DUP8 ADD PUSH2 0x2633 JUMP JUMPDEST SWAP2 POP POP SWAP3 POP SWAP3 POP SWAP3 JUMP JUMPDEST PUSH32 0x4E487B7100000000000000000000000000000000000000000000000000000000 PUSH1 0x0 MSTORE PUSH1 0x32 PUSH1 0x4 MSTORE PUSH1 0x24 PUSH1 0x0 REVERT JUMPDEST PUSH1 0x0 DUP3 DUP3 MSTORE PUSH1 0x20 DUP3 ADD SWAP1 POP SWAP3 SWAP2 POP POP JUMP JUMPDEST PUSH32 0x496E76616C69644D657373616765486173680000000000000000000000000000 PUSH1 0x0 DUP3 ADD MSTORE POP JUMP JUMPDEST PUSH1 0x0 PUSH2 0x31F2 PUSH1 0x12 DUP4 PUSH2 0x31AB JUMP JUMPDEST SWAP2 POP PUSH2 0x31FD DUP3 PUSH2 0x31BC JUMP JUMPDEST PUSH1 0x20 DUP3 ADD SWAP1 POP SWAP2 SWAP1 POP JUMP JUMPDEST PUSH1 0x0 PUSH1 0x20 DUP3 ADD SWAP1 POP DUP2 DUP2 SUB PUSH1 0x0 DUP4 ADD MSTORE PUSH2 0x3221 DUP2 PUSH2 0x31E5 JUMP JUMPDEST SWAP1 POP SWAP2 SWAP1 POP JUMP JUMPDEST PUSH1 0x0 PUSH1 0x60 DUP3 ADD SWAP1 POP PUSH2 0x323D PUSH1 0x0 DUP4 ADD DUP7 PUSH2 0x2DA6 JUMP JUMPDEST PUSH2 0x324A PUSH1 0x20 DUP4 ADD DUP6 PUSH2 0x2DA6 JUMP JUMPDEST PUSH2 0x3257 PUSH1 0x40 DUP4 ADD DUP5 PUSH2 0x3004 JUMP JUMPDEST SWAP5 SWAP4 POP POP POP POP JUMP JUMPDEST PUSH1 0x0 DUP2 MLOAD SWAP1 POP PUSH2 0x326E DUP2 PUSH2 0x2CED JUMP JUMPDEST SWAP3 SWAP2 POP POP JUMP JUMPDEST PUSH1 0x0 PUSH1 0x20 DUP3 DUP5 SUB SLT ISZERO PUSH2 0x328A JUMPI PUSH2 0x3289 PUSH2 0x2608 JUMP JUMPDEST JUMPDEST PUSH1 0x0 PUSH2 0x3298 DUP5 DUP3 DUP6 ADD PUSH2 0x325F JUMP JUMPDEST SWAP2 POP POP SWAP3 SWAP2 POP POP JUMP JUMPDEST PUSH32 0x4E487B7100000000000000000000000000000000000000000000000000000000 PUSH1 0x0 MSTORE PUSH1 0x11 PUSH1 0x4 MSTORE PUSH1 0x24 PUSH1 0x0 REVERT JUMPDEST PUSH1 0x0 PUSH2 0x32DB DUP3 PUSH2 0x27E2 JUMP JUMPDEST SWAP2 POP PUSH32 0xFFFFFFFFFFFFFFFFFFFFFFFFFFFFFFFFFFFFFFFFFFFFFFFFFFFFFFFFFFFFFFFF DUP3 SUB PUSH2 0x330D JUMPI PUSH2 0x330C PUSH2 0x32A1 JUMP JUMPDEST JUMPDEST PUSH1 0x1 DUP3 ADD SWAP1 POP SWAP2 SWAP1 POP JUMP JUMPDEST PUSH1 0x0 PUSH1 0x40 DUP3 ADD SWAP1 POP PUSH2 0x332D PUSH1 0x0 DUP4 ADD DUP6 PUSH2 0x2DA6 JUMP JUMPDEST PUSH2 0x333A PUSH1 0x20 DUP4 ADD DUP5 PUSH2 0x3004 JUMP JUMPDEST SWAP4 SWAP3 POP POP POP JUMP JUMPDEST PUSH1 0x0 DUP2 SWAP1 POP SWAP2 SWAP1 POP JUMP JUMPDEST PUSH1 0x0 PUSH2 0x3366 PUSH2 0x3361 PUSH2 0x335C DUP5 PUSH2 0x2818 JUMP JUMPDEST PUSH2 0x3341 JUMP JUMPDEST PUSH2 0x27E2 JUMP JUMPDEST SWAP1 POP SWAP2 SWAP1 POP JUMP JUMPDEST PUSH2 0x3376 DUP2 PUSH2 0x334B JUMP JUMPDEST DUP3 MSTORE POP POP JUMP JUMPDEST DUP3 DUP2 DUP4 CALLDATACOPY PUSH1 0x0 DUP4 DUP4 ADD MSTORE POP POP POP JUMP JUMPDEST PUSH1 0x0 PUSH2 0x3397 DUP4 DUP6 PUSH2 0x31AB JUMP JUMPDEST SWAP4 POP PUSH2 0x33A4 DUP4 DUP6 DUP5 PUSH2 0x337C JUMP JUMPDEST PUSH2 0x33AD DUP4 PUSH2 0x29D6 JUMP JUMPDEST DUP5 ADD SWAP1 POP SWAP4 SWAP3 POP POP POP JUMP JUMPDEST PUSH1 0x0 PUSH1 0x80 DUP3 ADD SWAP1 POP PUSH2 0x33CD PUSH1 0x0 DUP4 ADD DUP9 PUSH2 0x336D JUMP JUMPDEST PUSH2 0x33DA PUSH1 0x20 DUP4 ADD DUP8 PUSH2 0x29AC JUMP JUMPDEST PUSH2 0x33E7 PUSH1 0x40 DUP4 ADD DUP7 PUSH2 0x29AC JUMP JUMPDEST DUP2 DUP2 SUB PUSH1 0x60 DUP4 ADD MSTORE PUSH2 0x33FA DUP2 DUP5 DUP7 PUSH2 0x338B JUMP JUMPDEST SWAP1 POP SWAP7 SWAP6 POP POP POP POP POP POP JUMP JUMPDEST PUSH32 0x4E487B7100000000000000000000000000000000000000000000000000000000 PUSH1 0x0 MSTORE PUSH1 0x22 PUSH1 0x4 MSTORE PUSH1 0x24 PUSH1 0x0 REVERT JUMPDEST PUSH1 0x0 PUSH1 0x2 DUP3 DIV SWAP1 POP PUSH1 0x1 DUP3 AND DUP1 PUSH2 0x344D JUMPI PUSH1 0x7F DUP3 AND SWAP2 POP JUMPDEST PUSH1 0x20 DUP3 LT DUP2 SUB PUSH2 0x3460 JUMPI PUSH2 0x345F PUSH2 0x3406 JUMP JUMPDEST JUMPDEST POP SWAP2 SWAP1 POP JUMP JUMPDEST PUSH32 0x4F6E6C7941676772656761746F72000000000000000000000000000000000000 PUSH1 0x0 DUP3 ADD MSTORE POP JUMP JUMPDEST PUSH1 0x0 PUSH2 0x349C PUSH1 0xE DUP4 PUSH2 0x31AB JUMP JUMPDEST SWAP2 POP PUSH2 0x34A7 DUP3 PUSH2 0x3466 JUMP JUMPDEST PUSH1 0x20 DUP3 ADD SWAP1 POP SWAP2 SWAP1 POP JUMP JUMPDEST PUSH1 0x0 PUSH1 0x20 DUP3 ADD SWAP1 POP DUP2 DUP2 SUB PUSH1 0x0 DUP4 ADD MSTORE PUSH2 0x34CB DUP2 PUSH2 0x348F JUMP JUMPDEST SWAP1 POP SWAP2 SWAP1 POP JUMP JUMPDEST PUSH32 0x4F7264657246756C66696C6C6564000000000000000000000000000000000000 PUSH1 0x0 DUP3 ADD MSTORE POP JUMP JUMPDEST PUSH1 0x0 PUSH2 0x3508 PUSH1 0xE DUP4 PUSH2 0x31AB JUMP JUMPDEST SWAP2 POP PUSH2 0x3513 DUP3 PUSH2 0x34D2 JUMP JUMPDEST PUSH1 0x20 DUP3 ADD SWAP1 POP SWAP2 SWAP1 POP JUMP JUMPDEST PUSH1 0x0 PUSH1 0x20 DUP3 ADD SWAP1 POP DUP2 DUP2 SUB PUSH1 0x0 DUP4 ADD MSTORE PUSH2 0x3537 DUP2 PUSH2 0x34FB JUMP JUMPDEST SWAP1 POP SWAP2 SWAP1 POP JUMP JUMPDEST PUSH1 0x0 PUSH2 0x3549 DUP3 PUSH2 0x2818 JUMP JUMPDEST SWAP2 POP PUSH2 0x3554 DUP4 PUSH2 0x2818 JUMP JUMPDEST SWAP3 POP DUP3 DUP3 SUB SWAP1 POP PUSH12 0xFFFFFFFFFFFFFFFFFFFFFFFF DUP2 GT ISZERO PUSH2 0x3578 JUMPI PUSH2 0x3577 PUSH2 0x32A1 JUMP JUMPDEST JUMPDEST SWAP3 SWAP2 POP POP JUMP JUMPDEST PUSH1 0x0 PUSH2 0x3599 PUSH2 0x3594 PUSH2 0x358F DUP5 PUSH2 0x2CAD JUMP JUMPDEST PUSH2 0x3341 JUMP JUMPDEST PUSH2 0x2818 JUMP JUMPDEST SWAP1 POP SWAP2 SWAP1 POP JUMP JUMPDEST PUSH2 0x35A9 DUP2 PUSH2 0x357E JUMP JUMPDEST DUP3 MSTORE POP POP JUMP JUMPDEST PUSH1 0x0 PUSH1 0x60 DUP3 ADD SWAP1 POP PUSH2 0x35C4 PUSH1 0x0 DUP4 ADD DUP7 PUSH2 0x29AC JUMP JUMPDEST PUSH2 0x35D1 PUSH1 0x20 DUP4 ADD DUP6 PUSH2 0x29AC JUMP JUMPDEST PUSH2 0x35DE PUSH1 0x40 DUP4 ADD DUP5 PUSH2 0x35A0 JUMP JUMPDEST SWAP5 SWAP4 POP POP POP POP JUMP JUMPDEST PUSH32 0x50617963726573743A207A65726F206164647265737300000000000000000000 PUSH1 0x0 DUP3 ADD MSTORE POP JUMP JUMPDEST PUSH1 0x0 PUSH2 0x361C PUSH1 0x16 DUP4 PUSH2 0x31AB JUMP JUMPDEST SWAP2 POP PUSH2 0x3627 DUP3 PUSH2 0x35E6 JUMP JUMPDEST PUSH1 0x20 DUP3 ADD SWAP1 POP SWAP2 SWAP1 POP JUMP JUMPDEST PUSH1 0x0 PUSH1 0x20 DUP3 ADD SWAP1 POP DUP2 DUP2 SUB PUSH1 0x0 DUP4 ADD MSTORE PUSH2 0x364B DUP2 PUSH2 0x360F JUMP JUMPDEST SWAP1 POP SWAP2 SWAP1 POP JUMP JUMPDEST PUSH32 0x496E697469616C697A61626C653A20636F6E747261637420697320616C726561 PUSH1 0x0 DUP3 ADD MSTORE PUSH32 0x647920696E697469616C697A6564000000000000000000000000000000000000 PUSH1 0x20 DUP3 ADD MSTORE POP JUMP JUMPDEST PUSH1 0x0 PUSH2 0x36AE PUSH1 0x2E DUP4 PUSH2 0x31AB JUMP JUMPDEST SWAP2 POP PUSH2 0x36B9 DUP3 PUSH2 0x3652 JUMP JUMPDEST PUSH1 0x40 DUP3 ADD SWAP1 POP SWAP2 SWAP1 POP JUMP JUMPDEST PUSH1 0x0 PUSH1 0x20 DUP3 ADD SWAP1 POP DUP2 DUP2 SUB PUSH1 0x0 DUP4 ADD MSTORE PUSH2 0x36DD DUP2 PUSH2 0x36A1 JUMP JUMPDEST SWAP1 POP SWAP2 SWAP1 POP JUMP JUMPDEST PUSH1 0x0 DUP2 SWAP1 POP SWAP2 SWAP1 POP JUMP JUMPDEST PUSH1 0x0 PUSH1 0xFF DUP3 AND SWAP1 POP SWAP2 SWAP1 POP JUMP JUMPDEST PUSH1 0x0 PUSH2 0x3716 PUSH2 0x3711 PUSH2 0x370C DUP5 PUSH2 0x36E4 JUMP JUMPDEST PUSH2 0x3341 JUMP JUMPDEST PUSH2 0x36EE JUMP JUMPDEST SWAP1 POP SWAP2 SWAP1 POP JUMP JUMPDEST PUSH2 0x3726 DUP2 PUSH2 0x36FB JUMP JUMPDEST DUP3 MSTORE POP POP JUMP JUMPDEST PUSH1 0x0 PUSH1 0x20 DUP3 ADD SWAP1 POP PUSH2 0x3741 PUSH1 0x0 DUP4 ADD DUP5 PUSH2 0x371D JUMP JUMPDEST SWAP3 SWAP2 POP POP JUMP JUMPDEST PUSH1 0x0 PUSH1 0x20 DUP3 ADD SWAP1 POP PUSH2 0x375C PUSH1 0x0 DUP4 ADD DUP5 PUSH2 0x2FF5 JUMP JUMPDEST SWAP3 SWAP2 POP POP JUMP JUMPDEST PUSH1 0x0 PUSH1 0x60 DUP3 ADD SWAP1 POP PUSH2 0x3777 PUSH1 0x0 DUP4 ADD DUP7 PUSH2 0x29AC JUMP JUMPDEST PUSH2 0x3784 PUSH1 0x20 DUP4 ADD DUP6 PUSH2 0x2DA6 JUMP JUMPDEST PUSH2 0x3791 PUSH1 0x40 DUP4 ADD DUP5 PUSH2 0x2C83 JUMP JUMPDEST SWAP5 SWAP4 POP POP POP POP JUMP JUMPDEST PUSH1 0x0 DUP3 SWAP1 POP SWAP3 SWAP2 POP POP JUMP JUMPDEST PUSH1 0x0 DUP2 SWAP1 POP DUP2 PUSH1 0x0 MSTORE PUSH1 0x20 PUSH1 0x0 KECCAK256 SWAP1 POP SWAP2 SWAP1 POP JUMP JUMPDEST PUSH1 0x0 PUSH1 0x20 PUSH1 0x1F DUP4 ADD DIV SWAP1 POP SWAP2 SWAP1 POP JUMP JUMPDEST PUSH1 0x0 DUP3 DUP3 SHL SWAP1 POP SWAP3 SWAP2 POP POP JUMP JUMPDEST PUSH1 0x0 PUSH1 0x8 DUP4 MUL PUSH2 0x3806 PUSH32 0xFFFFFFFFFFFFFFFFFFFFFFFFFFFFFFFFFFFFFFFFFFFFFFFFFFFFFFFFFFFFFFFF DUP3 PUSH2 0x37C9 JUMP JUMPDEST PUSH2 0x3810 DUP7 DUP4 PUSH2 0x37C9 JUMP JUMPDEST SWAP6 POP DUP1 NOT DUP5 AND SWAP4 POP DUP1 DUP7 AND DUP5 OR SWAP3 POP POP POP SWAP4 SWAP3 POP POP POP JUMP JUMPDEST PUSH1 0x0 PUSH2 0x3843 PUSH2 0x383E PUSH2 0x3839 DUP5 PUSH2 0x27E2 JUMP JUMPDEST PUSH2 0x3341 JUMP JUMPDEST PUSH2 0x27E2 JUMP JUMPDEST SWAP1 POP SWAP2 SWAP1 POP JUMP JUMPDEST PUSH1 0x0 DUP2 SWAP1 POP SWAP2 SWAP1 POP JUMP JUMPDEST PUSH2 0x385D DUP4 PUSH2 0x3828 JUMP JUMPDEST PUSH2 0x3871 PUSH2 0x3869 DUP3 PUSH2 0x384A JUMP JUMPDEST DUP5 DUP5 SLOAD PUSH2 0x37D6 JUMP JUMPDEST DUP3 SSTORE POP POP POP POP JUMP JUMPDEST PUSH1 0x0 SWAP1 JUMP JUMPDEST PUSH2 0x3886 PUSH2 0x3879 JUMP JUMPDEST PUSH2 0x3891 DUP2 DUP5 DUP5 PUSH2 0x3854 JUMP JUMPDEST POP POP POP JUMP JUMPDEST JUMPDEST DUP2 DUP2 LT ISZERO PUSH2 0x38B5 JUMPI PUSH2 0x38AA PUSH1 0x0 DUP3 PUSH2 0x387E JUMP JUMPDEST PUSH1 0x1 DUP2 ADD SWAP1 POP PUSH2 0x3897 JUMP JUMPDEST POP POP JUMP JUMPDEST PUSH1 0x1F DUP3 GT ISZERO PUSH2 0x38FA JUMPI PUSH2 0x38CB DUP2 PUSH2 0x37A4 JUMP JUMPDEST PUSH2 0x38D4 DUP5 PUSH2 0x37B9 JUMP JUMPDEST DUP2 ADD PUSH1 0x20 DUP6 LT ISZERO PUSH2 0x38E3 JUMPI DUP2 SWAP1 POP JUMPDEST PUSH2 0x38F7 PUSH2 0x38EF DUP6 PUSH2 0x37B9 JUMP JUMPDEST DUP4 ADD DUP3 PUSH2 0x3896 JUMP JUMPDEST POP POP JUMPDEST POP POP POP JUMP JUMPDEST PUSH1 0x0 DUP3 DUP3 SHR SWAP1 POP SWAP3 SWAP2 POP POP JUMP JUMPDEST PUSH1 0x0 PUSH2 0x391D PUSH1 0x0 NOT DUP5 PUSH1 0x8 MUL PUSH2 0x38FF JUMP JUMPDEST NOT DUP1 DUP4 AND SWAP2 POP POP SWAP3 SWAP2 POP POP JUMP JUMPDEST PUSH1 0x0 PUSH2 0x3936 DUP4 DUP4 PUSH2 0x390C JUMP JUMPDEST SWAP2 POP DUP3 PUSH1 0x2 MUL DUP3 OR SWAP1 POP SWAP3 SWAP2 POP POP JUMP JUMPDEST PUSH2 0x3950 DUP4 DUP4 PUSH2 0x3799 JUMP JUMPDEST PUSH8 0xFFFFFFFFFFFFFFFF DUP2 GT ISZERO PUSH2 0x3969 JUMPI PUSH2 0x3968 PUSH2 0x29E7 JUMP JUMPDEST JUMPDEST PUSH2 0x3973 DUP3 SLOAD PUSH2 0x3435 JUMP JUMPDEST PUSH2 0x397E DUP3 DUP3 DUP6 PUSH2 0x38B9 JUMP JUMPDEST PUSH1 0x0 PUSH1 0x1F DUP4 GT PUSH1 0x1 DUP2 EQ PUSH2 0x39AD JUMPI PUSH1 0x0 DUP5 ISZERO PUSH2 0x399B JUMPI DUP3 DUP8 ADD CALLDATALOAD SWAP1 POP JUMPDEST PUSH2 0x39A5 DUP6 DUP3 PUSH2 0x392A JUMP JUMPDEST DUP7 SSTORE POP PUSH2 0x3A0D JUMP JUMPDEST PUSH1 0x1F NOT DUP5 AND PUSH2 0x39BB DUP7 PUSH2 0x37A4 JUMP JUMPDEST PUSH1 0x0 JUMPDEST DUP3 DUP2 LT ISZERO PUSH2 0x39E3 JUMPI DUP5 DUP10 ADD CALLDATALOAD DUP3 SSTORE PUSH1 0x1 DUP3 ADD SWAP2 POP PUSH1 0x20 DUP6 ADD SWAP5 POP PUSH1 0x20 DUP2 ADD SWAP1 POP PUSH2 0x39BE JUMP JUMPDEST DUP7 DUP4 LT ISZERO PUSH2 0x3A00 JUMPI DUP5 DUP10 ADD CALLDATALOAD PUSH2 0x39FC PUSH1 0x1F DUP10 AND DUP3 PUSH2 0x390C JUMP JUMPDEST DUP4 SSTORE POP JUMPDEST PUSH1 0x1 PUSH1 0x2 DUP9 MUL ADD DUP9 SSTORE POP POP POP JUMPDEST POP POP POP POP POP POP POP JUMP JUMPDEST PUSH1 0x0 PUSH2 0x3A22 DUP4 DUP6 PUSH2 0x2BE1 JUMP JUMPDEST SWAP4 POP PUSH2 0x3A2F DUP4 DUP6 DUP5 PUSH2 0x337C JUMP JUMPDEST PUSH2 0x3A38 DUP4 PUSH2 0x29D6 JUMP JUMPDEST DUP5 ADD SWAP1 POP SWAP4 SWAP3 POP POP POP JUMP JUMPDEST PUSH1 0x0 PUSH1 0x20 DUP3 ADD SWAP1 POP DUP2 DUP2 SUB PUSH1 0x0 DUP4 ADD MSTORE PUSH2 0x3A5E DUP2 DUP5 DUP7 PUSH2 0x3A16 JUMP JUMPDEST SWAP1 POP SWAP4 SWAP3 POP POP POP JUMP JUMPDEST PUSH1 0x0 PUSH2 0x3A72 DUP3 PUSH2 0x27E2 JUMP JUMPDEST SWAP2 POP PUSH2 0x3A7D DUP4 PUSH2 0x27E2 JUMP JUMPDEST SWAP3 POP DUP3 DUP3 SUB SWAP1 POP DUP2 DUP2 GT ISZERO PUSH2 0x3A95 JUMPI PUSH2 0x3A94 PUSH2 0x32A1 JUMP JUMPDEST JUMPDEST SWAP3 SWAP2 POP POP JUMP JUMPDEST PUSH1 0x0 PUSH1 0x40 DUP3 ADD SWAP1 POP PUSH2 0x3AB0 PUSH1 0x0 DUP4 ADD DUP6 PUSH2 0x3004 JUMP JUMPDEST PUSH2 0x3ABD PUSH1 0x20 DUP4 ADD DUP5 PUSH2 0x29AC JUMP JUMPDEST SWAP4 SWAP3 POP POP POP JUMP JUMPDEST PUSH32 0x4F776E61626C653A206E6577206F776E657220697320746865207A65726F2061 PUSH1 0x0 DUP3 ADD MSTORE PUSH32 0x6464726573730000000000000000000000000000000000000000000000000000 PUSH1 0x20 DUP3 ADD MSTORE POP JUMP JUMPDEST PUSH1 0x0 PUSH2 0x3B20 PUSH1 0x26 DUP4 PUSH2 0x31AB JUMP JUMPDEST SWAP2 POP PUSH2 0x3B2B DUP3 PUSH2 0x3AC4 JUMP JUMPDEST PUSH1 0x40 DUP3 ADD SWAP1 POP SWAP2 SWAP1 POP JUMP JUMPDEST PUSH1 0x0 PUSH1 0x20 DUP3 ADD SWAP1 POP DUP2 DUP2 SUB PUSH1 0x0 DUP4 ADD MSTORE PUSH2 0x3B4F DUP2 PUSH2 0x3B13 JUMP JUMPDEST SWAP1 POP SWAP2 SWAP1 POP JUMP JUMPDEST PUSH32 0x5061757361626C653A2070617573656400000000000000000000000000000000 PUSH1 0x0 DUP3 ADD MSTORE POP JUMP JUMPDEST PUSH1 0x0 PUSH2 0x3B8C PUSH1 0x10 DUP4 PUSH2 0x31AB JUMP JUMPDEST SWAP2 POP PUSH2 0x3B97 DUP3 PUSH2 0x3B56 JUMP JUMPDEST PUSH1 0x20 DUP3 ADD SWAP1 POP SWAP2 SWAP1 POP JUMP JUMPDEST PUSH1 0x0 PUSH1 0x20 DUP3 ADD SWAP1 POP DUP2 DUP2 SUB PUSH1 0x0 DUP4 ADD MSTORE PUSH2 0x3BBB DUP2 PUSH2 0x3B7F JUMP JUMPDEST SWAP1 POP SWAP2 SWAP1 POP JUMP JUMPDEST PUSH32 0x546F6B656E4E6F74537570706F72746564000000000000000000000000000000 PUSH1 0x0 DUP3 ADD MSTORE POP JUMP JUMPDEST PUSH1 0x0 PUSH2 0x3BF8 PUSH1 0x11 DUP4 PUSH2 0x31AB JUMP JUMPDEST SWAP2 POP PUSH2 0x3C03 DUP3 PUSH2 0x3BC2 JUMP JUMPDEST PUSH1 0x20 DUP3 ADD SWAP1 POP SWAP2 SWAP1 POP JUMP JUMPDEST PUSH1 0x0 PUSH1 0x20 DUP3 ADD SWAP1 POP DUP2 DUP2 SUB PUSH1 0x0 DUP4 ADD MSTORE PUSH2 0x3C27 DUP2 PUSH2 0x3BEB JUMP JUMPDEST SWAP1 POP SWAP2 SWAP1 POP JUMP JUMPDEST PUSH32 0x416D6F756E7449735A65726F0000000000000000000000000000000000000000 PUSH1 0x0 DUP3 ADD MSTORE POP JUMP JUMPDEST PUSH1 0x0 PUSH2 0x3C64 PUSH1 0xC DUP4 PUSH2 0x31AB JUMP JUMPDEST SWAP2 POP PUSH2 0x3C6F DUP3 PUSH2 0x3C2E JUMP JUMPDEST PUSH1 0x20 DUP3 ADD SWAP1 POP SWAP2 SWAP1 POP JUMP JUMPDEST PUSH1 0x0 PUSH1 0x20 DUP3 ADD SWAP1 POP DUP2 DUP2 SUB PUSH1 0x0 DUP4 ADD MSTORE PUSH2 0x3C93 DUP2 PUSH2 0x3C57 JUMP JUMPDEST SWAP1 POP SWAP2 SWAP1 POP JUMP JUMPDEST PUSH32 0x5468726F775A65726F4164647265737300000000000000000000000000000000 PUSH1 0x0 DUP3 ADD MSTORE POP JUMP JUMPDEST PUSH1 0x0 PUSH2 0x3CD0 PUSH1 0x10 DUP4 PUSH2 0x31AB JUMP JUMPDEST SWAP2 POP PUSH2 0x3CDB DUP3 PUSH2 0x3C9A JUMP JUMPDEST PUSH1 0x20 DUP3 ADD SWAP1 POP SWAP2 SWAP1 POP JUMP JUMPDEST PUSH1 0x0 PUSH1 0x20 DUP3 ADD SWAP1 POP DUP2 DUP2 SUB PUSH1 0x0 DUP4 ADD MSTORE PUSH2 0x3CFF DUP2 PUSH2 0x3CC3 JUMP JUMPDEST SWAP1 POP SWAP2 SWAP1 POP JUMP JUMPDEST PUSH32 0x496E76616C6964496E737469747574696F6E436F646500000000000000000000 PUSH1 0x0 DUP3 ADD MSTORE POP JUMP JUMPDEST PUSH1 0x0 PUSH2 0x3D3C PUSH1 0x16 DUP4 PUSH2 0x31AB JUMP JUMPDEST SWAP2 POP PUSH2 0x3D47 DUP3 PUSH2 0x3D06 JUMP JUMPDEST PUSH1 0x20 DUP3 ADD SWAP1 POP SWAP2 SWAP1 POP JUMP JUMPDEST PUSH1 0x0 PUSH1 0x20 DUP3 ADD SWAP1 POP DUP2 DUP2 SUB PUSH1 0x0 DUP4 ADD MSTORE PUSH2 0x3D6B DUP2 PUSH2 0x3D2F JUMP JUMPDEST SWAP1 POP SWAP2 SWAP1 POP JUMP JUMPDEST PUSH32 0x496E76616C696453656E646572466565526563697069656E7400000000000000 PUSH1 0x0 DUP3 ADD MSTORE POP JUMP JUMPDEST PUSH1 0x0 PUSH2 0x3DA8 PUSH1 0x19 DUP4 PUSH2 0x31AB JUMP JUMPDEST SWAP2 POP PUSH2 0x3DB3 DUP3 PUSH2 0x3D72 JUMP JUMPDEST PUSH1 0x20 DUP3 ADD SWAP1 POP SWAP2 SWAP1 POP JUMP JUMPDEST PUSH1 0x0 PUSH1 0x20 DUP3 ADD SWAP1 POP DUP2 DUP2 SUB PUSH1 0x0 DUP4 ADD MSTORE PUSH2 0x3DD7 DUP2 PUSH2 0x3D9B JUMP JUMPDEST SWAP1 POP SWAP2 SWAP1 POP JUMP JUMPDEST PUSH1 0x0 PUSH2 0x3DE9 DUP3 PUSH2 0x27E2 JUMP JUMPDEST SWAP2 POP PUSH2 0x3DF4 DUP4 PUSH2 0x27E2 JUMP JUMPDEST SWAP3 POP DUP3 DUP3 MUL PUSH2 0x3E02 DUP2 PUSH2 0x27E2 JUMP JUMPDEST SWAP2 POP DUP3 DUP3 DIV DUP5 EQ DUP4 ISZERO OR PUSH2 0x3E19 JUMPI PUSH2 0x3E18 PUSH2 0x32A1 JUMP JUMPDEST JUMPDEST POP SWAP3 SWAP2 POP POP JUMP JUMPDEST PUSH32 0x4E487B7100000000000000000000000000000000000000000000000000000000 PUSH1 0x0 MSTORE PUSH1 0x12 PUSH1 0x4 MSTORE PUSH1 0x24 PUSH1 0x0 REVERT JUMPDEST PUSH1 0x0 PUSH2 0x3E5A DUP3 PUSH2 0x27E2 JUMP JUMPDEST SWAP2 POP PUSH2 0x3E65 DUP4 PUSH2 0x27E2 JUMP JUMPDEST SWAP3 POP DUP3 PUSH2 0x3E75 JUMPI PUSH2 0x3E74 PUSH2 0x3E20 JUMP JUMPDEST JUMPDEST DUP3 DUP3 DIV SWAP1 POP SWAP3 SWAP2 POP POP JUMP JUMPDEST PUSH32 0x53656E646572466565546F6F4869676800000000000000000000000000000000 PUSH1 0x0 DUP3 ADD MSTORE POP JUMP JUMPDEST PUSH1 0x0 PUSH2 0x3EB6 PUSH1 0x10 DUP4 PUSH2 0x31AB JUMP JUMPDEST SWAP2 POP PUSH2 0x3EC1 DUP3 PUSH2 0x3E80 JUMP JUMPDEST PUSH1 0x20 DUP3 ADD SWAP1 POP SWAP2 SWAP1 POP JUMP JUMPDEST PUSH1 0x0 PUSH1 0x20 DUP3 ADD SWAP1 POP DUP2 DUP2 SUB PUSH1 0x0 DUP4 ADD MSTORE PUSH2 0x3EE5 DUP2 PUSH2 0x3EA9 JUMP JUMPDEST SWAP1 POP SWAP2 SWAP1 POP JUMP JUMPDEST PUSH32 0x4F776E61626C653A2063616C6C6572206973206E6F7420746865206F776E6572 PUSH1 0x0 DUP3 ADD MSTORE POP JUMP JUMPDEST PUSH1 0x0 PUSH2 0x3F22 PUSH1 0x20 DUP4 PUSH2 0x31AB JUMP JUMPDEST SWAP2 POP PUSH2 0x3F2D DUP3 PUSH2 0x3EEC JUMP JUMPDEST PUSH1 0x20 DUP3 ADD SWAP1 POP SWAP2 SWAP1 POP JUMP JUMPDEST PUSH1 0x0 PUSH1 0x20 DUP3 ADD SWAP1 POP DUP2 DUP2 SUB PUSH1 0x0 DUP4 ADD MSTORE PUSH2 0x3F51 DUP2 PUSH2 0x3F15 JUMP JUMPDEST SWAP1 POP SWAP2 SWAP1 POP JUMP JUMPDEST PUSH1 0x0 PUSH2 0x3F63 DUP3 PUSH2 0x27E2 JUMP JUMPDEST SWAP2 POP PUSH2 0x3F6E DUP4 PUSH2 0x27E2 JUMP JUMPDEST SWAP3 POP DUP3 DUP3 ADD SWAP1 POP DUP1 DUP3 GT ISZERO PUSH2 0x3F86 JUMPI PUSH2 0x3F85 PUSH2 0x32A1 JUMP JUMPDEST JUMPDEST SWAP3 SWAP2 POP POP JUMP JUMPDEST PUSH32 0x496E697469616C697A61626C653A20636F6E7472616374206973206E6F742069 PUSH1 0x0 DUP3 ADD MSTORE PUSH32 0x6E697469616C697A696E67000000000000000000000000000000000000000000 PUSH1 0x20 DUP3 ADD MSTORE POP JUMP JUMPDEST PUSH1 0x0 PUSH2 0x3FE8 PUSH1 0x2B DUP4 PUSH2 0x31AB JUMP JUMPDEST SWAP2 POP PUSH2 0x3FF3 DUP3 PUSH2 0x3F8C JUMP JUMPDEST PUSH1 0x40 DUP3 ADD SWAP1 POP SWAP2 SWAP1 POP JUMP JUMPDEST PUSH1 0x0 PUSH1 0x20 DUP3 ADD SWAP1 POP DUP2 DUP2 SUB PUSH1 0x0 DUP4 ADD MSTORE PUSH2 0x4017 DUP2 PUSH2 0x3FDB JUMP JUMPDEST SWAP1 POP SWAP2 SWAP1 POP JUMP JUMPDEST PUSH32 0x5061757361626C653A206E6F7420706175736564000000000000000000000000 PUSH1 0x0 DUP3 ADD MSTORE POP JUMP JUMPDEST PUSH1 0x0 PUSH2 0x4054 PUSH1 0x14 DUP4 PUSH2 0x31AB JUMP JUMPDEST SWAP2 POP PUSH2 0x405F DUP3 PUSH2 0x401E JUMP JUMPDEST PUSH1 0x20 DUP3 ADD SWAP1 POP SWAP2 SWAP1 POP JUMP JUMPDEST PUSH1 0x0 PUSH1 0x20 DUP3 ADD SWAP1 POP DUP2 DUP2 SUB PUSH1 0x0 DUP4 ADD MSTORE PUSH2 0x4083 DUP2 PUSH2 0x4047 JUMP JUMPDEST SWAP1 POP SWAP2 SWAP1 POP JUMP INVALID LOG2 PUSH5 0x6970667358 0x22 SLT KECCAK256 0xB0 0xB6 CHAINID 0xAA 0x2C 0xD3 0xC7 0x2C 0x24 ADDMOD SWAP3 0x4E 0x5E SWAP7 0xC6 SWAP4 SMOD 0xED RETURNDATASIZE EXTCODEHASH 0xCA SWAP6 0xCD CALLDATALOAD DUP16 CODESIZE CREATE2 BYTE JUMP CHAINID 0x49 PUSH23 0x64736F6C63430008120033000000000000000000000000 "},"gasEstimates":{"creation":{"codeDepositCost":"3315200","executionCost":"infinite","totalCost":"infinite"},"external":{"createOrder(address,uint256,bytes32,bytes32,uint96,address,uint256,address,string)":"infinite","getAggregator()":"infinite","getFeeDetails()":"4737","getOrderInfo(bytes32)":"infinite","getSupportedInstitutionByCode(bytes32)":"infinite","getSupportedInstitutions(bytes32)":"infinite","initialize()":"167007","isTokenSupported(address)":"2972","owner()":"2633","pause()":"infinite","paused()":"2502","refund(uint256,bytes32,bytes32)":"infinite","renounceOwnership()":"30465","setSupportedInstitutions(bytes32,(bytes32,bytes32)[])":"infinite","settingManagerBool(bytes32,address,bool)":"infinite","settle(bytes32,bytes32,bytes32,address,uint64,bool)":"infinite","transferOwnership(address)":"30876","unpause()":"infinite","updateProtocolAddresses(bytes32,address)":"infinite","updateProtocolAggregator(bytes)":"infinite","updateProtocolFees(uint64)":"infinite"},"internal":{"_calculateFees(bytes32,uint96,bool)":"infinite","_handler(address,uint256,address,address,uint256,bytes32)":"infinite","_transferSenderFee(bytes32)":"infinite"}},"methodIdentifiers":{"createOrder(address,uint256,bytes32,bytes32,uint96,address,uint256,address,string)":"2654ec7e","getAggregator()":"3ad59dbc","getFeeDetails()":"b810c636","getOrderInfo(bytes32)":"768c6ec0","getSupportedInstitutionByCode(bytes32)":"c2280103","getSupportedInstitutions(bytes32)":"02621338","initialize()":"8129fc1c","isTokenSupported(address)":"75151b63","owner()":"8da5cb5b","pause()":"8456cb59","paused()":"5c975abb","refund(uint256,bytes32,bytes32)":"d28a8d32","renounceOwnership()":"715018a6","setSupportedInstitutions(bytes32,(bytes32,bytes32)[])":"32200882","settingManagerBool(bytes32,address,bool)":"99e3c0b4","settle(bytes32,bytes32,bytes32,address,uint64,bool)":"5fe44cac","transferOwnership(address)":"f2fde38b","unpause()":"3f4ba83a","updateProtocolAddresses(bytes32,address)":"79a0effb","updateProtocolAggregator(bytes)":"cb79455b","updateProtocolFees(uint64)":"84630736"}},"storageLayout":{"storage":[{"astId":139,"contract":"contracts/Paycrest.sol:Paycrest","label":"_initialized","offset":0,"slot":"0","type":"t_uint8"},{"astId":142,"contract":"contracts/Paycrest.sol:Paycrest","label":"_initializing","offset":1,"slot":"0","type":"t_bool"},{"astId":1299,"contract":"contracts/Paycrest.sol:Paycrest","label":"__gap","offset":0,"slot":"1","type":"t_array(t_uint256)50_storage"},{"astId":11,"contract":"contracts/Paycrest.sol:Paycrest","label":"_owner","offset":0,"slot":"51","type":"t_address"},{"astId":131,"contract":"contracts/Paycrest.sol:Paycrest","label":"__gap","offset":0,"slot":"52","type":"t_array(t_uint256)49_storage"},{"astId":4329,"contract":"contracts/Paycrest.sol:Paycrest","label":"MAX_BPS","offset":0,"slot":"101","type":"t_uint256"},{"astId":4331,"contract":"contracts/Paycrest.sol:Paycrest","label":"protocolFeePercent","offset":0,"slot":"102","type":"t_uint64"},{"astId":4333,"contract":"contracts/Paycrest.sol:Paycrest","label":"treasuryAddress","offset":8,"slot":"102","type":"t_address"},{"astId":4335,"contract":"contracts/Paycrest.sol:Paycrest","label":"_aggregatorAddress","offset":0,"slot":"103","type":"t_address"},{"astId":4337,"contract":"contracts/Paycrest.sol:Paycrest","label":"_aggregator","offset":0,"slot":"104","type":"t_bytes_storage"},{"astId":4341,"contract":"contracts/Paycrest.sol:Paycrest","label":"__gap","offset":0,"slot":"105","type":"t_array(t_uint256)50_storage"},{"astId":4345,"contract":"contracts/Paycrest.sol:Paycrest","label":"_isTokenSupported","offset":0,"slot":"155","type":"t_mapping(t_address,t_bool)"},{"astId":4351,"contract":"contracts/Paycrest.sol:Paycrest","label":"supportedInstitutions","offset":0,"slot":"156","type":"t_mapping(t_bytes32,t_array(t_struct(Institution)4748_storage)dyn_storage)"},{"astId":4356,"contract":"contracts/Paycrest.sol:Paycrest","label":"supportedInstitutionsByCode","offset":0,"slot":"157","type":"t_mapping(t_bytes32,t_struct(InstitutionByCode)4753_storage)"},{"astId":323,"contract":"contracts/Paycrest.sol:Paycrest","label":"_paused","offset":0,"slot":"158","type":"t_bool"},{"astId":428,"contract":"contracts/Paycrest.sol:Paycrest","label":"__gap","offset":0,"slot":"159","type":"t_array(t_uint256)49_storage"},{"astId":3622,"contract":"contracts/Paycrest.sol:Paycrest","label":"order","offset":0,"slot":"208","type":"t_mapping(t_bytes32,t_struct(Order)4634_storage)"},{"astId":3626,"contract":"contracts/Paycrest.sol:Paycrest","label":"_nonce","offset":0,"slot":"209","type":"t_mapping(t_address,t_uint256)"},{"astId":3630,"contract":"contracts/Paycrest.sol:Paycrest","label":"__gap","offset":0,"slot":"210","type":"t_array(t_uint256)50_storage"}],"types":{"t_address":{"encoding":"inplace","label":"address","numberOfBytes":"20"},"t_array(t_struct(Institution)4748_storage)dyn_storage":{"base":"t_struct(Institution)4748_storage","encoding":"dynamic_array","label":"struct SharedStructs.Institution[]","numberOfBytes":"32"},"t_array(t_uint256)49_storage":{"base":"t_uint256","encoding":"inplace","label":"uint256[49]","numberOfBytes":"1568"},"t_array(t_uint256)50_storage":{"base":"t_uint256","encoding":"inplace","label":"uint256[50]","numberOfBytes":"1600"},"t_bool":{"encoding":"inplace","label":"bool","numberOfBytes":"1"},"t_bytes32":{"encoding":"inplace","label":"bytes32","numberOfBytes":"32"},"t_bytes_storage":{"encoding":"bytes","label":"bytes","numberOfBytes":"32"},"t_mapping(t_address,t_bool)":{"encoding":"mapping","key":"t_address","label":"mapping(address => bool)","numberOfBytes":"32","value":"t_bool"},"t_mapping(t_address,t_uint256)":{"encoding":"mapping","key":"t_address","label":"mapping(address => uint256)","numberOfBytes":"32","value":"t_uint256"},"t_mapping(t_bytes32,t_array(t_struct(Institution)4748_storage)dyn_storage)":{"encoding":"mapping","key":"t_bytes32","label":"mapping(bytes32 => struct SharedStructs.Institution[])","numberOfBytes":"32","value":"t_array(t_struct(Institution)4748_storage)dyn_storage"},"t_mapping(t_bytes32,t_struct(InstitutionByCode)4753_storage)":{"encoding":"mapping","key":"t_bytes32","label":"mapping(bytes32 => struct SharedStructs.InstitutionByCode)","numberOfBytes":"32","value":"t_struct(InstitutionByCode)4753_storage"},"t_mapping(t_bytes32,t_struct(Order)4634_storage)":{"encoding":"mapping","key":"t_bytes32","label":"mapping(bytes32 => struct IPaycrest.Order)","numberOfBytes":"32","value":"t_struct(Order)4634_storage"},"t_struct(Institution)4748_storage":{"encoding":"inplace","label":"struct SharedStructs.Institution","members":[{"astId":4745,"contract":"contracts/Paycrest.sol:Paycrest","label":"code","offset":0,"slot":"0","type":"t_bytes32"},{"astId":4747,"contract":"contracts/Paycrest.sol:Paycrest","label":"name","offset":0,"slot":"1","type":"t_bytes32"}],"numberOfBytes":"64"},"t_struct(InstitutionByCode)4753_storage":{"encoding":"inplace","label":"struct SharedStructs.InstitutionByCode","members":[{"astId":4750,"contract":"contracts/Paycrest.sol:Paycrest","label":"name","offset":0,"slot":"0","type":"t_bytes32"},{"astId":4752,"contract":"contracts/Paycrest.sol:Paycrest","label":"currency","offset":0,"slot":"1","type":"t_bytes32"}],"numberOfBytes":"64"},"t_struct(Order)4634_storage":{"encoding":"inplace","label":"struct IPaycrest.Order","members":[{"astId":4617,"contract":"contracts/Paycrest.sol:Paycrest","label":"seller","offset":0,"slot":"0","type":"t_address"},{"astId":4619,"contract":"contracts/Paycrest.sol:Paycrest","label":"token","offset":0,"slot":"1","type":"t_address"},{"astId":4621,"contract":"contracts/Paycrest.sol:Paycrest","label":"senderFeeRecipient","offset":0,"slot":"2","type":"t_address"},{"astId":4623,"contract":"contracts/Paycrest.sol:Paycrest","label":"senderFee","offset":0,"slot":"3","type":"t_uint256"},{"astId":4625,"contract":"contracts/Paycrest.sol:Paycrest","label":"rate","offset":0,"slot":"4","type":"t_uint96"},{"astId":4627,"contract":"contracts/Paycrest.sol:Paycrest","label":"isFulfilled","offset":12,"slot":"4","type":"t_bool"},{"astId":4629,"contract":"contracts/Paycrest.sol:Paycrest","label":"refundAddress","offset":0,"slot":"5","type":"t_address"},{"astId":4631,"contract":"contracts/Paycrest.sol:Paycrest","label":"currentBPS","offset":20,"slot":"5","type":"t_uint96"},{"astId":4633,"contract":"contracts/Paycrest.sol:Paycrest","label":"amount","offset":0,"slot":"6","type":"t_uint256"}],"numberOfBytes":"224"},"t_uint256":{"encoding":"inplace","label":"uint256","numberOfBytes":"32"},"t_uint64":{"encoding":"inplace","label":"uint64","numberOfBytes":"8"},"t_uint8":{"encoding":"inplace","label":"uint8","numberOfBytes":"1"},"t_uint96":{"encoding":"inplace","label":"uint96","numberOfBytes":"12"}}},"userdoc":{"kind":"user","methods":{},"version":1}}}}