{"contracts/Paycrest.sol":{"Paycrest":{"abi":[{"inputs":[{"internalType":"address","name":"_usdc","type":"address"}],"stateMutability":"nonpayable","type":"constructor"},{"inputs":[],"name":"AmountIsZero","type":"error"},{"inputs":[],"name":"InvalidInstitutionCode","type":"error"},{"inputs":[{"internalType":"bytes32","name":"what","type":"bytes32"}],"name":"InvalidParameter","type":"error"},{"inputs":[],"name":"InvalidSigner","type":"error"},{"inputs":[],"name":"OnlyAggregator","type":"error"},{"inputs":[],"name":"OrderFulfilled","type":"error"},{"inputs":[],"name":"ThrowZeroAddress","type":"error"},{"inputs":[],"name":"ThrowZeroValue","type":"error"},{"inputs":[],"name":"TokenNotSupported","type":"error"},{"inputs":[],"name":"UnableToProcessRewards","type":"error"},{"inputs":[],"name":"Unsuported","type":"error"},{"anonymous":false,"inputs":[{"indexed":true,"internalType":"bytes32","name":"orderId","type":"bytes32"},{"indexed":true,"internalType":"uint256","name":"amount","type":"uint256"},{"indexed":true,"internalType":"uint256","name":"rate","type":"uint256"},{"indexed":false,"internalType":"bytes32","name":"hash","type":"bytes32"},{"indexed":false,"internalType":"bytes","name":"signature","type":"bytes"}],"name":"Deposit","type":"event"},{"anonymous":false,"inputs":[{"indexed":true,"internalType":"address","name":"previousOwner","type":"address"},{"indexed":true,"internalType":"address","name":"newOwner","type":"address"}],"name":"OwnershipTransferred","type":"event"},{"anonymous":false,"inputs":[{"indexed":false,"internalType":"uint64","name":"protocolFee","type":"uint64"},{"indexed":false,"internalType":"uint64","name":"primaryValidator","type":"uint64"},{"indexed":false,"internalType":"uint64","name":"secondaryValidator","type":"uint64"}],"name":"PaycrestFees","type":"event"},{"anonymous":false,"inputs":[{"indexed":true,"internalType":"bytes32","name":"orderId","type":"bytes32"}],"name":"Refunded","type":"event"},{"anonymous":false,"inputs":[{"indexed":false,"internalType":"bytes32","name":"what","type":"bytes32"},{"indexed":false,"internalType":"address","name":"value","type":"address"},{"indexed":false,"internalType":"bool","name":"status","type":"bool"}],"name":"SettingManagerBool","type":"event"},{"anonymous":false,"inputs":[{"indexed":false,"internalType":"bytes32","name":"what","type":"bytes32"},{"indexed":false,"internalType":"bytes8","name":"value","type":"bytes8"},{"indexed":false,"internalType":"bytes8","name":"status","type":"bytes8"}],"name":"SettingManagerForInstitution","type":"event"},{"anonymous":false,"inputs":[{"indexed":true,"internalType":"bytes32","name":"orderId","type":"bytes32"},{"indexed":true,"internalType":"address","name":"liquidityProvider","type":"address"},{"indexed":false,"internalType":"uint96","name":"settlePercent","type":"uint96"}],"name":"Settled","type":"event"},{"inputs":[],"name":"TimeLock","outputs":[{"internalType":"uint256","name":"","type":"uint256"}],"stateMutability":"view","type":"function"},{"inputs":[{"internalType":"address","name":"_token","type":"address"},{"internalType":"uint256","name":"_amount","type":"uint256"},{"internalType":"address","name":"_refundAddress","type":"address"},{"internalType":"uint96","name":"_rate","type":"uint96"},{"internalType":"bytes32","name":"_code","type":"bytes32"},{"internalType":"bytes32","name":"messageHash","type":"bytes32"},{"internalType":"bytes","name":"signature","type":"bytes"}],"name":"createOrder","outputs":[{"internalType":"bytes32","name":"orderId","type":"bytes32"}],"stateMutability":"nonpayable","type":"function"},{"inputs":[],"name":"getFeeDetails","outputs":[{"internalType":"uint64","name":"","type":"uint64"},{"internalType":"uint64","name":"","type":"uint64"},{"internalType":"uint64","name":"","type":"uint64"},{"internalType":"uint256","name":"","type":"uint256"}],"stateMutability":"view","type":"function"},{"inputs":[],"name":"getLiquidityAggregator","outputs":[{"internalType":"address","name":"","type":"address"}],"stateMutability":"view","type":"function"},{"inputs":[{"internalType":"bytes32","name":"currency","type":"bytes32"}],"name":"getSupportedInstitutions","outputs":[{"components":[{"internalType":"bytes32","name":"code","type":"bytes32"},{"internalType":"bytes32","name":"name","type":"bytes32"}],"internalType":"struct PaycrestSettingManager.Institution[]","name":"","type":"tuple[]"}],"stateMutability":"view","type":"function"},{"inputs":[{"internalType":"bytes32","name":"code","type":"bytes32"}],"name":"getSupportedName","outputs":[{"internalType":"bytes32","name":"","type":"bytes32"}],"stateMutability":"view","type":"function"},{"inputs":[{"internalType":"address","name":"_token","type":"address"}],"name":"isTokenSupported","outputs":[{"internalType":"bool","name":"","type":"bool"}],"stateMutability":"view","type":"function"},{"inputs":[],"name":"owner","outputs":[{"internalType":"address","name":"","type":"address"}],"stateMutability":"view","type":"function"},{"inputs":[{"internalType":"bytes32","name":"_orderId","type":"bytes32"}],"name":"refund","outputs":[{"internalType":"bool","name":"","type":"bool"}],"stateMutability":"nonpayable","type":"function"},{"inputs":[],"name":"renounceOwnership","outputs":[],"stateMutability":"nonpayable","type":"function"},{"inputs":[{"internalType":"bytes32","name":"currency","type":"bytes32"},{"components":[{"internalType":"bytes32","name":"code","type":"bytes32"},{"internalType":"bytes32","name":"name","type":"bytes32"}],"internalType":"struct PaycrestSettingManager.Institution[]","name":"institutions","type":"tuple[]"}],"name":"setSupportedInstitutions","outputs":[],"stateMutability":"nonpayable","type":"function"},{"inputs":[{"internalType":"bytes32","name":"what","type":"bytes32"},{"internalType":"address","name":"value","type":"address"},{"internalType":"bool","name":"status","type":"bool"}],"name":"settingManagerBool","outputs":[],"stateMutability":"nonpayable","type":"function"},{"inputs":[{"internalType":"bytes32","name":"_orderId","type":"bytes32"},{"internalType":"address","name":"_primaryValidator","type":"address"},{"internalType":"address[]","name":"_secondaryValidators","type":"address[]"},{"internalType":"address","name":"_liquidityProvider","type":"address"},{"internalType":"uint96","name":"_settlePercent","type":"uint96"}],"name":"settle","outputs":[{"internalType":"bool","name":"","type":"bool"}],"stateMutability":"nonpayable","type":"function"},{"inputs":[{"internalType":"address","name":"newOwner","type":"address"}],"name":"transferOwnership","outputs":[],"stateMutability":"nonpayable","type":"function"},{"inputs":[{"internalType":"bytes32","name":"what","type":"bytes32"},{"internalType":"address","name":"value","type":"address"}],"name":"updateFeeRecipient","outputs":[],"stateMutability":"nonpayable","type":"function"},{"inputs":[{"internalType":"uint64","name":"_protocolFee","type":"uint64"},{"internalType":"uint64","name":"_primaryValidator","type":"uint64"},{"internalType":"uint64","name":"_secondaryValidator","type":"uint64"}],"name":"updateProtocolFees","outputs":[],"stateMutability":"nonpayable","type":"function"}],"evm":{"bytecode":{"linkReferences":{},"object":"6080604052611388600060146101000a81548167ffffffffffffffff021916908367ffffffffffffffff1602179055506101f4600160006101000a81548167ffffffffffffffff021916908367ffffffffffffffff1602179055506101f4600160086101000a81548167ffffffffffffffff021916908367ffffffffffffffff1602179055503480156200009257600080fd5b5060405162003269380380620032698339818101604052810190620000b891906200026d565b620000d8620000cc6200013760201b60201c565b6200013f60201b60201c565b6001600560008373ffffffffffffffffffffffffffffffffffffffff1673ffffffffffffffffffffffffffffffffffffffff16815260200190815260200160002060006101000a81548160ff021916908315150217905550506200029f565b600033905090565b60008060009054906101000a900473ffffffffffffffffffffffffffffffffffffffff169050816000806101000a81548173ffffffffffffffffffffffffffffffffffffffff021916908373ffffffffffffffffffffffffffffffffffffffff1602179055508173ffffffffffffffffffffffffffffffffffffffff168173ffffffffffffffffffffffffffffffffffffffff167f8be0079c531659141344cd1fd0a4f28419497f9722a3daafe3b4186f6b6457e060405160405180910390a35050565b600080fd5b600073ffffffffffffffffffffffffffffffffffffffff82169050919050565b6000620002358262000208565b9050919050565b620002478162000228565b81146200025357600080fd5b50565b60008151905062000267816200023c565b92915050565b60006020828403121562000286576200028562000203565b5b6000620002968482850162000256565b91505092915050565b612fba80620002af6000396000f3fe608060405234801561001057600080fd5b50600436106101005760003560e01c8063764bc35511610097578063bb76d8a511610066578063bb76d8a51461029c578063e5b32cdf146102ba578063ef1e345b146102ea578063f2fde38b1461031a57610100565b8063764bc355146102255780638da5cb5b1461024157806399e3c0b41461025f578063b810c6361461027b57610100565b80633d8f8fb2116100d35780633d8f8fb21461019f578063715018a6146101bb5780637249fbb6146101c557806375151b63146101f557610100565b8063026213381461010557806323e9f3f8146101355780632ebc5356146101655780633220088214610183575b600080fd5b61011f600480360381019061011a9190611dca565b610336565b60405161012c9190611ee4565b60405180910390f35b61014f600480360381019061014a9190612124565b610474565b60405161015c91906121f1565b60405180910390f35b61016d610840565b60405161017a919061221b565b60405180910390f35b61019d60048036038101906101989190612353565b61086a565b005b6101b960048036038101906101b491906123af565b61096c565b005b6101c3610b1e565b005b6101df60048036038101906101da9190611dca565b610b32565b6040516101ec919061240a565b60405180910390f35b61020f600480360381019061020a9190612425565b610dc2565b60405161021c919061240a565b60405180910390f35b61023f600480360381019061023a9190612492565b610e18565b005b610249610edb565b604051610256919061221b565b60405180910390f35b61027960048036038101906102749190612511565b610f04565b005b610283611072565b6040516102939493929190612582565b60405180910390f35b6102a46110a8565b6040516102b191906125c7565b60405180910390f35b6102d460048036038101906102cf919061263d565b6110ae565b6040516102e1919061240a565b60405180910390f35b61030460048036038101906102ff9190611dca565b61152c565b60405161031191906121f1565b60405180910390f35b610334600480360381019061032f9190612425565b611549565b005b6060600060066000848152602001908152602001600020805480602002602001604051908101604052809291908181526020016000905b828210156103b35783829060005260206000209060020201604051806040016040529081600082015481526020016001820154815250508152602001906001019061036d565b50505050905060008151905060008167ffffffffffffffff8111156103db576103da611ff9565b5b60405190808252806020026020018201604052801561041457816020015b610401611d60565b8152602001906001900390816103f95790505b50905060005b8281101561046857838181518110610435576104346126d7565b5b60200260200101518282815181106104505761044f6126d7565b5b6020026020010181905250808060010191505061041a565b50809350505050919050565b60008061048184846115cc565b90506104908989898489611646565b8873ffffffffffffffffffffffffffffffffffffffff166323b872dd33308b6040518463ffffffff1660e01b81526004016104cd93929190612706565b6020604051808303816000875af11580156104ec573d6000803e3d6000fd5b505050506040513d601f19601f820116820180604052508101906105109190612752565b50600960003373ffffffffffffffffffffffffffffffffffffffff1673ffffffffffffffffffffffffffffffffffffffff1681526020019081526020016000206000815480929190610561906127ae565b919050555033600960003373ffffffffffffffffffffffffffffffffffffffff1673ffffffffffffffffffffffffffffffffffffffff168152602001908152602001600020546040516020016105b89291906127f6565b6040516020818303038152906040528051906020012091506040518060e001604052803373ffffffffffffffffffffffffffffffffffffffff1681526020018a73ffffffffffffffffffffffffffffffffffffffff168152602001876bffffffffffffffffffffffff1681526020016000151581526020018873ffffffffffffffffffffffffffffffffffffffff168152602001620186a06bffffffffffffffffffffffff168152602001898152506008600084815260200190815260200160002060008201518160000160006101000a81548173ffffffffffffffffffffffffffffffffffffffff021916908373ffffffffffffffffffffffffffffffffffffffff16021790555060208201518160010160006101000a81548173ffffffffffffffffffffffffffffffffffffffff021916908373ffffffffffffffffffffffffffffffffffffffff16021790555060408201518160010160146101000a8154816bffffffffffffffffffffffff02191690836bffffffffffffffffffffffff16021790555060608201518160020160006101000a81548160ff02191690831515021790555060808201518160020160016101000a81548173ffffffffffffffffffffffffffffffffffffffff021916908373ffffffffffffffffffffffffffffffffffffffff16021790555060a08201518160030160006101000a8154816bffffffffffffffffffffffff02191690836bffffffffffffffffffffffff16021790555060c08201518160040155905050856bffffffffffffffffffffffff1688837fdd314958c6109201b2b89cd342f23878b9789a2b24d4c03aa960c0ac18a9c1b8878760405161082c92919061289e565b60405180910390a450979650505050505050565b6000600460009054906101000a900473ffffffffffffffffffffffffffffffffffffffff16905090565b6108726117f6565b60006006600084815260200190815260200160002080549050905060005b8181101561096657600660008581526020019081526020016000208382815181106108be576108bd6126d7565b5b6020026020010151908060018154018082558091505060019003906000526020600020906002020160009091909190915060008201518160000155602082015181600101555050828181518110610918576109176126d7565b5b6020026020010151602001516007600085848151811061093b5761093a6126d7565b5b6020026020010151600001518152602001908152602001600020819055508080600101915050610890565b50505050565b6109746117f6565b600073ffffffffffffffffffffffffffffffffffffffff168173ffffffffffffffffffffffffffffffffffffffff16036109da576040517f9c8e2b5d00000000000000000000000000000000000000000000000000000000815260040160405180910390fd5b7f66656500000000000000000000000000000000000000000000000000000000008203610a435780600260006101000a81548173ffffffffffffffffffffffffffffffffffffffff021916908373ffffffffffffffffffffffffffffffffffffffff1602179055505b7f61676772656761746f72000000000000000000000000000000000000000000008203610ab05780600460006101000a81548173ffffffffffffffffffffffffffffffffffffffff021916908373ffffffffffffffffffffffffffffffffffffffff160217905550610b1a565b7f7374616b650000000000000000000000000000000000000000000000000000008203610b195780600360006101000a81548173ffffffffffffffffffffffffffffffffffffffff021916908373ffffffffffffffffffffffffffffffffffffffff1602179055505b5b5050565b610b266117f6565b610b306000611874565b565b6000600460009054906101000a900473ffffffffffffffffffffffffffffffffffffffff1673ffffffffffffffffffffffffffffffffffffffff163373ffffffffffffffffffffffffffffffffffffffff1614610bbb576040517fe9d8299200000000000000000000000000000000000000000000000000000000815260040160405180910390fd5b6008600083815260200190815260200160002060020160009054906101000a900460ff1615610c16576040517f56f1733f00000000000000000000000000000000000000000000000000000000815260040160405180910390fd5b60016008600084815260200190815260200160002060020160006101000a81548160ff02191690831515021790555060006008600084815260200190815260200160002060030160006101000a8154816bffffffffffffffffffffffff02191690836bffffffffffffffffffffffff1602179055506008600083815260200190815260200160002060010160009054906101000a900473ffffffffffffffffffffffffffffffffffffffff1673ffffffffffffffffffffffffffffffffffffffff1663a9059cbb6008600085815260200190815260200160002060020160019054906101000a900473ffffffffffffffffffffffffffffffffffffffff1660086000868152602001908152602001600020600401546040518363ffffffff1660e01b8152600401610d489291906127f6565b6020604051808303816000875af1158015610d67573d6000803e3d6000fd5b505050506040513d601f19601f82011682018060405250810190610d8b9190612752565b50817ffe509803c09416b28ff3d8f690c8b0c61462a892c46d5430c8fb20abe472daf060405160405180910390a260019050919050565b6000600560008373ffffffffffffffffffffffffffffffffffffffff1673ffffffffffffffffffffffffffffffffffffffff16815260200190815260200160002060009054906101000a900460ff169050919050565b610e206117f6565b82600060146101000a81548167ffffffffffffffff021916908367ffffffffffffffff16021790555081600160006101000a81548167ffffffffffffffff021916908367ffffffffffffffff16021790555080600160086101000a81548167ffffffffffffffff021916908367ffffffffffffffff1602179055507fced6b79f1325154aec329e6ff932857cb4f91fa8eb4c6791ce5b460f47995758838383604051610ece939291906128ce565b60405180910390a1505050565b60008060009054906101000a900473ffffffffffffffffffffffffffffffffffffffff16905090565b610f0c6117f6565b600073ffffffffffffffffffffffffffffffffffffffff168273ffffffffffffffffffffffffffffffffffffffff1603610f72576040517f9c8e2b5d00000000000000000000000000000000000000000000000000000000815260040160405180910390fd5b7f746f6b656e0000000000000000000000000000000000000000000000000000008303610ff55780600560008473ffffffffffffffffffffffffffffffffffffffff1673ffffffffffffffffffffffffffffffffffffffff16815260200190815260200160002060006101000a81548160ff021916908315150217905550611032565b826040517f48bae5b800000000000000000000000000000000000000000000000000000000815260040161102991906121f1565b60405180910390fd5b7fe22cadcc5ddbc0a185e8920eaa6825bcc06dcd6b432988e7e9912caa59ace93083838360405161106593929190612905565b60405180910390a1505050565b600080600080600060149054906101000a905050600160009054906101000a905050600160089054906101000a90505090919293565b61a8c081565b6000600460009054906101000a900473ffffffffffffffffffffffffffffffffffffffff1673ffffffffffffffffffffffffffffffffffffffff163373ffffffffffffffffffffffffffffffffffffffff1614611137576040517fe9d8299200000000000000000000000000000000000000000000000000000000815260040160405180910390fd5b6008600088815260200190815260200160002060020160009054906101000a900460ff1615611192576040517f56f1733f00000000000000000000000000000000000000000000000000000000815260040160405180910390fd5b60006008600089815260200190815260200160002060010160009054906101000a900473ffffffffffffffffffffffffffffffffffffffff16905082600860008a815260200190815260200160002060030160008282829054906101000a90046bffffffffffffffffffffffff1661120a919061293c565b92506101000a8154816bffffffffffffffffffffffff02191690836bffffffffffffffffffffffff1602179055506000600860008a815260200190815260200160002060030160009054906101000a90046bffffffffffffffffffffffff166bffffffffffffffffffffffff16036112ac576001600860008a815260200190815260200160002060020160006101000a81548160ff0219169083151502179055505b6000806000806112bc8c88611938565b93509350935093508473ffffffffffffffffffffffffffffffffffffffff1663a9059cbb600260009054906101000a900473ffffffffffffffffffffffffffffffffffffffff16866040518363ffffffff1660e01b81526004016113219291906127f6565b6020604051808303816000875af1158015611340573d6000803e3d6000fd5b505050506040513d601f19601f820116820180604052508101906113649190612752565b508473ffffffffffffffffffffffffffffffffffffffff1663a9059cbb89856040518363ffffffff1660e01b81526004016113a09291906127f6565b6020604051808303816000875af11580156113bf573d6000803e3d6000fd5b505050506040513d601f19601f820116820180604052508101906113e39190612752565b506000600360009054906101000a900473ffffffffffffffffffffffffffffffffffffffff1673ffffffffffffffffffffffffffffffffffffffff16634a223c368e888f8f8f89896040518863ffffffff1660e01b815260040161144d9796959493929190612a3f565b6020604051808303816000875af115801561146c573d6000803e3d6000fd5b505050506040513d601f19601f820116820180604052508101906114909190612752565b9050806114c9576040517fbcb00c1600000000000000000000000000000000000000000000000000000000815260040160405180910390fd5b8873ffffffffffffffffffffffffffffffffffffffff168d7fce38752ac5ed47dd3cff11297a4261a0c644be6ca65dc3fc7ae1c3a97c209e338a6040516115109190612ab8565b60405180910390a3600196505050505050509695505050505050565b600060076000838152602001908152602001600020549050919050565b6115516117f6565b600073ffffffffffffffffffffffffffffffffffffffff168173ffffffffffffffffffffffffffffffffffffffff16036115c0576040517f08c379a00000000000000000000000000000000000000000000000000000000081526004016115b790612b56565b60405180910390fd5b6115c981611874565b50565b6000806115d884611a68565b9050600460009054906101000a900473ffffffffffffffffffffffffffffffffffffffff1673ffffffffffffffffffffffffffffffffffffffff166116268483611a9890919063ffffffff16565b73ffffffffffffffffffffffffffffffffffffffff161491505092915050565b600560008673ffffffffffffffffffffffffffffffffffffffff1673ffffffffffffffffffffffffffffffffffffffff16815260200190815260200160002060009054906101000a900460ff166116c9576040517f3dd1b30500000000000000000000000000000000000000000000000000000000815260040160405180910390fd5b60008403611703576040517f43ad20fc00000000000000000000000000000000000000000000000000000000815260040160405180910390fd5b600073ffffffffffffffffffffffffffffffffffffffff168373ffffffffffffffffffffffffffffffffffffffff1603611769576040517f9c8e2b5d00000000000000000000000000000000000000000000000000000000815260040160405180910390fd5b816117a0576040517f815e1d6400000000000000000000000000000000000000000000000000000000815260040160405180910390fd5b6000801b6007600083815260200190815260200160002054036117ef576040517f38f5fc3500000000000000000000000000000000000000000000000000000000815260040160405180910390fd5b5050505050565b6117fe611abf565b73ffffffffffffffffffffffffffffffffffffffff1661181c610edb565b73ffffffffffffffffffffffffffffffffffffffff1614611872576040517f08c379a000000000000000000000000000000000000000000000000000000000815260040161186990612bc2565b60405180910390fd5b565b60008060009054906101000a900473ffffffffffffffffffffffffffffffffffffffff169050816000806101000a81548173ffffffffffffffffffffffffffffffffffffffff021916908373ffffffffffffffffffffffffffffffffffffffff1602179055508173ffffffffffffffffffffffffffffffffffffffff168173ffffffffffffffffffffffffffffffffffffffff167f8be0079c531659141344cd1fd0a4f28419497f9722a3daafe3b4186f6b6457e060405160405180910390a35050565b600080600080600060086000888152602001908152602001600020600401549050620186a0866bffffffffffffffffffffffff16826119779190612be2565b6119819190612c53565b9350620186a0600060149054906101000a900467ffffffffffffffff1667ffffffffffffffff16856119b39190612be2565b6119bd9190612be2565b945084846119cb9190612c84565b9350620186a0600160009054906101000a900467ffffffffffffffff1667ffffffffffffffff16866119fd9190612be2565b611a079190612c53565b9250620186a0600160089054906101000a900467ffffffffffffffff1667ffffffffffffffff1686611a399190612be2565b611a439190612c53565b91508183611a519190612cb8565b85611a5c9190612c84565b94505092959194509250565b600081604051602001611a7b9190612d64565b604051602081830303815290604052805190602001209050919050565b6000806000611aa78585611ac7565b91509150611ab481611b18565b819250505092915050565b600033905090565b6000806041835103611b085760008060006020860151925060408601519150606086015160001a9050611afc87828585611c7e565b94509450505050611b11565b60006002915091505b9250929050565b60006004811115611b2c57611b2b612d8a565b5b816004811115611b3f57611b3e612d8a565b5b0315611c7b5760016004811115611b5957611b58612d8a565b5b816004811115611b6c57611b6b612d8a565b5b03611bac576040517f08c379a0000000000000000000000000000000000000000000000000000000008152600401611ba390612e05565b60405180910390fd5b60026004811115611bc057611bbf612d8a565b5b816004811115611bd357611bd2612d8a565b5b03611c13576040517f08c379a0000000000000000000000000000000000000000000000000000000008152600401611c0a90612e71565b60405180910390fd5b60036004811115611c2757611c26612d8a565b5b816004811115611c3a57611c39612d8a565b5b03611c7a576040517f08c379a0000000000000000000000000000000000000000000000000000000008152600401611c7190612f03565b60405180910390fd5b5b50565b6000807f7fffffffffffffffffffffffffffffff5d576e7357a4501ddfe92f46681b20a08360001c1115611cb9576000600391509150611d57565b600060018787878760405160008152602001604052604051611cde9493929190612f3f565b6020604051602081039080840390855afa158015611d00573d6000803e3d6000fd5b505050602060405103519050600073ffffffffffffffffffffffffffffffffffffffff168173ffffffffffffffffffffffffffffffffffffffff1603611d4e57600060019250925050611d57565b80600092509250505b94509492505050565b604051806040016040528060008019168152602001600080191681525090565b6000604051905090565b600080fd5b600080fd5b6000819050919050565b611da781611d94565b8114611db257600080fd5b50565b600081359050611dc481611d9e565b92915050565b600060208284031215611de057611ddf611d8a565b5b6000611dee84828501611db5565b91505092915050565b600081519050919050565b600082825260208201905092915050565b6000819050602082019050919050565b611e2c81611d94565b82525050565b604082016000820151611e486000850182611e23565b506020820151611e5b6020850182611e23565b50505050565b6000611e6d8383611e32565b60408301905092915050565b6000602082019050919050565b6000611e9182611df7565b611e9b8185611e02565b9350611ea683611e13565b8060005b83811015611ed7578151611ebe8882611e61565b9750611ec983611e79565b925050600181019050611eaa565b5085935050505092915050565b60006020820190508181036000830152611efe8184611e86565b905092915050565b600073ffffffffffffffffffffffffffffffffffffffff82169050919050565b6000611f3182611f06565b9050919050565b611f4181611f26565b8114611f4c57600080fd5b50565b600081359050611f5e81611f38565b92915050565b6000819050919050565b611f7781611f64565b8114611f8257600080fd5b50565b600081359050611f9481611f6e565b92915050565b60006bffffffffffffffffffffffff82169050919050565b611fbb81611f9a565b8114611fc657600080fd5b50565b600081359050611fd881611fb2565b92915050565b600080fd5b600080fd5b6000601f19601f8301169050919050565b7f4e487b7100000000000000000000000000000000000000000000000000000000600052604160045260246000fd5b61203182611fe8565b810181811067ffffffffffffffff821117156120505761204f611ff9565b5b80604052505050565b6000612063611d80565b905061206f8282612028565b919050565b600067ffffffffffffffff82111561208f5761208e611ff9565b5b61209882611fe8565b9050602081019050919050565b82818337600083830152505050565b60006120c76120c284612074565b612059565b9050828152602081018484840111156120e3576120e2611fe3565b5b6120ee8482856120a5565b509392505050565b600082601f83011261210b5761210a611fde565b5b813561211b8482602086016120b4565b91505092915050565b600080600080600080600060e0888a03121561214357612142611d8a565b5b60006121518a828b01611f4f565b97505060206121628a828b01611f85565b96505060406121738a828b01611f4f565b95505060606121848a828b01611fc9565b94505060806121958a828b01611db5565b93505060a06121a68a828b01611db5565b92505060c088013567ffffffffffffffff8111156121c7576121c6611d8f565b5b6121d38a828b016120f6565b91505092959891949750929550565b6121eb81611d94565b82525050565b600060208201905061220660008301846121e2565b92915050565b61221581611f26565b82525050565b6000602082019050612230600083018461220c565b92915050565b600067ffffffffffffffff82111561225157612250611ff9565b5b602082029050602081019050919050565b600080fd5b600080fd5b60006040828403121561228257612281612267565b5b61228c6040612059565b9050600061229c84828501611db5565b60008301525060206122b084828501611db5565b60208301525092915050565b60006122cf6122ca84612236565b612059565b905080838252602082019050604084028301858111156122f2576122f1612262565b5b835b8181101561231b5780612307888261226c565b8452602084019350506040810190506122f4565b5050509392505050565b600082601f83011261233a57612339611fde565b5b813561234a8482602086016122bc565b91505092915050565b6000806040838503121561236a57612369611d8a565b5b600061237885828601611db5565b925050602083013567ffffffffffffffff81111561239957612398611d8f565b5b6123a585828601612325565b9150509250929050565b600080604083850312156123c6576123c5611d8a565b5b60006123d485828601611db5565b92505060206123e585828601611f4f565b9150509250929050565b60008115159050919050565b612404816123ef565b82525050565b600060208201905061241f60008301846123fb565b92915050565b60006020828403121561243b5761243a611d8a565b5b600061244984828501611f4f565b91505092915050565b600067ffffffffffffffff82169050919050565b61246f81612452565b811461247a57600080fd5b50565b60008135905061248c81612466565b92915050565b6000806000606084860312156124ab576124aa611d8a565b5b60006124b98682870161247d565b93505060206124ca8682870161247d565b92505060406124db8682870161247d565b9150509250925092565b6124ee816123ef565b81146124f957600080fd5b50565b60008135905061250b816124e5565b92915050565b60008060006060848603121561252a57612529611d8a565b5b600061253886828701611db5565b935050602061254986828701611f4f565b925050604061255a868287016124fc565b9150509250925092565b61256d81612452565b82525050565b61257c81611f64565b82525050565b60006080820190506125976000830187612564565b6125a46020830186612564565b6125b16040830185612564565b6125be6060830184612573565b95945050505050565b60006020820190506125dc6000830184612573565b92915050565b600080fd5b60008083601f8401126125fd576125fc611fde565b5b8235905067ffffffffffffffff81111561261a576126196125e2565b5b60208301915083602082028301111561263657612635612262565b5b9250929050565b60008060008060008060a0878903121561265a57612659611d8a565b5b600061266889828a01611db5565b965050602061267989828a01611f4f565b955050604087013567ffffffffffffffff81111561269a57612699611d8f565b5b6126a689828a016125e7565b945094505060606126b989828a01611f4f565b92505060806126ca89828a01611fc9565b9150509295509295509295565b7f4e487b7100000000000000000000000000000000000000000000000000000000600052603260045260246000fd5b600060608201905061271b600083018661220c565b612728602083018561220c565b6127356040830184612573565b949350505050565b60008151905061274c816124e5565b92915050565b60006020828403121561276857612767611d8a565b5b60006127768482850161273d565b91505092915050565b7f4e487b7100000000000000000000000000000000000000000000000000000000600052601160045260246000fd5b60006127b982611f64565b91507fffffffffffffffffffffffffffffffffffffffffffffffffffffffffffffffff82036127eb576127ea61277f565b5b600182019050919050565b600060408201905061280b600083018561220c565b6128186020830184612573565b9392505050565b600081519050919050565b600082825260208201905092915050565b60005b8381101561285957808201518184015260208101905061283e565b60008484015250505050565b60006128708261281f565b61287a818561282a565b935061288a81856020860161283b565b61289381611fe8565b840191505092915050565b60006040820190506128b360008301856121e2565b81810360208301526128c58184612865565b90509392505050565b60006060820190506128e36000830186612564565b6128f06020830185612564565b6128fd6040830184612564565b949350505050565b600060608201905061291a60008301866121e2565b612927602083018561220c565b61293460408301846123fb565b949350505050565b600061294782611f9a565b915061295283611f9a565b925082820390506bffffffffffffffffffffffff8111156129765761297561277f565b5b92915050565b600082825260208201905092915050565b6000819050919050565b6129a081611f26565b82525050565b60006129b28383612997565b60208301905092915050565b60006129cd6020840184611f4f565b905092915050565b6000602082019050919050565b60006129ee838561297c565b93506129f98261298d565b8060005b85811015612a3257612a0f82846129be565b612a1988826129a6565b9750612a24836129d5565b9250506001810190506129fd565b5085925050509392505050565b600060c082019050612a54600083018a6121e2565b612a61602083018961220c565b612a6e604083018861220c565b8181036060830152612a818186886129e2565b9050612a906080830185612573565b612a9d60a0830184612573565b98975050505050505050565b612ab281611f9a565b82525050565b6000602082019050612acd6000830184612aa9565b92915050565b600082825260208201905092915050565b7f4f776e61626c653a206e6577206f776e657220697320746865207a65726f206160008201527f6464726573730000000000000000000000000000000000000000000000000000602082015250565b6000612b40602683612ad3565b9150612b4b82612ae4565b604082019050919050565b60006020820190508181036000830152612b6f81612b33565b9050919050565b7f4f776e61626c653a2063616c6c6572206973206e6f7420746865206f776e6572600082015250565b6000612bac602083612ad3565b9150612bb782612b76565b602082019050919050565b60006020820190508181036000830152612bdb81612b9f565b9050919050565b6000612bed82611f64565b9150612bf883611f64565b9250828202612c0681611f64565b91508282048414831517612c1d57612c1c61277f565b5b5092915050565b7f4e487b7100000000000000000000000000000000000000000000000000000000600052601260045260246000fd5b6000612c5e82611f64565b9150612c6983611f64565b925082612c7957612c78612c24565b5b828204905092915050565b6000612c8f82611f64565b9150612c9a83611f64565b9250828203905081811115612cb257612cb161277f565b5b92915050565b6000612cc382611f64565b9150612cce83611f64565b9250828201905080821115612ce657612ce561277f565b5b92915050565b600081905092915050565b7f19457468657265756d205369676e6564204d6573736167653a0a333200000000600082015250565b6000612d2d601c83612cec565b9150612d3882612cf7565b601c82019050919050565b6000819050919050565b612d5e612d5982611d94565b612d43565b82525050565b6000612d6f82612d20565b9150612d7b8284612d4d565b60208201915081905092915050565b7f4e487b7100000000000000000000000000000000000000000000000000000000600052602160045260246000fd5b7f45434453413a20696e76616c6964207369676e61747572650000000000000000600082015250565b6000612def601883612ad3565b9150612dfa82612db9565b602082019050919050565b60006020820190508181036000830152612e1e81612de2565b9050919050565b7f45434453413a20696e76616c6964207369676e6174757265206c656e67746800600082015250565b6000612e5b601f83612ad3565b9150612e6682612e25565b602082019050919050565b60006020820190508181036000830152612e8a81612e4e565b9050919050565b7f45434453413a20696e76616c6964207369676e6174757265202773272076616c60008201527f7565000000000000000000000000000000000000000000000000000000000000602082015250565b6000612eed602283612ad3565b9150612ef882612e91565b604082019050919050565b60006020820190508181036000830152612f1c81612ee0565b9050919050565b600060ff82169050919050565b612f3981612f23565b82525050565b6000608082019050612f5460008301876121e2565b612f616020830186612f30565b612f6e60408301856121e2565b612f7b60608301846121e2565b9594505050505056fea2646970667358221220944c1c0b7265c7248641ad46fa5606e33892c2abb8801285312ef74a094d990e64736f6c63430008120033","opcodes":"PUSH1 0x80 PUSH1 0x40 MSTORE PUSH2 0x1388 PUSH1 0x0 PUSH1 0x14 PUSH2 0x100 EXP DUP2 SLOAD DUP2 PUSH8 0xFFFFFFFFFFFFFFFF MUL NOT AND SWAP1 DUP4 PUSH8 0xFFFFFFFFFFFFFFFF AND MUL OR SWAP1 SSTORE POP PUSH2 0x1F4 PUSH1 0x1 PUSH1 0x0 PUSH2 0x100 EXP DUP2 SLOAD DUP2 PUSH8 0xFFFFFFFFFFFFFFFF MUL NOT AND SWAP1 DUP4 PUSH8 0xFFFFFFFFFFFFFFFF AND MUL OR SWAP1 SSTORE POP PUSH2 0x1F4 PUSH1 0x1 PUSH1 0x8 PUSH2 0x100 EXP DUP2 SLOAD DUP2 PUSH8 0xFFFFFFFFFFFFFFFF MUL NOT AND SWAP1 DUP4 PUSH8 0xFFFFFFFFFFFFFFFF AND MUL OR SWAP1 SSTORE POP CALLVALUE DUP1 ISZERO PUSH3 0x92 JUMPI PUSH1 0x0 DUP1 REVERT JUMPDEST POP PUSH1 0x40 MLOAD PUSH3 0x3269 CODESIZE SUB DUP1 PUSH3 0x3269 DUP4 CODECOPY DUP2 DUP2 ADD PUSH1 0x40 MSTORE DUP2 ADD SWAP1 PUSH3 0xB8 SWAP2 SWAP1 PUSH3 0x26D JUMP JUMPDEST PUSH3 0xD8 PUSH3 0xCC PUSH3 0x137 PUSH1 0x20 SHL PUSH1 0x20 SHR JUMP JUMPDEST PUSH3 0x13F PUSH1 0x20 SHL PUSH1 0x20 SHR JUMP JUMPDEST PUSH1 0x1 PUSH1 0x5 PUSH1 0x0 DUP4 PUSH20 0xFFFFFFFFFFFFFFFFFFFFFFFFFFFFFFFFFFFFFFFF AND PUSH20 0xFFFFFFFFFFFFFFFFFFFFFFFFFFFFFFFFFFFFFFFF AND DUP2 MSTORE PUSH1 0x20 ADD SWAP1 DUP2 MSTORE PUSH1 0x20 ADD PUSH1 0x0 KECCAK256 PUSH1 0x0 PUSH2 0x100 EXP DUP2 SLOAD DUP2 PUSH1 0xFF MUL NOT AND SWAP1 DUP4 ISZERO ISZERO MUL OR SWAP1 SSTORE POP POP PUSH3 0x29F JUMP JUMPDEST PUSH1 0x0 CALLER SWAP1 POP SWAP1 JUMP JUMPDEST PUSH1 0x0 DUP1 PUSH1 0x0 SWAP1 SLOAD SWAP1 PUSH2 0x100 EXP SWAP1 DIV PUSH20 0xFFFFFFFFFFFFFFFFFFFFFFFFFFFFFFFFFFFFFFFF AND SWAP1 POP DUP2 PUSH1 0x0 DUP1 PUSH2 0x100 EXP DUP2 SLOAD DUP2 PUSH20 0xFFFFFFFFFFFFFFFFFFFFFFFFFFFFFFFFFFFFFFFF MUL NOT AND SWAP1 DUP4 PUSH20 0xFFFFFFFFFFFFFFFFFFFFFFFFFFFFFFFFFFFFFFFF AND MUL OR SWAP1 SSTORE POP DUP2 PUSH20 0xFFFFFFFFFFFFFFFFFFFFFFFFFFFFFFFFFFFFFFFF AND DUP2 PUSH20 0xFFFFFFFFFFFFFFFFFFFFFFFFFFFFFFFFFFFFFFFF AND PUSH32 0x8BE0079C531659141344CD1FD0A4F28419497F9722A3DAAFE3B4186F6B6457E0 PUSH1 0x40 MLOAD PUSH1 0x40 MLOAD DUP1 SWAP2 SUB SWAP1 LOG3 POP POP JUMP JUMPDEST PUSH1 0x0 DUP1 REVERT JUMPDEST PUSH1 0x0 PUSH20 0xFFFFFFFFFFFFFFFFFFFFFFFFFFFFFFFFFFFFFFFF DUP3 AND SWAP1 POP SWAP2 SWAP1 POP JUMP JUMPDEST PUSH1 0x0 PUSH3 0x235 DUP3 PUSH3 0x208 JUMP JUMPDEST SWAP1 POP SWAP2 SWAP1 POP JUMP JUMPDEST PUSH3 0x247 DUP2 PUSH3 0x228 JUMP JUMPDEST DUP2 EQ PUSH3 0x253 JUMPI PUSH1 0x0 DUP1 REVERT JUMPDEST POP JUMP JUMPDEST PUSH1 0x0 DUP2 MLOAD SWAP1 POP PUSH3 0x267 DUP2 PUSH3 0x23C JUMP JUMPDEST SWAP3 SWAP2 POP POP JUMP JUMPDEST PUSH1 0x0 PUSH1 0x20 DUP3 DUP5 SUB SLT ISZERO PUSH3 0x286 JUMPI PUSH3 0x285 PUSH3 0x203 JUMP JUMPDEST JUMPDEST PUSH1 0x0 PUSH3 0x296 DUP5 DUP3 DUP6 ADD PUSH3 0x256 JUMP JUMPDEST SWAP2 POP POP SWAP3 SWAP2 POP POP JUMP JUMPDEST PUSH2 0x2FBA DUP1 PUSH3 0x2AF PUSH1 0x0 CODECOPY PUSH1 0x0 RETURN INVALID PUSH1 0x80 PUSH1 0x40 MSTORE CALLVALUE DUP1 ISZERO PUSH2 0x10 JUMPI PUSH1 0x0 DUP1 REVERT JUMPDEST POP PUSH1 0x4 CALLDATASIZE LT PUSH2 0x100 JUMPI PUSH1 0x0 CALLDATALOAD PUSH1 0xE0 SHR DUP1 PUSH4 0x764BC355 GT PUSH2 0x97 JUMPI DUP1 PUSH4 0xBB76D8A5 GT PUSH2 0x66 JUMPI DUP1 PUSH4 0xBB76D8A5 EQ PUSH2 0x29C JUMPI DUP1 PUSH4 0xE5B32CDF EQ PUSH2 0x2BA JUMPI DUP1 PUSH4 0xEF1E345B EQ PUSH2 0x2EA JUMPI DUP1 PUSH4 0xF2FDE38B EQ PUSH2 0x31A JUMPI PUSH2 0x100 JUMP JUMPDEST DUP1 PUSH4 0x764BC355 EQ PUSH2 0x225 JUMPI DUP1 PUSH4 0x8DA5CB5B EQ PUSH2 0x241 JUMPI DUP1 PUSH4 0x99E3C0B4 EQ PUSH2 0x25F JUMPI DUP1 PUSH4 0xB810C636 EQ PUSH2 0x27B JUMPI PUSH2 0x100 JUMP JUMPDEST DUP1 PUSH4 0x3D8F8FB2 GT PUSH2 0xD3 JUMPI DUP1 PUSH4 0x3D8F8FB2 EQ PUSH2 0x19F JUMPI DUP1 PUSH4 0x715018A6 EQ PUSH2 0x1BB JUMPI DUP1 PUSH4 0x7249FBB6 EQ PUSH2 0x1C5 JUMPI DUP1 PUSH4 0x75151B63 EQ PUSH2 0x1F5 JUMPI PUSH2 0x100 JUMP JUMPDEST DUP1 PUSH4 0x2621338 EQ PUSH2 0x105 JUMPI DUP1 PUSH4 0x23E9F3F8 EQ PUSH2 0x135 JUMPI DUP1 PUSH4 0x2EBC5356 EQ PUSH2 0x165 JUMPI DUP1 PUSH4 0x32200882 EQ PUSH2 0x183 JUMPI JUMPDEST PUSH1 0x0 DUP1 REVERT JUMPDEST PUSH2 0x11F PUSH1 0x4 DUP1 CALLDATASIZE SUB DUP2 ADD SWAP1 PUSH2 0x11A SWAP2 SWAP1 PUSH2 0x1DCA JUMP JUMPDEST PUSH2 0x336 JUMP JUMPDEST PUSH1 0x40 MLOAD PUSH2 0x12C SWAP2 SWAP1 PUSH2 0x1EE4 JUMP JUMPDEST PUSH1 0x40 MLOAD DUP1 SWAP2 SUB SWAP1 RETURN JUMPDEST PUSH2 0x14F PUSH1 0x4 DUP1 CALLDATASIZE SUB DUP2 ADD SWAP1 PUSH2 0x14A SWAP2 SWAP1 PUSH2 0x2124 JUMP JUMPDEST PUSH2 0x474 JUMP JUMPDEST PUSH1 0x40 MLOAD PUSH2 0x15C SWAP2 SWAP1 PUSH2 0x21F1 JUMP JUMPDEST PUSH1 0x40 MLOAD DUP1 SWAP2 SUB SWAP1 RETURN JUMPDEST PUSH2 0x16D PUSH2 0x840 JUMP JUMPDEST PUSH1 0x40 MLOAD PUSH2 0x17A SWAP2 SWAP1 PUSH2 0x221B JUMP JUMPDEST PUSH1 0x40 MLOAD DUP1 SWAP2 SUB SWAP1 RETURN JUMPDEST PUSH2 0x19D PUSH1 0x4 DUP1 CALLDATASIZE SUB DUP2 ADD SWAP1 PUSH2 0x198 SWAP2 SWAP1 PUSH2 0x2353 JUMP JUMPDEST PUSH2 0x86A JUMP JUMPDEST STOP JUMPDEST PUSH2 0x1B9 PUSH1 0x4 DUP1 CALLDATASIZE SUB DUP2 ADD SWAP1 PUSH2 0x1B4 SWAP2 SWAP1 PUSH2 0x23AF JUMP JUMPDEST PUSH2 0x96C JUMP JUMPDEST STOP JUMPDEST PUSH2 0x1C3 PUSH2 0xB1E JUMP JUMPDEST STOP JUMPDEST PUSH2 0x1DF PUSH1 0x4 DUP1 CALLDATASIZE SUB DUP2 ADD SWAP1 PUSH2 0x1DA SWAP2 SWAP1 PUSH2 0x1DCA JUMP JUMPDEST PUSH2 0xB32 JUMP JUMPDEST PUSH1 0x40 MLOAD PUSH2 0x1EC SWAP2 SWAP1 PUSH2 0x240A JUMP JUMPDEST PUSH1 0x40 MLOAD DUP1 SWAP2 SUB SWAP1 RETURN JUMPDEST PUSH2 0x20F PUSH1 0x4 DUP1 CALLDATASIZE SUB DUP2 ADD SWAP1 PUSH2 0x20A SWAP2 SWAP1 PUSH2 0x2425 JUMP JUMPDEST PUSH2 0xDC2 JUMP JUMPDEST PUSH1 0x40 MLOAD PUSH2 0x21C SWAP2 SWAP1 PUSH2 0x240A JUMP JUMPDEST PUSH1 0x40 MLOAD DUP1 SWAP2 SUB SWAP1 RETURN JUMPDEST PUSH2 0x23F PUSH1 0x4 DUP1 CALLDATASIZE SUB DUP2 ADD SWAP1 PUSH2 0x23A SWAP2 SWAP1 PUSH2 0x2492 JUMP JUMPDEST PUSH2 0xE18 JUMP JUMPDEST STOP JUMPDEST PUSH2 0x249 PUSH2 0xEDB JUMP JUMPDEST PUSH1 0x40 MLOAD PUSH2 0x256 SWAP2 SWAP1 PUSH2 0x221B JUMP JUMPDEST PUSH1 0x40 MLOAD DUP1 SWAP2 SUB SWAP1 RETURN JUMPDEST PUSH2 0x279 PUSH1 0x4 DUP1 CALLDATASIZE SUB DUP2 ADD SWAP1 PUSH2 0x274 SWAP2 SWAP1 PUSH2 0x2511 JUMP JUMPDEST PUSH2 0xF04 JUMP JUMPDEST STOP JUMPDEST PUSH2 0x283 PUSH2 0x1072 JUMP JUMPDEST PUSH1 0x40 MLOAD PUSH2 0x293 SWAP5 SWAP4 SWAP3 SWAP2 SWAP1 PUSH2 0x2582 JUMP JUMPDEST PUSH1 0x40 MLOAD DUP1 SWAP2 SUB SWAP1 RETURN JUMPDEST PUSH2 0x2A4 PUSH2 0x10A8 JUMP JUMPDEST PUSH1 0x40 MLOAD PUSH2 0x2B1 SWAP2 SWAP1 PUSH2 0x25C7 JUMP JUMPDEST PUSH1 0x40 MLOAD DUP1 SWAP2 SUB SWAP1 RETURN JUMPDEST PUSH2 0x2D4 PUSH1 0x4 DUP1 CALLDATASIZE SUB DUP2 ADD SWAP1 PUSH2 0x2CF SWAP2 SWAP1 PUSH2 0x263D JUMP JUMPDEST PUSH2 0x10AE JUMP JUMPDEST PUSH1 0x40 MLOAD PUSH2 0x2E1 SWAP2 SWAP1 PUSH2 0x240A JUMP JUMPDEST PUSH1 0x40 MLOAD DUP1 SWAP2 SUB SWAP1 RETURN JUMPDEST PUSH2 0x304 PUSH1 0x4 DUP1 CALLDATASIZE SUB DUP2 ADD SWAP1 PUSH2 0x2FF SWAP2 SWAP1 PUSH2 0x1DCA JUMP JUMPDEST PUSH2 0x152C JUMP JUMPDEST PUSH1 0x40 MLOAD PUSH2 0x311 SWAP2 SWAP1 PUSH2 0x21F1 JUMP JUMPDEST PUSH1 0x40 MLOAD DUP1 SWAP2 SUB SWAP1 RETURN JUMPDEST PUSH2 0x334 PUSH1 0x4 DUP1 CALLDATASIZE SUB DUP2 ADD SWAP1 PUSH2 0x32F SWAP2 SWAP1 PUSH2 0x2425 JUMP JUMPDEST PUSH2 0x1549 JUMP JUMPDEST STOP JUMPDEST PUSH1 0x60 PUSH1 0x0 PUSH1 0x6 PUSH1 0x0 DUP5 DUP2 MSTORE PUSH1 0x20 ADD SWAP1 DUP2 MSTORE PUSH1 0x20 ADD PUSH1 0x0 KECCAK256 DUP1 SLOAD DUP1 PUSH1 0x20 MUL PUSH1 0x20 ADD PUSH1 0x40 MLOAD SWAP1 DUP2 ADD PUSH1 0x40 MSTORE DUP1 SWAP3 SWAP2 SWAP1 DUP2 DUP2 MSTORE PUSH1 0x20 ADD PUSH1 0x0 SWAP1 JUMPDEST DUP3 DUP3 LT ISZERO PUSH2 0x3B3 JUMPI DUP4 DUP3 SWAP1 PUSH1 0x0 MSTORE PUSH1 0x20 PUSH1 0x0 KECCAK256 SWAP1 PUSH1 0x2 MUL ADD PUSH1 0x40 MLOAD DUP1 PUSH1 0x40 ADD PUSH1 0x40 MSTORE SWAP1 DUP2 PUSH1 0x0 DUP3 ADD SLOAD DUP2 MSTORE PUSH1 0x20 ADD PUSH1 0x1 DUP3 ADD SLOAD DUP2 MSTORE POP POP DUP2 MSTORE PUSH1 0x20 ADD SWAP1 PUSH1 0x1 ADD SWAP1 PUSH2 0x36D JUMP JUMPDEST POP POP POP POP SWAP1 POP PUSH1 0x0 DUP2 MLOAD SWAP1 POP PUSH1 0x0 DUP2 PUSH8 0xFFFFFFFFFFFFFFFF DUP2 GT ISZERO PUSH2 0x3DB JUMPI PUSH2 0x3DA PUSH2 0x1FF9 JUMP JUMPDEST JUMPDEST PUSH1 0x40 MLOAD SWAP1 DUP1 DUP3 MSTORE DUP1 PUSH1 0x20 MUL PUSH1 0x20 ADD DUP3 ADD PUSH1 0x40 MSTORE DUP1 ISZERO PUSH2 0x414 JUMPI DUP2 PUSH1 0x20 ADD JUMPDEST PUSH2 0x401 PUSH2 0x1D60 JUMP JUMPDEST DUP2 MSTORE PUSH1 0x20 ADD SWAP1 PUSH1 0x1 SWAP1 SUB SWAP1 DUP2 PUSH2 0x3F9 JUMPI SWAP1 POP JUMPDEST POP SWAP1 POP PUSH1 0x0 JUMPDEST DUP3 DUP2 LT ISZERO PUSH2 0x468 JUMPI DUP4 DUP2 DUP2 MLOAD DUP2 LT PUSH2 0x435 JUMPI PUSH2 0x434 PUSH2 0x26D7 JUMP JUMPDEST JUMPDEST PUSH1 0x20 MUL PUSH1 0x20 ADD ADD MLOAD DUP3 DUP3 DUP2 MLOAD DUP2 LT PUSH2 0x450 JUMPI PUSH2 0x44F PUSH2 0x26D7 JUMP JUMPDEST JUMPDEST PUSH1 0x20 MUL PUSH1 0x20 ADD ADD DUP2 SWAP1 MSTORE POP DUP1 DUP1 PUSH1 0x1 ADD SWAP2 POP POP PUSH2 0x41A JUMP JUMPDEST POP DUP1 SWAP4 POP POP POP POP SWAP2 SWAP1 POP JUMP JUMPDEST PUSH1 0x0 DUP1 PUSH2 0x481 DUP5 DUP5 PUSH2 0x15CC JUMP JUMPDEST SWAP1 POP PUSH2 0x490 DUP10 DUP10 DUP10 DUP5 DUP10 PUSH2 0x1646 JUMP JUMPDEST DUP9 PUSH20 0xFFFFFFFFFFFFFFFFFFFFFFFFFFFFFFFFFFFFFFFF AND PUSH4 0x23B872DD CALLER ADDRESS DUP12 PUSH1 0x40 MLOAD DUP5 PUSH4 0xFFFFFFFF AND PUSH1 0xE0 SHL DUP2 MSTORE PUSH1 0x4 ADD PUSH2 0x4CD SWAP4 SWAP3 SWAP2 SWAP1 PUSH2 0x2706 JUMP JUMPDEST PUSH1 0x20 PUSH1 0x40 MLOAD DUP1 DUP4 SUB DUP2 PUSH1 0x0 DUP8 GAS CALL ISZERO DUP1 ISZERO PUSH2 0x4EC JUMPI RETURNDATASIZE PUSH1 0x0 DUP1 RETURNDATACOPY RETURNDATASIZE PUSH1 0x0 REVERT JUMPDEST POP POP POP POP PUSH1 0x40 MLOAD RETURNDATASIZE PUSH1 0x1F NOT PUSH1 0x1F DUP3 ADD AND DUP3 ADD DUP1 PUSH1 0x40 MSTORE POP DUP2 ADD SWAP1 PUSH2 0x510 SWAP2 SWAP1 PUSH2 0x2752 JUMP JUMPDEST POP PUSH1 0x9 PUSH1 0x0 CALLER PUSH20 0xFFFFFFFFFFFFFFFFFFFFFFFFFFFFFFFFFFFFFFFF AND PUSH20 0xFFFFFFFFFFFFFFFFFFFFFFFFFFFFFFFFFFFFFFFF AND DUP2 MSTORE PUSH1 0x20 ADD SWAP1 DUP2 MSTORE PUSH1 0x20 ADD PUSH1 0x0 KECCAK256 PUSH1 0x0 DUP2 SLOAD DUP1 SWAP3 SWAP2 SWAP1 PUSH2 0x561 SWAP1 PUSH2 0x27AE JUMP JUMPDEST SWAP2 SWAP1 POP SSTORE POP CALLER PUSH1 0x9 PUSH1 0x0 CALLER PUSH20 0xFFFFFFFFFFFFFFFFFFFFFFFFFFFFFFFFFFFFFFFF AND PUSH20 0xFFFFFFFFFFFFFFFFFFFFFFFFFFFFFFFFFFFFFFFF AND DUP2 MSTORE PUSH1 0x20 ADD SWAP1 DUP2 MSTORE PUSH1 0x20 ADD PUSH1 0x0 KECCAK256 SLOAD PUSH1 0x40 MLOAD PUSH1 0x20 ADD PUSH2 0x5B8 SWAP3 SWAP2 SWAP1 PUSH2 0x27F6 JUMP JUMPDEST PUSH1 0x40 MLOAD PUSH1 0x20 DUP2 DUP4 SUB SUB DUP2 MSTORE SWAP1 PUSH1 0x40 MSTORE DUP1 MLOAD SWAP1 PUSH1 0x20 ADD KECCAK256 SWAP2 POP PUSH1 0x40 MLOAD DUP1 PUSH1 0xE0 ADD PUSH1 0x40 MSTORE DUP1 CALLER PUSH20 0xFFFFFFFFFFFFFFFFFFFFFFFFFFFFFFFFFFFFFFFF AND DUP2 MSTORE PUSH1 0x20 ADD DUP11 PUSH20 0xFFFFFFFFFFFFFFFFFFFFFFFFFFFFFFFFFFFFFFFF AND DUP2 MSTORE PUSH1 0x20 ADD DUP8 PUSH12 0xFFFFFFFFFFFFFFFFFFFFFFFF AND DUP2 MSTORE PUSH1 0x20 ADD PUSH1 0x0 ISZERO ISZERO DUP2 MSTORE PUSH1 0x20 ADD DUP9 PUSH20 0xFFFFFFFFFFFFFFFFFFFFFFFFFFFFFFFFFFFFFFFF AND DUP2 MSTORE PUSH1 0x20 ADD PUSH3 0x186A0 PUSH12 0xFFFFFFFFFFFFFFFFFFFFFFFF AND DUP2 MSTORE PUSH1 0x20 ADD DUP10 DUP2 MSTORE POP PUSH1 0x8 PUSH1 0x0 DUP5 DUP2 MSTORE PUSH1 0x20 ADD SWAP1 DUP2 MSTORE PUSH1 0x20 ADD PUSH1 0x0 KECCAK256 PUSH1 0x0 DUP3 ADD MLOAD DUP2 PUSH1 0x0 ADD PUSH1 0x0 PUSH2 0x100 EXP DUP2 SLOAD DUP2 PUSH20 0xFFFFFFFFFFFFFFFFFFFFFFFFFFFFFFFFFFFFFFFF MUL NOT AND SWAP1 DUP4 PUSH20 0xFFFFFFFFFFFFFFFFFFFFFFFFFFFFFFFFFFFFFFFF AND MUL OR SWAP1 SSTORE POP PUSH1 0x20 DUP3 ADD MLOAD DUP2 PUSH1 0x1 ADD PUSH1 0x0 PUSH2 0x100 EXP DUP2 SLOAD DUP2 PUSH20 0xFFFFFFFFFFFFFFFFFFFFFFFFFFFFFFFFFFFFFFFF MUL NOT AND SWAP1 DUP4 PUSH20 0xFFFFFFFFFFFFFFFFFFFFFFFFFFFFFFFFFFFFFFFF AND MUL OR SWAP1 SSTORE POP PUSH1 0x40 DUP3 ADD MLOAD DUP2 PUSH1 0x1 ADD PUSH1 0x14 PUSH2 0x100 EXP DUP2 SLOAD DUP2 PUSH12 0xFFFFFFFFFFFFFFFFFFFFFFFF MUL NOT AND SWAP1 DUP4 PUSH12 0xFFFFFFFFFFFFFFFFFFFFFFFF AND MUL OR SWAP1 SSTORE POP PUSH1 0x60 DUP3 ADD MLOAD DUP2 PUSH1 0x2 ADD PUSH1 0x0 PUSH2 0x100 EXP DUP2 SLOAD DUP2 PUSH1 0xFF MUL NOT AND SWAP1 DUP4 ISZERO ISZERO MUL OR SWAP1 SSTORE POP PUSH1 0x80 DUP3 ADD MLOAD DUP2 PUSH1 0x2 ADD PUSH1 0x1 PUSH2 0x100 EXP DUP2 SLOAD DUP2 PUSH20 0xFFFFFFFFFFFFFFFFFFFFFFFFFFFFFFFFFFFFFFFF MUL NOT AND SWAP1 DUP4 PUSH20 0xFFFFFFFFFFFFFFFFFFFFFFFFFFFFFFFFFFFFFFFF AND MUL OR SWAP1 SSTORE POP PUSH1 0xA0 DUP3 ADD MLOAD DUP2 PUSH1 0x3 ADD PUSH1 0x0 PUSH2 0x100 EXP DUP2 SLOAD DUP2 PUSH12 0xFFFFFFFFFFFFFFFFFFFFFFFF MUL NOT AND SWAP1 DUP4 PUSH12 0xFFFFFFFFFFFFFFFFFFFFFFFF AND MUL OR SWAP1 SSTORE POP PUSH1 0xC0 DUP3 ADD MLOAD DUP2 PUSH1 0x4 ADD SSTORE SWAP1 POP POP DUP6 PUSH12 0xFFFFFFFFFFFFFFFFFFFFFFFF AND DUP9 DUP4 PUSH32 0xDD314958C6109201B2B89CD342F23878B9789A2B24D4C03AA960C0AC18A9C1B8 DUP8 DUP8 PUSH1 0x40 MLOAD PUSH2 0x82C SWAP3 SWAP2 SWAP1 PUSH2 0x289E JUMP JUMPDEST PUSH1 0x40 MLOAD DUP1 SWAP2 SUB SWAP1 LOG4 POP SWAP8 SWAP7 POP POP POP POP POP POP POP JUMP JUMPDEST PUSH1 0x0 PUSH1 0x4 PUSH1 0x0 SWAP1 SLOAD SWAP1 PUSH2 0x100 EXP SWAP1 DIV PUSH20 0xFFFFFFFFFFFFFFFFFFFFFFFFFFFFFFFFFFFFFFFF AND SWAP1 POP SWAP1 JUMP JUMPDEST PUSH2 0x872 PUSH2 0x17F6 JUMP JUMPDEST PUSH1 0x0 PUSH1 0x6 PUSH1 0x0 DUP5 DUP2 MSTORE PUSH1 0x20 ADD SWAP1 DUP2 MSTORE PUSH1 0x20 ADD PUSH1 0x0 KECCAK256 DUP1 SLOAD SWAP1 POP SWAP1 POP PUSH1 0x0 JUMPDEST DUP2 DUP2 LT ISZERO PUSH2 0x966 JUMPI PUSH1 0x6 PUSH1 0x0 DUP6 DUP2 MSTORE PUSH1 0x20 ADD SWAP1 DUP2 MSTORE PUSH1 0x20 ADD PUSH1 0x0 KECCAK256 DUP4 DUP3 DUP2 MLOAD DUP2 LT PUSH2 0x8BE JUMPI PUSH2 0x8BD PUSH2 0x26D7 JUMP JUMPDEST JUMPDEST PUSH1 0x20 MUL PUSH1 0x20 ADD ADD MLOAD SWAP1 DUP1 PUSH1 0x1 DUP2 SLOAD ADD DUP1 DUP3 SSTORE DUP1 SWAP2 POP POP PUSH1 0x1 SWAP1 SUB SWAP1 PUSH1 0x0 MSTORE PUSH1 0x20 PUSH1 0x0 KECCAK256 SWAP1 PUSH1 0x2 MUL ADD PUSH1 0x0 SWAP1 SWAP2 SWAP1 SWAP2 SWAP1 SWAP2 POP PUSH1 0x0 DUP3 ADD MLOAD DUP2 PUSH1 0x0 ADD SSTORE PUSH1 0x20 DUP3 ADD MLOAD DUP2 PUSH1 0x1 ADD SSTORE POP POP DUP3 DUP2 DUP2 MLOAD DUP2 LT PUSH2 0x918 JUMPI PUSH2 0x917 PUSH2 0x26D7 JUMP JUMPDEST JUMPDEST PUSH1 0x20 MUL PUSH1 0x20 ADD ADD MLOAD PUSH1 0x20 ADD MLOAD PUSH1 0x7 PUSH1 0x0 DUP6 DUP5 DUP2 MLOAD DUP2 LT PUSH2 0x93B JUMPI PUSH2 0x93A PUSH2 0x26D7 JUMP JUMPDEST JUMPDEST PUSH1 0x20 MUL PUSH1 0x20 ADD ADD MLOAD PUSH1 0x0 ADD MLOAD DUP2 MSTORE PUSH1 0x20 ADD SWAP1 DUP2 MSTORE PUSH1 0x20 ADD PUSH1 0x0 KECCAK256 DUP2 SWAP1 SSTORE POP DUP1 DUP1 PUSH1 0x1 ADD SWAP2 POP POP PUSH2 0x890 JUMP JUMPDEST POP POP POP POP JUMP JUMPDEST PUSH2 0x974 PUSH2 0x17F6 JUMP JUMPDEST PUSH1 0x0 PUSH20 0xFFFFFFFFFFFFFFFFFFFFFFFFFFFFFFFFFFFFFFFF AND DUP2 PUSH20 0xFFFFFFFFFFFFFFFFFFFFFFFFFFFFFFFFFFFFFFFF AND SUB PUSH2 0x9DA JUMPI PUSH1 0x40 MLOAD PUSH32 0x9C8E2B5D00000000000000000000000000000000000000000000000000000000 DUP2 MSTORE PUSH1 0x4 ADD PUSH1 0x40 MLOAD DUP1 SWAP2 SUB SWAP1 REVERT JUMPDEST PUSH32 0x6665650000000000000000000000000000000000000000000000000000000000 DUP3 SUB PUSH2 0xA43 JUMPI DUP1 PUSH1 0x2 PUSH1 0x0 PUSH2 0x100 EXP DUP2 SLOAD DUP2 PUSH20 0xFFFFFFFFFFFFFFFFFFFFFFFFFFFFFFFFFFFFFFFF MUL NOT AND SWAP1 DUP4 PUSH20 0xFFFFFFFFFFFFFFFFFFFFFFFFFFFFFFFFFFFFFFFF AND MUL OR SWAP1 SSTORE POP JUMPDEST PUSH32 0x61676772656761746F7200000000000000000000000000000000000000000000 DUP3 SUB PUSH2 0xAB0 JUMPI DUP1 PUSH1 0x4 PUSH1 0x0 PUSH2 0x100 EXP DUP2 SLOAD DUP2 PUSH20 0xFFFFFFFFFFFFFFFFFFFFFFFFFFFFFFFFFFFFFFFF MUL NOT AND SWAP1 DUP4 PUSH20 0xFFFFFFFFFFFFFFFFFFFFFFFFFFFFFFFFFFFFFFFF AND MUL OR SWAP1 SSTORE POP PUSH2 0xB1A JUMP JUMPDEST PUSH32 0x7374616B65000000000000000000000000000000000000000000000000000000 DUP3 SUB PUSH2 0xB19 JUMPI DUP1 PUSH1 0x3 PUSH1 0x0 PUSH2 0x100 EXP DUP2 SLOAD DUP2 PUSH20 0xFFFFFFFFFFFFFFFFFFFFFFFFFFFFFFFFFFFFFFFF MUL NOT AND SWAP1 DUP4 PUSH20 0xFFFFFFFFFFFFFFFFFFFFFFFFFFFFFFFFFFFFFFFF AND MUL OR SWAP1 SSTORE POP JUMPDEST JUMPDEST POP POP JUMP JUMPDEST PUSH2 0xB26 PUSH2 0x17F6 JUMP JUMPDEST PUSH2 0xB30 PUSH1 0x0 PUSH2 0x1874 JUMP JUMPDEST JUMP JUMPDEST PUSH1 0x0 PUSH1 0x4 PUSH1 0x0 SWAP1 SLOAD SWAP1 PUSH2 0x100 EXP SWAP1 DIV PUSH20 0xFFFFFFFFFFFFFFFFFFFFFFFFFFFFFFFFFFFFFFFF AND PUSH20 0xFFFFFFFFFFFFFFFFFFFFFFFFFFFFFFFFFFFFFFFF AND CALLER PUSH20 0xFFFFFFFFFFFFFFFFFFFFFFFFFFFFFFFFFFFFFFFF AND EQ PUSH2 0xBBB JUMPI PUSH1 0x40 MLOAD PUSH32 0xE9D8299200000000000000000000000000000000000000000000000000000000 DUP2 MSTORE PUSH1 0x4 ADD PUSH1 0x40 MLOAD DUP1 SWAP2 SUB SWAP1 REVERT JUMPDEST PUSH1 0x8 PUSH1 0x0 DUP4 DUP2 MSTORE PUSH1 0x20 ADD SWAP1 DUP2 MSTORE PUSH1 0x20 ADD PUSH1 0x0 KECCAK256 PUSH1 0x2 ADD PUSH1 0x0 SWAP1 SLOAD SWAP1 PUSH2 0x100 EXP SWAP1 DIV PUSH1 0xFF AND ISZERO PUSH2 0xC16 JUMPI PUSH1 0x40 MLOAD PUSH32 0x56F1733F00000000000000000000000000000000000000000000000000000000 DUP2 MSTORE PUSH1 0x4 ADD PUSH1 0x40 MLOAD DUP1 SWAP2 SUB SWAP1 REVERT JUMPDEST PUSH1 0x1 PUSH1 0x8 PUSH1 0x0 DUP5 DUP2 MSTORE PUSH1 0x20 ADD SWAP1 DUP2 MSTORE PUSH1 0x20 ADD PUSH1 0x0 KECCAK256 PUSH1 0x2 ADD PUSH1 0x0 PUSH2 0x100 EXP DUP2 SLOAD DUP2 PUSH1 0xFF MUL NOT AND SWAP1 DUP4 ISZERO ISZERO MUL OR SWAP1 SSTORE POP PUSH1 0x0 PUSH1 0x8 PUSH1 0x0 DUP5 DUP2 MSTORE PUSH1 0x20 ADD SWAP1 DUP2 MSTORE PUSH1 0x20 ADD PUSH1 0x0 KECCAK256 PUSH1 0x3 ADD PUSH1 0x0 PUSH2 0x100 EXP DUP2 SLOAD DUP2 PUSH12 0xFFFFFFFFFFFFFFFFFFFFFFFF MUL NOT AND SWAP1 DUP4 PUSH12 0xFFFFFFFFFFFFFFFFFFFFFFFF AND MUL OR SWAP1 SSTORE POP PUSH1 0x8 PUSH1 0x0 DUP4 DUP2 MSTORE PUSH1 0x20 ADD SWAP1 DUP2 MSTORE PUSH1 0x20 ADD PUSH1 0x0 KECCAK256 PUSH1 0x1 ADD PUSH1 0x0 SWAP1 SLOAD SWAP1 PUSH2 0x100 EXP SWAP1 DIV PUSH20 0xFFFFFFFFFFFFFFFFFFFFFFFFFFFFFFFFFFFFFFFF AND PUSH20 0xFFFFFFFFFFFFFFFFFFFFFFFFFFFFFFFFFFFFFFFF AND PUSH4 0xA9059CBB PUSH1 0x8 PUSH1 0x0 DUP6 DUP2 MSTORE PUSH1 0x20 ADD SWAP1 DUP2 MSTORE PUSH1 0x20 ADD PUSH1 0x0 KECCAK256 PUSH1 0x2 ADD PUSH1 0x1 SWAP1 SLOAD SWAP1 PUSH2 0x100 EXP SWAP1 DIV PUSH20 0xFFFFFFFFFFFFFFFFFFFFFFFFFFFFFFFFFFFFFFFF AND PUSH1 0x8 PUSH1 0x0 DUP7 DUP2 MSTORE PUSH1 0x20 ADD SWAP1 DUP2 MSTORE PUSH1 0x20 ADD PUSH1 0x0 KECCAK256 PUSH1 0x4 ADD SLOAD PUSH1 0x40 MLOAD DUP4 PUSH4 0xFFFFFFFF AND PUSH1 0xE0 SHL DUP2 MSTORE PUSH1 0x4 ADD PUSH2 0xD48 SWAP3 SWAP2 SWAP1 PUSH2 0x27F6 JUMP JUMPDEST PUSH1 0x20 PUSH1 0x40 MLOAD DUP1 DUP4 SUB DUP2 PUSH1 0x0 DUP8 GAS CALL ISZERO DUP1 ISZERO PUSH2 0xD67 JUMPI RETURNDATASIZE PUSH1 0x0 DUP1 RETURNDATACOPY RETURNDATASIZE PUSH1 0x0 REVERT JUMPDEST POP POP POP POP PUSH1 0x40 MLOAD RETURNDATASIZE PUSH1 0x1F NOT PUSH1 0x1F DUP3 ADD AND DUP3 ADD DUP1 PUSH1 0x40 MSTORE POP DUP2 ADD SWAP1 PUSH2 0xD8B SWAP2 SWAP1 PUSH2 0x2752 JUMP JUMPDEST POP DUP2 PUSH32 0xFE509803C09416B28FF3D8F690C8B0C61462A892C46D5430C8FB20ABE472DAF0 PUSH1 0x40 MLOAD PUSH1 0x40 MLOAD DUP1 SWAP2 SUB SWAP1 LOG2 PUSH1 0x1 SWAP1 POP SWAP2 SWAP1 POP JUMP JUMPDEST PUSH1 0x0 PUSH1 0x5 PUSH1 0x0 DUP4 PUSH20 0xFFFFFFFFFFFFFFFFFFFFFFFFFFFFFFFFFFFFFFFF AND PUSH20 0xFFFFFFFFFFFFFFFFFFFFFFFFFFFFFFFFFFFFFFFF AND DUP2 MSTORE PUSH1 0x20 ADD SWAP1 DUP2 MSTORE PUSH1 0x20 ADD PUSH1 0x0 KECCAK256 PUSH1 0x0 SWAP1 SLOAD SWAP1 PUSH2 0x100 EXP SWAP1 DIV PUSH1 0xFF AND SWAP1 POP SWAP2 SWAP1 POP JUMP JUMPDEST PUSH2 0xE20 PUSH2 0x17F6 JUMP JUMPDEST DUP3 PUSH1 0x0 PUSH1 0x14 PUSH2 0x100 EXP DUP2 SLOAD DUP2 PUSH8 0xFFFFFFFFFFFFFFFF MUL NOT AND SWAP1 DUP4 PUSH8 0xFFFFFFFFFFFFFFFF AND MUL OR SWAP1 SSTORE POP DUP2 PUSH1 0x1 PUSH1 0x0 PUSH2 0x100 EXP DUP2 SLOAD DUP2 PUSH8 0xFFFFFFFFFFFFFFFF MUL NOT AND SWAP1 DUP4 PUSH8 0xFFFFFFFFFFFFFFFF AND MUL OR SWAP1 SSTORE POP DUP1 PUSH1 0x1 PUSH1 0x8 PUSH2 0x100 EXP DUP2 SLOAD DUP2 PUSH8 0xFFFFFFFFFFFFFFFF MUL NOT AND SWAP1 DUP4 PUSH8 0xFFFFFFFFFFFFFFFF AND MUL OR SWAP1 SSTORE POP PUSH32 0xCED6B79F1325154AEC329E6FF932857CB4F91FA8EB4C6791CE5B460F47995758 DUP4 DUP4 DUP4 PUSH1 0x40 MLOAD PUSH2 0xECE SWAP4 SWAP3 SWAP2 SWAP1 PUSH2 0x28CE JUMP JUMPDEST PUSH1 0x40 MLOAD DUP1 SWAP2 SUB SWAP1 LOG1 POP POP POP JUMP JUMPDEST PUSH1 0x0 DUP1 PUSH1 0x0 SWAP1 SLOAD SWAP1 PUSH2 0x100 EXP SWAP1 DIV PUSH20 0xFFFFFFFFFFFFFFFFFFFFFFFFFFFFFFFFFFFFFFFF AND SWAP1 POP SWAP1 JUMP JUMPDEST PUSH2 0xF0C PUSH2 0x17F6 JUMP JUMPDEST PUSH1 0x0 PUSH20 0xFFFFFFFFFFFFFFFFFFFFFFFFFFFFFFFFFFFFFFFF AND DUP3 PUSH20 0xFFFFFFFFFFFFFFFFFFFFFFFFFFFFFFFFFFFFFFFF AND SUB PUSH2 0xF72 JUMPI PUSH1 0x40 MLOAD PUSH32 0x9C8E2B5D00000000000000000000000000000000000000000000000000000000 DUP2 MSTORE PUSH1 0x4 ADD PUSH1 0x40 MLOAD DUP1 SWAP2 SUB SWAP1 REVERT JUMPDEST PUSH32 0x746F6B656E000000000000000000000000000000000000000000000000000000 DUP4 SUB PUSH2 0xFF5 JUMPI DUP1 PUSH1 0x5 PUSH1 0x0 DUP5 PUSH20 0xFFFFFFFFFFFFFFFFFFFFFFFFFFFFFFFFFFFFFFFF AND PUSH20 0xFFFFFFFFFFFFFFFFFFFFFFFFFFFFFFFFFFFFFFFF AND DUP2 MSTORE PUSH1 0x20 ADD SWAP1 DUP2 MSTORE PUSH1 0x20 ADD PUSH1 0x0 KECCAK256 PUSH1 0x0 PUSH2 0x100 EXP DUP2 SLOAD DUP2 PUSH1 0xFF MUL NOT AND SWAP1 DUP4 ISZERO ISZERO MUL OR SWAP1 SSTORE POP PUSH2 0x1032 JUMP JUMPDEST DUP3 PUSH1 0x40 MLOAD PUSH32 0x48BAE5B800000000000000000000000000000000000000000000000000000000 DUP2 MSTORE PUSH1 0x4 ADD PUSH2 0x1029 SWAP2 SWAP1 PUSH2 0x21F1 JUMP JUMPDEST PUSH1 0x40 MLOAD DUP1 SWAP2 SUB SWAP1 REVERT JUMPDEST PUSH32 0xE22CADCC5DDBC0A185E8920EAA6825BCC06DCD6B432988E7E9912CAA59ACE930 DUP4 DUP4 DUP4 PUSH1 0x40 MLOAD PUSH2 0x1065 SWAP4 SWAP3 SWAP2 SWAP1 PUSH2 0x2905 JUMP JUMPDEST PUSH1 0x40 MLOAD DUP1 SWAP2 SUB SWAP1 LOG1 POP POP POP JUMP JUMPDEST PUSH1 0x0 DUP1 PUSH1 0x0 DUP1 PUSH1 0x0 PUSH1 0x14 SWAP1 SLOAD SWAP1 PUSH2 0x100 EXP SWAP1 POP POP PUSH1 0x1 PUSH1 0x0 SWAP1 SLOAD SWAP1 PUSH2 0x100 EXP SWAP1 POP POP PUSH1 0x1 PUSH1 0x8 SWAP1 SLOAD SWAP1 PUSH2 0x100 EXP SWAP1 POP POP SWAP1 SWAP2 SWAP3 SWAP4 JUMP JUMPDEST PUSH2 0xA8C0 DUP2 JUMP JUMPDEST PUSH1 0x0 PUSH1 0x4 PUSH1 0x0 SWAP1 SLOAD SWAP1 PUSH2 0x100 EXP SWAP1 DIV PUSH20 0xFFFFFFFFFFFFFFFFFFFFFFFFFFFFFFFFFFFFFFFF AND PUSH20 0xFFFFFFFFFFFFFFFFFFFFFFFFFFFFFFFFFFFFFFFF AND CALLER PUSH20 0xFFFFFFFFFFFFFFFFFFFFFFFFFFFFFFFFFFFFFFFF AND EQ PUSH2 0x1137 JUMPI PUSH1 0x40 MLOAD PUSH32 0xE9D8299200000000000000000000000000000000000000000000000000000000 DUP2 MSTORE PUSH1 0x4 ADD PUSH1 0x40 MLOAD DUP1 SWAP2 SUB SWAP1 REVERT JUMPDEST PUSH1 0x8 PUSH1 0x0 DUP9 DUP2 MSTORE PUSH1 0x20 ADD SWAP1 DUP2 MSTORE PUSH1 0x20 ADD PUSH1 0x0 KECCAK256 PUSH1 0x2 ADD PUSH1 0x0 SWAP1 SLOAD SWAP1 PUSH2 0x100 EXP SWAP1 DIV PUSH1 0xFF AND ISZERO PUSH2 0x1192 JUMPI PUSH1 0x40 MLOAD PUSH32 0x56F1733F00000000000000000000000000000000000000000000000000000000 DUP2 MSTORE PUSH1 0x4 ADD PUSH1 0x40 MLOAD DUP1 SWAP2 SUB SWAP1 REVERT JUMPDEST PUSH1 0x0 PUSH1 0x8 PUSH1 0x0 DUP10 DUP2 MSTORE PUSH1 0x20 ADD SWAP1 DUP2 MSTORE PUSH1 0x20 ADD PUSH1 0x0 KECCAK256 PUSH1 0x1 ADD PUSH1 0x0 SWAP1 SLOAD SWAP1 PUSH2 0x100 EXP SWAP1 DIV PUSH20 0xFFFFFFFFFFFFFFFFFFFFFFFFFFFFFFFFFFFFFFFF AND SWAP1 POP DUP3 PUSH1 0x8 PUSH1 0x0 DUP11 DUP2 MSTORE PUSH1 0x20 ADD SWAP1 DUP2 MSTORE PUSH1 0x20 ADD PUSH1 0x0 KECCAK256 PUSH1 0x3 ADD PUSH1 0x0 DUP3 DUP3 DUP3 SWAP1 SLOAD SWAP1 PUSH2 0x100 EXP SWAP1 DIV PUSH12 0xFFFFFFFFFFFFFFFFFFFFFFFF AND PUSH2 0x120A SWAP2 SWAP1 PUSH2 0x293C JUMP JUMPDEST SWAP3 POP PUSH2 0x100 EXP DUP2 SLOAD DUP2 PUSH12 0xFFFFFFFFFFFFFFFFFFFFFFFF MUL NOT AND SWAP1 DUP4 PUSH12 0xFFFFFFFFFFFFFFFFFFFFFFFF AND MUL OR SWAP1 SSTORE POP PUSH1 0x0 PUSH1 0x8 PUSH1 0x0 DUP11 DUP2 MSTORE PUSH1 0x20 ADD SWAP1 DUP2 MSTORE PUSH1 0x20 ADD PUSH1 0x0 KECCAK256 PUSH1 0x3 ADD PUSH1 0x0 SWAP1 SLOAD SWAP1 PUSH2 0x100 EXP SWAP1 DIV PUSH12 0xFFFFFFFFFFFFFFFFFFFFFFFF AND PUSH12 0xFFFFFFFFFFFFFFFFFFFFFFFF AND SUB PUSH2 0x12AC JUMPI PUSH1 0x1 PUSH1 0x8 PUSH1 0x0 DUP11 DUP2 MSTORE PUSH1 0x20 ADD SWAP1 DUP2 MSTORE PUSH1 0x20 ADD PUSH1 0x0 KECCAK256 PUSH1 0x2 ADD PUSH1 0x0 PUSH2 0x100 EXP DUP2 SLOAD DUP2 PUSH1 0xFF MUL NOT AND SWAP1 DUP4 ISZERO ISZERO MUL OR SWAP1 SSTORE POP JUMPDEST PUSH1 0x0 DUP1 PUSH1 0x0 DUP1 PUSH2 0x12BC DUP13 DUP9 PUSH2 0x1938 JUMP JUMPDEST SWAP4 POP SWAP4 POP SWAP4 POP SWAP4 POP DUP5 PUSH20 0xFFFFFFFFFFFFFFFFFFFFFFFFFFFFFFFFFFFFFFFF AND PUSH4 0xA9059CBB PUSH1 0x2 PUSH1 0x0 SWAP1 SLOAD SWAP1 PUSH2 0x100 EXP SWAP1 DIV PUSH20 0xFFFFFFFFFFFFFFFFFFFFFFFFFFFFFFFFFFFFFFFF AND DUP7 PUSH1 0x40 MLOAD DUP4 PUSH4 0xFFFFFFFF AND PUSH1 0xE0 SHL DUP2 MSTORE PUSH1 0x4 ADD PUSH2 0x1321 SWAP3 SWAP2 SWAP1 PUSH2 0x27F6 JUMP JUMPDEST PUSH1 0x20 PUSH1 0x40 MLOAD DUP1 DUP4 SUB DUP2 PUSH1 0x0 DUP8 GAS CALL ISZERO DUP1 ISZERO PUSH2 0x1340 JUMPI RETURNDATASIZE PUSH1 0x0 DUP1 RETURNDATACOPY RETURNDATASIZE PUSH1 0x0 REVERT JUMPDEST POP POP POP POP PUSH1 0x40 MLOAD RETURNDATASIZE PUSH1 0x1F NOT PUSH1 0x1F DUP3 ADD AND DUP3 ADD DUP1 PUSH1 0x40 MSTORE POP DUP2 ADD SWAP1 PUSH2 0x1364 SWAP2 SWAP1 PUSH2 0x2752 JUMP JUMPDEST POP DUP5 PUSH20 0xFFFFFFFFFFFFFFFFFFFFFFFFFFFFFFFFFFFFFFFF AND PUSH4 0xA9059CBB DUP10 DUP6 PUSH1 0x40 MLOAD DUP4 PUSH4 0xFFFFFFFF AND PUSH1 0xE0 SHL DUP2 MSTORE PUSH1 0x4 ADD PUSH2 0x13A0 SWAP3 SWAP2 SWAP1 PUSH2 0x27F6 JUMP JUMPDEST PUSH1 0x20 PUSH1 0x40 MLOAD DUP1 DUP4 SUB DUP2 PUSH1 0x0 DUP8 GAS CALL ISZERO DUP1 ISZERO PUSH2 0x13BF JUMPI RETURNDATASIZE PUSH1 0x0 DUP1 RETURNDATACOPY RETURNDATASIZE PUSH1 0x0 REVERT JUMPDEST POP POP POP POP PUSH1 0x40 MLOAD RETURNDATASIZE PUSH1 0x1F NOT PUSH1 0x1F DUP3 ADD AND DUP3 ADD DUP1 PUSH1 0x40 MSTORE POP DUP2 ADD SWAP1 PUSH2 0x13E3 SWAP2 SWAP1 PUSH2 0x2752 JUMP JUMPDEST POP PUSH1 0x0 PUSH1 0x3 PUSH1 0x0 SWAP1 SLOAD SWAP1 PUSH2 0x100 EXP SWAP1 DIV PUSH20 0xFFFFFFFFFFFFFFFFFFFFFFFFFFFFFFFFFFFFFFFF AND PUSH20 0xFFFFFFFFFFFFFFFFFFFFFFFFFFFFFFFFFFFFFFFF AND PUSH4 0x4A223C36 DUP15 DUP9 DUP16 DUP16 DUP16 DUP10 DUP10 PUSH1 0x40 MLOAD DUP9 PUSH4 0xFFFFFFFF AND PUSH1 0xE0 SHL DUP2 MSTORE PUSH1 0x4 ADD PUSH2 0x144D SWAP8 SWAP7 SWAP6 SWAP5 SWAP4 SWAP3 SWAP2 SWAP1 PUSH2 0x2A3F JUMP JUMPDEST PUSH1 0x20 PUSH1 0x40 MLOAD DUP1 DUP4 SUB DUP2 PUSH1 0x0 DUP8 GAS CALL ISZERO DUP1 ISZERO PUSH2 0x146C JUMPI RETURNDATASIZE PUSH1 0x0 DUP1 RETURNDATACOPY RETURNDATASIZE PUSH1 0x0 REVERT JUMPDEST POP POP POP POP PUSH1 0x40 MLOAD RETURNDATASIZE PUSH1 0x1F NOT PUSH1 0x1F DUP3 ADD AND DUP3 ADD DUP1 PUSH1 0x40 MSTORE POP DUP2 ADD SWAP1 PUSH2 0x1490 SWAP2 SWAP1 PUSH2 0x2752 JUMP JUMPDEST SWAP1 POP DUP1 PUSH2 0x14C9 JUMPI PUSH1 0x40 MLOAD PUSH32 0xBCB00C1600000000000000000000000000000000000000000000000000000000 DUP2 MSTORE PUSH1 0x4 ADD PUSH1 0x40 MLOAD DUP1 SWAP2 SUB SWAP1 REVERT JUMPDEST DUP9 PUSH20 0xFFFFFFFFFFFFFFFFFFFFFFFFFFFFFFFFFFFFFFFF AND DUP14 PUSH32 0xCE38752AC5ED47DD3CFF11297A4261A0C644BE6CA65DC3FC7AE1C3A97C209E33 DUP11 PUSH1 0x40 MLOAD PUSH2 0x1510 SWAP2 SWAP1 PUSH2 0x2AB8 JUMP JUMPDEST PUSH1 0x40 MLOAD DUP1 SWAP2 SUB SWAP1 LOG3 PUSH1 0x1 SWAP7 POP POP POP POP POP POP POP SWAP7 SWAP6 POP POP POP POP POP POP JUMP JUMPDEST PUSH1 0x0 PUSH1 0x7 PUSH1 0x0 DUP4 DUP2 MSTORE PUSH1 0x20 ADD SWAP1 DUP2 MSTORE PUSH1 0x20 ADD PUSH1 0x0 KECCAK256 SLOAD SWAP1 POP SWAP2 SWAP1 POP JUMP JUMPDEST PUSH2 0x1551 PUSH2 0x17F6 JUMP JUMPDEST PUSH1 0x0 PUSH20 0xFFFFFFFFFFFFFFFFFFFFFFFFFFFFFFFFFFFFFFFF AND DUP2 PUSH20 0xFFFFFFFFFFFFFFFFFFFFFFFFFFFFFFFFFFFFFFFF AND SUB PUSH2 0x15C0 JUMPI PUSH1 0x40 MLOAD PUSH32 0x8C379A000000000000000000000000000000000000000000000000000000000 DUP2 MSTORE PUSH1 0x4 ADD PUSH2 0x15B7 SWAP1 PUSH2 0x2B56 JUMP JUMPDEST PUSH1 0x40 MLOAD DUP1 SWAP2 SUB SWAP1 REVERT JUMPDEST PUSH2 0x15C9 DUP2 PUSH2 0x1874 JUMP JUMPDEST POP JUMP JUMPDEST PUSH1 0x0 DUP1 PUSH2 0x15D8 DUP5 PUSH2 0x1A68 JUMP JUMPDEST SWAP1 POP PUSH1 0x4 PUSH1 0x0 SWAP1 SLOAD SWAP1 PUSH2 0x100 EXP SWAP1 DIV PUSH20 0xFFFFFFFFFFFFFFFFFFFFFFFFFFFFFFFFFFFFFFFF AND PUSH20 0xFFFFFFFFFFFFFFFFFFFFFFFFFFFFFFFFFFFFFFFF AND PUSH2 0x1626 DUP5 DUP4 PUSH2 0x1A98 SWAP1 SWAP2 SWAP1 PUSH4 0xFFFFFFFF AND JUMP JUMPDEST PUSH20 0xFFFFFFFFFFFFFFFFFFFFFFFFFFFFFFFFFFFFFFFF AND EQ SWAP2 POP POP SWAP3 SWAP2 POP POP JUMP JUMPDEST PUSH1 0x5 PUSH1 0x0 DUP7 PUSH20 0xFFFFFFFFFFFFFFFFFFFFFFFFFFFFFFFFFFFFFFFF AND PUSH20 0xFFFFFFFFFFFFFFFFFFFFFFFFFFFFFFFFFFFFFFFF AND DUP2 MSTORE PUSH1 0x20 ADD SWAP1 DUP2 MSTORE PUSH1 0x20 ADD PUSH1 0x0 KECCAK256 PUSH1 0x0 SWAP1 SLOAD SWAP1 PUSH2 0x100 EXP SWAP1 DIV PUSH1 0xFF AND PUSH2 0x16C9 JUMPI PUSH1 0x40 MLOAD PUSH32 0x3DD1B30500000000000000000000000000000000000000000000000000000000 DUP2 MSTORE PUSH1 0x4 ADD PUSH1 0x40 MLOAD DUP1 SWAP2 SUB SWAP1 REVERT JUMPDEST PUSH1 0x0 DUP5 SUB PUSH2 0x1703 JUMPI PUSH1 0x40 MLOAD PUSH32 0x43AD20FC00000000000000000000000000000000000000000000000000000000 DUP2 MSTORE PUSH1 0x4 ADD PUSH1 0x40 MLOAD DUP1 SWAP2 SUB SWAP1 REVERT JUMPDEST PUSH1 0x0 PUSH20 0xFFFFFFFFFFFFFFFFFFFFFFFFFFFFFFFFFFFFFFFF AND DUP4 PUSH20 0xFFFFFFFFFFFFFFFFFFFFFFFFFFFFFFFFFFFFFFFF AND SUB PUSH2 0x1769 JUMPI PUSH1 0x40 MLOAD PUSH32 0x9C8E2B5D00000000000000000000000000000000000000000000000000000000 DUP2 MSTORE PUSH1 0x4 ADD PUSH1 0x40 MLOAD DUP1 SWAP2 SUB SWAP1 REVERT JUMPDEST DUP2 PUSH2 0x17A0 JUMPI PUSH1 0x40 MLOAD PUSH32 0x815E1D6400000000000000000000000000000000000000000000000000000000 DUP2 MSTORE PUSH1 0x4 ADD PUSH1 0x40 MLOAD DUP1 SWAP2 SUB SWAP1 REVERT JUMPDEST PUSH1 0x0 DUP1 SHL PUSH1 0x7 PUSH1 0x0 DUP4 DUP2 MSTORE PUSH1 0x20 ADD SWAP1 DUP2 MSTORE PUSH1 0x20 ADD PUSH1 0x0 KECCAK256 SLOAD SUB PUSH2 0x17EF JUMPI PUSH1 0x40 MLOAD PUSH32 0x38F5FC3500000000000000000000000000000000000000000000000000000000 DUP2 MSTORE PUSH1 0x4 ADD PUSH1 0x40 MLOAD DUP1 SWAP2 SUB SWAP1 REVERT JUMPDEST POP POP POP POP POP JUMP JUMPDEST PUSH2 0x17FE PUSH2 0x1ABF JUMP JUMPDEST PUSH20 0xFFFFFFFFFFFFFFFFFFFFFFFFFFFFFFFFFFFFFFFF AND PUSH2 0x181C PUSH2 0xEDB JUMP JUMPDEST PUSH20 0xFFFFFFFFFFFFFFFFFFFFFFFFFFFFFFFFFFFFFFFF AND EQ PUSH2 0x1872 JUMPI PUSH1 0x40 MLOAD PUSH32 0x8C379A000000000000000000000000000000000000000000000000000000000 DUP2 MSTORE PUSH1 0x4 ADD PUSH2 0x1869 SWAP1 PUSH2 0x2BC2 JUMP JUMPDEST PUSH1 0x40 MLOAD DUP1 SWAP2 SUB SWAP1 REVERT JUMPDEST JUMP JUMPDEST PUSH1 0x0 DUP1 PUSH1 0x0 SWAP1 SLOAD SWAP1 PUSH2 0x100 EXP SWAP1 DIV PUSH20 0xFFFFFFFFFFFFFFFFFFFFFFFFFFFFFFFFFFFFFFFF AND SWAP1 POP DUP2 PUSH1 0x0 DUP1 PUSH2 0x100 EXP DUP2 SLOAD DUP2 PUSH20 0xFFFFFFFFFFFFFFFFFFFFFFFFFFFFFFFFFFFFFFFF MUL NOT AND SWAP1 DUP4 PUSH20 0xFFFFFFFFFFFFFFFFFFFFFFFFFFFFFFFFFFFFFFFF AND MUL OR SWAP1 SSTORE POP DUP2 PUSH20 0xFFFFFFFFFFFFFFFFFFFFFFFFFFFFFFFFFFFFFFFF AND DUP2 PUSH20 0xFFFFFFFFFFFFFFFFFFFFFFFFFFFFFFFFFFFFFFFF AND PUSH32 0x8BE0079C531659141344CD1FD0A4F28419497F9722A3DAAFE3B4186F6B6457E0 PUSH1 0x40 MLOAD PUSH1 0x40 MLOAD DUP1 SWAP2 SUB SWAP1 LOG3 POP POP JUMP JUMPDEST PUSH1 0x0 DUP1 PUSH1 0x0 DUP1 PUSH1 0x0 PUSH1 0x8 PUSH1 0x0 DUP9 DUP2 MSTORE PUSH1 0x20 ADD SWAP1 DUP2 MSTORE PUSH1 0x20 ADD PUSH1 0x0 KECCAK256 PUSH1 0x4 ADD SLOAD SWAP1 POP PUSH3 0x186A0 DUP7 PUSH12 0xFFFFFFFFFFFFFFFFFFFFFFFF AND DUP3 PUSH2 0x1977 SWAP2 SWAP1 PUSH2 0x2BE2 JUMP JUMPDEST PUSH2 0x1981 SWAP2 SWAP1 PUSH2 0x2C53 JUMP JUMPDEST SWAP4 POP PUSH3 0x186A0 PUSH1 0x0 PUSH1 0x14 SWAP1 SLOAD SWAP1 PUSH2 0x100 EXP SWAP1 DIV PUSH8 0xFFFFFFFFFFFFFFFF AND PUSH8 0xFFFFFFFFFFFFFFFF AND DUP6 PUSH2 0x19B3 SWAP2 SWAP1 PUSH2 0x2BE2 JUMP JUMPDEST PUSH2 0x19BD SWAP2 SWAP1 PUSH2 0x2BE2 JUMP JUMPDEST SWAP5 POP DUP5 DUP5 PUSH2 0x19CB SWAP2 SWAP1 PUSH2 0x2C84 JUMP JUMPDEST SWAP4 POP PUSH3 0x186A0 PUSH1 0x1 PUSH1 0x0 SWAP1 SLOAD SWAP1 PUSH2 0x100 EXP SWAP1 DIV PUSH8 0xFFFFFFFFFFFFFFFF AND PUSH8 0xFFFFFFFFFFFFFFFF AND DUP7 PUSH2 0x19FD SWAP2 SWAP1 PUSH2 0x2BE2 JUMP JUMPDEST PUSH2 0x1A07 SWAP2 SWAP1 PUSH2 0x2C53 JUMP JUMPDEST SWAP3 POP PUSH3 0x186A0 PUSH1 0x1 PUSH1 0x8 SWAP1 SLOAD SWAP1 PUSH2 0x100 EXP SWAP1 DIV PUSH8 0xFFFFFFFFFFFFFFFF AND PUSH8 0xFFFFFFFFFFFFFFFF AND DUP7 PUSH2 0x1A39 SWAP2 SWAP1 PUSH2 0x2BE2 JUMP JUMPDEST PUSH2 0x1A43 SWAP2 SWAP1 PUSH2 0x2C53 JUMP JUMPDEST SWAP2 POP DUP2 DUP4 PUSH2 0x1A51 SWAP2 SWAP1 PUSH2 0x2CB8 JUMP JUMPDEST DUP6 PUSH2 0x1A5C SWAP2 SWAP1 PUSH2 0x2C84 JUMP JUMPDEST SWAP5 POP POP SWAP3 SWAP6 SWAP2 SWAP5 POP SWAP3 POP JUMP JUMPDEST PUSH1 0x0 DUP2 PUSH1 0x40 MLOAD PUSH1 0x20 ADD PUSH2 0x1A7B SWAP2 SWAP1 PUSH2 0x2D64 JUMP JUMPDEST PUSH1 0x40 MLOAD PUSH1 0x20 DUP2 DUP4 SUB SUB DUP2 MSTORE SWAP1 PUSH1 0x40 MSTORE DUP1 MLOAD SWAP1 PUSH1 0x20 ADD KECCAK256 SWAP1 POP SWAP2 SWAP1 POP JUMP JUMPDEST PUSH1 0x0 DUP1 PUSH1 0x0 PUSH2 0x1AA7 DUP6 DUP6 PUSH2 0x1AC7 JUMP JUMPDEST SWAP2 POP SWAP2 POP PUSH2 0x1AB4 DUP2 PUSH2 0x1B18 JUMP JUMPDEST DUP2 SWAP3 POP POP POP SWAP3 SWAP2 POP POP JUMP JUMPDEST PUSH1 0x0 CALLER SWAP1 POP SWAP1 JUMP JUMPDEST PUSH1 0x0 DUP1 PUSH1 0x41 DUP4 MLOAD SUB PUSH2 0x1B08 JUMPI PUSH1 0x0 DUP1 PUSH1 0x0 PUSH1 0x20 DUP7 ADD MLOAD SWAP3 POP PUSH1 0x40 DUP7 ADD MLOAD SWAP2 POP PUSH1 0x60 DUP7 ADD MLOAD PUSH1 0x0 BYTE SWAP1 POP PUSH2 0x1AFC DUP8 DUP3 DUP6 DUP6 PUSH2 0x1C7E JUMP JUMPDEST SWAP5 POP SWAP5 POP POP POP POP PUSH2 0x1B11 JUMP JUMPDEST PUSH1 0x0 PUSH1 0x2 SWAP2 POP SWAP2 POP JUMPDEST SWAP3 POP SWAP3 SWAP1 POP JUMP JUMPDEST PUSH1 0x0 PUSH1 0x4 DUP2 GT ISZERO PUSH2 0x1B2C JUMPI PUSH2 0x1B2B PUSH2 0x2D8A JUMP JUMPDEST JUMPDEST DUP2 PUSH1 0x4 DUP2 GT ISZERO PUSH2 0x1B3F JUMPI PUSH2 0x1B3E PUSH2 0x2D8A JUMP JUMPDEST JUMPDEST SUB ISZERO PUSH2 0x1C7B JUMPI PUSH1 0x1 PUSH1 0x4 DUP2 GT ISZERO PUSH2 0x1B59 JUMPI PUSH2 0x1B58 PUSH2 0x2D8A JUMP JUMPDEST JUMPDEST DUP2 PUSH1 0x4 DUP2 GT ISZERO PUSH2 0x1B6C JUMPI PUSH2 0x1B6B PUSH2 0x2D8A JUMP JUMPDEST JUMPDEST SUB PUSH2 0x1BAC JUMPI PUSH1 0x40 MLOAD PUSH32 0x8C379A000000000000000000000000000000000000000000000000000000000 DUP2 MSTORE PUSH1 0x4 ADD PUSH2 0x1BA3 SWAP1 PUSH2 0x2E05 JUMP JUMPDEST PUSH1 0x40 MLOAD DUP1 SWAP2 SUB SWAP1 REVERT JUMPDEST PUSH1 0x2 PUSH1 0x4 DUP2 GT ISZERO PUSH2 0x1BC0 JUMPI PUSH2 0x1BBF PUSH2 0x2D8A JUMP JUMPDEST JUMPDEST DUP2 PUSH1 0x4 DUP2 GT ISZERO PUSH2 0x1BD3 JUMPI PUSH2 0x1BD2 PUSH2 0x2D8A JUMP JUMPDEST JUMPDEST SUB PUSH2 0x1C13 JUMPI PUSH1 0x40 MLOAD PUSH32 0x8C379A000000000000000000000000000000000000000000000000000000000 DUP2 MSTORE PUSH1 0x4 ADD PUSH2 0x1C0A SWAP1 PUSH2 0x2E71 JUMP JUMPDEST PUSH1 0x40 MLOAD DUP1 SWAP2 SUB SWAP1 REVERT JUMPDEST PUSH1 0x3 PUSH1 0x4 DUP2 GT ISZERO PUSH2 0x1C27 JUMPI PUSH2 0x1C26 PUSH2 0x2D8A JUMP JUMPDEST JUMPDEST DUP2 PUSH1 0x4 DUP2 GT ISZERO PUSH2 0x1C3A JUMPI PUSH2 0x1C39 PUSH2 0x2D8A JUMP JUMPDEST JUMPDEST SUB PUSH2 0x1C7A JUMPI PUSH1 0x40 MLOAD PUSH32 0x8C379A000000000000000000000000000000000000000000000000000000000 DUP2 MSTORE PUSH1 0x4 ADD PUSH2 0x1C71 SWAP1 PUSH2 0x2F03 JUMP JUMPDEST PUSH1 0x40 MLOAD DUP1 SWAP2 SUB SWAP1 REVERT JUMPDEST JUMPDEST POP JUMP JUMPDEST PUSH1 0x0 DUP1 PUSH32 0x7FFFFFFFFFFFFFFFFFFFFFFFFFFFFFFF5D576E7357A4501DDFE92F46681B20A0 DUP4 PUSH1 0x0 SHR GT ISZERO PUSH2 0x1CB9 JUMPI PUSH1 0x0 PUSH1 0x3 SWAP2 POP SWAP2 POP PUSH2 0x1D57 JUMP JUMPDEST PUSH1 0x0 PUSH1 0x1 DUP8 DUP8 DUP8 DUP8 PUSH1 0x40 MLOAD PUSH1 0x0 DUP2 MSTORE PUSH1 0x20 ADD PUSH1 0x40 MSTORE PUSH1 0x40 MLOAD PUSH2 0x1CDE SWAP5 SWAP4 SWAP3 SWAP2 SWAP1 PUSH2 0x2F3F JUMP JUMPDEST PUSH1 0x20 PUSH1 0x40 MLOAD PUSH1 0x20 DUP2 SUB SWAP1 DUP1 DUP5 SUB SWAP1 DUP6 GAS STATICCALL ISZERO DUP1 ISZERO PUSH2 0x1D00 JUMPI RETURNDATASIZE PUSH1 0x0 DUP1 RETURNDATACOPY RETURNDATASIZE PUSH1 0x0 REVERT JUMPDEST POP POP POP PUSH1 0x20 PUSH1 0x40 MLOAD SUB MLOAD SWAP1 POP PUSH1 0x0 PUSH20 0xFFFFFFFFFFFFFFFFFFFFFFFFFFFFFFFFFFFFFFFF AND DUP2 PUSH20 0xFFFFFFFFFFFFFFFFFFFFFFFFFFFFFFFFFFFFFFFF AND SUB PUSH2 0x1D4E JUMPI PUSH1 0x0 PUSH1 0x1 SWAP3 POP SWAP3 POP POP PUSH2 0x1D57 JUMP JUMPDEST DUP1 PUSH1 0x0 SWAP3 POP SWAP3 POP POP JUMPDEST SWAP5 POP SWAP5 SWAP3 POP POP POP JUMP JUMPDEST PUSH1 0x40 MLOAD DUP1 PUSH1 0x40 ADD PUSH1 0x40 MSTORE DUP1 PUSH1 0x0 DUP1 NOT AND DUP2 MSTORE PUSH1 0x20 ADD PUSH1 0x0 DUP1 NOT AND DUP2 MSTORE POP SWAP1 JUMP JUMPDEST PUSH1 0x0 PUSH1 0x40 MLOAD SWAP1 POP SWAP1 JUMP JUMPDEST PUSH1 0x0 DUP1 REVERT JUMPDEST PUSH1 0x0 DUP1 REVERT JUMPDEST PUSH1 0x0 DUP2 SWAP1 POP SWAP2 SWAP1 POP JUMP JUMPDEST PUSH2 0x1DA7 DUP2 PUSH2 0x1D94 JUMP JUMPDEST DUP2 EQ PUSH2 0x1DB2 JUMPI PUSH1 0x0 DUP1 REVERT JUMPDEST POP JUMP JUMPDEST PUSH1 0x0 DUP2 CALLDATALOAD SWAP1 POP PUSH2 0x1DC4 DUP2 PUSH2 0x1D9E JUMP JUMPDEST SWAP3 SWAP2 POP POP JUMP JUMPDEST PUSH1 0x0 PUSH1 0x20 DUP3 DUP5 SUB SLT ISZERO PUSH2 0x1DE0 JUMPI PUSH2 0x1DDF PUSH2 0x1D8A JUMP JUMPDEST JUMPDEST PUSH1 0x0 PUSH2 0x1DEE DUP5 DUP3 DUP6 ADD PUSH2 0x1DB5 JUMP JUMPDEST SWAP2 POP POP SWAP3 SWAP2 POP POP JUMP JUMPDEST PUSH1 0x0 DUP2 MLOAD SWAP1 POP SWAP2 SWAP1 POP JUMP JUMPDEST PUSH1 0x0 DUP3 DUP3 MSTORE PUSH1 0x20 DUP3 ADD SWAP1 POP SWAP3 SWAP2 POP POP JUMP JUMPDEST PUSH1 0x0 DUP2 SWAP1 POP PUSH1 0x20 DUP3 ADD SWAP1 POP SWAP2 SWAP1 POP JUMP JUMPDEST PUSH2 0x1E2C DUP2 PUSH2 0x1D94 JUMP JUMPDEST DUP3 MSTORE POP POP JUMP JUMPDEST PUSH1 0x40 DUP3 ADD PUSH1 0x0 DUP3 ADD MLOAD PUSH2 0x1E48 PUSH1 0x0 DUP6 ADD DUP3 PUSH2 0x1E23 JUMP JUMPDEST POP PUSH1 0x20 DUP3 ADD MLOAD PUSH2 0x1E5B PUSH1 0x20 DUP6 ADD DUP3 PUSH2 0x1E23 JUMP JUMPDEST POP POP POP POP JUMP JUMPDEST PUSH1 0x0 PUSH2 0x1E6D DUP4 DUP4 PUSH2 0x1E32 JUMP JUMPDEST PUSH1 0x40 DUP4 ADD SWAP1 POP SWAP3 SWAP2 POP POP JUMP JUMPDEST PUSH1 0x0 PUSH1 0x20 DUP3 ADD SWAP1 POP SWAP2 SWAP1 POP JUMP JUMPDEST PUSH1 0x0 PUSH2 0x1E91 DUP3 PUSH2 0x1DF7 JUMP JUMPDEST PUSH2 0x1E9B DUP2 DUP6 PUSH2 0x1E02 JUMP JUMPDEST SWAP4 POP PUSH2 0x1EA6 DUP4 PUSH2 0x1E13 JUMP JUMPDEST DUP1 PUSH1 0x0 JUMPDEST DUP4 DUP2 LT ISZERO PUSH2 0x1ED7 JUMPI DUP2 MLOAD PUSH2 0x1EBE DUP9 DUP3 PUSH2 0x1E61 JUMP JUMPDEST SWAP8 POP PUSH2 0x1EC9 DUP4 PUSH2 0x1E79 JUMP JUMPDEST SWAP3 POP POP PUSH1 0x1 DUP2 ADD SWAP1 POP PUSH2 0x1EAA JUMP JUMPDEST POP DUP6 SWAP4 POP POP POP POP SWAP3 SWAP2 POP POP JUMP JUMPDEST PUSH1 0x0 PUSH1 0x20 DUP3 ADD SWAP1 POP DUP2 DUP2 SUB PUSH1 0x0 DUP4 ADD MSTORE PUSH2 0x1EFE DUP2 DUP5 PUSH2 0x1E86 JUMP JUMPDEST SWAP1 POP SWAP3 SWAP2 POP POP JUMP JUMPDEST PUSH1 0x0 PUSH20 0xFFFFFFFFFFFFFFFFFFFFFFFFFFFFFFFFFFFFFFFF DUP3 AND SWAP1 POP SWAP2 SWAP1 POP JUMP JUMPDEST PUSH1 0x0 PUSH2 0x1F31 DUP3 PUSH2 0x1F06 JUMP JUMPDEST SWAP1 POP SWAP2 SWAP1 POP JUMP JUMPDEST PUSH2 0x1F41 DUP2 PUSH2 0x1F26 JUMP JUMPDEST DUP2 EQ PUSH2 0x1F4C JUMPI PUSH1 0x0 DUP1 REVERT JUMPDEST POP JUMP JUMPDEST PUSH1 0x0 DUP2 CALLDATALOAD SWAP1 POP PUSH2 0x1F5E DUP2 PUSH2 0x1F38 JUMP JUMPDEST SWAP3 SWAP2 POP POP JUMP JUMPDEST PUSH1 0x0 DUP2 SWAP1 POP SWAP2 SWAP1 POP JUMP JUMPDEST PUSH2 0x1F77 DUP2 PUSH2 0x1F64 JUMP JUMPDEST DUP2 EQ PUSH2 0x1F82 JUMPI PUSH1 0x0 DUP1 REVERT JUMPDEST POP JUMP JUMPDEST PUSH1 0x0 DUP2 CALLDATALOAD SWAP1 POP PUSH2 0x1F94 DUP2 PUSH2 0x1F6E JUMP JUMPDEST SWAP3 SWAP2 POP POP JUMP JUMPDEST PUSH1 0x0 PUSH12 0xFFFFFFFFFFFFFFFFFFFFFFFF DUP3 AND SWAP1 POP SWAP2 SWAP1 POP JUMP JUMPDEST PUSH2 0x1FBB DUP2 PUSH2 0x1F9A JUMP JUMPDEST DUP2 EQ PUSH2 0x1FC6 JUMPI PUSH1 0x0 DUP1 REVERT JUMPDEST POP JUMP JUMPDEST PUSH1 0x0 DUP2 CALLDATALOAD SWAP1 POP PUSH2 0x1FD8 DUP2 PUSH2 0x1FB2 JUMP JUMPDEST SWAP3 SWAP2 POP POP JUMP JUMPDEST PUSH1 0x0 DUP1 REVERT JUMPDEST PUSH1 0x0 DUP1 REVERT JUMPDEST PUSH1 0x0 PUSH1 0x1F NOT PUSH1 0x1F DUP4 ADD AND SWAP1 POP SWAP2 SWAP1 POP JUMP JUMPDEST PUSH32 0x4E487B7100000000000000000000000000000000000000000000000000000000 PUSH1 0x0 MSTORE PUSH1 0x41 PUSH1 0x4 MSTORE PUSH1 0x24 PUSH1 0x0 REVERT JUMPDEST PUSH2 0x2031 DUP3 PUSH2 0x1FE8 JUMP JUMPDEST DUP2 ADD DUP2 DUP2 LT PUSH8 0xFFFFFFFFFFFFFFFF DUP3 GT OR ISZERO PUSH2 0x2050 JUMPI PUSH2 0x204F PUSH2 0x1FF9 JUMP JUMPDEST JUMPDEST DUP1 PUSH1 0x40 MSTORE POP POP POP JUMP JUMPDEST PUSH1 0x0 PUSH2 0x2063 PUSH2 0x1D80 JUMP JUMPDEST SWAP1 POP PUSH2 0x206F DUP3 DUP3 PUSH2 0x2028 JUMP JUMPDEST SWAP2 SWAP1 POP JUMP JUMPDEST PUSH1 0x0 PUSH8 0xFFFFFFFFFFFFFFFF DUP3 GT ISZERO PUSH2 0x208F JUMPI PUSH2 0x208E PUSH2 0x1FF9 JUMP JUMPDEST JUMPDEST PUSH2 0x2098 DUP3 PUSH2 0x1FE8 JUMP JUMPDEST SWAP1 POP PUSH1 0x20 DUP2 ADD SWAP1 POP SWAP2 SWAP1 POP JUMP JUMPDEST DUP3 DUP2 DUP4 CALLDATACOPY PUSH1 0x0 DUP4 DUP4 ADD MSTORE POP POP POP JUMP JUMPDEST PUSH1 0x0 PUSH2 0x20C7 PUSH2 0x20C2 DUP5 PUSH2 0x2074 JUMP JUMPDEST PUSH2 0x2059 JUMP JUMPDEST SWAP1 POP DUP3 DUP2 MSTORE PUSH1 0x20 DUP2 ADD DUP5 DUP5 DUP5 ADD GT ISZERO PUSH2 0x20E3 JUMPI PUSH2 0x20E2 PUSH2 0x1FE3 JUMP JUMPDEST JUMPDEST PUSH2 0x20EE DUP5 DUP3 DUP6 PUSH2 0x20A5 JUMP JUMPDEST POP SWAP4 SWAP3 POP POP POP JUMP JUMPDEST PUSH1 0x0 DUP3 PUSH1 0x1F DUP4 ADD SLT PUSH2 0x210B JUMPI PUSH2 0x210A PUSH2 0x1FDE JUMP JUMPDEST JUMPDEST DUP2 CALLDATALOAD PUSH2 0x211B DUP5 DUP3 PUSH1 0x20 DUP7 ADD PUSH2 0x20B4 JUMP JUMPDEST SWAP2 POP POP SWAP3 SWAP2 POP POP JUMP JUMPDEST PUSH1 0x0 DUP1 PUSH1 0x0 DUP1 PUSH1 0x0 DUP1 PUSH1 0x0 PUSH1 0xE0 DUP9 DUP11 SUB SLT ISZERO PUSH2 0x2143 JUMPI PUSH2 0x2142 PUSH2 0x1D8A JUMP JUMPDEST JUMPDEST PUSH1 0x0 PUSH2 0x2151 DUP11 DUP3 DUP12 ADD PUSH2 0x1F4F JUMP JUMPDEST SWAP8 POP POP PUSH1 0x20 PUSH2 0x2162 DUP11 DUP3 DUP12 ADD PUSH2 0x1F85 JUMP JUMPDEST SWAP7 POP POP PUSH1 0x40 PUSH2 0x2173 DUP11 DUP3 DUP12 ADD PUSH2 0x1F4F JUMP JUMPDEST SWAP6 POP POP PUSH1 0x60 PUSH2 0x2184 DUP11 DUP3 DUP12 ADD PUSH2 0x1FC9 JUMP JUMPDEST SWAP5 POP POP PUSH1 0x80 PUSH2 0x2195 DUP11 DUP3 DUP12 ADD PUSH2 0x1DB5 JUMP JUMPDEST SWAP4 POP POP PUSH1 0xA0 PUSH2 0x21A6 DUP11 DUP3 DUP12 ADD PUSH2 0x1DB5 JUMP JUMPDEST SWAP3 POP POP PUSH1 0xC0 DUP9 ADD CALLDATALOAD PUSH8 0xFFFFFFFFFFFFFFFF DUP2 GT ISZERO PUSH2 0x21C7 JUMPI PUSH2 0x21C6 PUSH2 0x1D8F JUMP JUMPDEST JUMPDEST PUSH2 0x21D3 DUP11 DUP3 DUP12 ADD PUSH2 0x20F6 JUMP JUMPDEST SWAP2 POP POP SWAP3 SWAP6 SWAP9 SWAP2 SWAP5 SWAP8 POP SWAP3 SWAP6 POP JUMP JUMPDEST PUSH2 0x21EB DUP2 PUSH2 0x1D94 JUMP JUMPDEST DUP3 MSTORE POP POP JUMP JUMPDEST PUSH1 0x0 PUSH1 0x20 DUP3 ADD SWAP1 POP PUSH2 0x2206 PUSH1 0x0 DUP4 ADD DUP5 PUSH2 0x21E2 JUMP JUMPDEST SWAP3 SWAP2 POP POP JUMP JUMPDEST PUSH2 0x2215 DUP2 PUSH2 0x1F26 JUMP JUMPDEST DUP3 MSTORE POP POP JUMP JUMPDEST PUSH1 0x0 PUSH1 0x20 DUP3 ADD SWAP1 POP PUSH2 0x2230 PUSH1 0x0 DUP4 ADD DUP5 PUSH2 0x220C JUMP JUMPDEST SWAP3 SWAP2 POP POP JUMP JUMPDEST PUSH1 0x0 PUSH8 0xFFFFFFFFFFFFFFFF DUP3 GT ISZERO PUSH2 0x2251 JUMPI PUSH2 0x2250 PUSH2 0x1FF9 JUMP JUMPDEST JUMPDEST PUSH1 0x20 DUP3 MUL SWAP1 POP PUSH1 0x20 DUP2 ADD SWAP1 POP SWAP2 SWAP1 POP JUMP JUMPDEST PUSH1 0x0 DUP1 REVERT JUMPDEST PUSH1 0x0 DUP1 REVERT JUMPDEST PUSH1 0x0 PUSH1 0x40 DUP3 DUP5 SUB SLT ISZERO PUSH2 0x2282 JUMPI PUSH2 0x2281 PUSH2 0x2267 JUMP JUMPDEST JUMPDEST PUSH2 0x228C PUSH1 0x40 PUSH2 0x2059 JUMP JUMPDEST SWAP1 POP PUSH1 0x0 PUSH2 0x229C DUP5 DUP3 DUP6 ADD PUSH2 0x1DB5 JUMP JUMPDEST PUSH1 0x0 DUP4 ADD MSTORE POP PUSH1 0x20 PUSH2 0x22B0 DUP5 DUP3 DUP6 ADD PUSH2 0x1DB5 JUMP JUMPDEST PUSH1 0x20 DUP4 ADD MSTORE POP SWAP3 SWAP2 POP POP JUMP JUMPDEST PUSH1 0x0 PUSH2 0x22CF PUSH2 0x22CA DUP5 PUSH2 0x2236 JUMP JUMPDEST PUSH2 0x2059 JUMP JUMPDEST SWAP1 POP DUP1 DUP4 DUP3 MSTORE PUSH1 0x20 DUP3 ADD SWAP1 POP PUSH1 0x40 DUP5 MUL DUP4 ADD DUP6 DUP2 GT ISZERO PUSH2 0x22F2 JUMPI PUSH2 0x22F1 PUSH2 0x2262 JUMP JUMPDEST JUMPDEST DUP4 JUMPDEST DUP2 DUP2 LT ISZERO PUSH2 0x231B JUMPI DUP1 PUSH2 0x2307 DUP9 DUP3 PUSH2 0x226C JUMP JUMPDEST DUP5 MSTORE PUSH1 0x20 DUP5 ADD SWAP4 POP POP PUSH1 0x40 DUP2 ADD SWAP1 POP PUSH2 0x22F4 JUMP JUMPDEST POP POP POP SWAP4 SWAP3 POP POP POP JUMP JUMPDEST PUSH1 0x0 DUP3 PUSH1 0x1F DUP4 ADD SLT PUSH2 0x233A JUMPI PUSH2 0x2339 PUSH2 0x1FDE JUMP JUMPDEST JUMPDEST DUP2 CALLDATALOAD PUSH2 0x234A DUP5 DUP3 PUSH1 0x20 DUP7 ADD PUSH2 0x22BC JUMP JUMPDEST SWAP2 POP POP SWAP3 SWAP2 POP POP JUMP JUMPDEST PUSH1 0x0 DUP1 PUSH1 0x40 DUP4 DUP6 SUB SLT ISZERO PUSH2 0x236A JUMPI PUSH2 0x2369 PUSH2 0x1D8A JUMP JUMPDEST JUMPDEST PUSH1 0x0 PUSH2 0x2378 DUP6 DUP3 DUP7 ADD PUSH2 0x1DB5 JUMP JUMPDEST SWAP3 POP POP PUSH1 0x20 DUP4 ADD CALLDATALOAD PUSH8 0xFFFFFFFFFFFFFFFF DUP2 GT ISZERO PUSH2 0x2399 JUMPI PUSH2 0x2398 PUSH2 0x1D8F JUMP JUMPDEST JUMPDEST PUSH2 0x23A5 DUP6 DUP3 DUP7 ADD PUSH2 0x2325 JUMP JUMPDEST SWAP2 POP POP SWAP3 POP SWAP3 SWAP1 POP JUMP JUMPDEST PUSH1 0x0 DUP1 PUSH1 0x40 DUP4 DUP6 SUB SLT ISZERO PUSH2 0x23C6 JUMPI PUSH2 0x23C5 PUSH2 0x1D8A JUMP JUMPDEST JUMPDEST PUSH1 0x0 PUSH2 0x23D4 DUP6 DUP3 DUP7 ADD PUSH2 0x1DB5 JUMP JUMPDEST SWAP3 POP POP PUSH1 0x20 PUSH2 0x23E5 DUP6 DUP3 DUP7 ADD PUSH2 0x1F4F JUMP JUMPDEST SWAP2 POP POP SWAP3 POP SWAP3 SWAP1 POP JUMP JUMPDEST PUSH1 0x0 DUP2 ISZERO ISZERO SWAP1 POP SWAP2 SWAP1 POP JUMP JUMPDEST PUSH2 0x2404 DUP2 PUSH2 0x23EF JUMP JUMPDEST DUP3 MSTORE POP POP JUMP JUMPDEST PUSH1 0x0 PUSH1 0x20 DUP3 ADD SWAP1 POP PUSH2 0x241F PUSH1 0x0 DUP4 ADD DUP5 PUSH2 0x23FB JUMP JUMPDEST SWAP3 SWAP2 POP POP JUMP JUMPDEST PUSH1 0x0 PUSH1 0x20 DUP3 DUP5 SUB SLT ISZERO PUSH2 0x243B JUMPI PUSH2 0x243A PUSH2 0x1D8A JUMP JUMPDEST JUMPDEST PUSH1 0x0 PUSH2 0x2449 DUP5 DUP3 DUP6 ADD PUSH2 0x1F4F JUMP JUMPDEST SWAP2 POP POP SWAP3 SWAP2 POP POP JUMP JUMPDEST PUSH1 0x0 PUSH8 0xFFFFFFFFFFFFFFFF DUP3 AND SWAP1 POP SWAP2 SWAP1 POP JUMP JUMPDEST PUSH2 0x246F DUP2 PUSH2 0x2452 JUMP JUMPDEST DUP2 EQ PUSH2 0x247A JUMPI PUSH1 0x0 DUP1 REVERT JUMPDEST POP JUMP JUMPDEST PUSH1 0x0 DUP2 CALLDATALOAD SWAP1 POP PUSH2 0x248C DUP2 PUSH2 0x2466 JUMP JUMPDEST SWAP3 SWAP2 POP POP JUMP JUMPDEST PUSH1 0x0 DUP1 PUSH1 0x0 PUSH1 0x60 DUP5 DUP7 SUB SLT ISZERO PUSH2 0x24AB JUMPI PUSH2 0x24AA PUSH2 0x1D8A JUMP JUMPDEST JUMPDEST PUSH1 0x0 PUSH2 0x24B9 DUP7 DUP3 DUP8 ADD PUSH2 0x247D JUMP JUMPDEST SWAP4 POP POP PUSH1 0x20 PUSH2 0x24CA DUP7 DUP3 DUP8 ADD PUSH2 0x247D JUMP JUMPDEST SWAP3 POP POP PUSH1 0x40 PUSH2 0x24DB DUP7 DUP3 DUP8 ADD PUSH2 0x247D JUMP JUMPDEST SWAP2 POP POP SWAP3 POP SWAP3 POP SWAP3 JUMP JUMPDEST PUSH2 0x24EE DUP2 PUSH2 0x23EF JUMP JUMPDEST DUP2 EQ PUSH2 0x24F9 JUMPI PUSH1 0x0 DUP1 REVERT JUMPDEST POP JUMP JUMPDEST PUSH1 0x0 DUP2 CALLDATALOAD SWAP1 POP PUSH2 0x250B DUP2 PUSH2 0x24E5 JUMP JUMPDEST SWAP3 SWAP2 POP POP JUMP JUMPDEST PUSH1 0x0 DUP1 PUSH1 0x0 PUSH1 0x60 DUP5 DUP7 SUB SLT ISZERO PUSH2 0x252A JUMPI PUSH2 0x2529 PUSH2 0x1D8A JUMP JUMPDEST JUMPDEST PUSH1 0x0 PUSH2 0x2538 DUP7 DUP3 DUP8 ADD PUSH2 0x1DB5 JUMP JUMPDEST SWAP4 POP POP PUSH1 0x20 PUSH2 0x2549 DUP7 DUP3 DUP8 ADD PUSH2 0x1F4F JUMP JUMPDEST SWAP3 POP POP PUSH1 0x40 PUSH2 0x255A DUP7 DUP3 DUP8 ADD PUSH2 0x24FC JUMP JUMPDEST SWAP2 POP POP SWAP3 POP SWAP3 POP SWAP3 JUMP JUMPDEST PUSH2 0x256D DUP2 PUSH2 0x2452 JUMP JUMPDEST DUP3 MSTORE POP POP JUMP JUMPDEST PUSH2 0x257C DUP2 PUSH2 0x1F64 JUMP JUMPDEST DUP3 MSTORE POP POP JUMP JUMPDEST PUSH1 0x0 PUSH1 0x80 DUP3 ADD SWAP1 POP PUSH2 0x2597 PUSH1 0x0 DUP4 ADD DUP8 PUSH2 0x2564 JUMP JUMPDEST PUSH2 0x25A4 PUSH1 0x20 DUP4 ADD DUP7 PUSH2 0x2564 JUMP JUMPDEST PUSH2 0x25B1 PUSH1 0x40 DUP4 ADD DUP6 PUSH2 0x2564 JUMP JUMPDEST PUSH2 0x25BE PUSH1 0x60 DUP4 ADD DUP5 PUSH2 0x2573 JUMP JUMPDEST SWAP6 SWAP5 POP POP POP POP POP JUMP JUMPDEST PUSH1 0x0 PUSH1 0x20 DUP3 ADD SWAP1 POP PUSH2 0x25DC PUSH1 0x0 DUP4 ADD DUP5 PUSH2 0x2573 JUMP JUMPDEST SWAP3 SWAP2 POP POP JUMP JUMPDEST PUSH1 0x0 DUP1 REVERT JUMPDEST PUSH1 0x0 DUP1 DUP4 PUSH1 0x1F DUP5 ADD SLT PUSH2 0x25FD JUMPI PUSH2 0x25FC PUSH2 0x1FDE JUMP JUMPDEST JUMPDEST DUP3 CALLDATALOAD SWAP1 POP PUSH8 0xFFFFFFFFFFFFFFFF DUP2 GT ISZERO PUSH2 0x261A JUMPI PUSH2 0x2619 PUSH2 0x25E2 JUMP JUMPDEST JUMPDEST PUSH1 0x20 DUP4 ADD SWAP2 POP DUP4 PUSH1 0x20 DUP3 MUL DUP4 ADD GT ISZERO PUSH2 0x2636 JUMPI PUSH2 0x2635 PUSH2 0x2262 JUMP JUMPDEST JUMPDEST SWAP3 POP SWAP3 SWAP1 POP JUMP JUMPDEST PUSH1 0x0 DUP1 PUSH1 0x0 DUP1 PUSH1 0x0 DUP1 PUSH1 0xA0 DUP8 DUP10 SUB SLT ISZERO PUSH2 0x265A JUMPI PUSH2 0x2659 PUSH2 0x1D8A JUMP JUMPDEST JUMPDEST PUSH1 0x0 PUSH2 0x2668 DUP10 DUP3 DUP11 ADD PUSH2 0x1DB5 JUMP JUMPDEST SWAP7 POP POP PUSH1 0x20 PUSH2 0x2679 DUP10 DUP3 DUP11 ADD PUSH2 0x1F4F JUMP JUMPDEST SWAP6 POP POP PUSH1 0x40 DUP8 ADD CALLDATALOAD PUSH8 0xFFFFFFFFFFFFFFFF DUP2 GT ISZERO PUSH2 0x269A JUMPI PUSH2 0x2699 PUSH2 0x1D8F JUMP JUMPDEST JUMPDEST PUSH2 0x26A6 DUP10 DUP3 DUP11 ADD PUSH2 0x25E7 JUMP JUMPDEST SWAP5 POP SWAP5 POP POP PUSH1 0x60 PUSH2 0x26B9 DUP10 DUP3 DUP11 ADD PUSH2 0x1F4F JUMP JUMPDEST SWAP3 POP POP PUSH1 0x80 PUSH2 0x26CA DUP10 DUP3 DUP11 ADD PUSH2 0x1FC9 JUMP JUMPDEST SWAP2 POP POP SWAP3 SWAP6 POP SWAP3 SWAP6 POP SWAP3 SWAP6 JUMP JUMPDEST PUSH32 0x4E487B7100000000000000000000000000000000000000000000000000000000 PUSH1 0x0 MSTORE PUSH1 0x32 PUSH1 0x4 MSTORE PUSH1 0x24 PUSH1 0x0 REVERT JUMPDEST PUSH1 0x0 PUSH1 0x60 DUP3 ADD SWAP1 POP PUSH2 0x271B PUSH1 0x0 DUP4 ADD DUP7 PUSH2 0x220C JUMP JUMPDEST PUSH2 0x2728 PUSH1 0x20 DUP4 ADD DUP6 PUSH2 0x220C JUMP JUMPDEST PUSH2 0x2735 PUSH1 0x40 DUP4 ADD DUP5 PUSH2 0x2573 JUMP JUMPDEST SWAP5 SWAP4 POP POP POP POP JUMP JUMPDEST PUSH1 0x0 DUP2 MLOAD SWAP1 POP PUSH2 0x274C DUP2 PUSH2 0x24E5 JUMP JUMPDEST SWAP3 SWAP2 POP POP JUMP JUMPDEST PUSH1 0x0 PUSH1 0x20 DUP3 DUP5 SUB SLT ISZERO PUSH2 0x2768 JUMPI PUSH2 0x2767 PUSH2 0x1D8A JUMP JUMPDEST JUMPDEST PUSH1 0x0 PUSH2 0x2776 DUP5 DUP3 DUP6 ADD PUSH2 0x273D JUMP JUMPDEST SWAP2 POP POP SWAP3 SWAP2 POP POP JUMP JUMPDEST PUSH32 0x4E487B7100000000000000000000000000000000000000000000000000000000 PUSH1 0x0 MSTORE PUSH1 0x11 PUSH1 0x4 MSTORE PUSH1 0x24 PUSH1 0x0 REVERT JUMPDEST PUSH1 0x0 PUSH2 0x27B9 DUP3 PUSH2 0x1F64 JUMP JUMPDEST SWAP2 POP PUSH32 0xFFFFFFFFFFFFFFFFFFFFFFFFFFFFFFFFFFFFFFFFFFFFFFFFFFFFFFFFFFFFFFFF DUP3 SUB PUSH2 0x27EB JUMPI PUSH2 0x27EA PUSH2 0x277F JUMP JUMPDEST JUMPDEST PUSH1 0x1 DUP3 ADD SWAP1 POP SWAP2 SWAP1 POP JUMP JUMPDEST PUSH1 0x0 PUSH1 0x40 DUP3 ADD SWAP1 POP PUSH2 0x280B PUSH1 0x0 DUP4 ADD DUP6 PUSH2 0x220C JUMP JUMPDEST PUSH2 0x2818 PUSH1 0x20 DUP4 ADD DUP5 PUSH2 0x2573 JUMP JUMPDEST SWAP4 SWAP3 POP POP POP JUMP JUMPDEST PUSH1 0x0 DUP2 MLOAD SWAP1 POP SWAP2 SWAP1 POP JUMP JUMPDEST PUSH1 0x0 DUP3 DUP3 MSTORE PUSH1 0x20 DUP3 ADD SWAP1 POP SWAP3 SWAP2 POP POP JUMP JUMPDEST PUSH1 0x0 JUMPDEST DUP4 DUP2 LT ISZERO PUSH2 0x2859 JUMPI DUP1 DUP3 ADD MLOAD DUP2 DUP5 ADD MSTORE PUSH1 0x20 DUP2 ADD SWAP1 POP PUSH2 0x283E JUMP JUMPDEST PUSH1 0x0 DUP5 DUP5 ADD MSTORE POP POP POP POP JUMP JUMPDEST PUSH1 0x0 PUSH2 0x2870 DUP3 PUSH2 0x281F JUMP JUMPDEST PUSH2 0x287A DUP2 DUP6 PUSH2 0x282A JUMP JUMPDEST SWAP4 POP PUSH2 0x288A DUP2 DUP6 PUSH1 0x20 DUP7 ADD PUSH2 0x283B JUMP JUMPDEST PUSH2 0x2893 DUP2 PUSH2 0x1FE8 JUMP JUMPDEST DUP5 ADD SWAP2 POP POP SWAP3 SWAP2 POP POP JUMP JUMPDEST PUSH1 0x0 PUSH1 0x40 DUP3 ADD SWAP1 POP PUSH2 0x28B3 PUSH1 0x0 DUP4 ADD DUP6 PUSH2 0x21E2 JUMP JUMPDEST DUP2 DUP2 SUB PUSH1 0x20 DUP4 ADD MSTORE PUSH2 0x28C5 DUP2 DUP5 PUSH2 0x2865 JUMP JUMPDEST SWAP1 POP SWAP4 SWAP3 POP POP POP JUMP JUMPDEST PUSH1 0x0 PUSH1 0x60 DUP3 ADD SWAP1 POP PUSH2 0x28E3 PUSH1 0x0 DUP4 ADD DUP7 PUSH2 0x2564 JUMP JUMPDEST PUSH2 0x28F0 PUSH1 0x20 DUP4 ADD DUP6 PUSH2 0x2564 JUMP JUMPDEST PUSH2 0x28FD PUSH1 0x40 DUP4 ADD DUP5 PUSH2 0x2564 JUMP JUMPDEST SWAP5 SWAP4 POP POP POP POP JUMP JUMPDEST PUSH1 0x0 PUSH1 0x60 DUP3 ADD SWAP1 POP PUSH2 0x291A PUSH1 0x0 DUP4 ADD DUP7 PUSH2 0x21E2 JUMP JUMPDEST PUSH2 0x2927 PUSH1 0x20 DUP4 ADD DUP6 PUSH2 0x220C JUMP JUMPDEST PUSH2 0x2934 PUSH1 0x40 DUP4 ADD DUP5 PUSH2 0x23FB JUMP JUMPDEST SWAP5 SWAP4 POP POP POP POP JUMP JUMPDEST PUSH1 0x0 PUSH2 0x2947 DUP3 PUSH2 0x1F9A JUMP JUMPDEST SWAP2 POP PUSH2 0x2952 DUP4 PUSH2 0x1F9A JUMP JUMPDEST SWAP3 POP DUP3 DUP3 SUB SWAP1 POP PUSH12 0xFFFFFFFFFFFFFFFFFFFFFFFF DUP2 GT ISZERO PUSH2 0x2976 JUMPI PUSH2 0x2975 PUSH2 0x277F JUMP JUMPDEST JUMPDEST SWAP3 SWAP2 POP POP JUMP JUMPDEST PUSH1 0x0 DUP3 DUP3 MSTORE PUSH1 0x20 DUP3 ADD SWAP1 POP SWAP3 SWAP2 POP POP JUMP JUMPDEST PUSH1 0x0 DUP2 SWAP1 POP SWAP2 SWAP1 POP JUMP JUMPDEST PUSH2 0x29A0 DUP2 PUSH2 0x1F26 JUMP JUMPDEST DUP3 MSTORE POP POP JUMP JUMPDEST PUSH1 0x0 PUSH2 0x29B2 DUP4 DUP4 PUSH2 0x2997 JUMP JUMPDEST PUSH1 0x20 DUP4 ADD SWAP1 POP SWAP3 SWAP2 POP POP JUMP JUMPDEST PUSH1 0x0 PUSH2 0x29CD PUSH1 0x20 DUP5 ADD DUP5 PUSH2 0x1F4F JUMP JUMPDEST SWAP1 POP SWAP3 SWAP2 POP POP JUMP JUMPDEST PUSH1 0x0 PUSH1 0x20 DUP3 ADD SWAP1 POP SWAP2 SWAP1 POP JUMP JUMPDEST PUSH1 0x0 PUSH2 0x29EE DUP4 DUP6 PUSH2 0x297C JUMP JUMPDEST SWAP4 POP PUSH2 0x29F9 DUP3 PUSH2 0x298D JUMP JUMPDEST DUP1 PUSH1 0x0 JUMPDEST DUP6 DUP2 LT ISZERO PUSH2 0x2A32 JUMPI PUSH2 0x2A0F DUP3 DUP5 PUSH2 0x29BE JUMP JUMPDEST PUSH2 0x2A19 DUP9 DUP3 PUSH2 0x29A6 JUMP JUMPDEST SWAP8 POP PUSH2 0x2A24 DUP4 PUSH2 0x29D5 JUMP JUMPDEST SWAP3 POP POP PUSH1 0x1 DUP2 ADD SWAP1 POP PUSH2 0x29FD JUMP JUMPDEST POP DUP6 SWAP3 POP POP POP SWAP4 SWAP3 POP POP POP JUMP JUMPDEST PUSH1 0x0 PUSH1 0xC0 DUP3 ADD SWAP1 POP PUSH2 0x2A54 PUSH1 0x0 DUP4 ADD DUP11 PUSH2 0x21E2 JUMP JUMPDEST PUSH2 0x2A61 PUSH1 0x20 DUP4 ADD DUP10 PUSH2 0x220C JUMP JUMPDEST PUSH2 0x2A6E PUSH1 0x40 DUP4 ADD DUP9 PUSH2 0x220C JUMP JUMPDEST DUP2 DUP2 SUB PUSH1 0x60 DUP4 ADD MSTORE PUSH2 0x2A81 DUP2 DUP7 DUP9 PUSH2 0x29E2 JUMP JUMPDEST SWAP1 POP PUSH2 0x2A90 PUSH1 0x80 DUP4 ADD DUP6 PUSH2 0x2573 JUMP JUMPDEST PUSH2 0x2A9D PUSH1 0xA0 DUP4 ADD DUP5 PUSH2 0x2573 JUMP JUMPDEST SWAP9 SWAP8 POP POP POP POP POP POP POP POP JUMP JUMPDEST PUSH2 0x2AB2 DUP2 PUSH2 0x1F9A JUMP JUMPDEST DUP3 MSTORE POP POP JUMP JUMPDEST PUSH1 0x0 PUSH1 0x20 DUP3 ADD SWAP1 POP PUSH2 0x2ACD PUSH1 0x0 DUP4 ADD DUP5 PUSH2 0x2AA9 JUMP JUMPDEST SWAP3 SWAP2 POP POP JUMP JUMPDEST PUSH1 0x0 DUP3 DUP3 MSTORE PUSH1 0x20 DUP3 ADD SWAP1 POP SWAP3 SWAP2 POP POP JUMP JUMPDEST PUSH32 0x4F776E61626C653A206E6577206F776E657220697320746865207A65726F2061 PUSH1 0x0 DUP3 ADD MSTORE PUSH32 0x6464726573730000000000000000000000000000000000000000000000000000 PUSH1 0x20 DUP3 ADD MSTORE POP JUMP JUMPDEST PUSH1 0x0 PUSH2 0x2B40 PUSH1 0x26 DUP4 PUSH2 0x2AD3 JUMP JUMPDEST SWAP2 POP PUSH2 0x2B4B DUP3 PUSH2 0x2AE4 JUMP JUMPDEST PUSH1 0x40 DUP3 ADD SWAP1 POP SWAP2 SWAP1 POP JUMP JUMPDEST PUSH1 0x0 PUSH1 0x20 DUP3 ADD SWAP1 POP DUP2 DUP2 SUB PUSH1 0x0 DUP4 ADD MSTORE PUSH2 0x2B6F DUP2 PUSH2 0x2B33 JUMP JUMPDEST SWAP1 POP SWAP2 SWAP1 POP JUMP JUMPDEST PUSH32 0x4F776E61626C653A2063616C6C6572206973206E6F7420746865206F776E6572 PUSH1 0x0 DUP3 ADD MSTORE POP JUMP JUMPDEST PUSH1 0x0 PUSH2 0x2BAC PUSH1 0x20 DUP4 PUSH2 0x2AD3 JUMP JUMPDEST SWAP2 POP PUSH2 0x2BB7 DUP3 PUSH2 0x2B76 JUMP JUMPDEST PUSH1 0x20 DUP3 ADD SWAP1 POP SWAP2 SWAP1 POP JUMP JUMPDEST PUSH1 0x0 PUSH1 0x20 DUP3 ADD SWAP1 POP DUP2 DUP2 SUB PUSH1 0x0 DUP4 ADD MSTORE PUSH2 0x2BDB DUP2 PUSH2 0x2B9F JUMP JUMPDEST SWAP1 POP SWAP2 SWAP1 POP JUMP JUMPDEST PUSH1 0x0 PUSH2 0x2BED DUP3 PUSH2 0x1F64 JUMP JUMPDEST SWAP2 POP PUSH2 0x2BF8 DUP4 PUSH2 0x1F64 JUMP JUMPDEST SWAP3 POP DUP3 DUP3 MUL PUSH2 0x2C06 DUP2 PUSH2 0x1F64 JUMP JUMPDEST SWAP2 POP DUP3 DUP3 DIV DUP5 EQ DUP4 ISZERO OR PUSH2 0x2C1D JUMPI PUSH2 0x2C1C PUSH2 0x277F JUMP JUMPDEST JUMPDEST POP SWAP3 SWAP2 POP POP JUMP JUMPDEST PUSH32 0x4E487B7100000000000000000000000000000000000000000000000000000000 PUSH1 0x0 MSTORE PUSH1 0x12 PUSH1 0x4 MSTORE PUSH1 0x24 PUSH1 0x0 REVERT JUMPDEST PUSH1 0x0 PUSH2 0x2C5E DUP3 PUSH2 0x1F64 JUMP JUMPDEST SWAP2 POP PUSH2 0x2C69 DUP4 PUSH2 0x1F64 JUMP JUMPDEST SWAP3 POP DUP3 PUSH2 0x2C79 JUMPI PUSH2 0x2C78 PUSH2 0x2C24 JUMP JUMPDEST JUMPDEST DUP3 DUP3 DIV SWAP1 POP SWAP3 SWAP2 POP POP JUMP JUMPDEST PUSH1 0x0 PUSH2 0x2C8F DUP3 PUSH2 0x1F64 JUMP JUMPDEST SWAP2 POP PUSH2 0x2C9A DUP4 PUSH2 0x1F64 JUMP JUMPDEST SWAP3 POP DUP3 DUP3 SUB SWAP1 POP DUP2 DUP2 GT ISZERO PUSH2 0x2CB2 JUMPI PUSH2 0x2CB1 PUSH2 0x277F JUMP JUMPDEST JUMPDEST SWAP3 SWAP2 POP POP JUMP JUMPDEST PUSH1 0x0 PUSH2 0x2CC3 DUP3 PUSH2 0x1F64 JUMP JUMPDEST SWAP2 POP PUSH2 0x2CCE DUP4 PUSH2 0x1F64 JUMP JUMPDEST SWAP3 POP DUP3 DUP3 ADD SWAP1 POP DUP1 DUP3 GT ISZERO PUSH2 0x2CE6 JUMPI PUSH2 0x2CE5 PUSH2 0x277F JUMP JUMPDEST JUMPDEST SWAP3 SWAP2 POP POP JUMP JUMPDEST PUSH1 0x0 DUP2 SWAP1 POP SWAP3 SWAP2 POP POP JUMP JUMPDEST PUSH32 0x19457468657265756D205369676E6564204D6573736167653A0A333200000000 PUSH1 0x0 DUP3 ADD MSTORE POP JUMP JUMPDEST PUSH1 0x0 PUSH2 0x2D2D PUSH1 0x1C DUP4 PUSH2 0x2CEC JUMP JUMPDEST SWAP2 POP PUSH2 0x2D38 DUP3 PUSH2 0x2CF7 JUMP JUMPDEST PUSH1 0x1C DUP3 ADD SWAP1 POP SWAP2 SWAP1 POP JUMP JUMPDEST PUSH1 0x0 DUP2 SWAP1 POP SWAP2 SWAP1 POP JUMP JUMPDEST PUSH2 0x2D5E PUSH2 0x2D59 DUP3 PUSH2 0x1D94 JUMP JUMPDEST PUSH2 0x2D43 JUMP JUMPDEST DUP3 MSTORE POP POP JUMP JUMPDEST PUSH1 0x0 PUSH2 0x2D6F DUP3 PUSH2 0x2D20 JUMP JUMPDEST SWAP2 POP PUSH2 0x2D7B DUP3 DUP5 PUSH2 0x2D4D JUMP JUMPDEST PUSH1 0x20 DUP3 ADD SWAP2 POP DUP2 SWAP1 POP SWAP3 SWAP2 POP POP JUMP JUMPDEST PUSH32 0x4E487B7100000000000000000000000000000000000000000000000000000000 PUSH1 0x0 MSTORE PUSH1 0x21 PUSH1 0x4 MSTORE PUSH1 0x24 PUSH1 0x0 REVERT JUMPDEST PUSH32 0x45434453413A20696E76616C6964207369676E61747572650000000000000000 PUSH1 0x0 DUP3 ADD MSTORE POP JUMP JUMPDEST PUSH1 0x0 PUSH2 0x2DEF PUSH1 0x18 DUP4 PUSH2 0x2AD3 JUMP JUMPDEST SWAP2 POP PUSH2 0x2DFA DUP3 PUSH2 0x2DB9 JUMP JUMPDEST PUSH1 0x20 DUP3 ADD SWAP1 POP SWAP2 SWAP1 POP JUMP JUMPDEST PUSH1 0x0 PUSH1 0x20 DUP3 ADD SWAP1 POP DUP2 DUP2 SUB PUSH1 0x0 DUP4 ADD MSTORE PUSH2 0x2E1E DUP2 PUSH2 0x2DE2 JUMP JUMPDEST SWAP1 POP SWAP2 SWAP1 POP JUMP JUMPDEST PUSH32 0x45434453413A20696E76616C6964207369676E6174757265206C656E67746800 PUSH1 0x0 DUP3 ADD MSTORE POP JUMP JUMPDEST PUSH1 0x0 PUSH2 0x2E5B PUSH1 0x1F DUP4 PUSH2 0x2AD3 JUMP JUMPDEST SWAP2 POP PUSH2 0x2E66 DUP3 PUSH2 0x2E25 JUMP JUMPDEST PUSH1 0x20 DUP3 ADD SWAP1 POP SWAP2 SWAP1 POP JUMP JUMPDEST PUSH1 0x0 PUSH1 0x20 DUP3 ADD SWAP1 POP DUP2 DUP2 SUB PUSH1 0x0 DUP4 ADD MSTORE PUSH2 0x2E8A DUP2 PUSH2 0x2E4E JUMP JUMPDEST SWAP1 POP SWAP2 SWAP1 POP JUMP JUMPDEST PUSH32 0x45434453413A20696E76616C6964207369676E6174757265202773272076616C PUSH1 0x0 DUP3 ADD MSTORE PUSH32 0x7565000000000000000000000000000000000000000000000000000000000000 PUSH1 0x20 DUP3 ADD MSTORE POP JUMP JUMPDEST PUSH1 0x0 PUSH2 0x2EED PUSH1 0x22 DUP4 PUSH2 0x2AD3 JUMP JUMPDEST SWAP2 POP PUSH2 0x2EF8 DUP3 PUSH2 0x2E91 JUMP JUMPDEST PUSH1 0x40 DUP3 ADD SWAP1 POP SWAP2 SWAP1 POP JUMP JUMPDEST PUSH1 0x0 PUSH1 0x20 DUP3 ADD SWAP1 POP DUP2 DUP2 SUB PUSH1 0x0 DUP4 ADD MSTORE PUSH2 0x2F1C DUP2 PUSH2 0x2EE0 JUMP JUMPDEST SWAP1 POP SWAP2 SWAP1 POP JUMP JUMPDEST PUSH1 0x0 PUSH1 0xFF DUP3 AND SWAP1 POP SWAP2 SWAP1 POP JUMP JUMPDEST PUSH2 0x2F39 DUP2 PUSH2 0x2F23 JUMP JUMPDEST DUP3 MSTORE POP POP JUMP JUMPDEST PUSH1 0x0 PUSH1 0x80 DUP3 ADD SWAP1 POP PUSH2 0x2F54 PUSH1 0x0 DUP4 ADD DUP8 PUSH2 0x21E2 JUMP JUMPDEST PUSH2 0x2F61 PUSH1 0x20 DUP4 ADD DUP7 PUSH2 0x2F30 JUMP JUMPDEST PUSH2 0x2F6E PUSH1 0x40 DUP4 ADD DUP6 PUSH2 0x21E2 JUMP JUMPDEST PUSH2 0x2F7B PUSH1 0x60 DUP4 ADD DUP5 PUSH2 0x21E2 JUMP JUMPDEST SWAP6 SWAP5 POP POP POP POP POP JUMP INVALID LOG2 PUSH5 0x6970667358 0x22 SLT KECCAK256 SWAP5 0x4C SHR SIGNEXTEND PUSH19 0x65C7248641AD46FA5606E33892C2ABB8801285 BALANCE 0x2E 0xF7 0x4A MULMOD 0x4D SWAP10 0xE PUSH5 0x736F6C6343 STOP ADDMOD SLT STOP CALLER "},"methodIdentifiers":{"TimeLock()":"bb76d8a5","createOrder(address,uint256,address,uint96,bytes32,bytes32,bytes)":"23e9f3f8","getFeeDetails()":"b810c636","getLiquidityAggregator()":"2ebc5356","getSupportedInstitutions(bytes32)":"02621338","getSupportedName(bytes32)":"ef1e345b","isTokenSupported(address)":"75151b63","owner()":"8da5cb5b","refund(bytes32)":"7249fbb6","renounceOwnership()":"715018a6","setSupportedInstitutions(bytes32,(bytes32,bytes32)[])":"32200882","settingManagerBool(bytes32,address,bool)":"99e3c0b4","settle(bytes32,address,address[],address,uint96)":"e5b32cdf","transferOwnership(address)":"f2fde38b","updateFeeRecipient(bytes32,address)":"3d8f8fb2","updateProtocolFees(uint64,uint64,uint64)":"764bc355"}}}}}