{"contracts/PaycrestSettingManager.sol":{"PaycrestSettingManager":{"abi":[{"inputs":[],"name":"AmountIsZero","type":"error"},{"inputs":[{"internalType":"bytes32","name":"what","type":"bytes32"}],"name":"InvalidParameter","type":"error"},{"inputs":[],"name":"ThrowZeroAddress","type":"error"},{"inputs":[],"name":"ThrowZeroValue","type":"error"},{"inputs":[],"name":"TokenNotSupported","type":"error"},{"anonymous":false,"inputs":[{"indexed":false,"internalType":"uint8","name":"version","type":"uint8"}],"name":"Initialized","type":"event"},{"anonymous":false,"inputs":[{"indexed":true,"internalType":"address","name":"previousOwner","type":"address"},{"indexed":true,"internalType":"address","name":"newOwner","type":"address"}],"name":"OwnershipTransferred","type":"event"},{"anonymous":false,"inputs":[{"indexed":false,"internalType":"uint128","name":"protocolFee","type":"uint128"},{"indexed":false,"internalType":"uint128","name":"validatorFeePercent","type":"uint128"}],"name":"PaycrestFees","type":"event"},{"anonymous":false,"inputs":[{"indexed":false,"internalType":"bytes32","name":"what","type":"bytes32"},{"indexed":false,"internalType":"address","name":"value","type":"address"},{"indexed":false,"internalType":"bool","name":"status","type":"bool"}],"name":"SettingManagerBool","type":"event"},{"anonymous":false,"inputs":[{"indexed":false,"internalType":"bytes32","name":"what","type":"bytes32"},{"indexed":false,"internalType":"bytes8","name":"value","type":"bytes8"},{"indexed":false,"internalType":"bytes8","name":"status","type":"bytes8"}],"name":"SettingManagerForInstitution","type":"event"},{"inputs":[],"name":"owner","outputs":[{"internalType":"address","name":"","type":"address"}],"stateMutability":"view","type":"function"},{"inputs":[],"name":"renounceOwnership","outputs":[],"stateMutability":"nonpayable","type":"function"},{"inputs":[{"internalType":"bytes32","name":"currency","type":"bytes32"},{"components":[{"internalType":"bytes32","name":"code","type":"bytes32"},{"internalType":"bytes32","name":"name","type":"bytes32"}],"internalType":"struct PaycrestSettingManager.Institution[]","name":"institutions","type":"tuple[]"}],"name":"setSupportedInstitutions","outputs":[],"stateMutability":"nonpayable","type":"function"},{"inputs":[{"internalType":"bytes32","name":"what","type":"bytes32"},{"internalType":"address","name":"value","type":"address"},{"internalType":"bool","name":"status","type":"bool"}],"name":"settingManagerBool","outputs":[],"stateMutability":"nonpayable","type":"function"},{"inputs":[{"internalType":"address","name":"newOwner","type":"address"}],"name":"transferOwnership","outputs":[],"stateMutability":"nonpayable","type":"function"},{"inputs":[{"internalType":"bytes32","name":"what","type":"bytes32"},{"internalType":"address","name":"value","type":"address"}],"name":"updateProtocolAddresses","outputs":[],"stateMutability":"nonpayable","type":"function"},{"inputs":[{"internalType":"uint128","name":"_protocolFeePercent","type":"uint128"},{"internalType":"uint128","name":"_validatorFeePercent","type":"uint128"}],"name":"updateProtocolFees","outputs":[],"stateMutability":"nonpayable","type":"function"}],"devdoc":{"events":{"Initialized(uint8)":{"details":"Triggered when the contract has been initialized or reinitialized."}},"kind":"dev","methods":{"owner()":{"details":"Returns the address of the current owner."},"renounceOwnership()":{"details":"Leaves the contract without owner. It will not be possible to call `onlyOwner` functions. Can only be called by the current owner. NOTE: Renouncing ownership will leave the contract without an owner, thereby disabling any functionality that is only available to the owner."},"transferOwnership(address)":{"details":"Transfers ownership of the contract to a new account (`newOwner`). Can only be called by the current owner."}},"version":1},"evm":{"bytecode":{"linkReferences":{},"object":"608060405234801561001057600080fd5b50610f25806100206000396000f3fe608060405234801561001057600080fd5b506004361061007d5760003560e01c80638da5cb5b1161005b5780638da5cb5b146100c457806399e3c0b4146100e2578063f2fde38b146100fe578063f5326b191461011a5761007d565b80633220088214610082578063715018a61461009e57806379a0effb146100a8575b600080fd5b61009c60048036038101906100979190610aa5565b610136565b005b6100a661024a565b005b6100c260048036038101906100bd9190610b5f565b61025e565b005b6100cc610410565b6040516100d99190610bae565b60405180910390f35b6100fc60048036038101906100f79190610c01565b61043a565b005b61011860048036038101906101139190610c54565b610627565b005b610134600480360381019061012f9190610cc9565b6106aa565b005b61013e610761565b60008151905060005b8181101561024457606c600085815260200190815260200160002083828151811061017557610174610d09565b5b602002602001015190806001815401808255809150506001900390600052602060002090600202016000909190919091506000820151816000015560208201518160010155505060405180604001604052808483815181106101da576101d9610d09565b5b602002602001015160200151815260200185815250606d600085848151811061020657610205610d09565b5b602002602001015160000151815260200190815260200160002060008201518160000155602082015181600101559050508080600101915050610147565b50505050565b610252610761565b61025c60006107df565b565b610266610761565b600073ffffffffffffffffffffffffffffffffffffffff168173ffffffffffffffffffffffffffffffffffffffff16036102cc576040517f9c8e2b5d00000000000000000000000000000000000000000000000000000000815260040160405180910390fd5b7f666565000000000000000000000000000000000000000000000000000000000082036103355780606760006101000a81548173ffffffffffffffffffffffffffffffffffffffff021916908373ffffffffffffffffffffffffffffffffffffffff1602179055505b7f61676772656761746f720000000000000000000000000000000000000000000082036103a25780606960006101000a81548173ffffffffffffffffffffffffffffffffffffffff021916908373ffffffffffffffffffffffffffffffffffffffff16021790555061040c565b7f7374616b65000000000000000000000000000000000000000000000000000000820361040b5780606860006101000a81548173ffffffffffffffffffffffffffffffffffffffff021916908373ffffffffffffffffffffffffffffffffffffffff1602179055505b5b5050565b6000603360009054906101000a900473ffffffffffffffffffffffffffffffffffffffff16905090565b610442610761565b600073ffffffffffffffffffffffffffffffffffffffff168273ffffffffffffffffffffffffffffffffffffffff16036104a8576040517f9c8e2b5d00000000000000000000000000000000000000000000000000000000815260040160405180910390fd5b7f746f6b656e00000000000000000000000000000000000000000000000000000083036105275780606a60008473ffffffffffffffffffffffffffffffffffffffff1673ffffffffffffffffffffffffffffffffffffffff16815260200190815260200160002060006101000a81548160ff0219169083151502179055505b7f77686974656c697374000000000000000000000000000000000000000000000083036105aa5780606b60008473ffffffffffffffffffffffffffffffffffffffff1673ffffffffffffffffffffffffffffffffffffffff16815260200190815260200160002060006101000a81548160ff0219169083151502179055506105e7565b826040517f48bae5b80000000000000000000000000000000000000000000000000000000081526004016105de9190610d47565b60405180910390fd5b7fe22cadcc5ddbc0a185e8920eaa6825bcc06dcd6b432988e7e9912caa59ace93083838360405161061a93929190610d71565b60405180910390a1505050565b61062f610761565b600073ffffffffffffffffffffffffffffffffffffffff168173ffffffffffffffffffffffffffffffffffffffff160361069e576040517f08c379a000000000000000000000000000000000000000000000000000000000815260040161069590610e2b565b60405180910390fd5b6106a7816107df565b50565b6106b2610761565b81606660006101000a8154816fffffffffffffffffffffffffffffffff02191690836fffffffffffffffffffffffffffffffff16021790555080606660106101000a8154816fffffffffffffffffffffffffffffffff02191690836fffffffffffffffffffffffffffffffff1602179055507fe38926c5806b98a6fd00c5d791a36fbd196537fe48d11c45c9f1d0acd1ea74df8282604051610755929190610e5a565b60405180910390a15050565b6107696108a5565b73ffffffffffffffffffffffffffffffffffffffff16610787610410565b73ffffffffffffffffffffffffffffffffffffffff16146107dd576040517f08c379a00000000000000000000000000000000000000000000000000000000081526004016107d490610ecf565b60405180910390fd5b565b6000603360009054906101000a900473ffffffffffffffffffffffffffffffffffffffff16905081603360006101000a81548173ffffffffffffffffffffffffffffffffffffffff021916908373ffffffffffffffffffffffffffffffffffffffff1602179055508173ffffffffffffffffffffffffffffffffffffffff168173ffffffffffffffffffffffffffffffffffffffff167f8be0079c531659141344cd1fd0a4f28419497f9722a3daafe3b4186f6b6457e060405160405180910390a35050565b600033905090565b6000604051905090565b600080fd5b600080fd5b6000819050919050565b6108d4816108c1565b81146108df57600080fd5b50565b6000813590506108f1816108cb565b92915050565b600080fd5b6000601f19601f8301169050919050565b7f4e487b7100000000000000000000000000000000000000000000000000000000600052604160045260246000fd5b610945826108fc565b810181811067ffffffffffffffff821117156109645761096361090d565b5b80604052505050565b60006109776108ad565b9050610983828261093c565b919050565b600067ffffffffffffffff8211156109a3576109a261090d565b5b602082029050602081019050919050565b600080fd5b600080fd5b6000604082840312156109d4576109d36109b9565b5b6109de604061096d565b905060006109ee848285016108e2565b6000830152506020610a02848285016108e2565b60208301525092915050565b6000610a21610a1c84610988565b61096d565b90508083825260208201905060408402830185811115610a4457610a436109b4565b5b835b81811015610a6d5780610a5988826109be565b845260208401935050604081019050610a46565b5050509392505050565b600082601f830112610a8c57610a8b6108f7565b5b8135610a9c848260208601610a0e565b91505092915050565b60008060408385031215610abc57610abb6108b7565b5b6000610aca858286016108e2565b925050602083013567ffffffffffffffff811115610aeb57610aea6108bc565b5b610af785828601610a77565b9150509250929050565b600073ffffffffffffffffffffffffffffffffffffffff82169050919050565b6000610b2c82610b01565b9050919050565b610b3c81610b21565b8114610b4757600080fd5b50565b600081359050610b5981610b33565b92915050565b60008060408385031215610b7657610b756108b7565b5b6000610b84858286016108e2565b9250506020610b9585828601610b4a565b9150509250929050565b610ba881610b21565b82525050565b6000602082019050610bc36000830184610b9f565b92915050565b60008115159050919050565b610bde81610bc9565b8114610be957600080fd5b50565b600081359050610bfb81610bd5565b92915050565b600080600060608486031215610c1a57610c196108b7565b5b6000610c28868287016108e2565b9350506020610c3986828701610b4a565b9250506040610c4a86828701610bec565b9150509250925092565b600060208284031215610c6a57610c696108b7565b5b6000610c7884828501610b4a565b91505092915050565b60006fffffffffffffffffffffffffffffffff82169050919050565b610ca681610c81565b8114610cb157600080fd5b50565b600081359050610cc381610c9d565b92915050565b60008060408385031215610ce057610cdf6108b7565b5b6000610cee85828601610cb4565b9250506020610cff85828601610cb4565b9150509250929050565b7f4e487b7100000000000000000000000000000000000000000000000000000000600052603260045260246000fd5b610d41816108c1565b82525050565b6000602082019050610d5c6000830184610d38565b92915050565b610d6b81610bc9565b82525050565b6000606082019050610d866000830186610d38565b610d936020830185610b9f565b610da06040830184610d62565b949350505050565b600082825260208201905092915050565b7f4f776e61626c653a206e6577206f776e657220697320746865207a65726f206160008201527f6464726573730000000000000000000000000000000000000000000000000000602082015250565b6000610e15602683610da8565b9150610e2082610db9565b604082019050919050565b60006020820190508181036000830152610e4481610e08565b9050919050565b610e5481610c81565b82525050565b6000604082019050610e6f6000830185610e4b565b610e7c6020830184610e4b565b9392505050565b7f4f776e61626c653a2063616c6c6572206973206e6f7420746865206f776e6572600082015250565b6000610eb9602083610da8565b9150610ec482610e83565b602082019050919050565b60006020820190508181036000830152610ee881610eac565b905091905056fea2646970667358221220419bca35da6400d03fe3414151d4c6b36fc6a34f715280625373c0fa5b828d0464736f6c63430008120033","opcodes":"PUSH1 0x80 PUSH1 0x40 MSTORE CALLVALUE DUP1 ISZERO PUSH2 0x10 JUMPI PUSH1 0x0 DUP1 REVERT JUMPDEST POP PUSH2 0xF25 DUP1 PUSH2 0x20 PUSH1 0x0 CODECOPY PUSH1 0x0 RETURN INVALID PUSH1 0x80 PUSH1 0x40 MSTORE CALLVALUE DUP1 ISZERO PUSH2 0x10 JUMPI PUSH1 0x0 DUP1 REVERT JUMPDEST POP PUSH1 0x4 CALLDATASIZE LT PUSH2 0x7D JUMPI PUSH1 0x0 CALLDATALOAD PUSH1 0xE0 SHR DUP1 PUSH4 0x8DA5CB5B GT PUSH2 0x5B JUMPI DUP1 PUSH4 0x8DA5CB5B EQ PUSH2 0xC4 JUMPI DUP1 PUSH4 0x99E3C0B4 EQ PUSH2 0xE2 JUMPI DUP1 PUSH4 0xF2FDE38B EQ PUSH2 0xFE JUMPI DUP1 PUSH4 0xF5326B19 EQ PUSH2 0x11A JUMPI PUSH2 0x7D JUMP JUMPDEST DUP1 PUSH4 0x32200882 EQ PUSH2 0x82 JUMPI DUP1 PUSH4 0x715018A6 EQ PUSH2 0x9E JUMPI DUP1 PUSH4 0x79A0EFFB EQ PUSH2 0xA8 JUMPI JUMPDEST PUSH1 0x0 DUP1 REVERT JUMPDEST PUSH2 0x9C PUSH1 0x4 DUP1 CALLDATASIZE SUB DUP2 ADD SWAP1 PUSH2 0x97 SWAP2 SWAP1 PUSH2 0xAA5 JUMP JUMPDEST PUSH2 0x136 JUMP JUMPDEST STOP JUMPDEST PUSH2 0xA6 PUSH2 0x24A JUMP JUMPDEST STOP JUMPDEST PUSH2 0xC2 PUSH1 0x4 DUP1 CALLDATASIZE SUB DUP2 ADD SWAP1 PUSH2 0xBD SWAP2 SWAP1 PUSH2 0xB5F JUMP JUMPDEST PUSH2 0x25E JUMP JUMPDEST STOP JUMPDEST PUSH2 0xCC PUSH2 0x410 JUMP JUMPDEST PUSH1 0x40 MLOAD PUSH2 0xD9 SWAP2 SWAP1 PUSH2 0xBAE JUMP JUMPDEST PUSH1 0x40 MLOAD DUP1 SWAP2 SUB SWAP1 RETURN JUMPDEST PUSH2 0xFC PUSH1 0x4 DUP1 CALLDATASIZE SUB DUP2 ADD SWAP1 PUSH2 0xF7 SWAP2 SWAP1 PUSH2 0xC01 JUMP JUMPDEST PUSH2 0x43A JUMP JUMPDEST STOP JUMPDEST PUSH2 0x118 PUSH1 0x4 DUP1 CALLDATASIZE SUB DUP2 ADD SWAP1 PUSH2 0x113 SWAP2 SWAP1 PUSH2 0xC54 JUMP JUMPDEST PUSH2 0x627 JUMP JUMPDEST STOP JUMPDEST PUSH2 0x134 PUSH1 0x4 DUP1 CALLDATASIZE SUB DUP2 ADD SWAP1 PUSH2 0x12F SWAP2 SWAP1 PUSH2 0xCC9 JUMP JUMPDEST PUSH2 0x6AA JUMP JUMPDEST STOP JUMPDEST PUSH2 0x13E PUSH2 0x761 JUMP JUMPDEST PUSH1 0x0 DUP2 MLOAD SWAP1 POP PUSH1 0x0 JUMPDEST DUP2 DUP2 LT ISZERO PUSH2 0x244 JUMPI PUSH1 0x6C PUSH1 0x0 DUP6 DUP2 MSTORE PUSH1 0x20 ADD SWAP1 DUP2 MSTORE PUSH1 0x20 ADD PUSH1 0x0 KECCAK256 DUP4 DUP3 DUP2 MLOAD DUP2 LT PUSH2 0x175 JUMPI PUSH2 0x174 PUSH2 0xD09 JUMP JUMPDEST JUMPDEST PUSH1 0x20 MUL PUSH1 0x20 ADD ADD MLOAD SWAP1 DUP1 PUSH1 0x1 DUP2 SLOAD ADD DUP1 DUP3 SSTORE DUP1 SWAP2 POP POP PUSH1 0x1 SWAP1 SUB SWAP1 PUSH1 0x0 MSTORE PUSH1 0x20 PUSH1 0x0 KECCAK256 SWAP1 PUSH1 0x2 MUL ADD PUSH1 0x0 SWAP1 SWAP2 SWAP1 SWAP2 SWAP1 SWAP2 POP PUSH1 0x0 DUP3 ADD MLOAD DUP2 PUSH1 0x0 ADD SSTORE PUSH1 0x20 DUP3 ADD MLOAD DUP2 PUSH1 0x1 ADD SSTORE POP POP PUSH1 0x40 MLOAD DUP1 PUSH1 0x40 ADD PUSH1 0x40 MSTORE DUP1 DUP5 DUP4 DUP2 MLOAD DUP2 LT PUSH2 0x1DA JUMPI PUSH2 0x1D9 PUSH2 0xD09 JUMP JUMPDEST JUMPDEST PUSH1 0x20 MUL PUSH1 0x20 ADD ADD MLOAD PUSH1 0x20 ADD MLOAD DUP2 MSTORE PUSH1 0x20 ADD DUP6 DUP2 MSTORE POP PUSH1 0x6D PUSH1 0x0 DUP6 DUP5 DUP2 MLOAD DUP2 LT PUSH2 0x206 JUMPI PUSH2 0x205 PUSH2 0xD09 JUMP JUMPDEST JUMPDEST PUSH1 0x20 MUL PUSH1 0x20 ADD ADD MLOAD PUSH1 0x0 ADD MLOAD DUP2 MSTORE PUSH1 0x20 ADD SWAP1 DUP2 MSTORE PUSH1 0x20 ADD PUSH1 0x0 KECCAK256 PUSH1 0x0 DUP3 ADD MLOAD DUP2 PUSH1 0x0 ADD SSTORE PUSH1 0x20 DUP3 ADD MLOAD DUP2 PUSH1 0x1 ADD SSTORE SWAP1 POP POP DUP1 DUP1 PUSH1 0x1 ADD SWAP2 POP POP PUSH2 0x147 JUMP JUMPDEST POP POP POP POP JUMP JUMPDEST PUSH2 0x252 PUSH2 0x761 JUMP JUMPDEST PUSH2 0x25C PUSH1 0x0 PUSH2 0x7DF JUMP JUMPDEST JUMP JUMPDEST PUSH2 0x266 PUSH2 0x761 JUMP JUMPDEST PUSH1 0x0 PUSH20 0xFFFFFFFFFFFFFFFFFFFFFFFFFFFFFFFFFFFFFFFF AND DUP2 PUSH20 0xFFFFFFFFFFFFFFFFFFFFFFFFFFFFFFFFFFFFFFFF AND SUB PUSH2 0x2CC JUMPI PUSH1 0x40 MLOAD PUSH32 0x9C8E2B5D00000000000000000000000000000000000000000000000000000000 DUP2 MSTORE PUSH1 0x4 ADD PUSH1 0x40 MLOAD DUP1 SWAP2 SUB SWAP1 REVERT JUMPDEST PUSH32 0x6665650000000000000000000000000000000000000000000000000000000000 DUP3 SUB PUSH2 0x335 JUMPI DUP1 PUSH1 0x67 PUSH1 0x0 PUSH2 0x100 EXP DUP2 SLOAD DUP2 PUSH20 0xFFFFFFFFFFFFFFFFFFFFFFFFFFFFFFFFFFFFFFFF MUL NOT AND SWAP1 DUP4 PUSH20 0xFFFFFFFFFFFFFFFFFFFFFFFFFFFFFFFFFFFFFFFF AND MUL OR SWAP1 SSTORE POP JUMPDEST PUSH32 0x61676772656761746F7200000000000000000000000000000000000000000000 DUP3 SUB PUSH2 0x3A2 JUMPI DUP1 PUSH1 0x69 PUSH1 0x0 PUSH2 0x100 EXP DUP2 SLOAD DUP2 PUSH20 0xFFFFFFFFFFFFFFFFFFFFFFFFFFFFFFFFFFFFFFFF MUL NOT AND SWAP1 DUP4 PUSH20 0xFFFFFFFFFFFFFFFFFFFFFFFFFFFFFFFFFFFFFFFF AND MUL OR SWAP1 SSTORE POP PUSH2 0x40C JUMP JUMPDEST PUSH32 0x7374616B65000000000000000000000000000000000000000000000000000000 DUP3 SUB PUSH2 0x40B JUMPI DUP1 PUSH1 0x68 PUSH1 0x0 PUSH2 0x100 EXP DUP2 SLOAD DUP2 PUSH20 0xFFFFFFFFFFFFFFFFFFFFFFFFFFFFFFFFFFFFFFFF MUL NOT AND SWAP1 DUP4 PUSH20 0xFFFFFFFFFFFFFFFFFFFFFFFFFFFFFFFFFFFFFFFF AND MUL OR SWAP1 SSTORE POP JUMPDEST JUMPDEST POP POP JUMP JUMPDEST PUSH1 0x0 PUSH1 0x33 PUSH1 0x0 SWAP1 SLOAD SWAP1 PUSH2 0x100 EXP SWAP1 DIV PUSH20 0xFFFFFFFFFFFFFFFFFFFFFFFFFFFFFFFFFFFFFFFF AND SWAP1 POP SWAP1 JUMP JUMPDEST PUSH2 0x442 PUSH2 0x761 JUMP JUMPDEST PUSH1 0x0 PUSH20 0xFFFFFFFFFFFFFFFFFFFFFFFFFFFFFFFFFFFFFFFF AND DUP3 PUSH20 0xFFFFFFFFFFFFFFFFFFFFFFFFFFFFFFFFFFFFFFFF AND SUB PUSH2 0x4A8 JUMPI PUSH1 0x40 MLOAD PUSH32 0x9C8E2B5D00000000000000000000000000000000000000000000000000000000 DUP2 MSTORE PUSH1 0x4 ADD PUSH1 0x40 MLOAD DUP1 SWAP2 SUB SWAP1 REVERT JUMPDEST PUSH32 0x746F6B656E000000000000000000000000000000000000000000000000000000 DUP4 SUB PUSH2 0x527 JUMPI DUP1 PUSH1 0x6A PUSH1 0x0 DUP5 PUSH20 0xFFFFFFFFFFFFFFFFFFFFFFFFFFFFFFFFFFFFFFFF AND PUSH20 0xFFFFFFFFFFFFFFFFFFFFFFFFFFFFFFFFFFFFFFFF AND DUP2 MSTORE PUSH1 0x20 ADD SWAP1 DUP2 MSTORE PUSH1 0x20 ADD PUSH1 0x0 KECCAK256 PUSH1 0x0 PUSH2 0x100 EXP DUP2 SLOAD DUP2 PUSH1 0xFF MUL NOT AND SWAP1 DUP4 ISZERO ISZERO MUL OR SWAP1 SSTORE POP JUMPDEST PUSH32 0x77686974656C6973740000000000000000000000000000000000000000000000 DUP4 SUB PUSH2 0x5AA JUMPI DUP1 PUSH1 0x6B PUSH1 0x0 DUP5 PUSH20 0xFFFFFFFFFFFFFFFFFFFFFFFFFFFFFFFFFFFFFFFF AND PUSH20 0xFFFFFFFFFFFFFFFFFFFFFFFFFFFFFFFFFFFFFFFF AND DUP2 MSTORE PUSH1 0x20 ADD SWAP1 DUP2 MSTORE PUSH1 0x20 ADD PUSH1 0x0 KECCAK256 PUSH1 0x0 PUSH2 0x100 EXP DUP2 SLOAD DUP2 PUSH1 0xFF MUL NOT AND SWAP1 DUP4 ISZERO ISZERO MUL OR SWAP1 SSTORE POP PUSH2 0x5E7 JUMP JUMPDEST DUP3 PUSH1 0x40 MLOAD PUSH32 0x48BAE5B800000000000000000000000000000000000000000000000000000000 DUP2 MSTORE PUSH1 0x4 ADD PUSH2 0x5DE SWAP2 SWAP1 PUSH2 0xD47 JUMP JUMPDEST PUSH1 0x40 MLOAD DUP1 SWAP2 SUB SWAP1 REVERT JUMPDEST PUSH32 0xE22CADCC5DDBC0A185E8920EAA6825BCC06DCD6B432988E7E9912CAA59ACE930 DUP4 DUP4 DUP4 PUSH1 0x40 MLOAD PUSH2 0x61A SWAP4 SWAP3 SWAP2 SWAP1 PUSH2 0xD71 JUMP JUMPDEST PUSH1 0x40 MLOAD DUP1 SWAP2 SUB SWAP1 LOG1 POP POP POP JUMP JUMPDEST PUSH2 0x62F PUSH2 0x761 JUMP JUMPDEST PUSH1 0x0 PUSH20 0xFFFFFFFFFFFFFFFFFFFFFFFFFFFFFFFFFFFFFFFF AND DUP2 PUSH20 0xFFFFFFFFFFFFFFFFFFFFFFFFFFFFFFFFFFFFFFFF AND SUB PUSH2 0x69E JUMPI PUSH1 0x40 MLOAD PUSH32 0x8C379A000000000000000000000000000000000000000000000000000000000 DUP2 MSTORE PUSH1 0x4 ADD PUSH2 0x695 SWAP1 PUSH2 0xE2B JUMP JUMPDEST PUSH1 0x40 MLOAD DUP1 SWAP2 SUB SWAP1 REVERT JUMPDEST PUSH2 0x6A7 DUP2 PUSH2 0x7DF JUMP JUMPDEST POP JUMP JUMPDEST PUSH2 0x6B2 PUSH2 0x761 JUMP JUMPDEST DUP2 PUSH1 0x66 PUSH1 0x0 PUSH2 0x100 EXP DUP2 SLOAD DUP2 PUSH16 0xFFFFFFFFFFFFFFFFFFFFFFFFFFFFFFFF MUL NOT AND SWAP1 DUP4 PUSH16 0xFFFFFFFFFFFFFFFFFFFFFFFFFFFFFFFF AND MUL OR SWAP1 SSTORE POP DUP1 PUSH1 0x66 PUSH1 0x10 PUSH2 0x100 EXP DUP2 SLOAD DUP2 PUSH16 0xFFFFFFFFFFFFFFFFFFFFFFFFFFFFFFFF MUL NOT AND SWAP1 DUP4 PUSH16 0xFFFFFFFFFFFFFFFFFFFFFFFFFFFFFFFF AND MUL OR SWAP1 SSTORE POP PUSH32 0xE38926C5806B98A6FD00C5D791A36FBD196537FE48D11C45C9F1D0ACD1EA74DF DUP3 DUP3 PUSH1 0x40 MLOAD PUSH2 0x755 SWAP3 SWAP2 SWAP1 PUSH2 0xE5A JUMP JUMPDEST PUSH1 0x40 MLOAD DUP1 SWAP2 SUB SWAP1 LOG1 POP POP JUMP JUMPDEST PUSH2 0x769 PUSH2 0x8A5 JUMP JUMPDEST PUSH20 0xFFFFFFFFFFFFFFFFFFFFFFFFFFFFFFFFFFFFFFFF AND PUSH2 0x787 PUSH2 0x410 JUMP JUMPDEST PUSH20 0xFFFFFFFFFFFFFFFFFFFFFFFFFFFFFFFFFFFFFFFF AND EQ PUSH2 0x7DD JUMPI PUSH1 0x40 MLOAD PUSH32 0x8C379A000000000000000000000000000000000000000000000000000000000 DUP2 MSTORE PUSH1 0x4 ADD PUSH2 0x7D4 SWAP1 PUSH2 0xECF JUMP JUMPDEST PUSH1 0x40 MLOAD DUP1 SWAP2 SUB SWAP1 REVERT JUMPDEST JUMP JUMPDEST PUSH1 0x0 PUSH1 0x33 PUSH1 0x0 SWAP1 SLOAD SWAP1 PUSH2 0x100 EXP SWAP1 DIV PUSH20 0xFFFFFFFFFFFFFFFFFFFFFFFFFFFFFFFFFFFFFFFF AND SWAP1 POP DUP2 PUSH1 0x33 PUSH1 0x0 PUSH2 0x100 EXP DUP2 SLOAD DUP2 PUSH20 0xFFFFFFFFFFFFFFFFFFFFFFFFFFFFFFFFFFFFFFFF MUL NOT AND SWAP1 DUP4 PUSH20 0xFFFFFFFFFFFFFFFFFFFFFFFFFFFFFFFFFFFFFFFF AND MUL OR SWAP1 SSTORE POP DUP2 PUSH20 0xFFFFFFFFFFFFFFFFFFFFFFFFFFFFFFFFFFFFFFFF AND DUP2 PUSH20 0xFFFFFFFFFFFFFFFFFFFFFFFFFFFFFFFFFFFFFFFF AND PUSH32 0x8BE0079C531659141344CD1FD0A4F28419497F9722A3DAAFE3B4186F6B6457E0 PUSH1 0x40 MLOAD PUSH1 0x40 MLOAD DUP1 SWAP2 SUB SWAP1 LOG3 POP POP JUMP JUMPDEST PUSH1 0x0 CALLER SWAP1 POP SWAP1 JUMP JUMPDEST PUSH1 0x0 PUSH1 0x40 MLOAD SWAP1 POP SWAP1 JUMP JUMPDEST PUSH1 0x0 DUP1 REVERT JUMPDEST PUSH1 0x0 DUP1 REVERT JUMPDEST PUSH1 0x0 DUP2 SWAP1 POP SWAP2 SWAP1 POP JUMP JUMPDEST PUSH2 0x8D4 DUP2 PUSH2 0x8C1 JUMP JUMPDEST DUP2 EQ PUSH2 0x8DF JUMPI PUSH1 0x0 DUP1 REVERT JUMPDEST POP JUMP JUMPDEST PUSH1 0x0 DUP2 CALLDATALOAD SWAP1 POP PUSH2 0x8F1 DUP2 PUSH2 0x8CB JUMP JUMPDEST SWAP3 SWAP2 POP POP JUMP JUMPDEST PUSH1 0x0 DUP1 REVERT JUMPDEST PUSH1 0x0 PUSH1 0x1F NOT PUSH1 0x1F DUP4 ADD AND SWAP1 POP SWAP2 SWAP1 POP JUMP JUMPDEST PUSH32 0x4E487B7100000000000000000000000000000000000000000000000000000000 PUSH1 0x0 MSTORE PUSH1 0x41 PUSH1 0x4 MSTORE PUSH1 0x24 PUSH1 0x0 REVERT JUMPDEST PUSH2 0x945 DUP3 PUSH2 0x8FC JUMP JUMPDEST DUP2 ADD DUP2 DUP2 LT PUSH8 0xFFFFFFFFFFFFFFFF DUP3 GT OR ISZERO PUSH2 0x964 JUMPI PUSH2 0x963 PUSH2 0x90D JUMP JUMPDEST JUMPDEST DUP1 PUSH1 0x40 MSTORE POP POP POP JUMP JUMPDEST PUSH1 0x0 PUSH2 0x977 PUSH2 0x8AD JUMP JUMPDEST SWAP1 POP PUSH2 0x983 DUP3 DUP3 PUSH2 0x93C JUMP JUMPDEST SWAP2 SWAP1 POP JUMP JUMPDEST PUSH1 0x0 PUSH8 0xFFFFFFFFFFFFFFFF DUP3 GT ISZERO PUSH2 0x9A3 JUMPI PUSH2 0x9A2 PUSH2 0x90D JUMP JUMPDEST JUMPDEST PUSH1 0x20 DUP3 MUL SWAP1 POP PUSH1 0x20 DUP2 ADD SWAP1 POP SWAP2 SWAP1 POP JUMP JUMPDEST PUSH1 0x0 DUP1 REVERT JUMPDEST PUSH1 0x0 DUP1 REVERT JUMPDEST PUSH1 0x0 PUSH1 0x40 DUP3 DUP5 SUB SLT ISZERO PUSH2 0x9D4 JUMPI PUSH2 0x9D3 PUSH2 0x9B9 JUMP JUMPDEST JUMPDEST PUSH2 0x9DE PUSH1 0x40 PUSH2 0x96D JUMP JUMPDEST SWAP1 POP PUSH1 0x0 PUSH2 0x9EE DUP5 DUP3 DUP6 ADD PUSH2 0x8E2 JUMP JUMPDEST PUSH1 0x0 DUP4 ADD MSTORE POP PUSH1 0x20 PUSH2 0xA02 DUP5 DUP3 DUP6 ADD PUSH2 0x8E2 JUMP JUMPDEST PUSH1 0x20 DUP4 ADD MSTORE POP SWAP3 SWAP2 POP POP JUMP JUMPDEST PUSH1 0x0 PUSH2 0xA21 PUSH2 0xA1C DUP5 PUSH2 0x988 JUMP JUMPDEST PUSH2 0x96D JUMP JUMPDEST SWAP1 POP DUP1 DUP4 DUP3 MSTORE PUSH1 0x20 DUP3 ADD SWAP1 POP PUSH1 0x40 DUP5 MUL DUP4 ADD DUP6 DUP2 GT ISZERO PUSH2 0xA44 JUMPI PUSH2 0xA43 PUSH2 0x9B4 JUMP JUMPDEST JUMPDEST DUP4 JUMPDEST DUP2 DUP2 LT ISZERO PUSH2 0xA6D JUMPI DUP1 PUSH2 0xA59 DUP9 DUP3 PUSH2 0x9BE JUMP JUMPDEST DUP5 MSTORE PUSH1 0x20 DUP5 ADD SWAP4 POP POP PUSH1 0x40 DUP2 ADD SWAP1 POP PUSH2 0xA46 JUMP JUMPDEST POP POP POP SWAP4 SWAP3 POP POP POP JUMP JUMPDEST PUSH1 0x0 DUP3 PUSH1 0x1F DUP4 ADD SLT PUSH2 0xA8C JUMPI PUSH2 0xA8B PUSH2 0x8F7 JUMP JUMPDEST JUMPDEST DUP2 CALLDATALOAD PUSH2 0xA9C DUP5 DUP3 PUSH1 0x20 DUP7 ADD PUSH2 0xA0E JUMP JUMPDEST SWAP2 POP POP SWAP3 SWAP2 POP POP JUMP JUMPDEST PUSH1 0x0 DUP1 PUSH1 0x40 DUP4 DUP6 SUB SLT ISZERO PUSH2 0xABC JUMPI PUSH2 0xABB PUSH2 0x8B7 JUMP JUMPDEST JUMPDEST PUSH1 0x0 PUSH2 0xACA DUP6 DUP3 DUP7 ADD PUSH2 0x8E2 JUMP JUMPDEST SWAP3 POP POP PUSH1 0x20 DUP4 ADD CALLDATALOAD PUSH8 0xFFFFFFFFFFFFFFFF DUP2 GT ISZERO PUSH2 0xAEB JUMPI PUSH2 0xAEA PUSH2 0x8BC JUMP JUMPDEST JUMPDEST PUSH2 0xAF7 DUP6 DUP3 DUP7 ADD PUSH2 0xA77 JUMP JUMPDEST SWAP2 POP POP SWAP3 POP SWAP3 SWAP1 POP JUMP JUMPDEST PUSH1 0x0 PUSH20 0xFFFFFFFFFFFFFFFFFFFFFFFFFFFFFFFFFFFFFFFF DUP3 AND SWAP1 POP SWAP2 SWAP1 POP JUMP JUMPDEST PUSH1 0x0 PUSH2 0xB2C DUP3 PUSH2 0xB01 JUMP JUMPDEST SWAP1 POP SWAP2 SWAP1 POP JUMP JUMPDEST PUSH2 0xB3C DUP2 PUSH2 0xB21 JUMP JUMPDEST DUP2 EQ PUSH2 0xB47 JUMPI PUSH1 0x0 DUP1 REVERT JUMPDEST POP JUMP JUMPDEST PUSH1 0x0 DUP2 CALLDATALOAD SWAP1 POP PUSH2 0xB59 DUP2 PUSH2 0xB33 JUMP JUMPDEST SWAP3 SWAP2 POP POP JUMP JUMPDEST PUSH1 0x0 DUP1 PUSH1 0x40 DUP4 DUP6 SUB SLT ISZERO PUSH2 0xB76 JUMPI PUSH2 0xB75 PUSH2 0x8B7 JUMP JUMPDEST JUMPDEST PUSH1 0x0 PUSH2 0xB84 DUP6 DUP3 DUP7 ADD PUSH2 0x8E2 JUMP JUMPDEST SWAP3 POP POP PUSH1 0x20 PUSH2 0xB95 DUP6 DUP3 DUP7 ADD PUSH2 0xB4A JUMP JUMPDEST SWAP2 POP POP SWAP3 POP SWAP3 SWAP1 POP JUMP JUMPDEST PUSH2 0xBA8 DUP2 PUSH2 0xB21 JUMP JUMPDEST DUP3 MSTORE POP POP JUMP JUMPDEST PUSH1 0x0 PUSH1 0x20 DUP3 ADD SWAP1 POP PUSH2 0xBC3 PUSH1 0x0 DUP4 ADD DUP5 PUSH2 0xB9F JUMP JUMPDEST SWAP3 SWAP2 POP POP JUMP JUMPDEST PUSH1 0x0 DUP2 ISZERO ISZERO SWAP1 POP SWAP2 SWAP1 POP JUMP JUMPDEST PUSH2 0xBDE DUP2 PUSH2 0xBC9 JUMP JUMPDEST DUP2 EQ PUSH2 0xBE9 JUMPI PUSH1 0x0 DUP1 REVERT JUMPDEST POP JUMP JUMPDEST PUSH1 0x0 DUP2 CALLDATALOAD SWAP1 POP PUSH2 0xBFB DUP2 PUSH2 0xBD5 JUMP JUMPDEST SWAP3 SWAP2 POP POP JUMP JUMPDEST PUSH1 0x0 DUP1 PUSH1 0x0 PUSH1 0x60 DUP5 DUP7 SUB SLT ISZERO PUSH2 0xC1A JUMPI PUSH2 0xC19 PUSH2 0x8B7 JUMP JUMPDEST JUMPDEST PUSH1 0x0 PUSH2 0xC28 DUP7 DUP3 DUP8 ADD PUSH2 0x8E2 JUMP JUMPDEST SWAP4 POP POP PUSH1 0x20 PUSH2 0xC39 DUP7 DUP3 DUP8 ADD PUSH2 0xB4A JUMP JUMPDEST SWAP3 POP POP PUSH1 0x40 PUSH2 0xC4A DUP7 DUP3 DUP8 ADD PUSH2 0xBEC JUMP JUMPDEST SWAP2 POP POP SWAP3 POP SWAP3 POP SWAP3 JUMP JUMPDEST PUSH1 0x0 PUSH1 0x20 DUP3 DUP5 SUB SLT ISZERO PUSH2 0xC6A JUMPI PUSH2 0xC69 PUSH2 0x8B7 JUMP JUMPDEST JUMPDEST PUSH1 0x0 PUSH2 0xC78 DUP5 DUP3 DUP6 ADD PUSH2 0xB4A JUMP JUMPDEST SWAP2 POP POP SWAP3 SWAP2 POP POP JUMP JUMPDEST PUSH1 0x0 PUSH16 0xFFFFFFFFFFFFFFFFFFFFFFFFFFFFFFFF DUP3 AND SWAP1 POP SWAP2 SWAP1 POP JUMP JUMPDEST PUSH2 0xCA6 DUP2 PUSH2 0xC81 JUMP JUMPDEST DUP2 EQ PUSH2 0xCB1 JUMPI PUSH1 0x0 DUP1 REVERT JUMPDEST POP JUMP JUMPDEST PUSH1 0x0 DUP2 CALLDATALOAD SWAP1 POP PUSH2 0xCC3 DUP2 PUSH2 0xC9D JUMP JUMPDEST SWAP3 SWAP2 POP POP JUMP JUMPDEST PUSH1 0x0 DUP1 PUSH1 0x40 DUP4 DUP6 SUB SLT ISZERO PUSH2 0xCE0 JUMPI PUSH2 0xCDF PUSH2 0x8B7 JUMP JUMPDEST JUMPDEST PUSH1 0x0 PUSH2 0xCEE DUP6 DUP3 DUP7 ADD PUSH2 0xCB4 JUMP JUMPDEST SWAP3 POP POP PUSH1 0x20 PUSH2 0xCFF DUP6 DUP3 DUP7 ADD PUSH2 0xCB4 JUMP JUMPDEST SWAP2 POP POP SWAP3 POP SWAP3 SWAP1 POP JUMP JUMPDEST PUSH32 0x4E487B7100000000000000000000000000000000000000000000000000000000 PUSH1 0x0 MSTORE PUSH1 0x32 PUSH1 0x4 MSTORE PUSH1 0x24 PUSH1 0x0 REVERT JUMPDEST PUSH2 0xD41 DUP2 PUSH2 0x8C1 JUMP JUMPDEST DUP3 MSTORE POP POP JUMP JUMPDEST PUSH1 0x0 PUSH1 0x20 DUP3 ADD SWAP1 POP PUSH2 0xD5C PUSH1 0x0 DUP4 ADD DUP5 PUSH2 0xD38 JUMP JUMPDEST SWAP3 SWAP2 POP POP JUMP JUMPDEST PUSH2 0xD6B DUP2 PUSH2 0xBC9 JUMP JUMPDEST DUP3 MSTORE POP POP JUMP JUMPDEST PUSH1 0x0 PUSH1 0x60 DUP3 ADD SWAP1 POP PUSH2 0xD86 PUSH1 0x0 DUP4 ADD DUP7 PUSH2 0xD38 JUMP JUMPDEST PUSH2 0xD93 PUSH1 0x20 DUP4 ADD DUP6 PUSH2 0xB9F JUMP JUMPDEST PUSH2 0xDA0 PUSH1 0x40 DUP4 ADD DUP5 PUSH2 0xD62 JUMP JUMPDEST SWAP5 SWAP4 POP POP POP POP JUMP JUMPDEST PUSH1 0x0 DUP3 DUP3 MSTORE PUSH1 0x20 DUP3 ADD SWAP1 POP SWAP3 SWAP2 POP POP JUMP JUMPDEST PUSH32 0x4F776E61626C653A206E6577206F776E657220697320746865207A65726F2061 PUSH1 0x0 DUP3 ADD MSTORE PUSH32 0x6464726573730000000000000000000000000000000000000000000000000000 PUSH1 0x20 DUP3 ADD MSTORE POP JUMP JUMPDEST PUSH1 0x0 PUSH2 0xE15 PUSH1 0x26 DUP4 PUSH2 0xDA8 JUMP JUMPDEST SWAP2 POP PUSH2 0xE20 DUP3 PUSH2 0xDB9 JUMP JUMPDEST PUSH1 0x40 DUP3 ADD SWAP1 POP SWAP2 SWAP1 POP JUMP JUMPDEST PUSH1 0x0 PUSH1 0x20 DUP3 ADD SWAP1 POP DUP2 DUP2 SUB PUSH1 0x0 DUP4 ADD MSTORE PUSH2 0xE44 DUP2 PUSH2 0xE08 JUMP JUMPDEST SWAP1 POP SWAP2 SWAP1 POP JUMP JUMPDEST PUSH2 0xE54 DUP2 PUSH2 0xC81 JUMP JUMPDEST DUP3 MSTORE POP POP JUMP JUMPDEST PUSH1 0x0 PUSH1 0x40 DUP3 ADD SWAP1 POP PUSH2 0xE6F PUSH1 0x0 DUP4 ADD DUP6 PUSH2 0xE4B JUMP JUMPDEST PUSH2 0xE7C PUSH1 0x20 DUP4 ADD DUP5 PUSH2 0xE4B JUMP JUMPDEST SWAP4 SWAP3 POP POP POP JUMP JUMPDEST PUSH32 0x4F776E61626C653A2063616C6C6572206973206E6F7420746865206F776E6572 PUSH1 0x0 DUP3 ADD MSTORE POP JUMP JUMPDEST PUSH1 0x0 PUSH2 0xEB9 PUSH1 0x20 DUP4 PUSH2 0xDA8 JUMP JUMPDEST SWAP2 POP PUSH2 0xEC4 DUP3 PUSH2 0xE83 JUMP JUMPDEST PUSH1 0x20 DUP3 ADD SWAP1 POP SWAP2 SWAP1 POP JUMP JUMPDEST PUSH1 0x0 PUSH1 0x20 DUP3 ADD SWAP1 POP DUP2 DUP2 SUB PUSH1 0x0 DUP4 ADD MSTORE PUSH2 0xEE8 DUP2 PUSH2 0xEAC JUMP JUMPDEST SWAP1 POP SWAP2 SWAP1 POP JUMP INVALID LOG2 PUSH5 0x6970667358 0x22 SLT KECCAK256 COINBASE SWAP12 0xCA CALLDATALOAD 0xDA PUSH5 0xD03FE341 COINBASE MLOAD 0xD4 0xC6 0xB3 PUSH16 0xC6A34F715280625373C0FA5B828D0464 PUSH20 0x6F6C634300081200330000000000000000000000 "},"gasEstimates":{"creation":{"codeDepositCost":"775400","executionCost":"812","totalCost":"776212"},"external":{"owner()":"2522","renounceOwnership()":"30421","setSupportedInstitutions(bytes32,(bytes32,bytes32)[])":"infinite","settingManagerBool(bytes32,address,bool)":"infinite","transferOwnership(address)":"30788","updateProtocolAddresses(bytes32,address)":"51576","updateProtocolFees(uint128,uint128)":"infinite"}},"methodIdentifiers":{"owner()":"8da5cb5b","renounceOwnership()":"715018a6","setSupportedInstitutions(bytes32,(bytes32,bytes32)[])":"32200882","settingManagerBool(bytes32,address,bool)":"99e3c0b4","transferOwnership(address)":"f2fde38b","updateProtocolAddresses(bytes32,address)":"79a0effb","updateProtocolFees(uint128,uint128)":"f5326b19"}},"storageLayout":{"storage":[{"astId":138,"contract":"contracts/PaycrestSettingManager.sol:PaycrestSettingManager","label":"_initialized","offset":0,"slot":"0","type":"t_uint8"},{"astId":141,"contract":"contracts/PaycrestSettingManager.sol:PaycrestSettingManager","label":"_initializing","offset":1,"slot":"0","type":"t_bool"},{"astId":1161,"contract":"contracts/PaycrestSettingManager.sol:PaycrestSettingManager","label":"__gap","offset":0,"slot":"1","type":"t_array(t_uint256)50_storage"},{"astId":10,"contract":"contracts/PaycrestSettingManager.sol:PaycrestSettingManager","label":"_owner","offset":0,"slot":"51","type":"t_address"},{"astId":130,"contract":"contracts/PaycrestSettingManager.sol:PaycrestSettingManager","label":"__gap","offset":0,"slot":"52","type":"t_array(t_uint256)49_storage"},{"astId":3540,"contract":"contracts/PaycrestSettingManager.sol:PaycrestSettingManager","label":"MAX_BPS","offset":0,"slot":"101","type":"t_uint256"},{"astId":3542,"contract":"contracts/PaycrestSettingManager.sol:PaycrestSettingManager","label":"protocolFeePercent","offset":0,"slot":"102","type":"t_uint128"},{"astId":3544,"contract":"contracts/PaycrestSettingManager.sol:PaycrestSettingManager","label":"validatorFeePercent","offset":16,"slot":"102","type":"t_uint128"},{"astId":3546,"contract":"contracts/PaycrestSettingManager.sol:PaycrestSettingManager","label":"feeRecipient","offset":0,"slot":"103","type":"t_address"},{"astId":3548,"contract":"contracts/PaycrestSettingManager.sol:PaycrestSettingManager","label":"PaycrestStakingContract","offset":0,"slot":"104","type":"t_address"},{"astId":3550,"contract":"contracts/PaycrestSettingManager.sol:PaycrestSettingManager","label":"_liquidityAggregator","offset":0,"slot":"105","type":"t_address"},{"astId":3554,"contract":"contracts/PaycrestSettingManager.sol:PaycrestSettingManager","label":"_isTokenSupported","offset":0,"slot":"106","type":"t_mapping(t_address,t_bool)"},{"astId":3558,"contract":"contracts/PaycrestSettingManager.sol:PaycrestSettingManager","label":"_isWhitelisted","offset":0,"slot":"107","type":"t_mapping(t_address,t_bool)"},{"astId":3564,"contract":"contracts/PaycrestSettingManager.sol:PaycrestSettingManager","label":"supportedInstitutions","offset":0,"slot":"108","type":"t_mapping(t_bytes32,t_array(t_struct(Institution)3533_storage)dyn_storage)"},{"astId":3569,"contract":"contracts/PaycrestSettingManager.sol:PaycrestSettingManager","label":"supportedInstitutionsByCode","offset":0,"slot":"109","type":"t_mapping(t_bytes32,t_struct(InstitutionByCode)3538_storage)"}],"types":{"t_address":{"encoding":"inplace","label":"address","numberOfBytes":"20"},"t_array(t_struct(Institution)3533_storage)dyn_storage":{"base":"t_struct(Institution)3533_storage","encoding":"dynamic_array","label":"struct PaycrestSettingManager.Institution[]","numberOfBytes":"32"},"t_array(t_uint256)49_storage":{"base":"t_uint256","encoding":"inplace","label":"uint256[49]","numberOfBytes":"1568"},"t_array(t_uint256)50_storage":{"base":"t_uint256","encoding":"inplace","label":"uint256[50]","numberOfBytes":"1600"},"t_bool":{"encoding":"inplace","label":"bool","numberOfBytes":"1"},"t_bytes32":{"encoding":"inplace","label":"bytes32","numberOfBytes":"32"},"t_mapping(t_address,t_bool)":{"encoding":"mapping","key":"t_address","label":"mapping(address => bool)","numberOfBytes":"32","value":"t_bool"},"t_mapping(t_bytes32,t_array(t_struct(Institution)3533_storage)dyn_storage)":{"encoding":"mapping","key":"t_bytes32","label":"mapping(bytes32 => struct PaycrestSettingManager.Institution[])","numberOfBytes":"32","value":"t_array(t_struct(Institution)3533_storage)dyn_storage"},"t_mapping(t_bytes32,t_struct(InstitutionByCode)3538_storage)":{"encoding":"mapping","key":"t_bytes32","label":"mapping(bytes32 => struct PaycrestSettingManager.InstitutionByCode)","numberOfBytes":"32","value":"t_struct(InstitutionByCode)3538_storage"},"t_struct(Institution)3533_storage":{"encoding":"inplace","label":"struct PaycrestSettingManager.Institution","members":[{"astId":3530,"contract":"contracts/PaycrestSettingManager.sol:PaycrestSettingManager","label":"code","offset":0,"slot":"0","type":"t_bytes32"},{"astId":3532,"contract":"contracts/PaycrestSettingManager.sol:PaycrestSettingManager","label":"name","offset":0,"slot":"1","type":"t_bytes32"}],"numberOfBytes":"64"},"t_struct(InstitutionByCode)3538_storage":{"encoding":"inplace","label":"struct PaycrestSettingManager.InstitutionByCode","members":[{"astId":3535,"contract":"contracts/PaycrestSettingManager.sol:PaycrestSettingManager","label":"name","offset":0,"slot":"0","type":"t_bytes32"},{"astId":3537,"contract":"contracts/PaycrestSettingManager.sol:PaycrestSettingManager","label":"currency","offset":0,"slot":"1","type":"t_bytes32"}],"numberOfBytes":"64"},"t_uint128":{"encoding":"inplace","label":"uint128","numberOfBytes":"16"},"t_uint256":{"encoding":"inplace","label":"uint256","numberOfBytes":"32"},"t_uint8":{"encoding":"inplace","label":"uint8","numberOfBytes":"1"}}},"userdoc":{"errors":{"AmountIsZero()":[{"notice":"Revert when input amount is zero"}],"InvalidParameter(bytes32)":[{"notice":"Revert when zero address is passed in"}],"ThrowZeroAddress()":[{"notice":"Revert when zero address is passed in"}],"ThrowZeroValue()":[{"notice":"Revert when zero address is passed in"}],"TokenNotSupported()":[{"notice":"Revert when invalid token is provided"}]},"kind":"user","methods":{},"version":1}}}}