{"contracts/Paycrest.sol":{"Paycrest":{"abi":[{"inputs":[],"stateMutability":"nonpayable","type":"constructor"},{"anonymous":false,"inputs":[{"indexed":true,"internalType":"address","name":"token","type":"address"},{"indexed":true,"internalType":"uint256","name":"amount","type":"uint256"},{"indexed":true,"internalType":"bytes32","name":"orderId","type":"bytes32"},{"indexed":false,"internalType":"uint256","name":"rate","type":"uint256"},{"indexed":false,"internalType":"bytes32","name":"institutionCode","type":"bytes32"},{"indexed":false,"internalType":"bytes32","name":"label","type":"bytes32"},{"indexed":false,"internalType":"string","name":"messageHash","type":"string"}],"name":"Deposit","type":"event"},{"anonymous":false,"inputs":[{"indexed":false,"internalType":"uint8","name":"version","type":"uint8"}],"name":"Initialized","type":"event"},{"anonymous":false,"inputs":[{"indexed":true,"internalType":"address","name":"previousOwner","type":"address"},{"indexed":true,"internalType":"address","name":"newOwner","type":"address"}],"name":"OwnershipTransferred","type":"event"},{"anonymous":false,"inputs":[{"indexed":false,"internalType":"uint64","name":"protocolFee","type":"uint64"}],"name":"PaycrestFees","type":"event"},{"anonymous":false,"inputs":[{"indexed":true,"internalType":"bytes32","name":"orderId","type":"bytes32"},{"indexed":false,"internalType":"bytes32","name":"label","type":"bytes32"}],"name":"Refunded","type":"event"},{"anonymous":false,"inputs":[{"indexed":true,"internalType":"address","name":"validator","type":"address"},{"indexed":true,"internalType":"uint256","name":"amount","type":"uint256"}],"name":"RewardValidator","type":"event"},{"anonymous":false,"inputs":[{"indexed":false,"internalType":"bytes","name":"aggregator","type":"bytes"}],"name":"SetAggregator","type":"event"},{"anonymous":false,"inputs":[{"indexed":false,"internalType":"address","name":"feeRecipient","type":"address"}],"name":"SetFeeRecipient","type":"event"},{"anonymous":false,"inputs":[{"indexed":false,"internalType":"bytes32","name":"what","type":"bytes32"},{"indexed":false,"internalType":"address","name":"value","type":"address"},{"indexed":false,"internalType":"bool","name":"status","type":"bool"}],"name":"SettingManagerBool","type":"event"},{"anonymous":false,"inputs":[{"indexed":false,"internalType":"bytes32","name":"_splitOrderId","type":"bytes32"},{"indexed":true,"internalType":"bytes32","name":"orderId","type":"bytes32"},{"indexed":false,"internalType":"bytes32","name":"label","type":"bytes32"},{"indexed":true,"internalType":"address","name":"liquidityProvider","type":"address"},{"indexed":false,"internalType":"uint96","name":"settlePercent","type":"uint96"}],"name":"Settled","type":"event"},{"anonymous":false,"inputs":[{"indexed":true,"internalType":"address","name":"sender","type":"address"},{"indexed":true,"internalType":"uint256","name":"amount","type":"uint256"}],"name":"TransferSenderFee","type":"event"},{"inputs":[{"internalType":"address","name":"_token","type":"address"},{"internalType":"uint256","name":"_amount","type":"uint256"},{"internalType":"bytes32","name":"_institutionCode","type":"bytes32"},{"internalType":"bytes32","name":"_label","type":"bytes32"},{"internalType":"uint96","name":"_rate","type":"uint96"},{"internalType":"address","name":"_senderFeeRecipient","type":"address"},{"internalType":"uint256","name":"_senderFee","type":"uint256"},{"internalType":"address","name":"_refundAddress","type":"address"},{"internalType":"string","name":"messageHash","type":"string"}],"name":"createOrder","outputs":[{"internalType":"bytes32","name":"orderId","type":"bytes32"}],"stateMutability":"nonpayable","type":"function"},{"inputs":[],"name":"getAggregator","outputs":[{"internalType":"bytes","name":"","type":"bytes"}],"stateMutability":"view","type":"function"},{"inputs":[],"name":"getAggregatorAddress","outputs":[{"internalType":"address","name":"","type":"address"}],"stateMutability":"view","type":"function"},{"inputs":[],"name":"getFeeDetails","outputs":[{"internalType":"uint64","name":"","type":"uint64"},{"internalType":"uint256","name":"","type":"uint256"}],"stateMutability":"view","type":"function"},{"inputs":[{"internalType":"bytes32","name":"_orderId","type":"bytes32"}],"name":"getOrderInfo","outputs":[{"components":[{"internalType":"address","name":"seller","type":"address"},{"internalType":"address","name":"token","type":"address"},{"internalType":"address","name":"senderFeeRecipient","type":"address"},{"internalType":"uint256","name":"senderFee","type":"uint256"},{"internalType":"uint96","name":"rate","type":"uint96"},{"internalType":"bool","name":"isFulfilled","type":"bool"},{"internalType":"address","name":"refundAddress","type":"address"},{"internalType":"uint96","name":"currentBPS","type":"uint96"},{"internalType":"uint256","name":"amount","type":"uint256"}],"internalType":"struct IPaycrest.Order","name":"","type":"tuple"}],"stateMutability":"view","type":"function"},{"inputs":[{"internalType":"bytes32","name":"code","type":"bytes32"}],"name":"getSupportedInstitutionName","outputs":[{"components":[{"internalType":"bytes32","name":"name","type":"bytes32"},{"internalType":"bytes32","name":"currency","type":"bytes32"}],"internalType":"struct PaycrestSettingManager.InstitutionByCode","name":"","type":"tuple"}],"stateMutability":"view","type":"function"},{"inputs":[{"internalType":"bytes32","name":"currency","type":"bytes32"}],"name":"getSupportedInstitutions","outputs":[{"components":[{"internalType":"bytes32","name":"code","type":"bytes32"},{"internalType":"bytes32","name":"name","type":"bytes32"}],"internalType":"struct PaycrestSettingManager.Institution[]","name":"","type":"tuple[]"}],"stateMutability":"view","type":"function"},{"inputs":[{"internalType":"address","name":"sender","type":"address"}],"name":"getWhitelistedStatus","outputs":[{"internalType":"bool","name":"","type":"bool"}],"stateMutability":"view","type":"function"},{"inputs":[{"internalType":"address","name":"_usdc","type":"address"}],"name":"initialize","outputs":[],"stateMutability":"nonpayable","type":"function"},{"inputs":[{"internalType":"address","name":"_token","type":"address"}],"name":"isTokenSupported","outputs":[{"internalType":"bool","name":"","type":"bool"}],"stateMutability":"view","type":"function"},{"inputs":[],"name":"owner","outputs":[{"internalType":"address","name":"","type":"address"}],"stateMutability":"view","type":"function"},{"inputs":[{"internalType":"bytes32","name":"_orderId","type":"bytes32"},{"internalType":"bytes32","name":"_label","type":"bytes32"}],"name":"refund","outputs":[{"internalType":"bool","name":"","type":"bool"}],"stateMutability":"nonpayable","type":"function"},{"inputs":[],"name":"renounceOwnership","outputs":[],"stateMutability":"nonpayable","type":"function"},{"inputs":[{"internalType":"bytes32","name":"currency","type":"bytes32"},{"components":[{"internalType":"bytes32","name":"code","type":"bytes32"},{"internalType":"bytes32","name":"name","type":"bytes32"}],"internalType":"struct PaycrestSettingManager.Institution[]","name":"institutions","type":"tuple[]"}],"name":"setSupportedInstitutions","outputs":[],"stateMutability":"nonpayable","type":"function"},{"inputs":[{"internalType":"bytes32","name":"what","type":"bytes32"},{"internalType":"address","name":"value","type":"address"},{"internalType":"bool","name":"status","type":"bool"}],"name":"settingManagerBool","outputs":[],"stateMutability":"nonpayable","type":"function"},{"inputs":[{"internalType":"bytes32","name":"_splitOrderId","type":"bytes32"},{"internalType":"bytes32","name":"_orderId","type":"bytes32"},{"internalType":"bytes32","name":"_label","type":"bytes32"},{"internalType":"address[]","name":"_validators","type":"address[]"},{"internalType":"address","name":"_liquidityProvider","type":"address"},{"internalType":"uint64","name":"_settlePercent","type":"uint64"},{"internalType":"bool","name":"_isPartner","type":"bool"}],"name":"settle","outputs":[{"internalType":"bytes32","name":"","type":"bytes32"},{"internalType":"address","name":"","type":"address"}],"stateMutability":"nonpayable","type":"function"},{"inputs":[{"internalType":"address","name":"newOwner","type":"address"}],"name":"transferOwnership","outputs":[],"stateMutability":"nonpayable","type":"function"},{"inputs":[{"internalType":"bytes32","name":"what","type":"bytes32"},{"internalType":"address","name":"value","type":"address"}],"name":"updateProtocolAddresses","outputs":[],"stateMutability":"nonpayable","type":"function"},{"inputs":[{"internalType":"bytes","name":"aggregator","type":"bytes"}],"name":"updateProtocolAggregator","outputs":[],"stateMutability":"nonpayable","type":"function"},{"inputs":[{"internalType":"uint64","name":"_protocolFeePercent","type":"uint64"}],"name":"updateProtocolFees","outputs":[],"stateMutability":"nonpayable","type":"function"},{"inputs":[{"internalType":"address","name":"_token","type":"address"},{"internalType":"address","name":"_recipient","type":"address"},{"internalType":"uint256","name":"_amount","type":"uint256"}],"name":"withdraw","outputs":[],"stateMutability":"nonpayable","type":"function"}],"devdoc":{"events":{"Deposit(address,uint256,bytes32,uint256,bytes32,bytes32,string)":{"details":"Emitted when deposit is made."},"Initialized(uint8)":{"details":"Triggered when the contract has been initialized or reinitialized."},"Refunded(bytes32,bytes32)":{"details":"Emitted when aggregator refund transaction."},"RewardValidator(address,uint256)":{"details":"Emitted when primary validator get therir rewards."},"Settled(bytes32,bytes32,bytes32,address,uint96)":{"details":"Emitted when aggregator settle transaction."},"TransferSenderFee(address,uint256)":{"details":"Emitted when sender get therir rewards."}},"kind":"dev","methods":{"constructor":{"custom:oz-upgrades-unsafe-allow":"constructor"},"createOrder(address,uint256,bytes32,bytes32,uint96,address,uint256,address,string)":{"details":"See {createOrder-IPaycrest}. "},"getAggregator()":{"details":"See {getAggregator-IPaycrest}. "},"getAggregatorAddress()":{"details":"See {getAggregatorAddress-IPaycrest}. "},"getFeeDetails()":{"details":"See {getFeeDetails-IPaycrest}. "},"getOrderInfo(bytes32)":{"details":"See {getOrderInfo-IPaycrest}. "},"getSupportedInstitutionName(bytes32)":{"details":"See {getSupportedInstitutionName-IPaycrest}. "},"getWhitelistedStatus(address)":{"details":"See {getWhitelistedStatus-IPaycrest}. "},"isTokenSupported(address)":{"details":"See {isTokenSupported-IPaycrest}. "},"owner()":{"details":"Returns the address of the current owner."},"refund(bytes32,bytes32)":{"details":"See {refund-IPaycrest}. "},"renounceOwnership()":{"details":"Leaves the contract without owner. It will not be possible to call `onlyOwner` functions. Can only be called by the current owner. NOTE: Renouncing ownership will leave the contract without an owner, thereby disabling any functionality that is only available to the owner."},"settle(bytes32,bytes32,bytes32,address[],address,uint64,bool)":{"details":"See {settle-IPaycrest}. "},"transferOwnership(address)":{"details":"Transfers ownership of the contract to a new account (`newOwner`). Can only be called by the current owner."}},"version":1},"evm":{"bytecode":{"linkReferences":{},"object":"60806040523480156200001157600080fd5b50620000226200002860201b60201c565b620001d2565b600060019054906101000a900460ff16156200007b576040517f08c379a0000000000000000000000000000000000000000000000000000000008152600401620000729062000175565b60405180910390fd5b60ff801660008054906101000a900460ff1660ff1614620000ec5760ff6000806101000a81548160ff021916908360ff1602179055507f7f26b83ff96e1f2b6a682f133852f6798a09c465da95921460cefb384740249860ff604051620000e39190620001b5565b60405180910390a15b565b600082825260208201905092915050565b7f496e697469616c697a61626c653a20636f6e747261637420697320696e69746960008201527f616c697a696e6700000000000000000000000000000000000000000000000000602082015250565b60006200015d602783620000ee565b91506200016a82620000ff565b604082019050919050565b6000602082019050818103600083015262000190816200014e565b9050919050565b600060ff82169050919050565b620001af8162000197565b82525050565b6000602082019050620001cc6000830184620001a4565b92915050565b613e2b80620001e26000396000f3fe608060405234801561001057600080fd5b50600436106101375760003560e01c806387490d86116100b8578063cb79455b1161007c578063cb79455b1461034e578063d8e8de341461036a578063d9caed121461039a578063e4683a79146103b6578063e8d6e0de146103e6578063f2fde38b1461040457610137565b806387490d86146102a95780638da5cb5b146102d957806399e3c0b4146102f7578063b810c63614610313578063c4d66de81461033257610137565b8063715018a6116100ff578063715018a61461020757806375151b6314610211578063768c6ec01461024157806379a0effb14610271578063846307361461028d57610137565b8063026213381461013c578063137764fb1461016c5780632654ec7e1461019d57806332200882146101cd5780633ad59dbc146101e9575b600080fd5b610156600480360381019061015191906124c1565b610420565b60405161016391906125db565b60405180910390f35b61018660048036038101906101819190612738565b61055e565b604051610194929190612818565b60405180910390f35b6101b760048036038101906101b29190612911565b610959565b6040516101c491906129fc565b60405180910390f35b6101e760048036038101906101e29190612bbb565b610e21565b005b6101f1610f35565b6040516101fe9190612c96565b60405180910390f35b61020f610fc7565b005b61022b60048036038101906102269190612cb8565b610fdb565b6040516102389190612cf4565b60405180910390f35b61025b600480360381019061025691906124c1565b611031565b6040516102689190612e02565b60405180910390f35b61028b60048036038101906102869190612e1e565b611262565b005b6102a760048036038101906102a29190612e5e565b6113af565b005b6102c360048036038101906102be91906124c1565b61141a565b6040516102d09190612eba565b60405180910390f35b6102e161145b565b6040516102ee9190612ed5565b60405180910390f35b610311600480360381019061030c9190612ef0565b611485565b005b61031b61163a565b604051610329929190612f61565b60405180910390f35b61034c60048036038101906103479190612cb8565b61165f565b005b61036860048036038101906103639190612fe0565b61182b565b005b610384600480360381019061037f9190612cb8565b611882565b6040516103919190612cf4565b60405180910390f35b6103b460048036038101906103af919061302d565b6118d8565b005b6103d060048036038101906103cb9190613080565b611964565b6040516103dd9190612cf4565b60405180910390f35b6103ee611c11565b6040516103fb9190612ed5565b60405180910390f35b61041e60048036038101906104199190612cb8565b611c3b565b005b60606000609d6000848152602001908152602001600020805480602002602001604051908101604052809291908181526020016000905b8282101561049d57838290600052602060002090600202016040518060400160405290816000820154815260200160018201548152505081526020019060010190610457565b50505050905060008151905060008167ffffffffffffffff8111156104c5576104c4612a28565b5b6040519080825280602002602001820160405280156104fe57816020015b6104eb61235b565b8152602001906001900390816104e35790505b50905060005b828110156105525783818151811061051f5761051e6130c0565b5b602002602001015182828151811061053a576105396130c0565b5b60200260200101819052508080600101915050610504565b50809350505050919050565b600080606760009054906101000a900473ffffffffffffffffffffffffffffffffffffffff1673ffffffffffffffffffffffffffffffffffffffff163373ffffffffffffffffffffffffffffffffffffffff16146105f1576040517f08c379a00000000000000000000000000000000000000000000000000000000081526004016105e89061314c565b60405180910390fd5b609f60008a8152602001908152602001600020600401600c9054906101000a900460ff1615610655576040517f08c379a000000000000000000000000000000000000000000000000000000000815260040161064c906131b8565b60405180910390fd5b6000609f60008b815260200190815260200160002060010160009054906101000a900473ffffffffffffffffffffffffffffffffffffffff1690508467ffffffffffffffff16609f60008c815260200190815260200160002060050160148282829054906101000a90046bffffffffffffffffffffffff166106d79190613207565b92506101000a8154816bffffffffffffffffffffffff02191690836bffffffffffffffffffffffff160217905550600061071c8b8767ffffffffffffffff1687611cbe565b90506000609f60008d815260200190815260200160002060050160149054906101000a90046bffffffffffffffffffffffff166bffffffffffffffffffffffff16036107bb576001609f60008d8152602001908152602001600020600401600c6101000a81548160ff0219169083151502179055506000609f60008d81526020019081526020016000206003015411156107ba576107b98b611dcf565b5b5b60008160000151111561086e578173ffffffffffffffffffffffffffffffffffffffff1663a9059cbb606660089054906101000a900473ffffffffffffffffffffffffffffffffffffffff1683600001516040518363ffffffff1660e01b8152600401610829929190613247565b6020604051808303816000875af1158015610848573d6000803e3d6000fd5b505050506040513d601f19601f8201168201806040525081019061086c9190613285565b505b8173ffffffffffffffffffffffffffffffffffffffff1663a9059cbb8883602001516040518363ffffffff1660e01b81526004016108ad929190613247565b6020604051808303816000875af11580156108cc573d6000803e3d6000fd5b505050506040513d601f19601f820116820180604052508101906108f09190613285565b508673ffffffffffffffffffffffffffffffffffffffff168b7ff26de978cbaea68ea699627155a10ad53df3321b0f95a08264c0cfd6d4c053268e8d8a60405161093c939291906132ed565b60405180910390a38a829350935050509850989650505050505050565b60006109688b8b86898d611f23565b606554606660009054906101000a900467ffffffffffffffff1667ffffffffffffffff168b6109979190613324565b6109a19190613395565b8511156109e3576040517f08c379a00000000000000000000000000000000000000000000000000000000081526004016109da90613412565b60405180910390fd5b8a73ffffffffffffffffffffffffffffffffffffffff166323b872dd33308d6040518463ffffffff1660e01b8152600401610a2093929190613432565b6020604051808303816000875af1158015610a3f573d6000803e3d6000fd5b505050506040513d601f19601f82011682018060405250810190610a639190613285565b5060a060003373ffffffffffffffffffffffffffffffffffffffff1673ffffffffffffffffffffffffffffffffffffffff1681526020019081526020016000206000815480929190610ab490613469565b91905055503360a060003373ffffffffffffffffffffffffffffffffffffffff1673ffffffffffffffffffffffffffffffffffffffff16815260200190815260200160002054604051602001610b0b929190613247565b6040516020818303038152906040528051906020012090506040518061012001604052803373ffffffffffffffffffffffffffffffffffffffff1681526020018c73ffffffffffffffffffffffffffffffffffffffff1681526020018773ffffffffffffffffffffffffffffffffffffffff168152602001868152602001886bffffffffffffffffffffffff1681526020016000151581526020018573ffffffffffffffffffffffffffffffffffffffff16815260200160655467ffffffffffffffff166bffffffffffffffffffffffff1681526020018b815250609f600083815260200190815260200160002060008201518160000160006101000a81548173ffffffffffffffffffffffffffffffffffffffff021916908373ffffffffffffffffffffffffffffffffffffffff16021790555060208201518160010160006101000a81548173ffffffffffffffffffffffffffffffffffffffff021916908373ffffffffffffffffffffffffffffffffffffffff16021790555060408201518160020160006101000a81548173ffffffffffffffffffffffffffffffffffffffff021916908373ffffffffffffffffffffffffffffffffffffffff1602179055506060820151816003015560808201518160040160006101000a8154816bffffffffffffffffffffffff02191690836bffffffffffffffffffffffff16021790555060a082015181600401600c6101000a81548160ff02191690831515021790555060c08201518160050160006101000a81548173ffffffffffffffffffffffffffffffffffffffff021916908373ffffffffffffffffffffffffffffffffffffffff16021790555060e08201518160050160146101000a8154816bffffffffffffffffffffffff02191690836bffffffffffffffffffffffff1602179055506101008201518160060155905050808a8c73ffffffffffffffffffffffffffffffffffffffff167f2c205f90c01160d42994a0eb521810056d94bb82a1fcb038d7179c4158a1f15b8a8d8d8989604051610e0b95949392919061351e565b60405180910390a49a9950505050505050505050565b610e29612132565b60008151905060005b81811015610f2f57609d6000858152602001908152602001600020838281518110610e6057610e5f6130c0565b5b60200260200101519080600181540180825580915050600190039060005260206000209060020201600090919091909150600082015181600001556020820151816001015550506040518060400160405280848381518110610ec557610ec46130c0565b5b602002602001015160200151815260200185815250609e6000858481518110610ef157610ef06130c0565b5b602002602001015160000151815260200190815260200160002060008201518160000155602082015181600101559050508080600101915050610e32565b50505050565b606060688054610f449061359b565b80601f0160208091040260200160405190810160405280929190818152602001828054610f709061359b565b8015610fbd5780601f10610f9257610100808354040283529160200191610fbd565b820191906000526020600020905b815481529060010190602001808311610fa057829003601f168201915b5050505050905090565b610fcf612132565b610fd960006121b0565b565b6000609b60008373ffffffffffffffffffffffffffffffffffffffff1673ffffffffffffffffffffffffffffffffffffffff16815260200190815260200160002060009054906101000a900460ff169050919050565b61103961237b565b609f6000838152602001908152602001600020604051806101200160405290816000820160009054906101000a900473ffffffffffffffffffffffffffffffffffffffff1673ffffffffffffffffffffffffffffffffffffffff1673ffffffffffffffffffffffffffffffffffffffff1681526020016001820160009054906101000a900473ffffffffffffffffffffffffffffffffffffffff1673ffffffffffffffffffffffffffffffffffffffff1673ffffffffffffffffffffffffffffffffffffffff1681526020016002820160009054906101000a900473ffffffffffffffffffffffffffffffffffffffff1673ffffffffffffffffffffffffffffffffffffffff1673ffffffffffffffffffffffffffffffffffffffff168152602001600382015481526020016004820160009054906101000a90046bffffffffffffffffffffffff166bffffffffffffffffffffffff166bffffffffffffffffffffffff16815260200160048201600c9054906101000a900460ff161515151581526020016005820160009054906101000a900473ffffffffffffffffffffffffffffffffffffffff1673ffffffffffffffffffffffffffffffffffffffff1673ffffffffffffffffffffffffffffffffffffffff1681526020016005820160149054906101000a90046bffffffffffffffffffffffff166bffffffffffffffffffffffff166bffffffffffffffffffffffff1681526020016006820154815250509050919050565b61126a612132565b600073ffffffffffffffffffffffffffffffffffffffff168173ffffffffffffffffffffffffffffffffffffffff16036112d9576040517f08c379a00000000000000000000000000000000000000000000000000000000081526004016112d090613618565b60405180910390fd5b7f666565000000000000000000000000000000000000000000000000000000000082036113425780606660086101000a81548173ffffffffffffffffffffffffffffffffffffffff021916908373ffffffffffffffffffffffffffffffffffffffff1602179055505b7f61676772656761746f720000000000000000000000000000000000000000000082036113ab5780606760006101000a81548173ffffffffffffffffffffffffffffffffffffffff021916908373ffffffffffffffffffffffffffffffffffffffff1602179055505b5050565b6113b7612132565b80606660006101000a81548167ffffffffffffffff021916908367ffffffffffffffff1602179055507fc8ca786c100bc62a0dffbe768b5f0b770d84e8604c5de54b54197b9066bb42a98160405161140f9190613638565b60405180910390a150565b61142261243d565b609e6000838152602001908152602001600020604051806040016040529081600082015481526020016001820154815250509050919050565b6000603360009054906101000a900473ffffffffffffffffffffffffffffffffffffffff16905090565b61148d612132565b600073ffffffffffffffffffffffffffffffffffffffff168273ffffffffffffffffffffffffffffffffffffffff16036114fc576040517f08c379a00000000000000000000000000000000000000000000000000000000081526004016114f390613618565b60405180910390fd5b7f746f6b656e000000000000000000000000000000000000000000000000000000830361157b5780609b60008473ffffffffffffffffffffffffffffffffffffffff1673ffffffffffffffffffffffffffffffffffffffff16815260200190815260200160002060006101000a81548160ff0219169083151502179055505b7f77686974656c697374000000000000000000000000000000000000000000000083036115fa5780609c60008473ffffffffffffffffffffffffffffffffffffffff1673ffffffffffffffffffffffffffffffffffffffff16815260200190815260200160002060006101000a81548160ff0219169083151502179055505b7fe22cadcc5ddbc0a185e8920eaa6825bcc06dcd6b432988e7e9912caa59ace93083838360405161162d93929190613653565b60405180910390a1505050565b600080606660009054906101000a900467ffffffffffffffff16606554915091509091565b60008060019054906101000a900460ff161590508080156116905750600160008054906101000a900460ff1660ff16105b806116bd575061169f30612276565b1580156116bc5750600160008054906101000a900460ff1660ff16145b5b6116fc576040517f08c379a00000000000000000000000000000000000000000000000000000000081526004016116f3906136fc565b60405180910390fd5b60016000806101000a81548160ff021916908360ff1602179055508015611739576001600060016101000a81548160ff0219169083151502179055505b6001609b60008473ffffffffffffffffffffffffffffffffffffffff1673ffffffffffffffffffffffffffffffffffffffff16815260200190815260200160002060006101000a81548160ff021916908315150217905550620186a0606581905550611388606660006101000a81548167ffffffffffffffff021916908367ffffffffffffffff1602179055506117ce612299565b80156118275760008060016101000a81548160ff0219169083151502179055507f7f26b83ff96e1f2b6a682f133852f6798a09c465da95921460cefb3847402498600160405161181e9190613764565b60405180910390a15b5050565b611833612132565b81816068918261184492919061392c565b507f6a6600b7242975868d8321b5e64d0c9f2fcc92eb1af72254a6357be77ee7dcef8282604051611876929190613a29565b60405180910390a15050565b6000609c60008373ffffffffffffffffffffffffffffffffffffffff1673ffffffffffffffffffffffffffffffffffffffff16815260200190815260200160002060009054906101000a900460ff169050919050565b6118e0612132565b8273ffffffffffffffffffffffffffffffffffffffff1663a9059cbb83836040518363ffffffff1660e01b815260040161191b929190613247565b6020604051808303816000875af115801561193a573d6000803e3d6000fd5b505050506040513d601f19601f8201168201806040525081019061195e9190613285565b50505050565b6000606760009054906101000a900473ffffffffffffffffffffffffffffffffffffffff1673ffffffffffffffffffffffffffffffffffffffff163373ffffffffffffffffffffffffffffffffffffffff16146119f6576040517f08c379a00000000000000000000000000000000000000000000000000000000081526004016119ed9061314c565b60405180910390fd5b609f6000848152602001908152602001600020600401600c9054906101000a900460ff1615611a5a576040517f08c379a0000000000000000000000000000000000000000000000000000000008152600401611a51906131b8565b60405180910390fd5b6001609f6000858152602001908152602001600020600401600c6101000a81548160ff0219169083151502179055506000609f600085815260200190815260200160002060050160146101000a8154816bffffffffffffffffffffffff02191690836bffffffffffffffffffffffff160217905550609f600084815260200190815260200160002060010160009054906101000a900473ffffffffffffffffffffffffffffffffffffffff1673ffffffffffffffffffffffffffffffffffffffff1663a9059cbb609f600086815260200190815260200160002060050160009054906101000a900473ffffffffffffffffffffffffffffffffffffffff16609f6000878152602001908152602001600020600601546040518363ffffffff1660e01b8152600401611b8c929190613247565b6020604051808303816000875af1158015611bab573d6000803e3d6000fd5b505050506040513d601f19601f82011682018060405250810190611bcf9190613285565b50827e7c875846b687732a7579c19bb1dade66cd14e9f4f809565e2b2b5e76c72b4f83604051611bff91906129fc565b60405180910390a26001905092915050565b6000606760009054906101000a900473ffffffffffffffffffffffffffffffffffffffff16905090565b611c43612132565b600073ffffffffffffffffffffffffffffffffffffffff168173ffffffffffffffffffffffffffffffffffffffff1603611cb2576040517f08c379a0000000000000000000000000000000000000000000000000000000008152600401611ca990613abf565b60405180910390fd5b611cbb816121b0565b50565b611cc661245d565b6000609f6000868152602001908152602001600020600601549050609f60008681526020019081526020016000206003015481611d039190613adf565b9050606554846bffffffffffffffffffffffff1682611d229190613324565b611d2c9190613395565b826020018181525050606554606660009054906101000a900467ffffffffffffffff1667ffffffffffffffff168360200151611d689190613324565b611d729190613395565b82600001818152505081600001518260200151611d8f9190613adf565b8260200181815250508215611dc757816000015182602001818151611db49190613b13565b9150818152505060008260000181815250505b509392505050565b6000609f600083815260200190815260200160002060020160009054906101000a900473ffffffffffffffffffffffffffffffffffffffff1690506000609f6000848152602001908152602001600020600301549050609f600084815260200190815260200160002060010160009054906101000a900473ffffffffffffffffffffffffffffffffffffffff1673ffffffffffffffffffffffffffffffffffffffff1663a9059cbb83836040518363ffffffff1660e01b8152600401611e96929190613247565b6020604051808303816000875af1158015611eb5573d6000803e3d6000fd5b505050506040513d601f19601f82011682018060405250810190611ed99190613285565b50808273ffffffffffffffffffffffffffffffffffffffff167f96c76d5aec8a8c11a9c8e02768e3fa309347330d08961e0cf9fd43b349b684c260405160405180910390a3505050565b609b60008673ffffffffffffffffffffffffffffffffffffffff1673ffffffffffffffffffffffffffffffffffffffff16815260200190815260200160002060009054906101000a900460ff16611faf576040517f08c379a0000000000000000000000000000000000000000000000000000000008152600401611fa690613b93565b60405180910390fd5b60008411611ff2576040517f08c379a0000000000000000000000000000000000000000000000000000000008152600401611fe990613bff565b60405180910390fd5b600073ffffffffffffffffffffffffffffffffffffffff168373ffffffffffffffffffffffffffffffffffffffff1603612061576040517f08c379a000000000000000000000000000000000000000000000000000000000815260040161205890613c6b565b60405180910390fd5b600073ffffffffffffffffffffffffffffffffffffffff168273ffffffffffffffffffffffffffffffffffffffff16036120d0576040517f08c379a00000000000000000000000000000000000000000000000000000000081526004016120c790613c6b565b60405180910390fd5b6000801b609e6000838152602001908152602001600020600001540361212b576040517f08c379a000000000000000000000000000000000000000000000000000000000815260040161212290613cd7565b60405180910390fd5b5050505050565b61213a6122f2565b73ffffffffffffffffffffffffffffffffffffffff1661215861145b565b73ffffffffffffffffffffffffffffffffffffffff16146121ae576040517f08c379a00000000000000000000000000000000000000000000000000000000081526004016121a590613d43565b60405180910390fd5b565b6000603360009054906101000a900473ffffffffffffffffffffffffffffffffffffffff16905081603360006101000a81548173ffffffffffffffffffffffffffffffffffffffff021916908373ffffffffffffffffffffffffffffffffffffffff1602179055508173ffffffffffffffffffffffffffffffffffffffff168173ffffffffffffffffffffffffffffffffffffffff167f8be0079c531659141344cd1fd0a4f28419497f9722a3daafe3b4186f6b6457e060405160405180910390a35050565b6000808273ffffffffffffffffffffffffffffffffffffffff163b119050919050565b600060019054906101000a900460ff166122e8576040517f08c379a00000000000000000000000000000000000000000000000000000000081526004016122df90613dd5565b60405180910390fd5b6122f06122fa565b565b600033905090565b600060019054906101000a900460ff16612349576040517f08c379a000000000000000000000000000000000000000000000000000000000815260040161234090613dd5565b60405180910390fd5b6123596123546122f2565b6121b0565b565b604051806040016040528060008019168152602001600080191681525090565b604051806101200160405280600073ffffffffffffffffffffffffffffffffffffffff168152602001600073ffffffffffffffffffffffffffffffffffffffff168152602001600073ffffffffffffffffffffffffffffffffffffffff1681526020016000815260200160006bffffffffffffffffffffffff168152602001600015158152602001600073ffffffffffffffffffffffffffffffffffffffff16815260200160006bffffffffffffffffffffffff168152602001600081525090565b604051806040016040528060008019168152602001600080191681525090565b604051806040016040528060008152602001600081525090565b6000604051905090565b600080fd5b600080fd5b6000819050919050565b61249e8161248b565b81146124a957600080fd5b50565b6000813590506124bb81612495565b92915050565b6000602082840312156124d7576124d6612481565b5b60006124e5848285016124ac565b91505092915050565b600081519050919050565b600082825260208201905092915050565b6000819050602082019050919050565b6125238161248b565b82525050565b60408201600082015161253f600085018261251a565b506020820151612552602085018261251a565b50505050565b60006125648383612529565b60408301905092915050565b6000602082019050919050565b6000612588826124ee565b61259281856124f9565b935061259d8361250a565b8060005b838110156125ce5781516125b58882612558565b97506125c083612570565b9250506001810190506125a1565b5085935050505092915050565b600060208201905081810360008301526125f5818461257d565b905092915050565b600080fd5b600080fd5b600080fd5b60008083601f840112612622576126216125fd565b5b8235905067ffffffffffffffff81111561263f5761263e612602565b5b60208301915083602082028301111561265b5761265a612607565b5b9250929050565b600073ffffffffffffffffffffffffffffffffffffffff82169050919050565b600061268d82612662565b9050919050565b61269d81612682565b81146126a857600080fd5b50565b6000813590506126ba81612694565b92915050565b600067ffffffffffffffff82169050919050565b6126dd816126c0565b81146126e857600080fd5b50565b6000813590506126fa816126d4565b92915050565b60008115159050919050565b61271581612700565b811461272057600080fd5b50565b6000813590506127328161270c565b92915050565b60008060008060008060008060e0898b03121561275857612757612481565b5b60006127668b828c016124ac565b98505060206127778b828c016124ac565b97505060406127888b828c016124ac565b965050606089013567ffffffffffffffff8111156127a9576127a8612486565b5b6127b58b828c0161260c565b955095505060806127c88b828c016126ab565b93505060a06127d98b828c016126eb565b92505060c06127ea8b828c01612723565b9150509295985092959890939650565b6128038161248b565b82525050565b61281281612682565b82525050565b600060408201905061282d60008301856127fa565b61283a6020830184612809565b9392505050565b6000819050919050565b61285481612841565b811461285f57600080fd5b50565b6000813590506128718161284b565b92915050565b60006bffffffffffffffffffffffff82169050919050565b61289881612877565b81146128a357600080fd5b50565b6000813590506128b58161288f565b92915050565b60008083601f8401126128d1576128d06125fd565b5b8235905067ffffffffffffffff8111156128ee576128ed612602565b5b60208301915083600182028301111561290a57612909612607565b5b9250929050565b6000806000806000806000806000806101208b8d03121561293557612934612481565b5b60006129438d828e016126ab565b9a505060206129548d828e01612862565b99505060406129658d828e016124ac565b98505060606129768d828e016124ac565b97505060806129878d828e016128a6565b96505060a06129988d828e016126ab565b95505060c06129a98d828e01612862565b94505060e06129ba8d828e016126ab565b9350506101008b013567ffffffffffffffff8111156129dc576129db612486565b5b6129e88d828e016128bb565b92509250509295989b9194979a5092959850565b6000602082019050612a1160008301846127fa565b92915050565b6000601f19601f8301169050919050565b7f4e487b7100000000000000000000000000000000000000000000000000000000600052604160045260246000fd5b612a6082612a17565b810181811067ffffffffffffffff82111715612a7f57612a7e612a28565b5b80604052505050565b6000612a92612477565b9050612a9e8282612a57565b919050565b600067ffffffffffffffff821115612abe57612abd612a28565b5b602082029050602081019050919050565b600080fd5b600060408284031215612aea57612ae9612acf565b5b612af46040612a88565b90506000612b04848285016124ac565b6000830152506020612b18848285016124ac565b60208301525092915050565b6000612b37612b3284612aa3565b612a88565b90508083825260208201905060408402830185811115612b5a57612b59612607565b5b835b81811015612b835780612b6f8882612ad4565b845260208401935050604081019050612b5c565b5050509392505050565b600082601f830112612ba257612ba16125fd565b5b8135612bb2848260208601612b24565b91505092915050565b60008060408385031215612bd257612bd1612481565b5b6000612be0858286016124ac565b925050602083013567ffffffffffffffff811115612c0157612c00612486565b5b612c0d85828601612b8d565b9150509250929050565b600081519050919050565b600082825260208201905092915050565b60005b83811015612c51578082015181840152602081019050612c36565b60008484015250505050565b6000612c6882612c17565b612c728185612c22565b9350612c82818560208601612c33565b612c8b81612a17565b840191505092915050565b60006020820190508181036000830152612cb08184612c5d565b905092915050565b600060208284031215612cce57612ccd612481565b5b6000612cdc848285016126ab565b91505092915050565b612cee81612700565b82525050565b6000602082019050612d096000830184612ce5565b92915050565b612d1881612682565b82525050565b612d2781612841565b82525050565b612d3681612877565b82525050565b612d4581612700565b82525050565b61012082016000820151612d626000850182612d0f565b506020820151612d756020850182612d0f565b506040820151612d886040850182612d0f565b506060820151612d9b6060850182612d1e565b506080820151612dae6080850182612d2d565b5060a0820151612dc160a0850182612d3c565b5060c0820151612dd460c0850182612d0f565b5060e0820151612de760e0850182612d2d565b50610100820151612dfc610100850182612d1e565b50505050565b600061012082019050612e186000830184612d4b565b92915050565b60008060408385031215612e3557612e34612481565b5b6000612e43858286016124ac565b9250506020612e54858286016126ab565b9150509250929050565b600060208284031215612e7457612e73612481565b5b6000612e82848285016126eb565b91505092915050565b604082016000820151612ea1600085018261251a565b506020820151612eb4602085018261251a565b50505050565b6000604082019050612ecf6000830184612e8b565b92915050565b6000602082019050612eea6000830184612809565b92915050565b600080600060608486031215612f0957612f08612481565b5b6000612f17868287016124ac565b9350506020612f28868287016126ab565b9250506040612f3986828701612723565b9150509250925092565b612f4c816126c0565b82525050565b612f5b81612841565b82525050565b6000604082019050612f766000830185612f43565b612f836020830184612f52565b9392505050565b60008083601f840112612fa057612f9f6125fd565b5b8235905067ffffffffffffffff811115612fbd57612fbc612602565b5b602083019150836001820283011115612fd957612fd8612607565b5b9250929050565b60008060208385031215612ff757612ff6612481565b5b600083013567ffffffffffffffff81111561301557613014612486565b5b61302185828601612f8a565b92509250509250929050565b60008060006060848603121561304657613045612481565b5b6000613054868287016126ab565b9350506020613065868287016126ab565b925050604061307686828701612862565b9150509250925092565b6000806040838503121561309757613096612481565b5b60006130a5858286016124ac565b92505060206130b6858286016124ac565b9150509250929050565b7f4e487b7100000000000000000000000000000000000000000000000000000000600052603260045260246000fd5b600082825260208201905092915050565b7f4f6e6c7941676772656761746f72000000000000000000000000000000000000600082015250565b6000613136600e836130ef565b915061314182613100565b602082019050919050565b6000602082019050818103600083015261316581613129565b9050919050565b7f4f7264657246756c66696c6c6564000000000000000000000000000000000000600082015250565b60006131a2600e836130ef565b91506131ad8261316c565b602082019050919050565b600060208201905081810360008301526131d181613195565b9050919050565b7f4e487b7100000000000000000000000000000000000000000000000000000000600052601160045260246000fd5b600061321282612877565b915061321d83612877565b925082820390506bffffffffffffffffffffffff811115613241576132406131d8565b5b92915050565b600060408201905061325c6000830185612809565b6132696020830184612f52565b9392505050565b60008151905061327f8161270c565b92915050565b60006020828403121561329b5761329a612481565b5b60006132a984828501613270565b91505092915050565b6000819050919050565b60006132d76132d26132cd846126c0565b6132b2565b612877565b9050919050565b6132e7816132bc565b82525050565b600060608201905061330260008301866127fa565b61330f60208301856127fa565b61331c60408301846132de565b949350505050565b600061332f82612841565b915061333a83612841565b925082820261334881612841565b9150828204841483151761335f5761335e6131d8565b5b5092915050565b7f4e487b7100000000000000000000000000000000000000000000000000000000600052601260045260246000fd5b60006133a082612841565b91506133ab83612841565b9250826133bb576133ba613366565b5b828204905092915050565b7f53656e646572466565546f6f4869676800000000000000000000000000000000600082015250565b60006133fc6010836130ef565b9150613407826133c6565b602082019050919050565b6000602082019050818103600083015261342b816133ef565b9050919050565b60006060820190506134476000830186612809565b6134546020830185612809565b6134616040830184612f52565b949350505050565b600061347482612841565b91507fffffffffffffffffffffffffffffffffffffffffffffffffffffffffffffffff82036134a6576134a56131d8565b5b600182019050919050565b60006134cc6134c76134c284612877565b6132b2565b612841565b9050919050565b6134dc816134b1565b82525050565b82818337600083830152505050565b60006134fd83856130ef565b935061350a8385846134e2565b61351383612a17565b840190509392505050565b600060808201905061353360008301886134d3565b61354060208301876127fa565b61354d60408301866127fa565b81810360608301526135608184866134f1565b90509695505050505050565b7f4e487b7100000000000000000000000000000000000000000000000000000000600052602260045260246000fd5b600060028204905060018216806135b357607f821691505b6020821081036135c6576135c561356c565b5b50919050565b7f50617963726573743a207a65726f206164647265737300000000000000000000600082015250565b60006136026016836130ef565b915061360d826135cc565b602082019050919050565b60006020820190508181036000830152613631816135f5565b9050919050565b600060208201905061364d6000830184612f43565b92915050565b600060608201905061366860008301866127fa565b6136756020830185612809565b6136826040830184612ce5565b949350505050565b7f496e697469616c697a61626c653a20636f6e747261637420697320616c72656160008201527f647920696e697469616c697a6564000000000000000000000000000000000000602082015250565b60006136e6602e836130ef565b91506136f18261368a565b604082019050919050565b60006020820190508181036000830152613715816136d9565b9050919050565b6000819050919050565b600060ff82169050919050565b600061374e6137496137448461371c565b6132b2565b613726565b9050919050565b61375e81613733565b82525050565b60006020820190506137796000830184613755565b92915050565b600082905092915050565b60008190508160005260206000209050919050565b60006020601f8301049050919050565b600082821b905092915050565b6000600883026137ec7fffffffffffffffffffffffffffffffffffffffffffffffffffffffffffffffff826137af565b6137f686836137af565b95508019841693508086168417925050509392505050565b600061382961382461381f84612841565b6132b2565b612841565b9050919050565b6000819050919050565b6138438361380e565b61385761384f82613830565b8484546137bc565b825550505050565b600090565b61386c61385f565b61387781848461383a565b505050565b5b8181101561389b57613890600082613864565b60018101905061387d565b5050565b601f8211156138e0576138b18161378a565b6138ba8461379f565b810160208510156138c9578190505b6138dd6138d58561379f565b83018261387c565b50505b505050565b600082821c905092915050565b6000613903600019846008026138e5565b1980831691505092915050565b600061391c83836138f2565b9150826002028217905092915050565b613936838361377f565b67ffffffffffffffff81111561394f5761394e612a28565b5b613959825461359b565b61396482828561389f565b6000601f8311600181146139935760008415613981578287013590505b61398b8582613910565b8655506139f3565b601f1984166139a18661378a565b60005b828110156139c9578489013582556001820191506020850194506020810190506139a4565b868310156139e657848901356139e2601f8916826138f2565b8355505b6001600288020188555050505b50505050505050565b6000613a088385612c22565b9350613a158385846134e2565b613a1e83612a17565b840190509392505050565b60006020820190508181036000830152613a448184866139fc565b90509392505050565b7f4f776e61626c653a206e6577206f776e657220697320746865207a65726f206160008201527f6464726573730000000000000000000000000000000000000000000000000000602082015250565b6000613aa96026836130ef565b9150613ab482613a4d565b604082019050919050565b60006020820190508181036000830152613ad881613a9c565b9050919050565b6000613aea82612841565b9150613af583612841565b9250828203905081811115613b0d57613b0c6131d8565b5b92915050565b6000613b1e82612841565b9150613b2983612841565b9250828201905080821115613b4157613b406131d8565b5b92915050565b7f546f6b656e4e6f74537570706f72746564000000000000000000000000000000600082015250565b6000613b7d6011836130ef565b9150613b8882613b47565b602082019050919050565b60006020820190508181036000830152613bac81613b70565b9050919050565b7f416d6f756e7449735a65726f0000000000000000000000000000000000000000600082015250565b6000613be9600c836130ef565b9150613bf482613bb3565b602082019050919050565b60006020820190508181036000830152613c1881613bdc565b9050919050565b7f5468726f775a65726f4164647265737300000000000000000000000000000000600082015250565b6000613c556010836130ef565b9150613c6082613c1f565b602082019050919050565b60006020820190508181036000830152613c8481613c48565b9050919050565b7f496e76616c6964496e737469747574696f6e436f646500000000000000000000600082015250565b6000613cc16016836130ef565b9150613ccc82613c8b565b602082019050919050565b60006020820190508181036000830152613cf081613cb4565b9050919050565b7f4f776e61626c653a2063616c6c6572206973206e6f7420746865206f776e6572600082015250565b6000613d2d6020836130ef565b9150613d3882613cf7565b602082019050919050565b60006020820190508181036000830152613d5c81613d20565b9050919050565b7f496e697469616c697a61626c653a20636f6e7472616374206973206e6f74206960008201527f6e697469616c697a696e67000000000000000000000000000000000000000000602082015250565b6000613dbf602b836130ef565b9150613dca82613d63565b604082019050919050565b60006020820190508181036000830152613dee81613db2565b905091905056fea264697066735822122095bbf3973ced310cd8777c31ea538f4beed34d4fea5f26c4beee1d63073174ea64736f6c63430008120033","opcodes":"PUSH1 0x80 PUSH1 0x40 MSTORE CALLVALUE DUP1 ISZERO PUSH3 0x11 JUMPI PUSH1 0x0 DUP1 REVERT JUMPDEST POP PUSH3 0x22 PUSH3 0x28 PUSH1 0x20 SHL PUSH1 0x20 SHR JUMP JUMPDEST PUSH3 0x1D2 JUMP JUMPDEST PUSH1 0x0 PUSH1 0x1 SWAP1 SLOAD SWAP1 PUSH2 0x100 EXP SWAP1 DIV PUSH1 0xFF AND ISZERO PUSH3 0x7B JUMPI PUSH1 0x40 MLOAD PUSH32 0x8C379A000000000000000000000000000000000000000000000000000000000 DUP2 MSTORE PUSH1 0x4 ADD PUSH3 0x72 SWAP1 PUSH3 0x175 JUMP JUMPDEST PUSH1 0x40 MLOAD DUP1 SWAP2 SUB SWAP1 REVERT JUMPDEST PUSH1 0xFF DUP1 AND PUSH1 0x0 DUP1 SLOAD SWAP1 PUSH2 0x100 EXP SWAP1 DIV PUSH1 0xFF AND PUSH1 0xFF AND EQ PUSH3 0xEC JUMPI PUSH1 0xFF PUSH1 0x0 DUP1 PUSH2 0x100 EXP DUP2 SLOAD DUP2 PUSH1 0xFF MUL NOT AND SWAP1 DUP4 PUSH1 0xFF AND MUL OR SWAP1 SSTORE POP PUSH32 0x7F26B83FF96E1F2B6A682F133852F6798A09C465DA95921460CEFB3847402498 PUSH1 0xFF PUSH1 0x40 MLOAD PUSH3 0xE3 SWAP2 SWAP1 PUSH3 0x1B5 JUMP JUMPDEST PUSH1 0x40 MLOAD DUP1 SWAP2 SUB SWAP1 LOG1 JUMPDEST JUMP JUMPDEST PUSH1 0x0 DUP3 DUP3 MSTORE PUSH1 0x20 DUP3 ADD SWAP1 POP SWAP3 SWAP2 POP POP JUMP JUMPDEST PUSH32 0x496E697469616C697A61626C653A20636F6E747261637420697320696E697469 PUSH1 0x0 DUP3 ADD MSTORE PUSH32 0x616C697A696E6700000000000000000000000000000000000000000000000000 PUSH1 0x20 DUP3 ADD MSTORE POP JUMP JUMPDEST PUSH1 0x0 PUSH3 0x15D PUSH1 0x27 DUP4 PUSH3 0xEE JUMP JUMPDEST SWAP2 POP PUSH3 0x16A DUP3 PUSH3 0xFF JUMP JUMPDEST PUSH1 0x40 DUP3 ADD SWAP1 POP SWAP2 SWAP1 POP JUMP JUMPDEST PUSH1 0x0 PUSH1 0x20 DUP3 ADD SWAP1 POP DUP2 DUP2 SUB PUSH1 0x0 DUP4 ADD MSTORE PUSH3 0x190 DUP2 PUSH3 0x14E JUMP JUMPDEST SWAP1 POP SWAP2 SWAP1 POP JUMP JUMPDEST PUSH1 0x0 PUSH1 0xFF DUP3 AND SWAP1 POP SWAP2 SWAP1 POP JUMP JUMPDEST PUSH3 0x1AF DUP2 PUSH3 0x197 JUMP JUMPDEST DUP3 MSTORE POP POP JUMP JUMPDEST PUSH1 0x0 PUSH1 0x20 DUP3 ADD SWAP1 POP PUSH3 0x1CC PUSH1 0x0 DUP4 ADD DUP5 PUSH3 0x1A4 JUMP JUMPDEST SWAP3 SWAP2 POP POP JUMP JUMPDEST PUSH2 0x3E2B DUP1 PUSH3 0x1E2 PUSH1 0x0 CODECOPY PUSH1 0x0 RETURN INVALID PUSH1 0x80 PUSH1 0x40 MSTORE CALLVALUE DUP1 ISZERO PUSH2 0x10 JUMPI PUSH1 0x0 DUP1 REVERT JUMPDEST POP PUSH1 0x4 CALLDATASIZE LT PUSH2 0x137 JUMPI PUSH1 0x0 CALLDATALOAD PUSH1 0xE0 SHR DUP1 PUSH4 0x87490D86 GT PUSH2 0xB8 JUMPI DUP1 PUSH4 0xCB79455B GT PUSH2 0x7C JUMPI DUP1 PUSH4 0xCB79455B EQ PUSH2 0x34E JUMPI DUP1 PUSH4 0xD8E8DE34 EQ PUSH2 0x36A JUMPI DUP1 PUSH4 0xD9CAED12 EQ PUSH2 0x39A JUMPI DUP1 PUSH4 0xE4683A79 EQ PUSH2 0x3B6 JUMPI DUP1 PUSH4 0xE8D6E0DE EQ PUSH2 0x3E6 JUMPI DUP1 PUSH4 0xF2FDE38B EQ PUSH2 0x404 JUMPI PUSH2 0x137 JUMP JUMPDEST DUP1 PUSH4 0x87490D86 EQ PUSH2 0x2A9 JUMPI DUP1 PUSH4 0x8DA5CB5B EQ PUSH2 0x2D9 JUMPI DUP1 PUSH4 0x99E3C0B4 EQ PUSH2 0x2F7 JUMPI DUP1 PUSH4 0xB810C636 EQ PUSH2 0x313 JUMPI DUP1 PUSH4 0xC4D66DE8 EQ PUSH2 0x332 JUMPI PUSH2 0x137 JUMP JUMPDEST DUP1 PUSH4 0x715018A6 GT PUSH2 0xFF JUMPI DUP1 PUSH4 0x715018A6 EQ PUSH2 0x207 JUMPI DUP1 PUSH4 0x75151B63 EQ PUSH2 0x211 JUMPI DUP1 PUSH4 0x768C6EC0 EQ PUSH2 0x241 JUMPI DUP1 PUSH4 0x79A0EFFB EQ PUSH2 0x271 JUMPI DUP1 PUSH4 0x84630736 EQ PUSH2 0x28D JUMPI PUSH2 0x137 JUMP JUMPDEST DUP1 PUSH4 0x2621338 EQ PUSH2 0x13C JUMPI DUP1 PUSH4 0x137764FB EQ PUSH2 0x16C JUMPI DUP1 PUSH4 0x2654EC7E EQ PUSH2 0x19D JUMPI DUP1 PUSH4 0x32200882 EQ PUSH2 0x1CD JUMPI DUP1 PUSH4 0x3AD59DBC EQ PUSH2 0x1E9 JUMPI JUMPDEST PUSH1 0x0 DUP1 REVERT JUMPDEST PUSH2 0x156 PUSH1 0x4 DUP1 CALLDATASIZE SUB DUP2 ADD SWAP1 PUSH2 0x151 SWAP2 SWAP1 PUSH2 0x24C1 JUMP JUMPDEST PUSH2 0x420 JUMP JUMPDEST PUSH1 0x40 MLOAD PUSH2 0x163 SWAP2 SWAP1 PUSH2 0x25DB JUMP JUMPDEST PUSH1 0x40 MLOAD DUP1 SWAP2 SUB SWAP1 RETURN JUMPDEST PUSH2 0x186 PUSH1 0x4 DUP1 CALLDATASIZE SUB DUP2 ADD SWAP1 PUSH2 0x181 SWAP2 SWAP1 PUSH2 0x2738 JUMP JUMPDEST PUSH2 0x55E JUMP JUMPDEST PUSH1 0x40 MLOAD PUSH2 0x194 SWAP3 SWAP2 SWAP1 PUSH2 0x2818 JUMP JUMPDEST PUSH1 0x40 MLOAD DUP1 SWAP2 SUB SWAP1 RETURN JUMPDEST PUSH2 0x1B7 PUSH1 0x4 DUP1 CALLDATASIZE SUB DUP2 ADD SWAP1 PUSH2 0x1B2 SWAP2 SWAP1 PUSH2 0x2911 JUMP JUMPDEST PUSH2 0x959 JUMP JUMPDEST PUSH1 0x40 MLOAD PUSH2 0x1C4 SWAP2 SWAP1 PUSH2 0x29FC JUMP JUMPDEST PUSH1 0x40 MLOAD DUP1 SWAP2 SUB SWAP1 RETURN JUMPDEST PUSH2 0x1E7 PUSH1 0x4 DUP1 CALLDATASIZE SUB DUP2 ADD SWAP1 PUSH2 0x1E2 SWAP2 SWAP1 PUSH2 0x2BBB JUMP JUMPDEST PUSH2 0xE21 JUMP JUMPDEST STOP JUMPDEST PUSH2 0x1F1 PUSH2 0xF35 JUMP JUMPDEST PUSH1 0x40 MLOAD PUSH2 0x1FE SWAP2 SWAP1 PUSH2 0x2C96 JUMP JUMPDEST PUSH1 0x40 MLOAD DUP1 SWAP2 SUB SWAP1 RETURN JUMPDEST PUSH2 0x20F PUSH2 0xFC7 JUMP JUMPDEST STOP JUMPDEST PUSH2 0x22B PUSH1 0x4 DUP1 CALLDATASIZE SUB DUP2 ADD SWAP1 PUSH2 0x226 SWAP2 SWAP1 PUSH2 0x2CB8 JUMP JUMPDEST PUSH2 0xFDB JUMP JUMPDEST PUSH1 0x40 MLOAD PUSH2 0x238 SWAP2 SWAP1 PUSH2 0x2CF4 JUMP JUMPDEST PUSH1 0x40 MLOAD DUP1 SWAP2 SUB SWAP1 RETURN JUMPDEST PUSH2 0x25B PUSH1 0x4 DUP1 CALLDATASIZE SUB DUP2 ADD SWAP1 PUSH2 0x256 SWAP2 SWAP1 PUSH2 0x24C1 JUMP JUMPDEST PUSH2 0x1031 JUMP JUMPDEST PUSH1 0x40 MLOAD PUSH2 0x268 SWAP2 SWAP1 PUSH2 0x2E02 JUMP JUMPDEST PUSH1 0x40 MLOAD DUP1 SWAP2 SUB SWAP1 RETURN JUMPDEST PUSH2 0x28B PUSH1 0x4 DUP1 CALLDATASIZE SUB DUP2 ADD SWAP1 PUSH2 0x286 SWAP2 SWAP1 PUSH2 0x2E1E JUMP JUMPDEST PUSH2 0x1262 JUMP JUMPDEST STOP JUMPDEST PUSH2 0x2A7 PUSH1 0x4 DUP1 CALLDATASIZE SUB DUP2 ADD SWAP1 PUSH2 0x2A2 SWAP2 SWAP1 PUSH2 0x2E5E JUMP JUMPDEST PUSH2 0x13AF JUMP JUMPDEST STOP JUMPDEST PUSH2 0x2C3 PUSH1 0x4 DUP1 CALLDATASIZE SUB DUP2 ADD SWAP1 PUSH2 0x2BE SWAP2 SWAP1 PUSH2 0x24C1 JUMP JUMPDEST PUSH2 0x141A JUMP JUMPDEST PUSH1 0x40 MLOAD PUSH2 0x2D0 SWAP2 SWAP1 PUSH2 0x2EBA JUMP JUMPDEST PUSH1 0x40 MLOAD DUP1 SWAP2 SUB SWAP1 RETURN JUMPDEST PUSH2 0x2E1 PUSH2 0x145B JUMP JUMPDEST PUSH1 0x40 MLOAD PUSH2 0x2EE SWAP2 SWAP1 PUSH2 0x2ED5 JUMP JUMPDEST PUSH1 0x40 MLOAD DUP1 SWAP2 SUB SWAP1 RETURN JUMPDEST PUSH2 0x311 PUSH1 0x4 DUP1 CALLDATASIZE SUB DUP2 ADD SWAP1 PUSH2 0x30C SWAP2 SWAP1 PUSH2 0x2EF0 JUMP JUMPDEST PUSH2 0x1485 JUMP JUMPDEST STOP JUMPDEST PUSH2 0x31B PUSH2 0x163A JUMP JUMPDEST PUSH1 0x40 MLOAD PUSH2 0x329 SWAP3 SWAP2 SWAP1 PUSH2 0x2F61 JUMP JUMPDEST PUSH1 0x40 MLOAD DUP1 SWAP2 SUB SWAP1 RETURN JUMPDEST PUSH2 0x34C PUSH1 0x4 DUP1 CALLDATASIZE SUB DUP2 ADD SWAP1 PUSH2 0x347 SWAP2 SWAP1 PUSH2 0x2CB8 JUMP JUMPDEST PUSH2 0x165F JUMP JUMPDEST STOP JUMPDEST PUSH2 0x368 PUSH1 0x4 DUP1 CALLDATASIZE SUB DUP2 ADD SWAP1 PUSH2 0x363 SWAP2 SWAP1 PUSH2 0x2FE0 JUMP JUMPDEST PUSH2 0x182B JUMP JUMPDEST STOP JUMPDEST PUSH2 0x384 PUSH1 0x4 DUP1 CALLDATASIZE SUB DUP2 ADD SWAP1 PUSH2 0x37F SWAP2 SWAP1 PUSH2 0x2CB8 JUMP JUMPDEST PUSH2 0x1882 JUMP JUMPDEST PUSH1 0x40 MLOAD PUSH2 0x391 SWAP2 SWAP1 PUSH2 0x2CF4 JUMP JUMPDEST PUSH1 0x40 MLOAD DUP1 SWAP2 SUB SWAP1 RETURN JUMPDEST PUSH2 0x3B4 PUSH1 0x4 DUP1 CALLDATASIZE SUB DUP2 ADD SWAP1 PUSH2 0x3AF SWAP2 SWAP1 PUSH2 0x302D JUMP JUMPDEST PUSH2 0x18D8 JUMP JUMPDEST STOP JUMPDEST PUSH2 0x3D0 PUSH1 0x4 DUP1 CALLDATASIZE SUB DUP2 ADD SWAP1 PUSH2 0x3CB SWAP2 SWAP1 PUSH2 0x3080 JUMP JUMPDEST PUSH2 0x1964 JUMP JUMPDEST PUSH1 0x40 MLOAD PUSH2 0x3DD SWAP2 SWAP1 PUSH2 0x2CF4 JUMP JUMPDEST PUSH1 0x40 MLOAD DUP1 SWAP2 SUB SWAP1 RETURN JUMPDEST PUSH2 0x3EE PUSH2 0x1C11 JUMP JUMPDEST PUSH1 0x40 MLOAD PUSH2 0x3FB SWAP2 SWAP1 PUSH2 0x2ED5 JUMP JUMPDEST PUSH1 0x40 MLOAD DUP1 SWAP2 SUB SWAP1 RETURN JUMPDEST PUSH2 0x41E PUSH1 0x4 DUP1 CALLDATASIZE SUB DUP2 ADD SWAP1 PUSH2 0x419 SWAP2 SWAP1 PUSH2 0x2CB8 JUMP JUMPDEST PUSH2 0x1C3B JUMP JUMPDEST STOP JUMPDEST PUSH1 0x60 PUSH1 0x0 PUSH1 0x9D PUSH1 0x0 DUP5 DUP2 MSTORE PUSH1 0x20 ADD SWAP1 DUP2 MSTORE PUSH1 0x20 ADD PUSH1 0x0 KECCAK256 DUP1 SLOAD DUP1 PUSH1 0x20 MUL PUSH1 0x20 ADD PUSH1 0x40 MLOAD SWAP1 DUP2 ADD PUSH1 0x40 MSTORE DUP1 SWAP3 SWAP2 SWAP1 DUP2 DUP2 MSTORE PUSH1 0x20 ADD PUSH1 0x0 SWAP1 JUMPDEST DUP3 DUP3 LT ISZERO PUSH2 0x49D JUMPI DUP4 DUP3 SWAP1 PUSH1 0x0 MSTORE PUSH1 0x20 PUSH1 0x0 KECCAK256 SWAP1 PUSH1 0x2 MUL ADD PUSH1 0x40 MLOAD DUP1 PUSH1 0x40 ADD PUSH1 0x40 MSTORE SWAP1 DUP2 PUSH1 0x0 DUP3 ADD SLOAD DUP2 MSTORE PUSH1 0x20 ADD PUSH1 0x1 DUP3 ADD SLOAD DUP2 MSTORE POP POP DUP2 MSTORE PUSH1 0x20 ADD SWAP1 PUSH1 0x1 ADD SWAP1 PUSH2 0x457 JUMP JUMPDEST POP POP POP POP SWAP1 POP PUSH1 0x0 DUP2 MLOAD SWAP1 POP PUSH1 0x0 DUP2 PUSH8 0xFFFFFFFFFFFFFFFF DUP2 GT ISZERO PUSH2 0x4C5 JUMPI PUSH2 0x4C4 PUSH2 0x2A28 JUMP JUMPDEST JUMPDEST PUSH1 0x40 MLOAD SWAP1 DUP1 DUP3 MSTORE DUP1 PUSH1 0x20 MUL PUSH1 0x20 ADD DUP3 ADD PUSH1 0x40 MSTORE DUP1 ISZERO PUSH2 0x4FE JUMPI DUP2 PUSH1 0x20 ADD JUMPDEST PUSH2 0x4EB PUSH2 0x235B JUMP JUMPDEST DUP2 MSTORE PUSH1 0x20 ADD SWAP1 PUSH1 0x1 SWAP1 SUB SWAP1 DUP2 PUSH2 0x4E3 JUMPI SWAP1 POP JUMPDEST POP SWAP1 POP PUSH1 0x0 JUMPDEST DUP3 DUP2 LT ISZERO PUSH2 0x552 JUMPI DUP4 DUP2 DUP2 MLOAD DUP2 LT PUSH2 0x51F JUMPI PUSH2 0x51E PUSH2 0x30C0 JUMP JUMPDEST JUMPDEST PUSH1 0x20 MUL PUSH1 0x20 ADD ADD MLOAD DUP3 DUP3 DUP2 MLOAD DUP2 LT PUSH2 0x53A JUMPI PUSH2 0x539 PUSH2 0x30C0 JUMP JUMPDEST JUMPDEST PUSH1 0x20 MUL PUSH1 0x20 ADD ADD DUP2 SWAP1 MSTORE POP DUP1 DUP1 PUSH1 0x1 ADD SWAP2 POP POP PUSH2 0x504 JUMP JUMPDEST POP DUP1 SWAP4 POP POP POP POP SWAP2 SWAP1 POP JUMP JUMPDEST PUSH1 0x0 DUP1 PUSH1 0x67 PUSH1 0x0 SWAP1 SLOAD SWAP1 PUSH2 0x100 EXP SWAP1 DIV PUSH20 0xFFFFFFFFFFFFFFFFFFFFFFFFFFFFFFFFFFFFFFFF AND PUSH20 0xFFFFFFFFFFFFFFFFFFFFFFFFFFFFFFFFFFFFFFFF AND CALLER PUSH20 0xFFFFFFFFFFFFFFFFFFFFFFFFFFFFFFFFFFFFFFFF AND EQ PUSH2 0x5F1 JUMPI PUSH1 0x40 MLOAD PUSH32 0x8C379A000000000000000000000000000000000000000000000000000000000 DUP2 MSTORE PUSH1 0x4 ADD PUSH2 0x5E8 SWAP1 PUSH2 0x314C JUMP JUMPDEST PUSH1 0x40 MLOAD DUP1 SWAP2 SUB SWAP1 REVERT JUMPDEST PUSH1 0x9F PUSH1 0x0 DUP11 DUP2 MSTORE PUSH1 0x20 ADD SWAP1 DUP2 MSTORE PUSH1 0x20 ADD PUSH1 0x0 KECCAK256 PUSH1 0x4 ADD PUSH1 0xC SWAP1 SLOAD SWAP1 PUSH2 0x100 EXP SWAP1 DIV PUSH1 0xFF AND ISZERO PUSH2 0x655 JUMPI PUSH1 0x40 MLOAD PUSH32 0x8C379A000000000000000000000000000000000000000000000000000000000 DUP2 MSTORE PUSH1 0x4 ADD PUSH2 0x64C SWAP1 PUSH2 0x31B8 JUMP JUMPDEST PUSH1 0x40 MLOAD DUP1 SWAP2 SUB SWAP1 REVERT JUMPDEST PUSH1 0x0 PUSH1 0x9F PUSH1 0x0 DUP12 DUP2 MSTORE PUSH1 0x20 ADD SWAP1 DUP2 MSTORE PUSH1 0x20 ADD PUSH1 0x0 KECCAK256 PUSH1 0x1 ADD PUSH1 0x0 SWAP1 SLOAD SWAP1 PUSH2 0x100 EXP SWAP1 DIV PUSH20 0xFFFFFFFFFFFFFFFFFFFFFFFFFFFFFFFFFFFFFFFF AND SWAP1 POP DUP5 PUSH8 0xFFFFFFFFFFFFFFFF AND PUSH1 0x9F PUSH1 0x0 DUP13 DUP2 MSTORE PUSH1 0x20 ADD SWAP1 DUP2 MSTORE PUSH1 0x20 ADD PUSH1 0x0 KECCAK256 PUSH1 0x5 ADD PUSH1 0x14 DUP3 DUP3 DUP3 SWAP1 SLOAD SWAP1 PUSH2 0x100 EXP SWAP1 DIV PUSH12 0xFFFFFFFFFFFFFFFFFFFFFFFF AND PUSH2 0x6D7 SWAP2 SWAP1 PUSH2 0x3207 JUMP JUMPDEST SWAP3 POP PUSH2 0x100 EXP DUP2 SLOAD DUP2 PUSH12 0xFFFFFFFFFFFFFFFFFFFFFFFF MUL NOT AND SWAP1 DUP4 PUSH12 0xFFFFFFFFFFFFFFFFFFFFFFFF AND MUL OR SWAP1 SSTORE POP PUSH1 0x0 PUSH2 0x71C DUP12 DUP8 PUSH8 0xFFFFFFFFFFFFFFFF AND DUP8 PUSH2 0x1CBE JUMP JUMPDEST SWAP1 POP PUSH1 0x0 PUSH1 0x9F PUSH1 0x0 DUP14 DUP2 MSTORE PUSH1 0x20 ADD SWAP1 DUP2 MSTORE PUSH1 0x20 ADD PUSH1 0x0 KECCAK256 PUSH1 0x5 ADD PUSH1 0x14 SWAP1 SLOAD SWAP1 PUSH2 0x100 EXP SWAP1 DIV PUSH12 0xFFFFFFFFFFFFFFFFFFFFFFFF AND PUSH12 0xFFFFFFFFFFFFFFFFFFFFFFFF AND SUB PUSH2 0x7BB JUMPI PUSH1 0x1 PUSH1 0x9F PUSH1 0x0 DUP14 DUP2 MSTORE PUSH1 0x20 ADD SWAP1 DUP2 MSTORE PUSH1 0x20 ADD PUSH1 0x0 KECCAK256 PUSH1 0x4 ADD PUSH1 0xC PUSH2 0x100 EXP DUP2 SLOAD DUP2 PUSH1 0xFF MUL NOT AND SWAP1 DUP4 ISZERO ISZERO MUL OR SWAP1 SSTORE POP PUSH1 0x0 PUSH1 0x9F PUSH1 0x0 DUP14 DUP2 MSTORE PUSH1 0x20 ADD SWAP1 DUP2 MSTORE PUSH1 0x20 ADD PUSH1 0x0 KECCAK256 PUSH1 0x3 ADD SLOAD GT ISZERO PUSH2 0x7BA JUMPI PUSH2 0x7B9 DUP12 PUSH2 0x1DCF JUMP JUMPDEST JUMPDEST JUMPDEST PUSH1 0x0 DUP2 PUSH1 0x0 ADD MLOAD GT ISZERO PUSH2 0x86E JUMPI DUP2 PUSH20 0xFFFFFFFFFFFFFFFFFFFFFFFFFFFFFFFFFFFFFFFF AND PUSH4 0xA9059CBB PUSH1 0x66 PUSH1 0x8 SWAP1 SLOAD SWAP1 PUSH2 0x100 EXP SWAP1 DIV PUSH20 0xFFFFFFFFFFFFFFFFFFFFFFFFFFFFFFFFFFFFFFFF AND DUP4 PUSH1 0x0 ADD MLOAD PUSH1 0x40 MLOAD DUP4 PUSH4 0xFFFFFFFF AND PUSH1 0xE0 SHL DUP2 MSTORE PUSH1 0x4 ADD PUSH2 0x829 SWAP3 SWAP2 SWAP1 PUSH2 0x3247 JUMP JUMPDEST PUSH1 0x20 PUSH1 0x40 MLOAD DUP1 DUP4 SUB DUP2 PUSH1 0x0 DUP8 GAS CALL ISZERO DUP1 ISZERO PUSH2 0x848 JUMPI RETURNDATASIZE PUSH1 0x0 DUP1 RETURNDATACOPY RETURNDATASIZE PUSH1 0x0 REVERT JUMPDEST POP POP POP POP PUSH1 0x40 MLOAD RETURNDATASIZE PUSH1 0x1F NOT PUSH1 0x1F DUP3 ADD AND DUP3 ADD DUP1 PUSH1 0x40 MSTORE POP DUP2 ADD SWAP1 PUSH2 0x86C SWAP2 SWAP1 PUSH2 0x3285 JUMP JUMPDEST POP JUMPDEST DUP2 PUSH20 0xFFFFFFFFFFFFFFFFFFFFFFFFFFFFFFFFFFFFFFFF AND PUSH4 0xA9059CBB DUP9 DUP4 PUSH1 0x20 ADD MLOAD PUSH1 0x40 MLOAD DUP4 PUSH4 0xFFFFFFFF AND PUSH1 0xE0 SHL DUP2 MSTORE PUSH1 0x4 ADD PUSH2 0x8AD SWAP3 SWAP2 SWAP1 PUSH2 0x3247 JUMP JUMPDEST PUSH1 0x20 PUSH1 0x40 MLOAD DUP1 DUP4 SUB DUP2 PUSH1 0x0 DUP8 GAS CALL ISZERO DUP1 ISZERO PUSH2 0x8CC JUMPI RETURNDATASIZE PUSH1 0x0 DUP1 RETURNDATACOPY RETURNDATASIZE PUSH1 0x0 REVERT JUMPDEST POP POP POP POP PUSH1 0x40 MLOAD RETURNDATASIZE PUSH1 0x1F NOT PUSH1 0x1F DUP3 ADD AND DUP3 ADD DUP1 PUSH1 0x40 MSTORE POP DUP2 ADD SWAP1 PUSH2 0x8F0 SWAP2 SWAP1 PUSH2 0x3285 JUMP JUMPDEST POP DUP7 PUSH20 0xFFFFFFFFFFFFFFFFFFFFFFFFFFFFFFFFFFFFFFFF AND DUP12 PUSH32 0xF26DE978CBAEA68EA699627155A10AD53DF3321B0F95A08264C0CFD6D4C05326 DUP15 DUP14 DUP11 PUSH1 0x40 MLOAD PUSH2 0x93C SWAP4 SWAP3 SWAP2 SWAP1 PUSH2 0x32ED JUMP JUMPDEST PUSH1 0x40 MLOAD DUP1 SWAP2 SUB SWAP1 LOG3 DUP11 DUP3 SWAP4 POP SWAP4 POP POP POP SWAP9 POP SWAP9 SWAP7 POP POP POP POP POP POP POP JUMP JUMPDEST PUSH1 0x0 PUSH2 0x968 DUP12 DUP12 DUP7 DUP10 DUP14 PUSH2 0x1F23 JUMP JUMPDEST PUSH1 0x65 SLOAD PUSH1 0x66 PUSH1 0x0 SWAP1 SLOAD SWAP1 PUSH2 0x100 EXP SWAP1 DIV PUSH8 0xFFFFFFFFFFFFFFFF AND PUSH8 0xFFFFFFFFFFFFFFFF AND DUP12 PUSH2 0x997 SWAP2 SWAP1 PUSH2 0x3324 JUMP JUMPDEST PUSH2 0x9A1 SWAP2 SWAP1 PUSH2 0x3395 JUMP JUMPDEST DUP6 GT ISZERO PUSH2 0x9E3 JUMPI PUSH1 0x40 MLOAD PUSH32 0x8C379A000000000000000000000000000000000000000000000000000000000 DUP2 MSTORE PUSH1 0x4 ADD PUSH2 0x9DA SWAP1 PUSH2 0x3412 JUMP JUMPDEST PUSH1 0x40 MLOAD DUP1 SWAP2 SUB SWAP1 REVERT JUMPDEST DUP11 PUSH20 0xFFFFFFFFFFFFFFFFFFFFFFFFFFFFFFFFFFFFFFFF AND PUSH4 0x23B872DD CALLER ADDRESS DUP14 PUSH1 0x40 MLOAD DUP5 PUSH4 0xFFFFFFFF AND PUSH1 0xE0 SHL DUP2 MSTORE PUSH1 0x4 ADD PUSH2 0xA20 SWAP4 SWAP3 SWAP2 SWAP1 PUSH2 0x3432 JUMP JUMPDEST PUSH1 0x20 PUSH1 0x40 MLOAD DUP1 DUP4 SUB DUP2 PUSH1 0x0 DUP8 GAS CALL ISZERO DUP1 ISZERO PUSH2 0xA3F JUMPI RETURNDATASIZE PUSH1 0x0 DUP1 RETURNDATACOPY RETURNDATASIZE PUSH1 0x0 REVERT JUMPDEST POP POP POP POP PUSH1 0x40 MLOAD RETURNDATASIZE PUSH1 0x1F NOT PUSH1 0x1F DUP3 ADD AND DUP3 ADD DUP1 PUSH1 0x40 MSTORE POP DUP2 ADD SWAP1 PUSH2 0xA63 SWAP2 SWAP1 PUSH2 0x3285 JUMP JUMPDEST POP PUSH1 0xA0 PUSH1 0x0 CALLER PUSH20 0xFFFFFFFFFFFFFFFFFFFFFFFFFFFFFFFFFFFFFFFF AND PUSH20 0xFFFFFFFFFFFFFFFFFFFFFFFFFFFFFFFFFFFFFFFF AND DUP2 MSTORE PUSH1 0x20 ADD SWAP1 DUP2 MSTORE PUSH1 0x20 ADD PUSH1 0x0 KECCAK256 PUSH1 0x0 DUP2 SLOAD DUP1 SWAP3 SWAP2 SWAP1 PUSH2 0xAB4 SWAP1 PUSH2 0x3469 JUMP JUMPDEST SWAP2 SWAP1 POP SSTORE POP CALLER PUSH1 0xA0 PUSH1 0x0 CALLER PUSH20 0xFFFFFFFFFFFFFFFFFFFFFFFFFFFFFFFFFFFFFFFF AND PUSH20 0xFFFFFFFFFFFFFFFFFFFFFFFFFFFFFFFFFFFFFFFF AND DUP2 MSTORE PUSH1 0x20 ADD SWAP1 DUP2 MSTORE PUSH1 0x20 ADD PUSH1 0x0 KECCAK256 SLOAD PUSH1 0x40 MLOAD PUSH1 0x20 ADD PUSH2 0xB0B SWAP3 SWAP2 SWAP1 PUSH2 0x3247 JUMP JUMPDEST PUSH1 0x40 MLOAD PUSH1 0x20 DUP2 DUP4 SUB SUB DUP2 MSTORE SWAP1 PUSH1 0x40 MSTORE DUP1 MLOAD SWAP1 PUSH1 0x20 ADD KECCAK256 SWAP1 POP PUSH1 0x40 MLOAD DUP1 PUSH2 0x120 ADD PUSH1 0x40 MSTORE DUP1 CALLER PUSH20 0xFFFFFFFFFFFFFFFFFFFFFFFFFFFFFFFFFFFFFFFF AND DUP2 MSTORE PUSH1 0x20 ADD DUP13 PUSH20 0xFFFFFFFFFFFFFFFFFFFFFFFFFFFFFFFFFFFFFFFF AND DUP2 MSTORE PUSH1 0x20 ADD DUP8 PUSH20 0xFFFFFFFFFFFFFFFFFFFFFFFFFFFFFFFFFFFFFFFF AND DUP2 MSTORE PUSH1 0x20 ADD DUP7 DUP2 MSTORE PUSH1 0x20 ADD DUP9 PUSH12 0xFFFFFFFFFFFFFFFFFFFFFFFF AND DUP2 MSTORE PUSH1 0x20 ADD PUSH1 0x0 ISZERO ISZERO DUP2 MSTORE PUSH1 0x20 ADD DUP6 PUSH20 0xFFFFFFFFFFFFFFFFFFFFFFFFFFFFFFFFFFFFFFFF AND DUP2 MSTORE PUSH1 0x20 ADD PUSH1 0x65 SLOAD PUSH8 0xFFFFFFFFFFFFFFFF AND PUSH12 0xFFFFFFFFFFFFFFFFFFFFFFFF AND DUP2 MSTORE PUSH1 0x20 ADD DUP12 DUP2 MSTORE POP PUSH1 0x9F PUSH1 0x0 DUP4 DUP2 MSTORE PUSH1 0x20 ADD SWAP1 DUP2 MSTORE PUSH1 0x20 ADD PUSH1 0x0 KECCAK256 PUSH1 0x0 DUP3 ADD MLOAD DUP2 PUSH1 0x0 ADD PUSH1 0x0 PUSH2 0x100 EXP DUP2 SLOAD DUP2 PUSH20 0xFFFFFFFFFFFFFFFFFFFFFFFFFFFFFFFFFFFFFFFF MUL NOT AND SWAP1 DUP4 PUSH20 0xFFFFFFFFFFFFFFFFFFFFFFFFFFFFFFFFFFFFFFFF AND MUL OR SWAP1 SSTORE POP PUSH1 0x20 DUP3 ADD MLOAD DUP2 PUSH1 0x1 ADD PUSH1 0x0 PUSH2 0x100 EXP DUP2 SLOAD DUP2 PUSH20 0xFFFFFFFFFFFFFFFFFFFFFFFFFFFFFFFFFFFFFFFF MUL NOT AND SWAP1 DUP4 PUSH20 0xFFFFFFFFFFFFFFFFFFFFFFFFFFFFFFFFFFFFFFFF AND MUL OR SWAP1 SSTORE POP PUSH1 0x40 DUP3 ADD MLOAD DUP2 PUSH1 0x2 ADD PUSH1 0x0 PUSH2 0x100 EXP DUP2 SLOAD DUP2 PUSH20 0xFFFFFFFFFFFFFFFFFFFFFFFFFFFFFFFFFFFFFFFF MUL NOT AND SWAP1 DUP4 PUSH20 0xFFFFFFFFFFFFFFFFFFFFFFFFFFFFFFFFFFFFFFFF AND MUL OR SWAP1 SSTORE POP PUSH1 0x60 DUP3 ADD MLOAD DUP2 PUSH1 0x3 ADD SSTORE PUSH1 0x80 DUP3 ADD MLOAD DUP2 PUSH1 0x4 ADD PUSH1 0x0 PUSH2 0x100 EXP DUP2 SLOAD DUP2 PUSH12 0xFFFFFFFFFFFFFFFFFFFFFFFF MUL NOT AND SWAP1 DUP4 PUSH12 0xFFFFFFFFFFFFFFFFFFFFFFFF AND MUL OR SWAP1 SSTORE POP PUSH1 0xA0 DUP3 ADD MLOAD DUP2 PUSH1 0x4 ADD PUSH1 0xC PUSH2 0x100 EXP DUP2 SLOAD DUP2 PUSH1 0xFF MUL NOT AND SWAP1 DUP4 ISZERO ISZERO MUL OR SWAP1 SSTORE POP PUSH1 0xC0 DUP3 ADD MLOAD DUP2 PUSH1 0x5 ADD PUSH1 0x0 PUSH2 0x100 EXP DUP2 SLOAD DUP2 PUSH20 0xFFFFFFFFFFFFFFFFFFFFFFFFFFFFFFFFFFFFFFFF MUL NOT AND SWAP1 DUP4 PUSH20 0xFFFFFFFFFFFFFFFFFFFFFFFFFFFFFFFFFFFFFFFF AND MUL OR SWAP1 SSTORE POP PUSH1 0xE0 DUP3 ADD MLOAD DUP2 PUSH1 0x5 ADD PUSH1 0x14 PUSH2 0x100 EXP DUP2 SLOAD DUP2 PUSH12 0xFFFFFFFFFFFFFFFFFFFFFFFF MUL NOT AND SWAP1 DUP4 PUSH12 0xFFFFFFFFFFFFFFFFFFFFFFFF AND MUL OR SWAP1 SSTORE POP PUSH2 0x100 DUP3 ADD MLOAD DUP2 PUSH1 0x6 ADD SSTORE SWAP1 POP POP DUP1 DUP11 DUP13 PUSH20 0xFFFFFFFFFFFFFFFFFFFFFFFFFFFFFFFFFFFFFFFF AND PUSH32 0x2C205F90C01160D42994A0EB521810056D94BB82A1FCB038D7179C4158A1F15B DUP11 DUP14 DUP14 DUP10 DUP10 PUSH1 0x40 MLOAD PUSH2 0xE0B SWAP6 SWAP5 SWAP4 SWAP3 SWAP2 SWAP1 PUSH2 0x351E JUMP JUMPDEST PUSH1 0x40 MLOAD DUP1 SWAP2 SUB SWAP1 LOG4 SWAP11 SWAP10 POP POP POP POP POP POP POP POP POP POP JUMP JUMPDEST PUSH2 0xE29 PUSH2 0x2132 JUMP JUMPDEST PUSH1 0x0 DUP2 MLOAD SWAP1 POP PUSH1 0x0 JUMPDEST DUP2 DUP2 LT ISZERO PUSH2 0xF2F JUMPI PUSH1 0x9D PUSH1 0x0 DUP6 DUP2 MSTORE PUSH1 0x20 ADD SWAP1 DUP2 MSTORE PUSH1 0x20 ADD PUSH1 0x0 KECCAK256 DUP4 DUP3 DUP2 MLOAD DUP2 LT PUSH2 0xE60 JUMPI PUSH2 0xE5F PUSH2 0x30C0 JUMP JUMPDEST JUMPDEST PUSH1 0x20 MUL PUSH1 0x20 ADD ADD MLOAD SWAP1 DUP1 PUSH1 0x1 DUP2 SLOAD ADD DUP1 DUP3 SSTORE DUP1 SWAP2 POP POP PUSH1 0x1 SWAP1 SUB SWAP1 PUSH1 0x0 MSTORE PUSH1 0x20 PUSH1 0x0 KECCAK256 SWAP1 PUSH1 0x2 MUL ADD PUSH1 0x0 SWAP1 SWAP2 SWAP1 SWAP2 SWAP1 SWAP2 POP PUSH1 0x0 DUP3 ADD MLOAD DUP2 PUSH1 0x0 ADD SSTORE PUSH1 0x20 DUP3 ADD MLOAD DUP2 PUSH1 0x1 ADD SSTORE POP POP PUSH1 0x40 MLOAD DUP1 PUSH1 0x40 ADD PUSH1 0x40 MSTORE DUP1 DUP5 DUP4 DUP2 MLOAD DUP2 LT PUSH2 0xEC5 JUMPI PUSH2 0xEC4 PUSH2 0x30C0 JUMP JUMPDEST JUMPDEST PUSH1 0x20 MUL PUSH1 0x20 ADD ADD MLOAD PUSH1 0x20 ADD MLOAD DUP2 MSTORE PUSH1 0x20 ADD DUP6 DUP2 MSTORE POP PUSH1 0x9E PUSH1 0x0 DUP6 DUP5 DUP2 MLOAD DUP2 LT PUSH2 0xEF1 JUMPI PUSH2 0xEF0 PUSH2 0x30C0 JUMP JUMPDEST JUMPDEST PUSH1 0x20 MUL PUSH1 0x20 ADD ADD MLOAD PUSH1 0x0 ADD MLOAD DUP2 MSTORE PUSH1 0x20 ADD SWAP1 DUP2 MSTORE PUSH1 0x20 ADD PUSH1 0x0 KECCAK256 PUSH1 0x0 DUP3 ADD MLOAD DUP2 PUSH1 0x0 ADD SSTORE PUSH1 0x20 DUP3 ADD MLOAD DUP2 PUSH1 0x1 ADD SSTORE SWAP1 POP POP DUP1 DUP1 PUSH1 0x1 ADD SWAP2 POP POP PUSH2 0xE32 JUMP JUMPDEST POP POP POP POP JUMP JUMPDEST PUSH1 0x60 PUSH1 0x68 DUP1 SLOAD PUSH2 0xF44 SWAP1 PUSH2 0x359B JUMP JUMPDEST DUP1 PUSH1 0x1F ADD PUSH1 0x20 DUP1 SWAP2 DIV MUL PUSH1 0x20 ADD PUSH1 0x40 MLOAD SWAP1 DUP2 ADD PUSH1 0x40 MSTORE DUP1 SWAP3 SWAP2 SWAP1 DUP2 DUP2 MSTORE PUSH1 0x20 ADD DUP3 DUP1 SLOAD PUSH2 0xF70 SWAP1 PUSH2 0x359B JUMP JUMPDEST DUP1 ISZERO PUSH2 0xFBD JUMPI DUP1 PUSH1 0x1F LT PUSH2 0xF92 JUMPI PUSH2 0x100 DUP1 DUP4 SLOAD DIV MUL DUP4 MSTORE SWAP2 PUSH1 0x20 ADD SWAP2 PUSH2 0xFBD JUMP JUMPDEST DUP3 ADD SWAP2 SWAP1 PUSH1 0x0 MSTORE PUSH1 0x20 PUSH1 0x0 KECCAK256 SWAP1 JUMPDEST DUP2 SLOAD DUP2 MSTORE SWAP1 PUSH1 0x1 ADD SWAP1 PUSH1 0x20 ADD DUP1 DUP4 GT PUSH2 0xFA0 JUMPI DUP3 SWAP1 SUB PUSH1 0x1F AND DUP3 ADD SWAP2 JUMPDEST POP POP POP POP POP SWAP1 POP SWAP1 JUMP JUMPDEST PUSH2 0xFCF PUSH2 0x2132 JUMP JUMPDEST PUSH2 0xFD9 PUSH1 0x0 PUSH2 0x21B0 JUMP JUMPDEST JUMP JUMPDEST PUSH1 0x0 PUSH1 0x9B PUSH1 0x0 DUP4 PUSH20 0xFFFFFFFFFFFFFFFFFFFFFFFFFFFFFFFFFFFFFFFF AND PUSH20 0xFFFFFFFFFFFFFFFFFFFFFFFFFFFFFFFFFFFFFFFF AND DUP2 MSTORE PUSH1 0x20 ADD SWAP1 DUP2 MSTORE PUSH1 0x20 ADD PUSH1 0x0 KECCAK256 PUSH1 0x0 SWAP1 SLOAD SWAP1 PUSH2 0x100 EXP SWAP1 DIV PUSH1 0xFF AND SWAP1 POP SWAP2 SWAP1 POP JUMP JUMPDEST PUSH2 0x1039 PUSH2 0x237B JUMP JUMPDEST PUSH1 0x9F PUSH1 0x0 DUP4 DUP2 MSTORE PUSH1 0x20 ADD SWAP1 DUP2 MSTORE PUSH1 0x20 ADD PUSH1 0x0 KECCAK256 PUSH1 0x40 MLOAD DUP1 PUSH2 0x120 ADD PUSH1 0x40 MSTORE SWAP1 DUP2 PUSH1 0x0 DUP3 ADD PUSH1 0x0 SWAP1 SLOAD SWAP1 PUSH2 0x100 EXP SWAP1 DIV PUSH20 0xFFFFFFFFFFFFFFFFFFFFFFFFFFFFFFFFFFFFFFFF AND PUSH20 0xFFFFFFFFFFFFFFFFFFFFFFFFFFFFFFFFFFFFFFFF AND PUSH20 0xFFFFFFFFFFFFFFFFFFFFFFFFFFFFFFFFFFFFFFFF AND DUP2 MSTORE PUSH1 0x20 ADD PUSH1 0x1 DUP3 ADD PUSH1 0x0 SWAP1 SLOAD SWAP1 PUSH2 0x100 EXP SWAP1 DIV PUSH20 0xFFFFFFFFFFFFFFFFFFFFFFFFFFFFFFFFFFFFFFFF AND PUSH20 0xFFFFFFFFFFFFFFFFFFFFFFFFFFFFFFFFFFFFFFFF AND PUSH20 0xFFFFFFFFFFFFFFFFFFFFFFFFFFFFFFFFFFFFFFFF AND DUP2 MSTORE PUSH1 0x20 ADD PUSH1 0x2 DUP3 ADD PUSH1 0x0 SWAP1 SLOAD SWAP1 PUSH2 0x100 EXP SWAP1 DIV PUSH20 0xFFFFFFFFFFFFFFFFFFFFFFFFFFFFFFFFFFFFFFFF AND PUSH20 0xFFFFFFFFFFFFFFFFFFFFFFFFFFFFFFFFFFFFFFFF AND PUSH20 0xFFFFFFFFFFFFFFFFFFFFFFFFFFFFFFFFFFFFFFFF AND DUP2 MSTORE PUSH1 0x20 ADD PUSH1 0x3 DUP3 ADD SLOAD DUP2 MSTORE PUSH1 0x20 ADD PUSH1 0x4 DUP3 ADD PUSH1 0x0 SWAP1 SLOAD SWAP1 PUSH2 0x100 EXP SWAP1 DIV PUSH12 0xFFFFFFFFFFFFFFFFFFFFFFFF AND PUSH12 0xFFFFFFFFFFFFFFFFFFFFFFFF AND PUSH12 0xFFFFFFFFFFFFFFFFFFFFFFFF AND DUP2 MSTORE PUSH1 0x20 ADD PUSH1 0x4 DUP3 ADD PUSH1 0xC SWAP1 SLOAD SWAP1 PUSH2 0x100 EXP SWAP1 DIV PUSH1 0xFF AND ISZERO ISZERO ISZERO ISZERO DUP2 MSTORE PUSH1 0x20 ADD PUSH1 0x5 DUP3 ADD PUSH1 0x0 SWAP1 SLOAD SWAP1 PUSH2 0x100 EXP SWAP1 DIV PUSH20 0xFFFFFFFFFFFFFFFFFFFFFFFFFFFFFFFFFFFFFFFF AND PUSH20 0xFFFFFFFFFFFFFFFFFFFFFFFFFFFFFFFFFFFFFFFF AND PUSH20 0xFFFFFFFFFFFFFFFFFFFFFFFFFFFFFFFFFFFFFFFF AND DUP2 MSTORE PUSH1 0x20 ADD PUSH1 0x5 DUP3 ADD PUSH1 0x14 SWAP1 SLOAD SWAP1 PUSH2 0x100 EXP SWAP1 DIV PUSH12 0xFFFFFFFFFFFFFFFFFFFFFFFF AND PUSH12 0xFFFFFFFFFFFFFFFFFFFFFFFF AND PUSH12 0xFFFFFFFFFFFFFFFFFFFFFFFF AND DUP2 MSTORE PUSH1 0x20 ADD PUSH1 0x6 DUP3 ADD SLOAD DUP2 MSTORE POP POP SWAP1 POP SWAP2 SWAP1 POP JUMP JUMPDEST PUSH2 0x126A PUSH2 0x2132 JUMP JUMPDEST PUSH1 0x0 PUSH20 0xFFFFFFFFFFFFFFFFFFFFFFFFFFFFFFFFFFFFFFFF AND DUP2 PUSH20 0xFFFFFFFFFFFFFFFFFFFFFFFFFFFFFFFFFFFFFFFF AND SUB PUSH2 0x12D9 JUMPI PUSH1 0x40 MLOAD PUSH32 0x8C379A000000000000000000000000000000000000000000000000000000000 DUP2 MSTORE PUSH1 0x4 ADD PUSH2 0x12D0 SWAP1 PUSH2 0x3618 JUMP JUMPDEST PUSH1 0x40 MLOAD DUP1 SWAP2 SUB SWAP1 REVERT JUMPDEST PUSH32 0x6665650000000000000000000000000000000000000000000000000000000000 DUP3 SUB PUSH2 0x1342 JUMPI DUP1 PUSH1 0x66 PUSH1 0x8 PUSH2 0x100 EXP DUP2 SLOAD DUP2 PUSH20 0xFFFFFFFFFFFFFFFFFFFFFFFFFFFFFFFFFFFFFFFF MUL NOT AND SWAP1 DUP4 PUSH20 0xFFFFFFFFFFFFFFFFFFFFFFFFFFFFFFFFFFFFFFFF AND MUL OR SWAP1 SSTORE POP JUMPDEST PUSH32 0x61676772656761746F7200000000000000000000000000000000000000000000 DUP3 SUB PUSH2 0x13AB JUMPI DUP1 PUSH1 0x67 PUSH1 0x0 PUSH2 0x100 EXP DUP2 SLOAD DUP2 PUSH20 0xFFFFFFFFFFFFFFFFFFFFFFFFFFFFFFFFFFFFFFFF MUL NOT AND SWAP1 DUP4 PUSH20 0xFFFFFFFFFFFFFFFFFFFFFFFFFFFFFFFFFFFFFFFF AND MUL OR SWAP1 SSTORE POP JUMPDEST POP POP JUMP JUMPDEST PUSH2 0x13B7 PUSH2 0x2132 JUMP JUMPDEST DUP1 PUSH1 0x66 PUSH1 0x0 PUSH2 0x100 EXP DUP2 SLOAD DUP2 PUSH8 0xFFFFFFFFFFFFFFFF MUL NOT AND SWAP1 DUP4 PUSH8 0xFFFFFFFFFFFFFFFF AND MUL OR SWAP1 SSTORE POP PUSH32 0xC8CA786C100BC62A0DFFBE768B5F0B770D84E8604C5DE54B54197B9066BB42A9 DUP2 PUSH1 0x40 MLOAD PUSH2 0x140F SWAP2 SWAP1 PUSH2 0x3638 JUMP JUMPDEST PUSH1 0x40 MLOAD DUP1 SWAP2 SUB SWAP1 LOG1 POP JUMP JUMPDEST PUSH2 0x1422 PUSH2 0x243D JUMP JUMPDEST PUSH1 0x9E PUSH1 0x0 DUP4 DUP2 MSTORE PUSH1 0x20 ADD SWAP1 DUP2 MSTORE PUSH1 0x20 ADD PUSH1 0x0 KECCAK256 PUSH1 0x40 MLOAD DUP1 PUSH1 0x40 ADD PUSH1 0x40 MSTORE SWAP1 DUP2 PUSH1 0x0 DUP3 ADD SLOAD DUP2 MSTORE PUSH1 0x20 ADD PUSH1 0x1 DUP3 ADD SLOAD DUP2 MSTORE POP POP SWAP1 POP SWAP2 SWAP1 POP JUMP JUMPDEST PUSH1 0x0 PUSH1 0x33 PUSH1 0x0 SWAP1 SLOAD SWAP1 PUSH2 0x100 EXP SWAP1 DIV PUSH20 0xFFFFFFFFFFFFFFFFFFFFFFFFFFFFFFFFFFFFFFFF AND SWAP1 POP SWAP1 JUMP JUMPDEST PUSH2 0x148D PUSH2 0x2132 JUMP JUMPDEST PUSH1 0x0 PUSH20 0xFFFFFFFFFFFFFFFFFFFFFFFFFFFFFFFFFFFFFFFF AND DUP3 PUSH20 0xFFFFFFFFFFFFFFFFFFFFFFFFFFFFFFFFFFFFFFFF AND SUB PUSH2 0x14FC JUMPI PUSH1 0x40 MLOAD PUSH32 0x8C379A000000000000000000000000000000000000000000000000000000000 DUP2 MSTORE PUSH1 0x4 ADD PUSH2 0x14F3 SWAP1 PUSH2 0x3618 JUMP JUMPDEST PUSH1 0x40 MLOAD DUP1 SWAP2 SUB SWAP1 REVERT JUMPDEST PUSH32 0x746F6B656E000000000000000000000000000000000000000000000000000000 DUP4 SUB PUSH2 0x157B JUMPI DUP1 PUSH1 0x9B PUSH1 0x0 DUP5 PUSH20 0xFFFFFFFFFFFFFFFFFFFFFFFFFFFFFFFFFFFFFFFF AND PUSH20 0xFFFFFFFFFFFFFFFFFFFFFFFFFFFFFFFFFFFFFFFF AND DUP2 MSTORE PUSH1 0x20 ADD SWAP1 DUP2 MSTORE PUSH1 0x20 ADD PUSH1 0x0 KECCAK256 PUSH1 0x0 PUSH2 0x100 EXP DUP2 SLOAD DUP2 PUSH1 0xFF MUL NOT AND SWAP1 DUP4 ISZERO ISZERO MUL OR SWAP1 SSTORE POP JUMPDEST PUSH32 0x77686974656C6973740000000000000000000000000000000000000000000000 DUP4 SUB PUSH2 0x15FA JUMPI DUP1 PUSH1 0x9C PUSH1 0x0 DUP5 PUSH20 0xFFFFFFFFFFFFFFFFFFFFFFFFFFFFFFFFFFFFFFFF AND PUSH20 0xFFFFFFFFFFFFFFFFFFFFFFFFFFFFFFFFFFFFFFFF AND DUP2 MSTORE PUSH1 0x20 ADD SWAP1 DUP2 MSTORE PUSH1 0x20 ADD PUSH1 0x0 KECCAK256 PUSH1 0x0 PUSH2 0x100 EXP DUP2 SLOAD DUP2 PUSH1 0xFF MUL NOT AND SWAP1 DUP4 ISZERO ISZERO MUL OR SWAP1 SSTORE POP JUMPDEST PUSH32 0xE22CADCC5DDBC0A185E8920EAA6825BCC06DCD6B432988E7E9912CAA59ACE930 DUP4 DUP4 DUP4 PUSH1 0x40 MLOAD PUSH2 0x162D SWAP4 SWAP3 SWAP2 SWAP1 PUSH2 0x3653 JUMP JUMPDEST PUSH1 0x40 MLOAD DUP1 SWAP2 SUB SWAP1 LOG1 POP POP POP JUMP JUMPDEST PUSH1 0x0 DUP1 PUSH1 0x66 PUSH1 0x0 SWAP1 SLOAD SWAP1 PUSH2 0x100 EXP SWAP1 DIV PUSH8 0xFFFFFFFFFFFFFFFF AND PUSH1 0x65 SLOAD SWAP2 POP SWAP2 POP SWAP1 SWAP2 JUMP JUMPDEST PUSH1 0x0 DUP1 PUSH1 0x1 SWAP1 SLOAD SWAP1 PUSH2 0x100 EXP SWAP1 DIV PUSH1 0xFF AND ISZERO SWAP1 POP DUP1 DUP1 ISZERO PUSH2 0x1690 JUMPI POP PUSH1 0x1 PUSH1 0x0 DUP1 SLOAD SWAP1 PUSH2 0x100 EXP SWAP1 DIV PUSH1 0xFF AND PUSH1 0xFF AND LT JUMPDEST DUP1 PUSH2 0x16BD JUMPI POP PUSH2 0x169F ADDRESS PUSH2 0x2276 JUMP JUMPDEST ISZERO DUP1 ISZERO PUSH2 0x16BC JUMPI POP PUSH1 0x1 PUSH1 0x0 DUP1 SLOAD SWAP1 PUSH2 0x100 EXP SWAP1 DIV PUSH1 0xFF AND PUSH1 0xFF AND EQ JUMPDEST JUMPDEST PUSH2 0x16FC JUMPI PUSH1 0x40 MLOAD PUSH32 0x8C379A000000000000000000000000000000000000000000000000000000000 DUP2 MSTORE PUSH1 0x4 ADD PUSH2 0x16F3 SWAP1 PUSH2 0x36FC JUMP JUMPDEST PUSH1 0x40 MLOAD DUP1 SWAP2 SUB SWAP1 REVERT JUMPDEST PUSH1 0x1 PUSH1 0x0 DUP1 PUSH2 0x100 EXP DUP2 SLOAD DUP2 PUSH1 0xFF MUL NOT AND SWAP1 DUP4 PUSH1 0xFF AND MUL OR SWAP1 SSTORE POP DUP1 ISZERO PUSH2 0x1739 JUMPI PUSH1 0x1 PUSH1 0x0 PUSH1 0x1 PUSH2 0x100 EXP DUP2 SLOAD DUP2 PUSH1 0xFF MUL NOT AND SWAP1 DUP4 ISZERO ISZERO MUL OR SWAP1 SSTORE POP JUMPDEST PUSH1 0x1 PUSH1 0x9B PUSH1 0x0 DUP5 PUSH20 0xFFFFFFFFFFFFFFFFFFFFFFFFFFFFFFFFFFFFFFFF AND PUSH20 0xFFFFFFFFFFFFFFFFFFFFFFFFFFFFFFFFFFFFFFFF AND DUP2 MSTORE PUSH1 0x20 ADD SWAP1 DUP2 MSTORE PUSH1 0x20 ADD PUSH1 0x0 KECCAK256 PUSH1 0x0 PUSH2 0x100 EXP DUP2 SLOAD DUP2 PUSH1 0xFF MUL NOT AND SWAP1 DUP4 ISZERO ISZERO MUL OR SWAP1 SSTORE POP PUSH3 0x186A0 PUSH1 0x65 DUP2 SWAP1 SSTORE POP PUSH2 0x1388 PUSH1 0x66 PUSH1 0x0 PUSH2 0x100 EXP DUP2 SLOAD DUP2 PUSH8 0xFFFFFFFFFFFFFFFF MUL NOT AND SWAP1 DUP4 PUSH8 0xFFFFFFFFFFFFFFFF AND MUL OR SWAP1 SSTORE POP PUSH2 0x17CE PUSH2 0x2299 JUMP JUMPDEST DUP1 ISZERO PUSH2 0x1827 JUMPI PUSH1 0x0 DUP1 PUSH1 0x1 PUSH2 0x100 EXP DUP2 SLOAD DUP2 PUSH1 0xFF MUL NOT AND SWAP1 DUP4 ISZERO ISZERO MUL OR SWAP1 SSTORE POP PUSH32 0x7F26B83FF96E1F2B6A682F133852F6798A09C465DA95921460CEFB3847402498 PUSH1 0x1 PUSH1 0x40 MLOAD PUSH2 0x181E SWAP2 SWAP1 PUSH2 0x3764 JUMP JUMPDEST PUSH1 0x40 MLOAD DUP1 SWAP2 SUB SWAP1 LOG1 JUMPDEST POP POP JUMP JUMPDEST PUSH2 0x1833 PUSH2 0x2132 JUMP JUMPDEST DUP2 DUP2 PUSH1 0x68 SWAP2 DUP3 PUSH2 0x1844 SWAP3 SWAP2 SWAP1 PUSH2 0x392C JUMP JUMPDEST POP PUSH32 0x6A6600B7242975868D8321B5E64D0C9F2FCC92EB1AF72254A6357BE77EE7DCEF DUP3 DUP3 PUSH1 0x40 MLOAD PUSH2 0x1876 SWAP3 SWAP2 SWAP1 PUSH2 0x3A29 JUMP JUMPDEST PUSH1 0x40 MLOAD DUP1 SWAP2 SUB SWAP1 LOG1 POP POP JUMP JUMPDEST PUSH1 0x0 PUSH1 0x9C PUSH1 0x0 DUP4 PUSH20 0xFFFFFFFFFFFFFFFFFFFFFFFFFFFFFFFFFFFFFFFF AND PUSH20 0xFFFFFFFFFFFFFFFFFFFFFFFFFFFFFFFFFFFFFFFF AND DUP2 MSTORE PUSH1 0x20 ADD SWAP1 DUP2 MSTORE PUSH1 0x20 ADD PUSH1 0x0 KECCAK256 PUSH1 0x0 SWAP1 SLOAD SWAP1 PUSH2 0x100 EXP SWAP1 DIV PUSH1 0xFF AND SWAP1 POP SWAP2 SWAP1 POP JUMP JUMPDEST PUSH2 0x18E0 PUSH2 0x2132 JUMP JUMPDEST DUP3 PUSH20 0xFFFFFFFFFFFFFFFFFFFFFFFFFFFFFFFFFFFFFFFF AND PUSH4 0xA9059CBB DUP4 DUP4 PUSH1 0x40 MLOAD DUP4 PUSH4 0xFFFFFFFF AND PUSH1 0xE0 SHL DUP2 MSTORE PUSH1 0x4 ADD PUSH2 0x191B SWAP3 SWAP2 SWAP1 PUSH2 0x3247 JUMP JUMPDEST PUSH1 0x20 PUSH1 0x40 MLOAD DUP1 DUP4 SUB DUP2 PUSH1 0x0 DUP8 GAS CALL ISZERO DUP1 ISZERO PUSH2 0x193A JUMPI RETURNDATASIZE PUSH1 0x0 DUP1 RETURNDATACOPY RETURNDATASIZE PUSH1 0x0 REVERT JUMPDEST POP POP POP POP PUSH1 0x40 MLOAD RETURNDATASIZE PUSH1 0x1F NOT PUSH1 0x1F DUP3 ADD AND DUP3 ADD DUP1 PUSH1 0x40 MSTORE POP DUP2 ADD SWAP1 PUSH2 0x195E SWAP2 SWAP1 PUSH2 0x3285 JUMP JUMPDEST POP POP POP POP JUMP JUMPDEST PUSH1 0x0 PUSH1 0x67 PUSH1 0x0 SWAP1 SLOAD SWAP1 PUSH2 0x100 EXP SWAP1 DIV PUSH20 0xFFFFFFFFFFFFFFFFFFFFFFFFFFFFFFFFFFFFFFFF AND PUSH20 0xFFFFFFFFFFFFFFFFFFFFFFFFFFFFFFFFFFFFFFFF AND CALLER PUSH20 0xFFFFFFFFFFFFFFFFFFFFFFFFFFFFFFFFFFFFFFFF AND EQ PUSH2 0x19F6 JUMPI PUSH1 0x40 MLOAD PUSH32 0x8C379A000000000000000000000000000000000000000000000000000000000 DUP2 MSTORE PUSH1 0x4 ADD PUSH2 0x19ED SWAP1 PUSH2 0x314C JUMP JUMPDEST PUSH1 0x40 MLOAD DUP1 SWAP2 SUB SWAP1 REVERT JUMPDEST PUSH1 0x9F PUSH1 0x0 DUP5 DUP2 MSTORE PUSH1 0x20 ADD SWAP1 DUP2 MSTORE PUSH1 0x20 ADD PUSH1 0x0 KECCAK256 PUSH1 0x4 ADD PUSH1 0xC SWAP1 SLOAD SWAP1 PUSH2 0x100 EXP SWAP1 DIV PUSH1 0xFF AND ISZERO PUSH2 0x1A5A JUMPI PUSH1 0x40 MLOAD PUSH32 0x8C379A000000000000000000000000000000000000000000000000000000000 DUP2 MSTORE PUSH1 0x4 ADD PUSH2 0x1A51 SWAP1 PUSH2 0x31B8 JUMP JUMPDEST PUSH1 0x40 MLOAD DUP1 SWAP2 SUB SWAP1 REVERT JUMPDEST PUSH1 0x1 PUSH1 0x9F PUSH1 0x0 DUP6 DUP2 MSTORE PUSH1 0x20 ADD SWAP1 DUP2 MSTORE PUSH1 0x20 ADD PUSH1 0x0 KECCAK256 PUSH1 0x4 ADD PUSH1 0xC PUSH2 0x100 EXP DUP2 SLOAD DUP2 PUSH1 0xFF MUL NOT AND SWAP1 DUP4 ISZERO ISZERO MUL OR SWAP1 SSTORE POP PUSH1 0x0 PUSH1 0x9F PUSH1 0x0 DUP6 DUP2 MSTORE PUSH1 0x20 ADD SWAP1 DUP2 MSTORE PUSH1 0x20 ADD PUSH1 0x0 KECCAK256 PUSH1 0x5 ADD PUSH1 0x14 PUSH2 0x100 EXP DUP2 SLOAD DUP2 PUSH12 0xFFFFFFFFFFFFFFFFFFFFFFFF MUL NOT AND SWAP1 DUP4 PUSH12 0xFFFFFFFFFFFFFFFFFFFFFFFF AND MUL OR SWAP1 SSTORE POP PUSH1 0x9F PUSH1 0x0 DUP5 DUP2 MSTORE PUSH1 0x20 ADD SWAP1 DUP2 MSTORE PUSH1 0x20 ADD PUSH1 0x0 KECCAK256 PUSH1 0x1 ADD PUSH1 0x0 SWAP1 SLOAD SWAP1 PUSH2 0x100 EXP SWAP1 DIV PUSH20 0xFFFFFFFFFFFFFFFFFFFFFFFFFFFFFFFFFFFFFFFF AND PUSH20 0xFFFFFFFFFFFFFFFFFFFFFFFFFFFFFFFFFFFFFFFF AND PUSH4 0xA9059CBB PUSH1 0x9F PUSH1 0x0 DUP7 DUP2 MSTORE PUSH1 0x20 ADD SWAP1 DUP2 MSTORE PUSH1 0x20 ADD PUSH1 0x0 KECCAK256 PUSH1 0x5 ADD PUSH1 0x0 SWAP1 SLOAD SWAP1 PUSH2 0x100 EXP SWAP1 DIV PUSH20 0xFFFFFFFFFFFFFFFFFFFFFFFFFFFFFFFFFFFFFFFF AND PUSH1 0x9F PUSH1 0x0 DUP8 DUP2 MSTORE PUSH1 0x20 ADD SWAP1 DUP2 MSTORE PUSH1 0x20 ADD PUSH1 0x0 KECCAK256 PUSH1 0x6 ADD SLOAD PUSH1 0x40 MLOAD DUP4 PUSH4 0xFFFFFFFF AND PUSH1 0xE0 SHL DUP2 MSTORE PUSH1 0x4 ADD PUSH2 0x1B8C SWAP3 SWAP2 SWAP1 PUSH2 0x3247 JUMP JUMPDEST PUSH1 0x20 PUSH1 0x40 MLOAD DUP1 DUP4 SUB DUP2 PUSH1 0x0 DUP8 GAS CALL ISZERO DUP1 ISZERO PUSH2 0x1BAB JUMPI RETURNDATASIZE PUSH1 0x0 DUP1 RETURNDATACOPY RETURNDATASIZE PUSH1 0x0 REVERT JUMPDEST POP POP POP POP PUSH1 0x40 MLOAD RETURNDATASIZE PUSH1 0x1F NOT PUSH1 0x1F DUP3 ADD AND DUP3 ADD DUP1 PUSH1 0x40 MSTORE POP DUP2 ADD SWAP1 PUSH2 0x1BCF SWAP2 SWAP1 PUSH2 0x3285 JUMP JUMPDEST POP DUP3 PUSH31 0x7C875846B687732A7579C19BB1DADE66CD14E9F4F809565E2B2B5E76C72B4F DUP4 PUSH1 0x40 MLOAD PUSH2 0x1BFF SWAP2 SWAP1 PUSH2 0x29FC JUMP JUMPDEST PUSH1 0x40 MLOAD DUP1 SWAP2 SUB SWAP1 LOG2 PUSH1 0x1 SWAP1 POP SWAP3 SWAP2 POP POP JUMP JUMPDEST PUSH1 0x0 PUSH1 0x67 PUSH1 0x0 SWAP1 SLOAD SWAP1 PUSH2 0x100 EXP SWAP1 DIV PUSH20 0xFFFFFFFFFFFFFFFFFFFFFFFFFFFFFFFFFFFFFFFF AND SWAP1 POP SWAP1 JUMP JUMPDEST PUSH2 0x1C43 PUSH2 0x2132 JUMP JUMPDEST PUSH1 0x0 PUSH20 0xFFFFFFFFFFFFFFFFFFFFFFFFFFFFFFFFFFFFFFFF AND DUP2 PUSH20 0xFFFFFFFFFFFFFFFFFFFFFFFFFFFFFFFFFFFFFFFF AND SUB PUSH2 0x1CB2 JUMPI PUSH1 0x40 MLOAD PUSH32 0x8C379A000000000000000000000000000000000000000000000000000000000 DUP2 MSTORE PUSH1 0x4 ADD PUSH2 0x1CA9 SWAP1 PUSH2 0x3ABF JUMP JUMPDEST PUSH1 0x40 MLOAD DUP1 SWAP2 SUB SWAP1 REVERT JUMPDEST PUSH2 0x1CBB DUP2 PUSH2 0x21B0 JUMP JUMPDEST POP JUMP JUMPDEST PUSH2 0x1CC6 PUSH2 0x245D JUMP JUMPDEST PUSH1 0x0 PUSH1 0x9F PUSH1 0x0 DUP7 DUP2 MSTORE PUSH1 0x20 ADD SWAP1 DUP2 MSTORE PUSH1 0x20 ADD PUSH1 0x0 KECCAK256 PUSH1 0x6 ADD SLOAD SWAP1 POP PUSH1 0x9F PUSH1 0x0 DUP7 DUP2 MSTORE PUSH1 0x20 ADD SWAP1 DUP2 MSTORE PUSH1 0x20 ADD PUSH1 0x0 KECCAK256 PUSH1 0x3 ADD SLOAD DUP2 PUSH2 0x1D03 SWAP2 SWAP1 PUSH2 0x3ADF JUMP JUMPDEST SWAP1 POP PUSH1 0x65 SLOAD DUP5 PUSH12 0xFFFFFFFFFFFFFFFFFFFFFFFF AND DUP3 PUSH2 0x1D22 SWAP2 SWAP1 PUSH2 0x3324 JUMP JUMPDEST PUSH2 0x1D2C SWAP2 SWAP1 PUSH2 0x3395 JUMP JUMPDEST DUP3 PUSH1 0x20 ADD DUP2 DUP2 MSTORE POP POP PUSH1 0x65 SLOAD PUSH1 0x66 PUSH1 0x0 SWAP1 SLOAD SWAP1 PUSH2 0x100 EXP SWAP1 DIV PUSH8 0xFFFFFFFFFFFFFFFF AND PUSH8 0xFFFFFFFFFFFFFFFF AND DUP4 PUSH1 0x20 ADD MLOAD PUSH2 0x1D68 SWAP2 SWAP1 PUSH2 0x3324 JUMP JUMPDEST PUSH2 0x1D72 SWAP2 SWAP1 PUSH2 0x3395 JUMP JUMPDEST DUP3 PUSH1 0x0 ADD DUP2 DUP2 MSTORE POP POP DUP2 PUSH1 0x0 ADD MLOAD DUP3 PUSH1 0x20 ADD MLOAD PUSH2 0x1D8F SWAP2 SWAP1 PUSH2 0x3ADF JUMP JUMPDEST DUP3 PUSH1 0x20 ADD DUP2 DUP2 MSTORE POP POP DUP3 ISZERO PUSH2 0x1DC7 JUMPI DUP2 PUSH1 0x0 ADD MLOAD DUP3 PUSH1 0x20 ADD DUP2 DUP2 MLOAD PUSH2 0x1DB4 SWAP2 SWAP1 PUSH2 0x3B13 JUMP JUMPDEST SWAP2 POP DUP2 DUP2 MSTORE POP POP PUSH1 0x0 DUP3 PUSH1 0x0 ADD DUP2 DUP2 MSTORE POP POP JUMPDEST POP SWAP4 SWAP3 POP POP POP JUMP JUMPDEST PUSH1 0x0 PUSH1 0x9F PUSH1 0x0 DUP4 DUP2 MSTORE PUSH1 0x20 ADD SWAP1 DUP2 MSTORE PUSH1 0x20 ADD PUSH1 0x0 KECCAK256 PUSH1 0x2 ADD PUSH1 0x0 SWAP1 SLOAD SWAP1 PUSH2 0x100 EXP SWAP1 DIV PUSH20 0xFFFFFFFFFFFFFFFFFFFFFFFFFFFFFFFFFFFFFFFF AND SWAP1 POP PUSH1 0x0 PUSH1 0x9F PUSH1 0x0 DUP5 DUP2 MSTORE PUSH1 0x20 ADD SWAP1 DUP2 MSTORE PUSH1 0x20 ADD PUSH1 0x0 KECCAK256 PUSH1 0x3 ADD SLOAD SWAP1 POP PUSH1 0x9F PUSH1 0x0 DUP5 DUP2 MSTORE PUSH1 0x20 ADD SWAP1 DUP2 MSTORE PUSH1 0x20 ADD PUSH1 0x0 KECCAK256 PUSH1 0x1 ADD PUSH1 0x0 SWAP1 SLOAD SWAP1 PUSH2 0x100 EXP SWAP1 DIV PUSH20 0xFFFFFFFFFFFFFFFFFFFFFFFFFFFFFFFFFFFFFFFF AND PUSH20 0xFFFFFFFFFFFFFFFFFFFFFFFFFFFFFFFFFFFFFFFF AND PUSH4 0xA9059CBB DUP4 DUP4 PUSH1 0x40 MLOAD DUP4 PUSH4 0xFFFFFFFF AND PUSH1 0xE0 SHL DUP2 MSTORE PUSH1 0x4 ADD PUSH2 0x1E96 SWAP3 SWAP2 SWAP1 PUSH2 0x3247 JUMP JUMPDEST PUSH1 0x20 PUSH1 0x40 MLOAD DUP1 DUP4 SUB DUP2 PUSH1 0x0 DUP8 GAS CALL ISZERO DUP1 ISZERO PUSH2 0x1EB5 JUMPI RETURNDATASIZE PUSH1 0x0 DUP1 RETURNDATACOPY RETURNDATASIZE PUSH1 0x0 REVERT JUMPDEST POP POP POP POP PUSH1 0x40 MLOAD RETURNDATASIZE PUSH1 0x1F NOT PUSH1 0x1F DUP3 ADD AND DUP3 ADD DUP1 PUSH1 0x40 MSTORE POP DUP2 ADD SWAP1 PUSH2 0x1ED9 SWAP2 SWAP1 PUSH2 0x3285 JUMP JUMPDEST POP DUP1 DUP3 PUSH20 0xFFFFFFFFFFFFFFFFFFFFFFFFFFFFFFFFFFFFFFFF AND PUSH32 0x96C76D5AEC8A8C11A9C8E02768E3FA309347330D08961E0CF9FD43B349B684C2 PUSH1 0x40 MLOAD PUSH1 0x40 MLOAD DUP1 SWAP2 SUB SWAP1 LOG3 POP POP POP JUMP JUMPDEST PUSH1 0x9B PUSH1 0x0 DUP7 PUSH20 0xFFFFFFFFFFFFFFFFFFFFFFFFFFFFFFFFFFFFFFFF AND PUSH20 0xFFFFFFFFFFFFFFFFFFFFFFFFFFFFFFFFFFFFFFFF AND DUP2 MSTORE PUSH1 0x20 ADD SWAP1 DUP2 MSTORE PUSH1 0x20 ADD PUSH1 0x0 KECCAK256 PUSH1 0x0 SWAP1 SLOAD SWAP1 PUSH2 0x100 EXP SWAP1 DIV PUSH1 0xFF AND PUSH2 0x1FAF JUMPI PUSH1 0x40 MLOAD PUSH32 0x8C379A000000000000000000000000000000000000000000000000000000000 DUP2 MSTORE PUSH1 0x4 ADD PUSH2 0x1FA6 SWAP1 PUSH2 0x3B93 JUMP JUMPDEST PUSH1 0x40 MLOAD DUP1 SWAP2 SUB SWAP1 REVERT JUMPDEST PUSH1 0x0 DUP5 GT PUSH2 0x1FF2 JUMPI PUSH1 0x40 MLOAD PUSH32 0x8C379A000000000000000000000000000000000000000000000000000000000 DUP2 MSTORE PUSH1 0x4 ADD PUSH2 0x1FE9 SWAP1 PUSH2 0x3BFF JUMP JUMPDEST PUSH1 0x40 MLOAD DUP1 SWAP2 SUB SWAP1 REVERT JUMPDEST PUSH1 0x0 PUSH20 0xFFFFFFFFFFFFFFFFFFFFFFFFFFFFFFFFFFFFFFFF AND DUP4 PUSH20 0xFFFFFFFFFFFFFFFFFFFFFFFFFFFFFFFFFFFFFFFF AND SUB PUSH2 0x2061 JUMPI PUSH1 0x40 MLOAD PUSH32 0x8C379A000000000000000000000000000000000000000000000000000000000 DUP2 MSTORE PUSH1 0x4 ADD PUSH2 0x2058 SWAP1 PUSH2 0x3C6B JUMP JUMPDEST PUSH1 0x40 MLOAD DUP1 SWAP2 SUB SWAP1 REVERT JUMPDEST PUSH1 0x0 PUSH20 0xFFFFFFFFFFFFFFFFFFFFFFFFFFFFFFFFFFFFFFFF AND DUP3 PUSH20 0xFFFFFFFFFFFFFFFFFFFFFFFFFFFFFFFFFFFFFFFF AND SUB PUSH2 0x20D0 JUMPI PUSH1 0x40 MLOAD PUSH32 0x8C379A000000000000000000000000000000000000000000000000000000000 DUP2 MSTORE PUSH1 0x4 ADD PUSH2 0x20C7 SWAP1 PUSH2 0x3C6B JUMP JUMPDEST PUSH1 0x40 MLOAD DUP1 SWAP2 SUB SWAP1 REVERT JUMPDEST PUSH1 0x0 DUP1 SHL PUSH1 0x9E PUSH1 0x0 DUP4 DUP2 MSTORE PUSH1 0x20 ADD SWAP1 DUP2 MSTORE PUSH1 0x20 ADD PUSH1 0x0 KECCAK256 PUSH1 0x0 ADD SLOAD SUB PUSH2 0x212B JUMPI PUSH1 0x40 MLOAD PUSH32 0x8C379A000000000000000000000000000000000000000000000000000000000 DUP2 MSTORE PUSH1 0x4 ADD PUSH2 0x2122 SWAP1 PUSH2 0x3CD7 JUMP JUMPDEST PUSH1 0x40 MLOAD DUP1 SWAP2 SUB SWAP1 REVERT JUMPDEST POP POP POP POP POP JUMP JUMPDEST PUSH2 0x213A PUSH2 0x22F2 JUMP JUMPDEST PUSH20 0xFFFFFFFFFFFFFFFFFFFFFFFFFFFFFFFFFFFFFFFF AND PUSH2 0x2158 PUSH2 0x145B JUMP JUMPDEST PUSH20 0xFFFFFFFFFFFFFFFFFFFFFFFFFFFFFFFFFFFFFFFF AND EQ PUSH2 0x21AE JUMPI PUSH1 0x40 MLOAD PUSH32 0x8C379A000000000000000000000000000000000000000000000000000000000 DUP2 MSTORE PUSH1 0x4 ADD PUSH2 0x21A5 SWAP1 PUSH2 0x3D43 JUMP JUMPDEST PUSH1 0x40 MLOAD DUP1 SWAP2 SUB SWAP1 REVERT JUMPDEST JUMP JUMPDEST PUSH1 0x0 PUSH1 0x33 PUSH1 0x0 SWAP1 SLOAD SWAP1 PUSH2 0x100 EXP SWAP1 DIV PUSH20 0xFFFFFFFFFFFFFFFFFFFFFFFFFFFFFFFFFFFFFFFF AND SWAP1 POP DUP2 PUSH1 0x33 PUSH1 0x0 PUSH2 0x100 EXP DUP2 SLOAD DUP2 PUSH20 0xFFFFFFFFFFFFFFFFFFFFFFFFFFFFFFFFFFFFFFFF MUL NOT AND SWAP1 DUP4 PUSH20 0xFFFFFFFFFFFFFFFFFFFFFFFFFFFFFFFFFFFFFFFF AND MUL OR SWAP1 SSTORE POP DUP2 PUSH20 0xFFFFFFFFFFFFFFFFFFFFFFFFFFFFFFFFFFFFFFFF AND DUP2 PUSH20 0xFFFFFFFFFFFFFFFFFFFFFFFFFFFFFFFFFFFFFFFF AND PUSH32 0x8BE0079C531659141344CD1FD0A4F28419497F9722A3DAAFE3B4186F6B6457E0 PUSH1 0x40 MLOAD PUSH1 0x40 MLOAD DUP1 SWAP2 SUB SWAP1 LOG3 POP POP JUMP JUMPDEST PUSH1 0x0 DUP1 DUP3 PUSH20 0xFFFFFFFFFFFFFFFFFFFFFFFFFFFFFFFFFFFFFFFF AND EXTCODESIZE GT SWAP1 POP SWAP2 SWAP1 POP JUMP JUMPDEST PUSH1 0x0 PUSH1 0x1 SWAP1 SLOAD SWAP1 PUSH2 0x100 EXP SWAP1 DIV PUSH1 0xFF AND PUSH2 0x22E8 JUMPI PUSH1 0x40 MLOAD PUSH32 0x8C379A000000000000000000000000000000000000000000000000000000000 DUP2 MSTORE PUSH1 0x4 ADD PUSH2 0x22DF SWAP1 PUSH2 0x3DD5 JUMP JUMPDEST PUSH1 0x40 MLOAD DUP1 SWAP2 SUB SWAP1 REVERT JUMPDEST PUSH2 0x22F0 PUSH2 0x22FA JUMP JUMPDEST JUMP JUMPDEST PUSH1 0x0 CALLER SWAP1 POP SWAP1 JUMP JUMPDEST PUSH1 0x0 PUSH1 0x1 SWAP1 SLOAD SWAP1 PUSH2 0x100 EXP SWAP1 DIV PUSH1 0xFF AND PUSH2 0x2349 JUMPI PUSH1 0x40 MLOAD PUSH32 0x8C379A000000000000000000000000000000000000000000000000000000000 DUP2 MSTORE PUSH1 0x4 ADD PUSH2 0x2340 SWAP1 PUSH2 0x3DD5 JUMP JUMPDEST PUSH1 0x40 MLOAD DUP1 SWAP2 SUB SWAP1 REVERT JUMPDEST PUSH2 0x2359 PUSH2 0x2354 PUSH2 0x22F2 JUMP JUMPDEST PUSH2 0x21B0 JUMP JUMPDEST JUMP JUMPDEST PUSH1 0x40 MLOAD DUP1 PUSH1 0x40 ADD PUSH1 0x40 MSTORE DUP1 PUSH1 0x0 DUP1 NOT AND DUP2 MSTORE PUSH1 0x20 ADD PUSH1 0x0 DUP1 NOT AND DUP2 MSTORE POP SWAP1 JUMP JUMPDEST PUSH1 0x40 MLOAD DUP1 PUSH2 0x120 ADD PUSH1 0x40 MSTORE DUP1 PUSH1 0x0 PUSH20 0xFFFFFFFFFFFFFFFFFFFFFFFFFFFFFFFFFFFFFFFF AND DUP2 MSTORE PUSH1 0x20 ADD PUSH1 0x0 PUSH20 0xFFFFFFFFFFFFFFFFFFFFFFFFFFFFFFFFFFFFFFFF AND DUP2 MSTORE PUSH1 0x20 ADD PUSH1 0x0 PUSH20 0xFFFFFFFFFFFFFFFFFFFFFFFFFFFFFFFFFFFFFFFF AND DUP2 MSTORE PUSH1 0x20 ADD PUSH1 0x0 DUP2 MSTORE PUSH1 0x20 ADD PUSH1 0x0 PUSH12 0xFFFFFFFFFFFFFFFFFFFFFFFF AND DUP2 MSTORE PUSH1 0x20 ADD PUSH1 0x0 ISZERO ISZERO DUP2 MSTORE PUSH1 0x20 ADD PUSH1 0x0 PUSH20 0xFFFFFFFFFFFFFFFFFFFFFFFFFFFFFFFFFFFFFFFF AND DUP2 MSTORE PUSH1 0x20 ADD PUSH1 0x0 PUSH12 0xFFFFFFFFFFFFFFFFFFFFFFFF AND DUP2 MSTORE PUSH1 0x20 ADD PUSH1 0x0 DUP2 MSTORE POP SWAP1 JUMP JUMPDEST PUSH1 0x40 MLOAD DUP1 PUSH1 0x40 ADD PUSH1 0x40 MSTORE DUP1 PUSH1 0x0 DUP1 NOT AND DUP2 MSTORE PUSH1 0x20 ADD PUSH1 0x0 DUP1 NOT AND DUP2 MSTORE POP SWAP1 JUMP JUMPDEST PUSH1 0x40 MLOAD DUP1 PUSH1 0x40 ADD PUSH1 0x40 MSTORE DUP1 PUSH1 0x0 DUP2 MSTORE PUSH1 0x20 ADD PUSH1 0x0 DUP2 MSTORE POP SWAP1 JUMP JUMPDEST PUSH1 0x0 PUSH1 0x40 MLOAD SWAP1 POP SWAP1 JUMP JUMPDEST PUSH1 0x0 DUP1 REVERT JUMPDEST PUSH1 0x0 DUP1 REVERT JUMPDEST PUSH1 0x0 DUP2 SWAP1 POP SWAP2 SWAP1 POP JUMP JUMPDEST PUSH2 0x249E DUP2 PUSH2 0x248B JUMP JUMPDEST DUP2 EQ PUSH2 0x24A9 JUMPI PUSH1 0x0 DUP1 REVERT JUMPDEST POP JUMP JUMPDEST PUSH1 0x0 DUP2 CALLDATALOAD SWAP1 POP PUSH2 0x24BB DUP2 PUSH2 0x2495 JUMP JUMPDEST SWAP3 SWAP2 POP POP JUMP JUMPDEST PUSH1 0x0 PUSH1 0x20 DUP3 DUP5 SUB SLT ISZERO PUSH2 0x24D7 JUMPI PUSH2 0x24D6 PUSH2 0x2481 JUMP JUMPDEST JUMPDEST PUSH1 0x0 PUSH2 0x24E5 DUP5 DUP3 DUP6 ADD PUSH2 0x24AC JUMP JUMPDEST SWAP2 POP POP SWAP3 SWAP2 POP POP JUMP JUMPDEST PUSH1 0x0 DUP2 MLOAD SWAP1 POP SWAP2 SWAP1 POP JUMP JUMPDEST PUSH1 0x0 DUP3 DUP3 MSTORE PUSH1 0x20 DUP3 ADD SWAP1 POP SWAP3 SWAP2 POP POP JUMP JUMPDEST PUSH1 0x0 DUP2 SWAP1 POP PUSH1 0x20 DUP3 ADD SWAP1 POP SWAP2 SWAP1 POP JUMP JUMPDEST PUSH2 0x2523 DUP2 PUSH2 0x248B JUMP JUMPDEST DUP3 MSTORE POP POP JUMP JUMPDEST PUSH1 0x40 DUP3 ADD PUSH1 0x0 DUP3 ADD MLOAD PUSH2 0x253F PUSH1 0x0 DUP6 ADD DUP3 PUSH2 0x251A JUMP JUMPDEST POP PUSH1 0x20 DUP3 ADD MLOAD PUSH2 0x2552 PUSH1 0x20 DUP6 ADD DUP3 PUSH2 0x251A JUMP JUMPDEST POP POP POP POP JUMP JUMPDEST PUSH1 0x0 PUSH2 0x2564 DUP4 DUP4 PUSH2 0x2529 JUMP JUMPDEST PUSH1 0x40 DUP4 ADD SWAP1 POP SWAP3 SWAP2 POP POP JUMP JUMPDEST PUSH1 0x0 PUSH1 0x20 DUP3 ADD SWAP1 POP SWAP2 SWAP1 POP JUMP JUMPDEST PUSH1 0x0 PUSH2 0x2588 DUP3 PUSH2 0x24EE JUMP JUMPDEST PUSH2 0x2592 DUP2 DUP6 PUSH2 0x24F9 JUMP JUMPDEST SWAP4 POP PUSH2 0x259D DUP4 PUSH2 0x250A JUMP JUMPDEST DUP1 PUSH1 0x0 JUMPDEST DUP4 DUP2 LT ISZERO PUSH2 0x25CE JUMPI DUP2 MLOAD PUSH2 0x25B5 DUP9 DUP3 PUSH2 0x2558 JUMP JUMPDEST SWAP8 POP PUSH2 0x25C0 DUP4 PUSH2 0x2570 JUMP JUMPDEST SWAP3 POP POP PUSH1 0x1 DUP2 ADD SWAP1 POP PUSH2 0x25A1 JUMP JUMPDEST POP DUP6 SWAP4 POP POP POP POP SWAP3 SWAP2 POP POP JUMP JUMPDEST PUSH1 0x0 PUSH1 0x20 DUP3 ADD SWAP1 POP DUP2 DUP2 SUB PUSH1 0x0 DUP4 ADD MSTORE PUSH2 0x25F5 DUP2 DUP5 PUSH2 0x257D JUMP JUMPDEST SWAP1 POP SWAP3 SWAP2 POP POP JUMP JUMPDEST PUSH1 0x0 DUP1 REVERT JUMPDEST PUSH1 0x0 DUP1 REVERT JUMPDEST PUSH1 0x0 DUP1 REVERT JUMPDEST PUSH1 0x0 DUP1 DUP4 PUSH1 0x1F DUP5 ADD SLT PUSH2 0x2622 JUMPI PUSH2 0x2621 PUSH2 0x25FD JUMP JUMPDEST JUMPDEST DUP3 CALLDATALOAD SWAP1 POP PUSH8 0xFFFFFFFFFFFFFFFF DUP2 GT ISZERO PUSH2 0x263F JUMPI PUSH2 0x263E PUSH2 0x2602 JUMP JUMPDEST JUMPDEST PUSH1 0x20 DUP4 ADD SWAP2 POP DUP4 PUSH1 0x20 DUP3 MUL DUP4 ADD GT ISZERO PUSH2 0x265B JUMPI PUSH2 0x265A PUSH2 0x2607 JUMP JUMPDEST JUMPDEST SWAP3 POP SWAP3 SWAP1 POP JUMP JUMPDEST PUSH1 0x0 PUSH20 0xFFFFFFFFFFFFFFFFFFFFFFFFFFFFFFFFFFFFFFFF DUP3 AND SWAP1 POP SWAP2 SWAP1 POP JUMP JUMPDEST PUSH1 0x0 PUSH2 0x268D DUP3 PUSH2 0x2662 JUMP JUMPDEST SWAP1 POP SWAP2 SWAP1 POP JUMP JUMPDEST PUSH2 0x269D DUP2 PUSH2 0x2682 JUMP JUMPDEST DUP2 EQ PUSH2 0x26A8 JUMPI PUSH1 0x0 DUP1 REVERT JUMPDEST POP JUMP JUMPDEST PUSH1 0x0 DUP2 CALLDATALOAD SWAP1 POP PUSH2 0x26BA DUP2 PUSH2 0x2694 JUMP JUMPDEST SWAP3 SWAP2 POP POP JUMP JUMPDEST PUSH1 0x0 PUSH8 0xFFFFFFFFFFFFFFFF DUP3 AND SWAP1 POP SWAP2 SWAP1 POP JUMP JUMPDEST PUSH2 0x26DD DUP2 PUSH2 0x26C0 JUMP JUMPDEST DUP2 EQ PUSH2 0x26E8 JUMPI PUSH1 0x0 DUP1 REVERT JUMPDEST POP JUMP JUMPDEST PUSH1 0x0 DUP2 CALLDATALOAD SWAP1 POP PUSH2 0x26FA DUP2 PUSH2 0x26D4 JUMP JUMPDEST SWAP3 SWAP2 POP POP JUMP JUMPDEST PUSH1 0x0 DUP2 ISZERO ISZERO SWAP1 POP SWAP2 SWAP1 POP JUMP JUMPDEST PUSH2 0x2715 DUP2 PUSH2 0x2700 JUMP JUMPDEST DUP2 EQ PUSH2 0x2720 JUMPI PUSH1 0x0 DUP1 REVERT JUMPDEST POP JUMP JUMPDEST PUSH1 0x0 DUP2 CALLDATALOAD SWAP1 POP PUSH2 0x2732 DUP2 PUSH2 0x270C JUMP JUMPDEST SWAP3 SWAP2 POP POP JUMP JUMPDEST PUSH1 0x0 DUP1 PUSH1 0x0 DUP1 PUSH1 0x0 DUP1 PUSH1 0x0 DUP1 PUSH1 0xE0 DUP10 DUP12 SUB SLT ISZERO PUSH2 0x2758 JUMPI PUSH2 0x2757 PUSH2 0x2481 JUMP JUMPDEST JUMPDEST PUSH1 0x0 PUSH2 0x2766 DUP12 DUP3 DUP13 ADD PUSH2 0x24AC JUMP JUMPDEST SWAP9 POP POP PUSH1 0x20 PUSH2 0x2777 DUP12 DUP3 DUP13 ADD PUSH2 0x24AC JUMP JUMPDEST SWAP8 POP POP PUSH1 0x40 PUSH2 0x2788 DUP12 DUP3 DUP13 ADD PUSH2 0x24AC JUMP JUMPDEST SWAP7 POP POP PUSH1 0x60 DUP10 ADD CALLDATALOAD PUSH8 0xFFFFFFFFFFFFFFFF DUP2 GT ISZERO PUSH2 0x27A9 JUMPI PUSH2 0x27A8 PUSH2 0x2486 JUMP JUMPDEST JUMPDEST PUSH2 0x27B5 DUP12 DUP3 DUP13 ADD PUSH2 0x260C JUMP JUMPDEST SWAP6 POP SWAP6 POP POP PUSH1 0x80 PUSH2 0x27C8 DUP12 DUP3 DUP13 ADD PUSH2 0x26AB JUMP JUMPDEST SWAP4 POP POP PUSH1 0xA0 PUSH2 0x27D9 DUP12 DUP3 DUP13 ADD PUSH2 0x26EB JUMP JUMPDEST SWAP3 POP POP PUSH1 0xC0 PUSH2 0x27EA DUP12 DUP3 DUP13 ADD PUSH2 0x2723 JUMP JUMPDEST SWAP2 POP POP SWAP3 SWAP6 SWAP9 POP SWAP3 SWAP6 SWAP9 SWAP1 SWAP4 SWAP7 POP JUMP JUMPDEST PUSH2 0x2803 DUP2 PUSH2 0x248B JUMP JUMPDEST DUP3 MSTORE POP POP JUMP JUMPDEST PUSH2 0x2812 DUP2 PUSH2 0x2682 JUMP JUMPDEST DUP3 MSTORE POP POP JUMP JUMPDEST PUSH1 0x0 PUSH1 0x40 DUP3 ADD SWAP1 POP PUSH2 0x282D PUSH1 0x0 DUP4 ADD DUP6 PUSH2 0x27FA JUMP JUMPDEST PUSH2 0x283A PUSH1 0x20 DUP4 ADD DUP5 PUSH2 0x2809 JUMP JUMPDEST SWAP4 SWAP3 POP POP POP JUMP JUMPDEST PUSH1 0x0 DUP2 SWAP1 POP SWAP2 SWAP1 POP JUMP JUMPDEST PUSH2 0x2854 DUP2 PUSH2 0x2841 JUMP JUMPDEST DUP2 EQ PUSH2 0x285F JUMPI PUSH1 0x0 DUP1 REVERT JUMPDEST POP JUMP JUMPDEST PUSH1 0x0 DUP2 CALLDATALOAD SWAP1 POP PUSH2 0x2871 DUP2 PUSH2 0x284B JUMP JUMPDEST SWAP3 SWAP2 POP POP JUMP JUMPDEST PUSH1 0x0 PUSH12 0xFFFFFFFFFFFFFFFFFFFFFFFF DUP3 AND SWAP1 POP SWAP2 SWAP1 POP JUMP JUMPDEST PUSH2 0x2898 DUP2 PUSH2 0x2877 JUMP JUMPDEST DUP2 EQ PUSH2 0x28A3 JUMPI PUSH1 0x0 DUP1 REVERT JUMPDEST POP JUMP JUMPDEST PUSH1 0x0 DUP2 CALLDATALOAD SWAP1 POP PUSH2 0x28B5 DUP2 PUSH2 0x288F JUMP JUMPDEST SWAP3 SWAP2 POP POP JUMP JUMPDEST PUSH1 0x0 DUP1 DUP4 PUSH1 0x1F DUP5 ADD SLT PUSH2 0x28D1 JUMPI PUSH2 0x28D0 PUSH2 0x25FD JUMP JUMPDEST JUMPDEST DUP3 CALLDATALOAD SWAP1 POP PUSH8 0xFFFFFFFFFFFFFFFF DUP2 GT ISZERO PUSH2 0x28EE JUMPI PUSH2 0x28ED PUSH2 0x2602 JUMP JUMPDEST JUMPDEST PUSH1 0x20 DUP4 ADD SWAP2 POP DUP4 PUSH1 0x1 DUP3 MUL DUP4 ADD GT ISZERO PUSH2 0x290A JUMPI PUSH2 0x2909 PUSH2 0x2607 JUMP JUMPDEST JUMPDEST SWAP3 POP SWAP3 SWAP1 POP JUMP JUMPDEST PUSH1 0x0 DUP1 PUSH1 0x0 DUP1 PUSH1 0x0 DUP1 PUSH1 0x0 DUP1 PUSH1 0x0 DUP1 PUSH2 0x120 DUP12 DUP14 SUB SLT ISZERO PUSH2 0x2935 JUMPI PUSH2 0x2934 PUSH2 0x2481 JUMP JUMPDEST JUMPDEST PUSH1 0x0 PUSH2 0x2943 DUP14 DUP3 DUP15 ADD PUSH2 0x26AB JUMP JUMPDEST SWAP11 POP POP PUSH1 0x20 PUSH2 0x2954 DUP14 DUP3 DUP15 ADD PUSH2 0x2862 JUMP JUMPDEST SWAP10 POP POP PUSH1 0x40 PUSH2 0x2965 DUP14 DUP3 DUP15 ADD PUSH2 0x24AC JUMP JUMPDEST SWAP9 POP POP PUSH1 0x60 PUSH2 0x2976 DUP14 DUP3 DUP15 ADD PUSH2 0x24AC JUMP JUMPDEST SWAP8 POP POP PUSH1 0x80 PUSH2 0x2987 DUP14 DUP3 DUP15 ADD PUSH2 0x28A6 JUMP JUMPDEST SWAP7 POP POP PUSH1 0xA0 PUSH2 0x2998 DUP14 DUP3 DUP15 ADD PUSH2 0x26AB JUMP JUMPDEST SWAP6 POP POP PUSH1 0xC0 PUSH2 0x29A9 DUP14 DUP3 DUP15 ADD PUSH2 0x2862 JUMP JUMPDEST SWAP5 POP POP PUSH1 0xE0 PUSH2 0x29BA DUP14 DUP3 DUP15 ADD PUSH2 0x26AB JUMP JUMPDEST SWAP4 POP POP PUSH2 0x100 DUP12 ADD CALLDATALOAD PUSH8 0xFFFFFFFFFFFFFFFF DUP2 GT ISZERO PUSH2 0x29DC JUMPI PUSH2 0x29DB PUSH2 0x2486 JUMP JUMPDEST JUMPDEST PUSH2 0x29E8 DUP14 DUP3 DUP15 ADD PUSH2 0x28BB JUMP JUMPDEST SWAP3 POP SWAP3 POP POP SWAP3 SWAP6 SWAP9 SWAP12 SWAP2 SWAP5 SWAP8 SWAP11 POP SWAP3 SWAP6 SWAP9 POP JUMP JUMPDEST PUSH1 0x0 PUSH1 0x20 DUP3 ADD SWAP1 POP PUSH2 0x2A11 PUSH1 0x0 DUP4 ADD DUP5 PUSH2 0x27FA JUMP JUMPDEST SWAP3 SWAP2 POP POP JUMP JUMPDEST PUSH1 0x0 PUSH1 0x1F NOT PUSH1 0x1F DUP4 ADD AND SWAP1 POP SWAP2 SWAP1 POP JUMP JUMPDEST PUSH32 0x4E487B7100000000000000000000000000000000000000000000000000000000 PUSH1 0x0 MSTORE PUSH1 0x41 PUSH1 0x4 MSTORE PUSH1 0x24 PUSH1 0x0 REVERT JUMPDEST PUSH2 0x2A60 DUP3 PUSH2 0x2A17 JUMP JUMPDEST DUP2 ADD DUP2 DUP2 LT PUSH8 0xFFFFFFFFFFFFFFFF DUP3 GT OR ISZERO PUSH2 0x2A7F JUMPI PUSH2 0x2A7E PUSH2 0x2A28 JUMP JUMPDEST JUMPDEST DUP1 PUSH1 0x40 MSTORE POP POP POP JUMP JUMPDEST PUSH1 0x0 PUSH2 0x2A92 PUSH2 0x2477 JUMP JUMPDEST SWAP1 POP PUSH2 0x2A9E DUP3 DUP3 PUSH2 0x2A57 JUMP JUMPDEST SWAP2 SWAP1 POP JUMP JUMPDEST PUSH1 0x0 PUSH8 0xFFFFFFFFFFFFFFFF DUP3 GT ISZERO PUSH2 0x2ABE JUMPI PUSH2 0x2ABD PUSH2 0x2A28 JUMP JUMPDEST JUMPDEST PUSH1 0x20 DUP3 MUL SWAP1 POP PUSH1 0x20 DUP2 ADD SWAP1 POP SWAP2 SWAP1 POP JUMP JUMPDEST PUSH1 0x0 DUP1 REVERT JUMPDEST PUSH1 0x0 PUSH1 0x40 DUP3 DUP5 SUB SLT ISZERO PUSH2 0x2AEA JUMPI PUSH2 0x2AE9 PUSH2 0x2ACF JUMP JUMPDEST JUMPDEST PUSH2 0x2AF4 PUSH1 0x40 PUSH2 0x2A88 JUMP JUMPDEST SWAP1 POP PUSH1 0x0 PUSH2 0x2B04 DUP5 DUP3 DUP6 ADD PUSH2 0x24AC JUMP JUMPDEST PUSH1 0x0 DUP4 ADD MSTORE POP PUSH1 0x20 PUSH2 0x2B18 DUP5 DUP3 DUP6 ADD PUSH2 0x24AC JUMP JUMPDEST PUSH1 0x20 DUP4 ADD MSTORE POP SWAP3 SWAP2 POP POP JUMP JUMPDEST PUSH1 0x0 PUSH2 0x2B37 PUSH2 0x2B32 DUP5 PUSH2 0x2AA3 JUMP JUMPDEST PUSH2 0x2A88 JUMP JUMPDEST SWAP1 POP DUP1 DUP4 DUP3 MSTORE PUSH1 0x20 DUP3 ADD SWAP1 POP PUSH1 0x40 DUP5 MUL DUP4 ADD DUP6 DUP2 GT ISZERO PUSH2 0x2B5A JUMPI PUSH2 0x2B59 PUSH2 0x2607 JUMP JUMPDEST JUMPDEST DUP4 JUMPDEST DUP2 DUP2 LT ISZERO PUSH2 0x2B83 JUMPI DUP1 PUSH2 0x2B6F DUP9 DUP3 PUSH2 0x2AD4 JUMP JUMPDEST DUP5 MSTORE PUSH1 0x20 DUP5 ADD SWAP4 POP POP PUSH1 0x40 DUP2 ADD SWAP1 POP PUSH2 0x2B5C JUMP JUMPDEST POP POP POP SWAP4 SWAP3 POP POP POP JUMP JUMPDEST PUSH1 0x0 DUP3 PUSH1 0x1F DUP4 ADD SLT PUSH2 0x2BA2 JUMPI PUSH2 0x2BA1 PUSH2 0x25FD JUMP JUMPDEST JUMPDEST DUP2 CALLDATALOAD PUSH2 0x2BB2 DUP5 DUP3 PUSH1 0x20 DUP7 ADD PUSH2 0x2B24 JUMP JUMPDEST SWAP2 POP POP SWAP3 SWAP2 POP POP JUMP JUMPDEST PUSH1 0x0 DUP1 PUSH1 0x40 DUP4 DUP6 SUB SLT ISZERO PUSH2 0x2BD2 JUMPI PUSH2 0x2BD1 PUSH2 0x2481 JUMP JUMPDEST JUMPDEST PUSH1 0x0 PUSH2 0x2BE0 DUP6 DUP3 DUP7 ADD PUSH2 0x24AC JUMP JUMPDEST SWAP3 POP POP PUSH1 0x20 DUP4 ADD CALLDATALOAD PUSH8 0xFFFFFFFFFFFFFFFF DUP2 GT ISZERO PUSH2 0x2C01 JUMPI PUSH2 0x2C00 PUSH2 0x2486 JUMP JUMPDEST JUMPDEST PUSH2 0x2C0D DUP6 DUP3 DUP7 ADD PUSH2 0x2B8D JUMP JUMPDEST SWAP2 POP POP SWAP3 POP SWAP3 SWAP1 POP JUMP JUMPDEST PUSH1 0x0 DUP2 MLOAD SWAP1 POP SWAP2 SWAP1 POP JUMP JUMPDEST PUSH1 0x0 DUP3 DUP3 MSTORE PUSH1 0x20 DUP3 ADD SWAP1 POP SWAP3 SWAP2 POP POP JUMP JUMPDEST PUSH1 0x0 JUMPDEST DUP4 DUP2 LT ISZERO PUSH2 0x2C51 JUMPI DUP1 DUP3 ADD MLOAD DUP2 DUP5 ADD MSTORE PUSH1 0x20 DUP2 ADD SWAP1 POP PUSH2 0x2C36 JUMP JUMPDEST PUSH1 0x0 DUP5 DUP5 ADD MSTORE POP POP POP POP JUMP JUMPDEST PUSH1 0x0 PUSH2 0x2C68 DUP3 PUSH2 0x2C17 JUMP JUMPDEST PUSH2 0x2C72 DUP2 DUP6 PUSH2 0x2C22 JUMP JUMPDEST SWAP4 POP PUSH2 0x2C82 DUP2 DUP6 PUSH1 0x20 DUP7 ADD PUSH2 0x2C33 JUMP JUMPDEST PUSH2 0x2C8B DUP2 PUSH2 0x2A17 JUMP JUMPDEST DUP5 ADD SWAP2 POP POP SWAP3 SWAP2 POP POP JUMP JUMPDEST PUSH1 0x0 PUSH1 0x20 DUP3 ADD SWAP1 POP DUP2 DUP2 SUB PUSH1 0x0 DUP4 ADD MSTORE PUSH2 0x2CB0 DUP2 DUP5 PUSH2 0x2C5D JUMP JUMPDEST SWAP1 POP SWAP3 SWAP2 POP POP JUMP JUMPDEST PUSH1 0x0 PUSH1 0x20 DUP3 DUP5 SUB SLT ISZERO PUSH2 0x2CCE JUMPI PUSH2 0x2CCD PUSH2 0x2481 JUMP JUMPDEST JUMPDEST PUSH1 0x0 PUSH2 0x2CDC DUP5 DUP3 DUP6 ADD PUSH2 0x26AB JUMP JUMPDEST SWAP2 POP POP SWAP3 SWAP2 POP POP JUMP JUMPDEST PUSH2 0x2CEE DUP2 PUSH2 0x2700 JUMP JUMPDEST DUP3 MSTORE POP POP JUMP JUMPDEST PUSH1 0x0 PUSH1 0x20 DUP3 ADD SWAP1 POP PUSH2 0x2D09 PUSH1 0x0 DUP4 ADD DUP5 PUSH2 0x2CE5 JUMP JUMPDEST SWAP3 SWAP2 POP POP JUMP JUMPDEST PUSH2 0x2D18 DUP2 PUSH2 0x2682 JUMP JUMPDEST DUP3 MSTORE POP POP JUMP JUMPDEST PUSH2 0x2D27 DUP2 PUSH2 0x2841 JUMP JUMPDEST DUP3 MSTORE POP POP JUMP JUMPDEST PUSH2 0x2D36 DUP2 PUSH2 0x2877 JUMP JUMPDEST DUP3 MSTORE POP POP JUMP JUMPDEST PUSH2 0x2D45 DUP2 PUSH2 0x2700 JUMP JUMPDEST DUP3 MSTORE POP POP JUMP JUMPDEST PUSH2 0x120 DUP3 ADD PUSH1 0x0 DUP3 ADD MLOAD PUSH2 0x2D62 PUSH1 0x0 DUP6 ADD DUP3 PUSH2 0x2D0F JUMP JUMPDEST POP PUSH1 0x20 DUP3 ADD MLOAD PUSH2 0x2D75 PUSH1 0x20 DUP6 ADD DUP3 PUSH2 0x2D0F JUMP JUMPDEST POP PUSH1 0x40 DUP3 ADD MLOAD PUSH2 0x2D88 PUSH1 0x40 DUP6 ADD DUP3 PUSH2 0x2D0F JUMP JUMPDEST POP PUSH1 0x60 DUP3 ADD MLOAD PUSH2 0x2D9B PUSH1 0x60 DUP6 ADD DUP3 PUSH2 0x2D1E JUMP JUMPDEST POP PUSH1 0x80 DUP3 ADD MLOAD PUSH2 0x2DAE PUSH1 0x80 DUP6 ADD DUP3 PUSH2 0x2D2D JUMP JUMPDEST POP PUSH1 0xA0 DUP3 ADD MLOAD PUSH2 0x2DC1 PUSH1 0xA0 DUP6 ADD DUP3 PUSH2 0x2D3C JUMP JUMPDEST POP PUSH1 0xC0 DUP3 ADD MLOAD PUSH2 0x2DD4 PUSH1 0xC0 DUP6 ADD DUP3 PUSH2 0x2D0F JUMP JUMPDEST POP PUSH1 0xE0 DUP3 ADD MLOAD PUSH2 0x2DE7 PUSH1 0xE0 DUP6 ADD DUP3 PUSH2 0x2D2D JUMP JUMPDEST POP PUSH2 0x100 DUP3 ADD MLOAD PUSH2 0x2DFC PUSH2 0x100 DUP6 ADD DUP3 PUSH2 0x2D1E JUMP JUMPDEST POP POP POP POP JUMP JUMPDEST PUSH1 0x0 PUSH2 0x120 DUP3 ADD SWAP1 POP PUSH2 0x2E18 PUSH1 0x0 DUP4 ADD DUP5 PUSH2 0x2D4B JUMP JUMPDEST SWAP3 SWAP2 POP POP JUMP JUMPDEST PUSH1 0x0 DUP1 PUSH1 0x40 DUP4 DUP6 SUB SLT ISZERO PUSH2 0x2E35 JUMPI PUSH2 0x2E34 PUSH2 0x2481 JUMP JUMPDEST JUMPDEST PUSH1 0x0 PUSH2 0x2E43 DUP6 DUP3 DUP7 ADD PUSH2 0x24AC JUMP JUMPDEST SWAP3 POP POP PUSH1 0x20 PUSH2 0x2E54 DUP6 DUP3 DUP7 ADD PUSH2 0x26AB JUMP JUMPDEST SWAP2 POP POP SWAP3 POP SWAP3 SWAP1 POP JUMP JUMPDEST PUSH1 0x0 PUSH1 0x20 DUP3 DUP5 SUB SLT ISZERO PUSH2 0x2E74 JUMPI PUSH2 0x2E73 PUSH2 0x2481 JUMP JUMPDEST JUMPDEST PUSH1 0x0 PUSH2 0x2E82 DUP5 DUP3 DUP6 ADD PUSH2 0x26EB JUMP JUMPDEST SWAP2 POP POP SWAP3 SWAP2 POP POP JUMP JUMPDEST PUSH1 0x40 DUP3 ADD PUSH1 0x0 DUP3 ADD MLOAD PUSH2 0x2EA1 PUSH1 0x0 DUP6 ADD DUP3 PUSH2 0x251A JUMP JUMPDEST POP PUSH1 0x20 DUP3 ADD MLOAD PUSH2 0x2EB4 PUSH1 0x20 DUP6 ADD DUP3 PUSH2 0x251A JUMP JUMPDEST POP POP POP POP JUMP JUMPDEST PUSH1 0x0 PUSH1 0x40 DUP3 ADD SWAP1 POP PUSH2 0x2ECF PUSH1 0x0 DUP4 ADD DUP5 PUSH2 0x2E8B JUMP JUMPDEST SWAP3 SWAP2 POP POP JUMP JUMPDEST PUSH1 0x0 PUSH1 0x20 DUP3 ADD SWAP1 POP PUSH2 0x2EEA PUSH1 0x0 DUP4 ADD DUP5 PUSH2 0x2809 JUMP JUMPDEST SWAP3 SWAP2 POP POP JUMP JUMPDEST PUSH1 0x0 DUP1 PUSH1 0x0 PUSH1 0x60 DUP5 DUP7 SUB SLT ISZERO PUSH2 0x2F09 JUMPI PUSH2 0x2F08 PUSH2 0x2481 JUMP JUMPDEST JUMPDEST PUSH1 0x0 PUSH2 0x2F17 DUP7 DUP3 DUP8 ADD PUSH2 0x24AC JUMP JUMPDEST SWAP4 POP POP PUSH1 0x20 PUSH2 0x2F28 DUP7 DUP3 DUP8 ADD PUSH2 0x26AB JUMP JUMPDEST SWAP3 POP POP PUSH1 0x40 PUSH2 0x2F39 DUP7 DUP3 DUP8 ADD PUSH2 0x2723 JUMP JUMPDEST SWAP2 POP POP SWAP3 POP SWAP3 POP SWAP3 JUMP JUMPDEST PUSH2 0x2F4C DUP2 PUSH2 0x26C0 JUMP JUMPDEST DUP3 MSTORE POP POP JUMP JUMPDEST PUSH2 0x2F5B DUP2 PUSH2 0x2841 JUMP JUMPDEST DUP3 MSTORE POP POP JUMP JUMPDEST PUSH1 0x0 PUSH1 0x40 DUP3 ADD SWAP1 POP PUSH2 0x2F76 PUSH1 0x0 DUP4 ADD DUP6 PUSH2 0x2F43 JUMP JUMPDEST PUSH2 0x2F83 PUSH1 0x20 DUP4 ADD DUP5 PUSH2 0x2F52 JUMP JUMPDEST SWAP4 SWAP3 POP POP POP JUMP JUMPDEST PUSH1 0x0 DUP1 DUP4 PUSH1 0x1F DUP5 ADD SLT PUSH2 0x2FA0 JUMPI PUSH2 0x2F9F PUSH2 0x25FD JUMP JUMPDEST JUMPDEST DUP3 CALLDATALOAD SWAP1 POP PUSH8 0xFFFFFFFFFFFFFFFF DUP2 GT ISZERO PUSH2 0x2FBD JUMPI PUSH2 0x2FBC PUSH2 0x2602 JUMP JUMPDEST JUMPDEST PUSH1 0x20 DUP4 ADD SWAP2 POP DUP4 PUSH1 0x1 DUP3 MUL DUP4 ADD GT ISZERO PUSH2 0x2FD9 JUMPI PUSH2 0x2FD8 PUSH2 0x2607 JUMP JUMPDEST JUMPDEST SWAP3 POP SWAP3 SWAP1 POP JUMP JUMPDEST PUSH1 0x0 DUP1 PUSH1 0x20 DUP4 DUP6 SUB SLT ISZERO PUSH2 0x2FF7 JUMPI PUSH2 0x2FF6 PUSH2 0x2481 JUMP JUMPDEST JUMPDEST PUSH1 0x0 DUP4 ADD CALLDATALOAD PUSH8 0xFFFFFFFFFFFFFFFF DUP2 GT ISZERO PUSH2 0x3015 JUMPI PUSH2 0x3014 PUSH2 0x2486 JUMP JUMPDEST JUMPDEST PUSH2 0x3021 DUP6 DUP3 DUP7 ADD PUSH2 0x2F8A JUMP JUMPDEST SWAP3 POP SWAP3 POP POP SWAP3 POP SWAP3 SWAP1 POP JUMP JUMPDEST PUSH1 0x0 DUP1 PUSH1 0x0 PUSH1 0x60 DUP5 DUP7 SUB SLT ISZERO PUSH2 0x3046 JUMPI PUSH2 0x3045 PUSH2 0x2481 JUMP JUMPDEST JUMPDEST PUSH1 0x0 PUSH2 0x3054 DUP7 DUP3 DUP8 ADD PUSH2 0x26AB JUMP JUMPDEST SWAP4 POP POP PUSH1 0x20 PUSH2 0x3065 DUP7 DUP3 DUP8 ADD PUSH2 0x26AB JUMP JUMPDEST SWAP3 POP POP PUSH1 0x40 PUSH2 0x3076 DUP7 DUP3 DUP8 ADD PUSH2 0x2862 JUMP JUMPDEST SWAP2 POP POP SWAP3 POP SWAP3 POP SWAP3 JUMP JUMPDEST PUSH1 0x0 DUP1 PUSH1 0x40 DUP4 DUP6 SUB SLT ISZERO PUSH2 0x3097 JUMPI PUSH2 0x3096 PUSH2 0x2481 JUMP JUMPDEST JUMPDEST PUSH1 0x0 PUSH2 0x30A5 DUP6 DUP3 DUP7 ADD PUSH2 0x24AC JUMP JUMPDEST SWAP3 POP POP PUSH1 0x20 PUSH2 0x30B6 DUP6 DUP3 DUP7 ADD PUSH2 0x24AC JUMP JUMPDEST SWAP2 POP POP SWAP3 POP SWAP3 SWAP1 POP JUMP JUMPDEST PUSH32 0x4E487B7100000000000000000000000000000000000000000000000000000000 PUSH1 0x0 MSTORE PUSH1 0x32 PUSH1 0x4 MSTORE PUSH1 0x24 PUSH1 0x0 REVERT JUMPDEST PUSH1 0x0 DUP3 DUP3 MSTORE PUSH1 0x20 DUP3 ADD SWAP1 POP SWAP3 SWAP2 POP POP JUMP JUMPDEST PUSH32 0x4F6E6C7941676772656761746F72000000000000000000000000000000000000 PUSH1 0x0 DUP3 ADD MSTORE POP JUMP JUMPDEST PUSH1 0x0 PUSH2 0x3136 PUSH1 0xE DUP4 PUSH2 0x30EF JUMP JUMPDEST SWAP2 POP PUSH2 0x3141 DUP3 PUSH2 0x3100 JUMP JUMPDEST PUSH1 0x20 DUP3 ADD SWAP1 POP SWAP2 SWAP1 POP JUMP JUMPDEST PUSH1 0x0 PUSH1 0x20 DUP3 ADD SWAP1 POP DUP2 DUP2 SUB PUSH1 0x0 DUP4 ADD MSTORE PUSH2 0x3165 DUP2 PUSH2 0x3129 JUMP JUMPDEST SWAP1 POP SWAP2 SWAP1 POP JUMP JUMPDEST PUSH32 0x4F7264657246756C66696C6C6564000000000000000000000000000000000000 PUSH1 0x0 DUP3 ADD MSTORE POP JUMP JUMPDEST PUSH1 0x0 PUSH2 0x31A2 PUSH1 0xE DUP4 PUSH2 0x30EF JUMP JUMPDEST SWAP2 POP PUSH2 0x31AD DUP3 PUSH2 0x316C JUMP JUMPDEST PUSH1 0x20 DUP3 ADD SWAP1 POP SWAP2 SWAP1 POP JUMP JUMPDEST PUSH1 0x0 PUSH1 0x20 DUP3 ADD SWAP1 POP DUP2 DUP2 SUB PUSH1 0x0 DUP4 ADD MSTORE PUSH2 0x31D1 DUP2 PUSH2 0x3195 JUMP JUMPDEST SWAP1 POP SWAP2 SWAP1 POP JUMP JUMPDEST PUSH32 0x4E487B7100000000000000000000000000000000000000000000000000000000 PUSH1 0x0 MSTORE PUSH1 0x11 PUSH1 0x4 MSTORE PUSH1 0x24 PUSH1 0x0 REVERT JUMPDEST PUSH1 0x0 PUSH2 0x3212 DUP3 PUSH2 0x2877 JUMP JUMPDEST SWAP2 POP PUSH2 0x321D DUP4 PUSH2 0x2877 JUMP JUMPDEST SWAP3 POP DUP3 DUP3 SUB SWAP1 POP PUSH12 0xFFFFFFFFFFFFFFFFFFFFFFFF DUP2 GT ISZERO PUSH2 0x3241 JUMPI PUSH2 0x3240 PUSH2 0x31D8 JUMP JUMPDEST JUMPDEST SWAP3 SWAP2 POP POP JUMP JUMPDEST PUSH1 0x0 PUSH1 0x40 DUP3 ADD SWAP1 POP PUSH2 0x325C PUSH1 0x0 DUP4 ADD DUP6 PUSH2 0x2809 JUMP JUMPDEST PUSH2 0x3269 PUSH1 0x20 DUP4 ADD DUP5 PUSH2 0x2F52 JUMP JUMPDEST SWAP4 SWAP3 POP POP POP JUMP JUMPDEST PUSH1 0x0 DUP2 MLOAD SWAP1 POP PUSH2 0x327F DUP2 PUSH2 0x270C JUMP JUMPDEST SWAP3 SWAP2 POP POP JUMP JUMPDEST PUSH1 0x0 PUSH1 0x20 DUP3 DUP5 SUB SLT ISZERO PUSH2 0x329B JUMPI PUSH2 0x329A PUSH2 0x2481 JUMP JUMPDEST JUMPDEST PUSH1 0x0 PUSH2 0x32A9 DUP5 DUP3 DUP6 ADD PUSH2 0x3270 JUMP JUMPDEST SWAP2 POP POP SWAP3 SWAP2 POP POP JUMP JUMPDEST PUSH1 0x0 DUP2 SWAP1 POP SWAP2 SWAP1 POP JUMP JUMPDEST PUSH1 0x0 PUSH2 0x32D7 PUSH2 0x32D2 PUSH2 0x32CD DUP5 PUSH2 0x26C0 JUMP JUMPDEST PUSH2 0x32B2 JUMP JUMPDEST PUSH2 0x2877 JUMP JUMPDEST SWAP1 POP SWAP2 SWAP1 POP JUMP JUMPDEST PUSH2 0x32E7 DUP2 PUSH2 0x32BC JUMP JUMPDEST DUP3 MSTORE POP POP JUMP JUMPDEST PUSH1 0x0 PUSH1 0x60 DUP3 ADD SWAP1 POP PUSH2 0x3302 PUSH1 0x0 DUP4 ADD DUP7 PUSH2 0x27FA JUMP JUMPDEST PUSH2 0x330F PUSH1 0x20 DUP4 ADD DUP6 PUSH2 0x27FA JUMP JUMPDEST PUSH2 0x331C PUSH1 0x40 DUP4 ADD DUP5 PUSH2 0x32DE JUMP JUMPDEST SWAP5 SWAP4 POP POP POP POP JUMP JUMPDEST PUSH1 0x0 PUSH2 0x332F DUP3 PUSH2 0x2841 JUMP JUMPDEST SWAP2 POP PUSH2 0x333A DUP4 PUSH2 0x2841 JUMP JUMPDEST SWAP3 POP DUP3 DUP3 MUL PUSH2 0x3348 DUP2 PUSH2 0x2841 JUMP JUMPDEST SWAP2 POP DUP3 DUP3 DIV DUP5 EQ DUP4 ISZERO OR PUSH2 0x335F JUMPI PUSH2 0x335E PUSH2 0x31D8 JUMP JUMPDEST JUMPDEST POP SWAP3 SWAP2 POP POP JUMP JUMPDEST PUSH32 0x4E487B7100000000000000000000000000000000000000000000000000000000 PUSH1 0x0 MSTORE PUSH1 0x12 PUSH1 0x4 MSTORE PUSH1 0x24 PUSH1 0x0 REVERT JUMPDEST PUSH1 0x0 PUSH2 0x33A0 DUP3 PUSH2 0x2841 JUMP JUMPDEST SWAP2 POP PUSH2 0x33AB DUP4 PUSH2 0x2841 JUMP JUMPDEST SWAP3 POP DUP3 PUSH2 0x33BB JUMPI PUSH2 0x33BA PUSH2 0x3366 JUMP JUMPDEST JUMPDEST DUP3 DUP3 DIV SWAP1 POP SWAP3 SWAP2 POP POP JUMP JUMPDEST PUSH32 0x53656E646572466565546F6F4869676800000000000000000000000000000000 PUSH1 0x0 DUP3 ADD MSTORE POP JUMP JUMPDEST PUSH1 0x0 PUSH2 0x33FC PUSH1 0x10 DUP4 PUSH2 0x30EF JUMP JUMPDEST SWAP2 POP PUSH2 0x3407 DUP3 PUSH2 0x33C6 JUMP JUMPDEST PUSH1 0x20 DUP3 ADD SWAP1 POP SWAP2 SWAP1 POP JUMP JUMPDEST PUSH1 0x0 PUSH1 0x20 DUP3 ADD SWAP1 POP DUP2 DUP2 SUB PUSH1 0x0 DUP4 ADD MSTORE PUSH2 0x342B DUP2 PUSH2 0x33EF JUMP JUMPDEST SWAP1 POP SWAP2 SWAP1 POP JUMP JUMPDEST PUSH1 0x0 PUSH1 0x60 DUP3 ADD SWAP1 POP PUSH2 0x3447 PUSH1 0x0 DUP4 ADD DUP7 PUSH2 0x2809 JUMP JUMPDEST PUSH2 0x3454 PUSH1 0x20 DUP4 ADD DUP6 PUSH2 0x2809 JUMP JUMPDEST PUSH2 0x3461 PUSH1 0x40 DUP4 ADD DUP5 PUSH2 0x2F52 JUMP JUMPDEST SWAP5 SWAP4 POP POP POP POP JUMP JUMPDEST PUSH1 0x0 PUSH2 0x3474 DUP3 PUSH2 0x2841 JUMP JUMPDEST SWAP2 POP PUSH32 0xFFFFFFFFFFFFFFFFFFFFFFFFFFFFFFFFFFFFFFFFFFFFFFFFFFFFFFFFFFFFFFFF DUP3 SUB PUSH2 0x34A6 JUMPI PUSH2 0x34A5 PUSH2 0x31D8 JUMP JUMPDEST JUMPDEST PUSH1 0x1 DUP3 ADD SWAP1 POP SWAP2 SWAP1 POP JUMP JUMPDEST PUSH1 0x0 PUSH2 0x34CC PUSH2 0x34C7 PUSH2 0x34C2 DUP5 PUSH2 0x2877 JUMP JUMPDEST PUSH2 0x32B2 JUMP JUMPDEST PUSH2 0x2841 JUMP JUMPDEST SWAP1 POP SWAP2 SWAP1 POP JUMP JUMPDEST PUSH2 0x34DC DUP2 PUSH2 0x34B1 JUMP JUMPDEST DUP3 MSTORE POP POP JUMP JUMPDEST DUP3 DUP2 DUP4 CALLDATACOPY PUSH1 0x0 DUP4 DUP4 ADD MSTORE POP POP POP JUMP JUMPDEST PUSH1 0x0 PUSH2 0x34FD DUP4 DUP6 PUSH2 0x30EF JUMP JUMPDEST SWAP4 POP PUSH2 0x350A DUP4 DUP6 DUP5 PUSH2 0x34E2 JUMP JUMPDEST PUSH2 0x3513 DUP4 PUSH2 0x2A17 JUMP JUMPDEST DUP5 ADD SWAP1 POP SWAP4 SWAP3 POP POP POP JUMP JUMPDEST PUSH1 0x0 PUSH1 0x80 DUP3 ADD SWAP1 POP PUSH2 0x3533 PUSH1 0x0 DUP4 ADD DUP9 PUSH2 0x34D3 JUMP JUMPDEST PUSH2 0x3540 PUSH1 0x20 DUP4 ADD DUP8 PUSH2 0x27FA JUMP JUMPDEST PUSH2 0x354D PUSH1 0x40 DUP4 ADD DUP7 PUSH2 0x27FA JUMP JUMPDEST DUP2 DUP2 SUB PUSH1 0x60 DUP4 ADD MSTORE PUSH2 0x3560 DUP2 DUP5 DUP7 PUSH2 0x34F1 JUMP JUMPDEST SWAP1 POP SWAP7 SWAP6 POP POP POP POP POP POP JUMP JUMPDEST PUSH32 0x4E487B7100000000000000000000000000000000000000000000000000000000 PUSH1 0x0 MSTORE PUSH1 0x22 PUSH1 0x4 MSTORE PUSH1 0x24 PUSH1 0x0 REVERT JUMPDEST PUSH1 0x0 PUSH1 0x2 DUP3 DIV SWAP1 POP PUSH1 0x1 DUP3 AND DUP1 PUSH2 0x35B3 JUMPI PUSH1 0x7F DUP3 AND SWAP2 POP JUMPDEST PUSH1 0x20 DUP3 LT DUP2 SUB PUSH2 0x35C6 JUMPI PUSH2 0x35C5 PUSH2 0x356C JUMP JUMPDEST JUMPDEST POP SWAP2 SWAP1 POP JUMP JUMPDEST PUSH32 0x50617963726573743A207A65726F206164647265737300000000000000000000 PUSH1 0x0 DUP3 ADD MSTORE POP JUMP JUMPDEST PUSH1 0x0 PUSH2 0x3602 PUSH1 0x16 DUP4 PUSH2 0x30EF JUMP JUMPDEST SWAP2 POP PUSH2 0x360D DUP3 PUSH2 0x35CC JUMP JUMPDEST PUSH1 0x20 DUP3 ADD SWAP1 POP SWAP2 SWAP1 POP JUMP JUMPDEST PUSH1 0x0 PUSH1 0x20 DUP3 ADD SWAP1 POP DUP2 DUP2 SUB PUSH1 0x0 DUP4 ADD MSTORE PUSH2 0x3631 DUP2 PUSH2 0x35F5 JUMP JUMPDEST SWAP1 POP SWAP2 SWAP1 POP JUMP JUMPDEST PUSH1 0x0 PUSH1 0x20 DUP3 ADD SWAP1 POP PUSH2 0x364D PUSH1 0x0 DUP4 ADD DUP5 PUSH2 0x2F43 JUMP JUMPDEST SWAP3 SWAP2 POP POP JUMP JUMPDEST PUSH1 0x0 PUSH1 0x60 DUP3 ADD SWAP1 POP PUSH2 0x3668 PUSH1 0x0 DUP4 ADD DUP7 PUSH2 0x27FA JUMP JUMPDEST PUSH2 0x3675 PUSH1 0x20 DUP4 ADD DUP6 PUSH2 0x2809 JUMP JUMPDEST PUSH2 0x3682 PUSH1 0x40 DUP4 ADD DUP5 PUSH2 0x2CE5 JUMP JUMPDEST SWAP5 SWAP4 POP POP POP POP JUMP JUMPDEST PUSH32 0x496E697469616C697A61626C653A20636F6E747261637420697320616C726561 PUSH1 0x0 DUP3 ADD MSTORE PUSH32 0x647920696E697469616C697A6564000000000000000000000000000000000000 PUSH1 0x20 DUP3 ADD MSTORE POP JUMP JUMPDEST PUSH1 0x0 PUSH2 0x36E6 PUSH1 0x2E DUP4 PUSH2 0x30EF JUMP JUMPDEST SWAP2 POP PUSH2 0x36F1 DUP3 PUSH2 0x368A JUMP JUMPDEST PUSH1 0x40 DUP3 ADD SWAP1 POP SWAP2 SWAP1 POP JUMP JUMPDEST PUSH1 0x0 PUSH1 0x20 DUP3 ADD SWAP1 POP DUP2 DUP2 SUB PUSH1 0x0 DUP4 ADD MSTORE PUSH2 0x3715 DUP2 PUSH2 0x36D9 JUMP JUMPDEST SWAP1 POP SWAP2 SWAP1 POP JUMP JUMPDEST PUSH1 0x0 DUP2 SWAP1 POP SWAP2 SWAP1 POP JUMP JUMPDEST PUSH1 0x0 PUSH1 0xFF DUP3 AND SWAP1 POP SWAP2 SWAP1 POP JUMP JUMPDEST PUSH1 0x0 PUSH2 0x374E PUSH2 0x3749 PUSH2 0x3744 DUP5 PUSH2 0x371C JUMP JUMPDEST PUSH2 0x32B2 JUMP JUMPDEST PUSH2 0x3726 JUMP JUMPDEST SWAP1 POP SWAP2 SWAP1 POP JUMP JUMPDEST PUSH2 0x375E DUP2 PUSH2 0x3733 JUMP JUMPDEST DUP3 MSTORE POP POP JUMP JUMPDEST PUSH1 0x0 PUSH1 0x20 DUP3 ADD SWAP1 POP PUSH2 0x3779 PUSH1 0x0 DUP4 ADD DUP5 PUSH2 0x3755 JUMP JUMPDEST SWAP3 SWAP2 POP POP JUMP JUMPDEST PUSH1 0x0 DUP3 SWAP1 POP SWAP3 SWAP2 POP POP JUMP JUMPDEST PUSH1 0x0 DUP2 SWAP1 POP DUP2 PUSH1 0x0 MSTORE PUSH1 0x20 PUSH1 0x0 KECCAK256 SWAP1 POP SWAP2 SWAP1 POP JUMP JUMPDEST PUSH1 0x0 PUSH1 0x20 PUSH1 0x1F DUP4 ADD DIV SWAP1 POP SWAP2 SWAP1 POP JUMP JUMPDEST PUSH1 0x0 DUP3 DUP3 SHL SWAP1 POP SWAP3 SWAP2 POP POP JUMP JUMPDEST PUSH1 0x0 PUSH1 0x8 DUP4 MUL PUSH2 0x37EC PUSH32 0xFFFFFFFFFFFFFFFFFFFFFFFFFFFFFFFFFFFFFFFFFFFFFFFFFFFFFFFFFFFFFFFF DUP3 PUSH2 0x37AF JUMP JUMPDEST PUSH2 0x37F6 DUP7 DUP4 PUSH2 0x37AF JUMP JUMPDEST SWAP6 POP DUP1 NOT DUP5 AND SWAP4 POP DUP1 DUP7 AND DUP5 OR SWAP3 POP POP POP SWAP4 SWAP3 POP POP POP JUMP JUMPDEST PUSH1 0x0 PUSH2 0x3829 PUSH2 0x3824 PUSH2 0x381F DUP5 PUSH2 0x2841 JUMP JUMPDEST PUSH2 0x32B2 JUMP JUMPDEST PUSH2 0x2841 JUMP JUMPDEST SWAP1 POP SWAP2 SWAP1 POP JUMP JUMPDEST PUSH1 0x0 DUP2 SWAP1 POP SWAP2 SWAP1 POP JUMP JUMPDEST PUSH2 0x3843 DUP4 PUSH2 0x380E JUMP JUMPDEST PUSH2 0x3857 PUSH2 0x384F DUP3 PUSH2 0x3830 JUMP JUMPDEST DUP5 DUP5 SLOAD PUSH2 0x37BC JUMP JUMPDEST DUP3 SSTORE POP POP POP POP JUMP JUMPDEST PUSH1 0x0 SWAP1 JUMP JUMPDEST PUSH2 0x386C PUSH2 0x385F JUMP JUMPDEST PUSH2 0x3877 DUP2 DUP5 DUP5 PUSH2 0x383A JUMP JUMPDEST POP POP POP JUMP JUMPDEST JUMPDEST DUP2 DUP2 LT ISZERO PUSH2 0x389B JUMPI PUSH2 0x3890 PUSH1 0x0 DUP3 PUSH2 0x3864 JUMP JUMPDEST PUSH1 0x1 DUP2 ADD SWAP1 POP PUSH2 0x387D JUMP JUMPDEST POP POP JUMP JUMPDEST PUSH1 0x1F DUP3 GT ISZERO PUSH2 0x38E0 JUMPI PUSH2 0x38B1 DUP2 PUSH2 0x378A JUMP JUMPDEST PUSH2 0x38BA DUP5 PUSH2 0x379F JUMP JUMPDEST DUP2 ADD PUSH1 0x20 DUP6 LT ISZERO PUSH2 0x38C9 JUMPI DUP2 SWAP1 POP JUMPDEST PUSH2 0x38DD PUSH2 0x38D5 DUP6 PUSH2 0x379F JUMP JUMPDEST DUP4 ADD DUP3 PUSH2 0x387C JUMP JUMPDEST POP POP JUMPDEST POP POP POP JUMP JUMPDEST PUSH1 0x0 DUP3 DUP3 SHR SWAP1 POP SWAP3 SWAP2 POP POP JUMP JUMPDEST PUSH1 0x0 PUSH2 0x3903 PUSH1 0x0 NOT DUP5 PUSH1 0x8 MUL PUSH2 0x38E5 JUMP JUMPDEST NOT DUP1 DUP4 AND SWAP2 POP POP SWAP3 SWAP2 POP POP JUMP JUMPDEST PUSH1 0x0 PUSH2 0x391C DUP4 DUP4 PUSH2 0x38F2 JUMP JUMPDEST SWAP2 POP DUP3 PUSH1 0x2 MUL DUP3 OR SWAP1 POP SWAP3 SWAP2 POP POP JUMP JUMPDEST PUSH2 0x3936 DUP4 DUP4 PUSH2 0x377F JUMP JUMPDEST PUSH8 0xFFFFFFFFFFFFFFFF DUP2 GT ISZERO PUSH2 0x394F JUMPI PUSH2 0x394E PUSH2 0x2A28 JUMP JUMPDEST JUMPDEST PUSH2 0x3959 DUP3 SLOAD PUSH2 0x359B JUMP JUMPDEST PUSH2 0x3964 DUP3 DUP3 DUP6 PUSH2 0x389F JUMP JUMPDEST PUSH1 0x0 PUSH1 0x1F DUP4 GT PUSH1 0x1 DUP2 EQ PUSH2 0x3993 JUMPI PUSH1 0x0 DUP5 ISZERO PUSH2 0x3981 JUMPI DUP3 DUP8 ADD CALLDATALOAD SWAP1 POP JUMPDEST PUSH2 0x398B DUP6 DUP3 PUSH2 0x3910 JUMP JUMPDEST DUP7 SSTORE POP PUSH2 0x39F3 JUMP JUMPDEST PUSH1 0x1F NOT DUP5 AND PUSH2 0x39A1 DUP7 PUSH2 0x378A JUMP JUMPDEST PUSH1 0x0 JUMPDEST DUP3 DUP2 LT ISZERO PUSH2 0x39C9 JUMPI DUP5 DUP10 ADD CALLDATALOAD DUP3 SSTORE PUSH1 0x1 DUP3 ADD SWAP2 POP PUSH1 0x20 DUP6 ADD SWAP5 POP PUSH1 0x20 DUP2 ADD SWAP1 POP PUSH2 0x39A4 JUMP JUMPDEST DUP7 DUP4 LT ISZERO PUSH2 0x39E6 JUMPI DUP5 DUP10 ADD CALLDATALOAD PUSH2 0x39E2 PUSH1 0x1F DUP10 AND DUP3 PUSH2 0x38F2 JUMP JUMPDEST DUP4 SSTORE POP JUMPDEST PUSH1 0x1 PUSH1 0x2 DUP9 MUL ADD DUP9 SSTORE POP POP POP JUMPDEST POP POP POP POP POP POP POP JUMP JUMPDEST PUSH1 0x0 PUSH2 0x3A08 DUP4 DUP6 PUSH2 0x2C22 JUMP JUMPDEST SWAP4 POP PUSH2 0x3A15 DUP4 DUP6 DUP5 PUSH2 0x34E2 JUMP JUMPDEST PUSH2 0x3A1E DUP4 PUSH2 0x2A17 JUMP JUMPDEST DUP5 ADD SWAP1 POP SWAP4 SWAP3 POP POP POP JUMP JUMPDEST PUSH1 0x0 PUSH1 0x20 DUP3 ADD SWAP1 POP DUP2 DUP2 SUB PUSH1 0x0 DUP4 ADD MSTORE PUSH2 0x3A44 DUP2 DUP5 DUP7 PUSH2 0x39FC JUMP JUMPDEST SWAP1 POP SWAP4 SWAP3 POP POP POP JUMP JUMPDEST PUSH32 0x4F776E61626C653A206E6577206F776E657220697320746865207A65726F2061 PUSH1 0x0 DUP3 ADD MSTORE PUSH32 0x6464726573730000000000000000000000000000000000000000000000000000 PUSH1 0x20 DUP3 ADD MSTORE POP JUMP JUMPDEST PUSH1 0x0 PUSH2 0x3AA9 PUSH1 0x26 DUP4 PUSH2 0x30EF JUMP JUMPDEST SWAP2 POP PUSH2 0x3AB4 DUP3 PUSH2 0x3A4D JUMP JUMPDEST PUSH1 0x40 DUP3 ADD SWAP1 POP SWAP2 SWAP1 POP JUMP JUMPDEST PUSH1 0x0 PUSH1 0x20 DUP3 ADD SWAP1 POP DUP2 DUP2 SUB PUSH1 0x0 DUP4 ADD MSTORE PUSH2 0x3AD8 DUP2 PUSH2 0x3A9C JUMP JUMPDEST SWAP1 POP SWAP2 SWAP1 POP JUMP JUMPDEST PUSH1 0x0 PUSH2 0x3AEA DUP3 PUSH2 0x2841 JUMP JUMPDEST SWAP2 POP PUSH2 0x3AF5 DUP4 PUSH2 0x2841 JUMP JUMPDEST SWAP3 POP DUP3 DUP3 SUB SWAP1 POP DUP2 DUP2 GT ISZERO PUSH2 0x3B0D JUMPI PUSH2 0x3B0C PUSH2 0x31D8 JUMP JUMPDEST JUMPDEST SWAP3 SWAP2 POP POP JUMP JUMPDEST PUSH1 0x0 PUSH2 0x3B1E DUP3 PUSH2 0x2841 JUMP JUMPDEST SWAP2 POP PUSH2 0x3B29 DUP4 PUSH2 0x2841 JUMP JUMPDEST SWAP3 POP DUP3 DUP3 ADD SWAP1 POP DUP1 DUP3 GT ISZERO PUSH2 0x3B41 JUMPI PUSH2 0x3B40 PUSH2 0x31D8 JUMP JUMPDEST JUMPDEST SWAP3 SWAP2 POP POP JUMP JUMPDEST PUSH32 0x546F6B656E4E6F74537570706F72746564000000000000000000000000000000 PUSH1 0x0 DUP3 ADD MSTORE POP JUMP JUMPDEST PUSH1 0x0 PUSH2 0x3B7D PUSH1 0x11 DUP4 PUSH2 0x30EF JUMP JUMPDEST SWAP2 POP PUSH2 0x3B88 DUP3 PUSH2 0x3B47 JUMP JUMPDEST PUSH1 0x20 DUP3 ADD SWAP1 POP SWAP2 SWAP1 POP JUMP JUMPDEST PUSH1 0x0 PUSH1 0x20 DUP3 ADD SWAP1 POP DUP2 DUP2 SUB PUSH1 0x0 DUP4 ADD MSTORE PUSH2 0x3BAC DUP2 PUSH2 0x3B70 JUMP JUMPDEST SWAP1 POP SWAP2 SWAP1 POP JUMP JUMPDEST PUSH32 0x416D6F756E7449735A65726F0000000000000000000000000000000000000000 PUSH1 0x0 DUP3 ADD MSTORE POP JUMP JUMPDEST PUSH1 0x0 PUSH2 0x3BE9 PUSH1 0xC DUP4 PUSH2 0x30EF JUMP JUMPDEST SWAP2 POP PUSH2 0x3BF4 DUP3 PUSH2 0x3BB3 JUMP JUMPDEST PUSH1 0x20 DUP3 ADD SWAP1 POP SWAP2 SWAP1 POP JUMP JUMPDEST PUSH1 0x0 PUSH1 0x20 DUP3 ADD SWAP1 POP DUP2 DUP2 SUB PUSH1 0x0 DUP4 ADD MSTORE PUSH2 0x3C18 DUP2 PUSH2 0x3BDC JUMP JUMPDEST SWAP1 POP SWAP2 SWAP1 POP JUMP JUMPDEST PUSH32 0x5468726F775A65726F4164647265737300000000000000000000000000000000 PUSH1 0x0 DUP3 ADD MSTORE POP JUMP JUMPDEST PUSH1 0x0 PUSH2 0x3C55 PUSH1 0x10 DUP4 PUSH2 0x30EF JUMP JUMPDEST SWAP2 POP PUSH2 0x3C60 DUP3 PUSH2 0x3C1F JUMP JUMPDEST PUSH1 0x20 DUP3 ADD SWAP1 POP SWAP2 SWAP1 POP JUMP JUMPDEST PUSH1 0x0 PUSH1 0x20 DUP3 ADD SWAP1 POP DUP2 DUP2 SUB PUSH1 0x0 DUP4 ADD MSTORE PUSH2 0x3C84 DUP2 PUSH2 0x3C48 JUMP JUMPDEST SWAP1 POP SWAP2 SWAP1 POP JUMP JUMPDEST PUSH32 0x496E76616C6964496E737469747574696F6E436F646500000000000000000000 PUSH1 0x0 DUP3 ADD MSTORE POP JUMP JUMPDEST PUSH1 0x0 PUSH2 0x3CC1 PUSH1 0x16 DUP4 PUSH2 0x30EF JUMP JUMPDEST SWAP2 POP PUSH2 0x3CCC DUP3 PUSH2 0x3C8B JUMP JUMPDEST PUSH1 0x20 DUP3 ADD SWAP1 POP SWAP2 SWAP1 POP JUMP JUMPDEST PUSH1 0x0 PUSH1 0x20 DUP3 ADD SWAP1 POP DUP2 DUP2 SUB PUSH1 0x0 DUP4 ADD MSTORE PUSH2 0x3CF0 DUP2 PUSH2 0x3CB4 JUMP JUMPDEST SWAP1 POP SWAP2 SWAP1 POP JUMP JUMPDEST PUSH32 0x4F776E61626C653A2063616C6C6572206973206E6F7420746865206F776E6572 PUSH1 0x0 DUP3 ADD MSTORE POP JUMP JUMPDEST PUSH1 0x0 PUSH2 0x3D2D PUSH1 0x20 DUP4 PUSH2 0x30EF JUMP JUMPDEST SWAP2 POP PUSH2 0x3D38 DUP3 PUSH2 0x3CF7 JUMP JUMPDEST PUSH1 0x20 DUP3 ADD SWAP1 POP SWAP2 SWAP1 POP JUMP JUMPDEST PUSH1 0x0 PUSH1 0x20 DUP3 ADD SWAP1 POP DUP2 DUP2 SUB PUSH1 0x0 DUP4 ADD MSTORE PUSH2 0x3D5C DUP2 PUSH2 0x3D20 JUMP JUMPDEST SWAP1 POP SWAP2 SWAP1 POP JUMP JUMPDEST PUSH32 0x496E697469616C697A61626C653A20636F6E7472616374206973206E6F742069 PUSH1 0x0 DUP3 ADD MSTORE PUSH32 0x6E697469616C697A696E67000000000000000000000000000000000000000000 PUSH1 0x20 DUP3 ADD MSTORE POP JUMP JUMPDEST PUSH1 0x0 PUSH2 0x3DBF PUSH1 0x2B DUP4 PUSH2 0x30EF JUMP JUMPDEST SWAP2 POP PUSH2 0x3DCA DUP3 PUSH2 0x3D63 JUMP JUMPDEST PUSH1 0x40 DUP3 ADD SWAP1 POP SWAP2 SWAP1 POP JUMP JUMPDEST PUSH1 0x0 PUSH1 0x20 DUP3 ADD SWAP1 POP DUP2 DUP2 SUB PUSH1 0x0 DUP4 ADD MSTORE PUSH2 0x3DEE DUP2 PUSH2 0x3DB2 JUMP JUMPDEST SWAP1 POP SWAP2 SWAP1 POP JUMP INVALID LOG2 PUSH5 0x6970667358 0x22 SLT KECCAK256 SWAP6 0xBB RETURN SWAP8 EXTCODECOPY 0xED BALANCE 0xC 0xD8 PUSH24 0x7C31EA538F4BEED34D4FEA5F26C4BEEE1D63073174EA6473 PUSH16 0x6C634300081200330000000000000000 "},"gasEstimates":{"creation":{"codeDepositCost":"3183000","executionCost":"infinite","totalCost":"infinite"},"external":{"createOrder(address,uint256,bytes32,bytes32,uint96,address,uint256,address,string)":"infinite","getAggregator()":"infinite","getAggregatorAddress()":"2632","getFeeDetails()":"4782","getOrderInfo(bytes32)":"infinite","getSupportedInstitutionName(bytes32)":"infinite","getSupportedInstitutions(bytes32)":"infinite","getWhitelistedStatus(address)":"2927","initialize(address)":"187287","isTokenSupported(address)":"2928","owner()":"2567","refund(bytes32,bytes32)":"infinite","renounceOwnership()":"30421","setSupportedInstitutions(bytes32,(bytes32,bytes32)[])":"infinite","settingManagerBool(bytes32,address,bool)":"infinite","settle(bytes32,bytes32,bytes32,address[],address,uint64,bool)":"infinite","transferOwnership(address)":"30876","updateProtocolAddresses(bytes32,address)":"51646","updateProtocolAggregator(bytes)":"infinite","updateProtocolFees(uint64)":"infinite","withdraw(address,address,uint256)":"infinite"},"internal":{"_calculateFees(bytes32,uint96,bool)":"infinite","_handler(address,uint256,address,address,bytes32)":"infinite","transferSenderFee(bytes32)":"infinite"}},"methodIdentifiers":{"createOrder(address,uint256,bytes32,bytes32,uint96,address,uint256,address,string)":"2654ec7e","getAggregator()":"3ad59dbc","getAggregatorAddress()":"e8d6e0de","getFeeDetails()":"b810c636","getOrderInfo(bytes32)":"768c6ec0","getSupportedInstitutionName(bytes32)":"87490d86","getSupportedInstitutions(bytes32)":"02621338","getWhitelistedStatus(address)":"d8e8de34","initialize(address)":"c4d66de8","isTokenSupported(address)":"75151b63","owner()":"8da5cb5b","refund(bytes32,bytes32)":"e4683a79","renounceOwnership()":"715018a6","setSupportedInstitutions(bytes32,(bytes32,bytes32)[])":"32200882","settingManagerBool(bytes32,address,bool)":"99e3c0b4","settle(bytes32,bytes32,bytes32,address[],address,uint64,bool)":"137764fb","transferOwnership(address)":"f2fde38b","updateProtocolAddresses(bytes32,address)":"79a0effb","updateProtocolAggregator(bytes)":"cb79455b","updateProtocolFees(uint64)":"84630736","withdraw(address,address,uint256)":"d9caed12"}},"storageLayout":{"storage":[{"astId":138,"contract":"contracts/Paycrest.sol:Paycrest","label":"_initialized","offset":0,"slot":"0","type":"t_uint8"},{"astId":141,"contract":"contracts/Paycrest.sol:Paycrest","label":"_initializing","offset":1,"slot":"0","type":"t_bool"},{"astId":1161,"contract":"contracts/Paycrest.sol:Paycrest","label":"__gap","offset":0,"slot":"1","type":"t_array(t_uint256)50_storage"},{"astId":10,"contract":"contracts/Paycrest.sol:Paycrest","label":"_owner","offset":0,"slot":"51","type":"t_address"},{"astId":130,"contract":"contracts/Paycrest.sol:Paycrest","label":"__gap","offset":0,"slot":"52","type":"t_array(t_uint256)49_storage"},{"astId":3536,"contract":"contracts/Paycrest.sol:Paycrest","label":"MAX_BPS","offset":0,"slot":"101","type":"t_uint256"},{"astId":3538,"contract":"contracts/Paycrest.sol:Paycrest","label":"protocolFeePercent","offset":0,"slot":"102","type":"t_uint64"},{"astId":3540,"contract":"contracts/Paycrest.sol:Paycrest","label":"feeRecipient","offset":8,"slot":"102","type":"t_address"},{"astId":3542,"contract":"contracts/Paycrest.sol:Paycrest","label":"_aggregatorAddress","offset":0,"slot":"103","type":"t_address"},{"astId":3544,"contract":"contracts/Paycrest.sol:Paycrest","label":"_aggregator","offset":0,"slot":"104","type":"t_bytes_storage"},{"astId":3548,"contract":"contracts/Paycrest.sol:Paycrest","label":"__gap","offset":0,"slot":"105","type":"t_array(t_uint256)50_storage"},{"astId":3552,"contract":"contracts/Paycrest.sol:Paycrest","label":"_isTokenSupported","offset":0,"slot":"155","type":"t_mapping(t_address,t_bool)"},{"astId":3556,"contract":"contracts/Paycrest.sol:Paycrest","label":"_isWhitelisted","offset":0,"slot":"156","type":"t_mapping(t_address,t_bool)"},{"astId":3562,"contract":"contracts/Paycrest.sol:Paycrest","label":"supportedInstitutions","offset":0,"slot":"157","type":"t_mapping(t_bytes32,t_array(t_struct(Institution)3529_storage)dyn_storage)"},{"astId":3567,"contract":"contracts/Paycrest.sol:Paycrest","label":"supportedInstitutionsByCode","offset":0,"slot":"158","type":"t_mapping(t_bytes32,t_struct(InstitutionByCode)3534_storage)"},{"astId":2836,"contract":"contracts/Paycrest.sol:Paycrest","label":"order","offset":0,"slot":"159","type":"t_mapping(t_bytes32,t_struct(Order)3844_storage)"},{"astId":2840,"contract":"contracts/Paycrest.sol:Paycrest","label":"_nonce","offset":0,"slot":"160","type":"t_mapping(t_address,t_uint256)"},{"astId":2844,"contract":"contracts/Paycrest.sol:Paycrest","label":"__gap","offset":0,"slot":"161","type":"t_array(t_uint256)50_storage"}],"types":{"t_address":{"encoding":"inplace","label":"address","numberOfBytes":"20"},"t_array(t_struct(Institution)3529_storage)dyn_storage":{"base":"t_struct(Institution)3529_storage","encoding":"dynamic_array","label":"struct PaycrestSettingManager.Institution[]","numberOfBytes":"32"},"t_array(t_uint256)49_storage":{"base":"t_uint256","encoding":"inplace","label":"uint256[49]","numberOfBytes":"1568"},"t_array(t_uint256)50_storage":{"base":"t_uint256","encoding":"inplace","label":"uint256[50]","numberOfBytes":"1600"},"t_bool":{"encoding":"inplace","label":"bool","numberOfBytes":"1"},"t_bytes32":{"encoding":"inplace","label":"bytes32","numberOfBytes":"32"},"t_bytes_storage":{"encoding":"bytes","label":"bytes","numberOfBytes":"32"},"t_mapping(t_address,t_bool)":{"encoding":"mapping","key":"t_address","label":"mapping(address => bool)","numberOfBytes":"32","value":"t_bool"},"t_mapping(t_address,t_uint256)":{"encoding":"mapping","key":"t_address","label":"mapping(address => uint256)","numberOfBytes":"32","value":"t_uint256"},"t_mapping(t_bytes32,t_array(t_struct(Institution)3529_storage)dyn_storage)":{"encoding":"mapping","key":"t_bytes32","label":"mapping(bytes32 => struct PaycrestSettingManager.Institution[])","numberOfBytes":"32","value":"t_array(t_struct(Institution)3529_storage)dyn_storage"},"t_mapping(t_bytes32,t_struct(InstitutionByCode)3534_storage)":{"encoding":"mapping","key":"t_bytes32","label":"mapping(bytes32 => struct PaycrestSettingManager.InstitutionByCode)","numberOfBytes":"32","value":"t_struct(InstitutionByCode)3534_storage"},"t_mapping(t_bytes32,t_struct(Order)3844_storage)":{"encoding":"mapping","key":"t_bytes32","label":"mapping(bytes32 => struct IPaycrest.Order)","numberOfBytes":"32","value":"t_struct(Order)3844_storage"},"t_struct(Institution)3529_storage":{"encoding":"inplace","label":"struct PaycrestSettingManager.Institution","members":[{"astId":3526,"contract":"contracts/Paycrest.sol:Paycrest","label":"code","offset":0,"slot":"0","type":"t_bytes32"},{"astId":3528,"contract":"contracts/Paycrest.sol:Paycrest","label":"name","offset":0,"slot":"1","type":"t_bytes32"}],"numberOfBytes":"64"},"t_struct(InstitutionByCode)3534_storage":{"encoding":"inplace","label":"struct PaycrestSettingManager.InstitutionByCode","members":[{"astId":3531,"contract":"contracts/Paycrest.sol:Paycrest","label":"name","offset":0,"slot":"0","type":"t_bytes32"},{"astId":3533,"contract":"contracts/Paycrest.sol:Paycrest","label":"currency","offset":0,"slot":"1","type":"t_bytes32"}],"numberOfBytes":"64"},"t_struct(Order)3844_storage":{"encoding":"inplace","label":"struct IPaycrest.Order","members":[{"astId":3827,"contract":"contracts/Paycrest.sol:Paycrest","label":"seller","offset":0,"slot":"0","type":"t_address"},{"astId":3829,"contract":"contracts/Paycrest.sol:Paycrest","label":"token","offset":0,"slot":"1","type":"t_address"},{"astId":3831,"contract":"contracts/Paycrest.sol:Paycrest","label":"senderFeeRecipient","offset":0,"slot":"2","type":"t_address"},{"astId":3833,"contract":"contracts/Paycrest.sol:Paycrest","label":"senderFee","offset":0,"slot":"3","type":"t_uint256"},{"astId":3835,"contract":"contracts/Paycrest.sol:Paycrest","label":"rate","offset":0,"slot":"4","type":"t_uint96"},{"astId":3837,"contract":"contracts/Paycrest.sol:Paycrest","label":"isFulfilled","offset":12,"slot":"4","type":"t_bool"},{"astId":3839,"contract":"contracts/Paycrest.sol:Paycrest","label":"refundAddress","offset":0,"slot":"5","type":"t_address"},{"astId":3841,"contract":"contracts/Paycrest.sol:Paycrest","label":"currentBPS","offset":20,"slot":"5","type":"t_uint96"},{"astId":3843,"contract":"contracts/Paycrest.sol:Paycrest","label":"amount","offset":0,"slot":"6","type":"t_uint256"}],"numberOfBytes":"224"},"t_uint256":{"encoding":"inplace","label":"uint256","numberOfBytes":"32"},"t_uint64":{"encoding":"inplace","label":"uint64","numberOfBytes":"8"},"t_uint8":{"encoding":"inplace","label":"uint8","numberOfBytes":"1"},"t_uint96":{"encoding":"inplace","label":"uint96","numberOfBytes":"12"}}},"userdoc":{"kind":"user","methods":{},"version":1}}}}