{"contracts/GatewayV2.sol":{"GatewayV2":{"abi":[{"inputs":[],"stateMutability":"nonpayable","type":"constructor"},{"anonymous":false,"inputs":[{"indexed":false,"internalType":"uint8","name":"version","type":"uint8"}],"name":"Initialized","type":"event"},{"anonymous":false,"inputs":[{"indexed":true,"internalType":"address","name":"sender","type":"address"},{"indexed":true,"internalType":"address","name":"token","type":"address"},{"indexed":true,"internalType":"uint256","name":"amount","type":"uint256"},{"indexed":false,"internalType":"uint256","name":"protocolFee","type":"uint256"},{"indexed":false,"internalType":"bytes32","name":"orderId","type":"bytes32"},{"indexed":false,"internalType":"uint256","name":"rate","type":"uint256"},{"indexed":false,"internalType":"bytes32","name":"institutionCode","type":"bytes32"},{"indexed":false,"internalType":"string","name":"messageHash","type":"string"}],"name":"OrderCreated","type":"event"},{"anonymous":false,"inputs":[{"indexed":false,"internalType":"uint256","name":"fee","type":"uint256"},{"indexed":true,"internalType":"bytes32","name":"orderId","type":"bytes32"}],"name":"OrderRefunded","type":"event"},{"anonymous":false,"inputs":[{"indexed":false,"internalType":"bytes32","name":"splitOrderId","type":"bytes32"},{"indexed":true,"internalType":"bytes32","name":"orderId","type":"bytes32"},{"indexed":true,"internalType":"address","name":"liquidityProvider","type":"address"},{"indexed":false,"internalType":"uint96","name":"settlePercent","type":"uint96"}],"name":"OrderSettled","type":"event"},{"anonymous":false,"inputs":[{"indexed":true,"internalType":"address","name":"previousOwner","type":"address"},{"indexed":true,"internalType":"address","name":"newOwner","type":"address"}],"name":"OwnershipTransferStarted","type":"event"},{"anonymous":false,"inputs":[{"indexed":true,"internalType":"address","name":"previousOwner","type":"address"},{"indexed":true,"internalType":"address","name":"newOwner","type":"address"}],"name":"OwnershipTransferred","type":"event"},{"anonymous":false,"inputs":[{"indexed":false,"internalType":"address","name":"account","type":"address"}],"name":"Paused","type":"event"},{"anonymous":false,"inputs":[{"indexed":true,"internalType":"bytes32","name":"what","type":"bytes32"},{"indexed":true,"internalType":"address","name":"treasuryAddress","type":"address"}],"name":"ProtocolAddressUpdated","type":"event"},{"anonymous":false,"inputs":[{"indexed":false,"internalType":"uint64","name":"protocolFee","type":"uint64"}],"name":"ProtocolFeeUpdated","type":"event"},{"anonymous":false,"inputs":[{"indexed":true,"internalType":"address","name":"sender","type":"address"},{"indexed":true,"internalType":"uint256","name":"amount","type":"uint256"}],"name":"SenderFeeTransferred","type":"event"},{"anonymous":false,"inputs":[{"indexed":true,"internalType":"address","name":"treasuryAddress","type":"address"}],"name":"SetFeeRecipient","type":"event"},{"anonymous":false,"inputs":[{"indexed":true,"internalType":"bytes32","name":"what","type":"bytes32"},{"indexed":true,"internalType":"address","name":"value","type":"address"},{"indexed":false,"internalType":"uint256","name":"status","type":"uint256"}],"name":"SettingManagerBool","type":"event"},{"anonymous":false,"inputs":[{"indexed":true,"internalType":"bytes32","name":"currency","type":"bytes32"},{"components":[{"internalType":"bytes32","name":"code","type":"bytes32"},{"internalType":"bytes32","name":"name","type":"bytes32"}],"indexed":false,"internalType":"struct SharedStructs.Institution[]","name":"institutions","type":"tuple[]"}],"name":"SupportedInstitutionsUpdated","type":"event"},{"anonymous":false,"inputs":[{"indexed":false,"internalType":"address","name":"account","type":"address"}],"name":"Unpaused","type":"event"},{"inputs":[],"name":"acceptOwnership","outputs":[],"stateMutability":"nonpayable","type":"function"},{"inputs":[{"internalType":"address","name":"_token","type":"address"},{"internalType":"uint256","name":"_amount","type":"uint256"},{"internalType":"bytes32","name":"_institutionCode","type":"bytes32"},{"internalType":"uint96","name":"_rate","type":"uint96"},{"internalType":"address","name":"_senderFeeRecipient","type":"address"},{"internalType":"uint256","name":"_senderFee","type":"uint256"},{"internalType":"address","name":"_refundAddress","type":"address"},{"internalType":"string","name":"messageHash","type":"string"}],"name":"createOrder","outputs":[{"internalType":"bytes32","name":"orderId","type":"bytes32"}],"stateMutability":"nonpayable","type":"function"},{"inputs":[],"name":"getFeeDetails","outputs":[{"internalType":"uint64","name":"","type":"uint64"},{"internalType":"uint256","name":"","type":"uint256"}],"stateMutability":"view","type":"function"},{"inputs":[{"internalType":"bytes32","name":"_orderId","type":"bytes32"}],"name":"getOrderInfo","outputs":[{"components":[{"internalType":"address","name":"sender","type":"address"},{"internalType":"address","name":"token","type":"address"},{"internalType":"address","name":"senderFeeRecipient","type":"address"},{"internalType":"uint256","name":"senderFee","type":"uint256"},{"internalType":"uint256","name":"protocolFee","type":"uint256"},{"internalType":"bool","name":"isFulfilled","type":"bool"},{"internalType":"bool","name":"isRefunded","type":"bool"},{"internalType":"address","name":"refundAddress","type":"address"},{"internalType":"uint96","name":"currentBPS","type":"uint96"},{"internalType":"uint256","name":"amount","type":"uint256"}],"internalType":"struct IGatewayV2.Order","name":"","type":"tuple"}],"stateMutability":"view","type":"function"},{"inputs":[],"name":"initialize","outputs":[],"stateMutability":"nonpayable","type":"function"},{"inputs":[{"internalType":"address","name":"_token","type":"address"}],"name":"isTokenSupported","outputs":[{"internalType":"bool","name":"","type":"bool"}],"stateMutability":"view","type":"function"},{"inputs":[],"name":"owner","outputs":[{"internalType":"address","name":"","type":"address"}],"stateMutability":"view","type":"function"},{"inputs":[],"name":"pause","outputs":[],"stateMutability":"nonpayable","type":"function"},{"inputs":[],"name":"paused","outputs":[{"internalType":"bool","name":"","type":"bool"}],"stateMutability":"view","type":"function"},{"inputs":[],"name":"pendingOwner","outputs":[{"internalType":"address","name":"","type":"address"}],"stateMutability":"view","type":"function"},{"inputs":[{"internalType":"uint256","name":"_fee","type":"uint256"},{"internalType":"bytes32","name":"_orderId","type":"bytes32"}],"name":"refund","outputs":[{"internalType":"bool","name":"","type":"bool"}],"stateMutability":"nonpayable","type":"function"},{"inputs":[],"name":"renounceOwnership","outputs":[],"stateMutability":"nonpayable","type":"function"},{"inputs":[{"internalType":"bytes32","name":"currency","type":"bytes32"},{"components":[{"internalType":"bytes32","name":"code","type":"bytes32"},{"internalType":"bytes32","name":"name","type":"bytes32"}],"internalType":"struct SharedStructs.Institution[]","name":"institutions","type":"tuple[]"}],"name":"setSupportedInstitutions","outputs":[],"stateMutability":"nonpayable","type":"function"},{"inputs":[{"internalType":"bytes32","name":"what","type":"bytes32"},{"internalType":"address","name":"value","type":"address"},{"internalType":"uint256","name":"status","type":"uint256"}],"name":"settingManagerBool","outputs":[],"stateMutability":"nonpayable","type":"function"},{"inputs":[{"internalType":"bytes32","name":"_splitOrderId","type":"bytes32"},{"internalType":"bytes32","name":"_orderId","type":"bytes32"},{"internalType":"address","name":"_liquidityProvider","type":"address"},{"internalType":"uint64","name":"_settlePercent","type":"uint64"}],"name":"settle","outputs":[{"internalType":"bool","name":"","type":"bool"}],"stateMutability":"nonpayable","type":"function"},{"inputs":[{"internalType":"address","name":"newOwner","type":"address"}],"name":"transferOwnership","outputs":[],"stateMutability":"nonpayable","type":"function"},{"inputs":[],"name":"unpause","outputs":[],"stateMutability":"nonpayable","type":"function"},{"inputs":[{"internalType":"bytes32","name":"what","type":"bytes32"},{"internalType":"address","name":"value","type":"address"}],"name":"updateProtocolAddress","outputs":[],"stateMutability":"nonpayable","type":"function"},{"inputs":[{"internalType":"uint64","name":"_protocolFeePercent","type":"uint64"}],"name":"updateProtocolFee","outputs":[],"stateMutability":"nonpayable","type":"function"}],"devdoc":{"events":{"Initialized(uint8)":{"details":"Triggered when the contract has been initialized or reinitialized."},"OrderCreated(address,address,uint256,uint256,bytes32,uint256,bytes32,string)":{"details":"Emitted when a deposit is made.","params":{"amount":"The amount of the deposit.","institutionCode":"The code of the institution.","messageHash":"The hash of the message.","orderId":"The ID of the order.","rate":"The rate at which the deposit is made.","sender":"The address of the sender.","token":"The address of the deposited token."}},"OrderRefunded(uint256,bytes32)":{"details":"Emitted when an aggregator refunds a transaction.","params":{"fee":"The fee deducted from the refund amount.","orderId":"The ID of the order."}},"OrderSettled(bytes32,bytes32,address,uint96)":{"details":"Emitted when an aggregator settles a transaction.","params":{"liquidityProvider":"The address of the liquidity provider.","orderId":"The ID of the order.","settlePercent":"The percentage at which the transaction is settled.","splitOrderId":"The ID of the split order."}},"Paused(address)":{"details":"Emitted when the pause is triggered by `account`."},"SenderFeeTransferred(address,uint256)":{"details":"Emitted when the sender's fee is transferred.","params":{"amount":"The amount of the fee transferred.","sender":"The address of the sender."}},"Unpaused(address)":{"details":"Emitted when the pause is lifted by `account`."}},"kind":"dev","methods":{"acceptOwnership()":{"details":"The new owner accepts the ownership transfer."},"constructor":{"custom:oz-upgrades-unsafe-allow":"constructor"},"createOrder(address,uint256,bytes32,uint96,address,uint256,address,string)":{"details":"See {createOrder-IGateway}. "},"getFeeDetails()":{"details":"See {getFeeDetails-IGateway}. "},"getOrderInfo(bytes32)":{"details":"See {getOrderInfo-IGateway}. "},"initialize()":{"details":"Initialize function."},"isTokenSupported(address)":{"details":"See {isTokenSupported-IGateway}. "},"owner()":{"details":"Returns the address of the current owner."},"pause()":{"details":"Pause the contract."},"paused()":{"details":"Returns true if the contract is paused, and false otherwise."},"pendingOwner()":{"details":"Returns the address of the pending owner."},"refund(uint256,bytes32)":{"details":"See {refund-IGateway}. "},"renounceOwnership()":{"details":"Leaves the contract without owner. It will not be possible to call `onlyOwner` functions. Can only be called by the current owner. NOTE: Renouncing ownership will leave the contract without an owner, thereby disabling any functionality that is only available to the owner."},"setSupportedInstitutions(bytes32,(bytes32,bytes32)[])":{"details":"Sets the supported institutions for a specific currency.","params":{"currency":"The currency for which the institutions are being set.","institutions":"The array of institutions to be set."}},"settingManagerBool(bytes32,address,uint256)":{"details":"Sets the boolean value for a specific setting.","params":{"status":"The boolean value to be set. Requirements: - The value must not be a zero address.","value":"The address or value associated with the setting.","what":"The setting to be updated."}},"settle(bytes32,bytes32,address,uint64)":{"details":"See {settle-IGateway}. "},"transferOwnership(address)":{"details":"Starts the ownership transfer of the contract to a new account. Replaces the pending transfer if there is one. Can only be called by the current owner."},"unpause()":{"details":"Unpause the contract."},"updateProtocolAddress(bytes32,address)":{"details":"Updates a protocol address.","params":{"value":"The new address to be set. Requirements: - The value must not be a zero address.","what":"The address type to be updated (treasury or aggregator)."}},"updateProtocolFee(uint64)":{"details":"Updates the protocol fee percentage.","params":{"_protocolFeePercent":"The new protocol fee percentage to be set."}}},"title":"Gateway","version":1},"evm":{"bytecode":{"linkReferences":{},"object":"60806040523480156200001157600080fd5b50620000226200002860201b60201c565b620001d2565b600060019054906101000a900460ff16156200007b576040517f08c379a0000000000000000000000000000000000000000000000000000000008152600401620000729062000175565b60405180910390fd5b60ff801660008054906101000a900460ff1660ff1614620000ec5760ff6000806101000a81548160ff021916908360ff1602179055507f7f26b83ff96e1f2b6a682f133852f6798a09c465da95921460cefb384740249860ff604051620000e39190620001b5565b60405180910390a15b565b600082825260208201905092915050565b7f496e697469616c697a61626c653a20636f6e747261637420697320696e69746960008201527f616c697a696e6700000000000000000000000000000000000000000000000000602082015250565b60006200015d602783620000ee565b91506200016a82620000ff565b604082019050919050565b6000602082019050818103600083015262000190816200014e565b9050919050565b600060ff82169050919050565b620001af8162000197565b82525050565b6000602082019050620001cc6000830184620001a4565b92915050565b613e9280620001e26000396000f3fe608060405234801561001057600080fd5b50600436106101215760003560e01c806379ba5097116100ad578063cd99240011610071578063cd99240014610297578063d12ff20a146102b3578063e30c3978146102e3578063f22ee70414610301578063f2fde38b1461033157610121565b806379ba50971461023c5780638129fc1c146102465780638456cb59146102505780638da5cb5b1461025a578063b810c6361461027857610121565b80635c975abb116100f45780635c975abb14610184578063715018a6146101a257806371eedb88146101ac57806375151b63146101dc578063768c6ec01461020c57610121565b806332200882146101265780633f4ba83a1461014257806340ebc6771461014c57806347094e2e14610168575b600080fd5b610140600480360381019061013b91906128f7565b61034d565b005b61014a6104c2565b005b610166600480360381019061016191906129b1565b6104d4565b005b610182600480360381019061017d9190612a31565b61079c565b005b61018c610807565b6040516101999190612a79565b60405180910390f35b6101aa61081e565b005b6101c660048036038101906101c19190612aca565b610832565b6040516101d39190612a79565b60405180910390f35b6101f660048036038101906101f19190612b0a565b610cd2565b6040516102039190612a79565b60405180910390f35b61022660048036038101906102219190612b37565b610d2e565b6040516102339190612c84565b60405180910390f35b610244610f47565b005b61024e610fd4565b005b610258611124565b005b610262611136565b60405161026f9190612caf565b60405180910390f35b610280611160565b60405161028e929190612ce8565b60405180910390f35b6102b160048036038101906102ac9190612d11565b611185565b005b6102cd60048036038101906102c89190612deb565b61130a565b6040516102da9190612ed0565b60405180910390f35b6102eb611851565b6040516102f89190612caf565b60405180910390f35b61031b60048036038101906103169190612eeb565b61187b565b6040516103289190612a79565b60405180910390f35b61034b60048036038101906103469190612b0a565b611ed7565b005b610355611f84565b60cd6000838152602001908152602001600020600061037491906125f7565b60005b81518110156104735760cd60008481526020019081526020016000208282815181106103a6576103a5612f52565b5b6020026020010151908060018154018082558091505060019003906000526020600020906002020160009091909190915060008201518160000155602082015181600101555050604051806040016040528083838151811061040b5761040a612f52565b5b60200260200101516020015181526020018481525060ce600084848151811061043757610436612f52565b5b60200260200101516000015181526020019081526020016000206000820151816000015560208201518160010155905050806001019050610377565b50817f58f3a30ec15a8d3e09fa65f9ef10219bc7a9a99d872a4ed895c37c2e761ac2ac60cd60008581526020019081526020016000206040516104b691906130bb565b60405180910390a25050565b6104ca611f84565b6104d2612002565b565b6104dc611f84565b600073ffffffffffffffffffffffffffffffffffffffff168173ffffffffffffffffffffffffffffffffffffffff160361054b576040517f08c379a00000000000000000000000000000000000000000000000000000000081526004016105429061313a565b60405180910390fd5b60007f7472656173757279000000000000000000000000000000000000000000000000830361064e578173ffffffffffffffffffffffffffffffffffffffff16609860089054906101000a900473ffffffffffffffffffffffffffffffffffffffff1673ffffffffffffffffffffffffffffffffffffffff1603610604576040517f08c379a00000000000000000000000000000000000000000000000000000000081526004016105fb906131cc565b60405180910390fd5b81609860086101000a81548173ffffffffffffffffffffffffffffffffffffffff021916908373ffffffffffffffffffffffffffffffffffffffff1602179055506001905061074c565b7f61676772656761746f7200000000000000000000000000000000000000000000830361074b578173ffffffffffffffffffffffffffffffffffffffff16609960009054906101000a900473ffffffffffffffffffffffffffffffffffffffff1673ffffffffffffffffffffffffffffffffffffffff1603610705576040517f08c379a00000000000000000000000000000000000000000000000000000000081526004016106fc9061325e565b60405180910390fd5b81609960006101000a81548173ffffffffffffffffffffffffffffffffffffffff021916908373ffffffffffffffffffffffffffffffffffffffff160217905550600190505b5b8015610797578173ffffffffffffffffffffffffffffffffffffffff16837fbbc5b96e57cfecb3dbeeadf92e87f15e58e64fcd75cbe256dcc5d9ef2e51e8a460405160405180910390a35b505050565b6107a4611f84565b80609860006101000a81548167ffffffffffffffff021916908367ffffffffffffffff1602179055507f1ce29a697a4765bd17d91df93ba75b250b629ecf030553ff1f6ab59f15ae6c7b816040516107fc919061327e565b60405180910390a150565b600060cf60009054906101000a900460ff16905090565b610826611f84565b6108306000612065565b565b6000609960009054906101000a900473ffffffffffffffffffffffffffffffffffffffff1673ffffffffffffffffffffffffffffffffffffffff163373ffffffffffffffffffffffffffffffffffffffff16146108c4576040517f08c379a00000000000000000000000000000000000000000000000000000000081526004016108bb906132e5565b60405180910390fd5b610101600083815260200190815260200160002060050160009054906101000a900460ff1615610929576040517f08c379a000000000000000000000000000000000000000000000000000000000815260040161092090613351565b60405180910390fd5b610101600083815260200190815260200160002060050160019054906101000a900460ff161561098e576040517f08c379a0000000000000000000000000000000000000000000000000000000008152600401610985906133bd565b60405180910390fd5b8261010160008481526020019081526020016000206004015410156109e8576040517f08c379a00000000000000000000000000000000000000000000000000000000081526004016109df90613429565b60405180910390fd5b610101600083815260200190815260200160002060010160009054906101000a900473ffffffffffffffffffffffffffffffffffffffff1673ffffffffffffffffffffffffffffffffffffffff1663a9059cbb609860089054906101000a900473ffffffffffffffffffffffffffffffffffffffff16856040518363ffffffff1660e01b8152600401610a7c929190613449565b6020604051808303816000875af1158015610a9b573d6000803e3d6000fd5b505050506040513d601f19601f82011682018060405250810190610abf919061349e565b506001610101600084815260200190815260200160002060050160016101000a81548160ff0219169083151502179055506000610101600084815260200190815260200160002060060160006101000a8154816bffffffffffffffffffffffff02191690836bffffffffffffffffffffffff160217905550600083610101600085815260200190815260200160002060040154610101600086815260200190815260200160002060070154610b7491906134fa565b610b7e919061352e565b9050610101600084815260200190815260200160002060010160009054906101000a900473ffffffffffffffffffffffffffffffffffffffff1673ffffffffffffffffffffffffffffffffffffffff1663a9059cbb610101600086815260200190815260200160002060050160029054906101000a900473ffffffffffffffffffffffffffffffffffffffff1661010160008781526020019081526020016000206003015484610c2e91906134fa565b6040518363ffffffff1660e01b8152600401610c4b929190613449565b6020604051808303816000875af1158015610c6a573d6000803e3d6000fd5b505050506040513d601f19601f82011682018060405250810190610c8e919061349e565b50827f0736fe428e1747ca8d387c2e6fa1a31a0cde62d3a167c40a46ade59a3cdc828e85604051610cbf9190613562565b60405180910390a2600191505092915050565b6000600160cc60008473ffffffffffffffffffffffffffffffffffffffff1673ffffffffffffffffffffffffffffffffffffffff1681526020019081526020016000205403610d245760019050610d29565b600090505b919050565b610d3661261b565b6101016000838152602001908152602001600020604051806101400160405290816000820160009054906101000a900473ffffffffffffffffffffffffffffffffffffffff1673ffffffffffffffffffffffffffffffffffffffff1673ffffffffffffffffffffffffffffffffffffffff1681526020016001820160009054906101000a900473ffffffffffffffffffffffffffffffffffffffff1673ffffffffffffffffffffffffffffffffffffffff1673ffffffffffffffffffffffffffffffffffffffff1681526020016002820160009054906101000a900473ffffffffffffffffffffffffffffffffffffffff1673ffffffffffffffffffffffffffffffffffffffff1673ffffffffffffffffffffffffffffffffffffffff16815260200160038201548152602001600482015481526020016005820160009054906101000a900460ff161515151581526020016005820160019054906101000a900460ff161515151581526020016005820160029054906101000a900473ffffffffffffffffffffffffffffffffffffffff1673ffffffffffffffffffffffffffffffffffffffff1673ffffffffffffffffffffffffffffffffffffffff1681526020016006820160009054906101000a90046bffffffffffffffffffffffff166bffffffffffffffffffffffff166bffffffffffffffffffffffff1681526020016007820154815250509050919050565b6000610f51612096565b90508073ffffffffffffffffffffffffffffffffffffffff16610f72611851565b73ffffffffffffffffffffffffffffffffffffffff1614610fc8576040517f08c379a0000000000000000000000000000000000000000000000000000000008152600401610fbf906135ef565b60405180910390fd5b610fd181612065565b50565b60008060019054906101000a900460ff161590508080156110055750600160008054906101000a900460ff1660ff16105b8061103257506110143061209e565b1580156110315750600160008054906101000a900460ff1660ff16145b5b611071576040517f08c379a000000000000000000000000000000000000000000000000000000000815260040161106890613681565b60405180910390fd5b60016000806101000a81548160ff021916908360ff16021790555080156110ae576001600060016101000a81548160ff0219169083151502179055505b620186a06097819055506110c06120c1565b6110c861211a565b80156111215760008060016101000a81548160ff0219169083151502179055507f7f26b83ff96e1f2b6a682f133852f6798a09c465da95921460cefb3847402498600160405161111891906136f3565b60405180910390a15b50565b61112c611f84565b611134612173565b565b6000603360009054906101000a900473ffffffffffffffffffffffffffffffffffffffff16905090565b600080609860009054906101000a900467ffffffffffffffff16609754915091509091565b61118d611f84565b600073ffffffffffffffffffffffffffffffffffffffff168273ffffffffffffffffffffffffffffffffffffffff16036111fc576040517f08c379a00000000000000000000000000000000000000000000000000000000081526004016111f39061313a565b60405180910390fd5b600181148061120b5750600281145b61124a576040517f08c379a00000000000000000000000000000000000000000000000000000000081526004016112419061375a565b60405180910390fd5b7f746f6b656e0000000000000000000000000000000000000000000000000000008303611305578060cc60008473ffffffffffffffffffffffffffffffffffffffff1673ffffffffffffffffffffffffffffffffffffffff168152602001908152602001600020819055508173ffffffffffffffffffffffffffffffffffffffff16837fcfa976492af7c14a916cc3a239f4c9c75bbd7f5f0e398beb41d892c7eeccae4c836040516112fc9190613562565b60405180910390a35b505050565b60006113146121d6565b6113228a8a8689898d612220565b60008383905003611368576040517f08c379a000000000000000000000000000000000000000000000000000000000815260040161135f906137c6565b60405180910390fd5b8973ffffffffffffffffffffffffffffffffffffffff166323b872dd3330888d61139291906134fa565b6040518463ffffffff1660e01b81526004016113b0939291906137e6565b6020604051808303816000875af11580156113cf573d6000803e3d6000fd5b505050506040513d601f19601f820116820180604052508101906113f3919061349e565b5061010260003373ffffffffffffffffffffffffffffffffffffffff1673ffffffffffffffffffffffffffffffffffffffff16815260200190815260200160002060008154809291906114459061381d565b91905055503361010260003373ffffffffffffffffffffffffffffffffffffffff1673ffffffffffffffffffffffffffffffffffffffff1681526020019081526020016000205460405160200161149d929190613449565b6040516020818303038152906040528051906020012090506000609754609860009054906101000a900467ffffffffffffffff1667ffffffffffffffff168b6114e69190613865565b6114f091906138d6565b90506040518061014001604052803373ffffffffffffffffffffffffffffffffffffffff1681526020018c73ffffffffffffffffffffffffffffffffffffffff1681526020018873ffffffffffffffffffffffffffffffffffffffff1681526020018781526020018281526020016000151581526020016000151581526020018673ffffffffffffffffffffffffffffffffffffffff16815260200160975467ffffffffffffffff166bffffffffffffffffffffffff168152602001828c6115b8919061352e565b815250610101600084815260200190815260200160002060008201518160000160006101000a81548173ffffffffffffffffffffffffffffffffffffffff021916908373ffffffffffffffffffffffffffffffffffffffff16021790555060208201518160010160006101000a81548173ffffffffffffffffffffffffffffffffffffffff021916908373ffffffffffffffffffffffffffffffffffffffff16021790555060408201518160020160006101000a81548173ffffffffffffffffffffffffffffffffffffffff021916908373ffffffffffffffffffffffffffffffffffffffff160217905550606082015181600301556080820151816004015560a08201518160050160006101000a81548160ff02191690831515021790555060c08201518160050160016101000a81548160ff02191690831515021790555060e08201518160050160026101000a81548173ffffffffffffffffffffffffffffffffffffffff021916908373ffffffffffffffffffffffffffffffffffffffff1602179055506101008201518160060160006101000a8154816bffffffffffffffffffffffff02191690836bffffffffffffffffffffffff16021790555061012082015181600701559050506101016000838152602001908152602001600020600701548b73ffffffffffffffffffffffffffffffffffffffff16610101600085815260200190815260200160002060000160009054906101000a900473ffffffffffffffffffffffffffffffffffffffff1673ffffffffffffffffffffffffffffffffffffffff167f3bdd0d86e09a22d7ce596118bd3ca5ec73ea47533a465be37621e913ed2bf33384868d8f8b8b60405161183b96959493929190613974565b60405180910390a4509998505050505050505050565b6000606560009054906101000a900473ffffffffffffffffffffffffffffffffffffffff16905090565b6000609960009054906101000a900473ffffffffffffffffffffffffffffffffffffffff1673ffffffffffffffffffffffffffffffffffffffff163373ffffffffffffffffffffffffffffffffffffffff161461190d576040517f08c379a0000000000000000000000000000000000000000000000000000000008152600401611904906132e5565b60405180910390fd5b610101600085815260200190815260200160002060050160009054906101000a900460ff1615611972576040517f08c379a000000000000000000000000000000000000000000000000000000000815260040161196990613351565b60405180910390fd5b610101600085815260200190815260200160002060050160019054906101000a900460ff16156119d7576040517f08c379a00000000000000000000000000000000000000000000000000000000081526004016119ce906133bd565b60405180910390fd5b6000610101600086815260200190815260200160002060010160009054906101000a900473ffffffffffffffffffffffffffffffffffffffff1690508267ffffffffffffffff16610101600087815260200190815260200160002060060160008282829054906101000a90046bffffffffffffffffffffffff16611a5b91906139d0565b92506101000a8154816bffffffffffffffffffffffff02191690836bffffffffffffffffffffffff1602179055506000610101600087815260200190815260200160002060060160009054906101000a90046bffffffffffffffffffffffff166bffffffffffffffffffffffff1603611d8d576001610101600087815260200190815260200160002060050160006101000a81548160ff021916908315150217905550600061010160008781526020019081526020016000206003015414611cb457610101600086815260200190815260200160002060010160009054906101000a900473ffffffffffffffffffffffffffffffffffffffff1673ffffffffffffffffffffffffffffffffffffffff1663a9059cbb610101600088815260200190815260200160002060020160009054906101000a900473ffffffffffffffffffffffffffffffffffffffff166101016000898152602001908152602001600020600301546040518363ffffffff1660e01b8152600401611bdd929190613449565b6020604051808303816000875af1158015611bfc573d6000803e3d6000fd5b505050506040513d601f19601f82011682018060405250810190611c20919061349e565b50610101600086815260200190815260200160002060030154610101600087815260200190815260200160002060020160009054906101000a900473ffffffffffffffffffffffffffffffffffffffff1673ffffffffffffffffffffffffffffffffffffffff167f44f6938ca4a10313aabb76f874cced61e35710a734a126e4afb34461bf8c250160405160405180910390a35b600061010160008781526020019081526020016000206004015414611d8c578073ffffffffffffffffffffffffffffffffffffffff1663a9059cbb609860089054906101000a900473ffffffffffffffffffffffffffffffffffffffff166101016000898152602001908152602001600020600401546040518363ffffffff1660e01b8152600401611d47929190613449565b6020604051808303816000875af1158015611d66573d6000803e3d6000fd5b505050506040513d601f19601f82011682018060405250810190611d8a919061349e565b505b5b60006097548467ffffffffffffffff16610101600089815260200190815260200160002060070154611dbf9190613865565b611dc991906138d6565b90508061010160008881526020019081526020016000206007016000828254611df2919061352e565b925050819055508173ffffffffffffffffffffffffffffffffffffffff1663a9059cbb86836040518363ffffffff1660e01b8152600401611e34929190613449565b6020604051808303816000875af1158015611e53573d6000803e3d6000fd5b505050506040513d601f19601f82011682018060405250810190611e77919061349e565b508473ffffffffffffffffffffffffffffffffffffffff16867f98ece21e01a01cbe1d1c0dad3b053c8fbd368f99be78be958fcf1d1d13fd249a8987604051611ec1929190613a41565b60405180910390a3600192505050949350505050565b611edf611f84565b80606560006101000a81548173ffffffffffffffffffffffffffffffffffffffff021916908373ffffffffffffffffffffffffffffffffffffffff1602179055508073ffffffffffffffffffffffffffffffffffffffff16611f3f611136565b73ffffffffffffffffffffffffffffffffffffffff167f38d16b8cac22d99fc7c124b9cd0de2d3fa1faef420bfe791d8c362d765e2270060405160405180910390a350565b611f8c612096565b73ffffffffffffffffffffffffffffffffffffffff16611faa611136565b73ffffffffffffffffffffffffffffffffffffffff1614612000576040517f08c379a0000000000000000000000000000000000000000000000000000000008152600401611ff790613ab6565b60405180910390fd5b565b61200a61241b565b600060cf60006101000a81548160ff0219169083151502179055507f5db9ee0a495bf2e6ff9c91a7834c1ba4fdd244a5e8aa4e537bd38aeae4b073aa61204e612096565b60405161205b9190612caf565b60405180910390a1565b606560006101000a81549073ffffffffffffffffffffffffffffffffffffffff021916905561209381612464565b50565b600033905090565b6000808273ffffffffffffffffffffffffffffffffffffffff163b119050919050565b600060019054906101000a900460ff16612110576040517f08c379a000000000000000000000000000000000000000000000000000000000815260040161210790613b48565b60405180910390fd5b61211861252a565b565b600060019054906101000a900460ff16612169576040517f08c379a000000000000000000000000000000000000000000000000000000000815260040161216090613b48565b60405180910390fd5b61217161258b565b565b61217b6121d6565b600160cf60006101000a81548160ff0219169083151502179055507f62e78cea01bee320cd4e420270b5ea74000d11b0c9f74754ebdbfc544b05a2586121bf612096565b6040516121cc9190612caf565b60405180910390a1565b6121de610807565b1561221e576040517f08c379a000000000000000000000000000000000000000000000000000000000815260040161221590613bb4565b60405180910390fd5b565b600160cc60008873ffffffffffffffffffffffffffffffffffffffff1673ffffffffffffffffffffffffffffffffffffffff16815260200190815260200160002054146122a2576040517f08c379a000000000000000000000000000000000000000000000000000000000815260040161229990613c20565b60405180910390fd5b600085036122e5576040517f08c379a00000000000000000000000000000000000000000000000000000000081526004016122dc90613c8c565b60405180910390fd5b600073ffffffffffffffffffffffffffffffffffffffff168473ffffffffffffffffffffffffffffffffffffffff1603612354576040517f08c379a000000000000000000000000000000000000000000000000000000000815260040161234b90613cf8565b60405180910390fd5b6000602060ff161161239b576040517f08c379a000000000000000000000000000000000000000000000000000000000815260040161239290613d64565b60405180910390fd5b6000821461241357600073ffffffffffffffffffffffffffffffffffffffff168373ffffffffffffffffffffffffffffffffffffffff1603612412576040517f08c379a000000000000000000000000000000000000000000000000000000000815260040161240990613dd0565b60405180910390fd5b5b505050505050565b612423610807565b612462576040517f08c379a000000000000000000000000000000000000000000000000000000000815260040161245990613e3c565b60405180910390fd5b565b6000603360009054906101000a900473ffffffffffffffffffffffffffffffffffffffff16905081603360006101000a81548173ffffffffffffffffffffffffffffffffffffffff021916908373ffffffffffffffffffffffffffffffffffffffff1602179055508173ffffffffffffffffffffffffffffffffffffffff168173ffffffffffffffffffffffffffffffffffffffff167f8be0079c531659141344cd1fd0a4f28419497f9722a3daafe3b4186f6b6457e060405160405180910390a35050565b600060019054906101000a900460ff16612579576040517f08c379a000000000000000000000000000000000000000000000000000000000815260040161257090613b48565b60405180910390fd5b612589612584612096565b612065565b565b600060019054906101000a900460ff166125da576040517f08c379a00000000000000000000000000000000000000000000000000000000081526004016125d190613b48565b60405180910390fd5b600060cf60006101000a81548160ff021916908315150217905550565b508054600082556002029060005260206000209081019061261891906126d8565b50565b604051806101400160405280600073ffffffffffffffffffffffffffffffffffffffff168152602001600073ffffffffffffffffffffffffffffffffffffffff168152602001600073ffffffffffffffffffffffffffffffffffffffff1681526020016000815260200160008152602001600015158152602001600015158152602001600073ffffffffffffffffffffffffffffffffffffffff16815260200160006bffffffffffffffffffffffff168152602001600081525090565b5b808211156126fb576000808201600090556001820160009055506002016126d9565b5090565b6000604051905090565b600080fd5b600080fd5b6000819050919050565b61272681612713565b811461273157600080fd5b50565b6000813590506127438161271d565b92915050565b600080fd5b6000601f19601f8301169050919050565b7f4e487b7100000000000000000000000000000000000000000000000000000000600052604160045260246000fd5b6127978261274e565b810181811067ffffffffffffffff821117156127b6576127b561275f565b5b80604052505050565b60006127c96126ff565b90506127d5828261278e565b919050565b600067ffffffffffffffff8211156127f5576127f461275f565b5b602082029050602081019050919050565b600080fd5b600080fd5b6000604082840312156128265761282561280b565b5b61283060406127bf565b9050600061284084828501612734565b600083015250602061285484828501612734565b60208301525092915050565b600061287361286e846127da565b6127bf565b9050808382526020820190506040840283018581111561289657612895612806565b5b835b818110156128bf57806128ab8882612810565b845260208401935050604081019050612898565b5050509392505050565b600082601f8301126128de576128dd612749565b5b81356128ee848260208601612860565b91505092915050565b6000806040838503121561290e5761290d612709565b5b600061291c85828601612734565b925050602083013567ffffffffffffffff81111561293d5761293c61270e565b5b612949858286016128c9565b9150509250929050565b600073ffffffffffffffffffffffffffffffffffffffff82169050919050565b600061297e82612953565b9050919050565b61298e81612973565b811461299957600080fd5b50565b6000813590506129ab81612985565b92915050565b600080604083850312156129c8576129c7612709565b5b60006129d685828601612734565b92505060206129e78582860161299c565b9150509250929050565b600067ffffffffffffffff82169050919050565b612a0e816129f1565b8114612a1957600080fd5b50565b600081359050612a2b81612a05565b92915050565b600060208284031215612a4757612a46612709565b5b6000612a5584828501612a1c565b91505092915050565b60008115159050919050565b612a7381612a5e565b82525050565b6000602082019050612a8e6000830184612a6a565b92915050565b6000819050919050565b612aa781612a94565b8114612ab257600080fd5b50565b600081359050612ac481612a9e565b92915050565b60008060408385031215612ae157612ae0612709565b5b6000612aef85828601612ab5565b9250506020612b0085828601612734565b9150509250929050565b600060208284031215612b2057612b1f612709565b5b6000612b2e8482850161299c565b91505092915050565b600060208284031215612b4d57612b4c612709565b5b6000612b5b84828501612734565b91505092915050565b612b6d81612973565b82525050565b612b7c81612a94565b82525050565b612b8b81612a5e565b82525050565b60006bffffffffffffffffffffffff82169050919050565b612bb281612b91565b82525050565b61014082016000820151612bcf6000850182612b64565b506020820151612be26020850182612b64565b506040820151612bf56040850182612b64565b506060820151612c086060850182612b73565b506080820151612c1b6080850182612b73565b5060a0820151612c2e60a0850182612b82565b5060c0820151612c4160c0850182612b82565b5060e0820151612c5460e0850182612b64565b50610100820151612c69610100850182612ba9565b50610120820151612c7e610120850182612b73565b50505050565b600061014082019050612c9a6000830184612bb8565b92915050565b612ca981612973565b82525050565b6000602082019050612cc46000830184612ca0565b92915050565b612cd3816129f1565b82525050565b612ce281612a94565b82525050565b6000604082019050612cfd6000830185612cca565b612d0a6020830184612cd9565b9392505050565b600080600060608486031215612d2a57612d29612709565b5b6000612d3886828701612734565b9350506020612d498682870161299c565b9250506040612d5a86828701612ab5565b9150509250925092565b612d6d81612b91565b8114612d7857600080fd5b50565b600081359050612d8a81612d64565b92915050565b600080fd5b60008083601f840112612dab57612daa612749565b5b8235905067ffffffffffffffff811115612dc857612dc7612d90565b5b602083019150836001820283011115612de457612de3612806565b5b9250929050565b60008060008060008060008060006101008a8c031215612e0e57612e0d612709565b5b6000612e1c8c828d0161299c565b9950506020612e2d8c828d01612ab5565b9850506040612e3e8c828d01612734565b9750506060612e4f8c828d01612d7b565b9650506080612e608c828d0161299c565b95505060a0612e718c828d01612ab5565b94505060c0612e828c828d0161299c565b93505060e08a013567ffffffffffffffff811115612ea357612ea261270e565b5b612eaf8c828d01612d95565b92509250509295985092959850929598565b612eca81612713565b82525050565b6000602082019050612ee56000830184612ec1565b92915050565b60008060008060808587031215612f0557612f04612709565b5b6000612f1387828801612734565b9450506020612f2487828801612734565b9350506040612f358782880161299c565b9250506060612f4687828801612a1c565b91505092959194509250565b7f4e487b7100000000000000000000000000000000000000000000000000000000600052603260045260246000fd5b600081549050919050565b600082825260208201905092915050565b60008190508160005260206000209050919050565b60008160001c9050919050565b6000819050919050565b6000612fdc612fd783612fb2565b612fbf565b9050919050565b612fec81612713565b82525050565b60408201600080830154905061300781612fc9565b6130146000860182612fe3565b506001830154905061302581612fc9565b6130326020860182612fe3565b5050505050565b60006130458383612ff2565b60408301905092915050565b6000600282019050919050565b600061306982612f81565b6130738185612f8c565b935061307e83612f9d565b8060005b838110156130ae57816130958882613039565b97506130a083613051565b925050600181019050613082565b5085935050505092915050565b600060208201905081810360008301526130d5818461305e565b905092915050565b600082825260208201905092915050565b7f476174657761793a207a65726f20616464726573730000000000000000000000600082015250565b60006131246015836130dd565b915061312f826130ee565b602082019050919050565b6000602082019050818103600083015261315381613117565b9050919050565b7f476174657761793a207472656173757279206164647265737320616c7265616460008201527f7920736574000000000000000000000000000000000000000000000000000000602082015250565b60006131b66025836130dd565b91506131c18261315a565b604082019050919050565b600060208201905081810360008301526131e5816131a9565b9050919050565b7f476174657761793a2061676772656761746f72206164647265737320616c726560008201527f6164792073657400000000000000000000000000000000000000000000000000602082015250565b60006132486027836130dd565b9150613253826131ec565b604082019050919050565b600060208201905081810360008301526132778161323b565b9050919050565b60006020820190506132936000830184612cca565b92915050565b7f4f6e6c7941676772656761746f72000000000000000000000000000000000000600082015250565b60006132cf600e836130dd565b91506132da82613299565b602082019050919050565b600060208201905081810360008301526132fe816132c2565b9050919050565b7f4f7264657246756c66696c6c6564000000000000000000000000000000000000600082015250565b600061333b600e836130dd565b915061334682613305565b602082019050919050565b6000602082019050818103600083015261336a8161332e565b9050919050565b7f4f72646572526566756e64656400000000000000000000000000000000000000600082015250565b60006133a7600d836130dd565b91506133b282613371565b602082019050919050565b600060208201905081810360008301526133d68161339a565b9050919050565b7f4665654578636565647350726f746f636f6c4665650000000000000000000000600082015250565b60006134136015836130dd565b915061341e826133dd565b602082019050919050565b6000602082019050818103600083015261344281613406565b9050919050565b600060408201905061345e6000830185612ca0565b61346b6020830184612cd9565b9392505050565b61347b81612a5e565b811461348657600080fd5b50565b60008151905061349881613472565b92915050565b6000602082840312156134b4576134b3612709565b5b60006134c284828501613489565b91505092915050565b7f4e487b7100000000000000000000000000000000000000000000000000000000600052601160045260246000fd5b600061350582612a94565b915061351083612a94565b9250828201905080821115613528576135276134cb565b5b92915050565b600061353982612a94565b915061354483612a94565b925082820390508181111561355c5761355b6134cb565b5b92915050565b60006020820190506135776000830184612cd9565b92915050565b7f4f776e61626c6532537465703a2063616c6c6572206973206e6f74207468652060008201527f6e6577206f776e65720000000000000000000000000000000000000000000000602082015250565b60006135d96029836130dd565b91506135e48261357d565b604082019050919050565b60006020820190508181036000830152613608816135cc565b9050919050565b7f496e697469616c697a61626c653a20636f6e747261637420697320616c72656160008201527f647920696e697469616c697a6564000000000000000000000000000000000000602082015250565b600061366b602e836130dd565b91506136768261360f565b604082019050919050565b6000602082019050818103600083015261369a8161365e565b9050919050565b6000819050919050565b600060ff82169050919050565b6000819050919050565b60006136dd6136d86136d3846136a1565b6136b8565b6136ab565b9050919050565b6136ed816136c2565b82525050565b600060208201905061370860008301846136e4565b92915050565b7f476174657761793a20696e76616c696420737461747573000000000000000000600082015250565b60006137446017836130dd565b915061374f8261370e565b602082019050919050565b6000602082019050818103600083015261377381613737565b9050919050565b7f496e76616c69644d657373616765486173680000000000000000000000000000600082015250565b60006137b06012836130dd565b91506137bb8261377a565b602082019050919050565b600060208201905081810360008301526137df816137a3565b9050919050565b60006060820190506137fb6000830186612ca0565b6138086020830185612ca0565b6138156040830184612cd9565b949350505050565b600061382882612a94565b91507fffffffffffffffffffffffffffffffffffffffffffffffffffffffffffffffff820361385a576138596134cb565b5b600182019050919050565b600061387082612a94565b915061387b83612a94565b925082820261388981612a94565b915082820484148315176138a05761389f6134cb565b5b5092915050565b7f4e487b7100000000000000000000000000000000000000000000000000000000600052601260045260246000fd5b60006138e182612a94565b91506138ec83612a94565b9250826138fc576138fb6138a7565b5b828204905092915050565b600061392261391d61391884612b91565b6136b8565b612a94565b9050919050565b61393281613907565b82525050565b82818337600083830152505050565b600061395383856130dd565b9350613960838584613938565b6139698361274e565b840190509392505050565b600060a0820190506139896000830189612cd9565b6139966020830188612ec1565b6139a36040830187613929565b6139b06060830186612ec1565b81810360808301526139c3818486613947565b9050979650505050505050565b60006139db82612b91565b91506139e683612b91565b925082820390506bffffffffffffffffffffffff811115613a0a57613a096134cb565b5b92915050565b6000613a2b613a26613a21846129f1565b6136b8565b612b91565b9050919050565b613a3b81613a10565b82525050565b6000604082019050613a566000830185612ec1565b613a636020830184613a32565b9392505050565b7f4f776e61626c653a2063616c6c6572206973206e6f7420746865206f776e6572600082015250565b6000613aa06020836130dd565b9150613aab82613a6a565b602082019050919050565b60006020820190508181036000830152613acf81613a93565b9050919050565b7f496e697469616c697a61626c653a20636f6e7472616374206973206e6f74206960008201527f6e697469616c697a696e67000000000000000000000000000000000000000000602082015250565b6000613b32602b836130dd565b9150613b3d82613ad6565b604082019050919050565b60006020820190508181036000830152613b6181613b25565b9050919050565b7f5061757361626c653a2070617573656400000000000000000000000000000000600082015250565b6000613b9e6010836130dd565b9150613ba982613b68565b602082019050919050565b60006020820190508181036000830152613bcd81613b91565b9050919050565b7f546f6b656e4e6f74537570706f72746564000000000000000000000000000000600082015250565b6000613c0a6011836130dd565b9150613c1582613bd4565b602082019050919050565b60006020820190508181036000830152613c3981613bfd565b9050919050565b7f416d6f756e7449735a65726f0000000000000000000000000000000000000000600082015250565b6000613c76600c836130dd565b9150613c8182613c40565b602082019050919050565b60006020820190508181036000830152613ca581613c69565b9050919050565b7f5468726f775a65726f4164647265737300000000000000000000000000000000600082015250565b6000613ce26010836130dd565b9150613ced82613cac565b602082019050919050565b60006020820190508181036000830152613d1181613cd5565b9050919050565b7f496e76616c6964496e737469747574696f6e436f646500000000000000000000600082015250565b6000613d4e6016836130dd565b9150613d5982613d18565b602082019050919050565b60006020820190508181036000830152613d7d81613d41565b9050919050565b7f496e76616c696453656e646572466565526563697069656e7400000000000000600082015250565b6000613dba6019836130dd565b9150613dc582613d84565b602082019050919050565b60006020820190508181036000830152613de981613dad565b9050919050565b7f5061757361626c653a206e6f7420706175736564000000000000000000000000600082015250565b6000613e266014836130dd565b9150613e3182613df0565b602082019050919050565b60006020820190508181036000830152613e5581613e19565b905091905056fea26469706673582212207052e17dbf1c403e694b894ce0e7c48def05964824c5ca61166978940a74897964736f6c63430008120033","opcodes":"PUSH1 0x80 PUSH1 0x40 MSTORE CALLVALUE DUP1 ISZERO PUSH3 0x11 JUMPI PUSH1 0x0 DUP1 REVERT JUMPDEST POP PUSH3 0x22 PUSH3 0x28 PUSH1 0x20 SHL PUSH1 0x20 SHR JUMP JUMPDEST PUSH3 0x1D2 JUMP JUMPDEST PUSH1 0x0 PUSH1 0x1 SWAP1 SLOAD SWAP1 PUSH2 0x100 EXP SWAP1 DIV PUSH1 0xFF AND ISZERO PUSH3 0x7B JUMPI PUSH1 0x40 MLOAD PUSH32 0x8C379A000000000000000000000000000000000000000000000000000000000 DUP2 MSTORE PUSH1 0x4 ADD PUSH3 0x72 SWAP1 PUSH3 0x175 JUMP JUMPDEST PUSH1 0x40 MLOAD DUP1 SWAP2 SUB SWAP1 REVERT JUMPDEST PUSH1 0xFF DUP1 AND PUSH1 0x0 DUP1 SLOAD SWAP1 PUSH2 0x100 EXP SWAP1 DIV PUSH1 0xFF AND PUSH1 0xFF AND EQ PUSH3 0xEC JUMPI PUSH1 0xFF PUSH1 0x0 DUP1 PUSH2 0x100 EXP DUP2 SLOAD DUP2 PUSH1 0xFF MUL NOT AND SWAP1 DUP4 PUSH1 0xFF AND MUL OR SWAP1 SSTORE POP PUSH32 0x7F26B83FF96E1F2B6A682F133852F6798A09C465DA95921460CEFB3847402498 PUSH1 0xFF PUSH1 0x40 MLOAD PUSH3 0xE3 SWAP2 SWAP1 PUSH3 0x1B5 JUMP JUMPDEST PUSH1 0x40 MLOAD DUP1 SWAP2 SUB SWAP1 LOG1 JUMPDEST JUMP JUMPDEST PUSH1 0x0 DUP3 DUP3 MSTORE PUSH1 0x20 DUP3 ADD SWAP1 POP SWAP3 SWAP2 POP POP JUMP JUMPDEST PUSH32 0x496E697469616C697A61626C653A20636F6E747261637420697320696E697469 PUSH1 0x0 DUP3 ADD MSTORE PUSH32 0x616C697A696E6700000000000000000000000000000000000000000000000000 PUSH1 0x20 DUP3 ADD MSTORE POP JUMP JUMPDEST PUSH1 0x0 PUSH3 0x15D PUSH1 0x27 DUP4 PUSH3 0xEE JUMP JUMPDEST SWAP2 POP PUSH3 0x16A DUP3 PUSH3 0xFF JUMP JUMPDEST PUSH1 0x40 DUP3 ADD SWAP1 POP SWAP2 SWAP1 POP JUMP JUMPDEST PUSH1 0x0 PUSH1 0x20 DUP3 ADD SWAP1 POP DUP2 DUP2 SUB PUSH1 0x0 DUP4 ADD MSTORE PUSH3 0x190 DUP2 PUSH3 0x14E JUMP JUMPDEST SWAP1 POP SWAP2 SWAP1 POP JUMP JUMPDEST PUSH1 0x0 PUSH1 0xFF DUP3 AND SWAP1 POP SWAP2 SWAP1 POP JUMP JUMPDEST PUSH3 0x1AF DUP2 PUSH3 0x197 JUMP JUMPDEST DUP3 MSTORE POP POP JUMP JUMPDEST PUSH1 0x0 PUSH1 0x20 DUP3 ADD SWAP1 POP PUSH3 0x1CC PUSH1 0x0 DUP4 ADD DUP5 PUSH3 0x1A4 JUMP JUMPDEST SWAP3 SWAP2 POP POP JUMP JUMPDEST PUSH2 0x3E92 DUP1 PUSH3 0x1E2 PUSH1 0x0 CODECOPY PUSH1 0x0 RETURN INVALID PUSH1 0x80 PUSH1 0x40 MSTORE CALLVALUE DUP1 ISZERO PUSH2 0x10 JUMPI PUSH1 0x0 DUP1 REVERT JUMPDEST POP PUSH1 0x4 CALLDATASIZE LT PUSH2 0x121 JUMPI PUSH1 0x0 CALLDATALOAD PUSH1 0xE0 SHR DUP1 PUSH4 0x79BA5097 GT PUSH2 0xAD JUMPI DUP1 PUSH4 0xCD992400 GT PUSH2 0x71 JUMPI DUP1 PUSH4 0xCD992400 EQ PUSH2 0x297 JUMPI DUP1 PUSH4 0xD12FF20A EQ PUSH2 0x2B3 JUMPI DUP1 PUSH4 0xE30C3978 EQ PUSH2 0x2E3 JUMPI DUP1 PUSH4 0xF22EE704 EQ PUSH2 0x301 JUMPI DUP1 PUSH4 0xF2FDE38B EQ PUSH2 0x331 JUMPI PUSH2 0x121 JUMP JUMPDEST DUP1 PUSH4 0x79BA5097 EQ PUSH2 0x23C JUMPI DUP1 PUSH4 0x8129FC1C EQ PUSH2 0x246 JUMPI DUP1 PUSH4 0x8456CB59 EQ PUSH2 0x250 JUMPI DUP1 PUSH4 0x8DA5CB5B EQ PUSH2 0x25A JUMPI DUP1 PUSH4 0xB810C636 EQ PUSH2 0x278 JUMPI PUSH2 0x121 JUMP JUMPDEST DUP1 PUSH4 0x5C975ABB GT PUSH2 0xF4 JUMPI DUP1 PUSH4 0x5C975ABB EQ PUSH2 0x184 JUMPI DUP1 PUSH4 0x715018A6 EQ PUSH2 0x1A2 JUMPI DUP1 PUSH4 0x71EEDB88 EQ PUSH2 0x1AC JUMPI DUP1 PUSH4 0x75151B63 EQ PUSH2 0x1DC JUMPI DUP1 PUSH4 0x768C6EC0 EQ PUSH2 0x20C JUMPI PUSH2 0x121 JUMP JUMPDEST DUP1 PUSH4 0x32200882 EQ PUSH2 0x126 JUMPI DUP1 PUSH4 0x3F4BA83A EQ PUSH2 0x142 JUMPI DUP1 PUSH4 0x40EBC677 EQ PUSH2 0x14C JUMPI DUP1 PUSH4 0x47094E2E EQ PUSH2 0x168 JUMPI JUMPDEST PUSH1 0x0 DUP1 REVERT JUMPDEST PUSH2 0x140 PUSH1 0x4 DUP1 CALLDATASIZE SUB DUP2 ADD SWAP1 PUSH2 0x13B SWAP2 SWAP1 PUSH2 0x28F7 JUMP JUMPDEST PUSH2 0x34D JUMP JUMPDEST STOP JUMPDEST PUSH2 0x14A PUSH2 0x4C2 JUMP JUMPDEST STOP JUMPDEST PUSH2 0x166 PUSH1 0x4 DUP1 CALLDATASIZE SUB DUP2 ADD SWAP1 PUSH2 0x161 SWAP2 SWAP1 PUSH2 0x29B1 JUMP JUMPDEST PUSH2 0x4D4 JUMP JUMPDEST STOP JUMPDEST PUSH2 0x182 PUSH1 0x4 DUP1 CALLDATASIZE SUB DUP2 ADD SWAP1 PUSH2 0x17D SWAP2 SWAP1 PUSH2 0x2A31 JUMP JUMPDEST PUSH2 0x79C JUMP JUMPDEST STOP JUMPDEST PUSH2 0x18C PUSH2 0x807 JUMP JUMPDEST PUSH1 0x40 MLOAD PUSH2 0x199 SWAP2 SWAP1 PUSH2 0x2A79 JUMP JUMPDEST PUSH1 0x40 MLOAD DUP1 SWAP2 SUB SWAP1 RETURN JUMPDEST PUSH2 0x1AA PUSH2 0x81E JUMP JUMPDEST STOP JUMPDEST PUSH2 0x1C6 PUSH1 0x4 DUP1 CALLDATASIZE SUB DUP2 ADD SWAP1 PUSH2 0x1C1 SWAP2 SWAP1 PUSH2 0x2ACA JUMP JUMPDEST PUSH2 0x832 JUMP JUMPDEST PUSH1 0x40 MLOAD PUSH2 0x1D3 SWAP2 SWAP1 PUSH2 0x2A79 JUMP JUMPDEST PUSH1 0x40 MLOAD DUP1 SWAP2 SUB SWAP1 RETURN JUMPDEST PUSH2 0x1F6 PUSH1 0x4 DUP1 CALLDATASIZE SUB DUP2 ADD SWAP1 PUSH2 0x1F1 SWAP2 SWAP1 PUSH2 0x2B0A JUMP JUMPDEST PUSH2 0xCD2 JUMP JUMPDEST PUSH1 0x40 MLOAD PUSH2 0x203 SWAP2 SWAP1 PUSH2 0x2A79 JUMP JUMPDEST PUSH1 0x40 MLOAD DUP1 SWAP2 SUB SWAP1 RETURN JUMPDEST PUSH2 0x226 PUSH1 0x4 DUP1 CALLDATASIZE SUB DUP2 ADD SWAP1 PUSH2 0x221 SWAP2 SWAP1 PUSH2 0x2B37 JUMP JUMPDEST PUSH2 0xD2E JUMP JUMPDEST PUSH1 0x40 MLOAD PUSH2 0x233 SWAP2 SWAP1 PUSH2 0x2C84 JUMP JUMPDEST PUSH1 0x40 MLOAD DUP1 SWAP2 SUB SWAP1 RETURN JUMPDEST PUSH2 0x244 PUSH2 0xF47 JUMP JUMPDEST STOP JUMPDEST PUSH2 0x24E PUSH2 0xFD4 JUMP JUMPDEST STOP JUMPDEST PUSH2 0x258 PUSH2 0x1124 JUMP JUMPDEST STOP JUMPDEST PUSH2 0x262 PUSH2 0x1136 JUMP JUMPDEST PUSH1 0x40 MLOAD PUSH2 0x26F SWAP2 SWAP1 PUSH2 0x2CAF JUMP JUMPDEST PUSH1 0x40 MLOAD DUP1 SWAP2 SUB SWAP1 RETURN JUMPDEST PUSH2 0x280 PUSH2 0x1160 JUMP JUMPDEST PUSH1 0x40 MLOAD PUSH2 0x28E SWAP3 SWAP2 SWAP1 PUSH2 0x2CE8 JUMP JUMPDEST PUSH1 0x40 MLOAD DUP1 SWAP2 SUB SWAP1 RETURN JUMPDEST PUSH2 0x2B1 PUSH1 0x4 DUP1 CALLDATASIZE SUB DUP2 ADD SWAP1 PUSH2 0x2AC SWAP2 SWAP1 PUSH2 0x2D11 JUMP JUMPDEST PUSH2 0x1185 JUMP JUMPDEST STOP JUMPDEST PUSH2 0x2CD PUSH1 0x4 DUP1 CALLDATASIZE SUB DUP2 ADD SWAP1 PUSH2 0x2C8 SWAP2 SWAP1 PUSH2 0x2DEB JUMP JUMPDEST PUSH2 0x130A JUMP JUMPDEST PUSH1 0x40 MLOAD PUSH2 0x2DA SWAP2 SWAP1 PUSH2 0x2ED0 JUMP JUMPDEST PUSH1 0x40 MLOAD DUP1 SWAP2 SUB SWAP1 RETURN JUMPDEST PUSH2 0x2EB PUSH2 0x1851 JUMP JUMPDEST PUSH1 0x40 MLOAD PUSH2 0x2F8 SWAP2 SWAP1 PUSH2 0x2CAF JUMP JUMPDEST PUSH1 0x40 MLOAD DUP1 SWAP2 SUB SWAP1 RETURN JUMPDEST PUSH2 0x31B PUSH1 0x4 DUP1 CALLDATASIZE SUB DUP2 ADD SWAP1 PUSH2 0x316 SWAP2 SWAP1 PUSH2 0x2EEB JUMP JUMPDEST PUSH2 0x187B JUMP JUMPDEST PUSH1 0x40 MLOAD PUSH2 0x328 SWAP2 SWAP1 PUSH2 0x2A79 JUMP JUMPDEST PUSH1 0x40 MLOAD DUP1 SWAP2 SUB SWAP1 RETURN JUMPDEST PUSH2 0x34B PUSH1 0x4 DUP1 CALLDATASIZE SUB DUP2 ADD SWAP1 PUSH2 0x346 SWAP2 SWAP1 PUSH2 0x2B0A JUMP JUMPDEST PUSH2 0x1ED7 JUMP JUMPDEST STOP JUMPDEST PUSH2 0x355 PUSH2 0x1F84 JUMP JUMPDEST PUSH1 0xCD PUSH1 0x0 DUP4 DUP2 MSTORE PUSH1 0x20 ADD SWAP1 DUP2 MSTORE PUSH1 0x20 ADD PUSH1 0x0 KECCAK256 PUSH1 0x0 PUSH2 0x374 SWAP2 SWAP1 PUSH2 0x25F7 JUMP JUMPDEST PUSH1 0x0 JUMPDEST DUP2 MLOAD DUP2 LT ISZERO PUSH2 0x473 JUMPI PUSH1 0xCD PUSH1 0x0 DUP5 DUP2 MSTORE PUSH1 0x20 ADD SWAP1 DUP2 MSTORE PUSH1 0x20 ADD PUSH1 0x0 KECCAK256 DUP3 DUP3 DUP2 MLOAD DUP2 LT PUSH2 0x3A6 JUMPI PUSH2 0x3A5 PUSH2 0x2F52 JUMP JUMPDEST JUMPDEST PUSH1 0x20 MUL PUSH1 0x20 ADD ADD MLOAD SWAP1 DUP1 PUSH1 0x1 DUP2 SLOAD ADD DUP1 DUP3 SSTORE DUP1 SWAP2 POP POP PUSH1 0x1 SWAP1 SUB SWAP1 PUSH1 0x0 MSTORE PUSH1 0x20 PUSH1 0x0 KECCAK256 SWAP1 PUSH1 0x2 MUL ADD PUSH1 0x0 SWAP1 SWAP2 SWAP1 SWAP2 SWAP1 SWAP2 POP PUSH1 0x0 DUP3 ADD MLOAD DUP2 PUSH1 0x0 ADD SSTORE PUSH1 0x20 DUP3 ADD MLOAD DUP2 PUSH1 0x1 ADD SSTORE POP POP PUSH1 0x40 MLOAD DUP1 PUSH1 0x40 ADD PUSH1 0x40 MSTORE DUP1 DUP4 DUP4 DUP2 MLOAD DUP2 LT PUSH2 0x40B JUMPI PUSH2 0x40A PUSH2 0x2F52 JUMP JUMPDEST JUMPDEST PUSH1 0x20 MUL PUSH1 0x20 ADD ADD MLOAD PUSH1 0x20 ADD MLOAD DUP2 MSTORE PUSH1 0x20 ADD DUP5 DUP2 MSTORE POP PUSH1 0xCE PUSH1 0x0 DUP5 DUP5 DUP2 MLOAD DUP2 LT PUSH2 0x437 JUMPI PUSH2 0x436 PUSH2 0x2F52 JUMP JUMPDEST JUMPDEST PUSH1 0x20 MUL PUSH1 0x20 ADD ADD MLOAD PUSH1 0x0 ADD MLOAD DUP2 MSTORE PUSH1 0x20 ADD SWAP1 DUP2 MSTORE PUSH1 0x20 ADD PUSH1 0x0 KECCAK256 PUSH1 0x0 DUP3 ADD MLOAD DUP2 PUSH1 0x0 ADD SSTORE PUSH1 0x20 DUP3 ADD MLOAD DUP2 PUSH1 0x1 ADD SSTORE SWAP1 POP POP DUP1 PUSH1 0x1 ADD SWAP1 POP PUSH2 0x377 JUMP JUMPDEST POP DUP2 PUSH32 0x58F3A30EC15A8D3E09FA65F9EF10219BC7A9A99D872A4ED895C37C2E761AC2AC PUSH1 0xCD PUSH1 0x0 DUP6 DUP2 MSTORE PUSH1 0x20 ADD SWAP1 DUP2 MSTORE PUSH1 0x20 ADD PUSH1 0x0 KECCAK256 PUSH1 0x40 MLOAD PUSH2 0x4B6 SWAP2 SWAP1 PUSH2 0x30BB JUMP JUMPDEST PUSH1 0x40 MLOAD DUP1 SWAP2 SUB SWAP1 LOG2 POP POP JUMP JUMPDEST PUSH2 0x4CA PUSH2 0x1F84 JUMP JUMPDEST PUSH2 0x4D2 PUSH2 0x2002 JUMP JUMPDEST JUMP JUMPDEST PUSH2 0x4DC PUSH2 0x1F84 JUMP JUMPDEST PUSH1 0x0 PUSH20 0xFFFFFFFFFFFFFFFFFFFFFFFFFFFFFFFFFFFFFFFF AND DUP2 PUSH20 0xFFFFFFFFFFFFFFFFFFFFFFFFFFFFFFFFFFFFFFFF AND SUB PUSH2 0x54B JUMPI PUSH1 0x40 MLOAD PUSH32 0x8C379A000000000000000000000000000000000000000000000000000000000 DUP2 MSTORE PUSH1 0x4 ADD PUSH2 0x542 SWAP1 PUSH2 0x313A JUMP JUMPDEST PUSH1 0x40 MLOAD DUP1 SWAP2 SUB SWAP1 REVERT JUMPDEST PUSH1 0x0 PUSH32 0x7472656173757279000000000000000000000000000000000000000000000000 DUP4 SUB PUSH2 0x64E JUMPI DUP2 PUSH20 0xFFFFFFFFFFFFFFFFFFFFFFFFFFFFFFFFFFFFFFFF AND PUSH1 0x98 PUSH1 0x8 SWAP1 SLOAD SWAP1 PUSH2 0x100 EXP SWAP1 DIV PUSH20 0xFFFFFFFFFFFFFFFFFFFFFFFFFFFFFFFFFFFFFFFF AND PUSH20 0xFFFFFFFFFFFFFFFFFFFFFFFFFFFFFFFFFFFFFFFF AND SUB PUSH2 0x604 JUMPI PUSH1 0x40 MLOAD PUSH32 0x8C379A000000000000000000000000000000000000000000000000000000000 DUP2 MSTORE PUSH1 0x4 ADD PUSH2 0x5FB SWAP1 PUSH2 0x31CC JUMP JUMPDEST PUSH1 0x40 MLOAD DUP1 SWAP2 SUB SWAP1 REVERT JUMPDEST DUP2 PUSH1 0x98 PUSH1 0x8 PUSH2 0x100 EXP DUP2 SLOAD DUP2 PUSH20 0xFFFFFFFFFFFFFFFFFFFFFFFFFFFFFFFFFFFFFFFF MUL NOT AND SWAP1 DUP4 PUSH20 0xFFFFFFFFFFFFFFFFFFFFFFFFFFFFFFFFFFFFFFFF AND MUL OR SWAP1 SSTORE POP PUSH1 0x1 SWAP1 POP PUSH2 0x74C JUMP JUMPDEST PUSH32 0x61676772656761746F7200000000000000000000000000000000000000000000 DUP4 SUB PUSH2 0x74B JUMPI DUP2 PUSH20 0xFFFFFFFFFFFFFFFFFFFFFFFFFFFFFFFFFFFFFFFF AND PUSH1 0x99 PUSH1 0x0 SWAP1 SLOAD SWAP1 PUSH2 0x100 EXP SWAP1 DIV PUSH20 0xFFFFFFFFFFFFFFFFFFFFFFFFFFFFFFFFFFFFFFFF AND PUSH20 0xFFFFFFFFFFFFFFFFFFFFFFFFFFFFFFFFFFFFFFFF AND SUB PUSH2 0x705 JUMPI PUSH1 0x40 MLOAD PUSH32 0x8C379A000000000000000000000000000000000000000000000000000000000 DUP2 MSTORE PUSH1 0x4 ADD PUSH2 0x6FC SWAP1 PUSH2 0x325E JUMP JUMPDEST PUSH1 0x40 MLOAD DUP1 SWAP2 SUB SWAP1 REVERT JUMPDEST DUP2 PUSH1 0x99 PUSH1 0x0 PUSH2 0x100 EXP DUP2 SLOAD DUP2 PUSH20 0xFFFFFFFFFFFFFFFFFFFFFFFFFFFFFFFFFFFFFFFF MUL NOT AND SWAP1 DUP4 PUSH20 0xFFFFFFFFFFFFFFFFFFFFFFFFFFFFFFFFFFFFFFFF AND MUL OR SWAP1 SSTORE POP PUSH1 0x1 SWAP1 POP JUMPDEST JUMPDEST DUP1 ISZERO PUSH2 0x797 JUMPI DUP2 PUSH20 0xFFFFFFFFFFFFFFFFFFFFFFFFFFFFFFFFFFFFFFFF AND DUP4 PUSH32 0xBBC5B96E57CFECB3DBEEADF92E87F15E58E64FCD75CBE256DCC5D9EF2E51E8A4 PUSH1 0x40 MLOAD PUSH1 0x40 MLOAD DUP1 SWAP2 SUB SWAP1 LOG3 JUMPDEST POP POP POP JUMP JUMPDEST PUSH2 0x7A4 PUSH2 0x1F84 JUMP JUMPDEST DUP1 PUSH1 0x98 PUSH1 0x0 PUSH2 0x100 EXP DUP2 SLOAD DUP2 PUSH8 0xFFFFFFFFFFFFFFFF MUL NOT AND SWAP1 DUP4 PUSH8 0xFFFFFFFFFFFFFFFF AND MUL OR SWAP1 SSTORE POP PUSH32 0x1CE29A697A4765BD17D91DF93BA75B250B629ECF030553FF1F6AB59F15AE6C7B DUP2 PUSH1 0x40 MLOAD PUSH2 0x7FC SWAP2 SWAP1 PUSH2 0x327E JUMP JUMPDEST PUSH1 0x40 MLOAD DUP1 SWAP2 SUB SWAP1 LOG1 POP JUMP JUMPDEST PUSH1 0x0 PUSH1 0xCF PUSH1 0x0 SWAP1 SLOAD SWAP1 PUSH2 0x100 EXP SWAP1 DIV PUSH1 0xFF AND SWAP1 POP SWAP1 JUMP JUMPDEST PUSH2 0x826 PUSH2 0x1F84 JUMP JUMPDEST PUSH2 0x830 PUSH1 0x0 PUSH2 0x2065 JUMP JUMPDEST JUMP JUMPDEST PUSH1 0x0 PUSH1 0x99 PUSH1 0x0 SWAP1 SLOAD SWAP1 PUSH2 0x100 EXP SWAP1 DIV PUSH20 0xFFFFFFFFFFFFFFFFFFFFFFFFFFFFFFFFFFFFFFFF AND PUSH20 0xFFFFFFFFFFFFFFFFFFFFFFFFFFFFFFFFFFFFFFFF AND CALLER PUSH20 0xFFFFFFFFFFFFFFFFFFFFFFFFFFFFFFFFFFFFFFFF AND EQ PUSH2 0x8C4 JUMPI PUSH1 0x40 MLOAD PUSH32 0x8C379A000000000000000000000000000000000000000000000000000000000 DUP2 MSTORE PUSH1 0x4 ADD PUSH2 0x8BB SWAP1 PUSH2 0x32E5 JUMP JUMPDEST PUSH1 0x40 MLOAD DUP1 SWAP2 SUB SWAP1 REVERT JUMPDEST PUSH2 0x101 PUSH1 0x0 DUP4 DUP2 MSTORE PUSH1 0x20 ADD SWAP1 DUP2 MSTORE PUSH1 0x20 ADD PUSH1 0x0 KECCAK256 PUSH1 0x5 ADD PUSH1 0x0 SWAP1 SLOAD SWAP1 PUSH2 0x100 EXP SWAP1 DIV PUSH1 0xFF AND ISZERO PUSH2 0x929 JUMPI PUSH1 0x40 MLOAD PUSH32 0x8C379A000000000000000000000000000000000000000000000000000000000 DUP2 MSTORE PUSH1 0x4 ADD PUSH2 0x920 SWAP1 PUSH2 0x3351 JUMP JUMPDEST PUSH1 0x40 MLOAD DUP1 SWAP2 SUB SWAP1 REVERT JUMPDEST PUSH2 0x101 PUSH1 0x0 DUP4 DUP2 MSTORE PUSH1 0x20 ADD SWAP1 DUP2 MSTORE PUSH1 0x20 ADD PUSH1 0x0 KECCAK256 PUSH1 0x5 ADD PUSH1 0x1 SWAP1 SLOAD SWAP1 PUSH2 0x100 EXP SWAP1 DIV PUSH1 0xFF AND ISZERO PUSH2 0x98E JUMPI PUSH1 0x40 MLOAD PUSH32 0x8C379A000000000000000000000000000000000000000000000000000000000 DUP2 MSTORE PUSH1 0x4 ADD PUSH2 0x985 SWAP1 PUSH2 0x33BD JUMP JUMPDEST PUSH1 0x40 MLOAD DUP1 SWAP2 SUB SWAP1 REVERT JUMPDEST DUP3 PUSH2 0x101 PUSH1 0x0 DUP5 DUP2 MSTORE PUSH1 0x20 ADD SWAP1 DUP2 MSTORE PUSH1 0x20 ADD PUSH1 0x0 KECCAK256 PUSH1 0x4 ADD SLOAD LT ISZERO PUSH2 0x9E8 JUMPI PUSH1 0x40 MLOAD PUSH32 0x8C379A000000000000000000000000000000000000000000000000000000000 DUP2 MSTORE PUSH1 0x4 ADD PUSH2 0x9DF SWAP1 PUSH2 0x3429 JUMP JUMPDEST PUSH1 0x40 MLOAD DUP1 SWAP2 SUB SWAP1 REVERT JUMPDEST PUSH2 0x101 PUSH1 0x0 DUP4 DUP2 MSTORE PUSH1 0x20 ADD SWAP1 DUP2 MSTORE PUSH1 0x20 ADD PUSH1 0x0 KECCAK256 PUSH1 0x1 ADD PUSH1 0x0 SWAP1 SLOAD SWAP1 PUSH2 0x100 EXP SWAP1 DIV PUSH20 0xFFFFFFFFFFFFFFFFFFFFFFFFFFFFFFFFFFFFFFFF AND PUSH20 0xFFFFFFFFFFFFFFFFFFFFFFFFFFFFFFFFFFFFFFFF AND PUSH4 0xA9059CBB PUSH1 0x98 PUSH1 0x8 SWAP1 SLOAD SWAP1 PUSH2 0x100 EXP SWAP1 DIV PUSH20 0xFFFFFFFFFFFFFFFFFFFFFFFFFFFFFFFFFFFFFFFF AND DUP6 PUSH1 0x40 MLOAD DUP4 PUSH4 0xFFFFFFFF AND PUSH1 0xE0 SHL DUP2 MSTORE PUSH1 0x4 ADD PUSH2 0xA7C SWAP3 SWAP2 SWAP1 PUSH2 0x3449 JUMP JUMPDEST PUSH1 0x20 PUSH1 0x40 MLOAD DUP1 DUP4 SUB DUP2 PUSH1 0x0 DUP8 GAS CALL ISZERO DUP1 ISZERO PUSH2 0xA9B JUMPI RETURNDATASIZE PUSH1 0x0 DUP1 RETURNDATACOPY RETURNDATASIZE PUSH1 0x0 REVERT JUMPDEST POP POP POP POP PUSH1 0x40 MLOAD RETURNDATASIZE PUSH1 0x1F NOT PUSH1 0x1F DUP3 ADD AND DUP3 ADD DUP1 PUSH1 0x40 MSTORE POP DUP2 ADD SWAP1 PUSH2 0xABF SWAP2 SWAP1 PUSH2 0x349E JUMP JUMPDEST POP PUSH1 0x1 PUSH2 0x101 PUSH1 0x0 DUP5 DUP2 MSTORE PUSH1 0x20 ADD SWAP1 DUP2 MSTORE PUSH1 0x20 ADD PUSH1 0x0 KECCAK256 PUSH1 0x5 ADD PUSH1 0x1 PUSH2 0x100 EXP DUP2 SLOAD DUP2 PUSH1 0xFF MUL NOT AND SWAP1 DUP4 ISZERO ISZERO MUL OR SWAP1 SSTORE POP PUSH1 0x0 PUSH2 0x101 PUSH1 0x0 DUP5 DUP2 MSTORE PUSH1 0x20 ADD SWAP1 DUP2 MSTORE PUSH1 0x20 ADD PUSH1 0x0 KECCAK256 PUSH1 0x6 ADD PUSH1 0x0 PUSH2 0x100 EXP DUP2 SLOAD DUP2 PUSH12 0xFFFFFFFFFFFFFFFFFFFFFFFF MUL NOT AND SWAP1 DUP4 PUSH12 0xFFFFFFFFFFFFFFFFFFFFFFFF AND MUL OR SWAP1 SSTORE POP PUSH1 0x0 DUP4 PUSH2 0x101 PUSH1 0x0 DUP6 DUP2 MSTORE PUSH1 0x20 ADD SWAP1 DUP2 MSTORE PUSH1 0x20 ADD PUSH1 0x0 KECCAK256 PUSH1 0x4 ADD SLOAD PUSH2 0x101 PUSH1 0x0 DUP7 DUP2 MSTORE PUSH1 0x20 ADD SWAP1 DUP2 MSTORE PUSH1 0x20 ADD PUSH1 0x0 KECCAK256 PUSH1 0x7 ADD SLOAD PUSH2 0xB74 SWAP2 SWAP1 PUSH2 0x34FA JUMP JUMPDEST PUSH2 0xB7E SWAP2 SWAP1 PUSH2 0x352E JUMP JUMPDEST SWAP1 POP PUSH2 0x101 PUSH1 0x0 DUP5 DUP2 MSTORE PUSH1 0x20 ADD SWAP1 DUP2 MSTORE PUSH1 0x20 ADD PUSH1 0x0 KECCAK256 PUSH1 0x1 ADD PUSH1 0x0 SWAP1 SLOAD SWAP1 PUSH2 0x100 EXP SWAP1 DIV PUSH20 0xFFFFFFFFFFFFFFFFFFFFFFFFFFFFFFFFFFFFFFFF AND PUSH20 0xFFFFFFFFFFFFFFFFFFFFFFFFFFFFFFFFFFFFFFFF AND PUSH4 0xA9059CBB PUSH2 0x101 PUSH1 0x0 DUP7 DUP2 MSTORE PUSH1 0x20 ADD SWAP1 DUP2 MSTORE PUSH1 0x20 ADD PUSH1 0x0 KECCAK256 PUSH1 0x5 ADD PUSH1 0x2 SWAP1 SLOAD SWAP1 PUSH2 0x100 EXP SWAP1 DIV PUSH20 0xFFFFFFFFFFFFFFFFFFFFFFFFFFFFFFFFFFFFFFFF AND PUSH2 0x101 PUSH1 0x0 DUP8 DUP2 MSTORE PUSH1 0x20 ADD SWAP1 DUP2 MSTORE PUSH1 0x20 ADD PUSH1 0x0 KECCAK256 PUSH1 0x3 ADD SLOAD DUP5 PUSH2 0xC2E SWAP2 SWAP1 PUSH2 0x34FA JUMP JUMPDEST PUSH1 0x40 MLOAD DUP4 PUSH4 0xFFFFFFFF AND PUSH1 0xE0 SHL DUP2 MSTORE PUSH1 0x4 ADD PUSH2 0xC4B SWAP3 SWAP2 SWAP1 PUSH2 0x3449 JUMP JUMPDEST PUSH1 0x20 PUSH1 0x40 MLOAD DUP1 DUP4 SUB DUP2 PUSH1 0x0 DUP8 GAS CALL ISZERO DUP1 ISZERO PUSH2 0xC6A JUMPI RETURNDATASIZE PUSH1 0x0 DUP1 RETURNDATACOPY RETURNDATASIZE PUSH1 0x0 REVERT JUMPDEST POP POP POP POP PUSH1 0x40 MLOAD RETURNDATASIZE PUSH1 0x1F NOT PUSH1 0x1F DUP3 ADD AND DUP3 ADD DUP1 PUSH1 0x40 MSTORE POP DUP2 ADD SWAP1 PUSH2 0xC8E SWAP2 SWAP1 PUSH2 0x349E JUMP JUMPDEST POP DUP3 PUSH32 0x736FE428E1747CA8D387C2E6FA1A31A0CDE62D3A167C40A46ADE59A3CDC828E DUP6 PUSH1 0x40 MLOAD PUSH2 0xCBF SWAP2 SWAP1 PUSH2 0x3562 JUMP JUMPDEST PUSH1 0x40 MLOAD DUP1 SWAP2 SUB SWAP1 LOG2 PUSH1 0x1 SWAP2 POP POP SWAP3 SWAP2 POP POP JUMP JUMPDEST PUSH1 0x0 PUSH1 0x1 PUSH1 0xCC PUSH1 0x0 DUP5 PUSH20 0xFFFFFFFFFFFFFFFFFFFFFFFFFFFFFFFFFFFFFFFF AND PUSH20 0xFFFFFFFFFFFFFFFFFFFFFFFFFFFFFFFFFFFFFFFF AND DUP2 MSTORE PUSH1 0x20 ADD SWAP1 DUP2 MSTORE PUSH1 0x20 ADD PUSH1 0x0 KECCAK256 SLOAD SUB PUSH2 0xD24 JUMPI PUSH1 0x1 SWAP1 POP PUSH2 0xD29 JUMP JUMPDEST PUSH1 0x0 SWAP1 POP JUMPDEST SWAP2 SWAP1 POP JUMP JUMPDEST PUSH2 0xD36 PUSH2 0x261B JUMP JUMPDEST PUSH2 0x101 PUSH1 0x0 DUP4 DUP2 MSTORE PUSH1 0x20 ADD SWAP1 DUP2 MSTORE PUSH1 0x20 ADD PUSH1 0x0 KECCAK256 PUSH1 0x40 MLOAD DUP1 PUSH2 0x140 ADD PUSH1 0x40 MSTORE SWAP1 DUP2 PUSH1 0x0 DUP3 ADD PUSH1 0x0 SWAP1 SLOAD SWAP1 PUSH2 0x100 EXP SWAP1 DIV PUSH20 0xFFFFFFFFFFFFFFFFFFFFFFFFFFFFFFFFFFFFFFFF AND PUSH20 0xFFFFFFFFFFFFFFFFFFFFFFFFFFFFFFFFFFFFFFFF AND PUSH20 0xFFFFFFFFFFFFFFFFFFFFFFFFFFFFFFFFFFFFFFFF AND DUP2 MSTORE PUSH1 0x20 ADD PUSH1 0x1 DUP3 ADD PUSH1 0x0 SWAP1 SLOAD SWAP1 PUSH2 0x100 EXP SWAP1 DIV PUSH20 0xFFFFFFFFFFFFFFFFFFFFFFFFFFFFFFFFFFFFFFFF AND PUSH20 0xFFFFFFFFFFFFFFFFFFFFFFFFFFFFFFFFFFFFFFFF AND PUSH20 0xFFFFFFFFFFFFFFFFFFFFFFFFFFFFFFFFFFFFFFFF AND DUP2 MSTORE PUSH1 0x20 ADD PUSH1 0x2 DUP3 ADD PUSH1 0x0 SWAP1 SLOAD SWAP1 PUSH2 0x100 EXP SWAP1 DIV PUSH20 0xFFFFFFFFFFFFFFFFFFFFFFFFFFFFFFFFFFFFFFFF AND PUSH20 0xFFFFFFFFFFFFFFFFFFFFFFFFFFFFFFFFFFFFFFFF AND PUSH20 0xFFFFFFFFFFFFFFFFFFFFFFFFFFFFFFFFFFFFFFFF AND DUP2 MSTORE PUSH1 0x20 ADD PUSH1 0x3 DUP3 ADD SLOAD DUP2 MSTORE PUSH1 0x20 ADD PUSH1 0x4 DUP3 ADD SLOAD DUP2 MSTORE PUSH1 0x20 ADD PUSH1 0x5 DUP3 ADD PUSH1 0x0 SWAP1 SLOAD SWAP1 PUSH2 0x100 EXP SWAP1 DIV PUSH1 0xFF AND ISZERO ISZERO ISZERO ISZERO DUP2 MSTORE PUSH1 0x20 ADD PUSH1 0x5 DUP3 ADD PUSH1 0x1 SWAP1 SLOAD SWAP1 PUSH2 0x100 EXP SWAP1 DIV PUSH1 0xFF AND ISZERO ISZERO ISZERO ISZERO DUP2 MSTORE PUSH1 0x20 ADD PUSH1 0x5 DUP3 ADD PUSH1 0x2 SWAP1 SLOAD SWAP1 PUSH2 0x100 EXP SWAP1 DIV PUSH20 0xFFFFFFFFFFFFFFFFFFFFFFFFFFFFFFFFFFFFFFFF AND PUSH20 0xFFFFFFFFFFFFFFFFFFFFFFFFFFFFFFFFFFFFFFFF AND PUSH20 0xFFFFFFFFFFFFFFFFFFFFFFFFFFFFFFFFFFFFFFFF AND DUP2 MSTORE PUSH1 0x20 ADD PUSH1 0x6 DUP3 ADD PUSH1 0x0 SWAP1 SLOAD SWAP1 PUSH2 0x100 EXP SWAP1 DIV PUSH12 0xFFFFFFFFFFFFFFFFFFFFFFFF AND PUSH12 0xFFFFFFFFFFFFFFFFFFFFFFFF AND PUSH12 0xFFFFFFFFFFFFFFFFFFFFFFFF AND DUP2 MSTORE PUSH1 0x20 ADD PUSH1 0x7 DUP3 ADD SLOAD DUP2 MSTORE POP POP SWAP1 POP SWAP2 SWAP1 POP JUMP JUMPDEST PUSH1 0x0 PUSH2 0xF51 PUSH2 0x2096 JUMP JUMPDEST SWAP1 POP DUP1 PUSH20 0xFFFFFFFFFFFFFFFFFFFFFFFFFFFFFFFFFFFFFFFF AND PUSH2 0xF72 PUSH2 0x1851 JUMP JUMPDEST PUSH20 0xFFFFFFFFFFFFFFFFFFFFFFFFFFFFFFFFFFFFFFFF AND EQ PUSH2 0xFC8 JUMPI PUSH1 0x40 MLOAD PUSH32 0x8C379A000000000000000000000000000000000000000000000000000000000 DUP2 MSTORE PUSH1 0x4 ADD PUSH2 0xFBF SWAP1 PUSH2 0x35EF JUMP JUMPDEST PUSH1 0x40 MLOAD DUP1 SWAP2 SUB SWAP1 REVERT JUMPDEST PUSH2 0xFD1 DUP2 PUSH2 0x2065 JUMP JUMPDEST POP JUMP JUMPDEST PUSH1 0x0 DUP1 PUSH1 0x1 SWAP1 SLOAD SWAP1 PUSH2 0x100 EXP SWAP1 DIV PUSH1 0xFF AND ISZERO SWAP1 POP DUP1 DUP1 ISZERO PUSH2 0x1005 JUMPI POP PUSH1 0x1 PUSH1 0x0 DUP1 SLOAD SWAP1 PUSH2 0x100 EXP SWAP1 DIV PUSH1 0xFF AND PUSH1 0xFF AND LT JUMPDEST DUP1 PUSH2 0x1032 JUMPI POP PUSH2 0x1014 ADDRESS PUSH2 0x209E JUMP JUMPDEST ISZERO DUP1 ISZERO PUSH2 0x1031 JUMPI POP PUSH1 0x1 PUSH1 0x0 DUP1 SLOAD SWAP1 PUSH2 0x100 EXP SWAP1 DIV PUSH1 0xFF AND PUSH1 0xFF AND EQ JUMPDEST JUMPDEST PUSH2 0x1071 JUMPI PUSH1 0x40 MLOAD PUSH32 0x8C379A000000000000000000000000000000000000000000000000000000000 DUP2 MSTORE PUSH1 0x4 ADD PUSH2 0x1068 SWAP1 PUSH2 0x3681 JUMP JUMPDEST PUSH1 0x40 MLOAD DUP1 SWAP2 SUB SWAP1 REVERT JUMPDEST PUSH1 0x1 PUSH1 0x0 DUP1 PUSH2 0x100 EXP DUP2 SLOAD DUP2 PUSH1 0xFF MUL NOT AND SWAP1 DUP4 PUSH1 0xFF AND MUL OR SWAP1 SSTORE POP DUP1 ISZERO PUSH2 0x10AE JUMPI PUSH1 0x1 PUSH1 0x0 PUSH1 0x1 PUSH2 0x100 EXP DUP2 SLOAD DUP2 PUSH1 0xFF MUL NOT AND SWAP1 DUP4 ISZERO ISZERO MUL OR SWAP1 SSTORE POP JUMPDEST PUSH3 0x186A0 PUSH1 0x97 DUP2 SWAP1 SSTORE POP PUSH2 0x10C0 PUSH2 0x20C1 JUMP JUMPDEST PUSH2 0x10C8 PUSH2 0x211A JUMP JUMPDEST DUP1 ISZERO PUSH2 0x1121 JUMPI PUSH1 0x0 DUP1 PUSH1 0x1 PUSH2 0x100 EXP DUP2 SLOAD DUP2 PUSH1 0xFF MUL NOT AND SWAP1 DUP4 ISZERO ISZERO MUL OR SWAP1 SSTORE POP PUSH32 0x7F26B83FF96E1F2B6A682F133852F6798A09C465DA95921460CEFB3847402498 PUSH1 0x1 PUSH1 0x40 MLOAD PUSH2 0x1118 SWAP2 SWAP1 PUSH2 0x36F3 JUMP JUMPDEST PUSH1 0x40 MLOAD DUP1 SWAP2 SUB SWAP1 LOG1 JUMPDEST POP JUMP JUMPDEST PUSH2 0x112C PUSH2 0x1F84 JUMP JUMPDEST PUSH2 0x1134 PUSH2 0x2173 JUMP JUMPDEST JUMP JUMPDEST PUSH1 0x0 PUSH1 0x33 PUSH1 0x0 SWAP1 SLOAD SWAP1 PUSH2 0x100 EXP SWAP1 DIV PUSH20 0xFFFFFFFFFFFFFFFFFFFFFFFFFFFFFFFFFFFFFFFF AND SWAP1 POP SWAP1 JUMP JUMPDEST PUSH1 0x0 DUP1 PUSH1 0x98 PUSH1 0x0 SWAP1 SLOAD SWAP1 PUSH2 0x100 EXP SWAP1 DIV PUSH8 0xFFFFFFFFFFFFFFFF AND PUSH1 0x97 SLOAD SWAP2 POP SWAP2 POP SWAP1 SWAP2 JUMP JUMPDEST PUSH2 0x118D PUSH2 0x1F84 JUMP JUMPDEST PUSH1 0x0 PUSH20 0xFFFFFFFFFFFFFFFFFFFFFFFFFFFFFFFFFFFFFFFF AND DUP3 PUSH20 0xFFFFFFFFFFFFFFFFFFFFFFFFFFFFFFFFFFFFFFFF AND SUB PUSH2 0x11FC JUMPI PUSH1 0x40 MLOAD PUSH32 0x8C379A000000000000000000000000000000000000000000000000000000000 DUP2 MSTORE PUSH1 0x4 ADD PUSH2 0x11F3 SWAP1 PUSH2 0x313A JUMP JUMPDEST PUSH1 0x40 MLOAD DUP1 SWAP2 SUB SWAP1 REVERT JUMPDEST PUSH1 0x1 DUP2 EQ DUP1 PUSH2 0x120B JUMPI POP PUSH1 0x2 DUP2 EQ JUMPDEST PUSH2 0x124A JUMPI PUSH1 0x40 MLOAD PUSH32 0x8C379A000000000000000000000000000000000000000000000000000000000 DUP2 MSTORE PUSH1 0x4 ADD PUSH2 0x1241 SWAP1 PUSH2 0x375A JUMP JUMPDEST PUSH1 0x40 MLOAD DUP1 SWAP2 SUB SWAP1 REVERT JUMPDEST PUSH32 0x746F6B656E000000000000000000000000000000000000000000000000000000 DUP4 SUB PUSH2 0x1305 JUMPI DUP1 PUSH1 0xCC PUSH1 0x0 DUP5 PUSH20 0xFFFFFFFFFFFFFFFFFFFFFFFFFFFFFFFFFFFFFFFF AND PUSH20 0xFFFFFFFFFFFFFFFFFFFFFFFFFFFFFFFFFFFFFFFF AND DUP2 MSTORE PUSH1 0x20 ADD SWAP1 DUP2 MSTORE PUSH1 0x20 ADD PUSH1 0x0 KECCAK256 DUP2 SWAP1 SSTORE POP DUP2 PUSH20 0xFFFFFFFFFFFFFFFFFFFFFFFFFFFFFFFFFFFFFFFF AND DUP4 PUSH32 0xCFA976492AF7C14A916CC3A239F4C9C75BBD7F5F0E398BEB41D892C7EECCAE4C DUP4 PUSH1 0x40 MLOAD PUSH2 0x12FC SWAP2 SWAP1 PUSH2 0x3562 JUMP JUMPDEST PUSH1 0x40 MLOAD DUP1 SWAP2 SUB SWAP1 LOG3 JUMPDEST POP POP POP JUMP JUMPDEST PUSH1 0x0 PUSH2 0x1314 PUSH2 0x21D6 JUMP JUMPDEST PUSH2 0x1322 DUP11 DUP11 DUP7 DUP10 DUP10 DUP14 PUSH2 0x2220 JUMP JUMPDEST PUSH1 0x0 DUP4 DUP4 SWAP1 POP SUB PUSH2 0x1368 JUMPI PUSH1 0x40 MLOAD PUSH32 0x8C379A000000000000000000000000000000000000000000000000000000000 DUP2 MSTORE PUSH1 0x4 ADD PUSH2 0x135F SWAP1 PUSH2 0x37C6 JUMP JUMPDEST PUSH1 0x40 MLOAD DUP1 SWAP2 SUB SWAP1 REVERT JUMPDEST DUP10 PUSH20 0xFFFFFFFFFFFFFFFFFFFFFFFFFFFFFFFFFFFFFFFF AND PUSH4 0x23B872DD CALLER ADDRESS DUP9 DUP14 PUSH2 0x1392 SWAP2 SWAP1 PUSH2 0x34FA JUMP JUMPDEST PUSH1 0x40 MLOAD DUP5 PUSH4 0xFFFFFFFF AND PUSH1 0xE0 SHL DUP2 MSTORE PUSH1 0x4 ADD PUSH2 0x13B0 SWAP4 SWAP3 SWAP2 SWAP1 PUSH2 0x37E6 JUMP JUMPDEST PUSH1 0x20 PUSH1 0x40 MLOAD DUP1 DUP4 SUB DUP2 PUSH1 0x0 DUP8 GAS CALL ISZERO DUP1 ISZERO PUSH2 0x13CF JUMPI RETURNDATASIZE PUSH1 0x0 DUP1 RETURNDATACOPY RETURNDATASIZE PUSH1 0x0 REVERT JUMPDEST POP POP POP POP PUSH1 0x40 MLOAD RETURNDATASIZE PUSH1 0x1F NOT PUSH1 0x1F DUP3 ADD AND DUP3 ADD DUP1 PUSH1 0x40 MSTORE POP DUP2 ADD SWAP1 PUSH2 0x13F3 SWAP2 SWAP1 PUSH2 0x349E JUMP JUMPDEST POP PUSH2 0x102 PUSH1 0x0 CALLER PUSH20 0xFFFFFFFFFFFFFFFFFFFFFFFFFFFFFFFFFFFFFFFF AND PUSH20 0xFFFFFFFFFFFFFFFFFFFFFFFFFFFFFFFFFFFFFFFF AND DUP2 MSTORE PUSH1 0x20 ADD SWAP1 DUP2 MSTORE PUSH1 0x20 ADD PUSH1 0x0 KECCAK256 PUSH1 0x0 DUP2 SLOAD DUP1 SWAP3 SWAP2 SWAP1 PUSH2 0x1445 SWAP1 PUSH2 0x381D JUMP JUMPDEST SWAP2 SWAP1 POP SSTORE POP CALLER PUSH2 0x102 PUSH1 0x0 CALLER PUSH20 0xFFFFFFFFFFFFFFFFFFFFFFFFFFFFFFFFFFFFFFFF AND PUSH20 0xFFFFFFFFFFFFFFFFFFFFFFFFFFFFFFFFFFFFFFFF AND DUP2 MSTORE PUSH1 0x20 ADD SWAP1 DUP2 MSTORE PUSH1 0x20 ADD PUSH1 0x0 KECCAK256 SLOAD PUSH1 0x40 MLOAD PUSH1 0x20 ADD PUSH2 0x149D SWAP3 SWAP2 SWAP1 PUSH2 0x3449 JUMP JUMPDEST PUSH1 0x40 MLOAD PUSH1 0x20 DUP2 DUP4 SUB SUB DUP2 MSTORE SWAP1 PUSH1 0x40 MSTORE DUP1 MLOAD SWAP1 PUSH1 0x20 ADD KECCAK256 SWAP1 POP PUSH1 0x0 PUSH1 0x97 SLOAD PUSH1 0x98 PUSH1 0x0 SWAP1 SLOAD SWAP1 PUSH2 0x100 EXP SWAP1 DIV PUSH8 0xFFFFFFFFFFFFFFFF AND PUSH8 0xFFFFFFFFFFFFFFFF AND DUP12 PUSH2 0x14E6 SWAP2 SWAP1 PUSH2 0x3865 JUMP JUMPDEST PUSH2 0x14F0 SWAP2 SWAP1 PUSH2 0x38D6 JUMP JUMPDEST SWAP1 POP PUSH1 0x40 MLOAD DUP1 PUSH2 0x140 ADD PUSH1 0x40 MSTORE DUP1 CALLER PUSH20 0xFFFFFFFFFFFFFFFFFFFFFFFFFFFFFFFFFFFFFFFF AND DUP2 MSTORE PUSH1 0x20 ADD DUP13 PUSH20 0xFFFFFFFFFFFFFFFFFFFFFFFFFFFFFFFFFFFFFFFF AND DUP2 MSTORE PUSH1 0x20 ADD DUP9 PUSH20 0xFFFFFFFFFFFFFFFFFFFFFFFFFFFFFFFFFFFFFFFF AND DUP2 MSTORE PUSH1 0x20 ADD DUP8 DUP2 MSTORE PUSH1 0x20 ADD DUP3 DUP2 MSTORE PUSH1 0x20 ADD PUSH1 0x0 ISZERO ISZERO DUP2 MSTORE PUSH1 0x20 ADD PUSH1 0x0 ISZERO ISZERO DUP2 MSTORE PUSH1 0x20 ADD DUP7 PUSH20 0xFFFFFFFFFFFFFFFFFFFFFFFFFFFFFFFFFFFFFFFF AND DUP2 MSTORE PUSH1 0x20 ADD PUSH1 0x97 SLOAD PUSH8 0xFFFFFFFFFFFFFFFF AND PUSH12 0xFFFFFFFFFFFFFFFFFFFFFFFF AND DUP2 MSTORE PUSH1 0x20 ADD DUP3 DUP13 PUSH2 0x15B8 SWAP2 SWAP1 PUSH2 0x352E JUMP JUMPDEST DUP2 MSTORE POP PUSH2 0x101 PUSH1 0x0 DUP5 DUP2 MSTORE PUSH1 0x20 ADD SWAP1 DUP2 MSTORE PUSH1 0x20 ADD PUSH1 0x0 KECCAK256 PUSH1 0x0 DUP3 ADD MLOAD DUP2 PUSH1 0x0 ADD PUSH1 0x0 PUSH2 0x100 EXP DUP2 SLOAD DUP2 PUSH20 0xFFFFFFFFFFFFFFFFFFFFFFFFFFFFFFFFFFFFFFFF MUL NOT AND SWAP1 DUP4 PUSH20 0xFFFFFFFFFFFFFFFFFFFFFFFFFFFFFFFFFFFFFFFF AND MUL OR SWAP1 SSTORE POP PUSH1 0x20 DUP3 ADD MLOAD DUP2 PUSH1 0x1 ADD PUSH1 0x0 PUSH2 0x100 EXP DUP2 SLOAD DUP2 PUSH20 0xFFFFFFFFFFFFFFFFFFFFFFFFFFFFFFFFFFFFFFFF MUL NOT AND SWAP1 DUP4 PUSH20 0xFFFFFFFFFFFFFFFFFFFFFFFFFFFFFFFFFFFFFFFF AND MUL OR SWAP1 SSTORE POP PUSH1 0x40 DUP3 ADD MLOAD DUP2 PUSH1 0x2 ADD PUSH1 0x0 PUSH2 0x100 EXP DUP2 SLOAD DUP2 PUSH20 0xFFFFFFFFFFFFFFFFFFFFFFFFFFFFFFFFFFFFFFFF MUL NOT AND SWAP1 DUP4 PUSH20 0xFFFFFFFFFFFFFFFFFFFFFFFFFFFFFFFFFFFFFFFF AND MUL OR SWAP1 SSTORE POP PUSH1 0x60 DUP3 ADD MLOAD DUP2 PUSH1 0x3 ADD SSTORE PUSH1 0x80 DUP3 ADD MLOAD DUP2 PUSH1 0x4 ADD SSTORE PUSH1 0xA0 DUP3 ADD MLOAD DUP2 PUSH1 0x5 ADD PUSH1 0x0 PUSH2 0x100 EXP DUP2 SLOAD DUP2 PUSH1 0xFF MUL NOT AND SWAP1 DUP4 ISZERO ISZERO MUL OR SWAP1 SSTORE POP PUSH1 0xC0 DUP3 ADD MLOAD DUP2 PUSH1 0x5 ADD PUSH1 0x1 PUSH2 0x100 EXP DUP2 SLOAD DUP2 PUSH1 0xFF MUL NOT AND SWAP1 DUP4 ISZERO ISZERO MUL OR SWAP1 SSTORE POP PUSH1 0xE0 DUP3 ADD MLOAD DUP2 PUSH1 0x5 ADD PUSH1 0x2 PUSH2 0x100 EXP DUP2 SLOAD DUP2 PUSH20 0xFFFFFFFFFFFFFFFFFFFFFFFFFFFFFFFFFFFFFFFF MUL NOT AND SWAP1 DUP4 PUSH20 0xFFFFFFFFFFFFFFFFFFFFFFFFFFFFFFFFFFFFFFFF AND MUL OR SWAP1 SSTORE POP PUSH2 0x100 DUP3 ADD MLOAD DUP2 PUSH1 0x6 ADD PUSH1 0x0 PUSH2 0x100 EXP DUP2 SLOAD DUP2 PUSH12 0xFFFFFFFFFFFFFFFFFFFFFFFF MUL NOT AND SWAP1 DUP4 PUSH12 0xFFFFFFFFFFFFFFFFFFFFFFFF AND MUL OR SWAP1 SSTORE POP PUSH2 0x120 DUP3 ADD MLOAD DUP2 PUSH1 0x7 ADD SSTORE SWAP1 POP POP PUSH2 0x101 PUSH1 0x0 DUP4 DUP2 MSTORE PUSH1 0x20 ADD SWAP1 DUP2 MSTORE PUSH1 0x20 ADD PUSH1 0x0 KECCAK256 PUSH1 0x7 ADD SLOAD DUP12 PUSH20 0xFFFFFFFFFFFFFFFFFFFFFFFFFFFFFFFFFFFFFFFF AND PUSH2 0x101 PUSH1 0x0 DUP6 DUP2 MSTORE PUSH1 0x20 ADD SWAP1 DUP2 MSTORE PUSH1 0x20 ADD PUSH1 0x0 KECCAK256 PUSH1 0x0 ADD PUSH1 0x0 SWAP1 SLOAD SWAP1 PUSH2 0x100 EXP SWAP1 DIV PUSH20 0xFFFFFFFFFFFFFFFFFFFFFFFFFFFFFFFFFFFFFFFF AND PUSH20 0xFFFFFFFFFFFFFFFFFFFFFFFFFFFFFFFFFFFFFFFF AND PUSH32 0x3BDD0D86E09A22D7CE596118BD3CA5EC73EA47533A465BE37621E913ED2BF333 DUP5 DUP7 DUP14 DUP16 DUP12 DUP12 PUSH1 0x40 MLOAD PUSH2 0x183B SWAP7 SWAP6 SWAP5 SWAP4 SWAP3 SWAP2 SWAP1 PUSH2 0x3974 JUMP JUMPDEST PUSH1 0x40 MLOAD DUP1 SWAP2 SUB SWAP1 LOG4 POP SWAP10 SWAP9 POP POP POP POP POP POP POP POP POP JUMP JUMPDEST PUSH1 0x0 PUSH1 0x65 PUSH1 0x0 SWAP1 SLOAD SWAP1 PUSH2 0x100 EXP SWAP1 DIV PUSH20 0xFFFFFFFFFFFFFFFFFFFFFFFFFFFFFFFFFFFFFFFF AND SWAP1 POP SWAP1 JUMP JUMPDEST PUSH1 0x0 PUSH1 0x99 PUSH1 0x0 SWAP1 SLOAD SWAP1 PUSH2 0x100 EXP SWAP1 DIV PUSH20 0xFFFFFFFFFFFFFFFFFFFFFFFFFFFFFFFFFFFFFFFF AND PUSH20 0xFFFFFFFFFFFFFFFFFFFFFFFFFFFFFFFFFFFFFFFF AND CALLER PUSH20 0xFFFFFFFFFFFFFFFFFFFFFFFFFFFFFFFFFFFFFFFF AND EQ PUSH2 0x190D JUMPI PUSH1 0x40 MLOAD PUSH32 0x8C379A000000000000000000000000000000000000000000000000000000000 DUP2 MSTORE PUSH1 0x4 ADD PUSH2 0x1904 SWAP1 PUSH2 0x32E5 JUMP JUMPDEST PUSH1 0x40 MLOAD DUP1 SWAP2 SUB SWAP1 REVERT JUMPDEST PUSH2 0x101 PUSH1 0x0 DUP6 DUP2 MSTORE PUSH1 0x20 ADD SWAP1 DUP2 MSTORE PUSH1 0x20 ADD PUSH1 0x0 KECCAK256 PUSH1 0x5 ADD PUSH1 0x0 SWAP1 SLOAD SWAP1 PUSH2 0x100 EXP SWAP1 DIV PUSH1 0xFF AND ISZERO PUSH2 0x1972 JUMPI PUSH1 0x40 MLOAD PUSH32 0x8C379A000000000000000000000000000000000000000000000000000000000 DUP2 MSTORE PUSH1 0x4 ADD PUSH2 0x1969 SWAP1 PUSH2 0x3351 JUMP JUMPDEST PUSH1 0x40 MLOAD DUP1 SWAP2 SUB SWAP1 REVERT JUMPDEST PUSH2 0x101 PUSH1 0x0 DUP6 DUP2 MSTORE PUSH1 0x20 ADD SWAP1 DUP2 MSTORE PUSH1 0x20 ADD PUSH1 0x0 KECCAK256 PUSH1 0x5 ADD PUSH1 0x1 SWAP1 SLOAD SWAP1 PUSH2 0x100 EXP SWAP1 DIV PUSH1 0xFF AND ISZERO PUSH2 0x19D7 JUMPI PUSH1 0x40 MLOAD PUSH32 0x8C379A000000000000000000000000000000000000000000000000000000000 DUP2 MSTORE PUSH1 0x4 ADD PUSH2 0x19CE SWAP1 PUSH2 0x33BD JUMP JUMPDEST PUSH1 0x40 MLOAD DUP1 SWAP2 SUB SWAP1 REVERT JUMPDEST PUSH1 0x0 PUSH2 0x101 PUSH1 0x0 DUP7 DUP2 MSTORE PUSH1 0x20 ADD SWAP1 DUP2 MSTORE PUSH1 0x20 ADD PUSH1 0x0 KECCAK256 PUSH1 0x1 ADD PUSH1 0x0 SWAP1 SLOAD SWAP1 PUSH2 0x100 EXP SWAP1 DIV PUSH20 0xFFFFFFFFFFFFFFFFFFFFFFFFFFFFFFFFFFFFFFFF AND SWAP1 POP DUP3 PUSH8 0xFFFFFFFFFFFFFFFF AND PUSH2 0x101 PUSH1 0x0 DUP8 DUP2 MSTORE PUSH1 0x20 ADD SWAP1 DUP2 MSTORE PUSH1 0x20 ADD PUSH1 0x0 KECCAK256 PUSH1 0x6 ADD PUSH1 0x0 DUP3 DUP3 DUP3 SWAP1 SLOAD SWAP1 PUSH2 0x100 EXP SWAP1 DIV PUSH12 0xFFFFFFFFFFFFFFFFFFFFFFFF AND PUSH2 0x1A5B SWAP2 SWAP1 PUSH2 0x39D0 JUMP JUMPDEST SWAP3 POP PUSH2 0x100 EXP DUP2 SLOAD DUP2 PUSH12 0xFFFFFFFFFFFFFFFFFFFFFFFF MUL NOT AND SWAP1 DUP4 PUSH12 0xFFFFFFFFFFFFFFFFFFFFFFFF AND MUL OR SWAP1 SSTORE POP PUSH1 0x0 PUSH2 0x101 PUSH1 0x0 DUP8 DUP2 MSTORE PUSH1 0x20 ADD SWAP1 DUP2 MSTORE PUSH1 0x20 ADD PUSH1 0x0 KECCAK256 PUSH1 0x6 ADD PUSH1 0x0 SWAP1 SLOAD SWAP1 PUSH2 0x100 EXP SWAP1 DIV PUSH12 0xFFFFFFFFFFFFFFFFFFFFFFFF AND PUSH12 0xFFFFFFFFFFFFFFFFFFFFFFFF AND SUB PUSH2 0x1D8D JUMPI PUSH1 0x1 PUSH2 0x101 PUSH1 0x0 DUP8 DUP2 MSTORE PUSH1 0x20 ADD SWAP1 DUP2 MSTORE PUSH1 0x20 ADD PUSH1 0x0 KECCAK256 PUSH1 0x5 ADD PUSH1 0x0 PUSH2 0x100 EXP DUP2 SLOAD DUP2 PUSH1 0xFF MUL NOT AND SWAP1 DUP4 ISZERO ISZERO MUL OR SWAP1 SSTORE POP PUSH1 0x0 PUSH2 0x101 PUSH1 0x0 DUP8 DUP2 MSTORE PUSH1 0x20 ADD SWAP1 DUP2 MSTORE PUSH1 0x20 ADD PUSH1 0x0 KECCAK256 PUSH1 0x3 ADD SLOAD EQ PUSH2 0x1CB4 JUMPI PUSH2 0x101 PUSH1 0x0 DUP7 DUP2 MSTORE PUSH1 0x20 ADD SWAP1 DUP2 MSTORE PUSH1 0x20 ADD PUSH1 0x0 KECCAK256 PUSH1 0x1 ADD PUSH1 0x0 SWAP1 SLOAD SWAP1 PUSH2 0x100 EXP SWAP1 DIV PUSH20 0xFFFFFFFFFFFFFFFFFFFFFFFFFFFFFFFFFFFFFFFF AND PUSH20 0xFFFFFFFFFFFFFFFFFFFFFFFFFFFFFFFFFFFFFFFF AND PUSH4 0xA9059CBB PUSH2 0x101 PUSH1 0x0 DUP9 DUP2 MSTORE PUSH1 0x20 ADD SWAP1 DUP2 MSTORE PUSH1 0x20 ADD PUSH1 0x0 KECCAK256 PUSH1 0x2 ADD PUSH1 0x0 SWAP1 SLOAD SWAP1 PUSH2 0x100 EXP SWAP1 DIV PUSH20 0xFFFFFFFFFFFFFFFFFFFFFFFFFFFFFFFFFFFFFFFF AND PUSH2 0x101 PUSH1 0x0 DUP10 DUP2 MSTORE PUSH1 0x20 ADD SWAP1 DUP2 MSTORE PUSH1 0x20 ADD PUSH1 0x0 KECCAK256 PUSH1 0x3 ADD SLOAD PUSH1 0x40 MLOAD DUP4 PUSH4 0xFFFFFFFF AND PUSH1 0xE0 SHL DUP2 MSTORE PUSH1 0x4 ADD PUSH2 0x1BDD SWAP3 SWAP2 SWAP1 PUSH2 0x3449 JUMP JUMPDEST PUSH1 0x20 PUSH1 0x40 MLOAD DUP1 DUP4 SUB DUP2 PUSH1 0x0 DUP8 GAS CALL ISZERO DUP1 ISZERO PUSH2 0x1BFC JUMPI RETURNDATASIZE PUSH1 0x0 DUP1 RETURNDATACOPY RETURNDATASIZE PUSH1 0x0 REVERT JUMPDEST POP POP POP POP PUSH1 0x40 MLOAD RETURNDATASIZE PUSH1 0x1F NOT PUSH1 0x1F DUP3 ADD AND DUP3 ADD DUP1 PUSH1 0x40 MSTORE POP DUP2 ADD SWAP1 PUSH2 0x1C20 SWAP2 SWAP1 PUSH2 0x349E JUMP JUMPDEST POP PUSH2 0x101 PUSH1 0x0 DUP7 DUP2 MSTORE PUSH1 0x20 ADD SWAP1 DUP2 MSTORE PUSH1 0x20 ADD PUSH1 0x0 KECCAK256 PUSH1 0x3 ADD SLOAD PUSH2 0x101 PUSH1 0x0 DUP8 DUP2 MSTORE PUSH1 0x20 ADD SWAP1 DUP2 MSTORE PUSH1 0x20 ADD PUSH1 0x0 KECCAK256 PUSH1 0x2 ADD PUSH1 0x0 SWAP1 SLOAD SWAP1 PUSH2 0x100 EXP SWAP1 DIV PUSH20 0xFFFFFFFFFFFFFFFFFFFFFFFFFFFFFFFFFFFFFFFF AND PUSH20 0xFFFFFFFFFFFFFFFFFFFFFFFFFFFFFFFFFFFFFFFF AND PUSH32 0x44F6938CA4A10313AABB76F874CCED61E35710A734A126E4AFB34461BF8C2501 PUSH1 0x40 MLOAD PUSH1 0x40 MLOAD DUP1 SWAP2 SUB SWAP1 LOG3 JUMPDEST PUSH1 0x0 PUSH2 0x101 PUSH1 0x0 DUP8 DUP2 MSTORE PUSH1 0x20 ADD SWAP1 DUP2 MSTORE PUSH1 0x20 ADD PUSH1 0x0 KECCAK256 PUSH1 0x4 ADD SLOAD EQ PUSH2 0x1D8C JUMPI DUP1 PUSH20 0xFFFFFFFFFFFFFFFFFFFFFFFFFFFFFFFFFFFFFFFF AND PUSH4 0xA9059CBB PUSH1 0x98 PUSH1 0x8 SWAP1 SLOAD SWAP1 PUSH2 0x100 EXP SWAP1 DIV PUSH20 0xFFFFFFFFFFFFFFFFFFFFFFFFFFFFFFFFFFFFFFFF AND PUSH2 0x101 PUSH1 0x0 DUP10 DUP2 MSTORE PUSH1 0x20 ADD SWAP1 DUP2 MSTORE PUSH1 0x20 ADD PUSH1 0x0 KECCAK256 PUSH1 0x4 ADD SLOAD PUSH1 0x40 MLOAD DUP4 PUSH4 0xFFFFFFFF AND PUSH1 0xE0 SHL DUP2 MSTORE PUSH1 0x4 ADD PUSH2 0x1D47 SWAP3 SWAP2 SWAP1 PUSH2 0x3449 JUMP JUMPDEST PUSH1 0x20 PUSH1 0x40 MLOAD DUP1 DUP4 SUB DUP2 PUSH1 0x0 DUP8 GAS CALL ISZERO DUP1 ISZERO PUSH2 0x1D66 JUMPI RETURNDATASIZE PUSH1 0x0 DUP1 RETURNDATACOPY RETURNDATASIZE PUSH1 0x0 REVERT JUMPDEST POP POP POP POP PUSH1 0x40 MLOAD RETURNDATASIZE PUSH1 0x1F NOT PUSH1 0x1F DUP3 ADD AND DUP3 ADD DUP1 PUSH1 0x40 MSTORE POP DUP2 ADD SWAP1 PUSH2 0x1D8A SWAP2 SWAP1 PUSH2 0x349E JUMP JUMPDEST POP JUMPDEST JUMPDEST PUSH1 0x0 PUSH1 0x97 SLOAD DUP5 PUSH8 0xFFFFFFFFFFFFFFFF AND PUSH2 0x101 PUSH1 0x0 DUP10 DUP2 MSTORE PUSH1 0x20 ADD SWAP1 DUP2 MSTORE PUSH1 0x20 ADD PUSH1 0x0 KECCAK256 PUSH1 0x7 ADD SLOAD PUSH2 0x1DBF SWAP2 SWAP1 PUSH2 0x3865 JUMP JUMPDEST PUSH2 0x1DC9 SWAP2 SWAP1 PUSH2 0x38D6 JUMP JUMPDEST SWAP1 POP DUP1 PUSH2 0x101 PUSH1 0x0 DUP9 DUP2 MSTORE PUSH1 0x20 ADD SWAP1 DUP2 MSTORE PUSH1 0x20 ADD PUSH1 0x0 KECCAK256 PUSH1 0x7 ADD PUSH1 0x0 DUP3 DUP3 SLOAD PUSH2 0x1DF2 SWAP2 SWAP1 PUSH2 0x352E JUMP JUMPDEST SWAP3 POP POP DUP2 SWAP1 SSTORE POP DUP2 PUSH20 0xFFFFFFFFFFFFFFFFFFFFFFFFFFFFFFFFFFFFFFFF AND PUSH4 0xA9059CBB DUP7 DUP4 PUSH1 0x40 MLOAD DUP4 PUSH4 0xFFFFFFFF AND PUSH1 0xE0 SHL DUP2 MSTORE PUSH1 0x4 ADD PUSH2 0x1E34 SWAP3 SWAP2 SWAP1 PUSH2 0x3449 JUMP JUMPDEST PUSH1 0x20 PUSH1 0x40 MLOAD DUP1 DUP4 SUB DUP2 PUSH1 0x0 DUP8 GAS CALL ISZERO DUP1 ISZERO PUSH2 0x1E53 JUMPI RETURNDATASIZE PUSH1 0x0 DUP1 RETURNDATACOPY RETURNDATASIZE PUSH1 0x0 REVERT JUMPDEST POP POP POP POP PUSH1 0x40 MLOAD RETURNDATASIZE PUSH1 0x1F NOT PUSH1 0x1F DUP3 ADD AND DUP3 ADD DUP1 PUSH1 0x40 MSTORE POP DUP2 ADD SWAP1 PUSH2 0x1E77 SWAP2 SWAP1 PUSH2 0x349E JUMP JUMPDEST POP DUP5 PUSH20 0xFFFFFFFFFFFFFFFFFFFFFFFFFFFFFFFFFFFFFFFF AND DUP7 PUSH32 0x98ECE21E01A01CBE1D1C0DAD3B053C8FBD368F99BE78BE958FCF1D1D13FD249A DUP10 DUP8 PUSH1 0x40 MLOAD PUSH2 0x1EC1 SWAP3 SWAP2 SWAP1 PUSH2 0x3A41 JUMP JUMPDEST PUSH1 0x40 MLOAD DUP1 SWAP2 SUB SWAP1 LOG3 PUSH1 0x1 SWAP3 POP POP POP SWAP5 SWAP4 POP POP POP POP JUMP JUMPDEST PUSH2 0x1EDF PUSH2 0x1F84 JUMP JUMPDEST DUP1 PUSH1 0x65 PUSH1 0x0 PUSH2 0x100 EXP DUP2 SLOAD DUP2 PUSH20 0xFFFFFFFFFFFFFFFFFFFFFFFFFFFFFFFFFFFFFFFF MUL NOT AND SWAP1 DUP4 PUSH20 0xFFFFFFFFFFFFFFFFFFFFFFFFFFFFFFFFFFFFFFFF AND MUL OR SWAP1 SSTORE POP DUP1 PUSH20 0xFFFFFFFFFFFFFFFFFFFFFFFFFFFFFFFFFFFFFFFF AND PUSH2 0x1F3F PUSH2 0x1136 JUMP JUMPDEST PUSH20 0xFFFFFFFFFFFFFFFFFFFFFFFFFFFFFFFFFFFFFFFF AND PUSH32 0x38D16B8CAC22D99FC7C124B9CD0DE2D3FA1FAEF420BFE791D8C362D765E22700 PUSH1 0x40 MLOAD PUSH1 0x40 MLOAD DUP1 SWAP2 SUB SWAP1 LOG3 POP JUMP JUMPDEST PUSH2 0x1F8C PUSH2 0x2096 JUMP JUMPDEST PUSH20 0xFFFFFFFFFFFFFFFFFFFFFFFFFFFFFFFFFFFFFFFF AND PUSH2 0x1FAA PUSH2 0x1136 JUMP JUMPDEST PUSH20 0xFFFFFFFFFFFFFFFFFFFFFFFFFFFFFFFFFFFFFFFF AND EQ PUSH2 0x2000 JUMPI PUSH1 0x40 MLOAD PUSH32 0x8C379A000000000000000000000000000000000000000000000000000000000 DUP2 MSTORE PUSH1 0x4 ADD PUSH2 0x1FF7 SWAP1 PUSH2 0x3AB6 JUMP JUMPDEST PUSH1 0x40 MLOAD DUP1 SWAP2 SUB SWAP1 REVERT JUMPDEST JUMP JUMPDEST PUSH2 0x200A PUSH2 0x241B JUMP JUMPDEST PUSH1 0x0 PUSH1 0xCF PUSH1 0x0 PUSH2 0x100 EXP DUP2 SLOAD DUP2 PUSH1 0xFF MUL NOT AND SWAP1 DUP4 ISZERO ISZERO MUL OR SWAP1 SSTORE POP PUSH32 0x5DB9EE0A495BF2E6FF9C91A7834C1BA4FDD244A5E8AA4E537BD38AEAE4B073AA PUSH2 0x204E PUSH2 0x2096 JUMP JUMPDEST PUSH1 0x40 MLOAD PUSH2 0x205B SWAP2 SWAP1 PUSH2 0x2CAF JUMP JUMPDEST PUSH1 0x40 MLOAD DUP1 SWAP2 SUB SWAP1 LOG1 JUMP JUMPDEST PUSH1 0x65 PUSH1 0x0 PUSH2 0x100 EXP DUP2 SLOAD SWAP1 PUSH20 0xFFFFFFFFFFFFFFFFFFFFFFFFFFFFFFFFFFFFFFFF MUL NOT AND SWAP1 SSTORE PUSH2 0x2093 DUP2 PUSH2 0x2464 JUMP JUMPDEST POP JUMP JUMPDEST PUSH1 0x0 CALLER SWAP1 POP SWAP1 JUMP JUMPDEST PUSH1 0x0 DUP1 DUP3 PUSH20 0xFFFFFFFFFFFFFFFFFFFFFFFFFFFFFFFFFFFFFFFF AND EXTCODESIZE GT SWAP1 POP SWAP2 SWAP1 POP JUMP JUMPDEST PUSH1 0x0 PUSH1 0x1 SWAP1 SLOAD SWAP1 PUSH2 0x100 EXP SWAP1 DIV PUSH1 0xFF AND PUSH2 0x2110 JUMPI PUSH1 0x40 MLOAD PUSH32 0x8C379A000000000000000000000000000000000000000000000000000000000 DUP2 MSTORE PUSH1 0x4 ADD PUSH2 0x2107 SWAP1 PUSH2 0x3B48 JUMP JUMPDEST PUSH1 0x40 MLOAD DUP1 SWAP2 SUB SWAP1 REVERT JUMPDEST PUSH2 0x2118 PUSH2 0x252A JUMP JUMPDEST JUMP JUMPDEST PUSH1 0x0 PUSH1 0x1 SWAP1 SLOAD SWAP1 PUSH2 0x100 EXP SWAP1 DIV PUSH1 0xFF AND PUSH2 0x2169 JUMPI PUSH1 0x40 MLOAD PUSH32 0x8C379A000000000000000000000000000000000000000000000000000000000 DUP2 MSTORE PUSH1 0x4 ADD PUSH2 0x2160 SWAP1 PUSH2 0x3B48 JUMP JUMPDEST PUSH1 0x40 MLOAD DUP1 SWAP2 SUB SWAP1 REVERT JUMPDEST PUSH2 0x2171 PUSH2 0x258B JUMP JUMPDEST JUMP JUMPDEST PUSH2 0x217B PUSH2 0x21D6 JUMP JUMPDEST PUSH1 0x1 PUSH1 0xCF PUSH1 0x0 PUSH2 0x100 EXP DUP2 SLOAD DUP2 PUSH1 0xFF MUL NOT AND SWAP1 DUP4 ISZERO ISZERO MUL OR SWAP1 SSTORE POP PUSH32 0x62E78CEA01BEE320CD4E420270B5EA74000D11B0C9F74754EBDBFC544B05A258 PUSH2 0x21BF PUSH2 0x2096 JUMP JUMPDEST PUSH1 0x40 MLOAD PUSH2 0x21CC SWAP2 SWAP1 PUSH2 0x2CAF JUMP JUMPDEST PUSH1 0x40 MLOAD DUP1 SWAP2 SUB SWAP1 LOG1 JUMP JUMPDEST PUSH2 0x21DE PUSH2 0x807 JUMP JUMPDEST ISZERO PUSH2 0x221E JUMPI PUSH1 0x40 MLOAD PUSH32 0x8C379A000000000000000000000000000000000000000000000000000000000 DUP2 MSTORE PUSH1 0x4 ADD PUSH2 0x2215 SWAP1 PUSH2 0x3BB4 JUMP JUMPDEST PUSH1 0x40 MLOAD DUP1 SWAP2 SUB SWAP1 REVERT JUMPDEST JUMP JUMPDEST PUSH1 0x1 PUSH1 0xCC PUSH1 0x0 DUP9 PUSH20 0xFFFFFFFFFFFFFFFFFFFFFFFFFFFFFFFFFFFFFFFF AND PUSH20 0xFFFFFFFFFFFFFFFFFFFFFFFFFFFFFFFFFFFFFFFF AND DUP2 MSTORE PUSH1 0x20 ADD SWAP1 DUP2 MSTORE PUSH1 0x20 ADD PUSH1 0x0 KECCAK256 SLOAD EQ PUSH2 0x22A2 JUMPI PUSH1 0x40 MLOAD PUSH32 0x8C379A000000000000000000000000000000000000000000000000000000000 DUP2 MSTORE PUSH1 0x4 ADD PUSH2 0x2299 SWAP1 PUSH2 0x3C20 JUMP JUMPDEST PUSH1 0x40 MLOAD DUP1 SWAP2 SUB SWAP1 REVERT JUMPDEST PUSH1 0x0 DUP6 SUB PUSH2 0x22E5 JUMPI PUSH1 0x40 MLOAD PUSH32 0x8C379A000000000000000000000000000000000000000000000000000000000 DUP2 MSTORE PUSH1 0x4 ADD PUSH2 0x22DC SWAP1 PUSH2 0x3C8C JUMP JUMPDEST PUSH1 0x40 MLOAD DUP1 SWAP2 SUB SWAP1 REVERT JUMPDEST PUSH1 0x0 PUSH20 0xFFFFFFFFFFFFFFFFFFFFFFFFFFFFFFFFFFFFFFFF AND DUP5 PUSH20 0xFFFFFFFFFFFFFFFFFFFFFFFFFFFFFFFFFFFFFFFF AND SUB PUSH2 0x2354 JUMPI PUSH1 0x40 MLOAD PUSH32 0x8C379A000000000000000000000000000000000000000000000000000000000 DUP2 MSTORE PUSH1 0x4 ADD PUSH2 0x234B SWAP1 PUSH2 0x3CF8 JUMP JUMPDEST PUSH1 0x40 MLOAD DUP1 SWAP2 SUB SWAP1 REVERT JUMPDEST PUSH1 0x0 PUSH1 0x20 PUSH1 0xFF AND GT PUSH2 0x239B JUMPI PUSH1 0x40 MLOAD PUSH32 0x8C379A000000000000000000000000000000000000000000000000000000000 DUP2 MSTORE PUSH1 0x4 ADD PUSH2 0x2392 SWAP1 PUSH2 0x3D64 JUMP JUMPDEST PUSH1 0x40 MLOAD DUP1 SWAP2 SUB SWAP1 REVERT JUMPDEST PUSH1 0x0 DUP3 EQ PUSH2 0x2413 JUMPI PUSH1 0x0 PUSH20 0xFFFFFFFFFFFFFFFFFFFFFFFFFFFFFFFFFFFFFFFF AND DUP4 PUSH20 0xFFFFFFFFFFFFFFFFFFFFFFFFFFFFFFFFFFFFFFFF AND SUB PUSH2 0x2412 JUMPI PUSH1 0x40 MLOAD PUSH32 0x8C379A000000000000000000000000000000000000000000000000000000000 DUP2 MSTORE PUSH1 0x4 ADD PUSH2 0x2409 SWAP1 PUSH2 0x3DD0 JUMP JUMPDEST PUSH1 0x40 MLOAD DUP1 SWAP2 SUB SWAP1 REVERT JUMPDEST JUMPDEST POP POP POP POP POP POP JUMP JUMPDEST PUSH2 0x2423 PUSH2 0x807 JUMP JUMPDEST PUSH2 0x2462 JUMPI PUSH1 0x40 MLOAD PUSH32 0x8C379A000000000000000000000000000000000000000000000000000000000 DUP2 MSTORE PUSH1 0x4 ADD PUSH2 0x2459 SWAP1 PUSH2 0x3E3C JUMP JUMPDEST PUSH1 0x40 MLOAD DUP1 SWAP2 SUB SWAP1 REVERT JUMPDEST JUMP JUMPDEST PUSH1 0x0 PUSH1 0x33 PUSH1 0x0 SWAP1 SLOAD SWAP1 PUSH2 0x100 EXP SWAP1 DIV PUSH20 0xFFFFFFFFFFFFFFFFFFFFFFFFFFFFFFFFFFFFFFFF AND SWAP1 POP DUP2 PUSH1 0x33 PUSH1 0x0 PUSH2 0x100 EXP DUP2 SLOAD DUP2 PUSH20 0xFFFFFFFFFFFFFFFFFFFFFFFFFFFFFFFFFFFFFFFF MUL NOT AND SWAP1 DUP4 PUSH20 0xFFFFFFFFFFFFFFFFFFFFFFFFFFFFFFFFFFFFFFFF AND MUL OR SWAP1 SSTORE POP DUP2 PUSH20 0xFFFFFFFFFFFFFFFFFFFFFFFFFFFFFFFFFFFFFFFF AND DUP2 PUSH20 0xFFFFFFFFFFFFFFFFFFFFFFFFFFFFFFFFFFFFFFFF AND PUSH32 0x8BE0079C531659141344CD1FD0A4F28419497F9722A3DAAFE3B4186F6B6457E0 PUSH1 0x40 MLOAD PUSH1 0x40 MLOAD DUP1 SWAP2 SUB SWAP1 LOG3 POP POP JUMP JUMPDEST PUSH1 0x0 PUSH1 0x1 SWAP1 SLOAD SWAP1 PUSH2 0x100 EXP SWAP1 DIV PUSH1 0xFF AND PUSH2 0x2579 JUMPI PUSH1 0x40 MLOAD PUSH32 0x8C379A000000000000000000000000000000000000000000000000000000000 DUP2 MSTORE PUSH1 0x4 ADD PUSH2 0x2570 SWAP1 PUSH2 0x3B48 JUMP JUMPDEST PUSH1 0x40 MLOAD DUP1 SWAP2 SUB SWAP1 REVERT JUMPDEST PUSH2 0x2589 PUSH2 0x2584 PUSH2 0x2096 JUMP JUMPDEST PUSH2 0x2065 JUMP JUMPDEST JUMP JUMPDEST PUSH1 0x0 PUSH1 0x1 SWAP1 SLOAD SWAP1 PUSH2 0x100 EXP SWAP1 DIV PUSH1 0xFF AND PUSH2 0x25DA JUMPI PUSH1 0x40 MLOAD PUSH32 0x8C379A000000000000000000000000000000000000000000000000000000000 DUP2 MSTORE PUSH1 0x4 ADD PUSH2 0x25D1 SWAP1 PUSH2 0x3B48 JUMP JUMPDEST PUSH1 0x40 MLOAD DUP1 SWAP2 SUB SWAP1 REVERT JUMPDEST PUSH1 0x0 PUSH1 0xCF PUSH1 0x0 PUSH2 0x100 EXP DUP2 SLOAD DUP2 PUSH1 0xFF MUL NOT AND SWAP1 DUP4 ISZERO ISZERO MUL OR SWAP1 SSTORE POP JUMP JUMPDEST POP DUP1 SLOAD PUSH1 0x0 DUP3 SSTORE PUSH1 0x2 MUL SWAP1 PUSH1 0x0 MSTORE PUSH1 0x20 PUSH1 0x0 KECCAK256 SWAP1 DUP2 ADD SWAP1 PUSH2 0x2618 SWAP2 SWAP1 PUSH2 0x26D8 JUMP JUMPDEST POP JUMP JUMPDEST PUSH1 0x40 MLOAD DUP1 PUSH2 0x140 ADD PUSH1 0x40 MSTORE DUP1 PUSH1 0x0 PUSH20 0xFFFFFFFFFFFFFFFFFFFFFFFFFFFFFFFFFFFFFFFF AND DUP2 MSTORE PUSH1 0x20 ADD PUSH1 0x0 PUSH20 0xFFFFFFFFFFFFFFFFFFFFFFFFFFFFFFFFFFFFFFFF AND DUP2 MSTORE PUSH1 0x20 ADD PUSH1 0x0 PUSH20 0xFFFFFFFFFFFFFFFFFFFFFFFFFFFFFFFFFFFFFFFF AND DUP2 MSTORE PUSH1 0x20 ADD PUSH1 0x0 DUP2 MSTORE PUSH1 0x20 ADD PUSH1 0x0 DUP2 MSTORE PUSH1 0x20 ADD PUSH1 0x0 ISZERO ISZERO DUP2 MSTORE PUSH1 0x20 ADD PUSH1 0x0 ISZERO ISZERO DUP2 MSTORE PUSH1 0x20 ADD PUSH1 0x0 PUSH20 0xFFFFFFFFFFFFFFFFFFFFFFFFFFFFFFFFFFFFFFFF AND DUP2 MSTORE PUSH1 0x20 ADD PUSH1 0x0 PUSH12 0xFFFFFFFFFFFFFFFFFFFFFFFF AND DUP2 MSTORE PUSH1 0x20 ADD PUSH1 0x0 DUP2 MSTORE POP SWAP1 JUMP JUMPDEST JUMPDEST DUP1 DUP3 GT ISZERO PUSH2 0x26FB JUMPI PUSH1 0x0 DUP1 DUP3 ADD PUSH1 0x0 SWAP1 SSTORE PUSH1 0x1 DUP3 ADD PUSH1 0x0 SWAP1 SSTORE POP PUSH1 0x2 ADD PUSH2 0x26D9 JUMP JUMPDEST POP SWAP1 JUMP JUMPDEST PUSH1 0x0 PUSH1 0x40 MLOAD SWAP1 POP SWAP1 JUMP JUMPDEST PUSH1 0x0 DUP1 REVERT JUMPDEST PUSH1 0x0 DUP1 REVERT JUMPDEST PUSH1 0x0 DUP2 SWAP1 POP SWAP2 SWAP1 POP JUMP JUMPDEST PUSH2 0x2726 DUP2 PUSH2 0x2713 JUMP JUMPDEST DUP2 EQ PUSH2 0x2731 JUMPI PUSH1 0x0 DUP1 REVERT JUMPDEST POP JUMP JUMPDEST PUSH1 0x0 DUP2 CALLDATALOAD SWAP1 POP PUSH2 0x2743 DUP2 PUSH2 0x271D JUMP JUMPDEST SWAP3 SWAP2 POP POP JUMP JUMPDEST PUSH1 0x0 DUP1 REVERT JUMPDEST PUSH1 0x0 PUSH1 0x1F NOT PUSH1 0x1F DUP4 ADD AND SWAP1 POP SWAP2 SWAP1 POP JUMP JUMPDEST PUSH32 0x4E487B7100000000000000000000000000000000000000000000000000000000 PUSH1 0x0 MSTORE PUSH1 0x41 PUSH1 0x4 MSTORE PUSH1 0x24 PUSH1 0x0 REVERT JUMPDEST PUSH2 0x2797 DUP3 PUSH2 0x274E JUMP JUMPDEST DUP2 ADD DUP2 DUP2 LT PUSH8 0xFFFFFFFFFFFFFFFF DUP3 GT OR ISZERO PUSH2 0x27B6 JUMPI PUSH2 0x27B5 PUSH2 0x275F JUMP JUMPDEST JUMPDEST DUP1 PUSH1 0x40 MSTORE POP POP POP JUMP JUMPDEST PUSH1 0x0 PUSH2 0x27C9 PUSH2 0x26FF JUMP JUMPDEST SWAP1 POP PUSH2 0x27D5 DUP3 DUP3 PUSH2 0x278E JUMP JUMPDEST SWAP2 SWAP1 POP JUMP JUMPDEST PUSH1 0x0 PUSH8 0xFFFFFFFFFFFFFFFF DUP3 GT ISZERO PUSH2 0x27F5 JUMPI PUSH2 0x27F4 PUSH2 0x275F JUMP JUMPDEST JUMPDEST PUSH1 0x20 DUP3 MUL SWAP1 POP PUSH1 0x20 DUP2 ADD SWAP1 POP SWAP2 SWAP1 POP JUMP JUMPDEST PUSH1 0x0 DUP1 REVERT JUMPDEST PUSH1 0x0 DUP1 REVERT JUMPDEST PUSH1 0x0 PUSH1 0x40 DUP3 DUP5 SUB SLT ISZERO PUSH2 0x2826 JUMPI PUSH2 0x2825 PUSH2 0x280B JUMP JUMPDEST JUMPDEST PUSH2 0x2830 PUSH1 0x40 PUSH2 0x27BF JUMP JUMPDEST SWAP1 POP PUSH1 0x0 PUSH2 0x2840 DUP5 DUP3 DUP6 ADD PUSH2 0x2734 JUMP JUMPDEST PUSH1 0x0 DUP4 ADD MSTORE POP PUSH1 0x20 PUSH2 0x2854 DUP5 DUP3 DUP6 ADD PUSH2 0x2734 JUMP JUMPDEST PUSH1 0x20 DUP4 ADD MSTORE POP SWAP3 SWAP2 POP POP JUMP JUMPDEST PUSH1 0x0 PUSH2 0x2873 PUSH2 0x286E DUP5 PUSH2 0x27DA JUMP JUMPDEST PUSH2 0x27BF JUMP JUMPDEST SWAP1 POP DUP1 DUP4 DUP3 MSTORE PUSH1 0x20 DUP3 ADD SWAP1 POP PUSH1 0x40 DUP5 MUL DUP4 ADD DUP6 DUP2 GT ISZERO PUSH2 0x2896 JUMPI PUSH2 0x2895 PUSH2 0x2806 JUMP JUMPDEST JUMPDEST DUP4 JUMPDEST DUP2 DUP2 LT ISZERO PUSH2 0x28BF JUMPI DUP1 PUSH2 0x28AB DUP9 DUP3 PUSH2 0x2810 JUMP JUMPDEST DUP5 MSTORE PUSH1 0x20 DUP5 ADD SWAP4 POP POP PUSH1 0x40 DUP2 ADD SWAP1 POP PUSH2 0x2898 JUMP JUMPDEST POP POP POP SWAP4 SWAP3 POP POP POP JUMP JUMPDEST PUSH1 0x0 DUP3 PUSH1 0x1F DUP4 ADD SLT PUSH2 0x28DE JUMPI PUSH2 0x28DD PUSH2 0x2749 JUMP JUMPDEST JUMPDEST DUP2 CALLDATALOAD PUSH2 0x28EE DUP5 DUP3 PUSH1 0x20 DUP7 ADD PUSH2 0x2860 JUMP JUMPDEST SWAP2 POP POP SWAP3 SWAP2 POP POP JUMP JUMPDEST PUSH1 0x0 DUP1 PUSH1 0x40 DUP4 DUP6 SUB SLT ISZERO PUSH2 0x290E JUMPI PUSH2 0x290D PUSH2 0x2709 JUMP JUMPDEST JUMPDEST PUSH1 0x0 PUSH2 0x291C DUP6 DUP3 DUP7 ADD PUSH2 0x2734 JUMP JUMPDEST SWAP3 POP POP PUSH1 0x20 DUP4 ADD CALLDATALOAD PUSH8 0xFFFFFFFFFFFFFFFF DUP2 GT ISZERO PUSH2 0x293D JUMPI PUSH2 0x293C PUSH2 0x270E JUMP JUMPDEST JUMPDEST PUSH2 0x2949 DUP6 DUP3 DUP7 ADD PUSH2 0x28C9 JUMP JUMPDEST SWAP2 POP POP SWAP3 POP SWAP3 SWAP1 POP JUMP JUMPDEST PUSH1 0x0 PUSH20 0xFFFFFFFFFFFFFFFFFFFFFFFFFFFFFFFFFFFFFFFF DUP3 AND SWAP1 POP SWAP2 SWAP1 POP JUMP JUMPDEST PUSH1 0x0 PUSH2 0x297E DUP3 PUSH2 0x2953 JUMP JUMPDEST SWAP1 POP SWAP2 SWAP1 POP JUMP JUMPDEST PUSH2 0x298E DUP2 PUSH2 0x2973 JUMP JUMPDEST DUP2 EQ PUSH2 0x2999 JUMPI PUSH1 0x0 DUP1 REVERT JUMPDEST POP JUMP JUMPDEST PUSH1 0x0 DUP2 CALLDATALOAD SWAP1 POP PUSH2 0x29AB DUP2 PUSH2 0x2985 JUMP JUMPDEST SWAP3 SWAP2 POP POP JUMP JUMPDEST PUSH1 0x0 DUP1 PUSH1 0x40 DUP4 DUP6 SUB SLT ISZERO PUSH2 0x29C8 JUMPI PUSH2 0x29C7 PUSH2 0x2709 JUMP JUMPDEST JUMPDEST PUSH1 0x0 PUSH2 0x29D6 DUP6 DUP3 DUP7 ADD PUSH2 0x2734 JUMP JUMPDEST SWAP3 POP POP PUSH1 0x20 PUSH2 0x29E7 DUP6 DUP3 DUP7 ADD PUSH2 0x299C JUMP JUMPDEST SWAP2 POP POP SWAP3 POP SWAP3 SWAP1 POP JUMP JUMPDEST PUSH1 0x0 PUSH8 0xFFFFFFFFFFFFFFFF DUP3 AND SWAP1 POP SWAP2 SWAP1 POP JUMP JUMPDEST PUSH2 0x2A0E DUP2 PUSH2 0x29F1 JUMP JUMPDEST DUP2 EQ PUSH2 0x2A19 JUMPI PUSH1 0x0 DUP1 REVERT JUMPDEST POP JUMP JUMPDEST PUSH1 0x0 DUP2 CALLDATALOAD SWAP1 POP PUSH2 0x2A2B DUP2 PUSH2 0x2A05 JUMP JUMPDEST SWAP3 SWAP2 POP POP JUMP JUMPDEST PUSH1 0x0 PUSH1 0x20 DUP3 DUP5 SUB SLT ISZERO PUSH2 0x2A47 JUMPI PUSH2 0x2A46 PUSH2 0x2709 JUMP JUMPDEST JUMPDEST PUSH1 0x0 PUSH2 0x2A55 DUP5 DUP3 DUP6 ADD PUSH2 0x2A1C JUMP JUMPDEST SWAP2 POP POP SWAP3 SWAP2 POP POP JUMP JUMPDEST PUSH1 0x0 DUP2 ISZERO ISZERO SWAP1 POP SWAP2 SWAP1 POP JUMP JUMPDEST PUSH2 0x2A73 DUP2 PUSH2 0x2A5E JUMP JUMPDEST DUP3 MSTORE POP POP JUMP JUMPDEST PUSH1 0x0 PUSH1 0x20 DUP3 ADD SWAP1 POP PUSH2 0x2A8E PUSH1 0x0 DUP4 ADD DUP5 PUSH2 0x2A6A JUMP JUMPDEST SWAP3 SWAP2 POP POP JUMP JUMPDEST PUSH1 0x0 DUP2 SWAP1 POP SWAP2 SWAP1 POP JUMP JUMPDEST PUSH2 0x2AA7 DUP2 PUSH2 0x2A94 JUMP JUMPDEST DUP2 EQ PUSH2 0x2AB2 JUMPI PUSH1 0x0 DUP1 REVERT JUMPDEST POP JUMP JUMPDEST PUSH1 0x0 DUP2 CALLDATALOAD SWAP1 POP PUSH2 0x2AC4 DUP2 PUSH2 0x2A9E JUMP JUMPDEST SWAP3 SWAP2 POP POP JUMP JUMPDEST PUSH1 0x0 DUP1 PUSH1 0x40 DUP4 DUP6 SUB SLT ISZERO PUSH2 0x2AE1 JUMPI PUSH2 0x2AE0 PUSH2 0x2709 JUMP JUMPDEST JUMPDEST PUSH1 0x0 PUSH2 0x2AEF DUP6 DUP3 DUP7 ADD PUSH2 0x2AB5 JUMP JUMPDEST SWAP3 POP POP PUSH1 0x20 PUSH2 0x2B00 DUP6 DUP3 DUP7 ADD PUSH2 0x2734 JUMP JUMPDEST SWAP2 POP POP SWAP3 POP SWAP3 SWAP1 POP JUMP JUMPDEST PUSH1 0x0 PUSH1 0x20 DUP3 DUP5 SUB SLT ISZERO PUSH2 0x2B20 JUMPI PUSH2 0x2B1F PUSH2 0x2709 JUMP JUMPDEST JUMPDEST PUSH1 0x0 PUSH2 0x2B2E DUP5 DUP3 DUP6 ADD PUSH2 0x299C JUMP JUMPDEST SWAP2 POP POP SWAP3 SWAP2 POP POP JUMP JUMPDEST PUSH1 0x0 PUSH1 0x20 DUP3 DUP5 SUB SLT ISZERO PUSH2 0x2B4D JUMPI PUSH2 0x2B4C PUSH2 0x2709 JUMP JUMPDEST JUMPDEST PUSH1 0x0 PUSH2 0x2B5B DUP5 DUP3 DUP6 ADD PUSH2 0x2734 JUMP JUMPDEST SWAP2 POP POP SWAP3 SWAP2 POP POP JUMP JUMPDEST PUSH2 0x2B6D DUP2 PUSH2 0x2973 JUMP JUMPDEST DUP3 MSTORE POP POP JUMP JUMPDEST PUSH2 0x2B7C DUP2 PUSH2 0x2A94 JUMP JUMPDEST DUP3 MSTORE POP POP JUMP JUMPDEST PUSH2 0x2B8B DUP2 PUSH2 0x2A5E JUMP JUMPDEST DUP3 MSTORE POP POP JUMP JUMPDEST PUSH1 0x0 PUSH12 0xFFFFFFFFFFFFFFFFFFFFFFFF DUP3 AND SWAP1 POP SWAP2 SWAP1 POP JUMP JUMPDEST PUSH2 0x2BB2 DUP2 PUSH2 0x2B91 JUMP JUMPDEST DUP3 MSTORE POP POP JUMP JUMPDEST PUSH2 0x140 DUP3 ADD PUSH1 0x0 DUP3 ADD MLOAD PUSH2 0x2BCF PUSH1 0x0 DUP6 ADD DUP3 PUSH2 0x2B64 JUMP JUMPDEST POP PUSH1 0x20 DUP3 ADD MLOAD PUSH2 0x2BE2 PUSH1 0x20 DUP6 ADD DUP3 PUSH2 0x2B64 JUMP JUMPDEST POP PUSH1 0x40 DUP3 ADD MLOAD PUSH2 0x2BF5 PUSH1 0x40 DUP6 ADD DUP3 PUSH2 0x2B64 JUMP JUMPDEST POP PUSH1 0x60 DUP3 ADD MLOAD PUSH2 0x2C08 PUSH1 0x60 DUP6 ADD DUP3 PUSH2 0x2B73 JUMP JUMPDEST POP PUSH1 0x80 DUP3 ADD MLOAD PUSH2 0x2C1B PUSH1 0x80 DUP6 ADD DUP3 PUSH2 0x2B73 JUMP JUMPDEST POP PUSH1 0xA0 DUP3 ADD MLOAD PUSH2 0x2C2E PUSH1 0xA0 DUP6 ADD DUP3 PUSH2 0x2B82 JUMP JUMPDEST POP PUSH1 0xC0 DUP3 ADD MLOAD PUSH2 0x2C41 PUSH1 0xC0 DUP6 ADD DUP3 PUSH2 0x2B82 JUMP JUMPDEST POP PUSH1 0xE0 DUP3 ADD MLOAD PUSH2 0x2C54 PUSH1 0xE0 DUP6 ADD DUP3 PUSH2 0x2B64 JUMP JUMPDEST POP PUSH2 0x100 DUP3 ADD MLOAD PUSH2 0x2C69 PUSH2 0x100 DUP6 ADD DUP3 PUSH2 0x2BA9 JUMP JUMPDEST POP PUSH2 0x120 DUP3 ADD MLOAD PUSH2 0x2C7E PUSH2 0x120 DUP6 ADD DUP3 PUSH2 0x2B73 JUMP JUMPDEST POP POP POP POP JUMP JUMPDEST PUSH1 0x0 PUSH2 0x140 DUP3 ADD SWAP1 POP PUSH2 0x2C9A PUSH1 0x0 DUP4 ADD DUP5 PUSH2 0x2BB8 JUMP JUMPDEST SWAP3 SWAP2 POP POP JUMP JUMPDEST PUSH2 0x2CA9 DUP2 PUSH2 0x2973 JUMP JUMPDEST DUP3 MSTORE POP POP JUMP JUMPDEST PUSH1 0x0 PUSH1 0x20 DUP3 ADD SWAP1 POP PUSH2 0x2CC4 PUSH1 0x0 DUP4 ADD DUP5 PUSH2 0x2CA0 JUMP JUMPDEST SWAP3 SWAP2 POP POP JUMP JUMPDEST PUSH2 0x2CD3 DUP2 PUSH2 0x29F1 JUMP JUMPDEST DUP3 MSTORE POP POP JUMP JUMPDEST PUSH2 0x2CE2 DUP2 PUSH2 0x2A94 JUMP JUMPDEST DUP3 MSTORE POP POP JUMP JUMPDEST PUSH1 0x0 PUSH1 0x40 DUP3 ADD SWAP1 POP PUSH2 0x2CFD PUSH1 0x0 DUP4 ADD DUP6 PUSH2 0x2CCA JUMP JUMPDEST PUSH2 0x2D0A PUSH1 0x20 DUP4 ADD DUP5 PUSH2 0x2CD9 JUMP JUMPDEST SWAP4 SWAP3 POP POP POP JUMP JUMPDEST PUSH1 0x0 DUP1 PUSH1 0x0 PUSH1 0x60 DUP5 DUP7 SUB SLT ISZERO PUSH2 0x2D2A JUMPI PUSH2 0x2D29 PUSH2 0x2709 JUMP JUMPDEST JUMPDEST PUSH1 0x0 PUSH2 0x2D38 DUP7 DUP3 DUP8 ADD PUSH2 0x2734 JUMP JUMPDEST SWAP4 POP POP PUSH1 0x20 PUSH2 0x2D49 DUP7 DUP3 DUP8 ADD PUSH2 0x299C JUMP JUMPDEST SWAP3 POP POP PUSH1 0x40 PUSH2 0x2D5A DUP7 DUP3 DUP8 ADD PUSH2 0x2AB5 JUMP JUMPDEST SWAP2 POP POP SWAP3 POP SWAP3 POP SWAP3 JUMP JUMPDEST PUSH2 0x2D6D DUP2 PUSH2 0x2B91 JUMP JUMPDEST DUP2 EQ PUSH2 0x2D78 JUMPI PUSH1 0x0 DUP1 REVERT JUMPDEST POP JUMP JUMPDEST PUSH1 0x0 DUP2 CALLDATALOAD SWAP1 POP PUSH2 0x2D8A DUP2 PUSH2 0x2D64 JUMP JUMPDEST SWAP3 SWAP2 POP POP JUMP JUMPDEST PUSH1 0x0 DUP1 REVERT JUMPDEST PUSH1 0x0 DUP1 DUP4 PUSH1 0x1F DUP5 ADD SLT PUSH2 0x2DAB JUMPI PUSH2 0x2DAA PUSH2 0x2749 JUMP JUMPDEST JUMPDEST DUP3 CALLDATALOAD SWAP1 POP PUSH8 0xFFFFFFFFFFFFFFFF DUP2 GT ISZERO PUSH2 0x2DC8 JUMPI PUSH2 0x2DC7 PUSH2 0x2D90 JUMP JUMPDEST JUMPDEST PUSH1 0x20 DUP4 ADD SWAP2 POP DUP4 PUSH1 0x1 DUP3 MUL DUP4 ADD GT ISZERO PUSH2 0x2DE4 JUMPI PUSH2 0x2DE3 PUSH2 0x2806 JUMP JUMPDEST JUMPDEST SWAP3 POP SWAP3 SWAP1 POP JUMP JUMPDEST PUSH1 0x0 DUP1 PUSH1 0x0 DUP1 PUSH1 0x0 DUP1 PUSH1 0x0 DUP1 PUSH1 0x0 PUSH2 0x100 DUP11 DUP13 SUB SLT ISZERO PUSH2 0x2E0E JUMPI PUSH2 0x2E0D PUSH2 0x2709 JUMP JUMPDEST JUMPDEST PUSH1 0x0 PUSH2 0x2E1C DUP13 DUP3 DUP14 ADD PUSH2 0x299C JUMP JUMPDEST SWAP10 POP POP PUSH1 0x20 PUSH2 0x2E2D DUP13 DUP3 DUP14 ADD PUSH2 0x2AB5 JUMP JUMPDEST SWAP9 POP POP PUSH1 0x40 PUSH2 0x2E3E DUP13 DUP3 DUP14 ADD PUSH2 0x2734 JUMP JUMPDEST SWAP8 POP POP PUSH1 0x60 PUSH2 0x2E4F DUP13 DUP3 DUP14 ADD PUSH2 0x2D7B JUMP JUMPDEST SWAP7 POP POP PUSH1 0x80 PUSH2 0x2E60 DUP13 DUP3 DUP14 ADD PUSH2 0x299C JUMP JUMPDEST SWAP6 POP POP PUSH1 0xA0 PUSH2 0x2E71 DUP13 DUP3 DUP14 ADD PUSH2 0x2AB5 JUMP JUMPDEST SWAP5 POP POP PUSH1 0xC0 PUSH2 0x2E82 DUP13 DUP3 DUP14 ADD PUSH2 0x299C JUMP JUMPDEST SWAP4 POP POP PUSH1 0xE0 DUP11 ADD CALLDATALOAD PUSH8 0xFFFFFFFFFFFFFFFF DUP2 GT ISZERO PUSH2 0x2EA3 JUMPI PUSH2 0x2EA2 PUSH2 0x270E JUMP JUMPDEST JUMPDEST PUSH2 0x2EAF DUP13 DUP3 DUP14 ADD PUSH2 0x2D95 JUMP JUMPDEST SWAP3 POP SWAP3 POP POP SWAP3 SWAP6 SWAP9 POP SWAP3 SWAP6 SWAP9 POP SWAP3 SWAP6 SWAP9 JUMP JUMPDEST PUSH2 0x2ECA DUP2 PUSH2 0x2713 JUMP JUMPDEST DUP3 MSTORE POP POP JUMP JUMPDEST PUSH1 0x0 PUSH1 0x20 DUP3 ADD SWAP1 POP PUSH2 0x2EE5 PUSH1 0x0 DUP4 ADD DUP5 PUSH2 0x2EC1 JUMP JUMPDEST SWAP3 SWAP2 POP POP JUMP JUMPDEST PUSH1 0x0 DUP1 PUSH1 0x0 DUP1 PUSH1 0x80 DUP6 DUP8 SUB SLT ISZERO PUSH2 0x2F05 JUMPI PUSH2 0x2F04 PUSH2 0x2709 JUMP JUMPDEST JUMPDEST PUSH1 0x0 PUSH2 0x2F13 DUP8 DUP3 DUP9 ADD PUSH2 0x2734 JUMP JUMPDEST SWAP5 POP POP PUSH1 0x20 PUSH2 0x2F24 DUP8 DUP3 DUP9 ADD PUSH2 0x2734 JUMP JUMPDEST SWAP4 POP POP PUSH1 0x40 PUSH2 0x2F35 DUP8 DUP3 DUP9 ADD PUSH2 0x299C JUMP JUMPDEST SWAP3 POP POP PUSH1 0x60 PUSH2 0x2F46 DUP8 DUP3 DUP9 ADD PUSH2 0x2A1C JUMP JUMPDEST SWAP2 POP POP SWAP3 SWAP6 SWAP2 SWAP5 POP SWAP3 POP JUMP JUMPDEST PUSH32 0x4E487B7100000000000000000000000000000000000000000000000000000000 PUSH1 0x0 MSTORE PUSH1 0x32 PUSH1 0x4 MSTORE PUSH1 0x24 PUSH1 0x0 REVERT JUMPDEST PUSH1 0x0 DUP2 SLOAD SWAP1 POP SWAP2 SWAP1 POP JUMP JUMPDEST PUSH1 0x0 DUP3 DUP3 MSTORE PUSH1 0x20 DUP3 ADD SWAP1 POP SWAP3 SWAP2 POP POP JUMP JUMPDEST PUSH1 0x0 DUP2 SWAP1 POP DUP2 PUSH1 0x0 MSTORE PUSH1 0x20 PUSH1 0x0 KECCAK256 SWAP1 POP SWAP2 SWAP1 POP JUMP JUMPDEST PUSH1 0x0 DUP2 PUSH1 0x0 SHR SWAP1 POP SWAP2 SWAP1 POP JUMP JUMPDEST PUSH1 0x0 DUP2 SWAP1 POP SWAP2 SWAP1 POP JUMP JUMPDEST PUSH1 0x0 PUSH2 0x2FDC PUSH2 0x2FD7 DUP4 PUSH2 0x2FB2 JUMP JUMPDEST PUSH2 0x2FBF JUMP JUMPDEST SWAP1 POP SWAP2 SWAP1 POP JUMP JUMPDEST PUSH2 0x2FEC DUP2 PUSH2 0x2713 JUMP JUMPDEST DUP3 MSTORE POP POP JUMP JUMPDEST PUSH1 0x40 DUP3 ADD PUSH1 0x0 DUP1 DUP4 ADD SLOAD SWAP1 POP PUSH2 0x3007 DUP2 PUSH2 0x2FC9 JUMP JUMPDEST PUSH2 0x3014 PUSH1 0x0 DUP7 ADD DUP3 PUSH2 0x2FE3 JUMP JUMPDEST POP PUSH1 0x1 DUP4 ADD SLOAD SWAP1 POP PUSH2 0x3025 DUP2 PUSH2 0x2FC9 JUMP JUMPDEST PUSH2 0x3032 PUSH1 0x20 DUP7 ADD DUP3 PUSH2 0x2FE3 JUMP JUMPDEST POP POP POP POP POP JUMP JUMPDEST PUSH1 0x0 PUSH2 0x3045 DUP4 DUP4 PUSH2 0x2FF2 JUMP JUMPDEST PUSH1 0x40 DUP4 ADD SWAP1 POP SWAP3 SWAP2 POP POP JUMP JUMPDEST PUSH1 0x0 PUSH1 0x2 DUP3 ADD SWAP1 POP SWAP2 SWAP1 POP JUMP JUMPDEST PUSH1 0x0 PUSH2 0x3069 DUP3 PUSH2 0x2F81 JUMP JUMPDEST PUSH2 0x3073 DUP2 DUP6 PUSH2 0x2F8C JUMP JUMPDEST SWAP4 POP PUSH2 0x307E DUP4 PUSH2 0x2F9D JUMP JUMPDEST DUP1 PUSH1 0x0 JUMPDEST DUP4 DUP2 LT ISZERO PUSH2 0x30AE JUMPI DUP2 PUSH2 0x3095 DUP9 DUP3 PUSH2 0x3039 JUMP JUMPDEST SWAP8 POP PUSH2 0x30A0 DUP4 PUSH2 0x3051 JUMP JUMPDEST SWAP3 POP POP PUSH1 0x1 DUP2 ADD SWAP1 POP PUSH2 0x3082 JUMP JUMPDEST POP DUP6 SWAP4 POP POP POP POP SWAP3 SWAP2 POP POP JUMP JUMPDEST PUSH1 0x0 PUSH1 0x20 DUP3 ADD SWAP1 POP DUP2 DUP2 SUB PUSH1 0x0 DUP4 ADD MSTORE PUSH2 0x30D5 DUP2 DUP5 PUSH2 0x305E JUMP JUMPDEST SWAP1 POP SWAP3 SWAP2 POP POP JUMP JUMPDEST PUSH1 0x0 DUP3 DUP3 MSTORE PUSH1 0x20 DUP3 ADD SWAP1 POP SWAP3 SWAP2 POP POP JUMP JUMPDEST PUSH32 0x476174657761793A207A65726F20616464726573730000000000000000000000 PUSH1 0x0 DUP3 ADD MSTORE POP JUMP JUMPDEST PUSH1 0x0 PUSH2 0x3124 PUSH1 0x15 DUP4 PUSH2 0x30DD JUMP JUMPDEST SWAP2 POP PUSH2 0x312F DUP3 PUSH2 0x30EE JUMP JUMPDEST PUSH1 0x20 DUP3 ADD SWAP1 POP SWAP2 SWAP1 POP JUMP JUMPDEST PUSH1 0x0 PUSH1 0x20 DUP3 ADD SWAP1 POP DUP2 DUP2 SUB PUSH1 0x0 DUP4 ADD MSTORE PUSH2 0x3153 DUP2 PUSH2 0x3117 JUMP JUMPDEST SWAP1 POP SWAP2 SWAP1 POP JUMP JUMPDEST PUSH32 0x476174657761793A207472656173757279206164647265737320616C72656164 PUSH1 0x0 DUP3 ADD MSTORE PUSH32 0x7920736574000000000000000000000000000000000000000000000000000000 PUSH1 0x20 DUP3 ADD MSTORE POP JUMP JUMPDEST PUSH1 0x0 PUSH2 0x31B6 PUSH1 0x25 DUP4 PUSH2 0x30DD JUMP JUMPDEST SWAP2 POP PUSH2 0x31C1 DUP3 PUSH2 0x315A JUMP JUMPDEST PUSH1 0x40 DUP3 ADD SWAP1 POP SWAP2 SWAP1 POP JUMP JUMPDEST PUSH1 0x0 PUSH1 0x20 DUP3 ADD SWAP1 POP DUP2 DUP2 SUB PUSH1 0x0 DUP4 ADD MSTORE PUSH2 0x31E5 DUP2 PUSH2 0x31A9 JUMP JUMPDEST SWAP1 POP SWAP2 SWAP1 POP JUMP JUMPDEST PUSH32 0x476174657761793A2061676772656761746F72206164647265737320616C7265 PUSH1 0x0 DUP3 ADD MSTORE PUSH32 0x6164792073657400000000000000000000000000000000000000000000000000 PUSH1 0x20 DUP3 ADD MSTORE POP JUMP JUMPDEST PUSH1 0x0 PUSH2 0x3248 PUSH1 0x27 DUP4 PUSH2 0x30DD JUMP JUMPDEST SWAP2 POP PUSH2 0x3253 DUP3 PUSH2 0x31EC JUMP JUMPDEST PUSH1 0x40 DUP3 ADD SWAP1 POP SWAP2 SWAP1 POP JUMP JUMPDEST PUSH1 0x0 PUSH1 0x20 DUP3 ADD SWAP1 POP DUP2 DUP2 SUB PUSH1 0x0 DUP4 ADD MSTORE PUSH2 0x3277 DUP2 PUSH2 0x323B JUMP JUMPDEST SWAP1 POP SWAP2 SWAP1 POP JUMP JUMPDEST PUSH1 0x0 PUSH1 0x20 DUP3 ADD SWAP1 POP PUSH2 0x3293 PUSH1 0x0 DUP4 ADD DUP5 PUSH2 0x2CCA JUMP JUMPDEST SWAP3 SWAP2 POP POP JUMP JUMPDEST PUSH32 0x4F6E6C7941676772656761746F72000000000000000000000000000000000000 PUSH1 0x0 DUP3 ADD MSTORE POP JUMP JUMPDEST PUSH1 0x0 PUSH2 0x32CF PUSH1 0xE DUP4 PUSH2 0x30DD JUMP JUMPDEST SWAP2 POP PUSH2 0x32DA DUP3 PUSH2 0x3299 JUMP JUMPDEST PUSH1 0x20 DUP3 ADD SWAP1 POP SWAP2 SWAP1 POP JUMP JUMPDEST PUSH1 0x0 PUSH1 0x20 DUP3 ADD SWAP1 POP DUP2 DUP2 SUB PUSH1 0x0 DUP4 ADD MSTORE PUSH2 0x32FE DUP2 PUSH2 0x32C2 JUMP JUMPDEST SWAP1 POP SWAP2 SWAP1 POP JUMP JUMPDEST PUSH32 0x4F7264657246756C66696C6C6564000000000000000000000000000000000000 PUSH1 0x0 DUP3 ADD MSTORE POP JUMP JUMPDEST PUSH1 0x0 PUSH2 0x333B PUSH1 0xE DUP4 PUSH2 0x30DD JUMP JUMPDEST SWAP2 POP PUSH2 0x3346 DUP3 PUSH2 0x3305 JUMP JUMPDEST PUSH1 0x20 DUP3 ADD SWAP1 POP SWAP2 SWAP1 POP JUMP JUMPDEST PUSH1 0x0 PUSH1 0x20 DUP3 ADD SWAP1 POP DUP2 DUP2 SUB PUSH1 0x0 DUP4 ADD MSTORE PUSH2 0x336A DUP2 PUSH2 0x332E JUMP JUMPDEST SWAP1 POP SWAP2 SWAP1 POP JUMP JUMPDEST PUSH32 0x4F72646572526566756E64656400000000000000000000000000000000000000 PUSH1 0x0 DUP3 ADD MSTORE POP JUMP JUMPDEST PUSH1 0x0 PUSH2 0x33A7 PUSH1 0xD DUP4 PUSH2 0x30DD JUMP JUMPDEST SWAP2 POP PUSH2 0x33B2 DUP3 PUSH2 0x3371 JUMP JUMPDEST PUSH1 0x20 DUP3 ADD SWAP1 POP SWAP2 SWAP1 POP JUMP JUMPDEST PUSH1 0x0 PUSH1 0x20 DUP3 ADD SWAP1 POP DUP2 DUP2 SUB PUSH1 0x0 DUP4 ADD MSTORE PUSH2 0x33D6 DUP2 PUSH2 0x339A JUMP JUMPDEST SWAP1 POP SWAP2 SWAP1 POP JUMP JUMPDEST PUSH32 0x4665654578636565647350726F746F636F6C4665650000000000000000000000 PUSH1 0x0 DUP3 ADD MSTORE POP JUMP JUMPDEST PUSH1 0x0 PUSH2 0x3413 PUSH1 0x15 DUP4 PUSH2 0x30DD JUMP JUMPDEST SWAP2 POP PUSH2 0x341E DUP3 PUSH2 0x33DD JUMP JUMPDEST PUSH1 0x20 DUP3 ADD SWAP1 POP SWAP2 SWAP1 POP JUMP JUMPDEST PUSH1 0x0 PUSH1 0x20 DUP3 ADD SWAP1 POP DUP2 DUP2 SUB PUSH1 0x0 DUP4 ADD MSTORE PUSH2 0x3442 DUP2 PUSH2 0x3406 JUMP JUMPDEST SWAP1 POP SWAP2 SWAP1 POP JUMP JUMPDEST PUSH1 0x0 PUSH1 0x40 DUP3 ADD SWAP1 POP PUSH2 0x345E PUSH1 0x0 DUP4 ADD DUP6 PUSH2 0x2CA0 JUMP JUMPDEST PUSH2 0x346B PUSH1 0x20 DUP4 ADD DUP5 PUSH2 0x2CD9 JUMP JUMPDEST SWAP4 SWAP3 POP POP POP JUMP JUMPDEST PUSH2 0x347B DUP2 PUSH2 0x2A5E JUMP JUMPDEST DUP2 EQ PUSH2 0x3486 JUMPI PUSH1 0x0 DUP1 REVERT JUMPDEST POP JUMP JUMPDEST PUSH1 0x0 DUP2 MLOAD SWAP1 POP PUSH2 0x3498 DUP2 PUSH2 0x3472 JUMP JUMPDEST SWAP3 SWAP2 POP POP JUMP JUMPDEST PUSH1 0x0 PUSH1 0x20 DUP3 DUP5 SUB SLT ISZERO PUSH2 0x34B4 JUMPI PUSH2 0x34B3 PUSH2 0x2709 JUMP JUMPDEST JUMPDEST PUSH1 0x0 PUSH2 0x34C2 DUP5 DUP3 DUP6 ADD PUSH2 0x3489 JUMP JUMPDEST SWAP2 POP POP SWAP3 SWAP2 POP POP JUMP JUMPDEST PUSH32 0x4E487B7100000000000000000000000000000000000000000000000000000000 PUSH1 0x0 MSTORE PUSH1 0x11 PUSH1 0x4 MSTORE PUSH1 0x24 PUSH1 0x0 REVERT JUMPDEST PUSH1 0x0 PUSH2 0x3505 DUP3 PUSH2 0x2A94 JUMP JUMPDEST SWAP2 POP PUSH2 0x3510 DUP4 PUSH2 0x2A94 JUMP JUMPDEST SWAP3 POP DUP3 DUP3 ADD SWAP1 POP DUP1 DUP3 GT ISZERO PUSH2 0x3528 JUMPI PUSH2 0x3527 PUSH2 0x34CB JUMP JUMPDEST JUMPDEST SWAP3 SWAP2 POP POP JUMP JUMPDEST PUSH1 0x0 PUSH2 0x3539 DUP3 PUSH2 0x2A94 JUMP JUMPDEST SWAP2 POP PUSH2 0x3544 DUP4 PUSH2 0x2A94 JUMP JUMPDEST SWAP3 POP DUP3 DUP3 SUB SWAP1 POP DUP2 DUP2 GT ISZERO PUSH2 0x355C JUMPI PUSH2 0x355B PUSH2 0x34CB JUMP JUMPDEST JUMPDEST SWAP3 SWAP2 POP POP JUMP JUMPDEST PUSH1 0x0 PUSH1 0x20 DUP3 ADD SWAP1 POP PUSH2 0x3577 PUSH1 0x0 DUP4 ADD DUP5 PUSH2 0x2CD9 JUMP JUMPDEST SWAP3 SWAP2 POP POP JUMP JUMPDEST PUSH32 0x4F776E61626C6532537465703A2063616C6C6572206973206E6F742074686520 PUSH1 0x0 DUP3 ADD MSTORE PUSH32 0x6E6577206F776E65720000000000000000000000000000000000000000000000 PUSH1 0x20 DUP3 ADD MSTORE POP JUMP JUMPDEST PUSH1 0x0 PUSH2 0x35D9 PUSH1 0x29 DUP4 PUSH2 0x30DD JUMP JUMPDEST SWAP2 POP PUSH2 0x35E4 DUP3 PUSH2 0x357D JUMP JUMPDEST PUSH1 0x40 DUP3 ADD SWAP1 POP SWAP2 SWAP1 POP JUMP JUMPDEST PUSH1 0x0 PUSH1 0x20 DUP3 ADD SWAP1 POP DUP2 DUP2 SUB PUSH1 0x0 DUP4 ADD MSTORE PUSH2 0x3608 DUP2 PUSH2 0x35CC JUMP JUMPDEST SWAP1 POP SWAP2 SWAP1 POP JUMP JUMPDEST PUSH32 0x496E697469616C697A61626C653A20636F6E747261637420697320616C726561 PUSH1 0x0 DUP3 ADD MSTORE PUSH32 0x647920696E697469616C697A6564000000000000000000000000000000000000 PUSH1 0x20 DUP3 ADD MSTORE POP JUMP JUMPDEST PUSH1 0x0 PUSH2 0x366B PUSH1 0x2E DUP4 PUSH2 0x30DD JUMP JUMPDEST SWAP2 POP PUSH2 0x3676 DUP3 PUSH2 0x360F JUMP JUMPDEST PUSH1 0x40 DUP3 ADD SWAP1 POP SWAP2 SWAP1 POP JUMP JUMPDEST PUSH1 0x0 PUSH1 0x20 DUP3 ADD SWAP1 POP DUP2 DUP2 SUB PUSH1 0x0 DUP4 ADD MSTORE PUSH2 0x369A DUP2 PUSH2 0x365E JUMP JUMPDEST SWAP1 POP SWAP2 SWAP1 POP JUMP JUMPDEST PUSH1 0x0 DUP2 SWAP1 POP SWAP2 SWAP1 POP JUMP JUMPDEST PUSH1 0x0 PUSH1 0xFF DUP3 AND SWAP1 POP SWAP2 SWAP1 POP JUMP JUMPDEST PUSH1 0x0 DUP2 SWAP1 POP SWAP2 SWAP1 POP JUMP JUMPDEST PUSH1 0x0 PUSH2 0x36DD PUSH2 0x36D8 PUSH2 0x36D3 DUP5 PUSH2 0x36A1 JUMP JUMPDEST PUSH2 0x36B8 JUMP JUMPDEST PUSH2 0x36AB JUMP JUMPDEST SWAP1 POP SWAP2 SWAP1 POP JUMP JUMPDEST PUSH2 0x36ED DUP2 PUSH2 0x36C2 JUMP JUMPDEST DUP3 MSTORE POP POP JUMP JUMPDEST PUSH1 0x0 PUSH1 0x20 DUP3 ADD SWAP1 POP PUSH2 0x3708 PUSH1 0x0 DUP4 ADD DUP5 PUSH2 0x36E4 JUMP JUMPDEST SWAP3 SWAP2 POP POP JUMP JUMPDEST PUSH32 0x476174657761793A20696E76616C696420737461747573000000000000000000 PUSH1 0x0 DUP3 ADD MSTORE POP JUMP JUMPDEST PUSH1 0x0 PUSH2 0x3744 PUSH1 0x17 DUP4 PUSH2 0x30DD JUMP JUMPDEST SWAP2 POP PUSH2 0x374F DUP3 PUSH2 0x370E JUMP JUMPDEST PUSH1 0x20 DUP3 ADD SWAP1 POP SWAP2 SWAP1 POP JUMP JUMPDEST PUSH1 0x0 PUSH1 0x20 DUP3 ADD SWAP1 POP DUP2 DUP2 SUB PUSH1 0x0 DUP4 ADD MSTORE PUSH2 0x3773 DUP2 PUSH2 0x3737 JUMP JUMPDEST SWAP1 POP SWAP2 SWAP1 POP JUMP JUMPDEST PUSH32 0x496E76616C69644D657373616765486173680000000000000000000000000000 PUSH1 0x0 DUP3 ADD MSTORE POP JUMP JUMPDEST PUSH1 0x0 PUSH2 0x37B0 PUSH1 0x12 DUP4 PUSH2 0x30DD JUMP JUMPDEST SWAP2 POP PUSH2 0x37BB DUP3 PUSH2 0x377A JUMP JUMPDEST PUSH1 0x20 DUP3 ADD SWAP1 POP SWAP2 SWAP1 POP JUMP JUMPDEST PUSH1 0x0 PUSH1 0x20 DUP3 ADD SWAP1 POP DUP2 DUP2 SUB PUSH1 0x0 DUP4 ADD MSTORE PUSH2 0x37DF DUP2 PUSH2 0x37A3 JUMP JUMPDEST SWAP1 POP SWAP2 SWAP1 POP JUMP JUMPDEST PUSH1 0x0 PUSH1 0x60 DUP3 ADD SWAP1 POP PUSH2 0x37FB PUSH1 0x0 DUP4 ADD DUP7 PUSH2 0x2CA0 JUMP JUMPDEST PUSH2 0x3808 PUSH1 0x20 DUP4 ADD DUP6 PUSH2 0x2CA0 JUMP JUMPDEST PUSH2 0x3815 PUSH1 0x40 DUP4 ADD DUP5 PUSH2 0x2CD9 JUMP JUMPDEST SWAP5 SWAP4 POP POP POP POP JUMP JUMPDEST PUSH1 0x0 PUSH2 0x3828 DUP3 PUSH2 0x2A94 JUMP JUMPDEST SWAP2 POP PUSH32 0xFFFFFFFFFFFFFFFFFFFFFFFFFFFFFFFFFFFFFFFFFFFFFFFFFFFFFFFFFFFFFFFF DUP3 SUB PUSH2 0x385A JUMPI PUSH2 0x3859 PUSH2 0x34CB JUMP JUMPDEST JUMPDEST PUSH1 0x1 DUP3 ADD SWAP1 POP SWAP2 SWAP1 POP JUMP JUMPDEST PUSH1 0x0 PUSH2 0x3870 DUP3 PUSH2 0x2A94 JUMP JUMPDEST SWAP2 POP PUSH2 0x387B DUP4 PUSH2 0x2A94 JUMP JUMPDEST SWAP3 POP DUP3 DUP3 MUL PUSH2 0x3889 DUP2 PUSH2 0x2A94 JUMP JUMPDEST SWAP2 POP DUP3 DUP3 DIV DUP5 EQ DUP4 ISZERO OR PUSH2 0x38A0 JUMPI PUSH2 0x389F PUSH2 0x34CB JUMP JUMPDEST JUMPDEST POP SWAP3 SWAP2 POP POP JUMP JUMPDEST PUSH32 0x4E487B7100000000000000000000000000000000000000000000000000000000 PUSH1 0x0 MSTORE PUSH1 0x12 PUSH1 0x4 MSTORE PUSH1 0x24 PUSH1 0x0 REVERT JUMPDEST PUSH1 0x0 PUSH2 0x38E1 DUP3 PUSH2 0x2A94 JUMP JUMPDEST SWAP2 POP PUSH2 0x38EC DUP4 PUSH2 0x2A94 JUMP JUMPDEST SWAP3 POP DUP3 PUSH2 0x38FC JUMPI PUSH2 0x38FB PUSH2 0x38A7 JUMP JUMPDEST JUMPDEST DUP3 DUP3 DIV SWAP1 POP SWAP3 SWAP2 POP POP JUMP JUMPDEST PUSH1 0x0 PUSH2 0x3922 PUSH2 0x391D PUSH2 0x3918 DUP5 PUSH2 0x2B91 JUMP JUMPDEST PUSH2 0x36B8 JUMP JUMPDEST PUSH2 0x2A94 JUMP JUMPDEST SWAP1 POP SWAP2 SWAP1 POP JUMP JUMPDEST PUSH2 0x3932 DUP2 PUSH2 0x3907 JUMP JUMPDEST DUP3 MSTORE POP POP JUMP JUMPDEST DUP3 DUP2 DUP4 CALLDATACOPY PUSH1 0x0 DUP4 DUP4 ADD MSTORE POP POP POP JUMP JUMPDEST PUSH1 0x0 PUSH2 0x3953 DUP4 DUP6 PUSH2 0x30DD JUMP JUMPDEST SWAP4 POP PUSH2 0x3960 DUP4 DUP6 DUP5 PUSH2 0x3938 JUMP JUMPDEST PUSH2 0x3969 DUP4 PUSH2 0x274E JUMP JUMPDEST DUP5 ADD SWAP1 POP SWAP4 SWAP3 POP POP POP JUMP JUMPDEST PUSH1 0x0 PUSH1 0xA0 DUP3 ADD SWAP1 POP PUSH2 0x3989 PUSH1 0x0 DUP4 ADD DUP10 PUSH2 0x2CD9 JUMP JUMPDEST PUSH2 0x3996 PUSH1 0x20 DUP4 ADD DUP9 PUSH2 0x2EC1 JUMP JUMPDEST PUSH2 0x39A3 PUSH1 0x40 DUP4 ADD DUP8 PUSH2 0x3929 JUMP JUMPDEST PUSH2 0x39B0 PUSH1 0x60 DUP4 ADD DUP7 PUSH2 0x2EC1 JUMP JUMPDEST DUP2 DUP2 SUB PUSH1 0x80 DUP4 ADD MSTORE PUSH2 0x39C3 DUP2 DUP5 DUP7 PUSH2 0x3947 JUMP JUMPDEST SWAP1 POP SWAP8 SWAP7 POP POP POP POP POP POP POP JUMP JUMPDEST PUSH1 0x0 PUSH2 0x39DB DUP3 PUSH2 0x2B91 JUMP JUMPDEST SWAP2 POP PUSH2 0x39E6 DUP4 PUSH2 0x2B91 JUMP JUMPDEST SWAP3 POP DUP3 DUP3 SUB SWAP1 POP PUSH12 0xFFFFFFFFFFFFFFFFFFFFFFFF DUP2 GT ISZERO PUSH2 0x3A0A JUMPI PUSH2 0x3A09 PUSH2 0x34CB JUMP JUMPDEST JUMPDEST SWAP3 SWAP2 POP POP JUMP JUMPDEST PUSH1 0x0 PUSH2 0x3A2B PUSH2 0x3A26 PUSH2 0x3A21 DUP5 PUSH2 0x29F1 JUMP JUMPDEST PUSH2 0x36B8 JUMP JUMPDEST PUSH2 0x2B91 JUMP JUMPDEST SWAP1 POP SWAP2 SWAP1 POP JUMP JUMPDEST PUSH2 0x3A3B DUP2 PUSH2 0x3A10 JUMP JUMPDEST DUP3 MSTORE POP POP JUMP JUMPDEST PUSH1 0x0 PUSH1 0x40 DUP3 ADD SWAP1 POP PUSH2 0x3A56 PUSH1 0x0 DUP4 ADD DUP6 PUSH2 0x2EC1 JUMP JUMPDEST PUSH2 0x3A63 PUSH1 0x20 DUP4 ADD DUP5 PUSH2 0x3A32 JUMP JUMPDEST SWAP4 SWAP3 POP POP POP JUMP JUMPDEST PUSH32 0x4F776E61626C653A2063616C6C6572206973206E6F7420746865206F776E6572 PUSH1 0x0 DUP3 ADD MSTORE POP JUMP JUMPDEST PUSH1 0x0 PUSH2 0x3AA0 PUSH1 0x20 DUP4 PUSH2 0x30DD JUMP JUMPDEST SWAP2 POP PUSH2 0x3AAB DUP3 PUSH2 0x3A6A JUMP JUMPDEST PUSH1 0x20 DUP3 ADD SWAP1 POP SWAP2 SWAP1 POP JUMP JUMPDEST PUSH1 0x0 PUSH1 0x20 DUP3 ADD SWAP1 POP DUP2 DUP2 SUB PUSH1 0x0 DUP4 ADD MSTORE PUSH2 0x3ACF DUP2 PUSH2 0x3A93 JUMP JUMPDEST SWAP1 POP SWAP2 SWAP1 POP JUMP JUMPDEST PUSH32 0x496E697469616C697A61626C653A20636F6E7472616374206973206E6F742069 PUSH1 0x0 DUP3 ADD MSTORE PUSH32 0x6E697469616C697A696E67000000000000000000000000000000000000000000 PUSH1 0x20 DUP3 ADD MSTORE POP JUMP JUMPDEST PUSH1 0x0 PUSH2 0x3B32 PUSH1 0x2B DUP4 PUSH2 0x30DD JUMP JUMPDEST SWAP2 POP PUSH2 0x3B3D DUP3 PUSH2 0x3AD6 JUMP JUMPDEST PUSH1 0x40 DUP3 ADD SWAP1 POP SWAP2 SWAP1 POP JUMP JUMPDEST PUSH1 0x0 PUSH1 0x20 DUP3 ADD SWAP1 POP DUP2 DUP2 SUB PUSH1 0x0 DUP4 ADD MSTORE PUSH2 0x3B61 DUP2 PUSH2 0x3B25 JUMP JUMPDEST SWAP1 POP SWAP2 SWAP1 POP JUMP JUMPDEST PUSH32 0x5061757361626C653A2070617573656400000000000000000000000000000000 PUSH1 0x0 DUP3 ADD MSTORE POP JUMP JUMPDEST PUSH1 0x0 PUSH2 0x3B9E PUSH1 0x10 DUP4 PUSH2 0x30DD JUMP JUMPDEST SWAP2 POP PUSH2 0x3BA9 DUP3 PUSH2 0x3B68 JUMP JUMPDEST PUSH1 0x20 DUP3 ADD SWAP1 POP SWAP2 SWAP1 POP JUMP JUMPDEST PUSH1 0x0 PUSH1 0x20 DUP3 ADD SWAP1 POP DUP2 DUP2 SUB PUSH1 0x0 DUP4 ADD MSTORE PUSH2 0x3BCD DUP2 PUSH2 0x3B91 JUMP JUMPDEST SWAP1 POP SWAP2 SWAP1 POP JUMP JUMPDEST PUSH32 0x546F6B656E4E6F74537570706F72746564000000000000000000000000000000 PUSH1 0x0 DUP3 ADD MSTORE POP JUMP JUMPDEST PUSH1 0x0 PUSH2 0x3C0A PUSH1 0x11 DUP4 PUSH2 0x30DD JUMP JUMPDEST SWAP2 POP PUSH2 0x3C15 DUP3 PUSH2 0x3BD4 JUMP JUMPDEST PUSH1 0x20 DUP3 ADD SWAP1 POP SWAP2 SWAP1 POP JUMP JUMPDEST PUSH1 0x0 PUSH1 0x20 DUP3 ADD SWAP1 POP DUP2 DUP2 SUB PUSH1 0x0 DUP4 ADD MSTORE PUSH2 0x3C39 DUP2 PUSH2 0x3BFD JUMP JUMPDEST SWAP1 POP SWAP2 SWAP1 POP JUMP JUMPDEST PUSH32 0x416D6F756E7449735A65726F0000000000000000000000000000000000000000 PUSH1 0x0 DUP3 ADD MSTORE POP JUMP JUMPDEST PUSH1 0x0 PUSH2 0x3C76 PUSH1 0xC DUP4 PUSH2 0x30DD JUMP JUMPDEST SWAP2 POP PUSH2 0x3C81 DUP3 PUSH2 0x3C40 JUMP JUMPDEST PUSH1 0x20 DUP3 ADD SWAP1 POP SWAP2 SWAP1 POP JUMP JUMPDEST PUSH1 0x0 PUSH1 0x20 DUP3 ADD SWAP1 POP DUP2 DUP2 SUB PUSH1 0x0 DUP4 ADD MSTORE PUSH2 0x3CA5 DUP2 PUSH2 0x3C69 JUMP JUMPDEST SWAP1 POP SWAP2 SWAP1 POP JUMP JUMPDEST PUSH32 0x5468726F775A65726F4164647265737300000000000000000000000000000000 PUSH1 0x0 DUP3 ADD MSTORE POP JUMP JUMPDEST PUSH1 0x0 PUSH2 0x3CE2 PUSH1 0x10 DUP4 PUSH2 0x30DD JUMP JUMPDEST SWAP2 POP PUSH2 0x3CED DUP3 PUSH2 0x3CAC JUMP JUMPDEST PUSH1 0x20 DUP3 ADD SWAP1 POP SWAP2 SWAP1 POP JUMP JUMPDEST PUSH1 0x0 PUSH1 0x20 DUP3 ADD SWAP1 POP DUP2 DUP2 SUB PUSH1 0x0 DUP4 ADD MSTORE PUSH2 0x3D11 DUP2 PUSH2 0x3CD5 JUMP JUMPDEST SWAP1 POP SWAP2 SWAP1 POP JUMP JUMPDEST PUSH32 0x496E76616C6964496E737469747574696F6E436F646500000000000000000000 PUSH1 0x0 DUP3 ADD MSTORE POP JUMP JUMPDEST PUSH1 0x0 PUSH2 0x3D4E PUSH1 0x16 DUP4 PUSH2 0x30DD JUMP JUMPDEST SWAP2 POP PUSH2 0x3D59 DUP3 PUSH2 0x3D18 JUMP JUMPDEST PUSH1 0x20 DUP3 ADD SWAP1 POP SWAP2 SWAP1 POP JUMP JUMPDEST PUSH1 0x0 PUSH1 0x20 DUP3 ADD SWAP1 POP DUP2 DUP2 SUB PUSH1 0x0 DUP4 ADD MSTORE PUSH2 0x3D7D DUP2 PUSH2 0x3D41 JUMP JUMPDEST SWAP1 POP SWAP2 SWAP1 POP JUMP JUMPDEST PUSH32 0x496E76616C696453656E646572466565526563697069656E7400000000000000 PUSH1 0x0 DUP3 ADD MSTORE POP JUMP JUMPDEST PUSH1 0x0 PUSH2 0x3DBA PUSH1 0x19 DUP4 PUSH2 0x30DD JUMP JUMPDEST SWAP2 POP PUSH2 0x3DC5 DUP3 PUSH2 0x3D84 JUMP JUMPDEST PUSH1 0x20 DUP3 ADD SWAP1 POP SWAP2 SWAP1 POP JUMP JUMPDEST PUSH1 0x0 PUSH1 0x20 DUP3 ADD SWAP1 POP DUP2 DUP2 SUB PUSH1 0x0 DUP4 ADD MSTORE PUSH2 0x3DE9 DUP2 PUSH2 0x3DAD JUMP JUMPDEST SWAP1 POP SWAP2 SWAP1 POP JUMP JUMPDEST PUSH32 0x5061757361626C653A206E6F7420706175736564000000000000000000000000 PUSH1 0x0 DUP3 ADD MSTORE POP JUMP JUMPDEST PUSH1 0x0 PUSH2 0x3E26 PUSH1 0x14 DUP4 PUSH2 0x30DD JUMP JUMPDEST SWAP2 POP PUSH2 0x3E31 DUP3 PUSH2 0x3DF0 JUMP JUMPDEST PUSH1 0x20 DUP3 ADD SWAP1 POP SWAP2 SWAP1 POP JUMP JUMPDEST PUSH1 0x0 PUSH1 0x20 DUP3 ADD SWAP1 POP DUP2 DUP2 SUB PUSH1 0x0 DUP4 ADD MSTORE PUSH2 0x3E55 DUP2 PUSH2 0x3E19 JUMP JUMPDEST SWAP1 POP SWAP2 SWAP1 POP JUMP INVALID LOG2 PUSH5 0x6970667358 0x22 SLT KECCAK256 PUSH17 0x52E17DBF1C403E694B894CE0E7C48DEF05 SWAP7 BASEFEE 0x24 0xC5 0xCA PUSH2 0x1669 PUSH25 0x940A74897964736F6C63430008120033000000000000000000 "},"gasEstimates":{"creation":{"codeDepositCost":"3203600","executionCost":"infinite","totalCost":"infinite"},"external":{"acceptOwnership()":"54681","createOrder(address,uint256,bytes32,uint96,address,uint256,address,string)":"infinite","getFeeDetails()":"4804","getOrderInfo(bytes32)":"infinite","initialize()":"191278","isTokenSupported(address)":"2970","owner()":"2611","pause()":"infinite","paused()":"2502","pendingOwner()":"2588","refund(uint256,bytes32)":"infinite","renounceOwnership()":"54714","setSupportedInstitutions(bytes32,(bytes32,bytes32)[])":"infinite","settingManagerBool(bytes32,address,uint256)":"infinite","settle(bytes32,bytes32,address,uint64)":"infinite","transferOwnership(address)":"infinite","unpause()":"infinite","updateProtocolAddress(bytes32,address)":"31139","updateProtocolFee(uint64)":"infinite"},"internal":{"_handler(address,uint256,address,address,uint256,bytes32)":"infinite"}},"methodIdentifiers":{"acceptOwnership()":"79ba5097","createOrder(address,uint256,bytes32,uint96,address,uint256,address,string)":"d12ff20a","getFeeDetails()":"b810c636","getOrderInfo(bytes32)":"768c6ec0","initialize()":"8129fc1c","isTokenSupported(address)":"75151b63","owner()":"8da5cb5b","pause()":"8456cb59","paused()":"5c975abb","pendingOwner()":"e30c3978","refund(uint256,bytes32)":"71eedb88","renounceOwnership()":"715018a6","setSupportedInstitutions(bytes32,(bytes32,bytes32)[])":"32200882","settingManagerBool(bytes32,address,uint256)":"cd992400","settle(bytes32,bytes32,address,uint64)":"f22ee704","transferOwnership(address)":"f2fde38b","unpause()":"3f4ba83a","updateProtocolAddress(bytes32,address)":"40ebc677","updateProtocolFee(uint64)":"47094e2e"}},"storageLayout":{"storage":[{"astId":246,"contract":"contracts/GatewayV2.sol:GatewayV2","label":"_initialized","offset":0,"slot":"0","type":"t_uint8"},{"astId":249,"contract":"contracts/GatewayV2.sol:GatewayV2","label":"_initializing","offset":1,"slot":"0","type":"t_bool"},{"astId":916,"contract":"contracts/GatewayV2.sol:GatewayV2","label":"__gap","offset":0,"slot":"1","type":"t_array(t_uint256)50_storage"},{"astId":118,"contract":"contracts/GatewayV2.sol:GatewayV2","label":"_owner","offset":0,"slot":"51","type":"t_address"},{"astId":238,"contract":"contracts/GatewayV2.sol:GatewayV2","label":"__gap","offset":0,"slot":"52","type":"t_array(t_uint256)49_storage"},{"astId":11,"contract":"contracts/GatewayV2.sol:GatewayV2","label":"_pendingOwner","offset":0,"slot":"101","type":"t_address"},{"astId":105,"contract":"contracts/GatewayV2.sol:GatewayV2","label":"__gap","offset":0,"slot":"102","type":"t_array(t_uint256)49_storage"},{"astId":2260,"contract":"contracts/GatewayV2.sol:GatewayV2","label":"MAX_BPS","offset":0,"slot":"151","type":"t_uint256"},{"astId":2262,"contract":"contracts/GatewayV2.sol:GatewayV2","label":"protocolFeePercent","offset":0,"slot":"152","type":"t_uint64"},{"astId":2264,"contract":"contracts/GatewayV2.sol:GatewayV2","label":"treasuryAddress","offset":8,"slot":"152","type":"t_address"},{"astId":2266,"contract":"contracts/GatewayV2.sol:GatewayV2","label":"_aggregatorAddress","offset":0,"slot":"153","type":"t_address"},{"astId":2270,"contract":"contracts/GatewayV2.sol:GatewayV2","label":"__gap","offset":0,"slot":"154","type":"t_array(t_uint256)50_storage"},{"astId":2274,"contract":"contracts/GatewayV2.sol:GatewayV2","label":"_isTokenSupported","offset":0,"slot":"204","type":"t_mapping(t_address,t_uint256)"},{"astId":2280,"contract":"contracts/GatewayV2.sol:GatewayV2","label":"supportedInstitutions","offset":0,"slot":"205","type":"t_mapping(t_bytes32,t_array(t_struct(Institution)3449_storage)dyn_storage)"},{"astId":2285,"contract":"contracts/GatewayV2.sol:GatewayV2","label":"supportedInstitutionsByCode","offset":0,"slot":"206","type":"t_mapping(t_bytes32,t_struct(InstitutionByCode)3454_storage)"},{"astId":430,"contract":"contracts/GatewayV2.sol:GatewayV2","label":"_paused","offset":0,"slot":"207","type":"t_bool"},{"astId":535,"contract":"contracts/GatewayV2.sol:GatewayV2","label":"__gap","offset":0,"slot":"208","type":"t_array(t_uint256)49_storage"},{"astId":2544,"contract":"contracts/GatewayV2.sol:GatewayV2","label":"order","offset":0,"slot":"257","type":"t_mapping(t_bytes32,t_struct(Order)3370_storage)"},{"astId":2548,"contract":"contracts/GatewayV2.sol:GatewayV2","label":"_nonce","offset":0,"slot":"258","type":"t_mapping(t_address,t_uint256)"},{"astId":2552,"contract":"contracts/GatewayV2.sol:GatewayV2","label":"__gap","offset":0,"slot":"259","type":"t_array(t_uint256)50_storage"}],"types":{"t_address":{"encoding":"inplace","label":"address","numberOfBytes":"20"},"t_array(t_struct(Institution)3449_storage)dyn_storage":{"base":"t_struct(Institution)3449_storage","encoding":"dynamic_array","label":"struct SharedStructs.Institution[]","numberOfBytes":"32"},"t_array(t_uint256)49_storage":{"base":"t_uint256","encoding":"inplace","label":"uint256[49]","numberOfBytes":"1568"},"t_array(t_uint256)50_storage":{"base":"t_uint256","encoding":"inplace","label":"uint256[50]","numberOfBytes":"1600"},"t_bool":{"encoding":"inplace","label":"bool","numberOfBytes":"1"},"t_bytes32":{"encoding":"inplace","label":"bytes32","numberOfBytes":"32"},"t_mapping(t_address,t_uint256)":{"encoding":"mapping","key":"t_address","label":"mapping(address => uint256)","numberOfBytes":"32","value":"t_uint256"},"t_mapping(t_bytes32,t_array(t_struct(Institution)3449_storage)dyn_storage)":{"encoding":"mapping","key":"t_bytes32","label":"mapping(bytes32 => struct SharedStructs.Institution[])","numberOfBytes":"32","value":"t_array(t_struct(Institution)3449_storage)dyn_storage"},"t_mapping(t_bytes32,t_struct(InstitutionByCode)3454_storage)":{"encoding":"mapping","key":"t_bytes32","label":"mapping(bytes32 => struct SharedStructs.InstitutionByCode)","numberOfBytes":"32","value":"t_struct(InstitutionByCode)3454_storage"},"t_mapping(t_bytes32,t_struct(Order)3370_storage)":{"encoding":"mapping","key":"t_bytes32","label":"mapping(bytes32 => struct IGatewayV2.Order)","numberOfBytes":"32","value":"t_struct(Order)3370_storage"},"t_struct(Institution)3449_storage":{"encoding":"inplace","label":"struct SharedStructs.Institution","members":[{"astId":3446,"contract":"contracts/GatewayV2.sol:GatewayV2","label":"code","offset":0,"slot":"0","type":"t_bytes32"},{"astId":3448,"contract":"contracts/GatewayV2.sol:GatewayV2","label":"name","offset":0,"slot":"1","type":"t_bytes32"}],"numberOfBytes":"64"},"t_struct(InstitutionByCode)3454_storage":{"encoding":"inplace","label":"struct SharedStructs.InstitutionByCode","members":[{"astId":3451,"contract":"contracts/GatewayV2.sol:GatewayV2","label":"name","offset":0,"slot":"0","type":"t_bytes32"},{"astId":3453,"contract":"contracts/GatewayV2.sol:GatewayV2","label":"currency","offset":0,"slot":"1","type":"t_bytes32"}],"numberOfBytes":"64"},"t_struct(Order)3370_storage":{"encoding":"inplace","label":"struct IGatewayV2.Order","members":[{"astId":3351,"contract":"contracts/GatewayV2.sol:GatewayV2","label":"sender","offset":0,"slot":"0","type":"t_address"},{"astId":3353,"contract":"contracts/GatewayV2.sol:GatewayV2","label":"token","offset":0,"slot":"1","type":"t_address"},{"astId":3355,"contract":"contracts/GatewayV2.sol:GatewayV2","label":"senderFeeRecipient","offset":0,"slot":"2","type":"t_address"},{"astId":3357,"contract":"contracts/GatewayV2.sol:GatewayV2","label":"senderFee","offset":0,"slot":"3","type":"t_uint256"},{"astId":3359,"contract":"contracts/GatewayV2.sol:GatewayV2","label":"protocolFee","offset":0,"slot":"4","type":"t_uint256"},{"astId":3361,"contract":"contracts/GatewayV2.sol:GatewayV2","label":"isFulfilled","offset":0,"slot":"5","type":"t_bool"},{"astId":3363,"contract":"contracts/GatewayV2.sol:GatewayV2","label":"isRefunded","offset":1,"slot":"5","type":"t_bool"},{"astId":3365,"contract":"contracts/GatewayV2.sol:GatewayV2","label":"refundAddress","offset":2,"slot":"5","type":"t_address"},{"astId":3367,"contract":"contracts/GatewayV2.sol:GatewayV2","label":"currentBPS","offset":0,"slot":"6","type":"t_uint96"},{"astId":3369,"contract":"contracts/GatewayV2.sol:GatewayV2","label":"amount","offset":0,"slot":"7","type":"t_uint256"}],"numberOfBytes":"256"},"t_uint256":{"encoding":"inplace","label":"uint256","numberOfBytes":"32"},"t_uint64":{"encoding":"inplace","label":"uint64","numberOfBytes":"8"},"t_uint8":{"encoding":"inplace","label":"uint8","numberOfBytes":"1"},"t_uint96":{"encoding":"inplace","label":"uint96","numberOfBytes":"12"}}},"userdoc":{"kind":"user","methods":{},"notice":"This contract serves as a gateway for creating orders and managing settlements.","version":1}}}}