{"contracts/Gateway.sol":{"Gateway":{"abi":[{"inputs":[],"stateMutability":"nonpayable","type":"constructor"},{"anonymous":false,"inputs":[{"indexed":false,"internalType":"uint8","name":"version","type":"uint8"}],"name":"Initialized","type":"event"},{"anonymous":false,"inputs":[{"indexed":true,"internalType":"address","name":"sender","type":"address"},{"indexed":true,"internalType":"address","name":"token","type":"address"},{"indexed":true,"internalType":"uint256","name":"amount","type":"uint256"},{"indexed":false,"internalType":"uint256","name":"protocolFee","type":"uint256"},{"indexed":false,"internalType":"bytes32","name":"orderId","type":"bytes32"},{"indexed":false,"internalType":"uint256","name":"rate","type":"uint256"},{"indexed":false,"internalType":"bytes32","name":"institutionCode","type":"bytes32"},{"indexed":false,"internalType":"string","name":"messageHash","type":"string"}],"name":"OrderCreated","type":"event"},{"anonymous":false,"inputs":[{"indexed":false,"internalType":"uint256","name":"fee","type":"uint256"},{"indexed":true,"internalType":"bytes32","name":"orderId","type":"bytes32"}],"name":"OrderRefunded","type":"event"},{"anonymous":false,"inputs":[{"indexed":false,"internalType":"bytes32","name":"splitOrderId","type":"bytes32"},{"indexed":true,"internalType":"bytes32","name":"orderId","type":"bytes32"},{"indexed":true,"internalType":"address","name":"liquidityProvider","type":"address"},{"indexed":false,"internalType":"uint96","name":"settlePercent","type":"uint96"}],"name":"OrderSettled","type":"event"},{"anonymous":false,"inputs":[{"indexed":true,"internalType":"address","name":"previousOwner","type":"address"},{"indexed":true,"internalType":"address","name":"newOwner","type":"address"}],"name":"OwnershipTransferStarted","type":"event"},{"anonymous":false,"inputs":[{"indexed":true,"internalType":"address","name":"previousOwner","type":"address"},{"indexed":true,"internalType":"address","name":"newOwner","type":"address"}],"name":"OwnershipTransferred","type":"event"},{"anonymous":false,"inputs":[{"indexed":false,"internalType":"address","name":"account","type":"address"}],"name":"Paused","type":"event"},{"anonymous":false,"inputs":[{"indexed":true,"internalType":"bytes32","name":"what","type":"bytes32"},{"indexed":true,"internalType":"address","name":"treasuryAddress","type":"address"}],"name":"ProtocolAddressUpdated","type":"event"},{"anonymous":false,"inputs":[{"indexed":false,"internalType":"uint64","name":"protocolFee","type":"uint64"}],"name":"ProtocolFeeUpdated","type":"event"},{"anonymous":false,"inputs":[{"indexed":true,"internalType":"address","name":"sender","type":"address"},{"indexed":true,"internalType":"uint256","name":"amount","type":"uint256"}],"name":"SenderFeeTransferred","type":"event"},{"anonymous":false,"inputs":[{"indexed":true,"internalType":"address","name":"treasuryAddress","type":"address"}],"name":"SetFeeRecipient","type":"event"},{"anonymous":false,"inputs":[{"indexed":true,"internalType":"bytes32","name":"what","type":"bytes32"},{"indexed":true,"internalType":"address","name":"value","type":"address"},{"indexed":false,"internalType":"uint256","name":"status","type":"uint256"}],"name":"SettingManagerBool","type":"event"},{"anonymous":false,"inputs":[{"indexed":true,"internalType":"bytes32","name":"currency","type":"bytes32"},{"components":[{"internalType":"bytes32","name":"code","type":"bytes32"},{"internalType":"bytes32","name":"name","type":"bytes32"}],"indexed":false,"internalType":"struct SharedStructs.Institution[]","name":"institutions","type":"tuple[]"}],"name":"SupportedInstitutionsUpdated","type":"event"},{"anonymous":false,"inputs":[{"indexed":false,"internalType":"address","name":"account","type":"address"}],"name":"Unpaused","type":"event"},{"inputs":[],"name":"acceptOwnership","outputs":[],"stateMutability":"nonpayable","type":"function"},{"inputs":[{"internalType":"address","name":"_token","type":"address"},{"internalType":"uint256","name":"_amount","type":"uint256"},{"internalType":"bytes32","name":"_institutionCode","type":"bytes32"},{"internalType":"uint96","name":"_rate","type":"uint96"},{"internalType":"address","name":"_senderFeeRecipient","type":"address"},{"internalType":"uint256","name":"_senderFee","type":"uint256"},{"internalType":"address","name":"_refundAddress","type":"address"},{"internalType":"string","name":"messageHash","type":"string"}],"name":"createOrder","outputs":[{"internalType":"bytes32","name":"orderId","type":"bytes32"}],"stateMutability":"nonpayable","type":"function"},{"inputs":[],"name":"getFeeDetails","outputs":[{"internalType":"uint64","name":"","type":"uint64"},{"internalType":"uint256","name":"","type":"uint256"}],"stateMutability":"view","type":"function"},{"inputs":[{"internalType":"bytes32","name":"_orderId","type":"bytes32"}],"name":"getOrderInfo","outputs":[{"components":[{"internalType":"address","name":"sender","type":"address"},{"internalType":"address","name":"token","type":"address"},{"internalType":"address","name":"senderFeeRecipient","type":"address"},{"internalType":"uint256","name":"senderFee","type":"uint256"},{"internalType":"uint256","name":"protocolFee","type":"uint256"},{"internalType":"bool","name":"isFulfilled","type":"bool"},{"internalType":"bool","name":"isRefunded","type":"bool"},{"internalType":"address","name":"refundAddress","type":"address"},{"internalType":"uint96","name":"currentBPS","type":"uint96"},{"internalType":"uint256","name":"amount","type":"uint256"}],"internalType":"struct IGateway.Order","name":"","type":"tuple"}],"stateMutability":"view","type":"function"},{"inputs":[{"internalType":"bytes32","name":"_code","type":"bytes32"}],"name":"getSupportedInstitutionByCode","outputs":[{"components":[{"internalType":"bytes32","name":"name","type":"bytes32"},{"internalType":"bytes32","name":"currency","type":"bytes32"}],"internalType":"struct SharedStructs.InstitutionByCode","name":"","type":"tuple"}],"stateMutability":"view","type":"function"},{"inputs":[{"internalType":"bytes32","name":"_currency","type":"bytes32"}],"name":"getSupportedInstitutions","outputs":[{"components":[{"internalType":"bytes32","name":"code","type":"bytes32"},{"internalType":"bytes32","name":"name","type":"bytes32"}],"internalType":"struct SharedStructs.Institution[]","name":"","type":"tuple[]"}],"stateMutability":"view","type":"function"},{"inputs":[],"name":"initialize","outputs":[],"stateMutability":"nonpayable","type":"function"},{"inputs":[{"internalType":"address","name":"_token","type":"address"}],"name":"isTokenSupported","outputs":[{"internalType":"bool","name":"","type":"bool"}],"stateMutability":"view","type":"function"},{"inputs":[],"name":"owner","outputs":[{"internalType":"address","name":"","type":"address"}],"stateMutability":"view","type":"function"},{"inputs":[],"name":"pause","outputs":[],"stateMutability":"nonpayable","type":"function"},{"inputs":[],"name":"paused","outputs":[{"internalType":"bool","name":"","type":"bool"}],"stateMutability":"view","type":"function"},{"inputs":[],"name":"pendingOwner","outputs":[{"internalType":"address","name":"","type":"address"}],"stateMutability":"view","type":"function"},{"inputs":[{"internalType":"uint256","name":"_fee","type":"uint256"},{"internalType":"bytes32","name":"_orderId","type":"bytes32"}],"name":"refund","outputs":[{"internalType":"bool","name":"","type":"bool"}],"stateMutability":"nonpayable","type":"function"},{"inputs":[],"name":"renounceOwnership","outputs":[],"stateMutability":"nonpayable","type":"function"},{"inputs":[{"internalType":"bytes32","name":"currency","type":"bytes32"},{"components":[{"internalType":"bytes32","name":"code","type":"bytes32"},{"internalType":"bytes32","name":"name","type":"bytes32"}],"internalType":"struct SharedStructs.Institution[]","name":"institutions","type":"tuple[]"}],"name":"setSupportedInstitutions","outputs":[],"stateMutability":"nonpayable","type":"function"},{"inputs":[{"internalType":"bytes32","name":"what","type":"bytes32"},{"internalType":"address","name":"value","type":"address"},{"internalType":"uint256","name":"status","type":"uint256"}],"name":"settingManagerBool","outputs":[],"stateMutability":"nonpayable","type":"function"},{"inputs":[{"internalType":"bytes32","name":"_splitOrderId","type":"bytes32"},{"internalType":"bytes32","name":"_orderId","type":"bytes32"},{"internalType":"address","name":"_liquidityProvider","type":"address"},{"internalType":"uint64","name":"_settlePercent","type":"uint64"}],"name":"settle","outputs":[{"internalType":"bool","name":"","type":"bool"}],"stateMutability":"nonpayable","type":"function"},{"inputs":[{"internalType":"address","name":"newOwner","type":"address"}],"name":"transferOwnership","outputs":[],"stateMutability":"nonpayable","type":"function"},{"inputs":[],"name":"unpause","outputs":[],"stateMutability":"nonpayable","type":"function"},{"inputs":[{"internalType":"bytes32","name":"what","type":"bytes32"},{"internalType":"address","name":"value","type":"address"}],"name":"updateProtocolAddress","outputs":[],"stateMutability":"nonpayable","type":"function"},{"inputs":[{"internalType":"uint64","name":"_protocolFeePercent","type":"uint64"}],"name":"updateProtocolFee","outputs":[],"stateMutability":"nonpayable","type":"function"}],"devdoc":{"events":{"Initialized(uint8)":{"details":"Triggered when the contract has been initialized or reinitialized."},"OrderCreated(address,address,uint256,uint256,bytes32,uint256,bytes32,string)":{"details":"Emitted when a deposit is made.","params":{"amount":"The amount of the deposit.","institutionCode":"The code of the institution.","messageHash":"The hash of the message.","orderId":"The ID of the order.","rate":"The rate at which the deposit is made.","sender":"The address of the sender.","token":"The address of the deposited token."}},"OrderRefunded(uint256,bytes32)":{"details":"Emitted when an aggregator refunds a transaction.","params":{"fee":"The fee deducted from the refund amount.","orderId":"The ID of the order."}},"OrderSettled(bytes32,bytes32,address,uint96)":{"details":"Emitted when an aggregator settles a transaction.","params":{"liquidityProvider":"The address of the liquidity provider.","orderId":"The ID of the order.","settlePercent":"The percentage at which the transaction is settled.","splitOrderId":"The ID of the split order."}},"Paused(address)":{"details":"Emitted when the pause is triggered by `account`."},"SenderFeeTransferred(address,uint256)":{"details":"Emitted when the sender's fee is transferred.","params":{"amount":"The amount of the fee transferred.","sender":"The address of the sender."}},"Unpaused(address)":{"details":"Emitted when the pause is lifted by `account`."}},"kind":"dev","methods":{"acceptOwnership()":{"details":"The new owner accepts the ownership transfer."},"constructor":{"custom:oz-upgrades-unsafe-allow":"constructor"},"createOrder(address,uint256,bytes32,uint96,address,uint256,address,string)":{"details":"See {createOrder-IGateway}. "},"getFeeDetails()":{"details":"See {getFeeDetails-IGateway}. "},"getOrderInfo(bytes32)":{"details":"See {getOrderInfo-IGateway}. "},"getSupportedInstitutionByCode(bytes32)":{"details":"See {getSupportedInstitutionByCode-IGateway}. "},"getSupportedInstitutions(bytes32)":{"details":"See {getSupportedInstitutions-IGateway}. "},"initialize()":{"details":"Initialize function."},"isTokenSupported(address)":{"details":"See {isTokenSupported-IGateway}. "},"owner()":{"details":"Returns the address of the current owner."},"pause()":{"details":"Pause the contract."},"paused()":{"details":"Returns true if the contract is paused, and false otherwise."},"pendingOwner()":{"details":"Returns the address of the pending owner."},"refund(uint256,bytes32)":{"details":"See {refund-IGateway}. "},"renounceOwnership()":{"details":"Leaves the contract without owner. It will not be possible to call `onlyOwner` functions. Can only be called by the current owner. NOTE: Renouncing ownership will leave the contract without an owner, thereby disabling any functionality that is only available to the owner."},"setSupportedInstitutions(bytes32,(bytes32,bytes32)[])":{"details":"Sets the supported institutions for a specific currency.","params":{"currency":"The currency for which the institutions are being set.","institutions":"The array of institutions to be set."}},"settingManagerBool(bytes32,address,uint256)":{"details":"Sets the boolean value for a specific setting.","params":{"status":"The boolean value to be set. Requirements: - The value must not be a zero address.","value":"The address or value associated with the setting.","what":"The setting to be updated."}},"settle(bytes32,bytes32,address,uint64)":{"details":"See {settle-IGateway}. "},"transferOwnership(address)":{"details":"Starts the ownership transfer of the contract to a new account. Replaces the pending transfer if there is one. Can only be called by the current owner."},"unpause()":{"details":"Unpause the contract."},"updateProtocolAddress(bytes32,address)":{"details":"Updates a protocol address.","params":{"value":"The new address to be set. Requirements: - The value must not be a zero address.","what":"The address type to be updated (treasury or aggregator)."}},"updateProtocolFee(uint64)":{"details":"Updates the protocol fee percentage.","params":{"_protocolFeePercent":"The new protocol fee percentage to be set."}}},"title":"Gateway","version":1},"evm":{"bytecode":{"linkReferences":{},"object":"60806040523480156200001157600080fd5b50620000226200002860201b60201c565b620001d2565b600060019054906101000a900460ff16156200007b576040517f08c379a0000000000000000000000000000000000000000000000000000000008152600401620000729062000175565b60405180910390fd5b60ff801660008054906101000a900460ff1660ff1614620000ec5760ff6000806101000a81548160ff021916908360ff1602179055507f7f26b83ff96e1f2b6a682f133852f6798a09c465da95921460cefb384740249860ff604051620000e39190620001b5565b60405180910390a15b565b600082825260208201905092915050565b7f496e697469616c697a61626c653a20636f6e747261637420697320696e69746960008201527f616c697a696e6700000000000000000000000000000000000000000000000000602082015250565b60006200015d602783620000ee565b91506200016a82620000ff565b604082019050919050565b6000602082019050818103600083015262000190816200014e565b9050919050565b600060ff82169050919050565b620001af8162000197565b82525050565b6000602082019050620001cc6000830184620001a4565b92915050565b61407380620001e26000396000f3fe608060405234801561001057600080fd5b50600436106101375760003560e01c806379ba5097116100b8578063c22801031161007c578063c2280103146102dd578063cd9924001461030d578063d12ff20a14610329578063e30c397814610359578063f22ee70414610377578063f2fde38b146103a757610137565b806379ba5097146102825780638129fc1c1461028c5780638456cb59146102965780638da5cb5b146102a0578063b810c636146102be57610137565b80635c975abb116100ff5780635c975abb146101ca578063715018a6146101e857806371eedb88146101f257806375151b6314610222578063768c6ec01461025257610137565b8063026213381461013c578063322008821461016c5780633f4ba83a1461018857806340ebc6771461019257806347094e2e146101ae575b600080fd5b6101566004803603810190610151919061285d565b6103c3565b6040516101639190612977565b60405180910390f35b61018660048036038101906101819190612b47565b610449565b005b6101906105be565b005b6101ac60048036038101906101a79190612c01565b6105d0565b005b6101c860048036038101906101c39190612c81565b610898565b005b6101d2610903565b6040516101df9190612cc9565b60405180910390f35b6101f061091a565b005b61020c60048036038101906102079190612d1a565b61092e565b6040516102199190612cc9565b60405180910390f35b61023c60048036038101906102379190612d5a565b610dce565b6040516102499190612cc9565b60405180910390f35b61026c6004803603810190610267919061285d565b610e2a565b6040516102799190612ea7565b60405180910390f35b61028a611043565b005b6102946110d0565b005b61029e611220565b005b6102a8611232565b6040516102b59190612ed2565b60405180910390f35b6102c661125c565b6040516102d4929190612f0b565b60405180910390f35b6102f760048036038101906102f2919061285d565b611281565b6040516103049190612f63565b60405180910390f35b61032760048036038101906103229190612f7e565b6112c2565b005b610343600480360381019061033e9190613058565b611447565b604051610350919061313d565b60405180910390f35b61036161198d565b60405161036e9190612ed2565b60405180910390f35b610391600480360381019061038c9190613158565b6119b7565b60405161039e9190612cc9565b60405180910390f35b6103c160048036038101906103bc9190612d5a565b612013565b005b606060cd6000838152602001908152602001600020805480602002602001604051908101604052809291908181526020016000905b8282101561043e578382906000526020600020906002020160405180604001604052908160008201548152602001600182015481525050815260200190600101906103f8565b505050509050919050565b6104516120c0565b60cd6000838152602001908152602001600020600061047091906126eb565b60005b815181101561056f5760cd60008481526020019081526020016000208282815181106104a2576104a16131bf565b5b60200260200101519080600181540180825580915050600190039060005260206000209060020201600090919091909150600082015181600001556020820151816001015550506040518060400160405280838381518110610507576105066131bf565b5b60200260200101516020015181526020018481525060ce6000848481518110610533576105326131bf565b5b60200260200101516000015181526020019081526020016000206000820151816000015560208201518160010155905050806001019050610473565b50817f58f3a30ec15a8d3e09fa65f9ef10219bc7a9a99d872a4ed895c37c2e761ac2ac60cd60008581526020019081526020016000206040516105b29190613308565b60405180910390a25050565b6105c66120c0565b6105ce61213e565b565b6105d86120c0565b600073ffffffffffffffffffffffffffffffffffffffff168173ffffffffffffffffffffffffffffffffffffffff1603610647576040517f08c379a000000000000000000000000000000000000000000000000000000000815260040161063e90613387565b60405180910390fd5b60007f7472656173757279000000000000000000000000000000000000000000000000830361074a578173ffffffffffffffffffffffffffffffffffffffff16609860089054906101000a900473ffffffffffffffffffffffffffffffffffffffff1673ffffffffffffffffffffffffffffffffffffffff1603610700576040517f08c379a00000000000000000000000000000000000000000000000000000000081526004016106f790613419565b60405180910390fd5b81609860086101000a81548173ffffffffffffffffffffffffffffffffffffffff021916908373ffffffffffffffffffffffffffffffffffffffff16021790555060019050610848565b7f61676772656761746f72000000000000000000000000000000000000000000008303610847578173ffffffffffffffffffffffffffffffffffffffff16609960009054906101000a900473ffffffffffffffffffffffffffffffffffffffff1673ffffffffffffffffffffffffffffffffffffffff1603610801576040517f08c379a00000000000000000000000000000000000000000000000000000000081526004016107f8906134ab565b60405180910390fd5b81609960006101000a81548173ffffffffffffffffffffffffffffffffffffffff021916908373ffffffffffffffffffffffffffffffffffffffff160217905550600190505b5b8015610893578173ffffffffffffffffffffffffffffffffffffffff16837fbbc5b96e57cfecb3dbeeadf92e87f15e58e64fcd75cbe256dcc5d9ef2e51e8a460405160405180910390a35b505050565b6108a06120c0565b80609860006101000a81548167ffffffffffffffff021916908367ffffffffffffffff1602179055507f1ce29a697a4765bd17d91df93ba75b250b629ecf030553ff1f6ab59f15ae6c7b816040516108f891906134cb565b60405180910390a150565b600060cf60009054906101000a900460ff16905090565b6109226120c0565b61092c60006121a1565b565b6000609960009054906101000a900473ffffffffffffffffffffffffffffffffffffffff1673ffffffffffffffffffffffffffffffffffffffff163373ffffffffffffffffffffffffffffffffffffffff16146109c0576040517f08c379a00000000000000000000000000000000000000000000000000000000081526004016109b790613532565b60405180910390fd5b610101600083815260200190815260200160002060050160009054906101000a900460ff1615610a25576040517f08c379a0000000000000000000000000000000000000000000000000000000008152600401610a1c9061359e565b60405180910390fd5b610101600083815260200190815260200160002060050160019054906101000a900460ff1615610a8a576040517f08c379a0000000000000000000000000000000000000000000000000000000008152600401610a819061360a565b60405180910390fd5b826101016000848152602001908152602001600020600401541015610ae4576040517f08c379a0000000000000000000000000000000000000000000000000000000008152600401610adb90613676565b60405180910390fd5b610101600083815260200190815260200160002060010160009054906101000a900473ffffffffffffffffffffffffffffffffffffffff1673ffffffffffffffffffffffffffffffffffffffff1663a9059cbb609860089054906101000a900473ffffffffffffffffffffffffffffffffffffffff16856040518363ffffffff1660e01b8152600401610b78929190613696565b6020604051808303816000875af1158015610b97573d6000803e3d6000fd5b505050506040513d601f19601f82011682018060405250810190610bbb91906136eb565b506001610101600084815260200190815260200160002060050160016101000a81548160ff0219169083151502179055506000610101600084815260200190815260200160002060060160006101000a8154816bffffffffffffffffffffffff02191690836bffffffffffffffffffffffff160217905550600083610101600085815260200190815260200160002060040154610101600086815260200190815260200160002060070154610c709190613747565b610c7a919061377b565b9050610101600084815260200190815260200160002060010160009054906101000a900473ffffffffffffffffffffffffffffffffffffffff1673ffffffffffffffffffffffffffffffffffffffff1663a9059cbb610101600086815260200190815260200160002060050160029054906101000a900473ffffffffffffffffffffffffffffffffffffffff1661010160008781526020019081526020016000206003015484610d2a9190613747565b6040518363ffffffff1660e01b8152600401610d47929190613696565b6020604051808303816000875af1158015610d66573d6000803e3d6000fd5b505050506040513d601f19601f82011682018060405250810190610d8a91906136eb565b50827f0736fe428e1747ca8d387c2e6fa1a31a0cde62d3a167c40a46ade59a3cdc828e85604051610dbb91906137af565b60405180910390a2600191505092915050565b6000600160cc60008473ffffffffffffffffffffffffffffffffffffffff1673ffffffffffffffffffffffffffffffffffffffff1681526020019081526020016000205403610e205760019050610e25565b600090505b919050565b610e3261270f565b6101016000838152602001908152602001600020604051806101400160405290816000820160009054906101000a900473ffffffffffffffffffffffffffffffffffffffff1673ffffffffffffffffffffffffffffffffffffffff1673ffffffffffffffffffffffffffffffffffffffff1681526020016001820160009054906101000a900473ffffffffffffffffffffffffffffffffffffffff1673ffffffffffffffffffffffffffffffffffffffff1673ffffffffffffffffffffffffffffffffffffffff1681526020016002820160009054906101000a900473ffffffffffffffffffffffffffffffffffffffff1673ffffffffffffffffffffffffffffffffffffffff1673ffffffffffffffffffffffffffffffffffffffff16815260200160038201548152602001600482015481526020016005820160009054906101000a900460ff161515151581526020016005820160019054906101000a900460ff161515151581526020016005820160029054906101000a900473ffffffffffffffffffffffffffffffffffffffff1673ffffffffffffffffffffffffffffffffffffffff1673ffffffffffffffffffffffffffffffffffffffff1681526020016006820160009054906101000a90046bffffffffffffffffffffffff166bffffffffffffffffffffffff166bffffffffffffffffffffffff1681526020016007820154815250509050919050565b600061104d6121d2565b90508073ffffffffffffffffffffffffffffffffffffffff1661106e61198d565b73ffffffffffffffffffffffffffffffffffffffff16146110c4576040517f08c379a00000000000000000000000000000000000000000000000000000000081526004016110bb9061383c565b60405180910390fd5b6110cd816121a1565b50565b60008060019054906101000a900460ff161590508080156111015750600160008054906101000a900460ff1660ff16105b8061112e5750611110306121da565b15801561112d5750600160008054906101000a900460ff1660ff16145b5b61116d576040517f08c379a0000000000000000000000000000000000000000000000000000000008152600401611164906138ce565b60405180910390fd5b60016000806101000a81548160ff021916908360ff16021790555080156111aa576001600060016101000a81548160ff0219169083151502179055505b620186a06097819055506111bc6121fd565b6111c4612256565b801561121d5760008060016101000a81548160ff0219169083151502179055507f7f26b83ff96e1f2b6a682f133852f6798a09c465da95921460cefb384740249860016040516112149190613940565b60405180910390a15b50565b6112286120c0565b6112306122af565b565b6000603360009054906101000a900473ffffffffffffffffffffffffffffffffffffffff16905090565b600080609860009054906101000a900467ffffffffffffffff16609754915091509091565b6112896127cc565b60ce6000838152602001908152602001600020604051806040016040529081600082015481526020016001820154815250509050919050565b6112ca6120c0565b600073ffffffffffffffffffffffffffffffffffffffff168273ffffffffffffffffffffffffffffffffffffffff1603611339576040517f08c379a000000000000000000000000000000000000000000000000000000000815260040161133090613387565b60405180910390fd5b60018114806113485750600281145b611387576040517f08c379a000000000000000000000000000000000000000000000000000000000815260040161137e906139a7565b60405180910390fd5b7f746f6b656e0000000000000000000000000000000000000000000000000000008303611442578060cc60008473ffffffffffffffffffffffffffffffffffffffff1673ffffffffffffffffffffffffffffffffffffffff168152602001908152602001600020819055508173ffffffffffffffffffffffffffffffffffffffff16837fcfa976492af7c14a916cc3a239f4c9c75bbd7f5f0e398beb41d892c7eeccae4c8360405161143991906137af565b60405180910390a35b505050565b6000611451612312565b61145e8a8a86898961235c565b600083839050036114a4576040517f08c379a000000000000000000000000000000000000000000000000000000000815260040161149b90613a13565b60405180910390fd5b8973ffffffffffffffffffffffffffffffffffffffff166323b872dd3330888d6114ce9190613747565b6040518463ffffffff1660e01b81526004016114ec93929190613a33565b6020604051808303816000875af115801561150b573d6000803e3d6000fd5b505050506040513d601f19601f8201168201806040525081019061152f91906136eb565b5061010260003373ffffffffffffffffffffffffffffffffffffffff1673ffffffffffffffffffffffffffffffffffffffff168152602001908152602001600020600081548092919061158190613a6a565b91905055503361010260003373ffffffffffffffffffffffffffffffffffffffff1673ffffffffffffffffffffffffffffffffffffffff168152602001908152602001600020546040516020016115d9929190613696565b6040516020818303038152906040528051906020012090506000609754609860009054906101000a900467ffffffffffffffff1667ffffffffffffffff168b6116229190613ab2565b61162c9190613b23565b90506040518061014001604052803373ffffffffffffffffffffffffffffffffffffffff1681526020018c73ffffffffffffffffffffffffffffffffffffffff1681526020018873ffffffffffffffffffffffffffffffffffffffff1681526020018781526020018281526020016000151581526020016000151581526020018673ffffffffffffffffffffffffffffffffffffffff16815260200160975467ffffffffffffffff166bffffffffffffffffffffffff168152602001828c6116f4919061377b565b815250610101600084815260200190815260200160002060008201518160000160006101000a81548173ffffffffffffffffffffffffffffffffffffffff021916908373ffffffffffffffffffffffffffffffffffffffff16021790555060208201518160010160006101000a81548173ffffffffffffffffffffffffffffffffffffffff021916908373ffffffffffffffffffffffffffffffffffffffff16021790555060408201518160020160006101000a81548173ffffffffffffffffffffffffffffffffffffffff021916908373ffffffffffffffffffffffffffffffffffffffff160217905550606082015181600301556080820151816004015560a08201518160050160006101000a81548160ff02191690831515021790555060c08201518160050160016101000a81548160ff02191690831515021790555060e08201518160050160026101000a81548173ffffffffffffffffffffffffffffffffffffffff021916908373ffffffffffffffffffffffffffffffffffffffff1602179055506101008201518160060160006101000a8154816bffffffffffffffffffffffff02191690836bffffffffffffffffffffffff16021790555061012082015181600701559050506101016000838152602001908152602001600020600701548b73ffffffffffffffffffffffffffffffffffffffff16610101600085815260200190815260200160002060000160009054906101000a900473ffffffffffffffffffffffffffffffffffffffff1673ffffffffffffffffffffffffffffffffffffffff167f3bdd0d86e09a22d7ce596118bd3ca5ec73ea47533a465be37621e913ed2bf33384868d8f8b8b60405161197796959493929190613bc1565b60405180910390a4509998505050505050505050565b6000606560009054906101000a900473ffffffffffffffffffffffffffffffffffffffff16905090565b6000609960009054906101000a900473ffffffffffffffffffffffffffffffffffffffff1673ffffffffffffffffffffffffffffffffffffffff163373ffffffffffffffffffffffffffffffffffffffff1614611a49576040517f08c379a0000000000000000000000000000000000000000000000000000000008152600401611a4090613532565b60405180910390fd5b610101600085815260200190815260200160002060050160009054906101000a900460ff1615611aae576040517f08c379a0000000000000000000000000000000000000000000000000000000008152600401611aa59061359e565b60405180910390fd5b610101600085815260200190815260200160002060050160019054906101000a900460ff1615611b13576040517f08c379a0000000000000000000000000000000000000000000000000000000008152600401611b0a9061360a565b60405180910390fd5b6000610101600086815260200190815260200160002060010160009054906101000a900473ffffffffffffffffffffffffffffffffffffffff1690508267ffffffffffffffff16610101600087815260200190815260200160002060060160008282829054906101000a90046bffffffffffffffffffffffff16611b979190613c1d565b92506101000a8154816bffffffffffffffffffffffff02191690836bffffffffffffffffffffffff1602179055506000610101600087815260200190815260200160002060060160009054906101000a90046bffffffffffffffffffffffff166bffffffffffffffffffffffff1603611ec9576001610101600087815260200190815260200160002060050160006101000a81548160ff021916908315150217905550600061010160008781526020019081526020016000206003015414611df057610101600086815260200190815260200160002060010160009054906101000a900473ffffffffffffffffffffffffffffffffffffffff1673ffffffffffffffffffffffffffffffffffffffff1663a9059cbb610101600088815260200190815260200160002060020160009054906101000a900473ffffffffffffffffffffffffffffffffffffffff166101016000898152602001908152602001600020600301546040518363ffffffff1660e01b8152600401611d19929190613696565b6020604051808303816000875af1158015611d38573d6000803e3d6000fd5b505050506040513d601f19601f82011682018060405250810190611d5c91906136eb565b50610101600086815260200190815260200160002060030154610101600087815260200190815260200160002060020160009054906101000a900473ffffffffffffffffffffffffffffffffffffffff1673ffffffffffffffffffffffffffffffffffffffff167f44f6938ca4a10313aabb76f874cced61e35710a734a126e4afb34461bf8c250160405160405180910390a35b600061010160008781526020019081526020016000206004015414611ec8578073ffffffffffffffffffffffffffffffffffffffff1663a9059cbb609860089054906101000a900473ffffffffffffffffffffffffffffffffffffffff166101016000898152602001908152602001600020600401546040518363ffffffff1660e01b8152600401611e83929190613696565b6020604051808303816000875af1158015611ea2573d6000803e3d6000fd5b505050506040513d601f19601f82011682018060405250810190611ec691906136eb565b505b5b60006097548467ffffffffffffffff16610101600089815260200190815260200160002060070154611efb9190613ab2565b611f059190613b23565b90508061010160008881526020019081526020016000206007016000828254611f2e919061377b565b925050819055508173ffffffffffffffffffffffffffffffffffffffff1663a9059cbb86836040518363ffffffff1660e01b8152600401611f70929190613696565b6020604051808303816000875af1158015611f8f573d6000803e3d6000fd5b505050506040513d601f19601f82011682018060405250810190611fb391906136eb565b508473ffffffffffffffffffffffffffffffffffffffff16867f98ece21e01a01cbe1d1c0dad3b053c8fbd368f99be78be958fcf1d1d13fd249a8987604051611ffd929190613c8e565b60405180910390a3600192505050949350505050565b61201b6120c0565b80606560006101000a81548173ffffffffffffffffffffffffffffffffffffffff021916908373ffffffffffffffffffffffffffffffffffffffff1602179055508073ffffffffffffffffffffffffffffffffffffffff1661207b611232565b73ffffffffffffffffffffffffffffffffffffffff167f38d16b8cac22d99fc7c124b9cd0de2d3fa1faef420bfe791d8c362d765e2270060405160405180910390a350565b6120c86121d2565b73ffffffffffffffffffffffffffffffffffffffff166120e6611232565b73ffffffffffffffffffffffffffffffffffffffff161461213c576040517f08c379a000000000000000000000000000000000000000000000000000000000815260040161213390613d03565b60405180910390fd5b565b61214661250f565b600060cf60006101000a81548160ff0219169083151502179055507f5db9ee0a495bf2e6ff9c91a7834c1ba4fdd244a5e8aa4e537bd38aeae4b073aa61218a6121d2565b6040516121979190612ed2565b60405180910390a1565b606560006101000a81549073ffffffffffffffffffffffffffffffffffffffff02191690556121cf81612558565b50565b600033905090565b6000808273ffffffffffffffffffffffffffffffffffffffff163b119050919050565b600060019054906101000a900460ff1661224c576040517f08c379a000000000000000000000000000000000000000000000000000000000815260040161224390613d95565b60405180910390fd5b61225461261e565b565b600060019054906101000a900460ff166122a5576040517f08c379a000000000000000000000000000000000000000000000000000000000815260040161229c90613d95565b60405180910390fd5b6122ad61267f565b565b6122b7612312565b600160cf60006101000a81548160ff0219169083151502179055507f62e78cea01bee320cd4e420270b5ea74000d11b0c9f74754ebdbfc544b05a2586122fb6121d2565b6040516123089190612ed2565b60405180910390a1565b61231a610903565b1561235a576040517f08c379a000000000000000000000000000000000000000000000000000000000815260040161235190613e01565b60405180910390fd5b565b600160cc60008773ffffffffffffffffffffffffffffffffffffffff1673ffffffffffffffffffffffffffffffffffffffff16815260200190815260200160002054146123de576040517f08c379a00000000000000000000000000000000000000000000000000000000081526004016123d590613e6d565b60405180910390fd5b60008403612421576040517f08c379a000000000000000000000000000000000000000000000000000000000815260040161241890613ed9565b60405180910390fd5b600073ffffffffffffffffffffffffffffffffffffffff168373ffffffffffffffffffffffffffffffffffffffff1603612490576040517f08c379a000000000000000000000000000000000000000000000000000000000815260040161248790613f45565b60405180910390fd5b6000811461250857600073ffffffffffffffffffffffffffffffffffffffff168273ffffffffffffffffffffffffffffffffffffffff1603612507576040517f08c379a00000000000000000000000000000000000000000000000000000000081526004016124fe90613fb1565b60405180910390fd5b5b5050505050565b612517610903565b612556576040517f08c379a000000000000000000000000000000000000000000000000000000000815260040161254d9061401d565b60405180910390fd5b565b6000603360009054906101000a900473ffffffffffffffffffffffffffffffffffffffff16905081603360006101000a81548173ffffffffffffffffffffffffffffffffffffffff021916908373ffffffffffffffffffffffffffffffffffffffff1602179055508173ffffffffffffffffffffffffffffffffffffffff168173ffffffffffffffffffffffffffffffffffffffff167f8be0079c531659141344cd1fd0a4f28419497f9722a3daafe3b4186f6b6457e060405160405180910390a35050565b600060019054906101000a900460ff1661266d576040517f08c379a000000000000000000000000000000000000000000000000000000000815260040161266490613d95565b60405180910390fd5b61267d6126786121d2565b6121a1565b565b600060019054906101000a900460ff166126ce576040517f08c379a00000000000000000000000000000000000000000000000000000000081526004016126c590613d95565b60405180910390fd5b600060cf60006101000a81548160ff021916908315150217905550565b508054600082556002029060005260206000209081019061270c91906127ec565b50565b604051806101400160405280600073ffffffffffffffffffffffffffffffffffffffff168152602001600073ffffffffffffffffffffffffffffffffffffffff168152602001600073ffffffffffffffffffffffffffffffffffffffff1681526020016000815260200160008152602001600015158152602001600015158152602001600073ffffffffffffffffffffffffffffffffffffffff16815260200160006bffffffffffffffffffffffff168152602001600081525090565b604051806040016040528060008019168152602001600080191681525090565b5b8082111561280f576000808201600090556001820160009055506002016127ed565b5090565b6000604051905090565b600080fd5b600080fd5b6000819050919050565b61283a81612827565b811461284557600080fd5b50565b60008135905061285781612831565b92915050565b6000602082840312156128735761287261281d565b5b600061288184828501612848565b91505092915050565b600081519050919050565b600082825260208201905092915050565b6000819050602082019050919050565b6128bf81612827565b82525050565b6040820160008201516128db60008501826128b6565b5060208201516128ee60208501826128b6565b50505050565b600061290083836128c5565b60408301905092915050565b6000602082019050919050565b60006129248261288a565b61292e8185612895565b9350612939836128a6565b8060005b8381101561296a57815161295188826128f4565b975061295c8361290c565b92505060018101905061293d565b5085935050505092915050565b600060208201905081810360008301526129918184612919565b905092915050565b600080fd5b6000601f19601f8301169050919050565b7f4e487b7100000000000000000000000000000000000000000000000000000000600052604160045260246000fd5b6129e78261299e565b810181811067ffffffffffffffff82111715612a0657612a056129af565b5b80604052505050565b6000612a19612813565b9050612a2582826129de565b919050565b600067ffffffffffffffff821115612a4557612a446129af565b5b602082029050602081019050919050565b600080fd5b600080fd5b600060408284031215612a7657612a75612a5b565b5b612a806040612a0f565b90506000612a9084828501612848565b6000830152506020612aa484828501612848565b60208301525092915050565b6000612ac3612abe84612a2a565b612a0f565b90508083825260208201905060408402830185811115612ae657612ae5612a56565b5b835b81811015612b0f5780612afb8882612a60565b845260208401935050604081019050612ae8565b5050509392505050565b600082601f830112612b2e57612b2d612999565b5b8135612b3e848260208601612ab0565b91505092915050565b60008060408385031215612b5e57612b5d61281d565b5b6000612b6c85828601612848565b925050602083013567ffffffffffffffff811115612b8d57612b8c612822565b5b612b9985828601612b19565b9150509250929050565b600073ffffffffffffffffffffffffffffffffffffffff82169050919050565b6000612bce82612ba3565b9050919050565b612bde81612bc3565b8114612be957600080fd5b50565b600081359050612bfb81612bd5565b92915050565b60008060408385031215612c1857612c1761281d565b5b6000612c2685828601612848565b9250506020612c3785828601612bec565b9150509250929050565b600067ffffffffffffffff82169050919050565b612c5e81612c41565b8114612c6957600080fd5b50565b600081359050612c7b81612c55565b92915050565b600060208284031215612c9757612c9661281d565b5b6000612ca584828501612c6c565b91505092915050565b60008115159050919050565b612cc381612cae565b82525050565b6000602082019050612cde6000830184612cba565b92915050565b6000819050919050565b612cf781612ce4565b8114612d0257600080fd5b50565b600081359050612d1481612cee565b92915050565b60008060408385031215612d3157612d3061281d565b5b6000612d3f85828601612d05565b9250506020612d5085828601612848565b9150509250929050565b600060208284031215612d7057612d6f61281d565b5b6000612d7e84828501612bec565b91505092915050565b612d9081612bc3565b82525050565b612d9f81612ce4565b82525050565b612dae81612cae565b82525050565b60006bffffffffffffffffffffffff82169050919050565b612dd581612db4565b82525050565b61014082016000820151612df26000850182612d87565b506020820151612e056020850182612d87565b506040820151612e186040850182612d87565b506060820151612e2b6060850182612d96565b506080820151612e3e6080850182612d96565b5060a0820151612e5160a0850182612da5565b5060c0820151612e6460c0850182612da5565b5060e0820151612e7760e0850182612d87565b50610100820151612e8c610100850182612dcc565b50610120820151612ea1610120850182612d96565b50505050565b600061014082019050612ebd6000830184612ddb565b92915050565b612ecc81612bc3565b82525050565b6000602082019050612ee76000830184612ec3565b92915050565b612ef681612c41565b82525050565b612f0581612ce4565b82525050565b6000604082019050612f206000830185612eed565b612f2d6020830184612efc565b9392505050565b604082016000820151612f4a60008501826128b6565b506020820151612f5d60208501826128b6565b50505050565b6000604082019050612f786000830184612f34565b92915050565b600080600060608486031215612f9757612f9661281d565b5b6000612fa586828701612848565b9350506020612fb686828701612bec565b9250506040612fc786828701612d05565b9150509250925092565b612fda81612db4565b8114612fe557600080fd5b50565b600081359050612ff781612fd1565b92915050565b600080fd5b60008083601f84011261301857613017612999565b5b8235905067ffffffffffffffff81111561303557613034612ffd565b5b60208301915083600182028301111561305157613050612a56565b5b9250929050565b60008060008060008060008060006101008a8c03121561307b5761307a61281d565b5b60006130898c828d01612bec565b995050602061309a8c828d01612d05565b98505060406130ab8c828d01612848565b97505060606130bc8c828d01612fe8565b96505060806130cd8c828d01612bec565b95505060a06130de8c828d01612d05565b94505060c06130ef8c828d01612bec565b93505060e08a013567ffffffffffffffff8111156131105761310f612822565b5b61311c8c828d01613002565b92509250509295985092959850929598565b61313781612827565b82525050565b6000602082019050613152600083018461312e565b92915050565b600080600080608085870312156131725761317161281d565b5b600061318087828801612848565b945050602061319187828801612848565b93505060406131a287828801612bec565b92505060606131b387828801612c6c565b91505092959194509250565b7f4e487b7100000000000000000000000000000000000000000000000000000000600052603260045260246000fd5b600081549050919050565b60008190508160005260206000209050919050565b60008160001c9050919050565b6000819050919050565b60006132386132338361320e565b61321b565b9050919050565b60408201600080830154905061325481613225565b61326160008601826128b6565b506001830154905061327281613225565b61327f60208601826128b6565b5050505050565b6000613292838361323f565b60408301905092915050565b6000600282019050919050565b60006132b6826131ee565b6132c08185612895565b93506132cb836131f9565b8060005b838110156132fb57816132e28882613286565b97506132ed8361329e565b9250506001810190506132cf565b5085935050505092915050565b6000602082019050818103600083015261332281846132ab565b905092915050565b600082825260208201905092915050565b7f476174657761793a207a65726f20616464726573730000000000000000000000600082015250565b600061337160158361332a565b915061337c8261333b565b602082019050919050565b600060208201905081810360008301526133a081613364565b9050919050565b7f476174657761793a207472656173757279206164647265737320616c7265616460008201527f7920736574000000000000000000000000000000000000000000000000000000602082015250565b600061340360258361332a565b915061340e826133a7565b604082019050919050565b60006020820190508181036000830152613432816133f6565b9050919050565b7f476174657761793a2061676772656761746f72206164647265737320616c726560008201527f6164792073657400000000000000000000000000000000000000000000000000602082015250565b600061349560278361332a565b91506134a082613439565b604082019050919050565b600060208201905081810360008301526134c481613488565b9050919050565b60006020820190506134e06000830184612eed565b92915050565b7f4f6e6c7941676772656761746f72000000000000000000000000000000000000600082015250565b600061351c600e8361332a565b9150613527826134e6565b602082019050919050565b6000602082019050818103600083015261354b8161350f565b9050919050565b7f4f7264657246756c66696c6c6564000000000000000000000000000000000000600082015250565b6000613588600e8361332a565b915061359382613552565b602082019050919050565b600060208201905081810360008301526135b78161357b565b9050919050565b7f4f72646572526566756e64656400000000000000000000000000000000000000600082015250565b60006135f4600d8361332a565b91506135ff826135be565b602082019050919050565b60006020820190508181036000830152613623816135e7565b9050919050565b7f4665654578636565647350726f746f636f6c4665650000000000000000000000600082015250565b600061366060158361332a565b915061366b8261362a565b602082019050919050565b6000602082019050818103600083015261368f81613653565b9050919050565b60006040820190506136ab6000830185612ec3565b6136b86020830184612efc565b9392505050565b6136c881612cae565b81146136d357600080fd5b50565b6000815190506136e5816136bf565b92915050565b6000602082840312156137015761370061281d565b5b600061370f848285016136d6565b91505092915050565b7f4e487b7100000000000000000000000000000000000000000000000000000000600052601160045260246000fd5b600061375282612ce4565b915061375d83612ce4565b925082820190508082111561377557613774613718565b5b92915050565b600061378682612ce4565b915061379183612ce4565b92508282039050818111156137a9576137a8613718565b5b92915050565b60006020820190506137c46000830184612efc565b92915050565b7f4f776e61626c6532537465703a2063616c6c6572206973206e6f74207468652060008201527f6e6577206f776e65720000000000000000000000000000000000000000000000602082015250565b600061382660298361332a565b9150613831826137ca565b604082019050919050565b6000602082019050818103600083015261385581613819565b9050919050565b7f496e697469616c697a61626c653a20636f6e747261637420697320616c72656160008201527f647920696e697469616c697a6564000000000000000000000000000000000000602082015250565b60006138b8602e8361332a565b91506138c38261385c565b604082019050919050565b600060208201905081810360008301526138e7816138ab565b9050919050565b6000819050919050565b600060ff82169050919050565b6000819050919050565b600061392a613925613920846138ee565b613905565b6138f8565b9050919050565b61393a8161390f565b82525050565b60006020820190506139556000830184613931565b92915050565b7f476174657761793a20696e76616c696420737461747573000000000000000000600082015250565b600061399160178361332a565b915061399c8261395b565b602082019050919050565b600060208201905081810360008301526139c081613984565b9050919050565b7f496e76616c69644d657373616765486173680000000000000000000000000000600082015250565b60006139fd60128361332a565b9150613a08826139c7565b602082019050919050565b60006020820190508181036000830152613a2c816139f0565b9050919050565b6000606082019050613a486000830186612ec3565b613a556020830185612ec3565b613a626040830184612efc565b949350505050565b6000613a7582612ce4565b91507fffffffffffffffffffffffffffffffffffffffffffffffffffffffffffffffff8203613aa757613aa6613718565b5b600182019050919050565b6000613abd82612ce4565b9150613ac883612ce4565b9250828202613ad681612ce4565b91508282048414831517613aed57613aec613718565b5b5092915050565b7f4e487b7100000000000000000000000000000000000000000000000000000000600052601260045260246000fd5b6000613b2e82612ce4565b9150613b3983612ce4565b925082613b4957613b48613af4565b5b828204905092915050565b6000613b6f613b6a613b6584612db4565b613905565b612ce4565b9050919050565b613b7f81613b54565b82525050565b82818337600083830152505050565b6000613ba0838561332a565b9350613bad838584613b85565b613bb68361299e565b840190509392505050565b600060a082019050613bd66000830189612efc565b613be3602083018861312e565b613bf06040830187613b76565b613bfd606083018661312e565b8181036080830152613c10818486613b94565b9050979650505050505050565b6000613c2882612db4565b9150613c3383612db4565b925082820390506bffffffffffffffffffffffff811115613c5757613c56613718565b5b92915050565b6000613c78613c73613c6e84612c41565b613905565b612db4565b9050919050565b613c8881613c5d565b82525050565b6000604082019050613ca3600083018561312e565b613cb06020830184613c7f565b9392505050565b7f4f776e61626c653a2063616c6c6572206973206e6f7420746865206f776e6572600082015250565b6000613ced60208361332a565b9150613cf882613cb7565b602082019050919050565b60006020820190508181036000830152613d1c81613ce0565b9050919050565b7f496e697469616c697a61626c653a20636f6e7472616374206973206e6f74206960008201527f6e697469616c697a696e67000000000000000000000000000000000000000000602082015250565b6000613d7f602b8361332a565b9150613d8a82613d23565b604082019050919050565b60006020820190508181036000830152613dae81613d72565b9050919050565b7f5061757361626c653a2070617573656400000000000000000000000000000000600082015250565b6000613deb60108361332a565b9150613df682613db5565b602082019050919050565b60006020820190508181036000830152613e1a81613dde565b9050919050565b7f546f6b656e4e6f74537570706f72746564000000000000000000000000000000600082015250565b6000613e5760118361332a565b9150613e6282613e21565b602082019050919050565b60006020820190508181036000830152613e8681613e4a565b9050919050565b7f416d6f756e7449735a65726f0000000000000000000000000000000000000000600082015250565b6000613ec3600c8361332a565b9150613ece82613e8d565b602082019050919050565b60006020820190508181036000830152613ef281613eb6565b9050919050565b7f5468726f775a65726f4164647265737300000000000000000000000000000000600082015250565b6000613f2f60108361332a565b9150613f3a82613ef9565b602082019050919050565b60006020820190508181036000830152613f5e81613f22565b9050919050565b7f496e76616c696453656e646572466565526563697069656e7400000000000000600082015250565b6000613f9b60198361332a565b9150613fa682613f65565b602082019050919050565b60006020820190508181036000830152613fca81613f8e565b9050919050565b7f5061757361626c653a206e6f7420706175736564000000000000000000000000600082015250565b600061400760148361332a565b915061401282613fd1565b602082019050919050565b6000602082019050818103600083015261403681613ffa565b905091905056fea26469706673582212207dab2d8943229ee0ffe5f5e542da3ea20341c382d0e9de16603ee6cdba0d8e8f64736f6c63430008120033","opcodes":"PUSH1 0x80 PUSH1 0x40 MSTORE CALLVALUE DUP1 ISZERO PUSH3 0x11 JUMPI PUSH1 0x0 DUP1 REVERT JUMPDEST POP PUSH3 0x22 PUSH3 0x28 PUSH1 0x20 SHL PUSH1 0x20 SHR JUMP JUMPDEST PUSH3 0x1D2 JUMP JUMPDEST PUSH1 0x0 PUSH1 0x1 SWAP1 SLOAD SWAP1 PUSH2 0x100 EXP SWAP1 DIV PUSH1 0xFF AND ISZERO PUSH3 0x7B JUMPI PUSH1 0x40 MLOAD PUSH32 0x8C379A000000000000000000000000000000000000000000000000000000000 DUP2 MSTORE PUSH1 0x4 ADD PUSH3 0x72 SWAP1 PUSH3 0x175 JUMP JUMPDEST PUSH1 0x40 MLOAD DUP1 SWAP2 SUB SWAP1 REVERT JUMPDEST PUSH1 0xFF DUP1 AND PUSH1 0x0 DUP1 SLOAD SWAP1 PUSH2 0x100 EXP SWAP1 DIV PUSH1 0xFF AND PUSH1 0xFF AND EQ PUSH3 0xEC JUMPI PUSH1 0xFF PUSH1 0x0 DUP1 PUSH2 0x100 EXP DUP2 SLOAD DUP2 PUSH1 0xFF MUL NOT AND SWAP1 DUP4 PUSH1 0xFF AND MUL OR SWAP1 SSTORE POP PUSH32 0x7F26B83FF96E1F2B6A682F133852F6798A09C465DA95921460CEFB3847402498 PUSH1 0xFF PUSH1 0x40 MLOAD PUSH3 0xE3 SWAP2 SWAP1 PUSH3 0x1B5 JUMP JUMPDEST PUSH1 0x40 MLOAD DUP1 SWAP2 SUB SWAP1 LOG1 JUMPDEST JUMP JUMPDEST PUSH1 0x0 DUP3 DUP3 MSTORE PUSH1 0x20 DUP3 ADD SWAP1 POP SWAP3 SWAP2 POP POP JUMP JUMPDEST PUSH32 0x496E697469616C697A61626C653A20636F6E747261637420697320696E697469 PUSH1 0x0 DUP3 ADD MSTORE PUSH32 0x616C697A696E6700000000000000000000000000000000000000000000000000 PUSH1 0x20 DUP3 ADD MSTORE POP JUMP JUMPDEST PUSH1 0x0 PUSH3 0x15D PUSH1 0x27 DUP4 PUSH3 0xEE JUMP JUMPDEST SWAP2 POP PUSH3 0x16A DUP3 PUSH3 0xFF JUMP JUMPDEST PUSH1 0x40 DUP3 ADD SWAP1 POP SWAP2 SWAP1 POP JUMP JUMPDEST PUSH1 0x0 PUSH1 0x20 DUP3 ADD SWAP1 POP DUP2 DUP2 SUB PUSH1 0x0 DUP4 ADD MSTORE PUSH3 0x190 DUP2 PUSH3 0x14E JUMP JUMPDEST SWAP1 POP SWAP2 SWAP1 POP JUMP JUMPDEST PUSH1 0x0 PUSH1 0xFF DUP3 AND SWAP1 POP SWAP2 SWAP1 POP JUMP JUMPDEST PUSH3 0x1AF DUP2 PUSH3 0x197 JUMP JUMPDEST DUP3 MSTORE POP POP JUMP JUMPDEST PUSH1 0x0 PUSH1 0x20 DUP3 ADD SWAP1 POP PUSH3 0x1CC PUSH1 0x0 DUP4 ADD DUP5 PUSH3 0x1A4 JUMP JUMPDEST SWAP3 SWAP2 POP POP JUMP JUMPDEST PUSH2 0x4073 DUP1 PUSH3 0x1E2 PUSH1 0x0 CODECOPY PUSH1 0x0 RETURN INVALID PUSH1 0x80 PUSH1 0x40 MSTORE CALLVALUE DUP1 ISZERO PUSH2 0x10 JUMPI PUSH1 0x0 DUP1 REVERT JUMPDEST POP PUSH1 0x4 CALLDATASIZE LT PUSH2 0x137 JUMPI PUSH1 0x0 CALLDATALOAD PUSH1 0xE0 SHR DUP1 PUSH4 0x79BA5097 GT PUSH2 0xB8 JUMPI DUP1 PUSH4 0xC2280103 GT PUSH2 0x7C JUMPI DUP1 PUSH4 0xC2280103 EQ PUSH2 0x2DD JUMPI DUP1 PUSH4 0xCD992400 EQ PUSH2 0x30D JUMPI DUP1 PUSH4 0xD12FF20A EQ PUSH2 0x329 JUMPI DUP1 PUSH4 0xE30C3978 EQ PUSH2 0x359 JUMPI DUP1 PUSH4 0xF22EE704 EQ PUSH2 0x377 JUMPI DUP1 PUSH4 0xF2FDE38B EQ PUSH2 0x3A7 JUMPI PUSH2 0x137 JUMP JUMPDEST DUP1 PUSH4 0x79BA5097 EQ PUSH2 0x282 JUMPI DUP1 PUSH4 0x8129FC1C EQ PUSH2 0x28C JUMPI DUP1 PUSH4 0x8456CB59 EQ PUSH2 0x296 JUMPI DUP1 PUSH4 0x8DA5CB5B EQ PUSH2 0x2A0 JUMPI DUP1 PUSH4 0xB810C636 EQ PUSH2 0x2BE JUMPI PUSH2 0x137 JUMP JUMPDEST DUP1 PUSH4 0x5C975ABB GT PUSH2 0xFF JUMPI DUP1 PUSH4 0x5C975ABB EQ PUSH2 0x1CA JUMPI DUP1 PUSH4 0x715018A6 EQ PUSH2 0x1E8 JUMPI DUP1 PUSH4 0x71EEDB88 EQ PUSH2 0x1F2 JUMPI DUP1 PUSH4 0x75151B63 EQ PUSH2 0x222 JUMPI DUP1 PUSH4 0x768C6EC0 EQ PUSH2 0x252 JUMPI PUSH2 0x137 JUMP JUMPDEST DUP1 PUSH4 0x2621338 EQ PUSH2 0x13C JUMPI DUP1 PUSH4 0x32200882 EQ PUSH2 0x16C JUMPI DUP1 PUSH4 0x3F4BA83A EQ PUSH2 0x188 JUMPI DUP1 PUSH4 0x40EBC677 EQ PUSH2 0x192 JUMPI DUP1 PUSH4 0x47094E2E EQ PUSH2 0x1AE JUMPI JUMPDEST PUSH1 0x0 DUP1 REVERT JUMPDEST PUSH2 0x156 PUSH1 0x4 DUP1 CALLDATASIZE SUB DUP2 ADD SWAP1 PUSH2 0x151 SWAP2 SWAP1 PUSH2 0x285D JUMP JUMPDEST PUSH2 0x3C3 JUMP JUMPDEST PUSH1 0x40 MLOAD PUSH2 0x163 SWAP2 SWAP1 PUSH2 0x2977 JUMP JUMPDEST PUSH1 0x40 MLOAD DUP1 SWAP2 SUB SWAP1 RETURN JUMPDEST PUSH2 0x186 PUSH1 0x4 DUP1 CALLDATASIZE SUB DUP2 ADD SWAP1 PUSH2 0x181 SWAP2 SWAP1 PUSH2 0x2B47 JUMP JUMPDEST PUSH2 0x449 JUMP JUMPDEST STOP JUMPDEST PUSH2 0x190 PUSH2 0x5BE JUMP JUMPDEST STOP JUMPDEST PUSH2 0x1AC PUSH1 0x4 DUP1 CALLDATASIZE SUB DUP2 ADD SWAP1 PUSH2 0x1A7 SWAP2 SWAP1 PUSH2 0x2C01 JUMP JUMPDEST PUSH2 0x5D0 JUMP JUMPDEST STOP JUMPDEST PUSH2 0x1C8 PUSH1 0x4 DUP1 CALLDATASIZE SUB DUP2 ADD SWAP1 PUSH2 0x1C3 SWAP2 SWAP1 PUSH2 0x2C81 JUMP JUMPDEST PUSH2 0x898 JUMP JUMPDEST STOP JUMPDEST PUSH2 0x1D2 PUSH2 0x903 JUMP JUMPDEST PUSH1 0x40 MLOAD PUSH2 0x1DF SWAP2 SWAP1 PUSH2 0x2CC9 JUMP JUMPDEST PUSH1 0x40 MLOAD DUP1 SWAP2 SUB SWAP1 RETURN JUMPDEST PUSH2 0x1F0 PUSH2 0x91A JUMP JUMPDEST STOP JUMPDEST PUSH2 0x20C PUSH1 0x4 DUP1 CALLDATASIZE SUB DUP2 ADD SWAP1 PUSH2 0x207 SWAP2 SWAP1 PUSH2 0x2D1A JUMP JUMPDEST PUSH2 0x92E JUMP JUMPDEST PUSH1 0x40 MLOAD PUSH2 0x219 SWAP2 SWAP1 PUSH2 0x2CC9 JUMP JUMPDEST PUSH1 0x40 MLOAD DUP1 SWAP2 SUB SWAP1 RETURN JUMPDEST PUSH2 0x23C PUSH1 0x4 DUP1 CALLDATASIZE SUB DUP2 ADD SWAP1 PUSH2 0x237 SWAP2 SWAP1 PUSH2 0x2D5A JUMP JUMPDEST PUSH2 0xDCE JUMP JUMPDEST PUSH1 0x40 MLOAD PUSH2 0x249 SWAP2 SWAP1 PUSH2 0x2CC9 JUMP JUMPDEST PUSH1 0x40 MLOAD DUP1 SWAP2 SUB SWAP1 RETURN JUMPDEST PUSH2 0x26C PUSH1 0x4 DUP1 CALLDATASIZE SUB DUP2 ADD SWAP1 PUSH2 0x267 SWAP2 SWAP1 PUSH2 0x285D JUMP JUMPDEST PUSH2 0xE2A JUMP JUMPDEST PUSH1 0x40 MLOAD PUSH2 0x279 SWAP2 SWAP1 PUSH2 0x2EA7 JUMP JUMPDEST PUSH1 0x40 MLOAD DUP1 SWAP2 SUB SWAP1 RETURN JUMPDEST PUSH2 0x28A PUSH2 0x1043 JUMP JUMPDEST STOP JUMPDEST PUSH2 0x294 PUSH2 0x10D0 JUMP JUMPDEST STOP JUMPDEST PUSH2 0x29E PUSH2 0x1220 JUMP JUMPDEST STOP JUMPDEST PUSH2 0x2A8 PUSH2 0x1232 JUMP JUMPDEST PUSH1 0x40 MLOAD PUSH2 0x2B5 SWAP2 SWAP1 PUSH2 0x2ED2 JUMP JUMPDEST PUSH1 0x40 MLOAD DUP1 SWAP2 SUB SWAP1 RETURN JUMPDEST PUSH2 0x2C6 PUSH2 0x125C JUMP JUMPDEST PUSH1 0x40 MLOAD PUSH2 0x2D4 SWAP3 SWAP2 SWAP1 PUSH2 0x2F0B JUMP JUMPDEST PUSH1 0x40 MLOAD DUP1 SWAP2 SUB SWAP1 RETURN JUMPDEST PUSH2 0x2F7 PUSH1 0x4 DUP1 CALLDATASIZE SUB DUP2 ADD SWAP1 PUSH2 0x2F2 SWAP2 SWAP1 PUSH2 0x285D JUMP JUMPDEST PUSH2 0x1281 JUMP JUMPDEST PUSH1 0x40 MLOAD PUSH2 0x304 SWAP2 SWAP1 PUSH2 0x2F63 JUMP JUMPDEST PUSH1 0x40 MLOAD DUP1 SWAP2 SUB SWAP1 RETURN JUMPDEST PUSH2 0x327 PUSH1 0x4 DUP1 CALLDATASIZE SUB DUP2 ADD SWAP1 PUSH2 0x322 SWAP2 SWAP1 PUSH2 0x2F7E JUMP JUMPDEST PUSH2 0x12C2 JUMP JUMPDEST STOP JUMPDEST PUSH2 0x343 PUSH1 0x4 DUP1 CALLDATASIZE SUB DUP2 ADD SWAP1 PUSH2 0x33E SWAP2 SWAP1 PUSH2 0x3058 JUMP JUMPDEST PUSH2 0x1447 JUMP JUMPDEST PUSH1 0x40 MLOAD PUSH2 0x350 SWAP2 SWAP1 PUSH2 0x313D JUMP JUMPDEST PUSH1 0x40 MLOAD DUP1 SWAP2 SUB SWAP1 RETURN JUMPDEST PUSH2 0x361 PUSH2 0x198D JUMP JUMPDEST PUSH1 0x40 MLOAD PUSH2 0x36E SWAP2 SWAP1 PUSH2 0x2ED2 JUMP JUMPDEST PUSH1 0x40 MLOAD DUP1 SWAP2 SUB SWAP1 RETURN JUMPDEST PUSH2 0x391 PUSH1 0x4 DUP1 CALLDATASIZE SUB DUP2 ADD SWAP1 PUSH2 0x38C SWAP2 SWAP1 PUSH2 0x3158 JUMP JUMPDEST PUSH2 0x19B7 JUMP JUMPDEST PUSH1 0x40 MLOAD PUSH2 0x39E SWAP2 SWAP1 PUSH2 0x2CC9 JUMP JUMPDEST PUSH1 0x40 MLOAD DUP1 SWAP2 SUB SWAP1 RETURN JUMPDEST PUSH2 0x3C1 PUSH1 0x4 DUP1 CALLDATASIZE SUB DUP2 ADD SWAP1 PUSH2 0x3BC SWAP2 SWAP1 PUSH2 0x2D5A JUMP JUMPDEST PUSH2 0x2013 JUMP JUMPDEST STOP JUMPDEST PUSH1 0x60 PUSH1 0xCD PUSH1 0x0 DUP4 DUP2 MSTORE PUSH1 0x20 ADD SWAP1 DUP2 MSTORE PUSH1 0x20 ADD PUSH1 0x0 KECCAK256 DUP1 SLOAD DUP1 PUSH1 0x20 MUL PUSH1 0x20 ADD PUSH1 0x40 MLOAD SWAP1 DUP2 ADD PUSH1 0x40 MSTORE DUP1 SWAP3 SWAP2 SWAP1 DUP2 DUP2 MSTORE PUSH1 0x20 ADD PUSH1 0x0 SWAP1 JUMPDEST DUP3 DUP3 LT ISZERO PUSH2 0x43E JUMPI DUP4 DUP3 SWAP1 PUSH1 0x0 MSTORE PUSH1 0x20 PUSH1 0x0 KECCAK256 SWAP1 PUSH1 0x2 MUL ADD PUSH1 0x40 MLOAD DUP1 PUSH1 0x40 ADD PUSH1 0x40 MSTORE SWAP1 DUP2 PUSH1 0x0 DUP3 ADD SLOAD DUP2 MSTORE PUSH1 0x20 ADD PUSH1 0x1 DUP3 ADD SLOAD DUP2 MSTORE POP POP DUP2 MSTORE PUSH1 0x20 ADD SWAP1 PUSH1 0x1 ADD SWAP1 PUSH2 0x3F8 JUMP JUMPDEST POP POP POP POP SWAP1 POP SWAP2 SWAP1 POP JUMP JUMPDEST PUSH2 0x451 PUSH2 0x20C0 JUMP JUMPDEST PUSH1 0xCD PUSH1 0x0 DUP4 DUP2 MSTORE PUSH1 0x20 ADD SWAP1 DUP2 MSTORE PUSH1 0x20 ADD PUSH1 0x0 KECCAK256 PUSH1 0x0 PUSH2 0x470 SWAP2 SWAP1 PUSH2 0x26EB JUMP JUMPDEST PUSH1 0x0 JUMPDEST DUP2 MLOAD DUP2 LT ISZERO PUSH2 0x56F JUMPI PUSH1 0xCD PUSH1 0x0 DUP5 DUP2 MSTORE PUSH1 0x20 ADD SWAP1 DUP2 MSTORE PUSH1 0x20 ADD PUSH1 0x0 KECCAK256 DUP3 DUP3 DUP2 MLOAD DUP2 LT PUSH2 0x4A2 JUMPI PUSH2 0x4A1 PUSH2 0x31BF JUMP JUMPDEST JUMPDEST PUSH1 0x20 MUL PUSH1 0x20 ADD ADD MLOAD SWAP1 DUP1 PUSH1 0x1 DUP2 SLOAD ADD DUP1 DUP3 SSTORE DUP1 SWAP2 POP POP PUSH1 0x1 SWAP1 SUB SWAP1 PUSH1 0x0 MSTORE PUSH1 0x20 PUSH1 0x0 KECCAK256 SWAP1 PUSH1 0x2 MUL ADD PUSH1 0x0 SWAP1 SWAP2 SWAP1 SWAP2 SWAP1 SWAP2 POP PUSH1 0x0 DUP3 ADD MLOAD DUP2 PUSH1 0x0 ADD SSTORE PUSH1 0x20 DUP3 ADD MLOAD DUP2 PUSH1 0x1 ADD SSTORE POP POP PUSH1 0x40 MLOAD DUP1 PUSH1 0x40 ADD PUSH1 0x40 MSTORE DUP1 DUP4 DUP4 DUP2 MLOAD DUP2 LT PUSH2 0x507 JUMPI PUSH2 0x506 PUSH2 0x31BF JUMP JUMPDEST JUMPDEST PUSH1 0x20 MUL PUSH1 0x20 ADD ADD MLOAD PUSH1 0x20 ADD MLOAD DUP2 MSTORE PUSH1 0x20 ADD DUP5 DUP2 MSTORE POP PUSH1 0xCE PUSH1 0x0 DUP5 DUP5 DUP2 MLOAD DUP2 LT PUSH2 0x533 JUMPI PUSH2 0x532 PUSH2 0x31BF JUMP JUMPDEST JUMPDEST PUSH1 0x20 MUL PUSH1 0x20 ADD ADD MLOAD PUSH1 0x0 ADD MLOAD DUP2 MSTORE PUSH1 0x20 ADD SWAP1 DUP2 MSTORE PUSH1 0x20 ADD PUSH1 0x0 KECCAK256 PUSH1 0x0 DUP3 ADD MLOAD DUP2 PUSH1 0x0 ADD SSTORE PUSH1 0x20 DUP3 ADD MLOAD DUP2 PUSH1 0x1 ADD SSTORE SWAP1 POP POP DUP1 PUSH1 0x1 ADD SWAP1 POP PUSH2 0x473 JUMP JUMPDEST POP DUP2 PUSH32 0x58F3A30EC15A8D3E09FA65F9EF10219BC7A9A99D872A4ED895C37C2E761AC2AC PUSH1 0xCD PUSH1 0x0 DUP6 DUP2 MSTORE PUSH1 0x20 ADD SWAP1 DUP2 MSTORE PUSH1 0x20 ADD PUSH1 0x0 KECCAK256 PUSH1 0x40 MLOAD PUSH2 0x5B2 SWAP2 SWAP1 PUSH2 0x3308 JUMP JUMPDEST PUSH1 0x40 MLOAD DUP1 SWAP2 SUB SWAP1 LOG2 POP POP JUMP JUMPDEST PUSH2 0x5C6 PUSH2 0x20C0 JUMP JUMPDEST PUSH2 0x5CE PUSH2 0x213E JUMP JUMPDEST JUMP JUMPDEST PUSH2 0x5D8 PUSH2 0x20C0 JUMP JUMPDEST PUSH1 0x0 PUSH20 0xFFFFFFFFFFFFFFFFFFFFFFFFFFFFFFFFFFFFFFFF AND DUP2 PUSH20 0xFFFFFFFFFFFFFFFFFFFFFFFFFFFFFFFFFFFFFFFF AND SUB PUSH2 0x647 JUMPI PUSH1 0x40 MLOAD PUSH32 0x8C379A000000000000000000000000000000000000000000000000000000000 DUP2 MSTORE PUSH1 0x4 ADD PUSH2 0x63E SWAP1 PUSH2 0x3387 JUMP JUMPDEST PUSH1 0x40 MLOAD DUP1 SWAP2 SUB SWAP1 REVERT JUMPDEST PUSH1 0x0 PUSH32 0x7472656173757279000000000000000000000000000000000000000000000000 DUP4 SUB PUSH2 0x74A JUMPI DUP2 PUSH20 0xFFFFFFFFFFFFFFFFFFFFFFFFFFFFFFFFFFFFFFFF AND PUSH1 0x98 PUSH1 0x8 SWAP1 SLOAD SWAP1 PUSH2 0x100 EXP SWAP1 DIV PUSH20 0xFFFFFFFFFFFFFFFFFFFFFFFFFFFFFFFFFFFFFFFF AND PUSH20 0xFFFFFFFFFFFFFFFFFFFFFFFFFFFFFFFFFFFFFFFF AND SUB PUSH2 0x700 JUMPI PUSH1 0x40 MLOAD PUSH32 0x8C379A000000000000000000000000000000000000000000000000000000000 DUP2 MSTORE PUSH1 0x4 ADD PUSH2 0x6F7 SWAP1 PUSH2 0x3419 JUMP JUMPDEST PUSH1 0x40 MLOAD DUP1 SWAP2 SUB SWAP1 REVERT JUMPDEST DUP2 PUSH1 0x98 PUSH1 0x8 PUSH2 0x100 EXP DUP2 SLOAD DUP2 PUSH20 0xFFFFFFFFFFFFFFFFFFFFFFFFFFFFFFFFFFFFFFFF MUL NOT AND SWAP1 DUP4 PUSH20 0xFFFFFFFFFFFFFFFFFFFFFFFFFFFFFFFFFFFFFFFF AND MUL OR SWAP1 SSTORE POP PUSH1 0x1 SWAP1 POP PUSH2 0x848 JUMP JUMPDEST PUSH32 0x61676772656761746F7200000000000000000000000000000000000000000000 DUP4 SUB PUSH2 0x847 JUMPI DUP2 PUSH20 0xFFFFFFFFFFFFFFFFFFFFFFFFFFFFFFFFFFFFFFFF AND PUSH1 0x99 PUSH1 0x0 SWAP1 SLOAD SWAP1 PUSH2 0x100 EXP SWAP1 DIV PUSH20 0xFFFFFFFFFFFFFFFFFFFFFFFFFFFFFFFFFFFFFFFF AND PUSH20 0xFFFFFFFFFFFFFFFFFFFFFFFFFFFFFFFFFFFFFFFF AND SUB PUSH2 0x801 JUMPI PUSH1 0x40 MLOAD PUSH32 0x8C379A000000000000000000000000000000000000000000000000000000000 DUP2 MSTORE PUSH1 0x4 ADD PUSH2 0x7F8 SWAP1 PUSH2 0x34AB JUMP JUMPDEST PUSH1 0x40 MLOAD DUP1 SWAP2 SUB SWAP1 REVERT JUMPDEST DUP2 PUSH1 0x99 PUSH1 0x0 PUSH2 0x100 EXP DUP2 SLOAD DUP2 PUSH20 0xFFFFFFFFFFFFFFFFFFFFFFFFFFFFFFFFFFFFFFFF MUL NOT AND SWAP1 DUP4 PUSH20 0xFFFFFFFFFFFFFFFFFFFFFFFFFFFFFFFFFFFFFFFF AND MUL OR SWAP1 SSTORE POP PUSH1 0x1 SWAP1 POP JUMPDEST JUMPDEST DUP1 ISZERO PUSH2 0x893 JUMPI DUP2 PUSH20 0xFFFFFFFFFFFFFFFFFFFFFFFFFFFFFFFFFFFFFFFF AND DUP4 PUSH32 0xBBC5B96E57CFECB3DBEEADF92E87F15E58E64FCD75CBE256DCC5D9EF2E51E8A4 PUSH1 0x40 MLOAD PUSH1 0x40 MLOAD DUP1 SWAP2 SUB SWAP1 LOG3 JUMPDEST POP POP POP JUMP JUMPDEST PUSH2 0x8A0 PUSH2 0x20C0 JUMP JUMPDEST DUP1 PUSH1 0x98 PUSH1 0x0 PUSH2 0x100 EXP DUP2 SLOAD DUP2 PUSH8 0xFFFFFFFFFFFFFFFF MUL NOT AND SWAP1 DUP4 PUSH8 0xFFFFFFFFFFFFFFFF AND MUL OR SWAP1 SSTORE POP PUSH32 0x1CE29A697A4765BD17D91DF93BA75B250B629ECF030553FF1F6AB59F15AE6C7B DUP2 PUSH1 0x40 MLOAD PUSH2 0x8F8 SWAP2 SWAP1 PUSH2 0x34CB JUMP JUMPDEST PUSH1 0x40 MLOAD DUP1 SWAP2 SUB SWAP1 LOG1 POP JUMP JUMPDEST PUSH1 0x0 PUSH1 0xCF PUSH1 0x0 SWAP1 SLOAD SWAP1 PUSH2 0x100 EXP SWAP1 DIV PUSH1 0xFF AND SWAP1 POP SWAP1 JUMP JUMPDEST PUSH2 0x922 PUSH2 0x20C0 JUMP JUMPDEST PUSH2 0x92C PUSH1 0x0 PUSH2 0x21A1 JUMP JUMPDEST JUMP JUMPDEST PUSH1 0x0 PUSH1 0x99 PUSH1 0x0 SWAP1 SLOAD SWAP1 PUSH2 0x100 EXP SWAP1 DIV PUSH20 0xFFFFFFFFFFFFFFFFFFFFFFFFFFFFFFFFFFFFFFFF AND PUSH20 0xFFFFFFFFFFFFFFFFFFFFFFFFFFFFFFFFFFFFFFFF AND CALLER PUSH20 0xFFFFFFFFFFFFFFFFFFFFFFFFFFFFFFFFFFFFFFFF AND EQ PUSH2 0x9C0 JUMPI PUSH1 0x40 MLOAD PUSH32 0x8C379A000000000000000000000000000000000000000000000000000000000 DUP2 MSTORE PUSH1 0x4 ADD PUSH2 0x9B7 SWAP1 PUSH2 0x3532 JUMP JUMPDEST PUSH1 0x40 MLOAD DUP1 SWAP2 SUB SWAP1 REVERT JUMPDEST PUSH2 0x101 PUSH1 0x0 DUP4 DUP2 MSTORE PUSH1 0x20 ADD SWAP1 DUP2 MSTORE PUSH1 0x20 ADD PUSH1 0x0 KECCAK256 PUSH1 0x5 ADD PUSH1 0x0 SWAP1 SLOAD SWAP1 PUSH2 0x100 EXP SWAP1 DIV PUSH1 0xFF AND ISZERO PUSH2 0xA25 JUMPI PUSH1 0x40 MLOAD PUSH32 0x8C379A000000000000000000000000000000000000000000000000000000000 DUP2 MSTORE PUSH1 0x4 ADD PUSH2 0xA1C SWAP1 PUSH2 0x359E JUMP JUMPDEST PUSH1 0x40 MLOAD DUP1 SWAP2 SUB SWAP1 REVERT JUMPDEST PUSH2 0x101 PUSH1 0x0 DUP4 DUP2 MSTORE PUSH1 0x20 ADD SWAP1 DUP2 MSTORE PUSH1 0x20 ADD PUSH1 0x0 KECCAK256 PUSH1 0x5 ADD PUSH1 0x1 SWAP1 SLOAD SWAP1 PUSH2 0x100 EXP SWAP1 DIV PUSH1 0xFF AND ISZERO PUSH2 0xA8A JUMPI PUSH1 0x40 MLOAD PUSH32 0x8C379A000000000000000000000000000000000000000000000000000000000 DUP2 MSTORE PUSH1 0x4 ADD PUSH2 0xA81 SWAP1 PUSH2 0x360A JUMP JUMPDEST PUSH1 0x40 MLOAD DUP1 SWAP2 SUB SWAP1 REVERT JUMPDEST DUP3 PUSH2 0x101 PUSH1 0x0 DUP5 DUP2 MSTORE PUSH1 0x20 ADD SWAP1 DUP2 MSTORE PUSH1 0x20 ADD PUSH1 0x0 KECCAK256 PUSH1 0x4 ADD SLOAD LT ISZERO PUSH2 0xAE4 JUMPI PUSH1 0x40 MLOAD PUSH32 0x8C379A000000000000000000000000000000000000000000000000000000000 DUP2 MSTORE PUSH1 0x4 ADD PUSH2 0xADB SWAP1 PUSH2 0x3676 JUMP JUMPDEST PUSH1 0x40 MLOAD DUP1 SWAP2 SUB SWAP1 REVERT JUMPDEST PUSH2 0x101 PUSH1 0x0 DUP4 DUP2 MSTORE PUSH1 0x20 ADD SWAP1 DUP2 MSTORE PUSH1 0x20 ADD PUSH1 0x0 KECCAK256 PUSH1 0x1 ADD PUSH1 0x0 SWAP1 SLOAD SWAP1 PUSH2 0x100 EXP SWAP1 DIV PUSH20 0xFFFFFFFFFFFFFFFFFFFFFFFFFFFFFFFFFFFFFFFF AND PUSH20 0xFFFFFFFFFFFFFFFFFFFFFFFFFFFFFFFFFFFFFFFF AND PUSH4 0xA9059CBB PUSH1 0x98 PUSH1 0x8 SWAP1 SLOAD SWAP1 PUSH2 0x100 EXP SWAP1 DIV PUSH20 0xFFFFFFFFFFFFFFFFFFFFFFFFFFFFFFFFFFFFFFFF AND DUP6 PUSH1 0x40 MLOAD DUP4 PUSH4 0xFFFFFFFF AND PUSH1 0xE0 SHL DUP2 MSTORE PUSH1 0x4 ADD PUSH2 0xB78 SWAP3 SWAP2 SWAP1 PUSH2 0x3696 JUMP JUMPDEST PUSH1 0x20 PUSH1 0x40 MLOAD DUP1 DUP4 SUB DUP2 PUSH1 0x0 DUP8 GAS CALL ISZERO DUP1 ISZERO PUSH2 0xB97 JUMPI RETURNDATASIZE PUSH1 0x0 DUP1 RETURNDATACOPY RETURNDATASIZE PUSH1 0x0 REVERT JUMPDEST POP POP POP POP PUSH1 0x40 MLOAD RETURNDATASIZE PUSH1 0x1F NOT PUSH1 0x1F DUP3 ADD AND DUP3 ADD DUP1 PUSH1 0x40 MSTORE POP DUP2 ADD SWAP1 PUSH2 0xBBB SWAP2 SWAP1 PUSH2 0x36EB JUMP JUMPDEST POP PUSH1 0x1 PUSH2 0x101 PUSH1 0x0 DUP5 DUP2 MSTORE PUSH1 0x20 ADD SWAP1 DUP2 MSTORE PUSH1 0x20 ADD PUSH1 0x0 KECCAK256 PUSH1 0x5 ADD PUSH1 0x1 PUSH2 0x100 EXP DUP2 SLOAD DUP2 PUSH1 0xFF MUL NOT AND SWAP1 DUP4 ISZERO ISZERO MUL OR SWAP1 SSTORE POP PUSH1 0x0 PUSH2 0x101 PUSH1 0x0 DUP5 DUP2 MSTORE PUSH1 0x20 ADD SWAP1 DUP2 MSTORE PUSH1 0x20 ADD PUSH1 0x0 KECCAK256 PUSH1 0x6 ADD PUSH1 0x0 PUSH2 0x100 EXP DUP2 SLOAD DUP2 PUSH12 0xFFFFFFFFFFFFFFFFFFFFFFFF MUL NOT AND SWAP1 DUP4 PUSH12 0xFFFFFFFFFFFFFFFFFFFFFFFF AND MUL OR SWAP1 SSTORE POP PUSH1 0x0 DUP4 PUSH2 0x101 PUSH1 0x0 DUP6 DUP2 MSTORE PUSH1 0x20 ADD SWAP1 DUP2 MSTORE PUSH1 0x20 ADD PUSH1 0x0 KECCAK256 PUSH1 0x4 ADD SLOAD PUSH2 0x101 PUSH1 0x0 DUP7 DUP2 MSTORE PUSH1 0x20 ADD SWAP1 DUP2 MSTORE PUSH1 0x20 ADD PUSH1 0x0 KECCAK256 PUSH1 0x7 ADD SLOAD PUSH2 0xC70 SWAP2 SWAP1 PUSH2 0x3747 JUMP JUMPDEST PUSH2 0xC7A SWAP2 SWAP1 PUSH2 0x377B JUMP JUMPDEST SWAP1 POP PUSH2 0x101 PUSH1 0x0 DUP5 DUP2 MSTORE PUSH1 0x20 ADD SWAP1 DUP2 MSTORE PUSH1 0x20 ADD PUSH1 0x0 KECCAK256 PUSH1 0x1 ADD PUSH1 0x0 SWAP1 SLOAD SWAP1 PUSH2 0x100 EXP SWAP1 DIV PUSH20 0xFFFFFFFFFFFFFFFFFFFFFFFFFFFFFFFFFFFFFFFF AND PUSH20 0xFFFFFFFFFFFFFFFFFFFFFFFFFFFFFFFFFFFFFFFF AND PUSH4 0xA9059CBB PUSH2 0x101 PUSH1 0x0 DUP7 DUP2 MSTORE PUSH1 0x20 ADD SWAP1 DUP2 MSTORE PUSH1 0x20 ADD PUSH1 0x0 KECCAK256 PUSH1 0x5 ADD PUSH1 0x2 SWAP1 SLOAD SWAP1 PUSH2 0x100 EXP SWAP1 DIV PUSH20 0xFFFFFFFFFFFFFFFFFFFFFFFFFFFFFFFFFFFFFFFF AND PUSH2 0x101 PUSH1 0x0 DUP8 DUP2 MSTORE PUSH1 0x20 ADD SWAP1 DUP2 MSTORE PUSH1 0x20 ADD PUSH1 0x0 KECCAK256 PUSH1 0x3 ADD SLOAD DUP5 PUSH2 0xD2A SWAP2 SWAP1 PUSH2 0x3747 JUMP JUMPDEST PUSH1 0x40 MLOAD DUP4 PUSH4 0xFFFFFFFF AND PUSH1 0xE0 SHL DUP2 MSTORE PUSH1 0x4 ADD PUSH2 0xD47 SWAP3 SWAP2 SWAP1 PUSH2 0x3696 JUMP JUMPDEST PUSH1 0x20 PUSH1 0x40 MLOAD DUP1 DUP4 SUB DUP2 PUSH1 0x0 DUP8 GAS CALL ISZERO DUP1 ISZERO PUSH2 0xD66 JUMPI RETURNDATASIZE PUSH1 0x0 DUP1 RETURNDATACOPY RETURNDATASIZE PUSH1 0x0 REVERT JUMPDEST POP POP POP POP PUSH1 0x40 MLOAD RETURNDATASIZE PUSH1 0x1F NOT PUSH1 0x1F DUP3 ADD AND DUP3 ADD DUP1 PUSH1 0x40 MSTORE POP DUP2 ADD SWAP1 PUSH2 0xD8A SWAP2 SWAP1 PUSH2 0x36EB JUMP JUMPDEST POP DUP3 PUSH32 0x736FE428E1747CA8D387C2E6FA1A31A0CDE62D3A167C40A46ADE59A3CDC828E DUP6 PUSH1 0x40 MLOAD PUSH2 0xDBB SWAP2 SWAP1 PUSH2 0x37AF JUMP JUMPDEST PUSH1 0x40 MLOAD DUP1 SWAP2 SUB SWAP1 LOG2 PUSH1 0x1 SWAP2 POP POP SWAP3 SWAP2 POP POP JUMP JUMPDEST PUSH1 0x0 PUSH1 0x1 PUSH1 0xCC PUSH1 0x0 DUP5 PUSH20 0xFFFFFFFFFFFFFFFFFFFFFFFFFFFFFFFFFFFFFFFF AND PUSH20 0xFFFFFFFFFFFFFFFFFFFFFFFFFFFFFFFFFFFFFFFF AND DUP2 MSTORE PUSH1 0x20 ADD SWAP1 DUP2 MSTORE PUSH1 0x20 ADD PUSH1 0x0 KECCAK256 SLOAD SUB PUSH2 0xE20 JUMPI PUSH1 0x1 SWAP1 POP PUSH2 0xE25 JUMP JUMPDEST PUSH1 0x0 SWAP1 POP JUMPDEST SWAP2 SWAP1 POP JUMP JUMPDEST PUSH2 0xE32 PUSH2 0x270F JUMP JUMPDEST PUSH2 0x101 PUSH1 0x0 DUP4 DUP2 MSTORE PUSH1 0x20 ADD SWAP1 DUP2 MSTORE PUSH1 0x20 ADD PUSH1 0x0 KECCAK256 PUSH1 0x40 MLOAD DUP1 PUSH2 0x140 ADD PUSH1 0x40 MSTORE SWAP1 DUP2 PUSH1 0x0 DUP3 ADD PUSH1 0x0 SWAP1 SLOAD SWAP1 PUSH2 0x100 EXP SWAP1 DIV PUSH20 0xFFFFFFFFFFFFFFFFFFFFFFFFFFFFFFFFFFFFFFFF AND PUSH20 0xFFFFFFFFFFFFFFFFFFFFFFFFFFFFFFFFFFFFFFFF AND PUSH20 0xFFFFFFFFFFFFFFFFFFFFFFFFFFFFFFFFFFFFFFFF AND DUP2 MSTORE PUSH1 0x20 ADD PUSH1 0x1 DUP3 ADD PUSH1 0x0 SWAP1 SLOAD SWAP1 PUSH2 0x100 EXP SWAP1 DIV PUSH20 0xFFFFFFFFFFFFFFFFFFFFFFFFFFFFFFFFFFFFFFFF AND PUSH20 0xFFFFFFFFFFFFFFFFFFFFFFFFFFFFFFFFFFFFFFFF AND PUSH20 0xFFFFFFFFFFFFFFFFFFFFFFFFFFFFFFFFFFFFFFFF AND DUP2 MSTORE PUSH1 0x20 ADD PUSH1 0x2 DUP3 ADD PUSH1 0x0 SWAP1 SLOAD SWAP1 PUSH2 0x100 EXP SWAP1 DIV PUSH20 0xFFFFFFFFFFFFFFFFFFFFFFFFFFFFFFFFFFFFFFFF AND PUSH20 0xFFFFFFFFFFFFFFFFFFFFFFFFFFFFFFFFFFFFFFFF AND PUSH20 0xFFFFFFFFFFFFFFFFFFFFFFFFFFFFFFFFFFFFFFFF AND DUP2 MSTORE PUSH1 0x20 ADD PUSH1 0x3 DUP3 ADD SLOAD DUP2 MSTORE PUSH1 0x20 ADD PUSH1 0x4 DUP3 ADD SLOAD DUP2 MSTORE PUSH1 0x20 ADD PUSH1 0x5 DUP3 ADD PUSH1 0x0 SWAP1 SLOAD SWAP1 PUSH2 0x100 EXP SWAP1 DIV PUSH1 0xFF AND ISZERO ISZERO ISZERO ISZERO DUP2 MSTORE PUSH1 0x20 ADD PUSH1 0x5 DUP3 ADD PUSH1 0x1 SWAP1 SLOAD SWAP1 PUSH2 0x100 EXP SWAP1 DIV PUSH1 0xFF AND ISZERO ISZERO ISZERO ISZERO DUP2 MSTORE PUSH1 0x20 ADD PUSH1 0x5 DUP3 ADD PUSH1 0x2 SWAP1 SLOAD SWAP1 PUSH2 0x100 EXP SWAP1 DIV PUSH20 0xFFFFFFFFFFFFFFFFFFFFFFFFFFFFFFFFFFFFFFFF AND PUSH20 0xFFFFFFFFFFFFFFFFFFFFFFFFFFFFFFFFFFFFFFFF AND PUSH20 0xFFFFFFFFFFFFFFFFFFFFFFFFFFFFFFFFFFFFFFFF AND DUP2 MSTORE PUSH1 0x20 ADD PUSH1 0x6 DUP3 ADD PUSH1 0x0 SWAP1 SLOAD SWAP1 PUSH2 0x100 EXP SWAP1 DIV PUSH12 0xFFFFFFFFFFFFFFFFFFFFFFFF AND PUSH12 0xFFFFFFFFFFFFFFFFFFFFFFFF AND PUSH12 0xFFFFFFFFFFFFFFFFFFFFFFFF AND DUP2 MSTORE PUSH1 0x20 ADD PUSH1 0x7 DUP3 ADD SLOAD DUP2 MSTORE POP POP SWAP1 POP SWAP2 SWAP1 POP JUMP JUMPDEST PUSH1 0x0 PUSH2 0x104D PUSH2 0x21D2 JUMP JUMPDEST SWAP1 POP DUP1 PUSH20 0xFFFFFFFFFFFFFFFFFFFFFFFFFFFFFFFFFFFFFFFF AND PUSH2 0x106E PUSH2 0x198D JUMP JUMPDEST PUSH20 0xFFFFFFFFFFFFFFFFFFFFFFFFFFFFFFFFFFFFFFFF AND EQ PUSH2 0x10C4 JUMPI PUSH1 0x40 MLOAD PUSH32 0x8C379A000000000000000000000000000000000000000000000000000000000 DUP2 MSTORE PUSH1 0x4 ADD PUSH2 0x10BB SWAP1 PUSH2 0x383C JUMP JUMPDEST PUSH1 0x40 MLOAD DUP1 SWAP2 SUB SWAP1 REVERT JUMPDEST PUSH2 0x10CD DUP2 PUSH2 0x21A1 JUMP JUMPDEST POP JUMP JUMPDEST PUSH1 0x0 DUP1 PUSH1 0x1 SWAP1 SLOAD SWAP1 PUSH2 0x100 EXP SWAP1 DIV PUSH1 0xFF AND ISZERO SWAP1 POP DUP1 DUP1 ISZERO PUSH2 0x1101 JUMPI POP PUSH1 0x1 PUSH1 0x0 DUP1 SLOAD SWAP1 PUSH2 0x100 EXP SWAP1 DIV PUSH1 0xFF AND PUSH1 0xFF AND LT JUMPDEST DUP1 PUSH2 0x112E JUMPI POP PUSH2 0x1110 ADDRESS PUSH2 0x21DA JUMP JUMPDEST ISZERO DUP1 ISZERO PUSH2 0x112D JUMPI POP PUSH1 0x1 PUSH1 0x0 DUP1 SLOAD SWAP1 PUSH2 0x100 EXP SWAP1 DIV PUSH1 0xFF AND PUSH1 0xFF AND EQ JUMPDEST JUMPDEST PUSH2 0x116D JUMPI PUSH1 0x40 MLOAD PUSH32 0x8C379A000000000000000000000000000000000000000000000000000000000 DUP2 MSTORE PUSH1 0x4 ADD PUSH2 0x1164 SWAP1 PUSH2 0x38CE JUMP JUMPDEST PUSH1 0x40 MLOAD DUP1 SWAP2 SUB SWAP1 REVERT JUMPDEST PUSH1 0x1 PUSH1 0x0 DUP1 PUSH2 0x100 EXP DUP2 SLOAD DUP2 PUSH1 0xFF MUL NOT AND SWAP1 DUP4 PUSH1 0xFF AND MUL OR SWAP1 SSTORE POP DUP1 ISZERO PUSH2 0x11AA JUMPI PUSH1 0x1 PUSH1 0x0 PUSH1 0x1 PUSH2 0x100 EXP DUP2 SLOAD DUP2 PUSH1 0xFF MUL NOT AND SWAP1 DUP4 ISZERO ISZERO MUL OR SWAP1 SSTORE POP JUMPDEST PUSH3 0x186A0 PUSH1 0x97 DUP2 SWAP1 SSTORE POP PUSH2 0x11BC PUSH2 0x21FD JUMP JUMPDEST PUSH2 0x11C4 PUSH2 0x2256 JUMP JUMPDEST DUP1 ISZERO PUSH2 0x121D JUMPI PUSH1 0x0 DUP1 PUSH1 0x1 PUSH2 0x100 EXP DUP2 SLOAD DUP2 PUSH1 0xFF MUL NOT AND SWAP1 DUP4 ISZERO ISZERO MUL OR SWAP1 SSTORE POP PUSH32 0x7F26B83FF96E1F2B6A682F133852F6798A09C465DA95921460CEFB3847402498 PUSH1 0x1 PUSH1 0x40 MLOAD PUSH2 0x1214 SWAP2 SWAP1 PUSH2 0x3940 JUMP JUMPDEST PUSH1 0x40 MLOAD DUP1 SWAP2 SUB SWAP1 LOG1 JUMPDEST POP JUMP JUMPDEST PUSH2 0x1228 PUSH2 0x20C0 JUMP JUMPDEST PUSH2 0x1230 PUSH2 0x22AF JUMP JUMPDEST JUMP JUMPDEST PUSH1 0x0 PUSH1 0x33 PUSH1 0x0 SWAP1 SLOAD SWAP1 PUSH2 0x100 EXP SWAP1 DIV PUSH20 0xFFFFFFFFFFFFFFFFFFFFFFFFFFFFFFFFFFFFFFFF AND SWAP1 POP SWAP1 JUMP JUMPDEST PUSH1 0x0 DUP1 PUSH1 0x98 PUSH1 0x0 SWAP1 SLOAD SWAP1 PUSH2 0x100 EXP SWAP1 DIV PUSH8 0xFFFFFFFFFFFFFFFF AND PUSH1 0x97 SLOAD SWAP2 POP SWAP2 POP SWAP1 SWAP2 JUMP JUMPDEST PUSH2 0x1289 PUSH2 0x27CC JUMP JUMPDEST PUSH1 0xCE PUSH1 0x0 DUP4 DUP2 MSTORE PUSH1 0x20 ADD SWAP1 DUP2 MSTORE PUSH1 0x20 ADD PUSH1 0x0 KECCAK256 PUSH1 0x40 MLOAD DUP1 PUSH1 0x40 ADD PUSH1 0x40 MSTORE SWAP1 DUP2 PUSH1 0x0 DUP3 ADD SLOAD DUP2 MSTORE PUSH1 0x20 ADD PUSH1 0x1 DUP3 ADD SLOAD DUP2 MSTORE POP POP SWAP1 POP SWAP2 SWAP1 POP JUMP JUMPDEST PUSH2 0x12CA PUSH2 0x20C0 JUMP JUMPDEST PUSH1 0x0 PUSH20 0xFFFFFFFFFFFFFFFFFFFFFFFFFFFFFFFFFFFFFFFF AND DUP3 PUSH20 0xFFFFFFFFFFFFFFFFFFFFFFFFFFFFFFFFFFFFFFFF AND SUB PUSH2 0x1339 JUMPI PUSH1 0x40 MLOAD PUSH32 0x8C379A000000000000000000000000000000000000000000000000000000000 DUP2 MSTORE PUSH1 0x4 ADD PUSH2 0x1330 SWAP1 PUSH2 0x3387 JUMP JUMPDEST PUSH1 0x40 MLOAD DUP1 SWAP2 SUB SWAP1 REVERT JUMPDEST PUSH1 0x1 DUP2 EQ DUP1 PUSH2 0x1348 JUMPI POP PUSH1 0x2 DUP2 EQ JUMPDEST PUSH2 0x1387 JUMPI PUSH1 0x40 MLOAD PUSH32 0x8C379A000000000000000000000000000000000000000000000000000000000 DUP2 MSTORE PUSH1 0x4 ADD PUSH2 0x137E SWAP1 PUSH2 0x39A7 JUMP JUMPDEST PUSH1 0x40 MLOAD DUP1 SWAP2 SUB SWAP1 REVERT JUMPDEST PUSH32 0x746F6B656E000000000000000000000000000000000000000000000000000000 DUP4 SUB PUSH2 0x1442 JUMPI DUP1 PUSH1 0xCC PUSH1 0x0 DUP5 PUSH20 0xFFFFFFFFFFFFFFFFFFFFFFFFFFFFFFFFFFFFFFFF AND PUSH20 0xFFFFFFFFFFFFFFFFFFFFFFFFFFFFFFFFFFFFFFFF AND DUP2 MSTORE PUSH1 0x20 ADD SWAP1 DUP2 MSTORE PUSH1 0x20 ADD PUSH1 0x0 KECCAK256 DUP2 SWAP1 SSTORE POP DUP2 PUSH20 0xFFFFFFFFFFFFFFFFFFFFFFFFFFFFFFFFFFFFFFFF AND DUP4 PUSH32 0xCFA976492AF7C14A916CC3A239F4C9C75BBD7F5F0E398BEB41D892C7EECCAE4C DUP4 PUSH1 0x40 MLOAD PUSH2 0x1439 SWAP2 SWAP1 PUSH2 0x37AF JUMP JUMPDEST PUSH1 0x40 MLOAD DUP1 SWAP2 SUB SWAP1 LOG3 JUMPDEST POP POP POP JUMP JUMPDEST PUSH1 0x0 PUSH2 0x1451 PUSH2 0x2312 JUMP JUMPDEST PUSH2 0x145E DUP11 DUP11 DUP7 DUP10 DUP10 PUSH2 0x235C JUMP JUMPDEST PUSH1 0x0 DUP4 DUP4 SWAP1 POP SUB PUSH2 0x14A4 JUMPI PUSH1 0x40 MLOAD PUSH32 0x8C379A000000000000000000000000000000000000000000000000000000000 DUP2 MSTORE PUSH1 0x4 ADD PUSH2 0x149B SWAP1 PUSH2 0x3A13 JUMP JUMPDEST PUSH1 0x40 MLOAD DUP1 SWAP2 SUB SWAP1 REVERT JUMPDEST DUP10 PUSH20 0xFFFFFFFFFFFFFFFFFFFFFFFFFFFFFFFFFFFFFFFF AND PUSH4 0x23B872DD CALLER ADDRESS DUP9 DUP14 PUSH2 0x14CE SWAP2 SWAP1 PUSH2 0x3747 JUMP JUMPDEST PUSH1 0x40 MLOAD DUP5 PUSH4 0xFFFFFFFF AND PUSH1 0xE0 SHL DUP2 MSTORE PUSH1 0x4 ADD PUSH2 0x14EC SWAP4 SWAP3 SWAP2 SWAP1 PUSH2 0x3A33 JUMP JUMPDEST PUSH1 0x20 PUSH1 0x40 MLOAD DUP1 DUP4 SUB DUP2 PUSH1 0x0 DUP8 GAS CALL ISZERO DUP1 ISZERO PUSH2 0x150B JUMPI RETURNDATASIZE PUSH1 0x0 DUP1 RETURNDATACOPY RETURNDATASIZE PUSH1 0x0 REVERT JUMPDEST POP POP POP POP PUSH1 0x40 MLOAD RETURNDATASIZE PUSH1 0x1F NOT PUSH1 0x1F DUP3 ADD AND DUP3 ADD DUP1 PUSH1 0x40 MSTORE POP DUP2 ADD SWAP1 PUSH2 0x152F SWAP2 SWAP1 PUSH2 0x36EB JUMP JUMPDEST POP PUSH2 0x102 PUSH1 0x0 CALLER PUSH20 0xFFFFFFFFFFFFFFFFFFFFFFFFFFFFFFFFFFFFFFFF AND PUSH20 0xFFFFFFFFFFFFFFFFFFFFFFFFFFFFFFFFFFFFFFFF AND DUP2 MSTORE PUSH1 0x20 ADD SWAP1 DUP2 MSTORE PUSH1 0x20 ADD PUSH1 0x0 KECCAK256 PUSH1 0x0 DUP2 SLOAD DUP1 SWAP3 SWAP2 SWAP1 PUSH2 0x1581 SWAP1 PUSH2 0x3A6A JUMP JUMPDEST SWAP2 SWAP1 POP SSTORE POP CALLER PUSH2 0x102 PUSH1 0x0 CALLER PUSH20 0xFFFFFFFFFFFFFFFFFFFFFFFFFFFFFFFFFFFFFFFF AND PUSH20 0xFFFFFFFFFFFFFFFFFFFFFFFFFFFFFFFFFFFFFFFF AND DUP2 MSTORE PUSH1 0x20 ADD SWAP1 DUP2 MSTORE PUSH1 0x20 ADD PUSH1 0x0 KECCAK256 SLOAD PUSH1 0x40 MLOAD PUSH1 0x20 ADD PUSH2 0x15D9 SWAP3 SWAP2 SWAP1 PUSH2 0x3696 JUMP JUMPDEST PUSH1 0x40 MLOAD PUSH1 0x20 DUP2 DUP4 SUB SUB DUP2 MSTORE SWAP1 PUSH1 0x40 MSTORE DUP1 MLOAD SWAP1 PUSH1 0x20 ADD KECCAK256 SWAP1 POP PUSH1 0x0 PUSH1 0x97 SLOAD PUSH1 0x98 PUSH1 0x0 SWAP1 SLOAD SWAP1 PUSH2 0x100 EXP SWAP1 DIV PUSH8 0xFFFFFFFFFFFFFFFF AND PUSH8 0xFFFFFFFFFFFFFFFF AND DUP12 PUSH2 0x1622 SWAP2 SWAP1 PUSH2 0x3AB2 JUMP JUMPDEST PUSH2 0x162C SWAP2 SWAP1 PUSH2 0x3B23 JUMP JUMPDEST SWAP1 POP PUSH1 0x40 MLOAD DUP1 PUSH2 0x140 ADD PUSH1 0x40 MSTORE DUP1 CALLER PUSH20 0xFFFFFFFFFFFFFFFFFFFFFFFFFFFFFFFFFFFFFFFF AND DUP2 MSTORE PUSH1 0x20 ADD DUP13 PUSH20 0xFFFFFFFFFFFFFFFFFFFFFFFFFFFFFFFFFFFFFFFF AND DUP2 MSTORE PUSH1 0x20 ADD DUP9 PUSH20 0xFFFFFFFFFFFFFFFFFFFFFFFFFFFFFFFFFFFFFFFF AND DUP2 MSTORE PUSH1 0x20 ADD DUP8 DUP2 MSTORE PUSH1 0x20 ADD DUP3 DUP2 MSTORE PUSH1 0x20 ADD PUSH1 0x0 ISZERO ISZERO DUP2 MSTORE PUSH1 0x20 ADD PUSH1 0x0 ISZERO ISZERO DUP2 MSTORE PUSH1 0x20 ADD DUP7 PUSH20 0xFFFFFFFFFFFFFFFFFFFFFFFFFFFFFFFFFFFFFFFF AND DUP2 MSTORE PUSH1 0x20 ADD PUSH1 0x97 SLOAD PUSH8 0xFFFFFFFFFFFFFFFF AND PUSH12 0xFFFFFFFFFFFFFFFFFFFFFFFF AND DUP2 MSTORE PUSH1 0x20 ADD DUP3 DUP13 PUSH2 0x16F4 SWAP2 SWAP1 PUSH2 0x377B JUMP JUMPDEST DUP2 MSTORE POP PUSH2 0x101 PUSH1 0x0 DUP5 DUP2 MSTORE PUSH1 0x20 ADD SWAP1 DUP2 MSTORE PUSH1 0x20 ADD PUSH1 0x0 KECCAK256 PUSH1 0x0 DUP3 ADD MLOAD DUP2 PUSH1 0x0 ADD PUSH1 0x0 PUSH2 0x100 EXP DUP2 SLOAD DUP2 PUSH20 0xFFFFFFFFFFFFFFFFFFFFFFFFFFFFFFFFFFFFFFFF MUL NOT AND SWAP1 DUP4 PUSH20 0xFFFFFFFFFFFFFFFFFFFFFFFFFFFFFFFFFFFFFFFF AND MUL OR SWAP1 SSTORE POP PUSH1 0x20 DUP3 ADD MLOAD DUP2 PUSH1 0x1 ADD PUSH1 0x0 PUSH2 0x100 EXP DUP2 SLOAD DUP2 PUSH20 0xFFFFFFFFFFFFFFFFFFFFFFFFFFFFFFFFFFFFFFFF MUL NOT AND SWAP1 DUP4 PUSH20 0xFFFFFFFFFFFFFFFFFFFFFFFFFFFFFFFFFFFFFFFF AND MUL OR SWAP1 SSTORE POP PUSH1 0x40 DUP3 ADD MLOAD DUP2 PUSH1 0x2 ADD PUSH1 0x0 PUSH2 0x100 EXP DUP2 SLOAD DUP2 PUSH20 0xFFFFFFFFFFFFFFFFFFFFFFFFFFFFFFFFFFFFFFFF MUL NOT AND SWAP1 DUP4 PUSH20 0xFFFFFFFFFFFFFFFFFFFFFFFFFFFFFFFFFFFFFFFF AND MUL OR SWAP1 SSTORE POP PUSH1 0x60 DUP3 ADD MLOAD DUP2 PUSH1 0x3 ADD SSTORE PUSH1 0x80 DUP3 ADD MLOAD DUP2 PUSH1 0x4 ADD SSTORE PUSH1 0xA0 DUP3 ADD MLOAD DUP2 PUSH1 0x5 ADD PUSH1 0x0 PUSH2 0x100 EXP DUP2 SLOAD DUP2 PUSH1 0xFF MUL NOT AND SWAP1 DUP4 ISZERO ISZERO MUL OR SWAP1 SSTORE POP PUSH1 0xC0 DUP3 ADD MLOAD DUP2 PUSH1 0x5 ADD PUSH1 0x1 PUSH2 0x100 EXP DUP2 SLOAD DUP2 PUSH1 0xFF MUL NOT AND SWAP1 DUP4 ISZERO ISZERO MUL OR SWAP1 SSTORE POP PUSH1 0xE0 DUP3 ADD MLOAD DUP2 PUSH1 0x5 ADD PUSH1 0x2 PUSH2 0x100 EXP DUP2 SLOAD DUP2 PUSH20 0xFFFFFFFFFFFFFFFFFFFFFFFFFFFFFFFFFFFFFFFF MUL NOT AND SWAP1 DUP4 PUSH20 0xFFFFFFFFFFFFFFFFFFFFFFFFFFFFFFFFFFFFFFFF AND MUL OR SWAP1 SSTORE POP PUSH2 0x100 DUP3 ADD MLOAD DUP2 PUSH1 0x6 ADD PUSH1 0x0 PUSH2 0x100 EXP DUP2 SLOAD DUP2 PUSH12 0xFFFFFFFFFFFFFFFFFFFFFFFF MUL NOT AND SWAP1 DUP4 PUSH12 0xFFFFFFFFFFFFFFFFFFFFFFFF AND MUL OR SWAP1 SSTORE POP PUSH2 0x120 DUP3 ADD MLOAD DUP2 PUSH1 0x7 ADD SSTORE SWAP1 POP POP PUSH2 0x101 PUSH1 0x0 DUP4 DUP2 MSTORE PUSH1 0x20 ADD SWAP1 DUP2 MSTORE PUSH1 0x20 ADD PUSH1 0x0 KECCAK256 PUSH1 0x7 ADD SLOAD DUP12 PUSH20 0xFFFFFFFFFFFFFFFFFFFFFFFFFFFFFFFFFFFFFFFF AND PUSH2 0x101 PUSH1 0x0 DUP6 DUP2 MSTORE PUSH1 0x20 ADD SWAP1 DUP2 MSTORE PUSH1 0x20 ADD PUSH1 0x0 KECCAK256 PUSH1 0x0 ADD PUSH1 0x0 SWAP1 SLOAD SWAP1 PUSH2 0x100 EXP SWAP1 DIV PUSH20 0xFFFFFFFFFFFFFFFFFFFFFFFFFFFFFFFFFFFFFFFF AND PUSH20 0xFFFFFFFFFFFFFFFFFFFFFFFFFFFFFFFFFFFFFFFF AND PUSH32 0x3BDD0D86E09A22D7CE596118BD3CA5EC73EA47533A465BE37621E913ED2BF333 DUP5 DUP7 DUP14 DUP16 DUP12 DUP12 PUSH1 0x40 MLOAD PUSH2 0x1977 SWAP7 SWAP6 SWAP5 SWAP4 SWAP3 SWAP2 SWAP1 PUSH2 0x3BC1 JUMP JUMPDEST PUSH1 0x40 MLOAD DUP1 SWAP2 SUB SWAP1 LOG4 POP SWAP10 SWAP9 POP POP POP POP POP POP POP POP POP JUMP JUMPDEST PUSH1 0x0 PUSH1 0x65 PUSH1 0x0 SWAP1 SLOAD SWAP1 PUSH2 0x100 EXP SWAP1 DIV PUSH20 0xFFFFFFFFFFFFFFFFFFFFFFFFFFFFFFFFFFFFFFFF AND SWAP1 POP SWAP1 JUMP JUMPDEST PUSH1 0x0 PUSH1 0x99 PUSH1 0x0 SWAP1 SLOAD SWAP1 PUSH2 0x100 EXP SWAP1 DIV PUSH20 0xFFFFFFFFFFFFFFFFFFFFFFFFFFFFFFFFFFFFFFFF AND PUSH20 0xFFFFFFFFFFFFFFFFFFFFFFFFFFFFFFFFFFFFFFFF AND CALLER PUSH20 0xFFFFFFFFFFFFFFFFFFFFFFFFFFFFFFFFFFFFFFFF AND EQ PUSH2 0x1A49 JUMPI PUSH1 0x40 MLOAD PUSH32 0x8C379A000000000000000000000000000000000000000000000000000000000 DUP2 MSTORE PUSH1 0x4 ADD PUSH2 0x1A40 SWAP1 PUSH2 0x3532 JUMP JUMPDEST PUSH1 0x40 MLOAD DUP1 SWAP2 SUB SWAP1 REVERT JUMPDEST PUSH2 0x101 PUSH1 0x0 DUP6 DUP2 MSTORE PUSH1 0x20 ADD SWAP1 DUP2 MSTORE PUSH1 0x20 ADD PUSH1 0x0 KECCAK256 PUSH1 0x5 ADD PUSH1 0x0 SWAP1 SLOAD SWAP1 PUSH2 0x100 EXP SWAP1 DIV PUSH1 0xFF AND ISZERO PUSH2 0x1AAE JUMPI PUSH1 0x40 MLOAD PUSH32 0x8C379A000000000000000000000000000000000000000000000000000000000 DUP2 MSTORE PUSH1 0x4 ADD PUSH2 0x1AA5 SWAP1 PUSH2 0x359E JUMP JUMPDEST PUSH1 0x40 MLOAD DUP1 SWAP2 SUB SWAP1 REVERT JUMPDEST PUSH2 0x101 PUSH1 0x0 DUP6 DUP2 MSTORE PUSH1 0x20 ADD SWAP1 DUP2 MSTORE PUSH1 0x20 ADD PUSH1 0x0 KECCAK256 PUSH1 0x5 ADD PUSH1 0x1 SWAP1 SLOAD SWAP1 PUSH2 0x100 EXP SWAP1 DIV PUSH1 0xFF AND ISZERO PUSH2 0x1B13 JUMPI PUSH1 0x40 MLOAD PUSH32 0x8C379A000000000000000000000000000000000000000000000000000000000 DUP2 MSTORE PUSH1 0x4 ADD PUSH2 0x1B0A SWAP1 PUSH2 0x360A JUMP JUMPDEST PUSH1 0x40 MLOAD DUP1 SWAP2 SUB SWAP1 REVERT JUMPDEST PUSH1 0x0 PUSH2 0x101 PUSH1 0x0 DUP7 DUP2 MSTORE PUSH1 0x20 ADD SWAP1 DUP2 MSTORE PUSH1 0x20 ADD PUSH1 0x0 KECCAK256 PUSH1 0x1 ADD PUSH1 0x0 SWAP1 SLOAD SWAP1 PUSH2 0x100 EXP SWAP1 DIV PUSH20 0xFFFFFFFFFFFFFFFFFFFFFFFFFFFFFFFFFFFFFFFF AND SWAP1 POP DUP3 PUSH8 0xFFFFFFFFFFFFFFFF AND PUSH2 0x101 PUSH1 0x0 DUP8 DUP2 MSTORE PUSH1 0x20 ADD SWAP1 DUP2 MSTORE PUSH1 0x20 ADD PUSH1 0x0 KECCAK256 PUSH1 0x6 ADD PUSH1 0x0 DUP3 DUP3 DUP3 SWAP1 SLOAD SWAP1 PUSH2 0x100 EXP SWAP1 DIV PUSH12 0xFFFFFFFFFFFFFFFFFFFFFFFF AND PUSH2 0x1B97 SWAP2 SWAP1 PUSH2 0x3C1D JUMP JUMPDEST SWAP3 POP PUSH2 0x100 EXP DUP2 SLOAD DUP2 PUSH12 0xFFFFFFFFFFFFFFFFFFFFFFFF MUL NOT AND SWAP1 DUP4 PUSH12 0xFFFFFFFFFFFFFFFFFFFFFFFF AND MUL OR SWAP1 SSTORE POP PUSH1 0x0 PUSH2 0x101 PUSH1 0x0 DUP8 DUP2 MSTORE PUSH1 0x20 ADD SWAP1 DUP2 MSTORE PUSH1 0x20 ADD PUSH1 0x0 KECCAK256 PUSH1 0x6 ADD PUSH1 0x0 SWAP1 SLOAD SWAP1 PUSH2 0x100 EXP SWAP1 DIV PUSH12 0xFFFFFFFFFFFFFFFFFFFFFFFF AND PUSH12 0xFFFFFFFFFFFFFFFFFFFFFFFF AND SUB PUSH2 0x1EC9 JUMPI PUSH1 0x1 PUSH2 0x101 PUSH1 0x0 DUP8 DUP2 MSTORE PUSH1 0x20 ADD SWAP1 DUP2 MSTORE PUSH1 0x20 ADD PUSH1 0x0 KECCAK256 PUSH1 0x5 ADD PUSH1 0x0 PUSH2 0x100 EXP DUP2 SLOAD DUP2 PUSH1 0xFF MUL NOT AND SWAP1 DUP4 ISZERO ISZERO MUL OR SWAP1 SSTORE POP PUSH1 0x0 PUSH2 0x101 PUSH1 0x0 DUP8 DUP2 MSTORE PUSH1 0x20 ADD SWAP1 DUP2 MSTORE PUSH1 0x20 ADD PUSH1 0x0 KECCAK256 PUSH1 0x3 ADD SLOAD EQ PUSH2 0x1DF0 JUMPI PUSH2 0x101 PUSH1 0x0 DUP7 DUP2 MSTORE PUSH1 0x20 ADD SWAP1 DUP2 MSTORE PUSH1 0x20 ADD PUSH1 0x0 KECCAK256 PUSH1 0x1 ADD PUSH1 0x0 SWAP1 SLOAD SWAP1 PUSH2 0x100 EXP SWAP1 DIV PUSH20 0xFFFFFFFFFFFFFFFFFFFFFFFFFFFFFFFFFFFFFFFF AND PUSH20 0xFFFFFFFFFFFFFFFFFFFFFFFFFFFFFFFFFFFFFFFF AND PUSH4 0xA9059CBB PUSH2 0x101 PUSH1 0x0 DUP9 DUP2 MSTORE PUSH1 0x20 ADD SWAP1 DUP2 MSTORE PUSH1 0x20 ADD PUSH1 0x0 KECCAK256 PUSH1 0x2 ADD PUSH1 0x0 SWAP1 SLOAD SWAP1 PUSH2 0x100 EXP SWAP1 DIV PUSH20 0xFFFFFFFFFFFFFFFFFFFFFFFFFFFFFFFFFFFFFFFF AND PUSH2 0x101 PUSH1 0x0 DUP10 DUP2 MSTORE PUSH1 0x20 ADD SWAP1 DUP2 MSTORE PUSH1 0x20 ADD PUSH1 0x0 KECCAK256 PUSH1 0x3 ADD SLOAD PUSH1 0x40 MLOAD DUP4 PUSH4 0xFFFFFFFF AND PUSH1 0xE0 SHL DUP2 MSTORE PUSH1 0x4 ADD PUSH2 0x1D19 SWAP3 SWAP2 SWAP1 PUSH2 0x3696 JUMP JUMPDEST PUSH1 0x20 PUSH1 0x40 MLOAD DUP1 DUP4 SUB DUP2 PUSH1 0x0 DUP8 GAS CALL ISZERO DUP1 ISZERO PUSH2 0x1D38 JUMPI RETURNDATASIZE PUSH1 0x0 DUP1 RETURNDATACOPY RETURNDATASIZE PUSH1 0x0 REVERT JUMPDEST POP POP POP POP PUSH1 0x40 MLOAD RETURNDATASIZE PUSH1 0x1F NOT PUSH1 0x1F DUP3 ADD AND DUP3 ADD DUP1 PUSH1 0x40 MSTORE POP DUP2 ADD SWAP1 PUSH2 0x1D5C SWAP2 SWAP1 PUSH2 0x36EB JUMP JUMPDEST POP PUSH2 0x101 PUSH1 0x0 DUP7 DUP2 MSTORE PUSH1 0x20 ADD SWAP1 DUP2 MSTORE PUSH1 0x20 ADD PUSH1 0x0 KECCAK256 PUSH1 0x3 ADD SLOAD PUSH2 0x101 PUSH1 0x0 DUP8 DUP2 MSTORE PUSH1 0x20 ADD SWAP1 DUP2 MSTORE PUSH1 0x20 ADD PUSH1 0x0 KECCAK256 PUSH1 0x2 ADD PUSH1 0x0 SWAP1 SLOAD SWAP1 PUSH2 0x100 EXP SWAP1 DIV PUSH20 0xFFFFFFFFFFFFFFFFFFFFFFFFFFFFFFFFFFFFFFFF AND PUSH20 0xFFFFFFFFFFFFFFFFFFFFFFFFFFFFFFFFFFFFFFFF AND PUSH32 0x44F6938CA4A10313AABB76F874CCED61E35710A734A126E4AFB34461BF8C2501 PUSH1 0x40 MLOAD PUSH1 0x40 MLOAD DUP1 SWAP2 SUB SWAP1 LOG3 JUMPDEST PUSH1 0x0 PUSH2 0x101 PUSH1 0x0 DUP8 DUP2 MSTORE PUSH1 0x20 ADD SWAP1 DUP2 MSTORE PUSH1 0x20 ADD PUSH1 0x0 KECCAK256 PUSH1 0x4 ADD SLOAD EQ PUSH2 0x1EC8 JUMPI DUP1 PUSH20 0xFFFFFFFFFFFFFFFFFFFFFFFFFFFFFFFFFFFFFFFF AND PUSH4 0xA9059CBB PUSH1 0x98 PUSH1 0x8 SWAP1 SLOAD SWAP1 PUSH2 0x100 EXP SWAP1 DIV PUSH20 0xFFFFFFFFFFFFFFFFFFFFFFFFFFFFFFFFFFFFFFFF AND PUSH2 0x101 PUSH1 0x0 DUP10 DUP2 MSTORE PUSH1 0x20 ADD SWAP1 DUP2 MSTORE PUSH1 0x20 ADD PUSH1 0x0 KECCAK256 PUSH1 0x4 ADD SLOAD PUSH1 0x40 MLOAD DUP4 PUSH4 0xFFFFFFFF AND PUSH1 0xE0 SHL DUP2 MSTORE PUSH1 0x4 ADD PUSH2 0x1E83 SWAP3 SWAP2 SWAP1 PUSH2 0x3696 JUMP JUMPDEST PUSH1 0x20 PUSH1 0x40 MLOAD DUP1 DUP4 SUB DUP2 PUSH1 0x0 DUP8 GAS CALL ISZERO DUP1 ISZERO PUSH2 0x1EA2 JUMPI RETURNDATASIZE PUSH1 0x0 DUP1 RETURNDATACOPY RETURNDATASIZE PUSH1 0x0 REVERT JUMPDEST POP POP POP POP PUSH1 0x40 MLOAD RETURNDATASIZE PUSH1 0x1F NOT PUSH1 0x1F DUP3 ADD AND DUP3 ADD DUP1 PUSH1 0x40 MSTORE POP DUP2 ADD SWAP1 PUSH2 0x1EC6 SWAP2 SWAP1 PUSH2 0x36EB JUMP JUMPDEST POP JUMPDEST JUMPDEST PUSH1 0x0 PUSH1 0x97 SLOAD DUP5 PUSH8 0xFFFFFFFFFFFFFFFF AND PUSH2 0x101 PUSH1 0x0 DUP10 DUP2 MSTORE PUSH1 0x20 ADD SWAP1 DUP2 MSTORE PUSH1 0x20 ADD PUSH1 0x0 KECCAK256 PUSH1 0x7 ADD SLOAD PUSH2 0x1EFB SWAP2 SWAP1 PUSH2 0x3AB2 JUMP JUMPDEST PUSH2 0x1F05 SWAP2 SWAP1 PUSH2 0x3B23 JUMP JUMPDEST SWAP1 POP DUP1 PUSH2 0x101 PUSH1 0x0 DUP9 DUP2 MSTORE PUSH1 0x20 ADD SWAP1 DUP2 MSTORE PUSH1 0x20 ADD PUSH1 0x0 KECCAK256 PUSH1 0x7 ADD PUSH1 0x0 DUP3 DUP3 SLOAD PUSH2 0x1F2E SWAP2 SWAP1 PUSH2 0x377B JUMP JUMPDEST SWAP3 POP POP DUP2 SWAP1 SSTORE POP DUP2 PUSH20 0xFFFFFFFFFFFFFFFFFFFFFFFFFFFFFFFFFFFFFFFF AND PUSH4 0xA9059CBB DUP7 DUP4 PUSH1 0x40 MLOAD DUP4 PUSH4 0xFFFFFFFF AND PUSH1 0xE0 SHL DUP2 MSTORE PUSH1 0x4 ADD PUSH2 0x1F70 SWAP3 SWAP2 SWAP1 PUSH2 0x3696 JUMP JUMPDEST PUSH1 0x20 PUSH1 0x40 MLOAD DUP1 DUP4 SUB DUP2 PUSH1 0x0 DUP8 GAS CALL ISZERO DUP1 ISZERO PUSH2 0x1F8F JUMPI RETURNDATASIZE PUSH1 0x0 DUP1 RETURNDATACOPY RETURNDATASIZE PUSH1 0x0 REVERT JUMPDEST POP POP POP POP PUSH1 0x40 MLOAD RETURNDATASIZE PUSH1 0x1F NOT PUSH1 0x1F DUP3 ADD AND DUP3 ADD DUP1 PUSH1 0x40 MSTORE POP DUP2 ADD SWAP1 PUSH2 0x1FB3 SWAP2 SWAP1 PUSH2 0x36EB JUMP JUMPDEST POP DUP5 PUSH20 0xFFFFFFFFFFFFFFFFFFFFFFFFFFFFFFFFFFFFFFFF AND DUP7 PUSH32 0x98ECE21E01A01CBE1D1C0DAD3B053C8FBD368F99BE78BE958FCF1D1D13FD249A DUP10 DUP8 PUSH1 0x40 MLOAD PUSH2 0x1FFD SWAP3 SWAP2 SWAP1 PUSH2 0x3C8E JUMP JUMPDEST PUSH1 0x40 MLOAD DUP1 SWAP2 SUB SWAP1 LOG3 PUSH1 0x1 SWAP3 POP POP POP SWAP5 SWAP4 POP POP POP POP JUMP JUMPDEST PUSH2 0x201B PUSH2 0x20C0 JUMP JUMPDEST DUP1 PUSH1 0x65 PUSH1 0x0 PUSH2 0x100 EXP DUP2 SLOAD DUP2 PUSH20 0xFFFFFFFFFFFFFFFFFFFFFFFFFFFFFFFFFFFFFFFF MUL NOT AND SWAP1 DUP4 PUSH20 0xFFFFFFFFFFFFFFFFFFFFFFFFFFFFFFFFFFFFFFFF AND MUL OR SWAP1 SSTORE POP DUP1 PUSH20 0xFFFFFFFFFFFFFFFFFFFFFFFFFFFFFFFFFFFFFFFF AND PUSH2 0x207B PUSH2 0x1232 JUMP JUMPDEST PUSH20 0xFFFFFFFFFFFFFFFFFFFFFFFFFFFFFFFFFFFFFFFF AND PUSH32 0x38D16B8CAC22D99FC7C124B9CD0DE2D3FA1FAEF420BFE791D8C362D765E22700 PUSH1 0x40 MLOAD PUSH1 0x40 MLOAD DUP1 SWAP2 SUB SWAP1 LOG3 POP JUMP JUMPDEST PUSH2 0x20C8 PUSH2 0x21D2 JUMP JUMPDEST PUSH20 0xFFFFFFFFFFFFFFFFFFFFFFFFFFFFFFFFFFFFFFFF AND PUSH2 0x20E6 PUSH2 0x1232 JUMP JUMPDEST PUSH20 0xFFFFFFFFFFFFFFFFFFFFFFFFFFFFFFFFFFFFFFFF AND EQ PUSH2 0x213C JUMPI PUSH1 0x40 MLOAD PUSH32 0x8C379A000000000000000000000000000000000000000000000000000000000 DUP2 MSTORE PUSH1 0x4 ADD PUSH2 0x2133 SWAP1 PUSH2 0x3D03 JUMP JUMPDEST PUSH1 0x40 MLOAD DUP1 SWAP2 SUB SWAP1 REVERT JUMPDEST JUMP JUMPDEST PUSH2 0x2146 PUSH2 0x250F JUMP JUMPDEST PUSH1 0x0 PUSH1 0xCF PUSH1 0x0 PUSH2 0x100 EXP DUP2 SLOAD DUP2 PUSH1 0xFF MUL NOT AND SWAP1 DUP4 ISZERO ISZERO MUL OR SWAP1 SSTORE POP PUSH32 0x5DB9EE0A495BF2E6FF9C91A7834C1BA4FDD244A5E8AA4E537BD38AEAE4B073AA PUSH2 0x218A PUSH2 0x21D2 JUMP JUMPDEST PUSH1 0x40 MLOAD PUSH2 0x2197 SWAP2 SWAP1 PUSH2 0x2ED2 JUMP JUMPDEST PUSH1 0x40 MLOAD DUP1 SWAP2 SUB SWAP1 LOG1 JUMP JUMPDEST PUSH1 0x65 PUSH1 0x0 PUSH2 0x100 EXP DUP2 SLOAD SWAP1 PUSH20 0xFFFFFFFFFFFFFFFFFFFFFFFFFFFFFFFFFFFFFFFF MUL NOT AND SWAP1 SSTORE PUSH2 0x21CF DUP2 PUSH2 0x2558 JUMP JUMPDEST POP JUMP JUMPDEST PUSH1 0x0 CALLER SWAP1 POP SWAP1 JUMP JUMPDEST PUSH1 0x0 DUP1 DUP3 PUSH20 0xFFFFFFFFFFFFFFFFFFFFFFFFFFFFFFFFFFFFFFFF AND EXTCODESIZE GT SWAP1 POP SWAP2 SWAP1 POP JUMP JUMPDEST PUSH1 0x0 PUSH1 0x1 SWAP1 SLOAD SWAP1 PUSH2 0x100 EXP SWAP1 DIV PUSH1 0xFF AND PUSH2 0x224C JUMPI PUSH1 0x40 MLOAD PUSH32 0x8C379A000000000000000000000000000000000000000000000000000000000 DUP2 MSTORE PUSH1 0x4 ADD PUSH2 0x2243 SWAP1 PUSH2 0x3D95 JUMP JUMPDEST PUSH1 0x40 MLOAD DUP1 SWAP2 SUB SWAP1 REVERT JUMPDEST PUSH2 0x2254 PUSH2 0x261E JUMP JUMPDEST JUMP JUMPDEST PUSH1 0x0 PUSH1 0x1 SWAP1 SLOAD SWAP1 PUSH2 0x100 EXP SWAP1 DIV PUSH1 0xFF AND PUSH2 0x22A5 JUMPI PUSH1 0x40 MLOAD PUSH32 0x8C379A000000000000000000000000000000000000000000000000000000000 DUP2 MSTORE PUSH1 0x4 ADD PUSH2 0x229C SWAP1 PUSH2 0x3D95 JUMP JUMPDEST PUSH1 0x40 MLOAD DUP1 SWAP2 SUB SWAP1 REVERT JUMPDEST PUSH2 0x22AD PUSH2 0x267F JUMP JUMPDEST JUMP JUMPDEST PUSH2 0x22B7 PUSH2 0x2312 JUMP JUMPDEST PUSH1 0x1 PUSH1 0xCF PUSH1 0x0 PUSH2 0x100 EXP DUP2 SLOAD DUP2 PUSH1 0xFF MUL NOT AND SWAP1 DUP4 ISZERO ISZERO MUL OR SWAP1 SSTORE POP PUSH32 0x62E78CEA01BEE320CD4E420270B5EA74000D11B0C9F74754EBDBFC544B05A258 PUSH2 0x22FB PUSH2 0x21D2 JUMP JUMPDEST PUSH1 0x40 MLOAD PUSH2 0x2308 SWAP2 SWAP1 PUSH2 0x2ED2 JUMP JUMPDEST PUSH1 0x40 MLOAD DUP1 SWAP2 SUB SWAP1 LOG1 JUMP JUMPDEST PUSH2 0x231A PUSH2 0x903 JUMP JUMPDEST ISZERO PUSH2 0x235A JUMPI PUSH1 0x40 MLOAD PUSH32 0x8C379A000000000000000000000000000000000000000000000000000000000 DUP2 MSTORE PUSH1 0x4 ADD PUSH2 0x2351 SWAP1 PUSH2 0x3E01 JUMP JUMPDEST PUSH1 0x40 MLOAD DUP1 SWAP2 SUB SWAP1 REVERT JUMPDEST JUMP JUMPDEST PUSH1 0x1 PUSH1 0xCC PUSH1 0x0 DUP8 PUSH20 0xFFFFFFFFFFFFFFFFFFFFFFFFFFFFFFFFFFFFFFFF AND PUSH20 0xFFFFFFFFFFFFFFFFFFFFFFFFFFFFFFFFFFFFFFFF AND DUP2 MSTORE PUSH1 0x20 ADD SWAP1 DUP2 MSTORE PUSH1 0x20 ADD PUSH1 0x0 KECCAK256 SLOAD EQ PUSH2 0x23DE JUMPI PUSH1 0x40 MLOAD PUSH32 0x8C379A000000000000000000000000000000000000000000000000000000000 DUP2 MSTORE PUSH1 0x4 ADD PUSH2 0x23D5 SWAP1 PUSH2 0x3E6D JUMP JUMPDEST PUSH1 0x40 MLOAD DUP1 SWAP2 SUB SWAP1 REVERT JUMPDEST PUSH1 0x0 DUP5 SUB PUSH2 0x2421 JUMPI PUSH1 0x40 MLOAD PUSH32 0x8C379A000000000000000000000000000000000000000000000000000000000 DUP2 MSTORE PUSH1 0x4 ADD PUSH2 0x2418 SWAP1 PUSH2 0x3ED9 JUMP JUMPDEST PUSH1 0x40 MLOAD DUP1 SWAP2 SUB SWAP1 REVERT JUMPDEST PUSH1 0x0 PUSH20 0xFFFFFFFFFFFFFFFFFFFFFFFFFFFFFFFFFFFFFFFF AND DUP4 PUSH20 0xFFFFFFFFFFFFFFFFFFFFFFFFFFFFFFFFFFFFFFFF AND SUB PUSH2 0x2490 JUMPI PUSH1 0x40 MLOAD PUSH32 0x8C379A000000000000000000000000000000000000000000000000000000000 DUP2 MSTORE PUSH1 0x4 ADD PUSH2 0x2487 SWAP1 PUSH2 0x3F45 JUMP JUMPDEST PUSH1 0x40 MLOAD DUP1 SWAP2 SUB SWAP1 REVERT JUMPDEST PUSH1 0x0 DUP2 EQ PUSH2 0x2508 JUMPI PUSH1 0x0 PUSH20 0xFFFFFFFFFFFFFFFFFFFFFFFFFFFFFFFFFFFFFFFF AND DUP3 PUSH20 0xFFFFFFFFFFFFFFFFFFFFFFFFFFFFFFFFFFFFFFFF AND SUB PUSH2 0x2507 JUMPI PUSH1 0x40 MLOAD PUSH32 0x8C379A000000000000000000000000000000000000000000000000000000000 DUP2 MSTORE PUSH1 0x4 ADD PUSH2 0x24FE SWAP1 PUSH2 0x3FB1 JUMP JUMPDEST PUSH1 0x40 MLOAD DUP1 SWAP2 SUB SWAP1 REVERT JUMPDEST JUMPDEST POP POP POP POP POP JUMP JUMPDEST PUSH2 0x2517 PUSH2 0x903 JUMP JUMPDEST PUSH2 0x2556 JUMPI PUSH1 0x40 MLOAD PUSH32 0x8C379A000000000000000000000000000000000000000000000000000000000 DUP2 MSTORE PUSH1 0x4 ADD PUSH2 0x254D SWAP1 PUSH2 0x401D JUMP JUMPDEST PUSH1 0x40 MLOAD DUP1 SWAP2 SUB SWAP1 REVERT JUMPDEST JUMP JUMPDEST PUSH1 0x0 PUSH1 0x33 PUSH1 0x0 SWAP1 SLOAD SWAP1 PUSH2 0x100 EXP SWAP1 DIV PUSH20 0xFFFFFFFFFFFFFFFFFFFFFFFFFFFFFFFFFFFFFFFF AND SWAP1 POP DUP2 PUSH1 0x33 PUSH1 0x0 PUSH2 0x100 EXP DUP2 SLOAD DUP2 PUSH20 0xFFFFFFFFFFFFFFFFFFFFFFFFFFFFFFFFFFFFFFFF MUL NOT AND SWAP1 DUP4 PUSH20 0xFFFFFFFFFFFFFFFFFFFFFFFFFFFFFFFFFFFFFFFF AND MUL OR SWAP1 SSTORE POP DUP2 PUSH20 0xFFFFFFFFFFFFFFFFFFFFFFFFFFFFFFFFFFFFFFFF AND DUP2 PUSH20 0xFFFFFFFFFFFFFFFFFFFFFFFFFFFFFFFFFFFFFFFF AND PUSH32 0x8BE0079C531659141344CD1FD0A4F28419497F9722A3DAAFE3B4186F6B6457E0 PUSH1 0x40 MLOAD PUSH1 0x40 MLOAD DUP1 SWAP2 SUB SWAP1 LOG3 POP POP JUMP JUMPDEST PUSH1 0x0 PUSH1 0x1 SWAP1 SLOAD SWAP1 PUSH2 0x100 EXP SWAP1 DIV PUSH1 0xFF AND PUSH2 0x266D JUMPI PUSH1 0x40 MLOAD PUSH32 0x8C379A000000000000000000000000000000000000000000000000000000000 DUP2 MSTORE PUSH1 0x4 ADD PUSH2 0x2664 SWAP1 PUSH2 0x3D95 JUMP JUMPDEST PUSH1 0x40 MLOAD DUP1 SWAP2 SUB SWAP1 REVERT JUMPDEST PUSH2 0x267D PUSH2 0x2678 PUSH2 0x21D2 JUMP JUMPDEST PUSH2 0x21A1 JUMP JUMPDEST JUMP JUMPDEST PUSH1 0x0 PUSH1 0x1 SWAP1 SLOAD SWAP1 PUSH2 0x100 EXP SWAP1 DIV PUSH1 0xFF AND PUSH2 0x26CE JUMPI PUSH1 0x40 MLOAD PUSH32 0x8C379A000000000000000000000000000000000000000000000000000000000 DUP2 MSTORE PUSH1 0x4 ADD PUSH2 0x26C5 SWAP1 PUSH2 0x3D95 JUMP JUMPDEST PUSH1 0x40 MLOAD DUP1 SWAP2 SUB SWAP1 REVERT JUMPDEST PUSH1 0x0 PUSH1 0xCF PUSH1 0x0 PUSH2 0x100 EXP DUP2 SLOAD DUP2 PUSH1 0xFF MUL NOT AND SWAP1 DUP4 ISZERO ISZERO MUL OR SWAP1 SSTORE POP JUMP JUMPDEST POP DUP1 SLOAD PUSH1 0x0 DUP3 SSTORE PUSH1 0x2 MUL SWAP1 PUSH1 0x0 MSTORE PUSH1 0x20 PUSH1 0x0 KECCAK256 SWAP1 DUP2 ADD SWAP1 PUSH2 0x270C SWAP2 SWAP1 PUSH2 0x27EC JUMP JUMPDEST POP JUMP JUMPDEST PUSH1 0x40 MLOAD DUP1 PUSH2 0x140 ADD PUSH1 0x40 MSTORE DUP1 PUSH1 0x0 PUSH20 0xFFFFFFFFFFFFFFFFFFFFFFFFFFFFFFFFFFFFFFFF AND DUP2 MSTORE PUSH1 0x20 ADD PUSH1 0x0 PUSH20 0xFFFFFFFFFFFFFFFFFFFFFFFFFFFFFFFFFFFFFFFF AND DUP2 MSTORE PUSH1 0x20 ADD PUSH1 0x0 PUSH20 0xFFFFFFFFFFFFFFFFFFFFFFFFFFFFFFFFFFFFFFFF AND DUP2 MSTORE PUSH1 0x20 ADD PUSH1 0x0 DUP2 MSTORE PUSH1 0x20 ADD PUSH1 0x0 DUP2 MSTORE PUSH1 0x20 ADD PUSH1 0x0 ISZERO ISZERO DUP2 MSTORE PUSH1 0x20 ADD PUSH1 0x0 ISZERO ISZERO DUP2 MSTORE PUSH1 0x20 ADD PUSH1 0x0 PUSH20 0xFFFFFFFFFFFFFFFFFFFFFFFFFFFFFFFFFFFFFFFF AND DUP2 MSTORE PUSH1 0x20 ADD PUSH1 0x0 PUSH12 0xFFFFFFFFFFFFFFFFFFFFFFFF AND DUP2 MSTORE PUSH1 0x20 ADD PUSH1 0x0 DUP2 MSTORE POP SWAP1 JUMP JUMPDEST PUSH1 0x40 MLOAD DUP1 PUSH1 0x40 ADD PUSH1 0x40 MSTORE DUP1 PUSH1 0x0 DUP1 NOT AND DUP2 MSTORE PUSH1 0x20 ADD PUSH1 0x0 DUP1 NOT AND DUP2 MSTORE POP SWAP1 JUMP JUMPDEST JUMPDEST DUP1 DUP3 GT ISZERO PUSH2 0x280F JUMPI PUSH1 0x0 DUP1 DUP3 ADD PUSH1 0x0 SWAP1 SSTORE PUSH1 0x1 DUP3 ADD PUSH1 0x0 SWAP1 SSTORE POP PUSH1 0x2 ADD PUSH2 0x27ED JUMP JUMPDEST POP SWAP1 JUMP JUMPDEST PUSH1 0x0 PUSH1 0x40 MLOAD SWAP1 POP SWAP1 JUMP JUMPDEST PUSH1 0x0 DUP1 REVERT JUMPDEST PUSH1 0x0 DUP1 REVERT JUMPDEST PUSH1 0x0 DUP2 SWAP1 POP SWAP2 SWAP1 POP JUMP JUMPDEST PUSH2 0x283A DUP2 PUSH2 0x2827 JUMP JUMPDEST DUP2 EQ PUSH2 0x2845 JUMPI PUSH1 0x0 DUP1 REVERT JUMPDEST POP JUMP JUMPDEST PUSH1 0x0 DUP2 CALLDATALOAD SWAP1 POP PUSH2 0x2857 DUP2 PUSH2 0x2831 JUMP JUMPDEST SWAP3 SWAP2 POP POP JUMP JUMPDEST PUSH1 0x0 PUSH1 0x20 DUP3 DUP5 SUB SLT ISZERO PUSH2 0x2873 JUMPI PUSH2 0x2872 PUSH2 0x281D JUMP JUMPDEST JUMPDEST PUSH1 0x0 PUSH2 0x2881 DUP5 DUP3 DUP6 ADD PUSH2 0x2848 JUMP JUMPDEST SWAP2 POP POP SWAP3 SWAP2 POP POP JUMP JUMPDEST PUSH1 0x0 DUP2 MLOAD SWAP1 POP SWAP2 SWAP1 POP JUMP JUMPDEST PUSH1 0x0 DUP3 DUP3 MSTORE PUSH1 0x20 DUP3 ADD SWAP1 POP SWAP3 SWAP2 POP POP JUMP JUMPDEST PUSH1 0x0 DUP2 SWAP1 POP PUSH1 0x20 DUP3 ADD SWAP1 POP SWAP2 SWAP1 POP JUMP JUMPDEST PUSH2 0x28BF DUP2 PUSH2 0x2827 JUMP JUMPDEST DUP3 MSTORE POP POP JUMP JUMPDEST PUSH1 0x40 DUP3 ADD PUSH1 0x0 DUP3 ADD MLOAD PUSH2 0x28DB PUSH1 0x0 DUP6 ADD DUP3 PUSH2 0x28B6 JUMP JUMPDEST POP PUSH1 0x20 DUP3 ADD MLOAD PUSH2 0x28EE PUSH1 0x20 DUP6 ADD DUP3 PUSH2 0x28B6 JUMP JUMPDEST POP POP POP POP JUMP JUMPDEST PUSH1 0x0 PUSH2 0x2900 DUP4 DUP4 PUSH2 0x28C5 JUMP JUMPDEST PUSH1 0x40 DUP4 ADD SWAP1 POP SWAP3 SWAP2 POP POP JUMP JUMPDEST PUSH1 0x0 PUSH1 0x20 DUP3 ADD SWAP1 POP SWAP2 SWAP1 POP JUMP JUMPDEST PUSH1 0x0 PUSH2 0x2924 DUP3 PUSH2 0x288A JUMP JUMPDEST PUSH2 0x292E DUP2 DUP6 PUSH2 0x2895 JUMP JUMPDEST SWAP4 POP PUSH2 0x2939 DUP4 PUSH2 0x28A6 JUMP JUMPDEST DUP1 PUSH1 0x0 JUMPDEST DUP4 DUP2 LT ISZERO PUSH2 0x296A JUMPI DUP2 MLOAD PUSH2 0x2951 DUP9 DUP3 PUSH2 0x28F4 JUMP JUMPDEST SWAP8 POP PUSH2 0x295C DUP4 PUSH2 0x290C JUMP JUMPDEST SWAP3 POP POP PUSH1 0x1 DUP2 ADD SWAP1 POP PUSH2 0x293D JUMP JUMPDEST POP DUP6 SWAP4 POP POP POP POP SWAP3 SWAP2 POP POP JUMP JUMPDEST PUSH1 0x0 PUSH1 0x20 DUP3 ADD SWAP1 POP DUP2 DUP2 SUB PUSH1 0x0 DUP4 ADD MSTORE PUSH2 0x2991 DUP2 DUP5 PUSH2 0x2919 JUMP JUMPDEST SWAP1 POP SWAP3 SWAP2 POP POP JUMP JUMPDEST PUSH1 0x0 DUP1 REVERT JUMPDEST PUSH1 0x0 PUSH1 0x1F NOT PUSH1 0x1F DUP4 ADD AND SWAP1 POP SWAP2 SWAP1 POP JUMP JUMPDEST PUSH32 0x4E487B7100000000000000000000000000000000000000000000000000000000 PUSH1 0x0 MSTORE PUSH1 0x41 PUSH1 0x4 MSTORE PUSH1 0x24 PUSH1 0x0 REVERT JUMPDEST PUSH2 0x29E7 DUP3 PUSH2 0x299E JUMP JUMPDEST DUP2 ADD DUP2 DUP2 LT PUSH8 0xFFFFFFFFFFFFFFFF DUP3 GT OR ISZERO PUSH2 0x2A06 JUMPI PUSH2 0x2A05 PUSH2 0x29AF JUMP JUMPDEST JUMPDEST DUP1 PUSH1 0x40 MSTORE POP POP POP JUMP JUMPDEST PUSH1 0x0 PUSH2 0x2A19 PUSH2 0x2813 JUMP JUMPDEST SWAP1 POP PUSH2 0x2A25 DUP3 DUP3 PUSH2 0x29DE JUMP JUMPDEST SWAP2 SWAP1 POP JUMP JUMPDEST PUSH1 0x0 PUSH8 0xFFFFFFFFFFFFFFFF DUP3 GT ISZERO PUSH2 0x2A45 JUMPI PUSH2 0x2A44 PUSH2 0x29AF JUMP JUMPDEST JUMPDEST PUSH1 0x20 DUP3 MUL SWAP1 POP PUSH1 0x20 DUP2 ADD SWAP1 POP SWAP2 SWAP1 POP JUMP JUMPDEST PUSH1 0x0 DUP1 REVERT JUMPDEST PUSH1 0x0 DUP1 REVERT JUMPDEST PUSH1 0x0 PUSH1 0x40 DUP3 DUP5 SUB SLT ISZERO PUSH2 0x2A76 JUMPI PUSH2 0x2A75 PUSH2 0x2A5B JUMP JUMPDEST JUMPDEST PUSH2 0x2A80 PUSH1 0x40 PUSH2 0x2A0F JUMP JUMPDEST SWAP1 POP PUSH1 0x0 PUSH2 0x2A90 DUP5 DUP3 DUP6 ADD PUSH2 0x2848 JUMP JUMPDEST PUSH1 0x0 DUP4 ADD MSTORE POP PUSH1 0x20 PUSH2 0x2AA4 DUP5 DUP3 DUP6 ADD PUSH2 0x2848 JUMP JUMPDEST PUSH1 0x20 DUP4 ADD MSTORE POP SWAP3 SWAP2 POP POP JUMP JUMPDEST PUSH1 0x0 PUSH2 0x2AC3 PUSH2 0x2ABE DUP5 PUSH2 0x2A2A JUMP JUMPDEST PUSH2 0x2A0F JUMP JUMPDEST SWAP1 POP DUP1 DUP4 DUP3 MSTORE PUSH1 0x20 DUP3 ADD SWAP1 POP PUSH1 0x40 DUP5 MUL DUP4 ADD DUP6 DUP2 GT ISZERO PUSH2 0x2AE6 JUMPI PUSH2 0x2AE5 PUSH2 0x2A56 JUMP JUMPDEST JUMPDEST DUP4 JUMPDEST DUP2 DUP2 LT ISZERO PUSH2 0x2B0F JUMPI DUP1 PUSH2 0x2AFB DUP9 DUP3 PUSH2 0x2A60 JUMP JUMPDEST DUP5 MSTORE PUSH1 0x20 DUP5 ADD SWAP4 POP POP PUSH1 0x40 DUP2 ADD SWAP1 POP PUSH2 0x2AE8 JUMP JUMPDEST POP POP POP SWAP4 SWAP3 POP POP POP JUMP JUMPDEST PUSH1 0x0 DUP3 PUSH1 0x1F DUP4 ADD SLT PUSH2 0x2B2E JUMPI PUSH2 0x2B2D PUSH2 0x2999 JUMP JUMPDEST JUMPDEST DUP2 CALLDATALOAD PUSH2 0x2B3E DUP5 DUP3 PUSH1 0x20 DUP7 ADD PUSH2 0x2AB0 JUMP JUMPDEST SWAP2 POP POP SWAP3 SWAP2 POP POP JUMP JUMPDEST PUSH1 0x0 DUP1 PUSH1 0x40 DUP4 DUP6 SUB SLT ISZERO PUSH2 0x2B5E JUMPI PUSH2 0x2B5D PUSH2 0x281D JUMP JUMPDEST JUMPDEST PUSH1 0x0 PUSH2 0x2B6C DUP6 DUP3 DUP7 ADD PUSH2 0x2848 JUMP JUMPDEST SWAP3 POP POP PUSH1 0x20 DUP4 ADD CALLDATALOAD PUSH8 0xFFFFFFFFFFFFFFFF DUP2 GT ISZERO PUSH2 0x2B8D JUMPI PUSH2 0x2B8C PUSH2 0x2822 JUMP JUMPDEST JUMPDEST PUSH2 0x2B99 DUP6 DUP3 DUP7 ADD PUSH2 0x2B19 JUMP JUMPDEST SWAP2 POP POP SWAP3 POP SWAP3 SWAP1 POP JUMP JUMPDEST PUSH1 0x0 PUSH20 0xFFFFFFFFFFFFFFFFFFFFFFFFFFFFFFFFFFFFFFFF DUP3 AND SWAP1 POP SWAP2 SWAP1 POP JUMP JUMPDEST PUSH1 0x0 PUSH2 0x2BCE DUP3 PUSH2 0x2BA3 JUMP JUMPDEST SWAP1 POP SWAP2 SWAP1 POP JUMP JUMPDEST PUSH2 0x2BDE DUP2 PUSH2 0x2BC3 JUMP JUMPDEST DUP2 EQ PUSH2 0x2BE9 JUMPI PUSH1 0x0 DUP1 REVERT JUMPDEST POP JUMP JUMPDEST PUSH1 0x0 DUP2 CALLDATALOAD SWAP1 POP PUSH2 0x2BFB DUP2 PUSH2 0x2BD5 JUMP JUMPDEST SWAP3 SWAP2 POP POP JUMP JUMPDEST PUSH1 0x0 DUP1 PUSH1 0x40 DUP4 DUP6 SUB SLT ISZERO PUSH2 0x2C18 JUMPI PUSH2 0x2C17 PUSH2 0x281D JUMP JUMPDEST JUMPDEST PUSH1 0x0 PUSH2 0x2C26 DUP6 DUP3 DUP7 ADD PUSH2 0x2848 JUMP JUMPDEST SWAP3 POP POP PUSH1 0x20 PUSH2 0x2C37 DUP6 DUP3 DUP7 ADD PUSH2 0x2BEC JUMP JUMPDEST SWAP2 POP POP SWAP3 POP SWAP3 SWAP1 POP JUMP JUMPDEST PUSH1 0x0 PUSH8 0xFFFFFFFFFFFFFFFF DUP3 AND SWAP1 POP SWAP2 SWAP1 POP JUMP JUMPDEST PUSH2 0x2C5E DUP2 PUSH2 0x2C41 JUMP JUMPDEST DUP2 EQ PUSH2 0x2C69 JUMPI PUSH1 0x0 DUP1 REVERT JUMPDEST POP JUMP JUMPDEST PUSH1 0x0 DUP2 CALLDATALOAD SWAP1 POP PUSH2 0x2C7B DUP2 PUSH2 0x2C55 JUMP JUMPDEST SWAP3 SWAP2 POP POP JUMP JUMPDEST PUSH1 0x0 PUSH1 0x20 DUP3 DUP5 SUB SLT ISZERO PUSH2 0x2C97 JUMPI PUSH2 0x2C96 PUSH2 0x281D JUMP JUMPDEST JUMPDEST PUSH1 0x0 PUSH2 0x2CA5 DUP5 DUP3 DUP6 ADD PUSH2 0x2C6C JUMP JUMPDEST SWAP2 POP POP SWAP3 SWAP2 POP POP JUMP JUMPDEST PUSH1 0x0 DUP2 ISZERO ISZERO SWAP1 POP SWAP2 SWAP1 POP JUMP JUMPDEST PUSH2 0x2CC3 DUP2 PUSH2 0x2CAE JUMP JUMPDEST DUP3 MSTORE POP POP JUMP JUMPDEST PUSH1 0x0 PUSH1 0x20 DUP3 ADD SWAP1 POP PUSH2 0x2CDE PUSH1 0x0 DUP4 ADD DUP5 PUSH2 0x2CBA JUMP JUMPDEST SWAP3 SWAP2 POP POP JUMP JUMPDEST PUSH1 0x0 DUP2 SWAP1 POP SWAP2 SWAP1 POP JUMP JUMPDEST PUSH2 0x2CF7 DUP2 PUSH2 0x2CE4 JUMP JUMPDEST DUP2 EQ PUSH2 0x2D02 JUMPI PUSH1 0x0 DUP1 REVERT JUMPDEST POP JUMP JUMPDEST PUSH1 0x0 DUP2 CALLDATALOAD SWAP1 POP PUSH2 0x2D14 DUP2 PUSH2 0x2CEE JUMP JUMPDEST SWAP3 SWAP2 POP POP JUMP JUMPDEST PUSH1 0x0 DUP1 PUSH1 0x40 DUP4 DUP6 SUB SLT ISZERO PUSH2 0x2D31 JUMPI PUSH2 0x2D30 PUSH2 0x281D JUMP JUMPDEST JUMPDEST PUSH1 0x0 PUSH2 0x2D3F DUP6 DUP3 DUP7 ADD PUSH2 0x2D05 JUMP JUMPDEST SWAP3 POP POP PUSH1 0x20 PUSH2 0x2D50 DUP6 DUP3 DUP7 ADD PUSH2 0x2848 JUMP JUMPDEST SWAP2 POP POP SWAP3 POP SWAP3 SWAP1 POP JUMP JUMPDEST PUSH1 0x0 PUSH1 0x20 DUP3 DUP5 SUB SLT ISZERO PUSH2 0x2D70 JUMPI PUSH2 0x2D6F PUSH2 0x281D JUMP JUMPDEST JUMPDEST PUSH1 0x0 PUSH2 0x2D7E DUP5 DUP3 DUP6 ADD PUSH2 0x2BEC JUMP JUMPDEST SWAP2 POP POP SWAP3 SWAP2 POP POP JUMP JUMPDEST PUSH2 0x2D90 DUP2 PUSH2 0x2BC3 JUMP JUMPDEST DUP3 MSTORE POP POP JUMP JUMPDEST PUSH2 0x2D9F DUP2 PUSH2 0x2CE4 JUMP JUMPDEST DUP3 MSTORE POP POP JUMP JUMPDEST PUSH2 0x2DAE DUP2 PUSH2 0x2CAE JUMP JUMPDEST DUP3 MSTORE POP POP JUMP JUMPDEST PUSH1 0x0 PUSH12 0xFFFFFFFFFFFFFFFFFFFFFFFF DUP3 AND SWAP1 POP SWAP2 SWAP1 POP JUMP JUMPDEST PUSH2 0x2DD5 DUP2 PUSH2 0x2DB4 JUMP JUMPDEST DUP3 MSTORE POP POP JUMP JUMPDEST PUSH2 0x140 DUP3 ADD PUSH1 0x0 DUP3 ADD MLOAD PUSH2 0x2DF2 PUSH1 0x0 DUP6 ADD DUP3 PUSH2 0x2D87 JUMP JUMPDEST POP PUSH1 0x20 DUP3 ADD MLOAD PUSH2 0x2E05 PUSH1 0x20 DUP6 ADD DUP3 PUSH2 0x2D87 JUMP JUMPDEST POP PUSH1 0x40 DUP3 ADD MLOAD PUSH2 0x2E18 PUSH1 0x40 DUP6 ADD DUP3 PUSH2 0x2D87 JUMP JUMPDEST POP PUSH1 0x60 DUP3 ADD MLOAD PUSH2 0x2E2B PUSH1 0x60 DUP6 ADD DUP3 PUSH2 0x2D96 JUMP JUMPDEST POP PUSH1 0x80 DUP3 ADD MLOAD PUSH2 0x2E3E PUSH1 0x80 DUP6 ADD DUP3 PUSH2 0x2D96 JUMP JUMPDEST POP PUSH1 0xA0 DUP3 ADD MLOAD PUSH2 0x2E51 PUSH1 0xA0 DUP6 ADD DUP3 PUSH2 0x2DA5 JUMP JUMPDEST POP PUSH1 0xC0 DUP3 ADD MLOAD PUSH2 0x2E64 PUSH1 0xC0 DUP6 ADD DUP3 PUSH2 0x2DA5 JUMP JUMPDEST POP PUSH1 0xE0 DUP3 ADD MLOAD PUSH2 0x2E77 PUSH1 0xE0 DUP6 ADD DUP3 PUSH2 0x2D87 JUMP JUMPDEST POP PUSH2 0x100 DUP3 ADD MLOAD PUSH2 0x2E8C PUSH2 0x100 DUP6 ADD DUP3 PUSH2 0x2DCC JUMP JUMPDEST POP PUSH2 0x120 DUP3 ADD MLOAD PUSH2 0x2EA1 PUSH2 0x120 DUP6 ADD DUP3 PUSH2 0x2D96 JUMP JUMPDEST POP POP POP POP JUMP JUMPDEST PUSH1 0x0 PUSH2 0x140 DUP3 ADD SWAP1 POP PUSH2 0x2EBD PUSH1 0x0 DUP4 ADD DUP5 PUSH2 0x2DDB JUMP JUMPDEST SWAP3 SWAP2 POP POP JUMP JUMPDEST PUSH2 0x2ECC DUP2 PUSH2 0x2BC3 JUMP JUMPDEST DUP3 MSTORE POP POP JUMP JUMPDEST PUSH1 0x0 PUSH1 0x20 DUP3 ADD SWAP1 POP PUSH2 0x2EE7 PUSH1 0x0 DUP4 ADD DUP5 PUSH2 0x2EC3 JUMP JUMPDEST SWAP3 SWAP2 POP POP JUMP JUMPDEST PUSH2 0x2EF6 DUP2 PUSH2 0x2C41 JUMP JUMPDEST DUP3 MSTORE POP POP JUMP JUMPDEST PUSH2 0x2F05 DUP2 PUSH2 0x2CE4 JUMP JUMPDEST DUP3 MSTORE POP POP JUMP JUMPDEST PUSH1 0x0 PUSH1 0x40 DUP3 ADD SWAP1 POP PUSH2 0x2F20 PUSH1 0x0 DUP4 ADD DUP6 PUSH2 0x2EED JUMP JUMPDEST PUSH2 0x2F2D PUSH1 0x20 DUP4 ADD DUP5 PUSH2 0x2EFC JUMP JUMPDEST SWAP4 SWAP3 POP POP POP JUMP JUMPDEST PUSH1 0x40 DUP3 ADD PUSH1 0x0 DUP3 ADD MLOAD PUSH2 0x2F4A PUSH1 0x0 DUP6 ADD DUP3 PUSH2 0x28B6 JUMP JUMPDEST POP PUSH1 0x20 DUP3 ADD MLOAD PUSH2 0x2F5D PUSH1 0x20 DUP6 ADD DUP3 PUSH2 0x28B6 JUMP JUMPDEST POP POP POP POP JUMP JUMPDEST PUSH1 0x0 PUSH1 0x40 DUP3 ADD SWAP1 POP PUSH2 0x2F78 PUSH1 0x0 DUP4 ADD DUP5 PUSH2 0x2F34 JUMP JUMPDEST SWAP3 SWAP2 POP POP JUMP JUMPDEST PUSH1 0x0 DUP1 PUSH1 0x0 PUSH1 0x60 DUP5 DUP7 SUB SLT ISZERO PUSH2 0x2F97 JUMPI PUSH2 0x2F96 PUSH2 0x281D JUMP JUMPDEST JUMPDEST PUSH1 0x0 PUSH2 0x2FA5 DUP7 DUP3 DUP8 ADD PUSH2 0x2848 JUMP JUMPDEST SWAP4 POP POP PUSH1 0x20 PUSH2 0x2FB6 DUP7 DUP3 DUP8 ADD PUSH2 0x2BEC JUMP JUMPDEST SWAP3 POP POP PUSH1 0x40 PUSH2 0x2FC7 DUP7 DUP3 DUP8 ADD PUSH2 0x2D05 JUMP JUMPDEST SWAP2 POP POP SWAP3 POP SWAP3 POP SWAP3 JUMP JUMPDEST PUSH2 0x2FDA DUP2 PUSH2 0x2DB4 JUMP JUMPDEST DUP2 EQ PUSH2 0x2FE5 JUMPI PUSH1 0x0 DUP1 REVERT JUMPDEST POP JUMP JUMPDEST PUSH1 0x0 DUP2 CALLDATALOAD SWAP1 POP PUSH2 0x2FF7 DUP2 PUSH2 0x2FD1 JUMP JUMPDEST SWAP3 SWAP2 POP POP JUMP JUMPDEST PUSH1 0x0 DUP1 REVERT JUMPDEST PUSH1 0x0 DUP1 DUP4 PUSH1 0x1F DUP5 ADD SLT PUSH2 0x3018 JUMPI PUSH2 0x3017 PUSH2 0x2999 JUMP JUMPDEST JUMPDEST DUP3 CALLDATALOAD SWAP1 POP PUSH8 0xFFFFFFFFFFFFFFFF DUP2 GT ISZERO PUSH2 0x3035 JUMPI PUSH2 0x3034 PUSH2 0x2FFD JUMP JUMPDEST JUMPDEST PUSH1 0x20 DUP4 ADD SWAP2 POP DUP4 PUSH1 0x1 DUP3 MUL DUP4 ADD GT ISZERO PUSH2 0x3051 JUMPI PUSH2 0x3050 PUSH2 0x2A56 JUMP JUMPDEST JUMPDEST SWAP3 POP SWAP3 SWAP1 POP JUMP JUMPDEST PUSH1 0x0 DUP1 PUSH1 0x0 DUP1 PUSH1 0x0 DUP1 PUSH1 0x0 DUP1 PUSH1 0x0 PUSH2 0x100 DUP11 DUP13 SUB SLT ISZERO PUSH2 0x307B JUMPI PUSH2 0x307A PUSH2 0x281D JUMP JUMPDEST JUMPDEST PUSH1 0x0 PUSH2 0x3089 DUP13 DUP3 DUP14 ADD PUSH2 0x2BEC JUMP JUMPDEST SWAP10 POP POP PUSH1 0x20 PUSH2 0x309A DUP13 DUP3 DUP14 ADD PUSH2 0x2D05 JUMP JUMPDEST SWAP9 POP POP PUSH1 0x40 PUSH2 0x30AB DUP13 DUP3 DUP14 ADD PUSH2 0x2848 JUMP JUMPDEST SWAP8 POP POP PUSH1 0x60 PUSH2 0x30BC DUP13 DUP3 DUP14 ADD PUSH2 0x2FE8 JUMP JUMPDEST SWAP7 POP POP PUSH1 0x80 PUSH2 0x30CD DUP13 DUP3 DUP14 ADD PUSH2 0x2BEC JUMP JUMPDEST SWAP6 POP POP PUSH1 0xA0 PUSH2 0x30DE DUP13 DUP3 DUP14 ADD PUSH2 0x2D05 JUMP JUMPDEST SWAP5 POP POP PUSH1 0xC0 PUSH2 0x30EF DUP13 DUP3 DUP14 ADD PUSH2 0x2BEC JUMP JUMPDEST SWAP4 POP POP PUSH1 0xE0 DUP11 ADD CALLDATALOAD PUSH8 0xFFFFFFFFFFFFFFFF DUP2 GT ISZERO PUSH2 0x3110 JUMPI PUSH2 0x310F PUSH2 0x2822 JUMP JUMPDEST JUMPDEST PUSH2 0x311C DUP13 DUP3 DUP14 ADD PUSH2 0x3002 JUMP JUMPDEST SWAP3 POP SWAP3 POP POP SWAP3 SWAP6 SWAP9 POP SWAP3 SWAP6 SWAP9 POP SWAP3 SWAP6 SWAP9 JUMP JUMPDEST PUSH2 0x3137 DUP2 PUSH2 0x2827 JUMP JUMPDEST DUP3 MSTORE POP POP JUMP JUMPDEST PUSH1 0x0 PUSH1 0x20 DUP3 ADD SWAP1 POP PUSH2 0x3152 PUSH1 0x0 DUP4 ADD DUP5 PUSH2 0x312E JUMP JUMPDEST SWAP3 SWAP2 POP POP JUMP JUMPDEST PUSH1 0x0 DUP1 PUSH1 0x0 DUP1 PUSH1 0x80 DUP6 DUP8 SUB SLT ISZERO PUSH2 0x3172 JUMPI PUSH2 0x3171 PUSH2 0x281D JUMP JUMPDEST JUMPDEST PUSH1 0x0 PUSH2 0x3180 DUP8 DUP3 DUP9 ADD PUSH2 0x2848 JUMP JUMPDEST SWAP5 POP POP PUSH1 0x20 PUSH2 0x3191 DUP8 DUP3 DUP9 ADD PUSH2 0x2848 JUMP JUMPDEST SWAP4 POP POP PUSH1 0x40 PUSH2 0x31A2 DUP8 DUP3 DUP9 ADD PUSH2 0x2BEC JUMP JUMPDEST SWAP3 POP POP PUSH1 0x60 PUSH2 0x31B3 DUP8 DUP3 DUP9 ADD PUSH2 0x2C6C JUMP JUMPDEST SWAP2 POP POP SWAP3 SWAP6 SWAP2 SWAP5 POP SWAP3 POP JUMP JUMPDEST PUSH32 0x4E487B7100000000000000000000000000000000000000000000000000000000 PUSH1 0x0 MSTORE PUSH1 0x32 PUSH1 0x4 MSTORE PUSH1 0x24 PUSH1 0x0 REVERT JUMPDEST PUSH1 0x0 DUP2 SLOAD SWAP1 POP SWAP2 SWAP1 POP JUMP JUMPDEST PUSH1 0x0 DUP2 SWAP1 POP DUP2 PUSH1 0x0 MSTORE PUSH1 0x20 PUSH1 0x0 KECCAK256 SWAP1 POP SWAP2 SWAP1 POP JUMP JUMPDEST PUSH1 0x0 DUP2 PUSH1 0x0 SHR SWAP1 POP SWAP2 SWAP1 POP JUMP JUMPDEST PUSH1 0x0 DUP2 SWAP1 POP SWAP2 SWAP1 POP JUMP JUMPDEST PUSH1 0x0 PUSH2 0x3238 PUSH2 0x3233 DUP4 PUSH2 0x320E JUMP JUMPDEST PUSH2 0x321B JUMP JUMPDEST SWAP1 POP SWAP2 SWAP1 POP JUMP JUMPDEST PUSH1 0x40 DUP3 ADD PUSH1 0x0 DUP1 DUP4 ADD SLOAD SWAP1 POP PUSH2 0x3254 DUP2 PUSH2 0x3225 JUMP JUMPDEST PUSH2 0x3261 PUSH1 0x0 DUP7 ADD DUP3 PUSH2 0x28B6 JUMP JUMPDEST POP PUSH1 0x1 DUP4 ADD SLOAD SWAP1 POP PUSH2 0x3272 DUP2 PUSH2 0x3225 JUMP JUMPDEST PUSH2 0x327F PUSH1 0x20 DUP7 ADD DUP3 PUSH2 0x28B6 JUMP JUMPDEST POP POP POP POP POP JUMP JUMPDEST PUSH1 0x0 PUSH2 0x3292 DUP4 DUP4 PUSH2 0x323F JUMP JUMPDEST PUSH1 0x40 DUP4 ADD SWAP1 POP SWAP3 SWAP2 POP POP JUMP JUMPDEST PUSH1 0x0 PUSH1 0x2 DUP3 ADD SWAP1 POP SWAP2 SWAP1 POP JUMP JUMPDEST PUSH1 0x0 PUSH2 0x32B6 DUP3 PUSH2 0x31EE JUMP JUMPDEST PUSH2 0x32C0 DUP2 DUP6 PUSH2 0x2895 JUMP JUMPDEST SWAP4 POP PUSH2 0x32CB DUP4 PUSH2 0x31F9 JUMP JUMPDEST DUP1 PUSH1 0x0 JUMPDEST DUP4 DUP2 LT ISZERO PUSH2 0x32FB JUMPI DUP2 PUSH2 0x32E2 DUP9 DUP3 PUSH2 0x3286 JUMP JUMPDEST SWAP8 POP PUSH2 0x32ED DUP4 PUSH2 0x329E JUMP JUMPDEST SWAP3 POP POP PUSH1 0x1 DUP2 ADD SWAP1 POP PUSH2 0x32CF JUMP JUMPDEST POP DUP6 SWAP4 POP POP POP POP SWAP3 SWAP2 POP POP JUMP JUMPDEST PUSH1 0x0 PUSH1 0x20 DUP3 ADD SWAP1 POP DUP2 DUP2 SUB PUSH1 0x0 DUP4 ADD MSTORE PUSH2 0x3322 DUP2 DUP5 PUSH2 0x32AB JUMP JUMPDEST SWAP1 POP SWAP3 SWAP2 POP POP JUMP JUMPDEST PUSH1 0x0 DUP3 DUP3 MSTORE PUSH1 0x20 DUP3 ADD SWAP1 POP SWAP3 SWAP2 POP POP JUMP JUMPDEST PUSH32 0x476174657761793A207A65726F20616464726573730000000000000000000000 PUSH1 0x0 DUP3 ADD MSTORE POP JUMP JUMPDEST PUSH1 0x0 PUSH2 0x3371 PUSH1 0x15 DUP4 PUSH2 0x332A JUMP JUMPDEST SWAP2 POP PUSH2 0x337C DUP3 PUSH2 0x333B JUMP JUMPDEST PUSH1 0x20 DUP3 ADD SWAP1 POP SWAP2 SWAP1 POP JUMP JUMPDEST PUSH1 0x0 PUSH1 0x20 DUP3 ADD SWAP1 POP DUP2 DUP2 SUB PUSH1 0x0 DUP4 ADD MSTORE PUSH2 0x33A0 DUP2 PUSH2 0x3364 JUMP JUMPDEST SWAP1 POP SWAP2 SWAP1 POP JUMP JUMPDEST PUSH32 0x476174657761793A207472656173757279206164647265737320616C72656164 PUSH1 0x0 DUP3 ADD MSTORE PUSH32 0x7920736574000000000000000000000000000000000000000000000000000000 PUSH1 0x20 DUP3 ADD MSTORE POP JUMP JUMPDEST PUSH1 0x0 PUSH2 0x3403 PUSH1 0x25 DUP4 PUSH2 0x332A JUMP JUMPDEST SWAP2 POP PUSH2 0x340E DUP3 PUSH2 0x33A7 JUMP JUMPDEST PUSH1 0x40 DUP3 ADD SWAP1 POP SWAP2 SWAP1 POP JUMP JUMPDEST PUSH1 0x0 PUSH1 0x20 DUP3 ADD SWAP1 POP DUP2 DUP2 SUB PUSH1 0x0 DUP4 ADD MSTORE PUSH2 0x3432 DUP2 PUSH2 0x33F6 JUMP JUMPDEST SWAP1 POP SWAP2 SWAP1 POP JUMP JUMPDEST PUSH32 0x476174657761793A2061676772656761746F72206164647265737320616C7265 PUSH1 0x0 DUP3 ADD MSTORE PUSH32 0x6164792073657400000000000000000000000000000000000000000000000000 PUSH1 0x20 DUP3 ADD MSTORE POP JUMP JUMPDEST PUSH1 0x0 PUSH2 0x3495 PUSH1 0x27 DUP4 PUSH2 0x332A JUMP JUMPDEST SWAP2 POP PUSH2 0x34A0 DUP3 PUSH2 0x3439 JUMP JUMPDEST PUSH1 0x40 DUP3 ADD SWAP1 POP SWAP2 SWAP1 POP JUMP JUMPDEST PUSH1 0x0 PUSH1 0x20 DUP3 ADD SWAP1 POP DUP2 DUP2 SUB PUSH1 0x0 DUP4 ADD MSTORE PUSH2 0x34C4 DUP2 PUSH2 0x3488 JUMP JUMPDEST SWAP1 POP SWAP2 SWAP1 POP JUMP JUMPDEST PUSH1 0x0 PUSH1 0x20 DUP3 ADD SWAP1 POP PUSH2 0x34E0 PUSH1 0x0 DUP4 ADD DUP5 PUSH2 0x2EED JUMP JUMPDEST SWAP3 SWAP2 POP POP JUMP JUMPDEST PUSH32 0x4F6E6C7941676772656761746F72000000000000000000000000000000000000 PUSH1 0x0 DUP3 ADD MSTORE POP JUMP JUMPDEST PUSH1 0x0 PUSH2 0x351C PUSH1 0xE DUP4 PUSH2 0x332A JUMP JUMPDEST SWAP2 POP PUSH2 0x3527 DUP3 PUSH2 0x34E6 JUMP JUMPDEST PUSH1 0x20 DUP3 ADD SWAP1 POP SWAP2 SWAP1 POP JUMP JUMPDEST PUSH1 0x0 PUSH1 0x20 DUP3 ADD SWAP1 POP DUP2 DUP2 SUB PUSH1 0x0 DUP4 ADD MSTORE PUSH2 0x354B DUP2 PUSH2 0x350F JUMP JUMPDEST SWAP1 POP SWAP2 SWAP1 POP JUMP JUMPDEST PUSH32 0x4F7264657246756C66696C6C6564000000000000000000000000000000000000 PUSH1 0x0 DUP3 ADD MSTORE POP JUMP JUMPDEST PUSH1 0x0 PUSH2 0x3588 PUSH1 0xE DUP4 PUSH2 0x332A JUMP JUMPDEST SWAP2 POP PUSH2 0x3593 DUP3 PUSH2 0x3552 JUMP JUMPDEST PUSH1 0x20 DUP3 ADD SWAP1 POP SWAP2 SWAP1 POP JUMP JUMPDEST PUSH1 0x0 PUSH1 0x20 DUP3 ADD SWAP1 POP DUP2 DUP2 SUB PUSH1 0x0 DUP4 ADD MSTORE PUSH2 0x35B7 DUP2 PUSH2 0x357B JUMP JUMPDEST SWAP1 POP SWAP2 SWAP1 POP JUMP JUMPDEST PUSH32 0x4F72646572526566756E64656400000000000000000000000000000000000000 PUSH1 0x0 DUP3 ADD MSTORE POP JUMP JUMPDEST PUSH1 0x0 PUSH2 0x35F4 PUSH1 0xD DUP4 PUSH2 0x332A JUMP JUMPDEST SWAP2 POP PUSH2 0x35FF DUP3 PUSH2 0x35BE JUMP JUMPDEST PUSH1 0x20 DUP3 ADD SWAP1 POP SWAP2 SWAP1 POP JUMP JUMPDEST PUSH1 0x0 PUSH1 0x20 DUP3 ADD SWAP1 POP DUP2 DUP2 SUB PUSH1 0x0 DUP4 ADD MSTORE PUSH2 0x3623 DUP2 PUSH2 0x35E7 JUMP JUMPDEST SWAP1 POP SWAP2 SWAP1 POP JUMP JUMPDEST PUSH32 0x4665654578636565647350726F746F636F6C4665650000000000000000000000 PUSH1 0x0 DUP3 ADD MSTORE POP JUMP JUMPDEST PUSH1 0x0 PUSH2 0x3660 PUSH1 0x15 DUP4 PUSH2 0x332A JUMP JUMPDEST SWAP2 POP PUSH2 0x366B DUP3 PUSH2 0x362A JUMP JUMPDEST PUSH1 0x20 DUP3 ADD SWAP1 POP SWAP2 SWAP1 POP JUMP JUMPDEST PUSH1 0x0 PUSH1 0x20 DUP3 ADD SWAP1 POP DUP2 DUP2 SUB PUSH1 0x0 DUP4 ADD MSTORE PUSH2 0x368F DUP2 PUSH2 0x3653 JUMP JUMPDEST SWAP1 POP SWAP2 SWAP1 POP JUMP JUMPDEST PUSH1 0x0 PUSH1 0x40 DUP3 ADD SWAP1 POP PUSH2 0x36AB PUSH1 0x0 DUP4 ADD DUP6 PUSH2 0x2EC3 JUMP JUMPDEST PUSH2 0x36B8 PUSH1 0x20 DUP4 ADD DUP5 PUSH2 0x2EFC JUMP JUMPDEST SWAP4 SWAP3 POP POP POP JUMP JUMPDEST PUSH2 0x36C8 DUP2 PUSH2 0x2CAE JUMP JUMPDEST DUP2 EQ PUSH2 0x36D3 JUMPI PUSH1 0x0 DUP1 REVERT JUMPDEST POP JUMP JUMPDEST PUSH1 0x0 DUP2 MLOAD SWAP1 POP PUSH2 0x36E5 DUP2 PUSH2 0x36BF JUMP JUMPDEST SWAP3 SWAP2 POP POP JUMP JUMPDEST PUSH1 0x0 PUSH1 0x20 DUP3 DUP5 SUB SLT ISZERO PUSH2 0x3701 JUMPI PUSH2 0x3700 PUSH2 0x281D JUMP JUMPDEST JUMPDEST PUSH1 0x0 PUSH2 0x370F DUP5 DUP3 DUP6 ADD PUSH2 0x36D6 JUMP JUMPDEST SWAP2 POP POP SWAP3 SWAP2 POP POP JUMP JUMPDEST PUSH32 0x4E487B7100000000000000000000000000000000000000000000000000000000 PUSH1 0x0 MSTORE PUSH1 0x11 PUSH1 0x4 MSTORE PUSH1 0x24 PUSH1 0x0 REVERT JUMPDEST PUSH1 0x0 PUSH2 0x3752 DUP3 PUSH2 0x2CE4 JUMP JUMPDEST SWAP2 POP PUSH2 0x375D DUP4 PUSH2 0x2CE4 JUMP JUMPDEST SWAP3 POP DUP3 DUP3 ADD SWAP1 POP DUP1 DUP3 GT ISZERO PUSH2 0x3775 JUMPI PUSH2 0x3774 PUSH2 0x3718 JUMP JUMPDEST JUMPDEST SWAP3 SWAP2 POP POP JUMP JUMPDEST PUSH1 0x0 PUSH2 0x3786 DUP3 PUSH2 0x2CE4 JUMP JUMPDEST SWAP2 POP PUSH2 0x3791 DUP4 PUSH2 0x2CE4 JUMP JUMPDEST SWAP3 POP DUP3 DUP3 SUB SWAP1 POP DUP2 DUP2 GT ISZERO PUSH2 0x37A9 JUMPI PUSH2 0x37A8 PUSH2 0x3718 JUMP JUMPDEST JUMPDEST SWAP3 SWAP2 POP POP JUMP JUMPDEST PUSH1 0x0 PUSH1 0x20 DUP3 ADD SWAP1 POP PUSH2 0x37C4 PUSH1 0x0 DUP4 ADD DUP5 PUSH2 0x2EFC JUMP JUMPDEST SWAP3 SWAP2 POP POP JUMP JUMPDEST PUSH32 0x4F776E61626C6532537465703A2063616C6C6572206973206E6F742074686520 PUSH1 0x0 DUP3 ADD MSTORE PUSH32 0x6E6577206F776E65720000000000000000000000000000000000000000000000 PUSH1 0x20 DUP3 ADD MSTORE POP JUMP JUMPDEST PUSH1 0x0 PUSH2 0x3826 PUSH1 0x29 DUP4 PUSH2 0x332A JUMP JUMPDEST SWAP2 POP PUSH2 0x3831 DUP3 PUSH2 0x37CA JUMP JUMPDEST PUSH1 0x40 DUP3 ADD SWAP1 POP SWAP2 SWAP1 POP JUMP JUMPDEST PUSH1 0x0 PUSH1 0x20 DUP3 ADD SWAP1 POP DUP2 DUP2 SUB PUSH1 0x0 DUP4 ADD MSTORE PUSH2 0x3855 DUP2 PUSH2 0x3819 JUMP JUMPDEST SWAP1 POP SWAP2 SWAP1 POP JUMP JUMPDEST PUSH32 0x496E697469616C697A61626C653A20636F6E747261637420697320616C726561 PUSH1 0x0 DUP3 ADD MSTORE PUSH32 0x647920696E697469616C697A6564000000000000000000000000000000000000 PUSH1 0x20 DUP3 ADD MSTORE POP JUMP JUMPDEST PUSH1 0x0 PUSH2 0x38B8 PUSH1 0x2E DUP4 PUSH2 0x332A JUMP JUMPDEST SWAP2 POP PUSH2 0x38C3 DUP3 PUSH2 0x385C JUMP JUMPDEST PUSH1 0x40 DUP3 ADD SWAP1 POP SWAP2 SWAP1 POP JUMP JUMPDEST PUSH1 0x0 PUSH1 0x20 DUP3 ADD SWAP1 POP DUP2 DUP2 SUB PUSH1 0x0 DUP4 ADD MSTORE PUSH2 0x38E7 DUP2 PUSH2 0x38AB JUMP JUMPDEST SWAP1 POP SWAP2 SWAP1 POP JUMP JUMPDEST PUSH1 0x0 DUP2 SWAP1 POP SWAP2 SWAP1 POP JUMP JUMPDEST PUSH1 0x0 PUSH1 0xFF DUP3 AND SWAP1 POP SWAP2 SWAP1 POP JUMP JUMPDEST PUSH1 0x0 DUP2 SWAP1 POP SWAP2 SWAP1 POP JUMP JUMPDEST PUSH1 0x0 PUSH2 0x392A PUSH2 0x3925 PUSH2 0x3920 DUP5 PUSH2 0x38EE JUMP JUMPDEST PUSH2 0x3905 JUMP JUMPDEST PUSH2 0x38F8 JUMP JUMPDEST SWAP1 POP SWAP2 SWAP1 POP JUMP JUMPDEST PUSH2 0x393A DUP2 PUSH2 0x390F JUMP JUMPDEST DUP3 MSTORE POP POP JUMP JUMPDEST PUSH1 0x0 PUSH1 0x20 DUP3 ADD SWAP1 POP PUSH2 0x3955 PUSH1 0x0 DUP4 ADD DUP5 PUSH2 0x3931 JUMP JUMPDEST SWAP3 SWAP2 POP POP JUMP JUMPDEST PUSH32 0x476174657761793A20696E76616C696420737461747573000000000000000000 PUSH1 0x0 DUP3 ADD MSTORE POP JUMP JUMPDEST PUSH1 0x0 PUSH2 0x3991 PUSH1 0x17 DUP4 PUSH2 0x332A JUMP JUMPDEST SWAP2 POP PUSH2 0x399C DUP3 PUSH2 0x395B JUMP JUMPDEST PUSH1 0x20 DUP3 ADD SWAP1 POP SWAP2 SWAP1 POP JUMP JUMPDEST PUSH1 0x0 PUSH1 0x20 DUP3 ADD SWAP1 POP DUP2 DUP2 SUB PUSH1 0x0 DUP4 ADD MSTORE PUSH2 0x39C0 DUP2 PUSH2 0x3984 JUMP JUMPDEST SWAP1 POP SWAP2 SWAP1 POP JUMP JUMPDEST PUSH32 0x496E76616C69644D657373616765486173680000000000000000000000000000 PUSH1 0x0 DUP3 ADD MSTORE POP JUMP JUMPDEST PUSH1 0x0 PUSH2 0x39FD PUSH1 0x12 DUP4 PUSH2 0x332A JUMP JUMPDEST SWAP2 POP PUSH2 0x3A08 DUP3 PUSH2 0x39C7 JUMP JUMPDEST PUSH1 0x20 DUP3 ADD SWAP1 POP SWAP2 SWAP1 POP JUMP JUMPDEST PUSH1 0x0 PUSH1 0x20 DUP3 ADD SWAP1 POP DUP2 DUP2 SUB PUSH1 0x0 DUP4 ADD MSTORE PUSH2 0x3A2C DUP2 PUSH2 0x39F0 JUMP JUMPDEST SWAP1 POP SWAP2 SWAP1 POP JUMP JUMPDEST PUSH1 0x0 PUSH1 0x60 DUP3 ADD SWAP1 POP PUSH2 0x3A48 PUSH1 0x0 DUP4 ADD DUP7 PUSH2 0x2EC3 JUMP JUMPDEST PUSH2 0x3A55 PUSH1 0x20 DUP4 ADD DUP6 PUSH2 0x2EC3 JUMP JUMPDEST PUSH2 0x3A62 PUSH1 0x40 DUP4 ADD DUP5 PUSH2 0x2EFC JUMP JUMPDEST SWAP5 SWAP4 POP POP POP POP JUMP JUMPDEST PUSH1 0x0 PUSH2 0x3A75 DUP3 PUSH2 0x2CE4 JUMP JUMPDEST SWAP2 POP PUSH32 0xFFFFFFFFFFFFFFFFFFFFFFFFFFFFFFFFFFFFFFFFFFFFFFFFFFFFFFFFFFFFFFFF DUP3 SUB PUSH2 0x3AA7 JUMPI PUSH2 0x3AA6 PUSH2 0x3718 JUMP JUMPDEST JUMPDEST PUSH1 0x1 DUP3 ADD SWAP1 POP SWAP2 SWAP1 POP JUMP JUMPDEST PUSH1 0x0 PUSH2 0x3ABD DUP3 PUSH2 0x2CE4 JUMP JUMPDEST SWAP2 POP PUSH2 0x3AC8 DUP4 PUSH2 0x2CE4 JUMP JUMPDEST SWAP3 POP DUP3 DUP3 MUL PUSH2 0x3AD6 DUP2 PUSH2 0x2CE4 JUMP JUMPDEST SWAP2 POP DUP3 DUP3 DIV DUP5 EQ DUP4 ISZERO OR PUSH2 0x3AED JUMPI PUSH2 0x3AEC PUSH2 0x3718 JUMP JUMPDEST JUMPDEST POP SWAP3 SWAP2 POP POP JUMP JUMPDEST PUSH32 0x4E487B7100000000000000000000000000000000000000000000000000000000 PUSH1 0x0 MSTORE PUSH1 0x12 PUSH1 0x4 MSTORE PUSH1 0x24 PUSH1 0x0 REVERT JUMPDEST PUSH1 0x0 PUSH2 0x3B2E DUP3 PUSH2 0x2CE4 JUMP JUMPDEST SWAP2 POP PUSH2 0x3B39 DUP4 PUSH2 0x2CE4 JUMP JUMPDEST SWAP3 POP DUP3 PUSH2 0x3B49 JUMPI PUSH2 0x3B48 PUSH2 0x3AF4 JUMP JUMPDEST JUMPDEST DUP3 DUP3 DIV SWAP1 POP SWAP3 SWAP2 POP POP JUMP JUMPDEST PUSH1 0x0 PUSH2 0x3B6F PUSH2 0x3B6A PUSH2 0x3B65 DUP5 PUSH2 0x2DB4 JUMP JUMPDEST PUSH2 0x3905 JUMP JUMPDEST PUSH2 0x2CE4 JUMP JUMPDEST SWAP1 POP SWAP2 SWAP1 POP JUMP JUMPDEST PUSH2 0x3B7F DUP2 PUSH2 0x3B54 JUMP JUMPDEST DUP3 MSTORE POP POP JUMP JUMPDEST DUP3 DUP2 DUP4 CALLDATACOPY PUSH1 0x0 DUP4 DUP4 ADD MSTORE POP POP POP JUMP JUMPDEST PUSH1 0x0 PUSH2 0x3BA0 DUP4 DUP6 PUSH2 0x332A JUMP JUMPDEST SWAP4 POP PUSH2 0x3BAD DUP4 DUP6 DUP5 PUSH2 0x3B85 JUMP JUMPDEST PUSH2 0x3BB6 DUP4 PUSH2 0x299E JUMP JUMPDEST DUP5 ADD SWAP1 POP SWAP4 SWAP3 POP POP POP JUMP JUMPDEST PUSH1 0x0 PUSH1 0xA0 DUP3 ADD SWAP1 POP PUSH2 0x3BD6 PUSH1 0x0 DUP4 ADD DUP10 PUSH2 0x2EFC JUMP JUMPDEST PUSH2 0x3BE3 PUSH1 0x20 DUP4 ADD DUP9 PUSH2 0x312E JUMP JUMPDEST PUSH2 0x3BF0 PUSH1 0x40 DUP4 ADD DUP8 PUSH2 0x3B76 JUMP JUMPDEST PUSH2 0x3BFD PUSH1 0x60 DUP4 ADD DUP7 PUSH2 0x312E JUMP JUMPDEST DUP2 DUP2 SUB PUSH1 0x80 DUP4 ADD MSTORE PUSH2 0x3C10 DUP2 DUP5 DUP7 PUSH2 0x3B94 JUMP JUMPDEST SWAP1 POP SWAP8 SWAP7 POP POP POP POP POP POP POP JUMP JUMPDEST PUSH1 0x0 PUSH2 0x3C28 DUP3 PUSH2 0x2DB4 JUMP JUMPDEST SWAP2 POP PUSH2 0x3C33 DUP4 PUSH2 0x2DB4 JUMP JUMPDEST SWAP3 POP DUP3 DUP3 SUB SWAP1 POP PUSH12 0xFFFFFFFFFFFFFFFFFFFFFFFF DUP2 GT ISZERO PUSH2 0x3C57 JUMPI PUSH2 0x3C56 PUSH2 0x3718 JUMP JUMPDEST JUMPDEST SWAP3 SWAP2 POP POP JUMP JUMPDEST PUSH1 0x0 PUSH2 0x3C78 PUSH2 0x3C73 PUSH2 0x3C6E DUP5 PUSH2 0x2C41 JUMP JUMPDEST PUSH2 0x3905 JUMP JUMPDEST PUSH2 0x2DB4 JUMP JUMPDEST SWAP1 POP SWAP2 SWAP1 POP JUMP JUMPDEST PUSH2 0x3C88 DUP2 PUSH2 0x3C5D JUMP JUMPDEST DUP3 MSTORE POP POP JUMP JUMPDEST PUSH1 0x0 PUSH1 0x40 DUP3 ADD SWAP1 POP PUSH2 0x3CA3 PUSH1 0x0 DUP4 ADD DUP6 PUSH2 0x312E JUMP JUMPDEST PUSH2 0x3CB0 PUSH1 0x20 DUP4 ADD DUP5 PUSH2 0x3C7F JUMP JUMPDEST SWAP4 SWAP3 POP POP POP JUMP JUMPDEST PUSH32 0x4F776E61626C653A2063616C6C6572206973206E6F7420746865206F776E6572 PUSH1 0x0 DUP3 ADD MSTORE POP JUMP JUMPDEST PUSH1 0x0 PUSH2 0x3CED PUSH1 0x20 DUP4 PUSH2 0x332A JUMP JUMPDEST SWAP2 POP PUSH2 0x3CF8 DUP3 PUSH2 0x3CB7 JUMP JUMPDEST PUSH1 0x20 DUP3 ADD SWAP1 POP SWAP2 SWAP1 POP JUMP JUMPDEST PUSH1 0x0 PUSH1 0x20 DUP3 ADD SWAP1 POP DUP2 DUP2 SUB PUSH1 0x0 DUP4 ADD MSTORE PUSH2 0x3D1C DUP2 PUSH2 0x3CE0 JUMP JUMPDEST SWAP1 POP SWAP2 SWAP1 POP JUMP JUMPDEST PUSH32 0x496E697469616C697A61626C653A20636F6E7472616374206973206E6F742069 PUSH1 0x0 DUP3 ADD MSTORE PUSH32 0x6E697469616C697A696E67000000000000000000000000000000000000000000 PUSH1 0x20 DUP3 ADD MSTORE POP JUMP JUMPDEST PUSH1 0x0 PUSH2 0x3D7F PUSH1 0x2B DUP4 PUSH2 0x332A JUMP JUMPDEST SWAP2 POP PUSH2 0x3D8A DUP3 PUSH2 0x3D23 JUMP JUMPDEST PUSH1 0x40 DUP3 ADD SWAP1 POP SWAP2 SWAP1 POP JUMP JUMPDEST PUSH1 0x0 PUSH1 0x20 DUP3 ADD SWAP1 POP DUP2 DUP2 SUB PUSH1 0x0 DUP4 ADD MSTORE PUSH2 0x3DAE DUP2 PUSH2 0x3D72 JUMP JUMPDEST SWAP1 POP SWAP2 SWAP1 POP JUMP JUMPDEST PUSH32 0x5061757361626C653A2070617573656400000000000000000000000000000000 PUSH1 0x0 DUP3 ADD MSTORE POP JUMP JUMPDEST PUSH1 0x0 PUSH2 0x3DEB PUSH1 0x10 DUP4 PUSH2 0x332A JUMP JUMPDEST SWAP2 POP PUSH2 0x3DF6 DUP3 PUSH2 0x3DB5 JUMP JUMPDEST PUSH1 0x20 DUP3 ADD SWAP1 POP SWAP2 SWAP1 POP JUMP JUMPDEST PUSH1 0x0 PUSH1 0x20 DUP3 ADD SWAP1 POP DUP2 DUP2 SUB PUSH1 0x0 DUP4 ADD MSTORE PUSH2 0x3E1A DUP2 PUSH2 0x3DDE JUMP JUMPDEST SWAP1 POP SWAP2 SWAP1 POP JUMP JUMPDEST PUSH32 0x546F6B656E4E6F74537570706F72746564000000000000000000000000000000 PUSH1 0x0 DUP3 ADD MSTORE POP JUMP JUMPDEST PUSH1 0x0 PUSH2 0x3E57 PUSH1 0x11 DUP4 PUSH2 0x332A JUMP JUMPDEST SWAP2 POP PUSH2 0x3E62 DUP3 PUSH2 0x3E21 JUMP JUMPDEST PUSH1 0x20 DUP3 ADD SWAP1 POP SWAP2 SWAP1 POP JUMP JUMPDEST PUSH1 0x0 PUSH1 0x20 DUP3 ADD SWAP1 POP DUP2 DUP2 SUB PUSH1 0x0 DUP4 ADD MSTORE PUSH2 0x3E86 DUP2 PUSH2 0x3E4A JUMP JUMPDEST SWAP1 POP SWAP2 SWAP1 POP JUMP JUMPDEST PUSH32 0x416D6F756E7449735A65726F0000000000000000000000000000000000000000 PUSH1 0x0 DUP3 ADD MSTORE POP JUMP JUMPDEST PUSH1 0x0 PUSH2 0x3EC3 PUSH1 0xC DUP4 PUSH2 0x332A JUMP JUMPDEST SWAP2 POP PUSH2 0x3ECE DUP3 PUSH2 0x3E8D JUMP JUMPDEST PUSH1 0x20 DUP3 ADD SWAP1 POP SWAP2 SWAP1 POP JUMP JUMPDEST PUSH1 0x0 PUSH1 0x20 DUP3 ADD SWAP1 POP DUP2 DUP2 SUB PUSH1 0x0 DUP4 ADD MSTORE PUSH2 0x3EF2 DUP2 PUSH2 0x3EB6 JUMP JUMPDEST SWAP1 POP SWAP2 SWAP1 POP JUMP JUMPDEST PUSH32 0x5468726F775A65726F4164647265737300000000000000000000000000000000 PUSH1 0x0 DUP3 ADD MSTORE POP JUMP JUMPDEST PUSH1 0x0 PUSH2 0x3F2F PUSH1 0x10 DUP4 PUSH2 0x332A JUMP JUMPDEST SWAP2 POP PUSH2 0x3F3A DUP3 PUSH2 0x3EF9 JUMP JUMPDEST PUSH1 0x20 DUP3 ADD SWAP1 POP SWAP2 SWAP1 POP JUMP JUMPDEST PUSH1 0x0 PUSH1 0x20 DUP3 ADD SWAP1 POP DUP2 DUP2 SUB PUSH1 0x0 DUP4 ADD MSTORE PUSH2 0x3F5E DUP2 PUSH2 0x3F22 JUMP JUMPDEST SWAP1 POP SWAP2 SWAP1 POP JUMP JUMPDEST PUSH32 0x496E76616C696453656E646572466565526563697069656E7400000000000000 PUSH1 0x0 DUP3 ADD MSTORE POP JUMP JUMPDEST PUSH1 0x0 PUSH2 0x3F9B PUSH1 0x19 DUP4 PUSH2 0x332A JUMP JUMPDEST SWAP2 POP PUSH2 0x3FA6 DUP3 PUSH2 0x3F65 JUMP JUMPDEST PUSH1 0x20 DUP3 ADD SWAP1 POP SWAP2 SWAP1 POP JUMP JUMPDEST PUSH1 0x0 PUSH1 0x20 DUP3 ADD SWAP1 POP DUP2 DUP2 SUB PUSH1 0x0 DUP4 ADD MSTORE PUSH2 0x3FCA DUP2 PUSH2 0x3F8E JUMP JUMPDEST SWAP1 POP SWAP2 SWAP1 POP JUMP JUMPDEST PUSH32 0x5061757361626C653A206E6F7420706175736564000000000000000000000000 PUSH1 0x0 DUP3 ADD MSTORE POP JUMP JUMPDEST PUSH1 0x0 PUSH2 0x4007 PUSH1 0x14 DUP4 PUSH2 0x332A JUMP JUMPDEST SWAP2 POP PUSH2 0x4012 DUP3 PUSH2 0x3FD1 JUMP JUMPDEST PUSH1 0x20 DUP3 ADD SWAP1 POP SWAP2 SWAP1 POP JUMP JUMPDEST PUSH1 0x0 PUSH1 0x20 DUP3 ADD SWAP1 POP DUP2 DUP2 SUB PUSH1 0x0 DUP4 ADD MSTORE PUSH2 0x4036 DUP2 PUSH2 0x3FFA JUMP JUMPDEST SWAP1 POP SWAP2 SWAP1 POP JUMP INVALID LOG2 PUSH5 0x6970667358 0x22 SLT KECCAK256 PUSH30 0xAB2D8943229EE0FFE5F5E542DA3EA20341C382D0E9DE16603EE6CDBA0D8E DUP16 PUSH5 0x736F6C6343 STOP ADDMOD SLT STOP CALLER "},"gasEstimates":{"creation":{"codeDepositCost":"3299800","executionCost":"infinite","totalCost":"infinite"},"external":{"acceptOwnership()":"54681","createOrder(address,uint256,bytes32,uint96,address,uint256,address,string)":"infinite","getFeeDetails()":"4804","getOrderInfo(bytes32)":"infinite","getSupportedInstitutionByCode(bytes32)":"infinite","getSupportedInstitutions(bytes32)":"infinite","initialize()":"191278","isTokenSupported(address)":"2970","owner()":"2611","pause()":"infinite","paused()":"2502","pendingOwner()":"2610","refund(uint256,bytes32)":"infinite","renounceOwnership()":"54714","setSupportedInstitutions(bytes32,(bytes32,bytes32)[])":"infinite","settingManagerBool(bytes32,address,uint256)":"infinite","settle(bytes32,bytes32,address,uint64)":"infinite","transferOwnership(address)":"infinite","unpause()":"infinite","updateProtocolAddress(bytes32,address)":"31161","updateProtocolFee(uint64)":"infinite"},"internal":{"_handler(address,uint256,address,address,uint256)":"infinite"}},"methodIdentifiers":{"acceptOwnership()":"79ba5097","createOrder(address,uint256,bytes32,uint96,address,uint256,address,string)":"d12ff20a","getFeeDetails()":"b810c636","getOrderInfo(bytes32)":"768c6ec0","getSupportedInstitutionByCode(bytes32)":"c2280103","getSupportedInstitutions(bytes32)":"02621338","initialize()":"8129fc1c","isTokenSupported(address)":"75151b63","owner()":"8da5cb5b","pause()":"8456cb59","paused()":"5c975abb","pendingOwner()":"e30c3978","refund(uint256,bytes32)":"71eedb88","renounceOwnership()":"715018a6","setSupportedInstitutions(bytes32,(bytes32,bytes32)[])":"32200882","settingManagerBool(bytes32,address,uint256)":"cd992400","settle(bytes32,bytes32,address,uint64)":"f22ee704","transferOwnership(address)":"f2fde38b","unpause()":"3f4ba83a","updateProtocolAddress(bytes32,address)":"40ebc677","updateProtocolFee(uint64)":"47094e2e"}},"storageLayout":{"storage":[{"astId":246,"contract":"contracts/Gateway.sol:Gateway","label":"_initialized","offset":0,"slot":"0","type":"t_uint8"},{"astId":249,"contract":"contracts/Gateway.sol:Gateway","label":"_initializing","offset":1,"slot":"0","type":"t_bool"},{"astId":916,"contract":"contracts/Gateway.sol:Gateway","label":"__gap","offset":0,"slot":"1","type":"t_array(t_uint256)50_storage"},{"astId":118,"contract":"contracts/Gateway.sol:Gateway","label":"_owner","offset":0,"slot":"51","type":"t_address"},{"astId":238,"contract":"contracts/Gateway.sol:Gateway","label":"__gap","offset":0,"slot":"52","type":"t_array(t_uint256)49_storage"},{"astId":11,"contract":"contracts/Gateway.sol:Gateway","label":"_pendingOwner","offset":0,"slot":"101","type":"t_address"},{"astId":105,"contract":"contracts/Gateway.sol:Gateway","label":"__gap","offset":0,"slot":"102","type":"t_array(t_uint256)49_storage"},{"astId":2260,"contract":"contracts/Gateway.sol:Gateway","label":"MAX_BPS","offset":0,"slot":"151","type":"t_uint256"},{"astId":2262,"contract":"contracts/Gateway.sol:Gateway","label":"protocolFeePercent","offset":0,"slot":"152","type":"t_uint64"},{"astId":2264,"contract":"contracts/Gateway.sol:Gateway","label":"treasuryAddress","offset":8,"slot":"152","type":"t_address"},{"astId":2266,"contract":"contracts/Gateway.sol:Gateway","label":"_aggregatorAddress","offset":0,"slot":"153","type":"t_address"},{"astId":2270,"contract":"contracts/Gateway.sol:Gateway","label":"__gap","offset":0,"slot":"154","type":"t_array(t_uint256)50_storage"},{"astId":2274,"contract":"contracts/Gateway.sol:Gateway","label":"_isTokenSupported","offset":0,"slot":"204","type":"t_mapping(t_address,t_uint256)"},{"astId":2280,"contract":"contracts/Gateway.sol:Gateway","label":"supportedInstitutions","offset":0,"slot":"205","type":"t_mapping(t_bytes32,t_array(t_struct(Institution)3449_storage)dyn_storage)"},{"astId":2285,"contract":"contracts/Gateway.sol:Gateway","label":"supportedInstitutionsByCode","offset":0,"slot":"206","type":"t_mapping(t_bytes32,t_struct(InstitutionByCode)3454_storage)"},{"astId":430,"contract":"contracts/Gateway.sol:Gateway","label":"_paused","offset":0,"slot":"207","type":"t_bool"},{"astId":535,"contract":"contracts/Gateway.sol:Gateway","label":"__gap","offset":0,"slot":"208","type":"t_array(t_uint256)49_storage"},{"astId":1664,"contract":"contracts/Gateway.sol:Gateway","label":"order","offset":0,"slot":"257","type":"t_mapping(t_bytes32,t_struct(Order)3196_storage)"},{"astId":1668,"contract":"contracts/Gateway.sol:Gateway","label":"_nonce","offset":0,"slot":"258","type":"t_mapping(t_address,t_uint256)"},{"astId":1672,"contract":"contracts/Gateway.sol:Gateway","label":"__gap","offset":0,"slot":"259","type":"t_array(t_uint256)50_storage"}],"types":{"t_address":{"encoding":"inplace","label":"address","numberOfBytes":"20"},"t_array(t_struct(Institution)3449_storage)dyn_storage":{"base":"t_struct(Institution)3449_storage","encoding":"dynamic_array","label":"struct SharedStructs.Institution[]","numberOfBytes":"32"},"t_array(t_uint256)49_storage":{"base":"t_uint256","encoding":"inplace","label":"uint256[49]","numberOfBytes":"1568"},"t_array(t_uint256)50_storage":{"base":"t_uint256","encoding":"inplace","label":"uint256[50]","numberOfBytes":"1600"},"t_bool":{"encoding":"inplace","label":"bool","numberOfBytes":"1"},"t_bytes32":{"encoding":"inplace","label":"bytes32","numberOfBytes":"32"},"t_mapping(t_address,t_uint256)":{"encoding":"mapping","key":"t_address","label":"mapping(address => uint256)","numberOfBytes":"32","value":"t_uint256"},"t_mapping(t_bytes32,t_array(t_struct(Institution)3449_storage)dyn_storage)":{"encoding":"mapping","key":"t_bytes32","label":"mapping(bytes32 => struct SharedStructs.Institution[])","numberOfBytes":"32","value":"t_array(t_struct(Institution)3449_storage)dyn_storage"},"t_mapping(t_bytes32,t_struct(InstitutionByCode)3454_storage)":{"encoding":"mapping","key":"t_bytes32","label":"mapping(bytes32 => struct SharedStructs.InstitutionByCode)","numberOfBytes":"32","value":"t_struct(InstitutionByCode)3454_storage"},"t_mapping(t_bytes32,t_struct(Order)3196_storage)":{"encoding":"mapping","key":"t_bytes32","label":"mapping(bytes32 => struct IGateway.Order)","numberOfBytes":"32","value":"t_struct(Order)3196_storage"},"t_struct(Institution)3449_storage":{"encoding":"inplace","label":"struct SharedStructs.Institution","members":[{"astId":3446,"contract":"contracts/Gateway.sol:Gateway","label":"code","offset":0,"slot":"0","type":"t_bytes32"},{"astId":3448,"contract":"contracts/Gateway.sol:Gateway","label":"name","offset":0,"slot":"1","type":"t_bytes32"}],"numberOfBytes":"64"},"t_struct(InstitutionByCode)3454_storage":{"encoding":"inplace","label":"struct SharedStructs.InstitutionByCode","members":[{"astId":3451,"contract":"contracts/Gateway.sol:Gateway","label":"name","offset":0,"slot":"0","type":"t_bytes32"},{"astId":3453,"contract":"contracts/Gateway.sol:Gateway","label":"currency","offset":0,"slot":"1","type":"t_bytes32"}],"numberOfBytes":"64"},"t_struct(Order)3196_storage":{"encoding":"inplace","label":"struct IGateway.Order","members":[{"astId":3177,"contract":"contracts/Gateway.sol:Gateway","label":"sender","offset":0,"slot":"0","type":"t_address"},{"astId":3179,"contract":"contracts/Gateway.sol:Gateway","label":"token","offset":0,"slot":"1","type":"t_address"},{"astId":3181,"contract":"contracts/Gateway.sol:Gateway","label":"senderFeeRecipient","offset":0,"slot":"2","type":"t_address"},{"astId":3183,"contract":"contracts/Gateway.sol:Gateway","label":"senderFee","offset":0,"slot":"3","type":"t_uint256"},{"astId":3185,"contract":"contracts/Gateway.sol:Gateway","label":"protocolFee","offset":0,"slot":"4","type":"t_uint256"},{"astId":3187,"contract":"contracts/Gateway.sol:Gateway","label":"isFulfilled","offset":0,"slot":"5","type":"t_bool"},{"astId":3189,"contract":"contracts/Gateway.sol:Gateway","label":"isRefunded","offset":1,"slot":"5","type":"t_bool"},{"astId":3191,"contract":"contracts/Gateway.sol:Gateway","label":"refundAddress","offset":2,"slot":"5","type":"t_address"},{"astId":3193,"contract":"contracts/Gateway.sol:Gateway","label":"currentBPS","offset":0,"slot":"6","type":"t_uint96"},{"astId":3195,"contract":"contracts/Gateway.sol:Gateway","label":"amount","offset":0,"slot":"7","type":"t_uint256"}],"numberOfBytes":"256"},"t_uint256":{"encoding":"inplace","label":"uint256","numberOfBytes":"32"},"t_uint64":{"encoding":"inplace","label":"uint64","numberOfBytes":"8"},"t_uint8":{"encoding":"inplace","label":"uint8","numberOfBytes":"1"},"t_uint96":{"encoding":"inplace","label":"uint96","numberOfBytes":"12"}}},"userdoc":{"kind":"user","methods":{},"notice":"This contract serves as a gateway for creating orders and managing settlements.","version":1}}}}