{
  "_format": "hh-sol-artifact-1",
  "contractName": "PaycrestValidator",
  "sourceName": "contracts/PaycrestValidator.sol",
  "abi": [
    {
      "inputs": [],
      "stateMutability": "nonpayable",
      "type": "constructor"
    },
    {
      "anonymous": false,
      "inputs": [
        {
          "indexed": true,
          "internalType": "bool",
          "name": "status",
          "type": "bool"
        }
      ],
      "name": "Initialized",
      "type": "event"
    },
    {
      "anonymous": false,
      "inputs": [
        {
          "indexed": false,
          "internalType": "uint8",
          "name": "version",
          "type": "uint8"
        }
      ],
      "name": "Initialized",
      "type": "event"
    },
    {
      "anonymous": false,
      "inputs": [
        {
          "indexed": true,
          "internalType": "address",
          "name": "token",
          "type": "address"
        },
        {
          "indexed": true,
          "internalType": "uint256",
          "name": "minimumStakeAmount",
          "type": "uint256"
        }
      ],
      "name": "NewTokenSupported",
      "type": "event"
    },
    {
      "anonymous": false,
      "inputs": [
        {
          "indexed": true,
          "internalType": "address",
          "name": "previousOwner",
          "type": "address"
        },
        {
          "indexed": true,
          "internalType": "address",
          "name": "newOwner",
          "type": "address"
        }
      ],
      "name": "OwnershipTransferred",
      "type": "event"
    },
    {
      "anonymous": false,
      "inputs": [
        {
          "indexed": false,
          "internalType": "bytes32",
          "name": "orderId",
          "type": "bytes32"
        },
        {
          "indexed": false,
          "internalType": "address",
          "name": "token",
          "type": "address"
        },
        {
          "indexed": true,
          "internalType": "address",
          "name": "validator",
          "type": "address"
        },
        {
          "indexed": true,
          "internalType": "uint256",
          "name": "validatorsReward",
          "type": "uint256"
        }
      ],
      "name": "RewardValidators",
      "type": "event"
    },
    {
      "anonymous": false,
      "inputs": [
        {
          "indexed": true,
          "internalType": "address",
          "name": "user",
          "type": "address"
        },
        {
          "indexed": true,
          "internalType": "uint256",
          "name": "amount",
          "type": "uint256"
        }
      ],
      "name": "Staked",
      "type": "event"
    },
    {
      "anonymous": false,
      "inputs": [
        {
          "indexed": true,
          "internalType": "address",
          "name": "user",
          "type": "address"
        },
        {
          "indexed": true,
          "internalType": "uint256",
          "name": "amount",
          "type": "uint256"
        }
      ],
      "name": "Withdrawn",
      "type": "event"
    },
    {
      "inputs": [],
      "name": "getInitializationState",
      "outputs": [
        {
          "internalType": "bool",
          "name": "",
          "type": "bool"
        }
      ],
      "stateMutability": "view",
      "type": "function"
    },
    {
      "inputs": [
        {
          "internalType": "address",
          "name": "token",
          "type": "address"
        }
      ],
      "name": "getMinimumAmountRequiredFor",
      "outputs": [
        {
          "internalType": "uint256",
          "name": "",
          "type": "uint256"
        }
      ],
      "stateMutability": "view",
      "type": "function"
    },
    {
      "inputs": [],
      "name": "getPaycrest",
      "outputs": [
        {
          "internalType": "address",
          "name": "",
          "type": "address"
        }
      ],
      "stateMutability": "view",
      "type": "function"
    },
    {
      "inputs": [
        {
          "internalType": "address",
          "name": "user",
          "type": "address"
        },
        {
          "internalType": "address",
          "name": "token",
          "type": "address"
        }
      ],
      "name": "getValidatorInfo",
      "outputs": [
        {
          "internalType": "uint256",
          "name": "",
          "type": "uint256"
        }
      ],
      "stateMutability": "view",
      "type": "function"
    },
    {
      "inputs": [
        {
          "internalType": "address",
          "name": "_paycrest",
          "type": "address"
        }
      ],
      "name": "initialize",
      "outputs": [],
      "stateMutability": "nonpayable",
      "type": "function"
    },
    {
      "inputs": [
        {
          "internalType": "bool",
          "name": "status",
          "type": "bool"
        }
      ],
      "name": "initialized",
      "outputs": [],
      "stateMutability": "nonpayable",
      "type": "function"
    },
    {
      "inputs": [],
      "name": "owner",
      "outputs": [
        {
          "internalType": "address",
          "name": "",
          "type": "address"
        }
      ],
      "stateMutability": "view",
      "type": "function"
    },
    {
      "inputs": [],
      "name": "renounceOwnership",
      "outputs": [],
      "stateMutability": "nonpayable",
      "type": "function"
    },
    {
      "inputs": [
        {
          "internalType": "address",
          "name": "_token",
          "type": "address"
        },
        {
          "internalType": "uint256",
          "name": "minimumStakeAmount",
          "type": "uint256"
        }
      ],
      "name": "setMinimumAmountForTokens",
      "outputs": [],
      "stateMutability": "nonpayable",
      "type": "function"
    },
    {
      "inputs": [
        {
          "internalType": "address",
          "name": "token",
          "type": "address"
        },
        {
          "internalType": "uint256",
          "name": "amount",
          "type": "uint256"
        }
      ],
      "name": "stake",
      "outputs": [],
      "stateMutability": "nonpayable",
      "type": "function"
    },
    {
      "inputs": [
        {
          "internalType": "address",
          "name": "newOwner",
          "type": "address"
        }
      ],
      "name": "transferOwnership",
      "outputs": [],
      "stateMutability": "nonpayable",
      "type": "function"
    },
    {
      "inputs": [
        {
          "internalType": "uint256",
          "name": "amount",
          "type": "uint256"
        },
        {
          "internalType": "address",
          "name": "token",
          "type": "address"
        },
        {
          "internalType": "address",
          "name": "recipient",
          "type": "address"
        }
      ],
      "name": "withdraw",
      "outputs": [],
      "stateMutability": "nonpayable",
      "type": "function"
    }
  ],
  "bytecode": "0x60806040523480156200001157600080fd5b50620000226200002860201b60201c565b620001d2565b600060019054906101000a900460ff16156200007b576040517f08c379a0000000000000000000000000000000000000000000000000000000008152600401620000729062000175565b60405180910390fd5b60ff801660008054906101000a900460ff1660ff1614620000ec5760ff6000806101000a81548160ff021916908360ff1602179055507f7f26b83ff96e1f2b6a682f133852f6798a09c465da95921460cefb384740249860ff604051620000e39190620001b5565b60405180910390a15b565b600082825260208201905092915050565b7f496e697469616c697a61626c653a20636f6e747261637420697320696e69746960008201527f616c697a696e6700000000000000000000000000000000000000000000000000602082015250565b60006200015d602783620000ee565b91506200016a82620000ff565b604082019050919050565b6000602082019050818103600083015262000190816200014e565b9050919050565b600060ff82169050919050565b620001af8162000197565b82525050565b6000602082019050620001cc6000830184620001a4565b92915050565b6118e780620001e26000396000f3fe608060405234801561001057600080fd5b50600436106100b45760003560e01c8063c4d66de811610071578063c4d66de814610153578063c56f80c11461016f578063c5923aaf1461018d578063e74599f3146101bd578063f239c626146101ed578063f2fde38b14610209576100b4565b8063715018a6146100b95780638da5cb5b146100c3578063adc9772e146100e1578063b460af94146100fd578063c2b4610b14610119578063c4a0bb0714610137575b600080fd5b6100c1610225565b005b6100cb610239565b6040516100d89190610fd3565b60405180910390f35b6100fb60048036038101906100f69190611055565b610263565b005b61011760048036038101906101129190611095565b6104d8565b005b610121610708565b60405161012e9190611103565b60405180910390f35b610151600480360381019061014c919061114a565b61071f565b005b61016d60048036038101906101689190611177565b610773565b005b610177610916565b6040516101849190610fd3565b60405180910390f35b6101a760048036038101906101a291906111a4565b610940565b6040516101b491906111f3565b60405180910390f35b6101d760048036038101906101d29190611177565b6109c7565b6040516101e491906111f3565b60405180910390f35b61020760048036038101906102029190611055565b610a10565b005b610223600480360381019061021e9190611177565b610aa4565b005b61022d610b27565b6102376000610ba5565b565b6000603360009054906101000a900473ffffffffffffffffffffffffffffffffffffffff16905090565b609760149054906101000a900460ff166102b2576040517f08c379a00000000000000000000000000000000000000000000000000000000081526004016102a99061126b565b60405180910390fd5b6102bb82610c6b565b6102fa576040517f08c379a00000000000000000000000000000000000000000000000000000000081526004016102f1906112d7565b60405180910390fd5b609860008373ffffffffffffffffffffffffffffffffffffffff1673ffffffffffffffffffffffffffffffffffffffff1681526020019081526020016000205481101561037c576040517f08c379a000000000000000000000000000000000000000000000000000000000815260040161037390611369565b60405180910390fd5b8173ffffffffffffffffffffffffffffffffffffffff166323b872dd3330846040518463ffffffff1660e01b81526004016103b993929190611389565b6020604051808303816000875af11580156103d8573d6000803e3d6000fd5b505050506040513d601f19601f820116820180604052508101906103fc91906113d5565b5080609960003373ffffffffffffffffffffffffffffffffffffffff1673ffffffffffffffffffffffffffffffffffffffff16815260200190815260200160002060008473ffffffffffffffffffffffffffffffffffffffff1673ffffffffffffffffffffffffffffffffffffffff16815260200190815260200160002060008282546104899190611431565b92505081905550803373ffffffffffffffffffffffffffffffffffffffff167f9e71bc8eea02a63969f509818f2dafb9254532904319f9dbda79b67bd34a5f3d60405160405180910390a35050565b6104e0610da2565b6000609960003373ffffffffffffffffffffffffffffffffffffffff1673ffffffffffffffffffffffffffffffffffffffff16815260200190815260200160002060008473ffffffffffffffffffffffffffffffffffffffff1673ffffffffffffffffffffffffffffffffffffffff168152602001908152602001600020549050808411156105a4576040517f08c379a000000000000000000000000000000000000000000000000000000000815260040161059b906114b1565b60405180910390fd5b83609960003373ffffffffffffffffffffffffffffffffffffffff1673ffffffffffffffffffffffffffffffffffffffff16815260200190815260200160002060008573ffffffffffffffffffffffffffffffffffffffff1673ffffffffffffffffffffffffffffffffffffffff168152602001908152602001600020600082825461063091906114d1565b925050819055508273ffffffffffffffffffffffffffffffffffffffff1663a9059cbb83866040518363ffffffff1660e01b8152600401610672929190611505565b6020604051808303816000875af1158015610691573d6000803e3d6000fd5b505050506040513d601f19601f820116820180604052508101906106b591906113d5565b50833373ffffffffffffffffffffffffffffffffffffffff167f7084f5476618d8e60b11ef0d7d3f06914655adb8793e28ff7f018d4c76d505d560405160405180910390a350610703610df1565b505050565b6000609760149054906101000a900460ff16905090565b610727610b27565b80609760146101000a81548160ff0219169083151502179055508015157fdebf9dd297d3980055770d6c047a67eed8f6b1e91397831703b5f2a73bec132060405160405180910390a250565b60008060019054906101000a900460ff161590508080156107a45750600160008054906101000a900460ff1660ff16105b806107d157506107b330610dfb565b1580156107d05750600160008054906101000a900460ff1660ff16145b5b610810576040517f08c379a0000000000000000000000000000000000000000000000000000000008152600401610807906115a0565b60405180910390fd5b60016000806101000a81548160ff021916908360ff160217905550801561084d576001600060016101000a81548160ff0219169083151502179055505b81609760006101000a81548173ffffffffffffffffffffffffffffffffffffffff021916908373ffffffffffffffffffffffffffffffffffffffff1602179055506001609760146101000a81548160ff0219169083151502179055506108b1610e1e565b6108b9610e77565b80156109125760008060016101000a81548160ff0219169083151502179055507f7f26b83ff96e1f2b6a682f133852f6798a09c465da95921460cefb384740249860016040516109099190611612565b60405180910390a15b5050565b6000609760009054906101000a900473ffffffffffffffffffffffffffffffffffffffff16905090565b6000609960008473ffffffffffffffffffffffffffffffffffffffff1673ffffffffffffffffffffffffffffffffffffffff16815260200190815260200160002060008373ffffffffffffffffffffffffffffffffffffffff1673ffffffffffffffffffffffffffffffffffffffff16815260200190815260200160002054905092915050565b6000609860008373ffffffffffffffffffffffffffffffffffffffff1673ffffffffffffffffffffffffffffffffffffffff168152602001908152602001600020549050919050565b610a18610b27565b80609860008473ffffffffffffffffffffffffffffffffffffffff1673ffffffffffffffffffffffffffffffffffffffff16815260200190815260200160002081905550808273ffffffffffffffffffffffffffffffffffffffff167fd0380f7d3d322fabf37539b9c6b985c069348a14121a426f3cceb8b5a93cd9ab60405160405180910390a35050565b610aac610b27565b600073ffffffffffffffffffffffffffffffffffffffff168173ffffffffffffffffffffffffffffffffffffffff1603610b1b576040517f08c379a0000000000000000000000000000000000000000000000000000000008152600401610b129061169f565b60405180910390fd5b610b2481610ba5565b50565b610b2f610ed0565b73ffffffffffffffffffffffffffffffffffffffff16610b4d610239565b73ffffffffffffffffffffffffffffffffffffffff1614610ba3576040517f08c379a0000000000000000000000000000000000000000000000000000000008152600401610b9a9061170b565b60405180910390fd5b565b6000603360009054906101000a900473ffffffffffffffffffffffffffffffffffffffff16905081603360006101000a81548173ffffffffffffffffffffffffffffffffffffffff021916908373ffffffffffffffffffffffffffffffffffffffff1602179055508173ffffffffffffffffffffffffffffffffffffffff168173ffffffffffffffffffffffffffffffffffffffff167f8be0079c531659141344cd1fd0a4f28419497f9722a3daafe3b4186f6b6457e060405160405180910390a35050565b600080609760009054906101000a900473ffffffffffffffffffffffffffffffffffffffff1673ffffffffffffffffffffffffffffffffffffffff1683604051602401610cb89190610fd3565b6040516020818303038152906040527f75151b63000000000000000000000000000000000000000000000000000000007bffffffffffffffffffffffffffffffffffffffffffffffffffffffff19166020820180517bffffffffffffffffffffffffffffffffffffffffffffffffffffffff8381831617835250505050604051610d42919061179c565b600060405180830381855afa9150503d8060008114610d7d576040519150601f19603f3d011682016040523d82523d6000602084013e610d82565b606091505b5091505080806020019051810190610d9a91906113d5565b915050919050565b600260655403610de7576040517f08c379a0000000000000000000000000000000000000000000000000000000008152600401610dde906117ff565b60405180910390fd5b6002606581905550565b6001606581905550565b6000808273ffffffffffffffffffffffffffffffffffffffff163b119050919050565b600060019054906101000a900460ff16610e6d576040517f08c379a0000000000000000000000000000000000000000000000000000000008152600401610e6490611891565b60405180910390fd5b610e75610ed8565b565b600060019054906101000a900460ff16610ec6576040517f08c379a0000000000000000000000000000000000000000000000000000000008152600401610ebd90611891565b60405180910390fd5b610ece610f39565b565b600033905090565b600060019054906101000a900460ff16610f27576040517f08c379a0000000000000000000000000000000000000000000000000000000008152600401610f1e90611891565b60405180910390fd5b610f37610f32610ed0565b610ba5565b565b600060019054906101000a900460ff16610f88576040517f08c379a0000000000000000000000000000000000000000000000000000000008152600401610f7f90611891565b60405180910390fd5b6001606581905550565b600073ffffffffffffffffffffffffffffffffffffffff82169050919050565b6000610fbd82610f92565b9050919050565b610fcd81610fb2565b82525050565b6000602082019050610fe86000830184610fc4565b92915050565b600080fd5b610ffc81610fb2565b811461100757600080fd5b50565b60008135905061101981610ff3565b92915050565b6000819050919050565b6110328161101f565b811461103d57600080fd5b50565b60008135905061104f81611029565b92915050565b6000806040838503121561106c5761106b610fee565b5b600061107a8582860161100a565b925050602061108b85828601611040565b9150509250929050565b6000806000606084860312156110ae576110ad610fee565b5b60006110bc86828701611040565b93505060206110cd8682870161100a565b92505060406110de8682870161100a565b9150509250925092565b60008115159050919050565b6110fd816110e8565b82525050565b600060208201905061111860008301846110f4565b92915050565b611127816110e8565b811461113257600080fd5b50565b6000813590506111448161111e565b92915050565b6000602082840312156111605761115f610fee565b5b600061116e84828501611135565b91505092915050565b60006020828403121561118d5761118c610fee565b5b600061119b8482850161100a565b91505092915050565b600080604083850312156111bb576111ba610fee565b5b60006111c98582860161100a565b92505060206111da8582860161100a565b9150509250929050565b6111ed8161101f565b82525050565b600060208201905061120860008301846111e4565b92915050565b600082825260208201905092915050565b7f496e697469616c697a6174696f6e206973207061757365640000000000000000600082015250565b600061125560188361120e565b91506112608261121f565b602082019050919050565b6000602082019050818103600083015261128481611248565b9050919050565b7f546f6b656e206973206e6f7420737570706f7274656400000000000000000000600082015250565b60006112c160168361120e565b91506112cc8261128b565b602082019050919050565b600060208201905081810360008301526112f0816112b4565b9050919050565b7f416d6f756e74206973206c657373207468616e206d696e696d756d207265717560008201527f6972656400000000000000000000000000000000000000000000000000000000602082015250565b600061135360248361120e565b915061135e826112f7565b604082019050919050565b6000602082019050818103600083015261138281611346565b9050919050565b600060608201905061139e6000830186610fc4565b6113ab6020830185610fc4565b6113b860408301846111e4565b949350505050565b6000815190506113cf8161111e565b92915050565b6000602082840312156113eb576113ea610fee565b5b60006113f9848285016113c0565b91505092915050565b7f4e487b7100000000000000000000000000000000000000000000000000000000600052601160045260246000fd5b600061143c8261101f565b91506114478361101f565b925082820190508082111561145f5761145e611402565b5b92915050565b7f496e73756666696369656e742062616c616e6365000000000000000000000000600082015250565b600061149b60148361120e565b91506114a682611465565b602082019050919050565b600060208201905081810360008301526114ca8161148e565b9050919050565b60006114dc8261101f565b91506114e78361101f565b92508282039050818111156114ff576114fe611402565b5b92915050565b600060408201905061151a6000830185610fc4565b61152760208301846111e4565b9392505050565b7f496e697469616c697a61626c653a20636f6e747261637420697320616c72656160008201527f647920696e697469616c697a6564000000000000000000000000000000000000602082015250565b600061158a602e8361120e565b91506115958261152e565b604082019050919050565b600060208201905081810360008301526115b98161157d565b9050919050565b6000819050919050565b600060ff82169050919050565b6000819050919050565b60006115fc6115f76115f2846115c0565b6115d7565b6115ca565b9050919050565b61160c816115e1565b82525050565b60006020820190506116276000830184611603565b92915050565b7f4f776e61626c653a206e6577206f776e657220697320746865207a65726f206160008201527f6464726573730000000000000000000000000000000000000000000000000000602082015250565b600061168960268361120e565b91506116948261162d565b604082019050919050565b600060208201905081810360008301526116b88161167c565b9050919050565b7f4f776e61626c653a2063616c6c6572206973206e6f7420746865206f776e6572600082015250565b60006116f560208361120e565b9150611700826116bf565b602082019050919050565b60006020820190508181036000830152611724816116e8565b9050919050565b600081519050919050565b600081905092915050565b60005b8381101561175f578082015181840152602081019050611744565b60008484015250505050565b60006117768261172b565b6117808185611736565b9350611790818560208601611741565b80840191505092915050565b60006117a8828461176b565b915081905092915050565b7f5265656e7472616e637947756172643a207265656e7472616e742063616c6c00600082015250565b60006117e9601f8361120e565b91506117f4826117b3565b602082019050919050565b60006020820190508181036000830152611818816117dc565b9050919050565b7f496e697469616c697a61626c653a20636f6e7472616374206973206e6f74206960008201527f6e697469616c697a696e67000000000000000000000000000000000000000000602082015250565b600061187b602b8361120e565b91506118868261181f565b604082019050919050565b600060208201905081810360008301526118aa8161186e565b905091905056fea26469706673582212207bc6e88ed2538f594ece330f2a5fe838a73f8b52ec73ada42f59d472b299317c64736f6c63430008120033",
  "linkReferences": {},
  "deployedLinkReferences": {}
}