{
  "_format": "hh-sol-artifact-1",
  "contractName": "PaycrestValidator",
  "sourceName": "contracts/PaycrestValidator.sol",
  "abi": [
    {
      "inputs": [],
      "stateMutability": "nonpayable",
      "type": "constructor"
    },
    {
      "inputs": [],
      "name": "Insufficient",
      "type": "error"
    },
    {
      "inputs": [],
      "name": "MinimumRequired",
      "type": "error"
    },
    {
      "inputs": [],
      "name": "ThrowInitPaused",
      "type": "error"
    },
    {
      "inputs": [],
      "name": "ThrowPaycrest",
      "type": "error"
    },
    {
      "inputs": [],
      "name": "TokenNotSupported",
      "type": "error"
    },
    {
      "anonymous": false,
      "inputs": [
        {
          "indexed": true,
          "internalType": "bool",
          "name": "status",
          "type": "bool"
        }
      ],
      "name": "Initialized",
      "type": "event"
    },
    {
      "anonymous": false,
      "inputs": [
        {
          "indexed": false,
          "internalType": "uint8",
          "name": "version",
          "type": "uint8"
        }
      ],
      "name": "Initialized",
      "type": "event"
    },
    {
      "anonymous": false,
      "inputs": [
        {
          "indexed": true,
          "internalType": "address",
          "name": "token",
          "type": "address"
        },
        {
          "indexed": true,
          "internalType": "uint256",
          "name": "minimumStakeAmount",
          "type": "uint256"
        }
      ],
      "name": "NewTokenSupported",
      "type": "event"
    },
    {
      "anonymous": false,
      "inputs": [
        {
          "indexed": true,
          "internalType": "address",
          "name": "previousOwner",
          "type": "address"
        },
        {
          "indexed": true,
          "internalType": "address",
          "name": "newOwner",
          "type": "address"
        }
      ],
      "name": "OwnershipTransferred",
      "type": "event"
    },
    {
      "anonymous": false,
      "inputs": [
        {
          "indexed": false,
          "internalType": "bytes32",
          "name": "orderId",
          "type": "bytes32"
        },
        {
          "indexed": false,
          "internalType": "address",
          "name": "token",
          "type": "address"
        },
        {
          "indexed": true,
          "internalType": "address",
          "name": "validator",
          "type": "address"
        },
        {
          "indexed": true,
          "internalType": "uint256",
          "name": "validatorsReward",
          "type": "uint256"
        }
      ],
      "name": "RewardValidators",
      "type": "event"
    },
    {
      "anonymous": false,
      "inputs": [
        {
          "indexed": true,
          "internalType": "address",
          "name": "user",
          "type": "address"
        },
        {
          "indexed": true,
          "internalType": "uint256",
          "name": "amount",
          "type": "uint256"
        }
      ],
      "name": "Staked",
      "type": "event"
    },
    {
      "anonymous": false,
      "inputs": [
        {
          "indexed": true,
          "internalType": "address",
          "name": "user",
          "type": "address"
        },
        {
          "indexed": true,
          "internalType": "uint256",
          "name": "amount",
          "type": "uint256"
        }
      ],
      "name": "Withdrawn",
      "type": "event"
    },
    {
      "inputs": [],
      "name": "getInitializationState",
      "outputs": [
        {
          "internalType": "bool",
          "name": "",
          "type": "bool"
        }
      ],
      "stateMutability": "view",
      "type": "function"
    },
    {
      "inputs": [
        {
          "internalType": "address",
          "name": "token",
          "type": "address"
        }
      ],
      "name": "getMinimumAmountRequiredFor",
      "outputs": [
        {
          "internalType": "uint256",
          "name": "",
          "type": "uint256"
        }
      ],
      "stateMutability": "view",
      "type": "function"
    },
    {
      "inputs": [],
      "name": "getPaycrest",
      "outputs": [
        {
          "internalType": "address",
          "name": "",
          "type": "address"
        }
      ],
      "stateMutability": "view",
      "type": "function"
    },
    {
      "inputs": [
        {
          "internalType": "address",
          "name": "user",
          "type": "address"
        },
        {
          "internalType": "address",
          "name": "token",
          "type": "address"
        }
      ],
      "name": "getValidatorInfo",
      "outputs": [
        {
          "internalType": "uint256",
          "name": "",
          "type": "uint256"
        }
      ],
      "stateMutability": "view",
      "type": "function"
    },
    {
      "inputs": [
        {
          "internalType": "address",
          "name": "_paycrest",
          "type": "address"
        }
      ],
      "name": "initialize",
      "outputs": [],
      "stateMutability": "nonpayable",
      "type": "function"
    },
    {
      "inputs": [
        {
          "internalType": "bool",
          "name": "status",
          "type": "bool"
        }
      ],
      "name": "initialized",
      "outputs": [],
      "stateMutability": "nonpayable",
      "type": "function"
    },
    {
      "inputs": [],
      "name": "owner",
      "outputs": [
        {
          "internalType": "address",
          "name": "",
          "type": "address"
        }
      ],
      "stateMutability": "view",
      "type": "function"
    },
    {
      "inputs": [],
      "name": "renounceOwnership",
      "outputs": [],
      "stateMutability": "nonpayable",
      "type": "function"
    },
    {
      "inputs": [
        {
          "internalType": "address",
          "name": "_token",
          "type": "address"
        },
        {
          "internalType": "uint256",
          "name": "minimumStakeAmount",
          "type": "uint256"
        }
      ],
      "name": "setMinimumAmountForTokens",
      "outputs": [],
      "stateMutability": "nonpayable",
      "type": "function"
    },
    {
      "inputs": [
        {
          "internalType": "address",
          "name": "token",
          "type": "address"
        },
        {
          "internalType": "uint256",
          "name": "amount",
          "type": "uint256"
        }
      ],
      "name": "stake",
      "outputs": [],
      "stateMutability": "nonpayable",
      "type": "function"
    },
    {
      "inputs": [
        {
          "internalType": "address",
          "name": "newOwner",
          "type": "address"
        }
      ],
      "name": "transferOwnership",
      "outputs": [],
      "stateMutability": "nonpayable",
      "type": "function"
    },
    {
      "inputs": [
        {
          "internalType": "uint256",
          "name": "amount",
          "type": "uint256"
        },
        {
          "internalType": "address",
          "name": "token",
          "type": "address"
        },
        {
          "internalType": "address",
          "name": "recipient",
          "type": "address"
        }
      ],
      "name": "withdraw",
      "outputs": [],
      "stateMutability": "nonpayable",
      "type": "function"
    }
  ],
  "bytecode": "0x60806040523480156200001157600080fd5b50620000226200002860201b60201c565b620001d2565b600060019054906101000a900460ff16156200007b576040517f08c379a0000000000000000000000000000000000000000000000000000000008152600401620000729062000175565b60405180910390fd5b60ff801660008054906101000a900460ff1660ff1614620000ec5760ff6000806101000a81548160ff021916908360ff1602179055507f7f26b83ff96e1f2b6a682f133852f6798a09c465da95921460cefb384740249860ff604051620000e39190620001b5565b60405180910390a15b565b600082825260208201905092915050565b7f496e697469616c697a61626c653a20636f6e747261637420697320696e69746960008201527f616c697a696e6700000000000000000000000000000000000000000000000000602082015250565b60006200015d602783620000ee565b91506200016a82620000ff565b604082019050919050565b6000602082019050818103600083015262000190816200014e565b9050919050565b600060ff82169050919050565b620001af8162000197565b82525050565b6000602082019050620001cc6000830184620001a4565b92915050565b6116ed80620001e26000396000f3fe608060405234801561001057600080fd5b50600436106100b45760003560e01c8063c4d66de811610071578063c4d66de814610153578063c56f80c11461016f578063c5923aaf1461018d578063e74599f3146101bd578063f239c626146101ed578063f2fde38b14610209576100b4565b8063715018a6146100b95780638da5cb5b146100c3578063adc9772e146100e1578063b460af94146100fd578063c2b4610b14610119578063c4a0bb0714610137575b600080fd5b6100c1610225565b005b6100cb610239565b6040516100d89190610faf565b60405180910390f35b6100fb60048036038101906100f69190611031565b610263565b005b61011760048036038101906101129190611071565b6104bd565b005b6101216106e4565b60405161012e91906110df565b60405180910390f35b610151600480360381019061014c9190611126565b6106fb565b005b61016d60048036038101906101689190611153565b61074f565b005b6101776108f2565b6040516101849190610faf565b60405180910390f35b6101a760048036038101906101a29190611180565b61091c565b6040516101b491906111cf565b60405180910390f35b6101d760048036038101906101d29190611153565b6109a3565b6040516101e491906111cf565b60405180910390f35b61020760048036038101906102029190611031565b6109ec565b005b610223600480360381019061021e9190611153565b610a80565b005b61022d610b03565b6102376000610b81565b565b6000603360009054906101000a900473ffffffffffffffffffffffffffffffffffffffff16905090565b609760149054906101000a900460ff166102a9576040517f5179f46700000000000000000000000000000000000000000000000000000000815260040160405180910390fd5b6102b282610c47565b6102e8576040517f3dd1b30500000000000000000000000000000000000000000000000000000000815260040160405180910390fd5b609860008373ffffffffffffffffffffffffffffffffffffffff1673ffffffffffffffffffffffffffffffffffffffff16815260200190815260200160002054811015610361576040517f0eed1a4700000000000000000000000000000000000000000000000000000000815260040160405180910390fd5b8173ffffffffffffffffffffffffffffffffffffffff166323b872dd3330846040518463ffffffff1660e01b815260040161039e939291906111ea565b6020604051808303816000875af11580156103bd573d6000803e3d6000fd5b505050506040513d601f19601f820116820180604052508101906103e19190611236565b5080609960003373ffffffffffffffffffffffffffffffffffffffff1673ffffffffffffffffffffffffffffffffffffffff16815260200190815260200160002060008473ffffffffffffffffffffffffffffffffffffffff1673ffffffffffffffffffffffffffffffffffffffff168152602001908152602001600020600082825461046e9190611292565b92505081905550803373ffffffffffffffffffffffffffffffffffffffff167f9e71bc8eea02a63969f509818f2dafb9254532904319f9dbda79b67bd34a5f3d60405160405180910390a35050565b6104c5610d7e565b6000609960003373ffffffffffffffffffffffffffffffffffffffff1673ffffffffffffffffffffffffffffffffffffffff16815260200190815260200160002060008473ffffffffffffffffffffffffffffffffffffffff1673ffffffffffffffffffffffffffffffffffffffff16815260200190815260200160002054905080841115610580576040517f1dc930eb00000000000000000000000000000000000000000000000000000000815260040160405180910390fd5b83609960003373ffffffffffffffffffffffffffffffffffffffff1673ffffffffffffffffffffffffffffffffffffffff16815260200190815260200160002060008573ffffffffffffffffffffffffffffffffffffffff1673ffffffffffffffffffffffffffffffffffffffff168152602001908152602001600020600082825461060c91906112c6565b925050819055508273ffffffffffffffffffffffffffffffffffffffff1663a9059cbb83866040518363ffffffff1660e01b815260040161064e9291906112fa565b6020604051808303816000875af115801561066d573d6000803e3d6000fd5b505050506040513d601f19601f820116820180604052508101906106919190611236565b50833373ffffffffffffffffffffffffffffffffffffffff167f7084f5476618d8e60b11ef0d7d3f06914655adb8793e28ff7f018d4c76d505d560405160405180910390a3506106df610dcd565b505050565b6000609760149054906101000a900460ff16905090565b610703610b03565b80609760146101000a81548160ff0219169083151502179055508015157fdebf9dd297d3980055770d6c047a67eed8f6b1e91397831703b5f2a73bec132060405160405180910390a250565b60008060019054906101000a900460ff161590508080156107805750600160008054906101000a900460ff1660ff16105b806107ad575061078f30610dd7565b1580156107ac5750600160008054906101000a900460ff1660ff16145b5b6107ec576040517f08c379a00000000000000000000000000000000000000000000000000000000081526004016107e3906113a6565b60405180910390fd5b60016000806101000a81548160ff021916908360ff1602179055508015610829576001600060016101000a81548160ff0219169083151502179055505b81609760006101000a81548173ffffffffffffffffffffffffffffffffffffffff021916908373ffffffffffffffffffffffffffffffffffffffff1602179055506001609760146101000a81548160ff02191690831515021790555061088d610dfa565b610895610e53565b80156108ee5760008060016101000a81548160ff0219169083151502179055507f7f26b83ff96e1f2b6a682f133852f6798a09c465da95921460cefb384740249860016040516108e59190611418565b60405180910390a15b5050565b6000609760009054906101000a900473ffffffffffffffffffffffffffffffffffffffff16905090565b6000609960008473ffffffffffffffffffffffffffffffffffffffff1673ffffffffffffffffffffffffffffffffffffffff16815260200190815260200160002060008373ffffffffffffffffffffffffffffffffffffffff1673ffffffffffffffffffffffffffffffffffffffff16815260200190815260200160002054905092915050565b6000609860008373ffffffffffffffffffffffffffffffffffffffff1673ffffffffffffffffffffffffffffffffffffffff168152602001908152602001600020549050919050565b6109f4610b03565b80609860008473ffffffffffffffffffffffffffffffffffffffff1673ffffffffffffffffffffffffffffffffffffffff16815260200190815260200160002081905550808273ffffffffffffffffffffffffffffffffffffffff167fd0380f7d3d322fabf37539b9c6b985c069348a14121a426f3cceb8b5a93cd9ab60405160405180910390a35050565b610a88610b03565b600073ffffffffffffffffffffffffffffffffffffffff168173ffffffffffffffffffffffffffffffffffffffff1603610af7576040517f08c379a0000000000000000000000000000000000000000000000000000000008152600401610aee906114a5565b60405180910390fd5b610b0081610b81565b50565b610b0b610eac565b73ffffffffffffffffffffffffffffffffffffffff16610b29610239565b73ffffffffffffffffffffffffffffffffffffffff1614610b7f576040517f08c379a0000000000000000000000000000000000000000000000000000000008152600401610b7690611511565b60405180910390fd5b565b6000603360009054906101000a900473ffffffffffffffffffffffffffffffffffffffff16905081603360006101000a81548173ffffffffffffffffffffffffffffffffffffffff021916908373ffffffffffffffffffffffffffffffffffffffff1602179055508173ffffffffffffffffffffffffffffffffffffffff168173ffffffffffffffffffffffffffffffffffffffff167f8be0079c531659141344cd1fd0a4f28419497f9722a3daafe3b4186f6b6457e060405160405180910390a35050565b600080609760009054906101000a900473ffffffffffffffffffffffffffffffffffffffff1673ffffffffffffffffffffffffffffffffffffffff1683604051602401610c949190610faf565b6040516020818303038152906040527f75151b63000000000000000000000000000000000000000000000000000000007bffffffffffffffffffffffffffffffffffffffffffffffffffffffff19166020820180517bffffffffffffffffffffffffffffffffffffffffffffffffffffffff8381831617835250505050604051610d1e91906115a2565b600060405180830381855afa9150503d8060008114610d59576040519150601f19603f3d011682016040523d82523d6000602084013e610d5e565b606091505b5091505080806020019051810190610d769190611236565b915050919050565b600260655403610dc3576040517f08c379a0000000000000000000000000000000000000000000000000000000008152600401610dba90611605565b60405180910390fd5b6002606581905550565b6001606581905550565b6000808273ffffffffffffffffffffffffffffffffffffffff163b119050919050565b600060019054906101000a900460ff16610e49576040517f08c379a0000000000000000000000000000000000000000000000000000000008152600401610e4090611697565b60405180910390fd5b610e51610eb4565b565b600060019054906101000a900460ff16610ea2576040517f08c379a0000000000000000000000000000000000000000000000000000000008152600401610e9990611697565b60405180910390fd5b610eaa610f15565b565b600033905090565b600060019054906101000a900460ff16610f03576040517f08c379a0000000000000000000000000000000000000000000000000000000008152600401610efa90611697565b60405180910390fd5b610f13610f0e610eac565b610b81565b565b600060019054906101000a900460ff16610f64576040517f08c379a0000000000000000000000000000000000000000000000000000000008152600401610f5b90611697565b60405180910390fd5b6001606581905550565b600073ffffffffffffffffffffffffffffffffffffffff82169050919050565b6000610f9982610f6e565b9050919050565b610fa981610f8e565b82525050565b6000602082019050610fc46000830184610fa0565b92915050565b600080fd5b610fd881610f8e565b8114610fe357600080fd5b50565b600081359050610ff581610fcf565b92915050565b6000819050919050565b61100e81610ffb565b811461101957600080fd5b50565b60008135905061102b81611005565b92915050565b6000806040838503121561104857611047610fca565b5b600061105685828601610fe6565b92505060206110678582860161101c565b9150509250929050565b60008060006060848603121561108a57611089610fca565b5b60006110988682870161101c565b93505060206110a986828701610fe6565b92505060406110ba86828701610fe6565b9150509250925092565b60008115159050919050565b6110d9816110c4565b82525050565b60006020820190506110f460008301846110d0565b92915050565b611103816110c4565b811461110e57600080fd5b50565b600081359050611120816110fa565b92915050565b60006020828403121561113c5761113b610fca565b5b600061114a84828501611111565b91505092915050565b60006020828403121561116957611168610fca565b5b600061117784828501610fe6565b91505092915050565b6000806040838503121561119757611196610fca565b5b60006111a585828601610fe6565b92505060206111b685828601610fe6565b9150509250929050565b6111c981610ffb565b82525050565b60006020820190506111e460008301846111c0565b92915050565b60006060820190506111ff6000830186610fa0565b61120c6020830185610fa0565b61121960408301846111c0565b949350505050565b600081519050611230816110fa565b92915050565b60006020828403121561124c5761124b610fca565b5b600061125a84828501611221565b91505092915050565b7f4e487b7100000000000000000000000000000000000000000000000000000000600052601160045260246000fd5b600061129d82610ffb565b91506112a883610ffb565b92508282019050808211156112c0576112bf611263565b5b92915050565b60006112d182610ffb565b91506112dc83610ffb565b92508282039050818111156112f4576112f3611263565b5b92915050565b600060408201905061130f6000830185610fa0565b61131c60208301846111c0565b9392505050565b600082825260208201905092915050565b7f496e697469616c697a61626c653a20636f6e747261637420697320616c72656160008201527f647920696e697469616c697a6564000000000000000000000000000000000000602082015250565b6000611390602e83611323565b915061139b82611334565b604082019050919050565b600060208201905081810360008301526113bf81611383565b9050919050565b6000819050919050565b600060ff82169050919050565b6000819050919050565b60006114026113fd6113f8846113c6565b6113dd565b6113d0565b9050919050565b611412816113e7565b82525050565b600060208201905061142d6000830184611409565b92915050565b7f4f776e61626c653a206e6577206f776e657220697320746865207a65726f206160008201527f6464726573730000000000000000000000000000000000000000000000000000602082015250565b600061148f602683611323565b915061149a82611433565b604082019050919050565b600060208201905081810360008301526114be81611482565b9050919050565b7f4f776e61626c653a2063616c6c6572206973206e6f7420746865206f776e6572600082015250565b60006114fb602083611323565b9150611506826114c5565b602082019050919050565b6000602082019050818103600083015261152a816114ee565b9050919050565b600081519050919050565b600081905092915050565b60005b8381101561156557808201518184015260208101905061154a565b60008484015250505050565b600061157c82611531565b611586818561153c565b9350611596818560208601611547565b80840191505092915050565b60006115ae8284611571565b915081905092915050565b7f5265656e7472616e637947756172643a207265656e7472616e742063616c6c00600082015250565b60006115ef601f83611323565b91506115fa826115b9565b602082019050919050565b6000602082019050818103600083015261161e816115e2565b9050919050565b7f496e697469616c697a61626c653a20636f6e7472616374206973206e6f74206960008201527f6e697469616c697a696e67000000000000000000000000000000000000000000602082015250565b6000611681602b83611323565b915061168c82611625565b604082019050919050565b600060208201905081810360008301526116b081611674565b905091905056fea2646970667358221220b66fa7c4634c0c98da0c687869a1b8c2a46f10bd0a5004c92659e52abdf73e7d64736f6c63430008120033",
  "linkReferences": {},
  "deployedLinkReferences": {}
}