{
  "_format": "hh-sol-artifact-1",
  "contractName": "PaycrestValidator",
  "sourceName": "contracts/PaycrestValidator.sol",
  "abi": [
    {
      "inputs": [
        {
          "internalType": "address",
          "name": "_paycrest",
          "type": "address"
        }
      ],
      "stateMutability": "nonpayable",
      "type": "constructor"
    },
    {
      "inputs": [],
      "name": "Insufficient",
      "type": "error"
    },
    {
      "inputs": [],
      "name": "MinimumRequired",
      "type": "error"
    },
    {
      "inputs": [],
      "name": "ThrowInitPaused",
      "type": "error"
    },
    {
      "inputs": [],
      "name": "TokenNotSupported",
      "type": "error"
    },
    {
      "anonymous": false,
      "inputs": [
        {
          "indexed": true,
          "internalType": "bool",
          "name": "status",
          "type": "bool"
        }
      ],
      "name": "Initialized",
      "type": "event"
    },
    {
      "anonymous": false,
      "inputs": [
        {
          "indexed": true,
          "internalType": "address",
          "name": "token",
          "type": "address"
        },
        {
          "indexed": true,
          "internalType": "uint256",
          "name": "minimumStakeAmount",
          "type": "uint256"
        }
      ],
      "name": "NewTokenSupported",
      "type": "event"
    },
    {
      "anonymous": false,
      "inputs": [
        {
          "indexed": true,
          "internalType": "address",
          "name": "previousOwner",
          "type": "address"
        },
        {
          "indexed": true,
          "internalType": "address",
          "name": "newOwner",
          "type": "address"
        }
      ],
      "name": "OwnershipTransferred",
      "type": "event"
    },
    {
      "anonymous": false,
      "inputs": [
        {
          "indexed": false,
          "internalType": "bytes32",
          "name": "orderId",
          "type": "bytes32"
        },
        {
          "indexed": false,
          "internalType": "address",
          "name": "token",
          "type": "address"
        },
        {
          "indexed": true,
          "internalType": "address",
          "name": "validator",
          "type": "address"
        },
        {
          "indexed": true,
          "internalType": "uint256",
          "name": "validatorsReward",
          "type": "uint256"
        }
      ],
      "name": "RewardValidators",
      "type": "event"
    },
    {
      "anonymous": false,
      "inputs": [
        {
          "indexed": true,
          "internalType": "address",
          "name": "user",
          "type": "address"
        },
        {
          "indexed": true,
          "internalType": "uint256",
          "name": "amount",
          "type": "uint256"
        }
      ],
      "name": "Staked",
      "type": "event"
    },
    {
      "anonymous": false,
      "inputs": [
        {
          "indexed": true,
          "internalType": "address",
          "name": "user",
          "type": "address"
        },
        {
          "indexed": true,
          "internalType": "uint256",
          "name": "amount",
          "type": "uint256"
        }
      ],
      "name": "Withdrawn",
      "type": "event"
    },
    {
      "inputs": [],
      "name": "getInitializationState",
      "outputs": [
        {
          "internalType": "bool",
          "name": "",
          "type": "bool"
        }
      ],
      "stateMutability": "view",
      "type": "function"
    },
    {
      "inputs": [
        {
          "internalType": "address",
          "name": "token",
          "type": "address"
        }
      ],
      "name": "getMinimumAmountRequiredFor",
      "outputs": [
        {
          "internalType": "uint256",
          "name": "",
          "type": "uint256"
        }
      ],
      "stateMutability": "view",
      "type": "function"
    },
    {
      "inputs": [],
      "name": "getPaycrest",
      "outputs": [
        {
          "internalType": "address",
          "name": "",
          "type": "address"
        }
      ],
      "stateMutability": "view",
      "type": "function"
    },
    {
      "inputs": [
        {
          "internalType": "address",
          "name": "user",
          "type": "address"
        },
        {
          "internalType": "address",
          "name": "token",
          "type": "address"
        }
      ],
      "name": "getValidatorInfo",
      "outputs": [
        {
          "internalType": "uint256",
          "name": "",
          "type": "uint256"
        }
      ],
      "stateMutability": "view",
      "type": "function"
    },
    {
      "inputs": [
        {
          "internalType": "bool",
          "name": "status",
          "type": "bool"
        }
      ],
      "name": "initialized",
      "outputs": [],
      "stateMutability": "nonpayable",
      "type": "function"
    },
    {
      "inputs": [],
      "name": "owner",
      "outputs": [
        {
          "internalType": "address",
          "name": "",
          "type": "address"
        }
      ],
      "stateMutability": "view",
      "type": "function"
    },
    {
      "inputs": [],
      "name": "renounceOwnership",
      "outputs": [],
      "stateMutability": "nonpayable",
      "type": "function"
    },
    {
      "inputs": [
        {
          "internalType": "bytes32",
          "name": "orderId",
          "type": "bytes32"
        },
        {
          "internalType": "address",
          "name": "token",
          "type": "address"
        },
        {
          "internalType": "address",
          "name": "primaryValidator",
          "type": "address"
        },
        {
          "internalType": "address[]",
          "name": "secondaryValidators",
          "type": "address[]"
        },
        {
          "internalType": "uint256",
          "name": "primaryValidatorsReward",
          "type": "uint256"
        },
        {
          "internalType": "uint256",
          "name": "secondaryValidatorsReward",
          "type": "uint256"
        }
      ],
      "name": "rewardValidators",
      "outputs": [
        {
          "internalType": "bool",
          "name": "",
          "type": "bool"
        }
      ],
      "stateMutability": "nonpayable",
      "type": "function"
    },
    {
      "inputs": [
        {
          "internalType": "address",
          "name": "_token",
          "type": "address"
        },
        {
          "internalType": "uint256",
          "name": "minimumStakeAmount",
          "type": "uint256"
        }
      ],
      "name": "setMinimumAmountForTokens",
      "outputs": [],
      "stateMutability": "nonpayable",
      "type": "function"
    },
    {
      "inputs": [
        {
          "internalType": "address",
          "name": "token",
          "type": "address"
        },
        {
          "internalType": "uint256",
          "name": "amount",
          "type": "uint256"
        }
      ],
      "name": "stake",
      "outputs": [],
      "stateMutability": "nonpayable",
      "type": "function"
    },
    {
      "inputs": [
        {
          "internalType": "address",
          "name": "newOwner",
          "type": "address"
        }
      ],
      "name": "transferOwnership",
      "outputs": [],
      "stateMutability": "nonpayable",
      "type": "function"
    },
    {
      "inputs": [
        {
          "internalType": "uint256",
          "name": "amount",
          "type": "uint256"
        },
        {
          "internalType": "address",
          "name": "token",
          "type": "address"
        },
        {
          "internalType": "address",
          "name": "recipient",
          "type": "address"
        }
      ],
      "name": "withdraw",
      "outputs": [],
      "stateMutability": "nonpayable",
      "type": "function"
    }
  ],
  "bytecode": "0x60a06040523480156200001157600080fd5b50604051620019bf380380620019bf8339818101604052810190620000379190620001ea565b620000576200004b620000b460201b60201c565b620000bc60201b60201c565b600180819055508073ffffffffffffffffffffffffffffffffffffffff1660808173ffffffffffffffffffffffffffffffffffffffff16815250506001600260006101000a81548160ff021916908315150217905550506200021c565b600033905090565b60008060009054906101000a900473ffffffffffffffffffffffffffffffffffffffff169050816000806101000a81548173ffffffffffffffffffffffffffffffffffffffff021916908373ffffffffffffffffffffffffffffffffffffffff1602179055508173ffffffffffffffffffffffffffffffffffffffff168173ffffffffffffffffffffffffffffffffffffffff167f8be0079c531659141344cd1fd0a4f28419497f9722a3daafe3b4186f6b6457e060405160405180910390a35050565b600080fd5b600073ffffffffffffffffffffffffffffffffffffffff82169050919050565b6000620001b28262000185565b9050919050565b620001c481620001a5565b8114620001d057600080fd5b50565b600081519050620001e481620001b9565b92915050565b60006020828403121562000203576200020262000180565b5b60006200021384828501620001d3565b91505092915050565b6080516117806200023f600039600081816109a20152610cf401526117806000f3fe608060405234801561001057600080fd5b50600436106100b45760003560e01c8063c4a0bb0711610071578063c4a0bb0714610167578063c56f80c114610183578063c5923aaf146101a1578063e74599f3146101d1578063f239c62614610201578063f2fde38b1461021d576100b4565b80634a223c36146100b9578063715018a6146100e95780638da5cb5b146100f3578063adc9772e14610111578063b460af941461012d578063c2b4610b14610149575b600080fd5b6100d360048036038101906100ce91906110bb565b610239565b6040516100e0919061117f565b60405180910390f35b6100f1610475565b005b6100fb610489565b60405161010891906111a9565b60405180910390f35b61012b600480360381019061012691906111c4565b6104b2565b005b61014760048036038101906101429190611204565b61070c565b005b610151610933565b60405161015e919061117f565b60405180910390f35b610181600480360381019061017c9190611283565b61094a565b005b61018b61099e565b60405161019891906111a9565b60405180910390f35b6101bb60048036038101906101b691906112b0565b6109c6565b6040516101c891906112ff565b60405180910390f35b6101eb60048036038101906101e6919061131a565b610a4d565b6040516101f891906112ff565b60405180910390f35b61021b600480360381019061021691906111c4565b610a96565b005b6102376004803603810190610232919061131a565b610b2a565b005b600080845190506000818461024e91906113a5565b905060005b82811015610380578160046000898481518110610273576102726113d6565b5b602002602001015173ffffffffffffffffffffffffffffffffffffffff1673ffffffffffffffffffffffffffffffffffffffff16815260200190815260200160002060008b73ffffffffffffffffffffffffffffffffffffffff1673ffffffffffffffffffffffffffffffffffffffff16815260200190815260200160002060008282546103019190611405565b925050819055508187828151811061031c5761031b6113d6565b5b602002602001015173ffffffffffffffffffffffffffffffffffffffff167f11ff273d7118e74553c17c252f7ca4a9c4bc57aa9939391776a348e5b388f6f78c8c60405161036b929190611448565b60405180910390a38080600101915050610253565b5084600460008973ffffffffffffffffffffffffffffffffffffffff1673ffffffffffffffffffffffffffffffffffffffff16815260200190815260200160002060008a73ffffffffffffffffffffffffffffffffffffffff1673ffffffffffffffffffffffffffffffffffffffff168152602001908152602001600020600082825461040d9190611405565b92505081905550848773ffffffffffffffffffffffffffffffffffffffff167f11ff273d7118e74553c17c252f7ca4a9c4bc57aa9939391776a348e5b388f6f78b8b60405161045d929190611448565b60405180910390a36001925050509695505050505050565b61047d610bad565b6104876000610c2b565b565b60008060009054906101000a900473ffffffffffffffffffffffffffffffffffffffff16905090565b600260009054906101000a900460ff166104f8576040517f5179f46700000000000000000000000000000000000000000000000000000000815260040160405180910390fd5b61050182610cef565b610537576040517f3dd1b30500000000000000000000000000000000000000000000000000000000815260040160405180910390fd5b600360008373ffffffffffffffffffffffffffffffffffffffff1673ffffffffffffffffffffffffffffffffffffffff168152602001908152602001600020548110156105b0576040517f0eed1a4700000000000000000000000000000000000000000000000000000000815260040160405180910390fd5b8173ffffffffffffffffffffffffffffffffffffffff166323b872dd3330846040518463ffffffff1660e01b81526004016105ed93929190611471565b6020604051808303816000875af115801561060c573d6000803e3d6000fd5b505050506040513d601f19601f8201168201806040525081019061063091906114bd565b5080600460003373ffffffffffffffffffffffffffffffffffffffff1673ffffffffffffffffffffffffffffffffffffffff16815260200190815260200160002060008473ffffffffffffffffffffffffffffffffffffffff1673ffffffffffffffffffffffffffffffffffffffff16815260200190815260200160002060008282546106bd9190611405565b92505081905550803373ffffffffffffffffffffffffffffffffffffffff167f9e71bc8eea02a63969f509818f2dafb9254532904319f9dbda79b67bd34a5f3d60405160405180910390a35050565b610714610e24565b6000600460003373ffffffffffffffffffffffffffffffffffffffff1673ffffffffffffffffffffffffffffffffffffffff16815260200190815260200160002060008473ffffffffffffffffffffffffffffffffffffffff1673ffffffffffffffffffffffffffffffffffffffff168152602001908152602001600020549050808411156107cf576040517f1dc930eb00000000000000000000000000000000000000000000000000000000815260040160405180910390fd5b83600460003373ffffffffffffffffffffffffffffffffffffffff1673ffffffffffffffffffffffffffffffffffffffff16815260200190815260200160002060008573ffffffffffffffffffffffffffffffffffffffff1673ffffffffffffffffffffffffffffffffffffffff168152602001908152602001600020600082825461085b91906114ea565b925050819055508273ffffffffffffffffffffffffffffffffffffffff1663a9059cbb83866040518363ffffffff1660e01b815260040161089d92919061151e565b6020604051808303816000875af11580156108bc573d6000803e3d6000fd5b505050506040513d601f19601f820116820180604052508101906108e091906114bd565b50833373ffffffffffffffffffffffffffffffffffffffff167f7084f5476618d8e60b11ef0d7d3f06914655adb8793e28ff7f018d4c76d505d560405160405180910390a35061092e610e73565b505050565b6000600260009054906101000a900460ff16905090565b610952610bad565b80600260006101000a81548160ff0219169083151502179055508015157fdebf9dd297d3980055770d6c047a67eed8f6b1e91397831703b5f2a73bec132060405160405180910390a250565b60007f0000000000000000000000000000000000000000000000000000000000000000905090565b6000600460008473ffffffffffffffffffffffffffffffffffffffff1673ffffffffffffffffffffffffffffffffffffffff16815260200190815260200160002060008373ffffffffffffffffffffffffffffffffffffffff1673ffffffffffffffffffffffffffffffffffffffff16815260200190815260200160002054905092915050565b6000600360008373ffffffffffffffffffffffffffffffffffffffff1673ffffffffffffffffffffffffffffffffffffffff168152602001908152602001600020549050919050565b610a9e610bad565b80600360008473ffffffffffffffffffffffffffffffffffffffff1673ffffffffffffffffffffffffffffffffffffffff16815260200190815260200160002081905550808273ffffffffffffffffffffffffffffffffffffffff167fd0380f7d3d322fabf37539b9c6b985c069348a14121a426f3cceb8b5a93cd9ab60405160405180910390a35050565b610b32610bad565b600073ffffffffffffffffffffffffffffffffffffffff168173ffffffffffffffffffffffffffffffffffffffff1603610ba1576040517f08c379a0000000000000000000000000000000000000000000000000000000008152600401610b98906115ca565b60405180910390fd5b610baa81610c2b565b50565b610bb5610e7c565b73ffffffffffffffffffffffffffffffffffffffff16610bd3610489565b73ffffffffffffffffffffffffffffffffffffffff1614610c29576040517f08c379a0000000000000000000000000000000000000000000000000000000008152600401610c2090611636565b60405180910390fd5b565b60008060009054906101000a900473ffffffffffffffffffffffffffffffffffffffff169050816000806101000a81548173ffffffffffffffffffffffffffffffffffffffff021916908373ffffffffffffffffffffffffffffffffffffffff1602179055508173ffffffffffffffffffffffffffffffffffffffff168173ffffffffffffffffffffffffffffffffffffffff167f8be0079c531659141344cd1fd0a4f28419497f9722a3daafe3b4186f6b6457e060405160405180910390a35050565b6000807f000000000000000000000000000000000000000000000000000000000000000073ffffffffffffffffffffffffffffffffffffffff1683604051602401610d3a91906111a9565b6040516020818303038152906040527f75151b63000000000000000000000000000000000000000000000000000000007bffffffffffffffffffffffffffffffffffffffffffffffffffffffff19166020820180517bffffffffffffffffffffffffffffffffffffffffffffffffffffffff8381831617835250505050604051610dc491906116c7565b600060405180830381855afa9150503d8060008114610dff576040519150601f19603f3d011682016040523d82523d6000602084013e610e04565b606091505b5091505080806020019051810190610e1c91906114bd565b915050919050565b600260015403610e69576040517f08c379a0000000000000000000000000000000000000000000000000000000008152600401610e609061172a565b60405180910390fd5b6002600181905550565b60018081905550565b600033905090565b6000604051905090565b600080fd5b600080fd5b6000819050919050565b610eab81610e98565b8114610eb657600080fd5b50565b600081359050610ec881610ea2565b92915050565b600073ffffffffffffffffffffffffffffffffffffffff82169050919050565b6000610ef982610ece565b9050919050565b610f0981610eee565b8114610f1457600080fd5b50565b600081359050610f2681610f00565b92915050565b600080fd5b6000601f19601f8301169050919050565b7f4e487b7100000000000000000000000000000000000000000000000000000000600052604160045260246000fd5b610f7a82610f31565b810181811067ffffffffffffffff82111715610f9957610f98610f42565b5b80604052505050565b6000610fac610e84565b9050610fb88282610f71565b919050565b600067ffffffffffffffff821115610fd857610fd7610f42565b5b602082029050602081019050919050565b600080fd5b6000611001610ffc84610fbd565b610fa2565b9050808382526020820190506020840283018581111561102457611023610fe9565b5b835b8181101561104d57806110398882610f17565b845260208401935050602081019050611026565b5050509392505050565b600082601f83011261106c5761106b610f2c565b5b813561107c848260208601610fee565b91505092915050565b6000819050919050565b61109881611085565b81146110a357600080fd5b50565b6000813590506110b58161108f565b92915050565b60008060008060008060c087890312156110d8576110d7610e8e565b5b60006110e689828a01610eb9565b96505060206110f789828a01610f17565b955050604061110889828a01610f17565b945050606087013567ffffffffffffffff81111561112957611128610e93565b5b61113589828a01611057565b935050608061114689828a016110a6565b92505060a061115789828a016110a6565b9150509295509295509295565b60008115159050919050565b61117981611164565b82525050565b60006020820190506111946000830184611170565b92915050565b6111a381610eee565b82525050565b60006020820190506111be600083018461119a565b92915050565b600080604083850312156111db576111da610e8e565b5b60006111e985828601610f17565b92505060206111fa858286016110a6565b9150509250929050565b60008060006060848603121561121d5761121c610e8e565b5b600061122b868287016110a6565b935050602061123c86828701610f17565b925050604061124d86828701610f17565b9150509250925092565b61126081611164565b811461126b57600080fd5b50565b60008135905061127d81611257565b92915050565b60006020828403121561129957611298610e8e565b5b60006112a78482850161126e565b91505092915050565b600080604083850312156112c7576112c6610e8e565b5b60006112d585828601610f17565b92505060206112e685828601610f17565b9150509250929050565b6112f981611085565b82525050565b600060208201905061131460008301846112f0565b92915050565b6000602082840312156113305761132f610e8e565b5b600061133e84828501610f17565b91505092915050565b7f4e487b7100000000000000000000000000000000000000000000000000000000600052601260045260246000fd5b7f4e487b7100000000000000000000000000000000000000000000000000000000600052601160045260246000fd5b60006113b082611085565b91506113bb83611085565b9250826113cb576113ca611347565b5b828204905092915050565b7f4e487b7100000000000000000000000000000000000000000000000000000000600052603260045260246000fd5b600061141082611085565b915061141b83611085565b925082820190508082111561143357611432611376565b5b92915050565b61144281610e98565b82525050565b600060408201905061145d6000830185611439565b61146a602083018461119a565b9392505050565b6000606082019050611486600083018661119a565b611493602083018561119a565b6114a060408301846112f0565b949350505050565b6000815190506114b781611257565b92915050565b6000602082840312156114d3576114d2610e8e565b5b60006114e1848285016114a8565b91505092915050565b60006114f582611085565b915061150083611085565b925082820390508181111561151857611517611376565b5b92915050565b6000604082019050611533600083018561119a565b61154060208301846112f0565b9392505050565b600082825260208201905092915050565b7f4f776e61626c653a206e6577206f776e657220697320746865207a65726f206160008201527f6464726573730000000000000000000000000000000000000000000000000000602082015250565b60006115b4602683611547565b91506115bf82611558565b604082019050919050565b600060208201905081810360008301526115e3816115a7565b9050919050565b7f4f776e61626c653a2063616c6c6572206973206e6f7420746865206f776e6572600082015250565b6000611620602083611547565b915061162b826115ea565b602082019050919050565b6000602082019050818103600083015261164f81611613565b9050919050565b600081519050919050565b600081905092915050565b60005b8381101561168a57808201518184015260208101905061166f565b60008484015250505050565b60006116a182611656565b6116ab8185611661565b93506116bb81856020860161166c565b80840191505092915050565b60006116d38284611696565b915081905092915050565b7f5265656e7472616e637947756172643a207265656e7472616e742063616c6c00600082015250565b6000611714601f83611547565b915061171f826116de565b602082019050919050565b6000602082019050818103600083015261174381611707565b905091905056fea264697066735822122026ebac9a6459f16f38363c3b2b05db8a405971d63968bdd77eb2845333e691f864736f6c63430008120033",
  "linkReferences": {},
  "deployedLinkReferences": {}
}