{
  "address": "0x227fa1436eeb76E866e8a36AF0d590B447A40B47",
  "abi": [
    {
      "inputs": [],
      "stateMutability": "nonpayable",
      "type": "constructor"
    },
    {
      "inputs": [],
      "name": "AmountIsZero",
      "type": "error"
    },
    {
      "inputs": [],
      "name": "InvalidInstitutionCode",
      "type": "error"
    },
    {
      "inputs": [
        {
          "internalType": "bytes32",
          "name": "what",
          "type": "bytes32"
        }
      ],
      "name": "InvalidParameter",
      "type": "error"
    },
    {
      "inputs": [],
      "name": "InvalidSigner",
      "type": "error"
    },
    {
      "inputs": [],
      "name": "NotWhitelisted",
      "type": "error"
    },
    {
      "inputs": [],
      "name": "OnlyAggregator",
      "type": "error"
    },
    {
      "inputs": [],
      "name": "OrderFulfilled",
      "type": "error"
    },
    {
      "inputs": [],
      "name": "ThrowZeroAddress",
      "type": "error"
    },
    {
      "inputs": [],
      "name": "ThrowZeroValue",
      "type": "error"
    },
    {
      "inputs": [],
      "name": "TokenNotSupported",
      "type": "error"
    },
    {
      "inputs": [],
      "name": "UnableToProcessRewards",
      "type": "error"
    },
    {
      "inputs": [],
      "name": "Unsuported",
      "type": "error"
    },
    {
      "anonymous": false,
      "inputs": [
        {
          "indexed": true,
          "internalType": "bytes32",
          "name": "orderId",
          "type": "bytes32"
        },
        {
          "indexed": true,
          "internalType": "uint256",
          "name": "amount",
          "type": "uint256"
        },
        {
          "indexed": true,
          "internalType": "uint256",
          "name": "rate",
          "type": "uint256"
        },
        {
          "indexed": false,
          "internalType": "bytes32",
          "name": "institutionCode",
          "type": "bytes32"
        },
        {
          "indexed": false,
          "internalType": "string",
          "name": "messageHash",
          "type": "string"
        }
      ],
      "name": "Deposit",
      "type": "event"
    },
    {
      "anonymous": false,
      "inputs": [
        {
          "indexed": false,
          "internalType": "uint8",
          "name": "version",
          "type": "uint8"
        }
      ],
      "name": "Initialized",
      "type": "event"
    },
    {
      "anonymous": false,
      "inputs": [
        {
          "indexed": true,
          "internalType": "address",
          "name": "previousOwner",
          "type": "address"
        },
        {
          "indexed": true,
          "internalType": "address",
          "name": "newOwner",
          "type": "address"
        }
      ],
      "name": "OwnershipTransferred",
      "type": "event"
    },
    {
      "anonymous": false,
      "inputs": [
        {
          "indexed": false,
          "internalType": "uint128",
          "name": "protocolFee",
          "type": "uint128"
        },
        {
          "indexed": false,
          "internalType": "uint128",
          "name": "validatorFeePercent",
          "type": "uint128"
        }
      ],
      "name": "PaycrestFees",
      "type": "event"
    },
    {
      "anonymous": false,
      "inputs": [
        {
          "indexed": true,
          "internalType": "bytes32",
          "name": "orderId",
          "type": "bytes32"
        }
      ],
      "name": "Refunded",
      "type": "event"
    },
    {
      "anonymous": false,
      "inputs": [
        {
          "indexed": false,
          "internalType": "bytes32",
          "name": "what",
          "type": "bytes32"
        },
        {
          "indexed": false,
          "internalType": "address",
          "name": "value",
          "type": "address"
        },
        {
          "indexed": false,
          "internalType": "bool",
          "name": "status",
          "type": "bool"
        }
      ],
      "name": "SettingManagerBool",
      "type": "event"
    },
    {
      "anonymous": false,
      "inputs": [
        {
          "indexed": false,
          "internalType": "bytes32",
          "name": "what",
          "type": "bytes32"
        },
        {
          "indexed": false,
          "internalType": "bytes8",
          "name": "value",
          "type": "bytes8"
        },
        {
          "indexed": false,
          "internalType": "bytes8",
          "name": "status",
          "type": "bytes8"
        }
      ],
      "name": "SettingManagerForInstitution",
      "type": "event"
    },
    {
      "anonymous": false,
      "inputs": [
        {
          "indexed": true,
          "internalType": "bytes32",
          "name": "orderId",
          "type": "bytes32"
        },
        {
          "indexed": true,
          "internalType": "address",
          "name": "liquidityProvider",
          "type": "address"
        },
        {
          "indexed": false,
          "internalType": "uint96",
          "name": "settlePercent",
          "type": "uint96"
        }
      ],
      "name": "Settled",
      "type": "event"
    },
    {
      "anonymous": false,
      "inputs": [
        {
          "indexed": true,
          "internalType": "address",
          "name": "sender",
          "type": "address"
        },
        {
          "indexed": true,
          "internalType": "uint256",
          "name": "amount",
          "type": "uint256"
        }
      ],
      "name": "TransferSenderFee",
      "type": "event"
    },
    {
      "inputs": [
        {
          "internalType": "address",
          "name": "_token",
          "type": "address"
        },
        {
          "internalType": "uint256",
          "name": "_amount",
          "type": "uint256"
        },
        {
          "internalType": "bytes32",
          "name": "_institutionCode",
          "type": "bytes32"
        },
        {
          "internalType": "uint96",
          "name": "_rate",
          "type": "uint96"
        },
        {
          "internalType": "address",
          "name": "_senderFeeRecipient",
          "type": "address"
        },
        {
          "internalType": "uint256",
          "name": "_senderFee",
          "type": "uint256"
        },
        {
          "internalType": "address",
          "name": "_refundAddress",
          "type": "address"
        },
        {
          "internalType": "string",
          "name": "messageHash",
          "type": "string"
        }
      ],
      "name": "createOrder",
      "outputs": [
        {
          "internalType": "bytes32",
          "name": "orderId",
          "type": "bytes32"
        }
      ],
      "stateMutability": "nonpayable",
      "type": "function"
    },
    {
      "inputs": [],
      "name": "getFeeDetails",
      "outputs": [
        {
          "internalType": "uint128",
          "name": "",
          "type": "uint128"
        },
        {
          "internalType": "uint128",
          "name": "",
          "type": "uint128"
        },
        {
          "internalType": "uint256",
          "name": "",
          "type": "uint256"
        }
      ],
      "stateMutability": "view",
      "type": "function"
    },
    {
      "inputs": [],
      "name": "getLiquidityAggregator",
      "outputs": [
        {
          "internalType": "address",
          "name": "",
          "type": "address"
        }
      ],
      "stateMutability": "view",
      "type": "function"
    },
    {
      "inputs": [
        {
          "internalType": "bytes32",
          "name": "_orderId",
          "type": "bytes32"
        }
      ],
      "name": "getOrderInfo",
      "outputs": [
        {
          "components": [
            {
              "internalType": "address",
              "name": "seller",
              "type": "address"
            },
            {
              "internalType": "address",
              "name": "token",
              "type": "address"
            },
            {
              "internalType": "address",
              "name": "senderFeeRecipient",
              "type": "address"
            },
            {
              "internalType": "uint256",
              "name": "senderFee",
              "type": "uint256"
            },
            {
              "internalType": "uint96",
              "name": "rate",
              "type": "uint96"
            },
            {
              "internalType": "bool",
              "name": "isFulfilled",
              "type": "bool"
            },
            {
              "internalType": "address",
              "name": "refundAddress",
              "type": "address"
            },
            {
              "internalType": "uint96",
              "name": "currentBPS",
              "type": "uint96"
            },
            {
              "internalType": "uint256",
              "name": "amount",
              "type": "uint256"
            }
          ],
          "internalType": "struct IPaycrest.Order",
          "name": "",
          "type": "tuple"
        }
      ],
      "stateMutability": "view",
      "type": "function"
    },
    {
      "inputs": [
        {
          "internalType": "bytes32",
          "name": "code",
          "type": "bytes32"
        }
      ],
      "name": "getSupportedInstitutionName",
      "outputs": [
        {
          "components": [
            {
              "internalType": "bytes32",
              "name": "name",
              "type": "bytes32"
            },
            {
              "internalType": "bytes32",
              "name": "currency",
              "type": "bytes32"
            }
          ],
          "internalType": "struct PaycrestSettingManager.InstitutionByCode",
          "name": "",
          "type": "tuple"
        }
      ],
      "stateMutability": "view",
      "type": "function"
    },
    {
      "inputs": [
        {
          "internalType": "bytes32",
          "name": "currency",
          "type": "bytes32"
        }
      ],
      "name": "getSupportedInstitutions",
      "outputs": [
        {
          "components": [
            {
              "internalType": "bytes32",
              "name": "code",
              "type": "bytes32"
            },
            {
              "internalType": "bytes32",
              "name": "name",
              "type": "bytes32"
            }
          ],
          "internalType": "struct PaycrestSettingManager.Institution[]",
          "name": "",
          "type": "tuple[]"
        }
      ],
      "stateMutability": "view",
      "type": "function"
    },
    {
      "inputs": [
        {
          "internalType": "address",
          "name": "sender",
          "type": "address"
        }
      ],
      "name": "getWhitelistedStatus",
      "outputs": [
        {
          "internalType": "bool",
          "name": "",
          "type": "bool"
        }
      ],
      "stateMutability": "view",
      "type": "function"
    },
    {
      "inputs": [
        {
          "internalType": "address",
          "name": "_usdc",
          "type": "address"
        }
      ],
      "name": "initialize",
      "outputs": [],
      "stateMutability": "nonpayable",
      "type": "function"
    },
    {
      "inputs": [
        {
          "internalType": "address",
          "name": "_token",
          "type": "address"
        }
      ],
      "name": "isTokenSupported",
      "outputs": [
        {
          "internalType": "bool",
          "name": "",
          "type": "bool"
        }
      ],
      "stateMutability": "view",
      "type": "function"
    },
    {
      "inputs": [],
      "name": "owner",
      "outputs": [
        {
          "internalType": "address",
          "name": "",
          "type": "address"
        }
      ],
      "stateMutability": "view",
      "type": "function"
    },
    {
      "inputs": [
        {
          "internalType": "bytes32",
          "name": "_orderId",
          "type": "bytes32"
        }
      ],
      "name": "refund",
      "outputs": [
        {
          "internalType": "bool",
          "name": "",
          "type": "bool"
        }
      ],
      "stateMutability": "nonpayable",
      "type": "function"
    },
    {
      "inputs": [],
      "name": "renounceOwnership",
      "outputs": [],
      "stateMutability": "nonpayable",
      "type": "function"
    },
    {
      "inputs": [
        {
          "internalType": "bytes32",
          "name": "currency",
          "type": "bytes32"
        },
        {
          "components": [
            {
              "internalType": "bytes32",
              "name": "code",
              "type": "bytes32"
            },
            {
              "internalType": "bytes32",
              "name": "name",
              "type": "bytes32"
            }
          ],
          "internalType": "struct PaycrestSettingManager.Institution[]",
          "name": "institutions",
          "type": "tuple[]"
        }
      ],
      "name": "setSupportedInstitutions",
      "outputs": [],
      "stateMutability": "nonpayable",
      "type": "function"
    },
    {
      "inputs": [
        {
          "internalType": "bytes32",
          "name": "what",
          "type": "bytes32"
        },
        {
          "internalType": "address",
          "name": "value",
          "type": "address"
        },
        {
          "internalType": "bool",
          "name": "status",
          "type": "bool"
        }
      ],
      "name": "settingManagerBool",
      "outputs": [],
      "stateMutability": "nonpayable",
      "type": "function"
    },
    {
      "inputs": [
        {
          "internalType": "bytes32",
          "name": "_orderId",
          "type": "bytes32"
        },
        {
          "internalType": "address[]",
          "name": "_validators",
          "type": "address[]"
        },
        {
          "internalType": "address",
          "name": "_liquidityProvider",
          "type": "address"
        },
        {
          "internalType": "uint96",
          "name": "_settlePercent",
          "type": "uint96"
        }
      ],
      "name": "settle",
      "outputs": [
        {
          "internalType": "bool",
          "name": "",
          "type": "bool"
        }
      ],
      "stateMutability": "nonpayable",
      "type": "function"
    },
    {
      "inputs": [
        {
          "internalType": "address",
          "name": "newOwner",
          "type": "address"
        }
      ],
      "name": "transferOwnership",
      "outputs": [],
      "stateMutability": "nonpayable",
      "type": "function"
    },
    {
      "inputs": [
        {
          "internalType": "bytes32",
          "name": "what",
          "type": "bytes32"
        },
        {
          "internalType": "address",
          "name": "value",
          "type": "address"
        }
      ],
      "name": "updateFeeRecipient",
      "outputs": [],
      "stateMutability": "nonpayable",
      "type": "function"
    },
    {
      "inputs": [
        {
          "internalType": "uint128",
          "name": "_protocolFeePercent",
          "type": "uint128"
        },
        {
          "internalType": "uint128",
          "name": "_validatorFeePercent",
          "type": "uint128"
        }
      ],
      "name": "updateProtocolFees",
      "outputs": [],
      "stateMutability": "nonpayable",
      "type": "function"
    }
  ],
  "transactionHash": "0x2337873ed0088ca098492315420723df5e95174b9d1c36766ccb63b2bb780df2",
  "args": [],
  "numDeployments": 1,
  "solcInputHash": "3925bdbcaaff742c00a285d4fc0f21ac",
  "bytecode": "0x60806040523480156200001157600080fd5b50620000226200002860201b60201c565b620001d2565b600060019054906101000a900460ff16156200007b576040517f08c379a0000000000000000000000000000000000000000000000000000000008152600401620000729062000175565b60405180910390fd5b60ff801660008054906101000a900460ff1660ff1614620000ec5760ff6000806101000a81548160ff021916908360ff1602179055507f7f26b83ff96e1f2b6a682f133852f6798a09c465da95921460cefb384740249860ff604051620000e39190620001b5565b60405180910390a15b565b600082825260208201905092915050565b7f496e697469616c697a61626c653a20636f6e747261637420697320696e69746960008201527f616c697a696e6700000000000000000000000000000000000000000000000000602082015250565b60006200015d602783620000ee565b91506200016a82620000ff565b604082019050919050565b6000602082019050818103600083015262000190816200014e565b9050919050565b600060ff82169050919050565b620001af8162000197565b82525050565b6000602082019050620001cc6000830184620001a4565b92915050565b61360b80620001e26000396000f3fe608060405234801561001057600080fd5b50600436106101165760003560e01c80638da5cb5b116100a2578063c4d66de811610071578063c4d66de8146102f5578063d12ff20a14610311578063d8e8de3414610341578063f2fde38b14610371578063f5326b191461038d57610116565b80638da5cb5b1461026b57806399e3c0b414610289578063b810c636146102a5578063bee1ddd0146102c557610116565b8063715018a6116100e9578063715018a6146101a15780637249fbb6146101ab57806375151b63146101db578063768c6ec01461020b57806387490d861461023b57610116565b8063026213381461011b5780632ebc53561461014b57806332200882146101695780633d8f8fb214610185575b600080fd5b61013560048036038101906101309190612504565b6103a9565b604051610142919061261e565b60405180910390f35b6101536104e7565b6040516101609190612681565b60405180910390f35b610183600480360381019061017e919061284a565b610511565b005b61019f600480360381019061019a91906128d2565b610625565b005b6101a96107d7565b005b6101c560048036038101906101c09190612504565b6107eb565b6040516101d2919061292d565b60405180910390f35b6101f560048036038101906101f09190612948565b610a7b565b604051610202919061292d565b60405180910390f35b61022560048036038101906102209190612504565b610ad1565b6040516102329190612a8a565b60405180910390f35b61025560048036038101906102509190612504565b610d02565b6040516102629190612ad5565b60405180910390f35b610273610d43565b6040516102809190612681565b60405180910390f35b6102a3600480360381019061029e9190612b1c565b610d6d565b005b6102ad610f5a565b6040516102bc93929190612ba9565b60405180910390f35b6102df60048036038101906102da9190612c67565b610fab565b6040516102ec919061292d565b60405180910390f35b61030f600480360381019061030a9190612948565b6114f7565b005b61032b60048036038101906103269190612d71565b61170e565b6040516103389190612e56565b60405180910390f35b61035b60048036038101906103569190612948565b611b44565b604051610368919061292d565b60405180910390f35b61038b60048036038101906103869190612948565b611b9a565b005b6103a760048036038101906103a29190612e9d565b611c1d565b005b60606000606c6000848152602001908152602001600020805480602002602001604051908101604052809291908181526020016000905b82821015610426578382906000526020600020906002020160405180604001604052908160008201548152602001600182015481525050815260200190600101906103e0565b50505050905060008151905060008167ffffffffffffffff81111561044e5761044d6126b2565b5b60405190808252806020026020018201604052801561048757816020015b610474612397565b81526020019060019003908161046c5790505b50905060005b828110156104db578381815181106104a8576104a7612edd565b5b60200260200101518282815181106104c3576104c2612edd565b5b6020026020010181905250808060010191505061048d565b50809350505050919050565b6000606960009054906101000a900473ffffffffffffffffffffffffffffffffffffffff16905090565b610519611cd4565b60008151905060005b8181101561061f57606c60008581526020019081526020016000208382815181106105505761054f612edd565b5b602002602001015190806001815401808255809150506001900390600052602060002090600202016000909190919091506000820151816000015560208201518160010155505060405180604001604052808483815181106105b5576105b4612edd565b5b602002602001015160200151815260200185815250606d60008584815181106105e1576105e0612edd565b5b602002602001015160000151815260200190815260200160002060008201518160000155602082015181600101559050508080600101915050610522565b50505050565b61062d611cd4565b600073ffffffffffffffffffffffffffffffffffffffff168173ffffffffffffffffffffffffffffffffffffffff1603610693576040517f9c8e2b5d00000000000000000000000000000000000000000000000000000000815260040160405180910390fd5b7f666565000000000000000000000000000000000000000000000000000000000082036106fc5780606760006101000a81548173ffffffffffffffffffffffffffffffffffffffff021916908373ffffffffffffffffffffffffffffffffffffffff1602179055505b7f61676772656761746f720000000000000000000000000000000000000000000082036107695780606960006101000a81548173ffffffffffffffffffffffffffffffffffffffff021916908373ffffffffffffffffffffffffffffffffffffffff1602179055506107d3565b7f7374616b6500000000000000000000000000000000000000000000000000000082036107d25780606860006101000a81548173ffffffffffffffffffffffffffffffffffffffff021916908373ffffffffffffffffffffffffffffffffffffffff1602179055505b5b5050565b6107df611cd4565b6107e96000611d52565b565b6000606960009054906101000a900473ffffffffffffffffffffffffffffffffffffffff1673ffffffffffffffffffffffffffffffffffffffff163373ffffffffffffffffffffffffffffffffffffffff1614610874576040517fe9d8299200000000000000000000000000000000000000000000000000000000815260040160405180910390fd5b606e6000838152602001908152602001600020600401600c9054906101000a900460ff16156108cf576040517f56f1733f00000000000000000000000000000000000000000000000000000000815260040160405180910390fd5b6001606e6000848152602001908152602001600020600401600c6101000a81548160ff0219169083151502179055506000606e600084815260200190815260200160002060050160146101000a8154816bffffffffffffffffffffffff02191690836bffffffffffffffffffffffff160217905550606e600083815260200190815260200160002060010160009054906101000a900473ffffffffffffffffffffffffffffffffffffffff1673ffffffffffffffffffffffffffffffffffffffff1663a9059cbb606e600085815260200190815260200160002060050160009054906101000a900473ffffffffffffffffffffffffffffffffffffffff16606e6000868152602001908152602001600020600601546040518363ffffffff1660e01b8152600401610a01929190612f0c565b6020604051808303816000875af1158015610a20573d6000803e3d6000fd5b505050506040513d601f19601f82011682018060405250810190610a449190612f4a565b50817ffe509803c09416b28ff3d8f690c8b0c61462a892c46d5430c8fb20abe472daf060405160405180910390a260019050919050565b6000606a60008373ffffffffffffffffffffffffffffffffffffffff1673ffffffffffffffffffffffffffffffffffffffff16815260200190815260200160002060009054906101000a900460ff169050919050565b610ad96123b7565b606e6000838152602001908152602001600020604051806101200160405290816000820160009054906101000a900473ffffffffffffffffffffffffffffffffffffffff1673ffffffffffffffffffffffffffffffffffffffff1673ffffffffffffffffffffffffffffffffffffffff1681526020016001820160009054906101000a900473ffffffffffffffffffffffffffffffffffffffff1673ffffffffffffffffffffffffffffffffffffffff1673ffffffffffffffffffffffffffffffffffffffff1681526020016002820160009054906101000a900473ffffffffffffffffffffffffffffffffffffffff1673ffffffffffffffffffffffffffffffffffffffff1673ffffffffffffffffffffffffffffffffffffffff168152602001600382015481526020016004820160009054906101000a90046bffffffffffffffffffffffff166bffffffffffffffffffffffff166bffffffffffffffffffffffff16815260200160048201600c9054906101000a900460ff161515151581526020016005820160009054906101000a900473ffffffffffffffffffffffffffffffffffffffff1673ffffffffffffffffffffffffffffffffffffffff1673ffffffffffffffffffffffffffffffffffffffff1681526020016005820160149054906101000a90046bffffffffffffffffffffffff166bffffffffffffffffffffffff166bffffffffffffffffffffffff1681526020016006820154815250509050919050565b610d0a612479565b606d6000838152602001908152602001600020604051806040016040529081600082015481526020016001820154815250509050919050565b6000603360009054906101000a900473ffffffffffffffffffffffffffffffffffffffff16905090565b610d75611cd4565b600073ffffffffffffffffffffffffffffffffffffffff168273ffffffffffffffffffffffffffffffffffffffff1603610ddb576040517f9c8e2b5d00000000000000000000000000000000000000000000000000000000815260040160405180910390fd5b7f746f6b656e0000000000000000000000000000000000000000000000000000008303610e5a5780606a60008473ffffffffffffffffffffffffffffffffffffffff1673ffffffffffffffffffffffffffffffffffffffff16815260200190815260200160002060006101000a81548160ff0219169083151502179055505b7f77686974656c69737400000000000000000000000000000000000000000000008303610edd5780606b60008473ffffffffffffffffffffffffffffffffffffffff1673ffffffffffffffffffffffffffffffffffffffff16815260200190815260200160002060006101000a81548160ff021916908315150217905550610f1a565b826040517f48bae5b8000000000000000000000000000000000000000000000000000000008152600401610f119190612e56565b60405180910390fd5b7fe22cadcc5ddbc0a185e8920eaa6825bcc06dcd6b432988e7e9912caa59ace930838383604051610f4d93929190612f77565b60405180910390a1505050565b6000806000606660009054906101000a90046fffffffffffffffffffffffffffffffff16606660109054906101000a90046fffffffffffffffffffffffffffffffff16606554925092509250909192565b6000606960009054906101000a900473ffffffffffffffffffffffffffffffffffffffff1673ffffffffffffffffffffffffffffffffffffffff163373ffffffffffffffffffffffffffffffffffffffff1614611034576040517fe9d8299200000000000000000000000000000000000000000000000000000000815260040160405180910390fd5b606e6000878152602001908152602001600020600401600c9054906101000a900460ff161561108f576040517f56f1733f00000000000000000000000000000000000000000000000000000000815260040160405180910390fd5b6000606e600088815260200190815260200160002060010160009054906101000a900473ffffffffffffffffffffffffffffffffffffffff16905082606e600089815260200190815260200160002060050160148282829054906101000a90046bffffffffffffffffffffffff166111079190612fdd565b92506101000a8154816bffffffffffffffffffffffff02191690836bffffffffffffffffffffffff1602179055506000606e600089815260200190815260200160002060050160149054906101000a90046bffffffffffffffffffffffff166bffffffffffffffffffffffff16036111a9576001606e6000898152602001908152602001600020600401600c6101000a81548160ff0219169083151502179055505b60006111b58885611e18565b90506000606e60008a815260200190815260200160002060030154905060008111156111e5576111e489611f7c565b5b8273ffffffffffffffffffffffffffffffffffffffff1663a9059cbb606760009054906101000a900473ffffffffffffffffffffffffffffffffffffffff1684600001516040518363ffffffff1660e01b8152600401611246929190612f0c565b6020604051808303816000875af1158015611265573d6000803e3d6000fd5b505050506040513d601f19601f820116820180604052508101906112899190612f4a565b508273ffffffffffffffffffffffffffffffffffffffff1663a9059cbb8784602001516040518363ffffffff1660e01b81526004016112c9929190612f0c565b6020604051808303816000875af11580156112e8573d6000803e3d6000fd5b505050506040513d601f19601f8201168201806040525081019061130c9190612f4a565b508273ffffffffffffffffffffffffffffffffffffffff1663a9059cbb606860009054906101000a900473ffffffffffffffffffffffffffffffffffffffff1684604001516040518363ffffffff1660e01b815260040161136e929190612f0c565b6020604051808303816000875af115801561138d573d6000803e3d6000fd5b505050506040513d601f19601f820116820180604052508101906113b19190612f4a565b506000606860009054906101000a900473ffffffffffffffffffffffffffffffffffffffff1673ffffffffffffffffffffffffffffffffffffffff1663d0e02d3a8b868c8c88604001516040518663ffffffff1660e01b815260040161141b9594939291906130d1565b6020604051808303816000875af115801561143a573d6000803e3d6000fd5b505050506040513d601f19601f8201168201806040525081019061145e9190612f4a565b905080611497576040517fbcb00c1600000000000000000000000000000000000000000000000000000000815260040160405180910390fd5b8673ffffffffffffffffffffffffffffffffffffffff168a7fce38752ac5ed47dd3cff11297a4261a0c644be6ca65dc3fc7ae1c3a97c209e33886040516114de919061312e565b60405180910390a3600194505050505095945050505050565b60008060019054906101000a900460ff161590508080156115285750600160008054906101000a900460ff1660ff16105b806115555750611537306120d0565b1580156115545750600160008054906101000a900460ff1660ff16145b5b611594576040517f08c379a000000000000000000000000000000000000000000000000000000000815260040161158b906131cc565b60405180910390fd5b60016000806101000a81548160ff021916908360ff16021790555080156115d1576001600060016101000a81548160ff0219169083151502179055505b6001606a60008473ffffffffffffffffffffffffffffffffffffffff1673ffffffffffffffffffffffffffffffffffffffff16815260200190815260200160002060006101000a81548160ff021916908315150217905550620186a0606581905550611388606660006101000a8154816fffffffffffffffffffffffffffffffff02191690836fffffffffffffffffffffffffffffffff1602179055506101f4606660106101000a8154816fffffffffffffffffffffffffffffffff02191690836fffffffffffffffffffffffffffffffff1602179055506116b16120f3565b801561170a5760008060016101000a81548160ff0219169083151502179055507f7f26b83ff96e1f2b6a682f133852f6798a09c465da95921460cefb38474024986001604051611701919061323e565b60405180910390a15b5050565b600061171d8a8a86898c61214c565b8973ffffffffffffffffffffffffffffffffffffffff166323b872dd33308c6040518463ffffffff1660e01b815260040161175a93929190613259565b6020604051808303816000875af1158015611779573d6000803e3d6000fd5b505050506040513d601f19601f8201168201806040525081019061179d9190612f4a565b50606f60003373ffffffffffffffffffffffffffffffffffffffff1673ffffffffffffffffffffffffffffffffffffffff16815260200190815260200160002060008154809291906117ee90613290565b919050555033606f60003373ffffffffffffffffffffffffffffffffffffffff1673ffffffffffffffffffffffffffffffffffffffff16815260200190815260200160002054604051602001611845929190612f0c565b6040516020818303038152906040528051906020012090506040518061012001604052803373ffffffffffffffffffffffffffffffffffffffff1681526020018b73ffffffffffffffffffffffffffffffffffffffff1681526020018773ffffffffffffffffffffffffffffffffffffffff168152602001868152602001886bffffffffffffffffffffffff1681526020016000151581526020018573ffffffffffffffffffffffffffffffffffffffff1681526020016065546bffffffffffffffffffffffff1681526020018a815250606e600083815260200190815260200160002060008201518160000160006101000a81548173ffffffffffffffffffffffffffffffffffffffff021916908373ffffffffffffffffffffffffffffffffffffffff16021790555060208201518160010160006101000a81548173ffffffffffffffffffffffffffffffffffffffff021916908373ffffffffffffffffffffffffffffffffffffffff16021790555060408201518160020160006101000a81548173ffffffffffffffffffffffffffffffffffffffff021916908373ffffffffffffffffffffffffffffffffffffffff1602179055506060820151816003015560808201518160040160006101000a8154816bffffffffffffffffffffffff02191690836bffffffffffffffffffffffff16021790555060a082015181600401600c6101000a81548160ff02191690831515021790555060c08201518160050160006101000a81548173ffffffffffffffffffffffffffffffffffffffff021916908373ffffffffffffffffffffffffffffffffffffffff16021790555060e08201518160050160146101000a8154816bffffffffffffffffffffffff02191690836bffffffffffffffffffffffff1602179055506101008201518160060155905050866bffffffffffffffffffffffff1689827fbcd03c92e4cfe8dc461872f6cd67c811155fa7d92c918619e82e6b6b44733e7e8b8787604051611b2f93929190613314565b60405180910390a49998505050505050505050565b6000606b60008373ffffffffffffffffffffffffffffffffffffffff1673ffffffffffffffffffffffffffffffffffffffff16815260200190815260200160002060009054906101000a900460ff169050919050565b611ba2611cd4565b600073ffffffffffffffffffffffffffffffffffffffff168173ffffffffffffffffffffffffffffffffffffffff1603611c11576040517f08c379a0000000000000000000000000000000000000000000000000000000008152600401611c08906133b8565b60405180910390fd5b611c1a81611d52565b50565b611c25611cd4565b81606660006101000a8154816fffffffffffffffffffffffffffffffff02191690836fffffffffffffffffffffffffffffffff16021790555080606660106101000a8154816fffffffffffffffffffffffffffffffff02191690836fffffffffffffffffffffffffffffffff1602179055507fe38926c5806b98a6fd00c5d791a36fbd196537fe48d11c45c9f1d0acd1ea74df8282604051611cc89291906133d8565b60405180910390a15050565b611cdc61232e565b73ffffffffffffffffffffffffffffffffffffffff16611cfa610d43565b73ffffffffffffffffffffffffffffffffffffffff1614611d50576040517f08c379a0000000000000000000000000000000000000000000000000000000008152600401611d479061344d565b60405180910390fd5b565b6000603360009054906101000a900473ffffffffffffffffffffffffffffffffffffffff16905081603360006101000a81548173ffffffffffffffffffffffffffffffffffffffff021916908373ffffffffffffffffffffffffffffffffffffffff1602179055508173ffffffffffffffffffffffffffffffffffffffff168173ffffffffffffffffffffffffffffffffffffffff167f8be0079c531659141344cd1fd0a4f28419497f9722a3daafe3b4186f6b6457e060405160405180910390a35050565b611e20612499565b6000606e6000858152602001908152602001600020600601549050606e60008581526020019081526020016000206003015481611e5d919061346d565b9050606554836bffffffffffffffffffffffff1682611e7c91906134a1565b611e869190613512565b826020018181525050606554606660009054906101000a90046fffffffffffffffffffffffffffffffff166fffffffffffffffffffffffffffffffff168360200151611ed291906134a1565b611edc9190613512565b82600001818152505081600001518260200151611ef9919061346d565b826020018181525050606554606660109054906101000a90046fffffffffffffffffffffffffffffffff166fffffffffffffffffffffffffffffffff168360000151611f4591906134a1565b611f4f9190613512565b82604001818152505081604001518260000151611f6c919061346d565b8260000181815250505092915050565b6000606e600083815260200190815260200160002060020160009054906101000a900473ffffffffffffffffffffffffffffffffffffffff1690506000606e6000848152602001908152602001600020600301549050606e600084815260200190815260200160002060010160009054906101000a900473ffffffffffffffffffffffffffffffffffffffff1673ffffffffffffffffffffffffffffffffffffffff1663a9059cbb83836040518363ffffffff1660e01b8152600401612043929190612f0c565b6020604051808303816000875af1158015612062573d6000803e3d6000fd5b505050506040513d601f19601f820116820180604052508101906120869190612f4a565b50808273ffffffffffffffffffffffffffffffffffffffff167f96c76d5aec8a8c11a9c8e02768e3fa309347330d08961e0cf9fd43b349b684c260405160405180910390a3505050565b6000808273ffffffffffffffffffffffffffffffffffffffff163b119050919050565b600060019054906101000a900460ff16612142576040517f08c379a0000000000000000000000000000000000000000000000000000000008152600401612139906135b5565b60405180910390fd5b61214a612336565b565b606a60008673ffffffffffffffffffffffffffffffffffffffff1673ffffffffffffffffffffffffffffffffffffffff16815260200190815260200160002060009054906101000a900460ff166121cf576040517f3dd1b30500000000000000000000000000000000000000000000000000000000815260040160405180910390fd5b60008403612209576040517f43ad20fc00000000000000000000000000000000000000000000000000000000815260040160405180910390fd5b600073ffffffffffffffffffffffffffffffffffffffff168373ffffffffffffffffffffffffffffffffffffffff160361226f576040517f9c8e2b5d00000000000000000000000000000000000000000000000000000000815260040160405180910390fd5b600073ffffffffffffffffffffffffffffffffffffffff168273ffffffffffffffffffffffffffffffffffffffff16036122d5576040517f9c8e2b5d00000000000000000000000000000000000000000000000000000000815260040160405180910390fd5b6000801b606d60008381526020019081526020016000206000015403612327576040517f38f5fc3500000000000000000000000000000000000000000000000000000000815260040160405180910390fd5b5050505050565b600033905090565b600060019054906101000a900460ff16612385576040517f08c379a000000000000000000000000000000000000000000000000000000000815260040161237c906135b5565b60405180910390fd5b61239561239061232e565b611d52565b565b604051806040016040528060008019168152602001600080191681525090565b604051806101200160405280600073ffffffffffffffffffffffffffffffffffffffff168152602001600073ffffffffffffffffffffffffffffffffffffffff168152602001600073ffffffffffffffffffffffffffffffffffffffff1681526020016000815260200160006bffffffffffffffffffffffff168152602001600015158152602001600073ffffffffffffffffffffffffffffffffffffffff16815260200160006bffffffffffffffffffffffff168152602001600081525090565b604051806040016040528060008019168152602001600080191681525090565b60405180606001604052806000815260200160008152602001600081525090565b6000604051905090565b600080fd5b600080fd5b6000819050919050565b6124e1816124ce565b81146124ec57600080fd5b50565b6000813590506124fe816124d8565b92915050565b60006020828403121561251a576125196124c4565b5b6000612528848285016124ef565b91505092915050565b600081519050919050565b600082825260208201905092915050565b6000819050602082019050919050565b612566816124ce565b82525050565b604082016000820151612582600085018261255d565b506020820151612595602085018261255d565b50505050565b60006125a7838361256c565b60408301905092915050565b6000602082019050919050565b60006125cb82612531565b6125d5818561253c565b93506125e08361254d565b8060005b838110156126115781516125f8888261259b565b9750612603836125b3565b9250506001810190506125e4565b5085935050505092915050565b6000602082019050818103600083015261263881846125c0565b905092915050565b600073ffffffffffffffffffffffffffffffffffffffff82169050919050565b600061266b82612640565b9050919050565b61267b81612660565b82525050565b60006020820190506126966000830184612672565b92915050565b600080fd5b6000601f19601f8301169050919050565b7f4e487b7100000000000000000000000000000000000000000000000000000000600052604160045260246000fd5b6126ea826126a1565b810181811067ffffffffffffffff82111715612709576127086126b2565b5b80604052505050565b600061271c6124ba565b905061272882826126e1565b919050565b600067ffffffffffffffff821115612748576127476126b2565b5b602082029050602081019050919050565b600080fd5b600080fd5b6000604082840312156127795761277861275e565b5b6127836040612712565b90506000612793848285016124ef565b60008301525060206127a7848285016124ef565b60208301525092915050565b60006127c66127c18461272d565b612712565b905080838252602082019050604084028301858111156127e9576127e8612759565b5b835b8181101561281257806127fe8882612763565b8452602084019350506040810190506127eb565b5050509392505050565b600082601f8301126128315761283061269c565b5b81356128418482602086016127b3565b91505092915050565b60008060408385031215612861576128606124c4565b5b600061286f858286016124ef565b925050602083013567ffffffffffffffff8111156128905761288f6124c9565b5b61289c8582860161281c565b9150509250929050565b6128af81612660565b81146128ba57600080fd5b50565b6000813590506128cc816128a6565b92915050565b600080604083850312156128e9576128e86124c4565b5b60006128f7858286016124ef565b9250506020612908858286016128bd565b9150509250929050565b60008115159050919050565b61292781612912565b82525050565b6000602082019050612942600083018461291e565b92915050565b60006020828403121561295e5761295d6124c4565b5b600061296c848285016128bd565b91505092915050565b61297e81612660565b82525050565b6000819050919050565b61299781612984565b82525050565b60006bffffffffffffffffffffffff82169050919050565b6129be8161299d565b82525050565b6129cd81612912565b82525050565b610120820160008201516129ea6000850182612975565b5060208201516129fd6020850182612975565b506040820151612a106040850182612975565b506060820151612a23606085018261298e565b506080820151612a3660808501826129b5565b5060a0820151612a4960a08501826129c4565b5060c0820151612a5c60c0850182612975565b5060e0820151612a6f60e08501826129b5565b50610100820151612a8461010085018261298e565b50505050565b600061012082019050612aa060008301846129d3565b92915050565b604082016000820151612abc600085018261255d565b506020820151612acf602085018261255d565b50505050565b6000604082019050612aea6000830184612aa6565b92915050565b612af981612912565b8114612b0457600080fd5b50565b600081359050612b1681612af0565b92915050565b600080600060608486031215612b3557612b346124c4565b5b6000612b43868287016124ef565b9350506020612b54868287016128bd565b9250506040612b6586828701612b07565b9150509250925092565b60006fffffffffffffffffffffffffffffffff82169050919050565b612b9481612b6f565b82525050565b612ba381612984565b82525050565b6000606082019050612bbe6000830186612b8b565b612bcb6020830185612b8b565b612bd86040830184612b9a565b949350505050565b600080fd5b60008083601f840112612bfb57612bfa61269c565b5b8235905067ffffffffffffffff811115612c1857612c17612be0565b5b602083019150836020820283011115612c3457612c33612759565b5b9250929050565b612c448161299d565b8114612c4f57600080fd5b50565b600081359050612c6181612c3b565b92915050565b600080600080600060808688031215612c8357612c826124c4565b5b6000612c91888289016124ef565b955050602086013567ffffffffffffffff811115612cb257612cb16124c9565b5b612cbe88828901612be5565b94509450506040612cd1888289016128bd565b9250506060612ce288828901612c52565b9150509295509295909350565b612cf881612984565b8114612d0357600080fd5b50565b600081359050612d1581612cef565b92915050565b60008083601f840112612d3157612d3061269c565b5b8235905067ffffffffffffffff811115612d4e57612d4d612be0565b5b602083019150836001820283011115612d6a57612d69612759565b5b9250929050565b60008060008060008060008060006101008a8c031215612d9457612d936124c4565b5b6000612da28c828d016128bd565b9950506020612db38c828d01612d06565b9850506040612dc48c828d016124ef565b9750506060612dd58c828d01612c52565b9650506080612de68c828d016128bd565b95505060a0612df78c828d01612d06565b94505060c0612e088c828d016128bd565b93505060e08a013567ffffffffffffffff811115612e2957612e286124c9565b5b612e358c828d01612d1b565b92509250509295985092959850929598565b612e50816124ce565b82525050565b6000602082019050612e6b6000830184612e47565b92915050565b612e7a81612b6f565b8114612e8557600080fd5b50565b600081359050612e9781612e71565b92915050565b60008060408385031215612eb457612eb36124c4565b5b6000612ec285828601612e88565b9250506020612ed385828601612e88565b9150509250929050565b7f4e487b7100000000000000000000000000000000000000000000000000000000600052603260045260246000fd5b6000604082019050612f216000830185612672565b612f2e6020830184612b9a565b9392505050565b600081519050612f4481612af0565b92915050565b600060208284031215612f6057612f5f6124c4565b5b6000612f6e84828501612f35565b91505092915050565b6000606082019050612f8c6000830186612e47565b612f996020830185612672565b612fa6604083018461291e565b949350505050565b7f4e487b7100000000000000000000000000000000000000000000000000000000600052601160045260246000fd5b6000612fe88261299d565b9150612ff38361299d565b925082820390506bffffffffffffffffffffffff81111561301757613016612fae565b5b92915050565b600082825260208201905092915050565b6000819050919050565b60006130448383612975565b60208301905092915050565b600061305f60208401846128bd565b905092915050565b6000602082019050919050565b6000613080838561301d565b935061308b8261302e565b8060005b858110156130c4576130a18284613050565b6130ab8882613038565b97506130b683613067565b92505060018101905061308f565b5085925050509392505050565b60006080820190506130e66000830188612e47565b6130f36020830187612672565b8181036040830152613106818587613074565b90506131156060830184612b9a565b9695505050505050565b6131288161299d565b82525050565b6000602082019050613143600083018461311f565b92915050565b600082825260208201905092915050565b7f496e697469616c697a61626c653a20636f6e747261637420697320616c72656160008201527f647920696e697469616c697a6564000000000000000000000000000000000000602082015250565b60006131b6602e83613149565b91506131c18261315a565b604082019050919050565b600060208201905081810360008301526131e5816131a9565b9050919050565b6000819050919050565b600060ff82169050919050565b6000819050919050565b600061322861322361321e846131ec565b613203565b6131f6565b9050919050565b6132388161320d565b82525050565b6000602082019050613253600083018461322f565b92915050565b600060608201905061326e6000830186612672565b61327b6020830185612672565b6132886040830184612b9a565b949350505050565b600061329b82612984565b91507fffffffffffffffffffffffffffffffffffffffffffffffffffffffffffffffff82036132cd576132cc612fae565b5b600182019050919050565b82818337600083830152505050565b60006132f38385613149565b93506133008385846132d8565b613309836126a1565b840190509392505050565b60006040820190506133296000830186612e47565b818103602083015261333c8184866132e7565b9050949350505050565b7f4f776e61626c653a206e6577206f776e657220697320746865207a65726f206160008201527f6464726573730000000000000000000000000000000000000000000000000000602082015250565b60006133a2602683613149565b91506133ad82613346565b604082019050919050565b600060208201905081810360008301526133d181613395565b9050919050565b60006040820190506133ed6000830185612b8b565b6133fa6020830184612b8b565b9392505050565b7f4f776e61626c653a2063616c6c6572206973206e6f7420746865206f776e6572600082015250565b6000613437602083613149565b915061344282613401565b602082019050919050565b600060208201905081810360008301526134668161342a565b9050919050565b600061347882612984565b915061348383612984565b925082820390508181111561349b5761349a612fae565b5b92915050565b60006134ac82612984565b91506134b783612984565b92508282026134c581612984565b915082820484148315176134dc576134db612fae565b5b5092915050565b7f4e487b7100000000000000000000000000000000000000000000000000000000600052601260045260246000fd5b600061351d82612984565b915061352883612984565b925082613538576135376134e3565b5b828204905092915050565b7f496e697469616c697a61626c653a20636f6e7472616374206973206e6f74206960008201527f6e697469616c697a696e67000000000000000000000000000000000000000000602082015250565b600061359f602b83613149565b91506135aa82613543565b604082019050919050565b600060208201905081810360008301526135ce81613592565b905091905056fea26469706673582212200f3ea9be984d2c4e827900e4287b94c2e0a4de0ef5c5a2ff7585a2a9820ad03b64736f6c63430008120033",
  "devdoc": {
    "events": {
      "Deposit(bytes32,uint256,uint256,bytes32,string)": {
        "details": "Emitted when deposit is made."
      },
      "Initialized(uint8)": {
        "details": "Triggered when the contract has been initialized or reinitialized."
      },
      "Refunded(bytes32)": {
        "details": "Emitted when aggregator refund transaction."
      },
      "Settled(bytes32,address,uint96)": {
        "details": "Emitted when aggregator settle transaction."
      },
      "TransferSenderFee(address,uint256)": {
        "details": "Emitted when sender get therir rewards."
      }
    },
    "kind": "dev",
    "methods": {
      "constructor": {
        "custom:oz-upgrades-unsafe-allow": "constructor"
      },
      "createOrder(address,uint256,bytes32,uint96,address,uint256,address,string)": {
        "details": "See {createOrder-IPaycrest}. "
      },
      "getFeeDetails()": {
        "details": "See {getFeeDetails-IPaycrest}. "
      },
      "getLiquidityAggregator()": {
        "details": "See {getLiquidityAggregator-IPaycrest}. "
      },
      "getOrderInfo(bytes32)": {
        "details": "See {getOrderInfo-IPaycrest}. "
      },
      "getSupportedInstitutionName(bytes32)": {
        "details": "See {getSupportedInstitutionName-IPaycrest}. "
      },
      "getWhitelistedStatus(address)": {
        "details": "See {getWhitelistedStatus-IPaycrest}. "
      },
      "isTokenSupported(address)": {
        "details": "See {isTokenSupported-IPaycrest}. "
      },
      "owner()": {
        "details": "Returns the address of the current owner."
      },
      "refund(bytes32)": {
        "details": "See {refund-IPaycrest}. "
      },
      "renounceOwnership()": {
        "details": "Leaves the contract without owner. It will not be possible to call `onlyOwner` functions. Can only be called by the current owner. NOTE: Renouncing ownership will leave the contract without an owner, thereby disabling any functionality that is only available to the owner."
      },
      "settle(bytes32,address[],address,uint96)": {
        "details": "See {settle-IPaycrest}. "
      },
      "transferOwnership(address)": {
        "details": "Transfers ownership of the contract to a new account (`newOwner`). Can only be called by the current owner."
      }
    },
    "version": 1
  },
  "userdoc": {
    "errors": {
      "AmountIsZero()": [
        {
          "notice": "Revert when input amount is zero"
        }
      ],
      "InvalidParameter(bytes32)": [
        {
          "notice": "Revert when zero address is passed in"
        }
      ],
      "InvalidSigner()": [
        {
          "notice": "Revert with invalid signer"
        }
      ],
      "OnlyAggregator()": [
        {
          "notice": "Revert when caller is not an aggregator"
        }
      ],
      "OrderFulfilled()": [
        {
          "notice": "Revert when trx has been fulfilled"
        }
      ],
      "ThrowZeroAddress()": [
        {
          "notice": "Revert when zero address is passed in"
        }
      ],
      "ThrowZeroValue()": [
        {
          "notice": "Revert when zero address is passed in"
        }
      ],
      "TokenNotSupported()": [
        {
          "notice": "Revert when invalid token is provided"
        }
      ],
      "UnableToProcessRewards()": [
        {
          "notice": "Revert when rewards are not been distributed."
        }
      ],
      "Unsuported()": [
        {
          "notice": "Revert when input amount is zero"
        }
      ]
    },
    "kind": "user",
    "methods": {},
    "version": 1
  },
  "storageLayout": {
    "storage": [
      {
        "astId": 138,
        "contract": "contracts/Paycrest.sol:Paycrest",
        "label": "_initialized",
        "offset": 0,
        "slot": "0",
        "type": "t_uint8"
      },
      {
        "astId": 141,
        "contract": "contracts/Paycrest.sol:Paycrest",
        "label": "_initializing",
        "offset": 1,
        "slot": "0",
        "type": "t_bool"
      },
      {
        "astId": 1245,
        "contract": "contracts/Paycrest.sol:Paycrest",
        "label": "__gap",
        "offset": 0,
        "slot": "1",
        "type": "t_array(t_uint256)50_storage"
      },
      {
        "astId": 10,
        "contract": "contracts/Paycrest.sol:Paycrest",
        "label": "_owner",
        "offset": 0,
        "slot": "51",
        "type": "t_address"
      },
      {
        "astId": 130,
        "contract": "contracts/Paycrest.sol:Paycrest",
        "label": "__gap",
        "offset": 0,
        "slot": "52",
        "type": "t_array(t_uint256)49_storage"
      },
      {
        "astId": 3600,
        "contract": "contracts/Paycrest.sol:Paycrest",
        "label": "MAX_BPS",
        "offset": 0,
        "slot": "101",
        "type": "t_uint256"
      },
      {
        "astId": 3602,
        "contract": "contracts/Paycrest.sol:Paycrest",
        "label": "protocolFeePercent",
        "offset": 0,
        "slot": "102",
        "type": "t_uint128"
      },
      {
        "astId": 3604,
        "contract": "contracts/Paycrest.sol:Paycrest",
        "label": "validatorFeePercent",
        "offset": 16,
        "slot": "102",
        "type": "t_uint128"
      },
      {
        "astId": 3606,
        "contract": "contracts/Paycrest.sol:Paycrest",
        "label": "feeRecipient",
        "offset": 0,
        "slot": "103",
        "type": "t_address"
      },
      {
        "astId": 3608,
        "contract": "contracts/Paycrest.sol:Paycrest",
        "label": "PaycrestStakingContract",
        "offset": 0,
        "slot": "104",
        "type": "t_address"
      },
      {
        "astId": 3610,
        "contract": "contracts/Paycrest.sol:Paycrest",
        "label": "_liquidityAggregator",
        "offset": 0,
        "slot": "105",
        "type": "t_address"
      },
      {
        "astId": 3614,
        "contract": "contracts/Paycrest.sol:Paycrest",
        "label": "_isTokenSupported",
        "offset": 0,
        "slot": "106",
        "type": "t_mapping(t_address,t_bool)"
      },
      {
        "astId": 3618,
        "contract": "contracts/Paycrest.sol:Paycrest",
        "label": "_isWhitelisted",
        "offset": 0,
        "slot": "107",
        "type": "t_mapping(t_address,t_bool)"
      },
      {
        "astId": 3624,
        "contract": "contracts/Paycrest.sol:Paycrest",
        "label": "supportedInstitutions",
        "offset": 0,
        "slot": "108",
        "type": "t_mapping(t_bytes32,t_array(t_struct(Institution)3593_storage)dyn_storage)"
      },
      {
        "astId": 3629,
        "contract": "contracts/Paycrest.sol:Paycrest",
        "label": "supportedInstitutionsByCode",
        "offset": 0,
        "slot": "109",
        "type": "t_mapping(t_bytes32,t_struct(InstitutionByCode)3598_storage)"
      },
      {
        "astId": 2924,
        "contract": "contracts/Paycrest.sol:Paycrest",
        "label": "order",
        "offset": 0,
        "slot": "110",
        "type": "t_mapping(t_bytes32,t_struct(Order)4323_storage)"
      },
      {
        "astId": 2928,
        "contract": "contracts/Paycrest.sol:Paycrest",
        "label": "_nonce",
        "offset": 0,
        "slot": "111",
        "type": "t_mapping(t_address,t_uint256)"
      }
    ],
    "types": {
      "t_address": {
        "encoding": "inplace",
        "label": "address",
        "numberOfBytes": "20"
      },
      "t_array(t_struct(Institution)3593_storage)dyn_storage": {
        "base": "t_struct(Institution)3593_storage",
        "encoding": "dynamic_array",
        "label": "struct PaycrestSettingManager.Institution[]",
        "numberOfBytes": "32"
      },
      "t_array(t_uint256)49_storage": {
        "base": "t_uint256",
        "encoding": "inplace",
        "label": "uint256[49]",
        "numberOfBytes": "1568"
      },
      "t_array(t_uint256)50_storage": {
        "base": "t_uint256",
        "encoding": "inplace",
        "label": "uint256[50]",
        "numberOfBytes": "1600"
      },
      "t_bool": {
        "encoding": "inplace",
        "label": "bool",
        "numberOfBytes": "1"
      },
      "t_bytes32": {
        "encoding": "inplace",
        "label": "bytes32",
        "numberOfBytes": "32"
      },
      "t_mapping(t_address,t_bool)": {
        "encoding": "mapping",
        "key": "t_address",
        "label": "mapping(address => bool)",
        "numberOfBytes": "32",
        "value": "t_bool"
      },
      "t_mapping(t_address,t_uint256)": {
        "encoding": "mapping",
        "key": "t_address",
        "label": "mapping(address => uint256)",
        "numberOfBytes": "32",
        "value": "t_uint256"
      },
      "t_mapping(t_bytes32,t_array(t_struct(Institution)3593_storage)dyn_storage)": {
        "encoding": "mapping",
        "key": "t_bytes32",
        "label": "mapping(bytes32 => struct PaycrestSettingManager.Institution[])",
        "numberOfBytes": "32",
        "value": "t_array(t_struct(Institution)3593_storage)dyn_storage"
      },
      "t_mapping(t_bytes32,t_struct(InstitutionByCode)3598_storage)": {
        "encoding": "mapping",
        "key": "t_bytes32",
        "label": "mapping(bytes32 => struct PaycrestSettingManager.InstitutionByCode)",
        "numberOfBytes": "32",
        "value": "t_struct(InstitutionByCode)3598_storage"
      },
      "t_mapping(t_bytes32,t_struct(Order)4323_storage)": {
        "encoding": "mapping",
        "key": "t_bytes32",
        "label": "mapping(bytes32 => struct IPaycrest.Order)",
        "numberOfBytes": "32",
        "value": "t_struct(Order)4323_storage"
      },
      "t_struct(Institution)3593_storage": {
        "encoding": "inplace",
        "label": "struct PaycrestSettingManager.Institution",
        "members": [
          {
            "astId": 3590,
            "contract": "contracts/Paycrest.sol:Paycrest",
            "label": "code",
            "offset": 0,
            "slot": "0",
            "type": "t_bytes32"
          },
          {
            "astId": 3592,
            "contract": "contracts/Paycrest.sol:Paycrest",
            "label": "name",
            "offset": 0,
            "slot": "1",
            "type": "t_bytes32"
          }
        ],
        "numberOfBytes": "64"
      },
      "t_struct(InstitutionByCode)3598_storage": {
        "encoding": "inplace",
        "label": "struct PaycrestSettingManager.InstitutionByCode",
        "members": [
          {
            "astId": 3595,
            "contract": "contracts/Paycrest.sol:Paycrest",
            "label": "name",
            "offset": 0,
            "slot": "0",
            "type": "t_bytes32"
          },
          {
            "astId": 3597,
            "contract": "contracts/Paycrest.sol:Paycrest",
            "label": "currency",
            "offset": 0,
            "slot": "1",
            "type": "t_bytes32"
          }
        ],
        "numberOfBytes": "64"
      },
      "t_struct(Order)4323_storage": {
        "encoding": "inplace",
        "label": "struct IPaycrest.Order",
        "members": [
          {
            "astId": 4306,
            "contract": "contracts/Paycrest.sol:Paycrest",
            "label": "seller",
            "offset": 0,
            "slot": "0",
            "type": "t_address"
          },
          {
            "astId": 4308,
            "contract": "contracts/Paycrest.sol:Paycrest",
            "label": "token",
            "offset": 0,
            "slot": "1",
            "type": "t_address"
          },
          {
            "astId": 4310,
            "contract": "contracts/Paycrest.sol:Paycrest",
            "label": "senderFeeRecipient",
            "offset": 0,
            "slot": "2",
            "type": "t_address"
          },
          {
            "astId": 4312,
            "contract": "contracts/Paycrest.sol:Paycrest",
            "label": "senderFee",
            "offset": 0,
            "slot": "3",
            "type": "t_uint256"
          },
          {
            "astId": 4314,
            "contract": "contracts/Paycrest.sol:Paycrest",
            "label": "rate",
            "offset": 0,
            "slot": "4",
            "type": "t_uint96"
          },
          {
            "astId": 4316,
            "contract": "contracts/Paycrest.sol:Paycrest",
            "label": "isFulfilled",
            "offset": 12,
            "slot": "4",
            "type": "t_bool"
          },
          {
            "astId": 4318,
            "contract": "contracts/Paycrest.sol:Paycrest",
            "label": "refundAddress",
            "offset": 0,
            "slot": "5",
            "type": "t_address"
          },
          {
            "astId": 4320,
            "contract": "contracts/Paycrest.sol:Paycrest",
            "label": "currentBPS",
            "offset": 20,
            "slot": "5",
            "type": "t_uint96"
          },
          {
            "astId": 4322,
            "contract": "contracts/Paycrest.sol:Paycrest",
            "label": "amount",
            "offset": 0,
            "slot": "6",
            "type": "t_uint256"
          }
        ],
        "numberOfBytes": "224"
      },
      "t_uint128": {
        "encoding": "inplace",
        "label": "uint128",
        "numberOfBytes": "16"
      },
      "t_uint256": {
        "encoding": "inplace",
        "label": "uint256",
        "numberOfBytes": "32"
      },
      "t_uint8": {
        "encoding": "inplace",
        "label": "uint8",
        "numberOfBytes": "1"
      },
      "t_uint96": {
        "encoding": "inplace",
        "label": "uint96",
        "numberOfBytes": "12"
      }
    }
  }
}