{
  "address": "0x2476aBF8B523625f548cFAA446324fe61eeD69FC",
  "abi": [
    {
      "inputs": [],
      "stateMutability": "nonpayable",
      "type": "constructor"
    },
    {
      "inputs": [],
      "name": "AmountIsZero",
      "type": "error"
    },
    {
      "inputs": [],
      "name": "InvalidInstitutionCode",
      "type": "error"
    },
    {
      "inputs": [
        {
          "internalType": "bytes32",
          "name": "what",
          "type": "bytes32"
        }
      ],
      "name": "InvalidParameter",
      "type": "error"
    },
    {
      "inputs": [],
      "name": "InvalidSigner",
      "type": "error"
    },
    {
      "inputs": [],
      "name": "NotWhitelisted",
      "type": "error"
    },
    {
      "inputs": [],
      "name": "OnlyAggregator",
      "type": "error"
    },
    {
      "inputs": [],
      "name": "OrderFulfilled",
      "type": "error"
    },
    {
      "inputs": [],
      "name": "ThrowZeroAddress",
      "type": "error"
    },
    {
      "inputs": [],
      "name": "ThrowZeroValue",
      "type": "error"
    },
    {
      "inputs": [],
      "name": "TokenNotSupported",
      "type": "error"
    },
    {
      "inputs": [],
      "name": "UnableToProcessRewards",
      "type": "error"
    },
    {
      "inputs": [],
      "name": "Unsuported",
      "type": "error"
    },
    {
      "anonymous": false,
      "inputs": [
        {
          "indexed": true,
          "internalType": "bytes32",
          "name": "orderId",
          "type": "bytes32"
        },
        {
          "indexed": true,
          "internalType": "uint256",
          "name": "amount",
          "type": "uint256"
        },
        {
          "indexed": true,
          "internalType": "uint256",
          "name": "rate",
          "type": "uint256"
        },
        {
          "indexed": false,
          "internalType": "bytes32",
          "name": "institutionCode",
          "type": "bytes32"
        },
        {
          "indexed": false,
          "internalType": "string",
          "name": "messageHash",
          "type": "string"
        }
      ],
      "name": "Deposit",
      "type": "event"
    },
    {
      "anonymous": false,
      "inputs": [
        {
          "indexed": false,
          "internalType": "uint8",
          "name": "version",
          "type": "uint8"
        }
      ],
      "name": "Initialized",
      "type": "event"
    },
    {
      "anonymous": false,
      "inputs": [
        {
          "indexed": true,
          "internalType": "address",
          "name": "previousOwner",
          "type": "address"
        },
        {
          "indexed": true,
          "internalType": "address",
          "name": "newOwner",
          "type": "address"
        }
      ],
      "name": "OwnershipTransferred",
      "type": "event"
    },
    {
      "anonymous": false,
      "inputs": [
        {
          "indexed": false,
          "internalType": "uint64",
          "name": "protocolFee",
          "type": "uint64"
        },
        {
          "indexed": false,
          "internalType": "uint64",
          "name": "primaryValidator",
          "type": "uint64"
        },
        {
          "indexed": false,
          "internalType": "uint64",
          "name": "secondaryValidator",
          "type": "uint64"
        }
      ],
      "name": "PaycrestFees",
      "type": "event"
    },
    {
      "anonymous": false,
      "inputs": [
        {
          "indexed": true,
          "internalType": "bytes32",
          "name": "orderId",
          "type": "bytes32"
        }
      ],
      "name": "Refunded",
      "type": "event"
    },
    {
      "anonymous": false,
      "inputs": [
        {
          "indexed": false,
          "internalType": "bytes32",
          "name": "what",
          "type": "bytes32"
        },
        {
          "indexed": false,
          "internalType": "address",
          "name": "value",
          "type": "address"
        },
        {
          "indexed": false,
          "internalType": "bool",
          "name": "status",
          "type": "bool"
        }
      ],
      "name": "SettingManagerBool",
      "type": "event"
    },
    {
      "anonymous": false,
      "inputs": [
        {
          "indexed": false,
          "internalType": "bytes32",
          "name": "what",
          "type": "bytes32"
        },
        {
          "indexed": false,
          "internalType": "bytes8",
          "name": "value",
          "type": "bytes8"
        },
        {
          "indexed": false,
          "internalType": "bytes8",
          "name": "status",
          "type": "bytes8"
        }
      ],
      "name": "SettingManagerForInstitution",
      "type": "event"
    },
    {
      "anonymous": false,
      "inputs": [
        {
          "indexed": true,
          "internalType": "bytes32",
          "name": "orderId",
          "type": "bytes32"
        },
        {
          "indexed": true,
          "internalType": "address",
          "name": "liquidityProvider",
          "type": "address"
        },
        {
          "indexed": false,
          "internalType": "uint96",
          "name": "settlePercent",
          "type": "uint96"
        }
      ],
      "name": "Settled",
      "type": "event"
    },
    {
      "anonymous": false,
      "inputs": [
        {
          "indexed": true,
          "internalType": "address",
          "name": "sender",
          "type": "address"
        },
        {
          "indexed": true,
          "internalType": "uint256",
          "name": "amount",
          "type": "uint256"
        }
      ],
      "name": "TransferSenderFee",
      "type": "event"
    },
    {
      "inputs": [
        {
          "internalType": "address",
          "name": "_token",
          "type": "address"
        },
        {
          "internalType": "uint256",
          "name": "_amount",
          "type": "uint256"
        },
        {
          "internalType": "bytes32",
          "name": "_institutionCode",
          "type": "bytes32"
        },
        {
          "internalType": "uint96",
          "name": "_rate",
          "type": "uint96"
        },
        {
          "internalType": "address",
          "name": "_senderFeeRecipient",
          "type": "address"
        },
        {
          "internalType": "uint256",
          "name": "_senderFee",
          "type": "uint256"
        },
        {
          "internalType": "address",
          "name": "_refundAddress",
          "type": "address"
        },
        {
          "internalType": "string",
          "name": "messageHash",
          "type": "string"
        }
      ],
      "name": "createOrder",
      "outputs": [
        {
          "internalType": "bytes32",
          "name": "orderId",
          "type": "bytes32"
        }
      ],
      "stateMutability": "nonpayable",
      "type": "function"
    },
    {
      "inputs": [],
      "name": "getFeeDetails",
      "outputs": [
        {
          "internalType": "uint64",
          "name": "",
          "type": "uint64"
        },
        {
          "internalType": "uint64",
          "name": "",
          "type": "uint64"
        },
        {
          "internalType": "uint64",
          "name": "",
          "type": "uint64"
        },
        {
          "internalType": "uint256",
          "name": "",
          "type": "uint256"
        }
      ],
      "stateMutability": "view",
      "type": "function"
    },
    {
      "inputs": [],
      "name": "getLiquidityAggregator",
      "outputs": [
        {
          "internalType": "address",
          "name": "",
          "type": "address"
        }
      ],
      "stateMutability": "view",
      "type": "function"
    },
    {
      "inputs": [
        {
          "internalType": "bytes32",
          "name": "_orderId",
          "type": "bytes32"
        }
      ],
      "name": "getOrderInfo",
      "outputs": [
        {
          "components": [
            {
              "internalType": "address",
              "name": "seller",
              "type": "address"
            },
            {
              "internalType": "address",
              "name": "token",
              "type": "address"
            },
            {
              "internalType": "address",
              "name": "senderFeeRecipient",
              "type": "address"
            },
            {
              "internalType": "uint256",
              "name": "senderFee",
              "type": "uint256"
            },
            {
              "internalType": "uint96",
              "name": "rate",
              "type": "uint96"
            },
            {
              "internalType": "bool",
              "name": "isFulfilled",
              "type": "bool"
            },
            {
              "internalType": "address",
              "name": "refundAddress",
              "type": "address"
            },
            {
              "internalType": "uint96",
              "name": "currentBPS",
              "type": "uint96"
            },
            {
              "internalType": "uint256",
              "name": "amount",
              "type": "uint256"
            }
          ],
          "internalType": "struct IPaycrest.Order",
          "name": "",
          "type": "tuple"
        }
      ],
      "stateMutability": "view",
      "type": "function"
    },
    {
      "inputs": [
        {
          "internalType": "bytes32",
          "name": "code",
          "type": "bytes32"
        }
      ],
      "name": "getSupportedInstitutionName",
      "outputs": [
        {
          "components": [
            {
              "internalType": "bytes32",
              "name": "name",
              "type": "bytes32"
            },
            {
              "internalType": "bytes32",
              "name": "currency",
              "type": "bytes32"
            }
          ],
          "internalType": "struct PaycrestSettingManager.InstitutionByCode",
          "name": "",
          "type": "tuple"
        }
      ],
      "stateMutability": "view",
      "type": "function"
    },
    {
      "inputs": [
        {
          "internalType": "bytes32",
          "name": "currency",
          "type": "bytes32"
        }
      ],
      "name": "getSupportedInstitutions",
      "outputs": [
        {
          "components": [
            {
              "internalType": "bytes32",
              "name": "code",
              "type": "bytes32"
            },
            {
              "internalType": "bytes32",
              "name": "name",
              "type": "bytes32"
            }
          ],
          "internalType": "struct PaycrestSettingManager.Institution[]",
          "name": "",
          "type": "tuple[]"
        }
      ],
      "stateMutability": "view",
      "type": "function"
    },
    {
      "inputs": [
        {
          "internalType": "address",
          "name": "sender",
          "type": "address"
        }
      ],
      "name": "getWhitelistedStatus",
      "outputs": [
        {
          "internalType": "bool",
          "name": "",
          "type": "bool"
        }
      ],
      "stateMutability": "view",
      "type": "function"
    },
    {
      "inputs": [
        {
          "internalType": "address",
          "name": "_usdc",
          "type": "address"
        }
      ],
      "name": "initialize",
      "outputs": [],
      "stateMutability": "nonpayable",
      "type": "function"
    },
    {
      "inputs": [
        {
          "internalType": "address",
          "name": "_token",
          "type": "address"
        }
      ],
      "name": "isTokenSupported",
      "outputs": [
        {
          "internalType": "bool",
          "name": "",
          "type": "bool"
        }
      ],
      "stateMutability": "view",
      "type": "function"
    },
    {
      "inputs": [],
      "name": "owner",
      "outputs": [
        {
          "internalType": "address",
          "name": "",
          "type": "address"
        }
      ],
      "stateMutability": "view",
      "type": "function"
    },
    {
      "inputs": [
        {
          "internalType": "bytes32",
          "name": "_orderId",
          "type": "bytes32"
        }
      ],
      "name": "refund",
      "outputs": [
        {
          "internalType": "bool",
          "name": "",
          "type": "bool"
        }
      ],
      "stateMutability": "nonpayable",
      "type": "function"
    },
    {
      "inputs": [],
      "name": "renounceOwnership",
      "outputs": [],
      "stateMutability": "nonpayable",
      "type": "function"
    },
    {
      "inputs": [
        {
          "internalType": "bytes32",
          "name": "currency",
          "type": "bytes32"
        },
        {
          "components": [
            {
              "internalType": "bytes32",
              "name": "code",
              "type": "bytes32"
            },
            {
              "internalType": "bytes32",
              "name": "name",
              "type": "bytes32"
            }
          ],
          "internalType": "struct PaycrestSettingManager.Institution[]",
          "name": "institutions",
          "type": "tuple[]"
        }
      ],
      "name": "setSupportedInstitutions",
      "outputs": [],
      "stateMutability": "nonpayable",
      "type": "function"
    },
    {
      "inputs": [
        {
          "internalType": "bytes32",
          "name": "what",
          "type": "bytes32"
        },
        {
          "internalType": "address",
          "name": "value",
          "type": "address"
        },
        {
          "internalType": "bool",
          "name": "status",
          "type": "bool"
        }
      ],
      "name": "settingManagerBool",
      "outputs": [],
      "stateMutability": "nonpayable",
      "type": "function"
    },
    {
      "inputs": [
        {
          "internalType": "bytes32",
          "name": "_orderId",
          "type": "bytes32"
        },
        {
          "internalType": "address",
          "name": "_primaryValidator",
          "type": "address"
        },
        {
          "internalType": "address[]",
          "name": "_secondaryValidators",
          "type": "address[]"
        },
        {
          "internalType": "address",
          "name": "_liquidityProvider",
          "type": "address"
        },
        {
          "internalType": "uint96",
          "name": "_settlePercent",
          "type": "uint96"
        }
      ],
      "name": "settle",
      "outputs": [
        {
          "internalType": "bool",
          "name": "",
          "type": "bool"
        }
      ],
      "stateMutability": "nonpayable",
      "type": "function"
    },
    {
      "inputs": [
        {
          "internalType": "address",
          "name": "newOwner",
          "type": "address"
        }
      ],
      "name": "transferOwnership",
      "outputs": [],
      "stateMutability": "nonpayable",
      "type": "function"
    },
    {
      "inputs": [
        {
          "internalType": "bytes32",
          "name": "what",
          "type": "bytes32"
        },
        {
          "internalType": "address",
          "name": "value",
          "type": "address"
        }
      ],
      "name": "updateFeeRecipient",
      "outputs": [],
      "stateMutability": "nonpayable",
      "type": "function"
    },
    {
      "inputs": [
        {
          "internalType": "uint64",
          "name": "_protocolFeePercent",
          "type": "uint64"
        },
        {
          "internalType": "uint64",
          "name": "_primaryValidatorPercent",
          "type": "uint64"
        },
        {
          "internalType": "uint64",
          "name": "_secondaryValidatorPercent",
          "type": "uint64"
        }
      ],
      "name": "updateProtocolFees",
      "outputs": [],
      "stateMutability": "nonpayable",
      "type": "function"
    }
  ],
  "transactionHash": "0x479498a2012986ace5e395c5fb90caa1d15579223dc1107fb43d4de602c12c5b",
  "args": [],
  "numDeployments": 1,
  "solcInputHash": "7d09daaf96b15f1467dac43a2aa05c56",
  "bytecode": "0x6080604052620186a0606555611388606660006101000a81548167ffffffffffffffff021916908367ffffffffffffffff1602179055506101f4606660086101000a81548167ffffffffffffffff021916908367ffffffffffffffff1602179055506101f4606660106101000a81548167ffffffffffffffff021916908367ffffffffffffffff1602179055503480156200009957600080fd5b50620000aa620000b060201b60201c565b6200025a565b600060019054906101000a900460ff161562000103576040517f08c379a0000000000000000000000000000000000000000000000000000000008152600401620000fa90620001fd565b60405180910390fd5b60ff801660008054906101000a900460ff1660ff1614620001745760ff6000806101000a81548160ff021916908360ff1602179055507f7f26b83ff96e1f2b6a682f133852f6798a09c465da95921460cefb384740249860ff6040516200016b91906200023d565b60405180910390a15b565b600082825260208201905092915050565b7f496e697469616c697a61626c653a20636f6e747261637420697320696e69746960008201527f616c697a696e6700000000000000000000000000000000000000000000000000602082015250565b6000620001e560278362000176565b9150620001f28262000187565b604082019050919050565b600060208201905081810360008301526200021881620001d6565b9050919050565b600060ff82169050919050565b62000237816200021f565b82525050565b60006020820190506200025460008301846200022c565b92915050565b613680806200026a6000396000f3fe608060405234801561001057600080fd5b50600436106101165760003560e01c806387490d86116100a2578063c4d66de811610071578063c4d66de8146102e2578063d12ff20a146102fe578063d8e8de341461032e578063e5b32cdf1461035e578063f2fde38b1461038e57610116565b806387490d86146102575780638da5cb5b1461028757806399e3c0b4146102a5578063b810c636146102c157610116565b8063715018a6116100e9578063715018a6146101a15780637249fbb6146101ab57806375151b63146101db578063764bc3551461020b578063768c6ec01461022757610116565b8063026213381461011b5780632ebc53561461014b57806332200882146101695780633d8f8fb214610185575b600080fd5b610135600480360381019061013091906124f0565b6103aa565b604051610142919061260a565b60405180910390f35b6101536104e8565b604051610160919061266d565b60405180910390f35b610183600480360381019061017e9190612836565b610512565b005b61019f600480360381019061019a91906128be565b610626565b005b6101a96107d8565b005b6101c560048036038101906101c091906124f0565b6107ec565b6040516101d29190612919565b60405180910390f35b6101f560048036038101906101f09190612934565b610a7c565b6040516102029190612919565b60405180910390f35b610225600480360381019061022091906129a1565b610ad2565b005b610241600480360381019061023c91906124f0565b610b95565b60405161024e9190612b09565b60405180910390f35b610271600480360381019061026c91906124f0565b610dc6565b60405161027e9190612b54565b60405180910390f35b61028f610e07565b60405161029c919061266d565b60405180910390f35b6102bf60048036038101906102ba9190612b9b565b610e31565b005b6102c961101e565b6040516102d99493929190612c0c565b60405180910390f35b6102fc60048036038101906102f79190612934565b61107a565b005b61031860048036038101906103139190612d04565b611211565b6040516103259190612de9565b60405180910390f35b61034860048036038101906103439190612934565b611647565b6040516103559190612919565b60405180910390f35b61037860048036038101906103739190612e5a565b61169d565b6040516103859190612919565b60405180910390f35b6103a860048036038101906103a39190612934565b611c01565b005b60606000606c6000848152602001908152602001600020805480602002602001604051908101604052809291908181526020016000905b82821015610427578382906000526020600020906002020160405180604001604052908160008201548152602001600182015481525050815260200190600101906103e1565b50505050905060008151905060008167ffffffffffffffff81111561044f5761044e61269e565b5b60405190808252806020026020018201604052801561048857816020015b61047561237c565b81526020019060019003908161046d5790505b50905060005b828110156104dc578381815181106104a9576104a8612ef4565b5b60200260200101518282815181106104c4576104c3612ef4565b5b6020026020010181905250808060010191505061048e565b50809350505050919050565b6000606960009054906101000a900473ffffffffffffffffffffffffffffffffffffffff16905090565b61051a611c84565b60008151905060005b8181101561062057606c600085815260200190815260200160002083828151811061055157610550612ef4565b5b602002602001015190806001815401808255809150506001900390600052602060002090600202016000909190919091506000820151816000015560208201518160010155505060405180604001604052808483815181106105b6576105b5612ef4565b5b602002602001015160200151815260200185815250606d60008584815181106105e2576105e1612ef4565b5b602002602001015160000151815260200190815260200160002060008201518160000155602082015181600101559050508080600101915050610523565b50505050565b61062e611c84565b600073ffffffffffffffffffffffffffffffffffffffff168173ffffffffffffffffffffffffffffffffffffffff1603610694576040517f9c8e2b5d00000000000000000000000000000000000000000000000000000000815260040160405180910390fd5b7f666565000000000000000000000000000000000000000000000000000000000082036106fd5780606760006101000a81548173ffffffffffffffffffffffffffffffffffffffff021916908373ffffffffffffffffffffffffffffffffffffffff1602179055505b7f61676772656761746f7200000000000000000000000000000000000000000000820361076a5780606960006101000a81548173ffffffffffffffffffffffffffffffffffffffff021916908373ffffffffffffffffffffffffffffffffffffffff1602179055506107d4565b7f7374616b6500000000000000000000000000000000000000000000000000000082036107d35780606860006101000a81548173ffffffffffffffffffffffffffffffffffffffff021916908373ffffffffffffffffffffffffffffffffffffffff1602179055505b5b5050565b6107e0611c84565b6107ea6000611d02565b565b6000606960009054906101000a900473ffffffffffffffffffffffffffffffffffffffff1673ffffffffffffffffffffffffffffffffffffffff163373ffffffffffffffffffffffffffffffffffffffff1614610875576040517fe9d8299200000000000000000000000000000000000000000000000000000000815260040160405180910390fd5b606e6000838152602001908152602001600020600401600c9054906101000a900460ff16156108d0576040517f56f1733f00000000000000000000000000000000000000000000000000000000815260040160405180910390fd5b6001606e6000848152602001908152602001600020600401600c6101000a81548160ff0219169083151502179055506000606e600084815260200190815260200160002060050160146101000a8154816bffffffffffffffffffffffff02191690836bffffffffffffffffffffffff160217905550606e600083815260200190815260200160002060010160009054906101000a900473ffffffffffffffffffffffffffffffffffffffff1673ffffffffffffffffffffffffffffffffffffffff1663a9059cbb606e600085815260200190815260200160002060050160009054906101000a900473ffffffffffffffffffffffffffffffffffffffff16606e6000868152602001908152602001600020600601546040518363ffffffff1660e01b8152600401610a02929190612f23565b6020604051808303816000875af1158015610a21573d6000803e3d6000fd5b505050506040513d601f19601f82011682018060405250810190610a459190612f61565b50817ffe509803c09416b28ff3d8f690c8b0c61462a892c46d5430c8fb20abe472daf060405160405180910390a260019050919050565b6000606a60008373ffffffffffffffffffffffffffffffffffffffff1673ffffffffffffffffffffffffffffffffffffffff16815260200190815260200160002060009054906101000a900460ff169050919050565b610ada611c84565b82606660006101000a81548167ffffffffffffffff021916908367ffffffffffffffff16021790555081606660086101000a81548167ffffffffffffffff021916908367ffffffffffffffff16021790555080606660106101000a81548167ffffffffffffffff021916908367ffffffffffffffff1602179055507fced6b79f1325154aec329e6ff932857cb4f91fa8eb4c6791ce5b460f47995758838383604051610b8893929190612f8e565b60405180910390a1505050565b610b9d61239c565b606e6000838152602001908152602001600020604051806101200160405290816000820160009054906101000a900473ffffffffffffffffffffffffffffffffffffffff1673ffffffffffffffffffffffffffffffffffffffff1673ffffffffffffffffffffffffffffffffffffffff1681526020016001820160009054906101000a900473ffffffffffffffffffffffffffffffffffffffff1673ffffffffffffffffffffffffffffffffffffffff1673ffffffffffffffffffffffffffffffffffffffff1681526020016002820160009054906101000a900473ffffffffffffffffffffffffffffffffffffffff1673ffffffffffffffffffffffffffffffffffffffff1673ffffffffffffffffffffffffffffffffffffffff168152602001600382015481526020016004820160009054906101000a90046bffffffffffffffffffffffff166bffffffffffffffffffffffff166bffffffffffffffffffffffff16815260200160048201600c9054906101000a900460ff161515151581526020016005820160009054906101000a900473ffffffffffffffffffffffffffffffffffffffff1673ffffffffffffffffffffffffffffffffffffffff1673ffffffffffffffffffffffffffffffffffffffff1681526020016005820160149054906101000a90046bffffffffffffffffffffffff166bffffffffffffffffffffffff166bffffffffffffffffffffffff1681526020016006820154815250509050919050565b610dce61245e565b606d6000838152602001908152602001600020604051806040016040529081600082015481526020016001820154815250509050919050565b6000603360009054906101000a900473ffffffffffffffffffffffffffffffffffffffff16905090565b610e39611c84565b600073ffffffffffffffffffffffffffffffffffffffff168273ffffffffffffffffffffffffffffffffffffffff1603610e9f576040517f9c8e2b5d00000000000000000000000000000000000000000000000000000000815260040160405180910390fd5b7f746f6b656e0000000000000000000000000000000000000000000000000000008303610f1e5780606a60008473ffffffffffffffffffffffffffffffffffffffff1673ffffffffffffffffffffffffffffffffffffffff16815260200190815260200160002060006101000a81548160ff0219169083151502179055505b7f77686974656c69737400000000000000000000000000000000000000000000008303610fa15780606b60008473ffffffffffffffffffffffffffffffffffffffff1673ffffffffffffffffffffffffffffffffffffffff16815260200190815260200160002060006101000a81548160ff021916908315150217905550610fde565b826040517f48bae5b8000000000000000000000000000000000000000000000000000000008152600401610fd59190612de9565b60405180910390fd5b7fe22cadcc5ddbc0a185e8920eaa6825bcc06dcd6b432988e7e9912caa59ace93083838360405161101193929190612fc5565b60405180910390a1505050565b600080600080606660009054906101000a900467ffffffffffffffff16606660089054906101000a900467ffffffffffffffff16606660109054906101000a900467ffffffffffffffff16606554935093509350935090919293565b60008060019054906101000a900460ff161590508080156110ab5750600160008054906101000a900460ff1660ff16105b806110d857506110ba30611dc8565b1580156110d75750600160008054906101000a900460ff1660ff16145b5b611117576040517f08c379a000000000000000000000000000000000000000000000000000000000815260040161110e9061307f565b60405180910390fd5b60016000806101000a81548160ff021916908360ff1602179055508015611154576001600060016101000a81548160ff0219169083151502179055505b6001606a60008473ffffffffffffffffffffffffffffffffffffffff1673ffffffffffffffffffffffffffffffffffffffff16815260200190815260200160002060006101000a81548160ff0219169083151502179055506111b4611deb565b801561120d5760008060016101000a81548160ff0219169083151502179055507f7f26b83ff96e1f2b6a682f133852f6798a09c465da95921460cefb3847402498600160405161120491906130f1565b60405180910390a15b5050565b60006112208a8a86898c611e44565b8973ffffffffffffffffffffffffffffffffffffffff166323b872dd33308c6040518463ffffffff1660e01b815260040161125d9392919061310c565b6020604051808303816000875af115801561127c573d6000803e3d6000fd5b505050506040513d601f19601f820116820180604052508101906112a09190612f61565b50606f60003373ffffffffffffffffffffffffffffffffffffffff1673ffffffffffffffffffffffffffffffffffffffff16815260200190815260200160002060008154809291906112f190613172565b919050555033606f60003373ffffffffffffffffffffffffffffffffffffffff1673ffffffffffffffffffffffffffffffffffffffff16815260200190815260200160002054604051602001611348929190612f23565b6040516020818303038152906040528051906020012090506040518061012001604052803373ffffffffffffffffffffffffffffffffffffffff1681526020018b73ffffffffffffffffffffffffffffffffffffffff1681526020018773ffffffffffffffffffffffffffffffffffffffff168152602001868152602001886bffffffffffffffffffffffff1681526020016000151581526020018573ffffffffffffffffffffffffffffffffffffffff1681526020016065546bffffffffffffffffffffffff1681526020018a815250606e600083815260200190815260200160002060008201518160000160006101000a81548173ffffffffffffffffffffffffffffffffffffffff021916908373ffffffffffffffffffffffffffffffffffffffff16021790555060208201518160010160006101000a81548173ffffffffffffffffffffffffffffffffffffffff021916908373ffffffffffffffffffffffffffffffffffffffff16021790555060408201518160020160006101000a81548173ffffffffffffffffffffffffffffffffffffffff021916908373ffffffffffffffffffffffffffffffffffffffff1602179055506060820151816003015560808201518160040160006101000a8154816bffffffffffffffffffffffff02191690836bffffffffffffffffffffffff16021790555060a082015181600401600c6101000a81548160ff02191690831515021790555060c08201518160050160006101000a81548173ffffffffffffffffffffffffffffffffffffffff021916908373ffffffffffffffffffffffffffffffffffffffff16021790555060e08201518160050160146101000a8154816bffffffffffffffffffffffff02191690836bffffffffffffffffffffffff1602179055506101008201518160060155905050866bffffffffffffffffffffffff1689827fbcd03c92e4cfe8dc461872f6cd67c811155fa7d92c918619e82e6b6b44733e7e8b8787604051611632939291906131f6565b60405180910390a49998505050505050505050565b6000606b60008373ffffffffffffffffffffffffffffffffffffffff1673ffffffffffffffffffffffffffffffffffffffff16815260200190815260200160002060009054906101000a900460ff169050919050565b6000606960009054906101000a900473ffffffffffffffffffffffffffffffffffffffff1673ffffffffffffffffffffffffffffffffffffffff163373ffffffffffffffffffffffffffffffffffffffff1614611726576040517fe9d8299200000000000000000000000000000000000000000000000000000000815260040160405180910390fd5b606e6000888152602001908152602001600020600401600c9054906101000a900460ff1615611781576040517f56f1733f00000000000000000000000000000000000000000000000000000000815260040160405180910390fd5b6000606e600089815260200190815260200160002060010160009054906101000a900473ffffffffffffffffffffffffffffffffffffffff16905082606e60008a815260200190815260200160002060050160148282829054906101000a90046bffffffffffffffffffffffff166117f99190613228565b92506101000a8154816bffffffffffffffffffffffff02191690836bffffffffffffffffffffffff1602179055506000606e60008a815260200190815260200160002060050160149054906101000a90046bffffffffffffffffffffffff166bffffffffffffffffffffffff160361189b576001606e60008a8152602001908152602001600020600401600c6101000a81548160ff0219169083151502179055505b60006118a78985612026565b90506000606e60008b815260200190815260200160002060030154905060008111156118d7576118d68a6121bf565b5b8273ffffffffffffffffffffffffffffffffffffffff1663a9059cbb606760009054906101000a900473ffffffffffffffffffffffffffffffffffffffff1684600001516040518363ffffffff1660e01b8152600401611938929190612f23565b6020604051808303816000875af1158015611957573d6000803e3d6000fd5b505050506040513d601f19601f8201168201806040525081019061197b9190612f61565b508273ffffffffffffffffffffffffffffffffffffffff1663a9059cbb8784602001516040518363ffffffff1660e01b81526004016119bb929190612f23565b6020604051808303816000875af11580156119da573d6000803e3d6000fd5b505050506040513d601f19601f820116820180604052508101906119fe9190612f61565b508273ffffffffffffffffffffffffffffffffffffffff1663a9059cbb606860009054906101000a900473ffffffffffffffffffffffffffffffffffffffff1684606001518560400151611a529190613268565b6040518363ffffffff1660e01b8152600401611a6f929190612f23565b6020604051808303816000875af1158015611a8e573d6000803e3d6000fd5b505050506040513d601f19601f82011682018060405250810190611ab29190612f61565b506000606860009054906101000a900473ffffffffffffffffffffffffffffffffffffffff1673ffffffffffffffffffffffffffffffffffffffff16634a223c368c868d8d8d89604001518a606001516040518863ffffffff1660e01b8152600401611b249796959493929190613350565b6020604051808303816000875af1158015611b43573d6000803e3d6000fd5b505050506040513d601f19601f82011682018060405250810190611b679190612f61565b905080611ba0576040517fbcb00c1600000000000000000000000000000000000000000000000000000000815260040160405180910390fd5b8673ffffffffffffffffffffffffffffffffffffffff168b7fce38752ac5ed47dd3cff11297a4261a0c644be6ca65dc3fc7ae1c3a97c209e3388604051611be791906133c9565b60405180910390a360019450505050509695505050505050565b611c09611c84565b600073ffffffffffffffffffffffffffffffffffffffff168173ffffffffffffffffffffffffffffffffffffffff1603611c78576040517f08c379a0000000000000000000000000000000000000000000000000000000008152600401611c6f90613456565b60405180910390fd5b611c8181611d02565b50565b611c8c612313565b73ffffffffffffffffffffffffffffffffffffffff16611caa610e07565b73ffffffffffffffffffffffffffffffffffffffff1614611d00576040517f08c379a0000000000000000000000000000000000000000000000000000000008152600401611cf7906134c2565b60405180910390fd5b565b6000603360009054906101000a900473ffffffffffffffffffffffffffffffffffffffff16905081603360006101000a81548173ffffffffffffffffffffffffffffffffffffffff021916908373ffffffffffffffffffffffffffffffffffffffff1602179055508173ffffffffffffffffffffffffffffffffffffffff168173ffffffffffffffffffffffffffffffffffffffff167f8be0079c531659141344cd1fd0a4f28419497f9722a3daafe3b4186f6b6457e060405160405180910390a35050565b6000808273ffffffffffffffffffffffffffffffffffffffff163b119050919050565b600060019054906101000a900460ff16611e3a576040517f08c379a0000000000000000000000000000000000000000000000000000000008152600401611e3190613554565b60405180910390fd5b611e4261231b565b565b606a60008673ffffffffffffffffffffffffffffffffffffffff1673ffffffffffffffffffffffffffffffffffffffff16815260200190815260200160002060009054906101000a900460ff16611ec7576040517f3dd1b30500000000000000000000000000000000000000000000000000000000815260040160405180910390fd5b60008403611f01576040517f43ad20fc00000000000000000000000000000000000000000000000000000000815260040160405180910390fd5b600073ffffffffffffffffffffffffffffffffffffffff168373ffffffffffffffffffffffffffffffffffffffff1603611f67576040517f9c8e2b5d00000000000000000000000000000000000000000000000000000000815260040160405180910390fd5b600073ffffffffffffffffffffffffffffffffffffffff168273ffffffffffffffffffffffffffffffffffffffff1603611fcd576040517f9c8e2b5d00000000000000000000000000000000000000000000000000000000815260040160405180910390fd5b6000801b606d6000838152602001908152602001600020600001540361201f576040517f38f5fc3500000000000000000000000000000000000000000000000000000000815260040160405180910390fd5b5050505050565b61202e61247e565b6000606e6000858152602001908152602001600020600601549050606e6000858152602001908152602001600020600301548161206b9190613574565b9050606554836bffffffffffffffffffffffff168261208a91906135a8565b6120949190613619565b826020018181525050606554606660009054906101000a900467ffffffffffffffff1667ffffffffffffffff1683602001516120d091906135a8565b6120da9190613619565b826000018181525050816000015182602001516120f79190613574565b826020018181525050606554606660089054906101000a900467ffffffffffffffff1667ffffffffffffffff16836000015161213391906135a8565b61213d9190613619565b826040018181525050606554606660109054906101000a900467ffffffffffffffff1667ffffffffffffffff16836000015161217991906135a8565b6121839190613619565b826060018181525050816060015182604001516121a09190613268565b82600001516121af9190613574565b8260000181815250505092915050565b6000606e600083815260200190815260200160002060020160009054906101000a900473ffffffffffffffffffffffffffffffffffffffff1690506000606e6000848152602001908152602001600020600301549050606e600084815260200190815260200160002060010160009054906101000a900473ffffffffffffffffffffffffffffffffffffffff1673ffffffffffffffffffffffffffffffffffffffff1663a9059cbb83836040518363ffffffff1660e01b8152600401612286929190612f23565b6020604051808303816000875af11580156122a5573d6000803e3d6000fd5b505050506040513d601f19601f820116820180604052508101906122c99190612f61565b50808273ffffffffffffffffffffffffffffffffffffffff167f96c76d5aec8a8c11a9c8e02768e3fa309347330d08961e0cf9fd43b349b684c260405160405180910390a3505050565b600033905090565b600060019054906101000a900460ff1661236a576040517f08c379a000000000000000000000000000000000000000000000000000000000815260040161236190613554565b60405180910390fd5b61237a612375612313565b611d02565b565b604051806040016040528060008019168152602001600080191681525090565b604051806101200160405280600073ffffffffffffffffffffffffffffffffffffffff168152602001600073ffffffffffffffffffffffffffffffffffffffff168152602001600073ffffffffffffffffffffffffffffffffffffffff1681526020016000815260200160006bffffffffffffffffffffffff168152602001600015158152602001600073ffffffffffffffffffffffffffffffffffffffff16815260200160006bffffffffffffffffffffffff168152602001600081525090565b604051806040016040528060008019168152602001600080191681525090565b6040518060800160405280600081526020016000815260200160008152602001600081525090565b6000604051905090565b600080fd5b600080fd5b6000819050919050565b6124cd816124ba565b81146124d857600080fd5b50565b6000813590506124ea816124c4565b92915050565b600060208284031215612506576125056124b0565b5b6000612514848285016124db565b91505092915050565b600081519050919050565b600082825260208201905092915050565b6000819050602082019050919050565b612552816124ba565b82525050565b60408201600082015161256e6000850182612549565b5060208201516125816020850182612549565b50505050565b60006125938383612558565b60408301905092915050565b6000602082019050919050565b60006125b78261251d565b6125c18185612528565b93506125cc83612539565b8060005b838110156125fd5781516125e48882612587565b97506125ef8361259f565b9250506001810190506125d0565b5085935050505092915050565b6000602082019050818103600083015261262481846125ac565b905092915050565b600073ffffffffffffffffffffffffffffffffffffffff82169050919050565b60006126578261262c565b9050919050565b6126678161264c565b82525050565b6000602082019050612682600083018461265e565b92915050565b600080fd5b6000601f19601f8301169050919050565b7f4e487b7100000000000000000000000000000000000000000000000000000000600052604160045260246000fd5b6126d68261268d565b810181811067ffffffffffffffff821117156126f5576126f461269e565b5b80604052505050565b60006127086124a6565b905061271482826126cd565b919050565b600067ffffffffffffffff8211156127345761273361269e565b5b602082029050602081019050919050565b600080fd5b600080fd5b6000604082840312156127655761276461274a565b5b61276f60406126fe565b9050600061277f848285016124db565b6000830152506020612793848285016124db565b60208301525092915050565b60006127b26127ad84612719565b6126fe565b905080838252602082019050604084028301858111156127d5576127d4612745565b5b835b818110156127fe57806127ea888261274f565b8452602084019350506040810190506127d7565b5050509392505050565b600082601f83011261281d5761281c612688565b5b813561282d84826020860161279f565b91505092915050565b6000806040838503121561284d5761284c6124b0565b5b600061285b858286016124db565b925050602083013567ffffffffffffffff81111561287c5761287b6124b5565b5b61288885828601612808565b9150509250929050565b61289b8161264c565b81146128a657600080fd5b50565b6000813590506128b881612892565b92915050565b600080604083850312156128d5576128d46124b0565b5b60006128e3858286016124db565b92505060206128f4858286016128a9565b9150509250929050565b60008115159050919050565b612913816128fe565b82525050565b600060208201905061292e600083018461290a565b92915050565b60006020828403121561294a576129496124b0565b5b6000612958848285016128a9565b91505092915050565b600067ffffffffffffffff82169050919050565b61297e81612961565b811461298957600080fd5b50565b60008135905061299b81612975565b92915050565b6000806000606084860312156129ba576129b96124b0565b5b60006129c88682870161298c565b93505060206129d98682870161298c565b92505060406129ea8682870161298c565b9150509250925092565b6129fd8161264c565b82525050565b6000819050919050565b612a1681612a03565b82525050565b60006bffffffffffffffffffffffff82169050919050565b612a3d81612a1c565b82525050565b612a4c816128fe565b82525050565b61012082016000820151612a6960008501826129f4565b506020820151612a7c60208501826129f4565b506040820151612a8f60408501826129f4565b506060820151612aa26060850182612a0d565b506080820151612ab56080850182612a34565b5060a0820151612ac860a0850182612a43565b5060c0820151612adb60c08501826129f4565b5060e0820151612aee60e0850182612a34565b50610100820151612b03610100850182612a0d565b50505050565b600061012082019050612b1f6000830184612a52565b92915050565b604082016000820151612b3b6000850182612549565b506020820151612b4e6020850182612549565b50505050565b6000604082019050612b696000830184612b25565b92915050565b612b78816128fe565b8114612b8357600080fd5b50565b600081359050612b9581612b6f565b92915050565b600080600060608486031215612bb457612bb36124b0565b5b6000612bc2868287016124db565b9350506020612bd3868287016128a9565b9250506040612be486828701612b86565b9150509250925092565b612bf781612961565b82525050565b612c0681612a03565b82525050565b6000608082019050612c216000830187612bee565b612c2e6020830186612bee565b612c3b6040830185612bee565b612c486060830184612bfd565b95945050505050565b612c5a81612a03565b8114612c6557600080fd5b50565b600081359050612c7781612c51565b92915050565b612c8681612a1c565b8114612c9157600080fd5b50565b600081359050612ca381612c7d565b92915050565b600080fd5b60008083601f840112612cc457612cc3612688565b5b8235905067ffffffffffffffff811115612ce157612ce0612ca9565b5b602083019150836001820283011115612cfd57612cfc612745565b5b9250929050565b60008060008060008060008060006101008a8c031215612d2757612d266124b0565b5b6000612d358c828d016128a9565b9950506020612d468c828d01612c68565b9850506040612d578c828d016124db565b9750506060612d688c828d01612c94565b9650506080612d798c828d016128a9565b95505060a0612d8a8c828d01612c68565b94505060c0612d9b8c828d016128a9565b93505060e08a013567ffffffffffffffff811115612dbc57612dbb6124b5565b5b612dc88c828d01612cae565b92509250509295985092959850929598565b612de3816124ba565b82525050565b6000602082019050612dfe6000830184612dda565b92915050565b60008083601f840112612e1a57612e19612688565b5b8235905067ffffffffffffffff811115612e3757612e36612ca9565b5b602083019150836020820283011115612e5357612e52612745565b5b9250929050565b60008060008060008060a08789031215612e7757612e766124b0565b5b6000612e8589828a016124db565b9650506020612e9689828a016128a9565b955050604087013567ffffffffffffffff811115612eb757612eb66124b5565b5b612ec389828a01612e04565b94509450506060612ed689828a016128a9565b9250506080612ee789828a01612c94565b9150509295509295509295565b7f4e487b7100000000000000000000000000000000000000000000000000000000600052603260045260246000fd5b6000604082019050612f38600083018561265e565b612f456020830184612bfd565b9392505050565b600081519050612f5b81612b6f565b92915050565b600060208284031215612f7757612f766124b0565b5b6000612f8584828501612f4c565b91505092915050565b6000606082019050612fa36000830186612bee565b612fb06020830185612bee565b612fbd6040830184612bee565b949350505050565b6000606082019050612fda6000830186612dda565b612fe7602083018561265e565b612ff4604083018461290a565b949350505050565b600082825260208201905092915050565b7f496e697469616c697a61626c653a20636f6e747261637420697320616c72656160008201527f647920696e697469616c697a6564000000000000000000000000000000000000602082015250565b6000613069602e83612ffc565b91506130748261300d565b604082019050919050565b600060208201905081810360008301526130988161305c565b9050919050565b6000819050919050565b600060ff82169050919050565b6000819050919050565b60006130db6130d66130d18461309f565b6130b6565b6130a9565b9050919050565b6130eb816130c0565b82525050565b600060208201905061310660008301846130e2565b92915050565b6000606082019050613121600083018661265e565b61312e602083018561265e565b61313b6040830184612bfd565b949350505050565b7f4e487b7100000000000000000000000000000000000000000000000000000000600052601160045260246000fd5b600061317d82612a03565b91507fffffffffffffffffffffffffffffffffffffffffffffffffffffffffffffffff82036131af576131ae613143565b5b600182019050919050565b82818337600083830152505050565b60006131d58385612ffc565b93506131e28385846131ba565b6131eb8361268d565b840190509392505050565b600060408201905061320b6000830186612dda565b818103602083015261321e8184866131c9565b9050949350505050565b600061323382612a1c565b915061323e83612a1c565b925082820390506bffffffffffffffffffffffff81111561326257613261613143565b5b92915050565b600061327382612a03565b915061327e83612a03565b925082820190508082111561329657613295613143565b5b92915050565b600082825260208201905092915050565b6000819050919050565b60006132c383836129f4565b60208301905092915050565b60006132de60208401846128a9565b905092915050565b6000602082019050919050565b60006132ff838561329c565b935061330a826132ad565b8060005b858110156133435761332082846132cf565b61332a88826132b7565b9750613335836132e6565b92505060018101905061330e565b5085925050509392505050565b600060c082019050613365600083018a612dda565b613372602083018961265e565b61337f604083018861265e565b81810360608301526133928186886132f3565b90506133a16080830185612bfd565b6133ae60a0830184612bfd565b98975050505050505050565b6133c381612a1c565b82525050565b60006020820190506133de60008301846133ba565b92915050565b7f4f776e61626c653a206e6577206f776e657220697320746865207a65726f206160008201527f6464726573730000000000000000000000000000000000000000000000000000602082015250565b6000613440602683612ffc565b915061344b826133e4565b604082019050919050565b6000602082019050818103600083015261346f81613433565b9050919050565b7f4f776e61626c653a2063616c6c6572206973206e6f7420746865206f776e6572600082015250565b60006134ac602083612ffc565b91506134b782613476565b602082019050919050565b600060208201905081810360008301526134db8161349f565b9050919050565b7f496e697469616c697a61626c653a20636f6e7472616374206973206e6f74206960008201527f6e697469616c697a696e67000000000000000000000000000000000000000000602082015250565b600061353e602b83612ffc565b9150613549826134e2565b604082019050919050565b6000602082019050818103600083015261356d81613531565b9050919050565b600061357f82612a03565b915061358a83612a03565b92508282039050818111156135a2576135a1613143565b5b92915050565b60006135b382612a03565b91506135be83612a03565b92508282026135cc81612a03565b915082820484148315176135e3576135e2613143565b5b5092915050565b7f4e487b7100000000000000000000000000000000000000000000000000000000600052601260045260246000fd5b600061362482612a03565b915061362f83612a03565b92508261363f5761363e6135ea565b5b82820490509291505056fea2646970667358221220eb281f34df75f66f2570f9bbcf563667441feeae59272e3e7ff94f6441a9d99464736f6c63430008120033",
  "devdoc": {
    "events": {
      "Deposit(bytes32,uint256,uint256,bytes32,string)": {
        "details": "Emitted when deposit is made."
      },
      "Initialized(uint8)": {
        "details": "Triggered when the contract has been initialized or reinitialized."
      },
      "Refunded(bytes32)": {
        "details": "Emitted when aggregator refund transaction."
      },
      "Settled(bytes32,address,uint96)": {
        "details": "Emitted when aggregator settle transaction."
      },
      "TransferSenderFee(address,uint256)": {
        "details": "Emitted when sender get therir rewards."
      }
    },
    "kind": "dev",
    "methods": {
      "constructor": {
        "custom:oz-upgrades-unsafe-allow": "constructor"
      },
      "createOrder(address,uint256,bytes32,uint96,address,uint256,address,string)": {
        "details": "See {createOrder-IPaycrest}. "
      },
      "getFeeDetails()": {
        "details": "See {getFeeDetails-IPaycrest}. "
      },
      "getLiquidityAggregator()": {
        "details": "See {getLiquidityAggregator-IPaycrest}. "
      },
      "getOrderInfo(bytes32)": {
        "details": "See {getOrderInfo-IPaycrest}. "
      },
      "getSupportedInstitutionName(bytes32)": {
        "details": "See {getSupportedInstitutionName-IPaycrest}. "
      },
      "getWhitelistedStatus(address)": {
        "details": "See {getWhitelistedStatus-IPaycrest}. "
      },
      "isTokenSupported(address)": {
        "details": "See {isTokenSupported-IPaycrest}. "
      },
      "owner()": {
        "details": "Returns the address of the current owner."
      },
      "refund(bytes32)": {
        "details": "See {refund-IPaycrest}. "
      },
      "renounceOwnership()": {
        "details": "Leaves the contract without owner. It will not be possible to call `onlyOwner` functions. Can only be called by the current owner. NOTE: Renouncing ownership will leave the contract without an owner, thereby disabling any functionality that is only available to the owner."
      },
      "settle(bytes32,address,address[],address,uint96)": {
        "details": "See {settle-IPaycrest}. "
      },
      "transferOwnership(address)": {
        "details": "Transfers ownership of the contract to a new account (`newOwner`). Can only be called by the current owner."
      }
    },
    "version": 1
  },
  "userdoc": {
    "errors": {
      "AmountIsZero()": [
        {
          "notice": "Revert when input amount is zero"
        }
      ],
      "InvalidParameter(bytes32)": [
        {
          "notice": "Revert when zero address is passed in"
        }
      ],
      "InvalidSigner()": [
        {
          "notice": "Revert with invalid signer"
        }
      ],
      "OnlyAggregator()": [
        {
          "notice": "Revert when caller is not an aggregator"
        }
      ],
      "OrderFulfilled()": [
        {
          "notice": "Revert when trx has been fulfilled"
        }
      ],
      "ThrowZeroAddress()": [
        {
          "notice": "Revert when zero address is passed in"
        }
      ],
      "ThrowZeroValue()": [
        {
          "notice": "Revert when zero address is passed in"
        }
      ],
      "TokenNotSupported()": [
        {
          "notice": "Revert when invalid token is provided"
        }
      ],
      "UnableToProcessRewards()": [
        {
          "notice": "Revert when rewards are not been distributed."
        }
      ],
      "Unsuported()": [
        {
          "notice": "Revert when input amount is zero"
        }
      ]
    },
    "kind": "user",
    "methods": {},
    "version": 1
  },
  "storageLayout": {
    "storage": [
      {
        "astId": 138,
        "contract": "contracts/Paycrest.sol:Paycrest",
        "label": "_initialized",
        "offset": 0,
        "slot": "0",
        "type": "t_uint8"
      },
      {
        "astId": 141,
        "contract": "contracts/Paycrest.sol:Paycrest",
        "label": "_initializing",
        "offset": 1,
        "slot": "0",
        "type": "t_bool"
      },
      {
        "astId": 1245,
        "contract": "contracts/Paycrest.sol:Paycrest",
        "label": "__gap",
        "offset": 0,
        "slot": "1",
        "type": "t_array(t_uint256)50_storage"
      },
      {
        "astId": 10,
        "contract": "contracts/Paycrest.sol:Paycrest",
        "label": "_owner",
        "offset": 0,
        "slot": "51",
        "type": "t_address"
      },
      {
        "astId": 130,
        "contract": "contracts/Paycrest.sol:Paycrest",
        "label": "__gap",
        "offset": 0,
        "slot": "52",
        "type": "t_array(t_uint256)49_storage"
      },
      {
        "astId": 4251,
        "contract": "contracts/Paycrest.sol:Paycrest",
        "label": "MAX_BPS",
        "offset": 0,
        "slot": "101",
        "type": "t_uint256"
      },
      {
        "astId": 4254,
        "contract": "contracts/Paycrest.sol:Paycrest",
        "label": "protocolFeePercent",
        "offset": 0,
        "slot": "102",
        "type": "t_uint64"
      },
      {
        "astId": 4257,
        "contract": "contracts/Paycrest.sol:Paycrest",
        "label": "primaryValidatorFeePercent",
        "offset": 8,
        "slot": "102",
        "type": "t_uint64"
      },
      {
        "astId": 4260,
        "contract": "contracts/Paycrest.sol:Paycrest",
        "label": "secondaryValidatorFeePercent",
        "offset": 16,
        "slot": "102",
        "type": "t_uint64"
      },
      {
        "astId": 4262,
        "contract": "contracts/Paycrest.sol:Paycrest",
        "label": "feeRecipient",
        "offset": 0,
        "slot": "103",
        "type": "t_address"
      },
      {
        "astId": 4264,
        "contract": "contracts/Paycrest.sol:Paycrest",
        "label": "PaycrestStakingContract",
        "offset": 0,
        "slot": "104",
        "type": "t_address"
      },
      {
        "astId": 4266,
        "contract": "contracts/Paycrest.sol:Paycrest",
        "label": "_liquidityAggregator",
        "offset": 0,
        "slot": "105",
        "type": "t_address"
      },
      {
        "astId": 4270,
        "contract": "contracts/Paycrest.sol:Paycrest",
        "label": "_isTokenSupported",
        "offset": 0,
        "slot": "106",
        "type": "t_mapping(t_address,t_bool)"
      },
      {
        "astId": 4274,
        "contract": "contracts/Paycrest.sol:Paycrest",
        "label": "_isWhitelisted",
        "offset": 0,
        "slot": "107",
        "type": "t_mapping(t_address,t_bool)"
      },
      {
        "astId": 4280,
        "contract": "contracts/Paycrest.sol:Paycrest",
        "label": "supportedInstitutions",
        "offset": 0,
        "slot": "108",
        "type": "t_mapping(t_bytes32,t_array(t_struct(Institution)4243_storage)dyn_storage)"
      },
      {
        "astId": 4285,
        "contract": "contracts/Paycrest.sol:Paycrest",
        "label": "supportedInstitutionsByCode",
        "offset": 0,
        "slot": "109",
        "type": "t_mapping(t_bytes32,t_struct(InstitutionByCode)4248_storage)"
      },
      {
        "astId": 3560,
        "contract": "contracts/Paycrest.sol:Paycrest",
        "label": "order",
        "offset": 0,
        "slot": "110",
        "type": "t_mapping(t_bytes32,t_struct(Order)5007_storage)"
      },
      {
        "astId": 3564,
        "contract": "contracts/Paycrest.sol:Paycrest",
        "label": "_nonce",
        "offset": 0,
        "slot": "111",
        "type": "t_mapping(t_address,t_uint256)"
      }
    ],
    "types": {
      "t_address": {
        "encoding": "inplace",
        "label": "address",
        "numberOfBytes": "20"
      },
      "t_array(t_struct(Institution)4243_storage)dyn_storage": {
        "base": "t_struct(Institution)4243_storage",
        "encoding": "dynamic_array",
        "label": "struct PaycrestSettingManager.Institution[]",
        "numberOfBytes": "32"
      },
      "t_array(t_uint256)49_storage": {
        "base": "t_uint256",
        "encoding": "inplace",
        "label": "uint256[49]",
        "numberOfBytes": "1568"
      },
      "t_array(t_uint256)50_storage": {
        "base": "t_uint256",
        "encoding": "inplace",
        "label": "uint256[50]",
        "numberOfBytes": "1600"
      },
      "t_bool": {
        "encoding": "inplace",
        "label": "bool",
        "numberOfBytes": "1"
      },
      "t_bytes32": {
        "encoding": "inplace",
        "label": "bytes32",
        "numberOfBytes": "32"
      },
      "t_mapping(t_address,t_bool)": {
        "encoding": "mapping",
        "key": "t_address",
        "label": "mapping(address => bool)",
        "numberOfBytes": "32",
        "value": "t_bool"
      },
      "t_mapping(t_address,t_uint256)": {
        "encoding": "mapping",
        "key": "t_address",
        "label": "mapping(address => uint256)",
        "numberOfBytes": "32",
        "value": "t_uint256"
      },
      "t_mapping(t_bytes32,t_array(t_struct(Institution)4243_storage)dyn_storage)": {
        "encoding": "mapping",
        "key": "t_bytes32",
        "label": "mapping(bytes32 => struct PaycrestSettingManager.Institution[])",
        "numberOfBytes": "32",
        "value": "t_array(t_struct(Institution)4243_storage)dyn_storage"
      },
      "t_mapping(t_bytes32,t_struct(InstitutionByCode)4248_storage)": {
        "encoding": "mapping",
        "key": "t_bytes32",
        "label": "mapping(bytes32 => struct PaycrestSettingManager.InstitutionByCode)",
        "numberOfBytes": "32",
        "value": "t_struct(InstitutionByCode)4248_storage"
      },
      "t_mapping(t_bytes32,t_struct(Order)5007_storage)": {
        "encoding": "mapping",
        "key": "t_bytes32",
        "label": "mapping(bytes32 => struct IPaycrest.Order)",
        "numberOfBytes": "32",
        "value": "t_struct(Order)5007_storage"
      },
      "t_struct(Institution)4243_storage": {
        "encoding": "inplace",
        "label": "struct PaycrestSettingManager.Institution",
        "members": [
          {
            "astId": 4240,
            "contract": "contracts/Paycrest.sol:Paycrest",
            "label": "code",
            "offset": 0,
            "slot": "0",
            "type": "t_bytes32"
          },
          {
            "astId": 4242,
            "contract": "contracts/Paycrest.sol:Paycrest",
            "label": "name",
            "offset": 0,
            "slot": "1",
            "type": "t_bytes32"
          }
        ],
        "numberOfBytes": "64"
      },
      "t_struct(InstitutionByCode)4248_storage": {
        "encoding": "inplace",
        "label": "struct PaycrestSettingManager.InstitutionByCode",
        "members": [
          {
            "astId": 4245,
            "contract": "contracts/Paycrest.sol:Paycrest",
            "label": "name",
            "offset": 0,
            "slot": "0",
            "type": "t_bytes32"
          },
          {
            "astId": 4247,
            "contract": "contracts/Paycrest.sol:Paycrest",
            "label": "currency",
            "offset": 0,
            "slot": "1",
            "type": "t_bytes32"
          }
        ],
        "numberOfBytes": "64"
      },
      "t_struct(Order)5007_storage": {
        "encoding": "inplace",
        "label": "struct IPaycrest.Order",
        "members": [
          {
            "astId": 4990,
            "contract": "contracts/Paycrest.sol:Paycrest",
            "label": "seller",
            "offset": 0,
            "slot": "0",
            "type": "t_address"
          },
          {
            "astId": 4992,
            "contract": "contracts/Paycrest.sol:Paycrest",
            "label": "token",
            "offset": 0,
            "slot": "1",
            "type": "t_address"
          },
          {
            "astId": 4994,
            "contract": "contracts/Paycrest.sol:Paycrest",
            "label": "senderFeeRecipient",
            "offset": 0,
            "slot": "2",
            "type": "t_address"
          },
          {
            "astId": 4996,
            "contract": "contracts/Paycrest.sol:Paycrest",
            "label": "senderFee",
            "offset": 0,
            "slot": "3",
            "type": "t_uint256"
          },
          {
            "astId": 4998,
            "contract": "contracts/Paycrest.sol:Paycrest",
            "label": "rate",
            "offset": 0,
            "slot": "4",
            "type": "t_uint96"
          },
          {
            "astId": 5000,
            "contract": "contracts/Paycrest.sol:Paycrest",
            "label": "isFulfilled",
            "offset": 12,
            "slot": "4",
            "type": "t_bool"
          },
          {
            "astId": 5002,
            "contract": "contracts/Paycrest.sol:Paycrest",
            "label": "refundAddress",
            "offset": 0,
            "slot": "5",
            "type": "t_address"
          },
          {
            "astId": 5004,
            "contract": "contracts/Paycrest.sol:Paycrest",
            "label": "currentBPS",
            "offset": 20,
            "slot": "5",
            "type": "t_uint96"
          },
          {
            "astId": 5006,
            "contract": "contracts/Paycrest.sol:Paycrest",
            "label": "amount",
            "offset": 0,
            "slot": "6",
            "type": "t_uint256"
          }
        ],
        "numberOfBytes": "224"
      },
      "t_uint256": {
        "encoding": "inplace",
        "label": "uint256",
        "numberOfBytes": "32"
      },
      "t_uint64": {
        "encoding": "inplace",
        "label": "uint64",
        "numberOfBytes": "8"
      },
      "t_uint8": {
        "encoding": "inplace",
        "label": "uint8",
        "numberOfBytes": "1"
      },
      "t_uint96": {
        "encoding": "inplace",
        "label": "uint96",
        "numberOfBytes": "12"
      }
    }
  }
}