{
  "address": "0xeA72cA1240C822a6a0B71f22D00aBa96CBbF8034",
  "abi": [
    {
      "inputs": [],
      "stateMutability": "nonpayable",
      "type": "constructor"
    },
    {
      "inputs": [],
      "name": "Insufficient",
      "type": "error"
    },
    {
      "inputs": [],
      "name": "MinimumRequired",
      "type": "error"
    },
    {
      "inputs": [],
      "name": "ThrowInitPaused",
      "type": "error"
    },
    {
      "inputs": [],
      "name": "ThrowPaycrest",
      "type": "error"
    },
    {
      "inputs": [],
      "name": "TokenNotSupported",
      "type": "error"
    },
    {
      "anonymous": false,
      "inputs": [
        {
          "indexed": true,
          "internalType": "bool",
          "name": "status",
          "type": "bool"
        }
      ],
      "name": "Initialized",
      "type": "event"
    },
    {
      "anonymous": false,
      "inputs": [
        {
          "indexed": false,
          "internalType": "uint8",
          "name": "version",
          "type": "uint8"
        }
      ],
      "name": "Initialized",
      "type": "event"
    },
    {
      "anonymous": false,
      "inputs": [
        {
          "indexed": true,
          "internalType": "address",
          "name": "token",
          "type": "address"
        },
        {
          "indexed": true,
          "internalType": "uint256",
          "name": "minimumStakeAmount",
          "type": "uint256"
        }
      ],
      "name": "NewTokenSupported",
      "type": "event"
    },
    {
      "anonymous": false,
      "inputs": [
        {
          "indexed": true,
          "internalType": "address",
          "name": "previousOwner",
          "type": "address"
        },
        {
          "indexed": true,
          "internalType": "address",
          "name": "newOwner",
          "type": "address"
        }
      ],
      "name": "OwnershipTransferred",
      "type": "event"
    },
    {
      "anonymous": false,
      "inputs": [
        {
          "indexed": false,
          "internalType": "bytes32",
          "name": "orderId",
          "type": "bytes32"
        },
        {
          "indexed": false,
          "internalType": "address",
          "name": "token",
          "type": "address"
        },
        {
          "indexed": true,
          "internalType": "address",
          "name": "validator",
          "type": "address"
        },
        {
          "indexed": true,
          "internalType": "uint256",
          "name": "validatorsReward",
          "type": "uint256"
        }
      ],
      "name": "RewardValidators",
      "type": "event"
    },
    {
      "anonymous": false,
      "inputs": [
        {
          "indexed": true,
          "internalType": "address",
          "name": "user",
          "type": "address"
        },
        {
          "indexed": true,
          "internalType": "uint256",
          "name": "amount",
          "type": "uint256"
        }
      ],
      "name": "Staked",
      "type": "event"
    },
    {
      "anonymous": false,
      "inputs": [
        {
          "indexed": true,
          "internalType": "address",
          "name": "user",
          "type": "address"
        },
        {
          "indexed": true,
          "internalType": "uint256",
          "name": "amount",
          "type": "uint256"
        }
      ],
      "name": "Withdrawn",
      "type": "event"
    },
    {
      "inputs": [],
      "name": "getInitializationState",
      "outputs": [
        {
          "internalType": "bool",
          "name": "",
          "type": "bool"
        }
      ],
      "stateMutability": "view",
      "type": "function"
    },
    {
      "inputs": [
        {
          "internalType": "address",
          "name": "token",
          "type": "address"
        }
      ],
      "name": "getMinimumAmountRequiredFor",
      "outputs": [
        {
          "internalType": "uint256",
          "name": "",
          "type": "uint256"
        }
      ],
      "stateMutability": "view",
      "type": "function"
    },
    {
      "inputs": [],
      "name": "getPaycrest",
      "outputs": [
        {
          "internalType": "address",
          "name": "",
          "type": "address"
        }
      ],
      "stateMutability": "view",
      "type": "function"
    },
    {
      "inputs": [
        {
          "internalType": "address",
          "name": "user",
          "type": "address"
        },
        {
          "internalType": "address",
          "name": "token",
          "type": "address"
        }
      ],
      "name": "getValidatorInfo",
      "outputs": [
        {
          "internalType": "uint256",
          "name": "",
          "type": "uint256"
        }
      ],
      "stateMutability": "view",
      "type": "function"
    },
    {
      "inputs": [
        {
          "internalType": "address",
          "name": "_paycrest",
          "type": "address"
        }
      ],
      "name": "initialize",
      "outputs": [],
      "stateMutability": "nonpayable",
      "type": "function"
    },
    {
      "inputs": [
        {
          "internalType": "bool",
          "name": "status",
          "type": "bool"
        }
      ],
      "name": "initialized",
      "outputs": [],
      "stateMutability": "nonpayable",
      "type": "function"
    },
    {
      "inputs": [],
      "name": "owner",
      "outputs": [
        {
          "internalType": "address",
          "name": "",
          "type": "address"
        }
      ],
      "stateMutability": "view",
      "type": "function"
    },
    {
      "inputs": [],
      "name": "renounceOwnership",
      "outputs": [],
      "stateMutability": "nonpayable",
      "type": "function"
    },
    {
      "inputs": [
        {
          "internalType": "bytes32",
          "name": "orderId",
          "type": "bytes32"
        },
        {
          "internalType": "address",
          "name": "token",
          "type": "address"
        },
        {
          "internalType": "address",
          "name": "primaryValidator",
          "type": "address"
        },
        {
          "internalType": "address[]",
          "name": "secondaryValidators",
          "type": "address[]"
        },
        {
          "internalType": "uint256",
          "name": "primaryValidatorsReward",
          "type": "uint256"
        },
        {
          "internalType": "uint256",
          "name": "secondaryValidatorsReward",
          "type": "uint256"
        }
      ],
      "name": "rewardValidators",
      "outputs": [
        {
          "internalType": "bool",
          "name": "",
          "type": "bool"
        }
      ],
      "stateMutability": "nonpayable",
      "type": "function"
    },
    {
      "inputs": [
        {
          "internalType": "address",
          "name": "_token",
          "type": "address"
        },
        {
          "internalType": "uint256",
          "name": "minimumStakeAmount",
          "type": "uint256"
        }
      ],
      "name": "setMinimumAmountForTokens",
      "outputs": [],
      "stateMutability": "nonpayable",
      "type": "function"
    },
    {
      "inputs": [
        {
          "internalType": "address",
          "name": "token",
          "type": "address"
        },
        {
          "internalType": "uint256",
          "name": "amount",
          "type": "uint256"
        }
      ],
      "name": "stake",
      "outputs": [],
      "stateMutability": "nonpayable",
      "type": "function"
    },
    {
      "inputs": [
        {
          "internalType": "address",
          "name": "newOwner",
          "type": "address"
        }
      ],
      "name": "transferOwnership",
      "outputs": [],
      "stateMutability": "nonpayable",
      "type": "function"
    },
    {
      "inputs": [
        {
          "internalType": "uint256",
          "name": "amount",
          "type": "uint256"
        },
        {
          "internalType": "address",
          "name": "token",
          "type": "address"
        },
        {
          "internalType": "address",
          "name": "recipient",
          "type": "address"
        }
      ],
      "name": "withdraw",
      "outputs": [],
      "stateMutability": "nonpayable",
      "type": "function"
    }
  ],
  "transactionHash": "0x78787c7bf44577ed77d47f5779ba39ed6590a45db8d1336838c6420b36d3238e",
  "args": [],
  "numDeployments": 1,
  "solcInputHash": "7d09daaf96b15f1467dac43a2aa05c56",
  "bytecode": "0x60806040523480156200001157600080fd5b50620000226200002860201b60201c565b620001d2565b600060019054906101000a900460ff16156200007b576040517f08c379a0000000000000000000000000000000000000000000000000000000008152600401620000729062000175565b60405180910390fd5b60ff801660008054906101000a900460ff1660ff1614620000ec5760ff6000806101000a81548160ff021916908360ff1602179055507f7f26b83ff96e1f2b6a682f133852f6798a09c465da95921460cefb384740249860ff604051620000e39190620001b5565b60405180910390a15b565b600082825260208201905092915050565b7f496e697469616c697a61626c653a20636f6e747261637420697320696e69746960008201527f616c697a696e6700000000000000000000000000000000000000000000000000602082015250565b60006200015d602783620000ee565b91506200016a82620000ff565b604082019050919050565b6000602082019050818103600083015262000190816200014e565b9050919050565b600060ff82169050919050565b620001af8162000197565b82525050565b6000602082019050620001cc6000830184620001a4565b92915050565b611d0a80620001e26000396000f3fe608060405234801561001057600080fd5b50600436106100cf5760003560e01c8063c4a0bb071161008c578063c5923aaf11610066578063c5923aaf146101d8578063e74599f314610208578063f239c62614610238578063f2fde38b14610254576100cf565b8063c4a0bb0714610182578063c4d66de81461019e578063c56f80c1146101ba576100cf565b80634a223c36146100d4578063715018a6146101045780638da5cb5b1461010e578063adc9772e1461012c578063b460af9414610148578063c2b4610b14610164575b600080fd5b6100ee60048036038101906100e991906114b4565b610270565b6040516100fb9190611578565b60405180910390f35b61010c610534565b005b610116610548565b60405161012391906115a2565b60405180910390f35b610146600480360381019061014191906115bd565b610572565b005b610162600480360381019061015d91906115fd565b6107cc565b005b61016c6109f3565b6040516101799190611578565b60405180910390f35b61019c6004803603810190610197919061167c565b610a0a565b005b6101b860048036038101906101b391906116a9565b610a5e565b005b6101c2610c01565b6040516101cf91906115a2565b60405180910390f35b6101f260048036038101906101ed91906116d6565b610c2b565b6040516101ff9190611725565b60405180910390f35b610222600480360381019061021d91906116a9565b610cb2565b60405161022f9190611725565b60405180910390f35b610252600480360381019061024d91906115bd565b610cfb565b005b61026e600480360381019061026991906116a9565b610d8f565b005b6000609760009054906101000a900473ffffffffffffffffffffffffffffffffffffffff1673ffffffffffffffffffffffffffffffffffffffff163373ffffffffffffffffffffffffffffffffffffffff16146102f9576040517f1db1ec8500000000000000000000000000000000000000000000000000000000815260040160405180910390fd5b6000845190506000818461030d919061179e565b905060005b8281101561043f578160996000898481518110610332576103316117cf565b5b602002602001015173ffffffffffffffffffffffffffffffffffffffff1673ffffffffffffffffffffffffffffffffffffffff16815260200190815260200160002060008b73ffffffffffffffffffffffffffffffffffffffff1673ffffffffffffffffffffffffffffffffffffffff16815260200190815260200160002060008282546103c091906117fe565b92505081905550818782815181106103db576103da6117cf565b5b602002602001015173ffffffffffffffffffffffffffffffffffffffff167f11ff273d7118e74553c17c252f7ca4a9c4bc57aa9939391776a348e5b388f6f78c8c60405161042a929190611841565b60405180910390a38080600101915050610312565b5084609960008973ffffffffffffffffffffffffffffffffffffffff1673ffffffffffffffffffffffffffffffffffffffff16815260200190815260200160002060008a73ffffffffffffffffffffffffffffffffffffffff1673ffffffffffffffffffffffffffffffffffffffff16815260200190815260200160002060008282546104cc91906117fe565b92505081905550848773ffffffffffffffffffffffffffffffffffffffff167f11ff273d7118e74553c17c252f7ca4a9c4bc57aa9939391776a348e5b388f6f78b8b60405161051c929190611841565b60405180910390a36001925050509695505050505050565b61053c610e12565b6105466000610e90565b565b6000603360009054906101000a900473ffffffffffffffffffffffffffffffffffffffff16905090565b609760149054906101000a900460ff166105b8576040517f5179f46700000000000000000000000000000000000000000000000000000000815260040160405180910390fd5b6105c182610f56565b6105f7576040517f3dd1b30500000000000000000000000000000000000000000000000000000000815260040160405180910390fd5b609860008373ffffffffffffffffffffffffffffffffffffffff1673ffffffffffffffffffffffffffffffffffffffff16815260200190815260200160002054811015610670576040517f0eed1a4700000000000000000000000000000000000000000000000000000000815260040160405180910390fd5b8173ffffffffffffffffffffffffffffffffffffffff166323b872dd3330846040518463ffffffff1660e01b81526004016106ad9392919061186a565b6020604051808303816000875af11580156106cc573d6000803e3d6000fd5b505050506040513d601f19601f820116820180604052508101906106f091906118b6565b5080609960003373ffffffffffffffffffffffffffffffffffffffff1673ffffffffffffffffffffffffffffffffffffffff16815260200190815260200160002060008473ffffffffffffffffffffffffffffffffffffffff1673ffffffffffffffffffffffffffffffffffffffff168152602001908152602001600020600082825461077d91906117fe565b92505081905550803373ffffffffffffffffffffffffffffffffffffffff167f9e71bc8eea02a63969f509818f2dafb9254532904319f9dbda79b67bd34a5f3d60405160405180910390a35050565b6107d461108d565b6000609960003373ffffffffffffffffffffffffffffffffffffffff1673ffffffffffffffffffffffffffffffffffffffff16815260200190815260200160002060008473ffffffffffffffffffffffffffffffffffffffff1673ffffffffffffffffffffffffffffffffffffffff1681526020019081526020016000205490508084111561088f576040517f1dc930eb00000000000000000000000000000000000000000000000000000000815260040160405180910390fd5b83609960003373ffffffffffffffffffffffffffffffffffffffff1673ffffffffffffffffffffffffffffffffffffffff16815260200190815260200160002060008573ffffffffffffffffffffffffffffffffffffffff1673ffffffffffffffffffffffffffffffffffffffff168152602001908152602001600020600082825461091b91906118e3565b925050819055508273ffffffffffffffffffffffffffffffffffffffff1663a9059cbb83866040518363ffffffff1660e01b815260040161095d929190611917565b6020604051808303816000875af115801561097c573d6000803e3d6000fd5b505050506040513d601f19601f820116820180604052508101906109a091906118b6565b50833373ffffffffffffffffffffffffffffffffffffffff167f7084f5476618d8e60b11ef0d7d3f06914655adb8793e28ff7f018d4c76d505d560405160405180910390a3506109ee6110dc565b505050565b6000609760149054906101000a900460ff16905090565b610a12610e12565b80609760146101000a81548160ff0219169083151502179055508015157fdebf9dd297d3980055770d6c047a67eed8f6b1e91397831703b5f2a73bec132060405160405180910390a250565b60008060019054906101000a900460ff16159050808015610a8f5750600160008054906101000a900460ff1660ff16105b80610abc5750610a9e306110e6565b158015610abb5750600160008054906101000a900460ff1660ff16145b5b610afb576040517f08c379a0000000000000000000000000000000000000000000000000000000008152600401610af2906119c3565b60405180910390fd5b60016000806101000a81548160ff021916908360ff1602179055508015610b38576001600060016101000a81548160ff0219169083151502179055505b81609760006101000a81548173ffffffffffffffffffffffffffffffffffffffff021916908373ffffffffffffffffffffffffffffffffffffffff1602179055506001609760146101000a81548160ff021916908315150217905550610b9c611109565b610ba4611162565b8015610bfd5760008060016101000a81548160ff0219169083151502179055507f7f26b83ff96e1f2b6a682f133852f6798a09c465da95921460cefb38474024986001604051610bf49190611a35565b60405180910390a15b5050565b6000609760009054906101000a900473ffffffffffffffffffffffffffffffffffffffff16905090565b6000609960008473ffffffffffffffffffffffffffffffffffffffff1673ffffffffffffffffffffffffffffffffffffffff16815260200190815260200160002060008373ffffffffffffffffffffffffffffffffffffffff1673ffffffffffffffffffffffffffffffffffffffff16815260200190815260200160002054905092915050565b6000609860008373ffffffffffffffffffffffffffffffffffffffff1673ffffffffffffffffffffffffffffffffffffffff168152602001908152602001600020549050919050565b610d03610e12565b80609860008473ffffffffffffffffffffffffffffffffffffffff1673ffffffffffffffffffffffffffffffffffffffff16815260200190815260200160002081905550808273ffffffffffffffffffffffffffffffffffffffff167fd0380f7d3d322fabf37539b9c6b985c069348a14121a426f3cceb8b5a93cd9ab60405160405180910390a35050565b610d97610e12565b600073ffffffffffffffffffffffffffffffffffffffff168173ffffffffffffffffffffffffffffffffffffffff1603610e06576040517f08c379a0000000000000000000000000000000000000000000000000000000008152600401610dfd90611ac2565b60405180910390fd5b610e0f81610e90565b50565b610e1a6111bb565b73ffffffffffffffffffffffffffffffffffffffff16610e38610548565b73ffffffffffffffffffffffffffffffffffffffff1614610e8e576040517f08c379a0000000000000000000000000000000000000000000000000000000008152600401610e8590611b2e565b60405180910390fd5b565b6000603360009054906101000a900473ffffffffffffffffffffffffffffffffffffffff16905081603360006101000a81548173ffffffffffffffffffffffffffffffffffffffff021916908373ffffffffffffffffffffffffffffffffffffffff1602179055508173ffffffffffffffffffffffffffffffffffffffff168173ffffffffffffffffffffffffffffffffffffffff167f8be0079c531659141344cd1fd0a4f28419497f9722a3daafe3b4186f6b6457e060405160405180910390a35050565b600080609760009054906101000a900473ffffffffffffffffffffffffffffffffffffffff1673ffffffffffffffffffffffffffffffffffffffff1683604051602401610fa391906115a2565b6040516020818303038152906040527f75151b63000000000000000000000000000000000000000000000000000000007bffffffffffffffffffffffffffffffffffffffffffffffffffffffff19166020820180517bffffffffffffffffffffffffffffffffffffffffffffffffffffffff838183161783525050505060405161102d9190611bbf565b600060405180830381855afa9150503d8060008114611068576040519150601f19603f3d011682016040523d82523d6000602084013e61106d565b606091505b509150508080602001905181019061108591906118b6565b915050919050565b6002606554036110d2576040517f08c379a00000000000000000000000000000000000000000000000000000000081526004016110c990611c22565b60405180910390fd5b6002606581905550565b6001606581905550565b6000808273ffffffffffffffffffffffffffffffffffffffff163b119050919050565b600060019054906101000a900460ff16611158576040517f08c379a000000000000000000000000000000000000000000000000000000000815260040161114f90611cb4565b60405180910390fd5b6111606111c3565b565b600060019054906101000a900460ff166111b1576040517f08c379a00000000000000000000000000000000000000000000000000000000081526004016111a890611cb4565b60405180910390fd5b6111b9611224565b565b600033905090565b600060019054906101000a900460ff16611212576040517f08c379a000000000000000000000000000000000000000000000000000000000815260040161120990611cb4565b60405180910390fd5b61122261121d6111bb565b610e90565b565b600060019054906101000a900460ff16611273576040517f08c379a000000000000000000000000000000000000000000000000000000000815260040161126a90611cb4565b60405180910390fd5b6001606581905550565b6000604051905090565b600080fd5b600080fd5b6000819050919050565b6112a481611291565b81146112af57600080fd5b50565b6000813590506112c18161129b565b92915050565b600073ffffffffffffffffffffffffffffffffffffffff82169050919050565b60006112f2826112c7565b9050919050565b611302816112e7565b811461130d57600080fd5b50565b60008135905061131f816112f9565b92915050565b600080fd5b6000601f19601f8301169050919050565b7f4e487b7100000000000000000000000000000000000000000000000000000000600052604160045260246000fd5b6113738261132a565b810181811067ffffffffffffffff821117156113925761139161133b565b5b80604052505050565b60006113a561127d565b90506113b1828261136a565b919050565b600067ffffffffffffffff8211156113d1576113d061133b565b5b602082029050602081019050919050565b600080fd5b60006113fa6113f5846113b6565b61139b565b9050808382526020820190506020840283018581111561141d5761141c6113e2565b5b835b8181101561144657806114328882611310565b84526020840193505060208101905061141f565b5050509392505050565b600082601f83011261146557611464611325565b5b81356114758482602086016113e7565b91505092915050565b6000819050919050565b6114918161147e565b811461149c57600080fd5b50565b6000813590506114ae81611488565b92915050565b60008060008060008060c087890312156114d1576114d0611287565b5b60006114df89828a016112b2565b96505060206114f089828a01611310565b955050604061150189828a01611310565b945050606087013567ffffffffffffffff8111156115225761152161128c565b5b61152e89828a01611450565b935050608061153f89828a0161149f565b92505060a061155089828a0161149f565b9150509295509295509295565b60008115159050919050565b6115728161155d565b82525050565b600060208201905061158d6000830184611569565b92915050565b61159c816112e7565b82525050565b60006020820190506115b76000830184611593565b92915050565b600080604083850312156115d4576115d3611287565b5b60006115e285828601611310565b92505060206115f38582860161149f565b9150509250929050565b60008060006060848603121561161657611615611287565b5b60006116248682870161149f565b935050602061163586828701611310565b925050604061164686828701611310565b9150509250925092565b6116598161155d565b811461166457600080fd5b50565b60008135905061167681611650565b92915050565b60006020828403121561169257611691611287565b5b60006116a084828501611667565b91505092915050565b6000602082840312156116bf576116be611287565b5b60006116cd84828501611310565b91505092915050565b600080604083850312156116ed576116ec611287565b5b60006116fb85828601611310565b925050602061170c85828601611310565b9150509250929050565b61171f8161147e565b82525050565b600060208201905061173a6000830184611716565b92915050565b7f4e487b7100000000000000000000000000000000000000000000000000000000600052601260045260246000fd5b7f4e487b7100000000000000000000000000000000000000000000000000000000600052601160045260246000fd5b60006117a98261147e565b91506117b48361147e565b9250826117c4576117c3611740565b5b828204905092915050565b7f4e487b7100000000000000000000000000000000000000000000000000000000600052603260045260246000fd5b60006118098261147e565b91506118148361147e565b925082820190508082111561182c5761182b61176f565b5b92915050565b61183b81611291565b82525050565b60006040820190506118566000830185611832565b6118636020830184611593565b9392505050565b600060608201905061187f6000830186611593565b61188c6020830185611593565b6118996040830184611716565b949350505050565b6000815190506118b081611650565b92915050565b6000602082840312156118cc576118cb611287565b5b60006118da848285016118a1565b91505092915050565b60006118ee8261147e565b91506118f98361147e565b92508282039050818111156119115761191061176f565b5b92915050565b600060408201905061192c6000830185611593565b6119396020830184611716565b9392505050565b600082825260208201905092915050565b7f496e697469616c697a61626c653a20636f6e747261637420697320616c72656160008201527f647920696e697469616c697a6564000000000000000000000000000000000000602082015250565b60006119ad602e83611940565b91506119b882611951565b604082019050919050565b600060208201905081810360008301526119dc816119a0565b9050919050565b6000819050919050565b600060ff82169050919050565b6000819050919050565b6000611a1f611a1a611a15846119e3565b6119fa565b6119ed565b9050919050565b611a2f81611a04565b82525050565b6000602082019050611a4a6000830184611a26565b92915050565b7f4f776e61626c653a206e6577206f776e657220697320746865207a65726f206160008201527f6464726573730000000000000000000000000000000000000000000000000000602082015250565b6000611aac602683611940565b9150611ab782611a50565b604082019050919050565b60006020820190508181036000830152611adb81611a9f565b9050919050565b7f4f776e61626c653a2063616c6c6572206973206e6f7420746865206f776e6572600082015250565b6000611b18602083611940565b9150611b2382611ae2565b602082019050919050565b60006020820190508181036000830152611b4781611b0b565b9050919050565b600081519050919050565b600081905092915050565b60005b83811015611b82578082015181840152602081019050611b67565b60008484015250505050565b6000611b9982611b4e565b611ba38185611b59565b9350611bb3818560208601611b64565b80840191505092915050565b6000611bcb8284611b8e565b915081905092915050565b7f5265656e7472616e637947756172643a207265656e7472616e742063616c6c00600082015250565b6000611c0c601f83611940565b9150611c1782611bd6565b602082019050919050565b60006020820190508181036000830152611c3b81611bff565b9050919050565b7f496e697469616c697a61626c653a20636f6e7472616374206973206e6f74206960008201527f6e697469616c697a696e67000000000000000000000000000000000000000000602082015250565b6000611c9e602b83611940565b9150611ca982611c42565b604082019050919050565b60006020820190508181036000830152611ccd81611c91565b905091905056fea264697066735822122093ebfce873937e7a13a77bf8c550a2de8c442df4c3ae20f8f10ae4ad9f1b93c064736f6c63430008120033",
  "devdoc": {
    "events": {
      "Initialized(uint8)": {
        "details": "Triggered when the contract has been initialized or reinitialized."
      }
    },
    "kind": "dev",
    "methods": {
      "constructor": {
        "custom:oz-upgrades-unsafe-allow": "constructor"
      },
      "owner()": {
        "details": "Returns the address of the current owner."
      },
      "renounceOwnership()": {
        "details": "Leaves the contract without owner. It will not be possible to call `onlyOwner` functions. Can only be called by the current owner. NOTE: Renouncing ownership will leave the contract without an owner, thereby disabling any functionality that is only available to the owner."
      },
      "transferOwnership(address)": {
        "details": "Transfers ownership of the contract to a new account (`newOwner`). Can only be called by the current owner."
      }
    },
    "version": 1
  },
  "userdoc": {
    "kind": "user",
    "methods": {},
    "version": 1
  },
  "storageLayout": {
    "storage": [
      {
        "astId": 138,
        "contract": "contracts/PaycrestValidator.sol:PaycrestValidator",
        "label": "_initialized",
        "offset": 0,
        "slot": "0",
        "type": "t_uint8"
      },
      {
        "astId": 141,
        "contract": "contracts/PaycrestValidator.sol:PaycrestValidator",
        "label": "_initializing",
        "offset": 1,
        "slot": "0",
        "type": "t_bool"
      },
      {
        "astId": 1245,
        "contract": "contracts/PaycrestValidator.sol:PaycrestValidator",
        "label": "__gap",
        "offset": 0,
        "slot": "1",
        "type": "t_array(t_uint256)50_storage"
      },
      {
        "astId": 10,
        "contract": "contracts/PaycrestValidator.sol:PaycrestValidator",
        "label": "_owner",
        "offset": 0,
        "slot": "51",
        "type": "t_address"
      },
      {
        "astId": 130,
        "contract": "contracts/PaycrestValidator.sol:PaycrestValidator",
        "label": "__gap",
        "offset": 0,
        "slot": "52",
        "type": "t_array(t_uint256)49_storage"
      },
      {
        "astId": 314,
        "contract": "contracts/PaycrestValidator.sol:PaycrestValidator",
        "label": "_status",
        "offset": 0,
        "slot": "101",
        "type": "t_uint256"
      },
      {
        "astId": 383,
        "contract": "contracts/PaycrestValidator.sol:PaycrestValidator",
        "label": "__gap",
        "offset": 0,
        "slot": "102",
        "type": "t_array(t_uint256)49_storage"
      },
      {
        "astId": 4523,
        "contract": "contracts/PaycrestValidator.sol:PaycrestValidator",
        "label": "Paycrest",
        "offset": 0,
        "slot": "151",
        "type": "t_address"
      },
      {
        "astId": 4525,
        "contract": "contracts/PaycrestValidator.sol:PaycrestValidator",
        "label": "initialization",
        "offset": 20,
        "slot": "151",
        "type": "t_bool"
      },
      {
        "astId": 4529,
        "contract": "contracts/PaycrestValidator.sol:PaycrestValidator",
        "label": "minimumAmount",
        "offset": 0,
        "slot": "152",
        "type": "t_mapping(t_address,t_uint256)"
      },
      {
        "astId": 4535,
        "contract": "contracts/PaycrestValidator.sol:PaycrestValidator",
        "label": "_balance",
        "offset": 0,
        "slot": "153",
        "type": "t_mapping(t_address,t_mapping(t_address,t_uint256))"
      }
    ],
    "types": {
      "t_address": {
        "encoding": "inplace",
        "label": "address",
        "numberOfBytes": "20"
      },
      "t_array(t_uint256)49_storage": {
        "base": "t_uint256",
        "encoding": "inplace",
        "label": "uint256[49]",
        "numberOfBytes": "1568"
      },
      "t_array(t_uint256)50_storage": {
        "base": "t_uint256",
        "encoding": "inplace",
        "label": "uint256[50]",
        "numberOfBytes": "1600"
      },
      "t_bool": {
        "encoding": "inplace",
        "label": "bool",
        "numberOfBytes": "1"
      },
      "t_mapping(t_address,t_mapping(t_address,t_uint256))": {
        "encoding": "mapping",
        "key": "t_address",
        "label": "mapping(address => mapping(address => uint256))",
        "numberOfBytes": "32",
        "value": "t_mapping(t_address,t_uint256)"
      },
      "t_mapping(t_address,t_uint256)": {
        "encoding": "mapping",
        "key": "t_address",
        "label": "mapping(address => uint256)",
        "numberOfBytes": "32",
        "value": "t_uint256"
      },
      "t_uint256": {
        "encoding": "inplace",
        "label": "uint256",
        "numberOfBytes": "32"
      },
      "t_uint8": {
        "encoding": "inplace",
        "label": "uint8",
        "numberOfBytes": "1"
      }
    }
  }
}