{
  "_format": "hh-sol-artifact-1",
  "contractName": "GatewaySettingManager",
  "sourceName": "contracts/GatewaySettingManager.sol",
  "abi": [
    {
      "anonymous": false,
      "inputs": [
        {
          "indexed": false,
          "internalType": "uint8",
          "name": "version",
          "type": "uint8"
        }
      ],
      "name": "Initialized",
      "type": "event"
    },
    {
      "anonymous": false,
      "inputs": [
        {
          "indexed": true,
          "internalType": "address",
          "name": "previousOwner",
          "type": "address"
        },
        {
          "indexed": true,
          "internalType": "address",
          "name": "newOwner",
          "type": "address"
        }
      ],
      "name": "OwnershipTransferStarted",
      "type": "event"
    },
    {
      "anonymous": false,
      "inputs": [
        {
          "indexed": true,
          "internalType": "address",
          "name": "previousOwner",
          "type": "address"
        },
        {
          "indexed": true,
          "internalType": "address",
          "name": "newOwner",
          "type": "address"
        }
      ],
      "name": "OwnershipTransferred",
      "type": "event"
    },
    {
      "anonymous": false,
      "inputs": [
        {
          "indexed": true,
          "internalType": "bytes32",
          "name": "what",
          "type": "bytes32"
        },
        {
          "indexed": true,
          "internalType": "address",
          "name": "treasuryAddress",
          "type": "address"
        }
      ],
      "name": "ProtocolAddressUpdated",
      "type": "event"
    },
    {
      "anonymous": false,
      "inputs": [
        {
          "indexed": true,
          "internalType": "address",
          "name": "treasuryAddress",
          "type": "address"
        }
      ],
      "name": "SetFeeRecipient",
      "type": "event"
    },
    {
      "anonymous": false,
      "inputs": [
        {
          "indexed": true,
          "internalType": "bytes32",
          "name": "what",
          "type": "bytes32"
        },
        {
          "indexed": true,
          "internalType": "address",
          "name": "value",
          "type": "address"
        },
        {
          "indexed": false,
          "internalType": "uint256",
          "name": "status",
          "type": "uint256"
        }
      ],
      "name": "SettingManagerBool",
      "type": "event"
    },
    {
      "anonymous": false,
      "inputs": [
        {
          "indexed": true,
          "internalType": "address",
          "name": "token",
          "type": "address"
        },
        {
          "indexed": false,
          "internalType": "uint256",
          "name": "senderToProvider",
          "type": "uint256"
        },
        {
          "indexed": false,
          "internalType": "uint256",
          "name": "providerToAggregator",
          "type": "uint256"
        },
        {
          "indexed": false,
          "internalType": "uint256",
          "name": "senderToAggregator",
          "type": "uint256"
        },
        {
          "indexed": false,
          "internalType": "uint256",
          "name": "providerToAggregatorFx",
          "type": "uint256"
        }
      ],
      "name": "TokenFeeSettingsUpdated",
      "type": "event"
    },
    {
      "inputs": [],
      "name": "acceptOwnership",
      "outputs": [],
      "stateMutability": "nonpayable",
      "type": "function"
    },
    {
      "inputs": [
        {
          "internalType": "address",
          "name": "token",
          "type": "address"
        }
      ],
      "name": "getTokenFeeSettings",
      "outputs": [
        {
          "components": [
            {
              "internalType": "uint256",
              "name": "senderToProvider",
              "type": "uint256"
            },
            {
              "internalType": "uint256",
              "name": "providerToAggregator",
              "type": "uint256"
            },
            {
              "internalType": "uint256",
              "name": "senderToAggregator",
              "type": "uint256"
            },
            {
              "internalType": "uint256",
              "name": "providerToAggregatorFx",
              "type": "uint256"
            }
          ],
          "internalType": "struct GatewaySettingManager.TokenFeeSettings",
          "name": "",
          "type": "tuple"
        }
      ],
      "stateMutability": "view",
      "type": "function"
    },
    {
      "inputs": [],
      "name": "owner",
      "outputs": [
        {
          "internalType": "address",
          "name": "",
          "type": "address"
        }
      ],
      "stateMutability": "view",
      "type": "function"
    },
    {
      "inputs": [],
      "name": "pendingOwner",
      "outputs": [
        {
          "internalType": "address",
          "name": "",
          "type": "address"
        }
      ],
      "stateMutability": "view",
      "type": "function"
    },
    {
      "inputs": [],
      "name": "renounceOwnership",
      "outputs": [],
      "stateMutability": "nonpayable",
      "type": "function"
    },
    {
      "inputs": [
        {
          "internalType": "address",
          "name": "token",
          "type": "address"
        },
        {
          "internalType": "uint256",
          "name": "senderToProvider",
          "type": "uint256"
        },
        {
          "internalType": "uint256",
          "name": "providerToAggregator",
          "type": "uint256"
        },
        {
          "internalType": "uint256",
          "name": "senderToAggregator",
          "type": "uint256"
        },
        {
          "internalType": "uint256",
          "name": "providerToAggregatorFx",
          "type": "uint256"
        }
      ],
      "name": "setTokenFeeSettings",
      "outputs": [],
      "stateMutability": "nonpayable",
      "type": "function"
    },
    {
      "inputs": [
        {
          "internalType": "bytes32",
          "name": "what",
          "type": "bytes32"
        },
        {
          "internalType": "address",
          "name": "value",
          "type": "address"
        },
        {
          "internalType": "uint256",
          "name": "status",
          "type": "uint256"
        }
      ],
      "name": "settingManagerBool",
      "outputs": [],
      "stateMutability": "nonpayable",
      "type": "function"
    },
    {
      "inputs": [
        {
          "internalType": "address",
          "name": "newOwner",
          "type": "address"
        }
      ],
      "name": "transferOwnership",
      "outputs": [],
      "stateMutability": "nonpayable",
      "type": "function"
    },
    {
      "inputs": [
        {
          "internalType": "bytes32",
          "name": "what",
          "type": "bytes32"
        },
        {
          "internalType": "address",
          "name": "value",
          "type": "address"
        }
      ],
      "name": "updateProtocolAddress",
      "outputs": [],
      "stateMutability": "nonpayable",
      "type": "function"
    }
  ],
  "bytecode": "0x608060405234801561000f575f80fd5b506114c88061001d5f395ff3fe608060405234801561000f575f80fd5b5060043610610091575f3560e01c80638bfa0549116100645780638bfa0549146100e15780638da5cb5b14610111578063cd9924001461012f578063e30c39781461014b578063f2fde38b1461016957610091565b806340ebc67714610095578063715018a6146100b157806379ba5097146100bb578063898861b0146100c5575b5f80fd5b6100af60048036038101906100aa9190610c8f565b610185565b005b6100b9610449565b005b6100c361045c565b005b6100df60048036038101906100da9190610d00565b6104e8565b005b6100fb60048036038101906100f69190610d77565b610766565b6040516101089190610e04565b60405180910390f35b6101196107e4565b6040516101269190610e2c565b60405180910390f35b61014960048036038101906101449190610e45565b61080c565b005b61015361098e565b6040516101609190610e2c565b60405180910390f35b610183600480360381019061017e9190610d77565b6109b6565b005b61018d610a62565b5f73ffffffffffffffffffffffffffffffffffffffff168173ffffffffffffffffffffffffffffffffffffffff16036101fb576040517f08c379a00000000000000000000000000000000000000000000000000000000081526004016101f290610eef565b60405180910390fd5b5f7f747265617375727900000000000000000000000000000000000000000000000083036102fd578173ffffffffffffffffffffffffffffffffffffffff16609860089054906101000a900473ffffffffffffffffffffffffffffffffffffffff1673ffffffffffffffffffffffffffffffffffffffff16036102b3576040517f08c379a00000000000000000000000000000000000000000000000000000000081526004016102aa90610f7d565b60405180910390fd5b81609860086101000a81548173ffffffffffffffffffffffffffffffffffffffff021916908373ffffffffffffffffffffffffffffffffffffffff160217905550600190506103f9565b7f61676772656761746f720000000000000000000000000000000000000000000083036103f8578173ffffffffffffffffffffffffffffffffffffffff1660995f9054906101000a900473ffffffffffffffffffffffffffffffffffffffff1673ffffffffffffffffffffffffffffffffffffffff16036103b3576040517f08c379a00000000000000000000000000000000000000000000000000000000081526004016103aa9061100b565b60405180910390fd5b8160995f6101000a81548173ffffffffffffffffffffffffffffffffffffffff021916908373ffffffffffffffffffffffffffffffffffffffff160217905550600190505b5b8015610444578173ffffffffffffffffffffffffffffffffffffffff16837fbbc5b96e57cfecb3dbeeadf92e87f15e58e64fcd75cbe256dcc5d9ef2e51e8a460405160405180910390a35b505050565b610451610a62565b61045a5f610ae0565b565b5f610465610b10565b90508073ffffffffffffffffffffffffffffffffffffffff1661048661098e565b73ffffffffffffffffffffffffffffffffffffffff16146104dc576040517f08c379a00000000000000000000000000000000000000000000000000000000081526004016104d390611099565b60405180910390fd5b6104e581610ae0565b50565b6104f0610a62565b6001609a5f8773ffffffffffffffffffffffffffffffffffffffff1673ffffffffffffffffffffffffffffffffffffffff1681526020019081526020015f205414610570576040517f08c379a000000000000000000000000000000000000000000000000000000000815260040161056790611101565b60405180910390fd5b6097548411156105b5576040517f08c379a00000000000000000000000000000000000000000000000000000000081526004016105ac9061118f565b60405180910390fd5b6097548311156105fa576040517f08c379a00000000000000000000000000000000000000000000000000000000081526004016105f19061121d565b60405180910390fd5b60975482111561063f576040517f08c379a0000000000000000000000000000000000000000000000000000000008152600401610636906112ab565b60405180910390fd5b609754811115610684576040517f08c379a000000000000000000000000000000000000000000000000000000000815260040161067b90611339565b60405180910390fd5b604051806080016040528085815260200184815260200183815260200182815250609b5f8773ffffffffffffffffffffffffffffffffffffffff1673ffffffffffffffffffffffffffffffffffffffff1681526020019081526020015f205f820151815f01556020820151816001015560408201518160020155606082015181600301559050508473ffffffffffffffffffffffffffffffffffffffff167fd4d646cffa66ebf695b792bd660c97076ed45a889e14d544eb8ab8a44b34a59c858585856040516107579493929190611366565b60405180910390a25050505050565b61076e610bda565b609b5f8373ffffffffffffffffffffffffffffffffffffffff1673ffffffffffffffffffffffffffffffffffffffff1681526020019081526020015f206040518060800160405290815f820154815260200160018201548152602001600282015481526020016003820154815250509050919050565b5f60335f9054906101000a900473ffffffffffffffffffffffffffffffffffffffff16905090565b610814610a62565b5f73ffffffffffffffffffffffffffffffffffffffff168273ffffffffffffffffffffffffffffffffffffffff1603610882576040517f08c379a000000000000000000000000000000000000000000000000000000000815260040161087990610eef565b60405180910390fd5b60018114806108915750600281145b6108d0576040517f08c379a00000000000000000000000000000000000000000000000000000000081526004016108c7906113f3565b60405180910390fd5b7f746f6b656e00000000000000000000000000000000000000000000000000000083036109895780609a5f8473ffffffffffffffffffffffffffffffffffffffff1673ffffffffffffffffffffffffffffffffffffffff1681526020019081526020015f20819055508173ffffffffffffffffffffffffffffffffffffffff16837fcfa976492af7c14a916cc3a239f4c9c75bbd7f5f0e398beb41d892c7eeccae4c836040516109809190611411565b60405180910390a35b505050565b5f60655f9054906101000a900473ffffffffffffffffffffffffffffffffffffffff16905090565b6109be610a62565b8060655f6101000a81548173ffffffffffffffffffffffffffffffffffffffff021916908373ffffffffffffffffffffffffffffffffffffffff1602179055508073ffffffffffffffffffffffffffffffffffffffff16610a1d6107e4565b73ffffffffffffffffffffffffffffffffffffffff167f38d16b8cac22d99fc7c124b9cd0de2d3fa1faef420bfe791d8c362d765e2270060405160405180910390a350565b610a6a610b10565b73ffffffffffffffffffffffffffffffffffffffff16610a886107e4565b73ffffffffffffffffffffffffffffffffffffffff1614610ade576040517f08c379a0000000000000000000000000000000000000000000000000000000008152600401610ad590611474565b60405180910390fd5b565b60655f6101000a81549073ffffffffffffffffffffffffffffffffffffffff0219169055610b0d81610b17565b50565b5f33905090565b5f60335f9054906101000a900473ffffffffffffffffffffffffffffffffffffffff1690508160335f6101000a81548173ffffffffffffffffffffffffffffffffffffffff021916908373ffffffffffffffffffffffffffffffffffffffff1602179055508173ffffffffffffffffffffffffffffffffffffffff168173ffffffffffffffffffffffffffffffffffffffff167f8be0079c531659141344cd1fd0a4f28419497f9722a3daafe3b4186f6b6457e060405160405180910390a35050565b60405180608001604052805f81526020015f81526020015f81526020015f81525090565b5f80fd5b5f819050919050565b610c1481610c02565b8114610c1e575f80fd5b50565b5f81359050610c2f81610c0b565b92915050565b5f73ffffffffffffffffffffffffffffffffffffffff82169050919050565b5f610c5e82610c35565b9050919050565b610c6e81610c54565b8114610c78575f80fd5b50565b5f81359050610c8981610c65565b92915050565b5f8060408385031215610ca557610ca4610bfe565b5b5f610cb285828601610c21565b9250506020610cc385828601610c7b565b9150509250929050565b5f819050919050565b610cdf81610ccd565b8114610ce9575f80fd5b50565b5f81359050610cfa81610cd6565b92915050565b5f805f805f60a08688031215610d1957610d18610bfe565b5b5f610d2688828901610c7b565b9550506020610d3788828901610cec565b9450506040610d4888828901610cec565b9350506060610d5988828901610cec565b9250506080610d6a88828901610cec565b9150509295509295909350565b5f60208284031215610d8c57610d8b610bfe565b5b5f610d9984828501610c7b565b91505092915050565b610dab81610ccd565b82525050565b608082015f820151610dc55f850182610da2565b506020820151610dd86020850182610da2565b506040820151610deb6040850182610da2565b506060820151610dfe6060850182610da2565b50505050565b5f608082019050610e175f830184610db1565b92915050565b610e2681610c54565b82525050565b5f602082019050610e3f5f830184610e1d565b92915050565b5f805f60608486031215610e5c57610e5b610bfe565b5b5f610e6986828701610c21565b9350506020610e7a86828701610c7b565b9250506040610e8b86828701610cec565b9150509250925092565b5f82825260208201905092915050565b7f476174657761793a207a65726f206164647265737300000000000000000000005f82015250565b5f610ed9601583610e95565b9150610ee482610ea5565b602082019050919050565b5f6020820190508181035f830152610f0681610ecd565b9050919050565b7f476174657761793a207472656173757279206164647265737320616c726561645f8201527f7920736574000000000000000000000000000000000000000000000000000000602082015250565b5f610f67602583610e95565b9150610f7282610f0d565b604082019050919050565b5f6020820190508181035f830152610f9481610f5b565b9050919050565b7f476174657761793a2061676772656761746f72206164647265737320616c72655f8201527f6164792073657400000000000000000000000000000000000000000000000000602082015250565b5f610ff5602783610e95565b915061100082610f9b565b604082019050919050565b5f6020820190508181035f83015261102281610fe9565b9050919050565b7f4f776e61626c6532537465703a2063616c6c6572206973206e6f7420746865205f8201527f6e6577206f776e65720000000000000000000000000000000000000000000000602082015250565b5f611083602983610e95565b915061108e82611029565b604082019050919050565b5f6020820190508181035f8301526110b081611077565b9050919050565b7f476174657761793a20746f6b656e206e6f7420737570706f72746564000000005f82015250565b5f6110eb601c83610e95565b91506110f6826110b7565b602082019050919050565b5f6020820190508181035f830152611118816110df565b9050919050565b7f476174657761793a20696e76616c69642073656e64657220746f2070726f76695f8201527f6465720000000000000000000000000000000000000000000000000000000000602082015250565b5f611179602383610e95565b91506111848261111f565b604082019050919050565b5f6020820190508181035f8301526111a68161116d565b9050919050565b7f476174657761793a20696e76616c69642070726f766964657220746f206167675f8201527f72656761746f7200000000000000000000000000000000000000000000000000602082015250565b5f611207602783610e95565b9150611212826111ad565b604082019050919050565b5f6020820190508181035f830152611234816111fb565b9050919050565b7f476174657761793a20696e76616c69642073656e64657220746f2061676772655f8201527f6761746f72000000000000000000000000000000000000000000000000000000602082015250565b5f611295602583610e95565b91506112a08261123b565b604082019050919050565b5f6020820190508181035f8301526112c281611289565b9050919050565b7f476174657761793a20696e76616c69642070726f766964657220746f206167675f8201527f72656761746f7220667800000000000000000000000000000000000000000000602082015250565b5f611323602a83610e95565b915061132e826112c9565b604082019050919050565b5f6020820190508181035f83015261135081611317565b9050919050565b61136081610ccd565b82525050565b5f6080820190506113795f830187611357565b6113866020830186611357565b6113936040830185611357565b6113a06060830184611357565b95945050505050565b7f476174657761793a20696e76616c6964207374617475730000000000000000005f82015250565b5f6113dd601783610e95565b91506113e8826113a9565b602082019050919050565b5f6020820190508181035f83015261140a816113d1565b9050919050565b5f6020820190506114245f830184611357565b92915050565b7f4f776e61626c653a2063616c6c6572206973206e6f7420746865206f776e65725f82015250565b5f61145e602083610e95565b91506114698261142a565b602082019050919050565b5f6020820190508181035f83015261148b81611452565b905091905056fea2646970667358221220501f5547a2da906016cb57c16e745ed8301050ccb83749f526f2c5a06972904864736f6c63430008140033",
  "linkReferences": {},
  "deployedLinkReferences": {}
}