{
  "_format": "hh-sol-artifact-1",
  "contractName": "GatewaySettingManager",
  "sourceName": "contracts/GatewaySettingManager.sol",
  "abi": [
    {
      "anonymous": false,
      "inputs": [
        {
          "indexed": false,
          "internalType": "uint8",
          "name": "version",
          "type": "uint8"
        }
      ],
      "name": "Initialized",
      "type": "event"
    },
    {
      "anonymous": false,
      "inputs": [
        {
          "indexed": true,
          "internalType": "address",
          "name": "previousOwner",
          "type": "address"
        },
        {
          "indexed": true,
          "internalType": "address",
          "name": "newOwner",
          "type": "address"
        }
      ],
      "name": "OwnershipTransferStarted",
      "type": "event"
    },
    {
      "anonymous": false,
      "inputs": [
        {
          "indexed": true,
          "internalType": "address",
          "name": "previousOwner",
          "type": "address"
        },
        {
          "indexed": true,
          "internalType": "address",
          "name": "newOwner",
          "type": "address"
        }
      ],
      "name": "OwnershipTransferred",
      "type": "event"
    },
    {
      "anonymous": false,
      "inputs": [
        {
          "indexed": true,
          "internalType": "bytes32",
          "name": "what",
          "type": "bytes32"
        },
        {
          "indexed": true,
          "internalType": "address",
          "name": "treasuryAddress",
          "type": "address"
        }
      ],
      "name": "ProtocolAddressUpdated",
      "type": "event"
    },
    {
      "anonymous": false,
      "inputs": [
        {
          "indexed": false,
          "internalType": "uint64",
          "name": "protocolFee",
          "type": "uint64"
        }
      ],
      "name": "ProtocolFeeUpdated",
      "type": "event"
    },
    {
      "anonymous": false,
      "inputs": [
        {
          "indexed": true,
          "internalType": "address",
          "name": "treasuryAddress",
          "type": "address"
        }
      ],
      "name": "SetFeeRecipient",
      "type": "event"
    },
    {
      "anonymous": false,
      "inputs": [
        {
          "indexed": true,
          "internalType": "bytes32",
          "name": "what",
          "type": "bytes32"
        },
        {
          "indexed": true,
          "internalType": "address",
          "name": "value",
          "type": "address"
        },
        {
          "indexed": false,
          "internalType": "uint256",
          "name": "status",
          "type": "uint256"
        }
      ],
      "name": "SettingManagerBool",
      "type": "event"
    },
    {
      "anonymous": false,
      "inputs": [
        {
          "indexed": true,
          "internalType": "bytes32",
          "name": "currency",
          "type": "bytes32"
        },
        {
          "components": [
            {
              "internalType": "bytes32",
              "name": "code",
              "type": "bytes32"
            },
            {
              "internalType": "bytes32",
              "name": "name",
              "type": "bytes32"
            }
          ],
          "indexed": false,
          "internalType": "struct SharedStructs.Institution[]",
          "name": "institutions",
          "type": "tuple[]"
        }
      ],
      "name": "SupportedInstitutionsUpdated",
      "type": "event"
    },
    {
      "inputs": [],
      "name": "acceptOwnership",
      "outputs": [],
      "stateMutability": "nonpayable",
      "type": "function"
    },
    {
      "inputs": [],
      "name": "owner",
      "outputs": [
        {
          "internalType": "address",
          "name": "",
          "type": "address"
        }
      ],
      "stateMutability": "view",
      "type": "function"
    },
    {
      "inputs": [],
      "name": "pendingOwner",
      "outputs": [
        {
          "internalType": "address",
          "name": "",
          "type": "address"
        }
      ],
      "stateMutability": "view",
      "type": "function"
    },
    {
      "inputs": [],
      "name": "renounceOwnership",
      "outputs": [],
      "stateMutability": "nonpayable",
      "type": "function"
    },
    {
      "inputs": [
        {
          "internalType": "bytes32",
          "name": "currency",
          "type": "bytes32"
        },
        {
          "components": [
            {
              "internalType": "bytes32",
              "name": "code",
              "type": "bytes32"
            },
            {
              "internalType": "bytes32",
              "name": "name",
              "type": "bytes32"
            }
          ],
          "internalType": "struct SharedStructs.Institution[]",
          "name": "institutions",
          "type": "tuple[]"
        }
      ],
      "name": "setSupportedInstitutions",
      "outputs": [],
      "stateMutability": "nonpayable",
      "type": "function"
    },
    {
      "inputs": [
        {
          "internalType": "bytes32",
          "name": "what",
          "type": "bytes32"
        },
        {
          "internalType": "address",
          "name": "value",
          "type": "address"
        },
        {
          "internalType": "uint256",
          "name": "status",
          "type": "uint256"
        }
      ],
      "name": "settingManagerBool",
      "outputs": [],
      "stateMutability": "nonpayable",
      "type": "function"
    },
    {
      "inputs": [
        {
          "internalType": "address",
          "name": "newOwner",
          "type": "address"
        }
      ],
      "name": "transferOwnership",
      "outputs": [],
      "stateMutability": "nonpayable",
      "type": "function"
    },
    {
      "inputs": [
        {
          "internalType": "bytes32",
          "name": "what",
          "type": "bytes32"
        },
        {
          "internalType": "address",
          "name": "value",
          "type": "address"
        }
      ],
      "name": "updateProtocolAddress",
      "outputs": [],
      "stateMutability": "nonpayable",
      "type": "function"
    },
    {
      "inputs": [
        {
          "internalType": "uint64",
          "name": "_protocolFeePercent",
          "type": "uint64"
        }
      ],
      "name": "updateProtocolFee",
      "outputs": [],
      "stateMutability": "nonpayable",
      "type": "function"
    }
  ],
  "bytecode": "0x608060405234801561001057600080fd5b5061146a806100206000396000f3fe608060405234801561001057600080fd5b50600436106100935760003560e01c806379ba50971161006657806379ba5097146100f65780638da5cb5b14610100578063cd9924001461011e578063e30c39781461013a578063f2fde38b1461015857610093565b8063322008821461009857806340ebc677146100b457806347094e2e146100d0578063715018a6146100ec575b600080fd5b6100b260048036038101906100ad9190610d03565b610174565b005b6100ce60048036038101906100c99190610dbd565b6102e9565b005b6100ea60048036038101906100e59190610e3d565b6105b1565b005b6100f461061c565b005b6100fe610630565b005b6101086106bd565b6040516101159190610e79565b60405180910390f35b61013860048036038101906101339190610eca565b6106e7565b005b61014261086c565b60405161014f9190610e79565b60405180910390f35b610172600480360381019061016d9190610f1d565b610896565b005b61017c610943565b60cd6000838152602001908152602001600020600061019b9190610ac0565b60005b815181101561029a5760cd60008481526020019081526020016000208282815181106101cd576101cc610f4a565b5b6020026020010151908060018154018082558091505060019003906000526020600020906002020160009091909190915060008201518160000155602082015181600101555050604051806040016040528083838151811061023257610231610f4a565b5b60200260200101516020015181526020018481525060ce600084848151811061025e5761025d610f4a565b5b6020026020010151600001518152602001908152602001600020600082015181600001556020820151816001015590505080600101905061019e565b50817f58f3a30ec15a8d3e09fa65f9ef10219bc7a9a99d872a4ed895c37c2e761ac2ac60cd60008581526020019081526020016000206040516102dd91906110b3565b60405180910390a25050565b6102f1610943565b600073ffffffffffffffffffffffffffffffffffffffff168173ffffffffffffffffffffffffffffffffffffffff1603610360576040517f08c379a000000000000000000000000000000000000000000000000000000000815260040161035790611132565b60405180910390fd5b60007f74726561737572790000000000000000000000000000000000000000000000008303610463578173ffffffffffffffffffffffffffffffffffffffff16609860089054906101000a900473ffffffffffffffffffffffffffffffffffffffff1673ffffffffffffffffffffffffffffffffffffffff1603610419576040517f08c379a0000000000000000000000000000000000000000000000000000000008152600401610410906111c4565b60405180910390fd5b81609860086101000a81548173ffffffffffffffffffffffffffffffffffffffff021916908373ffffffffffffffffffffffffffffffffffffffff16021790555060019050610561565b7f61676772656761746f72000000000000000000000000000000000000000000008303610560578173ffffffffffffffffffffffffffffffffffffffff16609960009054906101000a900473ffffffffffffffffffffffffffffffffffffffff1673ffffffffffffffffffffffffffffffffffffffff160361051a576040517f08c379a000000000000000000000000000000000000000000000000000000000815260040161051190611256565b60405180910390fd5b81609960006101000a81548173ffffffffffffffffffffffffffffffffffffffff021916908373ffffffffffffffffffffffffffffffffffffffff160217905550600190505b5b80156105ac578173ffffffffffffffffffffffffffffffffffffffff16837fbbc5b96e57cfecb3dbeeadf92e87f15e58e64fcd75cbe256dcc5d9ef2e51e8a460405160405180910390a35b505050565b6105b9610943565b80609860006101000a81548167ffffffffffffffff021916908367ffffffffffffffff1602179055507f1ce29a697a4765bd17d91df93ba75b250b629ecf030553ff1f6ab59f15ae6c7b816040516106119190611285565b60405180910390a150565b610624610943565b61062e60006109c1565b565b600061063a6109f2565b90508073ffffffffffffffffffffffffffffffffffffffff1661065b61086c565b73ffffffffffffffffffffffffffffffffffffffff16146106b1576040517f08c379a00000000000000000000000000000000000000000000000000000000081526004016106a890611312565b60405180910390fd5b6106ba816109c1565b50565b6000603360009054906101000a900473ffffffffffffffffffffffffffffffffffffffff16905090565b6106ef610943565b600073ffffffffffffffffffffffffffffffffffffffff168273ffffffffffffffffffffffffffffffffffffffff160361075e576040517f08c379a000000000000000000000000000000000000000000000000000000000815260040161075590611132565b60405180910390fd5b600181148061076d5750600281145b6107ac576040517f08c379a00000000000000000000000000000000000000000000000000000000081526004016107a39061137e565b60405180910390fd5b7f746f6b656e0000000000000000000000000000000000000000000000000000008303610867578060cc60008473ffffffffffffffffffffffffffffffffffffffff1673ffffffffffffffffffffffffffffffffffffffff168152602001908152602001600020819055508173ffffffffffffffffffffffffffffffffffffffff16837fcfa976492af7c14a916cc3a239f4c9c75bbd7f5f0e398beb41d892c7eeccae4c8360405161085e91906113ad565b60405180910390a35b505050565b6000606560009054906101000a900473ffffffffffffffffffffffffffffffffffffffff16905090565b61089e610943565b80606560006101000a81548173ffffffffffffffffffffffffffffffffffffffff021916908373ffffffffffffffffffffffffffffffffffffffff1602179055508073ffffffffffffffffffffffffffffffffffffffff166108fe6106bd565b73ffffffffffffffffffffffffffffffffffffffff167f38d16b8cac22d99fc7c124b9cd0de2d3fa1faef420bfe791d8c362d765e2270060405160405180910390a350565b61094b6109f2565b73ffffffffffffffffffffffffffffffffffffffff166109696106bd565b73ffffffffffffffffffffffffffffffffffffffff16146109bf576040517f08c379a00000000000000000000000000000000000000000000000000000000081526004016109b690611414565b60405180910390fd5b565b606560006101000a81549073ffffffffffffffffffffffffffffffffffffffff02191690556109ef816109fa565b50565b600033905090565b6000603360009054906101000a900473ffffffffffffffffffffffffffffffffffffffff16905081603360006101000a81548173ffffffffffffffffffffffffffffffffffffffff021916908373ffffffffffffffffffffffffffffffffffffffff1602179055508173ffffffffffffffffffffffffffffffffffffffff168173ffffffffffffffffffffffffffffffffffffffff167f8be0079c531659141344cd1fd0a4f28419497f9722a3daafe3b4186f6b6457e060405160405180910390a35050565b5080546000825560020290600052602060002090810190610ae19190610ae4565b50565b5b80821115610b0757600080820160009055600182016000905550600201610ae5565b5090565b6000604051905090565b600080fd5b600080fd5b6000819050919050565b610b3281610b1f565b8114610b3d57600080fd5b50565b600081359050610b4f81610b29565b92915050565b600080fd5b6000601f19601f8301169050919050565b7f4e487b7100000000000000000000000000000000000000000000000000000000600052604160045260246000fd5b610ba382610b5a565b810181811067ffffffffffffffff82111715610bc257610bc1610b6b565b5b80604052505050565b6000610bd5610b0b565b9050610be18282610b9a565b919050565b600067ffffffffffffffff821115610c0157610c00610b6b565b5b602082029050602081019050919050565b600080fd5b600080fd5b600060408284031215610c3257610c31610c17565b5b610c3c6040610bcb565b90506000610c4c84828501610b40565b6000830152506020610c6084828501610b40565b60208301525092915050565b6000610c7f610c7a84610be6565b610bcb565b90508083825260208201905060408402830185811115610ca257610ca1610c12565b5b835b81811015610ccb5780610cb78882610c1c565b845260208401935050604081019050610ca4565b5050509392505050565b600082601f830112610cea57610ce9610b55565b5b8135610cfa848260208601610c6c565b91505092915050565b60008060408385031215610d1a57610d19610b15565b5b6000610d2885828601610b40565b925050602083013567ffffffffffffffff811115610d4957610d48610b1a565b5b610d5585828601610cd5565b9150509250929050565b600073ffffffffffffffffffffffffffffffffffffffff82169050919050565b6000610d8a82610d5f565b9050919050565b610d9a81610d7f565b8114610da557600080fd5b50565b600081359050610db781610d91565b92915050565b60008060408385031215610dd457610dd3610b15565b5b6000610de285828601610b40565b9250506020610df385828601610da8565b9150509250929050565b600067ffffffffffffffff82169050919050565b610e1a81610dfd565b8114610e2557600080fd5b50565b600081359050610e3781610e11565b92915050565b600060208284031215610e5357610e52610b15565b5b6000610e6184828501610e28565b91505092915050565b610e7381610d7f565b82525050565b6000602082019050610e8e6000830184610e6a565b92915050565b6000819050919050565b610ea781610e94565b8114610eb257600080fd5b50565b600081359050610ec481610e9e565b92915050565b600080600060608486031215610ee357610ee2610b15565b5b6000610ef186828701610b40565b9350506020610f0286828701610da8565b9250506040610f1386828701610eb5565b9150509250925092565b600060208284031215610f3357610f32610b15565b5b6000610f4184828501610da8565b91505092915050565b7f4e487b7100000000000000000000000000000000000000000000000000000000600052603260045260246000fd5b600081549050919050565b600082825260208201905092915050565b60008190508160005260206000209050919050565b60008160001c9050919050565b6000819050919050565b6000610fd4610fcf83610faa565b610fb7565b9050919050565b610fe481610b1f565b82525050565b604082016000808301549050610fff81610fc1565b61100c6000860182610fdb565b506001830154905061101d81610fc1565b61102a6020860182610fdb565b5050505050565b600061103d8383610fea565b60408301905092915050565b6000600282019050919050565b600061106182610f79565b61106b8185610f84565b935061107683610f95565b8060005b838110156110a6578161108d8882611031565b975061109883611049565b92505060018101905061107a565b5085935050505092915050565b600060208201905081810360008301526110cd8184611056565b905092915050565b600082825260208201905092915050565b7f476174657761793a207a65726f20616464726573730000000000000000000000600082015250565b600061111c6015836110d5565b9150611127826110e6565b602082019050919050565b6000602082019050818103600083015261114b8161110f565b9050919050565b7f476174657761793a207472656173757279206164647265737320616c7265616460008201527f7920736574000000000000000000000000000000000000000000000000000000602082015250565b60006111ae6025836110d5565b91506111b982611152565b604082019050919050565b600060208201905081810360008301526111dd816111a1565b9050919050565b7f476174657761793a2061676772656761746f72206164647265737320616c726560008201527f6164792073657400000000000000000000000000000000000000000000000000602082015250565b60006112406027836110d5565b915061124b826111e4565b604082019050919050565b6000602082019050818103600083015261126f81611233565b9050919050565b61127f81610dfd565b82525050565b600060208201905061129a6000830184611276565b92915050565b7f4f776e61626c6532537465703a2063616c6c6572206973206e6f74207468652060008201527f6e6577206f776e65720000000000000000000000000000000000000000000000602082015250565b60006112fc6029836110d5565b9150611307826112a0565b604082019050919050565b6000602082019050818103600083015261132b816112ef565b9050919050565b7f476174657761793a20696e76616c696420737461747573000000000000000000600082015250565b60006113686017836110d5565b915061137382611332565b602082019050919050565b600060208201905081810360008301526113978161135b565b9050919050565b6113a781610e94565b82525050565b60006020820190506113c2600083018461139e565b92915050565b7f4f776e61626c653a2063616c6c6572206973206e6f7420746865206f776e6572600082015250565b60006113fe6020836110d5565b9150611409826113c8565b602082019050919050565b6000602082019050818103600083015261142d816113f1565b905091905056fea2646970667358221220a5cf2406f8bb007a45008610cf8baf05dde6f3dbf02727307f944766ecf3cbe164736f6c63430008120033",
  "linkReferences": {},
  "deployedLinkReferences": {}
}