{
  "_format": "hh-sol-artifact-1",
  "contractName": "Paycrest",
  "sourceName": "contracts/Paycrest.sol",
  "abi": [
    {
      "inputs": [],
      "stateMutability": "nonpayable",
      "type": "constructor"
    },
    {
      "anonymous": false,
      "inputs": [
        {
          "indexed": false,
          "internalType": "uint8",
          "name": "version",
          "type": "uint8"
        }
      ],
      "name": "Initialized",
      "type": "event"
    },
    {
      "anonymous": false,
      "inputs": [
        {
          "indexed": true,
          "internalType": "address",
          "name": "token",
          "type": "address"
        },
        {
          "indexed": true,
          "internalType": "uint256",
          "name": "amount",
          "type": "uint256"
        },
        {
          "indexed": false,
          "internalType": "uint256",
          "name": "protocolFee",
          "type": "uint256"
        },
        {
          "indexed": true,
          "internalType": "bytes32",
          "name": "orderId",
          "type": "bytes32"
        },
        {
          "indexed": false,
          "internalType": "uint256",
          "name": "rate",
          "type": "uint256"
        },
        {
          "indexed": false,
          "internalType": "bytes32",
          "name": "institutionCode",
          "type": "bytes32"
        },
        {
          "indexed": false,
          "internalType": "bytes32",
          "name": "label",
          "type": "bytes32"
        },
        {
          "indexed": false,
          "internalType": "string",
          "name": "messageHash",
          "type": "string"
        }
      ],
      "name": "OrderCreated",
      "type": "event"
    },
    {
      "anonymous": false,
      "inputs": [
        {
          "indexed": false,
          "internalType": "uint256",
          "name": "fee",
          "type": "uint256"
        },
        {
          "indexed": true,
          "internalType": "bytes32",
          "name": "orderId",
          "type": "bytes32"
        },
        {
          "indexed": false,
          "internalType": "bytes32",
          "name": "label",
          "type": "bytes32"
        }
      ],
      "name": "OrderRefunded",
      "type": "event"
    },
    {
      "anonymous": false,
      "inputs": [
        {
          "indexed": false,
          "internalType": "bytes32",
          "name": "splitOrderId",
          "type": "bytes32"
        },
        {
          "indexed": true,
          "internalType": "bytes32",
          "name": "orderId",
          "type": "bytes32"
        },
        {
          "indexed": false,
          "internalType": "bytes32",
          "name": "label",
          "type": "bytes32"
        },
        {
          "indexed": true,
          "internalType": "address",
          "name": "liquidityProvider",
          "type": "address"
        },
        {
          "indexed": false,
          "internalType": "uint96",
          "name": "settlePercent",
          "type": "uint96"
        }
      ],
      "name": "OrderSettled",
      "type": "event"
    },
    {
      "anonymous": false,
      "inputs": [
        {
          "indexed": true,
          "internalType": "address",
          "name": "previousOwner",
          "type": "address"
        },
        {
          "indexed": true,
          "internalType": "address",
          "name": "newOwner",
          "type": "address"
        }
      ],
      "name": "OwnershipTransferStarted",
      "type": "event"
    },
    {
      "anonymous": false,
      "inputs": [
        {
          "indexed": true,
          "internalType": "address",
          "name": "previousOwner",
          "type": "address"
        },
        {
          "indexed": true,
          "internalType": "address",
          "name": "newOwner",
          "type": "address"
        }
      ],
      "name": "OwnershipTransferred",
      "type": "event"
    },
    {
      "anonymous": false,
      "inputs": [
        {
          "indexed": false,
          "internalType": "address",
          "name": "account",
          "type": "address"
        }
      ],
      "name": "Paused",
      "type": "event"
    },
    {
      "anonymous": false,
      "inputs": [
        {
          "indexed": true,
          "internalType": "bytes32",
          "name": "what",
          "type": "bytes32"
        },
        {
          "indexed": true,
          "internalType": "address",
          "name": "treasuryAddress",
          "type": "address"
        }
      ],
      "name": "ProtocolAddressUpdated",
      "type": "event"
    },
    {
      "anonymous": false,
      "inputs": [
        {
          "indexed": false,
          "internalType": "uint64",
          "name": "protocolFee",
          "type": "uint64"
        }
      ],
      "name": "ProtocolFeesUpdated",
      "type": "event"
    },
    {
      "anonymous": false,
      "inputs": [
        {
          "indexed": true,
          "internalType": "address",
          "name": "sender",
          "type": "address"
        },
        {
          "indexed": true,
          "internalType": "uint256",
          "name": "amount",
          "type": "uint256"
        }
      ],
      "name": "SenderFeeTransferred",
      "type": "event"
    },
    {
      "anonymous": false,
      "inputs": [
        {
          "indexed": true,
          "internalType": "bytes",
          "name": "aggregator",
          "type": "bytes"
        }
      ],
      "name": "SetAggregator",
      "type": "event"
    },
    {
      "anonymous": false,
      "inputs": [
        {
          "indexed": true,
          "internalType": "address",
          "name": "treasuryAddress",
          "type": "address"
        }
      ],
      "name": "SetFeeRecipient",
      "type": "event"
    },
    {
      "anonymous": false,
      "inputs": [
        {
          "indexed": true,
          "internalType": "bytes32",
          "name": "what",
          "type": "bytes32"
        },
        {
          "indexed": true,
          "internalType": "address",
          "name": "value",
          "type": "address"
        },
        {
          "indexed": false,
          "internalType": "uint256",
          "name": "status",
          "type": "uint256"
        }
      ],
      "name": "SettingManagerBool",
      "type": "event"
    },
    {
      "anonymous": false,
      "inputs": [
        {
          "indexed": true,
          "internalType": "bytes32",
          "name": "currency",
          "type": "bytes32"
        },
        {
          "components": [
            {
              "internalType": "bytes32",
              "name": "code",
              "type": "bytes32"
            },
            {
              "internalType": "bytes32",
              "name": "name",
              "type": "bytes32"
            }
          ],
          "indexed": false,
          "internalType": "struct SharedStructs.Institution[]",
          "name": "institutions",
          "type": "tuple[]"
        }
      ],
      "name": "SupportedInstitutionsUpdated",
      "type": "event"
    },
    {
      "anonymous": false,
      "inputs": [
        {
          "indexed": false,
          "internalType": "address",
          "name": "account",
          "type": "address"
        }
      ],
      "name": "Unpaused",
      "type": "event"
    },
    {
      "inputs": [],
      "name": "acceptOwnership",
      "outputs": [],
      "stateMutability": "nonpayable",
      "type": "function"
    },
    {
      "inputs": [
        {
          "internalType": "address",
          "name": "_token",
          "type": "address"
        },
        {
          "internalType": "uint256",
          "name": "_amount",
          "type": "uint256"
        },
        {
          "internalType": "bytes32",
          "name": "_institutionCode",
          "type": "bytes32"
        },
        {
          "internalType": "bytes32",
          "name": "_label",
          "type": "bytes32"
        },
        {
          "internalType": "uint96",
          "name": "_rate",
          "type": "uint96"
        },
        {
          "internalType": "address",
          "name": "_senderFeeRecipient",
          "type": "address"
        },
        {
          "internalType": "uint256",
          "name": "_senderFee",
          "type": "uint256"
        },
        {
          "internalType": "address",
          "name": "_refundAddress",
          "type": "address"
        },
        {
          "internalType": "string",
          "name": "messageHash",
          "type": "string"
        }
      ],
      "name": "createOrder",
      "outputs": [
        {
          "internalType": "bytes32",
          "name": "orderId",
          "type": "bytes32"
        }
      ],
      "stateMutability": "nonpayable",
      "type": "function"
    },
    {
      "inputs": [],
      "name": "getAggregator",
      "outputs": [
        {
          "internalType": "bytes",
          "name": "",
          "type": "bytes"
        }
      ],
      "stateMutability": "view",
      "type": "function"
    },
    {
      "inputs": [],
      "name": "getFeeDetails",
      "outputs": [
        {
          "internalType": "uint64",
          "name": "",
          "type": "uint64"
        },
        {
          "internalType": "uint256",
          "name": "",
          "type": "uint256"
        }
      ],
      "stateMutability": "view",
      "type": "function"
    },
    {
      "inputs": [
        {
          "internalType": "bytes32",
          "name": "_orderId",
          "type": "bytes32"
        }
      ],
      "name": "getOrderInfo",
      "outputs": [
        {
          "components": [
            {
              "internalType": "address",
              "name": "seller",
              "type": "address"
            },
            {
              "internalType": "address",
              "name": "token",
              "type": "address"
            },
            {
              "internalType": "address",
              "name": "senderFeeRecipient",
              "type": "address"
            },
            {
              "internalType": "uint256",
              "name": "senderFee",
              "type": "uint256"
            },
            {
              "internalType": "uint256",
              "name": "protocolFee",
              "type": "uint256"
            },
            {
              "internalType": "uint96",
              "name": "rate",
              "type": "uint96"
            },
            {
              "internalType": "bool",
              "name": "isFulfilled",
              "type": "bool"
            },
            {
              "internalType": "address",
              "name": "refundAddress",
              "type": "address"
            },
            {
              "internalType": "uint96",
              "name": "currentBPS",
              "type": "uint96"
            },
            {
              "internalType": "uint256",
              "name": "amount",
              "type": "uint256"
            }
          ],
          "internalType": "struct IPaycrest.Order",
          "name": "",
          "type": "tuple"
        }
      ],
      "stateMutability": "view",
      "type": "function"
    },
    {
      "inputs": [
        {
          "internalType": "bytes32",
          "name": "_code",
          "type": "bytes32"
        }
      ],
      "name": "getSupportedInstitutionByCode",
      "outputs": [
        {
          "components": [
            {
              "internalType": "bytes32",
              "name": "name",
              "type": "bytes32"
            },
            {
              "internalType": "bytes32",
              "name": "currency",
              "type": "bytes32"
            }
          ],
          "internalType": "struct SharedStructs.InstitutionByCode",
          "name": "",
          "type": "tuple"
        }
      ],
      "stateMutability": "view",
      "type": "function"
    },
    {
      "inputs": [
        {
          "internalType": "bytes32",
          "name": "_currency",
          "type": "bytes32"
        }
      ],
      "name": "getSupportedInstitutions",
      "outputs": [
        {
          "components": [
            {
              "internalType": "bytes32",
              "name": "code",
              "type": "bytes32"
            },
            {
              "internalType": "bytes32",
              "name": "name",
              "type": "bytes32"
            }
          ],
          "internalType": "struct SharedStructs.Institution[]",
          "name": "",
          "type": "tuple[]"
        }
      ],
      "stateMutability": "view",
      "type": "function"
    },
    {
      "inputs": [],
      "name": "initialize",
      "outputs": [],
      "stateMutability": "nonpayable",
      "type": "function"
    },
    {
      "inputs": [
        {
          "internalType": "address",
          "name": "_token",
          "type": "address"
        }
      ],
      "name": "isTokenSupported",
      "outputs": [
        {
          "internalType": "bool",
          "name": "",
          "type": "bool"
        }
      ],
      "stateMutability": "view",
      "type": "function"
    },
    {
      "inputs": [],
      "name": "owner",
      "outputs": [
        {
          "internalType": "address",
          "name": "",
          "type": "address"
        }
      ],
      "stateMutability": "view",
      "type": "function"
    },
    {
      "inputs": [],
      "name": "pause",
      "outputs": [],
      "stateMutability": "nonpayable",
      "type": "function"
    },
    {
      "inputs": [],
      "name": "paused",
      "outputs": [
        {
          "internalType": "bool",
          "name": "",
          "type": "bool"
        }
      ],
      "stateMutability": "view",
      "type": "function"
    },
    {
      "inputs": [],
      "name": "pendingOwner",
      "outputs": [
        {
          "internalType": "address",
          "name": "",
          "type": "address"
        }
      ],
      "stateMutability": "view",
      "type": "function"
    },
    {
      "inputs": [
        {
          "internalType": "uint256",
          "name": "_fee",
          "type": "uint256"
        },
        {
          "internalType": "bytes32",
          "name": "_orderId",
          "type": "bytes32"
        },
        {
          "internalType": "bytes32",
          "name": "_label",
          "type": "bytes32"
        }
      ],
      "name": "refund",
      "outputs": [
        {
          "internalType": "bool",
          "name": "",
          "type": "bool"
        }
      ],
      "stateMutability": "nonpayable",
      "type": "function"
    },
    {
      "inputs": [],
      "name": "renounceOwnership",
      "outputs": [],
      "stateMutability": "nonpayable",
      "type": "function"
    },
    {
      "inputs": [
        {
          "internalType": "bytes32",
          "name": "currency",
          "type": "bytes32"
        },
        {
          "components": [
            {
              "internalType": "bytes32",
              "name": "code",
              "type": "bytes32"
            },
            {
              "internalType": "bytes32",
              "name": "name",
              "type": "bytes32"
            }
          ],
          "internalType": "struct SharedStructs.Institution[]",
          "name": "institutions",
          "type": "tuple[]"
        }
      ],
      "name": "setSupportedInstitutions",
      "outputs": [],
      "stateMutability": "nonpayable",
      "type": "function"
    },
    {
      "inputs": [
        {
          "internalType": "bytes32",
          "name": "what",
          "type": "bytes32"
        },
        {
          "internalType": "address",
          "name": "value",
          "type": "address"
        },
        {
          "internalType": "uint256",
          "name": "status",
          "type": "uint256"
        }
      ],
      "name": "settingManagerBool",
      "outputs": [],
      "stateMutability": "nonpayable",
      "type": "function"
    },
    {
      "inputs": [
        {
          "internalType": "bytes32",
          "name": "_splitOrderId",
          "type": "bytes32"
        },
        {
          "internalType": "bytes32",
          "name": "_orderId",
          "type": "bytes32"
        },
        {
          "internalType": "bytes32",
          "name": "_label",
          "type": "bytes32"
        },
        {
          "internalType": "address",
          "name": "_liquidityProvider",
          "type": "address"
        },
        {
          "internalType": "uint64",
          "name": "_settlePercent",
          "type": "uint64"
        }
      ],
      "name": "settle",
      "outputs": [
        {
          "internalType": "bytes32",
          "name": "",
          "type": "bytes32"
        },
        {
          "internalType": "address",
          "name": "",
          "type": "address"
        }
      ],
      "stateMutability": "nonpayable",
      "type": "function"
    },
    {
      "inputs": [
        {
          "internalType": "address",
          "name": "newOwner",
          "type": "address"
        }
      ],
      "name": "transferOwnership",
      "outputs": [],
      "stateMutability": "nonpayable",
      "type": "function"
    },
    {
      "inputs": [],
      "name": "unpause",
      "outputs": [],
      "stateMutability": "nonpayable",
      "type": "function"
    },
    {
      "inputs": [
        {
          "internalType": "bytes32",
          "name": "what",
          "type": "bytes32"
        },
        {
          "internalType": "address",
          "name": "value",
          "type": "address"
        }
      ],
      "name": "updateProtocolAddress",
      "outputs": [],
      "stateMutability": "nonpayable",
      "type": "function"
    },
    {
      "inputs": [
        {
          "internalType": "bytes",
          "name": "aggregator",
          "type": "bytes"
        }
      ],
      "name": "updateProtocolAggregator",
      "outputs": [],
      "stateMutability": "nonpayable",
      "type": "function"
    },
    {
      "inputs": [
        {
          "internalType": "uint64",
          "name": "_protocolFeePercent",
          "type": "uint64"
        }
      ],
      "name": "updateProtocolFees",
      "outputs": [],
      "stateMutability": "nonpayable",
      "type": "function"
    }
  ],
  "bytecode": "0x60806040523480156200001157600080fd5b50620000226200002860201b60201c565b620001d2565b600060019054906101000a900460ff16156200007b576040517f08c379a0000000000000000000000000000000000000000000000000000000008152600401620000729062000175565b60405180910390fd5b60ff801660008054906101000a900460ff1660ff1614620000ec5760ff6000806101000a81548160ff021916908360ff1602179055507f7f26b83ff96e1f2b6a682f133852f6798a09c465da95921460cefb384740249860ff604051620000e39190620001b5565b60405180910390a15b565b600082825260208201905092915050565b7f496e697469616c697a61626c653a20636f6e747261637420697320696e69746960008201527f616c697a696e6700000000000000000000000000000000000000000000000000602082015250565b60006200015d602783620000ee565b91506200016a82620000ff565b604082019050919050565b6000602082019050818103600083015262000190816200014e565b9050919050565b600060ff82169050919050565b620001af8162000197565b82525050565b6000602082019050620001cc6000830184620001a4565b92915050565b6143eb80620001e26000396000f3fe608060405234801561001057600080fd5b506004361061014d5760003560e01c80638129fc1c116100c3578063c22801031161007c578063c228010314610342578063cb79455b14610372578063cd9924001461038e578063d28a8d32146103aa578063e30c3978146103da578063f2fde38b146103f85761014d565b80638129fc1c146102a45780638456cb59146102ae57806384630736146102b85780638da5cb5b146102d45780639015dced146102f2578063b810c636146103235761014d565b806340ebc6771161011557806340ebc677146101f65780635c975abb14610212578063715018a61461023057806375151b631461023a578063768c6ec01461026a57806379ba50971461029a5761014d565b806302621338146101525780632654ec7e1461018257806332200882146101b25780633ad59dbc146101ce5780633f4ba83a146101ec575b600080fd5b61016c6004803603810190610167919061285f565b610414565b6040516101799190612979565b60405180910390f35b61019c60048036038101906101979190612ad8565b61049a565b6040516101a99190612bd2565b60405180910390f35b6101cc60048036038101906101c79190612d91565b6109b7565b005b6101d6610b2c565b6040516101e39190612e6c565b60405180910390f35b6101f4610bbe565b005b610210600480360381019061020b9190612e8e565b610bd0565b005b61021a610d61565b6040516102279190612ee9565b60405180910390f35b610238610d78565b005b610254600480360381019061024f9190612f04565b610d8c565b6040516102619190612ee9565b60405180910390f35b610284600480360381019061027f919061285f565b610de8565b6040516102919190613039565b60405180910390f35b6102a2611024565b005b6102ac6110b1565b005b6102b6611201565b005b6102d260048036038101906102cd9190613095565b611213565b005b6102dc61127e565b6040516102e991906130d1565b60405180910390f35b61030c600480360381019061030791906130ec565b6112a8565b60405161031a929190613167565b60405180910390f35b61032b611719565b6040516103399291906131ae565b60405180910390f35b61035c6004803603810190610357919061285f565b61173e565b6040516103699190613206565b60405180910390f35b61038c60048036038101906103879190613277565b61177f565b005b6103a860048036038101906103a391906132c4565b6117e1565b005b6103c460048036038101906103bf9190613317565b611966565b6040516103d19190612ee9565b60405180910390f35b6103e2611e2c565b6040516103ef91906130d1565b60405180910390f35b610412600480360381019061040d9190612f04565b611e56565b005b606060ce6000838152602001908152602001600020805480602002602001604051908101604052809291908181526020016000905b8282101561048f57838290600052602060002090600202016040518060400160405290816000820154815260200160018201548152505081526020019060010190610449565b505050509050919050565b60006104a4611f03565b6104b28b8b8689898e611f4d565b600083839050036104f8576040517f08c379a00000000000000000000000000000000000000000000000000000000081526004016104ef906133c7565b60405180910390fd5b8a73ffffffffffffffffffffffffffffffffffffffff166323b872dd3330888e6105229190613416565b6040518463ffffffff1660e01b81526004016105409392919061344a565b6020604051808303816000875af115801561055f573d6000803e3d6000fd5b505050506040513d601f19601f8201168201806040525081019061058391906134ad565b5061010360003373ffffffffffffffffffffffffffffffffffffffff1673ffffffffffffffffffffffffffffffffffffffff16815260200190815260200160002060008154809291906105d5906134da565b91905055503361010360003373ffffffffffffffffffffffffffffffffffffffff1673ffffffffffffffffffffffffffffffffffffffff1681526020019081526020016000205460405160200161062d929190613522565b6040516020818303038152906040528051906020012090506000609754609860009054906101000a900467ffffffffffffffff1667ffffffffffffffff168c610676919061354b565b61068091906135bc565b90506040518061014001604052803373ffffffffffffffffffffffffffffffffffffffff1681526020018d73ffffffffffffffffffffffffffffffffffffffff1681526020018873ffffffffffffffffffffffffffffffffffffffff168152602001878152602001828152602001896bffffffffffffffffffffffff1681526020016000151581526020018673ffffffffffffffffffffffffffffffffffffffff16815260200160975467ffffffffffffffff166bffffffffffffffffffffffff168152602001828d61075391906135ed565b815250610102600084815260200190815260200160002060008201518160000160006101000a81548173ffffffffffffffffffffffffffffffffffffffff021916908373ffffffffffffffffffffffffffffffffffffffff16021790555060208201518160010160006101000a81548173ffffffffffffffffffffffffffffffffffffffff021916908373ffffffffffffffffffffffffffffffffffffffff16021790555060408201518160020160006101000a81548173ffffffffffffffffffffffffffffffffffffffff021916908373ffffffffffffffffffffffffffffffffffffffff160217905550606082015181600301556080820151816004015560a08201518160050160006101000a8154816bffffffffffffffffffffffff02191690836bffffffffffffffffffffffff16021790555060c082015181600501600c6101000a81548160ff02191690831515021790555060e08201518160060160006101000a81548173ffffffffffffffffffffffffffffffffffffffff021916908373ffffffffffffffffffffffffffffffffffffffff1602179055506101008201518160060160146101000a8154816bffffffffffffffffffffffff02191690836bffffffffffffffffffffffff1602179055506101208201518160070155905050816101026000848152602001908152602001600020600701548d73ffffffffffffffffffffffffffffffffffffffff167f94bed2b14a43efaec8c295ba3fbce0aa493e61643c3adb49774ca7df08d5a919848c8f8f8b8b6040516109a096959493929190613698565b60405180910390a4509a9950505050505050505050565b6109bf61215c565b60ce600083815260200190815260200160002060006109de91906126e1565b60005b8151811015610add5760ce6000848152602001908152602001600020828281518110610a1057610a0f6136f4565b5b60200260200101519080600181540180825580915050600190039060005260206000209060020201600090919091909150600082015181600001556020820151816001015550506040518060400160405280838381518110610a7557610a746136f4565b5b60200260200101516020015181526020018481525060cf6000848481518110610aa157610aa06136f4565b5b602002602001015160000151815260200190815260200160002060008201518160000155602082015181600101559050508060010190506109e1565b50817f58f3a30ec15a8d3e09fa65f9ef10219bc7a9a99d872a4ed895c37c2e761ac2ac60ce6000858152602001908152602001600020604051610b20919061383d565b60405180910390a25050565b6060609a8054610b3b9061388e565b80601f0160208091040260200160405190810160405280929190818152602001828054610b679061388e565b8015610bb45780601f10610b8957610100808354040283529160200191610bb4565b820191906000526020600020905b815481529060010190602001808311610b9757829003601f168201915b5050505050905090565b610bc661215c565b610bce6121da565b565b610bd861215c565b600073ffffffffffffffffffffffffffffffffffffffff168173ffffffffffffffffffffffffffffffffffffffff1603610c47576040517f08c379a0000000000000000000000000000000000000000000000000000000008152600401610c3e9061390b565b60405180910390fd5b7f74726561737572790000000000000000000000000000000000000000000000008203610cb05780609860086101000a81548173ffffffffffffffffffffffffffffffffffffffff021916908373ffffffffffffffffffffffffffffffffffffffff1602179055505b7f61676772656761746f72000000000000000000000000000000000000000000008203610d195780609960006101000a81548173ffffffffffffffffffffffffffffffffffffffff021916908373ffffffffffffffffffffffffffffffffffffffff1602179055505b8073ffffffffffffffffffffffffffffffffffffffff16827fbbc5b96e57cfecb3dbeeadf92e87f15e58e64fcd75cbe256dcc5d9ef2e51e8a460405160405180910390a35050565b600060d060009054906101000a900460ff16905090565b610d8061215c565b610d8a600061223d565b565b6000600160cd60008473ffffffffffffffffffffffffffffffffffffffff1673ffffffffffffffffffffffffffffffffffffffff1681526020019081526020016000205403610dde5760019050610de3565b600090505b919050565b610df0612705565b6101026000838152602001908152602001600020604051806101400160405290816000820160009054906101000a900473ffffffffffffffffffffffffffffffffffffffff1673ffffffffffffffffffffffffffffffffffffffff1673ffffffffffffffffffffffffffffffffffffffff1681526020016001820160009054906101000a900473ffffffffffffffffffffffffffffffffffffffff1673ffffffffffffffffffffffffffffffffffffffff1673ffffffffffffffffffffffffffffffffffffffff1681526020016002820160009054906101000a900473ffffffffffffffffffffffffffffffffffffffff1673ffffffffffffffffffffffffffffffffffffffff1673ffffffffffffffffffffffffffffffffffffffff16815260200160038201548152602001600482015481526020016005820160009054906101000a90046bffffffffffffffffffffffff166bffffffffffffffffffffffff166bffffffffffffffffffffffff16815260200160058201600c9054906101000a900460ff161515151581526020016006820160009054906101000a900473ffffffffffffffffffffffffffffffffffffffff1673ffffffffffffffffffffffffffffffffffffffff1673ffffffffffffffffffffffffffffffffffffffff1681526020016006820160149054906101000a90046bffffffffffffffffffffffff166bffffffffffffffffffffffff166bffffffffffffffffffffffff1681526020016007820154815250509050919050565b600061102e61226e565b90508073ffffffffffffffffffffffffffffffffffffffff1661104f611e2c565b73ffffffffffffffffffffffffffffffffffffffff16146110a5576040517f08c379a000000000000000000000000000000000000000000000000000000000815260040161109c9061399d565b60405180910390fd5b6110ae8161223d565b50565b60008060019054906101000a900460ff161590508080156110e25750600160008054906101000a900460ff1660ff16105b8061110f57506110f130612276565b15801561110e5750600160008054906101000a900460ff1660ff16145b5b61114e576040517f08c379a000000000000000000000000000000000000000000000000000000000815260040161114590613a2f565b60405180910390fd5b60016000806101000a81548160ff021916908360ff160217905550801561118b576001600060016101000a81548160ff0219169083151502179055505b620186a060978190555061119d612299565b6111a56122f2565b80156111fe5760008060016101000a81548160ff0219169083151502179055507f7f26b83ff96e1f2b6a682f133852f6798a09c465da95921460cefb384740249860016040516111f59190613a97565b60405180910390a15b50565b61120961215c565b61121161234b565b565b61121b61215c565b80609860006101000a81548167ffffffffffffffff021916908367ffffffffffffffff1602179055507fb94068a4bd2571acee6ac79acc9dcdcf10c31425d35f09e88f154ec520e26446816040516112739190613ab2565b60405180910390a150565b6000603360009054906101000a900473ffffffffffffffffffffffffffffffffffffffff16905090565b600080609960009054906101000a900473ffffffffffffffffffffffffffffffffffffffff1673ffffffffffffffffffffffffffffffffffffffff163373ffffffffffffffffffffffffffffffffffffffff161461133b576040517f08c379a000000000000000000000000000000000000000000000000000000000815260040161133290613b19565b60405180910390fd5b6101026000878152602001908152602001600020600501600c9054906101000a900460ff16156113a0576040517f08c379a000000000000000000000000000000000000000000000000000000000815260040161139790613b85565b60405180910390fd5b6000610102600088815260200190815260200160002060010160009054906101000a900473ffffffffffffffffffffffffffffffffffffffff1690508367ffffffffffffffff16610102600089815260200190815260200160002060060160148282829054906101000a90046bffffffffffffffffffffffff166114249190613ba5565b92506101000a8154816bffffffffffffffffffffffff02191690836bffffffffffffffffffffffff1602179055506000610102600089815260200190815260200160002060060160149054906101000a90046bffffffffffffffffffffffff166bffffffffffffffffffffffff16036115c95760016101026000898152602001908152602001600020600501600c6101000a81548160ff0219169083151502179055506000610102600089815260200190815260200160002060030154146114f0576114ef876123ae565b5b6000610102600089815260200190815260200160002060040154146115c8578073ffffffffffffffffffffffffffffffffffffffff1663a9059cbb609860089054906101000a900473ffffffffffffffffffffffffffffffffffffffff1661010260008b8152602001908152602001600020600401546040518363ffffffff1660e01b8152600401611583929190613522565b6020604051808303816000875af11580156115a2573d6000803e3d6000fd5b505050506040513d601f19601f820116820180604052508101906115c691906134ad565b505b5b60006097548567ffffffffffffffff1661010260008b8152602001908152602001600020600701546115fb919061354b565b61160591906135bc565b90508173ffffffffffffffffffffffffffffffffffffffff1663a9059cbb87836040518363ffffffff1660e01b8152600401611642929190613522565b6020604051808303816000875af1158015611661573d6000803e3d6000fd5b505050506040513d601f19601f8201168201806040525081019061168591906134ad565b508061010260008a815260200190815260200160002060070160008282546116ad91906135ed565b925050819055508573ffffffffffffffffffffffffffffffffffffffff16887fa9ec2b6676d3ea3e8da117193c71b1b85fcdbc72f077a624f950241eb38f13c28b8a896040516116ff93929190613c16565b60405180910390a387829350935050509550959350505050565b600080609860009054906101000a900467ffffffffffffffff16609754915091509091565b6117466127ce565b60cf6000838152602001908152602001600020604051806040016040529081600082015481526020016001820154815250509050919050565b61178761215c565b8181609a9182611798929190613dfa565b5081816040516117a9929190613efa565b60405180910390207f6a6600b7242975868d8321b5e64d0c9f2fcc92eb1af72254a6357be77ee7dcef60405160405180910390a25050565b6117e961215c565b600073ffffffffffffffffffffffffffffffffffffffff168273ffffffffffffffffffffffffffffffffffffffff1603611858576040517f08c379a000000000000000000000000000000000000000000000000000000000815260040161184f9061390b565b60405180910390fd5b60018114806118675750600281145b6118a6576040517f08c379a000000000000000000000000000000000000000000000000000000000815260040161189d90613f5f565b60405180910390fd5b7f746f6b656e0000000000000000000000000000000000000000000000000000008303611961578060cd60008473ffffffffffffffffffffffffffffffffffffffff1673ffffffffffffffffffffffffffffffffffffffff168152602001908152602001600020819055508173ffffffffffffffffffffffffffffffffffffffff16837fcfa976492af7c14a916cc3a239f4c9c75bbd7f5f0e398beb41d892c7eeccae4c836040516119589190613f7f565b60405180910390a35b505050565b6000609960009054906101000a900473ffffffffffffffffffffffffffffffffffffffff1673ffffffffffffffffffffffffffffffffffffffff163373ffffffffffffffffffffffffffffffffffffffff16146119f8576040517f08c379a00000000000000000000000000000000000000000000000000000000081526004016119ef90613b19565b60405180910390fd5b6101026000848152602001908152602001600020600501600c9054906101000a900460ff1615611a5d576040517f08c379a0000000000000000000000000000000000000000000000000000000008152600401611a5490613b85565b60405180910390fd5b610102600084815260200190815260200160002060010160009054906101000a900473ffffffffffffffffffffffffffffffffffffffff1673ffffffffffffffffffffffffffffffffffffffff1663a9059cbb609860089054906101000a900473ffffffffffffffffffffffffffffffffffffffff16866040518363ffffffff1660e01b8152600401611af1929190613522565b6020604051808303816000875af1158015611b10573d6000803e3d6000fd5b505050506040513d601f19601f82011682018060405250810190611b3491906134ad565b5060016101026000858152602001908152602001600020600501600c6101000a81548160ff0219169083151502179055506000610102600085815260200190815260200160002060060160146101000a8154816bffffffffffffffffffffffff02191690836bffffffffffffffffffffffff160217905550600084610102600086815260200190815260200160002060040154610102600087815260200190815260200160002060070154611be99190613416565b611bf391906135ed565b9050610102600085815260200190815260200160002060010160009054906101000a900473ffffffffffffffffffffffffffffffffffffffff1673ffffffffffffffffffffffffffffffffffffffff1663a9059cbb610102600087815260200190815260200160002060060160009054906101000a900473ffffffffffffffffffffffffffffffffffffffff16836040518363ffffffff1660e01b8152600401611c9e929190613522565b6020604051808303816000875af1158015611cbd573d6000803e3d6000fd5b505050506040513d601f19601f82011682018060405250810190611ce191906134ad565b50610102600085815260200190815260200160002060010160009054906101000a900473ffffffffffffffffffffffffffffffffffffffff1673ffffffffffffffffffffffffffffffffffffffff1663a9059cbb610102600087815260200190815260200160002060060160009054906101000a900473ffffffffffffffffffffffffffffffffffffffff166101026000888152602001908152602001600020600301546040518363ffffffff1660e01b8152600401611da2929190613522565b6020604051808303816000875af1158015611dc1573d6000803e3d6000fd5b505050506040513d601f19601f82011682018060405250810190611de591906134ad565b50837f79252c381c5280f78c77f378791e42b506843a48916430480eab95a898cdae9f8685604051611e18929190613f9a565b60405180910390a260019150509392505050565b6000606560009054906101000a900473ffffffffffffffffffffffffffffffffffffffff16905090565b611e5e61215c565b80606560006101000a81548173ffffffffffffffffffffffffffffffffffffffff021916908373ffffffffffffffffffffffffffffffffffffffff1602179055508073ffffffffffffffffffffffffffffffffffffffff16611ebe61127e565b73ffffffffffffffffffffffffffffffffffffffff167f38d16b8cac22d99fc7c124b9cd0de2d3fa1faef420bfe791d8c362d765e2270060405160405180910390a350565b611f0b610d61565b15611f4b576040517f08c379a0000000000000000000000000000000000000000000000000000000008152600401611f429061400f565b60405180910390fd5b565b600160cd60008873ffffffffffffffffffffffffffffffffffffffff1673ffffffffffffffffffffffffffffffffffffffff1681526020019081526020016000205414611fcf576040517f08c379a0000000000000000000000000000000000000000000000000000000008152600401611fc69061407b565b60405180910390fd5b60008503612012576040517f08c379a0000000000000000000000000000000000000000000000000000000008152600401612009906140e7565b60405180910390fd5b600073ffffffffffffffffffffffffffffffffffffffff168473ffffffffffffffffffffffffffffffffffffffff1603612081576040517f08c379a000000000000000000000000000000000000000000000000000000000815260040161207890614153565b60405180910390fd5b6000801b60cf600083815260200190815260200160002060000154036120dc576040517f08c379a00000000000000000000000000000000000000000000000000000000081526004016120d3906141bf565b60405180910390fd5b6000821461215457600073ffffffffffffffffffffffffffffffffffffffff168373ffffffffffffffffffffffffffffffffffffffff1603612153576040517f08c379a000000000000000000000000000000000000000000000000000000000815260040161214a9061422b565b60405180910390fd5b5b505050505050565b61216461226e565b73ffffffffffffffffffffffffffffffffffffffff1661218261127e565b73ffffffffffffffffffffffffffffffffffffffff16146121d8576040517f08c379a00000000000000000000000000000000000000000000000000000000081526004016121cf90614297565b60405180910390fd5b565b6121e2612505565b600060d060006101000a81548160ff0219169083151502179055507f5db9ee0a495bf2e6ff9c91a7834c1ba4fdd244a5e8aa4e537bd38aeae4b073aa61222661226e565b60405161223391906130d1565b60405180910390a1565b606560006101000a81549073ffffffffffffffffffffffffffffffffffffffff021916905561226b8161254e565b50565b600033905090565b6000808273ffffffffffffffffffffffffffffffffffffffff163b119050919050565b600060019054906101000a900460ff166122e8576040517f08c379a00000000000000000000000000000000000000000000000000000000081526004016122df90614329565b60405180910390fd5b6122f0612614565b565b600060019054906101000a900460ff16612341576040517f08c379a000000000000000000000000000000000000000000000000000000000815260040161233890614329565b60405180910390fd5b612349612675565b565b612353611f03565b600160d060006101000a81548160ff0219169083151502179055507f62e78cea01bee320cd4e420270b5ea74000d11b0c9f74754ebdbfc544b05a25861239761226e565b6040516123a491906130d1565b60405180910390a1565b6000610102600083815260200190815260200160002060020160009054906101000a900473ffffffffffffffffffffffffffffffffffffffff16905060006101026000848152602001908152602001600020600301549050610102600084815260200190815260200160002060010160009054906101000a900473ffffffffffffffffffffffffffffffffffffffff1673ffffffffffffffffffffffffffffffffffffffff1663a9059cbb83836040518363ffffffff1660e01b8152600401612478929190613522565b6020604051808303816000875af1158015612497573d6000803e3d6000fd5b505050506040513d601f19601f820116820180604052508101906124bb91906134ad565b50808273ffffffffffffffffffffffffffffffffffffffff167f44f6938ca4a10313aabb76f874cced61e35710a734a126e4afb34461bf8c250160405160405180910390a3505050565b61250d610d61565b61254c576040517f08c379a000000000000000000000000000000000000000000000000000000000815260040161254390614395565b60405180910390fd5b565b6000603360009054906101000a900473ffffffffffffffffffffffffffffffffffffffff16905081603360006101000a81548173ffffffffffffffffffffffffffffffffffffffff021916908373ffffffffffffffffffffffffffffffffffffffff1602179055508173ffffffffffffffffffffffffffffffffffffffff168173ffffffffffffffffffffffffffffffffffffffff167f8be0079c531659141344cd1fd0a4f28419497f9722a3daafe3b4186f6b6457e060405160405180910390a35050565b600060019054906101000a900460ff16612663576040517f08c379a000000000000000000000000000000000000000000000000000000000815260040161265a90614329565b60405180910390fd5b61267361266e61226e565b61223d565b565b600060019054906101000a900460ff166126c4576040517f08c379a00000000000000000000000000000000000000000000000000000000081526004016126bb90614329565b60405180910390fd5b600060d060006101000a81548160ff021916908315150217905550565b508054600082556002029060005260206000209081019061270291906127ee565b50565b604051806101400160405280600073ffffffffffffffffffffffffffffffffffffffff168152602001600073ffffffffffffffffffffffffffffffffffffffff168152602001600073ffffffffffffffffffffffffffffffffffffffff168152602001600081526020016000815260200160006bffffffffffffffffffffffff168152602001600015158152602001600073ffffffffffffffffffffffffffffffffffffffff16815260200160006bffffffffffffffffffffffff168152602001600081525090565b604051806040016040528060008019168152602001600080191681525090565b5b80821115612811576000808201600090556001820160009055506002016127ef565b5090565b6000604051905090565b600080fd5b600080fd5b6000819050919050565b61283c81612829565b811461284757600080fd5b50565b60008135905061285981612833565b92915050565b6000602082840312156128755761287461281f565b5b60006128838482850161284a565b91505092915050565b600081519050919050565b600082825260208201905092915050565b6000819050602082019050919050565b6128c181612829565b82525050565b6040820160008201516128dd60008501826128b8565b5060208201516128f060208501826128b8565b50505050565b600061290283836128c7565b60408301905092915050565b6000602082019050919050565b60006129268261288c565b6129308185612897565b935061293b836128a8565b8060005b8381101561296c57815161295388826128f6565b975061295e8361290e565b92505060018101905061293f565b5085935050505092915050565b60006020820190508181036000830152612993818461291b565b905092915050565b600073ffffffffffffffffffffffffffffffffffffffff82169050919050565b60006129c68261299b565b9050919050565b6129d6816129bb565b81146129e157600080fd5b50565b6000813590506129f3816129cd565b92915050565b6000819050919050565b612a0c816129f9565b8114612a1757600080fd5b50565b600081359050612a2981612a03565b92915050565b60006bffffffffffffffffffffffff82169050919050565b612a5081612a2f565b8114612a5b57600080fd5b50565b600081359050612a6d81612a47565b92915050565b600080fd5b600080fd5b600080fd5b60008083601f840112612a9857612a97612a73565b5b8235905067ffffffffffffffff811115612ab557612ab4612a78565b5b602083019150836001820283011115612ad157612ad0612a7d565b5b9250929050565b6000806000806000806000806000806101208b8d031215612afc57612afb61281f565b5b6000612b0a8d828e016129e4565b9a50506020612b1b8d828e01612a1a565b9950506040612b2c8d828e0161284a565b9850506060612b3d8d828e0161284a565b9750506080612b4e8d828e01612a5e565b96505060a0612b5f8d828e016129e4565b95505060c0612b708d828e01612a1a565b94505060e0612b818d828e016129e4565b9350506101008b013567ffffffffffffffff811115612ba357612ba2612824565b5b612baf8d828e01612a82565b92509250509295989b9194979a5092959850565b612bcc81612829565b82525050565b6000602082019050612be76000830184612bc3565b92915050565b6000601f19601f8301169050919050565b7f4e487b7100000000000000000000000000000000000000000000000000000000600052604160045260246000fd5b612c3682612bed565b810181811067ffffffffffffffff82111715612c5557612c54612bfe565b5b80604052505050565b6000612c68612815565b9050612c748282612c2d565b919050565b600067ffffffffffffffff821115612c9457612c93612bfe565b5b602082029050602081019050919050565b600080fd5b600060408284031215612cc057612cbf612ca5565b5b612cca6040612c5e565b90506000612cda8482850161284a565b6000830152506020612cee8482850161284a565b60208301525092915050565b6000612d0d612d0884612c79565b612c5e565b90508083825260208201905060408402830185811115612d3057612d2f612a7d565b5b835b81811015612d595780612d458882612caa565b845260208401935050604081019050612d32565b5050509392505050565b600082601f830112612d7857612d77612a73565b5b8135612d88848260208601612cfa565b91505092915050565b60008060408385031215612da857612da761281f565b5b6000612db68582860161284a565b925050602083013567ffffffffffffffff811115612dd757612dd6612824565b5b612de385828601612d63565b9150509250929050565b600081519050919050565b600082825260208201905092915050565b60005b83811015612e27578082015181840152602081019050612e0c565b60008484015250505050565b6000612e3e82612ded565b612e488185612df8565b9350612e58818560208601612e09565b612e6181612bed565b840191505092915050565b60006020820190508181036000830152612e868184612e33565b905092915050565b60008060408385031215612ea557612ea461281f565b5b6000612eb38582860161284a565b9250506020612ec4858286016129e4565b9150509250929050565b60008115159050919050565b612ee381612ece565b82525050565b6000602082019050612efe6000830184612eda565b92915050565b600060208284031215612f1a57612f1961281f565b5b6000612f28848285016129e4565b91505092915050565b612f3a816129bb565b82525050565b612f49816129f9565b82525050565b612f5881612a2f565b82525050565b612f6781612ece565b82525050565b61014082016000820151612f846000850182612f31565b506020820151612f976020850182612f31565b506040820151612faa6040850182612f31565b506060820151612fbd6060850182612f40565b506080820151612fd06080850182612f40565b5060a0820151612fe360a0850182612f4f565b5060c0820151612ff660c0850182612f5e565b5060e082015161300960e0850182612f31565b5061010082015161301e610100850182612f4f565b50610120820151613033610120850182612f40565b50505050565b60006101408201905061304f6000830184612f6d565b92915050565b600067ffffffffffffffff82169050919050565b61307281613055565b811461307d57600080fd5b50565b60008135905061308f81613069565b92915050565b6000602082840312156130ab576130aa61281f565b5b60006130b984828501613080565b91505092915050565b6130cb816129bb565b82525050565b60006020820190506130e660008301846130c2565b92915050565b600080600080600060a086880312156131085761310761281f565b5b60006131168882890161284a565b95505060206131278882890161284a565b94505060406131388882890161284a565b9350506060613149888289016129e4565b925050608061315a88828901613080565b9150509295509295909350565b600060408201905061317c6000830185612bc3565b61318960208301846130c2565b9392505050565b61319981613055565b82525050565b6131a8816129f9565b82525050565b60006040820190506131c36000830185613190565b6131d0602083018461319f565b9392505050565b6040820160008201516131ed60008501826128b8565b50602082015161320060208501826128b8565b50505050565b600060408201905061321b60008301846131d7565b92915050565b60008083601f84011261323757613236612a73565b5b8235905067ffffffffffffffff81111561325457613253612a78565b5b6020830191508360018202830111156132705761326f612a7d565b5b9250929050565b6000806020838503121561328e5761328d61281f565b5b600083013567ffffffffffffffff8111156132ac576132ab612824565b5b6132b885828601613221565b92509250509250929050565b6000806000606084860312156132dd576132dc61281f565b5b60006132eb8682870161284a565b93505060206132fc868287016129e4565b925050604061330d86828701612a1a565b9150509250925092565b6000806000606084860312156133305761332f61281f565b5b600061333e86828701612a1a565b935050602061334f8682870161284a565b92505060406133608682870161284a565b9150509250925092565b600082825260208201905092915050565b7f496e76616c69644d657373616765486173680000000000000000000000000000600082015250565b60006133b160128361336a565b91506133bc8261337b565b602082019050919050565b600060208201905081810360008301526133e0816133a4565b9050919050565b7f4e487b7100000000000000000000000000000000000000000000000000000000600052601160045260246000fd5b6000613421826129f9565b915061342c836129f9565b9250828201905080821115613444576134436133e7565b5b92915050565b600060608201905061345f60008301866130c2565b61346c60208301856130c2565b613479604083018461319f565b949350505050565b61348a81612ece565b811461349557600080fd5b50565b6000815190506134a781613481565b92915050565b6000602082840312156134c3576134c261281f565b5b60006134d184828501613498565b91505092915050565b60006134e5826129f9565b91507fffffffffffffffffffffffffffffffffffffffffffffffffffffffffffffffff8203613517576135166133e7565b5b600182019050919050565b600060408201905061353760008301856130c2565b613544602083018461319f565b9392505050565b6000613556826129f9565b9150613561836129f9565b925082820261356f816129f9565b91508282048414831517613586576135856133e7565b5b5092915050565b7f4e487b7100000000000000000000000000000000000000000000000000000000600052601260045260246000fd5b60006135c7826129f9565b91506135d2836129f9565b9250826135e2576135e161358d565b5b828204905092915050565b60006135f8826129f9565b9150613603836129f9565b925082820390508181111561361b5761361a6133e7565b5b92915050565b6000819050919050565b600061364661364161363c84612a2f565b613621565b6129f9565b9050919050565b6136568161362b565b82525050565b82818337600083830152505050565b6000613677838561336a565b935061368483858461365c565b61368d83612bed565b840190509392505050565b600060a0820190506136ad600083018961319f565b6136ba602083018861364d565b6136c76040830187612bc3565b6136d46060830186612bc3565b81810360808301526136e781848661366b565b9050979650505050505050565b7f4e487b7100000000000000000000000000000000000000000000000000000000600052603260045260246000fd5b600081549050919050565b60008190508160005260206000209050919050565b60008160001c9050919050565b6000819050919050565b600061376d61376883613743565b613750565b9050919050565b6040820160008083015490506137898161375a565b61379660008601826128b8565b50600183015490506137a78161375a565b6137b460208601826128b8565b5050505050565b60006137c78383613774565b60408301905092915050565b6000600282019050919050565b60006137eb82613723565b6137f58185612897565b93506138008361372e565b8060005b83811015613830578161381788826137bb565b9750613822836137d3565b925050600181019050613804565b5085935050505092915050565b6000602082019050818103600083015261385781846137e0565b905092915050565b7f4e487b7100000000000000000000000000000000000000000000000000000000600052602260045260246000fd5b600060028204905060018216806138a657607f821691505b6020821081036138b9576138b861385f565b5b50919050565b7f50617963726573743a207a65726f206164647265737300000000000000000000600082015250565b60006138f560168361336a565b9150613900826138bf565b602082019050919050565b60006020820190508181036000830152613924816138e8565b9050919050565b7f4f776e61626c6532537465703a2063616c6c6572206973206e6f74207468652060008201527f6e6577206f776e65720000000000000000000000000000000000000000000000602082015250565b600061398760298361336a565b91506139928261392b565b604082019050919050565b600060208201905081810360008301526139b68161397a565b9050919050565b7f496e697469616c697a61626c653a20636f6e747261637420697320616c72656160008201527f647920696e697469616c697a6564000000000000000000000000000000000000602082015250565b6000613a19602e8361336a565b9150613a24826139bd565b604082019050919050565b60006020820190508181036000830152613a4881613a0c565b9050919050565b6000819050919050565b600060ff82169050919050565b6000613a81613a7c613a7784613a4f565b613621565b613a59565b9050919050565b613a9181613a66565b82525050565b6000602082019050613aac6000830184613a88565b92915050565b6000602082019050613ac76000830184613190565b92915050565b7f4f6e6c7941676772656761746f72000000000000000000000000000000000000600082015250565b6000613b03600e8361336a565b9150613b0e82613acd565b602082019050919050565b60006020820190508181036000830152613b3281613af6565b9050919050565b7f4f7264657246756c66696c6c6564000000000000000000000000000000000000600082015250565b6000613b6f600e8361336a565b9150613b7a82613b39565b602082019050919050565b60006020820190508181036000830152613b9e81613b62565b9050919050565b6000613bb082612a2f565b9150613bbb83612a2f565b925082820390506bffffffffffffffffffffffff811115613bdf57613bde6133e7565b5b92915050565b6000613c00613bfb613bf684613055565b613621565b612a2f565b9050919050565b613c1081613be5565b82525050565b6000606082019050613c2b6000830186612bc3565b613c386020830185612bc3565b613c456040830184613c07565b949350505050565b600082905092915050565b60008190508160005260206000209050919050565b60006020601f8301049050919050565b600082821b905092915050565b600060088302613cba7fffffffffffffffffffffffffffffffffffffffffffffffffffffffffffffffff82613c7d565b613cc48683613c7d565b95508019841693508086168417925050509392505050565b6000613cf7613cf2613ced846129f9565b613621565b6129f9565b9050919050565b6000819050919050565b613d1183613cdc565b613d25613d1d82613cfe565b848454613c8a565b825550505050565b600090565b613d3a613d2d565b613d45818484613d08565b505050565b5b81811015613d6957613d5e600082613d32565b600181019050613d4b565b5050565b601f821115613dae57613d7f81613c58565b613d8884613c6d565b81016020851015613d97578190505b613dab613da385613c6d565b830182613d4a565b50505b505050565b600082821c905092915050565b6000613dd160001984600802613db3565b1980831691505092915050565b6000613dea8383613dc0565b9150826002028217905092915050565b613e048383613c4d565b67ffffffffffffffff811115613e1d57613e1c612bfe565b5b613e27825461388e565b613e32828285613d6d565b6000601f831160018114613e615760008415613e4f578287013590505b613e598582613dde565b865550613ec1565b601f198416613e6f86613c58565b60005b82811015613e9757848901358255600182019150602085019450602081019050613e72565b86831015613eb45784890135613eb0601f891682613dc0565b8355505b6001600288020188555050505b50505050505050565b600081905092915050565b6000613ee18385613eca565b9350613eee83858461365c565b82840190509392505050565b6000613f07828486613ed5565b91508190509392505050565b7f50617963726573743a20696e76616c6964207374617475730000000000000000600082015250565b6000613f4960188361336a565b9150613f5482613f13565b602082019050919050565b60006020820190508181036000830152613f7881613f3c565b9050919050565b6000602082019050613f94600083018461319f565b92915050565b6000604082019050613faf600083018561319f565b613fbc6020830184612bc3565b9392505050565b7f5061757361626c653a2070617573656400000000000000000000000000000000600082015250565b6000613ff960108361336a565b915061400482613fc3565b602082019050919050565b6000602082019050818103600083015261402881613fec565b9050919050565b7f546f6b656e4e6f74537570706f72746564000000000000000000000000000000600082015250565b600061406560118361336a565b91506140708261402f565b602082019050919050565b6000602082019050818103600083015261409481614058565b9050919050565b7f416d6f756e7449735a65726f0000000000000000000000000000000000000000600082015250565b60006140d1600c8361336a565b91506140dc8261409b565b602082019050919050565b60006020820190508181036000830152614100816140c4565b9050919050565b7f5468726f775a65726f4164647265737300000000000000000000000000000000600082015250565b600061413d60108361336a565b915061414882614107565b602082019050919050565b6000602082019050818103600083015261416c81614130565b9050919050565b7f496e76616c6964496e737469747574696f6e436f646500000000000000000000600082015250565b60006141a960168361336a565b91506141b482614173565b602082019050919050565b600060208201905081810360008301526141d88161419c565b9050919050565b7f496e76616c696453656e646572466565526563697069656e7400000000000000600082015250565b600061421560198361336a565b9150614220826141df565b602082019050919050565b6000602082019050818103600083015261424481614208565b9050919050565b7f4f776e61626c653a2063616c6c6572206973206e6f7420746865206f776e6572600082015250565b600061428160208361336a565b915061428c8261424b565b602082019050919050565b600060208201905081810360008301526142b081614274565b9050919050565b7f496e697469616c697a61626c653a20636f6e7472616374206973206e6f74206960008201527f6e697469616c697a696e67000000000000000000000000000000000000000000602082015250565b6000614313602b8361336a565b915061431e826142b7565b604082019050919050565b6000602082019050818103600083015261434281614306565b9050919050565b7f5061757361626c653a206e6f7420706175736564000000000000000000000000600082015250565b600061437f60148361336a565b915061438a82614349565b602082019050919050565b600060208201905081810360008301526143ae81614372565b905091905056fea2646970667358221220d9621c29fde8b6b24fd446ca00eba9e9472e663b57c87958894abae3ed65c2fa64736f6c63430008120033",
  "linkReferences": {},
  "deployedLinkReferences": {}
}