{
  "_format": "hh-sol-artifact-1",
  "contractName": "Paycrest",
  "sourceName": "contracts/Paycrest.sol",
  "abi": [
    {
      "inputs": [],
      "stateMutability": "nonpayable",
      "type": "constructor"
    },
    {
      "inputs": [],
      "name": "AmountIsZero",
      "type": "error"
    },
    {
      "inputs": [
        {
          "internalType": "bytes32",
          "name": "what",
          "type": "bytes32"
        }
      ],
      "name": "InvalidParameter",
      "type": "error"
    },
    {
      "inputs": [],
      "name": "ThrowZeroAddress",
      "type": "error"
    },
    {
      "inputs": [],
      "name": "ThrowZeroValue",
      "type": "error"
    },
    {
      "inputs": [],
      "name": "TokenNotSupported",
      "type": "error"
    },
    {
      "anonymous": false,
      "inputs": [
        {
          "indexed": true,
          "internalType": "address",
          "name": "token",
          "type": "address"
        },
        {
          "indexed": true,
          "internalType": "uint256",
          "name": "amount",
          "type": "uint256"
        },
        {
          "indexed": true,
          "internalType": "bytes32",
          "name": "orderId",
          "type": "bytes32"
        },
        {
          "indexed": false,
          "internalType": "uint256",
          "name": "rate",
          "type": "uint256"
        },
        {
          "indexed": false,
          "internalType": "bytes32",
          "name": "institutionCode",
          "type": "bytes32"
        },
        {
          "indexed": false,
          "internalType": "bytes32",
          "name": "referenceHash",
          "type": "bytes32"
        },
        {
          "indexed": false,
          "internalType": "string",
          "name": "messageHash",
          "type": "string"
        }
      ],
      "name": "Deposit",
      "type": "event"
    },
    {
      "anonymous": false,
      "inputs": [
        {
          "indexed": false,
          "internalType": "uint8",
          "name": "version",
          "type": "uint8"
        }
      ],
      "name": "Initialized",
      "type": "event"
    },
    {
      "anonymous": false,
      "inputs": [
        {
          "indexed": true,
          "internalType": "address",
          "name": "previousOwner",
          "type": "address"
        },
        {
          "indexed": true,
          "internalType": "address",
          "name": "newOwner",
          "type": "address"
        }
      ],
      "name": "OwnershipTransferred",
      "type": "event"
    },
    {
      "anonymous": false,
      "inputs": [
        {
          "indexed": false,
          "internalType": "uint128",
          "name": "protocolFee",
          "type": "uint128"
        },
        {
          "indexed": false,
          "internalType": "uint128",
          "name": "validatorFeePercent",
          "type": "uint128"
        }
      ],
      "name": "PaycrestFees",
      "type": "event"
    },
    {
      "anonymous": false,
      "inputs": [
        {
          "indexed": true,
          "internalType": "bytes32",
          "name": "orderId",
          "type": "bytes32"
        },
        {
          "indexed": false,
          "internalType": "bytes32",
          "name": "referenceHash",
          "type": "bytes32"
        }
      ],
      "name": "Refunded",
      "type": "event"
    },
    {
      "anonymous": false,
      "inputs": [
        {
          "indexed": true,
          "internalType": "address",
          "name": "validator",
          "type": "address"
        },
        {
          "indexed": true,
          "internalType": "uint256",
          "name": "amount",
          "type": "uint256"
        }
      ],
      "name": "RewardValidator",
      "type": "event"
    },
    {
      "anonymous": false,
      "inputs": [
        {
          "indexed": false,
          "internalType": "bytes32",
          "name": "what",
          "type": "bytes32"
        },
        {
          "indexed": false,
          "internalType": "address",
          "name": "value",
          "type": "address"
        },
        {
          "indexed": false,
          "internalType": "bool",
          "name": "status",
          "type": "bool"
        }
      ],
      "name": "SettingManagerBool",
      "type": "event"
    },
    {
      "anonymous": false,
      "inputs": [
        {
          "indexed": false,
          "internalType": "bytes32",
          "name": "what",
          "type": "bytes32"
        },
        {
          "indexed": false,
          "internalType": "bytes8",
          "name": "value",
          "type": "bytes8"
        },
        {
          "indexed": false,
          "internalType": "bytes8",
          "name": "status",
          "type": "bytes8"
        }
      ],
      "name": "SettingManagerForInstitution",
      "type": "event"
    },
    {
      "anonymous": false,
      "inputs": [
        {
          "indexed": false,
          "internalType": "bytes32",
          "name": "_splitOrderId",
          "type": "bytes32"
        },
        {
          "indexed": true,
          "internalType": "bytes32",
          "name": "orderId",
          "type": "bytes32"
        },
        {
          "indexed": false,
          "internalType": "bytes32",
          "name": "referenceHash",
          "type": "bytes32"
        },
        {
          "indexed": true,
          "internalType": "address",
          "name": "liquidityProvider",
          "type": "address"
        },
        {
          "indexed": false,
          "internalType": "uint96",
          "name": "settlePercent",
          "type": "uint96"
        }
      ],
      "name": "Settled",
      "type": "event"
    },
    {
      "anonymous": false,
      "inputs": [
        {
          "indexed": true,
          "internalType": "address",
          "name": "sender",
          "type": "address"
        },
        {
          "indexed": true,
          "internalType": "uint256",
          "name": "amount",
          "type": "uint256"
        }
      ],
      "name": "TransferSenderFee",
      "type": "event"
    },
    {
      "inputs": [
        {
          "internalType": "address",
          "name": "_token",
          "type": "address"
        },
        {
          "internalType": "uint256",
          "name": "_amount",
          "type": "uint256"
        },
        {
          "internalType": "bytes32",
          "name": "_institutionCode",
          "type": "bytes32"
        },
        {
          "internalType": "bytes32",
          "name": "_reference",
          "type": "bytes32"
        },
        {
          "internalType": "uint96",
          "name": "_rate",
          "type": "uint96"
        },
        {
          "internalType": "address",
          "name": "_senderFeeRecipient",
          "type": "address"
        },
        {
          "internalType": "uint256",
          "name": "_senderFee",
          "type": "uint256"
        },
        {
          "internalType": "address",
          "name": "_refundAddress",
          "type": "address"
        },
        {
          "internalType": "string",
          "name": "messageHash",
          "type": "string"
        }
      ],
      "name": "createOrder",
      "outputs": [
        {
          "internalType": "bytes32",
          "name": "orderId",
          "type": "bytes32"
        }
      ],
      "stateMutability": "nonpayable",
      "type": "function"
    },
    {
      "inputs": [],
      "name": "getFeeDetails",
      "outputs": [
        {
          "internalType": "uint128",
          "name": "",
          "type": "uint128"
        },
        {
          "internalType": "uint128",
          "name": "",
          "type": "uint128"
        },
        {
          "internalType": "uint256",
          "name": "",
          "type": "uint256"
        }
      ],
      "stateMutability": "view",
      "type": "function"
    },
    {
      "inputs": [],
      "name": "getLiquidityAggregator",
      "outputs": [
        {
          "internalType": "address",
          "name": "",
          "type": "address"
        }
      ],
      "stateMutability": "view",
      "type": "function"
    },
    {
      "inputs": [
        {
          "internalType": "bytes32",
          "name": "_orderId",
          "type": "bytes32"
        }
      ],
      "name": "getOrderInfo",
      "outputs": [
        {
          "components": [
            {
              "internalType": "address",
              "name": "seller",
              "type": "address"
            },
            {
              "internalType": "address",
              "name": "token",
              "type": "address"
            },
            {
              "internalType": "address",
              "name": "senderFeeRecipient",
              "type": "address"
            },
            {
              "internalType": "uint256",
              "name": "senderFee",
              "type": "uint256"
            },
            {
              "internalType": "uint96",
              "name": "rate",
              "type": "uint96"
            },
            {
              "internalType": "bool",
              "name": "isFulfilled",
              "type": "bool"
            },
            {
              "internalType": "address",
              "name": "refundAddress",
              "type": "address"
            },
            {
              "internalType": "uint96",
              "name": "currentBPS",
              "type": "uint96"
            },
            {
              "internalType": "uint256",
              "name": "amount",
              "type": "uint256"
            }
          ],
          "internalType": "struct IPaycrest.Order",
          "name": "",
          "type": "tuple"
        }
      ],
      "stateMutability": "view",
      "type": "function"
    },
    {
      "inputs": [
        {
          "internalType": "bytes32",
          "name": "code",
          "type": "bytes32"
        }
      ],
      "name": "getSupportedInstitutionName",
      "outputs": [
        {
          "components": [
            {
              "internalType": "bytes32",
              "name": "name",
              "type": "bytes32"
            },
            {
              "internalType": "bytes32",
              "name": "currency",
              "type": "bytes32"
            }
          ],
          "internalType": "struct PaycrestSettingManager.InstitutionByCode",
          "name": "",
          "type": "tuple"
        }
      ],
      "stateMutability": "view",
      "type": "function"
    },
    {
      "inputs": [
        {
          "internalType": "bytes32",
          "name": "currency",
          "type": "bytes32"
        }
      ],
      "name": "getSupportedInstitutions",
      "outputs": [
        {
          "components": [
            {
              "internalType": "bytes32",
              "name": "code",
              "type": "bytes32"
            },
            {
              "internalType": "bytes32",
              "name": "name",
              "type": "bytes32"
            }
          ],
          "internalType": "struct PaycrestSettingManager.Institution[]",
          "name": "",
          "type": "tuple[]"
        }
      ],
      "stateMutability": "view",
      "type": "function"
    },
    {
      "inputs": [
        {
          "internalType": "address",
          "name": "sender",
          "type": "address"
        }
      ],
      "name": "getWhitelistedStatus",
      "outputs": [
        {
          "internalType": "bool",
          "name": "",
          "type": "bool"
        }
      ],
      "stateMutability": "view",
      "type": "function"
    },
    {
      "inputs": [
        {
          "internalType": "address",
          "name": "_usdc",
          "type": "address"
        }
      ],
      "name": "initialize",
      "outputs": [],
      "stateMutability": "nonpayable",
      "type": "function"
    },
    {
      "inputs": [
        {
          "internalType": "address",
          "name": "_token",
          "type": "address"
        }
      ],
      "name": "isTokenSupported",
      "outputs": [
        {
          "internalType": "bool",
          "name": "",
          "type": "bool"
        }
      ],
      "stateMutability": "view",
      "type": "function"
    },
    {
      "inputs": [],
      "name": "owner",
      "outputs": [
        {
          "internalType": "address",
          "name": "",
          "type": "address"
        }
      ],
      "stateMutability": "view",
      "type": "function"
    },
    {
      "inputs": [
        {
          "internalType": "bytes32",
          "name": "_orderId",
          "type": "bytes32"
        },
        {
          "internalType": "bytes32",
          "name": "_reference",
          "type": "bytes32"
        }
      ],
      "name": "refund",
      "outputs": [
        {
          "internalType": "bool",
          "name": "",
          "type": "bool"
        }
      ],
      "stateMutability": "nonpayable",
      "type": "function"
    },
    {
      "inputs": [],
      "name": "renounceOwnership",
      "outputs": [],
      "stateMutability": "nonpayable",
      "type": "function"
    },
    {
      "inputs": [
        {
          "internalType": "bytes32",
          "name": "currency",
          "type": "bytes32"
        },
        {
          "components": [
            {
              "internalType": "bytes32",
              "name": "code",
              "type": "bytes32"
            },
            {
              "internalType": "bytes32",
              "name": "name",
              "type": "bytes32"
            }
          ],
          "internalType": "struct PaycrestSettingManager.Institution[]",
          "name": "institutions",
          "type": "tuple[]"
        }
      ],
      "name": "setSupportedInstitutions",
      "outputs": [],
      "stateMutability": "nonpayable",
      "type": "function"
    },
    {
      "inputs": [
        {
          "internalType": "bytes32",
          "name": "what",
          "type": "bytes32"
        },
        {
          "internalType": "address",
          "name": "value",
          "type": "address"
        },
        {
          "internalType": "bool",
          "name": "status",
          "type": "bool"
        }
      ],
      "name": "settingManagerBool",
      "outputs": [],
      "stateMutability": "nonpayable",
      "type": "function"
    },
    {
      "inputs": [
        {
          "internalType": "bytes32",
          "name": "_splitOrderId",
          "type": "bytes32"
        },
        {
          "internalType": "bytes32",
          "name": "_orderId",
          "type": "bytes32"
        },
        {
          "internalType": "bytes32",
          "name": "_reference",
          "type": "bytes32"
        },
        {
          "internalType": "address[]",
          "name": "_validators",
          "type": "address[]"
        },
        {
          "internalType": "address",
          "name": "_liquidityProvider",
          "type": "address"
        },
        {
          "internalType": "uint96",
          "name": "_settlePercent",
          "type": "uint96"
        }
      ],
      "name": "settle",
      "outputs": [
        {
          "internalType": "bytes32",
          "name": "",
          "type": "bytes32"
        },
        {
          "internalType": "address",
          "name": "",
          "type": "address"
        }
      ],
      "stateMutability": "nonpayable",
      "type": "function"
    },
    {
      "inputs": [
        {
          "internalType": "address",
          "name": "newOwner",
          "type": "address"
        }
      ],
      "name": "transferOwnership",
      "outputs": [],
      "stateMutability": "nonpayable",
      "type": "function"
    },
    {
      "inputs": [
        {
          "internalType": "bytes32",
          "name": "what",
          "type": "bytes32"
        },
        {
          "internalType": "address",
          "name": "value",
          "type": "address"
        }
      ],
      "name": "updateProtocolAddresses",
      "outputs": [],
      "stateMutability": "nonpayable",
      "type": "function"
    },
    {
      "inputs": [
        {
          "internalType": "uint128",
          "name": "_protocolFeePercent",
          "type": "uint128"
        },
        {
          "internalType": "uint128",
          "name": "_validatorFeePercent",
          "type": "uint128"
        }
      ],
      "name": "updateProtocolFees",
      "outputs": [],
      "stateMutability": "nonpayable",
      "type": "function"
    },
    {
      "inputs": [
        {
          "internalType": "address",
          "name": "_token",
          "type": "address"
        },
        {
          "internalType": "address",
          "name": "_recipient",
          "type": "address"
        },
        {
          "internalType": "uint256",
          "name": "_amount",
          "type": "uint256"
        }
      ],
      "name": "withdraw",
      "outputs": [],
      "stateMutability": "nonpayable",
      "type": "function"
    }
  ],
  "bytecode": "0x60806040523480156200001157600080fd5b50620000226200002860201b60201c565b620001d2565b600060019054906101000a900460ff16156200007b576040517f08c379a0000000000000000000000000000000000000000000000000000000008152600401620000729062000175565b60405180910390fd5b60ff801660008054906101000a900460ff1660ff1614620000ec5760ff6000806101000a81548160ff021916908360ff1602179055507f7f26b83ff96e1f2b6a682f133852f6798a09c465da95921460cefb384740249860ff604051620000e39190620001b5565b60405180910390a15b565b600082825260208201905092915050565b7f496e697469616c697a61626c653a20636f6e747261637420697320696e69746960008201527f616c697a696e6700000000000000000000000000000000000000000000000000602082015250565b60006200015d602783620000ee565b91506200016a82620000ff565b604082019050919050565b6000602082019050818103600083015262000190816200014e565b9050919050565b600060ff82169050919050565b620001af8162000197565b82525050565b6000602082019050620001cc6000830184620001a4565b92915050565b61397a80620001e26000396000f3fe608060405234801561001057600080fd5b50600436106101215760003560e01c80638da5cb5b116100ad578063d8e8de3411610071578063d8e8de341461031d578063d9caed121461034d578063e4683a7914610369578063f2fde38b14610399578063f5326b19146103b557610121565b80638da5cb5b1461027657806399e3c0b4146102945780639ea0445f146102b0578063b810c636146102e1578063c4d66de81461030157610121565b8063715018a6116100f4578063715018a6146101c057806375151b63146101ca578063768c6ec0146101fa57806379a0effb1461022a57806387490d861461024657610121565b806302621338146101265780632654ec7e146101565780632ebc53561461018657806332200882146101a4575b600080fd5b610140600480360381019061013b919061258c565b6103d1565b60405161014d91906126a6565b60405180910390f35b610170600480360381019061016b9190612805565b61050f565b60405161017d91906128ff565b60405180910390f35b61018e610952565b60405161019b9190612929565b60405180910390f35b6101be60048036038101906101b99190612ae8565b61097c565b005b6101c8610a90565b005b6101e460048036038101906101df9190612b44565b610aa4565b6040516101f19190612b8c565b60405180910390f35b610214600480360381019061020f919061258c565b610afa565b6040516102219190612c9a565b60405180910390f35b610244600480360381019061023f9190612cb6565b610d2b565b005b610260600480360381019061025b919061258c565b610e6f565b60405161026d9190612d25565b60405180910390f35b61027e610eb0565b60405161028b9190612929565b60405180910390f35b6102ae60048036038101906102a99190612d6c565b610eda565b005b6102ca60048036038101906102c59190612e15565b6110c7565b6040516102d8929190612ec4565b60405180910390f35b6102e96114b4565b6040516102f893929190612f27565b60405180910390f35b61031b60048036038101906103169190612b44565b611505565b005b61033760048036038101906103329190612b44565b61171c565b6040516103449190612b8c565b60405180910390f35b61036760048036038101906103629190612f5e565b611772565b005b610383600480360381019061037e9190612fb1565b6117fe565b6040516103909190612b8c565b60405180910390f35b6103b360048036038101906103ae9190612b44565b611aab565b005b6103cf60048036038101906103ca919061301d565b611b2e565b005b60606000606b6000848152602001908152602001600020805480602002602001604051908101604052809291908181526020016000905b8282101561044e57838290600052602060002090600202016040518060400160405290816000820154815260200160018201548152505081526020019060010190610408565b50505050905060008151905060008167ffffffffffffffff81111561047657610475612955565b5b6040519080825280602002602001820160405280156104af57816020015b61049c61241f565b8152602001906001900390816104945790505b50905060005b82811015610503578381815181106104d0576104cf61305d565b5b60200260200101518282815181106104eb576104ea61305d565b5b602002602001018190525080806001019150506104b5565b50809350505050919050565b600061051e8b8b86898d611be5565b8a73ffffffffffffffffffffffffffffffffffffffff166323b872dd33308d6040518463ffffffff1660e01b815260040161055b9392919061308c565b6020604051808303816000875af115801561057a573d6000803e3d6000fd5b505050506040513d601f19601f8201168201806040525081019061059e91906130d8565b50606e60003373ffffffffffffffffffffffffffffffffffffffff1673ffffffffffffffffffffffffffffffffffffffff16815260200190815260200160002060008154809291906105ef90613134565b919050555033606e60003373ffffffffffffffffffffffffffffffffffffffff1673ffffffffffffffffffffffffffffffffffffffff1681526020019081526020016000205460405160200161064692919061317c565b6040516020818303038152906040528051906020012090506040518061012001604052803373ffffffffffffffffffffffffffffffffffffffff1681526020018c73ffffffffffffffffffffffffffffffffffffffff1681526020018773ffffffffffffffffffffffffffffffffffffffff168152602001868152602001886bffffffffffffffffffffffff1681526020016000151581526020018573ffffffffffffffffffffffffffffffffffffffff1681526020016065546bffffffffffffffffffffffff1681526020018b815250606d600083815260200190815260200160002060008201518160000160006101000a81548173ffffffffffffffffffffffffffffffffffffffff021916908373ffffffffffffffffffffffffffffffffffffffff16021790555060208201518160010160006101000a81548173ffffffffffffffffffffffffffffffffffffffff021916908373ffffffffffffffffffffffffffffffffffffffff16021790555060408201518160020160006101000a81548173ffffffffffffffffffffffffffffffffffffffff021916908373ffffffffffffffffffffffffffffffffffffffff1602179055506060820151816003015560808201518160040160006101000a8154816bffffffffffffffffffffffff02191690836bffffffffffffffffffffffff16021790555060a082015181600401600c6101000a81548160ff02191690831515021790555060c08201518160050160006101000a81548173ffffffffffffffffffffffffffffffffffffffff021916908373ffffffffffffffffffffffffffffffffffffffff16021790555060e08201518160050160146101000a8154816bffffffffffffffffffffffff02191690836bffffffffffffffffffffffff1602179055506101008201518160060155905050808a8c73ffffffffffffffffffffffffffffffffffffffff167f2c205f90c01160d42994a0eb521810056d94bb82a1fcb038d7179c4158a1f15b8a8d8d898960405161093c95949392919061322d565b60405180910390a49a9950505050505050505050565b6000606860009054906101000a900473ffffffffffffffffffffffffffffffffffffffff16905090565b610984611df4565b60008151905060005b81811015610a8a57606b60008581526020019081526020016000208382815181106109bb576109ba61305d565b5b60200260200101519080600181540180825580915050600190039060005260206000209060020201600090919091909150600082015181600001556020820151816001015550506040518060400160405280848381518110610a2057610a1f61305d565b5b602002602001015160200151815260200185815250606c6000858481518110610a4c57610a4b61305d565b5b60200260200101516000015181526020019081526020016000206000820151816000015560208201518160010155905050808060010191505061098d565b50505050565b610a98611df4565b610aa26000611e72565b565b6000606960008373ffffffffffffffffffffffffffffffffffffffff1673ffffffffffffffffffffffffffffffffffffffff16815260200190815260200160002060009054906101000a900460ff169050919050565b610b0261243f565b606d6000838152602001908152602001600020604051806101200160405290816000820160009054906101000a900473ffffffffffffffffffffffffffffffffffffffff1673ffffffffffffffffffffffffffffffffffffffff1673ffffffffffffffffffffffffffffffffffffffff1681526020016001820160009054906101000a900473ffffffffffffffffffffffffffffffffffffffff1673ffffffffffffffffffffffffffffffffffffffff1673ffffffffffffffffffffffffffffffffffffffff1681526020016002820160009054906101000a900473ffffffffffffffffffffffffffffffffffffffff1673ffffffffffffffffffffffffffffffffffffffff1673ffffffffffffffffffffffffffffffffffffffff168152602001600382015481526020016004820160009054906101000a90046bffffffffffffffffffffffff166bffffffffffffffffffffffff166bffffffffffffffffffffffff16815260200160048201600c9054906101000a900460ff161515151581526020016005820160009054906101000a900473ffffffffffffffffffffffffffffffffffffffff1673ffffffffffffffffffffffffffffffffffffffff1673ffffffffffffffffffffffffffffffffffffffff1681526020016005820160149054906101000a90046bffffffffffffffffffffffff166bffffffffffffffffffffffff166bffffffffffffffffffffffff1681526020016006820154815250509050919050565b610d33611df4565b600073ffffffffffffffffffffffffffffffffffffffff168173ffffffffffffffffffffffffffffffffffffffff1603610d99576040517f9c8e2b5d00000000000000000000000000000000000000000000000000000000815260040160405180910390fd5b7f66656500000000000000000000000000000000000000000000000000000000008203610e025780606760006101000a81548173ffffffffffffffffffffffffffffffffffffffff021916908373ffffffffffffffffffffffffffffffffffffffff1602179055505b7f61676772656761746f72000000000000000000000000000000000000000000008203610e6b5780606860006101000a81548173ffffffffffffffffffffffffffffffffffffffff021916908373ffffffffffffffffffffffffffffffffffffffff1602179055505b5050565b610e77612501565b606c6000838152602001908152602001600020604051806040016040529081600082015481526020016001820154815250509050919050565b6000603360009054906101000a900473ffffffffffffffffffffffffffffffffffffffff16905090565b610ee2611df4565b600073ffffffffffffffffffffffffffffffffffffffff168273ffffffffffffffffffffffffffffffffffffffff1603610f48576040517f9c8e2b5d00000000000000000000000000000000000000000000000000000000815260040160405180910390fd5b7f746f6b656e0000000000000000000000000000000000000000000000000000008303610fc75780606960008473ffffffffffffffffffffffffffffffffffffffff1673ffffffffffffffffffffffffffffffffffffffff16815260200190815260200160002060006101000a81548160ff0219169083151502179055505b7f77686974656c6973740000000000000000000000000000000000000000000000830361104a5780606a60008473ffffffffffffffffffffffffffffffffffffffff1673ffffffffffffffffffffffffffffffffffffffff16815260200190815260200160002060006101000a81548160ff021916908315150217905550611087565b826040517f48bae5b800000000000000000000000000000000000000000000000000000000815260040161107e91906128ff565b60405180910390fd5b7fe22cadcc5ddbc0a185e8920eaa6825bcc06dcd6b432988e7e9912caa59ace9308383836040516110ba9392919061327b565b60405180910390a1505050565b600080606860009054906101000a900473ffffffffffffffffffffffffffffffffffffffff1673ffffffffffffffffffffffffffffffffffffffff163373ffffffffffffffffffffffffffffffffffffffff161461115a576040517f08c379a0000000000000000000000000000000000000000000000000000000008152600401611151906132fe565b60405180910390fd5b606d6000898152602001908152602001600020600401600c9054906101000a900460ff16156111be576040517f08c379a00000000000000000000000000000000000000000000000000000000081526004016111b59061336a565b60405180910390fd5b6000606d60008a815260200190815260200160002060010160009054906101000a900473ffffffffffffffffffffffffffffffffffffffff16905083606d60008b815260200190815260200160002060050160148282829054906101000a90046bffffffffffffffffffffffff16611236919061338a565b92506101000a8154816bffffffffffffffffffffffff02191690836bffffffffffffffffffffffff1602179055506000606d60008b815260200190815260200160002060050160149054906101000a90046bffffffffffffffffffffffff166bffffffffffffffffffffffff16036112d8576001606d60008b8152602001908152602001600020600401600c6101000a81548160ff0219169083151502179055505b60006112e48a86611f38565b90506000606d60008c81526020019081526020016000206003015490506000811115611314576113138b61209c565b5b8273ffffffffffffffffffffffffffffffffffffffff1663a9059cbb606760009054906101000a900473ffffffffffffffffffffffffffffffffffffffff1684600001516040518363ffffffff1660e01b815260040161137592919061317c565b6020604051808303816000875af1158015611394573d6000803e3d6000fd5b505050506040513d601f19601f820116820180604052508101906113b891906130d8565b508273ffffffffffffffffffffffffffffffffffffffff1663a9059cbb8884602001516040518363ffffffff1660e01b81526004016113f892919061317c565b6020604051808303816000875af1158015611417573d6000803e3d6000fd5b505050506040513d601f19601f8201168201806040525081019061143b91906130d8565b5061144c89898585604001516121f0565b8673ffffffffffffffffffffffffffffffffffffffff168b7ff26de978cbaea68ea699627155a10ad53df3321b0f95a08264c0cfd6d4c053268e8d8a604051611497939291906133d9565b60405180910390a38a839450945050505097509795505050505050565b6000806000606660009054906101000a90046fffffffffffffffffffffffffffffffff16606660109054906101000a90046fffffffffffffffffffffffffffffffff16606554925092509250909192565b60008060019054906101000a900460ff161590508080156115365750600160008054906101000a900460ff1660ff16105b8061156357506115453061233a565b1580156115625750600160008054906101000a900460ff1660ff16145b5b6115a2576040517f08c379a000000000000000000000000000000000000000000000000000000000815260040161159990613482565b60405180910390fd5b60016000806101000a81548160ff021916908360ff16021790555080156115df576001600060016101000a81548160ff0219169083151502179055505b6001606960008473ffffffffffffffffffffffffffffffffffffffff1673ffffffffffffffffffffffffffffffffffffffff16815260200190815260200160002060006101000a81548160ff021916908315150217905550620186a0606581905550611388606660006101000a8154816fffffffffffffffffffffffffffffffff02191690836fffffffffffffffffffffffffffffffff1602179055506101f4606660106101000a8154816fffffffffffffffffffffffffffffffff02191690836fffffffffffffffffffffffffffffffff1602179055506116bf61235d565b80156117185760008060016101000a81548160ff0219169083151502179055507f7f26b83ff96e1f2b6a682f133852f6798a09c465da95921460cefb3847402498600160405161170f91906134ea565b60405180910390a15b5050565b6000606a60008373ffffffffffffffffffffffffffffffffffffffff1673ffffffffffffffffffffffffffffffffffffffff16815260200190815260200160002060009054906101000a900460ff169050919050565b61177a611df4565b8273ffffffffffffffffffffffffffffffffffffffff1663a9059cbb83836040518363ffffffff1660e01b81526004016117b592919061317c565b6020604051808303816000875af11580156117d4573d6000803e3d6000fd5b505050506040513d601f19601f820116820180604052508101906117f891906130d8565b50505050565b6000606860009054906101000a900473ffffffffffffffffffffffffffffffffffffffff1673ffffffffffffffffffffffffffffffffffffffff163373ffffffffffffffffffffffffffffffffffffffff1614611890576040517f08c379a0000000000000000000000000000000000000000000000000000000008152600401611887906132fe565b60405180910390fd5b606d6000848152602001908152602001600020600401600c9054906101000a900460ff16156118f4576040517f08c379a00000000000000000000000000000000000000000000000000000000081526004016118eb9061336a565b60405180910390fd5b6001606d6000858152602001908152602001600020600401600c6101000a81548160ff0219169083151502179055506000606d600085815260200190815260200160002060050160146101000a8154816bffffffffffffffffffffffff02191690836bffffffffffffffffffffffff160217905550606d600084815260200190815260200160002060010160009054906101000a900473ffffffffffffffffffffffffffffffffffffffff1673ffffffffffffffffffffffffffffffffffffffff1663a9059cbb606d600086815260200190815260200160002060050160009054906101000a900473ffffffffffffffffffffffffffffffffffffffff16606d6000878152602001908152602001600020600601546040518363ffffffff1660e01b8152600401611a2692919061317c565b6020604051808303816000875af1158015611a45573d6000803e3d6000fd5b505050506040513d601f19601f82011682018060405250810190611a6991906130d8565b50827e7c875846b687732a7579c19bb1dade66cd14e9f4f809565e2b2b5e76c72b4f83604051611a9991906128ff565b60405180910390a26001905092915050565b611ab3611df4565b600073ffffffffffffffffffffffffffffffffffffffff168173ffffffffffffffffffffffffffffffffffffffff1603611b22576040517f08c379a0000000000000000000000000000000000000000000000000000000008152600401611b1990613577565b60405180910390fd5b611b2b81611e72565b50565b611b36611df4565b81606660006101000a8154816fffffffffffffffffffffffffffffffff02191690836fffffffffffffffffffffffffffffffff16021790555080606660106101000a8154816fffffffffffffffffffffffffffffffff02191690836fffffffffffffffffffffffffffffffff1602179055507fe38926c5806b98a6fd00c5d791a36fbd196537fe48d11c45c9f1d0acd1ea74df8282604051611bd9929190613597565b60405180910390a15050565b606960008673ffffffffffffffffffffffffffffffffffffffff1673ffffffffffffffffffffffffffffffffffffffff16815260200190815260200160002060009054906101000a900460ff16611c71576040517f08c379a0000000000000000000000000000000000000000000000000000000008152600401611c689061360c565b60405180910390fd5b60008411611cb4576040517f08c379a0000000000000000000000000000000000000000000000000000000008152600401611cab90613678565b60405180910390fd5b600073ffffffffffffffffffffffffffffffffffffffff168373ffffffffffffffffffffffffffffffffffffffff1603611d23576040517f08c379a0000000000000000000000000000000000000000000000000000000008152600401611d1a906136e4565b60405180910390fd5b600073ffffffffffffffffffffffffffffffffffffffff168273ffffffffffffffffffffffffffffffffffffffff1603611d92576040517f08c379a0000000000000000000000000000000000000000000000000000000008152600401611d89906136e4565b60405180910390fd5b6000801b606c60008381526020019081526020016000206000015403611ded576040517f08c379a0000000000000000000000000000000000000000000000000000000008152600401611de490613750565b60405180910390fd5b5050505050565b611dfc6123b6565b73ffffffffffffffffffffffffffffffffffffffff16611e1a610eb0565b73ffffffffffffffffffffffffffffffffffffffff1614611e70576040517f08c379a0000000000000000000000000000000000000000000000000000000008152600401611e67906137bc565b60405180910390fd5b565b6000603360009054906101000a900473ffffffffffffffffffffffffffffffffffffffff16905081603360006101000a81548173ffffffffffffffffffffffffffffffffffffffff021916908373ffffffffffffffffffffffffffffffffffffffff1602179055508173ffffffffffffffffffffffffffffffffffffffff168173ffffffffffffffffffffffffffffffffffffffff167f8be0079c531659141344cd1fd0a4f28419497f9722a3daafe3b4186f6b6457e060405160405180910390a35050565b611f40612521565b6000606d6000858152602001908152602001600020600601549050606d60008581526020019081526020016000206003015481611f7d91906137dc565b9050606554836bffffffffffffffffffffffff1682611f9c9190613810565b611fa69190613881565b826020018181525050606554606660009054906101000a90046fffffffffffffffffffffffffffffffff166fffffffffffffffffffffffffffffffff168360200151611ff29190613810565b611ffc9190613881565b8260000181815250508160000151826020015161201991906137dc565b826020018181525050606554606660109054906101000a90046fffffffffffffffffffffffffffffffff166fffffffffffffffffffffffffffffffff1683600001516120659190613810565b61206f9190613881565b8260400181815250508160400151826000015161208c91906137dc565b8260000181815250505092915050565b6000606d600083815260200190815260200160002060020160009054906101000a900473ffffffffffffffffffffffffffffffffffffffff1690506000606d6000848152602001908152602001600020600301549050606d600084815260200190815260200160002060010160009054906101000a900473ffffffffffffffffffffffffffffffffffffffff1673ffffffffffffffffffffffffffffffffffffffff1663a9059cbb83836040518363ffffffff1660e01b815260040161216392919061317c565b6020604051808303816000875af1158015612182573d6000803e3d6000fd5b505050506040513d601f19601f820116820180604052508101906121a691906130d8565b50808273ffffffffffffffffffffffffffffffffffffffff167f96c76d5aec8a8c11a9c8e02768e3fa309347330d08961e0cf9fd43b349b684c260405160405180910390a3505050565b6000848490509050600081836122069190613881565b905060005b82811015612331578473ffffffffffffffffffffffffffffffffffffffff1663a9059cbb8888848181106122425761224161305d565b5b90506020020160208101906122579190612b44565b846040518363ffffffff1660e01b815260040161227592919061317c565b6020604051808303816000875af1158015612294573d6000803e3d6000fd5b505050506040513d601f19601f820116820180604052508101906122b891906130d8565b50818787838181106122cd576122cc61305d565b5b90506020020160208101906122e29190612b44565b73ffffffffffffffffffffffffffffffffffffffff167f61dceb70b8f97239c33a3f9c0d0efc6c8759c7e9a808f75dd42b3a0f213186c260405160405180910390a3808060010191505061220b565b50505050505050565b6000808273ffffffffffffffffffffffffffffffffffffffff163b119050919050565b600060019054906101000a900460ff166123ac576040517f08c379a00000000000000000000000000000000000000000000000000000000081526004016123a390613924565b60405180910390fd5b6123b46123be565b565b600033905090565b600060019054906101000a900460ff1661240d576040517f08c379a000000000000000000000000000000000000000000000000000000000815260040161240490613924565b60405180910390fd5b61241d6124186123b6565b611e72565b565b604051806040016040528060008019168152602001600080191681525090565b604051806101200160405280600073ffffffffffffffffffffffffffffffffffffffff168152602001600073ffffffffffffffffffffffffffffffffffffffff168152602001600073ffffffffffffffffffffffffffffffffffffffff1681526020016000815260200160006bffffffffffffffffffffffff168152602001600015158152602001600073ffffffffffffffffffffffffffffffffffffffff16815260200160006bffffffffffffffffffffffff168152602001600081525090565b604051806040016040528060008019168152602001600080191681525090565b60405180606001604052806000815260200160008152602001600081525090565b6000604051905090565b600080fd5b600080fd5b6000819050919050565b61256981612556565b811461257457600080fd5b50565b60008135905061258681612560565b92915050565b6000602082840312156125a2576125a161254c565b5b60006125b084828501612577565b91505092915050565b600081519050919050565b600082825260208201905092915050565b6000819050602082019050919050565b6125ee81612556565b82525050565b60408201600082015161260a60008501826125e5565b50602082015161261d60208501826125e5565b50505050565b600061262f83836125f4565b60408301905092915050565b6000602082019050919050565b6000612653826125b9565b61265d81856125c4565b9350612668836125d5565b8060005b838110156126995781516126808882612623565b975061268b8361263b565b92505060018101905061266c565b5085935050505092915050565b600060208201905081810360008301526126c08184612648565b905092915050565b600073ffffffffffffffffffffffffffffffffffffffff82169050919050565b60006126f3826126c8565b9050919050565b612703816126e8565b811461270e57600080fd5b50565b600081359050612720816126fa565b92915050565b6000819050919050565b61273981612726565b811461274457600080fd5b50565b60008135905061275681612730565b92915050565b60006bffffffffffffffffffffffff82169050919050565b61277d8161275c565b811461278857600080fd5b50565b60008135905061279a81612774565b92915050565b600080fd5b600080fd5b600080fd5b60008083601f8401126127c5576127c46127a0565b5b8235905067ffffffffffffffff8111156127e2576127e16127a5565b5b6020830191508360018202830111156127fe576127fd6127aa565b5b9250929050565b6000806000806000806000806000806101208b8d0312156128295761282861254c565b5b60006128378d828e01612711565b9a505060206128488d828e01612747565b99505060406128598d828e01612577565b985050606061286a8d828e01612577565b975050608061287b8d828e0161278b565b96505060a061288c8d828e01612711565b95505060c061289d8d828e01612747565b94505060e06128ae8d828e01612711565b9350506101008b013567ffffffffffffffff8111156128d0576128cf612551565b5b6128dc8d828e016127af565b92509250509295989b9194979a5092959850565b6128f981612556565b82525050565b600060208201905061291460008301846128f0565b92915050565b612923816126e8565b82525050565b600060208201905061293e600083018461291a565b92915050565b6000601f19601f8301169050919050565b7f4e487b7100000000000000000000000000000000000000000000000000000000600052604160045260246000fd5b61298d82612944565b810181811067ffffffffffffffff821117156129ac576129ab612955565b5b80604052505050565b60006129bf612542565b90506129cb8282612984565b919050565b600067ffffffffffffffff8211156129eb576129ea612955565b5b602082029050602081019050919050565b600080fd5b600060408284031215612a1757612a166129fc565b5b612a2160406129b5565b90506000612a3184828501612577565b6000830152506020612a4584828501612577565b60208301525092915050565b6000612a64612a5f846129d0565b6129b5565b90508083825260208201905060408402830185811115612a8757612a866127aa565b5b835b81811015612ab05780612a9c8882612a01565b845260208401935050604081019050612a89565b5050509392505050565b600082601f830112612acf57612ace6127a0565b5b8135612adf848260208601612a51565b91505092915050565b60008060408385031215612aff57612afe61254c565b5b6000612b0d85828601612577565b925050602083013567ffffffffffffffff811115612b2e57612b2d612551565b5b612b3a85828601612aba565b9150509250929050565b600060208284031215612b5a57612b5961254c565b5b6000612b6884828501612711565b91505092915050565b60008115159050919050565b612b8681612b71565b82525050565b6000602082019050612ba16000830184612b7d565b92915050565b612bb0816126e8565b82525050565b612bbf81612726565b82525050565b612bce8161275c565b82525050565b612bdd81612b71565b82525050565b61012082016000820151612bfa6000850182612ba7565b506020820151612c0d6020850182612ba7565b506040820151612c206040850182612ba7565b506060820151612c336060850182612bb6565b506080820151612c466080850182612bc5565b5060a0820151612c5960a0850182612bd4565b5060c0820151612c6c60c0850182612ba7565b5060e0820151612c7f60e0850182612bc5565b50610100820151612c94610100850182612bb6565b50505050565b600061012082019050612cb06000830184612be3565b92915050565b60008060408385031215612ccd57612ccc61254c565b5b6000612cdb85828601612577565b9250506020612cec85828601612711565b9150509250929050565b604082016000820151612d0c60008501826125e5565b506020820151612d1f60208501826125e5565b50505050565b6000604082019050612d3a6000830184612cf6565b92915050565b612d4981612b71565b8114612d5457600080fd5b50565b600081359050612d6681612d40565b92915050565b600080600060608486031215612d8557612d8461254c565b5b6000612d9386828701612577565b9350506020612da486828701612711565b9250506040612db586828701612d57565b9150509250925092565b60008083601f840112612dd557612dd46127a0565b5b8235905067ffffffffffffffff811115612df257612df16127a5565b5b602083019150836020820283011115612e0e57612e0d6127aa565b5b9250929050565b600080600080600080600060c0888a031215612e3457612e3361254c565b5b6000612e428a828b01612577565b9750506020612e538a828b01612577565b9650506040612e648a828b01612577565b955050606088013567ffffffffffffffff811115612e8557612e84612551565b5b612e918a828b01612dbf565b94509450506080612ea48a828b01612711565b92505060a0612eb58a828b0161278b565b91505092959891949750929550565b6000604082019050612ed960008301856128f0565b612ee6602083018461291a565b9392505050565b60006fffffffffffffffffffffffffffffffff82169050919050565b612f1281612eed565b82525050565b612f2181612726565b82525050565b6000606082019050612f3c6000830186612f09565b612f496020830185612f09565b612f566040830184612f18565b949350505050565b600080600060608486031215612f7757612f7661254c565b5b6000612f8586828701612711565b9350506020612f9686828701612711565b9250506040612fa786828701612747565b9150509250925092565b60008060408385031215612fc857612fc761254c565b5b6000612fd685828601612577565b9250506020612fe785828601612577565b9150509250929050565b612ffa81612eed565b811461300557600080fd5b50565b60008135905061301781612ff1565b92915050565b600080604083850312156130345761303361254c565b5b600061304285828601613008565b925050602061305385828601613008565b9150509250929050565b7f4e487b7100000000000000000000000000000000000000000000000000000000600052603260045260246000fd5b60006060820190506130a1600083018661291a565b6130ae602083018561291a565b6130bb6040830184612f18565b949350505050565b6000815190506130d281612d40565b92915050565b6000602082840312156130ee576130ed61254c565b5b60006130fc848285016130c3565b91505092915050565b7f4e487b7100000000000000000000000000000000000000000000000000000000600052601160045260246000fd5b600061313f82612726565b91507fffffffffffffffffffffffffffffffffffffffffffffffffffffffffffffffff820361317157613170613105565b5b600182019050919050565b6000604082019050613191600083018561291a565b61319e6020830184612f18565b9392505050565b6000819050919050565b60006131ca6131c56131c08461275c565b6131a5565b612726565b9050919050565b6131da816131af565b82525050565b600082825260208201905092915050565b82818337600083830152505050565b600061320c83856131e0565b93506132198385846131f1565b61322283612944565b840190509392505050565b600060808201905061324260008301886131d1565b61324f60208301876128f0565b61325c60408301866128f0565b818103606083015261326f818486613200565b90509695505050505050565b600060608201905061329060008301866128f0565b61329d602083018561291a565b6132aa6040830184612b7d565b949350505050565b7f4f6e6c7941676772656761746f72000000000000000000000000000000000000600082015250565b60006132e8600e836131e0565b91506132f3826132b2565b602082019050919050565b60006020820190508181036000830152613317816132db565b9050919050565b7f4f7264657246756c66696c6c6564000000000000000000000000000000000000600082015250565b6000613354600e836131e0565b915061335f8261331e565b602082019050919050565b6000602082019050818103600083015261338381613347565b9050919050565b60006133958261275c565b91506133a08361275c565b925082820390506bffffffffffffffffffffffff8111156133c4576133c3613105565b5b92915050565b6133d38161275c565b82525050565b60006060820190506133ee60008301866128f0565b6133fb60208301856128f0565b61340860408301846133ca565b949350505050565b7f496e697469616c697a61626c653a20636f6e747261637420697320616c72656160008201527f647920696e697469616c697a6564000000000000000000000000000000000000602082015250565b600061346c602e836131e0565b915061347782613410565b604082019050919050565b6000602082019050818103600083015261349b8161345f565b9050919050565b6000819050919050565b600060ff82169050919050565b60006134d46134cf6134ca846134a2565b6131a5565b6134ac565b9050919050565b6134e4816134b9565b82525050565b60006020820190506134ff60008301846134db565b92915050565b7f4f776e61626c653a206e6577206f776e657220697320746865207a65726f206160008201527f6464726573730000000000000000000000000000000000000000000000000000602082015250565b60006135616026836131e0565b915061356c82613505565b604082019050919050565b6000602082019050818103600083015261359081613554565b9050919050565b60006040820190506135ac6000830185612f09565b6135b96020830184612f09565b9392505050565b7f546f6b656e4e6f74537570706f72746564000000000000000000000000000000600082015250565b60006135f66011836131e0565b9150613601826135c0565b602082019050919050565b60006020820190508181036000830152613625816135e9565b9050919050565b7f416d6f756e7449735a65726f0000000000000000000000000000000000000000600082015250565b6000613662600c836131e0565b915061366d8261362c565b602082019050919050565b6000602082019050818103600083015261369181613655565b9050919050565b7f5468726f775a65726f4164647265737300000000000000000000000000000000600082015250565b60006136ce6010836131e0565b91506136d982613698565b602082019050919050565b600060208201905081810360008301526136fd816136c1565b9050919050565b7f496e76616c6964496e737469747574696f6e436f646500000000000000000000600082015250565b600061373a6016836131e0565b915061374582613704565b602082019050919050565b600060208201905081810360008301526137698161372d565b9050919050565b7f4f776e61626c653a2063616c6c6572206973206e6f7420746865206f776e6572600082015250565b60006137a66020836131e0565b91506137b182613770565b602082019050919050565b600060208201905081810360008301526137d581613799565b9050919050565b60006137e782612726565b91506137f283612726565b925082820390508181111561380a57613809613105565b5b92915050565b600061381b82612726565b915061382683612726565b925082820261383481612726565b9150828204841483151761384b5761384a613105565b5b5092915050565b7f4e487b7100000000000000000000000000000000000000000000000000000000600052601260045260246000fd5b600061388c82612726565b915061389783612726565b9250826138a7576138a6613852565b5b828204905092915050565b7f496e697469616c697a61626c653a20636f6e7472616374206973206e6f74206960008201527f6e697469616c697a696e67000000000000000000000000000000000000000000602082015250565b600061390e602b836131e0565b9150613919826138b2565b604082019050919050565b6000602082019050818103600083015261393d81613901565b905091905056fea26469706673582212203a87c3b9d3e34559b1b77d83e9f2e37841a49d8511ff68d9dd1a8d9b8eebc64664736f6c63430008120033",
  "linkReferences": {},
  "deployedLinkReferences": {}
}