{
  "_format": "hh-sol-artifact-1",
  "contractName": "Paycrest",
  "sourceName": "contracts/Paycrest.sol",
  "abi": [
    {
      "inputs": [],
      "stateMutability": "nonpayable",
      "type": "constructor"
    },
    {
      "anonymous": false,
      "inputs": [
        {
          "indexed": true,
          "internalType": "address",
          "name": "token",
          "type": "address"
        },
        {
          "indexed": true,
          "internalType": "uint256",
          "name": "amount",
          "type": "uint256"
        },
        {
          "indexed": true,
          "internalType": "bytes32",
          "name": "orderId",
          "type": "bytes32"
        },
        {
          "indexed": false,
          "internalType": "uint256",
          "name": "rate",
          "type": "uint256"
        },
        {
          "indexed": false,
          "internalType": "bytes32",
          "name": "institutionCode",
          "type": "bytes32"
        },
        {
          "indexed": false,
          "internalType": "bytes32",
          "name": "label",
          "type": "bytes32"
        },
        {
          "indexed": false,
          "internalType": "string",
          "name": "messageHash",
          "type": "string"
        }
      ],
      "name": "Deposit",
      "type": "event"
    },
    {
      "anonymous": false,
      "inputs": [
        {
          "indexed": false,
          "internalType": "uint8",
          "name": "version",
          "type": "uint8"
        }
      ],
      "name": "Initialized",
      "type": "event"
    },
    {
      "anonymous": false,
      "inputs": [
        {
          "indexed": true,
          "internalType": "address",
          "name": "previousOwner",
          "type": "address"
        },
        {
          "indexed": true,
          "internalType": "address",
          "name": "newOwner",
          "type": "address"
        }
      ],
      "name": "OwnershipTransferred",
      "type": "event"
    },
    {
      "anonymous": false,
      "inputs": [
        {
          "indexed": false,
          "internalType": "uint128",
          "name": "protocolFee",
          "type": "uint128"
        },
        {
          "indexed": false,
          "internalType": "uint128",
          "name": "validatorFeePercent",
          "type": "uint128"
        }
      ],
      "name": "PaycrestFees",
      "type": "event"
    },
    {
      "anonymous": false,
      "inputs": [
        {
          "indexed": true,
          "internalType": "bytes32",
          "name": "orderId",
          "type": "bytes32"
        },
        {
          "indexed": false,
          "internalType": "bytes32",
          "name": "label",
          "type": "bytes32"
        }
      ],
      "name": "Refunded",
      "type": "event"
    },
    {
      "anonymous": false,
      "inputs": [
        {
          "indexed": true,
          "internalType": "address",
          "name": "validator",
          "type": "address"
        },
        {
          "indexed": true,
          "internalType": "uint256",
          "name": "amount",
          "type": "uint256"
        }
      ],
      "name": "RewardValidator",
      "type": "event"
    },
    {
      "anonymous": false,
      "inputs": [
        {
          "indexed": false,
          "internalType": "bytes",
          "name": "aggregator",
          "type": "bytes"
        }
      ],
      "name": "SetAggregator",
      "type": "event"
    },
    {
      "anonymous": false,
      "inputs": [
        {
          "indexed": false,
          "internalType": "address",
          "name": "feeRecipient",
          "type": "address"
        }
      ],
      "name": "SetFeeRecipient",
      "type": "event"
    },
    {
      "anonymous": false,
      "inputs": [
        {
          "indexed": false,
          "internalType": "bytes32",
          "name": "what",
          "type": "bytes32"
        },
        {
          "indexed": false,
          "internalType": "address",
          "name": "value",
          "type": "address"
        },
        {
          "indexed": false,
          "internalType": "bool",
          "name": "status",
          "type": "bool"
        }
      ],
      "name": "SettingManagerBool",
      "type": "event"
    },
    {
      "anonymous": false,
      "inputs": [
        {
          "indexed": false,
          "internalType": "bytes32",
          "name": "_splitOrderId",
          "type": "bytes32"
        },
        {
          "indexed": true,
          "internalType": "bytes32",
          "name": "orderId",
          "type": "bytes32"
        },
        {
          "indexed": false,
          "internalType": "bytes32",
          "name": "label",
          "type": "bytes32"
        },
        {
          "indexed": true,
          "internalType": "address",
          "name": "liquidityProvider",
          "type": "address"
        },
        {
          "indexed": false,
          "internalType": "uint96",
          "name": "settlePercent",
          "type": "uint96"
        }
      ],
      "name": "Settled",
      "type": "event"
    },
    {
      "anonymous": false,
      "inputs": [
        {
          "indexed": true,
          "internalType": "address",
          "name": "sender",
          "type": "address"
        },
        {
          "indexed": true,
          "internalType": "uint256",
          "name": "amount",
          "type": "uint256"
        }
      ],
      "name": "TransferSenderFee",
      "type": "event"
    },
    {
      "inputs": [
        {
          "internalType": "address",
          "name": "_token",
          "type": "address"
        },
        {
          "internalType": "uint256",
          "name": "_amount",
          "type": "uint256"
        },
        {
          "internalType": "bytes32",
          "name": "_institutionCode",
          "type": "bytes32"
        },
        {
          "internalType": "bytes32",
          "name": "_label",
          "type": "bytes32"
        },
        {
          "internalType": "uint96",
          "name": "_rate",
          "type": "uint96"
        },
        {
          "internalType": "address",
          "name": "_senderFeeRecipient",
          "type": "address"
        },
        {
          "internalType": "uint256",
          "name": "_senderFee",
          "type": "uint256"
        },
        {
          "internalType": "address",
          "name": "_refundAddress",
          "type": "address"
        },
        {
          "internalType": "string",
          "name": "messageHash",
          "type": "string"
        }
      ],
      "name": "createOrder",
      "outputs": [
        {
          "internalType": "bytes32",
          "name": "orderId",
          "type": "bytes32"
        }
      ],
      "stateMutability": "nonpayable",
      "type": "function"
    },
    {
      "inputs": [],
      "name": "getAggregator",
      "outputs": [
        {
          "internalType": "bytes",
          "name": "",
          "type": "bytes"
        }
      ],
      "stateMutability": "view",
      "type": "function"
    },
    {
      "inputs": [],
      "name": "getAggregatorAddress",
      "outputs": [
        {
          "internalType": "address",
          "name": "",
          "type": "address"
        }
      ],
      "stateMutability": "view",
      "type": "function"
    },
    {
      "inputs": [],
      "name": "getFeeDetails",
      "outputs": [
        {
          "internalType": "uint128",
          "name": "",
          "type": "uint128"
        },
        {
          "internalType": "uint128",
          "name": "",
          "type": "uint128"
        },
        {
          "internalType": "uint256",
          "name": "",
          "type": "uint256"
        }
      ],
      "stateMutability": "view",
      "type": "function"
    },
    {
      "inputs": [
        {
          "internalType": "bytes32",
          "name": "_orderId",
          "type": "bytes32"
        }
      ],
      "name": "getOrderInfo",
      "outputs": [
        {
          "components": [
            {
              "internalType": "address",
              "name": "seller",
              "type": "address"
            },
            {
              "internalType": "address",
              "name": "token",
              "type": "address"
            },
            {
              "internalType": "address",
              "name": "senderFeeRecipient",
              "type": "address"
            },
            {
              "internalType": "uint256",
              "name": "senderFee",
              "type": "uint256"
            },
            {
              "internalType": "uint96",
              "name": "rate",
              "type": "uint96"
            },
            {
              "internalType": "bool",
              "name": "isFulfilled",
              "type": "bool"
            },
            {
              "internalType": "address",
              "name": "refundAddress",
              "type": "address"
            },
            {
              "internalType": "uint96",
              "name": "currentBPS",
              "type": "uint96"
            },
            {
              "internalType": "uint256",
              "name": "amount",
              "type": "uint256"
            }
          ],
          "internalType": "struct IPaycrest.Order",
          "name": "",
          "type": "tuple"
        }
      ],
      "stateMutability": "view",
      "type": "function"
    },
    {
      "inputs": [
        {
          "internalType": "bytes32",
          "name": "code",
          "type": "bytes32"
        }
      ],
      "name": "getSupportedInstitutionName",
      "outputs": [
        {
          "components": [
            {
              "internalType": "bytes32",
              "name": "name",
              "type": "bytes32"
            },
            {
              "internalType": "bytes32",
              "name": "currency",
              "type": "bytes32"
            }
          ],
          "internalType": "struct PaycrestSettingManager.InstitutionByCode",
          "name": "",
          "type": "tuple"
        }
      ],
      "stateMutability": "view",
      "type": "function"
    },
    {
      "inputs": [
        {
          "internalType": "bytes32",
          "name": "currency",
          "type": "bytes32"
        }
      ],
      "name": "getSupportedInstitutions",
      "outputs": [
        {
          "components": [
            {
              "internalType": "bytes32",
              "name": "code",
              "type": "bytes32"
            },
            {
              "internalType": "bytes32",
              "name": "name",
              "type": "bytes32"
            }
          ],
          "internalType": "struct PaycrestSettingManager.Institution[]",
          "name": "",
          "type": "tuple[]"
        }
      ],
      "stateMutability": "view",
      "type": "function"
    },
    {
      "inputs": [
        {
          "internalType": "address",
          "name": "sender",
          "type": "address"
        }
      ],
      "name": "getWhitelistedStatus",
      "outputs": [
        {
          "internalType": "bool",
          "name": "",
          "type": "bool"
        }
      ],
      "stateMutability": "view",
      "type": "function"
    },
    {
      "inputs": [
        {
          "internalType": "address",
          "name": "_usdc",
          "type": "address"
        }
      ],
      "name": "initialize",
      "outputs": [],
      "stateMutability": "nonpayable",
      "type": "function"
    },
    {
      "inputs": [
        {
          "internalType": "address",
          "name": "_token",
          "type": "address"
        }
      ],
      "name": "isTokenSupported",
      "outputs": [
        {
          "internalType": "bool",
          "name": "",
          "type": "bool"
        }
      ],
      "stateMutability": "view",
      "type": "function"
    },
    {
      "inputs": [],
      "name": "owner",
      "outputs": [
        {
          "internalType": "address",
          "name": "",
          "type": "address"
        }
      ],
      "stateMutability": "view",
      "type": "function"
    },
    {
      "inputs": [
        {
          "internalType": "bytes32",
          "name": "_orderId",
          "type": "bytes32"
        },
        {
          "internalType": "bytes32",
          "name": "_label",
          "type": "bytes32"
        }
      ],
      "name": "refund",
      "outputs": [
        {
          "internalType": "bool",
          "name": "",
          "type": "bool"
        }
      ],
      "stateMutability": "nonpayable",
      "type": "function"
    },
    {
      "inputs": [],
      "name": "renounceOwnership",
      "outputs": [],
      "stateMutability": "nonpayable",
      "type": "function"
    },
    {
      "inputs": [
        {
          "internalType": "bytes32",
          "name": "currency",
          "type": "bytes32"
        },
        {
          "components": [
            {
              "internalType": "bytes32",
              "name": "code",
              "type": "bytes32"
            },
            {
              "internalType": "bytes32",
              "name": "name",
              "type": "bytes32"
            }
          ],
          "internalType": "struct PaycrestSettingManager.Institution[]",
          "name": "institutions",
          "type": "tuple[]"
        }
      ],
      "name": "setSupportedInstitutions",
      "outputs": [],
      "stateMutability": "nonpayable",
      "type": "function"
    },
    {
      "inputs": [
        {
          "internalType": "bytes32",
          "name": "what",
          "type": "bytes32"
        },
        {
          "internalType": "address",
          "name": "value",
          "type": "address"
        },
        {
          "internalType": "bool",
          "name": "status",
          "type": "bool"
        }
      ],
      "name": "settingManagerBool",
      "outputs": [],
      "stateMutability": "nonpayable",
      "type": "function"
    },
    {
      "inputs": [
        {
          "internalType": "bytes32",
          "name": "_splitOrderId",
          "type": "bytes32"
        },
        {
          "internalType": "bytes32",
          "name": "_orderId",
          "type": "bytes32"
        },
        {
          "internalType": "bytes32",
          "name": "_label",
          "type": "bytes32"
        },
        {
          "internalType": "address[]",
          "name": "_validators",
          "type": "address[]"
        },
        {
          "internalType": "address",
          "name": "_liquidityProvider",
          "type": "address"
        },
        {
          "internalType": "uint64",
          "name": "_settlePercent",
          "type": "uint64"
        },
        {
          "internalType": "bool",
          "name": "_isPartner",
          "type": "bool"
        }
      ],
      "name": "settle",
      "outputs": [
        {
          "internalType": "bytes32",
          "name": "",
          "type": "bytes32"
        },
        {
          "internalType": "address",
          "name": "",
          "type": "address"
        }
      ],
      "stateMutability": "nonpayable",
      "type": "function"
    },
    {
      "inputs": [
        {
          "internalType": "address",
          "name": "newOwner",
          "type": "address"
        }
      ],
      "name": "transferOwnership",
      "outputs": [],
      "stateMutability": "nonpayable",
      "type": "function"
    },
    {
      "inputs": [
        {
          "internalType": "bytes32",
          "name": "what",
          "type": "bytes32"
        },
        {
          "internalType": "address",
          "name": "value",
          "type": "address"
        }
      ],
      "name": "updateProtocolAddresses",
      "outputs": [],
      "stateMutability": "nonpayable",
      "type": "function"
    },
    {
      "inputs": [
        {
          "internalType": "bytes",
          "name": "aggregator",
          "type": "bytes"
        }
      ],
      "name": "updateProtocolAggregator",
      "outputs": [],
      "stateMutability": "nonpayable",
      "type": "function"
    },
    {
      "inputs": [
        {
          "internalType": "uint128",
          "name": "_protocolFeePercent",
          "type": "uint128"
        },
        {
          "internalType": "uint128",
          "name": "_validatorFeePercent",
          "type": "uint128"
        }
      ],
      "name": "updateProtocolFees",
      "outputs": [],
      "stateMutability": "nonpayable",
      "type": "function"
    },
    {
      "inputs": [
        {
          "internalType": "address",
          "name": "_token",
          "type": "address"
        },
        {
          "internalType": "address",
          "name": "_recipient",
          "type": "address"
        },
        {
          "internalType": "uint256",
          "name": "_amount",
          "type": "uint256"
        }
      ],
      "name": "withdraw",
      "outputs": [],
      "stateMutability": "nonpayable",
      "type": "function"
    }
  ],
  "bytecode": "0x60806040523480156200001157600080fd5b50620000226200002860201b60201c565b620001d2565b600060019054906101000a900460ff16156200007b576040517f08c379a0000000000000000000000000000000000000000000000000000000008152600401620000729062000175565b60405180910390fd5b60ff801660008054906101000a900460ff1660ff1614620000ec5760ff6000806101000a81548160ff021916908360ff1602179055507f7f26b83ff96e1f2b6a682f133852f6798a09c465da95921460cefb384740249860ff604051620000e39190620001b5565b60405180910390a15b565b600082825260208201905092915050565b7f496e697469616c697a61626c653a20636f6e747261637420697320696e69746960008201527f616c697a696e6700000000000000000000000000000000000000000000000000602082015250565b60006200015d602783620000ee565b91506200016a82620000ff565b604082019050919050565b6000602082019050818103600083015262000190816200014e565b9050919050565b600060ff82169050919050565b620001af8162000197565b82525050565b6000602082019050620001cc6000830184620001a4565b92915050565b61416180620001e26000396000f3fe608060405234801561001057600080fd5b50600436106101375760003560e01c80638da5cb5b116100b8578063d8e8de341161007c578063d8e8de341461034f578063d9caed121461037f578063e4683a791461039b578063e8d6e0de146103cb578063f2fde38b146103e9578063f5326b191461040557610137565b80638da5cb5b146102bd57806399e3c0b4146102db578063b810c636146102f7578063c4d66de814610317578063cb79455b1461033357610137565b8063715018a6116100ff578063715018a61461020757806375151b6314610211578063768c6ec01461024157806379a0effb1461027157806387490d861461028d57610137565b8063026213381461013c578063137764fb1461016c5780632654ec7e1461019d57806332200882146101cd5780633ad59dbc146101e9575b600080fd5b61015660048036038101906101519190612780565b610421565b604051610163919061289a565b60405180910390f35b610186600480360381019061018191906129f7565b61055f565b604051610194929190612ad7565b60405180910390f35b6101b760048036038101906101b29190612bd0565b61096a565b6040516101c49190612cbb565b60405180910390f35b6101e760048036038101906101e29190612e7a565b610e42565b005b6101f1610f56565b6040516101fe9190612f55565b60405180910390f35b61020f610fe8565b005b61022b60048036038101906102269190612f77565b610ffc565b6040516102389190612fb3565b60405180910390f35b61025b60048036038101906102569190612780565b611052565b60405161026891906130c1565b60405180910390f35b61028b600480360381019061028691906130dd565b611283565b005b6102a760048036038101906102a29190612780565b6113d0565b6040516102b4919061314c565b60405180910390f35b6102c5611411565b6040516102d29190613167565b60405180910390f35b6102f560048036038101906102f09190613182565b61143b565b005b6102ff6115f0565b60405161030e9392919061320f565b60405180910390f35b610331600480360381019061032c9190612f77565b611641565b005b61034d6004803603810190610348919061329c565b611858565b005b61036960048036038101906103649190612f77565b6118af565b6040516103769190612fb3565b60405180910390f35b610399600480360381019061039491906132e9565b611905565b005b6103b560048036038101906103b0919061333c565b611991565b6040516103c29190612fb3565b60405180910390f35b6103d3611c3e565b6040516103e09190613167565b60405180910390f35b61040360048036038101906103fe9190612f77565b611c68565b005b61041f600480360381019061041a91906133a8565b611ceb565b005b60606000609e6000848152602001908152602001600020805480602002602001604051908101604052809291908181526020016000905b8282101561049e57838290600052602060002090600202016040518060400160405290816000820154815260200160018201548152505081526020019060010190610458565b50505050905060008151905060008167ffffffffffffffff8111156104c6576104c5612ce7565b5b6040519080825280602002602001820160405280156104ff57816020015b6104ec612613565b8152602001906001900390816104e45790505b50905060005b82811015610553578381815181106105205761051f6133e8565b5b602002602001015182828151811061053b5761053a6133e8565b5b60200260200101819052508080600101915050610505565b50809350505050919050565b600080606860009054906101000a900473ffffffffffffffffffffffffffffffffffffffff1673ffffffffffffffffffffffffffffffffffffffff163373ffffffffffffffffffffffffffffffffffffffff16146105f2576040517f08c379a00000000000000000000000000000000000000000000000000000000081526004016105e990613474565b60405180910390fd5b60a060008a8152602001908152602001600020600401600c9054906101000a900460ff1615610656576040517f08c379a000000000000000000000000000000000000000000000000000000000815260040161064d906134e0565b60405180910390fd5b600060a060008b815260200190815260200160002060010160009054906101000a900473ffffffffffffffffffffffffffffffffffffffff1690508467ffffffffffffffff1660a060008c815260200190815260200160002060050160148282829054906101000a90046bffffffffffffffffffffffff166106d8919061352f565b92506101000a8154816bffffffffffffffffffffffff02191690836bffffffffffffffffffffffff160217905550600061071d8b8767ffffffffffffffff1687611da2565b9050600060a060008d815260200190815260200160002060050160149054906101000a90046bffffffffffffffffffffffff166bffffffffffffffffffffffff16036107bc57600160a060008d8152602001908152602001600020600401600c6101000a81548160ff021916908315150217905550600060a060008d81526020019081526020016000206003015411156107bb576107ba8b611f3d565b5b5b60008160000151111561086f578173ffffffffffffffffffffffffffffffffffffffff1663a9059cbb606760009054906101000a900473ffffffffffffffffffffffffffffffffffffffff1683600001516040518363ffffffff1660e01b815260040161082a92919061356f565b6020604051808303816000875af1158015610849573d6000803e3d6000fd5b505050506040513d601f19601f8201168201806040525081019061086d91906135ad565b505b8173ffffffffffffffffffffffffffffffffffffffff1663a9059cbb8883602001516040518363ffffffff1660e01b81526004016108ae92919061356f565b6020604051808303816000875af11580156108cd573d6000803e3d6000fd5b505050506040513d601f19601f820116820180604052508101906108f191906135ad565b506109028989848460400151612091565b8673ffffffffffffffffffffffffffffffffffffffff168b7ff26de978cbaea68ea699627155a10ad53df3321b0f95a08264c0cfd6d4c053268e8d8a60405161094d93929190613615565b60405180910390a38a829350935050509850989650505050505050565b60006109798b8b86898d6121db565b606554606660009054906101000a90046fffffffffffffffffffffffffffffffff166fffffffffffffffffffffffffffffffff168b6109b8919061364c565b6109c291906136bd565b851115610a04576040517f08c379a00000000000000000000000000000000000000000000000000000000081526004016109fb9061373a565b60405180910390fd5b8a73ffffffffffffffffffffffffffffffffffffffff166323b872dd33308d6040518463ffffffff1660e01b8152600401610a419392919061375a565b6020604051808303816000875af1158015610a60573d6000803e3d6000fd5b505050506040513d601f19601f82011682018060405250810190610a8491906135ad565b5060a160003373ffffffffffffffffffffffffffffffffffffffff1673ffffffffffffffffffffffffffffffffffffffff1681526020019081526020016000206000815480929190610ad590613791565b91905055503360a160003373ffffffffffffffffffffffffffffffffffffffff1673ffffffffffffffffffffffffffffffffffffffff16815260200190815260200160002054604051602001610b2c92919061356f565b6040516020818303038152906040528051906020012090506040518061012001604052803373ffffffffffffffffffffffffffffffffffffffff1681526020018c73ffffffffffffffffffffffffffffffffffffffff1681526020018773ffffffffffffffffffffffffffffffffffffffff168152602001868152602001886bffffffffffffffffffffffff1681526020016000151581526020018573ffffffffffffffffffffffffffffffffffffffff16815260200160655467ffffffffffffffff166bffffffffffffffffffffffff1681526020018b81525060a0600083815260200190815260200160002060008201518160000160006101000a81548173ffffffffffffffffffffffffffffffffffffffff021916908373ffffffffffffffffffffffffffffffffffffffff16021790555060208201518160010160006101000a81548173ffffffffffffffffffffffffffffffffffffffff021916908373ffffffffffffffffffffffffffffffffffffffff16021790555060408201518160020160006101000a81548173ffffffffffffffffffffffffffffffffffffffff021916908373ffffffffffffffffffffffffffffffffffffffff1602179055506060820151816003015560808201518160040160006101000a8154816bffffffffffffffffffffffff02191690836bffffffffffffffffffffffff16021790555060a082015181600401600c6101000a81548160ff02191690831515021790555060c08201518160050160006101000a81548173ffffffffffffffffffffffffffffffffffffffff021916908373ffffffffffffffffffffffffffffffffffffffff16021790555060e08201518160050160146101000a8154816bffffffffffffffffffffffff02191690836bffffffffffffffffffffffff1602179055506101008201518160060155905050808a8c73ffffffffffffffffffffffffffffffffffffffff167f2c205f90c01160d42994a0eb521810056d94bb82a1fcb038d7179c4158a1f15b8a8d8d8989604051610e2c959493929190613846565b60405180910390a49a9950505050505050505050565b610e4a6123ea565b60008151905060005b81811015610f5057609e6000858152602001908152602001600020838281518110610e8157610e806133e8565b5b60200260200101519080600181540180825580915050600190039060005260206000209060020201600090919091909150600082015181600001556020820151816001015550506040518060400160405280848381518110610ee657610ee56133e8565b5b602002602001015160200151815260200185815250609f6000858481518110610f1257610f116133e8565b5b602002602001015160000151815260200190815260200160002060008201518160000155602082015181600101559050508080600101915050610e53565b50505050565b606060698054610f65906138c3565b80601f0160208091040260200160405190810160405280929190818152602001828054610f91906138c3565b8015610fde5780601f10610fb357610100808354040283529160200191610fde565b820191906000526020600020905b815481529060010190602001808311610fc157829003601f168201915b5050505050905090565b610ff06123ea565b610ffa6000612468565b565b6000609c60008373ffffffffffffffffffffffffffffffffffffffff1673ffffffffffffffffffffffffffffffffffffffff16815260200190815260200160002060009054906101000a900460ff169050919050565b61105a612633565b60a06000838152602001908152602001600020604051806101200160405290816000820160009054906101000a900473ffffffffffffffffffffffffffffffffffffffff1673ffffffffffffffffffffffffffffffffffffffff1673ffffffffffffffffffffffffffffffffffffffff1681526020016001820160009054906101000a900473ffffffffffffffffffffffffffffffffffffffff1673ffffffffffffffffffffffffffffffffffffffff1673ffffffffffffffffffffffffffffffffffffffff1681526020016002820160009054906101000a900473ffffffffffffffffffffffffffffffffffffffff1673ffffffffffffffffffffffffffffffffffffffff1673ffffffffffffffffffffffffffffffffffffffff168152602001600382015481526020016004820160009054906101000a90046bffffffffffffffffffffffff166bffffffffffffffffffffffff166bffffffffffffffffffffffff16815260200160048201600c9054906101000a900460ff161515151581526020016005820160009054906101000a900473ffffffffffffffffffffffffffffffffffffffff1673ffffffffffffffffffffffffffffffffffffffff1673ffffffffffffffffffffffffffffffffffffffff1681526020016005820160149054906101000a90046bffffffffffffffffffffffff166bffffffffffffffffffffffff166bffffffffffffffffffffffff1681526020016006820154815250509050919050565b61128b6123ea565b600073ffffffffffffffffffffffffffffffffffffffff168173ffffffffffffffffffffffffffffffffffffffff16036112fa576040517f08c379a00000000000000000000000000000000000000000000000000000000081526004016112f190613940565b60405180910390fd5b7f666565000000000000000000000000000000000000000000000000000000000082036113635780606760006101000a81548173ffffffffffffffffffffffffffffffffffffffff021916908373ffffffffffffffffffffffffffffffffffffffff1602179055505b7f61676772656761746f720000000000000000000000000000000000000000000082036113cc5780606860006101000a81548173ffffffffffffffffffffffffffffffffffffffff021916908373ffffffffffffffffffffffffffffffffffffffff1602179055505b5050565b6113d86126f5565b609f6000838152602001908152602001600020604051806040016040529081600082015481526020016001820154815250509050919050565b6000603360009054906101000a900473ffffffffffffffffffffffffffffffffffffffff16905090565b6114436123ea565b600073ffffffffffffffffffffffffffffffffffffffff168273ffffffffffffffffffffffffffffffffffffffff16036114b2576040517f08c379a00000000000000000000000000000000000000000000000000000000081526004016114a990613940565b60405180910390fd5b7f746f6b656e00000000000000000000000000000000000000000000000000000083036115315780609c60008473ffffffffffffffffffffffffffffffffffffffff1673ffffffffffffffffffffffffffffffffffffffff16815260200190815260200160002060006101000a81548160ff0219169083151502179055505b7f77686974656c697374000000000000000000000000000000000000000000000083036115b05780609d60008473ffffffffffffffffffffffffffffffffffffffff1673ffffffffffffffffffffffffffffffffffffffff16815260200190815260200160002060006101000a81548160ff0219169083151502179055505b7fe22cadcc5ddbc0a185e8920eaa6825bcc06dcd6b432988e7e9912caa59ace9308383836040516115e393929190613960565b60405180910390a1505050565b6000806000606660009054906101000a90046fffffffffffffffffffffffffffffffff16606660109054906101000a90046fffffffffffffffffffffffffffffffff16606554925092509250909192565b60008060019054906101000a900460ff161590508080156116725750600160008054906101000a900460ff1660ff16105b8061169f57506116813061252e565b15801561169e5750600160008054906101000a900460ff1660ff16145b5b6116de576040517f08c379a00000000000000000000000000000000000000000000000000000000081526004016116d590613a09565b60405180910390fd5b60016000806101000a81548160ff021916908360ff160217905550801561171b576001600060016101000a81548160ff0219169083151502179055505b6001609c60008473ffffffffffffffffffffffffffffffffffffffff1673ffffffffffffffffffffffffffffffffffffffff16815260200190815260200160002060006101000a81548160ff021916908315150217905550620186a0606581905550611388606660006101000a8154816fffffffffffffffffffffffffffffffff02191690836fffffffffffffffffffffffffffffffff1602179055506101f4606660106101000a8154816fffffffffffffffffffffffffffffffff02191690836fffffffffffffffffffffffffffffffff1602179055506117fb612551565b80156118545760008060016101000a81548160ff0219169083151502179055507f7f26b83ff96e1f2b6a682f133852f6798a09c465da95921460cefb3847402498600160405161184b9190613a71565b60405180910390a15b5050565b6118606123ea565b818160699182611871929190613c39565b507f6a6600b7242975868d8321b5e64d0c9f2fcc92eb1af72254a6357be77ee7dcef82826040516118a3929190613d36565b60405180910390a15050565b6000609d60008373ffffffffffffffffffffffffffffffffffffffff1673ffffffffffffffffffffffffffffffffffffffff16815260200190815260200160002060009054906101000a900460ff169050919050565b61190d6123ea565b8273ffffffffffffffffffffffffffffffffffffffff1663a9059cbb83836040518363ffffffff1660e01b815260040161194892919061356f565b6020604051808303816000875af1158015611967573d6000803e3d6000fd5b505050506040513d601f19601f8201168201806040525081019061198b91906135ad565b50505050565b6000606860009054906101000a900473ffffffffffffffffffffffffffffffffffffffff1673ffffffffffffffffffffffffffffffffffffffff163373ffffffffffffffffffffffffffffffffffffffff1614611a23576040517f08c379a0000000000000000000000000000000000000000000000000000000008152600401611a1a90613474565b60405180910390fd5b60a06000848152602001908152602001600020600401600c9054906101000a900460ff1615611a87576040517f08c379a0000000000000000000000000000000000000000000000000000000008152600401611a7e906134e0565b60405180910390fd5b600160a06000858152602001908152602001600020600401600c6101000a81548160ff021916908315150217905550600060a0600085815260200190815260200160002060050160146101000a8154816bffffffffffffffffffffffff02191690836bffffffffffffffffffffffff16021790555060a0600084815260200190815260200160002060010160009054906101000a900473ffffffffffffffffffffffffffffffffffffffff1673ffffffffffffffffffffffffffffffffffffffff1663a9059cbb60a0600086815260200190815260200160002060050160009054906101000a900473ffffffffffffffffffffffffffffffffffffffff1660a06000878152602001908152602001600020600601546040518363ffffffff1660e01b8152600401611bb992919061356f565b6020604051808303816000875af1158015611bd8573d6000803e3d6000fd5b505050506040513d601f19601f82011682018060405250810190611bfc91906135ad565b50827e7c875846b687732a7579c19bb1dade66cd14e9f4f809565e2b2b5e76c72b4f83604051611c2c9190612cbb565b60405180910390a26001905092915050565b6000606860009054906101000a900473ffffffffffffffffffffffffffffffffffffffff16905090565b611c706123ea565b600073ffffffffffffffffffffffffffffffffffffffff168173ffffffffffffffffffffffffffffffffffffffff1603611cdf576040517f08c379a0000000000000000000000000000000000000000000000000000000008152600401611cd690613dcc565b60405180910390fd5b611ce881612468565b50565b611cf36123ea565b81606660006101000a8154816fffffffffffffffffffffffffffffffff02191690836fffffffffffffffffffffffffffffffff16021790555080606660106101000a8154816fffffffffffffffffffffffffffffffff02191690836fffffffffffffffffffffffffffffffff1602179055507fe38926c5806b98a6fd00c5d791a36fbd196537fe48d11c45c9f1d0acd1ea74df8282604051611d96929190613dec565b60405180910390a15050565b611daa612715565b600060a0600086815260200190815260200160002060060154905060a060008681526020019081526020016000206003015481611de79190613e15565b9050606554846bffffffffffffffffffffffff1682611e06919061364c565b611e1091906136bd565b826020018181525050606554606660009054906101000a90046fffffffffffffffffffffffffffffffff166fffffffffffffffffffffffffffffffff168360200151611e5c919061364c565b611e6691906136bd565b82600001818152505081600001518260200151611e839190613e15565b826020018181525050606554606660109054906101000a90046fffffffffffffffffffffffffffffffff166fffffffffffffffffffffffffffffffff168360000151611ecf919061364c565b611ed991906136bd565b826040018181525050600082604001518360000151611ef89190613e15565b90508315611f29578083602001818151611f129190613e49565b915081815250506000836000018181525050611f34565b808360000181815250505b50509392505050565b600060a0600083815260200190815260200160002060020160009054906101000a900473ffffffffffffffffffffffffffffffffffffffff169050600060a0600084815260200190815260200160002060030154905060a0600084815260200190815260200160002060010160009054906101000a900473ffffffffffffffffffffffffffffffffffffffff1673ffffffffffffffffffffffffffffffffffffffff1663a9059cbb83836040518363ffffffff1660e01b815260040161200492919061356f565b6020604051808303816000875af1158015612023573d6000803e3d6000fd5b505050506040513d601f19601f8201168201806040525081019061204791906135ad565b50808273ffffffffffffffffffffffffffffffffffffffff167f96c76d5aec8a8c11a9c8e02768e3fa309347330d08961e0cf9fd43b349b684c260405160405180910390a3505050565b6000848490509050600081836120a791906136bd565b905060005b828110156121d2578473ffffffffffffffffffffffffffffffffffffffff1663a9059cbb8888848181106120e3576120e26133e8565b5b90506020020160208101906120f89190612f77565b846040518363ffffffff1660e01b815260040161211692919061356f565b6020604051808303816000875af1158015612135573d6000803e3d6000fd5b505050506040513d601f19601f8201168201806040525081019061215991906135ad565b508187878381811061216e5761216d6133e8565b5b90506020020160208101906121839190612f77565b73ffffffffffffffffffffffffffffffffffffffff167f61dceb70b8f97239c33a3f9c0d0efc6c8759c7e9a808f75dd42b3a0f213186c260405160405180910390a380806001019150506120ac565b50505050505050565b609c60008673ffffffffffffffffffffffffffffffffffffffff1673ffffffffffffffffffffffffffffffffffffffff16815260200190815260200160002060009054906101000a900460ff16612267576040517f08c379a000000000000000000000000000000000000000000000000000000000815260040161225e90613ec9565b60405180910390fd5b600084116122aa576040517f08c379a00000000000000000000000000000000000000000000000000000000081526004016122a190613f35565b60405180910390fd5b600073ffffffffffffffffffffffffffffffffffffffff168373ffffffffffffffffffffffffffffffffffffffff1603612319576040517f08c379a000000000000000000000000000000000000000000000000000000000815260040161231090613fa1565b60405180910390fd5b600073ffffffffffffffffffffffffffffffffffffffff168273ffffffffffffffffffffffffffffffffffffffff1603612388576040517f08c379a000000000000000000000000000000000000000000000000000000000815260040161237f90613fa1565b60405180910390fd5b6000801b609f600083815260200190815260200160002060000154036123e3576040517f08c379a00000000000000000000000000000000000000000000000000000000081526004016123da9061400d565b60405180910390fd5b5050505050565b6123f26125aa565b73ffffffffffffffffffffffffffffffffffffffff16612410611411565b73ffffffffffffffffffffffffffffffffffffffff1614612466576040517f08c379a000000000000000000000000000000000000000000000000000000000815260040161245d90614079565b60405180910390fd5b565b6000603360009054906101000a900473ffffffffffffffffffffffffffffffffffffffff16905081603360006101000a81548173ffffffffffffffffffffffffffffffffffffffff021916908373ffffffffffffffffffffffffffffffffffffffff1602179055508173ffffffffffffffffffffffffffffffffffffffff168173ffffffffffffffffffffffffffffffffffffffff167f8be0079c531659141344cd1fd0a4f28419497f9722a3daafe3b4186f6b6457e060405160405180910390a35050565b6000808273ffffffffffffffffffffffffffffffffffffffff163b119050919050565b600060019054906101000a900460ff166125a0576040517f08c379a00000000000000000000000000000000000000000000000000000000081526004016125979061410b565b60405180910390fd5b6125a86125b2565b565b600033905090565b600060019054906101000a900460ff16612601576040517f08c379a00000000000000000000000000000000000000000000000000000000081526004016125f89061410b565b60405180910390fd5b61261161260c6125aa565b612468565b565b604051806040016040528060008019168152602001600080191681525090565b604051806101200160405280600073ffffffffffffffffffffffffffffffffffffffff168152602001600073ffffffffffffffffffffffffffffffffffffffff168152602001600073ffffffffffffffffffffffffffffffffffffffff1681526020016000815260200160006bffffffffffffffffffffffff168152602001600015158152602001600073ffffffffffffffffffffffffffffffffffffffff16815260200160006bffffffffffffffffffffffff168152602001600081525090565b604051806040016040528060008019168152602001600080191681525090565b60405180606001604052806000815260200160008152602001600081525090565b6000604051905090565b600080fd5b600080fd5b6000819050919050565b61275d8161274a565b811461276857600080fd5b50565b60008135905061277a81612754565b92915050565b60006020828403121561279657612795612740565b5b60006127a48482850161276b565b91505092915050565b600081519050919050565b600082825260208201905092915050565b6000819050602082019050919050565b6127e28161274a565b82525050565b6040820160008201516127fe60008501826127d9565b50602082015161281160208501826127d9565b50505050565b600061282383836127e8565b60408301905092915050565b6000602082019050919050565b6000612847826127ad565b61285181856127b8565b935061285c836127c9565b8060005b8381101561288d5781516128748882612817565b975061287f8361282f565b925050600181019050612860565b5085935050505092915050565b600060208201905081810360008301526128b4818461283c565b905092915050565b600080fd5b600080fd5b600080fd5b60008083601f8401126128e1576128e06128bc565b5b8235905067ffffffffffffffff8111156128fe576128fd6128c1565b5b60208301915083602082028301111561291a576129196128c6565b5b9250929050565b600073ffffffffffffffffffffffffffffffffffffffff82169050919050565b600061294c82612921565b9050919050565b61295c81612941565b811461296757600080fd5b50565b60008135905061297981612953565b92915050565b600067ffffffffffffffff82169050919050565b61299c8161297f565b81146129a757600080fd5b50565b6000813590506129b981612993565b92915050565b60008115159050919050565b6129d4816129bf565b81146129df57600080fd5b50565b6000813590506129f1816129cb565b92915050565b60008060008060008060008060e0898b031215612a1757612a16612740565b5b6000612a258b828c0161276b565b9850506020612a368b828c0161276b565b9750506040612a478b828c0161276b565b965050606089013567ffffffffffffffff811115612a6857612a67612745565b5b612a748b828c016128cb565b95509550506080612a878b828c0161296a565b93505060a0612a988b828c016129aa565b92505060c0612aa98b828c016129e2565b9150509295985092959890939650565b612ac28161274a565b82525050565b612ad181612941565b82525050565b6000604082019050612aec6000830185612ab9565b612af96020830184612ac8565b9392505050565b6000819050919050565b612b1381612b00565b8114612b1e57600080fd5b50565b600081359050612b3081612b0a565b92915050565b60006bffffffffffffffffffffffff82169050919050565b612b5781612b36565b8114612b6257600080fd5b50565b600081359050612b7481612b4e565b92915050565b60008083601f840112612b9057612b8f6128bc565b5b8235905067ffffffffffffffff811115612bad57612bac6128c1565b5b602083019150836001820283011115612bc957612bc86128c6565b5b9250929050565b6000806000806000806000806000806101208b8d031215612bf457612bf3612740565b5b6000612c028d828e0161296a565b9a50506020612c138d828e01612b21565b9950506040612c248d828e0161276b565b9850506060612c358d828e0161276b565b9750506080612c468d828e01612b65565b96505060a0612c578d828e0161296a565b95505060c0612c688d828e01612b21565b94505060e0612c798d828e0161296a565b9350506101008b013567ffffffffffffffff811115612c9b57612c9a612745565b5b612ca78d828e01612b7a565b92509250509295989b9194979a5092959850565b6000602082019050612cd06000830184612ab9565b92915050565b6000601f19601f8301169050919050565b7f4e487b7100000000000000000000000000000000000000000000000000000000600052604160045260246000fd5b612d1f82612cd6565b810181811067ffffffffffffffff82111715612d3e57612d3d612ce7565b5b80604052505050565b6000612d51612736565b9050612d5d8282612d16565b919050565b600067ffffffffffffffff821115612d7d57612d7c612ce7565b5b602082029050602081019050919050565b600080fd5b600060408284031215612da957612da8612d8e565b5b612db36040612d47565b90506000612dc38482850161276b565b6000830152506020612dd78482850161276b565b60208301525092915050565b6000612df6612df184612d62565b612d47565b90508083825260208201905060408402830185811115612e1957612e186128c6565b5b835b81811015612e425780612e2e8882612d93565b845260208401935050604081019050612e1b565b5050509392505050565b600082601f830112612e6157612e606128bc565b5b8135612e71848260208601612de3565b91505092915050565b60008060408385031215612e9157612e90612740565b5b6000612e9f8582860161276b565b925050602083013567ffffffffffffffff811115612ec057612ebf612745565b5b612ecc85828601612e4c565b9150509250929050565b600081519050919050565b600082825260208201905092915050565b60005b83811015612f10578082015181840152602081019050612ef5565b60008484015250505050565b6000612f2782612ed6565b612f318185612ee1565b9350612f41818560208601612ef2565b612f4a81612cd6565b840191505092915050565b60006020820190508181036000830152612f6f8184612f1c565b905092915050565b600060208284031215612f8d57612f8c612740565b5b6000612f9b8482850161296a565b91505092915050565b612fad816129bf565b82525050565b6000602082019050612fc86000830184612fa4565b92915050565b612fd781612941565b82525050565b612fe681612b00565b82525050565b612ff581612b36565b82525050565b613004816129bf565b82525050565b610120820160008201516130216000850182612fce565b5060208201516130346020850182612fce565b5060408201516130476040850182612fce565b50606082015161305a6060850182612fdd565b50608082015161306d6080850182612fec565b5060a082015161308060a0850182612ffb565b5060c082015161309360c0850182612fce565b5060e08201516130a660e0850182612fec565b506101008201516130bb610100850182612fdd565b50505050565b6000610120820190506130d7600083018461300a565b92915050565b600080604083850312156130f4576130f3612740565b5b60006131028582860161276b565b92505060206131138582860161296a565b9150509250929050565b60408201600082015161313360008501826127d9565b50602082015161314660208501826127d9565b50505050565b6000604082019050613161600083018461311d565b92915050565b600060208201905061317c6000830184612ac8565b92915050565b60008060006060848603121561319b5761319a612740565b5b60006131a98682870161276b565b93505060206131ba8682870161296a565b92505060406131cb868287016129e2565b9150509250925092565b60006fffffffffffffffffffffffffffffffff82169050919050565b6131fa816131d5565b82525050565b61320981612b00565b82525050565b600060608201905061322460008301866131f1565b61323160208301856131f1565b61323e6040830184613200565b949350505050565b60008083601f84011261325c5761325b6128bc565b5b8235905067ffffffffffffffff811115613279576132786128c1565b5b602083019150836001820283011115613295576132946128c6565b5b9250929050565b600080602083850312156132b3576132b2612740565b5b600083013567ffffffffffffffff8111156132d1576132d0612745565b5b6132dd85828601613246565b92509250509250929050565b60008060006060848603121561330257613301612740565b5b60006133108682870161296a565b93505060206133218682870161296a565b925050604061333286828701612b21565b9150509250925092565b6000806040838503121561335357613352612740565b5b60006133618582860161276b565b92505060206133728582860161276b565b9150509250929050565b613385816131d5565b811461339057600080fd5b50565b6000813590506133a28161337c565b92915050565b600080604083850312156133bf576133be612740565b5b60006133cd85828601613393565b92505060206133de85828601613393565b9150509250929050565b7f4e487b7100000000000000000000000000000000000000000000000000000000600052603260045260246000fd5b600082825260208201905092915050565b7f4f6e6c7941676772656761746f72000000000000000000000000000000000000600082015250565b600061345e600e83613417565b915061346982613428565b602082019050919050565b6000602082019050818103600083015261348d81613451565b9050919050565b7f4f7264657246756c66696c6c6564000000000000000000000000000000000000600082015250565b60006134ca600e83613417565b91506134d582613494565b602082019050919050565b600060208201905081810360008301526134f9816134bd565b9050919050565b7f4e487b7100000000000000000000000000000000000000000000000000000000600052601160045260246000fd5b600061353a82612b36565b915061354583612b36565b925082820390506bffffffffffffffffffffffff81111561356957613568613500565b5b92915050565b60006040820190506135846000830185612ac8565b6135916020830184613200565b9392505050565b6000815190506135a7816129cb565b92915050565b6000602082840312156135c3576135c2612740565b5b60006135d184828501613598565b91505092915050565b6000819050919050565b60006135ff6135fa6135f58461297f565b6135da565b612b36565b9050919050565b61360f816135e4565b82525050565b600060608201905061362a6000830186612ab9565b6136376020830185612ab9565b6136446040830184613606565b949350505050565b600061365782612b00565b915061366283612b00565b925082820261367081612b00565b9150828204841483151761368757613686613500565b5b5092915050565b7f4e487b7100000000000000000000000000000000000000000000000000000000600052601260045260246000fd5b60006136c882612b00565b91506136d383612b00565b9250826136e3576136e261368e565b5b828204905092915050565b7f53656e646572466565546f6f4869676800000000000000000000000000000000600082015250565b6000613724601083613417565b915061372f826136ee565b602082019050919050565b6000602082019050818103600083015261375381613717565b9050919050565b600060608201905061376f6000830186612ac8565b61377c6020830185612ac8565b6137896040830184613200565b949350505050565b600061379c82612b00565b91507fffffffffffffffffffffffffffffffffffffffffffffffffffffffffffffffff82036137ce576137cd613500565b5b600182019050919050565b60006137f46137ef6137ea84612b36565b6135da565b612b00565b9050919050565b613804816137d9565b82525050565b82818337600083830152505050565b60006138258385613417565b935061383283858461380a565b61383b83612cd6565b840190509392505050565b600060808201905061385b60008301886137fb565b6138686020830187612ab9565b6138756040830186612ab9565b8181036060830152613888818486613819565b90509695505050505050565b7f4e487b7100000000000000000000000000000000000000000000000000000000600052602260045260246000fd5b600060028204905060018216806138db57607f821691505b6020821081036138ee576138ed613894565b5b50919050565b7f50617963726573743a207a65726f206164647265737300000000000000000000600082015250565b600061392a601683613417565b9150613935826138f4565b602082019050919050565b600060208201905081810360008301526139598161391d565b9050919050565b60006060820190506139756000830186612ab9565b6139826020830185612ac8565b61398f6040830184612fa4565b949350505050565b7f496e697469616c697a61626c653a20636f6e747261637420697320616c72656160008201527f647920696e697469616c697a6564000000000000000000000000000000000000602082015250565b60006139f3602e83613417565b91506139fe82613997565b604082019050919050565b60006020820190508181036000830152613a22816139e6565b9050919050565b6000819050919050565b600060ff82169050919050565b6000613a5b613a56613a5184613a29565b6135da565b613a33565b9050919050565b613a6b81613a40565b82525050565b6000602082019050613a866000830184613a62565b92915050565b600082905092915050565b60008190508160005260206000209050919050565b60006020601f8301049050919050565b600082821b905092915050565b600060088302613af97fffffffffffffffffffffffffffffffffffffffffffffffffffffffffffffffff82613abc565b613b038683613abc565b95508019841693508086168417925050509392505050565b6000613b36613b31613b2c84612b00565b6135da565b612b00565b9050919050565b6000819050919050565b613b5083613b1b565b613b64613b5c82613b3d565b848454613ac9565b825550505050565b600090565b613b79613b6c565b613b84818484613b47565b505050565b5b81811015613ba857613b9d600082613b71565b600181019050613b8a565b5050565b601f821115613bed57613bbe81613a97565b613bc784613aac565b81016020851015613bd6578190505b613bea613be285613aac565b830182613b89565b50505b505050565b600082821c905092915050565b6000613c1060001984600802613bf2565b1980831691505092915050565b6000613c298383613bff565b9150826002028217905092915050565b613c438383613a8c565b67ffffffffffffffff811115613c5c57613c5b612ce7565b5b613c6682546138c3565b613c71828285613bac565b6000601f831160018114613ca05760008415613c8e578287013590505b613c988582613c1d565b865550613d00565b601f198416613cae86613a97565b60005b82811015613cd657848901358255600182019150602085019450602081019050613cb1565b86831015613cf35784890135613cef601f891682613bff565b8355505b6001600288020188555050505b50505050505050565b6000613d158385612ee1565b9350613d2283858461380a565b613d2b83612cd6565b840190509392505050565b60006020820190508181036000830152613d51818486613d09565b90509392505050565b7f4f776e61626c653a206e6577206f776e657220697320746865207a65726f206160008201527f6464726573730000000000000000000000000000000000000000000000000000602082015250565b6000613db6602683613417565b9150613dc182613d5a565b604082019050919050565b60006020820190508181036000830152613de581613da9565b9050919050565b6000604082019050613e0160008301856131f1565b613e0e60208301846131f1565b9392505050565b6000613e2082612b00565b9150613e2b83612b00565b9250828203905081811115613e4357613e42613500565b5b92915050565b6000613e5482612b00565b9150613e5f83612b00565b9250828201905080821115613e7757613e76613500565b5b92915050565b7f546f6b656e4e6f74537570706f72746564000000000000000000000000000000600082015250565b6000613eb3601183613417565b9150613ebe82613e7d565b602082019050919050565b60006020820190508181036000830152613ee281613ea6565b9050919050565b7f416d6f756e7449735a65726f0000000000000000000000000000000000000000600082015250565b6000613f1f600c83613417565b9150613f2a82613ee9565b602082019050919050565b60006020820190508181036000830152613f4e81613f12565b9050919050565b7f5468726f775a65726f4164647265737300000000000000000000000000000000600082015250565b6000613f8b601083613417565b9150613f9682613f55565b602082019050919050565b60006020820190508181036000830152613fba81613f7e565b9050919050565b7f496e76616c6964496e737469747574696f6e436f646500000000000000000000600082015250565b6000613ff7601683613417565b915061400282613fc1565b602082019050919050565b6000602082019050818103600083015261402681613fea565b9050919050565b7f4f776e61626c653a2063616c6c6572206973206e6f7420746865206f776e6572600082015250565b6000614063602083613417565b915061406e8261402d565b602082019050919050565b6000602082019050818103600083015261409281614056565b9050919050565b7f496e697469616c697a61626c653a20636f6e7472616374206973206e6f74206960008201527f6e697469616c697a696e67000000000000000000000000000000000000000000602082015250565b60006140f5602b83613417565b915061410082614099565b604082019050919050565b60006020820190508181036000830152614124816140e8565b905091905056fea26469706673582212208b3d52873e081656e3e1c7f7db950185305cc50b26459ed56e4b7d69aa27310664736f6c63430008120033",
  "linkReferences": {},
  "deployedLinkReferences": {}
}