{
  "_format": "hh-sol-artifact-1",
  "contractName": "Paycrest",
  "sourceName": "contracts/Paycrest.sol",
  "abi": [
    {
      "inputs": [],
      "stateMutability": "nonpayable",
      "type": "constructor"
    },
    {
      "anonymous": false,
      "inputs": [
        {
          "indexed": false,
          "internalType": "uint8",
          "name": "version",
          "type": "uint8"
        }
      ],
      "name": "Initialized",
      "type": "event"
    },
    {
      "anonymous": false,
      "inputs": [
        {
          "indexed": true,
          "internalType": "address",
          "name": "token",
          "type": "address"
        },
        {
          "indexed": true,
          "internalType": "uint256",
          "name": "amount",
          "type": "uint256"
        },
        {
          "indexed": true,
          "internalType": "bytes32",
          "name": "orderId",
          "type": "bytes32"
        },
        {
          "indexed": false,
          "internalType": "uint256",
          "name": "rate",
          "type": "uint256"
        },
        {
          "indexed": false,
          "internalType": "bytes32",
          "name": "institutionCode",
          "type": "bytes32"
        },
        {
          "indexed": false,
          "internalType": "bytes32",
          "name": "label",
          "type": "bytes32"
        },
        {
          "indexed": false,
          "internalType": "string",
          "name": "messageHash",
          "type": "string"
        }
      ],
      "name": "OrderCreated",
      "type": "event"
    },
    {
      "anonymous": false,
      "inputs": [
        {
          "indexed": false,
          "internalType": "uint256",
          "name": "fee",
          "type": "uint256"
        },
        {
          "indexed": true,
          "internalType": "bytes32",
          "name": "orderId",
          "type": "bytes32"
        },
        {
          "indexed": false,
          "internalType": "bytes32",
          "name": "label",
          "type": "bytes32"
        }
      ],
      "name": "OrderRefunded",
      "type": "event"
    },
    {
      "anonymous": false,
      "inputs": [
        {
          "indexed": false,
          "internalType": "bytes32",
          "name": "splitOrderId",
          "type": "bytes32"
        },
        {
          "indexed": true,
          "internalType": "bytes32",
          "name": "orderId",
          "type": "bytes32"
        },
        {
          "indexed": false,
          "internalType": "bytes32",
          "name": "label",
          "type": "bytes32"
        },
        {
          "indexed": true,
          "internalType": "address",
          "name": "liquidityProvider",
          "type": "address"
        },
        {
          "indexed": false,
          "internalType": "uint96",
          "name": "settlePercent",
          "type": "uint96"
        }
      ],
      "name": "OrderSettled",
      "type": "event"
    },
    {
      "anonymous": false,
      "inputs": [
        {
          "indexed": true,
          "internalType": "address",
          "name": "previousOwner",
          "type": "address"
        },
        {
          "indexed": true,
          "internalType": "address",
          "name": "newOwner",
          "type": "address"
        }
      ],
      "name": "OwnershipTransferred",
      "type": "event"
    },
    {
      "anonymous": false,
      "inputs": [
        {
          "indexed": false,
          "internalType": "address",
          "name": "account",
          "type": "address"
        }
      ],
      "name": "Paused",
      "type": "event"
    },
    {
      "anonymous": false,
      "inputs": [
        {
          "indexed": false,
          "internalType": "address",
          "name": "treasuryAddress",
          "type": "address"
        }
      ],
      "name": "ProtocolAddressesUpdated",
      "type": "event"
    },
    {
      "anonymous": false,
      "inputs": [
        {
          "indexed": false,
          "internalType": "uint64",
          "name": "protocolFee",
          "type": "uint64"
        }
      ],
      "name": "ProtocolFeesUpdated",
      "type": "event"
    },
    {
      "anonymous": false,
      "inputs": [
        {
          "indexed": true,
          "internalType": "address",
          "name": "sender",
          "type": "address"
        },
        {
          "indexed": true,
          "internalType": "uint256",
          "name": "amount",
          "type": "uint256"
        }
      ],
      "name": "SenderFeeTransferred",
      "type": "event"
    },
    {
      "anonymous": false,
      "inputs": [
        {
          "indexed": false,
          "internalType": "bytes",
          "name": "aggregator",
          "type": "bytes"
        }
      ],
      "name": "SetAggregator",
      "type": "event"
    },
    {
      "anonymous": false,
      "inputs": [
        {
          "indexed": false,
          "internalType": "address",
          "name": "treasuryAddress",
          "type": "address"
        }
      ],
      "name": "SetFeeRecipient",
      "type": "event"
    },
    {
      "anonymous": false,
      "inputs": [
        {
          "indexed": false,
          "internalType": "bytes32",
          "name": "what",
          "type": "bytes32"
        },
        {
          "indexed": false,
          "internalType": "address",
          "name": "value",
          "type": "address"
        },
        {
          "indexed": false,
          "internalType": "bool",
          "name": "status",
          "type": "bool"
        }
      ],
      "name": "SettingManagerBool",
      "type": "event"
    },
    {
      "anonymous": false,
      "inputs": [
        {
          "indexed": false,
          "internalType": "address",
          "name": "account",
          "type": "address"
        }
      ],
      "name": "Unpaused",
      "type": "event"
    },
    {
      "inputs": [
        {
          "internalType": "address",
          "name": "_token",
          "type": "address"
        },
        {
          "internalType": "uint256",
          "name": "_amount",
          "type": "uint256"
        },
        {
          "internalType": "bytes32",
          "name": "_institutionCode",
          "type": "bytes32"
        },
        {
          "internalType": "bytes32",
          "name": "_label",
          "type": "bytes32"
        },
        {
          "internalType": "uint96",
          "name": "_rate",
          "type": "uint96"
        },
        {
          "internalType": "address",
          "name": "_senderFeeRecipient",
          "type": "address"
        },
        {
          "internalType": "uint256",
          "name": "_senderFee",
          "type": "uint256"
        },
        {
          "internalType": "address",
          "name": "_refundAddress",
          "type": "address"
        },
        {
          "internalType": "string",
          "name": "messageHash",
          "type": "string"
        }
      ],
      "name": "createOrder",
      "outputs": [
        {
          "internalType": "bytes32",
          "name": "orderId",
          "type": "bytes32"
        }
      ],
      "stateMutability": "nonpayable",
      "type": "function"
    },
    {
      "inputs": [],
      "name": "getAggregator",
      "outputs": [
        {
          "internalType": "bytes",
          "name": "",
          "type": "bytes"
        }
      ],
      "stateMutability": "view",
      "type": "function"
    },
    {
      "inputs": [],
      "name": "getFeeDetails",
      "outputs": [
        {
          "internalType": "uint64",
          "name": "",
          "type": "uint64"
        },
        {
          "internalType": "uint256",
          "name": "",
          "type": "uint256"
        }
      ],
      "stateMutability": "view",
      "type": "function"
    },
    {
      "inputs": [
        {
          "internalType": "bytes32",
          "name": "_orderId",
          "type": "bytes32"
        }
      ],
      "name": "getOrderInfo",
      "outputs": [
        {
          "components": [
            {
              "internalType": "address",
              "name": "seller",
              "type": "address"
            },
            {
              "internalType": "address",
              "name": "token",
              "type": "address"
            },
            {
              "internalType": "address",
              "name": "senderFeeRecipient",
              "type": "address"
            },
            {
              "internalType": "uint256",
              "name": "senderFee",
              "type": "uint256"
            },
            {
              "internalType": "uint96",
              "name": "rate",
              "type": "uint96"
            },
            {
              "internalType": "bool",
              "name": "isFulfilled",
              "type": "bool"
            },
            {
              "internalType": "address",
              "name": "refundAddress",
              "type": "address"
            },
            {
              "internalType": "uint96",
              "name": "currentBPS",
              "type": "uint96"
            },
            {
              "internalType": "uint256",
              "name": "amount",
              "type": "uint256"
            }
          ],
          "internalType": "struct IPaycrest.Order",
          "name": "",
          "type": "tuple"
        }
      ],
      "stateMutability": "view",
      "type": "function"
    },
    {
      "inputs": [
        {
          "internalType": "bytes32",
          "name": "_code",
          "type": "bytes32"
        }
      ],
      "name": "getSupportedInstitutionByCode",
      "outputs": [
        {
          "components": [
            {
              "internalType": "bytes32",
              "name": "name",
              "type": "bytes32"
            },
            {
              "internalType": "bytes32",
              "name": "currency",
              "type": "bytes32"
            }
          ],
          "internalType": "struct SharedStructs.InstitutionByCode",
          "name": "",
          "type": "tuple"
        }
      ],
      "stateMutability": "view",
      "type": "function"
    },
    {
      "inputs": [
        {
          "internalType": "bytes32",
          "name": "_currency",
          "type": "bytes32"
        }
      ],
      "name": "getSupportedInstitutions",
      "outputs": [
        {
          "components": [
            {
              "internalType": "bytes32",
              "name": "code",
              "type": "bytes32"
            },
            {
              "internalType": "bytes32",
              "name": "name",
              "type": "bytes32"
            }
          ],
          "internalType": "struct SharedStructs.Institution[]",
          "name": "",
          "type": "tuple[]"
        }
      ],
      "stateMutability": "view",
      "type": "function"
    },
    {
      "inputs": [],
      "name": "initialize",
      "outputs": [],
      "stateMutability": "nonpayable",
      "type": "function"
    },
    {
      "inputs": [
        {
          "internalType": "address",
          "name": "_token",
          "type": "address"
        }
      ],
      "name": "isTokenSupported",
      "outputs": [
        {
          "internalType": "bool",
          "name": "",
          "type": "bool"
        }
      ],
      "stateMutability": "view",
      "type": "function"
    },
    {
      "inputs": [],
      "name": "owner",
      "outputs": [
        {
          "internalType": "address",
          "name": "",
          "type": "address"
        }
      ],
      "stateMutability": "view",
      "type": "function"
    },
    {
      "inputs": [],
      "name": "pause",
      "outputs": [],
      "stateMutability": "nonpayable",
      "type": "function"
    },
    {
      "inputs": [],
      "name": "paused",
      "outputs": [
        {
          "internalType": "bool",
          "name": "",
          "type": "bool"
        }
      ],
      "stateMutability": "view",
      "type": "function"
    },
    {
      "inputs": [
        {
          "internalType": "uint256",
          "name": "_fee",
          "type": "uint256"
        },
        {
          "internalType": "bytes32",
          "name": "_orderId",
          "type": "bytes32"
        },
        {
          "internalType": "bytes32",
          "name": "_label",
          "type": "bytes32"
        }
      ],
      "name": "refund",
      "outputs": [
        {
          "internalType": "bool",
          "name": "",
          "type": "bool"
        }
      ],
      "stateMutability": "nonpayable",
      "type": "function"
    },
    {
      "inputs": [],
      "name": "renounceOwnership",
      "outputs": [],
      "stateMutability": "nonpayable",
      "type": "function"
    },
    {
      "inputs": [
        {
          "internalType": "bytes32",
          "name": "currency",
          "type": "bytes32"
        },
        {
          "components": [
            {
              "internalType": "bytes32",
              "name": "code",
              "type": "bytes32"
            },
            {
              "internalType": "bytes32",
              "name": "name",
              "type": "bytes32"
            }
          ],
          "internalType": "struct SharedStructs.Institution[]",
          "name": "institutions",
          "type": "tuple[]"
        }
      ],
      "name": "setSupportedInstitutions",
      "outputs": [],
      "stateMutability": "nonpayable",
      "type": "function"
    },
    {
      "inputs": [
        {
          "internalType": "bytes32",
          "name": "what",
          "type": "bytes32"
        },
        {
          "internalType": "address",
          "name": "value",
          "type": "address"
        },
        {
          "internalType": "bool",
          "name": "status",
          "type": "bool"
        }
      ],
      "name": "settingManagerBool",
      "outputs": [],
      "stateMutability": "nonpayable",
      "type": "function"
    },
    {
      "inputs": [
        {
          "internalType": "bytes32",
          "name": "_splitOrderId",
          "type": "bytes32"
        },
        {
          "internalType": "bytes32",
          "name": "_orderId",
          "type": "bytes32"
        },
        {
          "internalType": "bytes32",
          "name": "_label",
          "type": "bytes32"
        },
        {
          "internalType": "address",
          "name": "_liquidityProvider",
          "type": "address"
        },
        {
          "internalType": "uint64",
          "name": "_settlePercent",
          "type": "uint64"
        },
        {
          "internalType": "bool",
          "name": "_isPartner",
          "type": "bool"
        }
      ],
      "name": "settle",
      "outputs": [
        {
          "internalType": "bytes32",
          "name": "",
          "type": "bytes32"
        },
        {
          "internalType": "address",
          "name": "",
          "type": "address"
        }
      ],
      "stateMutability": "nonpayable",
      "type": "function"
    },
    {
      "inputs": [
        {
          "internalType": "address",
          "name": "newOwner",
          "type": "address"
        }
      ],
      "name": "transferOwnership",
      "outputs": [],
      "stateMutability": "nonpayable",
      "type": "function"
    },
    {
      "inputs": [],
      "name": "unpause",
      "outputs": [],
      "stateMutability": "nonpayable",
      "type": "function"
    },
    {
      "inputs": [
        {
          "internalType": "bytes32",
          "name": "what",
          "type": "bytes32"
        },
        {
          "internalType": "address",
          "name": "value",
          "type": "address"
        }
      ],
      "name": "updateProtocolAddresses",
      "outputs": [],
      "stateMutability": "nonpayable",
      "type": "function"
    },
    {
      "inputs": [
        {
          "internalType": "bytes",
          "name": "aggregator",
          "type": "bytes"
        }
      ],
      "name": "updateProtocolAggregator",
      "outputs": [],
      "stateMutability": "nonpayable",
      "type": "function"
    },
    {
      "inputs": [
        {
          "internalType": "uint64",
          "name": "_protocolFeePercent",
          "type": "uint64"
        }
      ],
      "name": "updateProtocolFees",
      "outputs": [],
      "stateMutability": "nonpayable",
      "type": "function"
    }
  ],
  "bytecode": "0x60806040523480156200001157600080fd5b50620000226200002860201b60201c565b620001d2565b600060019054906101000a900460ff16156200007b576040517f08c379a0000000000000000000000000000000000000000000000000000000008152600401620000729062000175565b60405180910390fd5b60ff801660008054906101000a900460ff1660ff1614620000ec5760ff6000806101000a81548160ff021916908360ff1602179055507f7f26b83ff96e1f2b6a682f133852f6798a09c465da95921460cefb384740249860ff604051620000e39190620001b5565b60405180910390a15b565b600082825260208201905092915050565b7f496e697469616c697a61626c653a20636f6e747261637420697320696e69746960008201527f616c697a696e6700000000000000000000000000000000000000000000000000602082015250565b60006200015d602783620000ee565b91506200016a82620000ff565b604082019050919050565b6000602082019050818103600083015262000190816200014e565b9050919050565b600060ff82169050919050565b620001af8162000197565b82525050565b6000602082019050620001cc6000830184620001a4565b92915050565b6140c080620001e26000396000f3fe608060405234801561001057600080fd5b50600436106101375760003560e01c806379a0effb116100b857806399e3c0b41161007c57806399e3c0b414610303578063b810c6361461031f578063c22801031461033e578063cb79455b1461036e578063d28a8d321461038a578063f2fde38b146103ba57610137565b806379a0effb146102995780638129fc1c146102b55780638456cb59146102bf57806384630736146102c95780638da5cb5b146102e557610137565b80635c975abb116100ff5780635c975abb146101e05780635fe44cac146101fe578063715018a61461022f57806375151b6314610239578063768c6ec01461026957610137565b8063026213381461013c5780632654ec7e1461016c578063322008821461019c5780633ad59dbc146101b85780633f4ba83a146101d6575b600080fd5b61015660048036038101906101519190612648565b6103d6565b6040516101639190612762565b60405180910390f35b610186600480360381019061018191906128c1565b610514565b60405161019391906129bb565b60405180910390f35b6101b660048036038101906101b19190612b7a565b6109b0565b005b6101c0610ac4565b6040516101cd9190612c55565b60405180910390f35b6101de610b56565b005b6101e8610b68565b6040516101f59190612c92565b60405180910390f35b61021860048036038101906102139190612d19565b610b7f565b604051610226929190612db5565b60405180910390f35b610237610f78565b005b610253600480360381019061024e9190612dde565b610f8c565b6040516102609190612c92565b60405180910390f35b610283600480360381019061027e9190612648565b610fe2565b6040516102909190612efe565b60405180910390f35b6102b360048036038101906102ae9190612f1a565b611213565b005b6102bd6113b9565b005b6102c7611509565b005b6102e360048036038101906102de9190612f5a565b61151b565b005b6102ed611586565b6040516102fa9190612f87565b60405180910390f35b61031d60048036038101906103189190612fa2565b6115b0565b005b6103276116e6565b604051610335929190613013565b60405180910390f35b61035860048036038101906103539190612648565b61170b565b604051610365919061306b565b60405180910390f35b610388600480360381019061038391906130dc565b61174c565b005b6103a4600480360381019061039f9190613129565b6117a3565b6040516103b19190612c92565b60405180910390f35b6103d460048036038101906103cf9190612dde565b611b3c565b005b60606000609c6000848152602001908152602001600020805480602002602001604051908101604052809291908181526020016000905b828210156104535783829060005260206000209060020201604051806040016040529081600082015481526020016001820154815250508152602001906001019061040d565b50505050905060008151905060008167ffffffffffffffff81111561047b5761047a6129e7565b5b6040519080825280602002602001820160405280156104b457816020015b6104a16124e2565b8152602001906001900390816104995790505b50905060005b82811015610508578381815181106104d5576104d461317c565b5b60200260200101518282815181106104f0576104ef61317c565b5b602002602001018190525080806001019150506104ba565b50809350505050919050565b600061051e611bbf565b61052c8b8b8689898e611c09565b60008383905011610572576040517f08c379a000000000000000000000000000000000000000000000000000000000815260040161056990613208565b60405180910390fd5b8a73ffffffffffffffffffffffffffffffffffffffff166323b872dd33308d6040518463ffffffff1660e01b81526004016105af93929190613228565b6020604051808303816000875af11580156105ce573d6000803e3d6000fd5b505050506040513d601f19601f820116820180604052508101906105f29190613274565b5060d160003373ffffffffffffffffffffffffffffffffffffffff1673ffffffffffffffffffffffffffffffffffffffff1681526020019081526020016000206000815480929190610643906132d0565b91905055503360d160003373ffffffffffffffffffffffffffffffffffffffff1673ffffffffffffffffffffffffffffffffffffffff1681526020019081526020016000205460405160200161069a929190613318565b6040516020818303038152906040528051906020012090506040518061012001604052803373ffffffffffffffffffffffffffffffffffffffff1681526020018c73ffffffffffffffffffffffffffffffffffffffff1681526020018773ffffffffffffffffffffffffffffffffffffffff168152602001868152602001886bffffffffffffffffffffffff1681526020016000151581526020018573ffffffffffffffffffffffffffffffffffffffff16815260200160655467ffffffffffffffff166bffffffffffffffffffffffff1681526020018b81525060d0600083815260200190815260200160002060008201518160000160006101000a81548173ffffffffffffffffffffffffffffffffffffffff021916908373ffffffffffffffffffffffffffffffffffffffff16021790555060208201518160010160006101000a81548173ffffffffffffffffffffffffffffffffffffffff021916908373ffffffffffffffffffffffffffffffffffffffff16021790555060408201518160020160006101000a81548173ffffffffffffffffffffffffffffffffffffffff021916908373ffffffffffffffffffffffffffffffffffffffff1602179055506060820151816003015560808201518160040160006101000a8154816bffffffffffffffffffffffff02191690836bffffffffffffffffffffffff16021790555060a082015181600401600c6101000a81548160ff02191690831515021790555060c08201518160050160006101000a81548173ffffffffffffffffffffffffffffffffffffffff021916908373ffffffffffffffffffffffffffffffffffffffff16021790555060e08201518160050160146101000a8154816bffffffffffffffffffffffff02191690836bffffffffffffffffffffffff1602179055506101008201518160060155905050808a8c73ffffffffffffffffffffffffffffffffffffffff167f63a5ce0c7dda94594842d8817c370279b2c0537f95b6cb628f022d92c8ebc4448a8d8d898960405161099a9594939291906133b8565b60405180910390a49a9950505050505050505050565b6109b8611e80565b60008151905060005b81811015610abe57609c60008581526020019081526020016000208382815181106109ef576109ee61317c565b5b60200260200101519080600181540180825580915050600190039060005260206000209060020201600090919091909150600082015181600001556020820151816001015550506040518060400160405280848381518110610a5457610a5361317c565b5b602002602001015160200151815260200185815250609d6000858481518110610a8057610a7f61317c565b5b6020026020010151600001518152602001908152602001600020600082015181600001556020820151816001015590505080806001019150506109c1565b50505050565b606060688054610ad390613435565b80601f0160208091040260200160405190810160405280929190818152602001828054610aff90613435565b8015610b4c5780601f10610b2157610100808354040283529160200191610b4c565b820191906000526020600020905b815481529060010190602001808311610b2f57829003601f168201915b5050505050905090565b610b5e611e80565b610b66611efe565b565b6000609e60009054906101000a900460ff16905090565b600080606760009054906101000a900473ffffffffffffffffffffffffffffffffffffffff1673ffffffffffffffffffffffffffffffffffffffff163373ffffffffffffffffffffffffffffffffffffffff1614610c12576040517f08c379a0000000000000000000000000000000000000000000000000000000008152600401610c09906134b2565b60405180910390fd5b60d06000888152602001908152602001600020600401600c9054906101000a900460ff1615610c76576040517f08c379a0000000000000000000000000000000000000000000000000000000008152600401610c6d9061351e565b60405180910390fd5b600060d0600089815260200190815260200160002060010160009054906101000a900473ffffffffffffffffffffffffffffffffffffffff1690508467ffffffffffffffff1660d060008a815260200190815260200160002060050160148282829054906101000a90046bffffffffffffffffffffffff16610cf8919061353e565b92506101000a8154816bffffffffffffffffffffffff02191690836bffffffffffffffffffffffff1602179055506000610d3d898767ffffffffffffffff1687611f61565b9050600060d060008b815260200190815260200160002060050160149054906101000a90046bffffffffffffffffffffffff166bffffffffffffffffffffffff1603610ddc57600160d060008b8152602001908152602001600020600401600c6101000a81548160ff021916908315150217905550600060d060008b8152602001908152602001600020600301541115610ddb57610dda89612072565b5b5b600081600001511115610e8f578173ffffffffffffffffffffffffffffffffffffffff1663a9059cbb606660089054906101000a900473ffffffffffffffffffffffffffffffffffffffff1683600001516040518363ffffffff1660e01b8152600401610e4a929190613318565b6020604051808303816000875af1158015610e69573d6000803e3d6000fd5b505050506040513d601f19601f82011682018060405250810190610e8d9190613274565b505b8173ffffffffffffffffffffffffffffffffffffffff1663a9059cbb8883602001516040518363ffffffff1660e01b8152600401610ece929190613318565b6020604051808303816000875af1158015610eed573d6000803e3d6000fd5b505050506040513d601f19601f82011682018060405250810190610f119190613274565b508673ffffffffffffffffffffffffffffffffffffffff16897fa9ec2b6676d3ea3e8da117193c71b1b85fcdbc72f077a624f950241eb38f13c28c8b8a604051610f5d939291906135af565b60405180910390a38882935093505050965096945050505050565b610f80611e80565b610f8a60006121c6565b565b6000609b60008373ffffffffffffffffffffffffffffffffffffffff1673ffffffffffffffffffffffffffffffffffffffff16815260200190815260200160002060009054906101000a900460ff169050919050565b610fea612502565b60d06000838152602001908152602001600020604051806101200160405290816000820160009054906101000a900473ffffffffffffffffffffffffffffffffffffffff1673ffffffffffffffffffffffffffffffffffffffff1673ffffffffffffffffffffffffffffffffffffffff1681526020016001820160009054906101000a900473ffffffffffffffffffffffffffffffffffffffff1673ffffffffffffffffffffffffffffffffffffffff1673ffffffffffffffffffffffffffffffffffffffff1681526020016002820160009054906101000a900473ffffffffffffffffffffffffffffffffffffffff1673ffffffffffffffffffffffffffffffffffffffff1673ffffffffffffffffffffffffffffffffffffffff168152602001600382015481526020016004820160009054906101000a90046bffffffffffffffffffffffff166bffffffffffffffffffffffff166bffffffffffffffffffffffff16815260200160048201600c9054906101000a900460ff161515151581526020016005820160009054906101000a900473ffffffffffffffffffffffffffffffffffffffff1673ffffffffffffffffffffffffffffffffffffffff1673ffffffffffffffffffffffffffffffffffffffff1681526020016005820160149054906101000a90046bffffffffffffffffffffffff166bffffffffffffffffffffffff166bffffffffffffffffffffffff1681526020016006820154815250509050919050565b61121b611e80565b600073ffffffffffffffffffffffffffffffffffffffff168173ffffffffffffffffffffffffffffffffffffffff160361128a576040517f08c379a000000000000000000000000000000000000000000000000000000000815260040161128190613632565b60405180910390fd5b7f747265617375727900000000000000000000000000000000000000000000000082036112f35780606660086101000a81548173ffffffffffffffffffffffffffffffffffffffff021916908373ffffffffffffffffffffffffffffffffffffffff1602179055505b7f61676772656761746f7200000000000000000000000000000000000000000000820361135c5780606760006101000a81548173ffffffffffffffffffffffffffffffffffffffff021916908373ffffffffffffffffffffffffffffffffffffffff1602179055505b7fd8ef77a7d69a6b79f131ecd9aa37060ba0853bbd37cb175ec1abd05738ce27cb606660089054906101000a900473ffffffffffffffffffffffffffffffffffffffff166040516113ad9190612f87565b60405180910390a15050565b60008060019054906101000a900460ff161590508080156113ea5750600160008054906101000a900460ff1660ff16105b8061141757506113f93061228c565b1580156114165750600160008054906101000a900460ff1660ff16145b5b611456576040517f08c379a000000000000000000000000000000000000000000000000000000000815260040161144d906136c4565b60405180910390fd5b60016000806101000a81548160ff021916908360ff1602179055508015611493576001600060016101000a81548160ff0219169083151502179055505b620186a06065819055506114a56122af565b6114ad612308565b80156115065760008060016101000a81548160ff0219169083151502179055507f7f26b83ff96e1f2b6a682f133852f6798a09c465da95921460cefb384740249860016040516114fd919061372c565b60405180910390a15b50565b611511611e80565b611519612361565b565b611523611e80565b80606660006101000a81548167ffffffffffffffff021916908367ffffffffffffffff1602179055507fb94068a4bd2571acee6ac79acc9dcdcf10c31425d35f09e88f154ec520e264468160405161157b9190613747565b60405180910390a150565b6000603360009054906101000a900473ffffffffffffffffffffffffffffffffffffffff16905090565b6115b8611e80565b600073ffffffffffffffffffffffffffffffffffffffff168273ffffffffffffffffffffffffffffffffffffffff1603611627576040517f08c379a000000000000000000000000000000000000000000000000000000000815260040161161e90613632565b60405180910390fd5b7f746f6b656e00000000000000000000000000000000000000000000000000000083036116a65780609b60008473ffffffffffffffffffffffffffffffffffffffff1673ffffffffffffffffffffffffffffffffffffffff16815260200190815260200160002060006101000a81548160ff0219169083151502179055505b7fe22cadcc5ddbc0a185e8920eaa6825bcc06dcd6b432988e7e9912caa59ace9308383836040516116d993929190613762565b60405180910390a1505050565b600080606660009054906101000a900467ffffffffffffffff16606554915091509091565b6117136125c4565b609d6000838152602001908152602001600020604051806040016040529081600082015481526020016001820154815250509050919050565b611754611e80565b818160689182611765929190613946565b507f6a6600b7242975868d8321b5e64d0c9f2fcc92eb1af72254a6357be77ee7dcef8282604051611797929190613a43565b60405180910390a15050565b6000606760009054906101000a900473ffffffffffffffffffffffffffffffffffffffff1673ffffffffffffffffffffffffffffffffffffffff163373ffffffffffffffffffffffffffffffffffffffff1614611835576040517f08c379a000000000000000000000000000000000000000000000000000000000815260040161182c906134b2565b60405180910390fd5b60d06000848152602001908152602001600020600401600c9054906101000a900460ff1615611899576040517f08c379a00000000000000000000000000000000000000000000000000000000081526004016118909061351e565b60405180910390fd5b60008460d06000868152602001908152602001600020600601546118bd9190613a67565b905060d0600085815260200190815260200160002060010160009054906101000a900473ffffffffffffffffffffffffffffffffffffffff1673ffffffffffffffffffffffffffffffffffffffff1663a9059cbb606660089054906101000a900473ffffffffffffffffffffffffffffffffffffffff16876040518363ffffffff1660e01b8152600401611952929190613318565b6020604051808303816000875af1158015611971573d6000803e3d6000fd5b505050506040513d601f19601f820116820180604052508101906119959190613274565b50600160d06000868152602001908152602001600020600401600c6101000a81548160ff021916908315150217905550600060d0600086815260200190815260200160002060050160146101000a8154816bffffffffffffffffffffffff02191690836bffffffffffffffffffffffff16021790555060d0600085815260200190815260200160002060010160009054906101000a900473ffffffffffffffffffffffffffffffffffffffff1673ffffffffffffffffffffffffffffffffffffffff1663a9059cbb60d0600087815260200190815260200160002060050160009054906101000a900473ffffffffffffffffffffffffffffffffffffffff16836040518363ffffffff1660e01b8152600401611ab2929190613318565b6020604051808303816000875af1158015611ad1573d6000803e3d6000fd5b505050506040513d601f19601f82011682018060405250810190611af59190613274565b50837f79252c381c5280f78c77f378791e42b506843a48916430480eab95a898cdae9f8685604051611b28929190613a9b565b60405180910390a260019150509392505050565b611b44611e80565b600073ffffffffffffffffffffffffffffffffffffffff168173ffffffffffffffffffffffffffffffffffffffff1603611bb3576040517f08c379a0000000000000000000000000000000000000000000000000000000008152600401611baa90613b36565b60405180910390fd5b611bbc816121c6565b50565b611bc7610b68565b15611c07576040517f08c379a0000000000000000000000000000000000000000000000000000000008152600401611bfe90613ba2565b60405180910390fd5b565b609b60008773ffffffffffffffffffffffffffffffffffffffff1673ffffffffffffffffffffffffffffffffffffffff16815260200190815260200160002060009054906101000a900460ff16611c95576040517f08c379a0000000000000000000000000000000000000000000000000000000008152600401611c8c90613c0e565b60405180910390fd5b60008511611cd8576040517f08c379a0000000000000000000000000000000000000000000000000000000008152600401611ccf90613c7a565b60405180910390fd5b600073ffffffffffffffffffffffffffffffffffffffff168473ffffffffffffffffffffffffffffffffffffffff1603611d47576040517f08c379a0000000000000000000000000000000000000000000000000000000008152600401611d3e90613ce6565b60405180910390fd5b6000801b609d60008381526020019081526020016000206000015403611da2576040517f08c379a0000000000000000000000000000000000000000000000000000000008152600401611d9990613d52565b60405180910390fd5b6000821115611e1b57600073ffffffffffffffffffffffffffffffffffffffff168373ffffffffffffffffffffffffffffffffffffffff1603611e1a576040517f08c379a0000000000000000000000000000000000000000000000000000000008152600401611e1190613dbe565b60405180910390fd5b5b6065546101f486611e2c9190613dde565b611e369190613e4f565b821115611e78576040517f08c379a0000000000000000000000000000000000000000000000000000000008152600401611e6f90613ecc565b60405180910390fd5b505050505050565b611e886123c4565b73ffffffffffffffffffffffffffffffffffffffff16611ea6611586565b73ffffffffffffffffffffffffffffffffffffffff1614611efc576040517f08c379a0000000000000000000000000000000000000000000000000000000008152600401611ef390613f38565b60405180910390fd5b565b611f066123cc565b6000609e60006101000a81548160ff0219169083151502179055507f5db9ee0a495bf2e6ff9c91a7834c1ba4fdd244a5e8aa4e537bd38aeae4b073aa611f4a6123c4565b604051611f579190612f87565b60405180910390a1565b611f696125e4565b600060d0600086815260200190815260200160002060060154905060d060008681526020019081526020016000206003015481611fa69190613a67565b9050606554846bffffffffffffffffffffffff1682611fc59190613dde565b611fcf9190613e4f565b826020018181525050606554606660009054906101000a900467ffffffffffffffff1667ffffffffffffffff16836020015161200b9190613dde565b6120159190613e4f565b826000018181525050816000015182602001516120329190613a67565b826020018181525050821561206a578160000151826020018181516120579190613f58565b9150818152505060008260000181815250505b509392505050565b600060d0600083815260200190815260200160002060020160009054906101000a900473ffffffffffffffffffffffffffffffffffffffff169050600060d0600084815260200190815260200160002060030154905060d0600084815260200190815260200160002060010160009054906101000a900473ffffffffffffffffffffffffffffffffffffffff1673ffffffffffffffffffffffffffffffffffffffff1663a9059cbb83836040518363ffffffff1660e01b8152600401612139929190613318565b6020604051808303816000875af1158015612158573d6000803e3d6000fd5b505050506040513d601f19601f8201168201806040525081019061217c9190613274565b50808273ffffffffffffffffffffffffffffffffffffffff167f44f6938ca4a10313aabb76f874cced61e35710a734a126e4afb34461bf8c250160405160405180910390a3505050565b6000603360009054906101000a900473ffffffffffffffffffffffffffffffffffffffff16905081603360006101000a81548173ffffffffffffffffffffffffffffffffffffffff021916908373ffffffffffffffffffffffffffffffffffffffff1602179055508173ffffffffffffffffffffffffffffffffffffffff168173ffffffffffffffffffffffffffffffffffffffff167f8be0079c531659141344cd1fd0a4f28419497f9722a3daafe3b4186f6b6457e060405160405180910390a35050565b6000808273ffffffffffffffffffffffffffffffffffffffff163b119050919050565b600060019054906101000a900460ff166122fe576040517f08c379a00000000000000000000000000000000000000000000000000000000081526004016122f590613ffe565b60405180910390fd5b612306612415565b565b600060019054906101000a900460ff16612357576040517f08c379a000000000000000000000000000000000000000000000000000000000815260040161234e90613ffe565b60405180910390fd5b61235f612476565b565b612369611bbf565b6001609e60006101000a81548160ff0219169083151502179055507f62e78cea01bee320cd4e420270b5ea74000d11b0c9f74754ebdbfc544b05a2586123ad6123c4565b6040516123ba9190612f87565b60405180910390a1565b600033905090565b6123d4610b68565b612413576040517f08c379a000000000000000000000000000000000000000000000000000000000815260040161240a9061406a565b60405180910390fd5b565b600060019054906101000a900460ff16612464576040517f08c379a000000000000000000000000000000000000000000000000000000000815260040161245b90613ffe565b60405180910390fd5b61247461246f6123c4565b6121c6565b565b600060019054906101000a900460ff166124c5576040517f08c379a00000000000000000000000000000000000000000000000000000000081526004016124bc90613ffe565b60405180910390fd5b6000609e60006101000a81548160ff021916908315150217905550565b604051806040016040528060008019168152602001600080191681525090565b604051806101200160405280600073ffffffffffffffffffffffffffffffffffffffff168152602001600073ffffffffffffffffffffffffffffffffffffffff168152602001600073ffffffffffffffffffffffffffffffffffffffff1681526020016000815260200160006bffffffffffffffffffffffff168152602001600015158152602001600073ffffffffffffffffffffffffffffffffffffffff16815260200160006bffffffffffffffffffffffff168152602001600081525090565b604051806040016040528060008019168152602001600080191681525090565b604051806040016040528060008152602001600081525090565b6000604051905090565b600080fd5b600080fd5b6000819050919050565b61262581612612565b811461263057600080fd5b50565b6000813590506126428161261c565b92915050565b60006020828403121561265e5761265d612608565b5b600061266c84828501612633565b91505092915050565b600081519050919050565b600082825260208201905092915050565b6000819050602082019050919050565b6126aa81612612565b82525050565b6040820160008201516126c660008501826126a1565b5060208201516126d960208501826126a1565b50505050565b60006126eb83836126b0565b60408301905092915050565b6000602082019050919050565b600061270f82612675565b6127198185612680565b935061272483612691565b8060005b8381101561275557815161273c88826126df565b9750612747836126f7565b925050600181019050612728565b5085935050505092915050565b6000602082019050818103600083015261277c8184612704565b905092915050565b600073ffffffffffffffffffffffffffffffffffffffff82169050919050565b60006127af82612784565b9050919050565b6127bf816127a4565b81146127ca57600080fd5b50565b6000813590506127dc816127b6565b92915050565b6000819050919050565b6127f5816127e2565b811461280057600080fd5b50565b600081359050612812816127ec565b92915050565b60006bffffffffffffffffffffffff82169050919050565b61283981612818565b811461284457600080fd5b50565b60008135905061285681612830565b92915050565b600080fd5b600080fd5b600080fd5b60008083601f8401126128815761288061285c565b5b8235905067ffffffffffffffff81111561289e5761289d612861565b5b6020830191508360018202830111156128ba576128b9612866565b5b9250929050565b6000806000806000806000806000806101208b8d0312156128e5576128e4612608565b5b60006128f38d828e016127cd565b9a505060206129048d828e01612803565b99505060406129158d828e01612633565b98505060606129268d828e01612633565b97505060806129378d828e01612847565b96505060a06129488d828e016127cd565b95505060c06129598d828e01612803565b94505060e061296a8d828e016127cd565b9350506101008b013567ffffffffffffffff81111561298c5761298b61260d565b5b6129988d828e0161286b565b92509250509295989b9194979a5092959850565b6129b581612612565b82525050565b60006020820190506129d060008301846129ac565b92915050565b6000601f19601f8301169050919050565b7f4e487b7100000000000000000000000000000000000000000000000000000000600052604160045260246000fd5b612a1f826129d6565b810181811067ffffffffffffffff82111715612a3e57612a3d6129e7565b5b80604052505050565b6000612a516125fe565b9050612a5d8282612a16565b919050565b600067ffffffffffffffff821115612a7d57612a7c6129e7565b5b602082029050602081019050919050565b600080fd5b600060408284031215612aa957612aa8612a8e565b5b612ab36040612a47565b90506000612ac384828501612633565b6000830152506020612ad784828501612633565b60208301525092915050565b6000612af6612af184612a62565b612a47565b90508083825260208201905060408402830185811115612b1957612b18612866565b5b835b81811015612b425780612b2e8882612a93565b845260208401935050604081019050612b1b565b5050509392505050565b600082601f830112612b6157612b6061285c565b5b8135612b71848260208601612ae3565b91505092915050565b60008060408385031215612b9157612b90612608565b5b6000612b9f85828601612633565b925050602083013567ffffffffffffffff811115612bc057612bbf61260d565b5b612bcc85828601612b4c565b9150509250929050565b600081519050919050565b600082825260208201905092915050565b60005b83811015612c10578082015181840152602081019050612bf5565b60008484015250505050565b6000612c2782612bd6565b612c318185612be1565b9350612c41818560208601612bf2565b612c4a816129d6565b840191505092915050565b60006020820190508181036000830152612c6f8184612c1c565b905092915050565b60008115159050919050565b612c8c81612c77565b82525050565b6000602082019050612ca76000830184612c83565b92915050565b600067ffffffffffffffff82169050919050565b612cca81612cad565b8114612cd557600080fd5b50565b600081359050612ce781612cc1565b92915050565b612cf681612c77565b8114612d0157600080fd5b50565b600081359050612d1381612ced565b92915050565b60008060008060008060c08789031215612d3657612d35612608565b5b6000612d4489828a01612633565b9650506020612d5589828a01612633565b9550506040612d6689828a01612633565b9450506060612d7789828a016127cd565b9350506080612d8889828a01612cd8565b92505060a0612d9989828a01612d04565b9150509295509295509295565b612daf816127a4565b82525050565b6000604082019050612dca60008301856129ac565b612dd76020830184612da6565b9392505050565b600060208284031215612df457612df3612608565b5b6000612e02848285016127cd565b91505092915050565b612e14816127a4565b82525050565b612e23816127e2565b82525050565b612e3281612818565b82525050565b612e4181612c77565b82525050565b61012082016000820151612e5e6000850182612e0b565b506020820151612e716020850182612e0b565b506040820151612e846040850182612e0b565b506060820151612e976060850182612e1a565b506080820151612eaa6080850182612e29565b5060a0820151612ebd60a0850182612e38565b5060c0820151612ed060c0850182612e0b565b5060e0820151612ee360e0850182612e29565b50610100820151612ef8610100850182612e1a565b50505050565b600061012082019050612f146000830184612e47565b92915050565b60008060408385031215612f3157612f30612608565b5b6000612f3f85828601612633565b9250506020612f50858286016127cd565b9150509250929050565b600060208284031215612f7057612f6f612608565b5b6000612f7e84828501612cd8565b91505092915050565b6000602082019050612f9c6000830184612da6565b92915050565b600080600060608486031215612fbb57612fba612608565b5b6000612fc986828701612633565b9350506020612fda868287016127cd565b9250506040612feb86828701612d04565b9150509250925092565b612ffe81612cad565b82525050565b61300d816127e2565b82525050565b60006040820190506130286000830185612ff5565b6130356020830184613004565b9392505050565b60408201600082015161305260008501826126a1565b50602082015161306560208501826126a1565b50505050565b6000604082019050613080600083018461303c565b92915050565b60008083601f84011261309c5761309b61285c565b5b8235905067ffffffffffffffff8111156130b9576130b8612861565b5b6020830191508360018202830111156130d5576130d4612866565b5b9250929050565b600080602083850312156130f3576130f2612608565b5b600083013567ffffffffffffffff8111156131115761311061260d565b5b61311d85828601613086565b92509250509250929050565b60008060006060848603121561314257613141612608565b5b600061315086828701612803565b935050602061316186828701612633565b925050604061317286828701612633565b9150509250925092565b7f4e487b7100000000000000000000000000000000000000000000000000000000600052603260045260246000fd5b600082825260208201905092915050565b7f496e76616c69644d657373616765486173680000000000000000000000000000600082015250565b60006131f26012836131ab565b91506131fd826131bc565b602082019050919050565b60006020820190508181036000830152613221816131e5565b9050919050565b600060608201905061323d6000830186612da6565b61324a6020830185612da6565b6132576040830184613004565b949350505050565b60008151905061326e81612ced565b92915050565b60006020828403121561328a57613289612608565b5b60006132988482850161325f565b91505092915050565b7f4e487b7100000000000000000000000000000000000000000000000000000000600052601160045260246000fd5b60006132db826127e2565b91507fffffffffffffffffffffffffffffffffffffffffffffffffffffffffffffffff820361330d5761330c6132a1565b5b600182019050919050565b600060408201905061332d6000830185612da6565b61333a6020830184613004565b9392505050565b6000819050919050565b600061336661336161335c84612818565b613341565b6127e2565b9050919050565b6133768161334b565b82525050565b82818337600083830152505050565b600061339783856131ab565b93506133a483858461337c565b6133ad836129d6565b840190509392505050565b60006080820190506133cd600083018861336d565b6133da60208301876129ac565b6133e760408301866129ac565b81810360608301526133fa81848661338b565b90509695505050505050565b7f4e487b7100000000000000000000000000000000000000000000000000000000600052602260045260246000fd5b6000600282049050600182168061344d57607f821691505b6020821081036134605761345f613406565b5b50919050565b7f4f6e6c7941676772656761746f72000000000000000000000000000000000000600082015250565b600061349c600e836131ab565b91506134a782613466565b602082019050919050565b600060208201905081810360008301526134cb8161348f565b9050919050565b7f4f7264657246756c66696c6c6564000000000000000000000000000000000000600082015250565b6000613508600e836131ab565b9150613513826134d2565b602082019050919050565b60006020820190508181036000830152613537816134fb565b9050919050565b600061354982612818565b915061355483612818565b925082820390506bffffffffffffffffffffffff811115613578576135776132a1565b5b92915050565b600061359961359461358f84612cad565b613341565b612818565b9050919050565b6135a98161357e565b82525050565b60006060820190506135c460008301866129ac565b6135d160208301856129ac565b6135de60408301846135a0565b949350505050565b7f50617963726573743a207a65726f206164647265737300000000000000000000600082015250565b600061361c6016836131ab565b9150613627826135e6565b602082019050919050565b6000602082019050818103600083015261364b8161360f565b9050919050565b7f496e697469616c697a61626c653a20636f6e747261637420697320616c72656160008201527f647920696e697469616c697a6564000000000000000000000000000000000000602082015250565b60006136ae602e836131ab565b91506136b982613652565b604082019050919050565b600060208201905081810360008301526136dd816136a1565b9050919050565b6000819050919050565b600060ff82169050919050565b600061371661371161370c846136e4565b613341565b6136ee565b9050919050565b613726816136fb565b82525050565b6000602082019050613741600083018461371d565b92915050565b600060208201905061375c6000830184612ff5565b92915050565b600060608201905061377760008301866129ac565b6137846020830185612da6565b6137916040830184612c83565b949350505050565b600082905092915050565b60008190508160005260206000209050919050565b60006020601f8301049050919050565b600082821b905092915050565b6000600883026138067fffffffffffffffffffffffffffffffffffffffffffffffffffffffffffffffff826137c9565b61381086836137c9565b95508019841693508086168417925050509392505050565b600061384361383e613839846127e2565b613341565b6127e2565b9050919050565b6000819050919050565b61385d83613828565b6138716138698261384a565b8484546137d6565b825550505050565b600090565b613886613879565b613891818484613854565b505050565b5b818110156138b5576138aa60008261387e565b600181019050613897565b5050565b601f8211156138fa576138cb816137a4565b6138d4846137b9565b810160208510156138e3578190505b6138f76138ef856137b9565b830182613896565b50505b505050565b600082821c905092915050565b600061391d600019846008026138ff565b1980831691505092915050565b6000613936838361390c565b9150826002028217905092915050565b6139508383613799565b67ffffffffffffffff811115613969576139686129e7565b5b6139738254613435565b61397e8282856138b9565b6000601f8311600181146139ad576000841561399b578287013590505b6139a5858261392a565b865550613a0d565b601f1984166139bb866137a4565b60005b828110156139e3578489013582556001820191506020850194506020810190506139be565b86831015613a0057848901356139fc601f89168261390c565b8355505b6001600288020188555050505b50505050505050565b6000613a228385612be1565b9350613a2f83858461337c565b613a38836129d6565b840190509392505050565b60006020820190508181036000830152613a5e818486613a16565b90509392505050565b6000613a72826127e2565b9150613a7d836127e2565b9250828203905081811115613a9557613a946132a1565b5b92915050565b6000604082019050613ab06000830185613004565b613abd60208301846129ac565b9392505050565b7f4f776e61626c653a206e6577206f776e657220697320746865207a65726f206160008201527f6464726573730000000000000000000000000000000000000000000000000000602082015250565b6000613b206026836131ab565b9150613b2b82613ac4565b604082019050919050565b60006020820190508181036000830152613b4f81613b13565b9050919050565b7f5061757361626c653a2070617573656400000000000000000000000000000000600082015250565b6000613b8c6010836131ab565b9150613b9782613b56565b602082019050919050565b60006020820190508181036000830152613bbb81613b7f565b9050919050565b7f546f6b656e4e6f74537570706f72746564000000000000000000000000000000600082015250565b6000613bf86011836131ab565b9150613c0382613bc2565b602082019050919050565b60006020820190508181036000830152613c2781613beb565b9050919050565b7f416d6f756e7449735a65726f0000000000000000000000000000000000000000600082015250565b6000613c64600c836131ab565b9150613c6f82613c2e565b602082019050919050565b60006020820190508181036000830152613c9381613c57565b9050919050565b7f5468726f775a65726f4164647265737300000000000000000000000000000000600082015250565b6000613cd06010836131ab565b9150613cdb82613c9a565b602082019050919050565b60006020820190508181036000830152613cff81613cc3565b9050919050565b7f496e76616c6964496e737469747574696f6e436f646500000000000000000000600082015250565b6000613d3c6016836131ab565b9150613d4782613d06565b602082019050919050565b60006020820190508181036000830152613d6b81613d2f565b9050919050565b7f496e76616c696453656e646572466565526563697069656e7400000000000000600082015250565b6000613da86019836131ab565b9150613db382613d72565b602082019050919050565b60006020820190508181036000830152613dd781613d9b565b9050919050565b6000613de9826127e2565b9150613df4836127e2565b9250828202613e02816127e2565b91508282048414831517613e1957613e186132a1565b5b5092915050565b7f4e487b7100000000000000000000000000000000000000000000000000000000600052601260045260246000fd5b6000613e5a826127e2565b9150613e65836127e2565b925082613e7557613e74613e20565b5b828204905092915050565b7f53656e646572466565546f6f4869676800000000000000000000000000000000600082015250565b6000613eb66010836131ab565b9150613ec182613e80565b602082019050919050565b60006020820190508181036000830152613ee581613ea9565b9050919050565b7f4f776e61626c653a2063616c6c6572206973206e6f7420746865206f776e6572600082015250565b6000613f226020836131ab565b9150613f2d82613eec565b602082019050919050565b60006020820190508181036000830152613f5181613f15565b9050919050565b6000613f63826127e2565b9150613f6e836127e2565b9250828201905080821115613f8657613f856132a1565b5b92915050565b7f496e697469616c697a61626c653a20636f6e7472616374206973206e6f74206960008201527f6e697469616c697a696e67000000000000000000000000000000000000000000602082015250565b6000613fe8602b836131ab565b9150613ff382613f8c565b604082019050919050565b6000602082019050818103600083015261401781613fdb565b9050919050565b7f5061757361626c653a206e6f7420706175736564000000000000000000000000600082015250565b60006140546014836131ab565b915061405f8261401e565b602082019050919050565b6000602082019050818103600083015261408381614047565b905091905056fea2646970667358221220b0b646aa2cd3c72c2408924e5e96c69307ed3d3fca95cd358f38f51a5646497664736f6c63430008120033",
  "linkReferences": {},
  "deployedLinkReferences": {}
}