{
  "_format": "hh-sol-artifact-1",
  "contractName": "Paycrest",
  "sourceName": "contracts/Paycrest.sol",
  "abi": [
    {
      "inputs": [],
      "stateMutability": "nonpayable",
      "type": "constructor"
    },
    {
      "inputs": [],
      "name": "AmountIsZero",
      "type": "error"
    },
    {
      "inputs": [],
      "name": "InvalidInstitutionCode",
      "type": "error"
    },
    {
      "inputs": [
        {
          "internalType": "bytes32",
          "name": "what",
          "type": "bytes32"
        }
      ],
      "name": "InvalidParameter",
      "type": "error"
    },
    {
      "inputs": [],
      "name": "InvalidSigner",
      "type": "error"
    },
    {
      "inputs": [],
      "name": "NotWhitelisted",
      "type": "error"
    },
    {
      "inputs": [],
      "name": "OnlyAggregator",
      "type": "error"
    },
    {
      "inputs": [],
      "name": "OrderFulfilled",
      "type": "error"
    },
    {
      "inputs": [],
      "name": "ThrowZeroAddress",
      "type": "error"
    },
    {
      "inputs": [],
      "name": "ThrowZeroValue",
      "type": "error"
    },
    {
      "inputs": [],
      "name": "TokenNotSupported",
      "type": "error"
    },
    {
      "inputs": [],
      "name": "UnableToProcessRewards",
      "type": "error"
    },
    {
      "inputs": [],
      "name": "Unsuported",
      "type": "error"
    },
    {
      "anonymous": false,
      "inputs": [
        {
          "indexed": true,
          "internalType": "address",
          "name": "token",
          "type": "address"
        },
        {
          "indexed": true,
          "internalType": "uint256",
          "name": "amount",
          "type": "uint256"
        },
        {
          "indexed": true,
          "internalType": "bytes32",
          "name": "orderId",
          "type": "bytes32"
        },
        {
          "indexed": false,
          "internalType": "uint256",
          "name": "rate",
          "type": "uint256"
        },
        {
          "indexed": false,
          "internalType": "bytes32",
          "name": "institutionCode",
          "type": "bytes32"
        },
        {
          "indexed": false,
          "internalType": "bytes32",
          "name": "referenceID",
          "type": "bytes32"
        },
        {
          "indexed": false,
          "internalType": "string",
          "name": "messageHash",
          "type": "string"
        }
      ],
      "name": "Deposit",
      "type": "event"
    },
    {
      "anonymous": false,
      "inputs": [
        {
          "indexed": false,
          "internalType": "uint8",
          "name": "version",
          "type": "uint8"
        }
      ],
      "name": "Initialized",
      "type": "event"
    },
    {
      "anonymous": false,
      "inputs": [
        {
          "indexed": true,
          "internalType": "address",
          "name": "previousOwner",
          "type": "address"
        },
        {
          "indexed": true,
          "internalType": "address",
          "name": "newOwner",
          "type": "address"
        }
      ],
      "name": "OwnershipTransferred",
      "type": "event"
    },
    {
      "anonymous": false,
      "inputs": [
        {
          "indexed": false,
          "internalType": "uint128",
          "name": "protocolFee",
          "type": "uint128"
        },
        {
          "indexed": false,
          "internalType": "uint128",
          "name": "validatorFeePercent",
          "type": "uint128"
        }
      ],
      "name": "PaycrestFees",
      "type": "event"
    },
    {
      "anonymous": false,
      "inputs": [
        {
          "indexed": true,
          "internalType": "bytes32",
          "name": "orderId",
          "type": "bytes32"
        }
      ],
      "name": "Refunded",
      "type": "event"
    },
    {
      "anonymous": false,
      "inputs": [
        {
          "indexed": true,
          "internalType": "address",
          "name": "validator",
          "type": "address"
        },
        {
          "indexed": true,
          "internalType": "uint256",
          "name": "amount",
          "type": "uint256"
        }
      ],
      "name": "RewardValidator",
      "type": "event"
    },
    {
      "anonymous": false,
      "inputs": [
        {
          "indexed": false,
          "internalType": "bytes32",
          "name": "what",
          "type": "bytes32"
        },
        {
          "indexed": false,
          "internalType": "address",
          "name": "value",
          "type": "address"
        },
        {
          "indexed": false,
          "internalType": "bool",
          "name": "status",
          "type": "bool"
        }
      ],
      "name": "SettingManagerBool",
      "type": "event"
    },
    {
      "anonymous": false,
      "inputs": [
        {
          "indexed": false,
          "internalType": "bytes32",
          "name": "what",
          "type": "bytes32"
        },
        {
          "indexed": false,
          "internalType": "bytes8",
          "name": "value",
          "type": "bytes8"
        },
        {
          "indexed": false,
          "internalType": "bytes8",
          "name": "status",
          "type": "bytes8"
        }
      ],
      "name": "SettingManagerForInstitution",
      "type": "event"
    },
    {
      "anonymous": false,
      "inputs": [
        {
          "indexed": false,
          "internalType": "bytes32",
          "name": "_splitOrderId",
          "type": "bytes32"
        },
        {
          "indexed": true,
          "internalType": "bytes32",
          "name": "orderId",
          "type": "bytes32"
        },
        {
          "indexed": true,
          "internalType": "address",
          "name": "liquidityProvider",
          "type": "address"
        },
        {
          "indexed": false,
          "internalType": "uint96",
          "name": "settlePercent",
          "type": "uint96"
        }
      ],
      "name": "Settled",
      "type": "event"
    },
    {
      "anonymous": false,
      "inputs": [
        {
          "indexed": true,
          "internalType": "address",
          "name": "sender",
          "type": "address"
        },
        {
          "indexed": true,
          "internalType": "uint256",
          "name": "amount",
          "type": "uint256"
        }
      ],
      "name": "TransferSenderFee",
      "type": "event"
    },
    {
      "inputs": [
        {
          "internalType": "address",
          "name": "_token",
          "type": "address"
        },
        {
          "internalType": "uint256",
          "name": "_amount",
          "type": "uint256"
        },
        {
          "internalType": "bytes32",
          "name": "_institutionCode",
          "type": "bytes32"
        },
        {
          "internalType": "bytes32",
          "name": "_reference",
          "type": "bytes32"
        },
        {
          "internalType": "uint96",
          "name": "_rate",
          "type": "uint96"
        },
        {
          "internalType": "address",
          "name": "_senderFeeRecipient",
          "type": "address"
        },
        {
          "internalType": "uint256",
          "name": "_senderFee",
          "type": "uint256"
        },
        {
          "internalType": "address",
          "name": "_refundAddress",
          "type": "address"
        },
        {
          "internalType": "string",
          "name": "messageHash",
          "type": "string"
        }
      ],
      "name": "createOrder",
      "outputs": [
        {
          "internalType": "bytes32",
          "name": "orderId",
          "type": "bytes32"
        }
      ],
      "stateMutability": "nonpayable",
      "type": "function"
    },
    {
      "inputs": [],
      "name": "getFeeDetails",
      "outputs": [
        {
          "internalType": "uint128",
          "name": "",
          "type": "uint128"
        },
        {
          "internalType": "uint128",
          "name": "",
          "type": "uint128"
        },
        {
          "internalType": "uint256",
          "name": "",
          "type": "uint256"
        }
      ],
      "stateMutability": "view",
      "type": "function"
    },
    {
      "inputs": [],
      "name": "getLiquidityAggregator",
      "outputs": [
        {
          "internalType": "address",
          "name": "",
          "type": "address"
        }
      ],
      "stateMutability": "view",
      "type": "function"
    },
    {
      "inputs": [
        {
          "internalType": "bytes32",
          "name": "_orderId",
          "type": "bytes32"
        }
      ],
      "name": "getOrderInfo",
      "outputs": [
        {
          "components": [
            {
              "internalType": "address",
              "name": "seller",
              "type": "address"
            },
            {
              "internalType": "address",
              "name": "token",
              "type": "address"
            },
            {
              "internalType": "address",
              "name": "senderFeeRecipient",
              "type": "address"
            },
            {
              "internalType": "uint256",
              "name": "senderFee",
              "type": "uint256"
            },
            {
              "internalType": "uint96",
              "name": "rate",
              "type": "uint96"
            },
            {
              "internalType": "bool",
              "name": "isFulfilled",
              "type": "bool"
            },
            {
              "internalType": "address",
              "name": "refundAddress",
              "type": "address"
            },
            {
              "internalType": "uint96",
              "name": "currentBPS",
              "type": "uint96"
            },
            {
              "internalType": "uint256",
              "name": "amount",
              "type": "uint256"
            }
          ],
          "internalType": "struct IPaycrest.Order",
          "name": "",
          "type": "tuple"
        }
      ],
      "stateMutability": "view",
      "type": "function"
    },
    {
      "inputs": [
        {
          "internalType": "bytes32",
          "name": "code",
          "type": "bytes32"
        }
      ],
      "name": "getSupportedInstitutionName",
      "outputs": [
        {
          "components": [
            {
              "internalType": "bytes32",
              "name": "name",
              "type": "bytes32"
            },
            {
              "internalType": "bytes32",
              "name": "currency",
              "type": "bytes32"
            }
          ],
          "internalType": "struct PaycrestSettingManager.InstitutionByCode",
          "name": "",
          "type": "tuple"
        }
      ],
      "stateMutability": "view",
      "type": "function"
    },
    {
      "inputs": [
        {
          "internalType": "bytes32",
          "name": "currency",
          "type": "bytes32"
        }
      ],
      "name": "getSupportedInstitutions",
      "outputs": [
        {
          "components": [
            {
              "internalType": "bytes32",
              "name": "code",
              "type": "bytes32"
            },
            {
              "internalType": "bytes32",
              "name": "name",
              "type": "bytes32"
            }
          ],
          "internalType": "struct PaycrestSettingManager.Institution[]",
          "name": "",
          "type": "tuple[]"
        }
      ],
      "stateMutability": "view",
      "type": "function"
    },
    {
      "inputs": [
        {
          "internalType": "address",
          "name": "sender",
          "type": "address"
        }
      ],
      "name": "getWhitelistedStatus",
      "outputs": [
        {
          "internalType": "bool",
          "name": "",
          "type": "bool"
        }
      ],
      "stateMutability": "view",
      "type": "function"
    },
    {
      "inputs": [
        {
          "internalType": "address",
          "name": "_usdc",
          "type": "address"
        }
      ],
      "name": "initialize",
      "outputs": [],
      "stateMutability": "nonpayable",
      "type": "function"
    },
    {
      "inputs": [
        {
          "internalType": "address",
          "name": "_token",
          "type": "address"
        }
      ],
      "name": "isTokenSupported",
      "outputs": [
        {
          "internalType": "bool",
          "name": "",
          "type": "bool"
        }
      ],
      "stateMutability": "view",
      "type": "function"
    },
    {
      "inputs": [],
      "name": "owner",
      "outputs": [
        {
          "internalType": "address",
          "name": "",
          "type": "address"
        }
      ],
      "stateMutability": "view",
      "type": "function"
    },
    {
      "inputs": [
        {
          "internalType": "bytes32",
          "name": "_orderId",
          "type": "bytes32"
        }
      ],
      "name": "refund",
      "outputs": [
        {
          "internalType": "bool",
          "name": "",
          "type": "bool"
        }
      ],
      "stateMutability": "nonpayable",
      "type": "function"
    },
    {
      "inputs": [],
      "name": "renounceOwnership",
      "outputs": [],
      "stateMutability": "nonpayable",
      "type": "function"
    },
    {
      "inputs": [
        {
          "internalType": "bytes32",
          "name": "currency",
          "type": "bytes32"
        },
        {
          "components": [
            {
              "internalType": "bytes32",
              "name": "code",
              "type": "bytes32"
            },
            {
              "internalType": "bytes32",
              "name": "name",
              "type": "bytes32"
            }
          ],
          "internalType": "struct PaycrestSettingManager.Institution[]",
          "name": "institutions",
          "type": "tuple[]"
        }
      ],
      "name": "setSupportedInstitutions",
      "outputs": [],
      "stateMutability": "nonpayable",
      "type": "function"
    },
    {
      "inputs": [
        {
          "internalType": "bytes32",
          "name": "what",
          "type": "bytes32"
        },
        {
          "internalType": "address",
          "name": "value",
          "type": "address"
        },
        {
          "internalType": "bool",
          "name": "status",
          "type": "bool"
        }
      ],
      "name": "settingManagerBool",
      "outputs": [],
      "stateMutability": "nonpayable",
      "type": "function"
    },
    {
      "inputs": [
        {
          "internalType": "bytes32",
          "name": "_splitOrderId",
          "type": "bytes32"
        },
        {
          "internalType": "bytes32",
          "name": "_orderId",
          "type": "bytes32"
        },
        {
          "internalType": "address[]",
          "name": "_validators",
          "type": "address[]"
        },
        {
          "internalType": "address",
          "name": "_liquidityProvider",
          "type": "address"
        },
        {
          "internalType": "uint96",
          "name": "_settlePercent",
          "type": "uint96"
        }
      ],
      "name": "settle",
      "outputs": [
        {
          "internalType": "bytes32",
          "name": "",
          "type": "bytes32"
        },
        {
          "internalType": "address",
          "name": "",
          "type": "address"
        }
      ],
      "stateMutability": "nonpayable",
      "type": "function"
    },
    {
      "inputs": [
        {
          "internalType": "address",
          "name": "newOwner",
          "type": "address"
        }
      ],
      "name": "transferOwnership",
      "outputs": [],
      "stateMutability": "nonpayable",
      "type": "function"
    },
    {
      "inputs": [
        {
          "internalType": "bytes32",
          "name": "what",
          "type": "bytes32"
        },
        {
          "internalType": "address",
          "name": "value",
          "type": "address"
        }
      ],
      "name": "updateProtocolAddresses",
      "outputs": [],
      "stateMutability": "nonpayable",
      "type": "function"
    },
    {
      "inputs": [
        {
          "internalType": "uint128",
          "name": "_protocolFeePercent",
          "type": "uint128"
        },
        {
          "internalType": "uint128",
          "name": "_validatorFeePercent",
          "type": "uint128"
        }
      ],
      "name": "updateProtocolFees",
      "outputs": [],
      "stateMutability": "nonpayable",
      "type": "function"
    },
    {
      "inputs": [
        {
          "internalType": "address",
          "name": "_token",
          "type": "address"
        },
        {
          "internalType": "address",
          "name": "_recipient",
          "type": "address"
        },
        {
          "internalType": "uint256",
          "name": "_amount",
          "type": "uint256"
        }
      ],
      "name": "withdraw",
      "outputs": [],
      "stateMutability": "nonpayable",
      "type": "function"
    }
  ],
  "bytecode": "0x60806040523480156200001157600080fd5b50620000226200002860201b60201c565b620001d2565b600060019054906101000a900460ff16156200007b576040517f08c379a0000000000000000000000000000000000000000000000000000000008152600401620000729062000175565b60405180910390fd5b60ff801660008054906101000a900460ff1660ff1614620000ec5760ff6000806101000a81548160ff021916908360ff1602179055507f7f26b83ff96e1f2b6a682f133852f6798a09c465da95921460cefb384740249860ff604051620000e39190620001b5565b60405180910390a15b565b600082825260208201905092915050565b7f496e697469616c697a61626c653a20636f6e747261637420697320696e69746960008201527f616c697a696e6700000000000000000000000000000000000000000000000000602082015250565b60006200015d602783620000ee565b91506200016a82620000ff565b604082019050919050565b6000602082019050818103600083015262000190816200014e565b9050919050565b600060ff82169050919050565b620001af8162000197565b82525050565b6000602082019050620001cc6000830184620001a4565b92915050565b61387080620001e26000396000f3fe608060405234801561001057600080fd5b50600436106101215760003560e01c806379a0effb116100ad578063c4d66de811610071578063c4d66de814610331578063d8e8de341461034d578063d9caed121461037d578063f2fde38b14610399578063f5326b19146103b557610121565b806379a0effb1461028b57806387490d86146102a75780638da5cb5b146102d757806399e3c0b4146102f5578063b810c6361461031157610121565b8063384efd27116100f4578063384efd27146101c0578063715018a6146101f15780637249fbb6146101fb57806375151b631461022b578063768c6ec01461025b57610121565b806302621338146101265780632654ec7e146101565780632ebc53561461018657806332200882146101a4575b600080fd5b610140600480360381019061013b9190612551565b6103d1565b60405161014d919061266b565b60405180910390f35b610170600480360381019061016b91906127ca565b61050f565b60405161017d91906128c4565b60405180910390f35b61018e610952565b60405161019b91906128ee565b60405180910390f35b6101be60048036038101906101b99190612aad565b61097c565b005b6101da60048036038101906101d59190612b5f565b610a90565b6040516101e8929190612bf9565b60405180910390f35b6101f9610fa0565b005b61021560048036038101906102109190612551565b610fb4565b6040516102229190612c3d565b60405180910390f35b61024560048036038101906102409190612c58565b61124d565b6040516102529190612c3d565b60405180910390f35b61027560048036038101906102709190612551565b6112a3565b6040516102829190612d78565b60405180910390f35b6102a560048036038101906102a09190612d94565b6114d4565b005b6102c160048036038101906102bc9190612551565b611618565b6040516102ce9190612e03565b60405180910390f35b6102df611659565b6040516102ec91906128ee565b60405180910390f35b61030f600480360381019061030a9190612e4a565b611683565b005b610319611870565b60405161032893929190612ed7565b60405180910390f35b61034b60048036038101906103469190612c58565b6118c1565b005b61036760048036038101906103629190612c58565b611ad8565b6040516103749190612c3d565b60405180910390f35b61039760048036038101906103929190612f0e565b611b2e565b005b6103b360048036038101906103ae9190612c58565b611bba565b005b6103cf60048036038101906103ca9190612f8d565b611c3d565b005b60606000606b6000848152602001908152602001600020805480602002602001604051908101604052809291908181526020016000905b8282101561044e57838290600052602060002090600202016040518060400160405290816000820154815260200160018201548152505081526020019060010190610408565b50505050905060008151905060008167ffffffffffffffff8111156104765761047561291a565b5b6040519080825280602002602001820160405280156104af57816020015b61049c6123e4565b8152602001906001900390816104945790505b50905060005b82811015610503578381815181106104d0576104cf612fcd565b5b60200260200101518282815181106104eb576104ea612fcd565b5b602002602001018190525080806001019150506104b5565b50809350505050919050565b600061051e8b8b86898d611cf4565b8a73ffffffffffffffffffffffffffffffffffffffff166323b872dd33308d6040518463ffffffff1660e01b815260040161055b93929190612ffc565b6020604051808303816000875af115801561057a573d6000803e3d6000fd5b505050506040513d601f19601f8201168201806040525081019061059e9190613048565b50606e60003373ffffffffffffffffffffffffffffffffffffffff1673ffffffffffffffffffffffffffffffffffffffff16815260200190815260200160002060008154809291906105ef906130a4565b919050555033606e60003373ffffffffffffffffffffffffffffffffffffffff1673ffffffffffffffffffffffffffffffffffffffff168152602001908152602001600020546040516020016106469291906130ec565b6040516020818303038152906040528051906020012090506040518061012001604052803373ffffffffffffffffffffffffffffffffffffffff1681526020018c73ffffffffffffffffffffffffffffffffffffffff1681526020018773ffffffffffffffffffffffffffffffffffffffff168152602001868152602001886bffffffffffffffffffffffff1681526020016000151581526020018573ffffffffffffffffffffffffffffffffffffffff1681526020016065546bffffffffffffffffffffffff1681526020018b815250606d600083815260200190815260200160002060008201518160000160006101000a81548173ffffffffffffffffffffffffffffffffffffffff021916908373ffffffffffffffffffffffffffffffffffffffff16021790555060208201518160010160006101000a81548173ffffffffffffffffffffffffffffffffffffffff021916908373ffffffffffffffffffffffffffffffffffffffff16021790555060408201518160020160006101000a81548173ffffffffffffffffffffffffffffffffffffffff021916908373ffffffffffffffffffffffffffffffffffffffff1602179055506060820151816003015560808201518160040160006101000a8154816bffffffffffffffffffffffff02191690836bffffffffffffffffffffffff16021790555060a082015181600401600c6101000a81548160ff02191690831515021790555060c08201518160050160006101000a81548173ffffffffffffffffffffffffffffffffffffffff021916908373ffffffffffffffffffffffffffffffffffffffff16021790555060e08201518160050160146101000a8154816bffffffffffffffffffffffff02191690836bffffffffffffffffffffffff1602179055506101008201518160060155905050808a8c73ffffffffffffffffffffffffffffffffffffffff167f2c205f90c01160d42994a0eb521810056d94bb82a1fcb038d7179c4158a1f15b8a8d8d898960405161093c95949392919061319d565b60405180910390a49a9950505050505050505050565b6000606860009054906101000a900473ffffffffffffffffffffffffffffffffffffffff16905090565b610984611f03565b60008151905060005b81811015610a8a57606b60008581526020019081526020016000208382815181106109bb576109ba612fcd565b5b60200260200101519080600181540180825580915050600190039060005260206000209060020201600090919091909150600082015181600001556020820151816001015550506040518060400160405280848381518110610a2057610a1f612fcd565b5b602002602001015160200151815260200185815250606c6000858481518110610a4c57610a4b612fcd565b5b60200260200101516000015181526020019081526020016000206000820151816000015560208201518160010155905050808060010191505061098d565b50505050565b600080606860009054906101000a900473ffffffffffffffffffffffffffffffffffffffff1673ffffffffffffffffffffffffffffffffffffffff163373ffffffffffffffffffffffffffffffffffffffff1614610b1a576040517fe9d8299200000000000000000000000000000000000000000000000000000000815260040160405180910390fd5b606d6000888152602001908152602001600020600401600c9054906101000a900460ff1615610b75576040517f56f1733f00000000000000000000000000000000000000000000000000000000815260040160405180910390fd5b6000606d600089815260200190815260200160002060010160009054906101000a900473ffffffffffffffffffffffffffffffffffffffff16905083606d60008a815260200190815260200160002060050160148282829054906101000a90046bffffffffffffffffffffffff16610bed91906131eb565b92506101000a8154816bffffffffffffffffffffffff02191690836bffffffffffffffffffffffff1602179055506000606d60008a815260200190815260200160002060050160149054906101000a90046bffffffffffffffffffffffff166bffffffffffffffffffffffff1603610c8f576001606d60008a8152602001908152602001600020600401600c6101000a81548160ff0219169083151502179055505b6000610c9b8986611f81565b90506000606d60008b81526020019081526020016000206003015490506000811115610ccb57610cca8a6120e5565b5b8273ffffffffffffffffffffffffffffffffffffffff1663a9059cbb606760009054906101000a900473ffffffffffffffffffffffffffffffffffffffff1684600001516040518363ffffffff1660e01b8152600401610d2c9291906130ec565b6020604051808303816000875af1158015610d4b573d6000803e3d6000fd5b505050506040513d601f19601f82011682018060405250810190610d6f9190613048565b508273ffffffffffffffffffffffffffffffffffffffff1663a9059cbb8884602001516040518363ffffffff1660e01b8152600401610daf9291906130ec565b6020604051808303816000875af1158015610dce573d6000803e3d6000fd5b505050506040513d601f19601f82011682018060405250810190610df29190613048565b5060008989905090506000818460400151610e0d919061325a565b905060005b82811015610f38578573ffffffffffffffffffffffffffffffffffffffff1663a9059cbb8d8d84818110610e4957610e48612fcd565b5b9050602002016020810190610e5e9190612c58565b846040518363ffffffff1660e01b8152600401610e7c9291906130ec565b6020604051808303816000875af1158015610e9b573d6000803e3d6000fd5b505050506040513d601f19601f82011682018060405250810190610ebf9190613048565b50818c8c83818110610ed457610ed3612fcd565b5b9050602002016020810190610ee99190612c58565b73ffffffffffffffffffffffffffffffffffffffff167f61dceb70b8f97239c33a3f9c0d0efc6c8759c7e9a808f75dd42b3a0f213186c260405160405180910390a38080600101915050610e12565b508873ffffffffffffffffffffffffffffffffffffffff168c7f7b5664d3710676924bf38f3d89d38a62db3aa5fca4213adf6fa36e51c3cfc8548f8b604051610f8292919061329a565b60405180910390a38b85965096505050505050965096945050505050565b610fa8611f03565b610fb26000612239565b565b6000606860009054906101000a900473ffffffffffffffffffffffffffffffffffffffff1673ffffffffffffffffffffffffffffffffffffffff163373ffffffffffffffffffffffffffffffffffffffff161461103d576040517fe9d8299200000000000000000000000000000000000000000000000000000000815260040160405180910390fd5b606d6000838152602001908152602001600020600401600c9054906101000a900460ff16156110a1576040517f08c379a00000000000000000000000000000000000000000000000000000000081526004016110989061330f565b60405180910390fd5b6001606d6000848152602001908152602001600020600401600c6101000a81548160ff0219169083151502179055506000606d600084815260200190815260200160002060050160146101000a8154816bffffffffffffffffffffffff02191690836bffffffffffffffffffffffff160217905550606d600083815260200190815260200160002060010160009054906101000a900473ffffffffffffffffffffffffffffffffffffffff1673ffffffffffffffffffffffffffffffffffffffff1663a9059cbb606d600085815260200190815260200160002060050160009054906101000a900473ffffffffffffffffffffffffffffffffffffffff16606d6000868152602001908152602001600020600601546040518363ffffffff1660e01b81526004016111d39291906130ec565b6020604051808303816000875af11580156111f2573d6000803e3d6000fd5b505050506040513d601f19601f820116820180604052508101906112169190613048565b50817ffe509803c09416b28ff3d8f690c8b0c61462a892c46d5430c8fb20abe472daf060405160405180910390a260019050919050565b6000606960008373ffffffffffffffffffffffffffffffffffffffff1673ffffffffffffffffffffffffffffffffffffffff16815260200190815260200160002060009054906101000a900460ff169050919050565b6112ab612404565b606d6000838152602001908152602001600020604051806101200160405290816000820160009054906101000a900473ffffffffffffffffffffffffffffffffffffffff1673ffffffffffffffffffffffffffffffffffffffff1673ffffffffffffffffffffffffffffffffffffffff1681526020016001820160009054906101000a900473ffffffffffffffffffffffffffffffffffffffff1673ffffffffffffffffffffffffffffffffffffffff1673ffffffffffffffffffffffffffffffffffffffff1681526020016002820160009054906101000a900473ffffffffffffffffffffffffffffffffffffffff1673ffffffffffffffffffffffffffffffffffffffff1673ffffffffffffffffffffffffffffffffffffffff168152602001600382015481526020016004820160009054906101000a90046bffffffffffffffffffffffff166bffffffffffffffffffffffff166bffffffffffffffffffffffff16815260200160048201600c9054906101000a900460ff161515151581526020016005820160009054906101000a900473ffffffffffffffffffffffffffffffffffffffff1673ffffffffffffffffffffffffffffffffffffffff1673ffffffffffffffffffffffffffffffffffffffff1681526020016005820160149054906101000a90046bffffffffffffffffffffffff166bffffffffffffffffffffffff166bffffffffffffffffffffffff1681526020016006820154815250509050919050565b6114dc611f03565b600073ffffffffffffffffffffffffffffffffffffffff168173ffffffffffffffffffffffffffffffffffffffff1603611542576040517f9c8e2b5d00000000000000000000000000000000000000000000000000000000815260040160405180910390fd5b7f666565000000000000000000000000000000000000000000000000000000000082036115ab5780606760006101000a81548173ffffffffffffffffffffffffffffffffffffffff021916908373ffffffffffffffffffffffffffffffffffffffff1602179055505b7f61676772656761746f720000000000000000000000000000000000000000000082036116145780606860006101000a81548173ffffffffffffffffffffffffffffffffffffffff021916908373ffffffffffffffffffffffffffffffffffffffff1602179055505b5050565b6116206124c6565b606c6000838152602001908152602001600020604051806040016040529081600082015481526020016001820154815250509050919050565b6000603360009054906101000a900473ffffffffffffffffffffffffffffffffffffffff16905090565b61168b611f03565b600073ffffffffffffffffffffffffffffffffffffffff168273ffffffffffffffffffffffffffffffffffffffff16036116f1576040517f9c8e2b5d00000000000000000000000000000000000000000000000000000000815260040160405180910390fd5b7f746f6b656e00000000000000000000000000000000000000000000000000000083036117705780606960008473ffffffffffffffffffffffffffffffffffffffff1673ffffffffffffffffffffffffffffffffffffffff16815260200190815260200160002060006101000a81548160ff0219169083151502179055505b7f77686974656c697374000000000000000000000000000000000000000000000083036117f35780606a60008473ffffffffffffffffffffffffffffffffffffffff1673ffffffffffffffffffffffffffffffffffffffff16815260200190815260200160002060006101000a81548160ff021916908315150217905550611830565b826040517f48bae5b800000000000000000000000000000000000000000000000000000000815260040161182791906128c4565b60405180910390fd5b7fe22cadcc5ddbc0a185e8920eaa6825bcc06dcd6b432988e7e9912caa59ace9308383836040516118639392919061332f565b60405180910390a1505050565b6000806000606660009054906101000a90046fffffffffffffffffffffffffffffffff16606660109054906101000a90046fffffffffffffffffffffffffffffffff16606554925092509250909192565b60008060019054906101000a900460ff161590508080156118f25750600160008054906101000a900460ff1660ff16105b8061191f5750611901306122ff565b15801561191e5750600160008054906101000a900460ff1660ff16145b5b61195e576040517f08c379a0000000000000000000000000000000000000000000000000000000008152600401611955906133d8565b60405180910390fd5b60016000806101000a81548160ff021916908360ff160217905550801561199b576001600060016101000a81548160ff0219169083151502179055505b6001606960008473ffffffffffffffffffffffffffffffffffffffff1673ffffffffffffffffffffffffffffffffffffffff16815260200190815260200160002060006101000a81548160ff021916908315150217905550620186a0606581905550611388606660006101000a8154816fffffffffffffffffffffffffffffffff02191690836fffffffffffffffffffffffffffffffff1602179055506101f4606660106101000a8154816fffffffffffffffffffffffffffffffff02191690836fffffffffffffffffffffffffffffffff160217905550611a7b612322565b8015611ad45760008060016101000a81548160ff0219169083151502179055507f7f26b83ff96e1f2b6a682f133852f6798a09c465da95921460cefb38474024986001604051611acb9190613440565b60405180910390a15b5050565b6000606a60008373ffffffffffffffffffffffffffffffffffffffff1673ffffffffffffffffffffffffffffffffffffffff16815260200190815260200160002060009054906101000a900460ff169050919050565b611b36611f03565b8273ffffffffffffffffffffffffffffffffffffffff1663a9059cbb83836040518363ffffffff1660e01b8152600401611b719291906130ec565b6020604051808303816000875af1158015611b90573d6000803e3d6000fd5b505050506040513d601f19601f82011682018060405250810190611bb49190613048565b50505050565b611bc2611f03565b600073ffffffffffffffffffffffffffffffffffffffff168173ffffffffffffffffffffffffffffffffffffffff1603611c31576040517f08c379a0000000000000000000000000000000000000000000000000000000008152600401611c28906134cd565b60405180910390fd5b611c3a81612239565b50565b611c45611f03565b81606660006101000a8154816fffffffffffffffffffffffffffffffff02191690836fffffffffffffffffffffffffffffffff16021790555080606660106101000a8154816fffffffffffffffffffffffffffffffff02191690836fffffffffffffffffffffffffffffffff1602179055507fe38926c5806b98a6fd00c5d791a36fbd196537fe48d11c45c9f1d0acd1ea74df8282604051611ce89291906134ed565b60405180910390a15050565b606960008673ffffffffffffffffffffffffffffffffffffffff1673ffffffffffffffffffffffffffffffffffffffff16815260200190815260200160002060009054906101000a900460ff16611d80576040517f08c379a0000000000000000000000000000000000000000000000000000000008152600401611d7790613562565b60405180910390fd5b60008411611dc3576040517f08c379a0000000000000000000000000000000000000000000000000000000008152600401611dba906135ce565b60405180910390fd5b600073ffffffffffffffffffffffffffffffffffffffff168373ffffffffffffffffffffffffffffffffffffffff1603611e32576040517f08c379a0000000000000000000000000000000000000000000000000000000008152600401611e299061363a565b60405180910390fd5b600073ffffffffffffffffffffffffffffffffffffffff168273ffffffffffffffffffffffffffffffffffffffff1603611ea1576040517f08c379a0000000000000000000000000000000000000000000000000000000008152600401611e989061363a565b60405180910390fd5b6000801b606c60008381526020019081526020016000206000015403611efc576040517f08c379a0000000000000000000000000000000000000000000000000000000008152600401611ef3906136a6565b60405180910390fd5b5050505050565b611f0b61237b565b73ffffffffffffffffffffffffffffffffffffffff16611f29611659565b73ffffffffffffffffffffffffffffffffffffffff1614611f7f576040517f08c379a0000000000000000000000000000000000000000000000000000000008152600401611f7690613712565b60405180910390fd5b565b611f896124e6565b6000606d6000858152602001908152602001600020600601549050606d60008581526020019081526020016000206003015481611fc69190613732565b9050606554836bffffffffffffffffffffffff1682611fe59190613766565b611fef919061325a565b826020018181525050606554606660009054906101000a90046fffffffffffffffffffffffffffffffff166fffffffffffffffffffffffffffffffff16836020015161203b9190613766565b612045919061325a565b826000018181525050816000015182602001516120629190613732565b826020018181525050606554606660109054906101000a90046fffffffffffffffffffffffffffffffff166fffffffffffffffffffffffffffffffff1683600001516120ae9190613766565b6120b8919061325a565b826040018181525050816040015182600001516120d59190613732565b8260000181815250505092915050565b6000606d600083815260200190815260200160002060020160009054906101000a900473ffffffffffffffffffffffffffffffffffffffff1690506000606d6000848152602001908152602001600020600301549050606d600084815260200190815260200160002060010160009054906101000a900473ffffffffffffffffffffffffffffffffffffffff1673ffffffffffffffffffffffffffffffffffffffff1663a9059cbb83836040518363ffffffff1660e01b81526004016121ac9291906130ec565b6020604051808303816000875af11580156121cb573d6000803e3d6000fd5b505050506040513d601f19601f820116820180604052508101906121ef9190613048565b50808273ffffffffffffffffffffffffffffffffffffffff167f96c76d5aec8a8c11a9c8e02768e3fa309347330d08961e0cf9fd43b349b684c260405160405180910390a3505050565b6000603360009054906101000a900473ffffffffffffffffffffffffffffffffffffffff16905081603360006101000a81548173ffffffffffffffffffffffffffffffffffffffff021916908373ffffffffffffffffffffffffffffffffffffffff1602179055508173ffffffffffffffffffffffffffffffffffffffff168173ffffffffffffffffffffffffffffffffffffffff167f8be0079c531659141344cd1fd0a4f28419497f9722a3daafe3b4186f6b6457e060405160405180910390a35050565b6000808273ffffffffffffffffffffffffffffffffffffffff163b119050919050565b600060019054906101000a900460ff16612371576040517f08c379a00000000000000000000000000000000000000000000000000000000081526004016123689061381a565b60405180910390fd5b612379612383565b565b600033905090565b600060019054906101000a900460ff166123d2576040517f08c379a00000000000000000000000000000000000000000000000000000000081526004016123c99061381a565b60405180910390fd5b6123e26123dd61237b565b612239565b565b604051806040016040528060008019168152602001600080191681525090565b604051806101200160405280600073ffffffffffffffffffffffffffffffffffffffff168152602001600073ffffffffffffffffffffffffffffffffffffffff168152602001600073ffffffffffffffffffffffffffffffffffffffff1681526020016000815260200160006bffffffffffffffffffffffff168152602001600015158152602001600073ffffffffffffffffffffffffffffffffffffffff16815260200160006bffffffffffffffffffffffff168152602001600081525090565b604051806040016040528060008019168152602001600080191681525090565b60405180606001604052806000815260200160008152602001600081525090565b6000604051905090565b600080fd5b600080fd5b6000819050919050565b61252e8161251b565b811461253957600080fd5b50565b60008135905061254b81612525565b92915050565b60006020828403121561256757612566612511565b5b60006125758482850161253c565b91505092915050565b600081519050919050565b600082825260208201905092915050565b6000819050602082019050919050565b6125b38161251b565b82525050565b6040820160008201516125cf60008501826125aa565b5060208201516125e260208501826125aa565b50505050565b60006125f483836125b9565b60408301905092915050565b6000602082019050919050565b60006126188261257e565b6126228185612589565b935061262d8361259a565b8060005b8381101561265e57815161264588826125e8565b975061265083612600565b925050600181019050612631565b5085935050505092915050565b60006020820190508181036000830152612685818461260d565b905092915050565b600073ffffffffffffffffffffffffffffffffffffffff82169050919050565b60006126b88261268d565b9050919050565b6126c8816126ad565b81146126d357600080fd5b50565b6000813590506126e5816126bf565b92915050565b6000819050919050565b6126fe816126eb565b811461270957600080fd5b50565b60008135905061271b816126f5565b92915050565b60006bffffffffffffffffffffffff82169050919050565b61274281612721565b811461274d57600080fd5b50565b60008135905061275f81612739565b92915050565b600080fd5b600080fd5b600080fd5b60008083601f84011261278a57612789612765565b5b8235905067ffffffffffffffff8111156127a7576127a661276a565b5b6020830191508360018202830111156127c3576127c261276f565b5b9250929050565b6000806000806000806000806000806101208b8d0312156127ee576127ed612511565b5b60006127fc8d828e016126d6565b9a5050602061280d8d828e0161270c565b995050604061281e8d828e0161253c565b985050606061282f8d828e0161253c565b97505060806128408d828e01612750565b96505060a06128518d828e016126d6565b95505060c06128628d828e0161270c565b94505060e06128738d828e016126d6565b9350506101008b013567ffffffffffffffff81111561289557612894612516565b5b6128a18d828e01612774565b92509250509295989b9194979a5092959850565b6128be8161251b565b82525050565b60006020820190506128d960008301846128b5565b92915050565b6128e8816126ad565b82525050565b600060208201905061290360008301846128df565b92915050565b6000601f19601f8301169050919050565b7f4e487b7100000000000000000000000000000000000000000000000000000000600052604160045260246000fd5b61295282612909565b810181811067ffffffffffffffff821117156129715761297061291a565b5b80604052505050565b6000612984612507565b90506129908282612949565b919050565b600067ffffffffffffffff8211156129b0576129af61291a565b5b602082029050602081019050919050565b600080fd5b6000604082840312156129dc576129db6129c1565b5b6129e6604061297a565b905060006129f68482850161253c565b6000830152506020612a0a8482850161253c565b60208301525092915050565b6000612a29612a2484612995565b61297a565b90508083825260208201905060408402830185811115612a4c57612a4b61276f565b5b835b81811015612a755780612a6188826129c6565b845260208401935050604081019050612a4e565b5050509392505050565b600082601f830112612a9457612a93612765565b5b8135612aa4848260208601612a16565b91505092915050565b60008060408385031215612ac457612ac3612511565b5b6000612ad28582860161253c565b925050602083013567ffffffffffffffff811115612af357612af2612516565b5b612aff85828601612a7f565b9150509250929050565b60008083601f840112612b1f57612b1e612765565b5b8235905067ffffffffffffffff811115612b3c57612b3b61276a565b5b602083019150836020820283011115612b5857612b5761276f565b5b9250929050565b60008060008060008060a08789031215612b7c57612b7b612511565b5b6000612b8a89828a0161253c565b9650506020612b9b89828a0161253c565b955050604087013567ffffffffffffffff811115612bbc57612bbb612516565b5b612bc889828a01612b09565b94509450506060612bdb89828a016126d6565b9250506080612bec89828a01612750565b9150509295509295509295565b6000604082019050612c0e60008301856128b5565b612c1b60208301846128df565b9392505050565b60008115159050919050565b612c3781612c22565b82525050565b6000602082019050612c526000830184612c2e565b92915050565b600060208284031215612c6e57612c6d612511565b5b6000612c7c848285016126d6565b91505092915050565b612c8e816126ad565b82525050565b612c9d816126eb565b82525050565b612cac81612721565b82525050565b612cbb81612c22565b82525050565b61012082016000820151612cd86000850182612c85565b506020820151612ceb6020850182612c85565b506040820151612cfe6040850182612c85565b506060820151612d116060850182612c94565b506080820151612d246080850182612ca3565b5060a0820151612d3760a0850182612cb2565b5060c0820151612d4a60c0850182612c85565b5060e0820151612d5d60e0850182612ca3565b50610100820151612d72610100850182612c94565b50505050565b600061012082019050612d8e6000830184612cc1565b92915050565b60008060408385031215612dab57612daa612511565b5b6000612db98582860161253c565b9250506020612dca858286016126d6565b9150509250929050565b604082016000820151612dea60008501826125aa565b506020820151612dfd60208501826125aa565b50505050565b6000604082019050612e186000830184612dd4565b92915050565b612e2781612c22565b8114612e3257600080fd5b50565b600081359050612e4481612e1e565b92915050565b600080600060608486031215612e6357612e62612511565b5b6000612e718682870161253c565b9350506020612e82868287016126d6565b9250506040612e9386828701612e35565b9150509250925092565b60006fffffffffffffffffffffffffffffffff82169050919050565b612ec281612e9d565b82525050565b612ed1816126eb565b82525050565b6000606082019050612eec6000830186612eb9565b612ef96020830185612eb9565b612f066040830184612ec8565b949350505050565b600080600060608486031215612f2757612f26612511565b5b6000612f35868287016126d6565b9350506020612f46868287016126d6565b9250506040612f578682870161270c565b9150509250925092565b612f6a81612e9d565b8114612f7557600080fd5b50565b600081359050612f8781612f61565b92915050565b60008060408385031215612fa457612fa3612511565b5b6000612fb285828601612f78565b9250506020612fc385828601612f78565b9150509250929050565b7f4e487b7100000000000000000000000000000000000000000000000000000000600052603260045260246000fd5b600060608201905061301160008301866128df565b61301e60208301856128df565b61302b6040830184612ec8565b949350505050565b60008151905061304281612e1e565b92915050565b60006020828403121561305e5761305d612511565b5b600061306c84828501613033565b91505092915050565b7f4e487b7100000000000000000000000000000000000000000000000000000000600052601160045260246000fd5b60006130af826126eb565b91507fffffffffffffffffffffffffffffffffffffffffffffffffffffffffffffffff82036130e1576130e0613075565b5b600182019050919050565b600060408201905061310160008301856128df565b61310e6020830184612ec8565b9392505050565b6000819050919050565b600061313a61313561313084612721565b613115565b6126eb565b9050919050565b61314a8161311f565b82525050565b600082825260208201905092915050565b82818337600083830152505050565b600061317c8385613150565b9350613189838584613161565b61319283612909565b840190509392505050565b60006080820190506131b26000830188613141565b6131bf60208301876128b5565b6131cc60408301866128b5565b81810360608301526131df818486613170565b90509695505050505050565b60006131f682612721565b915061320183612721565b925082820390506bffffffffffffffffffffffff81111561322557613224613075565b5b92915050565b7f4e487b7100000000000000000000000000000000000000000000000000000000600052601260045260246000fd5b6000613265826126eb565b9150613270836126eb565b9250826132805761327f61322b565b5b828204905092915050565b61329481612721565b82525050565b60006040820190506132af60008301856128b5565b6132bc602083018461328b565b9392505050565b7f4f7264657246756c66696c6c6564000000000000000000000000000000000000600082015250565b60006132f9600e83613150565b9150613304826132c3565b602082019050919050565b60006020820190508181036000830152613328816132ec565b9050919050565b600060608201905061334460008301866128b5565b61335160208301856128df565b61335e6040830184612c2e565b949350505050565b7f496e697469616c697a61626c653a20636f6e747261637420697320616c72656160008201527f647920696e697469616c697a6564000000000000000000000000000000000000602082015250565b60006133c2602e83613150565b91506133cd82613366565b604082019050919050565b600060208201905081810360008301526133f1816133b5565b9050919050565b6000819050919050565b600060ff82169050919050565b600061342a613425613420846133f8565b613115565b613402565b9050919050565b61343a8161340f565b82525050565b60006020820190506134556000830184613431565b92915050565b7f4f776e61626c653a206e6577206f776e657220697320746865207a65726f206160008201527f6464726573730000000000000000000000000000000000000000000000000000602082015250565b60006134b7602683613150565b91506134c28261345b565b604082019050919050565b600060208201905081810360008301526134e6816134aa565b9050919050565b60006040820190506135026000830185612eb9565b61350f6020830184612eb9565b9392505050565b7f546f6b656e4e6f74537570706f72746564000000000000000000000000000000600082015250565b600061354c601183613150565b915061355782613516565b602082019050919050565b6000602082019050818103600083015261357b8161353f565b9050919050565b7f416d6f756e7449735a65726f0000000000000000000000000000000000000000600082015250565b60006135b8600c83613150565b91506135c382613582565b602082019050919050565b600060208201905081810360008301526135e7816135ab565b9050919050565b7f5468726f775a65726f4164647265737300000000000000000000000000000000600082015250565b6000613624601083613150565b915061362f826135ee565b602082019050919050565b6000602082019050818103600083015261365381613617565b9050919050565b7f496e76616c6964496e737469747574696f6e436f646500000000000000000000600082015250565b6000613690601683613150565b915061369b8261365a565b602082019050919050565b600060208201905081810360008301526136bf81613683565b9050919050565b7f4f776e61626c653a2063616c6c6572206973206e6f7420746865206f776e6572600082015250565b60006136fc602083613150565b9150613707826136c6565b602082019050919050565b6000602082019050818103600083015261372b816136ef565b9050919050565b600061373d826126eb565b9150613748836126eb565b92508282039050818111156137605761375f613075565b5b92915050565b6000613771826126eb565b915061377c836126eb565b925082820261378a816126eb565b915082820484148315176137a1576137a0613075565b5b5092915050565b7f496e697469616c697a61626c653a20636f6e7472616374206973206e6f74206960008201527f6e697469616c697a696e67000000000000000000000000000000000000000000602082015250565b6000613804602b83613150565b915061380f826137a8565b604082019050919050565b60006020820190508181036000830152613833816137f7565b905091905056fea2646970667358221220756660b2f73b67901c12114a0e61b3d1ae9117af5fe1482799decfaff853bf7c64736f6c63430008120033",
  "linkReferences": {},
  "deployedLinkReferences": {}
}