{
  "_format": "hh-sol-artifact-1",
  "contractName": "Paycrest",
  "sourceName": "contracts/Paycrest.sol",
  "abi": [
    {
      "inputs": [],
      "stateMutability": "nonpayable",
      "type": "constructor"
    },
    {
      "anonymous": false,
      "inputs": [
        {
          "indexed": true,
          "internalType": "address",
          "name": "token",
          "type": "address"
        },
        {
          "indexed": true,
          "internalType": "uint256",
          "name": "amount",
          "type": "uint256"
        },
        {
          "indexed": true,
          "internalType": "bytes32",
          "name": "orderId",
          "type": "bytes32"
        },
        {
          "indexed": false,
          "internalType": "uint256",
          "name": "rate",
          "type": "uint256"
        },
        {
          "indexed": false,
          "internalType": "bytes32",
          "name": "institutionCode",
          "type": "bytes32"
        },
        {
          "indexed": false,
          "internalType": "bytes32",
          "name": "label",
          "type": "bytes32"
        },
        {
          "indexed": false,
          "internalType": "string",
          "name": "messageHash",
          "type": "string"
        }
      ],
      "name": "Deposit",
      "type": "event"
    },
    {
      "anonymous": false,
      "inputs": [
        {
          "indexed": false,
          "internalType": "uint8",
          "name": "version",
          "type": "uint8"
        }
      ],
      "name": "Initialized",
      "type": "event"
    },
    {
      "anonymous": false,
      "inputs": [
        {
          "indexed": true,
          "internalType": "address",
          "name": "previousOwner",
          "type": "address"
        },
        {
          "indexed": true,
          "internalType": "address",
          "name": "newOwner",
          "type": "address"
        }
      ],
      "name": "OwnershipTransferred",
      "type": "event"
    },
    {
      "anonymous": false,
      "inputs": [
        {
          "indexed": false,
          "internalType": "uint128",
          "name": "protocolFee",
          "type": "uint128"
        },
        {
          "indexed": false,
          "internalType": "uint128",
          "name": "validatorFeePercent",
          "type": "uint128"
        }
      ],
      "name": "PaycrestFees",
      "type": "event"
    },
    {
      "anonymous": false,
      "inputs": [
        {
          "indexed": true,
          "internalType": "bytes32",
          "name": "orderId",
          "type": "bytes32"
        },
        {
          "indexed": false,
          "internalType": "bytes32",
          "name": "label",
          "type": "bytes32"
        }
      ],
      "name": "Refunded",
      "type": "event"
    },
    {
      "anonymous": false,
      "inputs": [
        {
          "indexed": true,
          "internalType": "address",
          "name": "validator",
          "type": "address"
        },
        {
          "indexed": true,
          "internalType": "uint256",
          "name": "amount",
          "type": "uint256"
        }
      ],
      "name": "RewardValidator",
      "type": "event"
    },
    {
      "anonymous": false,
      "inputs": [
        {
          "indexed": false,
          "internalType": "bytes",
          "name": "aggregator",
          "type": "bytes"
        }
      ],
      "name": "SetAggregator",
      "type": "event"
    },
    {
      "anonymous": false,
      "inputs": [
        {
          "indexed": false,
          "internalType": "address",
          "name": "feeRecipient",
          "type": "address"
        }
      ],
      "name": "SetFeeRecipient",
      "type": "event"
    },
    {
      "anonymous": false,
      "inputs": [
        {
          "indexed": false,
          "internalType": "bytes32",
          "name": "what",
          "type": "bytes32"
        },
        {
          "indexed": false,
          "internalType": "address",
          "name": "value",
          "type": "address"
        },
        {
          "indexed": false,
          "internalType": "bool",
          "name": "status",
          "type": "bool"
        }
      ],
      "name": "SettingManagerBool",
      "type": "event"
    },
    {
      "anonymous": false,
      "inputs": [
        {
          "indexed": false,
          "internalType": "bytes32",
          "name": "_splitOrderId",
          "type": "bytes32"
        },
        {
          "indexed": true,
          "internalType": "bytes32",
          "name": "orderId",
          "type": "bytes32"
        },
        {
          "indexed": false,
          "internalType": "bytes32",
          "name": "label",
          "type": "bytes32"
        },
        {
          "indexed": true,
          "internalType": "address",
          "name": "liquidityProvider",
          "type": "address"
        },
        {
          "indexed": false,
          "internalType": "uint96",
          "name": "settlePercent",
          "type": "uint96"
        }
      ],
      "name": "Settled",
      "type": "event"
    },
    {
      "anonymous": false,
      "inputs": [
        {
          "indexed": true,
          "internalType": "address",
          "name": "sender",
          "type": "address"
        },
        {
          "indexed": true,
          "internalType": "uint256",
          "name": "amount",
          "type": "uint256"
        }
      ],
      "name": "TransferSenderFee",
      "type": "event"
    },
    {
      "inputs": [
        {
          "internalType": "address",
          "name": "_token",
          "type": "address"
        },
        {
          "internalType": "uint256",
          "name": "_amount",
          "type": "uint256"
        },
        {
          "internalType": "bytes32",
          "name": "_institutionCode",
          "type": "bytes32"
        },
        {
          "internalType": "bytes32",
          "name": "_label",
          "type": "bytes32"
        },
        {
          "internalType": "uint96",
          "name": "_rate",
          "type": "uint96"
        },
        {
          "internalType": "address",
          "name": "_senderFeeRecipient",
          "type": "address"
        },
        {
          "internalType": "uint256",
          "name": "_senderFee",
          "type": "uint256"
        },
        {
          "internalType": "address",
          "name": "_refundAddress",
          "type": "address"
        },
        {
          "internalType": "string",
          "name": "messageHash",
          "type": "string"
        }
      ],
      "name": "createOrder",
      "outputs": [
        {
          "internalType": "bytes32",
          "name": "orderId",
          "type": "bytes32"
        }
      ],
      "stateMutability": "nonpayable",
      "type": "function"
    },
    {
      "inputs": [],
      "name": "getAggregator",
      "outputs": [
        {
          "internalType": "bytes",
          "name": "",
          "type": "bytes"
        }
      ],
      "stateMutability": "view",
      "type": "function"
    },
    {
      "inputs": [],
      "name": "getAggregatorAddress",
      "outputs": [
        {
          "internalType": "address",
          "name": "",
          "type": "address"
        }
      ],
      "stateMutability": "view",
      "type": "function"
    },
    {
      "inputs": [],
      "name": "getFeeDetails",
      "outputs": [
        {
          "internalType": "uint128",
          "name": "",
          "type": "uint128"
        },
        {
          "internalType": "uint128",
          "name": "",
          "type": "uint128"
        },
        {
          "internalType": "uint256",
          "name": "",
          "type": "uint256"
        }
      ],
      "stateMutability": "view",
      "type": "function"
    },
    {
      "inputs": [
        {
          "internalType": "bytes32",
          "name": "_orderId",
          "type": "bytes32"
        }
      ],
      "name": "getOrderInfo",
      "outputs": [
        {
          "components": [
            {
              "internalType": "address",
              "name": "seller",
              "type": "address"
            },
            {
              "internalType": "address",
              "name": "token",
              "type": "address"
            },
            {
              "internalType": "address",
              "name": "senderFeeRecipient",
              "type": "address"
            },
            {
              "internalType": "uint256",
              "name": "senderFee",
              "type": "uint256"
            },
            {
              "internalType": "uint96",
              "name": "rate",
              "type": "uint96"
            },
            {
              "internalType": "bool",
              "name": "isFulfilled",
              "type": "bool"
            },
            {
              "internalType": "address",
              "name": "refundAddress",
              "type": "address"
            },
            {
              "internalType": "uint96",
              "name": "currentBPS",
              "type": "uint96"
            },
            {
              "internalType": "uint256",
              "name": "amount",
              "type": "uint256"
            }
          ],
          "internalType": "struct IPaycrest.Order",
          "name": "",
          "type": "tuple"
        }
      ],
      "stateMutability": "view",
      "type": "function"
    },
    {
      "inputs": [
        {
          "internalType": "bytes32",
          "name": "code",
          "type": "bytes32"
        }
      ],
      "name": "getSupportedInstitutionName",
      "outputs": [
        {
          "components": [
            {
              "internalType": "bytes32",
              "name": "name",
              "type": "bytes32"
            },
            {
              "internalType": "bytes32",
              "name": "currency",
              "type": "bytes32"
            }
          ],
          "internalType": "struct PaycrestSettingManager.InstitutionByCode",
          "name": "",
          "type": "tuple"
        }
      ],
      "stateMutability": "view",
      "type": "function"
    },
    {
      "inputs": [
        {
          "internalType": "bytes32",
          "name": "currency",
          "type": "bytes32"
        }
      ],
      "name": "getSupportedInstitutions",
      "outputs": [
        {
          "components": [
            {
              "internalType": "bytes32",
              "name": "code",
              "type": "bytes32"
            },
            {
              "internalType": "bytes32",
              "name": "name",
              "type": "bytes32"
            }
          ],
          "internalType": "struct PaycrestSettingManager.Institution[]",
          "name": "",
          "type": "tuple[]"
        }
      ],
      "stateMutability": "view",
      "type": "function"
    },
    {
      "inputs": [
        {
          "internalType": "address",
          "name": "sender",
          "type": "address"
        }
      ],
      "name": "getWhitelistedStatus",
      "outputs": [
        {
          "internalType": "bool",
          "name": "",
          "type": "bool"
        }
      ],
      "stateMutability": "view",
      "type": "function"
    },
    {
      "inputs": [
        {
          "internalType": "address",
          "name": "_usdc",
          "type": "address"
        }
      ],
      "name": "initialize",
      "outputs": [],
      "stateMutability": "nonpayable",
      "type": "function"
    },
    {
      "inputs": [
        {
          "internalType": "address",
          "name": "_token",
          "type": "address"
        }
      ],
      "name": "isTokenSupported",
      "outputs": [
        {
          "internalType": "bool",
          "name": "",
          "type": "bool"
        }
      ],
      "stateMutability": "view",
      "type": "function"
    },
    {
      "inputs": [],
      "name": "owner",
      "outputs": [
        {
          "internalType": "address",
          "name": "",
          "type": "address"
        }
      ],
      "stateMutability": "view",
      "type": "function"
    },
    {
      "inputs": [
        {
          "internalType": "bytes32",
          "name": "_orderId",
          "type": "bytes32"
        },
        {
          "internalType": "bytes32",
          "name": "_label",
          "type": "bytes32"
        }
      ],
      "name": "refund",
      "outputs": [
        {
          "internalType": "bool",
          "name": "",
          "type": "bool"
        }
      ],
      "stateMutability": "nonpayable",
      "type": "function"
    },
    {
      "inputs": [],
      "name": "renounceOwnership",
      "outputs": [],
      "stateMutability": "nonpayable",
      "type": "function"
    },
    {
      "inputs": [
        {
          "internalType": "bytes32",
          "name": "currency",
          "type": "bytes32"
        },
        {
          "components": [
            {
              "internalType": "bytes32",
              "name": "code",
              "type": "bytes32"
            },
            {
              "internalType": "bytes32",
              "name": "name",
              "type": "bytes32"
            }
          ],
          "internalType": "struct PaycrestSettingManager.Institution[]",
          "name": "institutions",
          "type": "tuple[]"
        }
      ],
      "name": "setSupportedInstitutions",
      "outputs": [],
      "stateMutability": "nonpayable",
      "type": "function"
    },
    {
      "inputs": [
        {
          "internalType": "bytes32",
          "name": "what",
          "type": "bytes32"
        },
        {
          "internalType": "address",
          "name": "value",
          "type": "address"
        },
        {
          "internalType": "bool",
          "name": "status",
          "type": "bool"
        }
      ],
      "name": "settingManagerBool",
      "outputs": [],
      "stateMutability": "nonpayable",
      "type": "function"
    },
    {
      "inputs": [
        {
          "internalType": "bytes32",
          "name": "_splitOrderId",
          "type": "bytes32"
        },
        {
          "internalType": "bytes32",
          "name": "_orderId",
          "type": "bytes32"
        },
        {
          "internalType": "bytes32",
          "name": "_label",
          "type": "bytes32"
        },
        {
          "internalType": "address[]",
          "name": "_validators",
          "type": "address[]"
        },
        {
          "internalType": "address",
          "name": "_liquidityProvider",
          "type": "address"
        },
        {
          "internalType": "uint64",
          "name": "_settlePercent",
          "type": "uint64"
        },
        {
          "internalType": "bool",
          "name": "_isPartner",
          "type": "bool"
        }
      ],
      "name": "settle",
      "outputs": [
        {
          "internalType": "bytes32",
          "name": "",
          "type": "bytes32"
        },
        {
          "internalType": "address",
          "name": "",
          "type": "address"
        }
      ],
      "stateMutability": "nonpayable",
      "type": "function"
    },
    {
      "inputs": [
        {
          "internalType": "address",
          "name": "newOwner",
          "type": "address"
        }
      ],
      "name": "transferOwnership",
      "outputs": [],
      "stateMutability": "nonpayable",
      "type": "function"
    },
    {
      "inputs": [
        {
          "internalType": "bytes32",
          "name": "what",
          "type": "bytes32"
        },
        {
          "internalType": "address",
          "name": "value",
          "type": "address"
        }
      ],
      "name": "updateProtocolAddresses",
      "outputs": [],
      "stateMutability": "nonpayable",
      "type": "function"
    },
    {
      "inputs": [
        {
          "internalType": "bytes",
          "name": "aggregator",
          "type": "bytes"
        }
      ],
      "name": "updateProtocolAggregator",
      "outputs": [],
      "stateMutability": "nonpayable",
      "type": "function"
    },
    {
      "inputs": [
        {
          "internalType": "uint128",
          "name": "_protocolFeePercent",
          "type": "uint128"
        },
        {
          "internalType": "uint128",
          "name": "_validatorFeePercent",
          "type": "uint128"
        }
      ],
      "name": "updateProtocolFees",
      "outputs": [],
      "stateMutability": "nonpayable",
      "type": "function"
    },
    {
      "inputs": [
        {
          "internalType": "address",
          "name": "_token",
          "type": "address"
        },
        {
          "internalType": "address",
          "name": "_recipient",
          "type": "address"
        },
        {
          "internalType": "uint256",
          "name": "_amount",
          "type": "uint256"
        }
      ],
      "name": "withdraw",
      "outputs": [],
      "stateMutability": "nonpayable",
      "type": "function"
    }
  ],
  "bytecode": "0x60806040523480156200001157600080fd5b50620000226200002860201b60201c565b620001d2565b600060019054906101000a900460ff16156200007b576040517f08c379a0000000000000000000000000000000000000000000000000000000008152600401620000729062000175565b60405180910390fd5b60ff801660008054906101000a900460ff1660ff1614620000ec5760ff6000806101000a81548160ff021916908360ff1602179055507f7f26b83ff96e1f2b6a682f133852f6798a09c465da95921460cefb384740249860ff604051620000e39190620001b5565b60405180910390a15b565b600082825260208201905092915050565b7f496e697469616c697a61626c653a20636f6e747261637420697320696e69746960008201527f616c697a696e6700000000000000000000000000000000000000000000000000602082015250565b60006200015d602783620000ee565b91506200016a82620000ff565b604082019050919050565b6000602082019050818103600083015262000190816200014e565b9050919050565b600060ff82169050919050565b620001af8162000197565b82525050565b6000602082019050620001cc6000830184620001a4565b92915050565b61406a80620001e26000396000f3fe608060405234801561001057600080fd5b50600436106101375760003560e01c80638da5cb5b116100b8578063d8e8de341161007c578063d8e8de341461034f578063d9caed121461037f578063e4683a791461039b578063e8d6e0de146103cb578063f2fde38b146103e9578063f5326b191461040557610137565b80638da5cb5b146102bd57806399e3c0b4146102db578063b810c636146102f7578063c4d66de814610317578063cb79455b1461033357610137565b8063715018a6116100ff578063715018a61461020757806375151b6314610211578063768c6ec01461024157806379a0effb1461027157806387490d861461028d57610137565b8063026213381461013c578063137764fb1461016c5780632654ec7e1461019d57806332200882146101cd5780633ad59dbc146101e9575b600080fd5b610156600480360381019061015191906126f5565b610421565b604051610163919061280f565b60405180910390f35b6101866004803603810190610181919061296c565b61055f565b604051610194929190612a4c565b60405180910390f35b6101b760048036038101906101b29190612b45565b61096a565b6040516101c49190612c30565b60405180910390f35b6101e760048036038101906101e29190612def565b610db7565b005b6101f1610ecb565b6040516101fe9190612eca565b60405180910390f35b61020f610f5d565b005b61022b60048036038101906102269190612eec565b610f71565b6040516102389190612f28565b60405180910390f35b61025b600480360381019061025691906126f5565b610fc7565b6040516102689190613036565b60405180910390f35b61028b60048036038101906102869190613052565b6111f8565b005b6102a760048036038101906102a291906126f5565b611345565b6040516102b491906130c1565b60405180910390f35b6102c5611386565b6040516102d291906130dc565b60405180910390f35b6102f560048036038101906102f091906130f7565b6113b0565b005b6102ff611565565b60405161030e93929190613184565b60405180910390f35b610331600480360381019061032c9190612eec565b6115b6565b005b61034d60048036038101906103489190613211565b6117cd565b005b61036960048036038101906103649190612eec565b611824565b6040516103769190612f28565b60405180910390f35b6103996004803603810190610394919061325e565b61187a565b005b6103b560048036038101906103b091906132b1565b611906565b6040516103c29190612f28565b60405180910390f35b6103d3611bb3565b6040516103e091906130dc565b60405180910390f35b61040360048036038101906103fe9190612eec565b611bdd565b005b61041f600480360381019061041a919061331d565b611c60565b005b60606000609e6000848152602001908152602001600020805480602002602001604051908101604052809291908181526020016000905b8282101561049e57838290600052602060002090600202016040518060400160405290816000820154815260200160018201548152505081526020019060010190610458565b50505050905060008151905060008167ffffffffffffffff8111156104c6576104c5612c5c565b5b6040519080825280602002602001820160405280156104ff57816020015b6104ec612588565b8152602001906001900390816104e45790505b50905060005b82811015610553578381815181106105205761051f61335d565b5b602002602001015182828151811061053b5761053a61335d565b5b60200260200101819052508080600101915050610505565b50809350505050919050565b600080606860009054906101000a900473ffffffffffffffffffffffffffffffffffffffff1673ffffffffffffffffffffffffffffffffffffffff163373ffffffffffffffffffffffffffffffffffffffff16146105f2576040517f08c379a00000000000000000000000000000000000000000000000000000000081526004016105e9906133e9565b60405180910390fd5b60a060008a8152602001908152602001600020600401600c9054906101000a900460ff1615610656576040517f08c379a000000000000000000000000000000000000000000000000000000000815260040161064d90613455565b60405180910390fd5b600060a060008b815260200190815260200160002060010160009054906101000a900473ffffffffffffffffffffffffffffffffffffffff1690508467ffffffffffffffff1660a060008c815260200190815260200160002060050160148282829054906101000a90046bffffffffffffffffffffffff166106d891906134a4565b92506101000a8154816bffffffffffffffffffffffff02191690836bffffffffffffffffffffffff160217905550600061071d8b8767ffffffffffffffff1687611d17565b9050600060a060008d815260200190815260200160002060050160149054906101000a90046bffffffffffffffffffffffff166bffffffffffffffffffffffff16036107bc57600160a060008d8152602001908152602001600020600401600c6101000a81548160ff021916908315150217905550600060a060008d81526020019081526020016000206003015411156107bb576107ba8b611eb2565b5b5b60008160000151111561086f578173ffffffffffffffffffffffffffffffffffffffff1663a9059cbb606760009054906101000a900473ffffffffffffffffffffffffffffffffffffffff1683600001516040518363ffffffff1660e01b815260040161082a9291906134e4565b6020604051808303816000875af1158015610849573d6000803e3d6000fd5b505050506040513d601f19601f8201168201806040525081019061086d9190613522565b505b8173ffffffffffffffffffffffffffffffffffffffff1663a9059cbb8883602001516040518363ffffffff1660e01b81526004016108ae9291906134e4565b6020604051808303816000875af11580156108cd573d6000803e3d6000fd5b505050506040513d601f19601f820116820180604052508101906108f19190613522565b506109028989848460400151612006565b8673ffffffffffffffffffffffffffffffffffffffff168b7ff26de978cbaea68ea699627155a10ad53df3321b0f95a08264c0cfd6d4c053268e8d8a60405161094d9392919061358a565b60405180910390a38a829350935050509850989650505050505050565b60006109798b8b86898d612150565b8a73ffffffffffffffffffffffffffffffffffffffff166323b872dd33308d6040518463ffffffff1660e01b81526004016109b6939291906135c1565b6020604051808303816000875af11580156109d5573d6000803e3d6000fd5b505050506040513d601f19601f820116820180604052508101906109f99190613522565b5060a160003373ffffffffffffffffffffffffffffffffffffffff1673ffffffffffffffffffffffffffffffffffffffff1681526020019081526020016000206000815480929190610a4a906135f8565b91905055503360a160003373ffffffffffffffffffffffffffffffffffffffff1673ffffffffffffffffffffffffffffffffffffffff16815260200190815260200160002054604051602001610aa19291906134e4565b6040516020818303038152906040528051906020012090506040518061012001604052803373ffffffffffffffffffffffffffffffffffffffff1681526020018c73ffffffffffffffffffffffffffffffffffffffff1681526020018773ffffffffffffffffffffffffffffffffffffffff168152602001868152602001886bffffffffffffffffffffffff1681526020016000151581526020018573ffffffffffffffffffffffffffffffffffffffff16815260200160655467ffffffffffffffff166bffffffffffffffffffffffff1681526020018b81525060a0600083815260200190815260200160002060008201518160000160006101000a81548173ffffffffffffffffffffffffffffffffffffffff021916908373ffffffffffffffffffffffffffffffffffffffff16021790555060208201518160010160006101000a81548173ffffffffffffffffffffffffffffffffffffffff021916908373ffffffffffffffffffffffffffffffffffffffff16021790555060408201518160020160006101000a81548173ffffffffffffffffffffffffffffffffffffffff021916908373ffffffffffffffffffffffffffffffffffffffff1602179055506060820151816003015560808201518160040160006101000a8154816bffffffffffffffffffffffff02191690836bffffffffffffffffffffffff16021790555060a082015181600401600c6101000a81548160ff02191690831515021790555060c08201518160050160006101000a81548173ffffffffffffffffffffffffffffffffffffffff021916908373ffffffffffffffffffffffffffffffffffffffff16021790555060e08201518160050160146101000a8154816bffffffffffffffffffffffff02191690836bffffffffffffffffffffffff1602179055506101008201518160060155905050808a8c73ffffffffffffffffffffffffffffffffffffffff167f2c205f90c01160d42994a0eb521810056d94bb82a1fcb038d7179c4158a1f15b8a8d8d8989604051610da19594939291906136ad565b60405180910390a49a9950505050505050505050565b610dbf61235f565b60008151905060005b81811015610ec557609e6000858152602001908152602001600020838281518110610df657610df561335d565b5b60200260200101519080600181540180825580915050600190039060005260206000209060020201600090919091909150600082015181600001556020820151816001015550506040518060400160405280848381518110610e5b57610e5a61335d565b5b602002602001015160200151815260200185815250609f6000858481518110610e8757610e8661335d565b5b602002602001015160000151815260200190815260200160002060008201518160000155602082015181600101559050508080600101915050610dc8565b50505050565b606060698054610eda9061372a565b80601f0160208091040260200160405190810160405280929190818152602001828054610f069061372a565b8015610f535780601f10610f2857610100808354040283529160200191610f53565b820191906000526020600020905b815481529060010190602001808311610f3657829003601f168201915b5050505050905090565b610f6561235f565b610f6f60006123dd565b565b6000609c60008373ffffffffffffffffffffffffffffffffffffffff1673ffffffffffffffffffffffffffffffffffffffff16815260200190815260200160002060009054906101000a900460ff169050919050565b610fcf6125a8565b60a06000838152602001908152602001600020604051806101200160405290816000820160009054906101000a900473ffffffffffffffffffffffffffffffffffffffff1673ffffffffffffffffffffffffffffffffffffffff1673ffffffffffffffffffffffffffffffffffffffff1681526020016001820160009054906101000a900473ffffffffffffffffffffffffffffffffffffffff1673ffffffffffffffffffffffffffffffffffffffff1673ffffffffffffffffffffffffffffffffffffffff1681526020016002820160009054906101000a900473ffffffffffffffffffffffffffffffffffffffff1673ffffffffffffffffffffffffffffffffffffffff1673ffffffffffffffffffffffffffffffffffffffff168152602001600382015481526020016004820160009054906101000a90046bffffffffffffffffffffffff166bffffffffffffffffffffffff166bffffffffffffffffffffffff16815260200160048201600c9054906101000a900460ff161515151581526020016005820160009054906101000a900473ffffffffffffffffffffffffffffffffffffffff1673ffffffffffffffffffffffffffffffffffffffff1673ffffffffffffffffffffffffffffffffffffffff1681526020016005820160149054906101000a90046bffffffffffffffffffffffff166bffffffffffffffffffffffff166bffffffffffffffffffffffff1681526020016006820154815250509050919050565b61120061235f565b600073ffffffffffffffffffffffffffffffffffffffff168173ffffffffffffffffffffffffffffffffffffffff160361126f576040517f08c379a0000000000000000000000000000000000000000000000000000000008152600401611266906137a7565b60405180910390fd5b7f666565000000000000000000000000000000000000000000000000000000000082036112d85780606760006101000a81548173ffffffffffffffffffffffffffffffffffffffff021916908373ffffffffffffffffffffffffffffffffffffffff1602179055505b7f61676772656761746f720000000000000000000000000000000000000000000082036113415780606860006101000a81548173ffffffffffffffffffffffffffffffffffffffff021916908373ffffffffffffffffffffffffffffffffffffffff1602179055505b5050565b61134d61266a565b609f6000838152602001908152602001600020604051806040016040529081600082015481526020016001820154815250509050919050565b6000603360009054906101000a900473ffffffffffffffffffffffffffffffffffffffff16905090565b6113b861235f565b600073ffffffffffffffffffffffffffffffffffffffff168273ffffffffffffffffffffffffffffffffffffffff1603611427576040517f08c379a000000000000000000000000000000000000000000000000000000000815260040161141e906137a7565b60405180910390fd5b7f746f6b656e00000000000000000000000000000000000000000000000000000083036114a65780609c60008473ffffffffffffffffffffffffffffffffffffffff1673ffffffffffffffffffffffffffffffffffffffff16815260200190815260200160002060006101000a81548160ff0219169083151502179055505b7f77686974656c697374000000000000000000000000000000000000000000000083036115255780609d60008473ffffffffffffffffffffffffffffffffffffffff1673ffffffffffffffffffffffffffffffffffffffff16815260200190815260200160002060006101000a81548160ff0219169083151502179055505b7fe22cadcc5ddbc0a185e8920eaa6825bcc06dcd6b432988e7e9912caa59ace930838383604051611558939291906137c7565b60405180910390a1505050565b6000806000606660009054906101000a90046fffffffffffffffffffffffffffffffff16606660109054906101000a90046fffffffffffffffffffffffffffffffff16606554925092509250909192565b60008060019054906101000a900460ff161590508080156115e75750600160008054906101000a900460ff1660ff16105b8061161457506115f6306124a3565b1580156116135750600160008054906101000a900460ff1660ff16145b5b611653576040517f08c379a000000000000000000000000000000000000000000000000000000000815260040161164a90613870565b60405180910390fd5b60016000806101000a81548160ff021916908360ff1602179055508015611690576001600060016101000a81548160ff0219169083151502179055505b6001609c60008473ffffffffffffffffffffffffffffffffffffffff1673ffffffffffffffffffffffffffffffffffffffff16815260200190815260200160002060006101000a81548160ff021916908315150217905550620186a0606581905550611388606660006101000a8154816fffffffffffffffffffffffffffffffff02191690836fffffffffffffffffffffffffffffffff1602179055506101f4606660106101000a8154816fffffffffffffffffffffffffffffffff02191690836fffffffffffffffffffffffffffffffff1602179055506117706124c6565b80156117c95760008060016101000a81548160ff0219169083151502179055507f7f26b83ff96e1f2b6a682f133852f6798a09c465da95921460cefb384740249860016040516117c091906138d8565b60405180910390a15b5050565b6117d561235f565b8181606991826117e6929190613aa0565b507f6a6600b7242975868d8321b5e64d0c9f2fcc92eb1af72254a6357be77ee7dcef8282604051611818929190613b9d565b60405180910390a15050565b6000609d60008373ffffffffffffffffffffffffffffffffffffffff1673ffffffffffffffffffffffffffffffffffffffff16815260200190815260200160002060009054906101000a900460ff169050919050565b61188261235f565b8273ffffffffffffffffffffffffffffffffffffffff1663a9059cbb83836040518363ffffffff1660e01b81526004016118bd9291906134e4565b6020604051808303816000875af11580156118dc573d6000803e3d6000fd5b505050506040513d601f19601f820116820180604052508101906119009190613522565b50505050565b6000606860009054906101000a900473ffffffffffffffffffffffffffffffffffffffff1673ffffffffffffffffffffffffffffffffffffffff163373ffffffffffffffffffffffffffffffffffffffff1614611998576040517f08c379a000000000000000000000000000000000000000000000000000000000815260040161198f906133e9565b60405180910390fd5b60a06000848152602001908152602001600020600401600c9054906101000a900460ff16156119fc576040517f08c379a00000000000000000000000000000000000000000000000000000000081526004016119f390613455565b60405180910390fd5b600160a06000858152602001908152602001600020600401600c6101000a81548160ff021916908315150217905550600060a0600085815260200190815260200160002060050160146101000a8154816bffffffffffffffffffffffff02191690836bffffffffffffffffffffffff16021790555060a0600084815260200190815260200160002060010160009054906101000a900473ffffffffffffffffffffffffffffffffffffffff1673ffffffffffffffffffffffffffffffffffffffff1663a9059cbb60a0600086815260200190815260200160002060050160009054906101000a900473ffffffffffffffffffffffffffffffffffffffff1660a06000878152602001908152602001600020600601546040518363ffffffff1660e01b8152600401611b2e9291906134e4565b6020604051808303816000875af1158015611b4d573d6000803e3d6000fd5b505050506040513d601f19601f82011682018060405250810190611b719190613522565b50827e7c875846b687732a7579c19bb1dade66cd14e9f4f809565e2b2b5e76c72b4f83604051611ba19190612c30565b60405180910390a26001905092915050565b6000606860009054906101000a900473ffffffffffffffffffffffffffffffffffffffff16905090565b611be561235f565b600073ffffffffffffffffffffffffffffffffffffffff168173ffffffffffffffffffffffffffffffffffffffff1603611c54576040517f08c379a0000000000000000000000000000000000000000000000000000000008152600401611c4b90613c33565b60405180910390fd5b611c5d816123dd565b50565b611c6861235f565b81606660006101000a8154816fffffffffffffffffffffffffffffffff02191690836fffffffffffffffffffffffffffffffff16021790555080606660106101000a8154816fffffffffffffffffffffffffffffffff02191690836fffffffffffffffffffffffffffffffff1602179055507fe38926c5806b98a6fd00c5d791a36fbd196537fe48d11c45c9f1d0acd1ea74df8282604051611d0b929190613c53565b60405180910390a15050565b611d1f61268a565b600060a0600086815260200190815260200160002060060154905060a060008681526020019081526020016000206003015481611d5c9190613c7c565b9050606554846bffffffffffffffffffffffff1682611d7b9190613cb0565b611d859190613d21565b826020018181525050606554606660009054906101000a90046fffffffffffffffffffffffffffffffff166fffffffffffffffffffffffffffffffff168360200151611dd19190613cb0565b611ddb9190613d21565b82600001818152505081600001518260200151611df89190613c7c565b826020018181525050606554606660109054906101000a90046fffffffffffffffffffffffffffffffff166fffffffffffffffffffffffffffffffff168360000151611e449190613cb0565b611e4e9190613d21565b826040018181525050600082604001518360000151611e6d9190613c7c565b90508315611e9e578083602001818151611e879190613d52565b915081815250506000836000018181525050611ea9565b808360000181815250505b50509392505050565b600060a0600083815260200190815260200160002060020160009054906101000a900473ffffffffffffffffffffffffffffffffffffffff169050600060a0600084815260200190815260200160002060030154905060a0600084815260200190815260200160002060010160009054906101000a900473ffffffffffffffffffffffffffffffffffffffff1673ffffffffffffffffffffffffffffffffffffffff1663a9059cbb83836040518363ffffffff1660e01b8152600401611f799291906134e4565b6020604051808303816000875af1158015611f98573d6000803e3d6000fd5b505050506040513d601f19601f82011682018060405250810190611fbc9190613522565b50808273ffffffffffffffffffffffffffffffffffffffff167f96c76d5aec8a8c11a9c8e02768e3fa309347330d08961e0cf9fd43b349b684c260405160405180910390a3505050565b60008484905090506000818361201c9190613d21565b905060005b82811015612147578473ffffffffffffffffffffffffffffffffffffffff1663a9059cbb8888848181106120585761205761335d565b5b905060200201602081019061206d9190612eec565b846040518363ffffffff1660e01b815260040161208b9291906134e4565b6020604051808303816000875af11580156120aa573d6000803e3d6000fd5b505050506040513d601f19601f820116820180604052508101906120ce9190613522565b50818787838181106120e3576120e261335d565b5b90506020020160208101906120f89190612eec565b73ffffffffffffffffffffffffffffffffffffffff167f61dceb70b8f97239c33a3f9c0d0efc6c8759c7e9a808f75dd42b3a0f213186c260405160405180910390a38080600101915050612021565b50505050505050565b609c60008673ffffffffffffffffffffffffffffffffffffffff1673ffffffffffffffffffffffffffffffffffffffff16815260200190815260200160002060009054906101000a900460ff166121dc576040517f08c379a00000000000000000000000000000000000000000000000000000000081526004016121d390613dd2565b60405180910390fd5b6000841161221f576040517f08c379a000000000000000000000000000000000000000000000000000000000815260040161221690613e3e565b60405180910390fd5b600073ffffffffffffffffffffffffffffffffffffffff168373ffffffffffffffffffffffffffffffffffffffff160361228e576040517f08c379a000000000000000000000000000000000000000000000000000000000815260040161228590613eaa565b60405180910390fd5b600073ffffffffffffffffffffffffffffffffffffffff168273ffffffffffffffffffffffffffffffffffffffff16036122fd576040517f08c379a00000000000000000000000000000000000000000000000000000000081526004016122f490613eaa565b60405180910390fd5b6000801b609f60008381526020019081526020016000206000015403612358576040517f08c379a000000000000000000000000000000000000000000000000000000000815260040161234f90613f16565b60405180910390fd5b5050505050565b61236761251f565b73ffffffffffffffffffffffffffffffffffffffff16612385611386565b73ffffffffffffffffffffffffffffffffffffffff16146123db576040517f08c379a00000000000000000000000000000000000000000000000000000000081526004016123d290613f82565b60405180910390fd5b565b6000603360009054906101000a900473ffffffffffffffffffffffffffffffffffffffff16905081603360006101000a81548173ffffffffffffffffffffffffffffffffffffffff021916908373ffffffffffffffffffffffffffffffffffffffff1602179055508173ffffffffffffffffffffffffffffffffffffffff168173ffffffffffffffffffffffffffffffffffffffff167f8be0079c531659141344cd1fd0a4f28419497f9722a3daafe3b4186f6b6457e060405160405180910390a35050565b6000808273ffffffffffffffffffffffffffffffffffffffff163b119050919050565b600060019054906101000a900460ff16612515576040517f08c379a000000000000000000000000000000000000000000000000000000000815260040161250c90614014565b60405180910390fd5b61251d612527565b565b600033905090565b600060019054906101000a900460ff16612576576040517f08c379a000000000000000000000000000000000000000000000000000000000815260040161256d90614014565b60405180910390fd5b61258661258161251f565b6123dd565b565b604051806040016040528060008019168152602001600080191681525090565b604051806101200160405280600073ffffffffffffffffffffffffffffffffffffffff168152602001600073ffffffffffffffffffffffffffffffffffffffff168152602001600073ffffffffffffffffffffffffffffffffffffffff1681526020016000815260200160006bffffffffffffffffffffffff168152602001600015158152602001600073ffffffffffffffffffffffffffffffffffffffff16815260200160006bffffffffffffffffffffffff168152602001600081525090565b604051806040016040528060008019168152602001600080191681525090565b60405180606001604052806000815260200160008152602001600081525090565b6000604051905090565b600080fd5b600080fd5b6000819050919050565b6126d2816126bf565b81146126dd57600080fd5b50565b6000813590506126ef816126c9565b92915050565b60006020828403121561270b5761270a6126b5565b5b6000612719848285016126e0565b91505092915050565b600081519050919050565b600082825260208201905092915050565b6000819050602082019050919050565b612757816126bf565b82525050565b604082016000820151612773600085018261274e565b506020820151612786602085018261274e565b50505050565b6000612798838361275d565b60408301905092915050565b6000602082019050919050565b60006127bc82612722565b6127c6818561272d565b93506127d18361273e565b8060005b838110156128025781516127e9888261278c565b97506127f4836127a4565b9250506001810190506127d5565b5085935050505092915050565b6000602082019050818103600083015261282981846127b1565b905092915050565b600080fd5b600080fd5b600080fd5b60008083601f84011261285657612855612831565b5b8235905067ffffffffffffffff81111561287357612872612836565b5b60208301915083602082028301111561288f5761288e61283b565b5b9250929050565b600073ffffffffffffffffffffffffffffffffffffffff82169050919050565b60006128c182612896565b9050919050565b6128d1816128b6565b81146128dc57600080fd5b50565b6000813590506128ee816128c8565b92915050565b600067ffffffffffffffff82169050919050565b612911816128f4565b811461291c57600080fd5b50565b60008135905061292e81612908565b92915050565b60008115159050919050565b61294981612934565b811461295457600080fd5b50565b60008135905061296681612940565b92915050565b60008060008060008060008060e0898b03121561298c5761298b6126b5565b5b600061299a8b828c016126e0565b98505060206129ab8b828c016126e0565b97505060406129bc8b828c016126e0565b965050606089013567ffffffffffffffff8111156129dd576129dc6126ba565b5b6129e98b828c01612840565b955095505060806129fc8b828c016128df565b93505060a0612a0d8b828c0161291f565b92505060c0612a1e8b828c01612957565b9150509295985092959890939650565b612a37816126bf565b82525050565b612a46816128b6565b82525050565b6000604082019050612a616000830185612a2e565b612a6e6020830184612a3d565b9392505050565b6000819050919050565b612a8881612a75565b8114612a9357600080fd5b50565b600081359050612aa581612a7f565b92915050565b60006bffffffffffffffffffffffff82169050919050565b612acc81612aab565b8114612ad757600080fd5b50565b600081359050612ae981612ac3565b92915050565b60008083601f840112612b0557612b04612831565b5b8235905067ffffffffffffffff811115612b2257612b21612836565b5b602083019150836001820283011115612b3e57612b3d61283b565b5b9250929050565b6000806000806000806000806000806101208b8d031215612b6957612b686126b5565b5b6000612b778d828e016128df565b9a50506020612b888d828e01612a96565b9950506040612b998d828e016126e0565b9850506060612baa8d828e016126e0565b9750506080612bbb8d828e01612ada565b96505060a0612bcc8d828e016128df565b95505060c0612bdd8d828e01612a96565b94505060e0612bee8d828e016128df565b9350506101008b013567ffffffffffffffff811115612c1057612c0f6126ba565b5b612c1c8d828e01612aef565b92509250509295989b9194979a5092959850565b6000602082019050612c456000830184612a2e565b92915050565b6000601f19601f8301169050919050565b7f4e487b7100000000000000000000000000000000000000000000000000000000600052604160045260246000fd5b612c9482612c4b565b810181811067ffffffffffffffff82111715612cb357612cb2612c5c565b5b80604052505050565b6000612cc66126ab565b9050612cd28282612c8b565b919050565b600067ffffffffffffffff821115612cf257612cf1612c5c565b5b602082029050602081019050919050565b600080fd5b600060408284031215612d1e57612d1d612d03565b5b612d286040612cbc565b90506000612d38848285016126e0565b6000830152506020612d4c848285016126e0565b60208301525092915050565b6000612d6b612d6684612cd7565b612cbc565b90508083825260208201905060408402830185811115612d8e57612d8d61283b565b5b835b81811015612db75780612da38882612d08565b845260208401935050604081019050612d90565b5050509392505050565b600082601f830112612dd657612dd5612831565b5b8135612de6848260208601612d58565b91505092915050565b60008060408385031215612e0657612e056126b5565b5b6000612e14858286016126e0565b925050602083013567ffffffffffffffff811115612e3557612e346126ba565b5b612e4185828601612dc1565b9150509250929050565b600081519050919050565b600082825260208201905092915050565b60005b83811015612e85578082015181840152602081019050612e6a565b60008484015250505050565b6000612e9c82612e4b565b612ea68185612e56565b9350612eb6818560208601612e67565b612ebf81612c4b565b840191505092915050565b60006020820190508181036000830152612ee48184612e91565b905092915050565b600060208284031215612f0257612f016126b5565b5b6000612f10848285016128df565b91505092915050565b612f2281612934565b82525050565b6000602082019050612f3d6000830184612f19565b92915050565b612f4c816128b6565b82525050565b612f5b81612a75565b82525050565b612f6a81612aab565b82525050565b612f7981612934565b82525050565b61012082016000820151612f966000850182612f43565b506020820151612fa96020850182612f43565b506040820151612fbc6040850182612f43565b506060820151612fcf6060850182612f52565b506080820151612fe26080850182612f61565b5060a0820151612ff560a0850182612f70565b5060c082015161300860c0850182612f43565b5060e082015161301b60e0850182612f61565b50610100820151613030610100850182612f52565b50505050565b60006101208201905061304c6000830184612f7f565b92915050565b60008060408385031215613069576130686126b5565b5b6000613077858286016126e0565b9250506020613088858286016128df565b9150509250929050565b6040820160008201516130a8600085018261274e565b5060208201516130bb602085018261274e565b50505050565b60006040820190506130d66000830184613092565b92915050565b60006020820190506130f16000830184612a3d565b92915050565b6000806000606084860312156131105761310f6126b5565b5b600061311e868287016126e0565b935050602061312f868287016128df565b925050604061314086828701612957565b9150509250925092565b60006fffffffffffffffffffffffffffffffff82169050919050565b61316f8161314a565b82525050565b61317e81612a75565b82525050565b60006060820190506131996000830186613166565b6131a66020830185613166565b6131b36040830184613175565b949350505050565b60008083601f8401126131d1576131d0612831565b5b8235905067ffffffffffffffff8111156131ee576131ed612836565b5b60208301915083600182028301111561320a5761320961283b565b5b9250929050565b60008060208385031215613228576132276126b5565b5b600083013567ffffffffffffffff811115613246576132456126ba565b5b613252858286016131bb565b92509250509250929050565b600080600060608486031215613277576132766126b5565b5b6000613285868287016128df565b9350506020613296868287016128df565b92505060406132a786828701612a96565b9150509250925092565b600080604083850312156132c8576132c76126b5565b5b60006132d6858286016126e0565b92505060206132e7858286016126e0565b9150509250929050565b6132fa8161314a565b811461330557600080fd5b50565b600081359050613317816132f1565b92915050565b60008060408385031215613334576133336126b5565b5b600061334285828601613308565b925050602061335385828601613308565b9150509250929050565b7f4e487b7100000000000000000000000000000000000000000000000000000000600052603260045260246000fd5b600082825260208201905092915050565b7f4f6e6c7941676772656761746f72000000000000000000000000000000000000600082015250565b60006133d3600e8361338c565b91506133de8261339d565b602082019050919050565b60006020820190508181036000830152613402816133c6565b9050919050565b7f4f7264657246756c66696c6c6564000000000000000000000000000000000000600082015250565b600061343f600e8361338c565b915061344a82613409565b602082019050919050565b6000602082019050818103600083015261346e81613432565b9050919050565b7f4e487b7100000000000000000000000000000000000000000000000000000000600052601160045260246000fd5b60006134af82612aab565b91506134ba83612aab565b925082820390506bffffffffffffffffffffffff8111156134de576134dd613475565b5b92915050565b60006040820190506134f96000830185612a3d565b6135066020830184613175565b9392505050565b60008151905061351c81612940565b92915050565b600060208284031215613538576135376126b5565b5b60006135468482850161350d565b91505092915050565b6000819050919050565b600061357461356f61356a846128f4565b61354f565b612aab565b9050919050565b61358481613559565b82525050565b600060608201905061359f6000830186612a2e565b6135ac6020830185612a2e565b6135b9604083018461357b565b949350505050565b60006060820190506135d66000830186612a3d565b6135e36020830185612a3d565b6135f06040830184613175565b949350505050565b600061360382612a75565b91507fffffffffffffffffffffffffffffffffffffffffffffffffffffffffffffffff820361363557613634613475565b5b600182019050919050565b600061365b61365661365184612aab565b61354f565b612a75565b9050919050565b61366b81613640565b82525050565b82818337600083830152505050565b600061368c838561338c565b9350613699838584613671565b6136a283612c4b565b840190509392505050565b60006080820190506136c26000830188613662565b6136cf6020830187612a2e565b6136dc6040830186612a2e565b81810360608301526136ef818486613680565b90509695505050505050565b7f4e487b7100000000000000000000000000000000000000000000000000000000600052602260045260246000fd5b6000600282049050600182168061374257607f821691505b602082108103613755576137546136fb565b5b50919050565b7f50617963726573743a207a65726f206164647265737300000000000000000000600082015250565b600061379160168361338c565b915061379c8261375b565b602082019050919050565b600060208201905081810360008301526137c081613784565b9050919050565b60006060820190506137dc6000830186612a2e565b6137e96020830185612a3d565b6137f66040830184612f19565b949350505050565b7f496e697469616c697a61626c653a20636f6e747261637420697320616c72656160008201527f647920696e697469616c697a6564000000000000000000000000000000000000602082015250565b600061385a602e8361338c565b9150613865826137fe565b604082019050919050565b600060208201905081810360008301526138898161384d565b9050919050565b6000819050919050565b600060ff82169050919050565b60006138c26138bd6138b884613890565b61354f565b61389a565b9050919050565b6138d2816138a7565b82525050565b60006020820190506138ed60008301846138c9565b92915050565b600082905092915050565b60008190508160005260206000209050919050565b60006020601f8301049050919050565b600082821b905092915050565b6000600883026139607fffffffffffffffffffffffffffffffffffffffffffffffffffffffffffffffff82613923565b61396a8683613923565b95508019841693508086168417925050509392505050565b600061399d61399861399384612a75565b61354f565b612a75565b9050919050565b6000819050919050565b6139b783613982565b6139cb6139c3826139a4565b848454613930565b825550505050565b600090565b6139e06139d3565b6139eb8184846139ae565b505050565b5b81811015613a0f57613a046000826139d8565b6001810190506139f1565b5050565b601f821115613a5457613a25816138fe565b613a2e84613913565b81016020851015613a3d578190505b613a51613a4985613913565b8301826139f0565b50505b505050565b600082821c905092915050565b6000613a7760001984600802613a59565b1980831691505092915050565b6000613a908383613a66565b9150826002028217905092915050565b613aaa83836138f3565b67ffffffffffffffff811115613ac357613ac2612c5c565b5b613acd825461372a565b613ad8828285613a13565b6000601f831160018114613b075760008415613af5578287013590505b613aff8582613a84565b865550613b67565b601f198416613b15866138fe565b60005b82811015613b3d57848901358255600182019150602085019450602081019050613b18565b86831015613b5a5784890135613b56601f891682613a66565b8355505b6001600288020188555050505b50505050505050565b6000613b7c8385612e56565b9350613b89838584613671565b613b9283612c4b565b840190509392505050565b60006020820190508181036000830152613bb8818486613b70565b90509392505050565b7f4f776e61626c653a206e6577206f776e657220697320746865207a65726f206160008201527f6464726573730000000000000000000000000000000000000000000000000000602082015250565b6000613c1d60268361338c565b9150613c2882613bc1565b604082019050919050565b60006020820190508181036000830152613c4c81613c10565b9050919050565b6000604082019050613c686000830185613166565b613c756020830184613166565b9392505050565b6000613c8782612a75565b9150613c9283612a75565b9250828203905081811115613caa57613ca9613475565b5b92915050565b6000613cbb82612a75565b9150613cc683612a75565b9250828202613cd481612a75565b91508282048414831517613ceb57613cea613475565b5b5092915050565b7f4e487b7100000000000000000000000000000000000000000000000000000000600052601260045260246000fd5b6000613d2c82612a75565b9150613d3783612a75565b925082613d4757613d46613cf2565b5b828204905092915050565b6000613d5d82612a75565b9150613d6883612a75565b9250828201905080821115613d8057613d7f613475565b5b92915050565b7f546f6b656e4e6f74537570706f72746564000000000000000000000000000000600082015250565b6000613dbc60118361338c565b9150613dc782613d86565b602082019050919050565b60006020820190508181036000830152613deb81613daf565b9050919050565b7f416d6f756e7449735a65726f0000000000000000000000000000000000000000600082015250565b6000613e28600c8361338c565b9150613e3382613df2565b602082019050919050565b60006020820190508181036000830152613e5781613e1b565b9050919050565b7f5468726f775a65726f4164647265737300000000000000000000000000000000600082015250565b6000613e9460108361338c565b9150613e9f82613e5e565b602082019050919050565b60006020820190508181036000830152613ec381613e87565b9050919050565b7f496e76616c6964496e737469747574696f6e436f646500000000000000000000600082015250565b6000613f0060168361338c565b9150613f0b82613eca565b602082019050919050565b60006020820190508181036000830152613f2f81613ef3565b9050919050565b7f4f776e61626c653a2063616c6c6572206973206e6f7420746865206f776e6572600082015250565b6000613f6c60208361338c565b9150613f7782613f36565b602082019050919050565b60006020820190508181036000830152613f9b81613f5f565b9050919050565b7f496e697469616c697a61626c653a20636f6e7472616374206973206e6f74206960008201527f6e697469616c697a696e67000000000000000000000000000000000000000000602082015250565b6000613ffe602b8361338c565b915061400982613fa2565b604082019050919050565b6000602082019050818103600083015261402d81613ff1565b905091905056fea264697066735822122098ac50edd190231685276eb883deb7d1d6f58ec45eb0a1527433245928c5da7264736f6c63430008120033",
  "linkReferences": {},
  "deployedLinkReferences": {}
}