{
  "_format": "hh-sol-artifact-1",
  "contractName": "Paycrest",
  "sourceName": "contracts/Paycrest.sol",
  "abi": [
    {
      "inputs": [],
      "stateMutability": "nonpayable",
      "type": "constructor"
    },
    {
      "inputs": [],
      "name": "AmountIsZero",
      "type": "error"
    },
    {
      "inputs": [],
      "name": "InvalidInstitutionCode",
      "type": "error"
    },
    {
      "inputs": [
        {
          "internalType": "bytes32",
          "name": "what",
          "type": "bytes32"
        }
      ],
      "name": "InvalidParameter",
      "type": "error"
    },
    {
      "inputs": [],
      "name": "InvalidSigner",
      "type": "error"
    },
    {
      "inputs": [],
      "name": "NotWhitelisted",
      "type": "error"
    },
    {
      "inputs": [],
      "name": "OnlyAggregator",
      "type": "error"
    },
    {
      "inputs": [],
      "name": "OrderFulfilled",
      "type": "error"
    },
    {
      "inputs": [],
      "name": "ThrowZeroAddress",
      "type": "error"
    },
    {
      "inputs": [],
      "name": "ThrowZeroValue",
      "type": "error"
    },
    {
      "inputs": [],
      "name": "TokenNotSupported",
      "type": "error"
    },
    {
      "inputs": [],
      "name": "UnableToProcessRewards",
      "type": "error"
    },
    {
      "inputs": [],
      "name": "Unsuported",
      "type": "error"
    },
    {
      "anonymous": false,
      "inputs": [
        {
          "indexed": true,
          "internalType": "address",
          "name": "token",
          "type": "address"
        },
        {
          "indexed": true,
          "internalType": "uint256",
          "name": "amount",
          "type": "uint256"
        },
        {
          "indexed": true,
          "internalType": "bytes32",
          "name": "orderId",
          "type": "bytes32"
        },
        {
          "indexed": false,
          "internalType": "uint256",
          "name": "rate",
          "type": "uint256"
        },
        {
          "indexed": false,
          "internalType": "bytes32",
          "name": "institutionCode",
          "type": "bytes32"
        },
        {
          "indexed": false,
          "internalType": "string",
          "name": "messageHash",
          "type": "string"
        }
      ],
      "name": "Deposit",
      "type": "event"
    },
    {
      "anonymous": false,
      "inputs": [
        {
          "indexed": false,
          "internalType": "uint8",
          "name": "version",
          "type": "uint8"
        }
      ],
      "name": "Initialized",
      "type": "event"
    },
    {
      "anonymous": false,
      "inputs": [
        {
          "indexed": true,
          "internalType": "address",
          "name": "previousOwner",
          "type": "address"
        },
        {
          "indexed": true,
          "internalType": "address",
          "name": "newOwner",
          "type": "address"
        }
      ],
      "name": "OwnershipTransferred",
      "type": "event"
    },
    {
      "anonymous": false,
      "inputs": [
        {
          "indexed": false,
          "internalType": "uint128",
          "name": "protocolFee",
          "type": "uint128"
        },
        {
          "indexed": false,
          "internalType": "uint128",
          "name": "validatorFeePercent",
          "type": "uint128"
        }
      ],
      "name": "PaycrestFees",
      "type": "event"
    },
    {
      "anonymous": false,
      "inputs": [
        {
          "indexed": true,
          "internalType": "bytes32",
          "name": "orderId",
          "type": "bytes32"
        }
      ],
      "name": "Refunded",
      "type": "event"
    },
    {
      "anonymous": false,
      "inputs": [
        {
          "indexed": false,
          "internalType": "bytes32",
          "name": "what",
          "type": "bytes32"
        },
        {
          "indexed": false,
          "internalType": "address",
          "name": "value",
          "type": "address"
        },
        {
          "indexed": false,
          "internalType": "bool",
          "name": "status",
          "type": "bool"
        }
      ],
      "name": "SettingManagerBool",
      "type": "event"
    },
    {
      "anonymous": false,
      "inputs": [
        {
          "indexed": false,
          "internalType": "bytes32",
          "name": "what",
          "type": "bytes32"
        },
        {
          "indexed": false,
          "internalType": "bytes8",
          "name": "value",
          "type": "bytes8"
        },
        {
          "indexed": false,
          "internalType": "bytes8",
          "name": "status",
          "type": "bytes8"
        }
      ],
      "name": "SettingManagerForInstitution",
      "type": "event"
    },
    {
      "anonymous": false,
      "inputs": [
        {
          "indexed": false,
          "internalType": "bytes32",
          "name": "_splitOrderId",
          "type": "bytes32"
        },
        {
          "indexed": true,
          "internalType": "bytes32",
          "name": "orderId",
          "type": "bytes32"
        },
        {
          "indexed": true,
          "internalType": "address",
          "name": "liquidityProvider",
          "type": "address"
        },
        {
          "indexed": false,
          "internalType": "uint96",
          "name": "settlePercent",
          "type": "uint96"
        }
      ],
      "name": "Settled",
      "type": "event"
    },
    {
      "anonymous": false,
      "inputs": [
        {
          "indexed": true,
          "internalType": "address",
          "name": "sender",
          "type": "address"
        },
        {
          "indexed": true,
          "internalType": "uint256",
          "name": "amount",
          "type": "uint256"
        }
      ],
      "name": "TransferSenderFee",
      "type": "event"
    },
    {
      "inputs": [
        {
          "internalType": "address",
          "name": "_token",
          "type": "address"
        },
        {
          "internalType": "uint256",
          "name": "_amount",
          "type": "uint256"
        },
        {
          "internalType": "bytes32",
          "name": "_institutionCode",
          "type": "bytes32"
        },
        {
          "internalType": "uint96",
          "name": "_rate",
          "type": "uint96"
        },
        {
          "internalType": "address",
          "name": "_senderFeeRecipient",
          "type": "address"
        },
        {
          "internalType": "uint256",
          "name": "_senderFee",
          "type": "uint256"
        },
        {
          "internalType": "address",
          "name": "_refundAddress",
          "type": "address"
        },
        {
          "internalType": "string",
          "name": "messageHash",
          "type": "string"
        }
      ],
      "name": "createOrder",
      "outputs": [
        {
          "internalType": "bytes32",
          "name": "orderId",
          "type": "bytes32"
        }
      ],
      "stateMutability": "nonpayable",
      "type": "function"
    },
    {
      "inputs": [],
      "name": "getFeeDetails",
      "outputs": [
        {
          "internalType": "uint128",
          "name": "",
          "type": "uint128"
        },
        {
          "internalType": "uint128",
          "name": "",
          "type": "uint128"
        },
        {
          "internalType": "uint256",
          "name": "",
          "type": "uint256"
        }
      ],
      "stateMutability": "view",
      "type": "function"
    },
    {
      "inputs": [],
      "name": "getLiquidityAggregator",
      "outputs": [
        {
          "internalType": "address",
          "name": "",
          "type": "address"
        }
      ],
      "stateMutability": "view",
      "type": "function"
    },
    {
      "inputs": [
        {
          "internalType": "bytes32",
          "name": "_orderId",
          "type": "bytes32"
        }
      ],
      "name": "getOrderInfo",
      "outputs": [
        {
          "components": [
            {
              "internalType": "address",
              "name": "seller",
              "type": "address"
            },
            {
              "internalType": "address",
              "name": "token",
              "type": "address"
            },
            {
              "internalType": "address",
              "name": "senderFeeRecipient",
              "type": "address"
            },
            {
              "internalType": "uint256",
              "name": "senderFee",
              "type": "uint256"
            },
            {
              "internalType": "uint96",
              "name": "rate",
              "type": "uint96"
            },
            {
              "internalType": "bool",
              "name": "isFulfilled",
              "type": "bool"
            },
            {
              "internalType": "address",
              "name": "refundAddress",
              "type": "address"
            },
            {
              "internalType": "uint96",
              "name": "currentBPS",
              "type": "uint96"
            },
            {
              "internalType": "uint256",
              "name": "amount",
              "type": "uint256"
            }
          ],
          "internalType": "struct IPaycrest.Order",
          "name": "",
          "type": "tuple"
        }
      ],
      "stateMutability": "view",
      "type": "function"
    },
    {
      "inputs": [
        {
          "internalType": "bytes32",
          "name": "code",
          "type": "bytes32"
        }
      ],
      "name": "getSupportedInstitutionName",
      "outputs": [
        {
          "components": [
            {
              "internalType": "bytes32",
              "name": "name",
              "type": "bytes32"
            },
            {
              "internalType": "bytes32",
              "name": "currency",
              "type": "bytes32"
            }
          ],
          "internalType": "struct PaycrestSettingManager.InstitutionByCode",
          "name": "",
          "type": "tuple"
        }
      ],
      "stateMutability": "view",
      "type": "function"
    },
    {
      "inputs": [
        {
          "internalType": "bytes32",
          "name": "currency",
          "type": "bytes32"
        }
      ],
      "name": "getSupportedInstitutions",
      "outputs": [
        {
          "components": [
            {
              "internalType": "bytes32",
              "name": "code",
              "type": "bytes32"
            },
            {
              "internalType": "bytes32",
              "name": "name",
              "type": "bytes32"
            }
          ],
          "internalType": "struct PaycrestSettingManager.Institution[]",
          "name": "",
          "type": "tuple[]"
        }
      ],
      "stateMutability": "view",
      "type": "function"
    },
    {
      "inputs": [
        {
          "internalType": "address",
          "name": "sender",
          "type": "address"
        }
      ],
      "name": "getWhitelistedStatus",
      "outputs": [
        {
          "internalType": "bool",
          "name": "",
          "type": "bool"
        }
      ],
      "stateMutability": "view",
      "type": "function"
    },
    {
      "inputs": [
        {
          "internalType": "address",
          "name": "_usdc",
          "type": "address"
        }
      ],
      "name": "initialize",
      "outputs": [],
      "stateMutability": "nonpayable",
      "type": "function"
    },
    {
      "inputs": [
        {
          "internalType": "address",
          "name": "_token",
          "type": "address"
        }
      ],
      "name": "isTokenSupported",
      "outputs": [
        {
          "internalType": "bool",
          "name": "",
          "type": "bool"
        }
      ],
      "stateMutability": "view",
      "type": "function"
    },
    {
      "inputs": [],
      "name": "owner",
      "outputs": [
        {
          "internalType": "address",
          "name": "",
          "type": "address"
        }
      ],
      "stateMutability": "view",
      "type": "function"
    },
    {
      "inputs": [
        {
          "internalType": "bytes32",
          "name": "_orderId",
          "type": "bytes32"
        }
      ],
      "name": "refund",
      "outputs": [
        {
          "internalType": "bool",
          "name": "",
          "type": "bool"
        }
      ],
      "stateMutability": "nonpayable",
      "type": "function"
    },
    {
      "inputs": [],
      "name": "renounceOwnership",
      "outputs": [],
      "stateMutability": "nonpayable",
      "type": "function"
    },
    {
      "inputs": [
        {
          "internalType": "bytes32",
          "name": "currency",
          "type": "bytes32"
        },
        {
          "components": [
            {
              "internalType": "bytes32",
              "name": "code",
              "type": "bytes32"
            },
            {
              "internalType": "bytes32",
              "name": "name",
              "type": "bytes32"
            }
          ],
          "internalType": "struct PaycrestSettingManager.Institution[]",
          "name": "institutions",
          "type": "tuple[]"
        }
      ],
      "name": "setSupportedInstitutions",
      "outputs": [],
      "stateMutability": "nonpayable",
      "type": "function"
    },
    {
      "inputs": [
        {
          "internalType": "bytes32",
          "name": "what",
          "type": "bytes32"
        },
        {
          "internalType": "address",
          "name": "value",
          "type": "address"
        },
        {
          "internalType": "bool",
          "name": "status",
          "type": "bool"
        }
      ],
      "name": "settingManagerBool",
      "outputs": [],
      "stateMutability": "nonpayable",
      "type": "function"
    },
    {
      "inputs": [
        {
          "internalType": "bytes32",
          "name": "_splitOrderId",
          "type": "bytes32"
        },
        {
          "internalType": "bytes32",
          "name": "_orderId",
          "type": "bytes32"
        },
        {
          "internalType": "address[]",
          "name": "_validators",
          "type": "address[]"
        },
        {
          "internalType": "address",
          "name": "_liquidityProvider",
          "type": "address"
        },
        {
          "internalType": "uint96",
          "name": "_settlePercent",
          "type": "uint96"
        }
      ],
      "name": "settle",
      "outputs": [
        {
          "internalType": "bool",
          "name": "",
          "type": "bool"
        }
      ],
      "stateMutability": "nonpayable",
      "type": "function"
    },
    {
      "inputs": [
        {
          "internalType": "address",
          "name": "newOwner",
          "type": "address"
        }
      ],
      "name": "transferOwnership",
      "outputs": [],
      "stateMutability": "nonpayable",
      "type": "function"
    },
    {
      "inputs": [
        {
          "internalType": "bytes32",
          "name": "what",
          "type": "bytes32"
        },
        {
          "internalType": "address",
          "name": "value",
          "type": "address"
        }
      ],
      "name": "updateFeeRecipient",
      "outputs": [],
      "stateMutability": "nonpayable",
      "type": "function"
    },
    {
      "inputs": [
        {
          "internalType": "uint128",
          "name": "_protocolFeePercent",
          "type": "uint128"
        },
        {
          "internalType": "uint128",
          "name": "_validatorFeePercent",
          "type": "uint128"
        }
      ],
      "name": "updateProtocolFees",
      "outputs": [],
      "stateMutability": "nonpayable",
      "type": "function"
    },
    {
      "inputs": [
        {
          "internalType": "address",
          "name": "_token",
          "type": "address"
        },
        {
          "internalType": "address",
          "name": "_recipient",
          "type": "address"
        },
        {
          "internalType": "uint256",
          "name": "_amount",
          "type": "uint256"
        }
      ],
      "name": "withdraw",
      "outputs": [],
      "stateMutability": "nonpayable",
      "type": "function"
    }
  ],
  "bytecode": "0x60806040523480156200001157600080fd5b50620000226200002860201b60201c565b620001d2565b600060019054906101000a900460ff16156200007b576040517f08c379a0000000000000000000000000000000000000000000000000000000008152600401620000729062000175565b60405180910390fd5b60ff801660008054906101000a900460ff1660ff1614620000ec5760ff6000806101000a81548160ff021916908360ff1602179055507f7f26b83ff96e1f2b6a682f133852f6798a09c465da95921460cefb384740249860ff604051620000e39190620001b5565b60405180910390a15b565b600082825260208201905092915050565b7f496e697469616c697a61626c653a20636f6e747261637420697320696e69746960008201527f616c697a696e6700000000000000000000000000000000000000000000000000602082015250565b60006200015d602783620000ee565b91506200016a82620000ff565b604082019050919050565b6000602082019050818103600083015262000190816200014e565b9050919050565b600060ff82169050919050565b620001af8162000197565b82525050565b6000602082019050620001cc6000830184620001a4565b92915050565b613a4480620001e26000396000f3fe608060405234801561001057600080fd5b50600436106101215760003560e01c806387490d86116100ad578063d12ff20a11610071578063d12ff20a1461031c578063d8e8de341461034c578063d9caed121461037c578063f2fde38b14610398578063f5326b19146103b457610121565b806387490d86146102765780638da5cb5b146102a657806399e3c0b4146102c4578063b810c636146102e0578063c4d66de81461030057610121565b80633d8f8fb2116100f45780633d8f8fb2146101c0578063715018a6146101dc5780637249fbb6146101e657806375151b6314610216578063768c6ec01461024657610121565b806302621338146101265780632ebc5356146101565780633220088214610174578063384efd2714610190575b600080fd5b610140600480360381019061013b9190612603565b6103d0565b60405161014d919061271d565b60405180910390f35b61015e61050e565b60405161016b9190612780565b60405180910390f35b61018e60048036038101906101899190612949565b610538565b005b6101aa60048036038101906101a59190612a70565b61064c565b6040516101b79190612b25565b60405180910390f35b6101da60048036038101906101d59190612b40565b610ba4565b005b6101e4610d56565b005b61020060048036038101906101fb9190612603565b610d6a565b60405161020d9190612b25565b60405180910390f35b610230600480360381019061022b9190612b80565b611003565b60405161023d9190612b25565b60405180910390f35b610260600480360381019061025b9190612603565b611059565b60405161026d9190612caa565b60405180910390f35b610290600480360381019061028b9190612603565b61128a565b60405161029d9190612cf5565b60405180910390f35b6102ae6112cb565b6040516102bb9190612780565b60405180910390f35b6102de60048036038101906102d99190612d3c565b6112f5565b005b6102e86114e2565b6040516102f793929190612dc9565b60405180910390f35b61031a60048036038101906103159190612b80565b611533565b005b61033660048036038101906103319190612e82565b61174a565b6040516103439190612f67565b60405180910390f35b61036660048036038101906103619190612b80565b611b8a565b6040516103739190612b25565b60405180910390f35b61039660048036038101906103919190612f82565b611be0565b005b6103b260048036038101906103ad9190612b80565b611c6c565b005b6103ce60048036038101906103c99190613001565b611cef565b005b60606000606c6000848152602001908152602001600020805480602002602001604051908101604052809291908181526020016000905b8282101561044d57838290600052602060002090600202016040518060400160405290816000820154815260200160018201548152505081526020019060010190610407565b50505050905060008151905060008167ffffffffffffffff811115610475576104746127b1565b5b6040519080825280602002602001820160405280156104ae57816020015b61049b612496565b8152602001906001900390816104935790505b50905060005b82811015610502578381815181106104cf576104ce613041565b5b60200260200101518282815181106104ea576104e9613041565b5b602002602001018190525080806001019150506104b4565b50809350505050919050565b6000606960009054906101000a900473ffffffffffffffffffffffffffffffffffffffff16905090565b610540611da6565b60008151905060005b8181101561064657606c600085815260200190815260200160002083828151811061057757610576613041565b5b602002602001015190806001815401808255809150506001900390600052602060002090600202016000909190919091506000820151816000015560208201518160010155505060405180604001604052808483815181106105dc576105db613041565b5b602002602001015160200151815260200185815250606d600085848151811061060857610607613041565b5b602002602001015160000151815260200190815260200160002060008201518160000155602082015181600101559050508080600101915050610549565b50505050565b6000606960009054906101000a900473ffffffffffffffffffffffffffffffffffffffff1673ffffffffffffffffffffffffffffffffffffffff163373ffffffffffffffffffffffffffffffffffffffff16146106d5576040517fe9d8299200000000000000000000000000000000000000000000000000000000815260040160405180910390fd5b606e6000878152602001908152602001600020600401600c9054906101000a900460ff1615610730576040517f56f1733f00000000000000000000000000000000000000000000000000000000815260040160405180910390fd5b6000606e600088815260200190815260200160002060010160009054906101000a900473ffffffffffffffffffffffffffffffffffffffff16905082606e600089815260200190815260200160002060050160148282829054906101000a90046bffffffffffffffffffffffff166107a8919061309f565b92506101000a8154816bffffffffffffffffffffffff02191690836bffffffffffffffffffffffff1602179055506000606e600089815260200190815260200160002060050160149054906101000a90046bffffffffffffffffffffffff166bffffffffffffffffffffffff160361084a576001606e6000898152602001908152602001600020600401600c6101000a81548160ff0219169083151502179055505b60006108568885611e24565b90506000606e60008a815260200190815260200160002060030154905060008111156108865761088589611f88565b5b8273ffffffffffffffffffffffffffffffffffffffff1663a9059cbb606760009054906101000a900473ffffffffffffffffffffffffffffffffffffffff1684600001516040518363ffffffff1660e01b81526004016108e79291906130df565b6020604051808303816000875af1158015610906573d6000803e3d6000fd5b505050506040513d601f19601f8201168201806040525081019061092a919061311d565b508273ffffffffffffffffffffffffffffffffffffffff1663a9059cbb8784602001516040518363ffffffff1660e01b815260040161096a9291906130df565b6020604051808303816000875af1158015610989573d6000803e3d6000fd5b505050506040513d601f19601f820116820180604052508101906109ad919061311d565b508273ffffffffffffffffffffffffffffffffffffffff1663a9059cbb606860009054906101000a900473ffffffffffffffffffffffffffffffffffffffff1684604001516040518363ffffffff1660e01b8152600401610a0f9291906130df565b6020604051808303816000875af1158015610a2e573d6000803e3d6000fd5b505050506040513d601f19601f82011682018060405250810190610a52919061311d565b506000606860009054906101000a900473ffffffffffffffffffffffffffffffffffffffff1673ffffffffffffffffffffffffffffffffffffffff1663d0e02d3a8b868c8c88604001516040518663ffffffff1660e01b8152600401610abc9594939291906131fe565b6020604051808303816000875af1158015610adb573d6000803e3d6000fd5b505050506040513d601f19601f82011682018060405250810190610aff919061311d565b905080610b41576040517f08c379a0000000000000000000000000000000000000000000000000000000008152600401610b38906132a9565b60405180910390fd5b8673ffffffffffffffffffffffffffffffffffffffff168a7f7b5664d3710676924bf38f3d89d38a62db3aa5fca4213adf6fa36e51c3cfc8548d89604051610b8a9291906132d8565b60405180910390a360019450505050509695505050505050565b610bac611da6565b600073ffffffffffffffffffffffffffffffffffffffff168173ffffffffffffffffffffffffffffffffffffffff1603610c12576040517f9c8e2b5d00000000000000000000000000000000000000000000000000000000815260040160405180910390fd5b7f66656500000000000000000000000000000000000000000000000000000000008203610c7b5780606760006101000a81548173ffffffffffffffffffffffffffffffffffffffff021916908373ffffffffffffffffffffffffffffffffffffffff1602179055505b7f61676772656761746f72000000000000000000000000000000000000000000008203610ce85780606960006101000a81548173ffffffffffffffffffffffffffffffffffffffff021916908373ffffffffffffffffffffffffffffffffffffffff160217905550610d52565b7f7374616b650000000000000000000000000000000000000000000000000000008203610d515780606860006101000a81548173ffffffffffffffffffffffffffffffffffffffff021916908373ffffffffffffffffffffffffffffffffffffffff1602179055505b5b5050565b610d5e611da6565b610d6860006120dc565b565b6000606960009054906101000a900473ffffffffffffffffffffffffffffffffffffffff1673ffffffffffffffffffffffffffffffffffffffff163373ffffffffffffffffffffffffffffffffffffffff1614610df3576040517fe9d8299200000000000000000000000000000000000000000000000000000000815260040160405180910390fd5b606e6000838152602001908152602001600020600401600c9054906101000a900460ff1615610e57576040517f08c379a0000000000000000000000000000000000000000000000000000000008152600401610e4e9061334d565b60405180910390fd5b6001606e6000848152602001908152602001600020600401600c6101000a81548160ff0219169083151502179055506000606e600084815260200190815260200160002060050160146101000a8154816bffffffffffffffffffffffff02191690836bffffffffffffffffffffffff160217905550606e600083815260200190815260200160002060010160009054906101000a900473ffffffffffffffffffffffffffffffffffffffff1673ffffffffffffffffffffffffffffffffffffffff1663a9059cbb606e600085815260200190815260200160002060050160009054906101000a900473ffffffffffffffffffffffffffffffffffffffff16606e6000868152602001908152602001600020600601546040518363ffffffff1660e01b8152600401610f899291906130df565b6020604051808303816000875af1158015610fa8573d6000803e3d6000fd5b505050506040513d601f19601f82011682018060405250810190610fcc919061311d565b50817ffe509803c09416b28ff3d8f690c8b0c61462a892c46d5430c8fb20abe472daf060405160405180910390a260019050919050565b6000606a60008373ffffffffffffffffffffffffffffffffffffffff1673ffffffffffffffffffffffffffffffffffffffff16815260200190815260200160002060009054906101000a900460ff169050919050565b6110616124b6565b606e6000838152602001908152602001600020604051806101200160405290816000820160009054906101000a900473ffffffffffffffffffffffffffffffffffffffff1673ffffffffffffffffffffffffffffffffffffffff1673ffffffffffffffffffffffffffffffffffffffff1681526020016001820160009054906101000a900473ffffffffffffffffffffffffffffffffffffffff1673ffffffffffffffffffffffffffffffffffffffff1673ffffffffffffffffffffffffffffffffffffffff1681526020016002820160009054906101000a900473ffffffffffffffffffffffffffffffffffffffff1673ffffffffffffffffffffffffffffffffffffffff1673ffffffffffffffffffffffffffffffffffffffff168152602001600382015481526020016004820160009054906101000a90046bffffffffffffffffffffffff166bffffffffffffffffffffffff166bffffffffffffffffffffffff16815260200160048201600c9054906101000a900460ff161515151581526020016005820160009054906101000a900473ffffffffffffffffffffffffffffffffffffffff1673ffffffffffffffffffffffffffffffffffffffff1673ffffffffffffffffffffffffffffffffffffffff1681526020016005820160149054906101000a90046bffffffffffffffffffffffff166bffffffffffffffffffffffff166bffffffffffffffffffffffff1681526020016006820154815250509050919050565b611292612578565b606d6000838152602001908152602001600020604051806040016040529081600082015481526020016001820154815250509050919050565b6000603360009054906101000a900473ffffffffffffffffffffffffffffffffffffffff16905090565b6112fd611da6565b600073ffffffffffffffffffffffffffffffffffffffff168273ffffffffffffffffffffffffffffffffffffffff1603611363576040517f9c8e2b5d00000000000000000000000000000000000000000000000000000000815260040160405180910390fd5b7f746f6b656e00000000000000000000000000000000000000000000000000000083036113e25780606a60008473ffffffffffffffffffffffffffffffffffffffff1673ffffffffffffffffffffffffffffffffffffffff16815260200190815260200160002060006101000a81548160ff0219169083151502179055505b7f77686974656c697374000000000000000000000000000000000000000000000083036114655780606b60008473ffffffffffffffffffffffffffffffffffffffff1673ffffffffffffffffffffffffffffffffffffffff16815260200190815260200160002060006101000a81548160ff0219169083151502179055506114a2565b826040517f48bae5b80000000000000000000000000000000000000000000000000000000081526004016114999190612f67565b60405180910390fd5b7fe22cadcc5ddbc0a185e8920eaa6825bcc06dcd6b432988e7e9912caa59ace9308383836040516114d59392919061336d565b60405180910390a1505050565b6000806000606660009054906101000a90046fffffffffffffffffffffffffffffffff16606660109054906101000a90046fffffffffffffffffffffffffffffffff16606554925092509250909192565b60008060019054906101000a900460ff161590508080156115645750600160008054906101000a900460ff1660ff16105b806115915750611573306121a2565b1580156115905750600160008054906101000a900460ff1660ff16145b5b6115d0576040517f08c379a00000000000000000000000000000000000000000000000000000000081526004016115c790613416565b60405180910390fd5b60016000806101000a81548160ff021916908360ff160217905550801561160d576001600060016101000a81548160ff0219169083151502179055505b6001606a60008473ffffffffffffffffffffffffffffffffffffffff1673ffffffffffffffffffffffffffffffffffffffff16815260200190815260200160002060006101000a81548160ff021916908315150217905550620186a0606581905550611388606660006101000a8154816fffffffffffffffffffffffffffffffff02191690836fffffffffffffffffffffffffffffffff1602179055506101f4606660106101000a8154816fffffffffffffffffffffffffffffffff02191690836fffffffffffffffffffffffffffffffff1602179055506116ed6121c5565b80156117465760008060016101000a81548160ff0219169083151502179055507f7f26b83ff96e1f2b6a682f133852f6798a09c465da95921460cefb3847402498600160405161173d9190613488565b60405180910390a15b5050565b60006117598a8a86898c61221e565b8973ffffffffffffffffffffffffffffffffffffffff166323b872dd33308c6040518463ffffffff1660e01b8152600401611796939291906134a3565b6020604051808303816000875af11580156117b5573d6000803e3d6000fd5b505050506040513d601f19601f820116820180604052508101906117d9919061311d565b50606f60003373ffffffffffffffffffffffffffffffffffffffff1673ffffffffffffffffffffffffffffffffffffffff168152602001908152602001600020600081548092919061182a906134da565b919050555033606f60003373ffffffffffffffffffffffffffffffffffffffff1673ffffffffffffffffffffffffffffffffffffffff168152602001908152602001600020546040516020016118819291906130df565b6040516020818303038152906040528051906020012090506040518061012001604052803373ffffffffffffffffffffffffffffffffffffffff1681526020018b73ffffffffffffffffffffffffffffffffffffffff1681526020018773ffffffffffffffffffffffffffffffffffffffff168152602001868152602001886bffffffffffffffffffffffff1681526020016000151581526020018573ffffffffffffffffffffffffffffffffffffffff1681526020016065546bffffffffffffffffffffffff1681526020018a815250606e600083815260200190815260200160002060008201518160000160006101000a81548173ffffffffffffffffffffffffffffffffffffffff021916908373ffffffffffffffffffffffffffffffffffffffff16021790555060208201518160010160006101000a81548173ffffffffffffffffffffffffffffffffffffffff021916908373ffffffffffffffffffffffffffffffffffffffff16021790555060408201518160020160006101000a81548173ffffffffffffffffffffffffffffffffffffffff021916908373ffffffffffffffffffffffffffffffffffffffff1602179055506060820151816003015560808201518160040160006101000a8154816bffffffffffffffffffffffff02191690836bffffffffffffffffffffffff16021790555060a082015181600401600c6101000a81548160ff02191690831515021790555060c08201518160050160006101000a81548173ffffffffffffffffffffffffffffffffffffffff021916908373ffffffffffffffffffffffffffffffffffffffff16021790555060e08201518160050160146101000a8154816bffffffffffffffffffffffff02191690836bffffffffffffffffffffffff160217905550610100820151816006015590505080898b73ffffffffffffffffffffffffffffffffffffffff167f34e33f86eb59d668184e1f86aeb03ed25f4ce72216218ed02db752f21c6a40428a8c8888604051611b75949392919061358f565b60405180910390a49998505050505050505050565b6000606b60008373ffffffffffffffffffffffffffffffffffffffff1673ffffffffffffffffffffffffffffffffffffffff16815260200190815260200160002060009054906101000a900460ff169050919050565b611be8611da6565b8273ffffffffffffffffffffffffffffffffffffffff1663a9059cbb83836040518363ffffffff1660e01b8152600401611c239291906130df565b6020604051808303816000875af1158015611c42573d6000803e3d6000fd5b505050506040513d601f19601f82011682018060405250810190611c66919061311d565b50505050565b611c74611da6565b600073ffffffffffffffffffffffffffffffffffffffff168173ffffffffffffffffffffffffffffffffffffffff1603611ce3576040517f08c379a0000000000000000000000000000000000000000000000000000000008152600401611cda90613641565b60405180910390fd5b611cec816120dc565b50565b611cf7611da6565b81606660006101000a8154816fffffffffffffffffffffffffffffffff02191690836fffffffffffffffffffffffffffffffff16021790555080606660106101000a8154816fffffffffffffffffffffffffffffffff02191690836fffffffffffffffffffffffffffffffff1602179055507fe38926c5806b98a6fd00c5d791a36fbd196537fe48d11c45c9f1d0acd1ea74df8282604051611d9a929190613661565b60405180910390a15050565b611dae61242d565b73ffffffffffffffffffffffffffffffffffffffff16611dcc6112cb565b73ffffffffffffffffffffffffffffffffffffffff1614611e22576040517f08c379a0000000000000000000000000000000000000000000000000000000008152600401611e19906136d6565b60405180910390fd5b565b611e2c612598565b6000606e6000858152602001908152602001600020600601549050606e60008581526020019081526020016000206003015481611e6991906136f6565b9050606554836bffffffffffffffffffffffff1682611e88919061372a565b611e92919061379b565b826020018181525050606554606660009054906101000a90046fffffffffffffffffffffffffffffffff166fffffffffffffffffffffffffffffffff168360200151611ede919061372a565b611ee8919061379b565b82600001818152505081600001518260200151611f0591906136f6565b826020018181525050606554606660109054906101000a90046fffffffffffffffffffffffffffffffff166fffffffffffffffffffffffffffffffff168360000151611f51919061372a565b611f5b919061379b565b82604001818152505081604001518260000151611f7891906136f6565b8260000181815250505092915050565b6000606e600083815260200190815260200160002060020160009054906101000a900473ffffffffffffffffffffffffffffffffffffffff1690506000606e6000848152602001908152602001600020600301549050606e600084815260200190815260200160002060010160009054906101000a900473ffffffffffffffffffffffffffffffffffffffff1673ffffffffffffffffffffffffffffffffffffffff1663a9059cbb83836040518363ffffffff1660e01b815260040161204f9291906130df565b6020604051808303816000875af115801561206e573d6000803e3d6000fd5b505050506040513d601f19601f82011682018060405250810190612092919061311d565b50808273ffffffffffffffffffffffffffffffffffffffff167f96c76d5aec8a8c11a9c8e02768e3fa309347330d08961e0cf9fd43b349b684c260405160405180910390a3505050565b6000603360009054906101000a900473ffffffffffffffffffffffffffffffffffffffff16905081603360006101000a81548173ffffffffffffffffffffffffffffffffffffffff021916908373ffffffffffffffffffffffffffffffffffffffff1602179055508173ffffffffffffffffffffffffffffffffffffffff168173ffffffffffffffffffffffffffffffffffffffff167f8be0079c531659141344cd1fd0a4f28419497f9722a3daafe3b4186f6b6457e060405160405180910390a35050565b6000808273ffffffffffffffffffffffffffffffffffffffff163b119050919050565b600060019054906101000a900460ff16612214576040517f08c379a000000000000000000000000000000000000000000000000000000000815260040161220b9061383e565b60405180910390fd5b61221c612435565b565b606a60008673ffffffffffffffffffffffffffffffffffffffff1673ffffffffffffffffffffffffffffffffffffffff16815260200190815260200160002060009054906101000a900460ff166122aa576040517f08c379a00000000000000000000000000000000000000000000000000000000081526004016122a1906138aa565b60405180910390fd5b600084116122ed576040517f08c379a00000000000000000000000000000000000000000000000000000000081526004016122e490613916565b60405180910390fd5b600073ffffffffffffffffffffffffffffffffffffffff168373ffffffffffffffffffffffffffffffffffffffff160361235c576040517f08c379a000000000000000000000000000000000000000000000000000000000815260040161235390613982565b60405180910390fd5b600073ffffffffffffffffffffffffffffffffffffffff168273ffffffffffffffffffffffffffffffffffffffff16036123cb576040517f08c379a00000000000000000000000000000000000000000000000000000000081526004016123c290613982565b60405180910390fd5b6000801b606d60008381526020019081526020016000206000015403612426576040517f08c379a000000000000000000000000000000000000000000000000000000000815260040161241d906139ee565b60405180910390fd5b5050505050565b600033905090565b600060019054906101000a900460ff16612484576040517f08c379a000000000000000000000000000000000000000000000000000000000815260040161247b9061383e565b60405180910390fd5b61249461248f61242d565b6120dc565b565b604051806040016040528060008019168152602001600080191681525090565b604051806101200160405280600073ffffffffffffffffffffffffffffffffffffffff168152602001600073ffffffffffffffffffffffffffffffffffffffff168152602001600073ffffffffffffffffffffffffffffffffffffffff1681526020016000815260200160006bffffffffffffffffffffffff168152602001600015158152602001600073ffffffffffffffffffffffffffffffffffffffff16815260200160006bffffffffffffffffffffffff168152602001600081525090565b604051806040016040528060008019168152602001600080191681525090565b60405180606001604052806000815260200160008152602001600081525090565b6000604051905090565b600080fd5b600080fd5b6000819050919050565b6125e0816125cd565b81146125eb57600080fd5b50565b6000813590506125fd816125d7565b92915050565b600060208284031215612619576126186125c3565b5b6000612627848285016125ee565b91505092915050565b600081519050919050565b600082825260208201905092915050565b6000819050602082019050919050565b612665816125cd565b82525050565b604082016000820151612681600085018261265c565b506020820151612694602085018261265c565b50505050565b60006126a6838361266b565b60408301905092915050565b6000602082019050919050565b60006126ca82612630565b6126d4818561263b565b93506126df8361264c565b8060005b838110156127105781516126f7888261269a565b9750612702836126b2565b9250506001810190506126e3565b5085935050505092915050565b6000602082019050818103600083015261273781846126bf565b905092915050565b600073ffffffffffffffffffffffffffffffffffffffff82169050919050565b600061276a8261273f565b9050919050565b61277a8161275f565b82525050565b60006020820190506127956000830184612771565b92915050565b600080fd5b6000601f19601f8301169050919050565b7f4e487b7100000000000000000000000000000000000000000000000000000000600052604160045260246000fd5b6127e9826127a0565b810181811067ffffffffffffffff82111715612808576128076127b1565b5b80604052505050565b600061281b6125b9565b905061282782826127e0565b919050565b600067ffffffffffffffff821115612847576128466127b1565b5b602082029050602081019050919050565b600080fd5b600080fd5b6000604082840312156128785761287761285d565b5b6128826040612811565b90506000612892848285016125ee565b60008301525060206128a6848285016125ee565b60208301525092915050565b60006128c56128c08461282c565b612811565b905080838252602082019050604084028301858111156128e8576128e7612858565b5b835b8181101561291157806128fd8882612862565b8452602084019350506040810190506128ea565b5050509392505050565b600082601f8301126129305761292f61279b565b5b81356129408482602086016128b2565b91505092915050565b600080604083850312156129605761295f6125c3565b5b600061296e858286016125ee565b925050602083013567ffffffffffffffff81111561298f5761298e6125c8565b5b61299b8582860161291b565b9150509250929050565b600080fd5b60008083601f8401126129c0576129bf61279b565b5b8235905067ffffffffffffffff8111156129dd576129dc6129a5565b5b6020830191508360208202830111156129f9576129f8612858565b5b9250929050565b612a098161275f565b8114612a1457600080fd5b50565b600081359050612a2681612a00565b92915050565b60006bffffffffffffffffffffffff82169050919050565b612a4d81612a2c565b8114612a5857600080fd5b50565b600081359050612a6a81612a44565b92915050565b60008060008060008060a08789031215612a8d57612a8c6125c3565b5b6000612a9b89828a016125ee565b9650506020612aac89828a016125ee565b955050604087013567ffffffffffffffff811115612acd57612acc6125c8565b5b612ad989828a016129aa565b94509450506060612aec89828a01612a17565b9250506080612afd89828a01612a5b565b9150509295509295509295565b60008115159050919050565b612b1f81612b0a565b82525050565b6000602082019050612b3a6000830184612b16565b92915050565b60008060408385031215612b5757612b566125c3565b5b6000612b65858286016125ee565b9250506020612b7685828601612a17565b9150509250929050565b600060208284031215612b9657612b956125c3565b5b6000612ba484828501612a17565b91505092915050565b612bb68161275f565b82525050565b6000819050919050565b612bcf81612bbc565b82525050565b612bde81612a2c565b82525050565b612bed81612b0a565b82525050565b61012082016000820151612c0a6000850182612bad565b506020820151612c1d6020850182612bad565b506040820151612c306040850182612bad565b506060820151612c436060850182612bc6565b506080820151612c566080850182612bd5565b5060a0820151612c6960a0850182612be4565b5060c0820151612c7c60c0850182612bad565b5060e0820151612c8f60e0850182612bd5565b50610100820151612ca4610100850182612bc6565b50505050565b600061012082019050612cc06000830184612bf3565b92915050565b604082016000820151612cdc600085018261265c565b506020820151612cef602085018261265c565b50505050565b6000604082019050612d0a6000830184612cc6565b92915050565b612d1981612b0a565b8114612d2457600080fd5b50565b600081359050612d3681612d10565b92915050565b600080600060608486031215612d5557612d546125c3565b5b6000612d63868287016125ee565b9350506020612d7486828701612a17565b9250506040612d8586828701612d27565b9150509250925092565b60006fffffffffffffffffffffffffffffffff82169050919050565b612db481612d8f565b82525050565b612dc381612bbc565b82525050565b6000606082019050612dde6000830186612dab565b612deb6020830185612dab565b612df86040830184612dba565b949350505050565b612e0981612bbc565b8114612e1457600080fd5b50565b600081359050612e2681612e00565b92915050565b60008083601f840112612e4257612e4161279b565b5b8235905067ffffffffffffffff811115612e5f57612e5e6129a5565b5b602083019150836001820283011115612e7b57612e7a612858565b5b9250929050565b60008060008060008060008060006101008a8c031215612ea557612ea46125c3565b5b6000612eb38c828d01612a17565b9950506020612ec48c828d01612e17565b9850506040612ed58c828d016125ee565b9750506060612ee68c828d01612a5b565b9650506080612ef78c828d01612a17565b95505060a0612f088c828d01612e17565b94505060c0612f198c828d01612a17565b93505060e08a013567ffffffffffffffff811115612f3a57612f396125c8565b5b612f468c828d01612e2c565b92509250509295985092959850929598565b612f61816125cd565b82525050565b6000602082019050612f7c6000830184612f58565b92915050565b600080600060608486031215612f9b57612f9a6125c3565b5b6000612fa986828701612a17565b9350506020612fba86828701612a17565b9250506040612fcb86828701612e17565b9150509250925092565b612fde81612d8f565b8114612fe957600080fd5b50565b600081359050612ffb81612fd5565b92915050565b60008060408385031215613018576130176125c3565b5b600061302685828601612fec565b925050602061303785828601612fec565b9150509250929050565b7f4e487b7100000000000000000000000000000000000000000000000000000000600052603260045260246000fd5b7f4e487b7100000000000000000000000000000000000000000000000000000000600052601160045260246000fd5b60006130aa82612a2c565b91506130b583612a2c565b925082820390506bffffffffffffffffffffffff8111156130d9576130d8613070565b5b92915050565b60006040820190506130f46000830185612771565b6131016020830184612dba565b9392505050565b60008151905061311781612d10565b92915050565b600060208284031215613133576131326125c3565b5b600061314184828501613108565b91505092915050565b600082825260208201905092915050565b6000819050919050565b60006131718383612bad565b60208301905092915050565b600061318c6020840184612a17565b905092915050565b6000602082019050919050565b60006131ad838561314a565b93506131b88261315b565b8060005b858110156131f1576131ce828461317d565b6131d88882613165565b97506131e383613194565b9250506001810190506131bc565b5085925050509392505050565b60006080820190506132136000830188612f58565b6132206020830187612771565b81810360408301526132338185876131a1565b90506132426060830184612dba565b9695505050505050565b600082825260208201905092915050565b7f556e61626c65546f50726f636573735265776172647300000000000000000000600082015250565b600061329360168361324c565b915061329e8261325d565b602082019050919050565b600060208201905081810360008301526132c281613286565b9050919050565b6132d281612a2c565b82525050565b60006040820190506132ed6000830185612f58565b6132fa60208301846132c9565b9392505050565b7f4f7264657246756c66696c6c6564000000000000000000000000000000000000600082015250565b6000613337600e8361324c565b915061334282613301565b602082019050919050565b600060208201905081810360008301526133668161332a565b9050919050565b60006060820190506133826000830186612f58565b61338f6020830185612771565b61339c6040830184612b16565b949350505050565b7f496e697469616c697a61626c653a20636f6e747261637420697320616c72656160008201527f647920696e697469616c697a6564000000000000000000000000000000000000602082015250565b6000613400602e8361324c565b915061340b826133a4565b604082019050919050565b6000602082019050818103600083015261342f816133f3565b9050919050565b6000819050919050565b600060ff82169050919050565b6000819050919050565b600061347261346d61346884613436565b61344d565b613440565b9050919050565b61348281613457565b82525050565b600060208201905061349d6000830184613479565b92915050565b60006060820190506134b86000830186612771565b6134c56020830185612771565b6134d26040830184612dba565b949350505050565b60006134e582612bbc565b91507fffffffffffffffffffffffffffffffffffffffffffffffffffffffffffffffff820361351757613516613070565b5b600182019050919050565b600061353d61353861353384612a2c565b61344d565b612bbc565b9050919050565b61354d81613522565b82525050565b82818337600083830152505050565b600061356e838561324c565b935061357b838584613553565b613584836127a0565b840190509392505050565b60006060820190506135a46000830187613544565b6135b16020830186612f58565b81810360408301526135c4818486613562565b905095945050505050565b7f4f776e61626c653a206e6577206f776e657220697320746865207a65726f206160008201527f6464726573730000000000000000000000000000000000000000000000000000602082015250565b600061362b60268361324c565b9150613636826135cf565b604082019050919050565b6000602082019050818103600083015261365a8161361e565b9050919050565b60006040820190506136766000830185612dab565b6136836020830184612dab565b9392505050565b7f4f776e61626c653a2063616c6c6572206973206e6f7420746865206f776e6572600082015250565b60006136c060208361324c565b91506136cb8261368a565b602082019050919050565b600060208201905081810360008301526136ef816136b3565b9050919050565b600061370182612bbc565b915061370c83612bbc565b925082820390508181111561372457613723613070565b5b92915050565b600061373582612bbc565b915061374083612bbc565b925082820261374e81612bbc565b9150828204841483151761376557613764613070565b5b5092915050565b7f4e487b7100000000000000000000000000000000000000000000000000000000600052601260045260246000fd5b60006137a682612bbc565b91506137b183612bbc565b9250826137c1576137c061376c565b5b828204905092915050565b7f496e697469616c697a61626c653a20636f6e7472616374206973206e6f74206960008201527f6e697469616c697a696e67000000000000000000000000000000000000000000602082015250565b6000613828602b8361324c565b9150613833826137cc565b604082019050919050565b600060208201905081810360008301526138578161381b565b9050919050565b7f546f6b656e4e6f74537570706f72746564000000000000000000000000000000600082015250565b600061389460118361324c565b915061389f8261385e565b602082019050919050565b600060208201905081810360008301526138c381613887565b9050919050565b7f416d6f756e7449735a65726f0000000000000000000000000000000000000000600082015250565b6000613900600c8361324c565b915061390b826138ca565b602082019050919050565b6000602082019050818103600083015261392f816138f3565b9050919050565b7f5468726f775a65726f4164647265737300000000000000000000000000000000600082015250565b600061396c60108361324c565b915061397782613936565b602082019050919050565b6000602082019050818103600083015261399b8161395f565b9050919050565b7f496e76616c6964496e737469747574696f6e436f646500000000000000000000600082015250565b60006139d860168361324c565b91506139e3826139a2565b602082019050919050565b60006020820190508181036000830152613a07816139cb565b905091905056fea26469706673582212207d7380cdb924f629812e90a3c8d6e56535b49b3b98ca34356cbbac50e165f93264736f6c63430008120033",
  "linkReferences": {},
  "deployedLinkReferences": {}
}