{
  "_format": "hh-sol-artifact-1",
  "contractName": "Paycrest",
  "sourceName": "contracts/Paycrest.sol",
  "abi": [
    {
      "inputs": [],
      "stateMutability": "nonpayable",
      "type": "constructor"
    },
    {
      "inputs": [],
      "name": "AmountIsZero",
      "type": "error"
    },
    {
      "inputs": [
        {
          "internalType": "bytes32",
          "name": "what",
          "type": "bytes32"
        }
      ],
      "name": "InvalidInstitutionCode",
      "type": "error"
    },
    {
      "inputs": [],
      "name": "InvalidSigner",
      "type": "error"
    },
    {
      "inputs": [],
      "name": "NotWhitelisted",
      "type": "error"
    },
    {
      "inputs": [],
      "name": "OnlyAggregator",
      "type": "error"
    },
    {
      "inputs": [],
      "name": "OrderFulfilled",
      "type": "error"
    },
    {
      "inputs": [],
      "name": "UnableToProcessRewards",
      "type": "error"
    },
    {
      "inputs": [],
      "name": "Unsuported",
      "type": "error"
    },
    {
      "anonymous": false,
      "inputs": [
        {
          "indexed": true,
          "internalType": "address",
          "name": "token",
          "type": "address"
        },
        {
          "indexed": true,
          "internalType": "uint256",
          "name": "amount",
          "type": "uint256"
        },
        {
          "indexed": true,
          "internalType": "bytes32",
          "name": "orderId",
          "type": "bytes32"
        },
        {
          "indexed": false,
          "internalType": "uint256",
          "name": "rate",
          "type": "uint256"
        },
        {
          "indexed": false,
          "internalType": "bytes32",
          "name": "institutionCode",
          "type": "bytes32"
        },
        {
          "indexed": false,
          "internalType": "bytes32",
          "name": "label",
          "type": "bytes32"
        },
        {
          "indexed": false,
          "internalType": "string",
          "name": "messageHash",
          "type": "string"
        }
      ],
      "name": "Deposit",
      "type": "event"
    },
    {
      "anonymous": false,
      "inputs": [
        {
          "indexed": false,
          "internalType": "uint8",
          "name": "version",
          "type": "uint8"
        }
      ],
      "name": "Initialized",
      "type": "event"
    },
    {
      "anonymous": false,
      "inputs": [
        {
          "indexed": true,
          "internalType": "address",
          "name": "previousOwner",
          "type": "address"
        },
        {
          "indexed": true,
          "internalType": "address",
          "name": "newOwner",
          "type": "address"
        }
      ],
      "name": "OwnershipTransferred",
      "type": "event"
    },
    {
      "anonymous": false,
      "inputs": [
        {
          "indexed": false,
          "internalType": "uint128",
          "name": "protocolFee",
          "type": "uint128"
        },
        {
          "indexed": false,
          "internalType": "uint128",
          "name": "validatorFeePercent",
          "type": "uint128"
        }
      ],
      "name": "PaycrestFees",
      "type": "event"
    },
    {
      "anonymous": false,
      "inputs": [
        {
          "indexed": true,
          "internalType": "bytes32",
          "name": "orderId",
          "type": "bytes32"
        },
        {
          "indexed": false,
          "internalType": "bytes32",
          "name": "label",
          "type": "bytes32"
        }
      ],
      "name": "Refunded",
      "type": "event"
    },
    {
      "anonymous": false,
      "inputs": [
        {
          "indexed": true,
          "internalType": "address",
          "name": "validator",
          "type": "address"
        },
        {
          "indexed": true,
          "internalType": "uint256",
          "name": "amount",
          "type": "uint256"
        }
      ],
      "name": "RewardValidator",
      "type": "event"
    },
    {
      "anonymous": false,
      "inputs": [
        {
          "indexed": false,
          "internalType": "bytes",
          "name": "aggregator",
          "type": "bytes"
        }
      ],
      "name": "SetAggregator",
      "type": "event"
    },
    {
      "anonymous": false,
      "inputs": [
        {
          "indexed": false,
          "internalType": "address",
          "name": "feeRecipient",
          "type": "address"
        }
      ],
      "name": "SetFeeRecipient",
      "type": "event"
    },
    {
      "anonymous": false,
      "inputs": [
        {
          "indexed": false,
          "internalType": "bytes32",
          "name": "what",
          "type": "bytes32"
        },
        {
          "indexed": false,
          "internalType": "address",
          "name": "value",
          "type": "address"
        },
        {
          "indexed": false,
          "internalType": "bool",
          "name": "status",
          "type": "bool"
        }
      ],
      "name": "SettingManagerBool",
      "type": "event"
    },
    {
      "anonymous": false,
      "inputs": [
        {
          "indexed": false,
          "internalType": "bytes32",
          "name": "_splitOrderId",
          "type": "bytes32"
        },
        {
          "indexed": true,
          "internalType": "bytes32",
          "name": "orderId",
          "type": "bytes32"
        },
        {
          "indexed": false,
          "internalType": "bytes32",
          "name": "label",
          "type": "bytes32"
        },
        {
          "indexed": true,
          "internalType": "address",
          "name": "liquidityProvider",
          "type": "address"
        },
        {
          "indexed": false,
          "internalType": "uint96",
          "name": "settlePercent",
          "type": "uint96"
        }
      ],
      "name": "Settled",
      "type": "event"
    },
    {
      "anonymous": false,
      "inputs": [
        {
          "indexed": true,
          "internalType": "address",
          "name": "sender",
          "type": "address"
        },
        {
          "indexed": true,
          "internalType": "uint256",
          "name": "amount",
          "type": "uint256"
        }
      ],
      "name": "TransferSenderFee",
      "type": "event"
    },
    {
      "inputs": [
        {
          "internalType": "address",
          "name": "_token",
          "type": "address"
        },
        {
          "internalType": "uint256",
          "name": "_amount",
          "type": "uint256"
        },
        {
          "internalType": "bytes32",
          "name": "_institutionCode",
          "type": "bytes32"
        },
        {
          "internalType": "bytes32",
          "name": "_label",
          "type": "bytes32"
        },
        {
          "internalType": "uint96",
          "name": "_rate",
          "type": "uint96"
        },
        {
          "internalType": "address",
          "name": "_senderFeeRecipient",
          "type": "address"
        },
        {
          "internalType": "uint256",
          "name": "_senderFee",
          "type": "uint256"
        },
        {
          "internalType": "address",
          "name": "_refundAddress",
          "type": "address"
        },
        {
          "internalType": "string",
          "name": "messageHash",
          "type": "string"
        }
      ],
      "name": "createOrder",
      "outputs": [
        {
          "internalType": "bytes32",
          "name": "orderId",
          "type": "bytes32"
        }
      ],
      "stateMutability": "nonpayable",
      "type": "function"
    },
    {
      "inputs": [],
      "name": "getAggregator",
      "outputs": [
        {
          "internalType": "bytes",
          "name": "",
          "type": "bytes"
        }
      ],
      "stateMutability": "view",
      "type": "function"
    },
    {
      "inputs": [],
      "name": "getFeeDetails",
      "outputs": [
        {
          "internalType": "uint128",
          "name": "",
          "type": "uint128"
        },
        {
          "internalType": "uint128",
          "name": "",
          "type": "uint128"
        },
        {
          "internalType": "uint256",
          "name": "",
          "type": "uint256"
        }
      ],
      "stateMutability": "view",
      "type": "function"
    },
    {
      "inputs": [],
      "name": "getLiquidityAggregator",
      "outputs": [
        {
          "internalType": "address",
          "name": "",
          "type": "address"
        }
      ],
      "stateMutability": "view",
      "type": "function"
    },
    {
      "inputs": [
        {
          "internalType": "bytes32",
          "name": "_orderId",
          "type": "bytes32"
        }
      ],
      "name": "getOrderInfo",
      "outputs": [
        {
          "components": [
            {
              "internalType": "address",
              "name": "seller",
              "type": "address"
            },
            {
              "internalType": "address",
              "name": "token",
              "type": "address"
            },
            {
              "internalType": "address",
              "name": "senderFeeRecipient",
              "type": "address"
            },
            {
              "internalType": "uint256",
              "name": "senderFee",
              "type": "uint256"
            },
            {
              "internalType": "uint96",
              "name": "rate",
              "type": "uint96"
            },
            {
              "internalType": "bool",
              "name": "isFulfilled",
              "type": "bool"
            },
            {
              "internalType": "address",
              "name": "refundAddress",
              "type": "address"
            },
            {
              "internalType": "uint96",
              "name": "currentBPS",
              "type": "uint96"
            },
            {
              "internalType": "uint256",
              "name": "amount",
              "type": "uint256"
            }
          ],
          "internalType": "struct IPaycrest.Order",
          "name": "",
          "type": "tuple"
        }
      ],
      "stateMutability": "view",
      "type": "function"
    },
    {
      "inputs": [
        {
          "internalType": "bytes32",
          "name": "code",
          "type": "bytes32"
        }
      ],
      "name": "getSupportedInstitutionName",
      "outputs": [
        {
          "components": [
            {
              "internalType": "bytes32",
              "name": "name",
              "type": "bytes32"
            },
            {
              "internalType": "bytes32",
              "name": "currency",
              "type": "bytes32"
            }
          ],
          "internalType": "struct PaycrestSettingManager.InstitutionByCode",
          "name": "",
          "type": "tuple"
        }
      ],
      "stateMutability": "view",
      "type": "function"
    },
    {
      "inputs": [
        {
          "internalType": "bytes32",
          "name": "currency",
          "type": "bytes32"
        }
      ],
      "name": "getSupportedInstitutions",
      "outputs": [
        {
          "components": [
            {
              "internalType": "bytes32",
              "name": "code",
              "type": "bytes32"
            },
            {
              "internalType": "bytes32",
              "name": "name",
              "type": "bytes32"
            }
          ],
          "internalType": "struct PaycrestSettingManager.Institution[]",
          "name": "",
          "type": "tuple[]"
        }
      ],
      "stateMutability": "view",
      "type": "function"
    },
    {
      "inputs": [
        {
          "internalType": "address",
          "name": "sender",
          "type": "address"
        }
      ],
      "name": "getWhitelistedStatus",
      "outputs": [
        {
          "internalType": "bool",
          "name": "",
          "type": "bool"
        }
      ],
      "stateMutability": "view",
      "type": "function"
    },
    {
      "inputs": [
        {
          "internalType": "address",
          "name": "_usdc",
          "type": "address"
        }
      ],
      "name": "initialize",
      "outputs": [],
      "stateMutability": "nonpayable",
      "type": "function"
    },
    {
      "inputs": [
        {
          "internalType": "address",
          "name": "_token",
          "type": "address"
        }
      ],
      "name": "isTokenSupported",
      "outputs": [
        {
          "internalType": "bool",
          "name": "",
          "type": "bool"
        }
      ],
      "stateMutability": "view",
      "type": "function"
    },
    {
      "inputs": [],
      "name": "owner",
      "outputs": [
        {
          "internalType": "address",
          "name": "",
          "type": "address"
        }
      ],
      "stateMutability": "view",
      "type": "function"
    },
    {
      "inputs": [
        {
          "internalType": "bytes32",
          "name": "_orderId",
          "type": "bytes32"
        },
        {
          "internalType": "bytes32",
          "name": "_label",
          "type": "bytes32"
        }
      ],
      "name": "refund",
      "outputs": [
        {
          "internalType": "bool",
          "name": "",
          "type": "bool"
        }
      ],
      "stateMutability": "nonpayable",
      "type": "function"
    },
    {
      "inputs": [],
      "name": "renounceOwnership",
      "outputs": [],
      "stateMutability": "nonpayable",
      "type": "function"
    },
    {
      "inputs": [
        {
          "internalType": "bytes32",
          "name": "currency",
          "type": "bytes32"
        },
        {
          "components": [
            {
              "internalType": "bytes32",
              "name": "code",
              "type": "bytes32"
            },
            {
              "internalType": "bytes32",
              "name": "name",
              "type": "bytes32"
            }
          ],
          "internalType": "struct PaycrestSettingManager.Institution[]",
          "name": "institutions",
          "type": "tuple[]"
        }
      ],
      "name": "setSupportedInstitutions",
      "outputs": [],
      "stateMutability": "nonpayable",
      "type": "function"
    },
    {
      "inputs": [
        {
          "internalType": "bytes32",
          "name": "what",
          "type": "bytes32"
        },
        {
          "internalType": "address",
          "name": "value",
          "type": "address"
        },
        {
          "internalType": "bool",
          "name": "status",
          "type": "bool"
        }
      ],
      "name": "settingManagerBool",
      "outputs": [],
      "stateMutability": "nonpayable",
      "type": "function"
    },
    {
      "inputs": [
        {
          "internalType": "bytes32",
          "name": "_splitOrderId",
          "type": "bytes32"
        },
        {
          "internalType": "bytes32",
          "name": "_orderId",
          "type": "bytes32"
        },
        {
          "internalType": "bytes32",
          "name": "_label",
          "type": "bytes32"
        },
        {
          "internalType": "address[]",
          "name": "_validators",
          "type": "address[]"
        },
        {
          "internalType": "address",
          "name": "_liquidityProvider",
          "type": "address"
        },
        {
          "internalType": "uint96",
          "name": "_settlePercent",
          "type": "uint96"
        }
      ],
      "name": "settle",
      "outputs": [
        {
          "internalType": "bytes32",
          "name": "",
          "type": "bytes32"
        },
        {
          "internalType": "address",
          "name": "",
          "type": "address"
        }
      ],
      "stateMutability": "nonpayable",
      "type": "function"
    },
    {
      "inputs": [
        {
          "internalType": "address",
          "name": "newOwner",
          "type": "address"
        }
      ],
      "name": "transferOwnership",
      "outputs": [],
      "stateMutability": "nonpayable",
      "type": "function"
    },
    {
      "inputs": [
        {
          "internalType": "bytes32",
          "name": "what",
          "type": "bytes32"
        },
        {
          "internalType": "address",
          "name": "value",
          "type": "address"
        }
      ],
      "name": "updateProtocolAddresses",
      "outputs": [],
      "stateMutability": "nonpayable",
      "type": "function"
    },
    {
      "inputs": [
        {
          "internalType": "bytes",
          "name": "aggregator",
          "type": "bytes"
        }
      ],
      "name": "updateProtocolAggregator",
      "outputs": [],
      "stateMutability": "nonpayable",
      "type": "function"
    },
    {
      "inputs": [
        {
          "internalType": "uint128",
          "name": "_protocolFeePercent",
          "type": "uint128"
        },
        {
          "internalType": "uint128",
          "name": "_validatorFeePercent",
          "type": "uint128"
        }
      ],
      "name": "updateProtocolFees",
      "outputs": [],
      "stateMutability": "nonpayable",
      "type": "function"
    },
    {
      "inputs": [
        {
          "internalType": "address",
          "name": "_token",
          "type": "address"
        },
        {
          "internalType": "address",
          "name": "_recipient",
          "type": "address"
        },
        {
          "internalType": "uint256",
          "name": "_amount",
          "type": "uint256"
        }
      ],
      "name": "withdraw",
      "outputs": [],
      "stateMutability": "nonpayable",
      "type": "function"
    }
  ],
  "bytecode": "0x60806040523480156200001157600080fd5b50620000226200002860201b60201c565b620001d2565b600060019054906101000a900460ff16156200007b576040517f08c379a0000000000000000000000000000000000000000000000000000000008152600401620000729062000175565b60405180910390fd5b60ff801660008054906101000a900460ff1660ff1614620000ec5760ff6000806101000a81548160ff021916908360ff1602179055507f7f26b83ff96e1f2b6a682f133852f6798a09c465da95921460cefb384740249860ff604051620000e39190620001b5565b60405180910390a15b565b600082825260208201905092915050565b7f496e697469616c697a61626c653a20636f6e747261637420697320696e69746960008201527f616c697a696e6700000000000000000000000000000000000000000000000000602082015250565b60006200015d602783620000ee565b91506200016a82620000ff565b604082019050919050565b6000602082019050818103600083015262000190816200014e565b9050919050565b600060ff82169050919050565b620001af8162000197565b82525050565b6000602082019050620001cc6000830184620001a4565b92915050565b613e3280620001e26000396000f3fe608060405234801561001057600080fd5b50600436106101375760003560e01c806387490d86116100b8578063cb79455b1161007c578063cb79455b14610351578063d12ff20a1461036d578063d8e8de341461039d578063d9caed12146103cd578063f2fde38b146103e9578063f5326b191461040557610137565b806387490d86146102ab5780638da5cb5b146102db57806399e3c0b4146102f9578063b810c63614610315578063c4d66de81461033557610137565b8063715018a6116100ff578063715018a6146101f55780637249fbb6146101ff57806375151b631461022f578063768c6ec01461025f57806379a0effb1461028f57610137565b8063026213381461013c5780632ebc53561461016c578063322008821461018a578063384efd27146101a65780633ad59dbc146101d7575b600080fd5b61015660048036038101906101519190612658565b610421565b6040516101639190612772565b60405180910390f35b61017461055f565b60405161018191906127d5565b60405180910390f35b6101a4600480360381019061019f919061299e565b610589565b005b6101c060048036038101906101bb9190612ac5565b61069d565b6040516101ce929190612b6e565b60405180910390f35b6101df610bad565b6040516101ec9190612c16565b60405180910390f35b6101fd610c3f565b005b61021960048036038101906102149190612658565b610c53565b6040516102269190612c53565b60405180910390f35b61024960048036038101906102449190612c6e565b610eec565b6040516102569190612c53565b60405180910390f35b61027960048036038101906102749190612658565b610f42565b6040516102869190612d98565b60405180910390f35b6102a960048036038101906102a49190612db4565b611173565b005b6102c560048036038101906102c09190612658565b6112c0565b6040516102d29190612e23565b60405180910390f35b6102e3611301565b6040516102f091906127d5565b60405180910390f35b610313600480360381019061030e9190612e6a565b61132b565b005b61031d6114e0565b60405161032c93929190612ef7565b60405180910390f35b61034f600480360381019061034a9190612c6e565b611531565b005b61036b60048036038101906103669190612f84565b611748565b005b61038760048036038101906103829190613053565b61179f565b6040516103949190613129565b60405180910390f35b6103b760048036038101906103b29190612c6e565b611bdf565b6040516103c49190612c53565b60405180910390f35b6103e760048036038101906103e29190613144565b611c35565b005b61040360048036038101906103fe9190612c6e565b611cc1565b005b61041f600480360381019061041a91906131c3565b611d44565b005b60606000609e6000848152602001908152602001600020805480602002602001604051908101604052809291908181526020016000905b8282101561049e57838290600052602060002090600202016040518060400160405290816000820154815260200160018201548152505081526020019060010190610458565b50505050905060008151905060008167ffffffffffffffff8111156104c6576104c5612806565b5b6040519080825280602002602001820160405280156104ff57816020015b6104ec6124eb565b8152602001906001900390816104e45790505b50905060005b82811015610553578381815181106105205761051f613203565b5b602002602001015182828151811061053b5761053a613203565b5b60200260200101819052508080600101915050610505565b50809350505050919050565b6000606860009054906101000a900473ffffffffffffffffffffffffffffffffffffffff16905090565b610591611dfb565b60008151905060005b8181101561069757609e60008581526020019081526020016000208382815181106105c8576105c7613203565b5b6020026020010151908060018154018082558091505060019003906000526020600020906002020160009091909190915060008201518160000155602082015181600101555050604051806040016040528084838151811061062d5761062c613203565b5b602002602001015160200151815260200185815250609f600085848151811061065957610658613203565b5b60200260200101516000015181526020019081526020016000206000820151816000015560208201518160010155905050808060010191505061059a565b50505050565b600080606860009054906101000a900473ffffffffffffffffffffffffffffffffffffffff1673ffffffffffffffffffffffffffffffffffffffff163373ffffffffffffffffffffffffffffffffffffffff1614610727576040517fe9d8299200000000000000000000000000000000000000000000000000000000815260040160405180910390fd5b60a06000888152602001908152602001600020600401600c9054906101000a900460ff1615610782576040517f56f1733f00000000000000000000000000000000000000000000000000000000815260040160405180910390fd5b600060a0600089815260200190815260200160002060010160009054906101000a900473ffffffffffffffffffffffffffffffffffffffff1690508360a060008a815260200190815260200160002060050160148282829054906101000a90046bffffffffffffffffffffffff166107fa9190613261565b92506101000a8154816bffffffffffffffffffffffff02191690836bffffffffffffffffffffffff160217905550600060a060008a815260200190815260200160002060050160149054906101000a90046bffffffffffffffffffffffff166bffffffffffffffffffffffff160361089c57600160a060008a8152602001908152602001600020600401600c6101000a81548160ff0219169083151502179055505b60006108a88986611e79565b9050600060a060008b815260200190815260200160002060030154905060008111156108d8576108d78a611fdd565b5b8273ffffffffffffffffffffffffffffffffffffffff1663a9059cbb606760009054906101000a900473ffffffffffffffffffffffffffffffffffffffff1684600001516040518363ffffffff1660e01b81526004016109399291906132a1565b6020604051808303816000875af1158015610958573d6000803e3d6000fd5b505050506040513d601f19601f8201168201806040525081019061097c91906132df565b508273ffffffffffffffffffffffffffffffffffffffff1663a9059cbb8884602001516040518363ffffffff1660e01b81526004016109bc9291906132a1565b6020604051808303816000875af11580156109db573d6000803e3d6000fd5b505050506040513d601f19601f820116820180604052508101906109ff91906132df565b5060008989905090506000818460400151610a1a919061333b565b905060005b82811015610b45578573ffffffffffffffffffffffffffffffffffffffff1663a9059cbb8d8d84818110610a5657610a55613203565b5b9050602002016020810190610a6b9190612c6e565b846040518363ffffffff1660e01b8152600401610a899291906132a1565b6020604051808303816000875af1158015610aa8573d6000803e3d6000fd5b505050506040513d601f19601f82011682018060405250810190610acc91906132df565b50818c8c83818110610ae157610ae0613203565b5b9050602002016020810190610af69190612c6e565b73ffffffffffffffffffffffffffffffffffffffff167f61dceb70b8f97239c33a3f9c0d0efc6c8759c7e9a808f75dd42b3a0f213186c260405160405180910390a38080600101915050610a1f565b508873ffffffffffffffffffffffffffffffffffffffff168c7f7b5664d3710676924bf38f3d89d38a62db3aa5fca4213adf6fa36e51c3cfc8548f8b604051610b8f92919061337b565b60405180910390a38b85965096505050505050965096945050505050565b606060698054610bbc906133d3565b80601f0160208091040260200160405190810160405280929190818152602001828054610be8906133d3565b8015610c355780601f10610c0a57610100808354040283529160200191610c35565b820191906000526020600020905b815481529060010190602001808311610c1857829003601f168201915b5050505050905090565b610c47611dfb565b610c516000612131565b565b6000606860009054906101000a900473ffffffffffffffffffffffffffffffffffffffff1673ffffffffffffffffffffffffffffffffffffffff163373ffffffffffffffffffffffffffffffffffffffff1614610cdc576040517fe9d8299200000000000000000000000000000000000000000000000000000000815260040160405180910390fd5b60a06000838152602001908152602001600020600401600c9054906101000a900460ff1615610d40576040517f08c379a0000000000000000000000000000000000000000000000000000000008152600401610d3790613461565b60405180910390fd5b600160a06000848152602001908152602001600020600401600c6101000a81548160ff021916908315150217905550600060a0600084815260200190815260200160002060050160146101000a8154816bffffffffffffffffffffffff02191690836bffffffffffffffffffffffff16021790555060a0600083815260200190815260200160002060010160009054906101000a900473ffffffffffffffffffffffffffffffffffffffff1673ffffffffffffffffffffffffffffffffffffffff1663a9059cbb60a0600085815260200190815260200160002060050160009054906101000a900473ffffffffffffffffffffffffffffffffffffffff1660a06000868152602001908152602001600020600601546040518363ffffffff1660e01b8152600401610e729291906132a1565b6020604051808303816000875af1158015610e91573d6000803e3d6000fd5b505050506040513d601f19601f82011682018060405250810190610eb591906132df565b50817ffe509803c09416b28ff3d8f690c8b0c61462a892c46d5430c8fb20abe472daf060405160405180910390a260019050919050565b6000609c60008373ffffffffffffffffffffffffffffffffffffffff1673ffffffffffffffffffffffffffffffffffffffff16815260200190815260200160002060009054906101000a900460ff169050919050565b610f4a61250b565b60a06000838152602001908152602001600020604051806101200160405290816000820160009054906101000a900473ffffffffffffffffffffffffffffffffffffffff1673ffffffffffffffffffffffffffffffffffffffff1673ffffffffffffffffffffffffffffffffffffffff1681526020016001820160009054906101000a900473ffffffffffffffffffffffffffffffffffffffff1673ffffffffffffffffffffffffffffffffffffffff1673ffffffffffffffffffffffffffffffffffffffff1681526020016002820160009054906101000a900473ffffffffffffffffffffffffffffffffffffffff1673ffffffffffffffffffffffffffffffffffffffff1673ffffffffffffffffffffffffffffffffffffffff168152602001600382015481526020016004820160009054906101000a90046bffffffffffffffffffffffff166bffffffffffffffffffffffff166bffffffffffffffffffffffff16815260200160048201600c9054906101000a900460ff161515151581526020016005820160009054906101000a900473ffffffffffffffffffffffffffffffffffffffff1673ffffffffffffffffffffffffffffffffffffffff1673ffffffffffffffffffffffffffffffffffffffff1681526020016005820160149054906101000a90046bffffffffffffffffffffffff166bffffffffffffffffffffffff166bffffffffffffffffffffffff1681526020016006820154815250509050919050565b61117b611dfb565b600073ffffffffffffffffffffffffffffffffffffffff168173ffffffffffffffffffffffffffffffffffffffff16036111ea576040517f08c379a00000000000000000000000000000000000000000000000000000000081526004016111e1906134cd565b60405180910390fd5b7f666565000000000000000000000000000000000000000000000000000000000082036112535780606760006101000a81548173ffffffffffffffffffffffffffffffffffffffff021916908373ffffffffffffffffffffffffffffffffffffffff1602179055505b7f61676772656761746f720000000000000000000000000000000000000000000082036112bc5780606860006101000a81548173ffffffffffffffffffffffffffffffffffffffff021916908373ffffffffffffffffffffffffffffffffffffffff1602179055505b5050565b6112c86125cd565b609f6000838152602001908152602001600020604051806040016040529081600082015481526020016001820154815250509050919050565b6000603360009054906101000a900473ffffffffffffffffffffffffffffffffffffffff16905090565b611333611dfb565b600073ffffffffffffffffffffffffffffffffffffffff168273ffffffffffffffffffffffffffffffffffffffff16036113a2576040517f08c379a0000000000000000000000000000000000000000000000000000000008152600401611399906134cd565b60405180910390fd5b7f746f6b656e00000000000000000000000000000000000000000000000000000083036114215780609c60008473ffffffffffffffffffffffffffffffffffffffff1673ffffffffffffffffffffffffffffffffffffffff16815260200190815260200160002060006101000a81548160ff0219169083151502179055505b7f77686974656c697374000000000000000000000000000000000000000000000083036114a05780609d60008473ffffffffffffffffffffffffffffffffffffffff1673ffffffffffffffffffffffffffffffffffffffff16815260200190815260200160002060006101000a81548160ff0219169083151502179055505b7fe22cadcc5ddbc0a185e8920eaa6825bcc06dcd6b432988e7e9912caa59ace9308383836040516114d3939291906134ed565b60405180910390a1505050565b6000806000606660009054906101000a90046fffffffffffffffffffffffffffffffff16606660109054906101000a90046fffffffffffffffffffffffffffffffff16606554925092509250909192565b60008060019054906101000a900460ff161590508080156115625750600160008054906101000a900460ff1660ff16105b8061158f5750611571306121f7565b15801561158e5750600160008054906101000a900460ff1660ff16145b5b6115ce576040517f08c379a00000000000000000000000000000000000000000000000000000000081526004016115c590613596565b60405180910390fd5b60016000806101000a81548160ff021916908360ff160217905550801561160b576001600060016101000a81548160ff0219169083151502179055505b6001609c60008473ffffffffffffffffffffffffffffffffffffffff1673ffffffffffffffffffffffffffffffffffffffff16815260200190815260200160002060006101000a81548160ff021916908315150217905550620186a0606581905550611388606660006101000a8154816fffffffffffffffffffffffffffffffff02191690836fffffffffffffffffffffffffffffffff1602179055506101f4606660106101000a8154816fffffffffffffffffffffffffffffffff02191690836fffffffffffffffffffffffffffffffff1602179055506116eb61221a565b80156117445760008060016101000a81548160ff0219169083151502179055507f7f26b83ff96e1f2b6a682f133852f6798a09c465da95921460cefb3847402498600160405161173b9190613608565b60405180910390a15b5050565b611750611dfb565b8181606991826117619291906137d0565b507f6a6600b7242975868d8321b5e64d0c9f2fcc92eb1af72254a6357be77ee7dcef82826040516117939291906138dc565b60405180910390a15050565b60006117ae8a8a86898c612273565b8973ffffffffffffffffffffffffffffffffffffffff166323b872dd33308c6040518463ffffffff1660e01b81526004016117eb93929190613900565b6020604051808303816000875af115801561180a573d6000803e3d6000fd5b505050506040513d601f19601f8201168201806040525081019061182e91906132df565b5060a160003373ffffffffffffffffffffffffffffffffffffffff1673ffffffffffffffffffffffffffffffffffffffff168152602001908152602001600020600081548092919061187f90613937565b91905055503360a160003373ffffffffffffffffffffffffffffffffffffffff1673ffffffffffffffffffffffffffffffffffffffff168152602001908152602001600020546040516020016118d69291906132a1565b6040516020818303038152906040528051906020012090506040518061012001604052803373ffffffffffffffffffffffffffffffffffffffff1681526020018b73ffffffffffffffffffffffffffffffffffffffff1681526020018773ffffffffffffffffffffffffffffffffffffffff168152602001868152602001886bffffffffffffffffffffffff1681526020016000151581526020018573ffffffffffffffffffffffffffffffffffffffff1681526020016065546bffffffffffffffffffffffff1681526020018a81525060a0600083815260200190815260200160002060008201518160000160006101000a81548173ffffffffffffffffffffffffffffffffffffffff021916908373ffffffffffffffffffffffffffffffffffffffff16021790555060208201518160010160006101000a81548173ffffffffffffffffffffffffffffffffffffffff021916908373ffffffffffffffffffffffffffffffffffffffff16021790555060408201518160020160006101000a81548173ffffffffffffffffffffffffffffffffffffffff021916908373ffffffffffffffffffffffffffffffffffffffff1602179055506060820151816003015560808201518160040160006101000a8154816bffffffffffffffffffffffff02191690836bffffffffffffffffffffffff16021790555060a082015181600401600c6101000a81548160ff02191690831515021790555060c08201518160050160006101000a81548173ffffffffffffffffffffffffffffffffffffffff021916908373ffffffffffffffffffffffffffffffffffffffff16021790555060e08201518160050160146101000a8154816bffffffffffffffffffffffff02191690836bffffffffffffffffffffffff160217905550610100820151816006015590505080898b73ffffffffffffffffffffffffffffffffffffffff167f34e33f86eb59d668184e1f86aeb03ed25f4ce72216218ed02db752f21c6a40428a8c8888604051611bca94939291906139dd565b60405180910390a49998505050505050505050565b6000609d60008373ffffffffffffffffffffffffffffffffffffffff1673ffffffffffffffffffffffffffffffffffffffff16815260200190815260200160002060009054906101000a900460ff169050919050565b611c3d611dfb565b8273ffffffffffffffffffffffffffffffffffffffff1663a9059cbb83836040518363ffffffff1660e01b8152600401611c789291906132a1565b6020604051808303816000875af1158015611c97573d6000803e3d6000fd5b505050506040513d601f19601f82011682018060405250810190611cbb91906132df565b50505050565b611cc9611dfb565b600073ffffffffffffffffffffffffffffffffffffffff168173ffffffffffffffffffffffffffffffffffffffff1603611d38576040517f08c379a0000000000000000000000000000000000000000000000000000000008152600401611d2f90613a8f565b60405180910390fd5b611d4181612131565b50565b611d4c611dfb565b81606660006101000a8154816fffffffffffffffffffffffffffffffff02191690836fffffffffffffffffffffffffffffffff16021790555080606660106101000a8154816fffffffffffffffffffffffffffffffff02191690836fffffffffffffffffffffffffffffffff1602179055507fe38926c5806b98a6fd00c5d791a36fbd196537fe48d11c45c9f1d0acd1ea74df8282604051611def929190613aaf565b60405180910390a15050565b611e03612482565b73ffffffffffffffffffffffffffffffffffffffff16611e21611301565b73ffffffffffffffffffffffffffffffffffffffff1614611e77576040517f08c379a0000000000000000000000000000000000000000000000000000000008152600401611e6e90613b24565b60405180910390fd5b565b611e816125ed565b600060a0600085815260200190815260200160002060060154905060a060008581526020019081526020016000206003015481611ebe9190613b44565b9050606554836bffffffffffffffffffffffff1682611edd9190613b78565b611ee7919061333b565b826020018181525050606554606660009054906101000a90046fffffffffffffffffffffffffffffffff166fffffffffffffffffffffffffffffffff168360200151611f339190613b78565b611f3d919061333b565b82600001818152505081600001518260200151611f5a9190613b44565b826020018181525050606554606660109054906101000a90046fffffffffffffffffffffffffffffffff166fffffffffffffffffffffffffffffffff168360000151611fa69190613b78565b611fb0919061333b565b82604001818152505081604001518260000151611fcd9190613b44565b8260000181815250505092915050565b600060a0600083815260200190815260200160002060020160009054906101000a900473ffffffffffffffffffffffffffffffffffffffff169050600060a0600084815260200190815260200160002060030154905060a0600084815260200190815260200160002060010160009054906101000a900473ffffffffffffffffffffffffffffffffffffffff1673ffffffffffffffffffffffffffffffffffffffff1663a9059cbb83836040518363ffffffff1660e01b81526004016120a49291906132a1565b6020604051808303816000875af11580156120c3573d6000803e3d6000fd5b505050506040513d601f19601f820116820180604052508101906120e791906132df565b50808273ffffffffffffffffffffffffffffffffffffffff167f96c76d5aec8a8c11a9c8e02768e3fa309347330d08961e0cf9fd43b349b684c260405160405180910390a3505050565b6000603360009054906101000a900473ffffffffffffffffffffffffffffffffffffffff16905081603360006101000a81548173ffffffffffffffffffffffffffffffffffffffff021916908373ffffffffffffffffffffffffffffffffffffffff1602179055508173ffffffffffffffffffffffffffffffffffffffff168173ffffffffffffffffffffffffffffffffffffffff167f8be0079c531659141344cd1fd0a4f28419497f9722a3daafe3b4186f6b6457e060405160405180910390a35050565b6000808273ffffffffffffffffffffffffffffffffffffffff163b119050919050565b600060019054906101000a900460ff16612269576040517f08c379a000000000000000000000000000000000000000000000000000000000815260040161226090613c2c565b60405180910390fd5b61227161248a565b565b609c60008673ffffffffffffffffffffffffffffffffffffffff1673ffffffffffffffffffffffffffffffffffffffff16815260200190815260200160002060009054906101000a900460ff166122ff576040517f08c379a00000000000000000000000000000000000000000000000000000000081526004016122f690613c98565b60405180910390fd5b60008411612342576040517f08c379a000000000000000000000000000000000000000000000000000000000815260040161233990613d04565b60405180910390fd5b600073ffffffffffffffffffffffffffffffffffffffff168373ffffffffffffffffffffffffffffffffffffffff16036123b1576040517f08c379a00000000000000000000000000000000000000000000000000000000081526004016123a890613d70565b60405180910390fd5b600073ffffffffffffffffffffffffffffffffffffffff168273ffffffffffffffffffffffffffffffffffffffff1603612420576040517f08c379a000000000000000000000000000000000000000000000000000000000815260040161241790613d70565b60405180910390fd5b6000801b609f6000838152602001908152602001600020600001540361247b576040517f08c379a000000000000000000000000000000000000000000000000000000000815260040161247290613ddc565b60405180910390fd5b5050505050565b600033905090565b600060019054906101000a900460ff166124d9576040517f08c379a00000000000000000000000000000000000000000000000000000000081526004016124d090613c2c565b60405180910390fd5b6124e96124e4612482565b612131565b565b604051806040016040528060008019168152602001600080191681525090565b604051806101200160405280600073ffffffffffffffffffffffffffffffffffffffff168152602001600073ffffffffffffffffffffffffffffffffffffffff168152602001600073ffffffffffffffffffffffffffffffffffffffff1681526020016000815260200160006bffffffffffffffffffffffff168152602001600015158152602001600073ffffffffffffffffffffffffffffffffffffffff16815260200160006bffffffffffffffffffffffff168152602001600081525090565b604051806040016040528060008019168152602001600080191681525090565b60405180606001604052806000815260200160008152602001600081525090565b6000604051905090565b600080fd5b600080fd5b6000819050919050565b61263581612622565b811461264057600080fd5b50565b6000813590506126528161262c565b92915050565b60006020828403121561266e5761266d612618565b5b600061267c84828501612643565b91505092915050565b600081519050919050565b600082825260208201905092915050565b6000819050602082019050919050565b6126ba81612622565b82525050565b6040820160008201516126d660008501826126b1565b5060208201516126e960208501826126b1565b50505050565b60006126fb83836126c0565b60408301905092915050565b6000602082019050919050565b600061271f82612685565b6127298185612690565b9350612734836126a1565b8060005b8381101561276557815161274c88826126ef565b975061275783612707565b925050600181019050612738565b5085935050505092915050565b6000602082019050818103600083015261278c8184612714565b905092915050565b600073ffffffffffffffffffffffffffffffffffffffff82169050919050565b60006127bf82612794565b9050919050565b6127cf816127b4565b82525050565b60006020820190506127ea60008301846127c6565b92915050565b600080fd5b6000601f19601f8301169050919050565b7f4e487b7100000000000000000000000000000000000000000000000000000000600052604160045260246000fd5b61283e826127f5565b810181811067ffffffffffffffff8211171561285d5761285c612806565b5b80604052505050565b600061287061260e565b905061287c8282612835565b919050565b600067ffffffffffffffff82111561289c5761289b612806565b5b602082029050602081019050919050565b600080fd5b600080fd5b6000604082840312156128cd576128cc6128b2565b5b6128d76040612866565b905060006128e784828501612643565b60008301525060206128fb84828501612643565b60208301525092915050565b600061291a61291584612881565b612866565b9050808382526020820190506040840283018581111561293d5761293c6128ad565b5b835b81811015612966578061295288826128b7565b84526020840193505060408101905061293f565b5050509392505050565b600082601f830112612985576129846127f0565b5b8135612995848260208601612907565b91505092915050565b600080604083850312156129b5576129b4612618565b5b60006129c385828601612643565b925050602083013567ffffffffffffffff8111156129e4576129e361261d565b5b6129f085828601612970565b9150509250929050565b600080fd5b60008083601f840112612a1557612a146127f0565b5b8235905067ffffffffffffffff811115612a3257612a316129fa565b5b602083019150836020820283011115612a4e57612a4d6128ad565b5b9250929050565b612a5e816127b4565b8114612a6957600080fd5b50565b600081359050612a7b81612a55565b92915050565b60006bffffffffffffffffffffffff82169050919050565b612aa281612a81565b8114612aad57600080fd5b50565b600081359050612abf81612a99565b92915050565b60008060008060008060a08789031215612ae257612ae1612618565b5b6000612af089828a01612643565b9650506020612b0189828a01612643565b955050604087013567ffffffffffffffff811115612b2257612b2161261d565b5b612b2e89828a016129ff565b94509450506060612b4189828a01612a6c565b9250506080612b5289828a01612ab0565b9150509295509295509295565b612b6881612622565b82525050565b6000604082019050612b836000830185612b5f565b612b9060208301846127c6565b9392505050565b600081519050919050565b600082825260208201905092915050565b60005b83811015612bd1578082015181840152602081019050612bb6565b60008484015250505050565b6000612be882612b97565b612bf28185612ba2565b9350612c02818560208601612bb3565b612c0b816127f5565b840191505092915050565b60006020820190508181036000830152612c308184612bdd565b905092915050565b60008115159050919050565b612c4d81612c38565b82525050565b6000602082019050612c686000830184612c44565b92915050565b600060208284031215612c8457612c83612618565b5b6000612c9284828501612a6c565b91505092915050565b612ca4816127b4565b82525050565b6000819050919050565b612cbd81612caa565b82525050565b612ccc81612a81565b82525050565b612cdb81612c38565b82525050565b61012082016000820151612cf86000850182612c9b565b506020820151612d0b6020850182612c9b565b506040820151612d1e6040850182612c9b565b506060820151612d316060850182612cb4565b506080820151612d446080850182612cc3565b5060a0820151612d5760a0850182612cd2565b5060c0820151612d6a60c0850182612c9b565b5060e0820151612d7d60e0850182612cc3565b50610100820151612d92610100850182612cb4565b50505050565b600061012082019050612dae6000830184612ce1565b92915050565b60008060408385031215612dcb57612dca612618565b5b6000612dd985828601612643565b9250506020612dea85828601612a6c565b9150509250929050565b604082016000820151612e0a60008501826126b1565b506020820151612e1d60208501826126b1565b50505050565b6000604082019050612e386000830184612df4565b92915050565b612e4781612c38565b8114612e5257600080fd5b50565b600081359050612e6481612e3e565b92915050565b600080600060608486031215612e8357612e82612618565b5b6000612e9186828701612643565b9350506020612ea286828701612a6c565b9250506040612eb386828701612e55565b9150509250925092565b60006fffffffffffffffffffffffffffffffff82169050919050565b612ee281612ebd565b82525050565b612ef181612caa565b82525050565b6000606082019050612f0c6000830186612ed9565b612f196020830185612ed9565b612f266040830184612ee8565b949350505050565b60008083601f840112612f4457612f436127f0565b5b8235905067ffffffffffffffff811115612f6157612f606129fa565b5b602083019150836001820283011115612f7d57612f7c6128ad565b5b9250929050565b60008060208385031215612f9b57612f9a612618565b5b600083013567ffffffffffffffff811115612fb957612fb861261d565b5b612fc585828601612f2e565b92509250509250929050565b612fda81612caa565b8114612fe557600080fd5b50565b600081359050612ff781612fd1565b92915050565b60008083601f840112613013576130126127f0565b5b8235905067ffffffffffffffff8111156130305761302f6129fa565b5b60208301915083600182028301111561304c5761304b6128ad565b5b9250929050565b60008060008060008060008060006101008a8c03121561307657613075612618565b5b60006130848c828d01612a6c565b99505060206130958c828d01612fe8565b98505060406130a68c828d01612643565b97505060606130b78c828d01612ab0565b96505060806130c88c828d01612a6c565b95505060a06130d98c828d01612fe8565b94505060c06130ea8c828d01612a6c565b93505060e08a013567ffffffffffffffff81111561310b5761310a61261d565b5b6131178c828d01612ffd565b92509250509295985092959850929598565b600060208201905061313e6000830184612b5f565b92915050565b60008060006060848603121561315d5761315c612618565b5b600061316b86828701612a6c565b935050602061317c86828701612a6c565b925050604061318d86828701612fe8565b9150509250925092565b6131a081612ebd565b81146131ab57600080fd5b50565b6000813590506131bd81613197565b92915050565b600080604083850312156131da576131d9612618565b5b60006131e8858286016131ae565b92505060206131f9858286016131ae565b9150509250929050565b7f4e487b7100000000000000000000000000000000000000000000000000000000600052603260045260246000fd5b7f4e487b7100000000000000000000000000000000000000000000000000000000600052601160045260246000fd5b600061326c82612a81565b915061327783612a81565b925082820390506bffffffffffffffffffffffff81111561329b5761329a613232565b5b92915050565b60006040820190506132b660008301856127c6565b6132c36020830184612ee8565b9392505050565b6000815190506132d981612e3e565b92915050565b6000602082840312156132f5576132f4612618565b5b6000613303848285016132ca565b91505092915050565b7f4e487b7100000000000000000000000000000000000000000000000000000000600052601260045260246000fd5b600061334682612caa565b915061335183612caa565b9250826133615761336061330c565b5b828204905092915050565b61337581612a81565b82525050565b60006040820190506133906000830185612b5f565b61339d602083018461336c565b9392505050565b7f4e487b7100000000000000000000000000000000000000000000000000000000600052602260045260246000fd5b600060028204905060018216806133eb57607f821691505b6020821081036133fe576133fd6133a4565b5b50919050565b600082825260208201905092915050565b7f4f7264657246756c66696c6c6564000000000000000000000000000000000000600082015250565b600061344b600e83613404565b915061345682613415565b602082019050919050565b6000602082019050818103600083015261347a8161343e565b9050919050565b7f50617963726573743a207a65726f206164647265737300000000000000000000600082015250565b60006134b7601683613404565b91506134c282613481565b602082019050919050565b600060208201905081810360008301526134e6816134aa565b9050919050565b60006060820190506135026000830186612b5f565b61350f60208301856127c6565b61351c6040830184612c44565b949350505050565b7f496e697469616c697a61626c653a20636f6e747261637420697320616c72656160008201527f647920696e697469616c697a6564000000000000000000000000000000000000602082015250565b6000613580602e83613404565b915061358b82613524565b604082019050919050565b600060208201905081810360008301526135af81613573565b9050919050565b6000819050919050565b600060ff82169050919050565b6000819050919050565b60006135f26135ed6135e8846135b6565b6135cd565b6135c0565b9050919050565b613602816135d7565b82525050565b600060208201905061361d60008301846135f9565b92915050565b600082905092915050565b60008190508160005260206000209050919050565b60006020601f8301049050919050565b600082821b905092915050565b6000600883026136907fffffffffffffffffffffffffffffffffffffffffffffffffffffffffffffffff82613653565b61369a8683613653565b95508019841693508086168417925050509392505050565b60006136cd6136c86136c384612caa565b6135cd565b612caa565b9050919050565b6000819050919050565b6136e7836136b2565b6136fb6136f3826136d4565b848454613660565b825550505050565b600090565b613710613703565b61371b8184846136de565b505050565b5b8181101561373f57613734600082613708565b600181019050613721565b5050565b601f821115613784576137558161362e565b61375e84613643565b8101602085101561376d578190505b61378161377985613643565b830182613720565b50505b505050565b600082821c905092915050565b60006137a760001984600802613789565b1980831691505092915050565b60006137c08383613796565b9150826002028217905092915050565b6137da8383613623565b67ffffffffffffffff8111156137f3576137f2612806565b5b6137fd82546133d3565b613808828285613743565b6000601f8311600181146138375760008415613825578287013590505b61382f85826137b4565b865550613897565b601f1984166138458661362e565b60005b8281101561386d57848901358255600182019150602085019450602081019050613848565b8683101561388a5784890135613886601f891682613796565b8355505b6001600288020188555050505b50505050505050565b82818337600083830152505050565b60006138bb8385612ba2565b93506138c88385846138a0565b6138d1836127f5565b840190509392505050565b600060208201905081810360008301526138f78184866138af565b90509392505050565b600060608201905061391560008301866127c6565b61392260208301856127c6565b61392f6040830184612ee8565b949350505050565b600061394282612caa565b91507fffffffffffffffffffffffffffffffffffffffffffffffffffffffffffffffff820361397457613973613232565b5b600182019050919050565b600061399a61399561399084612a81565b6135cd565b612caa565b9050919050565b6139aa8161397f565b82525050565b60006139bc8385613404565b93506139c98385846138a0565b6139d2836127f5565b840190509392505050565b60006060820190506139f260008301876139a1565b6139ff6020830186612b5f565b8181036040830152613a128184866139b0565b905095945050505050565b7f4f776e61626c653a206e6577206f776e657220697320746865207a65726f206160008201527f6464726573730000000000000000000000000000000000000000000000000000602082015250565b6000613a79602683613404565b9150613a8482613a1d565b604082019050919050565b60006020820190508181036000830152613aa881613a6c565b9050919050565b6000604082019050613ac46000830185612ed9565b613ad16020830184612ed9565b9392505050565b7f4f776e61626c653a2063616c6c6572206973206e6f7420746865206f776e6572600082015250565b6000613b0e602083613404565b9150613b1982613ad8565b602082019050919050565b60006020820190508181036000830152613b3d81613b01565b9050919050565b6000613b4f82612caa565b9150613b5a83612caa565b9250828203905081811115613b7257613b71613232565b5b92915050565b6000613b8382612caa565b9150613b8e83612caa565b9250828202613b9c81612caa565b91508282048414831517613bb357613bb2613232565b5b5092915050565b7f496e697469616c697a61626c653a20636f6e7472616374206973206e6f74206960008201527f6e697469616c697a696e67000000000000000000000000000000000000000000602082015250565b6000613c16602b83613404565b9150613c2182613bba565b604082019050919050565b60006020820190508181036000830152613c4581613c09565b9050919050565b7f546f6b656e4e6f74537570706f72746564000000000000000000000000000000600082015250565b6000613c82601183613404565b9150613c8d82613c4c565b602082019050919050565b60006020820190508181036000830152613cb181613c75565b9050919050565b7f416d6f756e7449735a65726f0000000000000000000000000000000000000000600082015250565b6000613cee600c83613404565b9150613cf982613cb8565b602082019050919050565b60006020820190508181036000830152613d1d81613ce1565b9050919050565b7f5468726f775a65726f4164647265737300000000000000000000000000000000600082015250565b6000613d5a601083613404565b9150613d6582613d24565b602082019050919050565b60006020820190508181036000830152613d8981613d4d565b9050919050565b7f496e76616c6964496e737469747574696f6e436f646500000000000000000000600082015250565b6000613dc6601683613404565b9150613dd182613d90565b602082019050919050565b60006020820190508181036000830152613df581613db9565b905091905056fea26469706673582212209681d1e894c9ce1f45fb412cac274735c070830626a044dce4f57c81f7cf1d1e64736f6c63430008120033",
  "linkReferences": {},
  "deployedLinkReferences": {}
}