{
  "_format": "hh-sol-artifact-1",
  "contractName": "Paycrest",
  "sourceName": "contracts/Paycrest.sol",
  "abi": [
    {
      "inputs": [],
      "stateMutability": "nonpayable",
      "type": "constructor"
    },
    {
      "anonymous": false,
      "inputs": [
        {
          "indexed": true,
          "internalType": "address",
          "name": "token",
          "type": "address"
        },
        {
          "indexed": true,
          "internalType": "uint256",
          "name": "amount",
          "type": "uint256"
        },
        {
          "indexed": true,
          "internalType": "bytes32",
          "name": "orderId",
          "type": "bytes32"
        },
        {
          "indexed": false,
          "internalType": "uint256",
          "name": "rate",
          "type": "uint256"
        },
        {
          "indexed": false,
          "internalType": "bytes32",
          "name": "institutionCode",
          "type": "bytes32"
        },
        {
          "indexed": false,
          "internalType": "bytes32",
          "name": "label",
          "type": "bytes32"
        },
        {
          "indexed": false,
          "internalType": "string",
          "name": "messageHash",
          "type": "string"
        }
      ],
      "name": "Deposit",
      "type": "event"
    },
    {
      "anonymous": false,
      "inputs": [
        {
          "indexed": false,
          "internalType": "uint8",
          "name": "version",
          "type": "uint8"
        }
      ],
      "name": "Initialized",
      "type": "event"
    },
    {
      "anonymous": false,
      "inputs": [
        {
          "indexed": true,
          "internalType": "address",
          "name": "previousOwner",
          "type": "address"
        },
        {
          "indexed": true,
          "internalType": "address",
          "name": "newOwner",
          "type": "address"
        }
      ],
      "name": "OwnershipTransferred",
      "type": "event"
    },
    {
      "anonymous": false,
      "inputs": [
        {
          "indexed": false,
          "internalType": "address",
          "name": "account",
          "type": "address"
        }
      ],
      "name": "Paused",
      "type": "event"
    },
    {
      "anonymous": false,
      "inputs": [
        {
          "indexed": false,
          "internalType": "address",
          "name": "treasuryAddress",
          "type": "address"
        }
      ],
      "name": "ProtocolAddressesUpdated",
      "type": "event"
    },
    {
      "anonymous": false,
      "inputs": [
        {
          "indexed": false,
          "internalType": "uint64",
          "name": "protocolFee",
          "type": "uint64"
        }
      ],
      "name": "ProtocolFeesUpdated",
      "type": "event"
    },
    {
      "anonymous": false,
      "inputs": [
        {
          "indexed": false,
          "internalType": "uint256",
          "name": "_fee",
          "type": "uint256"
        },
        {
          "indexed": true,
          "internalType": "bytes32",
          "name": "orderId",
          "type": "bytes32"
        },
        {
          "indexed": false,
          "internalType": "bytes32",
          "name": "label",
          "type": "bytes32"
        }
      ],
      "name": "Refunded",
      "type": "event"
    },
    {
      "anonymous": false,
      "inputs": [
        {
          "indexed": true,
          "internalType": "address",
          "name": "validator",
          "type": "address"
        },
        {
          "indexed": true,
          "internalType": "uint256",
          "name": "amount",
          "type": "uint256"
        }
      ],
      "name": "RewardValidator",
      "type": "event"
    },
    {
      "anonymous": false,
      "inputs": [
        {
          "indexed": false,
          "internalType": "bytes",
          "name": "aggregator",
          "type": "bytes"
        }
      ],
      "name": "SetAggregator",
      "type": "event"
    },
    {
      "anonymous": false,
      "inputs": [
        {
          "indexed": false,
          "internalType": "address",
          "name": "treasuryAddress",
          "type": "address"
        }
      ],
      "name": "SetFeeRecipient",
      "type": "event"
    },
    {
      "anonymous": false,
      "inputs": [
        {
          "indexed": false,
          "internalType": "bytes32",
          "name": "what",
          "type": "bytes32"
        },
        {
          "indexed": false,
          "internalType": "address",
          "name": "value",
          "type": "address"
        },
        {
          "indexed": false,
          "internalType": "bool",
          "name": "status",
          "type": "bool"
        }
      ],
      "name": "SettingManagerBool",
      "type": "event"
    },
    {
      "anonymous": false,
      "inputs": [
        {
          "indexed": false,
          "internalType": "bytes32",
          "name": "_splitOrderId",
          "type": "bytes32"
        },
        {
          "indexed": true,
          "internalType": "bytes32",
          "name": "orderId",
          "type": "bytes32"
        },
        {
          "indexed": false,
          "internalType": "bytes32",
          "name": "label",
          "type": "bytes32"
        },
        {
          "indexed": true,
          "internalType": "address",
          "name": "liquidityProvider",
          "type": "address"
        },
        {
          "indexed": false,
          "internalType": "uint96",
          "name": "settlePercent",
          "type": "uint96"
        }
      ],
      "name": "Settled",
      "type": "event"
    },
    {
      "anonymous": false,
      "inputs": [
        {
          "indexed": true,
          "internalType": "address",
          "name": "sender",
          "type": "address"
        },
        {
          "indexed": true,
          "internalType": "uint256",
          "name": "amount",
          "type": "uint256"
        }
      ],
      "name": "TransferSenderFee",
      "type": "event"
    },
    {
      "anonymous": false,
      "inputs": [
        {
          "indexed": false,
          "internalType": "address",
          "name": "account",
          "type": "address"
        }
      ],
      "name": "Unpaused",
      "type": "event"
    },
    {
      "inputs": [
        {
          "internalType": "address",
          "name": "_token",
          "type": "address"
        },
        {
          "internalType": "uint256",
          "name": "_amount",
          "type": "uint256"
        },
        {
          "internalType": "bytes32",
          "name": "_institutionCode",
          "type": "bytes32"
        },
        {
          "internalType": "bytes32",
          "name": "_label",
          "type": "bytes32"
        },
        {
          "internalType": "uint96",
          "name": "_rate",
          "type": "uint96"
        },
        {
          "internalType": "address",
          "name": "_senderFeeRecipient",
          "type": "address"
        },
        {
          "internalType": "uint256",
          "name": "_senderFee",
          "type": "uint256"
        },
        {
          "internalType": "address",
          "name": "_refundAddress",
          "type": "address"
        },
        {
          "internalType": "string",
          "name": "messageHash",
          "type": "string"
        }
      ],
      "name": "createOrder",
      "outputs": [
        {
          "internalType": "bytes32",
          "name": "orderId",
          "type": "bytes32"
        }
      ],
      "stateMutability": "nonpayable",
      "type": "function"
    },
    {
      "inputs": [],
      "name": "getAggregator",
      "outputs": [
        {
          "internalType": "bytes",
          "name": "",
          "type": "bytes"
        }
      ],
      "stateMutability": "view",
      "type": "function"
    },
    {
      "inputs": [],
      "name": "getFeeDetails",
      "outputs": [
        {
          "internalType": "uint64",
          "name": "",
          "type": "uint64"
        },
        {
          "internalType": "uint256",
          "name": "",
          "type": "uint256"
        }
      ],
      "stateMutability": "view",
      "type": "function"
    },
    {
      "inputs": [
        {
          "internalType": "bytes32",
          "name": "_orderId",
          "type": "bytes32"
        }
      ],
      "name": "getOrderInfo",
      "outputs": [
        {
          "components": [
            {
              "internalType": "address",
              "name": "seller",
              "type": "address"
            },
            {
              "internalType": "address",
              "name": "token",
              "type": "address"
            },
            {
              "internalType": "address",
              "name": "senderFeeRecipient",
              "type": "address"
            },
            {
              "internalType": "uint256",
              "name": "senderFee",
              "type": "uint256"
            },
            {
              "internalType": "uint96",
              "name": "rate",
              "type": "uint96"
            },
            {
              "internalType": "bool",
              "name": "isFulfilled",
              "type": "bool"
            },
            {
              "internalType": "address",
              "name": "refundAddress",
              "type": "address"
            },
            {
              "internalType": "uint96",
              "name": "currentBPS",
              "type": "uint96"
            },
            {
              "internalType": "uint256",
              "name": "amount",
              "type": "uint256"
            }
          ],
          "internalType": "struct IPaycrest.Order",
          "name": "",
          "type": "tuple"
        }
      ],
      "stateMutability": "view",
      "type": "function"
    },
    {
      "inputs": [
        {
          "internalType": "bytes32",
          "name": "code",
          "type": "bytes32"
        }
      ],
      "name": "getSupportedInstitutionName",
      "outputs": [
        {
          "components": [
            {
              "internalType": "bytes32",
              "name": "name",
              "type": "bytes32"
            },
            {
              "internalType": "bytes32",
              "name": "currency",
              "type": "bytes32"
            }
          ],
          "internalType": "struct PaycrestSettingManager.InstitutionByCode",
          "name": "",
          "type": "tuple"
        }
      ],
      "stateMutability": "view",
      "type": "function"
    },
    {
      "inputs": [
        {
          "internalType": "bytes32",
          "name": "currency",
          "type": "bytes32"
        }
      ],
      "name": "getSupportedInstitutions",
      "outputs": [
        {
          "components": [
            {
              "internalType": "bytes32",
              "name": "code",
              "type": "bytes32"
            },
            {
              "internalType": "bytes32",
              "name": "name",
              "type": "bytes32"
            }
          ],
          "internalType": "struct PaycrestSettingManager.Institution[]",
          "name": "",
          "type": "tuple[]"
        }
      ],
      "stateMutability": "view",
      "type": "function"
    },
    {
      "inputs": [],
      "name": "initialize",
      "outputs": [],
      "stateMutability": "nonpayable",
      "type": "function"
    },
    {
      "inputs": [
        {
          "internalType": "address",
          "name": "_token",
          "type": "address"
        }
      ],
      "name": "isTokenSupported",
      "outputs": [
        {
          "internalType": "bool",
          "name": "",
          "type": "bool"
        }
      ],
      "stateMutability": "view",
      "type": "function"
    },
    {
      "inputs": [],
      "name": "owner",
      "outputs": [
        {
          "internalType": "address",
          "name": "",
          "type": "address"
        }
      ],
      "stateMutability": "view",
      "type": "function"
    },
    {
      "inputs": [],
      "name": "pause",
      "outputs": [],
      "stateMutability": "nonpayable",
      "type": "function"
    },
    {
      "inputs": [],
      "name": "paused",
      "outputs": [
        {
          "internalType": "bool",
          "name": "",
          "type": "bool"
        }
      ],
      "stateMutability": "view",
      "type": "function"
    },
    {
      "inputs": [
        {
          "internalType": "uint256",
          "name": "_fee",
          "type": "uint256"
        },
        {
          "internalType": "bytes32",
          "name": "_orderId",
          "type": "bytes32"
        },
        {
          "internalType": "bytes32",
          "name": "_label",
          "type": "bytes32"
        }
      ],
      "name": "refund",
      "outputs": [
        {
          "internalType": "bool",
          "name": "",
          "type": "bool"
        }
      ],
      "stateMutability": "nonpayable",
      "type": "function"
    },
    {
      "inputs": [],
      "name": "renounceOwnership",
      "outputs": [],
      "stateMutability": "nonpayable",
      "type": "function"
    },
    {
      "inputs": [
        {
          "internalType": "bytes32",
          "name": "currency",
          "type": "bytes32"
        },
        {
          "components": [
            {
              "internalType": "bytes32",
              "name": "code",
              "type": "bytes32"
            },
            {
              "internalType": "bytes32",
              "name": "name",
              "type": "bytes32"
            }
          ],
          "internalType": "struct PaycrestSettingManager.Institution[]",
          "name": "institutions",
          "type": "tuple[]"
        }
      ],
      "name": "setSupportedInstitutions",
      "outputs": [],
      "stateMutability": "nonpayable",
      "type": "function"
    },
    {
      "inputs": [
        {
          "internalType": "bytes32",
          "name": "what",
          "type": "bytes32"
        },
        {
          "internalType": "address",
          "name": "value",
          "type": "address"
        },
        {
          "internalType": "bool",
          "name": "status",
          "type": "bool"
        }
      ],
      "name": "settingManagerBool",
      "outputs": [],
      "stateMutability": "nonpayable",
      "type": "function"
    },
    {
      "inputs": [
        {
          "internalType": "bytes32",
          "name": "_splitOrderId",
          "type": "bytes32"
        },
        {
          "internalType": "bytes32",
          "name": "_orderId",
          "type": "bytes32"
        },
        {
          "internalType": "bytes32",
          "name": "_label",
          "type": "bytes32"
        },
        {
          "internalType": "address",
          "name": "_liquidityProvider",
          "type": "address"
        },
        {
          "internalType": "uint64",
          "name": "_settlePercent",
          "type": "uint64"
        },
        {
          "internalType": "bool",
          "name": "_isPartner",
          "type": "bool"
        }
      ],
      "name": "settle",
      "outputs": [
        {
          "internalType": "bytes32",
          "name": "",
          "type": "bytes32"
        },
        {
          "internalType": "address",
          "name": "",
          "type": "address"
        }
      ],
      "stateMutability": "nonpayable",
      "type": "function"
    },
    {
      "inputs": [
        {
          "internalType": "address",
          "name": "newOwner",
          "type": "address"
        }
      ],
      "name": "transferOwnership",
      "outputs": [],
      "stateMutability": "nonpayable",
      "type": "function"
    },
    {
      "inputs": [],
      "name": "unpause",
      "outputs": [],
      "stateMutability": "nonpayable",
      "type": "function"
    },
    {
      "inputs": [
        {
          "internalType": "bytes32",
          "name": "what",
          "type": "bytes32"
        },
        {
          "internalType": "address",
          "name": "value",
          "type": "address"
        }
      ],
      "name": "updateProtocolAddresses",
      "outputs": [],
      "stateMutability": "nonpayable",
      "type": "function"
    },
    {
      "inputs": [
        {
          "internalType": "bytes",
          "name": "aggregator",
          "type": "bytes"
        }
      ],
      "name": "updateProtocolAggregator",
      "outputs": [],
      "stateMutability": "nonpayable",
      "type": "function"
    },
    {
      "inputs": [
        {
          "internalType": "uint64",
          "name": "_protocolFeePercent",
          "type": "uint64"
        }
      ],
      "name": "updateProtocolFees",
      "outputs": [],
      "stateMutability": "nonpayable",
      "type": "function"
    }
  ],
  "bytecode": "0x60806040523480156200001157600080fd5b50620000226200002860201b60201c565b620001d2565b600060019054906101000a900460ff16156200007b576040517f08c379a0000000000000000000000000000000000000000000000000000000008152600401620000729062000175565b60405180910390fd5b60ff801660008054906101000a900460ff1660ff1614620000ec5760ff6000806101000a81548160ff021916908360ff1602179055507f7f26b83ff96e1f2b6a682f133852f6798a09c465da95921460cefb384740249860ff604051620000e39190620001b5565b60405180910390a15b565b600082825260208201905092915050565b7f496e697469616c697a61626c653a20636f6e747261637420697320696e69746960008201527f616c697a696e6700000000000000000000000000000000000000000000000000602082015250565b60006200015d602783620000ee565b91506200016a82620000ff565b604082019050919050565b6000602082019050818103600083015262000190816200014e565b9050919050565b600060ff82169050919050565b620001af8162000197565b82525050565b6000602082019050620001cc6000830184620001a4565b92915050565b613fa580620001e26000396000f3fe608060405234801561001057600080fd5b50600436106101375760003560e01c806379a0effb116100b85780638da5cb5b1161007c5780638da5cb5b1461031557806399e3c0b414610333578063b810c6361461034f578063cb79455b1461036e578063d28a8d321461038a578063f2fde38b146103ba57610137565b806379a0effb146102995780638129fc1c146102b55780638456cb59146102bf57806384630736146102c957806387490d86146102e557610137565b80635c975abb116100ff5780635c975abb146101e05780635fe44cac146101fe578063715018a61461022f57806375151b6314610239578063768c6ec01461026957610137565b8063026213381461013c5780632654ec7e1461016c578063322008821461019c5780633ad59dbc146101b85780633f4ba83a146101d6575b600080fd5b61015660048036038101906101519190612599565b6103d6565b60405161016391906126b3565b60405180910390f35b61018660048036038101906101819190612812565b610514565b604051610193919061290c565b60405180910390f35b6101b660048036038101906101b19190612acb565b61096a565b005b6101c0610a7e565b6040516101cd9190612ba6565b60405180910390f35b6101de610b10565b005b6101e8610b22565b6040516101f59190612be3565b60405180910390f35b61021860048036038101906102139190612c6a565b610b39565b604051610226929190612d06565b60405180910390f35b610237610f32565b005b610253600480360381019061024e9190612d2f565b610f46565b6040516102609190612be3565b60405180910390f35b610283600480360381019061027e9190612599565b610f9c565b6040516102909190612e4f565b60405180910390f35b6102b360048036038101906102ae9190612e6b565b6111cd565b005b6102bd61130a565b005b6102c761145a565b005b6102e360048036038101906102de9190612eab565b61146c565b005b6102ff60048036038101906102fa9190612599565b6114d7565b60405161030c9190612f07565b60405180910390f35b61031d611518565b60405161032a9190612f22565b60405180910390f35b61034d60048036038101906103489190612f3d565b611542565b005b610357611678565b604051610365929190612fae565b60405180910390f35b6103886004803603810190610383919061302d565b61169d565b005b6103a4600480360381019061039f919061307a565b6116f4565b6040516103b19190612be3565b60405180910390f35b6103d460048036038101906103cf9190612d2f565b611a8d565b005b60606000609c6000848152602001908152602001600020805480602002602001604051908101604052809291908181526020016000905b828210156104535783829060005260206000209060020201604051806040016040529081600082015481526020016001820154815250508152602001906001019061040d565b50505050905060008151905060008167ffffffffffffffff81111561047b5761047a612938565b5b6040519080825280602002602001820160405280156104b457816020015b6104a1612433565b8152602001906001900390816104995790505b50905060005b82811015610508578381815181106104d5576104d46130cd565b5b60200260200101518282815181106104f0576104ef6130cd565b5b602002602001018190525080806001019150506104ba565b50809350505050919050565b600061051e611b10565b61052c8b8b8689898e611b5a565b8a73ffffffffffffffffffffffffffffffffffffffff166323b872dd33308d6040518463ffffffff1660e01b8152600401610569939291906130fc565b6020604051808303816000875af1158015610588573d6000803e3d6000fd5b505050506040513d601f19601f820116820180604052508101906105ac9190613148565b5060d160003373ffffffffffffffffffffffffffffffffffffffff1673ffffffffffffffffffffffffffffffffffffffff16815260200190815260200160002060008154809291906105fd906131a4565b91905055503360d160003373ffffffffffffffffffffffffffffffffffffffff1673ffffffffffffffffffffffffffffffffffffffff168152602001908152602001600020546040516020016106549291906131ec565b6040516020818303038152906040528051906020012090506040518061012001604052803373ffffffffffffffffffffffffffffffffffffffff1681526020018c73ffffffffffffffffffffffffffffffffffffffff1681526020018773ffffffffffffffffffffffffffffffffffffffff168152602001868152602001886bffffffffffffffffffffffff1681526020016000151581526020018573ffffffffffffffffffffffffffffffffffffffff16815260200160655467ffffffffffffffff166bffffffffffffffffffffffff1681526020018b81525060d0600083815260200190815260200160002060008201518160000160006101000a81548173ffffffffffffffffffffffffffffffffffffffff021916908373ffffffffffffffffffffffffffffffffffffffff16021790555060208201518160010160006101000a81548173ffffffffffffffffffffffffffffffffffffffff021916908373ffffffffffffffffffffffffffffffffffffffff16021790555060408201518160020160006101000a81548173ffffffffffffffffffffffffffffffffffffffff021916908373ffffffffffffffffffffffffffffffffffffffff1602179055506060820151816003015560808201518160040160006101000a8154816bffffffffffffffffffffffff02191690836bffffffffffffffffffffffff16021790555060a082015181600401600c6101000a81548160ff02191690831515021790555060c08201518160050160006101000a81548173ffffffffffffffffffffffffffffffffffffffff021916908373ffffffffffffffffffffffffffffffffffffffff16021790555060e08201518160050160146101000a8154816bffffffffffffffffffffffff02191690836bffffffffffffffffffffffff1602179055506101008201518160060155905050808a8c73ffffffffffffffffffffffffffffffffffffffff167f2c205f90c01160d42994a0eb521810056d94bb82a1fcb038d7179c4158a1f15b8a8d8d898960405161095495949392919061329d565b60405180910390a49a9950505050505050505050565b610972611dd1565b60008151905060005b81811015610a7857609c60008581526020019081526020016000208382815181106109a9576109a86130cd565b5b60200260200101519080600181540180825580915050600190039060005260206000209060020201600090919091909150600082015181600001556020820151816001015550506040518060400160405280848381518110610a0e57610a0d6130cd565b5b602002602001015160200151815260200185815250609d6000858481518110610a3a57610a396130cd565b5b60200260200101516000015181526020019081526020016000206000820151816000015560208201518160010155905050808060010191505061097b565b50505050565b606060688054610a8d9061331a565b80601f0160208091040260200160405190810160405280929190818152602001828054610ab99061331a565b8015610b065780601f10610adb57610100808354040283529160200191610b06565b820191906000526020600020905b815481529060010190602001808311610ae957829003601f168201915b5050505050905090565b610b18611dd1565b610b20611e4f565b565b6000609e60009054906101000a900460ff16905090565b600080606760009054906101000a900473ffffffffffffffffffffffffffffffffffffffff1673ffffffffffffffffffffffffffffffffffffffff163373ffffffffffffffffffffffffffffffffffffffff1614610bcc576040517f08c379a0000000000000000000000000000000000000000000000000000000008152600401610bc390613397565b60405180910390fd5b60d06000888152602001908152602001600020600401600c9054906101000a900460ff1615610c30576040517f08c379a0000000000000000000000000000000000000000000000000000000008152600401610c2790613403565b60405180910390fd5b600060d0600089815260200190815260200160002060010160009054906101000a900473ffffffffffffffffffffffffffffffffffffffff1690508467ffffffffffffffff1660d060008a815260200190815260200160002060050160148282829054906101000a90046bffffffffffffffffffffffff16610cb29190613423565b92506101000a8154816bffffffffffffffffffffffff02191690836bffffffffffffffffffffffff1602179055506000610cf7898767ffffffffffffffff1687611eb2565b9050600060d060008b815260200190815260200160002060050160149054906101000a90046bffffffffffffffffffffffff166bffffffffffffffffffffffff1603610d9657600160d060008b8152602001908152602001600020600401600c6101000a81548160ff021916908315150217905550600060d060008b8152602001908152602001600020600301541115610d9557610d9489611fc3565b5b5b600081600001511115610e49578173ffffffffffffffffffffffffffffffffffffffff1663a9059cbb606660089054906101000a900473ffffffffffffffffffffffffffffffffffffffff1683600001516040518363ffffffff1660e01b8152600401610e049291906131ec565b6020604051808303816000875af1158015610e23573d6000803e3d6000fd5b505050506040513d601f19601f82011682018060405250810190610e479190613148565b505b8173ffffffffffffffffffffffffffffffffffffffff1663a9059cbb8883602001516040518363ffffffff1660e01b8152600401610e889291906131ec565b6020604051808303816000875af1158015610ea7573d6000803e3d6000fd5b505050506040513d601f19601f82011682018060405250810190610ecb9190613148565b508673ffffffffffffffffffffffffffffffffffffffff16897ff26de978cbaea68ea699627155a10ad53df3321b0f95a08264c0cfd6d4c053268c8b8a604051610f1793929190613494565b60405180910390a38882935093505050965096945050505050565b610f3a611dd1565b610f446000612117565b565b6000609b60008373ffffffffffffffffffffffffffffffffffffffff1673ffffffffffffffffffffffffffffffffffffffff16815260200190815260200160002060009054906101000a900460ff169050919050565b610fa4612453565b60d06000838152602001908152602001600020604051806101200160405290816000820160009054906101000a900473ffffffffffffffffffffffffffffffffffffffff1673ffffffffffffffffffffffffffffffffffffffff1673ffffffffffffffffffffffffffffffffffffffff1681526020016001820160009054906101000a900473ffffffffffffffffffffffffffffffffffffffff1673ffffffffffffffffffffffffffffffffffffffff1673ffffffffffffffffffffffffffffffffffffffff1681526020016002820160009054906101000a900473ffffffffffffffffffffffffffffffffffffffff1673ffffffffffffffffffffffffffffffffffffffff1673ffffffffffffffffffffffffffffffffffffffff168152602001600382015481526020016004820160009054906101000a90046bffffffffffffffffffffffff166bffffffffffffffffffffffff166bffffffffffffffffffffffff16815260200160048201600c9054906101000a900460ff161515151581526020016005820160009054906101000a900473ffffffffffffffffffffffffffffffffffffffff1673ffffffffffffffffffffffffffffffffffffffff1673ffffffffffffffffffffffffffffffffffffffff1681526020016005820160149054906101000a90046bffffffffffffffffffffffff166bffffffffffffffffffffffff166bffffffffffffffffffffffff1681526020016006820154815250509050919050565b6111d5611dd1565b600073ffffffffffffffffffffffffffffffffffffffff168173ffffffffffffffffffffffffffffffffffffffff1603611244576040517f08c379a000000000000000000000000000000000000000000000000000000000815260040161123b90613517565b60405180910390fd5b7f747265617375727900000000000000000000000000000000000000000000000082036112ad5780606660086101000a81548173ffffffffffffffffffffffffffffffffffffffff021916908373ffffffffffffffffffffffffffffffffffffffff1602179055505b7fd8ef77a7d69a6b79f131ecd9aa37060ba0853bbd37cb175ec1abd05738ce27cb606660089054906101000a900473ffffffffffffffffffffffffffffffffffffffff166040516112fe9190612f22565b60405180910390a15050565b60008060019054906101000a900460ff1615905080801561133b5750600160008054906101000a900460ff1660ff16105b80611368575061134a306121dd565b1580156113675750600160008054906101000a900460ff1660ff16145b5b6113a7576040517f08c379a000000000000000000000000000000000000000000000000000000000815260040161139e906135a9565b60405180910390fd5b60016000806101000a81548160ff021916908360ff16021790555080156113e4576001600060016101000a81548160ff0219169083151502179055505b620186a06065819055506113f6612200565b6113fe612259565b80156114575760008060016101000a81548160ff0219169083151502179055507f7f26b83ff96e1f2b6a682f133852f6798a09c465da95921460cefb3847402498600160405161144e9190613611565b60405180910390a15b50565b611462611dd1565b61146a6122b2565b565b611474611dd1565b80606660006101000a81548167ffffffffffffffff021916908367ffffffffffffffff1602179055507fb94068a4bd2571acee6ac79acc9dcdcf10c31425d35f09e88f154ec520e26446816040516114cc919061362c565b60405180910390a150565b6114df612515565b609d6000838152602001908152602001600020604051806040016040529081600082015481526020016001820154815250509050919050565b6000603360009054906101000a900473ffffffffffffffffffffffffffffffffffffffff16905090565b61154a611dd1565b600073ffffffffffffffffffffffffffffffffffffffff168273ffffffffffffffffffffffffffffffffffffffff16036115b9576040517f08c379a00000000000000000000000000000000000000000000000000000000081526004016115b090613517565b60405180910390fd5b7f746f6b656e00000000000000000000000000000000000000000000000000000083036116385780609b60008473ffffffffffffffffffffffffffffffffffffffff1673ffffffffffffffffffffffffffffffffffffffff16815260200190815260200160002060006101000a81548160ff0219169083151502179055505b7fe22cadcc5ddbc0a185e8920eaa6825bcc06dcd6b432988e7e9912caa59ace93083838360405161166b93929190613647565b60405180910390a1505050565b600080606660009054906101000a900467ffffffffffffffff16606554915091509091565b6116a5611dd1565b8181606891826116b692919061382b565b507f6a6600b7242975868d8321b5e64d0c9f2fcc92eb1af72254a6357be77ee7dcef82826040516116e8929190613928565b60405180910390a15050565b6000606760009054906101000a900473ffffffffffffffffffffffffffffffffffffffff1673ffffffffffffffffffffffffffffffffffffffff163373ffffffffffffffffffffffffffffffffffffffff1614611786576040517f08c379a000000000000000000000000000000000000000000000000000000000815260040161177d90613397565b60405180910390fd5b60d06000848152602001908152602001600020600401600c9054906101000a900460ff16156117ea576040517f08c379a00000000000000000000000000000000000000000000000000000000081526004016117e190613403565b60405180910390fd5b60008460d060008681526020019081526020016000206006015461180e919061394c565b905060d0600085815260200190815260200160002060010160009054906101000a900473ffffffffffffffffffffffffffffffffffffffff1673ffffffffffffffffffffffffffffffffffffffff1663a9059cbb606660089054906101000a900473ffffffffffffffffffffffffffffffffffffffff16876040518363ffffffff1660e01b81526004016118a39291906131ec565b6020604051808303816000875af11580156118c2573d6000803e3d6000fd5b505050506040513d601f19601f820116820180604052508101906118e69190613148565b50600160d06000868152602001908152602001600020600401600c6101000a81548160ff021916908315150217905550600060d0600086815260200190815260200160002060050160146101000a8154816bffffffffffffffffffffffff02191690836bffffffffffffffffffffffff16021790555060d0600085815260200190815260200160002060010160009054906101000a900473ffffffffffffffffffffffffffffffffffffffff1673ffffffffffffffffffffffffffffffffffffffff1663a9059cbb60d0600087815260200190815260200160002060050160009054906101000a900473ffffffffffffffffffffffffffffffffffffffff16836040518363ffffffff1660e01b8152600401611a039291906131ec565b6020604051808303816000875af1158015611a22573d6000803e3d6000fd5b505050506040513d601f19601f82011682018060405250810190611a469190613148565b50837fa8e0e11a759cccce708ff767acde5348e3e96706e2cce8301462510ce02fa1a68685604051611a79929190613980565b60405180910390a260019150509392505050565b611a95611dd1565b600073ffffffffffffffffffffffffffffffffffffffff168173ffffffffffffffffffffffffffffffffffffffff1603611b04576040517f08c379a0000000000000000000000000000000000000000000000000000000008152600401611afb90613a1b565b60405180910390fd5b611b0d81612117565b50565b611b18610b22565b15611b58576040517f08c379a0000000000000000000000000000000000000000000000000000000008152600401611b4f90613a87565b60405180910390fd5b565b609b60008773ffffffffffffffffffffffffffffffffffffffff1673ffffffffffffffffffffffffffffffffffffffff16815260200190815260200160002060009054906101000a900460ff16611be6576040517f08c379a0000000000000000000000000000000000000000000000000000000008152600401611bdd90613af3565b60405180910390fd5b60008511611c29576040517f08c379a0000000000000000000000000000000000000000000000000000000008152600401611c2090613b5f565b60405180910390fd5b600073ffffffffffffffffffffffffffffffffffffffff168473ffffffffffffffffffffffffffffffffffffffff1603611c98576040517f08c379a0000000000000000000000000000000000000000000000000000000008152600401611c8f90613bcb565b60405180910390fd5b6000801b609d60008381526020019081526020016000206000015403611cf3576040517f08c379a0000000000000000000000000000000000000000000000000000000008152600401611cea90613c37565b60405180910390fd5b6000821115611d6c57600073ffffffffffffffffffffffffffffffffffffffff168373ffffffffffffffffffffffffffffffffffffffff1603611d6b576040517f08c379a0000000000000000000000000000000000000000000000000000000008152600401611d6290613ca3565b60405180910390fd5b5b6065546101f486611d7d9190613cc3565b611d879190613d34565b821115611dc9576040517f08c379a0000000000000000000000000000000000000000000000000000000008152600401611dc090613db1565b60405180910390fd5b505050505050565b611dd9612315565b73ffffffffffffffffffffffffffffffffffffffff16611df7611518565b73ffffffffffffffffffffffffffffffffffffffff1614611e4d576040517f08c379a0000000000000000000000000000000000000000000000000000000008152600401611e4490613e1d565b60405180910390fd5b565b611e5761231d565b6000609e60006101000a81548160ff0219169083151502179055507f5db9ee0a495bf2e6ff9c91a7834c1ba4fdd244a5e8aa4e537bd38aeae4b073aa611e9b612315565b604051611ea89190612f22565b60405180910390a1565b611eba612535565b600060d0600086815260200190815260200160002060060154905060d060008681526020019081526020016000206003015481611ef7919061394c565b9050606554846bffffffffffffffffffffffff1682611f169190613cc3565b611f209190613d34565b826020018181525050606554606660009054906101000a900467ffffffffffffffff1667ffffffffffffffff168360200151611f5c9190613cc3565b611f669190613d34565b82600001818152505081600001518260200151611f83919061394c565b8260200181815250508215611fbb57816000015182602001818151611fa89190613e3d565b9150818152505060008260000181815250505b509392505050565b600060d0600083815260200190815260200160002060020160009054906101000a900473ffffffffffffffffffffffffffffffffffffffff169050600060d0600084815260200190815260200160002060030154905060d0600084815260200190815260200160002060010160009054906101000a900473ffffffffffffffffffffffffffffffffffffffff1673ffffffffffffffffffffffffffffffffffffffff1663a9059cbb83836040518363ffffffff1660e01b815260040161208a9291906131ec565b6020604051808303816000875af11580156120a9573d6000803e3d6000fd5b505050506040513d601f19601f820116820180604052508101906120cd9190613148565b50808273ffffffffffffffffffffffffffffffffffffffff167f96c76d5aec8a8c11a9c8e02768e3fa309347330d08961e0cf9fd43b349b684c260405160405180910390a3505050565b6000603360009054906101000a900473ffffffffffffffffffffffffffffffffffffffff16905081603360006101000a81548173ffffffffffffffffffffffffffffffffffffffff021916908373ffffffffffffffffffffffffffffffffffffffff1602179055508173ffffffffffffffffffffffffffffffffffffffff168173ffffffffffffffffffffffffffffffffffffffff167f8be0079c531659141344cd1fd0a4f28419497f9722a3daafe3b4186f6b6457e060405160405180910390a35050565b6000808273ffffffffffffffffffffffffffffffffffffffff163b119050919050565b600060019054906101000a900460ff1661224f576040517f08c379a000000000000000000000000000000000000000000000000000000000815260040161224690613ee3565b60405180910390fd5b612257612366565b565b600060019054906101000a900460ff166122a8576040517f08c379a000000000000000000000000000000000000000000000000000000000815260040161229f90613ee3565b60405180910390fd5b6122b06123c7565b565b6122ba611b10565b6001609e60006101000a81548160ff0219169083151502179055507f62e78cea01bee320cd4e420270b5ea74000d11b0c9f74754ebdbfc544b05a2586122fe612315565b60405161230b9190612f22565b60405180910390a1565b600033905090565b612325610b22565b612364576040517f08c379a000000000000000000000000000000000000000000000000000000000815260040161235b90613f4f565b60405180910390fd5b565b600060019054906101000a900460ff166123b5576040517f08c379a00000000000000000000000000000000000000000000000000000000081526004016123ac90613ee3565b60405180910390fd5b6123c56123c0612315565b612117565b565b600060019054906101000a900460ff16612416576040517f08c379a000000000000000000000000000000000000000000000000000000000815260040161240d90613ee3565b60405180910390fd5b6000609e60006101000a81548160ff021916908315150217905550565b604051806040016040528060008019168152602001600080191681525090565b604051806101200160405280600073ffffffffffffffffffffffffffffffffffffffff168152602001600073ffffffffffffffffffffffffffffffffffffffff168152602001600073ffffffffffffffffffffffffffffffffffffffff1681526020016000815260200160006bffffffffffffffffffffffff168152602001600015158152602001600073ffffffffffffffffffffffffffffffffffffffff16815260200160006bffffffffffffffffffffffff168152602001600081525090565b604051806040016040528060008019168152602001600080191681525090565b604051806040016040528060008152602001600081525090565b6000604051905090565b600080fd5b600080fd5b6000819050919050565b61257681612563565b811461258157600080fd5b50565b6000813590506125938161256d565b92915050565b6000602082840312156125af576125ae612559565b5b60006125bd84828501612584565b91505092915050565b600081519050919050565b600082825260208201905092915050565b6000819050602082019050919050565b6125fb81612563565b82525050565b60408201600082015161261760008501826125f2565b50602082015161262a60208501826125f2565b50505050565b600061263c8383612601565b60408301905092915050565b6000602082019050919050565b6000612660826125c6565b61266a81856125d1565b9350612675836125e2565b8060005b838110156126a657815161268d8882612630565b975061269883612648565b925050600181019050612679565b5085935050505092915050565b600060208201905081810360008301526126cd8184612655565b905092915050565b600073ffffffffffffffffffffffffffffffffffffffff82169050919050565b6000612700826126d5565b9050919050565b612710816126f5565b811461271b57600080fd5b50565b60008135905061272d81612707565b92915050565b6000819050919050565b61274681612733565b811461275157600080fd5b50565b6000813590506127638161273d565b92915050565b60006bffffffffffffffffffffffff82169050919050565b61278a81612769565b811461279557600080fd5b50565b6000813590506127a781612781565b92915050565b600080fd5b600080fd5b600080fd5b60008083601f8401126127d2576127d16127ad565b5b8235905067ffffffffffffffff8111156127ef576127ee6127b2565b5b60208301915083600182028301111561280b5761280a6127b7565b5b9250929050565b6000806000806000806000806000806101208b8d03121561283657612835612559565b5b60006128448d828e0161271e565b9a505060206128558d828e01612754565b99505060406128668d828e01612584565b98505060606128778d828e01612584565b97505060806128888d828e01612798565b96505060a06128998d828e0161271e565b95505060c06128aa8d828e01612754565b94505060e06128bb8d828e0161271e565b9350506101008b013567ffffffffffffffff8111156128dd576128dc61255e565b5b6128e98d828e016127bc565b92509250509295989b9194979a5092959850565b61290681612563565b82525050565b600060208201905061292160008301846128fd565b92915050565b6000601f19601f8301169050919050565b7f4e487b7100000000000000000000000000000000000000000000000000000000600052604160045260246000fd5b61297082612927565b810181811067ffffffffffffffff8211171561298f5761298e612938565b5b80604052505050565b60006129a261254f565b90506129ae8282612967565b919050565b600067ffffffffffffffff8211156129ce576129cd612938565b5b602082029050602081019050919050565b600080fd5b6000604082840312156129fa576129f96129df565b5b612a046040612998565b90506000612a1484828501612584565b6000830152506020612a2884828501612584565b60208301525092915050565b6000612a47612a42846129b3565b612998565b90508083825260208201905060408402830185811115612a6a57612a696127b7565b5b835b81811015612a935780612a7f88826129e4565b845260208401935050604081019050612a6c565b5050509392505050565b600082601f830112612ab257612ab16127ad565b5b8135612ac2848260208601612a34565b91505092915050565b60008060408385031215612ae257612ae1612559565b5b6000612af085828601612584565b925050602083013567ffffffffffffffff811115612b1157612b1061255e565b5b612b1d85828601612a9d565b9150509250929050565b600081519050919050565b600082825260208201905092915050565b60005b83811015612b61578082015181840152602081019050612b46565b60008484015250505050565b6000612b7882612b27565b612b828185612b32565b9350612b92818560208601612b43565b612b9b81612927565b840191505092915050565b60006020820190508181036000830152612bc08184612b6d565b905092915050565b60008115159050919050565b612bdd81612bc8565b82525050565b6000602082019050612bf86000830184612bd4565b92915050565b600067ffffffffffffffff82169050919050565b612c1b81612bfe565b8114612c2657600080fd5b50565b600081359050612c3881612c12565b92915050565b612c4781612bc8565b8114612c5257600080fd5b50565b600081359050612c6481612c3e565b92915050565b60008060008060008060c08789031215612c8757612c86612559565b5b6000612c9589828a01612584565b9650506020612ca689828a01612584565b9550506040612cb789828a01612584565b9450506060612cc889828a0161271e565b9350506080612cd989828a01612c29565b92505060a0612cea89828a01612c55565b9150509295509295509295565b612d00816126f5565b82525050565b6000604082019050612d1b60008301856128fd565b612d286020830184612cf7565b9392505050565b600060208284031215612d4557612d44612559565b5b6000612d538482850161271e565b91505092915050565b612d65816126f5565b82525050565b612d7481612733565b82525050565b612d8381612769565b82525050565b612d9281612bc8565b82525050565b61012082016000820151612daf6000850182612d5c565b506020820151612dc26020850182612d5c565b506040820151612dd56040850182612d5c565b506060820151612de86060850182612d6b565b506080820151612dfb6080850182612d7a565b5060a0820151612e0e60a0850182612d89565b5060c0820151612e2160c0850182612d5c565b5060e0820151612e3460e0850182612d7a565b50610100820151612e49610100850182612d6b565b50505050565b600061012082019050612e656000830184612d98565b92915050565b60008060408385031215612e8257612e81612559565b5b6000612e9085828601612584565b9250506020612ea18582860161271e565b9150509250929050565b600060208284031215612ec157612ec0612559565b5b6000612ecf84828501612c29565b91505092915050565b604082016000820151612eee60008501826125f2565b506020820151612f0160208501826125f2565b50505050565b6000604082019050612f1c6000830184612ed8565b92915050565b6000602082019050612f376000830184612cf7565b92915050565b600080600060608486031215612f5657612f55612559565b5b6000612f6486828701612584565b9350506020612f758682870161271e565b9250506040612f8686828701612c55565b9150509250925092565b612f9981612bfe565b82525050565b612fa881612733565b82525050565b6000604082019050612fc36000830185612f90565b612fd06020830184612f9f565b9392505050565b60008083601f840112612fed57612fec6127ad565b5b8235905067ffffffffffffffff81111561300a576130096127b2565b5b602083019150836001820283011115613026576130256127b7565b5b9250929050565b6000806020838503121561304457613043612559565b5b600083013567ffffffffffffffff8111156130625761306161255e565b5b61306e85828601612fd7565b92509250509250929050565b60008060006060848603121561309357613092612559565b5b60006130a186828701612754565b93505060206130b286828701612584565b92505060406130c386828701612584565b9150509250925092565b7f4e487b7100000000000000000000000000000000000000000000000000000000600052603260045260246000fd5b60006060820190506131116000830186612cf7565b61311e6020830185612cf7565b61312b6040830184612f9f565b949350505050565b60008151905061314281612c3e565b92915050565b60006020828403121561315e5761315d612559565b5b600061316c84828501613133565b91505092915050565b7f4e487b7100000000000000000000000000000000000000000000000000000000600052601160045260246000fd5b60006131af82612733565b91507fffffffffffffffffffffffffffffffffffffffffffffffffffffffffffffffff82036131e1576131e0613175565b5b600182019050919050565b60006040820190506132016000830185612cf7565b61320e6020830184612f9f565b9392505050565b6000819050919050565b600061323a61323561323084612769565b613215565b612733565b9050919050565b61324a8161321f565b82525050565b600082825260208201905092915050565b82818337600083830152505050565b600061327c8385613250565b9350613289838584613261565b61329283612927565b840190509392505050565b60006080820190506132b26000830188613241565b6132bf60208301876128fd565b6132cc60408301866128fd565b81810360608301526132df818486613270565b90509695505050505050565b7f4e487b7100000000000000000000000000000000000000000000000000000000600052602260045260246000fd5b6000600282049050600182168061333257607f821691505b602082108103613345576133446132eb565b5b50919050565b7f4f6e6c7941676772656761746f72000000000000000000000000000000000000600082015250565b6000613381600e83613250565b915061338c8261334b565b602082019050919050565b600060208201905081810360008301526133b081613374565b9050919050565b7f4f7264657246756c66696c6c6564000000000000000000000000000000000000600082015250565b60006133ed600e83613250565b91506133f8826133b7565b602082019050919050565b6000602082019050818103600083015261341c816133e0565b9050919050565b600061342e82612769565b915061343983612769565b925082820390506bffffffffffffffffffffffff81111561345d5761345c613175565b5b92915050565b600061347e61347961347484612bfe565b613215565b612769565b9050919050565b61348e81613463565b82525050565b60006060820190506134a960008301866128fd565b6134b660208301856128fd565b6134c36040830184613485565b949350505050565b7f50617963726573743a207a65726f206164647265737300000000000000000000600082015250565b6000613501601683613250565b915061350c826134cb565b602082019050919050565b60006020820190508181036000830152613530816134f4565b9050919050565b7f496e697469616c697a61626c653a20636f6e747261637420697320616c72656160008201527f647920696e697469616c697a6564000000000000000000000000000000000000602082015250565b6000613593602e83613250565b915061359e82613537565b604082019050919050565b600060208201905081810360008301526135c281613586565b9050919050565b6000819050919050565b600060ff82169050919050565b60006135fb6135f66135f1846135c9565b613215565b6135d3565b9050919050565b61360b816135e0565b82525050565b60006020820190506136266000830184613602565b92915050565b60006020820190506136416000830184612f90565b92915050565b600060608201905061365c60008301866128fd565b6136696020830185612cf7565b6136766040830184612bd4565b949350505050565b600082905092915050565b60008190508160005260206000209050919050565b60006020601f8301049050919050565b600082821b905092915050565b6000600883026136eb7fffffffffffffffffffffffffffffffffffffffffffffffffffffffffffffffff826136ae565b6136f586836136ae565b95508019841693508086168417925050509392505050565b600061372861372361371e84612733565b613215565b612733565b9050919050565b6000819050919050565b6137428361370d565b61375661374e8261372f565b8484546136bb565b825550505050565b600090565b61376b61375e565b613776818484613739565b505050565b5b8181101561379a5761378f600082613763565b60018101905061377c565b5050565b601f8211156137df576137b081613689565b6137b98461369e565b810160208510156137c8578190505b6137dc6137d48561369e565b83018261377b565b50505b505050565b600082821c905092915050565b6000613802600019846008026137e4565b1980831691505092915050565b600061381b83836137f1565b9150826002028217905092915050565b613835838361367e565b67ffffffffffffffff81111561384e5761384d612938565b5b613858825461331a565b61386382828561379e565b6000601f8311600181146138925760008415613880578287013590505b61388a858261380f565b8655506138f2565b601f1984166138a086613689565b60005b828110156138c8578489013582556001820191506020850194506020810190506138a3565b868310156138e557848901356138e1601f8916826137f1565b8355505b6001600288020188555050505b50505050505050565b60006139078385612b32565b9350613914838584613261565b61391d83612927565b840190509392505050565b600060208201905081810360008301526139438184866138fb565b90509392505050565b600061395782612733565b915061396283612733565b925082820390508181111561397a57613979613175565b5b92915050565b60006040820190506139956000830185612f9f565b6139a260208301846128fd565b9392505050565b7f4f776e61626c653a206e6577206f776e657220697320746865207a65726f206160008201527f6464726573730000000000000000000000000000000000000000000000000000602082015250565b6000613a05602683613250565b9150613a10826139a9565b604082019050919050565b60006020820190508181036000830152613a34816139f8565b9050919050565b7f5061757361626c653a2070617573656400000000000000000000000000000000600082015250565b6000613a71601083613250565b9150613a7c82613a3b565b602082019050919050565b60006020820190508181036000830152613aa081613a64565b9050919050565b7f546f6b656e4e6f74537570706f72746564000000000000000000000000000000600082015250565b6000613add601183613250565b9150613ae882613aa7565b602082019050919050565b60006020820190508181036000830152613b0c81613ad0565b9050919050565b7f416d6f756e7449735a65726f0000000000000000000000000000000000000000600082015250565b6000613b49600c83613250565b9150613b5482613b13565b602082019050919050565b60006020820190508181036000830152613b7881613b3c565b9050919050565b7f5468726f775a65726f4164647265737300000000000000000000000000000000600082015250565b6000613bb5601083613250565b9150613bc082613b7f565b602082019050919050565b60006020820190508181036000830152613be481613ba8565b9050919050565b7f496e76616c6964496e737469747574696f6e436f646500000000000000000000600082015250565b6000613c21601683613250565b9150613c2c82613beb565b602082019050919050565b60006020820190508181036000830152613c5081613c14565b9050919050565b7f496e76616c696453656e646572466565526563697069656e7400000000000000600082015250565b6000613c8d601983613250565b9150613c9882613c57565b602082019050919050565b60006020820190508181036000830152613cbc81613c80565b9050919050565b6000613cce82612733565b9150613cd983612733565b9250828202613ce781612733565b91508282048414831517613cfe57613cfd613175565b5b5092915050565b7f4e487b7100000000000000000000000000000000000000000000000000000000600052601260045260246000fd5b6000613d3f82612733565b9150613d4a83612733565b925082613d5a57613d59613d05565b5b828204905092915050565b7f53656e646572466565546f6f4869676800000000000000000000000000000000600082015250565b6000613d9b601083613250565b9150613da682613d65565b602082019050919050565b60006020820190508181036000830152613dca81613d8e565b9050919050565b7f4f776e61626c653a2063616c6c6572206973206e6f7420746865206f776e6572600082015250565b6000613e07602083613250565b9150613e1282613dd1565b602082019050919050565b60006020820190508181036000830152613e3681613dfa565b9050919050565b6000613e4882612733565b9150613e5383612733565b9250828201905080821115613e6b57613e6a613175565b5b92915050565b7f496e697469616c697a61626c653a20636f6e7472616374206973206e6f74206960008201527f6e697469616c697a696e67000000000000000000000000000000000000000000602082015250565b6000613ecd602b83613250565b9150613ed882613e71565b604082019050919050565b60006020820190508181036000830152613efc81613ec0565b9050919050565b7f5061757361626c653a206e6f7420706175736564000000000000000000000000600082015250565b6000613f39601483613250565b9150613f4482613f03565b602082019050919050565b60006020820190508181036000830152613f6881613f2c565b905091905056fea26469706673582212203cfe24bc9e3625587a8a292c4c9547ec7f2f473ca4cac0113867d48cd46bd56864736f6c63430008120033",
  "linkReferences": {},
  "deployedLinkReferences": {}
}