{
  "_format": "hh-sol-artifact-1",
  "contractName": "Paycrest",
  "sourceName": "contracts/Paycrest.sol",
  "abi": [
    {
      "inputs": [],
      "stateMutability": "nonpayable",
      "type": "constructor"
    },
    {
      "anonymous": false,
      "inputs": [
        {
          "indexed": false,
          "internalType": "uint8",
          "name": "version",
          "type": "uint8"
        }
      ],
      "name": "Initialized",
      "type": "event"
    },
    {
      "anonymous": false,
      "inputs": [
        {
          "indexed": true,
          "internalType": "address",
          "name": "sender",
          "type": "address"
        },
        {
          "indexed": true,
          "internalType": "address",
          "name": "token",
          "type": "address"
        },
        {
          "indexed": true,
          "internalType": "uint256",
          "name": "amount",
          "type": "uint256"
        },
        {
          "indexed": false,
          "internalType": "uint256",
          "name": "protocolFee",
          "type": "uint256"
        },
        {
          "indexed": false,
          "internalType": "bytes32",
          "name": "orderId",
          "type": "bytes32"
        },
        {
          "indexed": false,
          "internalType": "uint256",
          "name": "rate",
          "type": "uint256"
        },
        {
          "indexed": false,
          "internalType": "bytes32",
          "name": "institutionCode",
          "type": "bytes32"
        },
        {
          "indexed": false,
          "internalType": "string",
          "name": "messageHash",
          "type": "string"
        }
      ],
      "name": "OrderCreated",
      "type": "event"
    },
    {
      "anonymous": false,
      "inputs": [
        {
          "indexed": false,
          "internalType": "uint256",
          "name": "fee",
          "type": "uint256"
        },
        {
          "indexed": true,
          "internalType": "bytes32",
          "name": "orderId",
          "type": "bytes32"
        }
      ],
      "name": "OrderRefunded",
      "type": "event"
    },
    {
      "anonymous": false,
      "inputs": [
        {
          "indexed": false,
          "internalType": "bytes32",
          "name": "splitOrderId",
          "type": "bytes32"
        },
        {
          "indexed": true,
          "internalType": "bytes32",
          "name": "orderId",
          "type": "bytes32"
        },
        {
          "indexed": true,
          "internalType": "address",
          "name": "liquidityProvider",
          "type": "address"
        },
        {
          "indexed": false,
          "internalType": "uint96",
          "name": "settlePercent",
          "type": "uint96"
        }
      ],
      "name": "OrderSettled",
      "type": "event"
    },
    {
      "anonymous": false,
      "inputs": [
        {
          "indexed": true,
          "internalType": "address",
          "name": "previousOwner",
          "type": "address"
        },
        {
          "indexed": true,
          "internalType": "address",
          "name": "newOwner",
          "type": "address"
        }
      ],
      "name": "OwnershipTransferStarted",
      "type": "event"
    },
    {
      "anonymous": false,
      "inputs": [
        {
          "indexed": true,
          "internalType": "address",
          "name": "previousOwner",
          "type": "address"
        },
        {
          "indexed": true,
          "internalType": "address",
          "name": "newOwner",
          "type": "address"
        }
      ],
      "name": "OwnershipTransferred",
      "type": "event"
    },
    {
      "anonymous": false,
      "inputs": [
        {
          "indexed": false,
          "internalType": "address",
          "name": "account",
          "type": "address"
        }
      ],
      "name": "Paused",
      "type": "event"
    },
    {
      "anonymous": false,
      "inputs": [
        {
          "indexed": true,
          "internalType": "bytes32",
          "name": "what",
          "type": "bytes32"
        },
        {
          "indexed": true,
          "internalType": "address",
          "name": "treasuryAddress",
          "type": "address"
        }
      ],
      "name": "ProtocolAddressUpdated",
      "type": "event"
    },
    {
      "anonymous": false,
      "inputs": [
        {
          "indexed": false,
          "internalType": "uint64",
          "name": "protocolFee",
          "type": "uint64"
        }
      ],
      "name": "ProtocolFeesUpdated",
      "type": "event"
    },
    {
      "anonymous": false,
      "inputs": [
        {
          "indexed": true,
          "internalType": "address",
          "name": "sender",
          "type": "address"
        },
        {
          "indexed": true,
          "internalType": "uint256",
          "name": "amount",
          "type": "uint256"
        }
      ],
      "name": "SenderFeeTransferred",
      "type": "event"
    },
    {
      "anonymous": false,
      "inputs": [
        {
          "indexed": true,
          "internalType": "bytes",
          "name": "aggregator",
          "type": "bytes"
        }
      ],
      "name": "SetAggregator",
      "type": "event"
    },
    {
      "anonymous": false,
      "inputs": [
        {
          "indexed": true,
          "internalType": "address",
          "name": "treasuryAddress",
          "type": "address"
        }
      ],
      "name": "SetFeeRecipient",
      "type": "event"
    },
    {
      "anonymous": false,
      "inputs": [
        {
          "indexed": true,
          "internalType": "bytes32",
          "name": "what",
          "type": "bytes32"
        },
        {
          "indexed": true,
          "internalType": "address",
          "name": "value",
          "type": "address"
        },
        {
          "indexed": false,
          "internalType": "uint256",
          "name": "status",
          "type": "uint256"
        }
      ],
      "name": "SettingManagerBool",
      "type": "event"
    },
    {
      "anonymous": false,
      "inputs": [
        {
          "indexed": true,
          "internalType": "bytes32",
          "name": "currency",
          "type": "bytes32"
        },
        {
          "components": [
            {
              "internalType": "bytes32",
              "name": "code",
              "type": "bytes32"
            },
            {
              "internalType": "bytes32",
              "name": "name",
              "type": "bytes32"
            }
          ],
          "indexed": false,
          "internalType": "struct SharedStructs.Institution[]",
          "name": "institutions",
          "type": "tuple[]"
        }
      ],
      "name": "SupportedInstitutionsUpdated",
      "type": "event"
    },
    {
      "anonymous": false,
      "inputs": [
        {
          "indexed": false,
          "internalType": "address",
          "name": "account",
          "type": "address"
        }
      ],
      "name": "Unpaused",
      "type": "event"
    },
    {
      "inputs": [],
      "name": "acceptOwnership",
      "outputs": [],
      "stateMutability": "nonpayable",
      "type": "function"
    },
    {
      "inputs": [
        {
          "internalType": "address",
          "name": "_token",
          "type": "address"
        },
        {
          "internalType": "uint256",
          "name": "_amount",
          "type": "uint256"
        },
        {
          "internalType": "bytes32",
          "name": "_institutionCode",
          "type": "bytes32"
        },
        {
          "internalType": "uint96",
          "name": "_rate",
          "type": "uint96"
        },
        {
          "internalType": "address",
          "name": "_senderFeeRecipient",
          "type": "address"
        },
        {
          "internalType": "uint256",
          "name": "_senderFee",
          "type": "uint256"
        },
        {
          "internalType": "address",
          "name": "_refundAddress",
          "type": "address"
        },
        {
          "internalType": "string",
          "name": "messageHash",
          "type": "string"
        }
      ],
      "name": "createOrder",
      "outputs": [
        {
          "internalType": "bytes32",
          "name": "orderId",
          "type": "bytes32"
        }
      ],
      "stateMutability": "nonpayable",
      "type": "function"
    },
    {
      "inputs": [],
      "name": "getAggregator",
      "outputs": [
        {
          "internalType": "bytes",
          "name": "",
          "type": "bytes"
        }
      ],
      "stateMutability": "view",
      "type": "function"
    },
    {
      "inputs": [],
      "name": "getFeeDetails",
      "outputs": [
        {
          "internalType": "uint64",
          "name": "",
          "type": "uint64"
        },
        {
          "internalType": "uint256",
          "name": "",
          "type": "uint256"
        }
      ],
      "stateMutability": "view",
      "type": "function"
    },
    {
      "inputs": [
        {
          "internalType": "bytes32",
          "name": "_orderId",
          "type": "bytes32"
        }
      ],
      "name": "getOrderInfo",
      "outputs": [
        {
          "components": [
            {
              "internalType": "address",
              "name": "sender",
              "type": "address"
            },
            {
              "internalType": "address",
              "name": "token",
              "type": "address"
            },
            {
              "internalType": "address",
              "name": "senderFeeRecipient",
              "type": "address"
            },
            {
              "internalType": "uint256",
              "name": "senderFee",
              "type": "uint256"
            },
            {
              "internalType": "uint256",
              "name": "protocolFee",
              "type": "uint256"
            },
            {
              "internalType": "bool",
              "name": "isFulfilled",
              "type": "bool"
            },
            {
              "internalType": "bool",
              "name": "isRefunded",
              "type": "bool"
            },
            {
              "internalType": "address",
              "name": "refundAddress",
              "type": "address"
            },
            {
              "internalType": "uint96",
              "name": "currentBPS",
              "type": "uint96"
            },
            {
              "internalType": "uint256",
              "name": "amount",
              "type": "uint256"
            }
          ],
          "internalType": "struct IPaycrest.Order",
          "name": "",
          "type": "tuple"
        }
      ],
      "stateMutability": "view",
      "type": "function"
    },
    {
      "inputs": [
        {
          "internalType": "bytes32",
          "name": "_code",
          "type": "bytes32"
        }
      ],
      "name": "getSupportedInstitutionByCode",
      "outputs": [
        {
          "components": [
            {
              "internalType": "bytes32",
              "name": "name",
              "type": "bytes32"
            },
            {
              "internalType": "bytes32",
              "name": "currency",
              "type": "bytes32"
            }
          ],
          "internalType": "struct SharedStructs.InstitutionByCode",
          "name": "",
          "type": "tuple"
        }
      ],
      "stateMutability": "view",
      "type": "function"
    },
    {
      "inputs": [
        {
          "internalType": "bytes32",
          "name": "_currency",
          "type": "bytes32"
        }
      ],
      "name": "getSupportedInstitutions",
      "outputs": [
        {
          "components": [
            {
              "internalType": "bytes32",
              "name": "code",
              "type": "bytes32"
            },
            {
              "internalType": "bytes32",
              "name": "name",
              "type": "bytes32"
            }
          ],
          "internalType": "struct SharedStructs.Institution[]",
          "name": "",
          "type": "tuple[]"
        }
      ],
      "stateMutability": "view",
      "type": "function"
    },
    {
      "inputs": [],
      "name": "initialize",
      "outputs": [],
      "stateMutability": "nonpayable",
      "type": "function"
    },
    {
      "inputs": [
        {
          "internalType": "address",
          "name": "_token",
          "type": "address"
        }
      ],
      "name": "isTokenSupported",
      "outputs": [
        {
          "internalType": "bool",
          "name": "",
          "type": "bool"
        }
      ],
      "stateMutability": "view",
      "type": "function"
    },
    {
      "inputs": [],
      "name": "owner",
      "outputs": [
        {
          "internalType": "address",
          "name": "",
          "type": "address"
        }
      ],
      "stateMutability": "view",
      "type": "function"
    },
    {
      "inputs": [],
      "name": "pause",
      "outputs": [],
      "stateMutability": "nonpayable",
      "type": "function"
    },
    {
      "inputs": [],
      "name": "paused",
      "outputs": [
        {
          "internalType": "bool",
          "name": "",
          "type": "bool"
        }
      ],
      "stateMutability": "view",
      "type": "function"
    },
    {
      "inputs": [],
      "name": "pendingOwner",
      "outputs": [
        {
          "internalType": "address",
          "name": "",
          "type": "address"
        }
      ],
      "stateMutability": "view",
      "type": "function"
    },
    {
      "inputs": [
        {
          "internalType": "uint256",
          "name": "_fee",
          "type": "uint256"
        },
        {
          "internalType": "bytes32",
          "name": "_orderId",
          "type": "bytes32"
        }
      ],
      "name": "refund",
      "outputs": [
        {
          "internalType": "bool",
          "name": "",
          "type": "bool"
        }
      ],
      "stateMutability": "nonpayable",
      "type": "function"
    },
    {
      "inputs": [],
      "name": "renounceOwnership",
      "outputs": [],
      "stateMutability": "nonpayable",
      "type": "function"
    },
    {
      "inputs": [
        {
          "internalType": "bytes32",
          "name": "currency",
          "type": "bytes32"
        },
        {
          "components": [
            {
              "internalType": "bytes32",
              "name": "code",
              "type": "bytes32"
            },
            {
              "internalType": "bytes32",
              "name": "name",
              "type": "bytes32"
            }
          ],
          "internalType": "struct SharedStructs.Institution[]",
          "name": "institutions",
          "type": "tuple[]"
        }
      ],
      "name": "setSupportedInstitutions",
      "outputs": [],
      "stateMutability": "nonpayable",
      "type": "function"
    },
    {
      "inputs": [
        {
          "internalType": "bytes32",
          "name": "what",
          "type": "bytes32"
        },
        {
          "internalType": "address",
          "name": "value",
          "type": "address"
        },
        {
          "internalType": "uint256",
          "name": "status",
          "type": "uint256"
        }
      ],
      "name": "settingManagerBool",
      "outputs": [],
      "stateMutability": "nonpayable",
      "type": "function"
    },
    {
      "inputs": [
        {
          "internalType": "bytes32",
          "name": "_splitOrderId",
          "type": "bytes32"
        },
        {
          "internalType": "bytes32",
          "name": "_orderId",
          "type": "bytes32"
        },
        {
          "internalType": "address",
          "name": "_liquidityProvider",
          "type": "address"
        },
        {
          "internalType": "uint64",
          "name": "_settlePercent",
          "type": "uint64"
        }
      ],
      "name": "settle",
      "outputs": [
        {
          "internalType": "bool",
          "name": "",
          "type": "bool"
        }
      ],
      "stateMutability": "nonpayable",
      "type": "function"
    },
    {
      "inputs": [
        {
          "internalType": "address",
          "name": "newOwner",
          "type": "address"
        }
      ],
      "name": "transferOwnership",
      "outputs": [],
      "stateMutability": "nonpayable",
      "type": "function"
    },
    {
      "inputs": [],
      "name": "unpause",
      "outputs": [],
      "stateMutability": "nonpayable",
      "type": "function"
    },
    {
      "inputs": [
        {
          "internalType": "bytes32",
          "name": "what",
          "type": "bytes32"
        },
        {
          "internalType": "address",
          "name": "value",
          "type": "address"
        }
      ],
      "name": "updateProtocolAddress",
      "outputs": [],
      "stateMutability": "nonpayable",
      "type": "function"
    },
    {
      "inputs": [
        {
          "internalType": "bytes",
          "name": "aggregator",
          "type": "bytes"
        }
      ],
      "name": "updateProtocolAggregator",
      "outputs": [],
      "stateMutability": "nonpayable",
      "type": "function"
    },
    {
      "inputs": [
        {
          "internalType": "uint64",
          "name": "_protocolFeePercent",
          "type": "uint64"
        }
      ],
      "name": "updateProtocolFees",
      "outputs": [],
      "stateMutability": "nonpayable",
      "type": "function"
    }
  ],
  "bytecode": "0x60806040523480156200001157600080fd5b50620000226200002860201b60201c565b620001d2565b600060019054906101000a900460ff16156200007b576040517f08c379a0000000000000000000000000000000000000000000000000000000008152600401620000729062000175565b60405180910390fd5b60ff801660008054906101000a900460ff1660ff1614620000ec5760ff6000806101000a81548160ff021916908360ff1602179055507f7f26b83ff96e1f2b6a682f133852f6798a09c465da95921460cefb384740249860ff604051620000e39190620001b5565b60405180910390a15b565b600082825260208201905092915050565b7f496e697469616c697a61626c653a20636f6e747261637420697320696e69746960008201527f616c697a696e6700000000000000000000000000000000000000000000000000602082015250565b60006200015d602783620000ee565b91506200016a82620000ff565b604082019050919050565b6000602082019050818103600083015262000190816200014e565b9050919050565b600060ff82169050919050565b620001af8162000197565b82525050565b6000602082019050620001cc6000830184620001a4565b92915050565b61468580620001e26000396000f3fe608060405234801561001057600080fd5b506004361061014d5760003560e01c80638129fc1c116100c3578063cb79455b1161007c578063cb79455b14610341578063cd9924001461035d578063d12ff20a14610379578063e30c3978146103a9578063f22ee704146103c7578063f2fde38b146103f75761014d565b80638129fc1c146102a45780638456cb59146102ae57806384630736146102b85780638da5cb5b146102d4578063b810c636146102f2578063c2280103146103115761014d565b80635c975abb116101155780635c975abb146101e2578063715018a61461020057806371eedb881461020a57806375151b631461023a578063768c6ec01461026a57806379ba50971461029a5761014d565b8063026213381461015257806332200882146101825780633ad59dbc1461019e5780633f4ba83a146101bc57806340ebc677146101c6575b600080fd5b61016c60048036038101906101679190612999565b610413565b6040516101799190612ab3565b60405180910390f35b61019c60048036038101906101979190612c83565b610499565b005b6101a661060e565b6040516101b39190612d5e565b60405180910390f35b6101c46106a0565b005b6101e060048036038101906101db9190612dde565b6106b2565b005b6101ea61097a565b6040516101f79190612e39565b60405180910390f35b610208610991565b005b610224600480360381019061021f9190612e8a565b6109a5565b6040516102319190612e39565b60405180910390f35b610254600480360381019061024f9190612eca565b610e45565b6040516102619190612e39565b60405180910390f35b610284600480360381019061027f9190612999565b610ea1565b6040516102919190613017565b60405180910390f35b6102a26110ba565b005b6102ac611147565b005b6102b6611297565b005b6102d260048036038101906102cd9190613073565b6112a9565b005b6102dc611314565b6040516102e991906130af565b60405180910390f35b6102fa61133e565b6040516103089291906130e8565b60405180910390f35b61032b60048036038101906103269190612999565b611363565b6040516103389190613140565b60405180910390f35b61035b600480360381019061035691906131b6565b6113a4565b005b61037760048036038101906103729190613203565b611406565b005b610393600480360381019061038e91906132d8565b61158b565b6040516103a091906133bd565b60405180910390f35b6103b1611ad2565b6040516103be91906130af565b60405180910390f35b6103e160048036038101906103dc91906133d8565b611afc565b6040516103ee9190612e39565b60405180910390f35b610411600480360381019061040c9190612eca565b6120f3565b005b606060ce6000838152602001908152602001600020805480602002602001604051908101604052809291908181526020016000905b8282101561048e57838290600052602060002090600202016040518060400160405290816000820154815260200160018201548152505081526020019060010190610448565b505050509050919050565b6104a16121a0565b60ce600083815260200190815260200160002060006104c09190612827565b60005b81518110156105bf5760ce60008481526020019081526020016000208282815181106104f2576104f161343f565b5b602002602001015190806001815401808255809150506001900390600052602060002090600202016000909190919091506000820151816000015560208201518160010155505060405180604001604052808383815181106105575761055661343f565b5b60200260200101516020015181526020018481525060cf60008484815181106105835761058261343f565b5b602002602001015160000151815260200190815260200160002060008201518160000155602082015181600101559050508060010190506104c3565b50817f58f3a30ec15a8d3e09fa65f9ef10219bc7a9a99d872a4ed895c37c2e761ac2ac60ce60008581526020019081526020016000206040516106029190613588565b60405180910390a25050565b6060609a805461061d906135d9565b80601f0160208091040260200160405190810160405280929190818152602001828054610649906135d9565b80156106965780601f1061066b57610100808354040283529160200191610696565b820191906000526020600020905b81548152906001019060200180831161067957829003601f168201915b5050505050905090565b6106a86121a0565b6106b061221e565b565b6106ba6121a0565b600073ffffffffffffffffffffffffffffffffffffffff168173ffffffffffffffffffffffffffffffffffffffff1603610729576040517f08c379a000000000000000000000000000000000000000000000000000000000815260040161072090613667565b60405180910390fd5b60007f7472656173757279000000000000000000000000000000000000000000000000830361082c578173ffffffffffffffffffffffffffffffffffffffff16609860089054906101000a900473ffffffffffffffffffffffffffffffffffffffff1673ffffffffffffffffffffffffffffffffffffffff16036107e2576040517f08c379a00000000000000000000000000000000000000000000000000000000081526004016107d9906136f9565b60405180910390fd5b81609860086101000a81548173ffffffffffffffffffffffffffffffffffffffff021916908373ffffffffffffffffffffffffffffffffffffffff1602179055506001905061092a565b7f61676772656761746f72000000000000000000000000000000000000000000008303610929578173ffffffffffffffffffffffffffffffffffffffff16609960009054906101000a900473ffffffffffffffffffffffffffffffffffffffff1673ffffffffffffffffffffffffffffffffffffffff16036108e3576040517f08c379a00000000000000000000000000000000000000000000000000000000081526004016108da9061378b565b60405180910390fd5b81609960006101000a81548173ffffffffffffffffffffffffffffffffffffffff021916908373ffffffffffffffffffffffffffffffffffffffff160217905550600190505b5b8015610975578173ffffffffffffffffffffffffffffffffffffffff16837fbbc5b96e57cfecb3dbeeadf92e87f15e58e64fcd75cbe256dcc5d9ef2e51e8a460405160405180910390a35b505050565b600060d060009054906101000a900460ff16905090565b6109996121a0565b6109a36000612281565b565b6000609960009054906101000a900473ffffffffffffffffffffffffffffffffffffffff1673ffffffffffffffffffffffffffffffffffffffff163373ffffffffffffffffffffffffffffffffffffffff1614610a37576040517f08c379a0000000000000000000000000000000000000000000000000000000008152600401610a2e906137f7565b60405180910390fd5b610102600083815260200190815260200160002060050160009054906101000a900460ff1615610a9c576040517f08c379a0000000000000000000000000000000000000000000000000000000008152600401610a9390613863565b60405180910390fd5b610102600083815260200190815260200160002060050160019054906101000a900460ff1615610b01576040517f08c379a0000000000000000000000000000000000000000000000000000000008152600401610af8906138cf565b60405180910390fd5b826101026000848152602001908152602001600020600401541015610b5b576040517f08c379a0000000000000000000000000000000000000000000000000000000008152600401610b529061393b565b60405180910390fd5b610102600083815260200190815260200160002060010160009054906101000a900473ffffffffffffffffffffffffffffffffffffffff1673ffffffffffffffffffffffffffffffffffffffff1663a9059cbb609860089054906101000a900473ffffffffffffffffffffffffffffffffffffffff16856040518363ffffffff1660e01b8152600401610bef92919061395b565b6020604051808303816000875af1158015610c0e573d6000803e3d6000fd5b505050506040513d601f19601f82011682018060405250810190610c3291906139b0565b506001610102600084815260200190815260200160002060050160016101000a81548160ff0219169083151502179055506000610102600084815260200190815260200160002060060160006101000a8154816bffffffffffffffffffffffff02191690836bffffffffffffffffffffffff160217905550600083610102600085815260200190815260200160002060040154610102600086815260200190815260200160002060070154610ce79190613a0c565b610cf19190613a40565b9050610102600084815260200190815260200160002060010160009054906101000a900473ffffffffffffffffffffffffffffffffffffffff1673ffffffffffffffffffffffffffffffffffffffff1663a9059cbb610102600086815260200190815260200160002060050160029054906101000a900473ffffffffffffffffffffffffffffffffffffffff1661010260008781526020019081526020016000206003015484610da19190613a0c565b6040518363ffffffff1660e01b8152600401610dbe92919061395b565b6020604051808303816000875af1158015610ddd573d6000803e3d6000fd5b505050506040513d601f19601f82011682018060405250810190610e0191906139b0565b50827f0736fe428e1747ca8d387c2e6fa1a31a0cde62d3a167c40a46ade59a3cdc828e85604051610e329190613a74565b60405180910390a2600191505092915050565b6000600160cd60008473ffffffffffffffffffffffffffffffffffffffff1673ffffffffffffffffffffffffffffffffffffffff1681526020019081526020016000205403610e975760019050610e9c565b600090505b919050565b610ea961284b565b6101026000838152602001908152602001600020604051806101400160405290816000820160009054906101000a900473ffffffffffffffffffffffffffffffffffffffff1673ffffffffffffffffffffffffffffffffffffffff1673ffffffffffffffffffffffffffffffffffffffff1681526020016001820160009054906101000a900473ffffffffffffffffffffffffffffffffffffffff1673ffffffffffffffffffffffffffffffffffffffff1673ffffffffffffffffffffffffffffffffffffffff1681526020016002820160009054906101000a900473ffffffffffffffffffffffffffffffffffffffff1673ffffffffffffffffffffffffffffffffffffffff1673ffffffffffffffffffffffffffffffffffffffff16815260200160038201548152602001600482015481526020016005820160009054906101000a900460ff161515151581526020016005820160019054906101000a900460ff161515151581526020016005820160029054906101000a900473ffffffffffffffffffffffffffffffffffffffff1673ffffffffffffffffffffffffffffffffffffffff1673ffffffffffffffffffffffffffffffffffffffff1681526020016006820160009054906101000a90046bffffffffffffffffffffffff166bffffffffffffffffffffffff166bffffffffffffffffffffffff1681526020016007820154815250509050919050565b60006110c46122b2565b90508073ffffffffffffffffffffffffffffffffffffffff166110e5611ad2565b73ffffffffffffffffffffffffffffffffffffffff161461113b576040517f08c379a000000000000000000000000000000000000000000000000000000000815260040161113290613b01565b60405180910390fd5b61114481612281565b50565b60008060019054906101000a900460ff161590508080156111785750600160008054906101000a900460ff1660ff16105b806111a55750611187306122ba565b1580156111a45750600160008054906101000a900460ff1660ff16145b5b6111e4576040517f08c379a00000000000000000000000000000000000000000000000000000000081526004016111db90613b93565b60405180910390fd5b60016000806101000a81548160ff021916908360ff1602179055508015611221576001600060016101000a81548160ff0219169083151502179055505b620186a06097819055506112336122dd565b61123b612336565b80156112945760008060016101000a81548160ff0219169083151502179055507f7f26b83ff96e1f2b6a682f133852f6798a09c465da95921460cefb3847402498600160405161128b9190613c05565b60405180910390a15b50565b61129f6121a0565b6112a761238f565b565b6112b16121a0565b80609860006101000a81548167ffffffffffffffff021916908367ffffffffffffffff1602179055507fb94068a4bd2571acee6ac79acc9dcdcf10c31425d35f09e88f154ec520e26446816040516113099190613c20565b60405180910390a150565b6000603360009054906101000a900473ffffffffffffffffffffffffffffffffffffffff16905090565b600080609860009054906101000a900467ffffffffffffffff16609754915091509091565b61136b612908565b60cf6000838152602001908152602001600020604051806040016040529081600082015481526020016001820154815250509050919050565b6113ac6121a0565b8181609a91826113bd929190613de8565b5081816040516113ce929190613ef7565b60405180910390207f6a6600b7242975868d8321b5e64d0c9f2fcc92eb1af72254a6357be77ee7dcef60405160405180910390a25050565b61140e6121a0565b600073ffffffffffffffffffffffffffffffffffffffff168273ffffffffffffffffffffffffffffffffffffffff160361147d576040517f08c379a000000000000000000000000000000000000000000000000000000000815260040161147490613667565b60405180910390fd5b600181148061148c5750600281145b6114cb576040517f08c379a00000000000000000000000000000000000000000000000000000000081526004016114c290613f5c565b60405180910390fd5b7f746f6b656e0000000000000000000000000000000000000000000000000000008303611586578060cd60008473ffffffffffffffffffffffffffffffffffffffff1673ffffffffffffffffffffffffffffffffffffffff168152602001908152602001600020819055508173ffffffffffffffffffffffffffffffffffffffff16837fcfa976492af7c14a916cc3a239f4c9c75bbd7f5f0e398beb41d892c7eeccae4c8360405161157d9190613a74565b60405180910390a35b505050565b60006115956123f2565b6115a38a8a8689898d61243c565b600083839050036115e9576040517f08c379a00000000000000000000000000000000000000000000000000000000081526004016115e090613fc8565b60405180910390fd5b8973ffffffffffffffffffffffffffffffffffffffff166323b872dd3330888d6116139190613a0c565b6040518463ffffffff1660e01b815260040161163193929190613fe8565b6020604051808303816000875af1158015611650573d6000803e3d6000fd5b505050506040513d601f19601f8201168201806040525081019061167491906139b0565b5061010360003373ffffffffffffffffffffffffffffffffffffffff1673ffffffffffffffffffffffffffffffffffffffff16815260200190815260200160002060008154809291906116c69061401f565b91905055503361010360003373ffffffffffffffffffffffffffffffffffffffff1673ffffffffffffffffffffffffffffffffffffffff1681526020019081526020016000205460405160200161171e92919061395b565b6040516020818303038152906040528051906020012090506000609754609860009054906101000a900467ffffffffffffffff1667ffffffffffffffff168b6117679190614067565b61177191906140d8565b90506040518061014001604052803373ffffffffffffffffffffffffffffffffffffffff1681526020018c73ffffffffffffffffffffffffffffffffffffffff1681526020018873ffffffffffffffffffffffffffffffffffffffff1681526020018781526020018281526020016000151581526020016000151581526020018673ffffffffffffffffffffffffffffffffffffffff16815260200160975467ffffffffffffffff166bffffffffffffffffffffffff168152602001828c6118399190613a40565b815250610102600084815260200190815260200160002060008201518160000160006101000a81548173ffffffffffffffffffffffffffffffffffffffff021916908373ffffffffffffffffffffffffffffffffffffffff16021790555060208201518160010160006101000a81548173ffffffffffffffffffffffffffffffffffffffff021916908373ffffffffffffffffffffffffffffffffffffffff16021790555060408201518160020160006101000a81548173ffffffffffffffffffffffffffffffffffffffff021916908373ffffffffffffffffffffffffffffffffffffffff160217905550606082015181600301556080820151816004015560a08201518160050160006101000a81548160ff02191690831515021790555060c08201518160050160016101000a81548160ff02191690831515021790555060e08201518160050160026101000a81548173ffffffffffffffffffffffffffffffffffffffff021916908373ffffffffffffffffffffffffffffffffffffffff1602179055506101008201518160060160006101000a8154816bffffffffffffffffffffffff02191690836bffffffffffffffffffffffff16021790555061012082015181600701559050506101026000838152602001908152602001600020600701548b73ffffffffffffffffffffffffffffffffffffffff16610102600085815260200190815260200160002060000160009054906101000a900473ffffffffffffffffffffffffffffffffffffffff1673ffffffffffffffffffffffffffffffffffffffff167f3bdd0d86e09a22d7ce596118bd3ca5ec73ea47533a465be37621e913ed2bf33384868d8f8b8b604051611abc96959493929190614167565b60405180910390a4509998505050505050505050565b6000606560009054906101000a900473ffffffffffffffffffffffffffffffffffffffff16905090565b6000609960009054906101000a900473ffffffffffffffffffffffffffffffffffffffff1673ffffffffffffffffffffffffffffffffffffffff163373ffffffffffffffffffffffffffffffffffffffff1614611b8e576040517f08c379a0000000000000000000000000000000000000000000000000000000008152600401611b85906137f7565b60405180910390fd5b610102600085815260200190815260200160002060050160009054906101000a900460ff1615611bf3576040517f08c379a0000000000000000000000000000000000000000000000000000000008152600401611bea90613863565b60405180910390fd5b6000610102600086815260200190815260200160002060010160009054906101000a900473ffffffffffffffffffffffffffffffffffffffff1690508267ffffffffffffffff16610102600087815260200190815260200160002060060160008282829054906101000a90046bffffffffffffffffffffffff16611c7791906141c3565b92506101000a8154816bffffffffffffffffffffffff02191690836bffffffffffffffffffffffff1602179055506000610102600087815260200190815260200160002060060160009054906101000a90046bffffffffffffffffffffffff166bffffffffffffffffffffffff1603611fa9576001610102600087815260200190815260200160002060050160006101000a81548160ff021916908315150217905550600061010260008781526020019081526020016000206003015414611ed057610102600086815260200190815260200160002060010160009054906101000a900473ffffffffffffffffffffffffffffffffffffffff1673ffffffffffffffffffffffffffffffffffffffff1663a9059cbb610102600088815260200190815260200160002060020160009054906101000a900473ffffffffffffffffffffffffffffffffffffffff166101026000898152602001908152602001600020600301546040518363ffffffff1660e01b8152600401611df992919061395b565b6020604051808303816000875af1158015611e18573d6000803e3d6000fd5b505050506040513d601f19601f82011682018060405250810190611e3c91906139b0565b50610102600086815260200190815260200160002060030154610102600087815260200190815260200160002060020160009054906101000a900473ffffffffffffffffffffffffffffffffffffffff1673ffffffffffffffffffffffffffffffffffffffff167f44f6938ca4a10313aabb76f874cced61e35710a734a126e4afb34461bf8c250160405160405180910390a35b600061010260008781526020019081526020016000206004015414611fa8578073ffffffffffffffffffffffffffffffffffffffff1663a9059cbb609860089054906101000a900473ffffffffffffffffffffffffffffffffffffffff166101026000898152602001908152602001600020600401546040518363ffffffff1660e01b8152600401611f6392919061395b565b6020604051808303816000875af1158015611f82573d6000803e3d6000fd5b505050506040513d601f19601f82011682018060405250810190611fa691906139b0565b505b5b60006097548467ffffffffffffffff16610102600089815260200190815260200160002060070154611fdb9190614067565b611fe591906140d8565b9050806101026000888152602001908152602001600020600701600082825461200e9190613a40565b925050819055508173ffffffffffffffffffffffffffffffffffffffff1663a9059cbb86836040518363ffffffff1660e01b815260040161205092919061395b565b6020604051808303816000875af115801561206f573d6000803e3d6000fd5b505050506040513d601f19601f8201168201806040525081019061209391906139b0565b508473ffffffffffffffffffffffffffffffffffffffff16867f98ece21e01a01cbe1d1c0dad3b053c8fbd368f99be78be958fcf1d1d13fd249a89876040516120dd929190614234565b60405180910390a3600192505050949350505050565b6120fb6121a0565b80606560006101000a81548173ffffffffffffffffffffffffffffffffffffffff021916908373ffffffffffffffffffffffffffffffffffffffff1602179055508073ffffffffffffffffffffffffffffffffffffffff1661215b611314565b73ffffffffffffffffffffffffffffffffffffffff167f38d16b8cac22d99fc7c124b9cd0de2d3fa1faef420bfe791d8c362d765e2270060405160405180910390a350565b6121a86122b2565b73ffffffffffffffffffffffffffffffffffffffff166121c6611314565b73ffffffffffffffffffffffffffffffffffffffff161461221c576040517f08c379a0000000000000000000000000000000000000000000000000000000008152600401612213906142a9565b60405180910390fd5b565b61222661264b565b600060d060006101000a81548160ff0219169083151502179055507f5db9ee0a495bf2e6ff9c91a7834c1ba4fdd244a5e8aa4e537bd38aeae4b073aa61226a6122b2565b60405161227791906130af565b60405180910390a1565b606560006101000a81549073ffffffffffffffffffffffffffffffffffffffff02191690556122af81612694565b50565b600033905090565b6000808273ffffffffffffffffffffffffffffffffffffffff163b119050919050565b600060019054906101000a900460ff1661232c576040517f08c379a00000000000000000000000000000000000000000000000000000000081526004016123239061433b565b60405180910390fd5b61233461275a565b565b600060019054906101000a900460ff16612385576040517f08c379a000000000000000000000000000000000000000000000000000000000815260040161237c9061433b565b60405180910390fd5b61238d6127bb565b565b6123976123f2565b600160d060006101000a81548160ff0219169083151502179055507f62e78cea01bee320cd4e420270b5ea74000d11b0c9f74754ebdbfc544b05a2586123db6122b2565b6040516123e891906130af565b60405180910390a1565b6123fa61097a565b1561243a576040517f08c379a0000000000000000000000000000000000000000000000000000000008152600401612431906143a7565b60405180910390fd5b565b600160cd60008873ffffffffffffffffffffffffffffffffffffffff1673ffffffffffffffffffffffffffffffffffffffff16815260200190815260200160002054146124be576040517f08c379a00000000000000000000000000000000000000000000000000000000081526004016124b590614413565b60405180910390fd5b60008503612501576040517f08c379a00000000000000000000000000000000000000000000000000000000081526004016124f89061447f565b60405180910390fd5b600073ffffffffffffffffffffffffffffffffffffffff168473ffffffffffffffffffffffffffffffffffffffff1603612570576040517f08c379a0000000000000000000000000000000000000000000000000000000008152600401612567906144eb565b60405180910390fd5b6000801b60cf600083815260200190815260200160002060000154036125cb576040517f08c379a00000000000000000000000000000000000000000000000000000000081526004016125c290614557565b60405180910390fd5b6000821461264357600073ffffffffffffffffffffffffffffffffffffffff168373ffffffffffffffffffffffffffffffffffffffff1603612642576040517f08c379a0000000000000000000000000000000000000000000000000000000008152600401612639906145c3565b60405180910390fd5b5b505050505050565b61265361097a565b612692576040517f08c379a00000000000000000000000000000000000000000000000000000000081526004016126899061462f565b60405180910390fd5b565b6000603360009054906101000a900473ffffffffffffffffffffffffffffffffffffffff16905081603360006101000a81548173ffffffffffffffffffffffffffffffffffffffff021916908373ffffffffffffffffffffffffffffffffffffffff1602179055508173ffffffffffffffffffffffffffffffffffffffff168173ffffffffffffffffffffffffffffffffffffffff167f8be0079c531659141344cd1fd0a4f28419497f9722a3daafe3b4186f6b6457e060405160405180910390a35050565b600060019054906101000a900460ff166127a9576040517f08c379a00000000000000000000000000000000000000000000000000000000081526004016127a09061433b565b60405180910390fd5b6127b96127b46122b2565b612281565b565b600060019054906101000a900460ff1661280a576040517f08c379a00000000000000000000000000000000000000000000000000000000081526004016128019061433b565b60405180910390fd5b600060d060006101000a81548160ff021916908315150217905550565b50805460008255600202906000526020600020908101906128489190612928565b50565b604051806101400160405280600073ffffffffffffffffffffffffffffffffffffffff168152602001600073ffffffffffffffffffffffffffffffffffffffff168152602001600073ffffffffffffffffffffffffffffffffffffffff1681526020016000815260200160008152602001600015158152602001600015158152602001600073ffffffffffffffffffffffffffffffffffffffff16815260200160006bffffffffffffffffffffffff168152602001600081525090565b604051806040016040528060008019168152602001600080191681525090565b5b8082111561294b57600080820160009055600182016000905550600201612929565b5090565b6000604051905090565b600080fd5b600080fd5b6000819050919050565b61297681612963565b811461298157600080fd5b50565b6000813590506129938161296d565b92915050565b6000602082840312156129af576129ae612959565b5b60006129bd84828501612984565b91505092915050565b600081519050919050565b600082825260208201905092915050565b6000819050602082019050919050565b6129fb81612963565b82525050565b604082016000820151612a1760008501826129f2565b506020820151612a2a60208501826129f2565b50505050565b6000612a3c8383612a01565b60408301905092915050565b6000602082019050919050565b6000612a60826129c6565b612a6a81856129d1565b9350612a75836129e2565b8060005b83811015612aa6578151612a8d8882612a30565b9750612a9883612a48565b925050600181019050612a79565b5085935050505092915050565b60006020820190508181036000830152612acd8184612a55565b905092915050565b600080fd5b6000601f19601f8301169050919050565b7f4e487b7100000000000000000000000000000000000000000000000000000000600052604160045260246000fd5b612b2382612ada565b810181811067ffffffffffffffff82111715612b4257612b41612aeb565b5b80604052505050565b6000612b5561294f565b9050612b618282612b1a565b919050565b600067ffffffffffffffff821115612b8157612b80612aeb565b5b602082029050602081019050919050565b600080fd5b600080fd5b600060408284031215612bb257612bb1612b97565b5b612bbc6040612b4b565b90506000612bcc84828501612984565b6000830152506020612be084828501612984565b60208301525092915050565b6000612bff612bfa84612b66565b612b4b565b90508083825260208201905060408402830185811115612c2257612c21612b92565b5b835b81811015612c4b5780612c378882612b9c565b845260208401935050604081019050612c24565b5050509392505050565b600082601f830112612c6a57612c69612ad5565b5b8135612c7a848260208601612bec565b91505092915050565b60008060408385031215612c9a57612c99612959565b5b6000612ca885828601612984565b925050602083013567ffffffffffffffff811115612cc957612cc861295e565b5b612cd585828601612c55565b9150509250929050565b600081519050919050565b600082825260208201905092915050565b60005b83811015612d19578082015181840152602081019050612cfe565b60008484015250505050565b6000612d3082612cdf565b612d3a8185612cea565b9350612d4a818560208601612cfb565b612d5381612ada565b840191505092915050565b60006020820190508181036000830152612d788184612d25565b905092915050565b600073ffffffffffffffffffffffffffffffffffffffff82169050919050565b6000612dab82612d80565b9050919050565b612dbb81612da0565b8114612dc657600080fd5b50565b600081359050612dd881612db2565b92915050565b60008060408385031215612df557612df4612959565b5b6000612e0385828601612984565b9250506020612e1485828601612dc9565b9150509250929050565b60008115159050919050565b612e3381612e1e565b82525050565b6000602082019050612e4e6000830184612e2a565b92915050565b6000819050919050565b612e6781612e54565b8114612e7257600080fd5b50565b600081359050612e8481612e5e565b92915050565b60008060408385031215612ea157612ea0612959565b5b6000612eaf85828601612e75565b9250506020612ec085828601612984565b9150509250929050565b600060208284031215612ee057612edf612959565b5b6000612eee84828501612dc9565b91505092915050565b612f0081612da0565b82525050565b612f0f81612e54565b82525050565b612f1e81612e1e565b82525050565b60006bffffffffffffffffffffffff82169050919050565b612f4581612f24565b82525050565b61014082016000820151612f626000850182612ef7565b506020820151612f756020850182612ef7565b506040820151612f886040850182612ef7565b506060820151612f9b6060850182612f06565b506080820151612fae6080850182612f06565b5060a0820151612fc160a0850182612f15565b5060c0820151612fd460c0850182612f15565b5060e0820151612fe760e0850182612ef7565b50610100820151612ffc610100850182612f3c565b50610120820151613011610120850182612f06565b50505050565b60006101408201905061302d6000830184612f4b565b92915050565b600067ffffffffffffffff82169050919050565b61305081613033565b811461305b57600080fd5b50565b60008135905061306d81613047565b92915050565b60006020828403121561308957613088612959565b5b60006130978482850161305e565b91505092915050565b6130a981612da0565b82525050565b60006020820190506130c460008301846130a0565b92915050565b6130d381613033565b82525050565b6130e281612e54565b82525050565b60006040820190506130fd60008301856130ca565b61310a60208301846130d9565b9392505050565b60408201600082015161312760008501826129f2565b50602082015161313a60208501826129f2565b50505050565b60006040820190506131556000830184613111565b92915050565b600080fd5b60008083601f84011261317657613175612ad5565b5b8235905067ffffffffffffffff8111156131935761319261315b565b5b6020830191508360018202830111156131af576131ae612b92565b5b9250929050565b600080602083850312156131cd576131cc612959565b5b600083013567ffffffffffffffff8111156131eb576131ea61295e565b5b6131f785828601613160565b92509250509250929050565b60008060006060848603121561321c5761321b612959565b5b600061322a86828701612984565b935050602061323b86828701612dc9565b925050604061324c86828701612e75565b9150509250925092565b61325f81612f24565b811461326a57600080fd5b50565b60008135905061327c81613256565b92915050565b60008083601f84011261329857613297612ad5565b5b8235905067ffffffffffffffff8111156132b5576132b461315b565b5b6020830191508360018202830111156132d1576132d0612b92565b5b9250929050565b60008060008060008060008060006101008a8c0312156132fb576132fa612959565b5b60006133098c828d01612dc9565b995050602061331a8c828d01612e75565b985050604061332b8c828d01612984565b975050606061333c8c828d0161326d565b965050608061334d8c828d01612dc9565b95505060a061335e8c828d01612e75565b94505060c061336f8c828d01612dc9565b93505060e08a013567ffffffffffffffff8111156133905761338f61295e565b5b61339c8c828d01613282565b92509250509295985092959850929598565b6133b781612963565b82525050565b60006020820190506133d260008301846133ae565b92915050565b600080600080608085870312156133f2576133f1612959565b5b600061340087828801612984565b945050602061341187828801612984565b935050604061342287828801612dc9565b92505060606134338782880161305e565b91505092959194509250565b7f4e487b7100000000000000000000000000000000000000000000000000000000600052603260045260246000fd5b600081549050919050565b60008190508160005260206000209050919050565b60008160001c9050919050565b6000819050919050565b60006134b86134b38361348e565b61349b565b9050919050565b6040820160008083015490506134d4816134a5565b6134e160008601826129f2565b50600183015490506134f2816134a5565b6134ff60208601826129f2565b5050505050565b600061351283836134bf565b60408301905092915050565b6000600282019050919050565b60006135368261346e565b61354081856129d1565b935061354b83613479565b8060005b8381101561357b57816135628882613506565b975061356d8361351e565b92505060018101905061354f565b5085935050505092915050565b600060208201905081810360008301526135a2818461352b565b905092915050565b7f4e487b7100000000000000000000000000000000000000000000000000000000600052602260045260246000fd5b600060028204905060018216806135f157607f821691505b602082108103613604576136036135aa565b5b50919050565b600082825260208201905092915050565b7f50617963726573743a207a65726f206164647265737300000000000000000000600082015250565b600061365160168361360a565b915061365c8261361b565b602082019050919050565b6000602082019050818103600083015261368081613644565b9050919050565b7f50617963726573743a207472656173757279206164647265737320616c72656160008201527f6479207365740000000000000000000000000000000000000000000000000000602082015250565b60006136e360268361360a565b91506136ee82613687565b604082019050919050565b60006020820190508181036000830152613712816136d6565b9050919050565b7f50617963726573743a2061676772656761746f72206164647265737320616c7260008201527f6561647920736574000000000000000000000000000000000000000000000000602082015250565b600061377560288361360a565b915061378082613719565b604082019050919050565b600060208201905081810360008301526137a481613768565b9050919050565b7f4f6e6c7941676772656761746f72000000000000000000000000000000000000600082015250565b60006137e1600e8361360a565b91506137ec826137ab565b602082019050919050565b60006020820190508181036000830152613810816137d4565b9050919050565b7f4f7264657246756c66696c6c6564000000000000000000000000000000000000600082015250565b600061384d600e8361360a565b915061385882613817565b602082019050919050565b6000602082019050818103600083015261387c81613840565b9050919050565b7f4f72646572526566756e64656400000000000000000000000000000000000000600082015250565b60006138b9600d8361360a565b91506138c482613883565b602082019050919050565b600060208201905081810360008301526138e8816138ac565b9050919050565b7f4665654578636565647350726f746f636f6c4665650000000000000000000000600082015250565b600061392560158361360a565b9150613930826138ef565b602082019050919050565b6000602082019050818103600083015261395481613918565b9050919050565b600060408201905061397060008301856130a0565b61397d60208301846130d9565b9392505050565b61398d81612e1e565b811461399857600080fd5b50565b6000815190506139aa81613984565b92915050565b6000602082840312156139c6576139c5612959565b5b60006139d48482850161399b565b91505092915050565b7f4e487b7100000000000000000000000000000000000000000000000000000000600052601160045260246000fd5b6000613a1782612e54565b9150613a2283612e54565b9250828201905080821115613a3a57613a396139dd565b5b92915050565b6000613a4b82612e54565b9150613a5683612e54565b9250828203905081811115613a6e57613a6d6139dd565b5b92915050565b6000602082019050613a8960008301846130d9565b92915050565b7f4f776e61626c6532537465703a2063616c6c6572206973206e6f74207468652060008201527f6e6577206f776e65720000000000000000000000000000000000000000000000602082015250565b6000613aeb60298361360a565b9150613af682613a8f565b604082019050919050565b60006020820190508181036000830152613b1a81613ade565b9050919050565b7f496e697469616c697a61626c653a20636f6e747261637420697320616c72656160008201527f647920696e697469616c697a6564000000000000000000000000000000000000602082015250565b6000613b7d602e8361360a565b9150613b8882613b21565b604082019050919050565b60006020820190508181036000830152613bac81613b70565b9050919050565b6000819050919050565b600060ff82169050919050565b6000819050919050565b6000613bef613bea613be584613bb3565b613bca565b613bbd565b9050919050565b613bff81613bd4565b82525050565b6000602082019050613c1a6000830184613bf6565b92915050565b6000602082019050613c3560008301846130ca565b92915050565b600082905092915050565b60008190508160005260206000209050919050565b60006020601f8301049050919050565b600082821b905092915050565b600060088302613ca87fffffffffffffffffffffffffffffffffffffffffffffffffffffffffffffffff82613c6b565b613cb28683613c6b565b95508019841693508086168417925050509392505050565b6000613ce5613ce0613cdb84612e54565b613bca565b612e54565b9050919050565b6000819050919050565b613cff83613cca565b613d13613d0b82613cec565b848454613c78565b825550505050565b600090565b613d28613d1b565b613d33818484613cf6565b505050565b5b81811015613d5757613d4c600082613d20565b600181019050613d39565b5050565b601f821115613d9c57613d6d81613c46565b613d7684613c5b565b81016020851015613d85578190505b613d99613d9185613c5b565b830182613d38565b50505b505050565b600082821c905092915050565b6000613dbf60001984600802613da1565b1980831691505092915050565b6000613dd88383613dae565b9150826002028217905092915050565b613df28383613c3b565b67ffffffffffffffff811115613e0b57613e0a612aeb565b5b613e1582546135d9565b613e20828285613d5b565b6000601f831160018114613e4f5760008415613e3d578287013590505b613e478582613dcc565b865550613eaf565b601f198416613e5d86613c46565b60005b82811015613e8557848901358255600182019150602085019450602081019050613e60565b86831015613ea25784890135613e9e601f891682613dae565b8355505b6001600288020188555050505b50505050505050565b600081905092915050565b82818337600083830152505050565b6000613ede8385613eb8565b9350613eeb838584613ec3565b82840190509392505050565b6000613f04828486613ed2565b91508190509392505050565b7f50617963726573743a20696e76616c6964207374617475730000000000000000600082015250565b6000613f4660188361360a565b9150613f5182613f10565b602082019050919050565b60006020820190508181036000830152613f7581613f39565b9050919050565b7f496e76616c69644d657373616765486173680000000000000000000000000000600082015250565b6000613fb260128361360a565b9150613fbd82613f7c565b602082019050919050565b60006020820190508181036000830152613fe181613fa5565b9050919050565b6000606082019050613ffd60008301866130a0565b61400a60208301856130a0565b61401760408301846130d9565b949350505050565b600061402a82612e54565b91507fffffffffffffffffffffffffffffffffffffffffffffffffffffffffffffffff820361405c5761405b6139dd565b5b600182019050919050565b600061407282612e54565b915061407d83612e54565b925082820261408b81612e54565b915082820484148315176140a2576140a16139dd565b5b5092915050565b7f4e487b7100000000000000000000000000000000000000000000000000000000600052601260045260246000fd5b60006140e382612e54565b91506140ee83612e54565b9250826140fe576140fd6140a9565b5b828204905092915050565b600061412461411f61411a84612f24565b613bca565b612e54565b9050919050565b61413481614109565b82525050565b6000614146838561360a565b9350614153838584613ec3565b61415c83612ada565b840190509392505050565b600060a08201905061417c60008301896130d9565b61418960208301886133ae565b614196604083018761412b565b6141a360608301866133ae565b81810360808301526141b681848661413a565b9050979650505050505050565b60006141ce82612f24565b91506141d983612f24565b925082820390506bffffffffffffffffffffffff8111156141fd576141fc6139dd565b5b92915050565b600061421e61421961421484613033565b613bca565b612f24565b9050919050565b61422e81614203565b82525050565b600060408201905061424960008301856133ae565b6142566020830184614225565b9392505050565b7f4f776e61626c653a2063616c6c6572206973206e6f7420746865206f776e6572600082015250565b600061429360208361360a565b915061429e8261425d565b602082019050919050565b600060208201905081810360008301526142c281614286565b9050919050565b7f496e697469616c697a61626c653a20636f6e7472616374206973206e6f74206960008201527f6e697469616c697a696e67000000000000000000000000000000000000000000602082015250565b6000614325602b8361360a565b9150614330826142c9565b604082019050919050565b6000602082019050818103600083015261435481614318565b9050919050565b7f5061757361626c653a2070617573656400000000000000000000000000000000600082015250565b600061439160108361360a565b915061439c8261435b565b602082019050919050565b600060208201905081810360008301526143c081614384565b9050919050565b7f546f6b656e4e6f74537570706f72746564000000000000000000000000000000600082015250565b60006143fd60118361360a565b9150614408826143c7565b602082019050919050565b6000602082019050818103600083015261442c816143f0565b9050919050565b7f416d6f756e7449735a65726f0000000000000000000000000000000000000000600082015250565b6000614469600c8361360a565b915061447482614433565b602082019050919050565b600060208201905081810360008301526144988161445c565b9050919050565b7f5468726f775a65726f4164647265737300000000000000000000000000000000600082015250565b60006144d560108361360a565b91506144e08261449f565b602082019050919050565b60006020820190508181036000830152614504816144c8565b9050919050565b7f496e76616c6964496e737469747574696f6e436f646500000000000000000000600082015250565b600061454160168361360a565b915061454c8261450b565b602082019050919050565b6000602082019050818103600083015261457081614534565b9050919050565b7f496e76616c696453656e646572466565526563697069656e7400000000000000600082015250565b60006145ad60198361360a565b91506145b882614577565b602082019050919050565b600060208201905081810360008301526145dc816145a0565b9050919050565b7f5061757361626c653a206e6f7420706175736564000000000000000000000000600082015250565b600061461960148361360a565b9150614624826145e3565b602082019050919050565b600060208201905081810360008301526146488161460c565b905091905056fea2646970667358221220de600de4fc48e50a45542ee072a973430b4b9b0b0f092c80e15f44609b6b699f64736f6c63430008120033",
  "linkReferences": {},
  "deployedLinkReferences": {}
}