{
  "_format": "hh-sol-artifact-1",
  "contractName": "Paycrest",
  "sourceName": "contracts/Paycrest.sol",
  "abi": [
    {
      "inputs": [],
      "stateMutability": "nonpayable",
      "type": "constructor"
    },
    {
      "anonymous": false,
      "inputs": [
        {
          "indexed": false,
          "internalType": "uint8",
          "name": "version",
          "type": "uint8"
        }
      ],
      "name": "Initialized",
      "type": "event"
    },
    {
      "anonymous": false,
      "inputs": [
        {
          "indexed": true,
          "internalType": "address",
          "name": "token",
          "type": "address"
        },
        {
          "indexed": true,
          "internalType": "uint256",
          "name": "amount",
          "type": "uint256"
        },
        {
          "indexed": false,
          "internalType": "uint256",
          "name": "protocolFee",
          "type": "uint256"
        },
        {
          "indexed": true,
          "internalType": "bytes32",
          "name": "orderId",
          "type": "bytes32"
        },
        {
          "indexed": false,
          "internalType": "uint256",
          "name": "rate",
          "type": "uint256"
        },
        {
          "indexed": false,
          "internalType": "bytes32",
          "name": "institutionCode",
          "type": "bytes32"
        },
        {
          "indexed": false,
          "internalType": "bytes32",
          "name": "label",
          "type": "bytes32"
        },
        {
          "indexed": false,
          "internalType": "string",
          "name": "messageHash",
          "type": "string"
        }
      ],
      "name": "OrderCreated",
      "type": "event"
    },
    {
      "anonymous": false,
      "inputs": [
        {
          "indexed": false,
          "internalType": "uint256",
          "name": "fee",
          "type": "uint256"
        },
        {
          "indexed": true,
          "internalType": "bytes32",
          "name": "orderId",
          "type": "bytes32"
        },
        {
          "indexed": false,
          "internalType": "bytes32",
          "name": "label",
          "type": "bytes32"
        }
      ],
      "name": "OrderRefunded",
      "type": "event"
    },
    {
      "anonymous": false,
      "inputs": [
        {
          "indexed": false,
          "internalType": "bytes32",
          "name": "splitOrderId",
          "type": "bytes32"
        },
        {
          "indexed": true,
          "internalType": "bytes32",
          "name": "orderId",
          "type": "bytes32"
        },
        {
          "indexed": false,
          "internalType": "bytes32",
          "name": "label",
          "type": "bytes32"
        },
        {
          "indexed": true,
          "internalType": "address",
          "name": "liquidityProvider",
          "type": "address"
        },
        {
          "indexed": false,
          "internalType": "uint96",
          "name": "settlePercent",
          "type": "uint96"
        }
      ],
      "name": "OrderSettled",
      "type": "event"
    },
    {
      "anonymous": false,
      "inputs": [
        {
          "indexed": true,
          "internalType": "address",
          "name": "previousOwner",
          "type": "address"
        },
        {
          "indexed": true,
          "internalType": "address",
          "name": "newOwner",
          "type": "address"
        }
      ],
      "name": "OwnershipTransferred",
      "type": "event"
    },
    {
      "anonymous": false,
      "inputs": [
        {
          "indexed": false,
          "internalType": "address",
          "name": "account",
          "type": "address"
        }
      ],
      "name": "Paused",
      "type": "event"
    },
    {
      "anonymous": false,
      "inputs": [
        {
          "indexed": true,
          "internalType": "bytes32",
          "name": "what",
          "type": "bytes32"
        },
        {
          "indexed": true,
          "internalType": "address",
          "name": "treasuryAddress",
          "type": "address"
        }
      ],
      "name": "ProtocolAddressUpdated",
      "type": "event"
    },
    {
      "anonymous": false,
      "inputs": [
        {
          "indexed": false,
          "internalType": "uint64",
          "name": "protocolFee",
          "type": "uint64"
        }
      ],
      "name": "ProtocolFeesUpdated",
      "type": "event"
    },
    {
      "anonymous": false,
      "inputs": [
        {
          "indexed": true,
          "internalType": "address",
          "name": "sender",
          "type": "address"
        },
        {
          "indexed": true,
          "internalType": "uint256",
          "name": "amount",
          "type": "uint256"
        }
      ],
      "name": "SenderFeeTransferred",
      "type": "event"
    },
    {
      "anonymous": false,
      "inputs": [
        {
          "indexed": true,
          "internalType": "bytes",
          "name": "aggregator",
          "type": "bytes"
        }
      ],
      "name": "SetAggregator",
      "type": "event"
    },
    {
      "anonymous": false,
      "inputs": [
        {
          "indexed": true,
          "internalType": "address",
          "name": "treasuryAddress",
          "type": "address"
        }
      ],
      "name": "SetFeeRecipient",
      "type": "event"
    },
    {
      "anonymous": false,
      "inputs": [
        {
          "indexed": true,
          "internalType": "bytes32",
          "name": "what",
          "type": "bytes32"
        },
        {
          "indexed": true,
          "internalType": "address",
          "name": "value",
          "type": "address"
        },
        {
          "indexed": false,
          "internalType": "uint256",
          "name": "status",
          "type": "uint256"
        }
      ],
      "name": "SettingManagerBool",
      "type": "event"
    },
    {
      "anonymous": false,
      "inputs": [
        {
          "indexed": true,
          "internalType": "bytes32",
          "name": "currency",
          "type": "bytes32"
        },
        {
          "components": [
            {
              "internalType": "bytes32",
              "name": "code",
              "type": "bytes32"
            },
            {
              "internalType": "bytes32",
              "name": "name",
              "type": "bytes32"
            }
          ],
          "indexed": false,
          "internalType": "struct SharedStructs.Institution[]",
          "name": "institutions",
          "type": "tuple[]"
        }
      ],
      "name": "SupportedInstitutionsUpdated",
      "type": "event"
    },
    {
      "anonymous": false,
      "inputs": [
        {
          "indexed": false,
          "internalType": "address",
          "name": "account",
          "type": "address"
        }
      ],
      "name": "Unpaused",
      "type": "event"
    },
    {
      "inputs": [
        {
          "internalType": "address",
          "name": "_token",
          "type": "address"
        },
        {
          "internalType": "uint256",
          "name": "_amount",
          "type": "uint256"
        },
        {
          "internalType": "bytes32",
          "name": "_institutionCode",
          "type": "bytes32"
        },
        {
          "internalType": "bytes32",
          "name": "_label",
          "type": "bytes32"
        },
        {
          "internalType": "uint96",
          "name": "_rate",
          "type": "uint96"
        },
        {
          "internalType": "address",
          "name": "_senderFeeRecipient",
          "type": "address"
        },
        {
          "internalType": "uint256",
          "name": "_senderFee",
          "type": "uint256"
        },
        {
          "internalType": "address",
          "name": "_refundAddress",
          "type": "address"
        },
        {
          "internalType": "string",
          "name": "messageHash",
          "type": "string"
        }
      ],
      "name": "createOrder",
      "outputs": [
        {
          "internalType": "bytes32",
          "name": "orderId",
          "type": "bytes32"
        }
      ],
      "stateMutability": "nonpayable",
      "type": "function"
    },
    {
      "inputs": [],
      "name": "getAggregator",
      "outputs": [
        {
          "internalType": "bytes",
          "name": "",
          "type": "bytes"
        }
      ],
      "stateMutability": "view",
      "type": "function"
    },
    {
      "inputs": [],
      "name": "getFeeDetails",
      "outputs": [
        {
          "internalType": "uint64",
          "name": "",
          "type": "uint64"
        },
        {
          "internalType": "uint256",
          "name": "",
          "type": "uint256"
        }
      ],
      "stateMutability": "view",
      "type": "function"
    },
    {
      "inputs": [
        {
          "internalType": "bytes32",
          "name": "_orderId",
          "type": "bytes32"
        }
      ],
      "name": "getOrderInfo",
      "outputs": [
        {
          "components": [
            {
              "internalType": "address",
              "name": "seller",
              "type": "address"
            },
            {
              "internalType": "address",
              "name": "token",
              "type": "address"
            },
            {
              "internalType": "address",
              "name": "senderFeeRecipient",
              "type": "address"
            },
            {
              "internalType": "uint256",
              "name": "senderFee",
              "type": "uint256"
            },
            {
              "internalType": "uint256",
              "name": "protocolFee",
              "type": "uint256"
            },
            {
              "internalType": "uint96",
              "name": "rate",
              "type": "uint96"
            },
            {
              "internalType": "bool",
              "name": "isFulfilled",
              "type": "bool"
            },
            {
              "internalType": "address",
              "name": "refundAddress",
              "type": "address"
            },
            {
              "internalType": "uint96",
              "name": "currentBPS",
              "type": "uint96"
            },
            {
              "internalType": "uint256",
              "name": "amount",
              "type": "uint256"
            }
          ],
          "internalType": "struct IPaycrest.Order",
          "name": "",
          "type": "tuple"
        }
      ],
      "stateMutability": "view",
      "type": "function"
    },
    {
      "inputs": [
        {
          "internalType": "bytes32",
          "name": "_code",
          "type": "bytes32"
        }
      ],
      "name": "getSupportedInstitutionByCode",
      "outputs": [
        {
          "components": [
            {
              "internalType": "bytes32",
              "name": "name",
              "type": "bytes32"
            },
            {
              "internalType": "bytes32",
              "name": "currency",
              "type": "bytes32"
            }
          ],
          "internalType": "struct SharedStructs.InstitutionByCode",
          "name": "",
          "type": "tuple"
        }
      ],
      "stateMutability": "view",
      "type": "function"
    },
    {
      "inputs": [
        {
          "internalType": "bytes32",
          "name": "_currency",
          "type": "bytes32"
        }
      ],
      "name": "getSupportedInstitutions",
      "outputs": [
        {
          "components": [
            {
              "internalType": "bytes32",
              "name": "code",
              "type": "bytes32"
            },
            {
              "internalType": "bytes32",
              "name": "name",
              "type": "bytes32"
            }
          ],
          "internalType": "struct SharedStructs.Institution[]",
          "name": "",
          "type": "tuple[]"
        }
      ],
      "stateMutability": "view",
      "type": "function"
    },
    {
      "inputs": [],
      "name": "initialize",
      "outputs": [],
      "stateMutability": "nonpayable",
      "type": "function"
    },
    {
      "inputs": [
        {
          "internalType": "address",
          "name": "_token",
          "type": "address"
        }
      ],
      "name": "isTokenSupported",
      "outputs": [
        {
          "internalType": "bool",
          "name": "",
          "type": "bool"
        }
      ],
      "stateMutability": "view",
      "type": "function"
    },
    {
      "inputs": [],
      "name": "owner",
      "outputs": [
        {
          "internalType": "address",
          "name": "",
          "type": "address"
        }
      ],
      "stateMutability": "view",
      "type": "function"
    },
    {
      "inputs": [],
      "name": "pause",
      "outputs": [],
      "stateMutability": "nonpayable",
      "type": "function"
    },
    {
      "inputs": [],
      "name": "paused",
      "outputs": [
        {
          "internalType": "bool",
          "name": "",
          "type": "bool"
        }
      ],
      "stateMutability": "view",
      "type": "function"
    },
    {
      "inputs": [
        {
          "internalType": "uint256",
          "name": "_fee",
          "type": "uint256"
        },
        {
          "internalType": "bytes32",
          "name": "_orderId",
          "type": "bytes32"
        },
        {
          "internalType": "bytes32",
          "name": "_label",
          "type": "bytes32"
        }
      ],
      "name": "refund",
      "outputs": [
        {
          "internalType": "bool",
          "name": "",
          "type": "bool"
        }
      ],
      "stateMutability": "nonpayable",
      "type": "function"
    },
    {
      "inputs": [],
      "name": "renounceOwnership",
      "outputs": [],
      "stateMutability": "nonpayable",
      "type": "function"
    },
    {
      "inputs": [
        {
          "internalType": "bytes32",
          "name": "currency",
          "type": "bytes32"
        },
        {
          "components": [
            {
              "internalType": "bytes32",
              "name": "code",
              "type": "bytes32"
            },
            {
              "internalType": "bytes32",
              "name": "name",
              "type": "bytes32"
            }
          ],
          "internalType": "struct SharedStructs.Institution[]",
          "name": "institutions",
          "type": "tuple[]"
        }
      ],
      "name": "setSupportedInstitutions",
      "outputs": [],
      "stateMutability": "nonpayable",
      "type": "function"
    },
    {
      "inputs": [
        {
          "internalType": "bytes32",
          "name": "what",
          "type": "bytes32"
        },
        {
          "internalType": "address",
          "name": "value",
          "type": "address"
        },
        {
          "internalType": "uint256",
          "name": "status",
          "type": "uint256"
        }
      ],
      "name": "settingManagerBool",
      "outputs": [],
      "stateMutability": "nonpayable",
      "type": "function"
    },
    {
      "inputs": [
        {
          "internalType": "bytes32",
          "name": "_splitOrderId",
          "type": "bytes32"
        },
        {
          "internalType": "bytes32",
          "name": "_orderId",
          "type": "bytes32"
        },
        {
          "internalType": "bytes32",
          "name": "_label",
          "type": "bytes32"
        },
        {
          "internalType": "address",
          "name": "_liquidityProvider",
          "type": "address"
        },
        {
          "internalType": "uint64",
          "name": "_settlePercent",
          "type": "uint64"
        }
      ],
      "name": "settle",
      "outputs": [
        {
          "internalType": "bytes32",
          "name": "",
          "type": "bytes32"
        },
        {
          "internalType": "address",
          "name": "",
          "type": "address"
        }
      ],
      "stateMutability": "nonpayable",
      "type": "function"
    },
    {
      "inputs": [
        {
          "internalType": "address",
          "name": "newOwner",
          "type": "address"
        }
      ],
      "name": "transferOwnership",
      "outputs": [],
      "stateMutability": "nonpayable",
      "type": "function"
    },
    {
      "inputs": [],
      "name": "unpause",
      "outputs": [],
      "stateMutability": "nonpayable",
      "type": "function"
    },
    {
      "inputs": [
        {
          "internalType": "bytes32",
          "name": "what",
          "type": "bytes32"
        },
        {
          "internalType": "address",
          "name": "value",
          "type": "address"
        }
      ],
      "name": "updateProtocolAddress",
      "outputs": [],
      "stateMutability": "nonpayable",
      "type": "function"
    },
    {
      "inputs": [
        {
          "internalType": "bytes",
          "name": "aggregator",
          "type": "bytes"
        }
      ],
      "name": "updateProtocolAggregator",
      "outputs": [],
      "stateMutability": "nonpayable",
      "type": "function"
    },
    {
      "inputs": [
        {
          "internalType": "uint64",
          "name": "_protocolFeePercent",
          "type": "uint64"
        }
      ],
      "name": "updateProtocolFees",
      "outputs": [],
      "stateMutability": "nonpayable",
      "type": "function"
    }
  ],
  "bytecode": "0x60806040523480156200001157600080fd5b50620000226200002860201b60201c565b620001d2565b600060019054906101000a900460ff16156200007b576040517f08c379a0000000000000000000000000000000000000000000000000000000008152600401620000729062000175565b60405180910390fd5b60ff801660008054906101000a900460ff1660ff1614620000ec5760ff6000806101000a81548160ff021916908360ff1602179055507f7f26b83ff96e1f2b6a682f133852f6798a09c465da95921460cefb384740249860ff604051620000e39190620001b5565b60405180910390a15b565b600082825260208201905092915050565b7f496e697469616c697a61626c653a20636f6e747261637420697320696e69746960008201527f616c697a696e6700000000000000000000000000000000000000000000000000602082015250565b60006200015d602783620000ee565b91506200016a82620000ff565b604082019050919050565b6000602082019050818103600083015262000190816200014e565b9050919050565b600060ff82169050919050565b620001af8162000197565b82525050565b6000602082019050620001cc6000830184620001a4565b92915050565b61427e80620001e26000396000f3fe608060405234801561001057600080fd5b50600436106101375760003560e01c80638129fc1c116100b8578063b810c6361161007c578063b810c63614610303578063c228010314610322578063cb79455b14610352578063cd9924001461036e578063d28a8d321461038a578063f2fde38b146103ba57610137565b80638129fc1c146102845780638456cb591461028e57806384630736146102985780638da5cb5b146102b45780639015dced146102d257610137565b806340ebc677116100ff57806340ebc677146101e05780635c975abb146101fc578063715018a61461021a57806375151b6314610224578063768c6ec01461025457610137565b8063026213381461013c5780632654ec7e1461016c578063322008821461019c5780633ad59dbc146101b85780633f4ba83a146101d6575b600080fd5b610156600480360381019061015191906126f2565b6103d6565b604051610163919061280c565b60405180910390f35b6101866004803603810190610181919061296b565b61045c565b6040516101939190612a65565b60405180910390f35b6101b660048036038101906101b19190612c24565b610975565b005b6101c0610aea565b6040516101cd9190612cff565b60405180910390f35b6101de610b7c565b005b6101fa60048036038101906101f59190612d21565b610b8e565b005b610204610d1f565b6040516102119190612d7c565b60405180910390f35b610222610d36565b005b61023e60048036038101906102399190612d97565b610d4a565b60405161024b9190612d7c565b60405180910390f35b61026e600480360381019061026991906126f2565b610da6565b60405161027b9190612ecc565b60405180910390f35b61028c610fe1565b005b610296611131565b005b6102b260048036038101906102ad9190612f28565b611143565b005b6102bc6111ae565b6040516102c99190612f64565b60405180910390f35b6102ec60048036038101906102e79190612f7f565b6111d8565b6040516102fa929190612ffa565b60405180910390f35b61030b61163f565b604051610319929190613041565b60405180910390f35b61033c600480360381019061033791906126f2565b611664565b6040516103499190613099565b60405180910390f35b61036c6004803603810190610367919061310a565b6116a5565b005b61038860048036038101906103839190613157565b611707565b005b6103a4600480360381019061039f91906131aa565b61188c565b6040516103b19190612d7c565b60405180910390f35b6103d460048036038101906103cf9190612d97565b611d47565b005b6060609c6000838152602001908152602001600020805480602002602001604051908101604052809291908181526020016000905b828210156104515783829060005260206000209060020201604051806040016040529081600082015481526020016001820154815250508152602001906001019061040b565b505050509050919050565b6000610466611dca565b6104748b8b8689898e611e14565b600083839050036104ba576040517f08c379a00000000000000000000000000000000000000000000000000000000081526004016104b19061325a565b60405180910390fd5b8a73ffffffffffffffffffffffffffffffffffffffff166323b872dd3330888e6104e491906132a9565b6040518463ffffffff1660e01b8152600401610502939291906132dd565b6020604051808303816000875af1158015610521573d6000803e3d6000fd5b505050506040513d601f19601f820116820180604052508101906105459190613340565b5060d160003373ffffffffffffffffffffffffffffffffffffffff1673ffffffffffffffffffffffffffffffffffffffff16815260200190815260200160002060008154809291906105969061336d565b91905055503360d160003373ffffffffffffffffffffffffffffffffffffffff1673ffffffffffffffffffffffffffffffffffffffff168152602001908152602001600020546040516020016105ed9291906133b5565b6040516020818303038152906040528051906020012090506000606554606660009054906101000a900467ffffffffffffffff1667ffffffffffffffff168c61063691906133de565b610640919061344f565b90506040518061014001604052803373ffffffffffffffffffffffffffffffffffffffff1681526020018d73ffffffffffffffffffffffffffffffffffffffff1681526020018873ffffffffffffffffffffffffffffffffffffffff168152602001878152602001828152602001896bffffffffffffffffffffffff1681526020016000151581526020018673ffffffffffffffffffffffffffffffffffffffff16815260200160655467ffffffffffffffff166bffffffffffffffffffffffff168152602001828d6107139190613480565b81525060d0600084815260200190815260200160002060008201518160000160006101000a81548173ffffffffffffffffffffffffffffffffffffffff021916908373ffffffffffffffffffffffffffffffffffffffff16021790555060208201518160010160006101000a81548173ffffffffffffffffffffffffffffffffffffffff021916908373ffffffffffffffffffffffffffffffffffffffff16021790555060408201518160020160006101000a81548173ffffffffffffffffffffffffffffffffffffffff021916908373ffffffffffffffffffffffffffffffffffffffff160217905550606082015181600301556080820151816004015560a08201518160050160006101000a8154816bffffffffffffffffffffffff02191690836bffffffffffffffffffffffff16021790555060c082015181600501600c6101000a81548160ff02191690831515021790555060e08201518160060160006101000a81548173ffffffffffffffffffffffffffffffffffffffff021916908373ffffffffffffffffffffffffffffffffffffffff1602179055506101008201518160060160146101000a8154816bffffffffffffffffffffffff02191690836bffffffffffffffffffffffff16021790555061012082015181600701559050508160d06000848152602001908152602001600020600701548d73ffffffffffffffffffffffffffffffffffffffff167f94bed2b14a43efaec8c295ba3fbce0aa493e61643c3adb49774ca7df08d5a919848c8f8f8b8b60405161095e9695949392919061352b565b60405180910390a4509a9950505050505050505050565b61097d612023565b609c6000838152602001908152602001600020600061099c9190612574565b60005b8151811015610a9b57609c60008481526020019081526020016000208282815181106109ce576109cd613587565b5b60200260200101519080600181540180825580915050600190039060005260206000209060020201600090919091909150600082015181600001556020820151816001015550506040518060400160405280838381518110610a3357610a32613587565b5b602002602001015160200151815260200184815250609d6000848481518110610a5f57610a5e613587565b5b6020026020010151600001518152602001908152602001600020600082015181600001556020820151816001015590505080600101905061099f565b50817f58f3a30ec15a8d3e09fa65f9ef10219bc7a9a99d872a4ed895c37c2e761ac2ac609c6000858152602001908152602001600020604051610ade91906136d0565b60405180910390a25050565b606060688054610af990613721565b80601f0160208091040260200160405190810160405280929190818152602001828054610b2590613721565b8015610b725780601f10610b4757610100808354040283529160200191610b72565b820191906000526020600020905b815481529060010190602001808311610b5557829003601f168201915b5050505050905090565b610b84612023565b610b8c6120a1565b565b610b96612023565b600073ffffffffffffffffffffffffffffffffffffffff168173ffffffffffffffffffffffffffffffffffffffff1603610c05576040517f08c379a0000000000000000000000000000000000000000000000000000000008152600401610bfc9061379e565b60405180910390fd5b7f74726561737572790000000000000000000000000000000000000000000000008203610c6e5780606660086101000a81548173ffffffffffffffffffffffffffffffffffffffff021916908373ffffffffffffffffffffffffffffffffffffffff1602179055505b7f61676772656761746f72000000000000000000000000000000000000000000008203610cd75780606760006101000a81548173ffffffffffffffffffffffffffffffffffffffff021916908373ffffffffffffffffffffffffffffffffffffffff1602179055505b8073ffffffffffffffffffffffffffffffffffffffff16827fbbc5b96e57cfecb3dbeeadf92e87f15e58e64fcd75cbe256dcc5d9ef2e51e8a460405160405180910390a35050565b6000609e60009054906101000a900460ff16905090565b610d3e612023565b610d486000612104565b565b60006001609b60008473ffffffffffffffffffffffffffffffffffffffff1673ffffffffffffffffffffffffffffffffffffffff1681526020019081526020016000205403610d9c5760019050610da1565b600090505b919050565b610dae612598565b60d06000838152602001908152602001600020604051806101400160405290816000820160009054906101000a900473ffffffffffffffffffffffffffffffffffffffff1673ffffffffffffffffffffffffffffffffffffffff1673ffffffffffffffffffffffffffffffffffffffff1681526020016001820160009054906101000a900473ffffffffffffffffffffffffffffffffffffffff1673ffffffffffffffffffffffffffffffffffffffff1673ffffffffffffffffffffffffffffffffffffffff1681526020016002820160009054906101000a900473ffffffffffffffffffffffffffffffffffffffff1673ffffffffffffffffffffffffffffffffffffffff1673ffffffffffffffffffffffffffffffffffffffff16815260200160038201548152602001600482015481526020016005820160009054906101000a90046bffffffffffffffffffffffff166bffffffffffffffffffffffff166bffffffffffffffffffffffff16815260200160058201600c9054906101000a900460ff161515151581526020016006820160009054906101000a900473ffffffffffffffffffffffffffffffffffffffff1673ffffffffffffffffffffffffffffffffffffffff1673ffffffffffffffffffffffffffffffffffffffff1681526020016006820160149054906101000a90046bffffffffffffffffffffffff166bffffffffffffffffffffffff166bffffffffffffffffffffffff1681526020016007820154815250509050919050565b60008060019054906101000a900460ff161590508080156110125750600160008054906101000a900460ff1660ff16105b8061103f5750611021306121ca565b15801561103e5750600160008054906101000a900460ff1660ff16145b5b61107e576040517f08c379a000000000000000000000000000000000000000000000000000000000815260040161107590613830565b60405180910390fd5b60016000806101000a81548160ff021916908360ff16021790555080156110bb576001600060016101000a81548160ff0219169083151502179055505b620186a06065819055506110cd6121ed565b6110d5612246565b801561112e5760008060016101000a81548160ff0219169083151502179055507f7f26b83ff96e1f2b6a682f133852f6798a09c465da95921460cefb384740249860016040516111259190613898565b60405180910390a15b50565b611139612023565b61114161229f565b565b61114b612023565b80606660006101000a81548167ffffffffffffffff021916908367ffffffffffffffff1602179055507fb94068a4bd2571acee6ac79acc9dcdcf10c31425d35f09e88f154ec520e26446816040516111a391906138b3565b60405180910390a150565b6000603360009054906101000a900473ffffffffffffffffffffffffffffffffffffffff16905090565b600080606760009054906101000a900473ffffffffffffffffffffffffffffffffffffffff1673ffffffffffffffffffffffffffffffffffffffff163373ffffffffffffffffffffffffffffffffffffffff161461126b576040517f08c379a00000000000000000000000000000000000000000000000000000000081526004016112629061391a565b60405180910390fd5b60d06000878152602001908152602001600020600501600c9054906101000a900460ff16156112cf576040517f08c379a00000000000000000000000000000000000000000000000000000000081526004016112c690613986565b60405180910390fd5b600060d0600088815260200190815260200160002060010160009054906101000a900473ffffffffffffffffffffffffffffffffffffffff1690508367ffffffffffffffff1660d0600089815260200190815260200160002060060160148282829054906101000a90046bffffffffffffffffffffffff1661135191906139a6565b92506101000a8154816bffffffffffffffffffffffff02191690836bffffffffffffffffffffffff160217905550600060d0600089815260200190815260200160002060060160149054906101000a90046bffffffffffffffffffffffff166bffffffffffffffffffffffff16036114f157600160d06000898152602001908152602001600020600501600c6101000a81548160ff021916908315150217905550600060d06000898152602001908152602001600020600301541461141a5761141987612302565b5b600060d0600089815260200190815260200160002060040154146114f0578073ffffffffffffffffffffffffffffffffffffffff1663a9059cbb606660089054906101000a900473ffffffffffffffffffffffffffffffffffffffff1660d060008b8152602001908152602001600020600401546040518363ffffffff1660e01b81526004016114ab9291906133b5565b6020604051808303816000875af11580156114ca573d6000803e3d6000fd5b505050506040513d601f19601f820116820180604052508101906114ee9190613340565b505b5b60006065548567ffffffffffffffff1660d060008b81526020019081526020016000206007015461152291906133de565b61152c919061344f565b90508173ffffffffffffffffffffffffffffffffffffffff1663a9059cbb87836040518363ffffffff1660e01b81526004016115699291906133b5565b6020604051808303816000875af1158015611588573d6000803e3d6000fd5b505050506040513d601f19601f820116820180604052508101906115ac9190613340565b508060d060008a815260200190815260200160002060070160008282546115d39190613480565b925050819055508573ffffffffffffffffffffffffffffffffffffffff16887fa9ec2b6676d3ea3e8da117193c71b1b85fcdbc72f077a624f950241eb38f13c28b8a8960405161162593929190613a17565b60405180910390a387829350935050509550959350505050565b600080606660009054906101000a900467ffffffffffffffff16606554915091509091565b61166c612661565b609d6000838152602001908152602001600020604051806040016040529081600082015481526020016001820154815250509050919050565b6116ad612023565b8181606891826116be929190613bfb565b5081816040516116cf929190613cfb565b60405180910390207f6a6600b7242975868d8321b5e64d0c9f2fcc92eb1af72254a6357be77ee7dcef60405160405180910390a25050565b61170f612023565b600073ffffffffffffffffffffffffffffffffffffffff168273ffffffffffffffffffffffffffffffffffffffff160361177e576040517f08c379a00000000000000000000000000000000000000000000000000000000081526004016117759061379e565b60405180910390fd5b600181148061178d5750600281145b6117cc576040517f08c379a00000000000000000000000000000000000000000000000000000000081526004016117c390613d60565b60405180910390fd5b7f746f6b656e00000000000000000000000000000000000000000000000000000083036118875780609b60008473ffffffffffffffffffffffffffffffffffffffff1673ffffffffffffffffffffffffffffffffffffffff168152602001908152602001600020819055508173ffffffffffffffffffffffffffffffffffffffff16837fcfa976492af7c14a916cc3a239f4c9c75bbd7f5f0e398beb41d892c7eeccae4c8360405161187e9190613d80565b60405180910390a35b505050565b6000606760009054906101000a900473ffffffffffffffffffffffffffffffffffffffff1673ffffffffffffffffffffffffffffffffffffffff163373ffffffffffffffffffffffffffffffffffffffff161461191e576040517f08c379a00000000000000000000000000000000000000000000000000000000081526004016119159061391a565b60405180910390fd5b60d06000848152602001908152602001600020600501600c9054906101000a900460ff1615611982576040517f08c379a000000000000000000000000000000000000000000000000000000000815260040161197990613986565b60405180910390fd5b60d0600084815260200190815260200160002060010160009054906101000a900473ffffffffffffffffffffffffffffffffffffffff1673ffffffffffffffffffffffffffffffffffffffff1663a9059cbb606660089054906101000a900473ffffffffffffffffffffffffffffffffffffffff16866040518363ffffffff1660e01b8152600401611a159291906133b5565b6020604051808303816000875af1158015611a34573d6000803e3d6000fd5b505050506040513d601f19601f82011682018060405250810190611a589190613340565b50600160d06000858152602001908152602001600020600501600c6101000a81548160ff021916908315150217905550600060d0600085815260200190815260200160002060060160146101000a8154816bffffffffffffffffffffffff02191690836bffffffffffffffffffffffff16021790555060008460d060008681526020019081526020016000206004015460d0600087815260200190815260200160002060070154611b0991906132a9565b611b139190613480565b905060d0600085815260200190815260200160002060010160009054906101000a900473ffffffffffffffffffffffffffffffffffffffff1673ffffffffffffffffffffffffffffffffffffffff1663a9059cbb60d0600087815260200190815260200160002060060160009054906101000a900473ffffffffffffffffffffffffffffffffffffffff16836040518363ffffffff1660e01b8152600401611bbc9291906133b5565b6020604051808303816000875af1158015611bdb573d6000803e3d6000fd5b505050506040513d601f19601f82011682018060405250810190611bff9190613340565b5060d0600085815260200190815260200160002060010160009054906101000a900473ffffffffffffffffffffffffffffffffffffffff1673ffffffffffffffffffffffffffffffffffffffff1663a9059cbb60d0600087815260200190815260200160002060060160009054906101000a900473ffffffffffffffffffffffffffffffffffffffff1660d06000888152602001908152602001600020600301546040518363ffffffff1660e01b8152600401611cbd9291906133b5565b6020604051808303816000875af1158015611cdc573d6000803e3d6000fd5b505050506040513d601f19601f82011682018060405250810190611d009190613340565b50837f79252c381c5280f78c77f378791e42b506843a48916430480eab95a898cdae9f8685604051611d33929190613d9b565b60405180910390a260019150509392505050565b611d4f612023565b600073ffffffffffffffffffffffffffffffffffffffff168173ffffffffffffffffffffffffffffffffffffffff1603611dbe576040517f08c379a0000000000000000000000000000000000000000000000000000000008152600401611db590613e36565b60405180910390fd5b611dc781612104565b50565b611dd2610d1f565b15611e12576040517f08c379a0000000000000000000000000000000000000000000000000000000008152600401611e0990613ea2565b60405180910390fd5b565b6001609b60008873ffffffffffffffffffffffffffffffffffffffff1673ffffffffffffffffffffffffffffffffffffffff1681526020019081526020016000205414611e96576040517f08c379a0000000000000000000000000000000000000000000000000000000008152600401611e8d90613f0e565b60405180910390fd5b60008503611ed9576040517f08c379a0000000000000000000000000000000000000000000000000000000008152600401611ed090613f7a565b60405180910390fd5b600073ffffffffffffffffffffffffffffffffffffffff168473ffffffffffffffffffffffffffffffffffffffff1603611f48576040517f08c379a0000000000000000000000000000000000000000000000000000000008152600401611f3f90613fe6565b60405180910390fd5b6000801b609d60008381526020019081526020016000206000015403611fa3576040517f08c379a0000000000000000000000000000000000000000000000000000000008152600401611f9a90614052565b60405180910390fd5b6000821461201b57600073ffffffffffffffffffffffffffffffffffffffff168373ffffffffffffffffffffffffffffffffffffffff160361201a576040517f08c379a0000000000000000000000000000000000000000000000000000000008152600401612011906140be565b60405180910390fd5b5b505050505050565b61202b612456565b73ffffffffffffffffffffffffffffffffffffffff166120496111ae565b73ffffffffffffffffffffffffffffffffffffffff161461209f576040517f08c379a00000000000000000000000000000000000000000000000000000000081526004016120969061412a565b60405180910390fd5b565b6120a961245e565b6000609e60006101000a81548160ff0219169083151502179055507f5db9ee0a495bf2e6ff9c91a7834c1ba4fdd244a5e8aa4e537bd38aeae4b073aa6120ed612456565b6040516120fa9190612f64565b60405180910390a1565b6000603360009054906101000a900473ffffffffffffffffffffffffffffffffffffffff16905081603360006101000a81548173ffffffffffffffffffffffffffffffffffffffff021916908373ffffffffffffffffffffffffffffffffffffffff1602179055508173ffffffffffffffffffffffffffffffffffffffff168173ffffffffffffffffffffffffffffffffffffffff167f8be0079c531659141344cd1fd0a4f28419497f9722a3daafe3b4186f6b6457e060405160405180910390a35050565b6000808273ffffffffffffffffffffffffffffffffffffffff163b119050919050565b600060019054906101000a900460ff1661223c576040517f08c379a0000000000000000000000000000000000000000000000000000000008152600401612233906141bc565b60405180910390fd5b6122446124a7565b565b600060019054906101000a900460ff16612295576040517f08c379a000000000000000000000000000000000000000000000000000000000815260040161228c906141bc565b60405180910390fd5b61229d612508565b565b6122a7611dca565b6001609e60006101000a81548160ff0219169083151502179055507f62e78cea01bee320cd4e420270b5ea74000d11b0c9f74754ebdbfc544b05a2586122eb612456565b6040516122f89190612f64565b60405180910390a1565b600060d0600083815260200190815260200160002060020160009054906101000a900473ffffffffffffffffffffffffffffffffffffffff169050600060d0600084815260200190815260200160002060030154905060d0600084815260200190815260200160002060010160009054906101000a900473ffffffffffffffffffffffffffffffffffffffff1673ffffffffffffffffffffffffffffffffffffffff1663a9059cbb83836040518363ffffffff1660e01b81526004016123c99291906133b5565b6020604051808303816000875af11580156123e8573d6000803e3d6000fd5b505050506040513d601f19601f8201168201806040525081019061240c9190613340565b50808273ffffffffffffffffffffffffffffffffffffffff167f44f6938ca4a10313aabb76f874cced61e35710a734a126e4afb34461bf8c250160405160405180910390a3505050565b600033905090565b612466610d1f565b6124a5576040517f08c379a000000000000000000000000000000000000000000000000000000000815260040161249c90614228565b60405180910390fd5b565b600060019054906101000a900460ff166124f6576040517f08c379a00000000000000000000000000000000000000000000000000000000081526004016124ed906141bc565b60405180910390fd5b612506612501612456565b612104565b565b600060019054906101000a900460ff16612557576040517f08c379a000000000000000000000000000000000000000000000000000000000815260040161254e906141bc565b60405180910390fd5b6000609e60006101000a81548160ff021916908315150217905550565b50805460008255600202906000526020600020908101906125959190612681565b50565b604051806101400160405280600073ffffffffffffffffffffffffffffffffffffffff168152602001600073ffffffffffffffffffffffffffffffffffffffff168152602001600073ffffffffffffffffffffffffffffffffffffffff168152602001600081526020016000815260200160006bffffffffffffffffffffffff168152602001600015158152602001600073ffffffffffffffffffffffffffffffffffffffff16815260200160006bffffffffffffffffffffffff168152602001600081525090565b604051806040016040528060008019168152602001600080191681525090565b5b808211156126a457600080820160009055600182016000905550600201612682565b5090565b6000604051905090565b600080fd5b600080fd5b6000819050919050565b6126cf816126bc565b81146126da57600080fd5b50565b6000813590506126ec816126c6565b92915050565b600060208284031215612708576127076126b2565b5b6000612716848285016126dd565b91505092915050565b600081519050919050565b600082825260208201905092915050565b6000819050602082019050919050565b612754816126bc565b82525050565b604082016000820151612770600085018261274b565b506020820151612783602085018261274b565b50505050565b6000612795838361275a565b60408301905092915050565b6000602082019050919050565b60006127b98261271f565b6127c3818561272a565b93506127ce8361273b565b8060005b838110156127ff5781516127e68882612789565b97506127f1836127a1565b9250506001810190506127d2565b5085935050505092915050565b6000602082019050818103600083015261282681846127ae565b905092915050565b600073ffffffffffffffffffffffffffffffffffffffff82169050919050565b60006128598261282e565b9050919050565b6128698161284e565b811461287457600080fd5b50565b60008135905061288681612860565b92915050565b6000819050919050565b61289f8161288c565b81146128aa57600080fd5b50565b6000813590506128bc81612896565b92915050565b60006bffffffffffffffffffffffff82169050919050565b6128e3816128c2565b81146128ee57600080fd5b50565b600081359050612900816128da565b92915050565b600080fd5b600080fd5b600080fd5b60008083601f84011261292b5761292a612906565b5b8235905067ffffffffffffffff8111156129485761294761290b565b5b60208301915083600182028301111561296457612963612910565b5b9250929050565b6000806000806000806000806000806101208b8d03121561298f5761298e6126b2565b5b600061299d8d828e01612877565b9a505060206129ae8d828e016128ad565b99505060406129bf8d828e016126dd565b98505060606129d08d828e016126dd565b97505060806129e18d828e016128f1565b96505060a06129f28d828e01612877565b95505060c0612a038d828e016128ad565b94505060e0612a148d828e01612877565b9350506101008b013567ffffffffffffffff811115612a3657612a356126b7565b5b612a428d828e01612915565b92509250509295989b9194979a5092959850565b612a5f816126bc565b82525050565b6000602082019050612a7a6000830184612a56565b92915050565b6000601f19601f8301169050919050565b7f4e487b7100000000000000000000000000000000000000000000000000000000600052604160045260246000fd5b612ac982612a80565b810181811067ffffffffffffffff82111715612ae857612ae7612a91565b5b80604052505050565b6000612afb6126a8565b9050612b078282612ac0565b919050565b600067ffffffffffffffff821115612b2757612b26612a91565b5b602082029050602081019050919050565b600080fd5b600060408284031215612b5357612b52612b38565b5b612b5d6040612af1565b90506000612b6d848285016126dd565b6000830152506020612b81848285016126dd565b60208301525092915050565b6000612ba0612b9b84612b0c565b612af1565b90508083825260208201905060408402830185811115612bc357612bc2612910565b5b835b81811015612bec5780612bd88882612b3d565b845260208401935050604081019050612bc5565b5050509392505050565b600082601f830112612c0b57612c0a612906565b5b8135612c1b848260208601612b8d565b91505092915050565b60008060408385031215612c3b57612c3a6126b2565b5b6000612c49858286016126dd565b925050602083013567ffffffffffffffff811115612c6a57612c696126b7565b5b612c7685828601612bf6565b9150509250929050565b600081519050919050565b600082825260208201905092915050565b60005b83811015612cba578082015181840152602081019050612c9f565b60008484015250505050565b6000612cd182612c80565b612cdb8185612c8b565b9350612ceb818560208601612c9c565b612cf481612a80565b840191505092915050565b60006020820190508181036000830152612d198184612cc6565b905092915050565b60008060408385031215612d3857612d376126b2565b5b6000612d46858286016126dd565b9250506020612d5785828601612877565b9150509250929050565b60008115159050919050565b612d7681612d61565b82525050565b6000602082019050612d916000830184612d6d565b92915050565b600060208284031215612dad57612dac6126b2565b5b6000612dbb84828501612877565b91505092915050565b612dcd8161284e565b82525050565b612ddc8161288c565b82525050565b612deb816128c2565b82525050565b612dfa81612d61565b82525050565b61014082016000820151612e176000850182612dc4565b506020820151612e2a6020850182612dc4565b506040820151612e3d6040850182612dc4565b506060820151612e506060850182612dd3565b506080820151612e636080850182612dd3565b5060a0820151612e7660a0850182612de2565b5060c0820151612e8960c0850182612df1565b5060e0820151612e9c60e0850182612dc4565b50610100820151612eb1610100850182612de2565b50610120820151612ec6610120850182612dd3565b50505050565b600061014082019050612ee26000830184612e00565b92915050565b600067ffffffffffffffff82169050919050565b612f0581612ee8565b8114612f1057600080fd5b50565b600081359050612f2281612efc565b92915050565b600060208284031215612f3e57612f3d6126b2565b5b6000612f4c84828501612f13565b91505092915050565b612f5e8161284e565b82525050565b6000602082019050612f796000830184612f55565b92915050565b600080600080600060a08688031215612f9b57612f9a6126b2565b5b6000612fa9888289016126dd565b9550506020612fba888289016126dd565b9450506040612fcb888289016126dd565b9350506060612fdc88828901612877565b9250506080612fed88828901612f13565b9150509295509295909350565b600060408201905061300f6000830185612a56565b61301c6020830184612f55565b9392505050565b61302c81612ee8565b82525050565b61303b8161288c565b82525050565b60006040820190506130566000830185613023565b6130636020830184613032565b9392505050565b604082016000820151613080600085018261274b565b506020820151613093602085018261274b565b50505050565b60006040820190506130ae600083018461306a565b92915050565b60008083601f8401126130ca576130c9612906565b5b8235905067ffffffffffffffff8111156130e7576130e661290b565b5b60208301915083600182028301111561310357613102612910565b5b9250929050565b60008060208385031215613121576131206126b2565b5b600083013567ffffffffffffffff81111561313f5761313e6126b7565b5b61314b858286016130b4565b92509250509250929050565b6000806000606084860312156131705761316f6126b2565b5b600061317e868287016126dd565b935050602061318f86828701612877565b92505060406131a0868287016128ad565b9150509250925092565b6000806000606084860312156131c3576131c26126b2565b5b60006131d1868287016128ad565b93505060206131e2868287016126dd565b92505060406131f3868287016126dd565b9150509250925092565b600082825260208201905092915050565b7f496e76616c69644d657373616765486173680000000000000000000000000000600082015250565b60006132446012836131fd565b915061324f8261320e565b602082019050919050565b6000602082019050818103600083015261327381613237565b9050919050565b7f4e487b7100000000000000000000000000000000000000000000000000000000600052601160045260246000fd5b60006132b48261288c565b91506132bf8361288c565b92508282019050808211156132d7576132d661327a565b5b92915050565b60006060820190506132f26000830186612f55565b6132ff6020830185612f55565b61330c6040830184613032565b949350505050565b61331d81612d61565b811461332857600080fd5b50565b60008151905061333a81613314565b92915050565b600060208284031215613356576133556126b2565b5b60006133648482850161332b565b91505092915050565b60006133788261288c565b91507fffffffffffffffffffffffffffffffffffffffffffffffffffffffffffffffff82036133aa576133a961327a565b5b600182019050919050565b60006040820190506133ca6000830185612f55565b6133d76020830184613032565b9392505050565b60006133e98261288c565b91506133f48361288c565b92508282026134028161288c565b915082820484148315176134195761341861327a565b5b5092915050565b7f4e487b7100000000000000000000000000000000000000000000000000000000600052601260045260246000fd5b600061345a8261288c565b91506134658361288c565b92508261347557613474613420565b5b828204905092915050565b600061348b8261288c565b91506134968361288c565b92508282039050818111156134ae576134ad61327a565b5b92915050565b6000819050919050565b60006134d96134d46134cf846128c2565b6134b4565b61288c565b9050919050565b6134e9816134be565b82525050565b82818337600083830152505050565b600061350a83856131fd565b93506135178385846134ef565b61352083612a80565b840190509392505050565b600060a0820190506135406000830189613032565b61354d60208301886134e0565b61355a6040830187612a56565b6135676060830186612a56565b818103608083015261357a8184866134fe565b9050979650505050505050565b7f4e487b7100000000000000000000000000000000000000000000000000000000600052603260045260246000fd5b600081549050919050565b60008190508160005260206000209050919050565b60008160001c9050919050565b6000819050919050565b60006136006135fb836135d6565b6135e3565b9050919050565b60408201600080830154905061361c816135ed565b613629600086018261274b565b506001830154905061363a816135ed565b613647602086018261274b565b5050505050565b600061365a8383613607565b60408301905092915050565b6000600282019050919050565b600061367e826135b6565b613688818561272a565b9350613693836135c1565b8060005b838110156136c357816136aa888261364e565b97506136b583613666565b925050600181019050613697565b5085935050505092915050565b600060208201905081810360008301526136ea8184613673565b905092915050565b7f4e487b7100000000000000000000000000000000000000000000000000000000600052602260045260246000fd5b6000600282049050600182168061373957607f821691505b60208210810361374c5761374b6136f2565b5b50919050565b7f50617963726573743a207a65726f206164647265737300000000000000000000600082015250565b60006137886016836131fd565b915061379382613752565b602082019050919050565b600060208201905081810360008301526137b78161377b565b9050919050565b7f496e697469616c697a61626c653a20636f6e747261637420697320616c72656160008201527f647920696e697469616c697a6564000000000000000000000000000000000000602082015250565b600061381a602e836131fd565b9150613825826137be565b604082019050919050565b600060208201905081810360008301526138498161380d565b9050919050565b6000819050919050565b600060ff82169050919050565b600061388261387d61387884613850565b6134b4565b61385a565b9050919050565b61389281613867565b82525050565b60006020820190506138ad6000830184613889565b92915050565b60006020820190506138c86000830184613023565b92915050565b7f4f6e6c7941676772656761746f72000000000000000000000000000000000000600082015250565b6000613904600e836131fd565b915061390f826138ce565b602082019050919050565b60006020820190508181036000830152613933816138f7565b9050919050565b7f4f7264657246756c66696c6c6564000000000000000000000000000000000000600082015250565b6000613970600e836131fd565b915061397b8261393a565b602082019050919050565b6000602082019050818103600083015261399f81613963565b9050919050565b60006139b1826128c2565b91506139bc836128c2565b925082820390506bffffffffffffffffffffffff8111156139e0576139df61327a565b5b92915050565b6000613a016139fc6139f784612ee8565b6134b4565b6128c2565b9050919050565b613a11816139e6565b82525050565b6000606082019050613a2c6000830186612a56565b613a396020830185612a56565b613a466040830184613a08565b949350505050565b600082905092915050565b60008190508160005260206000209050919050565b60006020601f8301049050919050565b600082821b905092915050565b600060088302613abb7fffffffffffffffffffffffffffffffffffffffffffffffffffffffffffffffff82613a7e565b613ac58683613a7e565b95508019841693508086168417925050509392505050565b6000613af8613af3613aee8461288c565b6134b4565b61288c565b9050919050565b6000819050919050565b613b1283613add565b613b26613b1e82613aff565b848454613a8b565b825550505050565b600090565b613b3b613b2e565b613b46818484613b09565b505050565b5b81811015613b6a57613b5f600082613b33565b600181019050613b4c565b5050565b601f821115613baf57613b8081613a59565b613b8984613a6e565b81016020851015613b98578190505b613bac613ba485613a6e565b830182613b4b565b50505b505050565b600082821c905092915050565b6000613bd260001984600802613bb4565b1980831691505092915050565b6000613beb8383613bc1565b9150826002028217905092915050565b613c058383613a4e565b67ffffffffffffffff811115613c1e57613c1d612a91565b5b613c288254613721565b613c33828285613b6e565b6000601f831160018114613c625760008415613c50578287013590505b613c5a8582613bdf565b865550613cc2565b601f198416613c7086613a59565b60005b82811015613c9857848901358255600182019150602085019450602081019050613c73565b86831015613cb55784890135613cb1601f891682613bc1565b8355505b6001600288020188555050505b50505050505050565b600081905092915050565b6000613ce28385613ccb565b9350613cef8385846134ef565b82840190509392505050565b6000613d08828486613cd6565b91508190509392505050565b7f50617963726573743a20696e76616c6964207374617475730000000000000000600082015250565b6000613d4a6018836131fd565b9150613d5582613d14565b602082019050919050565b60006020820190508181036000830152613d7981613d3d565b9050919050565b6000602082019050613d956000830184613032565b92915050565b6000604082019050613db06000830185613032565b613dbd6020830184612a56565b9392505050565b7f4f776e61626c653a206e6577206f776e657220697320746865207a65726f206160008201527f6464726573730000000000000000000000000000000000000000000000000000602082015250565b6000613e206026836131fd565b9150613e2b82613dc4565b604082019050919050565b60006020820190508181036000830152613e4f81613e13565b9050919050565b7f5061757361626c653a2070617573656400000000000000000000000000000000600082015250565b6000613e8c6010836131fd565b9150613e9782613e56565b602082019050919050565b60006020820190508181036000830152613ebb81613e7f565b9050919050565b7f546f6b656e4e6f74537570706f72746564000000000000000000000000000000600082015250565b6000613ef86011836131fd565b9150613f0382613ec2565b602082019050919050565b60006020820190508181036000830152613f2781613eeb565b9050919050565b7f416d6f756e7449735a65726f0000000000000000000000000000000000000000600082015250565b6000613f64600c836131fd565b9150613f6f82613f2e565b602082019050919050565b60006020820190508181036000830152613f9381613f57565b9050919050565b7f5468726f775a65726f4164647265737300000000000000000000000000000000600082015250565b6000613fd06010836131fd565b9150613fdb82613f9a565b602082019050919050565b60006020820190508181036000830152613fff81613fc3565b9050919050565b7f496e76616c6964496e737469747574696f6e436f646500000000000000000000600082015250565b600061403c6016836131fd565b915061404782614006565b602082019050919050565b6000602082019050818103600083015261406b8161402f565b9050919050565b7f496e76616c696453656e646572466565526563697069656e7400000000000000600082015250565b60006140a86019836131fd565b91506140b382614072565b602082019050919050565b600060208201905081810360008301526140d78161409b565b9050919050565b7f4f776e61626c653a2063616c6c6572206973206e6f7420746865206f776e6572600082015250565b60006141146020836131fd565b915061411f826140de565b602082019050919050565b6000602082019050818103600083015261414381614107565b9050919050565b7f496e697469616c697a61626c653a20636f6e7472616374206973206e6f74206960008201527f6e697469616c697a696e67000000000000000000000000000000000000000000602082015250565b60006141a6602b836131fd565b91506141b18261414a565b604082019050919050565b600060208201905081810360008301526141d581614199565b9050919050565b7f5061757361626c653a206e6f7420706175736564000000000000000000000000600082015250565b60006142126014836131fd565b915061421d826141dc565b602082019050919050565b6000602082019050818103600083015261424181614205565b905091905056fea2646970667358221220bc777573eaed426cb6460095fd620b246f95375c1a707310ba45779f935df48e64736f6c63430008120033",
  "linkReferences": {},
  "deployedLinkReferences": {}
}