{
  "_format": "hh-sol-artifact-1",
  "contractName": "Paycrest",
  "sourceName": "contracts/Paycrest.sol",
  "abi": [
    {
      "inputs": [],
      "stateMutability": "nonpayable",
      "type": "constructor"
    },
    {
      "anonymous": false,
      "inputs": [
        {
          "indexed": true,
          "internalType": "address",
          "name": "token",
          "type": "address"
        },
        {
          "indexed": true,
          "internalType": "uint256",
          "name": "amount",
          "type": "uint256"
        },
        {
          "indexed": true,
          "internalType": "bytes32",
          "name": "orderId",
          "type": "bytes32"
        },
        {
          "indexed": false,
          "internalType": "uint256",
          "name": "rate",
          "type": "uint256"
        },
        {
          "indexed": false,
          "internalType": "bytes32",
          "name": "institutionCode",
          "type": "bytes32"
        },
        {
          "indexed": false,
          "internalType": "bytes32",
          "name": "label",
          "type": "bytes32"
        },
        {
          "indexed": false,
          "internalType": "string",
          "name": "messageHash",
          "type": "string"
        }
      ],
      "name": "Deposit",
      "type": "event"
    },
    {
      "anonymous": false,
      "inputs": [
        {
          "indexed": false,
          "internalType": "uint8",
          "name": "version",
          "type": "uint8"
        }
      ],
      "name": "Initialized",
      "type": "event"
    },
    {
      "anonymous": false,
      "inputs": [
        {
          "indexed": true,
          "internalType": "address",
          "name": "previousOwner",
          "type": "address"
        },
        {
          "indexed": true,
          "internalType": "address",
          "name": "newOwner",
          "type": "address"
        }
      ],
      "name": "OwnershipTransferred",
      "type": "event"
    },
    {
      "anonymous": false,
      "inputs": [
        {
          "indexed": false,
          "internalType": "uint64",
          "name": "protocolFee",
          "type": "uint64"
        }
      ],
      "name": "PaycrestFees",
      "type": "event"
    },
    {
      "anonymous": false,
      "inputs": [
        {
          "indexed": true,
          "internalType": "bytes32",
          "name": "orderId",
          "type": "bytes32"
        },
        {
          "indexed": false,
          "internalType": "bytes32",
          "name": "label",
          "type": "bytes32"
        }
      ],
      "name": "Refunded",
      "type": "event"
    },
    {
      "anonymous": false,
      "inputs": [
        {
          "indexed": true,
          "internalType": "address",
          "name": "validator",
          "type": "address"
        },
        {
          "indexed": true,
          "internalType": "uint256",
          "name": "amount",
          "type": "uint256"
        }
      ],
      "name": "RewardValidator",
      "type": "event"
    },
    {
      "anonymous": false,
      "inputs": [
        {
          "indexed": false,
          "internalType": "bytes",
          "name": "aggregator",
          "type": "bytes"
        }
      ],
      "name": "SetAggregator",
      "type": "event"
    },
    {
      "anonymous": false,
      "inputs": [
        {
          "indexed": false,
          "internalType": "address",
          "name": "feeRecipient",
          "type": "address"
        }
      ],
      "name": "SetFeeRecipient",
      "type": "event"
    },
    {
      "anonymous": false,
      "inputs": [
        {
          "indexed": false,
          "internalType": "bytes32",
          "name": "what",
          "type": "bytes32"
        },
        {
          "indexed": false,
          "internalType": "address",
          "name": "value",
          "type": "address"
        },
        {
          "indexed": false,
          "internalType": "bool",
          "name": "status",
          "type": "bool"
        }
      ],
      "name": "SettingManagerBool",
      "type": "event"
    },
    {
      "anonymous": false,
      "inputs": [
        {
          "indexed": false,
          "internalType": "bytes32",
          "name": "_splitOrderId",
          "type": "bytes32"
        },
        {
          "indexed": true,
          "internalType": "bytes32",
          "name": "orderId",
          "type": "bytes32"
        },
        {
          "indexed": false,
          "internalType": "bytes32",
          "name": "label",
          "type": "bytes32"
        },
        {
          "indexed": true,
          "internalType": "address",
          "name": "liquidityProvider",
          "type": "address"
        },
        {
          "indexed": false,
          "internalType": "uint96",
          "name": "settlePercent",
          "type": "uint96"
        }
      ],
      "name": "Settled",
      "type": "event"
    },
    {
      "anonymous": false,
      "inputs": [
        {
          "indexed": true,
          "internalType": "address",
          "name": "sender",
          "type": "address"
        },
        {
          "indexed": true,
          "internalType": "uint256",
          "name": "amount",
          "type": "uint256"
        }
      ],
      "name": "TransferSenderFee",
      "type": "event"
    },
    {
      "inputs": [
        {
          "internalType": "address",
          "name": "_token",
          "type": "address"
        },
        {
          "internalType": "uint256",
          "name": "_amount",
          "type": "uint256"
        },
        {
          "internalType": "bytes32",
          "name": "_institutionCode",
          "type": "bytes32"
        },
        {
          "internalType": "bytes32",
          "name": "_label",
          "type": "bytes32"
        },
        {
          "internalType": "uint96",
          "name": "_rate",
          "type": "uint96"
        },
        {
          "internalType": "address",
          "name": "_senderFeeRecipient",
          "type": "address"
        },
        {
          "internalType": "uint256",
          "name": "_senderFee",
          "type": "uint256"
        },
        {
          "internalType": "address",
          "name": "_refundAddress",
          "type": "address"
        },
        {
          "internalType": "string",
          "name": "messageHash",
          "type": "string"
        }
      ],
      "name": "createOrder",
      "outputs": [
        {
          "internalType": "bytes32",
          "name": "orderId",
          "type": "bytes32"
        }
      ],
      "stateMutability": "nonpayable",
      "type": "function"
    },
    {
      "inputs": [],
      "name": "getAggregator",
      "outputs": [
        {
          "internalType": "bytes",
          "name": "",
          "type": "bytes"
        }
      ],
      "stateMutability": "view",
      "type": "function"
    },
    {
      "inputs": [],
      "name": "getAggregatorAddress",
      "outputs": [
        {
          "internalType": "address",
          "name": "",
          "type": "address"
        }
      ],
      "stateMutability": "view",
      "type": "function"
    },
    {
      "inputs": [],
      "name": "getFeeDetails",
      "outputs": [
        {
          "internalType": "uint64",
          "name": "",
          "type": "uint64"
        },
        {
          "internalType": "uint256",
          "name": "",
          "type": "uint256"
        }
      ],
      "stateMutability": "view",
      "type": "function"
    },
    {
      "inputs": [
        {
          "internalType": "bytes32",
          "name": "_orderId",
          "type": "bytes32"
        }
      ],
      "name": "getOrderInfo",
      "outputs": [
        {
          "components": [
            {
              "internalType": "address",
              "name": "seller",
              "type": "address"
            },
            {
              "internalType": "address",
              "name": "token",
              "type": "address"
            },
            {
              "internalType": "address",
              "name": "senderFeeRecipient",
              "type": "address"
            },
            {
              "internalType": "uint256",
              "name": "senderFee",
              "type": "uint256"
            },
            {
              "internalType": "uint96",
              "name": "rate",
              "type": "uint96"
            },
            {
              "internalType": "bool",
              "name": "isFulfilled",
              "type": "bool"
            },
            {
              "internalType": "address",
              "name": "refundAddress",
              "type": "address"
            },
            {
              "internalType": "uint96",
              "name": "currentBPS",
              "type": "uint96"
            },
            {
              "internalType": "uint256",
              "name": "amount",
              "type": "uint256"
            }
          ],
          "internalType": "struct IPaycrest.Order",
          "name": "",
          "type": "tuple"
        }
      ],
      "stateMutability": "view",
      "type": "function"
    },
    {
      "inputs": [
        {
          "internalType": "bytes32",
          "name": "code",
          "type": "bytes32"
        }
      ],
      "name": "getSupportedInstitutionName",
      "outputs": [
        {
          "components": [
            {
              "internalType": "bytes32",
              "name": "name",
              "type": "bytes32"
            },
            {
              "internalType": "bytes32",
              "name": "currency",
              "type": "bytes32"
            }
          ],
          "internalType": "struct PaycrestSettingManager.InstitutionByCode",
          "name": "",
          "type": "tuple"
        }
      ],
      "stateMutability": "view",
      "type": "function"
    },
    {
      "inputs": [
        {
          "internalType": "bytes32",
          "name": "currency",
          "type": "bytes32"
        }
      ],
      "name": "getSupportedInstitutions",
      "outputs": [
        {
          "components": [
            {
              "internalType": "bytes32",
              "name": "code",
              "type": "bytes32"
            },
            {
              "internalType": "bytes32",
              "name": "name",
              "type": "bytes32"
            }
          ],
          "internalType": "struct PaycrestSettingManager.Institution[]",
          "name": "",
          "type": "tuple[]"
        }
      ],
      "stateMutability": "view",
      "type": "function"
    },
    {
      "inputs": [
        {
          "internalType": "address",
          "name": "sender",
          "type": "address"
        }
      ],
      "name": "getWhitelistedStatus",
      "outputs": [
        {
          "internalType": "bool",
          "name": "",
          "type": "bool"
        }
      ],
      "stateMutability": "view",
      "type": "function"
    },
    {
      "inputs": [
        {
          "internalType": "address",
          "name": "_usdc",
          "type": "address"
        }
      ],
      "name": "initialize",
      "outputs": [],
      "stateMutability": "nonpayable",
      "type": "function"
    },
    {
      "inputs": [
        {
          "internalType": "address",
          "name": "_token",
          "type": "address"
        }
      ],
      "name": "isTokenSupported",
      "outputs": [
        {
          "internalType": "bool",
          "name": "",
          "type": "bool"
        }
      ],
      "stateMutability": "view",
      "type": "function"
    },
    {
      "inputs": [],
      "name": "owner",
      "outputs": [
        {
          "internalType": "address",
          "name": "",
          "type": "address"
        }
      ],
      "stateMutability": "view",
      "type": "function"
    },
    {
      "inputs": [
        {
          "internalType": "bytes32",
          "name": "_orderId",
          "type": "bytes32"
        },
        {
          "internalType": "bytes32",
          "name": "_label",
          "type": "bytes32"
        }
      ],
      "name": "refund",
      "outputs": [
        {
          "internalType": "bool",
          "name": "",
          "type": "bool"
        }
      ],
      "stateMutability": "nonpayable",
      "type": "function"
    },
    {
      "inputs": [],
      "name": "renounceOwnership",
      "outputs": [],
      "stateMutability": "nonpayable",
      "type": "function"
    },
    {
      "inputs": [
        {
          "internalType": "bytes32",
          "name": "currency",
          "type": "bytes32"
        },
        {
          "components": [
            {
              "internalType": "bytes32",
              "name": "code",
              "type": "bytes32"
            },
            {
              "internalType": "bytes32",
              "name": "name",
              "type": "bytes32"
            }
          ],
          "internalType": "struct PaycrestSettingManager.Institution[]",
          "name": "institutions",
          "type": "tuple[]"
        }
      ],
      "name": "setSupportedInstitutions",
      "outputs": [],
      "stateMutability": "nonpayable",
      "type": "function"
    },
    {
      "inputs": [
        {
          "internalType": "bytes32",
          "name": "what",
          "type": "bytes32"
        },
        {
          "internalType": "address",
          "name": "value",
          "type": "address"
        },
        {
          "internalType": "bool",
          "name": "status",
          "type": "bool"
        }
      ],
      "name": "settingManagerBool",
      "outputs": [],
      "stateMutability": "nonpayable",
      "type": "function"
    },
    {
      "inputs": [
        {
          "internalType": "bytes32",
          "name": "_splitOrderId",
          "type": "bytes32"
        },
        {
          "internalType": "bytes32",
          "name": "_orderId",
          "type": "bytes32"
        },
        {
          "internalType": "bytes32",
          "name": "_label",
          "type": "bytes32"
        },
        {
          "internalType": "address",
          "name": "_liquidityProvider",
          "type": "address"
        },
        {
          "internalType": "uint64",
          "name": "_settlePercent",
          "type": "uint64"
        },
        {
          "internalType": "bool",
          "name": "_isPartner",
          "type": "bool"
        }
      ],
      "name": "settle",
      "outputs": [
        {
          "internalType": "bytes32",
          "name": "",
          "type": "bytes32"
        },
        {
          "internalType": "address",
          "name": "",
          "type": "address"
        }
      ],
      "stateMutability": "nonpayable",
      "type": "function"
    },
    {
      "inputs": [
        {
          "internalType": "address",
          "name": "newOwner",
          "type": "address"
        }
      ],
      "name": "transferOwnership",
      "outputs": [],
      "stateMutability": "nonpayable",
      "type": "function"
    },
    {
      "inputs": [
        {
          "internalType": "bytes32",
          "name": "what",
          "type": "bytes32"
        },
        {
          "internalType": "address",
          "name": "value",
          "type": "address"
        }
      ],
      "name": "updateProtocolAddresses",
      "outputs": [],
      "stateMutability": "nonpayable",
      "type": "function"
    },
    {
      "inputs": [
        {
          "internalType": "bytes",
          "name": "aggregator",
          "type": "bytes"
        }
      ],
      "name": "updateProtocolAggregator",
      "outputs": [],
      "stateMutability": "nonpayable",
      "type": "function"
    },
    {
      "inputs": [
        {
          "internalType": "uint64",
          "name": "_protocolFeePercent",
          "type": "uint64"
        }
      ],
      "name": "updateProtocolFees",
      "outputs": [],
      "stateMutability": "nonpayable",
      "type": "function"
    },
    {
      "inputs": [
        {
          "internalType": "address",
          "name": "_token",
          "type": "address"
        },
        {
          "internalType": "address",
          "name": "_recipient",
          "type": "address"
        },
        {
          "internalType": "uint256",
          "name": "_amount",
          "type": "uint256"
        }
      ],
      "name": "withdraw",
      "outputs": [],
      "stateMutability": "nonpayable",
      "type": "function"
    }
  ],
  "bytecode": "0x60806040523480156200001157600080fd5b50620000226200002860201b60201c565b620001d2565b600060019054906101000a900460ff16156200007b576040517f08c379a0000000000000000000000000000000000000000000000000000000008152600401620000729062000175565b60405180910390fd5b60ff801660008054906101000a900460ff1660ff1614620000ec5760ff6000806101000a81548160ff021916908360ff1602179055507f7f26b83ff96e1f2b6a682f133852f6798a09c465da95921460cefb384740249860ff604051620000e39190620001b5565b60405180910390a15b565b600082825260208201905092915050565b7f496e697469616c697a61626c653a20636f6e747261637420697320696e69746960008201527f616c697a696e6700000000000000000000000000000000000000000000000000602082015250565b60006200015d602783620000ee565b91506200016a82620000ff565b604082019050919050565b6000602082019050818103600083015262000190816200014e565b9050919050565b600060ff82169050919050565b620001af8162000197565b82525050565b6000602082019050620001cc6000830184620001a4565b92915050565b613d2d80620001e26000396000f3fe608060405234801561001057600080fd5b50600436106101375760003560e01c806387490d86116100b8578063cb79455b1161007c578063cb79455b1461034e578063d8e8de341461036a578063d9caed121461039a578063e4683a79146103b6578063e8d6e0de146103e6578063f2fde38b1461040457610137565b806387490d86146102a95780638da5cb5b146102d957806399e3c0b4146102f7578063b810c63614610313578063c4d66de81461033257610137565b8063715018a6116100ff578063715018a61461020757806375151b6314610211578063768c6ec01461024157806379a0effb14610271578063846307361461028d57610137565b8063026213381461013c5780632654ec7e1461016c578063322008821461019c5780633ad59dbc146101b85780635fe44cac146101d6575b600080fd5b6101566004803603810190610151919061244e565b610420565b6040516101639190612568565b60405180910390f35b610186600480360381019061018191906126c7565b61055e565b60405161019391906127c1565b60405180910390f35b6101b660048036038101906101b19190612980565b610a25565b005b6101c0610b39565b6040516101cd9190612a5b565b60405180910390f35b6101f060048036038101906101eb9190612af5565b610bcb565b6040516101fe929190612b91565b60405180910390f35b61020f610fc4565b005b61022b60048036038101906102269190612bba565b610fd8565b6040516102389190612bf6565b60405180910390f35b61025b6004803603810190610256919061244e565b61102e565b6040516102689190612d04565b60405180910390f35b61028b60048036038101906102869190612d20565b61125f565b005b6102a760048036038101906102a29190612d60565b6113ac565b005b6102c360048036038101906102be919061244e565b611417565b6040516102d09190612dbc565b60405180910390f35b6102e1611458565b6040516102ee9190612dd7565b60405180910390f35b610311600480360381019061030c9190612df2565b611482565b005b61031b611637565b604051610329929190612e63565b60405180910390f35b61034c60048036038101906103479190612bba565b61165c565b005b61036860048036038101906103639190612ee2565b611828565b005b610384600480360381019061037f9190612bba565b61187f565b6040516103919190612bf6565b60405180910390f35b6103b460048036038101906103af9190612f2f565b6118d5565b005b6103d060048036038101906103cb9190612f82565b611961565b6040516103dd9190612bf6565b60405180910390f35b6103ee611c0e565b6040516103fb9190612dd7565b60405180910390f35b61041e60048036038101906104199190612bba565b611c38565b005b60606000609d6000848152602001908152602001600020805480602002602001604051908101604052809291908181526020016000905b8282101561049d57838290600052602060002090600202016040518060400160405290816000820154815260200160018201548152505081526020019060010190610457565b50505050905060008151905060008167ffffffffffffffff8111156104c5576104c46127ed565b5b6040519080825280602002602001820160405280156104fe57816020015b6104eb6122e8565b8152602001906001900390816104e35790505b50905060005b828110156105525783818151811061051f5761051e612fc2565b5b602002602001015182828151811061053a57610539612fc2565b5b60200260200101819052508080600101915050610504565b50809350505050919050565b600061056c8b8b868c611cbb565b606554606660009054906101000a900467ffffffffffffffff1667ffffffffffffffff168b61059b9190613020565b6105a59190613091565b8511156105e7576040517f08c379a00000000000000000000000000000000000000000000000000000000081526004016105de9061311f565b60405180910390fd5b8a73ffffffffffffffffffffffffffffffffffffffff166323b872dd33308d6040518463ffffffff1660e01b81526004016106249392919061313f565b6020604051808303816000875af1158015610643573d6000803e3d6000fd5b505050506040513d601f19601f82011682018060405250810190610667919061318b565b5060a060003373ffffffffffffffffffffffffffffffffffffffff1673ffffffffffffffffffffffffffffffffffffffff16815260200190815260200160002060008154809291906106b8906131b8565b91905055503360a060003373ffffffffffffffffffffffffffffffffffffffff1673ffffffffffffffffffffffffffffffffffffffff1681526020019081526020016000205460405160200161070f929190613200565b6040516020818303038152906040528051906020012090506040518061012001604052803373ffffffffffffffffffffffffffffffffffffffff1681526020018c73ffffffffffffffffffffffffffffffffffffffff1681526020018773ffffffffffffffffffffffffffffffffffffffff168152602001868152602001886bffffffffffffffffffffffff1681526020016000151581526020018573ffffffffffffffffffffffffffffffffffffffff16815260200160655467ffffffffffffffff166bffffffffffffffffffffffff1681526020018b815250609f600083815260200190815260200160002060008201518160000160006101000a81548173ffffffffffffffffffffffffffffffffffffffff021916908373ffffffffffffffffffffffffffffffffffffffff16021790555060208201518160010160006101000a81548173ffffffffffffffffffffffffffffffffffffffff021916908373ffffffffffffffffffffffffffffffffffffffff16021790555060408201518160020160006101000a81548173ffffffffffffffffffffffffffffffffffffffff021916908373ffffffffffffffffffffffffffffffffffffffff1602179055506060820151816003015560808201518160040160006101000a8154816bffffffffffffffffffffffff02191690836bffffffffffffffffffffffff16021790555060a082015181600401600c6101000a81548160ff02191690831515021790555060c08201518160050160006101000a81548173ffffffffffffffffffffffffffffffffffffffff021916908373ffffffffffffffffffffffffffffffffffffffff16021790555060e08201518160050160146101000a8154816bffffffffffffffffffffffff02191690836bffffffffffffffffffffffff1602179055506101008201518160060155905050808a8c73ffffffffffffffffffffffffffffffffffffffff167f2c205f90c01160d42994a0eb521810056d94bb82a1fcb038d7179c4158a1f15b8a8d8d8989604051610a0f9594939291906132a0565b60405180910390a49a9950505050505050505050565b610a2d611e5a565b60008151905060005b81811015610b3357609d6000858152602001908152602001600020838281518110610a6457610a63612fc2565b5b60200260200101519080600181540180825580915050600190039060005260206000209060020201600090919091909150600082015181600001556020820151816001015550506040518060400160405280848381518110610ac957610ac8612fc2565b5b602002602001015160200151815260200185815250609e6000858481518110610af557610af4612fc2565b5b602002602001015160000151815260200190815260200160002060008201518160000155602082015181600101559050508080600101915050610a36565b50505050565b606060688054610b489061331d565b80601f0160208091040260200160405190810160405280929190818152602001828054610b749061331d565b8015610bc15780601f10610b9657610100808354040283529160200191610bc1565b820191906000526020600020905b815481529060010190602001808311610ba457829003601f168201915b5050505050905090565b600080606760009054906101000a900473ffffffffffffffffffffffffffffffffffffffff1673ffffffffffffffffffffffffffffffffffffffff163373ffffffffffffffffffffffffffffffffffffffff1614610c5e576040517f08c379a0000000000000000000000000000000000000000000000000000000008152600401610c559061339a565b60405180910390fd5b609f6000888152602001908152602001600020600401600c9054906101000a900460ff1615610cc2576040517f08c379a0000000000000000000000000000000000000000000000000000000008152600401610cb990613406565b60405180910390fd5b6000609f600089815260200190815260200160002060010160009054906101000a900473ffffffffffffffffffffffffffffffffffffffff1690508467ffffffffffffffff16609f60008a815260200190815260200160002060050160148282829054906101000a90046bffffffffffffffffffffffff16610d449190613426565b92506101000a8154816bffffffffffffffffffffffff02191690836bffffffffffffffffffffffff1602179055506000610d89898767ffffffffffffffff1687611ed8565b90506000609f60008b815260200190815260200160002060050160149054906101000a90046bffffffffffffffffffffffff166bffffffffffffffffffffffff1603610e28576001609f60008b8152602001908152602001600020600401600c6101000a81548160ff0219169083151502179055506000609f60008b8152602001908152602001600020600301541115610e2757610e2689611fe9565b5b5b600081600001511115610edb578173ffffffffffffffffffffffffffffffffffffffff1663a9059cbb606660089054906101000a900473ffffffffffffffffffffffffffffffffffffffff1683600001516040518363ffffffff1660e01b8152600401610e96929190613200565b6020604051808303816000875af1158015610eb5573d6000803e3d6000fd5b505050506040513d601f19601f82011682018060405250810190610ed9919061318b565b505b8173ffffffffffffffffffffffffffffffffffffffff1663a9059cbb8883602001516040518363ffffffff1660e01b8152600401610f1a929190613200565b6020604051808303816000875af1158015610f39573d6000803e3d6000fd5b505050506040513d601f19601f82011682018060405250810190610f5d919061318b565b508673ffffffffffffffffffffffffffffffffffffffff16897ff26de978cbaea68ea699627155a10ad53df3321b0f95a08264c0cfd6d4c053268c8b8a604051610fa993929190613497565b60405180910390a38882935093505050965096945050505050565b610fcc611e5a565b610fd6600061213d565b565b6000609b60008373ffffffffffffffffffffffffffffffffffffffff1673ffffffffffffffffffffffffffffffffffffffff16815260200190815260200160002060009054906101000a900460ff169050919050565b611036612308565b609f6000838152602001908152602001600020604051806101200160405290816000820160009054906101000a900473ffffffffffffffffffffffffffffffffffffffff1673ffffffffffffffffffffffffffffffffffffffff1673ffffffffffffffffffffffffffffffffffffffff1681526020016001820160009054906101000a900473ffffffffffffffffffffffffffffffffffffffff1673ffffffffffffffffffffffffffffffffffffffff1673ffffffffffffffffffffffffffffffffffffffff1681526020016002820160009054906101000a900473ffffffffffffffffffffffffffffffffffffffff1673ffffffffffffffffffffffffffffffffffffffff1673ffffffffffffffffffffffffffffffffffffffff168152602001600382015481526020016004820160009054906101000a90046bffffffffffffffffffffffff166bffffffffffffffffffffffff166bffffffffffffffffffffffff16815260200160048201600c9054906101000a900460ff161515151581526020016005820160009054906101000a900473ffffffffffffffffffffffffffffffffffffffff1673ffffffffffffffffffffffffffffffffffffffff1673ffffffffffffffffffffffffffffffffffffffff1681526020016005820160149054906101000a90046bffffffffffffffffffffffff166bffffffffffffffffffffffff166bffffffffffffffffffffffff1681526020016006820154815250509050919050565b611267611e5a565b600073ffffffffffffffffffffffffffffffffffffffff168173ffffffffffffffffffffffffffffffffffffffff16036112d6576040517f08c379a00000000000000000000000000000000000000000000000000000000081526004016112cd9061351a565b60405180910390fd5b7f6665650000000000000000000000000000000000000000000000000000000000820361133f5780606660086101000a81548173ffffffffffffffffffffffffffffffffffffffff021916908373ffffffffffffffffffffffffffffffffffffffff1602179055505b7f61676772656761746f720000000000000000000000000000000000000000000082036113a85780606760006101000a81548173ffffffffffffffffffffffffffffffffffffffff021916908373ffffffffffffffffffffffffffffffffffffffff1602179055505b5050565b6113b4611e5a565b80606660006101000a81548167ffffffffffffffff021916908367ffffffffffffffff1602179055507fc8ca786c100bc62a0dffbe768b5f0b770d84e8604c5de54b54197b9066bb42a98160405161140c919061353a565b60405180910390a150565b61141f6123ca565b609e6000838152602001908152602001600020604051806040016040529081600082015481526020016001820154815250509050919050565b6000603360009054906101000a900473ffffffffffffffffffffffffffffffffffffffff16905090565b61148a611e5a565b600073ffffffffffffffffffffffffffffffffffffffff168273ffffffffffffffffffffffffffffffffffffffff16036114f9576040517f08c379a00000000000000000000000000000000000000000000000000000000081526004016114f09061351a565b60405180910390fd5b7f746f6b656e00000000000000000000000000000000000000000000000000000083036115785780609b60008473ffffffffffffffffffffffffffffffffffffffff1673ffffffffffffffffffffffffffffffffffffffff16815260200190815260200160002060006101000a81548160ff0219169083151502179055505b7f77686974656c697374000000000000000000000000000000000000000000000083036115f75780609c60008473ffffffffffffffffffffffffffffffffffffffff1673ffffffffffffffffffffffffffffffffffffffff16815260200190815260200160002060006101000a81548160ff0219169083151502179055505b7fe22cadcc5ddbc0a185e8920eaa6825bcc06dcd6b432988e7e9912caa59ace93083838360405161162a93929190613555565b60405180910390a1505050565b600080606660009054906101000a900467ffffffffffffffff16606554915091509091565b60008060019054906101000a900460ff1615905080801561168d5750600160008054906101000a900460ff1660ff16105b806116ba575061169c30612203565b1580156116b95750600160008054906101000a900460ff1660ff16145b5b6116f9576040517f08c379a00000000000000000000000000000000000000000000000000000000081526004016116f0906135fe565b60405180910390fd5b60016000806101000a81548160ff021916908360ff1602179055508015611736576001600060016101000a81548160ff0219169083151502179055505b6001609b60008473ffffffffffffffffffffffffffffffffffffffff1673ffffffffffffffffffffffffffffffffffffffff16815260200190815260200160002060006101000a81548160ff021916908315150217905550620186a0606581905550611388606660006101000a81548167ffffffffffffffff021916908367ffffffffffffffff1602179055506117cb612226565b80156118245760008060016101000a81548160ff0219169083151502179055507f7f26b83ff96e1f2b6a682f133852f6798a09c465da95921460cefb3847402498600160405161181b9190613666565b60405180910390a15b5050565b611830611e5a565b81816068918261184192919061382e565b507f6a6600b7242975868d8321b5e64d0c9f2fcc92eb1af72254a6357be77ee7dcef828260405161187392919061392b565b60405180910390a15050565b6000609c60008373ffffffffffffffffffffffffffffffffffffffff1673ffffffffffffffffffffffffffffffffffffffff16815260200190815260200160002060009054906101000a900460ff169050919050565b6118dd611e5a565b8273ffffffffffffffffffffffffffffffffffffffff1663a9059cbb83836040518363ffffffff1660e01b8152600401611918929190613200565b6020604051808303816000875af1158015611937573d6000803e3d6000fd5b505050506040513d601f19601f8201168201806040525081019061195b919061318b565b50505050565b6000606760009054906101000a900473ffffffffffffffffffffffffffffffffffffffff1673ffffffffffffffffffffffffffffffffffffffff163373ffffffffffffffffffffffffffffffffffffffff16146119f3576040517f08c379a00000000000000000000000000000000000000000000000000000000081526004016119ea9061339a565b60405180910390fd5b609f6000848152602001908152602001600020600401600c9054906101000a900460ff1615611a57576040517f08c379a0000000000000000000000000000000000000000000000000000000008152600401611a4e90613406565b60405180910390fd5b6001609f6000858152602001908152602001600020600401600c6101000a81548160ff0219169083151502179055506000609f600085815260200190815260200160002060050160146101000a8154816bffffffffffffffffffffffff02191690836bffffffffffffffffffffffff160217905550609f600084815260200190815260200160002060010160009054906101000a900473ffffffffffffffffffffffffffffffffffffffff1673ffffffffffffffffffffffffffffffffffffffff1663a9059cbb609f600086815260200190815260200160002060050160009054906101000a900473ffffffffffffffffffffffffffffffffffffffff16609f6000878152602001908152602001600020600601546040518363ffffffff1660e01b8152600401611b89929190613200565b6020604051808303816000875af1158015611ba8573d6000803e3d6000fd5b505050506040513d601f19601f82011682018060405250810190611bcc919061318b565b50827e7c875846b687732a7579c19bb1dade66cd14e9f4f809565e2b2b5e76c72b4f83604051611bfc91906127c1565b60405180910390a26001905092915050565b6000606760009054906101000a900473ffffffffffffffffffffffffffffffffffffffff16905090565b611c40611e5a565b600073ffffffffffffffffffffffffffffffffffffffff168173ffffffffffffffffffffffffffffffffffffffff1603611caf576040517f08c379a0000000000000000000000000000000000000000000000000000000008152600401611ca6906139c1565b60405180910390fd5b611cb88161213d565b50565b609b60008573ffffffffffffffffffffffffffffffffffffffff1673ffffffffffffffffffffffffffffffffffffffff16815260200190815260200160002060009054906101000a900460ff16611d47576040517f08c379a0000000000000000000000000000000000000000000000000000000008152600401611d3e90613a2d565b60405180910390fd5b60008311611d8a576040517f08c379a0000000000000000000000000000000000000000000000000000000008152600401611d8190613a99565b60405180910390fd5b600073ffffffffffffffffffffffffffffffffffffffff168273ffffffffffffffffffffffffffffffffffffffff1603611df9576040517f08c379a0000000000000000000000000000000000000000000000000000000008152600401611df090613b05565b60405180910390fd5b6000801b609e60008381526020019081526020016000206000015403611e54576040517f08c379a0000000000000000000000000000000000000000000000000000000008152600401611e4b90613b71565b60405180910390fd5b50505050565b611e6261227f565b73ffffffffffffffffffffffffffffffffffffffff16611e80611458565b73ffffffffffffffffffffffffffffffffffffffff1614611ed6576040517f08c379a0000000000000000000000000000000000000000000000000000000008152600401611ecd90613bdd565b60405180910390fd5b565b611ee06123ea565b6000609f6000868152602001908152602001600020600601549050609f60008681526020019081526020016000206003015481611f1d9190613bfd565b9050606554846bffffffffffffffffffffffff1682611f3c9190613020565b611f469190613091565b826020018181525050606554606660009054906101000a900467ffffffffffffffff1667ffffffffffffffff168360200151611f829190613020565b611f8c9190613091565b82600001818152505081600001518260200151611fa99190613bfd565b8260200181815250508215611fe157816000015182602001818151611fce9190613c31565b9150818152505060008260000181815250505b509392505050565b6000609f600083815260200190815260200160002060020160009054906101000a900473ffffffffffffffffffffffffffffffffffffffff1690506000609f6000848152602001908152602001600020600301549050609f600084815260200190815260200160002060010160009054906101000a900473ffffffffffffffffffffffffffffffffffffffff1673ffffffffffffffffffffffffffffffffffffffff1663a9059cbb83836040518363ffffffff1660e01b81526004016120b0929190613200565b6020604051808303816000875af11580156120cf573d6000803e3d6000fd5b505050506040513d601f19601f820116820180604052508101906120f3919061318b565b50808273ffffffffffffffffffffffffffffffffffffffff167f96c76d5aec8a8c11a9c8e02768e3fa309347330d08961e0cf9fd43b349b684c260405160405180910390a3505050565b6000603360009054906101000a900473ffffffffffffffffffffffffffffffffffffffff16905081603360006101000a81548173ffffffffffffffffffffffffffffffffffffffff021916908373ffffffffffffffffffffffffffffffffffffffff1602179055508173ffffffffffffffffffffffffffffffffffffffff168173ffffffffffffffffffffffffffffffffffffffff167f8be0079c531659141344cd1fd0a4f28419497f9722a3daafe3b4186f6b6457e060405160405180910390a35050565b6000808273ffffffffffffffffffffffffffffffffffffffff163b119050919050565b600060019054906101000a900460ff16612275576040517f08c379a000000000000000000000000000000000000000000000000000000000815260040161226c90613cd7565b60405180910390fd5b61227d612287565b565b600033905090565b600060019054906101000a900460ff166122d6576040517f08c379a00000000000000000000000000000000000000000000000000000000081526004016122cd90613cd7565b60405180910390fd5b6122e66122e161227f565b61213d565b565b604051806040016040528060008019168152602001600080191681525090565b604051806101200160405280600073ffffffffffffffffffffffffffffffffffffffff168152602001600073ffffffffffffffffffffffffffffffffffffffff168152602001600073ffffffffffffffffffffffffffffffffffffffff1681526020016000815260200160006bffffffffffffffffffffffff168152602001600015158152602001600073ffffffffffffffffffffffffffffffffffffffff16815260200160006bffffffffffffffffffffffff168152602001600081525090565b604051806040016040528060008019168152602001600080191681525090565b604051806040016040528060008152602001600081525090565b6000604051905090565b600080fd5b600080fd5b6000819050919050565b61242b81612418565b811461243657600080fd5b50565b60008135905061244881612422565b92915050565b6000602082840312156124645761246361240e565b5b600061247284828501612439565b91505092915050565b600081519050919050565b600082825260208201905092915050565b6000819050602082019050919050565b6124b081612418565b82525050565b6040820160008201516124cc60008501826124a7565b5060208201516124df60208501826124a7565b50505050565b60006124f183836124b6565b60408301905092915050565b6000602082019050919050565b60006125158261247b565b61251f8185612486565b935061252a83612497565b8060005b8381101561255b57815161254288826124e5565b975061254d836124fd565b92505060018101905061252e565b5085935050505092915050565b60006020820190508181036000830152612582818461250a565b905092915050565b600073ffffffffffffffffffffffffffffffffffffffff82169050919050565b60006125b58261258a565b9050919050565b6125c5816125aa565b81146125d057600080fd5b50565b6000813590506125e2816125bc565b92915050565b6000819050919050565b6125fb816125e8565b811461260657600080fd5b50565b600081359050612618816125f2565b92915050565b60006bffffffffffffffffffffffff82169050919050565b61263f8161261e565b811461264a57600080fd5b50565b60008135905061265c81612636565b92915050565b600080fd5b600080fd5b600080fd5b60008083601f84011261268757612686612662565b5b8235905067ffffffffffffffff8111156126a4576126a3612667565b5b6020830191508360018202830111156126c0576126bf61266c565b5b9250929050565b6000806000806000806000806000806101208b8d0312156126eb576126ea61240e565b5b60006126f98d828e016125d3565b9a5050602061270a8d828e01612609565b995050604061271b8d828e01612439565b985050606061272c8d828e01612439565b975050608061273d8d828e0161264d565b96505060a061274e8d828e016125d3565b95505060c061275f8d828e01612609565b94505060e06127708d828e016125d3565b9350506101008b013567ffffffffffffffff81111561279257612791612413565b5b61279e8d828e01612671565b92509250509295989b9194979a5092959850565b6127bb81612418565b82525050565b60006020820190506127d660008301846127b2565b92915050565b6000601f19601f8301169050919050565b7f4e487b7100000000000000000000000000000000000000000000000000000000600052604160045260246000fd5b612825826127dc565b810181811067ffffffffffffffff82111715612844576128436127ed565b5b80604052505050565b6000612857612404565b9050612863828261281c565b919050565b600067ffffffffffffffff821115612883576128826127ed565b5b602082029050602081019050919050565b600080fd5b6000604082840312156128af576128ae612894565b5b6128b9604061284d565b905060006128c984828501612439565b60008301525060206128dd84828501612439565b60208301525092915050565b60006128fc6128f784612868565b61284d565b9050808382526020820190506040840283018581111561291f5761291e61266c565b5b835b8181101561294857806129348882612899565b845260208401935050604081019050612921565b5050509392505050565b600082601f83011261296757612966612662565b5b81356129778482602086016128e9565b91505092915050565b600080604083850312156129975761299661240e565b5b60006129a585828601612439565b925050602083013567ffffffffffffffff8111156129c6576129c5612413565b5b6129d285828601612952565b9150509250929050565b600081519050919050565b600082825260208201905092915050565b60005b83811015612a165780820151818401526020810190506129fb565b60008484015250505050565b6000612a2d826129dc565b612a3781856129e7565b9350612a478185602086016129f8565b612a50816127dc565b840191505092915050565b60006020820190508181036000830152612a758184612a22565b905092915050565b600067ffffffffffffffff82169050919050565b612a9a81612a7d565b8114612aa557600080fd5b50565b600081359050612ab781612a91565b92915050565b60008115159050919050565b612ad281612abd565b8114612add57600080fd5b50565b600081359050612aef81612ac9565b92915050565b60008060008060008060c08789031215612b1257612b1161240e565b5b6000612b2089828a01612439565b9650506020612b3189828a01612439565b9550506040612b4289828a01612439565b9450506060612b5389828a016125d3565b9350506080612b6489828a01612aa8565b92505060a0612b7589828a01612ae0565b9150509295509295509295565b612b8b816125aa565b82525050565b6000604082019050612ba660008301856127b2565b612bb36020830184612b82565b9392505050565b600060208284031215612bd057612bcf61240e565b5b6000612bde848285016125d3565b91505092915050565b612bf081612abd565b82525050565b6000602082019050612c0b6000830184612be7565b92915050565b612c1a816125aa565b82525050565b612c29816125e8565b82525050565b612c388161261e565b82525050565b612c4781612abd565b82525050565b61012082016000820151612c646000850182612c11565b506020820151612c776020850182612c11565b506040820151612c8a6040850182612c11565b506060820151612c9d6060850182612c20565b506080820151612cb06080850182612c2f565b5060a0820151612cc360a0850182612c3e565b5060c0820151612cd660c0850182612c11565b5060e0820151612ce960e0850182612c2f565b50610100820151612cfe610100850182612c20565b50505050565b600061012082019050612d1a6000830184612c4d565b92915050565b60008060408385031215612d3757612d3661240e565b5b6000612d4585828601612439565b9250506020612d56858286016125d3565b9150509250929050565b600060208284031215612d7657612d7561240e565b5b6000612d8484828501612aa8565b91505092915050565b604082016000820151612da360008501826124a7565b506020820151612db660208501826124a7565b50505050565b6000604082019050612dd16000830184612d8d565b92915050565b6000602082019050612dec6000830184612b82565b92915050565b600080600060608486031215612e0b57612e0a61240e565b5b6000612e1986828701612439565b9350506020612e2a868287016125d3565b9250506040612e3b86828701612ae0565b9150509250925092565b612e4e81612a7d565b82525050565b612e5d816125e8565b82525050565b6000604082019050612e786000830185612e45565b612e856020830184612e54565b9392505050565b60008083601f840112612ea257612ea1612662565b5b8235905067ffffffffffffffff811115612ebf57612ebe612667565b5b602083019150836001820283011115612edb57612eda61266c565b5b9250929050565b60008060208385031215612ef957612ef861240e565b5b600083013567ffffffffffffffff811115612f1757612f16612413565b5b612f2385828601612e8c565b92509250509250929050565b600080600060608486031215612f4857612f4761240e565b5b6000612f56868287016125d3565b9350506020612f67868287016125d3565b9250506040612f7886828701612609565b9150509250925092565b60008060408385031215612f9957612f9861240e565b5b6000612fa785828601612439565b9250506020612fb885828601612439565b9150509250929050565b7f4e487b7100000000000000000000000000000000000000000000000000000000600052603260045260246000fd5b7f4e487b7100000000000000000000000000000000000000000000000000000000600052601160045260246000fd5b600061302b826125e8565b9150613036836125e8565b9250828202613044816125e8565b9150828204841483151761305b5761305a612ff1565b5b5092915050565b7f4e487b7100000000000000000000000000000000000000000000000000000000600052601260045260246000fd5b600061309c826125e8565b91506130a7836125e8565b9250826130b7576130b6613062565b5b828204905092915050565b600082825260208201905092915050565b7f53656e646572466565546f6f4869676800000000000000000000000000000000600082015250565b60006131096010836130c2565b9150613114826130d3565b602082019050919050565b60006020820190508181036000830152613138816130fc565b9050919050565b60006060820190506131546000830186612b82565b6131616020830185612b82565b61316e6040830184612e54565b949350505050565b60008151905061318581612ac9565b92915050565b6000602082840312156131a1576131a061240e565b5b60006131af84828501613176565b91505092915050565b60006131c3826125e8565b91507fffffffffffffffffffffffffffffffffffffffffffffffffffffffffffffffff82036131f5576131f4612ff1565b5b600182019050919050565b60006040820190506132156000830185612b82565b6132226020830184612e54565b9392505050565b6000819050919050565b600061324e6132496132448461261e565b613229565b6125e8565b9050919050565b61325e81613233565b82525050565b82818337600083830152505050565b600061327f83856130c2565b935061328c838584613264565b613295836127dc565b840190509392505050565b60006080820190506132b56000830188613255565b6132c260208301876127b2565b6132cf60408301866127b2565b81810360608301526132e2818486613273565b90509695505050505050565b7f4e487b7100000000000000000000000000000000000000000000000000000000600052602260045260246000fd5b6000600282049050600182168061333557607f821691505b602082108103613348576133476132ee565b5b50919050565b7f4f6e6c7941676772656761746f72000000000000000000000000000000000000600082015250565b6000613384600e836130c2565b915061338f8261334e565b602082019050919050565b600060208201905081810360008301526133b381613377565b9050919050565b7f4f7264657246756c66696c6c6564000000000000000000000000000000000000600082015250565b60006133f0600e836130c2565b91506133fb826133ba565b602082019050919050565b6000602082019050818103600083015261341f816133e3565b9050919050565b60006134318261261e565b915061343c8361261e565b925082820390506bffffffffffffffffffffffff8111156134605761345f612ff1565b5b92915050565b600061348161347c61347784612a7d565b613229565b61261e565b9050919050565b61349181613466565b82525050565b60006060820190506134ac60008301866127b2565b6134b960208301856127b2565b6134c66040830184613488565b949350505050565b7f50617963726573743a207a65726f206164647265737300000000000000000000600082015250565b60006135046016836130c2565b915061350f826134ce565b602082019050919050565b60006020820190508181036000830152613533816134f7565b9050919050565b600060208201905061354f6000830184612e45565b92915050565b600060608201905061356a60008301866127b2565b6135776020830185612b82565b6135846040830184612be7565b949350505050565b7f496e697469616c697a61626c653a20636f6e747261637420697320616c72656160008201527f647920696e697469616c697a6564000000000000000000000000000000000000602082015250565b60006135e8602e836130c2565b91506135f38261358c565b604082019050919050565b60006020820190508181036000830152613617816135db565b9050919050565b6000819050919050565b600060ff82169050919050565b600061365061364b6136468461361e565b613229565b613628565b9050919050565b61366081613635565b82525050565b600060208201905061367b6000830184613657565b92915050565b600082905092915050565b60008190508160005260206000209050919050565b60006020601f8301049050919050565b600082821b905092915050565b6000600883026136ee7fffffffffffffffffffffffffffffffffffffffffffffffffffffffffffffffff826136b1565b6136f886836136b1565b95508019841693508086168417925050509392505050565b600061372b613726613721846125e8565b613229565b6125e8565b9050919050565b6000819050919050565b61374583613710565b61375961375182613732565b8484546136be565b825550505050565b600090565b61376e613761565b61377981848461373c565b505050565b5b8181101561379d57613792600082613766565b60018101905061377f565b5050565b601f8211156137e2576137b38161368c565b6137bc846136a1565b810160208510156137cb578190505b6137df6137d7856136a1565b83018261377e565b50505b505050565b600082821c905092915050565b6000613805600019846008026137e7565b1980831691505092915050565b600061381e83836137f4565b9150826002028217905092915050565b6138388383613681565b67ffffffffffffffff811115613851576138506127ed565b5b61385b825461331d565b6138668282856137a1565b6000601f8311600181146138955760008415613883578287013590505b61388d8582613812565b8655506138f5565b601f1984166138a38661368c565b60005b828110156138cb578489013582556001820191506020850194506020810190506138a6565b868310156138e857848901356138e4601f8916826137f4565b8355505b6001600288020188555050505b50505050505050565b600061390a83856129e7565b9350613917838584613264565b613920836127dc565b840190509392505050565b600060208201905081810360008301526139468184866138fe565b90509392505050565b7f4f776e61626c653a206e6577206f776e657220697320746865207a65726f206160008201527f6464726573730000000000000000000000000000000000000000000000000000602082015250565b60006139ab6026836130c2565b91506139b68261394f565b604082019050919050565b600060208201905081810360008301526139da8161399e565b9050919050565b7f546f6b656e4e6f74537570706f72746564000000000000000000000000000000600082015250565b6000613a176011836130c2565b9150613a22826139e1565b602082019050919050565b60006020820190508181036000830152613a4681613a0a565b9050919050565b7f416d6f756e7449735a65726f0000000000000000000000000000000000000000600082015250565b6000613a83600c836130c2565b9150613a8e82613a4d565b602082019050919050565b60006020820190508181036000830152613ab281613a76565b9050919050565b7f5468726f775a65726f4164647265737300000000000000000000000000000000600082015250565b6000613aef6010836130c2565b9150613afa82613ab9565b602082019050919050565b60006020820190508181036000830152613b1e81613ae2565b9050919050565b7f496e76616c6964496e737469747574696f6e436f646500000000000000000000600082015250565b6000613b5b6016836130c2565b9150613b6682613b25565b602082019050919050565b60006020820190508181036000830152613b8a81613b4e565b9050919050565b7f4f776e61626c653a2063616c6c6572206973206e6f7420746865206f776e6572600082015250565b6000613bc76020836130c2565b9150613bd282613b91565b602082019050919050565b60006020820190508181036000830152613bf681613bba565b9050919050565b6000613c08826125e8565b9150613c13836125e8565b9250828203905081811115613c2b57613c2a612ff1565b5b92915050565b6000613c3c826125e8565b9150613c47836125e8565b9250828201905080821115613c5f57613c5e612ff1565b5b92915050565b7f496e697469616c697a61626c653a20636f6e7472616374206973206e6f74206960008201527f6e697469616c697a696e67000000000000000000000000000000000000000000602082015250565b6000613cc1602b836130c2565b9150613ccc82613c65565b604082019050919050565b60006020820190508181036000830152613cf081613cb4565b905091905056fea264697066735822122054e68dfe47b69560bbe4478790d2aa35c8755cee9cceae6c4528ab421fe09b8864736f6c63430008120033",
  "linkReferences": {},
  "deployedLinkReferences": {}
}