{
  "_format": "hh-sol-artifact-1",
  "contractName": "Paycrest",
  "sourceName": "contracts/Paycrest.sol",
  "abi": [
    {
      "inputs": [],
      "stateMutability": "nonpayable",
      "type": "constructor"
    },
    {
      "inputs": [],
      "name": "AmountIsZero",
      "type": "error"
    },
    {
      "inputs": [],
      "name": "InvalidInstitutionCode",
      "type": "error"
    },
    {
      "inputs": [
        {
          "internalType": "bytes32",
          "name": "what",
          "type": "bytes32"
        }
      ],
      "name": "InvalidParameter",
      "type": "error"
    },
    {
      "inputs": [],
      "name": "InvalidSigner",
      "type": "error"
    },
    {
      "inputs": [],
      "name": "NotWhitelisted",
      "type": "error"
    },
    {
      "inputs": [],
      "name": "OnlyAggregator",
      "type": "error"
    },
    {
      "inputs": [],
      "name": "OrderFulfilled",
      "type": "error"
    },
    {
      "inputs": [],
      "name": "ThrowZeroAddress",
      "type": "error"
    },
    {
      "inputs": [],
      "name": "ThrowZeroValue",
      "type": "error"
    },
    {
      "inputs": [],
      "name": "TokenNotSupported",
      "type": "error"
    },
    {
      "inputs": [],
      "name": "UnableToProcessRewards",
      "type": "error"
    },
    {
      "inputs": [],
      "name": "Unsuported",
      "type": "error"
    },
    {
      "anonymous": false,
      "inputs": [
        {
          "indexed": true,
          "internalType": "address",
          "name": "token",
          "type": "address"
        },
        {
          "indexed": true,
          "internalType": "uint256",
          "name": "amount",
          "type": "uint256"
        },
        {
          "indexed": true,
          "internalType": "bytes32",
          "name": "orderId",
          "type": "bytes32"
        },
        {
          "indexed": false,
          "internalType": "uint256",
          "name": "rate",
          "type": "uint256"
        },
        {
          "indexed": false,
          "internalType": "bytes32",
          "name": "institutionCode",
          "type": "bytes32"
        },
        {
          "indexed": false,
          "internalType": "string",
          "name": "messageHash",
          "type": "string"
        }
      ],
      "name": "Deposit",
      "type": "event"
    },
    {
      "anonymous": false,
      "inputs": [
        {
          "indexed": false,
          "internalType": "uint8",
          "name": "version",
          "type": "uint8"
        }
      ],
      "name": "Initialized",
      "type": "event"
    },
    {
      "anonymous": false,
      "inputs": [
        {
          "indexed": true,
          "internalType": "address",
          "name": "previousOwner",
          "type": "address"
        },
        {
          "indexed": true,
          "internalType": "address",
          "name": "newOwner",
          "type": "address"
        }
      ],
      "name": "OwnershipTransferred",
      "type": "event"
    },
    {
      "anonymous": false,
      "inputs": [
        {
          "indexed": false,
          "internalType": "uint128",
          "name": "protocolFee",
          "type": "uint128"
        },
        {
          "indexed": false,
          "internalType": "uint128",
          "name": "validatorFeePercent",
          "type": "uint128"
        }
      ],
      "name": "PaycrestFees",
      "type": "event"
    },
    {
      "anonymous": false,
      "inputs": [
        {
          "indexed": true,
          "internalType": "bytes32",
          "name": "orderId",
          "type": "bytes32"
        }
      ],
      "name": "Refunded",
      "type": "event"
    },
    {
      "anonymous": false,
      "inputs": [
        {
          "indexed": false,
          "internalType": "bytes32",
          "name": "what",
          "type": "bytes32"
        },
        {
          "indexed": false,
          "internalType": "address",
          "name": "value",
          "type": "address"
        },
        {
          "indexed": false,
          "internalType": "bool",
          "name": "status",
          "type": "bool"
        }
      ],
      "name": "SettingManagerBool",
      "type": "event"
    },
    {
      "anonymous": false,
      "inputs": [
        {
          "indexed": false,
          "internalType": "bytes32",
          "name": "what",
          "type": "bytes32"
        },
        {
          "indexed": false,
          "internalType": "bytes8",
          "name": "value",
          "type": "bytes8"
        },
        {
          "indexed": false,
          "internalType": "bytes8",
          "name": "status",
          "type": "bytes8"
        }
      ],
      "name": "SettingManagerForInstitution",
      "type": "event"
    },
    {
      "anonymous": false,
      "inputs": [
        {
          "indexed": false,
          "internalType": "bytes32",
          "name": "_splitOrderId",
          "type": "bytes32"
        },
        {
          "indexed": true,
          "internalType": "bytes32",
          "name": "orderId",
          "type": "bytes32"
        },
        {
          "indexed": true,
          "internalType": "address",
          "name": "liquidityProvider",
          "type": "address"
        },
        {
          "indexed": false,
          "internalType": "uint96",
          "name": "settlePercent",
          "type": "uint96"
        }
      ],
      "name": "Settled",
      "type": "event"
    },
    {
      "anonymous": false,
      "inputs": [
        {
          "indexed": true,
          "internalType": "address",
          "name": "sender",
          "type": "address"
        },
        {
          "indexed": true,
          "internalType": "uint256",
          "name": "amount",
          "type": "uint256"
        }
      ],
      "name": "TransferSenderFee",
      "type": "event"
    },
    {
      "inputs": [
        {
          "internalType": "address",
          "name": "_token",
          "type": "address"
        },
        {
          "internalType": "uint256",
          "name": "_amount",
          "type": "uint256"
        },
        {
          "internalType": "bytes32",
          "name": "_institutionCode",
          "type": "bytes32"
        },
        {
          "internalType": "uint96",
          "name": "_rate",
          "type": "uint96"
        },
        {
          "internalType": "address",
          "name": "_senderFeeRecipient",
          "type": "address"
        },
        {
          "internalType": "uint256",
          "name": "_senderFee",
          "type": "uint256"
        },
        {
          "internalType": "address",
          "name": "_refundAddress",
          "type": "address"
        },
        {
          "internalType": "string",
          "name": "messageHash",
          "type": "string"
        }
      ],
      "name": "createOrder",
      "outputs": [
        {
          "internalType": "bytes32",
          "name": "orderId",
          "type": "bytes32"
        }
      ],
      "stateMutability": "nonpayable",
      "type": "function"
    },
    {
      "inputs": [],
      "name": "getFeeDetails",
      "outputs": [
        {
          "internalType": "uint128",
          "name": "",
          "type": "uint128"
        },
        {
          "internalType": "uint128",
          "name": "",
          "type": "uint128"
        },
        {
          "internalType": "uint256",
          "name": "",
          "type": "uint256"
        }
      ],
      "stateMutability": "view",
      "type": "function"
    },
    {
      "inputs": [],
      "name": "getLiquidityAggregator",
      "outputs": [
        {
          "internalType": "address",
          "name": "",
          "type": "address"
        }
      ],
      "stateMutability": "view",
      "type": "function"
    },
    {
      "inputs": [
        {
          "internalType": "bytes32",
          "name": "_orderId",
          "type": "bytes32"
        }
      ],
      "name": "getOrderInfo",
      "outputs": [
        {
          "components": [
            {
              "internalType": "address",
              "name": "seller",
              "type": "address"
            },
            {
              "internalType": "address",
              "name": "token",
              "type": "address"
            },
            {
              "internalType": "address",
              "name": "senderFeeRecipient",
              "type": "address"
            },
            {
              "internalType": "uint256",
              "name": "senderFee",
              "type": "uint256"
            },
            {
              "internalType": "uint96",
              "name": "rate",
              "type": "uint96"
            },
            {
              "internalType": "bool",
              "name": "isFulfilled",
              "type": "bool"
            },
            {
              "internalType": "address",
              "name": "refundAddress",
              "type": "address"
            },
            {
              "internalType": "uint96",
              "name": "currentBPS",
              "type": "uint96"
            },
            {
              "internalType": "uint256",
              "name": "amount",
              "type": "uint256"
            }
          ],
          "internalType": "struct IPaycrest.Order",
          "name": "",
          "type": "tuple"
        }
      ],
      "stateMutability": "view",
      "type": "function"
    },
    {
      "inputs": [
        {
          "internalType": "bytes32",
          "name": "code",
          "type": "bytes32"
        }
      ],
      "name": "getSupportedInstitutionName",
      "outputs": [
        {
          "components": [
            {
              "internalType": "bytes32",
              "name": "name",
              "type": "bytes32"
            },
            {
              "internalType": "bytes32",
              "name": "currency",
              "type": "bytes32"
            }
          ],
          "internalType": "struct PaycrestSettingManager.InstitutionByCode",
          "name": "",
          "type": "tuple"
        }
      ],
      "stateMutability": "view",
      "type": "function"
    },
    {
      "inputs": [
        {
          "internalType": "bytes32",
          "name": "currency",
          "type": "bytes32"
        }
      ],
      "name": "getSupportedInstitutions",
      "outputs": [
        {
          "components": [
            {
              "internalType": "bytes32",
              "name": "code",
              "type": "bytes32"
            },
            {
              "internalType": "bytes32",
              "name": "name",
              "type": "bytes32"
            }
          ],
          "internalType": "struct PaycrestSettingManager.Institution[]",
          "name": "",
          "type": "tuple[]"
        }
      ],
      "stateMutability": "view",
      "type": "function"
    },
    {
      "inputs": [
        {
          "internalType": "address",
          "name": "sender",
          "type": "address"
        }
      ],
      "name": "getWhitelistedStatus",
      "outputs": [
        {
          "internalType": "bool",
          "name": "",
          "type": "bool"
        }
      ],
      "stateMutability": "view",
      "type": "function"
    },
    {
      "inputs": [
        {
          "internalType": "address",
          "name": "_usdc",
          "type": "address"
        }
      ],
      "name": "initialize",
      "outputs": [],
      "stateMutability": "nonpayable",
      "type": "function"
    },
    {
      "inputs": [
        {
          "internalType": "address",
          "name": "_token",
          "type": "address"
        }
      ],
      "name": "isTokenSupported",
      "outputs": [
        {
          "internalType": "bool",
          "name": "",
          "type": "bool"
        }
      ],
      "stateMutability": "view",
      "type": "function"
    },
    {
      "inputs": [],
      "name": "owner",
      "outputs": [
        {
          "internalType": "address",
          "name": "",
          "type": "address"
        }
      ],
      "stateMutability": "view",
      "type": "function"
    },
    {
      "inputs": [
        {
          "internalType": "bytes32",
          "name": "_orderId",
          "type": "bytes32"
        }
      ],
      "name": "refund",
      "outputs": [
        {
          "internalType": "bool",
          "name": "",
          "type": "bool"
        }
      ],
      "stateMutability": "nonpayable",
      "type": "function"
    },
    {
      "inputs": [],
      "name": "renounceOwnership",
      "outputs": [],
      "stateMutability": "nonpayable",
      "type": "function"
    },
    {
      "inputs": [
        {
          "internalType": "bytes32",
          "name": "currency",
          "type": "bytes32"
        },
        {
          "components": [
            {
              "internalType": "bytes32",
              "name": "code",
              "type": "bytes32"
            },
            {
              "internalType": "bytes32",
              "name": "name",
              "type": "bytes32"
            }
          ],
          "internalType": "struct PaycrestSettingManager.Institution[]",
          "name": "institutions",
          "type": "tuple[]"
        }
      ],
      "name": "setSupportedInstitutions",
      "outputs": [],
      "stateMutability": "nonpayable",
      "type": "function"
    },
    {
      "inputs": [
        {
          "internalType": "bytes32",
          "name": "what",
          "type": "bytes32"
        },
        {
          "internalType": "address",
          "name": "value",
          "type": "address"
        },
        {
          "internalType": "bool",
          "name": "status",
          "type": "bool"
        }
      ],
      "name": "settingManagerBool",
      "outputs": [],
      "stateMutability": "nonpayable",
      "type": "function"
    },
    {
      "inputs": [
        {
          "internalType": "bytes32",
          "name": "_splitOrderId",
          "type": "bytes32"
        },
        {
          "internalType": "bytes32",
          "name": "_orderId",
          "type": "bytes32"
        },
        {
          "internalType": "address[]",
          "name": "_validators",
          "type": "address[]"
        },
        {
          "internalType": "address",
          "name": "_liquidityProvider",
          "type": "address"
        },
        {
          "internalType": "uint96",
          "name": "_settlePercent",
          "type": "uint96"
        }
      ],
      "name": "settle",
      "outputs": [
        {
          "internalType": "bool",
          "name": "",
          "type": "bool"
        }
      ],
      "stateMutability": "nonpayable",
      "type": "function"
    },
    {
      "inputs": [
        {
          "internalType": "address",
          "name": "newOwner",
          "type": "address"
        }
      ],
      "name": "transferOwnership",
      "outputs": [],
      "stateMutability": "nonpayable",
      "type": "function"
    },
    {
      "inputs": [
        {
          "internalType": "bytes32",
          "name": "what",
          "type": "bytes32"
        },
        {
          "internalType": "address",
          "name": "value",
          "type": "address"
        }
      ],
      "name": "updateProtocolAddresses",
      "outputs": [],
      "stateMutability": "nonpayable",
      "type": "function"
    },
    {
      "inputs": [
        {
          "internalType": "uint128",
          "name": "_protocolFeePercent",
          "type": "uint128"
        },
        {
          "internalType": "uint128",
          "name": "_validatorFeePercent",
          "type": "uint128"
        }
      ],
      "name": "updateProtocolFees",
      "outputs": [],
      "stateMutability": "nonpayable",
      "type": "function"
    },
    {
      "inputs": [
        {
          "internalType": "address",
          "name": "_token",
          "type": "address"
        },
        {
          "internalType": "address",
          "name": "_recipient",
          "type": "address"
        },
        {
          "internalType": "uint256",
          "name": "_amount",
          "type": "uint256"
        }
      ],
      "name": "withdraw",
      "outputs": [],
      "stateMutability": "nonpayable",
      "type": "function"
    }
  ],
  "bytecode": "0x60806040523480156200001157600080fd5b50620000226200002860201b60201c565b620001d2565b600060019054906101000a900460ff16156200007b576040517f08c379a0000000000000000000000000000000000000000000000000000000008152600401620000729062000175565b60405180910390fd5b60ff801660008054906101000a900460ff1660ff1614620000ec5760ff6000806101000a81548160ff021916908360ff1602179055507f7f26b83ff96e1f2b6a682f133852f6798a09c465da95921460cefb384740249860ff604051620000e39190620001b5565b60405180910390a15b565b600082825260208201905092915050565b7f496e697469616c697a61626c653a20636f6e747261637420697320696e69746960008201527f616c697a696e6700000000000000000000000000000000000000000000000000602082015250565b60006200015d602783620000ee565b91506200016a82620000ff565b604082019050919050565b6000602082019050818103600083015262000190816200014e565b9050919050565b600060ff82169050919050565b620001af8162000197565b82525050565b6000602082019050620001cc6000830184620001a4565b92915050565b613a2180620001e26000396000f3fe608060405234801561001057600080fd5b50600436106101215760003560e01c80638da5cb5b116100ad578063d12ff20a11610071578063d12ff20a1461031c578063d8e8de341461034c578063d9caed121461037c578063f2fde38b14610398578063f5326b19146103b457610121565b80638da5cb5b1461027657806399e3c0b414610294578063b810c636146102b0578063bee1ddd0146102d0578063c4d66de81461030057610121565b80637249fbb6116100f45780637249fbb61461019a57806375151b63146101ca578063768c6ec0146101fa57806379a0effb1461022a57806387490d861461024657610121565b806302621338146101265780632ebc5356146101565780633220088214610174578063715018a614610190575b600080fd5b610140600480360381019061013b9190612600565b6103d0565b60405161014d919061271a565b60405180910390f35b61015e61050e565b60405161016b919061277d565b60405180910390f35b61018e60048036038101906101899190612946565b610538565b005b61019861064c565b005b6101b460048036038101906101af9190612600565b610660565b6040516101c191906129bd565b60405180910390f35b6101e460048036038101906101df9190612a04565b6108f9565b6040516101f191906129bd565b60405180910390f35b610214600480360381019061020f9190612600565b61094f565b6040516102219190612b46565b60405180910390f35b610244600480360381019061023f9190612b62565b610b80565b005b610260600480360381019061025b9190612600565b610d32565b60405161026d9190612bd1565b60405180910390f35b61027e610d73565b60405161028b919061277d565b60405180910390f35b6102ae60048036038101906102a99190612c18565b610d9d565b005b6102b8610f8a565b6040516102c793929190612ca5565b60405180910390f35b6102ea60048036038101906102e59190612d63565b610fdb565b6040516102f791906129bd565b60405180910390f35b61031a60048036038101906103159190612a04565b611530565b005b61033660048036038101906103319190612e6d565b611747565b6040516103439190612f52565b60405180910390f35b61036660048036038101906103619190612a04565b611b87565b60405161037391906129bd565b60405180910390f35b61039660048036038101906103919190612f6d565b611bdd565b005b6103b260048036038101906103ad9190612a04565b611c69565b005b6103ce60048036038101906103c99190612fec565b611cec565b005b60606000606c6000848152602001908152602001600020805480602002602001604051908101604052809291908181526020016000905b8282101561044d57838290600052602060002090600202016040518060400160405290816000820154815260200160018201548152505081526020019060010190610407565b50505050905060008151905060008167ffffffffffffffff811115610475576104746127ae565b5b6040519080825280602002602001820160405280156104ae57816020015b61049b612493565b8152602001906001900390816104935790505b50905060005b82811015610502578381815181106104cf576104ce61302c565b5b60200260200101518282815181106104ea576104e961302c565b5b602002602001018190525080806001019150506104b4565b50809350505050919050565b6000606960009054906101000a900473ffffffffffffffffffffffffffffffffffffffff16905090565b610540611da3565b60008151905060005b8181101561064657606c60008581526020019081526020016000208382815181106105775761057661302c565b5b602002602001015190806001815401808255809150506001900390600052602060002090600202016000909190919091506000820151816000015560208201518160010155505060405180604001604052808483815181106105dc576105db61302c565b5b602002602001015160200151815260200185815250606d60008584815181106106085761060761302c565b5b602002602001015160000151815260200190815260200160002060008201518160000155602082015181600101559050508080600101915050610549565b50505050565b610654611da3565b61065e6000611e21565b565b6000606960009054906101000a900473ffffffffffffffffffffffffffffffffffffffff1673ffffffffffffffffffffffffffffffffffffffff163373ffffffffffffffffffffffffffffffffffffffff16146106e9576040517fe9d8299200000000000000000000000000000000000000000000000000000000815260040160405180910390fd5b606e6000838152602001908152602001600020600401600c9054906101000a900460ff161561074d576040517f08c379a0000000000000000000000000000000000000000000000000000000008152600401610744906130b8565b60405180910390fd5b6001606e6000848152602001908152602001600020600401600c6101000a81548160ff0219169083151502179055506000606e600084815260200190815260200160002060050160146101000a8154816bffffffffffffffffffffffff02191690836bffffffffffffffffffffffff160217905550606e600083815260200190815260200160002060010160009054906101000a900473ffffffffffffffffffffffffffffffffffffffff1673ffffffffffffffffffffffffffffffffffffffff1663a9059cbb606e600085815260200190815260200160002060050160009054906101000a900473ffffffffffffffffffffffffffffffffffffffff16606e6000868152602001908152602001600020600601546040518363ffffffff1660e01b815260040161087f9291906130d8565b6020604051808303816000875af115801561089e573d6000803e3d6000fd5b505050506040513d601f19601f820116820180604052508101906108c29190613116565b50817ffe509803c09416b28ff3d8f690c8b0c61462a892c46d5430c8fb20abe472daf060405160405180910390a260019050919050565b6000606a60008373ffffffffffffffffffffffffffffffffffffffff1673ffffffffffffffffffffffffffffffffffffffff16815260200190815260200160002060009054906101000a900460ff169050919050565b6109576124b3565b606e6000838152602001908152602001600020604051806101200160405290816000820160009054906101000a900473ffffffffffffffffffffffffffffffffffffffff1673ffffffffffffffffffffffffffffffffffffffff1673ffffffffffffffffffffffffffffffffffffffff1681526020016001820160009054906101000a900473ffffffffffffffffffffffffffffffffffffffff1673ffffffffffffffffffffffffffffffffffffffff1673ffffffffffffffffffffffffffffffffffffffff1681526020016002820160009054906101000a900473ffffffffffffffffffffffffffffffffffffffff1673ffffffffffffffffffffffffffffffffffffffff1673ffffffffffffffffffffffffffffffffffffffff168152602001600382015481526020016004820160009054906101000a90046bffffffffffffffffffffffff166bffffffffffffffffffffffff166bffffffffffffffffffffffff16815260200160048201600c9054906101000a900460ff161515151581526020016005820160009054906101000a900473ffffffffffffffffffffffffffffffffffffffff1673ffffffffffffffffffffffffffffffffffffffff1673ffffffffffffffffffffffffffffffffffffffff1681526020016005820160149054906101000a90046bffffffffffffffffffffffff166bffffffffffffffffffffffff166bffffffffffffffffffffffff1681526020016006820154815250509050919050565b610b88611da3565b600073ffffffffffffffffffffffffffffffffffffffff168173ffffffffffffffffffffffffffffffffffffffff1603610bee576040517f9c8e2b5d00000000000000000000000000000000000000000000000000000000815260040160405180910390fd5b7f66656500000000000000000000000000000000000000000000000000000000008203610c575780606760006101000a81548173ffffffffffffffffffffffffffffffffffffffff021916908373ffffffffffffffffffffffffffffffffffffffff1602179055505b7f61676772656761746f72000000000000000000000000000000000000000000008203610cc45780606960006101000a81548173ffffffffffffffffffffffffffffffffffffffff021916908373ffffffffffffffffffffffffffffffffffffffff160217905550610d2e565b7f7374616b650000000000000000000000000000000000000000000000000000008203610d2d5780606860006101000a81548173ffffffffffffffffffffffffffffffffffffffff021916908373ffffffffffffffffffffffffffffffffffffffff1602179055505b5b5050565b610d3a612575565b606d6000838152602001908152602001600020604051806040016040529081600082015481526020016001820154815250509050919050565b6000603360009054906101000a900473ffffffffffffffffffffffffffffffffffffffff16905090565b610da5611da3565b600073ffffffffffffffffffffffffffffffffffffffff168273ffffffffffffffffffffffffffffffffffffffff1603610e0b576040517f9c8e2b5d00000000000000000000000000000000000000000000000000000000815260040160405180910390fd5b7f746f6b656e0000000000000000000000000000000000000000000000000000008303610e8a5780606a60008473ffffffffffffffffffffffffffffffffffffffff1673ffffffffffffffffffffffffffffffffffffffff16815260200190815260200160002060006101000a81548160ff0219169083151502179055505b7f77686974656c69737400000000000000000000000000000000000000000000008303610f0d5780606b60008473ffffffffffffffffffffffffffffffffffffffff1673ffffffffffffffffffffffffffffffffffffffff16815260200190815260200160002060006101000a81548160ff021916908315150217905550610f4a565b826040517f48bae5b8000000000000000000000000000000000000000000000000000000008152600401610f419190612f52565b60405180910390fd5b7fe22cadcc5ddbc0a185e8920eaa6825bcc06dcd6b432988e7e9912caa59ace930838383604051610f7d93929190613143565b60405180910390a1505050565b6000806000606660009054906101000a90046fffffffffffffffffffffffffffffffff16606660109054906101000a90046fffffffffffffffffffffffffffffffff16606554925092509250909192565b6000606960009054906101000a900473ffffffffffffffffffffffffffffffffffffffff1673ffffffffffffffffffffffffffffffffffffffff163373ffffffffffffffffffffffffffffffffffffffff1614611064576040517fe9d8299200000000000000000000000000000000000000000000000000000000815260040160405180910390fd5b606e6000878152602001908152602001600020600401600c9054906101000a900460ff16156110bf576040517f56f1733f00000000000000000000000000000000000000000000000000000000815260040160405180910390fd5b6000606e600088815260200190815260200160002060010160009054906101000a900473ffffffffffffffffffffffffffffffffffffffff16905082606e600089815260200190815260200160002060050160148282829054906101000a90046bffffffffffffffffffffffff1661113791906131a9565b92506101000a8154816bffffffffffffffffffffffff02191690836bffffffffffffffffffffffff1602179055506000606e600089815260200190815260200160002060050160149054906101000a90046bffffffffffffffffffffffff166bffffffffffffffffffffffff16036111d9576001606e6000898152602001908152602001600020600401600c6101000a81548160ff0219169083151502179055505b60006111e58885611ee7565b90506000606e60008a81526020019081526020016000206003015490506000811115611215576112148961204b565b5b8273ffffffffffffffffffffffffffffffffffffffff1663a9059cbb606760009054906101000a900473ffffffffffffffffffffffffffffffffffffffff1684600001516040518363ffffffff1660e01b81526004016112769291906130d8565b6020604051808303816000875af1158015611295573d6000803e3d6000fd5b505050506040513d601f19601f820116820180604052508101906112b99190613116565b508273ffffffffffffffffffffffffffffffffffffffff1663a9059cbb8784602001516040518363ffffffff1660e01b81526004016112f99291906130d8565b6020604051808303816000875af1158015611318573d6000803e3d6000fd5b505050506040513d601f19601f8201168201806040525081019061133c9190613116565b508273ffffffffffffffffffffffffffffffffffffffff1663a9059cbb606860009054906101000a900473ffffffffffffffffffffffffffffffffffffffff1684604001516040518363ffffffff1660e01b815260040161139e9291906130d8565b6020604051808303816000875af11580156113bd573d6000803e3d6000fd5b505050506040513d601f19601f820116820180604052508101906113e19190613116565b506000606860009054906101000a900473ffffffffffffffffffffffffffffffffffffffff1673ffffffffffffffffffffffffffffffffffffffff1663d0e02d3a8b868c8c88604001516040518663ffffffff1660e01b815260040161144b95949392919061329d565b6020604051808303816000875af115801561146a573d6000803e3d6000fd5b505050506040513d601f19601f8201168201806040525081019061148e9190613116565b9050806114d0576040517f08c379a00000000000000000000000000000000000000000000000000000000081526004016114c790613337565b60405180910390fd5b8673ffffffffffffffffffffffffffffffffffffffff168a7fce38752ac5ed47dd3cff11297a4261a0c644be6ca65dc3fc7ae1c3a97c209e33886040516115179190613366565b60405180910390a3600194505050505095945050505050565b60008060019054906101000a900460ff161590508080156115615750600160008054906101000a900460ff1660ff16105b8061158e57506115703061219f565b15801561158d5750600160008054906101000a900460ff1660ff16145b5b6115cd576040517f08c379a00000000000000000000000000000000000000000000000000000000081526004016115c4906133f3565b60405180910390fd5b60016000806101000a81548160ff021916908360ff160217905550801561160a576001600060016101000a81548160ff0219169083151502179055505b6001606a60008473ffffffffffffffffffffffffffffffffffffffff1673ffffffffffffffffffffffffffffffffffffffff16815260200190815260200160002060006101000a81548160ff021916908315150217905550620186a0606581905550611388606660006101000a8154816fffffffffffffffffffffffffffffffff02191690836fffffffffffffffffffffffffffffffff1602179055506101f4606660106101000a8154816fffffffffffffffffffffffffffffffff02191690836fffffffffffffffffffffffffffffffff1602179055506116ea6121c2565b80156117435760008060016101000a81548160ff0219169083151502179055507f7f26b83ff96e1f2b6a682f133852f6798a09c465da95921460cefb3847402498600160405161173a9190613465565b60405180910390a15b5050565b60006117568a8a86898c61221b565b8973ffffffffffffffffffffffffffffffffffffffff166323b872dd33308c6040518463ffffffff1660e01b815260040161179393929190613480565b6020604051808303816000875af11580156117b2573d6000803e3d6000fd5b505050506040513d601f19601f820116820180604052508101906117d69190613116565b50606f60003373ffffffffffffffffffffffffffffffffffffffff1673ffffffffffffffffffffffffffffffffffffffff1681526020019081526020016000206000815480929190611827906134b7565b919050555033606f60003373ffffffffffffffffffffffffffffffffffffffff1673ffffffffffffffffffffffffffffffffffffffff1681526020019081526020016000205460405160200161187e9291906130d8565b6040516020818303038152906040528051906020012090506040518061012001604052803373ffffffffffffffffffffffffffffffffffffffff1681526020018b73ffffffffffffffffffffffffffffffffffffffff1681526020018773ffffffffffffffffffffffffffffffffffffffff168152602001868152602001886bffffffffffffffffffffffff1681526020016000151581526020018573ffffffffffffffffffffffffffffffffffffffff1681526020016065546bffffffffffffffffffffffff1681526020018a815250606e600083815260200190815260200160002060008201518160000160006101000a81548173ffffffffffffffffffffffffffffffffffffffff021916908373ffffffffffffffffffffffffffffffffffffffff16021790555060208201518160010160006101000a81548173ffffffffffffffffffffffffffffffffffffffff021916908373ffffffffffffffffffffffffffffffffffffffff16021790555060408201518160020160006101000a81548173ffffffffffffffffffffffffffffffffffffffff021916908373ffffffffffffffffffffffffffffffffffffffff1602179055506060820151816003015560808201518160040160006101000a8154816bffffffffffffffffffffffff02191690836bffffffffffffffffffffffff16021790555060a082015181600401600c6101000a81548160ff02191690831515021790555060c08201518160050160006101000a81548173ffffffffffffffffffffffffffffffffffffffff021916908373ffffffffffffffffffffffffffffffffffffffff16021790555060e08201518160050160146101000a8154816bffffffffffffffffffffffff02191690836bffffffffffffffffffffffff160217905550610100820151816006015590505080898b73ffffffffffffffffffffffffffffffffffffffff167f34e33f86eb59d668184e1f86aeb03ed25f4ce72216218ed02db752f21c6a40428a8c8888604051611b72949392919061356c565b60405180910390a49998505050505050505050565b6000606b60008373ffffffffffffffffffffffffffffffffffffffff1673ffffffffffffffffffffffffffffffffffffffff16815260200190815260200160002060009054906101000a900460ff169050919050565b611be5611da3565b8273ffffffffffffffffffffffffffffffffffffffff1663a9059cbb83836040518363ffffffff1660e01b8152600401611c209291906130d8565b6020604051808303816000875af1158015611c3f573d6000803e3d6000fd5b505050506040513d601f19601f82011682018060405250810190611c639190613116565b50505050565b611c71611da3565b600073ffffffffffffffffffffffffffffffffffffffff168173ffffffffffffffffffffffffffffffffffffffff1603611ce0576040517f08c379a0000000000000000000000000000000000000000000000000000000008152600401611cd79061361e565b60405180910390fd5b611ce981611e21565b50565b611cf4611da3565b81606660006101000a8154816fffffffffffffffffffffffffffffffff02191690836fffffffffffffffffffffffffffffffff16021790555080606660106101000a8154816fffffffffffffffffffffffffffffffff02191690836fffffffffffffffffffffffffffffffff1602179055507fe38926c5806b98a6fd00c5d791a36fbd196537fe48d11c45c9f1d0acd1ea74df8282604051611d9792919061363e565b60405180910390a15050565b611dab61242a565b73ffffffffffffffffffffffffffffffffffffffff16611dc9610d73565b73ffffffffffffffffffffffffffffffffffffffff1614611e1f576040517f08c379a0000000000000000000000000000000000000000000000000000000008152600401611e16906136b3565b60405180910390fd5b565b6000603360009054906101000a900473ffffffffffffffffffffffffffffffffffffffff16905081603360006101000a81548173ffffffffffffffffffffffffffffffffffffffff021916908373ffffffffffffffffffffffffffffffffffffffff1602179055508173ffffffffffffffffffffffffffffffffffffffff168173ffffffffffffffffffffffffffffffffffffffff167f8be0079c531659141344cd1fd0a4f28419497f9722a3daafe3b4186f6b6457e060405160405180910390a35050565b611eef612595565b6000606e6000858152602001908152602001600020600601549050606e60008581526020019081526020016000206003015481611f2c91906136d3565b9050606554836bffffffffffffffffffffffff1682611f4b9190613707565b611f559190613778565b826020018181525050606554606660009054906101000a90046fffffffffffffffffffffffffffffffff166fffffffffffffffffffffffffffffffff168360200151611fa19190613707565b611fab9190613778565b82600001818152505081600001518260200151611fc891906136d3565b826020018181525050606554606660109054906101000a90046fffffffffffffffffffffffffffffffff166fffffffffffffffffffffffffffffffff1683600001516120149190613707565b61201e9190613778565b8260400181815250508160400151826000015161203b91906136d3565b8260000181815250505092915050565b6000606e600083815260200190815260200160002060020160009054906101000a900473ffffffffffffffffffffffffffffffffffffffff1690506000606e6000848152602001908152602001600020600301549050606e600084815260200190815260200160002060010160009054906101000a900473ffffffffffffffffffffffffffffffffffffffff1673ffffffffffffffffffffffffffffffffffffffff1663a9059cbb83836040518363ffffffff1660e01b81526004016121129291906130d8565b6020604051808303816000875af1158015612131573d6000803e3d6000fd5b505050506040513d601f19601f820116820180604052508101906121559190613116565b50808273ffffffffffffffffffffffffffffffffffffffff167f96c76d5aec8a8c11a9c8e02768e3fa309347330d08961e0cf9fd43b349b684c260405160405180910390a3505050565b6000808273ffffffffffffffffffffffffffffffffffffffff163b119050919050565b600060019054906101000a900460ff16612211576040517f08c379a00000000000000000000000000000000000000000000000000000000081526004016122089061381b565b60405180910390fd5b612219612432565b565b606a60008673ffffffffffffffffffffffffffffffffffffffff1673ffffffffffffffffffffffffffffffffffffffff16815260200190815260200160002060009054906101000a900460ff166122a7576040517f08c379a000000000000000000000000000000000000000000000000000000000815260040161229e90613887565b60405180910390fd5b600084116122ea576040517f08c379a00000000000000000000000000000000000000000000000000000000081526004016122e1906138f3565b60405180910390fd5b600073ffffffffffffffffffffffffffffffffffffffff168373ffffffffffffffffffffffffffffffffffffffff1603612359576040517f08c379a00000000000000000000000000000000000000000000000000000000081526004016123509061395f565b60405180910390fd5b600073ffffffffffffffffffffffffffffffffffffffff168273ffffffffffffffffffffffffffffffffffffffff16036123c8576040517f08c379a00000000000000000000000000000000000000000000000000000000081526004016123bf9061395f565b60405180910390fd5b6000801b606d60008381526020019081526020016000206000015403612423576040517f08c379a000000000000000000000000000000000000000000000000000000000815260040161241a906139cb565b60405180910390fd5b5050505050565b600033905090565b600060019054906101000a900460ff16612481576040517f08c379a00000000000000000000000000000000000000000000000000000000081526004016124789061381b565b60405180910390fd5b61249161248c61242a565b611e21565b565b604051806040016040528060008019168152602001600080191681525090565b604051806101200160405280600073ffffffffffffffffffffffffffffffffffffffff168152602001600073ffffffffffffffffffffffffffffffffffffffff168152602001600073ffffffffffffffffffffffffffffffffffffffff1681526020016000815260200160006bffffffffffffffffffffffff168152602001600015158152602001600073ffffffffffffffffffffffffffffffffffffffff16815260200160006bffffffffffffffffffffffff168152602001600081525090565b604051806040016040528060008019168152602001600080191681525090565b60405180606001604052806000815260200160008152602001600081525090565b6000604051905090565b600080fd5b600080fd5b6000819050919050565b6125dd816125ca565b81146125e857600080fd5b50565b6000813590506125fa816125d4565b92915050565b600060208284031215612616576126156125c0565b5b6000612624848285016125eb565b91505092915050565b600081519050919050565b600082825260208201905092915050565b6000819050602082019050919050565b612662816125ca565b82525050565b60408201600082015161267e6000850182612659565b5060208201516126916020850182612659565b50505050565b60006126a38383612668565b60408301905092915050565b6000602082019050919050565b60006126c78261262d565b6126d18185612638565b93506126dc83612649565b8060005b8381101561270d5781516126f48882612697565b97506126ff836126af565b9250506001810190506126e0565b5085935050505092915050565b6000602082019050818103600083015261273481846126bc565b905092915050565b600073ffffffffffffffffffffffffffffffffffffffff82169050919050565b60006127678261273c565b9050919050565b6127778161275c565b82525050565b6000602082019050612792600083018461276e565b92915050565b600080fd5b6000601f19601f8301169050919050565b7f4e487b7100000000000000000000000000000000000000000000000000000000600052604160045260246000fd5b6127e68261279d565b810181811067ffffffffffffffff82111715612805576128046127ae565b5b80604052505050565b60006128186125b6565b905061282482826127dd565b919050565b600067ffffffffffffffff821115612844576128436127ae565b5b602082029050602081019050919050565b600080fd5b600080fd5b6000604082840312156128755761287461285a565b5b61287f604061280e565b9050600061288f848285016125eb565b60008301525060206128a3848285016125eb565b60208301525092915050565b60006128c26128bd84612829565b61280e565b905080838252602082019050604084028301858111156128e5576128e4612855565b5b835b8181101561290e57806128fa888261285f565b8452602084019350506040810190506128e7565b5050509392505050565b600082601f83011261292d5761292c612798565b5b813561293d8482602086016128af565b91505092915050565b6000806040838503121561295d5761295c6125c0565b5b600061296b858286016125eb565b925050602083013567ffffffffffffffff81111561298c5761298b6125c5565b5b61299885828601612918565b9150509250929050565b60008115159050919050565b6129b7816129a2565b82525050565b60006020820190506129d260008301846129ae565b92915050565b6129e18161275c565b81146129ec57600080fd5b50565b6000813590506129fe816129d8565b92915050565b600060208284031215612a1a57612a196125c0565b5b6000612a28848285016129ef565b91505092915050565b612a3a8161275c565b82525050565b6000819050919050565b612a5381612a40565b82525050565b60006bffffffffffffffffffffffff82169050919050565b612a7a81612a59565b82525050565b612a89816129a2565b82525050565b61012082016000820151612aa66000850182612a31565b506020820151612ab96020850182612a31565b506040820151612acc6040850182612a31565b506060820151612adf6060850182612a4a565b506080820151612af26080850182612a71565b5060a0820151612b0560a0850182612a80565b5060c0820151612b1860c0850182612a31565b5060e0820151612b2b60e0850182612a71565b50610100820151612b40610100850182612a4a565b50505050565b600061012082019050612b5c6000830184612a8f565b92915050565b60008060408385031215612b7957612b786125c0565b5b6000612b87858286016125eb565b9250506020612b98858286016129ef565b9150509250929050565b604082016000820151612bb86000850182612659565b506020820151612bcb6020850182612659565b50505050565b6000604082019050612be66000830184612ba2565b92915050565b612bf5816129a2565b8114612c0057600080fd5b50565b600081359050612c1281612bec565b92915050565b600080600060608486031215612c3157612c306125c0565b5b6000612c3f868287016125eb565b9350506020612c50868287016129ef565b9250506040612c6186828701612c03565b9150509250925092565b60006fffffffffffffffffffffffffffffffff82169050919050565b612c9081612c6b565b82525050565b612c9f81612a40565b82525050565b6000606082019050612cba6000830186612c87565b612cc76020830185612c87565b612cd46040830184612c96565b949350505050565b600080fd5b60008083601f840112612cf757612cf6612798565b5b8235905067ffffffffffffffff811115612d1457612d13612cdc565b5b602083019150836020820283011115612d3057612d2f612855565b5b9250929050565b612d4081612a59565b8114612d4b57600080fd5b50565b600081359050612d5d81612d37565b92915050565b600080600080600060808688031215612d7f57612d7e6125c0565b5b6000612d8d888289016125eb565b955050602086013567ffffffffffffffff811115612dae57612dad6125c5565b5b612dba88828901612ce1565b94509450506040612dcd888289016129ef565b9250506060612dde88828901612d4e565b9150509295509295909350565b612df481612a40565b8114612dff57600080fd5b50565b600081359050612e1181612deb565b92915050565b60008083601f840112612e2d57612e2c612798565b5b8235905067ffffffffffffffff811115612e4a57612e49612cdc565b5b602083019150836001820283011115612e6657612e65612855565b5b9250929050565b60008060008060008060008060006101008a8c031215612e9057612e8f6125c0565b5b6000612e9e8c828d016129ef565b9950506020612eaf8c828d01612e02565b9850506040612ec08c828d016125eb565b9750506060612ed18c828d01612d4e565b9650506080612ee28c828d016129ef565b95505060a0612ef38c828d01612e02565b94505060c0612f048c828d016129ef565b93505060e08a013567ffffffffffffffff811115612f2557612f246125c5565b5b612f318c828d01612e17565b92509250509295985092959850929598565b612f4c816125ca565b82525050565b6000602082019050612f676000830184612f43565b92915050565b600080600060608486031215612f8657612f856125c0565b5b6000612f94868287016129ef565b9350506020612fa5868287016129ef565b9250506040612fb686828701612e02565b9150509250925092565b612fc981612c6b565b8114612fd457600080fd5b50565b600081359050612fe681612fc0565b92915050565b60008060408385031215613003576130026125c0565b5b600061301185828601612fd7565b925050602061302285828601612fd7565b9150509250929050565b7f4e487b7100000000000000000000000000000000000000000000000000000000600052603260045260246000fd5b600082825260208201905092915050565b7f4f7264657246756c66696c6c6564000000000000000000000000000000000000600082015250565b60006130a2600e8361305b565b91506130ad8261306c565b602082019050919050565b600060208201905081810360008301526130d181613095565b9050919050565b60006040820190506130ed600083018561276e565b6130fa6020830184612c96565b9392505050565b60008151905061311081612bec565b92915050565b60006020828403121561312c5761312b6125c0565b5b600061313a84828501613101565b91505092915050565b60006060820190506131586000830186612f43565b613165602083018561276e565b61317260408301846129ae565b949350505050565b7f4e487b7100000000000000000000000000000000000000000000000000000000600052601160045260246000fd5b60006131b482612a59565b91506131bf83612a59565b925082820390506bffffffffffffffffffffffff8111156131e3576131e261317a565b5b92915050565b600082825260208201905092915050565b6000819050919050565b60006132108383612a31565b60208301905092915050565b600061322b60208401846129ef565b905092915050565b6000602082019050919050565b600061324c83856131e9565b9350613257826131fa565b8060005b858110156132905761326d828461321c565b6132778882613204565b975061328283613233565b92505060018101905061325b565b5085925050509392505050565b60006080820190506132b26000830188612f43565b6132bf602083018761276e565b81810360408301526132d2818587613240565b90506132e16060830184612c96565b9695505050505050565b7f556e61626c65546f50726f636573735265776172647300000000000000000000600082015250565b600061332160168361305b565b915061332c826132eb565b602082019050919050565b6000602082019050818103600083015261335081613314565b9050919050565b61336081612a59565b82525050565b600060208201905061337b6000830184613357565b92915050565b7f496e697469616c697a61626c653a20636f6e747261637420697320616c72656160008201527f647920696e697469616c697a6564000000000000000000000000000000000000602082015250565b60006133dd602e8361305b565b91506133e882613381565b604082019050919050565b6000602082019050818103600083015261340c816133d0565b9050919050565b6000819050919050565b600060ff82169050919050565b6000819050919050565b600061344f61344a61344584613413565b61342a565b61341d565b9050919050565b61345f81613434565b82525050565b600060208201905061347a6000830184613456565b92915050565b6000606082019050613495600083018661276e565b6134a2602083018561276e565b6134af6040830184612c96565b949350505050565b60006134c282612a40565b91507fffffffffffffffffffffffffffffffffffffffffffffffffffffffffffffffff82036134f4576134f361317a565b5b600182019050919050565b600061351a61351561351084612a59565b61342a565b612a40565b9050919050565b61352a816134ff565b82525050565b82818337600083830152505050565b600061354b838561305b565b9350613558838584613530565b6135618361279d565b840190509392505050565b60006060820190506135816000830187613521565b61358e6020830186612f43565b81810360408301526135a181848661353f565b905095945050505050565b7f4f776e61626c653a206e6577206f776e657220697320746865207a65726f206160008201527f6464726573730000000000000000000000000000000000000000000000000000602082015250565b600061360860268361305b565b9150613613826135ac565b604082019050919050565b60006020820190508181036000830152613637816135fb565b9050919050565b60006040820190506136536000830185612c87565b6136606020830184612c87565b9392505050565b7f4f776e61626c653a2063616c6c6572206973206e6f7420746865206f776e6572600082015250565b600061369d60208361305b565b91506136a882613667565b602082019050919050565b600060208201905081810360008301526136cc81613690565b9050919050565b60006136de82612a40565b91506136e983612a40565b92508282039050818111156137015761370061317a565b5b92915050565b600061371282612a40565b915061371d83612a40565b925082820261372b81612a40565b915082820484148315176137425761374161317a565b5b5092915050565b7f4e487b7100000000000000000000000000000000000000000000000000000000600052601260045260246000fd5b600061378382612a40565b915061378e83612a40565b92508261379e5761379d613749565b5b828204905092915050565b7f496e697469616c697a61626c653a20636f6e7472616374206973206e6f74206960008201527f6e697469616c697a696e67000000000000000000000000000000000000000000602082015250565b6000613805602b8361305b565b9150613810826137a9565b604082019050919050565b60006020820190508181036000830152613834816137f8565b9050919050565b7f546f6b656e4e6f74537570706f72746564000000000000000000000000000000600082015250565b600061387160118361305b565b915061387c8261383b565b602082019050919050565b600060208201905081810360008301526138a081613864565b9050919050565b7f416d6f756e7449735a65726f0000000000000000000000000000000000000000600082015250565b60006138dd600c8361305b565b91506138e8826138a7565b602082019050919050565b6000602082019050818103600083015261390c816138d0565b9050919050565b7f5468726f775a65726f4164647265737300000000000000000000000000000000600082015250565b600061394960108361305b565b915061395482613913565b602082019050919050565b600060208201905081810360008301526139788161393c565b9050919050565b7f496e76616c6964496e737469747574696f6e436f646500000000000000000000600082015250565b60006139b560168361305b565b91506139c08261397f565b602082019050919050565b600060208201905081810360008301526139e4816139a8565b905091905056fea264697066735822122015e20991811c1efaaf1a1ffe4417efd513ccc0112e5686105053825d2cf3f45864736f6c63430008120033",
  "linkReferences": {},
  "deployedLinkReferences": {}
}