{
  "_format": "hh-sol-artifact-1",
  "contractName": "Paycrest",
  "sourceName": "contracts/Paycrest.sol",
  "abi": [
    {
      "inputs": [],
      "stateMutability": "nonpayable",
      "type": "constructor"
    },
    {
      "anonymous": false,
      "inputs": [
        {
          "indexed": false,
          "internalType": "uint8",
          "name": "version",
          "type": "uint8"
        }
      ],
      "name": "Initialized",
      "type": "event"
    },
    {
      "anonymous": false,
      "inputs": [
        {
          "indexed": true,
          "internalType": "address",
          "name": "token",
          "type": "address"
        },
        {
          "indexed": true,
          "internalType": "uint256",
          "name": "amount",
          "type": "uint256"
        },
        {
          "indexed": false,
          "internalType": "uint256",
          "name": "protocolFee",
          "type": "uint256"
        },
        {
          "indexed": true,
          "internalType": "bytes32",
          "name": "orderId",
          "type": "bytes32"
        },
        {
          "indexed": false,
          "internalType": "uint256",
          "name": "rate",
          "type": "uint256"
        },
        {
          "indexed": false,
          "internalType": "bytes32",
          "name": "institutionCode",
          "type": "bytes32"
        },
        {
          "indexed": false,
          "internalType": "bytes32",
          "name": "label",
          "type": "bytes32"
        },
        {
          "indexed": false,
          "internalType": "string",
          "name": "messageHash",
          "type": "string"
        }
      ],
      "name": "OrderCreated",
      "type": "event"
    },
    {
      "anonymous": false,
      "inputs": [
        {
          "indexed": false,
          "internalType": "uint256",
          "name": "fee",
          "type": "uint256"
        },
        {
          "indexed": true,
          "internalType": "bytes32",
          "name": "orderId",
          "type": "bytes32"
        },
        {
          "indexed": false,
          "internalType": "bytes32",
          "name": "label",
          "type": "bytes32"
        }
      ],
      "name": "OrderRefunded",
      "type": "event"
    },
    {
      "anonymous": false,
      "inputs": [
        {
          "indexed": false,
          "internalType": "bytes32",
          "name": "splitOrderId",
          "type": "bytes32"
        },
        {
          "indexed": true,
          "internalType": "bytes32",
          "name": "orderId",
          "type": "bytes32"
        },
        {
          "indexed": false,
          "internalType": "bytes32",
          "name": "label",
          "type": "bytes32"
        },
        {
          "indexed": true,
          "internalType": "address",
          "name": "liquidityProvider",
          "type": "address"
        },
        {
          "indexed": false,
          "internalType": "uint96",
          "name": "settlePercent",
          "type": "uint96"
        }
      ],
      "name": "OrderSettled",
      "type": "event"
    },
    {
      "anonymous": false,
      "inputs": [
        {
          "indexed": true,
          "internalType": "address",
          "name": "previousOwner",
          "type": "address"
        },
        {
          "indexed": true,
          "internalType": "address",
          "name": "newOwner",
          "type": "address"
        }
      ],
      "name": "OwnershipTransferred",
      "type": "event"
    },
    {
      "anonymous": false,
      "inputs": [
        {
          "indexed": false,
          "internalType": "address",
          "name": "account",
          "type": "address"
        }
      ],
      "name": "Paused",
      "type": "event"
    },
    {
      "anonymous": false,
      "inputs": [
        {
          "indexed": false,
          "internalType": "address",
          "name": "treasuryAddress",
          "type": "address"
        }
      ],
      "name": "ProtocolAddressesUpdated",
      "type": "event"
    },
    {
      "anonymous": false,
      "inputs": [
        {
          "indexed": false,
          "internalType": "uint64",
          "name": "protocolFee",
          "type": "uint64"
        }
      ],
      "name": "ProtocolFeesUpdated",
      "type": "event"
    },
    {
      "anonymous": false,
      "inputs": [
        {
          "indexed": true,
          "internalType": "address",
          "name": "sender",
          "type": "address"
        },
        {
          "indexed": true,
          "internalType": "uint256",
          "name": "amount",
          "type": "uint256"
        }
      ],
      "name": "SenderFeeTransferred",
      "type": "event"
    },
    {
      "anonymous": false,
      "inputs": [
        {
          "indexed": false,
          "internalType": "bytes",
          "name": "aggregator",
          "type": "bytes"
        }
      ],
      "name": "SetAggregator",
      "type": "event"
    },
    {
      "anonymous": false,
      "inputs": [
        {
          "indexed": false,
          "internalType": "address",
          "name": "treasuryAddress",
          "type": "address"
        }
      ],
      "name": "SetFeeRecipient",
      "type": "event"
    },
    {
      "anonymous": false,
      "inputs": [
        {
          "indexed": false,
          "internalType": "bytes32",
          "name": "what",
          "type": "bytes32"
        },
        {
          "indexed": false,
          "internalType": "address",
          "name": "value",
          "type": "address"
        },
        {
          "indexed": false,
          "internalType": "bool",
          "name": "status",
          "type": "bool"
        }
      ],
      "name": "SettingManagerBool",
      "type": "event"
    },
    {
      "anonymous": false,
      "inputs": [
        {
          "indexed": false,
          "internalType": "address",
          "name": "account",
          "type": "address"
        }
      ],
      "name": "Unpaused",
      "type": "event"
    },
    {
      "inputs": [
        {
          "internalType": "address",
          "name": "_token",
          "type": "address"
        },
        {
          "internalType": "uint256",
          "name": "_amount",
          "type": "uint256"
        },
        {
          "internalType": "bytes32",
          "name": "_institutionCode",
          "type": "bytes32"
        },
        {
          "internalType": "bytes32",
          "name": "_label",
          "type": "bytes32"
        },
        {
          "internalType": "uint96",
          "name": "_rate",
          "type": "uint96"
        },
        {
          "internalType": "address",
          "name": "_senderFeeRecipient",
          "type": "address"
        },
        {
          "internalType": "uint256",
          "name": "_senderFee",
          "type": "uint256"
        },
        {
          "internalType": "address",
          "name": "_refundAddress",
          "type": "address"
        },
        {
          "internalType": "string",
          "name": "messageHash",
          "type": "string"
        }
      ],
      "name": "createOrder",
      "outputs": [
        {
          "internalType": "bytes32",
          "name": "orderId",
          "type": "bytes32"
        }
      ],
      "stateMutability": "nonpayable",
      "type": "function"
    },
    {
      "inputs": [],
      "name": "getAggregator",
      "outputs": [
        {
          "internalType": "bytes",
          "name": "",
          "type": "bytes"
        }
      ],
      "stateMutability": "view",
      "type": "function"
    },
    {
      "inputs": [],
      "name": "getFeeDetails",
      "outputs": [
        {
          "internalType": "uint64",
          "name": "",
          "type": "uint64"
        },
        {
          "internalType": "uint256",
          "name": "",
          "type": "uint256"
        }
      ],
      "stateMutability": "view",
      "type": "function"
    },
    {
      "inputs": [
        {
          "internalType": "bytes32",
          "name": "_orderId",
          "type": "bytes32"
        }
      ],
      "name": "getOrderInfo",
      "outputs": [
        {
          "components": [
            {
              "internalType": "address",
              "name": "seller",
              "type": "address"
            },
            {
              "internalType": "address",
              "name": "token",
              "type": "address"
            },
            {
              "internalType": "address",
              "name": "senderFeeRecipient",
              "type": "address"
            },
            {
              "internalType": "uint256",
              "name": "senderFee",
              "type": "uint256"
            },
            {
              "internalType": "uint256",
              "name": "protocolFee",
              "type": "uint256"
            },
            {
              "internalType": "uint96",
              "name": "rate",
              "type": "uint96"
            },
            {
              "internalType": "bool",
              "name": "isFulfilled",
              "type": "bool"
            },
            {
              "internalType": "address",
              "name": "refundAddress",
              "type": "address"
            },
            {
              "internalType": "uint96",
              "name": "currentBPS",
              "type": "uint96"
            },
            {
              "internalType": "uint256",
              "name": "amount",
              "type": "uint256"
            }
          ],
          "internalType": "struct IPaycrest.Order",
          "name": "",
          "type": "tuple"
        }
      ],
      "stateMutability": "view",
      "type": "function"
    },
    {
      "inputs": [
        {
          "internalType": "bytes32",
          "name": "_code",
          "type": "bytes32"
        }
      ],
      "name": "getSupportedInstitutionByCode",
      "outputs": [
        {
          "components": [
            {
              "internalType": "bytes32",
              "name": "name",
              "type": "bytes32"
            },
            {
              "internalType": "bytes32",
              "name": "currency",
              "type": "bytes32"
            }
          ],
          "internalType": "struct SharedStructs.InstitutionByCode",
          "name": "",
          "type": "tuple"
        }
      ],
      "stateMutability": "view",
      "type": "function"
    },
    {
      "inputs": [
        {
          "internalType": "bytes32",
          "name": "_currency",
          "type": "bytes32"
        }
      ],
      "name": "getSupportedInstitutions",
      "outputs": [
        {
          "components": [
            {
              "internalType": "bytes32",
              "name": "code",
              "type": "bytes32"
            },
            {
              "internalType": "bytes32",
              "name": "name",
              "type": "bytes32"
            }
          ],
          "internalType": "struct SharedStructs.Institution[]",
          "name": "",
          "type": "tuple[]"
        }
      ],
      "stateMutability": "view",
      "type": "function"
    },
    {
      "inputs": [],
      "name": "initialize",
      "outputs": [],
      "stateMutability": "nonpayable",
      "type": "function"
    },
    {
      "inputs": [
        {
          "internalType": "address",
          "name": "_token",
          "type": "address"
        }
      ],
      "name": "isTokenSupported",
      "outputs": [
        {
          "internalType": "bool",
          "name": "",
          "type": "bool"
        }
      ],
      "stateMutability": "view",
      "type": "function"
    },
    {
      "inputs": [],
      "name": "owner",
      "outputs": [
        {
          "internalType": "address",
          "name": "",
          "type": "address"
        }
      ],
      "stateMutability": "view",
      "type": "function"
    },
    {
      "inputs": [],
      "name": "pause",
      "outputs": [],
      "stateMutability": "nonpayable",
      "type": "function"
    },
    {
      "inputs": [],
      "name": "paused",
      "outputs": [
        {
          "internalType": "bool",
          "name": "",
          "type": "bool"
        }
      ],
      "stateMutability": "view",
      "type": "function"
    },
    {
      "inputs": [
        {
          "internalType": "uint256",
          "name": "_fee",
          "type": "uint256"
        },
        {
          "internalType": "bytes32",
          "name": "_orderId",
          "type": "bytes32"
        },
        {
          "internalType": "bytes32",
          "name": "_label",
          "type": "bytes32"
        }
      ],
      "name": "refund",
      "outputs": [
        {
          "internalType": "bool",
          "name": "",
          "type": "bool"
        }
      ],
      "stateMutability": "nonpayable",
      "type": "function"
    },
    {
      "inputs": [],
      "name": "renounceOwnership",
      "outputs": [],
      "stateMutability": "nonpayable",
      "type": "function"
    },
    {
      "inputs": [
        {
          "internalType": "bytes32",
          "name": "currency",
          "type": "bytes32"
        },
        {
          "components": [
            {
              "internalType": "bytes32",
              "name": "code",
              "type": "bytes32"
            },
            {
              "internalType": "bytes32",
              "name": "name",
              "type": "bytes32"
            }
          ],
          "internalType": "struct SharedStructs.Institution[]",
          "name": "institutions",
          "type": "tuple[]"
        }
      ],
      "name": "setSupportedInstitutions",
      "outputs": [],
      "stateMutability": "nonpayable",
      "type": "function"
    },
    {
      "inputs": [
        {
          "internalType": "bytes32",
          "name": "what",
          "type": "bytes32"
        },
        {
          "internalType": "address",
          "name": "value",
          "type": "address"
        },
        {
          "internalType": "bool",
          "name": "status",
          "type": "bool"
        }
      ],
      "name": "settingManagerBool",
      "outputs": [],
      "stateMutability": "nonpayable",
      "type": "function"
    },
    {
      "inputs": [
        {
          "internalType": "bytes32",
          "name": "_splitOrderId",
          "type": "bytes32"
        },
        {
          "internalType": "bytes32",
          "name": "_orderId",
          "type": "bytes32"
        },
        {
          "internalType": "bytes32",
          "name": "_label",
          "type": "bytes32"
        },
        {
          "internalType": "address",
          "name": "_liquidityProvider",
          "type": "address"
        },
        {
          "internalType": "uint64",
          "name": "_settlePercent",
          "type": "uint64"
        }
      ],
      "name": "settle",
      "outputs": [
        {
          "internalType": "bytes32",
          "name": "",
          "type": "bytes32"
        },
        {
          "internalType": "address",
          "name": "",
          "type": "address"
        }
      ],
      "stateMutability": "nonpayable",
      "type": "function"
    },
    {
      "inputs": [
        {
          "internalType": "address",
          "name": "newOwner",
          "type": "address"
        }
      ],
      "name": "transferOwnership",
      "outputs": [],
      "stateMutability": "nonpayable",
      "type": "function"
    },
    {
      "inputs": [],
      "name": "unpause",
      "outputs": [],
      "stateMutability": "nonpayable",
      "type": "function"
    },
    {
      "inputs": [
        {
          "internalType": "bytes32",
          "name": "what",
          "type": "bytes32"
        },
        {
          "internalType": "address",
          "name": "value",
          "type": "address"
        }
      ],
      "name": "updateProtocolAddresses",
      "outputs": [],
      "stateMutability": "nonpayable",
      "type": "function"
    },
    {
      "inputs": [
        {
          "internalType": "bytes",
          "name": "aggregator",
          "type": "bytes"
        }
      ],
      "name": "updateProtocolAggregator",
      "outputs": [],
      "stateMutability": "nonpayable",
      "type": "function"
    },
    {
      "inputs": [
        {
          "internalType": "uint64",
          "name": "_protocolFeePercent",
          "type": "uint64"
        }
      ],
      "name": "updateProtocolFees",
      "outputs": [],
      "stateMutability": "nonpayable",
      "type": "function"
    }
  ],
  "bytecode": "0x60806040523480156200001157600080fd5b50620000226200002860201b60201c565b620001d2565b600060019054906101000a900460ff16156200007b576040517f08c379a0000000000000000000000000000000000000000000000000000000008152600401620000729062000175565b60405180910390fd5b60ff801660008054906101000a900460ff1660ff1614620000ec5760ff6000806101000a81548160ff021916908360ff1602179055507f7f26b83ff96e1f2b6a682f133852f6798a09c465da95921460cefb384740249860ff604051620000e39190620001b5565b60405180910390a15b565b600082825260208201905092915050565b7f496e697469616c697a61626c653a20636f6e747261637420697320696e69746960008201527f616c697a696e6700000000000000000000000000000000000000000000000000602082015250565b60006200015d602783620000ee565b91506200016a82620000ff565b604082019050919050565b6000602082019050818103600083015262000190816200014e565b9050919050565b600060ff82169050919050565b620001af8162000197565b82525050565b6000602082019050620001cc6000830184620001a4565b92915050565b6140a880620001e26000396000f3fe608060405234801561001057600080fd5b50600436106101375760003560e01c80638129fc1c116100b857806399e3c0b41161007c57806399e3c0b414610303578063b810c6361461031f578063c22801031461033e578063cb79455b1461036e578063d28a8d321461038a578063f2fde38b146103ba57610137565b80638129fc1c146102845780638456cb591461028e57806384630736146102985780638da5cb5b146102b45780639015dced146102d257610137565b80635c975abb116100ff5780635c975abb146101e0578063715018a6146101fe57806375151b6314610208578063768c6ec01461023857806379a0effb1461026857610137565b8063026213381461013c5780632654ec7e1461016c578063322008821461019c5780633ad59dbc146101b85780633f4ba83a146101d6575b600080fd5b6101566004803603810190610151919061268b565b6103d6565b60405161016391906127a5565b60405180910390f35b61018660048036038101906101819190612904565b610514565b60405161019391906129fe565b60405180910390f35b6101b660048036038101906101b19190612bbd565b610a2d565b005b6101c0610b41565b6040516101cd9190612c98565b60405180910390f35b6101de610bd3565b005b6101e8610be5565b6040516101f59190612cd5565b60405180910390f35b610206610bfc565b005b610222600480360381019061021d9190612cf0565b610c10565b60405161022f9190612cd5565b60405180910390f35b610252600480360381019061024d919061268b565b610c66565b60405161025f9190612e25565b60405180910390f35b610282600480360381019061027d9190612e41565b610ea1565b005b61028c611047565b005b610296611197565b005b6102b260048036038101906102ad9190612ec1565b6111a9565b005b6102bc611214565b6040516102c99190612efd565b60405180910390f35b6102ec60048036038101906102e79190612f18565b61123e565b6040516102fa929190612f93565b60405180910390f35b61031d60048036038101906103189190612fe8565b611652565b005b610327611788565b604051610335929190613059565b60405180910390f35b6103586004803603810190610353919061268b565b6117ad565b60405161036591906130b1565b60405180910390f35b61038860048036038101906103839190613122565b6117ee565b005b6103a4600480360381019061039f919061316f565b611845565b6040516103b19190612cd5565b60405180910390f35b6103d460048036038101906103cf9190612cf0565b611d00565b005b60606000609c6000848152602001908152602001600020805480602002602001604051908101604052809291908181526020016000905b828210156104535783829060005260206000209060020201604051806040016040529081600082015481526020016001820154815250508152602001906001019061040d565b50505050905060008151905060008167ffffffffffffffff81111561047b5761047a612a2a565b5b6040519080825280602002602001820160405280156104b457816020015b6104a1612538565b8152602001906001900390816104995790505b50905060005b82811015610508578381815181106104d5576104d46131c2565b5b60200260200101518282815181106104f0576104ef6131c2565b5b602002602001018190525080806001019150506104ba565b50809350505050919050565b600061051e611d83565b61052c8b8b8689898e611dcd565b60008383905011610572576040517f08c379a00000000000000000000000000000000000000000000000000000000081526004016105699061324e565b60405180910390fd5b8a73ffffffffffffffffffffffffffffffffffffffff166323b872dd3330888e61059c919061329d565b6040518463ffffffff1660e01b81526004016105ba939291906132d1565b6020604051808303816000875af11580156105d9573d6000803e3d6000fd5b505050506040513d601f19601f820116820180604052508101906105fd919061331d565b5060d160003373ffffffffffffffffffffffffffffffffffffffff1673ffffffffffffffffffffffffffffffffffffffff168152602001908152602001600020600081548092919061064e9061334a565b91905055503360d160003373ffffffffffffffffffffffffffffffffffffffff1673ffffffffffffffffffffffffffffffffffffffff168152602001908152602001600020546040516020016106a5929190613392565b6040516020818303038152906040528051906020012090506000606554606660009054906101000a900467ffffffffffffffff1667ffffffffffffffff168c6106ee91906133bb565b6106f8919061342c565b90506040518061014001604052803373ffffffffffffffffffffffffffffffffffffffff1681526020018d73ffffffffffffffffffffffffffffffffffffffff1681526020018873ffffffffffffffffffffffffffffffffffffffff168152602001878152602001828152602001896bffffffffffffffffffffffff1681526020016000151581526020018673ffffffffffffffffffffffffffffffffffffffff16815260200160655467ffffffffffffffff166bffffffffffffffffffffffff168152602001828d6107cb919061345d565b81525060d0600084815260200190815260200160002060008201518160000160006101000a81548173ffffffffffffffffffffffffffffffffffffffff021916908373ffffffffffffffffffffffffffffffffffffffff16021790555060208201518160010160006101000a81548173ffffffffffffffffffffffffffffffffffffffff021916908373ffffffffffffffffffffffffffffffffffffffff16021790555060408201518160020160006101000a81548173ffffffffffffffffffffffffffffffffffffffff021916908373ffffffffffffffffffffffffffffffffffffffff160217905550606082015181600301556080820151816004015560a08201518160050160006101000a8154816bffffffffffffffffffffffff02191690836bffffffffffffffffffffffff16021790555060c082015181600501600c6101000a81548160ff02191690831515021790555060e08201518160060160006101000a81548173ffffffffffffffffffffffffffffffffffffffff021916908373ffffffffffffffffffffffffffffffffffffffff1602179055506101008201518160060160146101000a8154816bffffffffffffffffffffffff02191690836bffffffffffffffffffffffff16021790555061012082015181600701559050508160d06000848152602001908152602001600020600701548d73ffffffffffffffffffffffffffffffffffffffff167f94bed2b14a43efaec8c295ba3fbce0aa493e61643c3adb49774ca7df08d5a919848c8f8f8b8b604051610a1696959493929190613508565b60405180910390a4509a9950505050505050505050565b610a35611fe7565b60008151905060005b81811015610b3b57609c6000858152602001908152602001600020838281518110610a6c57610a6b6131c2565b5b60200260200101519080600181540180825580915050600190039060005260206000209060020201600090919091909150600082015181600001556020820151816001015550506040518060400160405280848381518110610ad157610ad06131c2565b5b602002602001015160200151815260200185815250609d6000858481518110610afd57610afc6131c2565b5b602002602001015160000151815260200190815260200160002060008201518160000155602082015181600101559050508080600101915050610a3e565b50505050565b606060688054610b5090613593565b80601f0160208091040260200160405190810160405280929190818152602001828054610b7c90613593565b8015610bc95780601f10610b9e57610100808354040283529160200191610bc9565b820191906000526020600020905b815481529060010190602001808311610bac57829003601f168201915b5050505050905090565b610bdb611fe7565b610be3612065565b565b6000609e60009054906101000a900460ff16905090565b610c04611fe7565b610c0e60006120c8565b565b6000609b60008373ffffffffffffffffffffffffffffffffffffffff1673ffffffffffffffffffffffffffffffffffffffff16815260200190815260200160002060009054906101000a900460ff169050919050565b610c6e612558565b60d06000838152602001908152602001600020604051806101400160405290816000820160009054906101000a900473ffffffffffffffffffffffffffffffffffffffff1673ffffffffffffffffffffffffffffffffffffffff1673ffffffffffffffffffffffffffffffffffffffff1681526020016001820160009054906101000a900473ffffffffffffffffffffffffffffffffffffffff1673ffffffffffffffffffffffffffffffffffffffff1673ffffffffffffffffffffffffffffffffffffffff1681526020016002820160009054906101000a900473ffffffffffffffffffffffffffffffffffffffff1673ffffffffffffffffffffffffffffffffffffffff1673ffffffffffffffffffffffffffffffffffffffff16815260200160038201548152602001600482015481526020016005820160009054906101000a90046bffffffffffffffffffffffff166bffffffffffffffffffffffff166bffffffffffffffffffffffff16815260200160058201600c9054906101000a900460ff161515151581526020016006820160009054906101000a900473ffffffffffffffffffffffffffffffffffffffff1673ffffffffffffffffffffffffffffffffffffffff1673ffffffffffffffffffffffffffffffffffffffff1681526020016006820160149054906101000a90046bffffffffffffffffffffffff166bffffffffffffffffffffffff166bffffffffffffffffffffffff1681526020016007820154815250509050919050565b610ea9611fe7565b600073ffffffffffffffffffffffffffffffffffffffff168173ffffffffffffffffffffffffffffffffffffffff1603610f18576040517f08c379a0000000000000000000000000000000000000000000000000000000008152600401610f0f90613610565b60405180910390fd5b7f74726561737572790000000000000000000000000000000000000000000000008203610f815780606660086101000a81548173ffffffffffffffffffffffffffffffffffffffff021916908373ffffffffffffffffffffffffffffffffffffffff1602179055505b7f61676772656761746f72000000000000000000000000000000000000000000008203610fea5780606760006101000a81548173ffffffffffffffffffffffffffffffffffffffff021916908373ffffffffffffffffffffffffffffffffffffffff1602179055505b7fd8ef77a7d69a6b79f131ecd9aa37060ba0853bbd37cb175ec1abd05738ce27cb606660089054906101000a900473ffffffffffffffffffffffffffffffffffffffff1660405161103b9190612efd565b60405180910390a15050565b60008060019054906101000a900460ff161590508080156110785750600160008054906101000a900460ff1660ff16105b806110a557506110873061218e565b1580156110a45750600160008054906101000a900460ff1660ff16145b5b6110e4576040517f08c379a00000000000000000000000000000000000000000000000000000000081526004016110db906136a2565b60405180910390fd5b60016000806101000a81548160ff021916908360ff1602179055508015611121576001600060016101000a81548160ff0219169083151502179055505b620186a06065819055506111336121b1565b61113b61220a565b80156111945760008060016101000a81548160ff0219169083151502179055507f7f26b83ff96e1f2b6a682f133852f6798a09c465da95921460cefb3847402498600160405161118b919061370a565b60405180910390a15b50565b61119f611fe7565b6111a7612263565b565b6111b1611fe7565b80606660006101000a81548167ffffffffffffffff021916908367ffffffffffffffff1602179055507fb94068a4bd2571acee6ac79acc9dcdcf10c31425d35f09e88f154ec520e26446816040516112099190613725565b60405180910390a150565b6000603360009054906101000a900473ffffffffffffffffffffffffffffffffffffffff16905090565b600080606760009054906101000a900473ffffffffffffffffffffffffffffffffffffffff1673ffffffffffffffffffffffffffffffffffffffff163373ffffffffffffffffffffffffffffffffffffffff16146112d1576040517f08c379a00000000000000000000000000000000000000000000000000000000081526004016112c89061378c565b60405180910390fd5b60d06000878152602001908152602001600020600501600c9054906101000a900460ff1615611335576040517f08c379a000000000000000000000000000000000000000000000000000000000815260040161132c906137f8565b60405180910390fd5b600060d0600088815260200190815260200160002060010160009054906101000a900473ffffffffffffffffffffffffffffffffffffffff1690508367ffffffffffffffff1660d0600089815260200190815260200160002060060160148282829054906101000a90046bffffffffffffffffffffffff166113b79190613818565b92506101000a8154816bffffffffffffffffffffffff02191690836bffffffffffffffffffffffff160217905550600060d0600089815260200190815260200160002060060160149054906101000a90046bffffffffffffffffffffffff166bffffffffffffffffffffffff160361155957600160d06000898152602001908152602001600020600501600c6101000a81548160ff021916908315150217905550600060d0600089815260200190815260200160002060030154111561148157611480876122c6565b5b600060d06000898152602001908152602001600020600401541115611558578073ffffffffffffffffffffffffffffffffffffffff1663a9059cbb606660089054906101000a900473ffffffffffffffffffffffffffffffffffffffff1660d060008b8152602001908152602001600020600401546040518363ffffffff1660e01b8152600401611513929190613392565b6020604051808303816000875af1158015611532573d6000803e3d6000fd5b505050506040513d601f19601f82011682018060405250810190611556919061331d565b505b5b8073ffffffffffffffffffffffffffffffffffffffff1663a9059cbb8660d060008b8152602001908152602001600020600701546040518363ffffffff1660e01b81526004016115aa929190613392565b6020604051808303816000875af11580156115c9573d6000803e3d6000fd5b505050506040513d601f19601f820116820180604052508101906115ed919061331d565b508473ffffffffffffffffffffffffffffffffffffffff16877fa9ec2b6676d3ea3e8da117193c71b1b85fcdbc72f077a624f950241eb38f13c28a898860405161163993929190613889565b60405180910390a3868192509250509550959350505050565b61165a611fe7565b600073ffffffffffffffffffffffffffffffffffffffff168273ffffffffffffffffffffffffffffffffffffffff16036116c9576040517f08c379a00000000000000000000000000000000000000000000000000000000081526004016116c090613610565b60405180910390fd5b7f746f6b656e00000000000000000000000000000000000000000000000000000083036117485780609b60008473ffffffffffffffffffffffffffffffffffffffff1673ffffffffffffffffffffffffffffffffffffffff16815260200190815260200160002060006101000a81548160ff0219169083151502179055505b7fe22cadcc5ddbc0a185e8920eaa6825bcc06dcd6b432988e7e9912caa59ace93083838360405161177b939291906138c0565b60405180910390a1505050565b600080606660009054906101000a900467ffffffffffffffff16606554915091509091565b6117b5612621565b609d6000838152602001908152602001600020604051806040016040529081600082015481526020016001820154815250509050919050565b6117f6611fe7565b818160689182611807929190613aa4565b507f6a6600b7242975868d8321b5e64d0c9f2fcc92eb1af72254a6357be77ee7dcef8282604051611839929190613ba1565b60405180910390a15050565b6000606760009054906101000a900473ffffffffffffffffffffffffffffffffffffffff1673ffffffffffffffffffffffffffffffffffffffff163373ffffffffffffffffffffffffffffffffffffffff16146118d7576040517f08c379a00000000000000000000000000000000000000000000000000000000081526004016118ce9061378c565b60405180910390fd5b60d06000848152602001908152602001600020600501600c9054906101000a900460ff161561193b576040517f08c379a0000000000000000000000000000000000000000000000000000000008152600401611932906137f8565b60405180910390fd5b60d0600084815260200190815260200160002060010160009054906101000a900473ffffffffffffffffffffffffffffffffffffffff1673ffffffffffffffffffffffffffffffffffffffff1663a9059cbb606660089054906101000a900473ffffffffffffffffffffffffffffffffffffffff16866040518363ffffffff1660e01b81526004016119ce929190613392565b6020604051808303816000875af11580156119ed573d6000803e3d6000fd5b505050506040513d601f19601f82011682018060405250810190611a11919061331d565b50600160d06000858152602001908152602001600020600501600c6101000a81548160ff021916908315150217905550600060d0600085815260200190815260200160002060060160146101000a8154816bffffffffffffffffffffffff02191690836bffffffffffffffffffffffff16021790555060008460d060008681526020019081526020016000206004015460d0600087815260200190815260200160002060070154611ac2919061329d565b611acc919061345d565b905060d0600085815260200190815260200160002060010160009054906101000a900473ffffffffffffffffffffffffffffffffffffffff1673ffffffffffffffffffffffffffffffffffffffff1663a9059cbb60d0600087815260200190815260200160002060060160009054906101000a900473ffffffffffffffffffffffffffffffffffffffff16836040518363ffffffff1660e01b8152600401611b75929190613392565b6020604051808303816000875af1158015611b94573d6000803e3d6000fd5b505050506040513d601f19601f82011682018060405250810190611bb8919061331d565b5060d0600085815260200190815260200160002060010160009054906101000a900473ffffffffffffffffffffffffffffffffffffffff1673ffffffffffffffffffffffffffffffffffffffff1663a9059cbb60d0600087815260200190815260200160002060060160009054906101000a900473ffffffffffffffffffffffffffffffffffffffff1660d06000888152602001908152602001600020600301546040518363ffffffff1660e01b8152600401611c76929190613392565b6020604051808303816000875af1158015611c95573d6000803e3d6000fd5b505050506040513d601f19601f82011682018060405250810190611cb9919061331d565b50837f79252c381c5280f78c77f378791e42b506843a48916430480eab95a898cdae9f8685604051611cec929190613bc5565b60405180910390a260019150509392505050565b611d08611fe7565b600073ffffffffffffffffffffffffffffffffffffffff168173ffffffffffffffffffffffffffffffffffffffff1603611d77576040517f08c379a0000000000000000000000000000000000000000000000000000000008152600401611d6e90613c60565b60405180910390fd5b611d80816120c8565b50565b611d8b610be5565b15611dcb576040517f08c379a0000000000000000000000000000000000000000000000000000000008152600401611dc290613ccc565b60405180910390fd5b565b609b60008773ffffffffffffffffffffffffffffffffffffffff1673ffffffffffffffffffffffffffffffffffffffff16815260200190815260200160002060009054906101000a900460ff16611e59576040517f08c379a0000000000000000000000000000000000000000000000000000000008152600401611e5090613d38565b60405180910390fd5b60008511611e9c576040517f08c379a0000000000000000000000000000000000000000000000000000000008152600401611e9390613da4565b60405180910390fd5b600073ffffffffffffffffffffffffffffffffffffffff168473ffffffffffffffffffffffffffffffffffffffff1603611f0b576040517f08c379a0000000000000000000000000000000000000000000000000000000008152600401611f0290613e10565b60405180910390fd5b6000801b609d60008381526020019081526020016000206000015403611f66576040517f08c379a0000000000000000000000000000000000000000000000000000000008152600401611f5d90613e7c565b60405180910390fd5b6000821115611fdf57600073ffffffffffffffffffffffffffffffffffffffff168373ffffffffffffffffffffffffffffffffffffffff1603611fde576040517f08c379a0000000000000000000000000000000000000000000000000000000008152600401611fd590613ee8565b60405180910390fd5b5b505050505050565b611fef61241a565b73ffffffffffffffffffffffffffffffffffffffff1661200d611214565b73ffffffffffffffffffffffffffffffffffffffff1614612063576040517f08c379a000000000000000000000000000000000000000000000000000000000815260040161205a90613f54565b60405180910390fd5b565b61206d612422565b6000609e60006101000a81548160ff0219169083151502179055507f5db9ee0a495bf2e6ff9c91a7834c1ba4fdd244a5e8aa4e537bd38aeae4b073aa6120b161241a565b6040516120be9190612efd565b60405180910390a1565b6000603360009054906101000a900473ffffffffffffffffffffffffffffffffffffffff16905081603360006101000a81548173ffffffffffffffffffffffffffffffffffffffff021916908373ffffffffffffffffffffffffffffffffffffffff1602179055508173ffffffffffffffffffffffffffffffffffffffff168173ffffffffffffffffffffffffffffffffffffffff167f8be0079c531659141344cd1fd0a4f28419497f9722a3daafe3b4186f6b6457e060405160405180910390a35050565b6000808273ffffffffffffffffffffffffffffffffffffffff163b119050919050565b600060019054906101000a900460ff16612200576040517f08c379a00000000000000000000000000000000000000000000000000000000081526004016121f790613fe6565b60405180910390fd5b61220861246b565b565b600060019054906101000a900460ff16612259576040517f08c379a000000000000000000000000000000000000000000000000000000000815260040161225090613fe6565b60405180910390fd5b6122616124cc565b565b61226b611d83565b6001609e60006101000a81548160ff0219169083151502179055507f62e78cea01bee320cd4e420270b5ea74000d11b0c9f74754ebdbfc544b05a2586122af61241a565b6040516122bc9190612efd565b60405180910390a1565b600060d0600083815260200190815260200160002060020160009054906101000a900473ffffffffffffffffffffffffffffffffffffffff169050600060d0600084815260200190815260200160002060030154905060d0600084815260200190815260200160002060010160009054906101000a900473ffffffffffffffffffffffffffffffffffffffff1673ffffffffffffffffffffffffffffffffffffffff1663a9059cbb83836040518363ffffffff1660e01b815260040161238d929190613392565b6020604051808303816000875af11580156123ac573d6000803e3d6000fd5b505050506040513d601f19601f820116820180604052508101906123d0919061331d565b50808273ffffffffffffffffffffffffffffffffffffffff167f44f6938ca4a10313aabb76f874cced61e35710a734a126e4afb34461bf8c250160405160405180910390a3505050565b600033905090565b61242a610be5565b612469576040517f08c379a000000000000000000000000000000000000000000000000000000000815260040161246090614052565b60405180910390fd5b565b600060019054906101000a900460ff166124ba576040517f08c379a00000000000000000000000000000000000000000000000000000000081526004016124b190613fe6565b60405180910390fd5b6124ca6124c561241a565b6120c8565b565b600060019054906101000a900460ff1661251b576040517f08c379a000000000000000000000000000000000000000000000000000000000815260040161251290613fe6565b60405180910390fd5b6000609e60006101000a81548160ff021916908315150217905550565b604051806040016040528060008019168152602001600080191681525090565b604051806101400160405280600073ffffffffffffffffffffffffffffffffffffffff168152602001600073ffffffffffffffffffffffffffffffffffffffff168152602001600073ffffffffffffffffffffffffffffffffffffffff168152602001600081526020016000815260200160006bffffffffffffffffffffffff168152602001600015158152602001600073ffffffffffffffffffffffffffffffffffffffff16815260200160006bffffffffffffffffffffffff168152602001600081525090565b604051806040016040528060008019168152602001600080191681525090565b6000604051905090565b600080fd5b600080fd5b6000819050919050565b61266881612655565b811461267357600080fd5b50565b6000813590506126858161265f565b92915050565b6000602082840312156126a1576126a061264b565b5b60006126af84828501612676565b91505092915050565b600081519050919050565b600082825260208201905092915050565b6000819050602082019050919050565b6126ed81612655565b82525050565b60408201600082015161270960008501826126e4565b50602082015161271c60208501826126e4565b50505050565b600061272e83836126f3565b60408301905092915050565b6000602082019050919050565b6000612752826126b8565b61275c81856126c3565b9350612767836126d4565b8060005b8381101561279857815161277f8882612722565b975061278a8361273a565b92505060018101905061276b565b5085935050505092915050565b600060208201905081810360008301526127bf8184612747565b905092915050565b600073ffffffffffffffffffffffffffffffffffffffff82169050919050565b60006127f2826127c7565b9050919050565b612802816127e7565b811461280d57600080fd5b50565b60008135905061281f816127f9565b92915050565b6000819050919050565b61283881612825565b811461284357600080fd5b50565b6000813590506128558161282f565b92915050565b60006bffffffffffffffffffffffff82169050919050565b61287c8161285b565b811461288757600080fd5b50565b60008135905061289981612873565b92915050565b600080fd5b600080fd5b600080fd5b60008083601f8401126128c4576128c361289f565b5b8235905067ffffffffffffffff8111156128e1576128e06128a4565b5b6020830191508360018202830111156128fd576128fc6128a9565b5b9250929050565b6000806000806000806000806000806101208b8d0312156129285761292761264b565b5b60006129368d828e01612810565b9a505060206129478d828e01612846565b99505060406129588d828e01612676565b98505060606129698d828e01612676565b975050608061297a8d828e0161288a565b96505060a061298b8d828e01612810565b95505060c061299c8d828e01612846565b94505060e06129ad8d828e01612810565b9350506101008b013567ffffffffffffffff8111156129cf576129ce612650565b5b6129db8d828e016128ae565b92509250509295989b9194979a5092959850565b6129f881612655565b82525050565b6000602082019050612a1360008301846129ef565b92915050565b6000601f19601f8301169050919050565b7f4e487b7100000000000000000000000000000000000000000000000000000000600052604160045260246000fd5b612a6282612a19565b810181811067ffffffffffffffff82111715612a8157612a80612a2a565b5b80604052505050565b6000612a94612641565b9050612aa08282612a59565b919050565b600067ffffffffffffffff821115612ac057612abf612a2a565b5b602082029050602081019050919050565b600080fd5b600060408284031215612aec57612aeb612ad1565b5b612af66040612a8a565b90506000612b0684828501612676565b6000830152506020612b1a84828501612676565b60208301525092915050565b6000612b39612b3484612aa5565b612a8a565b90508083825260208201905060408402830185811115612b5c57612b5b6128a9565b5b835b81811015612b855780612b718882612ad6565b845260208401935050604081019050612b5e565b5050509392505050565b600082601f830112612ba457612ba361289f565b5b8135612bb4848260208601612b26565b91505092915050565b60008060408385031215612bd457612bd361264b565b5b6000612be285828601612676565b925050602083013567ffffffffffffffff811115612c0357612c02612650565b5b612c0f85828601612b8f565b9150509250929050565b600081519050919050565b600082825260208201905092915050565b60005b83811015612c53578082015181840152602081019050612c38565b60008484015250505050565b6000612c6a82612c19565b612c748185612c24565b9350612c84818560208601612c35565b612c8d81612a19565b840191505092915050565b60006020820190508181036000830152612cb28184612c5f565b905092915050565b60008115159050919050565b612ccf81612cba565b82525050565b6000602082019050612cea6000830184612cc6565b92915050565b600060208284031215612d0657612d0561264b565b5b6000612d1484828501612810565b91505092915050565b612d26816127e7565b82525050565b612d3581612825565b82525050565b612d448161285b565b82525050565b612d5381612cba565b82525050565b61014082016000820151612d706000850182612d1d565b506020820151612d836020850182612d1d565b506040820151612d966040850182612d1d565b506060820151612da96060850182612d2c565b506080820151612dbc6080850182612d2c565b5060a0820151612dcf60a0850182612d3b565b5060c0820151612de260c0850182612d4a565b5060e0820151612df560e0850182612d1d565b50610100820151612e0a610100850182612d3b565b50610120820151612e1f610120850182612d2c565b50505050565b600061014082019050612e3b6000830184612d59565b92915050565b60008060408385031215612e5857612e5761264b565b5b6000612e6685828601612676565b9250506020612e7785828601612810565b9150509250929050565b600067ffffffffffffffff82169050919050565b612e9e81612e81565b8114612ea957600080fd5b50565b600081359050612ebb81612e95565b92915050565b600060208284031215612ed757612ed661264b565b5b6000612ee584828501612eac565b91505092915050565b612ef7816127e7565b82525050565b6000602082019050612f126000830184612eee565b92915050565b600080600080600060a08688031215612f3457612f3361264b565b5b6000612f4288828901612676565b9550506020612f5388828901612676565b9450506040612f6488828901612676565b9350506060612f7588828901612810565b9250506080612f8688828901612eac565b9150509295509295909350565b6000604082019050612fa860008301856129ef565b612fb56020830184612eee565b9392505050565b612fc581612cba565b8114612fd057600080fd5b50565b600081359050612fe281612fbc565b92915050565b6000806000606084860312156130015761300061264b565b5b600061300f86828701612676565b935050602061302086828701612810565b925050604061303186828701612fd3565b9150509250925092565b61304481612e81565b82525050565b61305381612825565b82525050565b600060408201905061306e600083018561303b565b61307b602083018461304a565b9392505050565b60408201600082015161309860008501826126e4565b5060208201516130ab60208501826126e4565b50505050565b60006040820190506130c66000830184613082565b92915050565b60008083601f8401126130e2576130e161289f565b5b8235905067ffffffffffffffff8111156130ff576130fe6128a4565b5b60208301915083600182028301111561311b5761311a6128a9565b5b9250929050565b600080602083850312156131395761313861264b565b5b600083013567ffffffffffffffff81111561315757613156612650565b5b613163858286016130cc565b92509250509250929050565b6000806000606084860312156131885761318761264b565b5b600061319686828701612846565b93505060206131a786828701612676565b92505060406131b886828701612676565b9150509250925092565b7f4e487b7100000000000000000000000000000000000000000000000000000000600052603260045260246000fd5b600082825260208201905092915050565b7f496e76616c69644d657373616765486173680000000000000000000000000000600082015250565b60006132386012836131f1565b915061324382613202565b602082019050919050565b600060208201905081810360008301526132678161322b565b9050919050565b7f4e487b7100000000000000000000000000000000000000000000000000000000600052601160045260246000fd5b60006132a882612825565b91506132b383612825565b92508282019050808211156132cb576132ca61326e565b5b92915050565b60006060820190506132e66000830186612eee565b6132f36020830185612eee565b613300604083018461304a565b949350505050565b60008151905061331781612fbc565b92915050565b6000602082840312156133335761333261264b565b5b600061334184828501613308565b91505092915050565b600061335582612825565b91507fffffffffffffffffffffffffffffffffffffffffffffffffffffffffffffffff82036133875761338661326e565b5b600182019050919050565b60006040820190506133a76000830185612eee565b6133b4602083018461304a565b9392505050565b60006133c682612825565b91506133d183612825565b92508282026133df81612825565b915082820484148315176133f6576133f561326e565b5b5092915050565b7f4e487b7100000000000000000000000000000000000000000000000000000000600052601260045260246000fd5b600061343782612825565b915061344283612825565b925082613452576134516133fd565b5b828204905092915050565b600061346882612825565b915061347383612825565b925082820390508181111561348b5761348a61326e565b5b92915050565b6000819050919050565b60006134b66134b16134ac8461285b565b613491565b612825565b9050919050565b6134c68161349b565b82525050565b82818337600083830152505050565b60006134e783856131f1565b93506134f48385846134cc565b6134fd83612a19565b840190509392505050565b600060a08201905061351d600083018961304a565b61352a60208301886134bd565b61353760408301876129ef565b61354460608301866129ef565b81810360808301526135578184866134db565b9050979650505050505050565b7f4e487b7100000000000000000000000000000000000000000000000000000000600052602260045260246000fd5b600060028204905060018216806135ab57607f821691505b6020821081036135be576135bd613564565b5b50919050565b7f50617963726573743a207a65726f206164647265737300000000000000000000600082015250565b60006135fa6016836131f1565b9150613605826135c4565b602082019050919050565b60006020820190508181036000830152613629816135ed565b9050919050565b7f496e697469616c697a61626c653a20636f6e747261637420697320616c72656160008201527f647920696e697469616c697a6564000000000000000000000000000000000000602082015250565b600061368c602e836131f1565b915061369782613630565b604082019050919050565b600060208201905081810360008301526136bb8161367f565b9050919050565b6000819050919050565b600060ff82169050919050565b60006136f46136ef6136ea846136c2565b613491565b6136cc565b9050919050565b613704816136d9565b82525050565b600060208201905061371f60008301846136fb565b92915050565b600060208201905061373a600083018461303b565b92915050565b7f4f6e6c7941676772656761746f72000000000000000000000000000000000000600082015250565b6000613776600e836131f1565b915061378182613740565b602082019050919050565b600060208201905081810360008301526137a581613769565b9050919050565b7f4f7264657246756c66696c6c6564000000000000000000000000000000000000600082015250565b60006137e2600e836131f1565b91506137ed826137ac565b602082019050919050565b60006020820190508181036000830152613811816137d5565b9050919050565b60006138238261285b565b915061382e8361285b565b925082820390506bffffffffffffffffffffffff8111156138525761385161326e565b5b92915050565b600061387361386e61386984612e81565b613491565b61285b565b9050919050565b61388381613858565b82525050565b600060608201905061389e60008301866129ef565b6138ab60208301856129ef565b6138b8604083018461387a565b949350505050565b60006060820190506138d560008301866129ef565b6138e26020830185612eee565b6138ef6040830184612cc6565b949350505050565b600082905092915050565b60008190508160005260206000209050919050565b60006020601f8301049050919050565b600082821b905092915050565b6000600883026139647fffffffffffffffffffffffffffffffffffffffffffffffffffffffffffffffff82613927565b61396e8683613927565b95508019841693508086168417925050509392505050565b60006139a161399c61399784612825565b613491565b612825565b9050919050565b6000819050919050565b6139bb83613986565b6139cf6139c7826139a8565b848454613934565b825550505050565b600090565b6139e46139d7565b6139ef8184846139b2565b505050565b5b81811015613a1357613a086000826139dc565b6001810190506139f5565b5050565b601f821115613a5857613a2981613902565b613a3284613917565b81016020851015613a41578190505b613a55613a4d85613917565b8301826139f4565b50505b505050565b600082821c905092915050565b6000613a7b60001984600802613a5d565b1980831691505092915050565b6000613a948383613a6a565b9150826002028217905092915050565b613aae83836138f7565b67ffffffffffffffff811115613ac757613ac6612a2a565b5b613ad18254613593565b613adc828285613a17565b6000601f831160018114613b0b5760008415613af9578287013590505b613b038582613a88565b865550613b6b565b601f198416613b1986613902565b60005b82811015613b4157848901358255600182019150602085019450602081019050613b1c565b86831015613b5e5784890135613b5a601f891682613a6a565b8355505b6001600288020188555050505b50505050505050565b6000613b808385612c24565b9350613b8d8385846134cc565b613b9683612a19565b840190509392505050565b60006020820190508181036000830152613bbc818486613b74565b90509392505050565b6000604082019050613bda600083018561304a565b613be760208301846129ef565b9392505050565b7f4f776e61626c653a206e6577206f776e657220697320746865207a65726f206160008201527f6464726573730000000000000000000000000000000000000000000000000000602082015250565b6000613c4a6026836131f1565b9150613c5582613bee565b604082019050919050565b60006020820190508181036000830152613c7981613c3d565b9050919050565b7f5061757361626c653a2070617573656400000000000000000000000000000000600082015250565b6000613cb66010836131f1565b9150613cc182613c80565b602082019050919050565b60006020820190508181036000830152613ce581613ca9565b9050919050565b7f546f6b656e4e6f74537570706f72746564000000000000000000000000000000600082015250565b6000613d226011836131f1565b9150613d2d82613cec565b602082019050919050565b60006020820190508181036000830152613d5181613d15565b9050919050565b7f416d6f756e7449735a65726f0000000000000000000000000000000000000000600082015250565b6000613d8e600c836131f1565b9150613d9982613d58565b602082019050919050565b60006020820190508181036000830152613dbd81613d81565b9050919050565b7f5468726f775a65726f4164647265737300000000000000000000000000000000600082015250565b6000613dfa6010836131f1565b9150613e0582613dc4565b602082019050919050565b60006020820190508181036000830152613e2981613ded565b9050919050565b7f496e76616c6964496e737469747574696f6e436f646500000000000000000000600082015250565b6000613e666016836131f1565b9150613e7182613e30565b602082019050919050565b60006020820190508181036000830152613e9581613e59565b9050919050565b7f496e76616c696453656e646572466565526563697069656e7400000000000000600082015250565b6000613ed26019836131f1565b9150613edd82613e9c565b602082019050919050565b60006020820190508181036000830152613f0181613ec5565b9050919050565b7f4f776e61626c653a2063616c6c6572206973206e6f7420746865206f776e6572600082015250565b6000613f3e6020836131f1565b9150613f4982613f08565b602082019050919050565b60006020820190508181036000830152613f6d81613f31565b9050919050565b7f496e697469616c697a61626c653a20636f6e7472616374206973206e6f74206960008201527f6e697469616c697a696e67000000000000000000000000000000000000000000602082015250565b6000613fd0602b836131f1565b9150613fdb82613f74565b604082019050919050565b60006020820190508181036000830152613fff81613fc3565b9050919050565b7f5061757361626c653a206e6f7420706175736564000000000000000000000000600082015250565b600061403c6014836131f1565b915061404782614006565b602082019050919050565b6000602082019050818103600083015261406b8161402f565b905091905056fea26469706673582212206930b04c15c4dff0d92cd7f911b541aa9d5d298ac390721bd8698efec601b1d564736f6c63430008120033",
  "linkReferences": {},
  "deployedLinkReferences": {}
}