{
  "_format": "hh-sol-artifact-1",
  "contractName": "Paycrest",
  "sourceName": "contracts/Paycrest.sol",
  "abi": [
    {
      "inputs": [],
      "stateMutability": "nonpayable",
      "type": "constructor"
    },
    {
      "inputs": [],
      "name": "AmountIsZero",
      "type": "error"
    },
    {
      "inputs": [],
      "name": "InvalidInstitutionCode",
      "type": "error"
    },
    {
      "inputs": [
        {
          "internalType": "bytes32",
          "name": "what",
          "type": "bytes32"
        }
      ],
      "name": "InvalidParameter",
      "type": "error"
    },
    {
      "inputs": [],
      "name": "InvalidSigner",
      "type": "error"
    },
    {
      "inputs": [],
      "name": "NotWhitelisted",
      "type": "error"
    },
    {
      "inputs": [],
      "name": "OnlyAggregator",
      "type": "error"
    },
    {
      "inputs": [],
      "name": "OrderFulfilled",
      "type": "error"
    },
    {
      "inputs": [],
      "name": "ThrowZeroAddress",
      "type": "error"
    },
    {
      "inputs": [],
      "name": "ThrowZeroValue",
      "type": "error"
    },
    {
      "inputs": [],
      "name": "TokenNotSupported",
      "type": "error"
    },
    {
      "inputs": [],
      "name": "UnableToProcessRewards",
      "type": "error"
    },
    {
      "inputs": [],
      "name": "Unsuported",
      "type": "error"
    },
    {
      "anonymous": false,
      "inputs": [
        {
          "indexed": true,
          "internalType": "address",
          "name": "token",
          "type": "address"
        },
        {
          "indexed": true,
          "internalType": "uint256",
          "name": "amount",
          "type": "uint256"
        },
        {
          "indexed": true,
          "internalType": "bytes32",
          "name": "orderId",
          "type": "bytes32"
        },
        {
          "indexed": false,
          "internalType": "uint256",
          "name": "rate",
          "type": "uint256"
        },
        {
          "indexed": false,
          "internalType": "bytes32",
          "name": "institutionCode",
          "type": "bytes32"
        },
        {
          "indexed": false,
          "internalType": "string",
          "name": "messageHash",
          "type": "string"
        }
      ],
      "name": "Deposit",
      "type": "event"
    },
    {
      "anonymous": false,
      "inputs": [
        {
          "indexed": false,
          "internalType": "uint8",
          "name": "version",
          "type": "uint8"
        }
      ],
      "name": "Initialized",
      "type": "event"
    },
    {
      "anonymous": false,
      "inputs": [
        {
          "indexed": true,
          "internalType": "address",
          "name": "previousOwner",
          "type": "address"
        },
        {
          "indexed": true,
          "internalType": "address",
          "name": "newOwner",
          "type": "address"
        }
      ],
      "name": "OwnershipTransferred",
      "type": "event"
    },
    {
      "anonymous": false,
      "inputs": [
        {
          "indexed": false,
          "internalType": "uint128",
          "name": "protocolFee",
          "type": "uint128"
        },
        {
          "indexed": false,
          "internalType": "uint128",
          "name": "validatorFeePercent",
          "type": "uint128"
        }
      ],
      "name": "PaycrestFees",
      "type": "event"
    },
    {
      "anonymous": false,
      "inputs": [
        {
          "indexed": true,
          "internalType": "bytes32",
          "name": "orderId",
          "type": "bytes32"
        }
      ],
      "name": "Refunded",
      "type": "event"
    },
    {
      "anonymous": false,
      "inputs": [
        {
          "indexed": true,
          "internalType": "address",
          "name": "validator",
          "type": "address"
        },
        {
          "indexed": true,
          "internalType": "uint256",
          "name": "amount",
          "type": "uint256"
        }
      ],
      "name": "RewardValidator",
      "type": "event"
    },
    {
      "anonymous": false,
      "inputs": [
        {
          "indexed": false,
          "internalType": "bytes32",
          "name": "what",
          "type": "bytes32"
        },
        {
          "indexed": false,
          "internalType": "address",
          "name": "value",
          "type": "address"
        },
        {
          "indexed": false,
          "internalType": "bool",
          "name": "status",
          "type": "bool"
        }
      ],
      "name": "SettingManagerBool",
      "type": "event"
    },
    {
      "anonymous": false,
      "inputs": [
        {
          "indexed": false,
          "internalType": "bytes32",
          "name": "what",
          "type": "bytes32"
        },
        {
          "indexed": false,
          "internalType": "bytes8",
          "name": "value",
          "type": "bytes8"
        },
        {
          "indexed": false,
          "internalType": "bytes8",
          "name": "status",
          "type": "bytes8"
        }
      ],
      "name": "SettingManagerForInstitution",
      "type": "event"
    },
    {
      "anonymous": false,
      "inputs": [
        {
          "indexed": false,
          "internalType": "bytes32",
          "name": "_splitOrderId",
          "type": "bytes32"
        },
        {
          "indexed": true,
          "internalType": "bytes32",
          "name": "orderId",
          "type": "bytes32"
        },
        {
          "indexed": true,
          "internalType": "address",
          "name": "liquidityProvider",
          "type": "address"
        },
        {
          "indexed": false,
          "internalType": "uint96",
          "name": "settlePercent",
          "type": "uint96"
        }
      ],
      "name": "Settled",
      "type": "event"
    },
    {
      "anonymous": false,
      "inputs": [
        {
          "indexed": true,
          "internalType": "address",
          "name": "sender",
          "type": "address"
        },
        {
          "indexed": true,
          "internalType": "uint256",
          "name": "amount",
          "type": "uint256"
        }
      ],
      "name": "TransferSenderFee",
      "type": "event"
    },
    {
      "inputs": [
        {
          "internalType": "address",
          "name": "_token",
          "type": "address"
        },
        {
          "internalType": "uint256",
          "name": "_amount",
          "type": "uint256"
        },
        {
          "internalType": "bytes32",
          "name": "_institutionCode",
          "type": "bytes32"
        },
        {
          "internalType": "uint96",
          "name": "_rate",
          "type": "uint96"
        },
        {
          "internalType": "address",
          "name": "_senderFeeRecipient",
          "type": "address"
        },
        {
          "internalType": "uint256",
          "name": "_senderFee",
          "type": "uint256"
        },
        {
          "internalType": "address",
          "name": "_refundAddress",
          "type": "address"
        },
        {
          "internalType": "string",
          "name": "messageHash",
          "type": "string"
        }
      ],
      "name": "createOrder",
      "outputs": [
        {
          "internalType": "bytes32",
          "name": "orderId",
          "type": "bytes32"
        }
      ],
      "stateMutability": "nonpayable",
      "type": "function"
    },
    {
      "inputs": [],
      "name": "getFeeDetails",
      "outputs": [
        {
          "internalType": "uint128",
          "name": "",
          "type": "uint128"
        },
        {
          "internalType": "uint128",
          "name": "",
          "type": "uint128"
        },
        {
          "internalType": "uint256",
          "name": "",
          "type": "uint256"
        }
      ],
      "stateMutability": "view",
      "type": "function"
    },
    {
      "inputs": [],
      "name": "getLiquidityAggregator",
      "outputs": [
        {
          "internalType": "address",
          "name": "",
          "type": "address"
        }
      ],
      "stateMutability": "view",
      "type": "function"
    },
    {
      "inputs": [
        {
          "internalType": "bytes32",
          "name": "_orderId",
          "type": "bytes32"
        }
      ],
      "name": "getOrderInfo",
      "outputs": [
        {
          "components": [
            {
              "internalType": "address",
              "name": "seller",
              "type": "address"
            },
            {
              "internalType": "address",
              "name": "token",
              "type": "address"
            },
            {
              "internalType": "address",
              "name": "senderFeeRecipient",
              "type": "address"
            },
            {
              "internalType": "uint256",
              "name": "senderFee",
              "type": "uint256"
            },
            {
              "internalType": "uint96",
              "name": "rate",
              "type": "uint96"
            },
            {
              "internalType": "bool",
              "name": "isFulfilled",
              "type": "bool"
            },
            {
              "internalType": "address",
              "name": "refundAddress",
              "type": "address"
            },
            {
              "internalType": "uint96",
              "name": "currentBPS",
              "type": "uint96"
            },
            {
              "internalType": "uint256",
              "name": "amount",
              "type": "uint256"
            }
          ],
          "internalType": "struct IPaycrest.Order",
          "name": "",
          "type": "tuple"
        }
      ],
      "stateMutability": "view",
      "type": "function"
    },
    {
      "inputs": [
        {
          "internalType": "bytes32",
          "name": "code",
          "type": "bytes32"
        }
      ],
      "name": "getSupportedInstitutionName",
      "outputs": [
        {
          "components": [
            {
              "internalType": "bytes32",
              "name": "name",
              "type": "bytes32"
            },
            {
              "internalType": "bytes32",
              "name": "currency",
              "type": "bytes32"
            }
          ],
          "internalType": "struct PaycrestSettingManager.InstitutionByCode",
          "name": "",
          "type": "tuple"
        }
      ],
      "stateMutability": "view",
      "type": "function"
    },
    {
      "inputs": [
        {
          "internalType": "bytes32",
          "name": "currency",
          "type": "bytes32"
        }
      ],
      "name": "getSupportedInstitutions",
      "outputs": [
        {
          "components": [
            {
              "internalType": "bytes32",
              "name": "code",
              "type": "bytes32"
            },
            {
              "internalType": "bytes32",
              "name": "name",
              "type": "bytes32"
            }
          ],
          "internalType": "struct PaycrestSettingManager.Institution[]",
          "name": "",
          "type": "tuple[]"
        }
      ],
      "stateMutability": "view",
      "type": "function"
    },
    {
      "inputs": [
        {
          "internalType": "address",
          "name": "sender",
          "type": "address"
        }
      ],
      "name": "getWhitelistedStatus",
      "outputs": [
        {
          "internalType": "bool",
          "name": "",
          "type": "bool"
        }
      ],
      "stateMutability": "view",
      "type": "function"
    },
    {
      "inputs": [
        {
          "internalType": "address",
          "name": "_usdc",
          "type": "address"
        }
      ],
      "name": "initialize",
      "outputs": [],
      "stateMutability": "nonpayable",
      "type": "function"
    },
    {
      "inputs": [
        {
          "internalType": "address",
          "name": "_token",
          "type": "address"
        }
      ],
      "name": "isTokenSupported",
      "outputs": [
        {
          "internalType": "bool",
          "name": "",
          "type": "bool"
        }
      ],
      "stateMutability": "view",
      "type": "function"
    },
    {
      "inputs": [],
      "name": "owner",
      "outputs": [
        {
          "internalType": "address",
          "name": "",
          "type": "address"
        }
      ],
      "stateMutability": "view",
      "type": "function"
    },
    {
      "inputs": [
        {
          "internalType": "bytes32",
          "name": "_orderId",
          "type": "bytes32"
        }
      ],
      "name": "refund",
      "outputs": [
        {
          "internalType": "bool",
          "name": "",
          "type": "bool"
        }
      ],
      "stateMutability": "nonpayable",
      "type": "function"
    },
    {
      "inputs": [],
      "name": "renounceOwnership",
      "outputs": [],
      "stateMutability": "nonpayable",
      "type": "function"
    },
    {
      "inputs": [
        {
          "internalType": "bytes32",
          "name": "currency",
          "type": "bytes32"
        },
        {
          "components": [
            {
              "internalType": "bytes32",
              "name": "code",
              "type": "bytes32"
            },
            {
              "internalType": "bytes32",
              "name": "name",
              "type": "bytes32"
            }
          ],
          "internalType": "struct PaycrestSettingManager.Institution[]",
          "name": "institutions",
          "type": "tuple[]"
        }
      ],
      "name": "setSupportedInstitutions",
      "outputs": [],
      "stateMutability": "nonpayable",
      "type": "function"
    },
    {
      "inputs": [
        {
          "internalType": "bytes32",
          "name": "what",
          "type": "bytes32"
        },
        {
          "internalType": "address",
          "name": "value",
          "type": "address"
        },
        {
          "internalType": "bool",
          "name": "status",
          "type": "bool"
        }
      ],
      "name": "settingManagerBool",
      "outputs": [],
      "stateMutability": "nonpayable",
      "type": "function"
    },
    {
      "inputs": [
        {
          "internalType": "bytes32",
          "name": "_splitOrderId",
          "type": "bytes32"
        },
        {
          "internalType": "bytes32",
          "name": "_orderId",
          "type": "bytes32"
        },
        {
          "internalType": "address[]",
          "name": "_validators",
          "type": "address[]"
        },
        {
          "internalType": "address",
          "name": "_liquidityProvider",
          "type": "address"
        },
        {
          "internalType": "uint96",
          "name": "_settlePercent",
          "type": "uint96"
        }
      ],
      "name": "settle",
      "outputs": [
        {
          "internalType": "bytes32",
          "name": "",
          "type": "bytes32"
        },
        {
          "internalType": "address",
          "name": "",
          "type": "address"
        }
      ],
      "stateMutability": "nonpayable",
      "type": "function"
    },
    {
      "inputs": [
        {
          "internalType": "address",
          "name": "newOwner",
          "type": "address"
        }
      ],
      "name": "transferOwnership",
      "outputs": [],
      "stateMutability": "nonpayable",
      "type": "function"
    },
    {
      "inputs": [
        {
          "internalType": "bytes32",
          "name": "what",
          "type": "bytes32"
        },
        {
          "internalType": "address",
          "name": "value",
          "type": "address"
        }
      ],
      "name": "updateProtocolAddresses",
      "outputs": [],
      "stateMutability": "nonpayable",
      "type": "function"
    },
    {
      "inputs": [
        {
          "internalType": "uint128",
          "name": "_protocolFeePercent",
          "type": "uint128"
        },
        {
          "internalType": "uint128",
          "name": "_validatorFeePercent",
          "type": "uint128"
        }
      ],
      "name": "updateProtocolFees",
      "outputs": [],
      "stateMutability": "nonpayable",
      "type": "function"
    },
    {
      "inputs": [
        {
          "internalType": "address",
          "name": "_token",
          "type": "address"
        },
        {
          "internalType": "address",
          "name": "_recipient",
          "type": "address"
        },
        {
          "internalType": "uint256",
          "name": "_amount",
          "type": "uint256"
        }
      ],
      "name": "withdraw",
      "outputs": [],
      "stateMutability": "nonpayable",
      "type": "function"
    }
  ],
  "bytecode": "0x60806040523480156200001157600080fd5b50620000226200002860201b60201c565b620001d2565b600060019054906101000a900460ff16156200007b576040517f08c379a0000000000000000000000000000000000000000000000000000000008152600401620000729062000175565b60405180910390fd5b60ff801660008054906101000a900460ff1660ff1614620000ec5760ff6000806101000a81548160ff021916908360ff1602179055507f7f26b83ff96e1f2b6a682f133852f6798a09c465da95921460cefb384740249860ff604051620000e39190620001b5565b60405180910390a15b565b600082825260208201905092915050565b7f496e697469616c697a61626c653a20636f6e747261637420697320696e69746960008201527f616c697a696e6700000000000000000000000000000000000000000000000000602082015250565b60006200015d602783620000ee565b91506200016a82620000ff565b604082019050919050565b6000602082019050818103600083015262000190816200014e565b9050919050565b600060ff82169050919050565b620001af8162000197565b82525050565b6000602082019050620001cc6000830184620001a4565b92915050565b61384a80620001e26000396000f3fe608060405234801561001057600080fd5b50600436106101215760003560e01c806387490d86116100ad578063d12ff20a11610071578063d12ff20a1461031d578063d8e8de341461034d578063d9caed121461037d578063f2fde38b14610399578063f5326b19146103b557610121565b806387490d86146102775780638da5cb5b146102a757806399e3c0b4146102c5578063b810c636146102e1578063c4d66de81461030157610121565b8063715018a6116100f4578063715018a6146101c15780637249fbb6146101cb57806375151b63146101fb578063768c6ec01461022b57806379a0effb1461025b57610121565b806302621338146101265780632ebc5356146101565780633220088214610174578063384efd2714610190575b600080fd5b610140600480360381019061013b919061254e565b6103d1565b60405161014d9190612668565b60405180910390f35b61015e61050f565b60405161016b91906126cb565b60405180910390f35b61018e60048036038101906101899190612894565b610539565b005b6101aa60048036038101906101a591906129bb565b61064d565b6040516101b8929190612a64565b60405180910390f35b6101c9610b5d565b005b6101e560048036038101906101e0919061254e565b610b71565b6040516101f29190612aa8565b60405180910390f35b61021560048036038101906102109190612ac3565b610e0a565b6040516102229190612aa8565b60405180910390f35b6102456004803603810190610240919061254e565b610e60565b6040516102529190612bed565b60405180910390f35b61027560048036038101906102709190612c09565b611091565b005b610291600480360381019061028c919061254e565b6111d5565b60405161029e9190612c78565b60405180910390f35b6102af611216565b6040516102bc91906126cb565b60405180910390f35b6102df60048036038101906102da9190612cbf565b611240565b005b6102e961142d565b6040516102f893929190612d4c565b60405180910390f35b61031b60048036038101906103169190612ac3565b61147e565b005b61033760048036038101906103329190612e05565b611695565b6040516103449190612edb565b60405180910390f35b61036760048036038101906103629190612ac3565b611ad5565b6040516103749190612aa8565b60405180910390f35b61039760048036038101906103929190612ef6565b611b2b565b005b6103b360048036038101906103ae9190612ac3565b611bb7565b005b6103cf60048036038101906103ca9190612f75565b611c3a565b005b60606000606b6000848152602001908152602001600020805480602002602001604051908101604052809291908181526020016000905b8282101561044e57838290600052602060002090600202016040518060400160405290816000820154815260200160018201548152505081526020019060010190610408565b50505050905060008151905060008167ffffffffffffffff811115610476576104756126fc565b5b6040519080825280602002602001820160405280156104af57816020015b61049c6123e1565b8152602001906001900390816104945790505b50905060005b82811015610503578381815181106104d0576104cf612fb5565b5b60200260200101518282815181106104eb576104ea612fb5565b5b602002602001018190525080806001019150506104b5565b50809350505050919050565b6000606860009054906101000a900473ffffffffffffffffffffffffffffffffffffffff16905090565b610541611cf1565b60008151905060005b8181101561064757606b600085815260200190815260200160002083828151811061057857610577612fb5565b5b602002602001015190806001815401808255809150506001900390600052602060002090600202016000909190919091506000820151816000015560208201518160010155505060405180604001604052808483815181106105dd576105dc612fb5565b5b602002602001015160200151815260200185815250606c600085848151811061060957610608612fb5565b5b60200260200101516000015181526020019081526020016000206000820151816000015560208201518160010155905050808060010191505061054a565b50505050565b600080606860009054906101000a900473ffffffffffffffffffffffffffffffffffffffff1673ffffffffffffffffffffffffffffffffffffffff163373ffffffffffffffffffffffffffffffffffffffff16146106d7576040517fe9d8299200000000000000000000000000000000000000000000000000000000815260040160405180910390fd5b606d6000888152602001908152602001600020600401600c9054906101000a900460ff1615610732576040517f56f1733f00000000000000000000000000000000000000000000000000000000815260040160405180910390fd5b6000606d600089815260200190815260200160002060010160009054906101000a900473ffffffffffffffffffffffffffffffffffffffff16905083606d60008a815260200190815260200160002060050160148282829054906101000a90046bffffffffffffffffffffffff166107aa9190613013565b92506101000a8154816bffffffffffffffffffffffff02191690836bffffffffffffffffffffffff1602179055506000606d60008a815260200190815260200160002060050160149054906101000a90046bffffffffffffffffffffffff166bffffffffffffffffffffffff160361084c576001606d60008a8152602001908152602001600020600401600c6101000a81548160ff0219169083151502179055505b60006108588986611d6f565b90506000606d60008b81526020019081526020016000206003015490506000811115610888576108878a611ed3565b5b8273ffffffffffffffffffffffffffffffffffffffff1663a9059cbb606760009054906101000a900473ffffffffffffffffffffffffffffffffffffffff1684600001516040518363ffffffff1660e01b81526004016108e9929190613053565b6020604051808303816000875af1158015610908573d6000803e3d6000fd5b505050506040513d601f19601f8201168201806040525081019061092c9190613091565b508273ffffffffffffffffffffffffffffffffffffffff1663a9059cbb8884602001516040518363ffffffff1660e01b815260040161096c929190613053565b6020604051808303816000875af115801561098b573d6000803e3d6000fd5b505050506040513d601f19601f820116820180604052508101906109af9190613091565b50600089899050905060008184604001516109ca91906130ed565b905060005b82811015610af5578573ffffffffffffffffffffffffffffffffffffffff1663a9059cbb8d8d84818110610a0657610a05612fb5565b5b9050602002016020810190610a1b9190612ac3565b846040518363ffffffff1660e01b8152600401610a39929190613053565b6020604051808303816000875af1158015610a58573d6000803e3d6000fd5b505050506040513d601f19601f82011682018060405250810190610a7c9190613091565b50818c8c83818110610a9157610a90612fb5565b5b9050602002016020810190610aa69190612ac3565b73ffffffffffffffffffffffffffffffffffffffff167f61dceb70b8f97239c33a3f9c0d0efc6c8759c7e9a808f75dd42b3a0f213186c260405160405180910390a380806001019150506109cf565b508873ffffffffffffffffffffffffffffffffffffffff168c7f7b5664d3710676924bf38f3d89d38a62db3aa5fca4213adf6fa36e51c3cfc8548f8b604051610b3f92919061312d565b60405180910390a38b85965096505050505050965096945050505050565b610b65611cf1565b610b6f6000612027565b565b6000606860009054906101000a900473ffffffffffffffffffffffffffffffffffffffff1673ffffffffffffffffffffffffffffffffffffffff163373ffffffffffffffffffffffffffffffffffffffff1614610bfa576040517fe9d8299200000000000000000000000000000000000000000000000000000000815260040160405180910390fd5b606d6000838152602001908152602001600020600401600c9054906101000a900460ff1615610c5e576040517f08c379a0000000000000000000000000000000000000000000000000000000008152600401610c55906131b3565b60405180910390fd5b6001606d6000848152602001908152602001600020600401600c6101000a81548160ff0219169083151502179055506000606d600084815260200190815260200160002060050160146101000a8154816bffffffffffffffffffffffff02191690836bffffffffffffffffffffffff160217905550606d600083815260200190815260200160002060010160009054906101000a900473ffffffffffffffffffffffffffffffffffffffff1673ffffffffffffffffffffffffffffffffffffffff1663a9059cbb606d600085815260200190815260200160002060050160009054906101000a900473ffffffffffffffffffffffffffffffffffffffff16606d6000868152602001908152602001600020600601546040518363ffffffff1660e01b8152600401610d90929190613053565b6020604051808303816000875af1158015610daf573d6000803e3d6000fd5b505050506040513d601f19601f82011682018060405250810190610dd39190613091565b50817ffe509803c09416b28ff3d8f690c8b0c61462a892c46d5430c8fb20abe472daf060405160405180910390a260019050919050565b6000606960008373ffffffffffffffffffffffffffffffffffffffff1673ffffffffffffffffffffffffffffffffffffffff16815260200190815260200160002060009054906101000a900460ff169050919050565b610e68612401565b606d6000838152602001908152602001600020604051806101200160405290816000820160009054906101000a900473ffffffffffffffffffffffffffffffffffffffff1673ffffffffffffffffffffffffffffffffffffffff1673ffffffffffffffffffffffffffffffffffffffff1681526020016001820160009054906101000a900473ffffffffffffffffffffffffffffffffffffffff1673ffffffffffffffffffffffffffffffffffffffff1673ffffffffffffffffffffffffffffffffffffffff1681526020016002820160009054906101000a900473ffffffffffffffffffffffffffffffffffffffff1673ffffffffffffffffffffffffffffffffffffffff1673ffffffffffffffffffffffffffffffffffffffff168152602001600382015481526020016004820160009054906101000a90046bffffffffffffffffffffffff166bffffffffffffffffffffffff166bffffffffffffffffffffffff16815260200160048201600c9054906101000a900460ff161515151581526020016005820160009054906101000a900473ffffffffffffffffffffffffffffffffffffffff1673ffffffffffffffffffffffffffffffffffffffff1673ffffffffffffffffffffffffffffffffffffffff1681526020016005820160149054906101000a90046bffffffffffffffffffffffff166bffffffffffffffffffffffff166bffffffffffffffffffffffff1681526020016006820154815250509050919050565b611099611cf1565b600073ffffffffffffffffffffffffffffffffffffffff168173ffffffffffffffffffffffffffffffffffffffff16036110ff576040517f9c8e2b5d00000000000000000000000000000000000000000000000000000000815260040160405180910390fd5b7f666565000000000000000000000000000000000000000000000000000000000082036111685780606760006101000a81548173ffffffffffffffffffffffffffffffffffffffff021916908373ffffffffffffffffffffffffffffffffffffffff1602179055505b7f61676772656761746f720000000000000000000000000000000000000000000082036111d15780606860006101000a81548173ffffffffffffffffffffffffffffffffffffffff021916908373ffffffffffffffffffffffffffffffffffffffff1602179055505b5050565b6111dd6124c3565b606c6000838152602001908152602001600020604051806040016040529081600082015481526020016001820154815250509050919050565b6000603360009054906101000a900473ffffffffffffffffffffffffffffffffffffffff16905090565b611248611cf1565b600073ffffffffffffffffffffffffffffffffffffffff168273ffffffffffffffffffffffffffffffffffffffff16036112ae576040517f9c8e2b5d00000000000000000000000000000000000000000000000000000000815260040160405180910390fd5b7f746f6b656e000000000000000000000000000000000000000000000000000000830361132d5780606960008473ffffffffffffffffffffffffffffffffffffffff1673ffffffffffffffffffffffffffffffffffffffff16815260200190815260200160002060006101000a81548160ff0219169083151502179055505b7f77686974656c697374000000000000000000000000000000000000000000000083036113b05780606a60008473ffffffffffffffffffffffffffffffffffffffff1673ffffffffffffffffffffffffffffffffffffffff16815260200190815260200160002060006101000a81548160ff0219169083151502179055506113ed565b826040517f48bae5b80000000000000000000000000000000000000000000000000000000081526004016113e49190612edb565b60405180910390fd5b7fe22cadcc5ddbc0a185e8920eaa6825bcc06dcd6b432988e7e9912caa59ace930838383604051611420939291906131d3565b60405180910390a1505050565b6000806000606660009054906101000a90046fffffffffffffffffffffffffffffffff16606660109054906101000a90046fffffffffffffffffffffffffffffffff16606554925092509250909192565b60008060019054906101000a900460ff161590508080156114af5750600160008054906101000a900460ff1660ff16105b806114dc57506114be306120ed565b1580156114db5750600160008054906101000a900460ff1660ff16145b5b61151b576040517f08c379a00000000000000000000000000000000000000000000000000000000081526004016115129061327c565b60405180910390fd5b60016000806101000a81548160ff021916908360ff1602179055508015611558576001600060016101000a81548160ff0219169083151502179055505b6001606960008473ffffffffffffffffffffffffffffffffffffffff1673ffffffffffffffffffffffffffffffffffffffff16815260200190815260200160002060006101000a81548160ff021916908315150217905550620186a0606581905550611388606660006101000a8154816fffffffffffffffffffffffffffffffff02191690836fffffffffffffffffffffffffffffffff1602179055506101f4606660106101000a8154816fffffffffffffffffffffffffffffffff02191690836fffffffffffffffffffffffffffffffff160217905550611638612110565b80156116915760008060016101000a81548160ff0219169083151502179055507f7f26b83ff96e1f2b6a682f133852f6798a09c465da95921460cefb3847402498600160405161168891906132ee565b60405180910390a15b5050565b60006116a48a8a86898c612169565b8973ffffffffffffffffffffffffffffffffffffffff166323b872dd33308c6040518463ffffffff1660e01b81526004016116e193929190613309565b6020604051808303816000875af1158015611700573d6000803e3d6000fd5b505050506040513d601f19601f820116820180604052508101906117249190613091565b50606e60003373ffffffffffffffffffffffffffffffffffffffff1673ffffffffffffffffffffffffffffffffffffffff168152602001908152602001600020600081548092919061177590613340565b919050555033606e60003373ffffffffffffffffffffffffffffffffffffffff1673ffffffffffffffffffffffffffffffffffffffff168152602001908152602001600020546040516020016117cc929190613053565b6040516020818303038152906040528051906020012090506040518061012001604052803373ffffffffffffffffffffffffffffffffffffffff1681526020018b73ffffffffffffffffffffffffffffffffffffffff1681526020018773ffffffffffffffffffffffffffffffffffffffff168152602001868152602001886bffffffffffffffffffffffff1681526020016000151581526020018573ffffffffffffffffffffffffffffffffffffffff1681526020016065546bffffffffffffffffffffffff1681526020018a815250606d600083815260200190815260200160002060008201518160000160006101000a81548173ffffffffffffffffffffffffffffffffffffffff021916908373ffffffffffffffffffffffffffffffffffffffff16021790555060208201518160010160006101000a81548173ffffffffffffffffffffffffffffffffffffffff021916908373ffffffffffffffffffffffffffffffffffffffff16021790555060408201518160020160006101000a81548173ffffffffffffffffffffffffffffffffffffffff021916908373ffffffffffffffffffffffffffffffffffffffff1602179055506060820151816003015560808201518160040160006101000a8154816bffffffffffffffffffffffff02191690836bffffffffffffffffffffffff16021790555060a082015181600401600c6101000a81548160ff02191690831515021790555060c08201518160050160006101000a81548173ffffffffffffffffffffffffffffffffffffffff021916908373ffffffffffffffffffffffffffffffffffffffff16021790555060e08201518160050160146101000a8154816bffffffffffffffffffffffff02191690836bffffffffffffffffffffffff160217905550610100820151816006015590505080898b73ffffffffffffffffffffffffffffffffffffffff167f34e33f86eb59d668184e1f86aeb03ed25f4ce72216218ed02db752f21c6a40428a8c8888604051611ac094939291906133f5565b60405180910390a49998505050505050505050565b6000606a60008373ffffffffffffffffffffffffffffffffffffffff1673ffffffffffffffffffffffffffffffffffffffff16815260200190815260200160002060009054906101000a900460ff169050919050565b611b33611cf1565b8273ffffffffffffffffffffffffffffffffffffffff1663a9059cbb83836040518363ffffffff1660e01b8152600401611b6e929190613053565b6020604051808303816000875af1158015611b8d573d6000803e3d6000fd5b505050506040513d601f19601f82011682018060405250810190611bb19190613091565b50505050565b611bbf611cf1565b600073ffffffffffffffffffffffffffffffffffffffff168173ffffffffffffffffffffffffffffffffffffffff1603611c2e576040517f08c379a0000000000000000000000000000000000000000000000000000000008152600401611c25906134a7565b60405180910390fd5b611c3781612027565b50565b611c42611cf1565b81606660006101000a8154816fffffffffffffffffffffffffffffffff02191690836fffffffffffffffffffffffffffffffff16021790555080606660106101000a8154816fffffffffffffffffffffffffffffffff02191690836fffffffffffffffffffffffffffffffff1602179055507fe38926c5806b98a6fd00c5d791a36fbd196537fe48d11c45c9f1d0acd1ea74df8282604051611ce59291906134c7565b60405180910390a15050565b611cf9612378565b73ffffffffffffffffffffffffffffffffffffffff16611d17611216565b73ffffffffffffffffffffffffffffffffffffffff1614611d6d576040517f08c379a0000000000000000000000000000000000000000000000000000000008152600401611d649061353c565b60405180910390fd5b565b611d776124e3565b6000606d6000858152602001908152602001600020600601549050606d60008581526020019081526020016000206003015481611db4919061355c565b9050606554836bffffffffffffffffffffffff1682611dd39190613590565b611ddd91906130ed565b826020018181525050606554606660009054906101000a90046fffffffffffffffffffffffffffffffff166fffffffffffffffffffffffffffffffff168360200151611e299190613590565b611e3391906130ed565b82600001818152505081600001518260200151611e50919061355c565b826020018181525050606554606660109054906101000a90046fffffffffffffffffffffffffffffffff166fffffffffffffffffffffffffffffffff168360000151611e9c9190613590565b611ea691906130ed565b82604001818152505081604001518260000151611ec3919061355c565b8260000181815250505092915050565b6000606d600083815260200190815260200160002060020160009054906101000a900473ffffffffffffffffffffffffffffffffffffffff1690506000606d6000848152602001908152602001600020600301549050606d600084815260200190815260200160002060010160009054906101000a900473ffffffffffffffffffffffffffffffffffffffff1673ffffffffffffffffffffffffffffffffffffffff1663a9059cbb83836040518363ffffffff1660e01b8152600401611f9a929190613053565b6020604051808303816000875af1158015611fb9573d6000803e3d6000fd5b505050506040513d601f19601f82011682018060405250810190611fdd9190613091565b50808273ffffffffffffffffffffffffffffffffffffffff167f96c76d5aec8a8c11a9c8e02768e3fa309347330d08961e0cf9fd43b349b684c260405160405180910390a3505050565b6000603360009054906101000a900473ffffffffffffffffffffffffffffffffffffffff16905081603360006101000a81548173ffffffffffffffffffffffffffffffffffffffff021916908373ffffffffffffffffffffffffffffffffffffffff1602179055508173ffffffffffffffffffffffffffffffffffffffff168173ffffffffffffffffffffffffffffffffffffffff167f8be0079c531659141344cd1fd0a4f28419497f9722a3daafe3b4186f6b6457e060405160405180910390a35050565b6000808273ffffffffffffffffffffffffffffffffffffffff163b119050919050565b600060019054906101000a900460ff1661215f576040517f08c379a000000000000000000000000000000000000000000000000000000000815260040161215690613644565b60405180910390fd5b612167612380565b565b606960008673ffffffffffffffffffffffffffffffffffffffff1673ffffffffffffffffffffffffffffffffffffffff16815260200190815260200160002060009054906101000a900460ff166121f5576040517f08c379a00000000000000000000000000000000000000000000000000000000081526004016121ec906136b0565b60405180910390fd5b60008411612238576040517f08c379a000000000000000000000000000000000000000000000000000000000815260040161222f9061371c565b60405180910390fd5b600073ffffffffffffffffffffffffffffffffffffffff168373ffffffffffffffffffffffffffffffffffffffff16036122a7576040517f08c379a000000000000000000000000000000000000000000000000000000000815260040161229e90613788565b60405180910390fd5b600073ffffffffffffffffffffffffffffffffffffffff168273ffffffffffffffffffffffffffffffffffffffff1603612316576040517f08c379a000000000000000000000000000000000000000000000000000000000815260040161230d90613788565b60405180910390fd5b6000801b606c60008381526020019081526020016000206000015403612371576040517f08c379a0000000000000000000000000000000000000000000000000000000008152600401612368906137f4565b60405180910390fd5b5050505050565b600033905090565b600060019054906101000a900460ff166123cf576040517f08c379a00000000000000000000000000000000000000000000000000000000081526004016123c690613644565b60405180910390fd5b6123df6123da612378565b612027565b565b604051806040016040528060008019168152602001600080191681525090565b604051806101200160405280600073ffffffffffffffffffffffffffffffffffffffff168152602001600073ffffffffffffffffffffffffffffffffffffffff168152602001600073ffffffffffffffffffffffffffffffffffffffff1681526020016000815260200160006bffffffffffffffffffffffff168152602001600015158152602001600073ffffffffffffffffffffffffffffffffffffffff16815260200160006bffffffffffffffffffffffff168152602001600081525090565b604051806040016040528060008019168152602001600080191681525090565b60405180606001604052806000815260200160008152602001600081525090565b6000604051905090565b600080fd5b600080fd5b6000819050919050565b61252b81612518565b811461253657600080fd5b50565b60008135905061254881612522565b92915050565b6000602082840312156125645761256361250e565b5b600061257284828501612539565b91505092915050565b600081519050919050565b600082825260208201905092915050565b6000819050602082019050919050565b6125b081612518565b82525050565b6040820160008201516125cc60008501826125a7565b5060208201516125df60208501826125a7565b50505050565b60006125f183836125b6565b60408301905092915050565b6000602082019050919050565b60006126158261257b565b61261f8185612586565b935061262a83612597565b8060005b8381101561265b57815161264288826125e5565b975061264d836125fd565b92505060018101905061262e565b5085935050505092915050565b60006020820190508181036000830152612682818461260a565b905092915050565b600073ffffffffffffffffffffffffffffffffffffffff82169050919050565b60006126b58261268a565b9050919050565b6126c5816126aa565b82525050565b60006020820190506126e060008301846126bc565b92915050565b600080fd5b6000601f19601f8301169050919050565b7f4e487b7100000000000000000000000000000000000000000000000000000000600052604160045260246000fd5b612734826126eb565b810181811067ffffffffffffffff82111715612753576127526126fc565b5b80604052505050565b6000612766612504565b9050612772828261272b565b919050565b600067ffffffffffffffff821115612792576127916126fc565b5b602082029050602081019050919050565b600080fd5b600080fd5b6000604082840312156127c3576127c26127a8565b5b6127cd604061275c565b905060006127dd84828501612539565b60008301525060206127f184828501612539565b60208301525092915050565b600061281061280b84612777565b61275c565b90508083825260208201905060408402830185811115612833576128326127a3565b5b835b8181101561285c578061284888826127ad565b845260208401935050604081019050612835565b5050509392505050565b600082601f83011261287b5761287a6126e6565b5b813561288b8482602086016127fd565b91505092915050565b600080604083850312156128ab576128aa61250e565b5b60006128b985828601612539565b925050602083013567ffffffffffffffff8111156128da576128d9612513565b5b6128e685828601612866565b9150509250929050565b600080fd5b60008083601f84011261290b5761290a6126e6565b5b8235905067ffffffffffffffff811115612928576129276128f0565b5b602083019150836020820283011115612944576129436127a3565b5b9250929050565b612954816126aa565b811461295f57600080fd5b50565b6000813590506129718161294b565b92915050565b60006bffffffffffffffffffffffff82169050919050565b61299881612977565b81146129a357600080fd5b50565b6000813590506129b58161298f565b92915050565b60008060008060008060a087890312156129d8576129d761250e565b5b60006129e689828a01612539565b96505060206129f789828a01612539565b955050604087013567ffffffffffffffff811115612a1857612a17612513565b5b612a2489828a016128f5565b94509450506060612a3789828a01612962565b9250506080612a4889828a016129a6565b9150509295509295509295565b612a5e81612518565b82525050565b6000604082019050612a796000830185612a55565b612a8660208301846126bc565b9392505050565b60008115159050919050565b612aa281612a8d565b82525050565b6000602082019050612abd6000830184612a99565b92915050565b600060208284031215612ad957612ad861250e565b5b6000612ae784828501612962565b91505092915050565b612af9816126aa565b82525050565b6000819050919050565b612b1281612aff565b82525050565b612b2181612977565b82525050565b612b3081612a8d565b82525050565b61012082016000820151612b4d6000850182612af0565b506020820151612b606020850182612af0565b506040820151612b736040850182612af0565b506060820151612b866060850182612b09565b506080820151612b996080850182612b18565b5060a0820151612bac60a0850182612b27565b5060c0820151612bbf60c0850182612af0565b5060e0820151612bd260e0850182612b18565b50610100820151612be7610100850182612b09565b50505050565b600061012082019050612c036000830184612b36565b92915050565b60008060408385031215612c2057612c1f61250e565b5b6000612c2e85828601612539565b9250506020612c3f85828601612962565b9150509250929050565b604082016000820151612c5f60008501826125a7565b506020820151612c7260208501826125a7565b50505050565b6000604082019050612c8d6000830184612c49565b92915050565b612c9c81612a8d565b8114612ca757600080fd5b50565b600081359050612cb981612c93565b92915050565b600080600060608486031215612cd857612cd761250e565b5b6000612ce686828701612539565b9350506020612cf786828701612962565b9250506040612d0886828701612caa565b9150509250925092565b60006fffffffffffffffffffffffffffffffff82169050919050565b612d3781612d12565b82525050565b612d4681612aff565b82525050565b6000606082019050612d616000830186612d2e565b612d6e6020830185612d2e565b612d7b6040830184612d3d565b949350505050565b612d8c81612aff565b8114612d9757600080fd5b50565b600081359050612da981612d83565b92915050565b60008083601f840112612dc557612dc46126e6565b5b8235905067ffffffffffffffff811115612de257612de16128f0565b5b602083019150836001820283011115612dfe57612dfd6127a3565b5b9250929050565b60008060008060008060008060006101008a8c031215612e2857612e2761250e565b5b6000612e368c828d01612962565b9950506020612e478c828d01612d9a565b9850506040612e588c828d01612539565b9750506060612e698c828d016129a6565b9650506080612e7a8c828d01612962565b95505060a0612e8b8c828d01612d9a565b94505060c0612e9c8c828d01612962565b93505060e08a013567ffffffffffffffff811115612ebd57612ebc612513565b5b612ec98c828d01612daf565b92509250509295985092959850929598565b6000602082019050612ef06000830184612a55565b92915050565b600080600060608486031215612f0f57612f0e61250e565b5b6000612f1d86828701612962565b9350506020612f2e86828701612962565b9250506040612f3f86828701612d9a565b9150509250925092565b612f5281612d12565b8114612f5d57600080fd5b50565b600081359050612f6f81612f49565b92915050565b60008060408385031215612f8c57612f8b61250e565b5b6000612f9a85828601612f60565b9250506020612fab85828601612f60565b9150509250929050565b7f4e487b7100000000000000000000000000000000000000000000000000000000600052603260045260246000fd5b7f4e487b7100000000000000000000000000000000000000000000000000000000600052601160045260246000fd5b600061301e82612977565b915061302983612977565b925082820390506bffffffffffffffffffffffff81111561304d5761304c612fe4565b5b92915050565b600060408201905061306860008301856126bc565b6130756020830184612d3d565b9392505050565b60008151905061308b81612c93565b92915050565b6000602082840312156130a7576130a661250e565b5b60006130b58482850161307c565b91505092915050565b7f4e487b7100000000000000000000000000000000000000000000000000000000600052601260045260246000fd5b60006130f882612aff565b915061310383612aff565b925082613113576131126130be565b5b828204905092915050565b61312781612977565b82525050565b60006040820190506131426000830185612a55565b61314f602083018461311e565b9392505050565b600082825260208201905092915050565b7f4f7264657246756c66696c6c6564000000000000000000000000000000000000600082015250565b600061319d600e83613156565b91506131a882613167565b602082019050919050565b600060208201905081810360008301526131cc81613190565b9050919050565b60006060820190506131e86000830186612a55565b6131f560208301856126bc565b6132026040830184612a99565b949350505050565b7f496e697469616c697a61626c653a20636f6e747261637420697320616c72656160008201527f647920696e697469616c697a6564000000000000000000000000000000000000602082015250565b6000613266602e83613156565b91506132718261320a565b604082019050919050565b6000602082019050818103600083015261329581613259565b9050919050565b6000819050919050565b600060ff82169050919050565b6000819050919050565b60006132d86132d36132ce8461329c565b6132b3565b6132a6565b9050919050565b6132e8816132bd565b82525050565b600060208201905061330360008301846132df565b92915050565b600060608201905061331e60008301866126bc565b61332b60208301856126bc565b6133386040830184612d3d565b949350505050565b600061334b82612aff565b91507fffffffffffffffffffffffffffffffffffffffffffffffffffffffffffffffff820361337d5761337c612fe4565b5b600182019050919050565b60006133a361339e61339984612977565b6132b3565b612aff565b9050919050565b6133b381613388565b82525050565b82818337600083830152505050565b60006133d48385613156565b93506133e18385846133b9565b6133ea836126eb565b840190509392505050565b600060608201905061340a60008301876133aa565b6134176020830186612a55565b818103604083015261342a8184866133c8565b905095945050505050565b7f4f776e61626c653a206e6577206f776e657220697320746865207a65726f206160008201527f6464726573730000000000000000000000000000000000000000000000000000602082015250565b6000613491602683613156565b915061349c82613435565b604082019050919050565b600060208201905081810360008301526134c081613484565b9050919050565b60006040820190506134dc6000830185612d2e565b6134e96020830184612d2e565b9392505050565b7f4f776e61626c653a2063616c6c6572206973206e6f7420746865206f776e6572600082015250565b6000613526602083613156565b9150613531826134f0565b602082019050919050565b6000602082019050818103600083015261355581613519565b9050919050565b600061356782612aff565b915061357283612aff565b925082820390508181111561358a57613589612fe4565b5b92915050565b600061359b82612aff565b91506135a683612aff565b92508282026135b481612aff565b915082820484148315176135cb576135ca612fe4565b5b5092915050565b7f496e697469616c697a61626c653a20636f6e7472616374206973206e6f74206960008201527f6e697469616c697a696e67000000000000000000000000000000000000000000602082015250565b600061362e602b83613156565b9150613639826135d2565b604082019050919050565b6000602082019050818103600083015261365d81613621565b9050919050565b7f546f6b656e4e6f74537570706f72746564000000000000000000000000000000600082015250565b600061369a601183613156565b91506136a582613664565b602082019050919050565b600060208201905081810360008301526136c98161368d565b9050919050565b7f416d6f756e7449735a65726f0000000000000000000000000000000000000000600082015250565b6000613706600c83613156565b9150613711826136d0565b602082019050919050565b60006020820190508181036000830152613735816136f9565b9050919050565b7f5468726f775a65726f4164647265737300000000000000000000000000000000600082015250565b6000613772601083613156565b915061377d8261373c565b602082019050919050565b600060208201905081810360008301526137a181613765565b9050919050565b7f496e76616c6964496e737469747574696f6e436f646500000000000000000000600082015250565b60006137de601683613156565b91506137e9826137a8565b602082019050919050565b6000602082019050818103600083015261380d816137d1565b905091905056fea2646970667358221220f8823cfaf049624cc7c165baccd9ac4d6cc830669345b349ce319cd5c49631f064736f6c63430008120033",
  "linkReferences": {},
  "deployedLinkReferences": {}
}