{
  "_format": "hh-sol-artifact-1",
  "contractName": "Paycrest",
  "sourceName": "contracts/Paycrest.sol",
  "abi": [
    {
      "inputs": [
        {
          "internalType": "address",
          "name": "_usdc",
          "type": "address"
        }
      ],
      "stateMutability": "nonpayable",
      "type": "constructor"
    },
    {
      "inputs": [],
      "name": "AmountIsZero",
      "type": "error"
    },
    {
      "inputs": [],
      "name": "InvalidInstitutionCode",
      "type": "error"
    },
    {
      "inputs": [
        {
          "internalType": "bytes32",
          "name": "what",
          "type": "bytes32"
        }
      ],
      "name": "InvalidParameter",
      "type": "error"
    },
    {
      "inputs": [],
      "name": "InvalidSigner",
      "type": "error"
    },
    {
      "inputs": [],
      "name": "OnlyAggregator",
      "type": "error"
    },
    {
      "inputs": [],
      "name": "OrderFulfilled",
      "type": "error"
    },
    {
      "inputs": [],
      "name": "ThrowZeroAddress",
      "type": "error"
    },
    {
      "inputs": [],
      "name": "ThrowZeroValue",
      "type": "error"
    },
    {
      "inputs": [],
      "name": "TokenNotSupported",
      "type": "error"
    },
    {
      "inputs": [],
      "name": "UnableToProcessRewards",
      "type": "error"
    },
    {
      "inputs": [],
      "name": "Unsuported",
      "type": "error"
    },
    {
      "anonymous": false,
      "inputs": [
        {
          "indexed": true,
          "internalType": "bytes32",
          "name": "orderId",
          "type": "bytes32"
        },
        {
          "indexed": true,
          "internalType": "uint256",
          "name": "amount",
          "type": "uint256"
        },
        {
          "indexed": true,
          "internalType": "uint256",
          "name": "rate",
          "type": "uint256"
        },
        {
          "indexed": false,
          "internalType": "bytes32",
          "name": "hash",
          "type": "bytes32"
        },
        {
          "indexed": false,
          "internalType": "bytes",
          "name": "signature",
          "type": "bytes"
        }
      ],
      "name": "Deposit",
      "type": "event"
    },
    {
      "anonymous": false,
      "inputs": [
        {
          "indexed": true,
          "internalType": "address",
          "name": "previousOwner",
          "type": "address"
        },
        {
          "indexed": true,
          "internalType": "address",
          "name": "newOwner",
          "type": "address"
        }
      ],
      "name": "OwnershipTransferred",
      "type": "event"
    },
    {
      "anonymous": false,
      "inputs": [
        {
          "indexed": false,
          "internalType": "uint64",
          "name": "protocolFee",
          "type": "uint64"
        },
        {
          "indexed": false,
          "internalType": "uint64",
          "name": "primaryValidator",
          "type": "uint64"
        },
        {
          "indexed": false,
          "internalType": "uint64",
          "name": "secondaryValidator",
          "type": "uint64"
        }
      ],
      "name": "PaycrestFees",
      "type": "event"
    },
    {
      "anonymous": false,
      "inputs": [
        {
          "indexed": true,
          "internalType": "bytes32",
          "name": "orderId",
          "type": "bytes32"
        }
      ],
      "name": "Refunded",
      "type": "event"
    },
    {
      "anonymous": false,
      "inputs": [
        {
          "indexed": false,
          "internalType": "bytes32",
          "name": "what",
          "type": "bytes32"
        },
        {
          "indexed": false,
          "internalType": "address",
          "name": "value",
          "type": "address"
        },
        {
          "indexed": false,
          "internalType": "bool",
          "name": "status",
          "type": "bool"
        }
      ],
      "name": "SettingManagerBool",
      "type": "event"
    },
    {
      "anonymous": false,
      "inputs": [
        {
          "indexed": false,
          "internalType": "bytes32",
          "name": "what",
          "type": "bytes32"
        },
        {
          "indexed": false,
          "internalType": "bytes8",
          "name": "value",
          "type": "bytes8"
        },
        {
          "indexed": false,
          "internalType": "bytes8",
          "name": "status",
          "type": "bytes8"
        }
      ],
      "name": "SettingManagerForInstitution",
      "type": "event"
    },
    {
      "anonymous": false,
      "inputs": [
        {
          "indexed": true,
          "internalType": "bytes32",
          "name": "orderId",
          "type": "bytes32"
        },
        {
          "indexed": true,
          "internalType": "address",
          "name": "liquidityProvider",
          "type": "address"
        },
        {
          "indexed": false,
          "internalType": "uint96",
          "name": "settlePercent",
          "type": "uint96"
        }
      ],
      "name": "Settled",
      "type": "event"
    },
    {
      "inputs": [],
      "name": "TimeLock",
      "outputs": [
        {
          "internalType": "uint256",
          "name": "",
          "type": "uint256"
        }
      ],
      "stateMutability": "view",
      "type": "function"
    },
    {
      "inputs": [
        {
          "internalType": "address",
          "name": "_token",
          "type": "address"
        },
        {
          "internalType": "uint256",
          "name": "_amount",
          "type": "uint256"
        },
        {
          "internalType": "address",
          "name": "_refundAddress",
          "type": "address"
        },
        {
          "internalType": "uint96",
          "name": "_rate",
          "type": "uint96"
        },
        {
          "internalType": "bytes32",
          "name": "_code",
          "type": "bytes32"
        },
        {
          "internalType": "bytes32",
          "name": "messageHash",
          "type": "bytes32"
        },
        {
          "internalType": "bytes",
          "name": "signature",
          "type": "bytes"
        }
      ],
      "name": "createOrder",
      "outputs": [
        {
          "internalType": "bytes32",
          "name": "orderId",
          "type": "bytes32"
        }
      ],
      "stateMutability": "nonpayable",
      "type": "function"
    },
    {
      "inputs": [],
      "name": "getFeeDetails",
      "outputs": [
        {
          "internalType": "uint64",
          "name": "",
          "type": "uint64"
        },
        {
          "internalType": "uint64",
          "name": "",
          "type": "uint64"
        },
        {
          "internalType": "uint64",
          "name": "",
          "type": "uint64"
        },
        {
          "internalType": "uint256",
          "name": "",
          "type": "uint256"
        }
      ],
      "stateMutability": "view",
      "type": "function"
    },
    {
      "inputs": [],
      "name": "getLiquidityAggregator",
      "outputs": [
        {
          "internalType": "address",
          "name": "",
          "type": "address"
        }
      ],
      "stateMutability": "view",
      "type": "function"
    },
    {
      "inputs": [
        {
          "internalType": "bytes32",
          "name": "currency",
          "type": "bytes32"
        }
      ],
      "name": "getSupportedInstitutions",
      "outputs": [
        {
          "components": [
            {
              "internalType": "bytes32",
              "name": "code",
              "type": "bytes32"
            },
            {
              "internalType": "bytes32",
              "name": "name",
              "type": "bytes32"
            }
          ],
          "internalType": "struct PaycrestSettingManager.Institution[]",
          "name": "",
          "type": "tuple[]"
        }
      ],
      "stateMutability": "view",
      "type": "function"
    },
    {
      "inputs": [
        {
          "internalType": "bytes32",
          "name": "code",
          "type": "bytes32"
        }
      ],
      "name": "getSupportedName",
      "outputs": [
        {
          "internalType": "bytes32",
          "name": "",
          "type": "bytes32"
        }
      ],
      "stateMutability": "view",
      "type": "function"
    },
    {
      "inputs": [
        {
          "internalType": "address",
          "name": "_token",
          "type": "address"
        }
      ],
      "name": "isTokenSupported",
      "outputs": [
        {
          "internalType": "bool",
          "name": "",
          "type": "bool"
        }
      ],
      "stateMutability": "view",
      "type": "function"
    },
    {
      "inputs": [],
      "name": "owner",
      "outputs": [
        {
          "internalType": "address",
          "name": "",
          "type": "address"
        }
      ],
      "stateMutability": "view",
      "type": "function"
    },
    {
      "inputs": [
        {
          "internalType": "bytes32",
          "name": "_orderId",
          "type": "bytes32"
        }
      ],
      "name": "refund",
      "outputs": [
        {
          "internalType": "bool",
          "name": "",
          "type": "bool"
        }
      ],
      "stateMutability": "nonpayable",
      "type": "function"
    },
    {
      "inputs": [],
      "name": "renounceOwnership",
      "outputs": [],
      "stateMutability": "nonpayable",
      "type": "function"
    },
    {
      "inputs": [
        {
          "internalType": "bytes32",
          "name": "currency",
          "type": "bytes32"
        },
        {
          "components": [
            {
              "internalType": "bytes32",
              "name": "code",
              "type": "bytes32"
            },
            {
              "internalType": "bytes32",
              "name": "name",
              "type": "bytes32"
            }
          ],
          "internalType": "struct PaycrestSettingManager.Institution[]",
          "name": "institutions",
          "type": "tuple[]"
        }
      ],
      "name": "setSupportedInstitutions",
      "outputs": [],
      "stateMutability": "nonpayable",
      "type": "function"
    },
    {
      "inputs": [
        {
          "internalType": "bytes32",
          "name": "what",
          "type": "bytes32"
        },
        {
          "internalType": "address",
          "name": "value",
          "type": "address"
        },
        {
          "internalType": "bool",
          "name": "status",
          "type": "bool"
        }
      ],
      "name": "settingManagerBool",
      "outputs": [],
      "stateMutability": "nonpayable",
      "type": "function"
    },
    {
      "inputs": [
        {
          "internalType": "bytes32",
          "name": "_orderId",
          "type": "bytes32"
        },
        {
          "internalType": "address",
          "name": "_primaryValidator",
          "type": "address"
        },
        {
          "internalType": "address[]",
          "name": "_secondaryValidators",
          "type": "address[]"
        },
        {
          "internalType": "address",
          "name": "_liquidityProvider",
          "type": "address"
        },
        {
          "internalType": "uint96",
          "name": "_settlePercent",
          "type": "uint96"
        }
      ],
      "name": "settle",
      "outputs": [
        {
          "internalType": "bool",
          "name": "",
          "type": "bool"
        }
      ],
      "stateMutability": "nonpayable",
      "type": "function"
    },
    {
      "inputs": [
        {
          "internalType": "address",
          "name": "newOwner",
          "type": "address"
        }
      ],
      "name": "transferOwnership",
      "outputs": [],
      "stateMutability": "nonpayable",
      "type": "function"
    },
    {
      "inputs": [
        {
          "internalType": "bytes32",
          "name": "what",
          "type": "bytes32"
        },
        {
          "internalType": "address",
          "name": "value",
          "type": "address"
        }
      ],
      "name": "updateFeeRecipient",
      "outputs": [],
      "stateMutability": "nonpayable",
      "type": "function"
    },
    {
      "inputs": [
        {
          "internalType": "uint64",
          "name": "_protocolFee",
          "type": "uint64"
        },
        {
          "internalType": "uint64",
          "name": "_primaryValidator",
          "type": "uint64"
        },
        {
          "internalType": "uint64",
          "name": "_secondaryValidator",
          "type": "uint64"
        }
      ],
      "name": "updateProtocolFees",
      "outputs": [],
      "stateMutability": "nonpayable",
      "type": "function"
    }
  ],
  "bytecode": "0x6080604052611388600060146101000a81548167ffffffffffffffff021916908367ffffffffffffffff1602179055506101f4600160006101000a81548167ffffffffffffffff021916908367ffffffffffffffff1602179055506101f4600160086101000a81548167ffffffffffffffff021916908367ffffffffffffffff1602179055503480156200009257600080fd5b5060405162003269380380620032698339818101604052810190620000b891906200026d565b620000d8620000cc6200013760201b60201c565b6200013f60201b60201c565b6001600560008373ffffffffffffffffffffffffffffffffffffffff1673ffffffffffffffffffffffffffffffffffffffff16815260200190815260200160002060006101000a81548160ff021916908315150217905550506200029f565b600033905090565b60008060009054906101000a900473ffffffffffffffffffffffffffffffffffffffff169050816000806101000a81548173ffffffffffffffffffffffffffffffffffffffff021916908373ffffffffffffffffffffffffffffffffffffffff1602179055508173ffffffffffffffffffffffffffffffffffffffff168173ffffffffffffffffffffffffffffffffffffffff167f8be0079c531659141344cd1fd0a4f28419497f9722a3daafe3b4186f6b6457e060405160405180910390a35050565b600080fd5b600073ffffffffffffffffffffffffffffffffffffffff82169050919050565b6000620002358262000208565b9050919050565b620002478162000228565b81146200025357600080fd5b50565b60008151905062000267816200023c565b92915050565b60006020828403121562000286576200028562000203565b5b6000620002968482850162000256565b91505092915050565b612fba80620002af6000396000f3fe608060405234801561001057600080fd5b50600436106101005760003560e01c8063764bc35511610097578063bb76d8a511610066578063bb76d8a51461029c578063e5b32cdf146102ba578063ef1e345b146102ea578063f2fde38b1461031a57610100565b8063764bc355146102255780638da5cb5b1461024157806399e3c0b41461025f578063b810c6361461027b57610100565b80633d8f8fb2116100d35780633d8f8fb21461019f578063715018a6146101bb5780637249fbb6146101c557806375151b63146101f557610100565b8063026213381461010557806323e9f3f8146101355780632ebc5356146101655780633220088214610183575b600080fd5b61011f600480360381019061011a9190611dca565b610336565b60405161012c9190611ee4565b60405180910390f35b61014f600480360381019061014a9190612124565b610474565b60405161015c91906121f1565b60405180910390f35b61016d610840565b60405161017a919061221b565b60405180910390f35b61019d60048036038101906101989190612353565b61086a565b005b6101b960048036038101906101b491906123af565b61096c565b005b6101c3610b1e565b005b6101df60048036038101906101da9190611dca565b610b32565b6040516101ec919061240a565b60405180910390f35b61020f600480360381019061020a9190612425565b610dc2565b60405161021c919061240a565b60405180910390f35b61023f600480360381019061023a9190612492565b610e18565b005b610249610edb565b604051610256919061221b565b60405180910390f35b61027960048036038101906102749190612511565b610f04565b005b610283611072565b6040516102939493929190612582565b60405180910390f35b6102a46110a8565b6040516102b191906125c7565b60405180910390f35b6102d460048036038101906102cf919061263d565b6110ae565b6040516102e1919061240a565b60405180910390f35b61030460048036038101906102ff9190611dca565b61152c565b60405161031191906121f1565b60405180910390f35b610334600480360381019061032f9190612425565b611549565b005b6060600060066000848152602001908152602001600020805480602002602001604051908101604052809291908181526020016000905b828210156103b35783829060005260206000209060020201604051806040016040529081600082015481526020016001820154815250508152602001906001019061036d565b50505050905060008151905060008167ffffffffffffffff8111156103db576103da611ff9565b5b60405190808252806020026020018201604052801561041457816020015b610401611d60565b8152602001906001900390816103f95790505b50905060005b8281101561046857838181518110610435576104346126d7565b5b60200260200101518282815181106104505761044f6126d7565b5b6020026020010181905250808060010191505061041a565b50809350505050919050565b60008061048184846115cc565b90506104908989898489611646565b8873ffffffffffffffffffffffffffffffffffffffff166323b872dd33308b6040518463ffffffff1660e01b81526004016104cd93929190612706565b6020604051808303816000875af11580156104ec573d6000803e3d6000fd5b505050506040513d601f19601f820116820180604052508101906105109190612752565b50600960003373ffffffffffffffffffffffffffffffffffffffff1673ffffffffffffffffffffffffffffffffffffffff1681526020019081526020016000206000815480929190610561906127ae565b919050555033600960003373ffffffffffffffffffffffffffffffffffffffff1673ffffffffffffffffffffffffffffffffffffffff168152602001908152602001600020546040516020016105b89291906127f6565b6040516020818303038152906040528051906020012091506040518060e001604052803373ffffffffffffffffffffffffffffffffffffffff1681526020018a73ffffffffffffffffffffffffffffffffffffffff168152602001876bffffffffffffffffffffffff1681526020016000151581526020018873ffffffffffffffffffffffffffffffffffffffff168152602001620186a06bffffffffffffffffffffffff168152602001898152506008600084815260200190815260200160002060008201518160000160006101000a81548173ffffffffffffffffffffffffffffffffffffffff021916908373ffffffffffffffffffffffffffffffffffffffff16021790555060208201518160010160006101000a81548173ffffffffffffffffffffffffffffffffffffffff021916908373ffffffffffffffffffffffffffffffffffffffff16021790555060408201518160010160146101000a8154816bffffffffffffffffffffffff02191690836bffffffffffffffffffffffff16021790555060608201518160020160006101000a81548160ff02191690831515021790555060808201518160020160016101000a81548173ffffffffffffffffffffffffffffffffffffffff021916908373ffffffffffffffffffffffffffffffffffffffff16021790555060a08201518160030160006101000a8154816bffffffffffffffffffffffff02191690836bffffffffffffffffffffffff16021790555060c08201518160040155905050856bffffffffffffffffffffffff1688837fdd314958c6109201b2b89cd342f23878b9789a2b24d4c03aa960c0ac18a9c1b8878760405161082c92919061289e565b60405180910390a450979650505050505050565b6000600460009054906101000a900473ffffffffffffffffffffffffffffffffffffffff16905090565b6108726117f6565b60006006600084815260200190815260200160002080549050905060005b8181101561096657600660008581526020019081526020016000208382815181106108be576108bd6126d7565b5b6020026020010151908060018154018082558091505060019003906000526020600020906002020160009091909190915060008201518160000155602082015181600101555050828181518110610918576109176126d7565b5b6020026020010151602001516007600085848151811061093b5761093a6126d7565b5b6020026020010151600001518152602001908152602001600020819055508080600101915050610890565b50505050565b6109746117f6565b600073ffffffffffffffffffffffffffffffffffffffff168173ffffffffffffffffffffffffffffffffffffffff16036109da576040517f9c8e2b5d00000000000000000000000000000000000000000000000000000000815260040160405180910390fd5b7f66656500000000000000000000000000000000000000000000000000000000008203610a435780600260006101000a81548173ffffffffffffffffffffffffffffffffffffffff021916908373ffffffffffffffffffffffffffffffffffffffff1602179055505b7f61676772656761746f72000000000000000000000000000000000000000000008203610ab05780600460006101000a81548173ffffffffffffffffffffffffffffffffffffffff021916908373ffffffffffffffffffffffffffffffffffffffff160217905550610b1a565b7f7374616b650000000000000000000000000000000000000000000000000000008203610b195780600360006101000a81548173ffffffffffffffffffffffffffffffffffffffff021916908373ffffffffffffffffffffffffffffffffffffffff1602179055505b5b5050565b610b266117f6565b610b306000611874565b565b6000600460009054906101000a900473ffffffffffffffffffffffffffffffffffffffff1673ffffffffffffffffffffffffffffffffffffffff163373ffffffffffffffffffffffffffffffffffffffff1614610bbb576040517fe9d8299200000000000000000000000000000000000000000000000000000000815260040160405180910390fd5b6008600083815260200190815260200160002060020160009054906101000a900460ff1615610c16576040517f56f1733f00000000000000000000000000000000000000000000000000000000815260040160405180910390fd5b60016008600084815260200190815260200160002060020160006101000a81548160ff02191690831515021790555060006008600084815260200190815260200160002060030160006101000a8154816bffffffffffffffffffffffff02191690836bffffffffffffffffffffffff1602179055506008600083815260200190815260200160002060010160009054906101000a900473ffffffffffffffffffffffffffffffffffffffff1673ffffffffffffffffffffffffffffffffffffffff1663a9059cbb6008600085815260200190815260200160002060020160019054906101000a900473ffffffffffffffffffffffffffffffffffffffff1660086000868152602001908152602001600020600401546040518363ffffffff1660e01b8152600401610d489291906127f6565b6020604051808303816000875af1158015610d67573d6000803e3d6000fd5b505050506040513d601f19601f82011682018060405250810190610d8b9190612752565b50817ffe509803c09416b28ff3d8f690c8b0c61462a892c46d5430c8fb20abe472daf060405160405180910390a260019050919050565b6000600560008373ffffffffffffffffffffffffffffffffffffffff1673ffffffffffffffffffffffffffffffffffffffff16815260200190815260200160002060009054906101000a900460ff169050919050565b610e206117f6565b82600060146101000a81548167ffffffffffffffff021916908367ffffffffffffffff16021790555081600160006101000a81548167ffffffffffffffff021916908367ffffffffffffffff16021790555080600160086101000a81548167ffffffffffffffff021916908367ffffffffffffffff1602179055507fced6b79f1325154aec329e6ff932857cb4f91fa8eb4c6791ce5b460f47995758838383604051610ece939291906128ce565b60405180910390a1505050565b60008060009054906101000a900473ffffffffffffffffffffffffffffffffffffffff16905090565b610f0c6117f6565b600073ffffffffffffffffffffffffffffffffffffffff168273ffffffffffffffffffffffffffffffffffffffff1603610f72576040517f9c8e2b5d00000000000000000000000000000000000000000000000000000000815260040160405180910390fd5b7f746f6b656e0000000000000000000000000000000000000000000000000000008303610ff55780600560008473ffffffffffffffffffffffffffffffffffffffff1673ffffffffffffffffffffffffffffffffffffffff16815260200190815260200160002060006101000a81548160ff021916908315150217905550611032565b826040517f48bae5b800000000000000000000000000000000000000000000000000000000815260040161102991906121f1565b60405180910390fd5b7fe22cadcc5ddbc0a185e8920eaa6825bcc06dcd6b432988e7e9912caa59ace93083838360405161106593929190612905565b60405180910390a1505050565b600080600080600060149054906101000a905050600160009054906101000a905050600160089054906101000a90505090919293565b61a8c081565b6000600460009054906101000a900473ffffffffffffffffffffffffffffffffffffffff1673ffffffffffffffffffffffffffffffffffffffff163373ffffffffffffffffffffffffffffffffffffffff1614611137576040517fe9d8299200000000000000000000000000000000000000000000000000000000815260040160405180910390fd5b6008600088815260200190815260200160002060020160009054906101000a900460ff1615611192576040517f56f1733f00000000000000000000000000000000000000000000000000000000815260040160405180910390fd5b60006008600089815260200190815260200160002060010160009054906101000a900473ffffffffffffffffffffffffffffffffffffffff16905082600860008a815260200190815260200160002060030160008282829054906101000a90046bffffffffffffffffffffffff1661120a919061293c565b92506101000a8154816bffffffffffffffffffffffff02191690836bffffffffffffffffffffffff1602179055506000600860008a815260200190815260200160002060030160009054906101000a90046bffffffffffffffffffffffff166bffffffffffffffffffffffff16036112ac576001600860008a815260200190815260200160002060020160006101000a81548160ff0219169083151502179055505b6000806000806112bc8c88611938565b93509350935093508473ffffffffffffffffffffffffffffffffffffffff1663a9059cbb600260009054906101000a900473ffffffffffffffffffffffffffffffffffffffff16866040518363ffffffff1660e01b81526004016113219291906127f6565b6020604051808303816000875af1158015611340573d6000803e3d6000fd5b505050506040513d601f19601f820116820180604052508101906113649190612752565b508473ffffffffffffffffffffffffffffffffffffffff1663a9059cbb89856040518363ffffffff1660e01b81526004016113a09291906127f6565b6020604051808303816000875af11580156113bf573d6000803e3d6000fd5b505050506040513d601f19601f820116820180604052508101906113e39190612752565b506000600360009054906101000a900473ffffffffffffffffffffffffffffffffffffffff1673ffffffffffffffffffffffffffffffffffffffff16634a223c368e888f8f8f89896040518863ffffffff1660e01b815260040161144d9796959493929190612a3f565b6020604051808303816000875af115801561146c573d6000803e3d6000fd5b505050506040513d601f19601f820116820180604052508101906114909190612752565b9050806114c9576040517fbcb00c1600000000000000000000000000000000000000000000000000000000815260040160405180910390fd5b8873ffffffffffffffffffffffffffffffffffffffff168d7fce38752ac5ed47dd3cff11297a4261a0c644be6ca65dc3fc7ae1c3a97c209e338a6040516115109190612ab8565b60405180910390a3600196505050505050509695505050505050565b600060076000838152602001908152602001600020549050919050565b6115516117f6565b600073ffffffffffffffffffffffffffffffffffffffff168173ffffffffffffffffffffffffffffffffffffffff16036115c0576040517f08c379a00000000000000000000000000000000000000000000000000000000081526004016115b790612b56565b60405180910390fd5b6115c981611874565b50565b6000806115d884611a68565b9050600460009054906101000a900473ffffffffffffffffffffffffffffffffffffffff1673ffffffffffffffffffffffffffffffffffffffff166116268483611a9890919063ffffffff16565b73ffffffffffffffffffffffffffffffffffffffff161491505092915050565b600560008673ffffffffffffffffffffffffffffffffffffffff1673ffffffffffffffffffffffffffffffffffffffff16815260200190815260200160002060009054906101000a900460ff166116c9576040517f3dd1b30500000000000000000000000000000000000000000000000000000000815260040160405180910390fd5b60008403611703576040517f43ad20fc00000000000000000000000000000000000000000000000000000000815260040160405180910390fd5b600073ffffffffffffffffffffffffffffffffffffffff168373ffffffffffffffffffffffffffffffffffffffff1603611769576040517f9c8e2b5d00000000000000000000000000000000000000000000000000000000815260040160405180910390fd5b816117a0576040517f815e1d6400000000000000000000000000000000000000000000000000000000815260040160405180910390fd5b6000801b6007600083815260200190815260200160002054036117ef576040517f38f5fc3500000000000000000000000000000000000000000000000000000000815260040160405180910390fd5b5050505050565b6117fe611abf565b73ffffffffffffffffffffffffffffffffffffffff1661181c610edb565b73ffffffffffffffffffffffffffffffffffffffff1614611872576040517f08c379a000000000000000000000000000000000000000000000000000000000815260040161186990612bc2565b60405180910390fd5b565b60008060009054906101000a900473ffffffffffffffffffffffffffffffffffffffff169050816000806101000a81548173ffffffffffffffffffffffffffffffffffffffff021916908373ffffffffffffffffffffffffffffffffffffffff1602179055508173ffffffffffffffffffffffffffffffffffffffff168173ffffffffffffffffffffffffffffffffffffffff167f8be0079c531659141344cd1fd0a4f28419497f9722a3daafe3b4186f6b6457e060405160405180910390a35050565b600080600080600060086000888152602001908152602001600020600401549050620186a0866bffffffffffffffffffffffff16826119779190612be2565b6119819190612c53565b9350620186a0600060149054906101000a900467ffffffffffffffff1667ffffffffffffffff16856119b39190612be2565b6119bd9190612be2565b945084846119cb9190612c84565b9350620186a0600160009054906101000a900467ffffffffffffffff1667ffffffffffffffff16866119fd9190612be2565b611a079190612c53565b9250620186a0600160089054906101000a900467ffffffffffffffff1667ffffffffffffffff1686611a399190612be2565b611a439190612c53565b91508183611a519190612cb8565b85611a5c9190612c84565b94505092959194509250565b600081604051602001611a7b9190612d64565b604051602081830303815290604052805190602001209050919050565b6000806000611aa78585611ac7565b91509150611ab481611b18565b819250505092915050565b600033905090565b6000806041835103611b085760008060006020860151925060408601519150606086015160001a9050611afc87828585611c7e565b94509450505050611b11565b60006002915091505b9250929050565b60006004811115611b2c57611b2b612d8a565b5b816004811115611b3f57611b3e612d8a565b5b0315611c7b5760016004811115611b5957611b58612d8a565b5b816004811115611b6c57611b6b612d8a565b5b03611bac576040517f08c379a0000000000000000000000000000000000000000000000000000000008152600401611ba390612e05565b60405180910390fd5b60026004811115611bc057611bbf612d8a565b5b816004811115611bd357611bd2612d8a565b5b03611c13576040517f08c379a0000000000000000000000000000000000000000000000000000000008152600401611c0a90612e71565b60405180910390fd5b60036004811115611c2757611c26612d8a565b5b816004811115611c3a57611c39612d8a565b5b03611c7a576040517f08c379a0000000000000000000000000000000000000000000000000000000008152600401611c7190612f03565b60405180910390fd5b5b50565b6000807f7fffffffffffffffffffffffffffffff5d576e7357a4501ddfe92f46681b20a08360001c1115611cb9576000600391509150611d57565b600060018787878760405160008152602001604052604051611cde9493929190612f3f565b6020604051602081039080840390855afa158015611d00573d6000803e3d6000fd5b505050602060405103519050600073ffffffffffffffffffffffffffffffffffffffff168173ffffffffffffffffffffffffffffffffffffffff1603611d4e57600060019250925050611d57565b80600092509250505b94509492505050565b604051806040016040528060008019168152602001600080191681525090565b6000604051905090565b600080fd5b600080fd5b6000819050919050565b611da781611d94565b8114611db257600080fd5b50565b600081359050611dc481611d9e565b92915050565b600060208284031215611de057611ddf611d8a565b5b6000611dee84828501611db5565b91505092915050565b600081519050919050565b600082825260208201905092915050565b6000819050602082019050919050565b611e2c81611d94565b82525050565b604082016000820151611e486000850182611e23565b506020820151611e5b6020850182611e23565b50505050565b6000611e6d8383611e32565b60408301905092915050565b6000602082019050919050565b6000611e9182611df7565b611e9b8185611e02565b9350611ea683611e13565b8060005b83811015611ed7578151611ebe8882611e61565b9750611ec983611e79565b925050600181019050611eaa565b5085935050505092915050565b60006020820190508181036000830152611efe8184611e86565b905092915050565b600073ffffffffffffffffffffffffffffffffffffffff82169050919050565b6000611f3182611f06565b9050919050565b611f4181611f26565b8114611f4c57600080fd5b50565b600081359050611f5e81611f38565b92915050565b6000819050919050565b611f7781611f64565b8114611f8257600080fd5b50565b600081359050611f9481611f6e565b92915050565b60006bffffffffffffffffffffffff82169050919050565b611fbb81611f9a565b8114611fc657600080fd5b50565b600081359050611fd881611fb2565b92915050565b600080fd5b600080fd5b6000601f19601f8301169050919050565b7f4e487b7100000000000000000000000000000000000000000000000000000000600052604160045260246000fd5b61203182611fe8565b810181811067ffffffffffffffff821117156120505761204f611ff9565b5b80604052505050565b6000612063611d80565b905061206f8282612028565b919050565b600067ffffffffffffffff82111561208f5761208e611ff9565b5b61209882611fe8565b9050602081019050919050565b82818337600083830152505050565b60006120c76120c284612074565b612059565b9050828152602081018484840111156120e3576120e2611fe3565b5b6120ee8482856120a5565b509392505050565b600082601f83011261210b5761210a611fde565b5b813561211b8482602086016120b4565b91505092915050565b600080600080600080600060e0888a03121561214357612142611d8a565b5b60006121518a828b01611f4f565b97505060206121628a828b01611f85565b96505060406121738a828b01611f4f565b95505060606121848a828b01611fc9565b94505060806121958a828b01611db5565b93505060a06121a68a828b01611db5565b92505060c088013567ffffffffffffffff8111156121c7576121c6611d8f565b5b6121d38a828b016120f6565b91505092959891949750929550565b6121eb81611d94565b82525050565b600060208201905061220660008301846121e2565b92915050565b61221581611f26565b82525050565b6000602082019050612230600083018461220c565b92915050565b600067ffffffffffffffff82111561225157612250611ff9565b5b602082029050602081019050919050565b600080fd5b600080fd5b60006040828403121561228257612281612267565b5b61228c6040612059565b9050600061229c84828501611db5565b60008301525060206122b084828501611db5565b60208301525092915050565b60006122cf6122ca84612236565b612059565b905080838252602082019050604084028301858111156122f2576122f1612262565b5b835b8181101561231b5780612307888261226c565b8452602084019350506040810190506122f4565b5050509392505050565b600082601f83011261233a57612339611fde565b5b813561234a8482602086016122bc565b91505092915050565b6000806040838503121561236a57612369611d8a565b5b600061237885828601611db5565b925050602083013567ffffffffffffffff81111561239957612398611d8f565b5b6123a585828601612325565b9150509250929050565b600080604083850312156123c6576123c5611d8a565b5b60006123d485828601611db5565b92505060206123e585828601611f4f565b9150509250929050565b60008115159050919050565b612404816123ef565b82525050565b600060208201905061241f60008301846123fb565b92915050565b60006020828403121561243b5761243a611d8a565b5b600061244984828501611f4f565b91505092915050565b600067ffffffffffffffff82169050919050565b61246f81612452565b811461247a57600080fd5b50565b60008135905061248c81612466565b92915050565b6000806000606084860312156124ab576124aa611d8a565b5b60006124b98682870161247d565b93505060206124ca8682870161247d565b92505060406124db8682870161247d565b9150509250925092565b6124ee816123ef565b81146124f957600080fd5b50565b60008135905061250b816124e5565b92915050565b60008060006060848603121561252a57612529611d8a565b5b600061253886828701611db5565b935050602061254986828701611f4f565b925050604061255a868287016124fc565b9150509250925092565b61256d81612452565b82525050565b61257c81611f64565b82525050565b60006080820190506125976000830187612564565b6125a46020830186612564565b6125b16040830185612564565b6125be6060830184612573565b95945050505050565b60006020820190506125dc6000830184612573565b92915050565b600080fd5b60008083601f8401126125fd576125fc611fde565b5b8235905067ffffffffffffffff81111561261a576126196125e2565b5b60208301915083602082028301111561263657612635612262565b5b9250929050565b60008060008060008060a0878903121561265a57612659611d8a565b5b600061266889828a01611db5565b965050602061267989828a01611f4f565b955050604087013567ffffffffffffffff81111561269a57612699611d8f565b5b6126a689828a016125e7565b945094505060606126b989828a01611f4f565b92505060806126ca89828a01611fc9565b9150509295509295509295565b7f4e487b7100000000000000000000000000000000000000000000000000000000600052603260045260246000fd5b600060608201905061271b600083018661220c565b612728602083018561220c565b6127356040830184612573565b949350505050565b60008151905061274c816124e5565b92915050565b60006020828403121561276857612767611d8a565b5b60006127768482850161273d565b91505092915050565b7f4e487b7100000000000000000000000000000000000000000000000000000000600052601160045260246000fd5b60006127b982611f64565b91507fffffffffffffffffffffffffffffffffffffffffffffffffffffffffffffffff82036127eb576127ea61277f565b5b600182019050919050565b600060408201905061280b600083018561220c565b6128186020830184612573565b9392505050565b600081519050919050565b600082825260208201905092915050565b60005b8381101561285957808201518184015260208101905061283e565b60008484015250505050565b60006128708261281f565b61287a818561282a565b935061288a81856020860161283b565b61289381611fe8565b840191505092915050565b60006040820190506128b360008301856121e2565b81810360208301526128c58184612865565b90509392505050565b60006060820190506128e36000830186612564565b6128f06020830185612564565b6128fd6040830184612564565b949350505050565b600060608201905061291a60008301866121e2565b612927602083018561220c565b61293460408301846123fb565b949350505050565b600061294782611f9a565b915061295283611f9a565b925082820390506bffffffffffffffffffffffff8111156129765761297561277f565b5b92915050565b600082825260208201905092915050565b6000819050919050565b6129a081611f26565b82525050565b60006129b28383612997565b60208301905092915050565b60006129cd6020840184611f4f565b905092915050565b6000602082019050919050565b60006129ee838561297c565b93506129f98261298d565b8060005b85811015612a3257612a0f82846129be565b612a1988826129a6565b9750612a24836129d5565b9250506001810190506129fd565b5085925050509392505050565b600060c082019050612a54600083018a6121e2565b612a61602083018961220c565b612a6e604083018861220c565b8181036060830152612a818186886129e2565b9050612a906080830185612573565b612a9d60a0830184612573565b98975050505050505050565b612ab281611f9a565b82525050565b6000602082019050612acd6000830184612aa9565b92915050565b600082825260208201905092915050565b7f4f776e61626c653a206e6577206f776e657220697320746865207a65726f206160008201527f6464726573730000000000000000000000000000000000000000000000000000602082015250565b6000612b40602683612ad3565b9150612b4b82612ae4565b604082019050919050565b60006020820190508181036000830152612b6f81612b33565b9050919050565b7f4f776e61626c653a2063616c6c6572206973206e6f7420746865206f776e6572600082015250565b6000612bac602083612ad3565b9150612bb782612b76565b602082019050919050565b60006020820190508181036000830152612bdb81612b9f565b9050919050565b6000612bed82611f64565b9150612bf883611f64565b9250828202612c0681611f64565b91508282048414831517612c1d57612c1c61277f565b5b5092915050565b7f4e487b7100000000000000000000000000000000000000000000000000000000600052601260045260246000fd5b6000612c5e82611f64565b9150612c6983611f64565b925082612c7957612c78612c24565b5b828204905092915050565b6000612c8f82611f64565b9150612c9a83611f64565b9250828203905081811115612cb257612cb161277f565b5b92915050565b6000612cc382611f64565b9150612cce83611f64565b9250828201905080821115612ce657612ce561277f565b5b92915050565b600081905092915050565b7f19457468657265756d205369676e6564204d6573736167653a0a333200000000600082015250565b6000612d2d601c83612cec565b9150612d3882612cf7565b601c82019050919050565b6000819050919050565b612d5e612d5982611d94565b612d43565b82525050565b6000612d6f82612d20565b9150612d7b8284612d4d565b60208201915081905092915050565b7f4e487b7100000000000000000000000000000000000000000000000000000000600052602160045260246000fd5b7f45434453413a20696e76616c6964207369676e61747572650000000000000000600082015250565b6000612def601883612ad3565b9150612dfa82612db9565b602082019050919050565b60006020820190508181036000830152612e1e81612de2565b9050919050565b7f45434453413a20696e76616c6964207369676e6174757265206c656e67746800600082015250565b6000612e5b601f83612ad3565b9150612e6682612e25565b602082019050919050565b60006020820190508181036000830152612e8a81612e4e565b9050919050565b7f45434453413a20696e76616c6964207369676e6174757265202773272076616c60008201527f7565000000000000000000000000000000000000000000000000000000000000602082015250565b6000612eed602283612ad3565b9150612ef882612e91565b604082019050919050565b60006020820190508181036000830152612f1c81612ee0565b9050919050565b600060ff82169050919050565b612f3981612f23565b82525050565b6000608082019050612f5460008301876121e2565b612f616020830186612f30565b612f6e60408301856121e2565b612f7b60608301846121e2565b9594505050505056fea2646970667358221220944c1c0b7265c7248641ad46fa5606e33892c2abb8801285312ef74a094d990e64736f6c63430008120033",
  "linkReferences": {},
  "deployedLinkReferences": {}
}