{
  "_format": "hh-sol-artifact-1",
  "contractName": "Paycrest",
  "sourceName": "contracts/Paycrest.sol",
  "abi": [
    {
      "inputs": [],
      "stateMutability": "nonpayable",
      "type": "constructor"
    },
    {
      "inputs": [],
      "name": "AmountIsZero",
      "type": "error"
    },
    {
      "inputs": [],
      "name": "InvalidInstitutionCode",
      "type": "error"
    },
    {
      "inputs": [
        {
          "internalType": "bytes32",
          "name": "what",
          "type": "bytes32"
        }
      ],
      "name": "InvalidParameter",
      "type": "error"
    },
    {
      "inputs": [],
      "name": "InvalidSigner",
      "type": "error"
    },
    {
      "inputs": [],
      "name": "NotWhitelisted",
      "type": "error"
    },
    {
      "inputs": [],
      "name": "OnlyAggregator",
      "type": "error"
    },
    {
      "inputs": [],
      "name": "OrderFulfilled",
      "type": "error"
    },
    {
      "inputs": [],
      "name": "ThrowZeroAddress",
      "type": "error"
    },
    {
      "inputs": [],
      "name": "ThrowZeroValue",
      "type": "error"
    },
    {
      "inputs": [],
      "name": "TokenNotSupported",
      "type": "error"
    },
    {
      "inputs": [],
      "name": "UnableToProcessRewards",
      "type": "error"
    },
    {
      "inputs": [],
      "name": "Unsuported",
      "type": "error"
    },
    {
      "anonymous": false,
      "inputs": [
        {
          "indexed": true,
          "internalType": "address",
          "name": "token",
          "type": "address"
        },
        {
          "indexed": true,
          "internalType": "uint256",
          "name": "amount",
          "type": "uint256"
        },
        {
          "indexed": true,
          "internalType": "bytes32",
          "name": "orderId",
          "type": "bytes32"
        },
        {
          "indexed": false,
          "internalType": "uint256",
          "name": "rate",
          "type": "uint256"
        },
        {
          "indexed": false,
          "internalType": "bytes32",
          "name": "institutionCode",
          "type": "bytes32"
        },
        {
          "indexed": false,
          "internalType": "string",
          "name": "messageHash",
          "type": "string"
        }
      ],
      "name": "Deposit",
      "type": "event"
    },
    {
      "anonymous": false,
      "inputs": [
        {
          "indexed": false,
          "internalType": "uint8",
          "name": "version",
          "type": "uint8"
        }
      ],
      "name": "Initialized",
      "type": "event"
    },
    {
      "anonymous": false,
      "inputs": [
        {
          "indexed": true,
          "internalType": "address",
          "name": "previousOwner",
          "type": "address"
        },
        {
          "indexed": true,
          "internalType": "address",
          "name": "newOwner",
          "type": "address"
        }
      ],
      "name": "OwnershipTransferred",
      "type": "event"
    },
    {
      "anonymous": false,
      "inputs": [
        {
          "indexed": false,
          "internalType": "uint128",
          "name": "protocolFee",
          "type": "uint128"
        },
        {
          "indexed": false,
          "internalType": "uint128",
          "name": "validatorFeePercent",
          "type": "uint128"
        }
      ],
      "name": "PaycrestFees",
      "type": "event"
    },
    {
      "anonymous": false,
      "inputs": [
        {
          "indexed": true,
          "internalType": "bytes32",
          "name": "orderId",
          "type": "bytes32"
        }
      ],
      "name": "Refunded",
      "type": "event"
    },
    {
      "anonymous": false,
      "inputs": [
        {
          "indexed": false,
          "internalType": "bytes32",
          "name": "what",
          "type": "bytes32"
        },
        {
          "indexed": false,
          "internalType": "address",
          "name": "value",
          "type": "address"
        },
        {
          "indexed": false,
          "internalType": "bool",
          "name": "status",
          "type": "bool"
        }
      ],
      "name": "SettingManagerBool",
      "type": "event"
    },
    {
      "anonymous": false,
      "inputs": [
        {
          "indexed": false,
          "internalType": "bytes32",
          "name": "what",
          "type": "bytes32"
        },
        {
          "indexed": false,
          "internalType": "bytes8",
          "name": "value",
          "type": "bytes8"
        },
        {
          "indexed": false,
          "internalType": "bytes8",
          "name": "status",
          "type": "bytes8"
        }
      ],
      "name": "SettingManagerForInstitution",
      "type": "event"
    },
    {
      "anonymous": false,
      "inputs": [
        {
          "indexed": false,
          "internalType": "bytes32",
          "name": "_splitOrderId",
          "type": "bytes32"
        },
        {
          "indexed": true,
          "internalType": "bytes32",
          "name": "orderId",
          "type": "bytes32"
        },
        {
          "indexed": true,
          "internalType": "address",
          "name": "liquidityProvider",
          "type": "address"
        },
        {
          "indexed": false,
          "internalType": "uint96",
          "name": "settlePercent",
          "type": "uint96"
        }
      ],
      "name": "Settled",
      "type": "event"
    },
    {
      "anonymous": false,
      "inputs": [
        {
          "indexed": true,
          "internalType": "address",
          "name": "sender",
          "type": "address"
        },
        {
          "indexed": true,
          "internalType": "uint256",
          "name": "amount",
          "type": "uint256"
        }
      ],
      "name": "TransferSenderFee",
      "type": "event"
    },
    {
      "anonymous": false,
      "inputs": [
        {
          "indexed": true,
          "internalType": "address",
          "name": "validator",
          "type": "address"
        },
        {
          "indexed": true,
          "internalType": "uint256",
          "name": "amount",
          "type": "uint256"
        }
      ],
      "name": "TransferValidatorRewards",
      "type": "event"
    },
    {
      "inputs": [
        {
          "internalType": "address",
          "name": "_token",
          "type": "address"
        },
        {
          "internalType": "uint256",
          "name": "_amount",
          "type": "uint256"
        },
        {
          "internalType": "bytes32",
          "name": "_institutionCode",
          "type": "bytes32"
        },
        {
          "internalType": "uint96",
          "name": "_rate",
          "type": "uint96"
        },
        {
          "internalType": "address",
          "name": "_senderFeeRecipient",
          "type": "address"
        },
        {
          "internalType": "uint256",
          "name": "_senderFee",
          "type": "uint256"
        },
        {
          "internalType": "address",
          "name": "_refundAddress",
          "type": "address"
        },
        {
          "internalType": "string",
          "name": "messageHash",
          "type": "string"
        }
      ],
      "name": "createOrder",
      "outputs": [
        {
          "internalType": "bytes32",
          "name": "orderId",
          "type": "bytes32"
        }
      ],
      "stateMutability": "nonpayable",
      "type": "function"
    },
    {
      "inputs": [],
      "name": "getFeeDetails",
      "outputs": [
        {
          "internalType": "uint128",
          "name": "",
          "type": "uint128"
        },
        {
          "internalType": "uint128",
          "name": "",
          "type": "uint128"
        },
        {
          "internalType": "uint256",
          "name": "",
          "type": "uint256"
        }
      ],
      "stateMutability": "view",
      "type": "function"
    },
    {
      "inputs": [],
      "name": "getLiquidityAggregator",
      "outputs": [
        {
          "internalType": "address",
          "name": "",
          "type": "address"
        }
      ],
      "stateMutability": "view",
      "type": "function"
    },
    {
      "inputs": [
        {
          "internalType": "bytes32",
          "name": "_orderId",
          "type": "bytes32"
        }
      ],
      "name": "getOrderInfo",
      "outputs": [
        {
          "components": [
            {
              "internalType": "address",
              "name": "seller",
              "type": "address"
            },
            {
              "internalType": "address",
              "name": "token",
              "type": "address"
            },
            {
              "internalType": "address",
              "name": "senderFeeRecipient",
              "type": "address"
            },
            {
              "internalType": "uint256",
              "name": "senderFee",
              "type": "uint256"
            },
            {
              "internalType": "uint96",
              "name": "rate",
              "type": "uint96"
            },
            {
              "internalType": "bool",
              "name": "isFulfilled",
              "type": "bool"
            },
            {
              "internalType": "address",
              "name": "refundAddress",
              "type": "address"
            },
            {
              "internalType": "uint96",
              "name": "currentBPS",
              "type": "uint96"
            },
            {
              "internalType": "uint256",
              "name": "amount",
              "type": "uint256"
            }
          ],
          "internalType": "struct IPaycrest.Order",
          "name": "",
          "type": "tuple"
        }
      ],
      "stateMutability": "view",
      "type": "function"
    },
    {
      "inputs": [
        {
          "internalType": "bytes32",
          "name": "code",
          "type": "bytes32"
        }
      ],
      "name": "getSupportedInstitutionName",
      "outputs": [
        {
          "components": [
            {
              "internalType": "bytes32",
              "name": "name",
              "type": "bytes32"
            },
            {
              "internalType": "bytes32",
              "name": "currency",
              "type": "bytes32"
            }
          ],
          "internalType": "struct PaycrestSettingManager.InstitutionByCode",
          "name": "",
          "type": "tuple"
        }
      ],
      "stateMutability": "view",
      "type": "function"
    },
    {
      "inputs": [
        {
          "internalType": "bytes32",
          "name": "currency",
          "type": "bytes32"
        }
      ],
      "name": "getSupportedInstitutions",
      "outputs": [
        {
          "components": [
            {
              "internalType": "bytes32",
              "name": "code",
              "type": "bytes32"
            },
            {
              "internalType": "bytes32",
              "name": "name",
              "type": "bytes32"
            }
          ],
          "internalType": "struct PaycrestSettingManager.Institution[]",
          "name": "",
          "type": "tuple[]"
        }
      ],
      "stateMutability": "view",
      "type": "function"
    },
    {
      "inputs": [
        {
          "internalType": "address",
          "name": "sender",
          "type": "address"
        }
      ],
      "name": "getWhitelistedStatus",
      "outputs": [
        {
          "internalType": "bool",
          "name": "",
          "type": "bool"
        }
      ],
      "stateMutability": "view",
      "type": "function"
    },
    {
      "inputs": [
        {
          "internalType": "address",
          "name": "_usdc",
          "type": "address"
        }
      ],
      "name": "initialize",
      "outputs": [],
      "stateMutability": "nonpayable",
      "type": "function"
    },
    {
      "inputs": [
        {
          "internalType": "address",
          "name": "_token",
          "type": "address"
        }
      ],
      "name": "isTokenSupported",
      "outputs": [
        {
          "internalType": "bool",
          "name": "",
          "type": "bool"
        }
      ],
      "stateMutability": "view",
      "type": "function"
    },
    {
      "inputs": [],
      "name": "owner",
      "outputs": [
        {
          "internalType": "address",
          "name": "",
          "type": "address"
        }
      ],
      "stateMutability": "view",
      "type": "function"
    },
    {
      "inputs": [
        {
          "internalType": "bytes32",
          "name": "_orderId",
          "type": "bytes32"
        }
      ],
      "name": "refund",
      "outputs": [
        {
          "internalType": "bool",
          "name": "",
          "type": "bool"
        }
      ],
      "stateMutability": "nonpayable",
      "type": "function"
    },
    {
      "inputs": [],
      "name": "renounceOwnership",
      "outputs": [],
      "stateMutability": "nonpayable",
      "type": "function"
    },
    {
      "inputs": [
        {
          "internalType": "bytes32",
          "name": "currency",
          "type": "bytes32"
        },
        {
          "components": [
            {
              "internalType": "bytes32",
              "name": "code",
              "type": "bytes32"
            },
            {
              "internalType": "bytes32",
              "name": "name",
              "type": "bytes32"
            }
          ],
          "internalType": "struct PaycrestSettingManager.Institution[]",
          "name": "institutions",
          "type": "tuple[]"
        }
      ],
      "name": "setSupportedInstitutions",
      "outputs": [],
      "stateMutability": "nonpayable",
      "type": "function"
    },
    {
      "inputs": [
        {
          "internalType": "bytes32",
          "name": "what",
          "type": "bytes32"
        },
        {
          "internalType": "address",
          "name": "value",
          "type": "address"
        },
        {
          "internalType": "bool",
          "name": "status",
          "type": "bool"
        }
      ],
      "name": "settingManagerBool",
      "outputs": [],
      "stateMutability": "nonpayable",
      "type": "function"
    },
    {
      "inputs": [
        {
          "internalType": "bytes32",
          "name": "_splitOrderId",
          "type": "bytes32"
        },
        {
          "internalType": "bytes32",
          "name": "_orderId",
          "type": "bytes32"
        },
        {
          "internalType": "address[]",
          "name": "_validators",
          "type": "address[]"
        },
        {
          "internalType": "address",
          "name": "_liquidityProvider",
          "type": "address"
        },
        {
          "internalType": "uint96",
          "name": "_settlePercent",
          "type": "uint96"
        }
      ],
      "name": "settle",
      "outputs": [
        {
          "internalType": "bool",
          "name": "",
          "type": "bool"
        }
      ],
      "stateMutability": "nonpayable",
      "type": "function"
    },
    {
      "inputs": [
        {
          "internalType": "address",
          "name": "newOwner",
          "type": "address"
        }
      ],
      "name": "transferOwnership",
      "outputs": [],
      "stateMutability": "nonpayable",
      "type": "function"
    },
    {
      "inputs": [
        {
          "internalType": "bytes32",
          "name": "what",
          "type": "bytes32"
        },
        {
          "internalType": "address",
          "name": "value",
          "type": "address"
        }
      ],
      "name": "updateProtocolAddresses",
      "outputs": [],
      "stateMutability": "nonpayable",
      "type": "function"
    },
    {
      "inputs": [
        {
          "internalType": "uint128",
          "name": "_protocolFeePercent",
          "type": "uint128"
        },
        {
          "internalType": "uint128",
          "name": "_validatorFeePercent",
          "type": "uint128"
        }
      ],
      "name": "updateProtocolFees",
      "outputs": [],
      "stateMutability": "nonpayable",
      "type": "function"
    },
    {
      "inputs": [
        {
          "internalType": "address",
          "name": "_token",
          "type": "address"
        },
        {
          "internalType": "address",
          "name": "_recipient",
          "type": "address"
        },
        {
          "internalType": "uint256",
          "name": "_amount",
          "type": "uint256"
        }
      ],
      "name": "withdraw",
      "outputs": [],
      "stateMutability": "nonpayable",
      "type": "function"
    }
  ],
  "bytecode": "0x60806040523480156200001157600080fd5b50620000226200002860201b60201c565b620001d2565b600060019054906101000a900460ff16156200007b576040517f08c379a0000000000000000000000000000000000000000000000000000000008152600401620000729062000175565b60405180910390fd5b60ff801660008054906101000a900460ff1660ff1614620000ec5760ff6000806101000a81548160ff021916908360ff1602179055507f7f26b83ff96e1f2b6a682f133852f6798a09c465da95921460cefb384740249860ff604051620000e39190620001b5565b60405180910390a15b565b600082825260208201905092915050565b7f496e697469616c697a61626c653a20636f6e747261637420697320696e69746960008201527f616c697a696e6700000000000000000000000000000000000000000000000000602082015250565b60006200015d602783620000ee565b91506200016a82620000ff565b604082019050919050565b6000602082019050818103600083015262000190816200014e565b9050919050565b600060ff82169050919050565b620001af8162000197565b82525050565b6000602082019050620001cc6000830184620001a4565b92915050565b61381c80620001e26000396000f3fe608060405234801561001057600080fd5b50600436106101215760003560e01c806387490d86116100ad578063d12ff20a11610071578063d12ff20a1461031c578063d8e8de341461034c578063d9caed121461037c578063f2fde38b14610398578063f5326b19146103b457610121565b806387490d86146102765780638da5cb5b146102a657806399e3c0b4146102c4578063b810c636146102e0578063c4d66de81461030057610121565b8063715018a6116100f4578063715018a6146101c05780637249fbb6146101ca57806375151b63146101fa578063768c6ec01461022a57806379a0effb1461025a57610121565b806302621338146101265780632ebc5356146101565780633220088214610174578063384efd2714610190575b600080fd5b610140600480360381019061013b9190612549565b6103d0565b60405161014d9190612663565b60405180910390f35b61015e61050e565b60405161016b91906126c6565b60405180910390f35b61018e6004803603810190610189919061288f565b610538565b005b6101aa60048036038101906101a591906129b6565b61064c565b6040516101b79190612a6b565b60405180910390f35b6101c8610b58565b005b6101e460048036038101906101df9190612549565b610b6c565b6040516101f19190612a6b565b60405180910390f35b610214600480360381019061020f9190612a86565b610e05565b6040516102219190612a6b565b60405180910390f35b610244600480360381019061023f9190612549565b610e5b565b6040516102519190612bb0565b60405180910390f35b610274600480360381019061026f9190612bcc565b61108c565b005b610290600480360381019061028b9190612549565b6111d0565b60405161029d9190612c3b565b60405180910390f35b6102ae611211565b6040516102bb91906126c6565b60405180910390f35b6102de60048036038101906102d99190612c82565b61123b565b005b6102e8611428565b6040516102f793929190612d0f565b60405180910390f35b61031a60048036038101906103159190612a86565b611479565b005b61033660048036038101906103319190612dc8565b611690565b6040516103439190612ead565b60405180910390f35b61036660048036038101906103619190612a86565b611ad0565b6040516103739190612a6b565b60405180910390f35b61039660048036038101906103919190612ec8565b611b26565b005b6103b260048036038101906103ad9190612a86565b611bb2565b005b6103ce60048036038101906103c99190612f47565b611c35565b005b60606000606b6000848152602001908152602001600020805480602002602001604051908101604052809291908181526020016000905b8282101561044d57838290600052602060002090600202016040518060400160405290816000820154815260200160018201548152505081526020019060010190610407565b50505050905060008151905060008167ffffffffffffffff811115610475576104746126f7565b5b6040519080825280602002602001820160405280156104ae57816020015b61049b6123dc565b8152602001906001900390816104935790505b50905060005b82811015610502578381815181106104cf576104ce612f87565b5b60200260200101518282815181106104ea576104e9612f87565b5b602002602001018190525080806001019150506104b4565b50809350505050919050565b6000606860009054906101000a900473ffffffffffffffffffffffffffffffffffffffff16905090565b610540611cec565b60008151905060005b8181101561064657606b600085815260200190815260200160002083828151811061057757610576612f87565b5b602002602001015190806001815401808255809150506001900390600052602060002090600202016000909190919091506000820151816000015560208201518160010155505060405180604001604052808483815181106105dc576105db612f87565b5b602002602001015160200151815260200185815250606c600085848151811061060857610607612f87565b5b602002602001015160000151815260200190815260200160002060008201518160000155602082015181600101559050508080600101915050610549565b50505050565b6000606860009054906101000a900473ffffffffffffffffffffffffffffffffffffffff1673ffffffffffffffffffffffffffffffffffffffff163373ffffffffffffffffffffffffffffffffffffffff16146106d5576040517fe9d8299200000000000000000000000000000000000000000000000000000000815260040160405180910390fd5b606d6000878152602001908152602001600020600401600c9054906101000a900460ff1615610730576040517f56f1733f00000000000000000000000000000000000000000000000000000000815260040160405180910390fd5b6000606d600088815260200190815260200160002060010160009054906101000a900473ffffffffffffffffffffffffffffffffffffffff16905082606d600089815260200190815260200160002060050160148282829054906101000a90046bffffffffffffffffffffffff166107a89190612fe5565b92506101000a8154816bffffffffffffffffffffffff02191690836bffffffffffffffffffffffff1602179055506000606d600089815260200190815260200160002060050160149054906101000a90046bffffffffffffffffffffffff166bffffffffffffffffffffffff160361084a576001606d6000898152602001908152602001600020600401600c6101000a81548160ff0219169083151502179055505b60006108568885611d6a565b90506000606d60008a815260200190815260200160002060030154905060008111156108865761088589611ece565b5b8273ffffffffffffffffffffffffffffffffffffffff1663a9059cbb606760009054906101000a900473ffffffffffffffffffffffffffffffffffffffff1684600001516040518363ffffffff1660e01b81526004016108e7929190613025565b6020604051808303816000875af1158015610906573d6000803e3d6000fd5b505050506040513d601f19601f8201168201806040525081019061092a9190613063565b508273ffffffffffffffffffffffffffffffffffffffff1663a9059cbb8784602001516040518363ffffffff1660e01b815260040161096a929190613025565b6020604051808303816000875af1158015610989573d6000803e3d6000fd5b505050506040513d601f19601f820116820180604052508101906109ad9190613063565b50600088889050905060008184604001516109c891906130bf565b905060005b82811015610af3578573ffffffffffffffffffffffffffffffffffffffff1663a9059cbb8c8c84818110610a0457610a03612f87565b5b9050602002016020810190610a199190612a86565b846040518363ffffffff1660e01b8152600401610a37929190613025565b6020604051808303816000875af1158015610a56573d6000803e3d6000fd5b505050506040513d601f19601f82011682018060405250810190610a7a9190613063565b50818b8b83818110610a8f57610a8e612f87565b5b9050602002016020810190610aa49190612a86565b73ffffffffffffffffffffffffffffffffffffffff167f5474bd279464e053eb7fcf5928630d905eeb2043438c8f71316f477294cdc16b60405160405180910390a380806001019150506109cd565b508773ffffffffffffffffffffffffffffffffffffffff168b7f7b5664d3710676924bf38f3d89d38a62db3aa5fca4213adf6fa36e51c3cfc8548e8a604051610b3d9291906130ff565b60405180910390a36001955050505050509695505050505050565b610b60611cec565b610b6a6000612022565b565b6000606860009054906101000a900473ffffffffffffffffffffffffffffffffffffffff1673ffffffffffffffffffffffffffffffffffffffff163373ffffffffffffffffffffffffffffffffffffffff1614610bf5576040517fe9d8299200000000000000000000000000000000000000000000000000000000815260040160405180910390fd5b606d6000838152602001908152602001600020600401600c9054906101000a900460ff1615610c59576040517f08c379a0000000000000000000000000000000000000000000000000000000008152600401610c5090613185565b60405180910390fd5b6001606d6000848152602001908152602001600020600401600c6101000a81548160ff0219169083151502179055506000606d600084815260200190815260200160002060050160146101000a8154816bffffffffffffffffffffffff02191690836bffffffffffffffffffffffff160217905550606d600083815260200190815260200160002060010160009054906101000a900473ffffffffffffffffffffffffffffffffffffffff1673ffffffffffffffffffffffffffffffffffffffff1663a9059cbb606d600085815260200190815260200160002060050160009054906101000a900473ffffffffffffffffffffffffffffffffffffffff16606d6000868152602001908152602001600020600601546040518363ffffffff1660e01b8152600401610d8b929190613025565b6020604051808303816000875af1158015610daa573d6000803e3d6000fd5b505050506040513d601f19601f82011682018060405250810190610dce9190613063565b50817ffe509803c09416b28ff3d8f690c8b0c61462a892c46d5430c8fb20abe472daf060405160405180910390a260019050919050565b6000606960008373ffffffffffffffffffffffffffffffffffffffff1673ffffffffffffffffffffffffffffffffffffffff16815260200190815260200160002060009054906101000a900460ff169050919050565b610e636123fc565b606d6000838152602001908152602001600020604051806101200160405290816000820160009054906101000a900473ffffffffffffffffffffffffffffffffffffffff1673ffffffffffffffffffffffffffffffffffffffff1673ffffffffffffffffffffffffffffffffffffffff1681526020016001820160009054906101000a900473ffffffffffffffffffffffffffffffffffffffff1673ffffffffffffffffffffffffffffffffffffffff1673ffffffffffffffffffffffffffffffffffffffff1681526020016002820160009054906101000a900473ffffffffffffffffffffffffffffffffffffffff1673ffffffffffffffffffffffffffffffffffffffff1673ffffffffffffffffffffffffffffffffffffffff168152602001600382015481526020016004820160009054906101000a90046bffffffffffffffffffffffff166bffffffffffffffffffffffff166bffffffffffffffffffffffff16815260200160048201600c9054906101000a900460ff161515151581526020016005820160009054906101000a900473ffffffffffffffffffffffffffffffffffffffff1673ffffffffffffffffffffffffffffffffffffffff1673ffffffffffffffffffffffffffffffffffffffff1681526020016005820160149054906101000a90046bffffffffffffffffffffffff166bffffffffffffffffffffffff166bffffffffffffffffffffffff1681526020016006820154815250509050919050565b611094611cec565b600073ffffffffffffffffffffffffffffffffffffffff168173ffffffffffffffffffffffffffffffffffffffff16036110fa576040517f9c8e2b5d00000000000000000000000000000000000000000000000000000000815260040160405180910390fd5b7f666565000000000000000000000000000000000000000000000000000000000082036111635780606760006101000a81548173ffffffffffffffffffffffffffffffffffffffff021916908373ffffffffffffffffffffffffffffffffffffffff1602179055505b7f61676772656761746f720000000000000000000000000000000000000000000082036111cc5780606860006101000a81548173ffffffffffffffffffffffffffffffffffffffff021916908373ffffffffffffffffffffffffffffffffffffffff1602179055505b5050565b6111d86124be565b606c6000838152602001908152602001600020604051806040016040529081600082015481526020016001820154815250509050919050565b6000603360009054906101000a900473ffffffffffffffffffffffffffffffffffffffff16905090565b611243611cec565b600073ffffffffffffffffffffffffffffffffffffffff168273ffffffffffffffffffffffffffffffffffffffff16036112a9576040517f9c8e2b5d00000000000000000000000000000000000000000000000000000000815260040160405180910390fd5b7f746f6b656e00000000000000000000000000000000000000000000000000000083036113285780606960008473ffffffffffffffffffffffffffffffffffffffff1673ffffffffffffffffffffffffffffffffffffffff16815260200190815260200160002060006101000a81548160ff0219169083151502179055505b7f77686974656c697374000000000000000000000000000000000000000000000083036113ab5780606a60008473ffffffffffffffffffffffffffffffffffffffff1673ffffffffffffffffffffffffffffffffffffffff16815260200190815260200160002060006101000a81548160ff0219169083151502179055506113e8565b826040517f48bae5b80000000000000000000000000000000000000000000000000000000081526004016113df9190612ead565b60405180910390fd5b7fe22cadcc5ddbc0a185e8920eaa6825bcc06dcd6b432988e7e9912caa59ace93083838360405161141b939291906131a5565b60405180910390a1505050565b6000806000606660009054906101000a90046fffffffffffffffffffffffffffffffff16606660109054906101000a90046fffffffffffffffffffffffffffffffff16606554925092509250909192565b60008060019054906101000a900460ff161590508080156114aa5750600160008054906101000a900460ff1660ff16105b806114d757506114b9306120e8565b1580156114d65750600160008054906101000a900460ff1660ff16145b5b611516576040517f08c379a000000000000000000000000000000000000000000000000000000000815260040161150d9061324e565b60405180910390fd5b60016000806101000a81548160ff021916908360ff1602179055508015611553576001600060016101000a81548160ff0219169083151502179055505b6001606960008473ffffffffffffffffffffffffffffffffffffffff1673ffffffffffffffffffffffffffffffffffffffff16815260200190815260200160002060006101000a81548160ff021916908315150217905550620186a0606581905550611388606660006101000a8154816fffffffffffffffffffffffffffffffff02191690836fffffffffffffffffffffffffffffffff1602179055506101f4606660106101000a8154816fffffffffffffffffffffffffffffffff02191690836fffffffffffffffffffffffffffffffff16021790555061163361210b565b801561168c5760008060016101000a81548160ff0219169083151502179055507f7f26b83ff96e1f2b6a682f133852f6798a09c465da95921460cefb3847402498600160405161168391906132c0565b60405180910390a15b5050565b600061169f8a8a86898c612164565b8973ffffffffffffffffffffffffffffffffffffffff166323b872dd33308c6040518463ffffffff1660e01b81526004016116dc939291906132db565b6020604051808303816000875af11580156116fb573d6000803e3d6000fd5b505050506040513d601f19601f8201168201806040525081019061171f9190613063565b50606e60003373ffffffffffffffffffffffffffffffffffffffff1673ffffffffffffffffffffffffffffffffffffffff168152602001908152602001600020600081548092919061177090613312565b919050555033606e60003373ffffffffffffffffffffffffffffffffffffffff1673ffffffffffffffffffffffffffffffffffffffff168152602001908152602001600020546040516020016117c7929190613025565b6040516020818303038152906040528051906020012090506040518061012001604052803373ffffffffffffffffffffffffffffffffffffffff1681526020018b73ffffffffffffffffffffffffffffffffffffffff1681526020018773ffffffffffffffffffffffffffffffffffffffff168152602001868152602001886bffffffffffffffffffffffff1681526020016000151581526020018573ffffffffffffffffffffffffffffffffffffffff1681526020016065546bffffffffffffffffffffffff1681526020018a815250606d600083815260200190815260200160002060008201518160000160006101000a81548173ffffffffffffffffffffffffffffffffffffffff021916908373ffffffffffffffffffffffffffffffffffffffff16021790555060208201518160010160006101000a81548173ffffffffffffffffffffffffffffffffffffffff021916908373ffffffffffffffffffffffffffffffffffffffff16021790555060408201518160020160006101000a81548173ffffffffffffffffffffffffffffffffffffffff021916908373ffffffffffffffffffffffffffffffffffffffff1602179055506060820151816003015560808201518160040160006101000a8154816bffffffffffffffffffffffff02191690836bffffffffffffffffffffffff16021790555060a082015181600401600c6101000a81548160ff02191690831515021790555060c08201518160050160006101000a81548173ffffffffffffffffffffffffffffffffffffffff021916908373ffffffffffffffffffffffffffffffffffffffff16021790555060e08201518160050160146101000a8154816bffffffffffffffffffffffff02191690836bffffffffffffffffffffffff160217905550610100820151816006015590505080898b73ffffffffffffffffffffffffffffffffffffffff167f34e33f86eb59d668184e1f86aeb03ed25f4ce72216218ed02db752f21c6a40428a8c8888604051611abb94939291906133c7565b60405180910390a49998505050505050505050565b6000606a60008373ffffffffffffffffffffffffffffffffffffffff1673ffffffffffffffffffffffffffffffffffffffff16815260200190815260200160002060009054906101000a900460ff169050919050565b611b2e611cec565b8273ffffffffffffffffffffffffffffffffffffffff1663a9059cbb83836040518363ffffffff1660e01b8152600401611b69929190613025565b6020604051808303816000875af1158015611b88573d6000803e3d6000fd5b505050506040513d601f19601f82011682018060405250810190611bac9190613063565b50505050565b611bba611cec565b600073ffffffffffffffffffffffffffffffffffffffff168173ffffffffffffffffffffffffffffffffffffffff1603611c29576040517f08c379a0000000000000000000000000000000000000000000000000000000008152600401611c2090613479565b60405180910390fd5b611c3281612022565b50565b611c3d611cec565b81606660006101000a8154816fffffffffffffffffffffffffffffffff02191690836fffffffffffffffffffffffffffffffff16021790555080606660106101000a8154816fffffffffffffffffffffffffffffffff02191690836fffffffffffffffffffffffffffffffff1602179055507fe38926c5806b98a6fd00c5d791a36fbd196537fe48d11c45c9f1d0acd1ea74df8282604051611ce0929190613499565b60405180910390a15050565b611cf4612373565b73ffffffffffffffffffffffffffffffffffffffff16611d12611211565b73ffffffffffffffffffffffffffffffffffffffff1614611d68576040517f08c379a0000000000000000000000000000000000000000000000000000000008152600401611d5f9061350e565b60405180910390fd5b565b611d726124de565b6000606d6000858152602001908152602001600020600601549050606d60008581526020019081526020016000206003015481611daf919061352e565b9050606554836bffffffffffffffffffffffff1682611dce9190613562565b611dd891906130bf565b826020018181525050606554606660009054906101000a90046fffffffffffffffffffffffffffffffff166fffffffffffffffffffffffffffffffff168360200151611e249190613562565b611e2e91906130bf565b82600001818152505081600001518260200151611e4b919061352e565b826020018181525050606554606660109054906101000a90046fffffffffffffffffffffffffffffffff166fffffffffffffffffffffffffffffffff168360000151611e979190613562565b611ea191906130bf565b82604001818152505081604001518260000151611ebe919061352e565b8260000181815250505092915050565b6000606d600083815260200190815260200160002060020160009054906101000a900473ffffffffffffffffffffffffffffffffffffffff1690506000606d6000848152602001908152602001600020600301549050606d600084815260200190815260200160002060010160009054906101000a900473ffffffffffffffffffffffffffffffffffffffff1673ffffffffffffffffffffffffffffffffffffffff1663a9059cbb83836040518363ffffffff1660e01b8152600401611f95929190613025565b6020604051808303816000875af1158015611fb4573d6000803e3d6000fd5b505050506040513d601f19601f82011682018060405250810190611fd89190613063565b50808273ffffffffffffffffffffffffffffffffffffffff167f96c76d5aec8a8c11a9c8e02768e3fa309347330d08961e0cf9fd43b349b684c260405160405180910390a3505050565b6000603360009054906101000a900473ffffffffffffffffffffffffffffffffffffffff16905081603360006101000a81548173ffffffffffffffffffffffffffffffffffffffff021916908373ffffffffffffffffffffffffffffffffffffffff1602179055508173ffffffffffffffffffffffffffffffffffffffff168173ffffffffffffffffffffffffffffffffffffffff167f8be0079c531659141344cd1fd0a4f28419497f9722a3daafe3b4186f6b6457e060405160405180910390a35050565b6000808273ffffffffffffffffffffffffffffffffffffffff163b119050919050565b600060019054906101000a900460ff1661215a576040517f08c379a000000000000000000000000000000000000000000000000000000000815260040161215190613616565b60405180910390fd5b61216261237b565b565b606960008673ffffffffffffffffffffffffffffffffffffffff1673ffffffffffffffffffffffffffffffffffffffff16815260200190815260200160002060009054906101000a900460ff166121f0576040517f08c379a00000000000000000000000000000000000000000000000000000000081526004016121e790613682565b60405180910390fd5b60008411612233576040517f08c379a000000000000000000000000000000000000000000000000000000000815260040161222a906136ee565b60405180910390fd5b600073ffffffffffffffffffffffffffffffffffffffff168373ffffffffffffffffffffffffffffffffffffffff16036122a2576040517f08c379a00000000000000000000000000000000000000000000000000000000081526004016122999061375a565b60405180910390fd5b600073ffffffffffffffffffffffffffffffffffffffff168273ffffffffffffffffffffffffffffffffffffffff1603612311576040517f08c379a00000000000000000000000000000000000000000000000000000000081526004016123089061375a565b60405180910390fd5b6000801b606c6000838152602001908152602001600020600001540361236c576040517f08c379a0000000000000000000000000000000000000000000000000000000008152600401612363906137c6565b60405180910390fd5b5050505050565b600033905090565b600060019054906101000a900460ff166123ca576040517f08c379a00000000000000000000000000000000000000000000000000000000081526004016123c190613616565b60405180910390fd5b6123da6123d5612373565b612022565b565b604051806040016040528060008019168152602001600080191681525090565b604051806101200160405280600073ffffffffffffffffffffffffffffffffffffffff168152602001600073ffffffffffffffffffffffffffffffffffffffff168152602001600073ffffffffffffffffffffffffffffffffffffffff1681526020016000815260200160006bffffffffffffffffffffffff168152602001600015158152602001600073ffffffffffffffffffffffffffffffffffffffff16815260200160006bffffffffffffffffffffffff168152602001600081525090565b604051806040016040528060008019168152602001600080191681525090565b60405180606001604052806000815260200160008152602001600081525090565b6000604051905090565b600080fd5b600080fd5b6000819050919050565b61252681612513565b811461253157600080fd5b50565b6000813590506125438161251d565b92915050565b60006020828403121561255f5761255e612509565b5b600061256d84828501612534565b91505092915050565b600081519050919050565b600082825260208201905092915050565b6000819050602082019050919050565b6125ab81612513565b82525050565b6040820160008201516125c760008501826125a2565b5060208201516125da60208501826125a2565b50505050565b60006125ec83836125b1565b60408301905092915050565b6000602082019050919050565b600061261082612576565b61261a8185612581565b935061262583612592565b8060005b8381101561265657815161263d88826125e0565b9750612648836125f8565b925050600181019050612629565b5085935050505092915050565b6000602082019050818103600083015261267d8184612605565b905092915050565b600073ffffffffffffffffffffffffffffffffffffffff82169050919050565b60006126b082612685565b9050919050565b6126c0816126a5565b82525050565b60006020820190506126db60008301846126b7565b92915050565b600080fd5b6000601f19601f8301169050919050565b7f4e487b7100000000000000000000000000000000000000000000000000000000600052604160045260246000fd5b61272f826126e6565b810181811067ffffffffffffffff8211171561274e5761274d6126f7565b5b80604052505050565b60006127616124ff565b905061276d8282612726565b919050565b600067ffffffffffffffff82111561278d5761278c6126f7565b5b602082029050602081019050919050565b600080fd5b600080fd5b6000604082840312156127be576127bd6127a3565b5b6127c86040612757565b905060006127d884828501612534565b60008301525060206127ec84828501612534565b60208301525092915050565b600061280b61280684612772565b612757565b9050808382526020820190506040840283018581111561282e5761282d61279e565b5b835b81811015612857578061284388826127a8565b845260208401935050604081019050612830565b5050509392505050565b600082601f830112612876576128756126e1565b5b81356128868482602086016127f8565b91505092915050565b600080604083850312156128a6576128a5612509565b5b60006128b485828601612534565b925050602083013567ffffffffffffffff8111156128d5576128d461250e565b5b6128e185828601612861565b9150509250929050565b600080fd5b60008083601f840112612906576129056126e1565b5b8235905067ffffffffffffffff811115612923576129226128eb565b5b60208301915083602082028301111561293f5761293e61279e565b5b9250929050565b61294f816126a5565b811461295a57600080fd5b50565b60008135905061296c81612946565b92915050565b60006bffffffffffffffffffffffff82169050919050565b61299381612972565b811461299e57600080fd5b50565b6000813590506129b08161298a565b92915050565b60008060008060008060a087890312156129d3576129d2612509565b5b60006129e189828a01612534565b96505060206129f289828a01612534565b955050604087013567ffffffffffffffff811115612a1357612a1261250e565b5b612a1f89828a016128f0565b94509450506060612a3289828a0161295d565b9250506080612a4389828a016129a1565b9150509295509295509295565b60008115159050919050565b612a6581612a50565b82525050565b6000602082019050612a806000830184612a5c565b92915050565b600060208284031215612a9c57612a9b612509565b5b6000612aaa8482850161295d565b91505092915050565b612abc816126a5565b82525050565b6000819050919050565b612ad581612ac2565b82525050565b612ae481612972565b82525050565b612af381612a50565b82525050565b61012082016000820151612b106000850182612ab3565b506020820151612b236020850182612ab3565b506040820151612b366040850182612ab3565b506060820151612b496060850182612acc565b506080820151612b5c6080850182612adb565b5060a0820151612b6f60a0850182612aea565b5060c0820151612b8260c0850182612ab3565b5060e0820151612b9560e0850182612adb565b50610100820151612baa610100850182612acc565b50505050565b600061012082019050612bc66000830184612af9565b92915050565b60008060408385031215612be357612be2612509565b5b6000612bf185828601612534565b9250506020612c028582860161295d565b9150509250929050565b604082016000820151612c2260008501826125a2565b506020820151612c3560208501826125a2565b50505050565b6000604082019050612c506000830184612c0c565b92915050565b612c5f81612a50565b8114612c6a57600080fd5b50565b600081359050612c7c81612c56565b92915050565b600080600060608486031215612c9b57612c9a612509565b5b6000612ca986828701612534565b9350506020612cba8682870161295d565b9250506040612ccb86828701612c6d565b9150509250925092565b60006fffffffffffffffffffffffffffffffff82169050919050565b612cfa81612cd5565b82525050565b612d0981612ac2565b82525050565b6000606082019050612d246000830186612cf1565b612d316020830185612cf1565b612d3e6040830184612d00565b949350505050565b612d4f81612ac2565b8114612d5a57600080fd5b50565b600081359050612d6c81612d46565b92915050565b60008083601f840112612d8857612d876126e1565b5b8235905067ffffffffffffffff811115612da557612da46128eb565b5b602083019150836001820283011115612dc157612dc061279e565b5b9250929050565b60008060008060008060008060006101008a8c031215612deb57612dea612509565b5b6000612df98c828d0161295d565b9950506020612e0a8c828d01612d5d565b9850506040612e1b8c828d01612534565b9750506060612e2c8c828d016129a1565b9650506080612e3d8c828d0161295d565b95505060a0612e4e8c828d01612d5d565b94505060c0612e5f8c828d0161295d565b93505060e08a013567ffffffffffffffff811115612e8057612e7f61250e565b5b612e8c8c828d01612d72565b92509250509295985092959850929598565b612ea781612513565b82525050565b6000602082019050612ec26000830184612e9e565b92915050565b600080600060608486031215612ee157612ee0612509565b5b6000612eef8682870161295d565b9350506020612f008682870161295d565b9250506040612f1186828701612d5d565b9150509250925092565b612f2481612cd5565b8114612f2f57600080fd5b50565b600081359050612f4181612f1b565b92915050565b60008060408385031215612f5e57612f5d612509565b5b6000612f6c85828601612f32565b9250506020612f7d85828601612f32565b9150509250929050565b7f4e487b7100000000000000000000000000000000000000000000000000000000600052603260045260246000fd5b7f4e487b7100000000000000000000000000000000000000000000000000000000600052601160045260246000fd5b6000612ff082612972565b9150612ffb83612972565b925082820390506bffffffffffffffffffffffff81111561301f5761301e612fb6565b5b92915050565b600060408201905061303a60008301856126b7565b6130476020830184612d00565b9392505050565b60008151905061305d81612c56565b92915050565b60006020828403121561307957613078612509565b5b60006130878482850161304e565b91505092915050565b7f4e487b7100000000000000000000000000000000000000000000000000000000600052601260045260246000fd5b60006130ca82612ac2565b91506130d583612ac2565b9250826130e5576130e4613090565b5b828204905092915050565b6130f981612972565b82525050565b60006040820190506131146000830185612e9e565b61312160208301846130f0565b9392505050565b600082825260208201905092915050565b7f4f7264657246756c66696c6c6564000000000000000000000000000000000000600082015250565b600061316f600e83613128565b915061317a82613139565b602082019050919050565b6000602082019050818103600083015261319e81613162565b9050919050565b60006060820190506131ba6000830186612e9e565b6131c760208301856126b7565b6131d46040830184612a5c565b949350505050565b7f496e697469616c697a61626c653a20636f6e747261637420697320616c72656160008201527f647920696e697469616c697a6564000000000000000000000000000000000000602082015250565b6000613238602e83613128565b9150613243826131dc565b604082019050919050565b600060208201905081810360008301526132678161322b565b9050919050565b6000819050919050565b600060ff82169050919050565b6000819050919050565b60006132aa6132a56132a08461326e565b613285565b613278565b9050919050565b6132ba8161328f565b82525050565b60006020820190506132d560008301846132b1565b92915050565b60006060820190506132f060008301866126b7565b6132fd60208301856126b7565b61330a6040830184612d00565b949350505050565b600061331d82612ac2565b91507fffffffffffffffffffffffffffffffffffffffffffffffffffffffffffffffff820361334f5761334e612fb6565b5b600182019050919050565b600061337561337061336b84612972565b613285565b612ac2565b9050919050565b6133858161335a565b82525050565b82818337600083830152505050565b60006133a68385613128565b93506133b383858461338b565b6133bc836126e6565b840190509392505050565b60006060820190506133dc600083018761337c565b6133e96020830186612e9e565b81810360408301526133fc81848661339a565b905095945050505050565b7f4f776e61626c653a206e6577206f776e657220697320746865207a65726f206160008201527f6464726573730000000000000000000000000000000000000000000000000000602082015250565b6000613463602683613128565b915061346e82613407565b604082019050919050565b6000602082019050818103600083015261349281613456565b9050919050565b60006040820190506134ae6000830185612cf1565b6134bb6020830184612cf1565b9392505050565b7f4f776e61626c653a2063616c6c6572206973206e6f7420746865206f776e6572600082015250565b60006134f8602083613128565b9150613503826134c2565b602082019050919050565b60006020820190508181036000830152613527816134eb565b9050919050565b600061353982612ac2565b915061354483612ac2565b925082820390508181111561355c5761355b612fb6565b5b92915050565b600061356d82612ac2565b915061357883612ac2565b925082820261358681612ac2565b9150828204841483151761359d5761359c612fb6565b5b5092915050565b7f496e697469616c697a61626c653a20636f6e7472616374206973206e6f74206960008201527f6e697469616c697a696e67000000000000000000000000000000000000000000602082015250565b6000613600602b83613128565b915061360b826135a4565b604082019050919050565b6000602082019050818103600083015261362f816135f3565b9050919050565b7f546f6b656e4e6f74537570706f72746564000000000000000000000000000000600082015250565b600061366c601183613128565b915061367782613636565b602082019050919050565b6000602082019050818103600083015261369b8161365f565b9050919050565b7f416d6f756e7449735a65726f0000000000000000000000000000000000000000600082015250565b60006136d8600c83613128565b91506136e3826136a2565b602082019050919050565b60006020820190508181036000830152613707816136cb565b9050919050565b7f5468726f775a65726f4164647265737300000000000000000000000000000000600082015250565b6000613744601083613128565b915061374f8261370e565b602082019050919050565b6000602082019050818103600083015261377381613737565b9050919050565b7f496e76616c6964496e737469747574696f6e436f646500000000000000000000600082015250565b60006137b0601683613128565b91506137bb8261377a565b602082019050919050565b600060208201905081810360008301526137df816137a3565b905091905056fea2646970667358221220eedc59473fad92cf0a74c71d3cbabf33ade417cb2ad0598587b9ede23be350fb64736f6c63430008120033",
  "linkReferences": {},
  "deployedLinkReferences": {}
}