{
  "_format": "hh-sol-artifact-1",
  "contractName": "Paycrest",
  "sourceName": "contracts/Paycrest.sol",
  "abi": [
    {
      "inputs": [],
      "stateMutability": "nonpayable",
      "type": "constructor"
    },
    {
      "anonymous": false,
      "inputs": [
        {
          "indexed": false,
          "internalType": "uint8",
          "name": "version",
          "type": "uint8"
        }
      ],
      "name": "Initialized",
      "type": "event"
    },
    {
      "anonymous": false,
      "inputs": [
        {
          "indexed": true,
          "internalType": "address",
          "name": "sender",
          "type": "address"
        },
        {
          "indexed": true,
          "internalType": "address",
          "name": "token",
          "type": "address"
        },
        {
          "indexed": true,
          "internalType": "uint256",
          "name": "amount",
          "type": "uint256"
        },
        {
          "indexed": false,
          "internalType": "uint256",
          "name": "protocolFee",
          "type": "uint256"
        },
        {
          "indexed": false,
          "internalType": "bytes32",
          "name": "orderId",
          "type": "bytes32"
        },
        {
          "indexed": false,
          "internalType": "uint256",
          "name": "rate",
          "type": "uint256"
        },
        {
          "indexed": false,
          "internalType": "bytes32",
          "name": "institutionCode",
          "type": "bytes32"
        },
        {
          "indexed": false,
          "internalType": "string",
          "name": "messageHash",
          "type": "string"
        }
      ],
      "name": "OrderCreated",
      "type": "event"
    },
    {
      "anonymous": false,
      "inputs": [
        {
          "indexed": false,
          "internalType": "uint256",
          "name": "fee",
          "type": "uint256"
        },
        {
          "indexed": true,
          "internalType": "bytes32",
          "name": "orderId",
          "type": "bytes32"
        }
      ],
      "name": "OrderRefunded",
      "type": "event"
    },
    {
      "anonymous": false,
      "inputs": [
        {
          "indexed": false,
          "internalType": "bytes32",
          "name": "splitOrderId",
          "type": "bytes32"
        },
        {
          "indexed": true,
          "internalType": "bytes32",
          "name": "orderId",
          "type": "bytes32"
        },
        {
          "indexed": true,
          "internalType": "address",
          "name": "liquidityProvider",
          "type": "address"
        },
        {
          "indexed": false,
          "internalType": "uint96",
          "name": "settlePercent",
          "type": "uint96"
        }
      ],
      "name": "OrderSettled",
      "type": "event"
    },
    {
      "anonymous": false,
      "inputs": [
        {
          "indexed": true,
          "internalType": "address",
          "name": "previousOwner",
          "type": "address"
        },
        {
          "indexed": true,
          "internalType": "address",
          "name": "newOwner",
          "type": "address"
        }
      ],
      "name": "OwnershipTransferStarted",
      "type": "event"
    },
    {
      "anonymous": false,
      "inputs": [
        {
          "indexed": true,
          "internalType": "address",
          "name": "previousOwner",
          "type": "address"
        },
        {
          "indexed": true,
          "internalType": "address",
          "name": "newOwner",
          "type": "address"
        }
      ],
      "name": "OwnershipTransferred",
      "type": "event"
    },
    {
      "anonymous": false,
      "inputs": [
        {
          "indexed": false,
          "internalType": "address",
          "name": "account",
          "type": "address"
        }
      ],
      "name": "Paused",
      "type": "event"
    },
    {
      "anonymous": false,
      "inputs": [
        {
          "indexed": true,
          "internalType": "bytes32",
          "name": "what",
          "type": "bytes32"
        },
        {
          "indexed": true,
          "internalType": "address",
          "name": "treasuryAddress",
          "type": "address"
        }
      ],
      "name": "ProtocolAddressUpdated",
      "type": "event"
    },
    {
      "anonymous": false,
      "inputs": [
        {
          "indexed": false,
          "internalType": "uint64",
          "name": "protocolFee",
          "type": "uint64"
        }
      ],
      "name": "ProtocolFeesUpdated",
      "type": "event"
    },
    {
      "anonymous": false,
      "inputs": [
        {
          "indexed": true,
          "internalType": "address",
          "name": "sender",
          "type": "address"
        },
        {
          "indexed": true,
          "internalType": "uint256",
          "name": "amount",
          "type": "uint256"
        }
      ],
      "name": "SenderFeeTransferred",
      "type": "event"
    },
    {
      "anonymous": false,
      "inputs": [
        {
          "indexed": true,
          "internalType": "bytes",
          "name": "aggregator",
          "type": "bytes"
        }
      ],
      "name": "SetAggregator",
      "type": "event"
    },
    {
      "anonymous": false,
      "inputs": [
        {
          "indexed": true,
          "internalType": "address",
          "name": "treasuryAddress",
          "type": "address"
        }
      ],
      "name": "SetFeeRecipient",
      "type": "event"
    },
    {
      "anonymous": false,
      "inputs": [
        {
          "indexed": true,
          "internalType": "bytes32",
          "name": "what",
          "type": "bytes32"
        },
        {
          "indexed": true,
          "internalType": "address",
          "name": "value",
          "type": "address"
        },
        {
          "indexed": false,
          "internalType": "uint256",
          "name": "status",
          "type": "uint256"
        }
      ],
      "name": "SettingManagerBool",
      "type": "event"
    },
    {
      "anonymous": false,
      "inputs": [
        {
          "indexed": true,
          "internalType": "bytes32",
          "name": "currency",
          "type": "bytes32"
        },
        {
          "components": [
            {
              "internalType": "bytes32",
              "name": "code",
              "type": "bytes32"
            },
            {
              "internalType": "bytes32",
              "name": "name",
              "type": "bytes32"
            }
          ],
          "indexed": false,
          "internalType": "struct SharedStructs.Institution[]",
          "name": "institutions",
          "type": "tuple[]"
        }
      ],
      "name": "SupportedInstitutionsUpdated",
      "type": "event"
    },
    {
      "anonymous": false,
      "inputs": [
        {
          "indexed": false,
          "internalType": "address",
          "name": "account",
          "type": "address"
        }
      ],
      "name": "Unpaused",
      "type": "event"
    },
    {
      "inputs": [],
      "name": "acceptOwnership",
      "outputs": [],
      "stateMutability": "nonpayable",
      "type": "function"
    },
    {
      "inputs": [
        {
          "internalType": "address",
          "name": "_token",
          "type": "address"
        },
        {
          "internalType": "uint256",
          "name": "_amount",
          "type": "uint256"
        },
        {
          "internalType": "bytes32",
          "name": "_institutionCode",
          "type": "bytes32"
        },
        {
          "internalType": "uint96",
          "name": "_rate",
          "type": "uint96"
        },
        {
          "internalType": "address",
          "name": "_senderFeeRecipient",
          "type": "address"
        },
        {
          "internalType": "uint256",
          "name": "_senderFee",
          "type": "uint256"
        },
        {
          "internalType": "address",
          "name": "_refundAddress",
          "type": "address"
        },
        {
          "internalType": "string",
          "name": "messageHash",
          "type": "string"
        }
      ],
      "name": "createOrder",
      "outputs": [
        {
          "internalType": "bytes32",
          "name": "orderId",
          "type": "bytes32"
        }
      ],
      "stateMutability": "nonpayable",
      "type": "function"
    },
    {
      "inputs": [],
      "name": "getAggregator",
      "outputs": [
        {
          "internalType": "bytes",
          "name": "",
          "type": "bytes"
        }
      ],
      "stateMutability": "view",
      "type": "function"
    },
    {
      "inputs": [],
      "name": "getFeeDetails",
      "outputs": [
        {
          "internalType": "uint64",
          "name": "",
          "type": "uint64"
        },
        {
          "internalType": "uint256",
          "name": "",
          "type": "uint256"
        }
      ],
      "stateMutability": "view",
      "type": "function"
    },
    {
      "inputs": [
        {
          "internalType": "bytes32",
          "name": "_orderId",
          "type": "bytes32"
        }
      ],
      "name": "getOrderInfo",
      "outputs": [
        {
          "components": [
            {
              "internalType": "address",
              "name": "sender",
              "type": "address"
            },
            {
              "internalType": "address",
              "name": "token",
              "type": "address"
            },
            {
              "internalType": "address",
              "name": "senderFeeRecipient",
              "type": "address"
            },
            {
              "internalType": "uint256",
              "name": "senderFee",
              "type": "uint256"
            },
            {
              "internalType": "uint256",
              "name": "protocolFee",
              "type": "uint256"
            },
            {
              "internalType": "bool",
              "name": "isFulfilled",
              "type": "bool"
            },
            {
              "internalType": "address",
              "name": "refundAddress",
              "type": "address"
            },
            {
              "internalType": "uint96",
              "name": "currentBPS",
              "type": "uint96"
            },
            {
              "internalType": "uint256",
              "name": "amount",
              "type": "uint256"
            }
          ],
          "internalType": "struct IPaycrest.Order",
          "name": "",
          "type": "tuple"
        }
      ],
      "stateMutability": "view",
      "type": "function"
    },
    {
      "inputs": [
        {
          "internalType": "bytes32",
          "name": "_code",
          "type": "bytes32"
        }
      ],
      "name": "getSupportedInstitutionByCode",
      "outputs": [
        {
          "components": [
            {
              "internalType": "bytes32",
              "name": "name",
              "type": "bytes32"
            },
            {
              "internalType": "bytes32",
              "name": "currency",
              "type": "bytes32"
            }
          ],
          "internalType": "struct SharedStructs.InstitutionByCode",
          "name": "",
          "type": "tuple"
        }
      ],
      "stateMutability": "view",
      "type": "function"
    },
    {
      "inputs": [
        {
          "internalType": "bytes32",
          "name": "_currency",
          "type": "bytes32"
        }
      ],
      "name": "getSupportedInstitutions",
      "outputs": [
        {
          "components": [
            {
              "internalType": "bytes32",
              "name": "code",
              "type": "bytes32"
            },
            {
              "internalType": "bytes32",
              "name": "name",
              "type": "bytes32"
            }
          ],
          "internalType": "struct SharedStructs.Institution[]",
          "name": "",
          "type": "tuple[]"
        }
      ],
      "stateMutability": "view",
      "type": "function"
    },
    {
      "inputs": [],
      "name": "initialize",
      "outputs": [],
      "stateMutability": "nonpayable",
      "type": "function"
    },
    {
      "inputs": [
        {
          "internalType": "address",
          "name": "_token",
          "type": "address"
        }
      ],
      "name": "isTokenSupported",
      "outputs": [
        {
          "internalType": "bool",
          "name": "",
          "type": "bool"
        }
      ],
      "stateMutability": "view",
      "type": "function"
    },
    {
      "inputs": [],
      "name": "owner",
      "outputs": [
        {
          "internalType": "address",
          "name": "",
          "type": "address"
        }
      ],
      "stateMutability": "view",
      "type": "function"
    },
    {
      "inputs": [],
      "name": "pause",
      "outputs": [],
      "stateMutability": "nonpayable",
      "type": "function"
    },
    {
      "inputs": [],
      "name": "paused",
      "outputs": [
        {
          "internalType": "bool",
          "name": "",
          "type": "bool"
        }
      ],
      "stateMutability": "view",
      "type": "function"
    },
    {
      "inputs": [],
      "name": "pendingOwner",
      "outputs": [
        {
          "internalType": "address",
          "name": "",
          "type": "address"
        }
      ],
      "stateMutability": "view",
      "type": "function"
    },
    {
      "inputs": [
        {
          "internalType": "uint256",
          "name": "_fee",
          "type": "uint256"
        },
        {
          "internalType": "bytes32",
          "name": "_orderId",
          "type": "bytes32"
        }
      ],
      "name": "refund",
      "outputs": [
        {
          "internalType": "bool",
          "name": "",
          "type": "bool"
        }
      ],
      "stateMutability": "nonpayable",
      "type": "function"
    },
    {
      "inputs": [],
      "name": "renounceOwnership",
      "outputs": [],
      "stateMutability": "nonpayable",
      "type": "function"
    },
    {
      "inputs": [
        {
          "internalType": "bytes32",
          "name": "currency",
          "type": "bytes32"
        },
        {
          "components": [
            {
              "internalType": "bytes32",
              "name": "code",
              "type": "bytes32"
            },
            {
              "internalType": "bytes32",
              "name": "name",
              "type": "bytes32"
            }
          ],
          "internalType": "struct SharedStructs.Institution[]",
          "name": "institutions",
          "type": "tuple[]"
        }
      ],
      "name": "setSupportedInstitutions",
      "outputs": [],
      "stateMutability": "nonpayable",
      "type": "function"
    },
    {
      "inputs": [
        {
          "internalType": "bytes32",
          "name": "what",
          "type": "bytes32"
        },
        {
          "internalType": "address",
          "name": "value",
          "type": "address"
        },
        {
          "internalType": "uint256",
          "name": "status",
          "type": "uint256"
        }
      ],
      "name": "settingManagerBool",
      "outputs": [],
      "stateMutability": "nonpayable",
      "type": "function"
    },
    {
      "inputs": [
        {
          "internalType": "bytes32",
          "name": "_splitOrderId",
          "type": "bytes32"
        },
        {
          "internalType": "bytes32",
          "name": "_orderId",
          "type": "bytes32"
        },
        {
          "internalType": "address",
          "name": "_liquidityProvider",
          "type": "address"
        },
        {
          "internalType": "uint64",
          "name": "_settlePercent",
          "type": "uint64"
        }
      ],
      "name": "settle",
      "outputs": [
        {
          "internalType": "bool",
          "name": "",
          "type": "bool"
        }
      ],
      "stateMutability": "nonpayable",
      "type": "function"
    },
    {
      "inputs": [
        {
          "internalType": "address",
          "name": "newOwner",
          "type": "address"
        }
      ],
      "name": "transferOwnership",
      "outputs": [],
      "stateMutability": "nonpayable",
      "type": "function"
    },
    {
      "inputs": [],
      "name": "unpause",
      "outputs": [],
      "stateMutability": "nonpayable",
      "type": "function"
    },
    {
      "inputs": [
        {
          "internalType": "bytes32",
          "name": "what",
          "type": "bytes32"
        },
        {
          "internalType": "address",
          "name": "value",
          "type": "address"
        }
      ],
      "name": "updateProtocolAddress",
      "outputs": [],
      "stateMutability": "nonpayable",
      "type": "function"
    },
    {
      "inputs": [
        {
          "internalType": "bytes",
          "name": "aggregator",
          "type": "bytes"
        }
      ],
      "name": "updateProtocolAggregator",
      "outputs": [],
      "stateMutability": "nonpayable",
      "type": "function"
    },
    {
      "inputs": [
        {
          "internalType": "uint64",
          "name": "_protocolFeePercent",
          "type": "uint64"
        }
      ],
      "name": "updateProtocolFees",
      "outputs": [],
      "stateMutability": "nonpayable",
      "type": "function"
    }
  ],
  "bytecode": "0x60806040523480156200001157600080fd5b50620000226200002860201b60201c565b620001d2565b600060019054906101000a900460ff16156200007b576040517f08c379a0000000000000000000000000000000000000000000000000000000008152600401620000729062000175565b60405180910390fd5b60ff801660008054906101000a900460ff1660ff1614620000ec5760ff6000806101000a81548160ff021916908360ff1602179055507f7f26b83ff96e1f2b6a682f133852f6798a09c465da95921460cefb384740249860ff604051620000e39190620001b5565b60405180910390a15b565b600082825260208201905092915050565b7f496e697469616c697a61626c653a20636f6e747261637420697320696e69746960008201527f616c697a696e6700000000000000000000000000000000000000000000000000602082015250565b60006200015d602783620000ee565b91506200016a82620000ff565b604082019050919050565b6000602082019050818103600083015262000190816200014e565b9050919050565b600060ff82169050919050565b620001af8162000197565b82525050565b6000602082019050620001cc6000830184620001a4565b92915050565b61463380620001e26000396000f3fe608060405234801561001057600080fd5b506004361061014d5760003560e01c80638129fc1c116100c3578063cb79455b1161007c578063cb79455b14610341578063cd9924001461035d578063d12ff20a14610379578063e30c3978146103a9578063f22ee704146103c7578063f2fde38b146103f75761014d565b80638129fc1c146102a45780638456cb59146102ae57806384630736146102b85780638da5cb5b146102d4578063b810c636146102f2578063c2280103146103115761014d565b80635c975abb116101155780635c975abb146101e2578063715018a61461020057806371eedb881461020a57806375151b631461023a578063768c6ec01461026a57806379ba50971461029a5761014d565b8063026213381461015257806332200882146101825780633ad59dbc1461019e5780633f4ba83a146101bc57806340ebc677146101c6575b600080fd5b61016c600480360381019061016791906129c8565b610413565b6040516101799190612ae2565b60405180910390f35b61019c60048036038101906101979190612cb2565b610499565b005b6101a661060e565b6040516101b39190612d8d565b60405180910390f35b6101c46106a0565b005b6101e060048036038101906101db9190612e0d565b6106b2565b005b6101ea61097a565b6040516101f79190612e68565b60405180910390f35b610208610991565b005b610224600480360381019061021f9190612eb9565b6109a5565b6040516102319190612e68565b60405180910390f35b610254600480360381019061024f9190612ef9565b610ec2565b6040516102619190612e68565b60405180910390f35b610284600480360381019061027f91906129c8565b610f1e565b6040516102919190613031565b60405180910390f35b6102a261111c565b005b6102ac6111a9565b005b6102b66112f9565b005b6102d260048036038101906102cd919061308d565b61130b565b005b6102dc611376565b6040516102e991906130c9565b60405180910390f35b6102fa6113a0565b604051610308929190613102565b60405180910390f35b61032b600480360381019061032691906129c8565b6113c5565b604051610338919061315a565b60405180910390f35b61035b600480360381019061035691906131d0565b611406565b005b6103776004803603810190610372919061321d565b611468565b005b610393600480360381019061038e91906132f2565b6115ed565b6040516103a091906133d7565b60405180910390f35b6103b1611b0a565b6040516103be91906130c9565b60405180910390f35b6103e160048036038101906103dc91906133f2565b611b34565b6040516103ee9190612e68565b60405180910390f35b610411600480360381019061040c9190612ef9565b61212b565b005b606060ce6000838152602001908152602001600020805480602002602001604051908101604052809291908181526020016000905b8282101561048e57838290600052602060002090600202016040518060400160405290816000820154815260200160018201548152505081526020019060010190610448565b505050509050919050565b6104a16121d8565b60ce600083815260200190815260200160002060006104c0919061285f565b60005b81518110156105bf5760ce60008481526020019081526020016000208282815181106104f2576104f1613459565b5b6020026020010151908060018154018082558091505060019003906000526020600020906002020160009091909190915060008201518160000155602082015181600101555050604051806040016040528083838151811061055757610556613459565b5b60200260200101516020015181526020018481525060cf600084848151811061058357610582613459565b5b602002602001015160000151815260200190815260200160002060008201518160000155602082015181600101559050508060010190506104c3565b50817f58f3a30ec15a8d3e09fa65f9ef10219bc7a9a99d872a4ed895c37c2e761ac2ac60ce600085815260200190815260200160002060405161060291906135a2565b60405180910390a25050565b6060609a805461061d906135f3565b80601f0160208091040260200160405190810160405280929190818152602001828054610649906135f3565b80156106965780601f1061066b57610100808354040283529160200191610696565b820191906000526020600020905b81548152906001019060200180831161067957829003601f168201915b5050505050905090565b6106a86121d8565b6106b0612256565b565b6106ba6121d8565b600073ffffffffffffffffffffffffffffffffffffffff168173ffffffffffffffffffffffffffffffffffffffff1603610729576040517f08c379a000000000000000000000000000000000000000000000000000000000815260040161072090613681565b60405180910390fd5b60007f7472656173757279000000000000000000000000000000000000000000000000830361082c578173ffffffffffffffffffffffffffffffffffffffff16609860089054906101000a900473ffffffffffffffffffffffffffffffffffffffff1673ffffffffffffffffffffffffffffffffffffffff16036107e2576040517f08c379a00000000000000000000000000000000000000000000000000000000081526004016107d990613713565b60405180910390fd5b81609860086101000a81548173ffffffffffffffffffffffffffffffffffffffff021916908373ffffffffffffffffffffffffffffffffffffffff1602179055506001905061092a565b7f61676772656761746f72000000000000000000000000000000000000000000008303610929578173ffffffffffffffffffffffffffffffffffffffff16609960009054906101000a900473ffffffffffffffffffffffffffffffffffffffff1673ffffffffffffffffffffffffffffffffffffffff16036108e3576040517f08c379a00000000000000000000000000000000000000000000000000000000081526004016108da906137a5565b60405180910390fd5b81609960006101000a81548173ffffffffffffffffffffffffffffffffffffffff021916908373ffffffffffffffffffffffffffffffffffffffff160217905550600190505b5b8015610975578173ffffffffffffffffffffffffffffffffffffffff16837fbbc5b96e57cfecb3dbeeadf92e87f15e58e64fcd75cbe256dcc5d9ef2e51e8a460405160405180910390a35b505050565b600060d060009054906101000a900460ff16905090565b6109996121d8565b6109a360006122b9565b565b6000609960009054906101000a900473ffffffffffffffffffffffffffffffffffffffff1673ffffffffffffffffffffffffffffffffffffffff163373ffffffffffffffffffffffffffffffffffffffff1614610a37576040517f08c379a0000000000000000000000000000000000000000000000000000000008152600401610a2e90613811565b60405180910390fd5b610102600083815260200190815260200160002060050160009054906101000a900460ff1615610a9c576040517f08c379a0000000000000000000000000000000000000000000000000000000008152600401610a939061387d565b60405180910390fd5b826101026000848152602001908152602001600020600401541015610af6576040517f08c379a0000000000000000000000000000000000000000000000000000000008152600401610aed906138e9565b60405180910390fd5b610102600083815260200190815260200160002060010160009054906101000a900473ffffffffffffffffffffffffffffffffffffffff1673ffffffffffffffffffffffffffffffffffffffff1663a9059cbb609860089054906101000a900473ffffffffffffffffffffffffffffffffffffffff16856040518363ffffffff1660e01b8152600401610b8a929190613909565b6020604051808303816000875af1158015610ba9573d6000803e3d6000fd5b505050506040513d601f19601f82011682018060405250810190610bcd919061395e565b506001610102600084815260200190815260200160002060050160006101000a81548160ff0219169083151502179055506000610102600084815260200190815260200160002060060160006101000a8154816bffffffffffffffffffffffff02191690836bffffffffffffffffffffffff160217905550600083610102600085815260200190815260200160002060040154610102600086815260200190815260200160002060070154610c8291906139ba565b610c8c91906139ee565b9050610102600084815260200190815260200160002060010160009054906101000a900473ffffffffffffffffffffffffffffffffffffffff1673ffffffffffffffffffffffffffffffffffffffff1663a9059cbb610102600086815260200190815260200160002060050160019054906101000a900473ffffffffffffffffffffffffffffffffffffffff16836040518363ffffffff1660e01b8152600401610d37929190613909565b6020604051808303816000875af1158015610d56573d6000803e3d6000fd5b505050506040513d601f19601f82011682018060405250810190610d7a919061395e565b50610102600084815260200190815260200160002060010160009054906101000a900473ffffffffffffffffffffffffffffffffffffffff1673ffffffffffffffffffffffffffffffffffffffff1663a9059cbb610102600086815260200190815260200160002060050160019054906101000a900473ffffffffffffffffffffffffffffffffffffffff166101026000878152602001908152602001600020600301546040518363ffffffff1660e01b8152600401610e3b929190613909565b6020604051808303816000875af1158015610e5a573d6000803e3d6000fd5b505050506040513d601f19601f82011682018060405250810190610e7e919061395e565b50827f0736fe428e1747ca8d387c2e6fa1a31a0cde62d3a167c40a46ade59a3cdc828e85604051610eaf9190613a22565b60405180910390a2600191505092915050565b6000600160cd60008473ffffffffffffffffffffffffffffffffffffffff1673ffffffffffffffffffffffffffffffffffffffff1681526020019081526020016000205403610f145760019050610f19565b600090505b919050565b610f26612883565b6101026000838152602001908152602001600020604051806101200160405290816000820160009054906101000a900473ffffffffffffffffffffffffffffffffffffffff1673ffffffffffffffffffffffffffffffffffffffff1673ffffffffffffffffffffffffffffffffffffffff1681526020016001820160009054906101000a900473ffffffffffffffffffffffffffffffffffffffff1673ffffffffffffffffffffffffffffffffffffffff1673ffffffffffffffffffffffffffffffffffffffff1681526020016002820160009054906101000a900473ffffffffffffffffffffffffffffffffffffffff1673ffffffffffffffffffffffffffffffffffffffff1673ffffffffffffffffffffffffffffffffffffffff16815260200160038201548152602001600482015481526020016005820160009054906101000a900460ff161515151581526020016005820160019054906101000a900473ffffffffffffffffffffffffffffffffffffffff1673ffffffffffffffffffffffffffffffffffffffff1673ffffffffffffffffffffffffffffffffffffffff1681526020016006820160009054906101000a90046bffffffffffffffffffffffff166bffffffffffffffffffffffff166bffffffffffffffffffffffff1681526020016007820154815250509050919050565b60006111266122ea565b90508073ffffffffffffffffffffffffffffffffffffffff16611147611b0a565b73ffffffffffffffffffffffffffffffffffffffff161461119d576040517f08c379a000000000000000000000000000000000000000000000000000000000815260040161119490613aaf565b60405180910390fd5b6111a6816122b9565b50565b60008060019054906101000a900460ff161590508080156111da5750600160008054906101000a900460ff1660ff16105b8061120757506111e9306122f2565b1580156112065750600160008054906101000a900460ff1660ff16145b5b611246576040517f08c379a000000000000000000000000000000000000000000000000000000000815260040161123d90613b41565b60405180910390fd5b60016000806101000a81548160ff021916908360ff1602179055508015611283576001600060016101000a81548160ff0219169083151502179055505b620186a0609781905550611295612315565b61129d61236e565b80156112f65760008060016101000a81548160ff0219169083151502179055507f7f26b83ff96e1f2b6a682f133852f6798a09c465da95921460cefb384740249860016040516112ed9190613bb3565b60405180910390a15b50565b6113016121d8565b6113096123c7565b565b6113136121d8565b80609860006101000a81548167ffffffffffffffff021916908367ffffffffffffffff1602179055507fb94068a4bd2571acee6ac79acc9dcdcf10c31425d35f09e88f154ec520e264468160405161136b9190613bce565b60405180910390a150565b6000603360009054906101000a900473ffffffffffffffffffffffffffffffffffffffff16905090565b600080609860009054906101000a900467ffffffffffffffff16609754915091509091565b6113cd612937565b60cf6000838152602001908152602001600020604051806040016040529081600082015481526020016001820154815250509050919050565b61140e6121d8565b8181609a918261141f929190613d96565b508181604051611430929190613ea5565b60405180910390207f6a6600b7242975868d8321b5e64d0c9f2fcc92eb1af72254a6357be77ee7dcef60405160405180910390a25050565b6114706121d8565b600073ffffffffffffffffffffffffffffffffffffffff168273ffffffffffffffffffffffffffffffffffffffff16036114df576040517f08c379a00000000000000000000000000000000000000000000000000000000081526004016114d690613681565b60405180910390fd5b60018114806114ee5750600281145b61152d576040517f08c379a000000000000000000000000000000000000000000000000000000000815260040161152490613f0a565b60405180910390fd5b7f746f6b656e00000000000000000000000000000000000000000000000000000083036115e8578060cd60008473ffffffffffffffffffffffffffffffffffffffff1673ffffffffffffffffffffffffffffffffffffffff168152602001908152602001600020819055508173ffffffffffffffffffffffffffffffffffffffff16837fcfa976492af7c14a916cc3a239f4c9c75bbd7f5f0e398beb41d892c7eeccae4c836040516115df9190613a22565b60405180910390a35b505050565b60006115f761242a565b6116058a8a8689898d612474565b6000838390500361164b576040517f08c379a000000000000000000000000000000000000000000000000000000000815260040161164290613f76565b60405180910390fd5b8973ffffffffffffffffffffffffffffffffffffffff166323b872dd3330888d61167591906139ba565b6040518463ffffffff1660e01b815260040161169393929190613f96565b6020604051808303816000875af11580156116b2573d6000803e3d6000fd5b505050506040513d601f19601f820116820180604052508101906116d6919061395e565b5061010360003373ffffffffffffffffffffffffffffffffffffffff1673ffffffffffffffffffffffffffffffffffffffff168152602001908152602001600020600081548092919061172890613fcd565b91905055503361010360003373ffffffffffffffffffffffffffffffffffffffff1673ffffffffffffffffffffffffffffffffffffffff16815260200190815260200160002054604051602001611780929190613909565b6040516020818303038152906040528051906020012090506000609754609860009054906101000a900467ffffffffffffffff1667ffffffffffffffff168b6117c99190614015565b6117d39190614086565b90506040518061012001604052803373ffffffffffffffffffffffffffffffffffffffff1681526020018c73ffffffffffffffffffffffffffffffffffffffff1681526020018873ffffffffffffffffffffffffffffffffffffffff1681526020018781526020018281526020016000151581526020018673ffffffffffffffffffffffffffffffffffffffff16815260200160975467ffffffffffffffff166bffffffffffffffffffffffff168152602001828c61189291906139ee565b815250610102600084815260200190815260200160002060008201518160000160006101000a81548173ffffffffffffffffffffffffffffffffffffffff021916908373ffffffffffffffffffffffffffffffffffffffff16021790555060208201518160010160006101000a81548173ffffffffffffffffffffffffffffffffffffffff021916908373ffffffffffffffffffffffffffffffffffffffff16021790555060408201518160020160006101000a81548173ffffffffffffffffffffffffffffffffffffffff021916908373ffffffffffffffffffffffffffffffffffffffff160217905550606082015181600301556080820151816004015560a08201518160050160006101000a81548160ff02191690831515021790555060c08201518160050160016101000a81548173ffffffffffffffffffffffffffffffffffffffff021916908373ffffffffffffffffffffffffffffffffffffffff16021790555060e08201518160060160006101000a8154816bffffffffffffffffffffffff02191690836bffffffffffffffffffffffff16021790555061010082015181600701559050506101026000838152602001908152602001600020600701548b73ffffffffffffffffffffffffffffffffffffffff16610102600085815260200190815260200160002060000160009054906101000a900473ffffffffffffffffffffffffffffffffffffffff1673ffffffffffffffffffffffffffffffffffffffff167f3bdd0d86e09a22d7ce596118bd3ca5ec73ea47533a465be37621e913ed2bf33384868d8f8b8b604051611af496959493929190614115565b60405180910390a4509998505050505050505050565b6000606560009054906101000a900473ffffffffffffffffffffffffffffffffffffffff16905090565b6000609960009054906101000a900473ffffffffffffffffffffffffffffffffffffffff1673ffffffffffffffffffffffffffffffffffffffff163373ffffffffffffffffffffffffffffffffffffffff1614611bc6576040517f08c379a0000000000000000000000000000000000000000000000000000000008152600401611bbd90613811565b60405180910390fd5b610102600085815260200190815260200160002060050160009054906101000a900460ff1615611c2b576040517f08c379a0000000000000000000000000000000000000000000000000000000008152600401611c229061387d565b60405180910390fd5b6000610102600086815260200190815260200160002060010160009054906101000a900473ffffffffffffffffffffffffffffffffffffffff1690508267ffffffffffffffff16610102600087815260200190815260200160002060060160008282829054906101000a90046bffffffffffffffffffffffff16611caf9190614171565b92506101000a8154816bffffffffffffffffffffffff02191690836bffffffffffffffffffffffff1602179055506000610102600087815260200190815260200160002060060160009054906101000a90046bffffffffffffffffffffffff166bffffffffffffffffffffffff1603611fe1576001610102600087815260200190815260200160002060050160006101000a81548160ff021916908315150217905550600061010260008781526020019081526020016000206003015414611f0857610102600086815260200190815260200160002060010160009054906101000a900473ffffffffffffffffffffffffffffffffffffffff1673ffffffffffffffffffffffffffffffffffffffff1663a9059cbb610102600088815260200190815260200160002060020160009054906101000a900473ffffffffffffffffffffffffffffffffffffffff166101026000898152602001908152602001600020600301546040518363ffffffff1660e01b8152600401611e31929190613909565b6020604051808303816000875af1158015611e50573d6000803e3d6000fd5b505050506040513d601f19601f82011682018060405250810190611e74919061395e565b50610102600086815260200190815260200160002060030154610102600087815260200190815260200160002060020160009054906101000a900473ffffffffffffffffffffffffffffffffffffffff1673ffffffffffffffffffffffffffffffffffffffff167f44f6938ca4a10313aabb76f874cced61e35710a734a126e4afb34461bf8c250160405160405180910390a35b600061010260008781526020019081526020016000206004015414611fe0578073ffffffffffffffffffffffffffffffffffffffff1663a9059cbb609860089054906101000a900473ffffffffffffffffffffffffffffffffffffffff166101026000898152602001908152602001600020600401546040518363ffffffff1660e01b8152600401611f9b929190613909565b6020604051808303816000875af1158015611fba573d6000803e3d6000fd5b505050506040513d601f19601f82011682018060405250810190611fde919061395e565b505b5b60006097548467ffffffffffffffff166101026000898152602001908152602001600020600701546120139190614015565b61201d9190614086565b9050806101026000888152602001908152602001600020600701600082825461204691906139ee565b925050819055508173ffffffffffffffffffffffffffffffffffffffff1663a9059cbb86836040518363ffffffff1660e01b8152600401612088929190613909565b6020604051808303816000875af11580156120a7573d6000803e3d6000fd5b505050506040513d601f19601f820116820180604052508101906120cb919061395e565b508473ffffffffffffffffffffffffffffffffffffffff16867f98ece21e01a01cbe1d1c0dad3b053c8fbd368f99be78be958fcf1d1d13fd249a89876040516121159291906141e2565b60405180910390a3600192505050949350505050565b6121336121d8565b80606560006101000a81548173ffffffffffffffffffffffffffffffffffffffff021916908373ffffffffffffffffffffffffffffffffffffffff1602179055508073ffffffffffffffffffffffffffffffffffffffff16612193611376565b73ffffffffffffffffffffffffffffffffffffffff167f38d16b8cac22d99fc7c124b9cd0de2d3fa1faef420bfe791d8c362d765e2270060405160405180910390a350565b6121e06122ea565b73ffffffffffffffffffffffffffffffffffffffff166121fe611376565b73ffffffffffffffffffffffffffffffffffffffff1614612254576040517f08c379a000000000000000000000000000000000000000000000000000000000815260040161224b90614257565b60405180910390fd5b565b61225e612683565b600060d060006101000a81548160ff0219169083151502179055507f5db9ee0a495bf2e6ff9c91a7834c1ba4fdd244a5e8aa4e537bd38aeae4b073aa6122a26122ea565b6040516122af91906130c9565b60405180910390a1565b606560006101000a81549073ffffffffffffffffffffffffffffffffffffffff02191690556122e7816126cc565b50565b600033905090565b6000808273ffffffffffffffffffffffffffffffffffffffff163b119050919050565b600060019054906101000a900460ff16612364576040517f08c379a000000000000000000000000000000000000000000000000000000000815260040161235b906142e9565b60405180910390fd5b61236c612792565b565b600060019054906101000a900460ff166123bd576040517f08c379a00000000000000000000000000000000000000000000000000000000081526004016123b4906142e9565b60405180910390fd5b6123c56127f3565b565b6123cf61242a565b600160d060006101000a81548160ff0219169083151502179055507f62e78cea01bee320cd4e420270b5ea74000d11b0c9f74754ebdbfc544b05a2586124136122ea565b60405161242091906130c9565b60405180910390a1565b61243261097a565b15612472576040517f08c379a000000000000000000000000000000000000000000000000000000000815260040161246990614355565b60405180910390fd5b565b600160cd60008873ffffffffffffffffffffffffffffffffffffffff1673ffffffffffffffffffffffffffffffffffffffff16815260200190815260200160002054146124f6576040517f08c379a00000000000000000000000000000000000000000000000000000000081526004016124ed906143c1565b60405180910390fd5b60008503612539576040517f08c379a00000000000000000000000000000000000000000000000000000000081526004016125309061442d565b60405180910390fd5b600073ffffffffffffffffffffffffffffffffffffffff168473ffffffffffffffffffffffffffffffffffffffff16036125a8576040517f08c379a000000000000000000000000000000000000000000000000000000000815260040161259f90614499565b60405180910390fd5b6000801b60cf60008381526020019081526020016000206000015403612603576040517f08c379a00000000000000000000000000000000000000000000000000000000081526004016125fa90614505565b60405180910390fd5b6000821461267b57600073ffffffffffffffffffffffffffffffffffffffff168373ffffffffffffffffffffffffffffffffffffffff160361267a576040517f08c379a000000000000000000000000000000000000000000000000000000000815260040161267190614571565b60405180910390fd5b5b505050505050565b61268b61097a565b6126ca576040517f08c379a00000000000000000000000000000000000000000000000000000000081526004016126c1906145dd565b60405180910390fd5b565b6000603360009054906101000a900473ffffffffffffffffffffffffffffffffffffffff16905081603360006101000a81548173ffffffffffffffffffffffffffffffffffffffff021916908373ffffffffffffffffffffffffffffffffffffffff1602179055508173ffffffffffffffffffffffffffffffffffffffff168173ffffffffffffffffffffffffffffffffffffffff167f8be0079c531659141344cd1fd0a4f28419497f9722a3daafe3b4186f6b6457e060405160405180910390a35050565b600060019054906101000a900460ff166127e1576040517f08c379a00000000000000000000000000000000000000000000000000000000081526004016127d8906142e9565b60405180910390fd5b6127f16127ec6122ea565b6122b9565b565b600060019054906101000a900460ff16612842576040517f08c379a0000000000000000000000000000000000000000000000000000000008152600401612839906142e9565b60405180910390fd5b600060d060006101000a81548160ff021916908315150217905550565b50805460008255600202906000526020600020908101906128809190612957565b50565b604051806101200160405280600073ffffffffffffffffffffffffffffffffffffffff168152602001600073ffffffffffffffffffffffffffffffffffffffff168152602001600073ffffffffffffffffffffffffffffffffffffffff1681526020016000815260200160008152602001600015158152602001600073ffffffffffffffffffffffffffffffffffffffff16815260200160006bffffffffffffffffffffffff168152602001600081525090565b604051806040016040528060008019168152602001600080191681525090565b5b8082111561297a57600080820160009055600182016000905550600201612958565b5090565b6000604051905090565b600080fd5b600080fd5b6000819050919050565b6129a581612992565b81146129b057600080fd5b50565b6000813590506129c28161299c565b92915050565b6000602082840312156129de576129dd612988565b5b60006129ec848285016129b3565b91505092915050565b600081519050919050565b600082825260208201905092915050565b6000819050602082019050919050565b612a2a81612992565b82525050565b604082016000820151612a466000850182612a21565b506020820151612a596020850182612a21565b50505050565b6000612a6b8383612a30565b60408301905092915050565b6000602082019050919050565b6000612a8f826129f5565b612a998185612a00565b9350612aa483612a11565b8060005b83811015612ad5578151612abc8882612a5f565b9750612ac783612a77565b925050600181019050612aa8565b5085935050505092915050565b60006020820190508181036000830152612afc8184612a84565b905092915050565b600080fd5b6000601f19601f8301169050919050565b7f4e487b7100000000000000000000000000000000000000000000000000000000600052604160045260246000fd5b612b5282612b09565b810181811067ffffffffffffffff82111715612b7157612b70612b1a565b5b80604052505050565b6000612b8461297e565b9050612b908282612b49565b919050565b600067ffffffffffffffff821115612bb057612baf612b1a565b5b602082029050602081019050919050565b600080fd5b600080fd5b600060408284031215612be157612be0612bc6565b5b612beb6040612b7a565b90506000612bfb848285016129b3565b6000830152506020612c0f848285016129b3565b60208301525092915050565b6000612c2e612c2984612b95565b612b7a565b90508083825260208201905060408402830185811115612c5157612c50612bc1565b5b835b81811015612c7a5780612c668882612bcb565b845260208401935050604081019050612c53565b5050509392505050565b600082601f830112612c9957612c98612b04565b5b8135612ca9848260208601612c1b565b91505092915050565b60008060408385031215612cc957612cc8612988565b5b6000612cd7858286016129b3565b925050602083013567ffffffffffffffff811115612cf857612cf761298d565b5b612d0485828601612c84565b9150509250929050565b600081519050919050565b600082825260208201905092915050565b60005b83811015612d48578082015181840152602081019050612d2d565b60008484015250505050565b6000612d5f82612d0e565b612d698185612d19565b9350612d79818560208601612d2a565b612d8281612b09565b840191505092915050565b60006020820190508181036000830152612da78184612d54565b905092915050565b600073ffffffffffffffffffffffffffffffffffffffff82169050919050565b6000612dda82612daf565b9050919050565b612dea81612dcf565b8114612df557600080fd5b50565b600081359050612e0781612de1565b92915050565b60008060408385031215612e2457612e23612988565b5b6000612e32858286016129b3565b9250506020612e4385828601612df8565b9150509250929050565b60008115159050919050565b612e6281612e4d565b82525050565b6000602082019050612e7d6000830184612e59565b92915050565b6000819050919050565b612e9681612e83565b8114612ea157600080fd5b50565b600081359050612eb381612e8d565b92915050565b60008060408385031215612ed057612ecf612988565b5b6000612ede85828601612ea4565b9250506020612eef858286016129b3565b9150509250929050565b600060208284031215612f0f57612f0e612988565b5b6000612f1d84828501612df8565b91505092915050565b612f2f81612dcf565b82525050565b612f3e81612e83565b82525050565b612f4d81612e4d565b82525050565b60006bffffffffffffffffffffffff82169050919050565b612f7481612f53565b82525050565b61012082016000820151612f916000850182612f26565b506020820151612fa46020850182612f26565b506040820151612fb76040850182612f26565b506060820151612fca6060850182612f35565b506080820151612fdd6080850182612f35565b5060a0820151612ff060a0850182612f44565b5060c082015161300360c0850182612f26565b5060e082015161301660e0850182612f6b565b5061010082015161302b610100850182612f35565b50505050565b6000610120820190506130476000830184612f7a565b92915050565b600067ffffffffffffffff82169050919050565b61306a8161304d565b811461307557600080fd5b50565b60008135905061308781613061565b92915050565b6000602082840312156130a3576130a2612988565b5b60006130b184828501613078565b91505092915050565b6130c381612dcf565b82525050565b60006020820190506130de60008301846130ba565b92915050565b6130ed8161304d565b82525050565b6130fc81612e83565b82525050565b600060408201905061311760008301856130e4565b61312460208301846130f3565b9392505050565b6040820160008201516131416000850182612a21565b5060208201516131546020850182612a21565b50505050565b600060408201905061316f600083018461312b565b92915050565b600080fd5b60008083601f8401126131905761318f612b04565b5b8235905067ffffffffffffffff8111156131ad576131ac613175565b5b6020830191508360018202830111156131c9576131c8612bc1565b5b9250929050565b600080602083850312156131e7576131e6612988565b5b600083013567ffffffffffffffff8111156132055761320461298d565b5b6132118582860161317a565b92509250509250929050565b60008060006060848603121561323657613235612988565b5b6000613244868287016129b3565b935050602061325586828701612df8565b925050604061326686828701612ea4565b9150509250925092565b61327981612f53565b811461328457600080fd5b50565b60008135905061329681613270565b92915050565b60008083601f8401126132b2576132b1612b04565b5b8235905067ffffffffffffffff8111156132cf576132ce613175565b5b6020830191508360018202830111156132eb576132ea612bc1565b5b9250929050565b60008060008060008060008060006101008a8c03121561331557613314612988565b5b60006133238c828d01612df8565b99505060206133348c828d01612ea4565b98505060406133458c828d016129b3565b97505060606133568c828d01613287565b96505060806133678c828d01612df8565b95505060a06133788c828d01612ea4565b94505060c06133898c828d01612df8565b93505060e08a013567ffffffffffffffff8111156133aa576133a961298d565b5b6133b68c828d0161329c565b92509250509295985092959850929598565b6133d181612992565b82525050565b60006020820190506133ec60008301846133c8565b92915050565b6000806000806080858703121561340c5761340b612988565b5b600061341a878288016129b3565b945050602061342b878288016129b3565b935050604061343c87828801612df8565b925050606061344d87828801613078565b91505092959194509250565b7f4e487b7100000000000000000000000000000000000000000000000000000000600052603260045260246000fd5b600081549050919050565b60008190508160005260206000209050919050565b60008160001c9050919050565b6000819050919050565b60006134d26134cd836134a8565b6134b5565b9050919050565b6040820160008083015490506134ee816134bf565b6134fb6000860182612a21565b506001830154905061350c816134bf565b6135196020860182612a21565b5050505050565b600061352c83836134d9565b60408301905092915050565b6000600282019050919050565b600061355082613488565b61355a8185612a00565b935061356583613493565b8060005b83811015613595578161357c8882613520565b975061358783613538565b925050600181019050613569565b5085935050505092915050565b600060208201905081810360008301526135bc8184613545565b905092915050565b7f4e487b7100000000000000000000000000000000000000000000000000000000600052602260045260246000fd5b6000600282049050600182168061360b57607f821691505b60208210810361361e5761361d6135c4565b5b50919050565b600082825260208201905092915050565b7f50617963726573743a207a65726f206164647265737300000000000000000000600082015250565b600061366b601683613624565b915061367682613635565b602082019050919050565b6000602082019050818103600083015261369a8161365e565b9050919050565b7f50617963726573743a207472656173757279206164647265737320616c72656160008201527f6479207365740000000000000000000000000000000000000000000000000000602082015250565b60006136fd602683613624565b9150613708826136a1565b604082019050919050565b6000602082019050818103600083015261372c816136f0565b9050919050565b7f50617963726573743a2061676772656761746f72206164647265737320616c7260008201527f6561647920736574000000000000000000000000000000000000000000000000602082015250565b600061378f602883613624565b915061379a82613733565b604082019050919050565b600060208201905081810360008301526137be81613782565b9050919050565b7f4f6e6c7941676772656761746f72000000000000000000000000000000000000600082015250565b60006137fb600e83613624565b9150613806826137c5565b602082019050919050565b6000602082019050818103600083015261382a816137ee565b9050919050565b7f4f7264657246756c66696c6c6564000000000000000000000000000000000000600082015250565b6000613867600e83613624565b915061387282613831565b602082019050919050565b600060208201905081810360008301526138968161385a565b9050919050565b7f4665654578636565647350726f746f636f6c4665650000000000000000000000600082015250565b60006138d3601583613624565b91506138de8261389d565b602082019050919050565b60006020820190508181036000830152613902816138c6565b9050919050565b600060408201905061391e60008301856130ba565b61392b60208301846130f3565b9392505050565b61393b81612e4d565b811461394657600080fd5b50565b60008151905061395881613932565b92915050565b60006020828403121561397457613973612988565b5b600061398284828501613949565b91505092915050565b7f4e487b7100000000000000000000000000000000000000000000000000000000600052601160045260246000fd5b60006139c582612e83565b91506139d083612e83565b92508282019050808211156139e8576139e761398b565b5b92915050565b60006139f982612e83565b9150613a0483612e83565b9250828203905081811115613a1c57613a1b61398b565b5b92915050565b6000602082019050613a3760008301846130f3565b92915050565b7f4f776e61626c6532537465703a2063616c6c6572206973206e6f74207468652060008201527f6e6577206f776e65720000000000000000000000000000000000000000000000602082015250565b6000613a99602983613624565b9150613aa482613a3d565b604082019050919050565b60006020820190508181036000830152613ac881613a8c565b9050919050565b7f496e697469616c697a61626c653a20636f6e747261637420697320616c72656160008201527f647920696e697469616c697a6564000000000000000000000000000000000000602082015250565b6000613b2b602e83613624565b9150613b3682613acf565b604082019050919050565b60006020820190508181036000830152613b5a81613b1e565b9050919050565b6000819050919050565b600060ff82169050919050565b6000819050919050565b6000613b9d613b98613b9384613b61565b613b78565b613b6b565b9050919050565b613bad81613b82565b82525050565b6000602082019050613bc86000830184613ba4565b92915050565b6000602082019050613be360008301846130e4565b92915050565b600082905092915050565b60008190508160005260206000209050919050565b60006020601f8301049050919050565b600082821b905092915050565b600060088302613c567fffffffffffffffffffffffffffffffffffffffffffffffffffffffffffffffff82613c19565b613c608683613c19565b95508019841693508086168417925050509392505050565b6000613c93613c8e613c8984612e83565b613b78565b612e83565b9050919050565b6000819050919050565b613cad83613c78565b613cc1613cb982613c9a565b848454613c26565b825550505050565b600090565b613cd6613cc9565b613ce1818484613ca4565b505050565b5b81811015613d0557613cfa600082613cce565b600181019050613ce7565b5050565b601f821115613d4a57613d1b81613bf4565b613d2484613c09565b81016020851015613d33578190505b613d47613d3f85613c09565b830182613ce6565b50505b505050565b600082821c905092915050565b6000613d6d60001984600802613d4f565b1980831691505092915050565b6000613d868383613d5c565b9150826002028217905092915050565b613da08383613be9565b67ffffffffffffffff811115613db957613db8612b1a565b5b613dc382546135f3565b613dce828285613d09565b6000601f831160018114613dfd5760008415613deb578287013590505b613df58582613d7a565b865550613e5d565b601f198416613e0b86613bf4565b60005b82811015613e3357848901358255600182019150602085019450602081019050613e0e565b86831015613e505784890135613e4c601f891682613d5c565b8355505b6001600288020188555050505b50505050505050565b600081905092915050565b82818337600083830152505050565b6000613e8c8385613e66565b9350613e99838584613e71565b82840190509392505050565b6000613eb2828486613e80565b91508190509392505050565b7f50617963726573743a20696e76616c6964207374617475730000000000000000600082015250565b6000613ef4601883613624565b9150613eff82613ebe565b602082019050919050565b60006020820190508181036000830152613f2381613ee7565b9050919050565b7f496e76616c69644d657373616765486173680000000000000000000000000000600082015250565b6000613f60601283613624565b9150613f6b82613f2a565b602082019050919050565b60006020820190508181036000830152613f8f81613f53565b9050919050565b6000606082019050613fab60008301866130ba565b613fb860208301856130ba565b613fc560408301846130f3565b949350505050565b6000613fd882612e83565b91507fffffffffffffffffffffffffffffffffffffffffffffffffffffffffffffffff820361400a5761400961398b565b5b600182019050919050565b600061402082612e83565b915061402b83612e83565b925082820261403981612e83565b915082820484148315176140505761404f61398b565b5b5092915050565b7f4e487b7100000000000000000000000000000000000000000000000000000000600052601260045260246000fd5b600061409182612e83565b915061409c83612e83565b9250826140ac576140ab614057565b5b828204905092915050565b60006140d26140cd6140c884612f53565b613b78565b612e83565b9050919050565b6140e2816140b7565b82525050565b60006140f48385613624565b9350614101838584613e71565b61410a83612b09565b840190509392505050565b600060a08201905061412a60008301896130f3565b61413760208301886133c8565b61414460408301876140d9565b61415160608301866133c8565b81810360808301526141648184866140e8565b9050979650505050505050565b600061417c82612f53565b915061418783612f53565b925082820390506bffffffffffffffffffffffff8111156141ab576141aa61398b565b5b92915050565b60006141cc6141c76141c28461304d565b613b78565b612f53565b9050919050565b6141dc816141b1565b82525050565b60006040820190506141f760008301856133c8565b61420460208301846141d3565b9392505050565b7f4f776e61626c653a2063616c6c6572206973206e6f7420746865206f776e6572600082015250565b6000614241602083613624565b915061424c8261420b565b602082019050919050565b6000602082019050818103600083015261427081614234565b9050919050565b7f496e697469616c697a61626c653a20636f6e7472616374206973206e6f74206960008201527f6e697469616c697a696e67000000000000000000000000000000000000000000602082015250565b60006142d3602b83613624565b91506142de82614277565b604082019050919050565b60006020820190508181036000830152614302816142c6565b9050919050565b7f5061757361626c653a2070617573656400000000000000000000000000000000600082015250565b600061433f601083613624565b915061434a82614309565b602082019050919050565b6000602082019050818103600083015261436e81614332565b9050919050565b7f546f6b656e4e6f74537570706f72746564000000000000000000000000000000600082015250565b60006143ab601183613624565b91506143b682614375565b602082019050919050565b600060208201905081810360008301526143da8161439e565b9050919050565b7f416d6f756e7449735a65726f0000000000000000000000000000000000000000600082015250565b6000614417600c83613624565b9150614422826143e1565b602082019050919050565b600060208201905081810360008301526144468161440a565b9050919050565b7f5468726f775a65726f4164647265737300000000000000000000000000000000600082015250565b6000614483601083613624565b915061448e8261444d565b602082019050919050565b600060208201905081810360008301526144b281614476565b9050919050565b7f496e76616c6964496e737469747574696f6e436f646500000000000000000000600082015250565b60006144ef601683613624565b91506144fa826144b9565b602082019050919050565b6000602082019050818103600083015261451e816144e2565b9050919050565b7f496e76616c696453656e646572466565526563697069656e7400000000000000600082015250565b600061455b601983613624565b915061456682614525565b602082019050919050565b6000602082019050818103600083015261458a8161454e565b9050919050565b7f5061757361626c653a206e6f7420706175736564000000000000000000000000600082015250565b60006145c7601483613624565b91506145d282614591565b602082019050919050565b600060208201905081810360008301526145f6816145ba565b905091905056fea26469706673582212203157caa879bed8dbe874e34acd7cd9ee3b84fc6f579d7f879345bc858fb59e8764736f6c63430008120033",
  "linkReferences": {},
  "deployedLinkReferences": {}
}