{
  "_format": "hh-sol-artifact-1",
  "contractName": "Paycrest",
  "sourceName": "contracts/Paycrest.sol",
  "abi": [
    {
      "inputs": [],
      "stateMutability": "nonpayable",
      "type": "constructor"
    },
    {
      "anonymous": false,
      "inputs": [
        {
          "indexed": true,
          "internalType": "address",
          "name": "token",
          "type": "address"
        },
        {
          "indexed": true,
          "internalType": "uint256",
          "name": "amount",
          "type": "uint256"
        },
        {
          "indexed": true,
          "internalType": "bytes32",
          "name": "orderId",
          "type": "bytes32"
        },
        {
          "indexed": false,
          "internalType": "uint256",
          "name": "rate",
          "type": "uint256"
        },
        {
          "indexed": false,
          "internalType": "bytes32",
          "name": "institutionCode",
          "type": "bytes32"
        },
        {
          "indexed": false,
          "internalType": "bytes32",
          "name": "label",
          "type": "bytes32"
        },
        {
          "indexed": false,
          "internalType": "string",
          "name": "messageHash",
          "type": "string"
        }
      ],
      "name": "Deposit",
      "type": "event"
    },
    {
      "anonymous": false,
      "inputs": [
        {
          "indexed": false,
          "internalType": "uint8",
          "name": "version",
          "type": "uint8"
        }
      ],
      "name": "Initialized",
      "type": "event"
    },
    {
      "anonymous": false,
      "inputs": [
        {
          "indexed": true,
          "internalType": "address",
          "name": "previousOwner",
          "type": "address"
        },
        {
          "indexed": true,
          "internalType": "address",
          "name": "newOwner",
          "type": "address"
        }
      ],
      "name": "OwnershipTransferred",
      "type": "event"
    },
    {
      "anonymous": false,
      "inputs": [
        {
          "indexed": false,
          "internalType": "uint64",
          "name": "protocolFee",
          "type": "uint64"
        }
      ],
      "name": "PaycrestFees",
      "type": "event"
    },
    {
      "anonymous": false,
      "inputs": [
        {
          "indexed": true,
          "internalType": "bytes32",
          "name": "orderId",
          "type": "bytes32"
        },
        {
          "indexed": false,
          "internalType": "bytes32",
          "name": "label",
          "type": "bytes32"
        }
      ],
      "name": "Refunded",
      "type": "event"
    },
    {
      "anonymous": false,
      "inputs": [
        {
          "indexed": true,
          "internalType": "address",
          "name": "validator",
          "type": "address"
        },
        {
          "indexed": true,
          "internalType": "uint256",
          "name": "amount",
          "type": "uint256"
        }
      ],
      "name": "RewardValidator",
      "type": "event"
    },
    {
      "anonymous": false,
      "inputs": [
        {
          "indexed": false,
          "internalType": "bytes",
          "name": "aggregator",
          "type": "bytes"
        }
      ],
      "name": "SetAggregator",
      "type": "event"
    },
    {
      "anonymous": false,
      "inputs": [
        {
          "indexed": false,
          "internalType": "address",
          "name": "feeRecipient",
          "type": "address"
        }
      ],
      "name": "SetFeeRecipient",
      "type": "event"
    },
    {
      "anonymous": false,
      "inputs": [
        {
          "indexed": false,
          "internalType": "bytes32",
          "name": "what",
          "type": "bytes32"
        },
        {
          "indexed": false,
          "internalType": "address",
          "name": "value",
          "type": "address"
        },
        {
          "indexed": false,
          "internalType": "bool",
          "name": "status",
          "type": "bool"
        }
      ],
      "name": "SettingManagerBool",
      "type": "event"
    },
    {
      "anonymous": false,
      "inputs": [
        {
          "indexed": false,
          "internalType": "bytes32",
          "name": "_splitOrderId",
          "type": "bytes32"
        },
        {
          "indexed": true,
          "internalType": "bytes32",
          "name": "orderId",
          "type": "bytes32"
        },
        {
          "indexed": false,
          "internalType": "bytes32",
          "name": "label",
          "type": "bytes32"
        },
        {
          "indexed": true,
          "internalType": "address",
          "name": "liquidityProvider",
          "type": "address"
        },
        {
          "indexed": false,
          "internalType": "uint96",
          "name": "settlePercent",
          "type": "uint96"
        }
      ],
      "name": "Settled",
      "type": "event"
    },
    {
      "anonymous": false,
      "inputs": [
        {
          "indexed": true,
          "internalType": "address",
          "name": "sender",
          "type": "address"
        },
        {
          "indexed": true,
          "internalType": "uint256",
          "name": "amount",
          "type": "uint256"
        }
      ],
      "name": "TransferSenderFee",
      "type": "event"
    },
    {
      "inputs": [
        {
          "internalType": "address",
          "name": "_token",
          "type": "address"
        },
        {
          "internalType": "uint256",
          "name": "_amount",
          "type": "uint256"
        },
        {
          "internalType": "bytes32",
          "name": "_institutionCode",
          "type": "bytes32"
        },
        {
          "internalType": "bytes32",
          "name": "_label",
          "type": "bytes32"
        },
        {
          "internalType": "uint96",
          "name": "_rate",
          "type": "uint96"
        },
        {
          "internalType": "address",
          "name": "_senderFeeRecipient",
          "type": "address"
        },
        {
          "internalType": "uint256",
          "name": "_senderFee",
          "type": "uint256"
        },
        {
          "internalType": "address",
          "name": "_refundAddress",
          "type": "address"
        },
        {
          "internalType": "string",
          "name": "messageHash",
          "type": "string"
        }
      ],
      "name": "createOrder",
      "outputs": [
        {
          "internalType": "bytes32",
          "name": "orderId",
          "type": "bytes32"
        }
      ],
      "stateMutability": "nonpayable",
      "type": "function"
    },
    {
      "inputs": [],
      "name": "getAggregator",
      "outputs": [
        {
          "internalType": "bytes",
          "name": "",
          "type": "bytes"
        }
      ],
      "stateMutability": "view",
      "type": "function"
    },
    {
      "inputs": [],
      "name": "getAggregatorAddress",
      "outputs": [
        {
          "internalType": "address",
          "name": "",
          "type": "address"
        }
      ],
      "stateMutability": "view",
      "type": "function"
    },
    {
      "inputs": [],
      "name": "getFeeDetails",
      "outputs": [
        {
          "internalType": "uint64",
          "name": "",
          "type": "uint64"
        },
        {
          "internalType": "uint256",
          "name": "",
          "type": "uint256"
        }
      ],
      "stateMutability": "view",
      "type": "function"
    },
    {
      "inputs": [
        {
          "internalType": "bytes32",
          "name": "_orderId",
          "type": "bytes32"
        }
      ],
      "name": "getOrderInfo",
      "outputs": [
        {
          "components": [
            {
              "internalType": "address",
              "name": "seller",
              "type": "address"
            },
            {
              "internalType": "address",
              "name": "token",
              "type": "address"
            },
            {
              "internalType": "address",
              "name": "senderFeeRecipient",
              "type": "address"
            },
            {
              "internalType": "uint256",
              "name": "senderFee",
              "type": "uint256"
            },
            {
              "internalType": "uint96",
              "name": "rate",
              "type": "uint96"
            },
            {
              "internalType": "bool",
              "name": "isFulfilled",
              "type": "bool"
            },
            {
              "internalType": "address",
              "name": "refundAddress",
              "type": "address"
            },
            {
              "internalType": "uint96",
              "name": "currentBPS",
              "type": "uint96"
            },
            {
              "internalType": "uint256",
              "name": "amount",
              "type": "uint256"
            }
          ],
          "internalType": "struct IPaycrest.Order",
          "name": "",
          "type": "tuple"
        }
      ],
      "stateMutability": "view",
      "type": "function"
    },
    {
      "inputs": [
        {
          "internalType": "bytes32",
          "name": "code",
          "type": "bytes32"
        }
      ],
      "name": "getSupportedInstitutionName",
      "outputs": [
        {
          "components": [
            {
              "internalType": "bytes32",
              "name": "name",
              "type": "bytes32"
            },
            {
              "internalType": "bytes32",
              "name": "currency",
              "type": "bytes32"
            }
          ],
          "internalType": "struct PaycrestSettingManager.InstitutionByCode",
          "name": "",
          "type": "tuple"
        }
      ],
      "stateMutability": "view",
      "type": "function"
    },
    {
      "inputs": [
        {
          "internalType": "bytes32",
          "name": "currency",
          "type": "bytes32"
        }
      ],
      "name": "getSupportedInstitutions",
      "outputs": [
        {
          "components": [
            {
              "internalType": "bytes32",
              "name": "code",
              "type": "bytes32"
            },
            {
              "internalType": "bytes32",
              "name": "name",
              "type": "bytes32"
            }
          ],
          "internalType": "struct PaycrestSettingManager.Institution[]",
          "name": "",
          "type": "tuple[]"
        }
      ],
      "stateMutability": "view",
      "type": "function"
    },
    {
      "inputs": [
        {
          "internalType": "address",
          "name": "sender",
          "type": "address"
        }
      ],
      "name": "getWhitelistedStatus",
      "outputs": [
        {
          "internalType": "bool",
          "name": "",
          "type": "bool"
        }
      ],
      "stateMutability": "view",
      "type": "function"
    },
    {
      "inputs": [
        {
          "internalType": "address",
          "name": "_usdc",
          "type": "address"
        }
      ],
      "name": "initialize",
      "outputs": [],
      "stateMutability": "nonpayable",
      "type": "function"
    },
    {
      "inputs": [
        {
          "internalType": "address",
          "name": "_token",
          "type": "address"
        }
      ],
      "name": "isTokenSupported",
      "outputs": [
        {
          "internalType": "bool",
          "name": "",
          "type": "bool"
        }
      ],
      "stateMutability": "view",
      "type": "function"
    },
    {
      "inputs": [],
      "name": "owner",
      "outputs": [
        {
          "internalType": "address",
          "name": "",
          "type": "address"
        }
      ],
      "stateMutability": "view",
      "type": "function"
    },
    {
      "inputs": [
        {
          "internalType": "bytes32",
          "name": "_orderId",
          "type": "bytes32"
        },
        {
          "internalType": "bytes32",
          "name": "_label",
          "type": "bytes32"
        }
      ],
      "name": "refund",
      "outputs": [
        {
          "internalType": "bool",
          "name": "",
          "type": "bool"
        }
      ],
      "stateMutability": "nonpayable",
      "type": "function"
    },
    {
      "inputs": [],
      "name": "renounceOwnership",
      "outputs": [],
      "stateMutability": "nonpayable",
      "type": "function"
    },
    {
      "inputs": [
        {
          "internalType": "bytes32",
          "name": "currency",
          "type": "bytes32"
        },
        {
          "components": [
            {
              "internalType": "bytes32",
              "name": "code",
              "type": "bytes32"
            },
            {
              "internalType": "bytes32",
              "name": "name",
              "type": "bytes32"
            }
          ],
          "internalType": "struct PaycrestSettingManager.Institution[]",
          "name": "institutions",
          "type": "tuple[]"
        }
      ],
      "name": "setSupportedInstitutions",
      "outputs": [],
      "stateMutability": "nonpayable",
      "type": "function"
    },
    {
      "inputs": [
        {
          "internalType": "bytes32",
          "name": "what",
          "type": "bytes32"
        },
        {
          "internalType": "address",
          "name": "value",
          "type": "address"
        },
        {
          "internalType": "bool",
          "name": "status",
          "type": "bool"
        }
      ],
      "name": "settingManagerBool",
      "outputs": [],
      "stateMutability": "nonpayable",
      "type": "function"
    },
    {
      "inputs": [
        {
          "internalType": "bytes32",
          "name": "_splitOrderId",
          "type": "bytes32"
        },
        {
          "internalType": "bytes32",
          "name": "_orderId",
          "type": "bytes32"
        },
        {
          "internalType": "bytes32",
          "name": "_label",
          "type": "bytes32"
        },
        {
          "internalType": "address",
          "name": "_liquidityProvider",
          "type": "address"
        },
        {
          "internalType": "uint64",
          "name": "_settlePercent",
          "type": "uint64"
        },
        {
          "internalType": "bool",
          "name": "_isPartner",
          "type": "bool"
        }
      ],
      "name": "settle",
      "outputs": [
        {
          "internalType": "bytes32",
          "name": "",
          "type": "bytes32"
        },
        {
          "internalType": "address",
          "name": "",
          "type": "address"
        }
      ],
      "stateMutability": "nonpayable",
      "type": "function"
    },
    {
      "inputs": [
        {
          "internalType": "address",
          "name": "newOwner",
          "type": "address"
        }
      ],
      "name": "transferOwnership",
      "outputs": [],
      "stateMutability": "nonpayable",
      "type": "function"
    },
    {
      "inputs": [
        {
          "internalType": "bytes32",
          "name": "what",
          "type": "bytes32"
        },
        {
          "internalType": "address",
          "name": "value",
          "type": "address"
        }
      ],
      "name": "updateProtocolAddresses",
      "outputs": [],
      "stateMutability": "nonpayable",
      "type": "function"
    },
    {
      "inputs": [
        {
          "internalType": "bytes",
          "name": "aggregator",
          "type": "bytes"
        }
      ],
      "name": "updateProtocolAggregator",
      "outputs": [],
      "stateMutability": "nonpayable",
      "type": "function"
    },
    {
      "inputs": [
        {
          "internalType": "uint64",
          "name": "_protocolFeePercent",
          "type": "uint64"
        }
      ],
      "name": "updateProtocolFees",
      "outputs": [],
      "stateMutability": "nonpayable",
      "type": "function"
    },
    {
      "inputs": [
        {
          "internalType": "address",
          "name": "_token",
          "type": "address"
        },
        {
          "internalType": "address",
          "name": "_recipient",
          "type": "address"
        },
        {
          "internalType": "uint256",
          "name": "_amount",
          "type": "uint256"
        }
      ],
      "name": "withdraw",
      "outputs": [],
      "stateMutability": "nonpayable",
      "type": "function"
    }
  ],
  "bytecode": "0x60806040523480156200001157600080fd5b50620000226200002860201b60201c565b620001d2565b600060019054906101000a900460ff16156200007b576040517f08c379a0000000000000000000000000000000000000000000000000000000008152600401620000729062000175565b60405180910390fd5b60ff801660008054906101000a900460ff1660ff1614620000ec5760ff6000806101000a81548160ff021916908360ff1602179055507f7f26b83ff96e1f2b6a682f133852f6798a09c465da95921460cefb384740249860ff604051620000e39190620001b5565b60405180910390a15b565b600082825260208201905092915050565b7f496e697469616c697a61626c653a20636f6e747261637420697320696e69746960008201527f616c697a696e6700000000000000000000000000000000000000000000000000602082015250565b60006200015d602783620000ee565b91506200016a82620000ff565b604082019050919050565b6000602082019050818103600083015262000190816200014e565b9050919050565b600060ff82169050919050565b620001af8162000197565b82525050565b6000602082019050620001cc6000830184620001a4565b92915050565b613d9e80620001e26000396000f3fe608060405234801561001057600080fd5b50600436106101375760003560e01c806387490d86116100b8578063cb79455b1161007c578063cb79455b1461034e578063d8e8de341461036a578063d9caed121461039a578063e4683a79146103b6578063e8d6e0de146103e6578063f2fde38b1461040457610137565b806387490d86146102a95780638da5cb5b146102d957806399e3c0b4146102f7578063b810c63614610313578063c4d66de81461033257610137565b8063715018a6116100ff578063715018a61461020757806375151b6314610211578063768c6ec01461024157806379a0effb14610271578063846307361461028d57610137565b8063026213381461013c5780632654ec7e1461016c578063322008821461019c5780633ad59dbc146101b85780635fe44cac146101d6575b600080fd5b610156600480360381019061015191906124bf565b610420565b60405161016391906125d9565b60405180910390f35b61018660048036038101906101819190612738565b61055e565b6040516101939190612832565b60405180910390f35b6101b660048036038101906101b191906129f1565b610a26565b005b6101c0610b3a565b6040516101cd9190612acc565b60405180910390f35b6101f060048036038101906101eb9190612b66565b610bcc565b6040516101fe929190612c02565b60405180910390f35b61020f610fc5565b005b61022b60048036038101906102269190612c2b565b610fd9565b6040516102389190612c67565b60405180910390f35b61025b600480360381019061025691906124bf565b61102f565b6040516102689190612d75565b60405180910390f35b61028b60048036038101906102869190612d91565b611260565b005b6102a760048036038101906102a29190612dd1565b6113ad565b005b6102c360048036038101906102be91906124bf565b611418565b6040516102d09190612e2d565b60405180910390f35b6102e1611459565b6040516102ee9190612e48565b60405180910390f35b610311600480360381019061030c9190612e63565b611483565b005b61031b611638565b604051610329929190612ed4565b60405180910390f35b61034c60048036038101906103479190612c2b565b61165d565b005b61036860048036038101906103639190612f53565b611829565b005b610384600480360381019061037f9190612c2b565b611880565b6040516103919190612c67565b60405180910390f35b6103b460048036038101906103af9190612fa0565b6118d6565b005b6103d060048036038101906103cb9190612ff3565b611962565b6040516103dd9190612c67565b60405180910390f35b6103ee611c0f565b6040516103fb9190612e48565b60405180910390f35b61041e60048036038101906104199190612c2b565b611c39565b005b60606000609d6000848152602001908152602001600020805480602002602001604051908101604052809291908181526020016000905b8282101561049d57838290600052602060002090600202016040518060400160405290816000820154815260200160018201548152505081526020019060010190610457565b50505050905060008151905060008167ffffffffffffffff8111156104c5576104c461285e565b5b6040519080825280602002602001820160405280156104fe57816020015b6104eb612359565b8152602001906001900390816104e35790505b50905060005b828110156105525783818151811061051f5761051e613033565b5b602002602001015182828151811061053a57610539613033565b5b60200260200101819052508080600101915050610504565b50809350505050919050565b600061056d8b8b86898d611cbc565b606554606660009054906101000a900467ffffffffffffffff1667ffffffffffffffff168b61059c9190613091565b6105a69190613102565b8511156105e8576040517f08c379a00000000000000000000000000000000000000000000000000000000081526004016105df90613190565b60405180910390fd5b8a73ffffffffffffffffffffffffffffffffffffffff166323b872dd33308d6040518463ffffffff1660e01b8152600401610625939291906131b0565b6020604051808303816000875af1158015610644573d6000803e3d6000fd5b505050506040513d601f19601f8201168201806040525081019061066891906131fc565b5060a060003373ffffffffffffffffffffffffffffffffffffffff1673ffffffffffffffffffffffffffffffffffffffff16815260200190815260200160002060008154809291906106b990613229565b91905055503360a060003373ffffffffffffffffffffffffffffffffffffffff1673ffffffffffffffffffffffffffffffffffffffff16815260200190815260200160002054604051602001610710929190613271565b6040516020818303038152906040528051906020012090506040518061012001604052803373ffffffffffffffffffffffffffffffffffffffff1681526020018c73ffffffffffffffffffffffffffffffffffffffff1681526020018773ffffffffffffffffffffffffffffffffffffffff168152602001868152602001886bffffffffffffffffffffffff1681526020016000151581526020018573ffffffffffffffffffffffffffffffffffffffff16815260200160655467ffffffffffffffff166bffffffffffffffffffffffff1681526020018b815250609f600083815260200190815260200160002060008201518160000160006101000a81548173ffffffffffffffffffffffffffffffffffffffff021916908373ffffffffffffffffffffffffffffffffffffffff16021790555060208201518160010160006101000a81548173ffffffffffffffffffffffffffffffffffffffff021916908373ffffffffffffffffffffffffffffffffffffffff16021790555060408201518160020160006101000a81548173ffffffffffffffffffffffffffffffffffffffff021916908373ffffffffffffffffffffffffffffffffffffffff1602179055506060820151816003015560808201518160040160006101000a8154816bffffffffffffffffffffffff02191690836bffffffffffffffffffffffff16021790555060a082015181600401600c6101000a81548160ff02191690831515021790555060c08201518160050160006101000a81548173ffffffffffffffffffffffffffffffffffffffff021916908373ffffffffffffffffffffffffffffffffffffffff16021790555060e08201518160050160146101000a8154816bffffffffffffffffffffffff02191690836bffffffffffffffffffffffff1602179055506101008201518160060155905050808a8c73ffffffffffffffffffffffffffffffffffffffff167f2c205f90c01160d42994a0eb521810056d94bb82a1fcb038d7179c4158a1f15b8a8d8d8989604051610a10959493929190613311565b60405180910390a49a9950505050505050505050565b610a2e611ecb565b60008151905060005b81811015610b3457609d6000858152602001908152602001600020838281518110610a6557610a64613033565b5b60200260200101519080600181540180825580915050600190039060005260206000209060020201600090919091909150600082015181600001556020820151816001015550506040518060400160405280848381518110610aca57610ac9613033565b5b602002602001015160200151815260200185815250609e6000858481518110610af657610af5613033565b5b602002602001015160000151815260200190815260200160002060008201518160000155602082015181600101559050508080600101915050610a37565b50505050565b606060688054610b499061338e565b80601f0160208091040260200160405190810160405280929190818152602001828054610b759061338e565b8015610bc25780601f10610b9757610100808354040283529160200191610bc2565b820191906000526020600020905b815481529060010190602001808311610ba557829003601f168201915b5050505050905090565b600080606760009054906101000a900473ffffffffffffffffffffffffffffffffffffffff1673ffffffffffffffffffffffffffffffffffffffff163373ffffffffffffffffffffffffffffffffffffffff1614610c5f576040517f08c379a0000000000000000000000000000000000000000000000000000000008152600401610c569061340b565b60405180910390fd5b609f6000888152602001908152602001600020600401600c9054906101000a900460ff1615610cc3576040517f08c379a0000000000000000000000000000000000000000000000000000000008152600401610cba90613477565b60405180910390fd5b6000609f600089815260200190815260200160002060010160009054906101000a900473ffffffffffffffffffffffffffffffffffffffff1690508467ffffffffffffffff16609f60008a815260200190815260200160002060050160148282829054906101000a90046bffffffffffffffffffffffff16610d459190613497565b92506101000a8154816bffffffffffffffffffffffff02191690836bffffffffffffffffffffffff1602179055506000610d8a898767ffffffffffffffff1687611f49565b90506000609f60008b815260200190815260200160002060050160149054906101000a90046bffffffffffffffffffffffff166bffffffffffffffffffffffff1603610e29576001609f60008b8152602001908152602001600020600401600c6101000a81548160ff0219169083151502179055506000609f60008b8152602001908152602001600020600301541115610e2857610e278961205a565b5b5b600081600001511115610edc578173ffffffffffffffffffffffffffffffffffffffff1663a9059cbb606660089054906101000a900473ffffffffffffffffffffffffffffffffffffffff1683600001516040518363ffffffff1660e01b8152600401610e97929190613271565b6020604051808303816000875af1158015610eb6573d6000803e3d6000fd5b505050506040513d601f19601f82011682018060405250810190610eda91906131fc565b505b8173ffffffffffffffffffffffffffffffffffffffff1663a9059cbb8883602001516040518363ffffffff1660e01b8152600401610f1b929190613271565b6020604051808303816000875af1158015610f3a573d6000803e3d6000fd5b505050506040513d601f19601f82011682018060405250810190610f5e91906131fc565b508673ffffffffffffffffffffffffffffffffffffffff16897ff26de978cbaea68ea699627155a10ad53df3321b0f95a08264c0cfd6d4c053268c8b8a604051610faa93929190613508565b60405180910390a38882935093505050965096945050505050565b610fcd611ecb565b610fd760006121ae565b565b6000609b60008373ffffffffffffffffffffffffffffffffffffffff1673ffffffffffffffffffffffffffffffffffffffff16815260200190815260200160002060009054906101000a900460ff169050919050565b611037612379565b609f6000838152602001908152602001600020604051806101200160405290816000820160009054906101000a900473ffffffffffffffffffffffffffffffffffffffff1673ffffffffffffffffffffffffffffffffffffffff1673ffffffffffffffffffffffffffffffffffffffff1681526020016001820160009054906101000a900473ffffffffffffffffffffffffffffffffffffffff1673ffffffffffffffffffffffffffffffffffffffff1673ffffffffffffffffffffffffffffffffffffffff1681526020016002820160009054906101000a900473ffffffffffffffffffffffffffffffffffffffff1673ffffffffffffffffffffffffffffffffffffffff1673ffffffffffffffffffffffffffffffffffffffff168152602001600382015481526020016004820160009054906101000a90046bffffffffffffffffffffffff166bffffffffffffffffffffffff166bffffffffffffffffffffffff16815260200160048201600c9054906101000a900460ff161515151581526020016005820160009054906101000a900473ffffffffffffffffffffffffffffffffffffffff1673ffffffffffffffffffffffffffffffffffffffff1673ffffffffffffffffffffffffffffffffffffffff1681526020016005820160149054906101000a90046bffffffffffffffffffffffff166bffffffffffffffffffffffff166bffffffffffffffffffffffff1681526020016006820154815250509050919050565b611268611ecb565b600073ffffffffffffffffffffffffffffffffffffffff168173ffffffffffffffffffffffffffffffffffffffff16036112d7576040517f08c379a00000000000000000000000000000000000000000000000000000000081526004016112ce9061358b565b60405180910390fd5b7f666565000000000000000000000000000000000000000000000000000000000082036113405780606660086101000a81548173ffffffffffffffffffffffffffffffffffffffff021916908373ffffffffffffffffffffffffffffffffffffffff1602179055505b7f61676772656761746f720000000000000000000000000000000000000000000082036113a95780606760006101000a81548173ffffffffffffffffffffffffffffffffffffffff021916908373ffffffffffffffffffffffffffffffffffffffff1602179055505b5050565b6113b5611ecb565b80606660006101000a81548167ffffffffffffffff021916908367ffffffffffffffff1602179055507fc8ca786c100bc62a0dffbe768b5f0b770d84e8604c5de54b54197b9066bb42a98160405161140d91906135ab565b60405180910390a150565b61142061243b565b609e6000838152602001908152602001600020604051806040016040529081600082015481526020016001820154815250509050919050565b6000603360009054906101000a900473ffffffffffffffffffffffffffffffffffffffff16905090565b61148b611ecb565b600073ffffffffffffffffffffffffffffffffffffffff168273ffffffffffffffffffffffffffffffffffffffff16036114fa576040517f08c379a00000000000000000000000000000000000000000000000000000000081526004016114f19061358b565b60405180910390fd5b7f746f6b656e00000000000000000000000000000000000000000000000000000083036115795780609b60008473ffffffffffffffffffffffffffffffffffffffff1673ffffffffffffffffffffffffffffffffffffffff16815260200190815260200160002060006101000a81548160ff0219169083151502179055505b7f77686974656c697374000000000000000000000000000000000000000000000083036115f85780609c60008473ffffffffffffffffffffffffffffffffffffffff1673ffffffffffffffffffffffffffffffffffffffff16815260200190815260200160002060006101000a81548160ff0219169083151502179055505b7fe22cadcc5ddbc0a185e8920eaa6825bcc06dcd6b432988e7e9912caa59ace93083838360405161162b939291906135c6565b60405180910390a1505050565b600080606660009054906101000a900467ffffffffffffffff16606554915091509091565b60008060019054906101000a900460ff1615905080801561168e5750600160008054906101000a900460ff1660ff16105b806116bb575061169d30612274565b1580156116ba5750600160008054906101000a900460ff1660ff16145b5b6116fa576040517f08c379a00000000000000000000000000000000000000000000000000000000081526004016116f19061366f565b60405180910390fd5b60016000806101000a81548160ff021916908360ff1602179055508015611737576001600060016101000a81548160ff0219169083151502179055505b6001609b60008473ffffffffffffffffffffffffffffffffffffffff1673ffffffffffffffffffffffffffffffffffffffff16815260200190815260200160002060006101000a81548160ff021916908315150217905550620186a0606581905550611388606660006101000a81548167ffffffffffffffff021916908367ffffffffffffffff1602179055506117cc612297565b80156118255760008060016101000a81548160ff0219169083151502179055507f7f26b83ff96e1f2b6a682f133852f6798a09c465da95921460cefb3847402498600160405161181c91906136d7565b60405180910390a15b5050565b611831611ecb565b81816068918261184292919061389f565b507f6a6600b7242975868d8321b5e64d0c9f2fcc92eb1af72254a6357be77ee7dcef828260405161187492919061399c565b60405180910390a15050565b6000609c60008373ffffffffffffffffffffffffffffffffffffffff1673ffffffffffffffffffffffffffffffffffffffff16815260200190815260200160002060009054906101000a900460ff169050919050565b6118de611ecb565b8273ffffffffffffffffffffffffffffffffffffffff1663a9059cbb83836040518363ffffffff1660e01b8152600401611919929190613271565b6020604051808303816000875af1158015611938573d6000803e3d6000fd5b505050506040513d601f19601f8201168201806040525081019061195c91906131fc565b50505050565b6000606760009054906101000a900473ffffffffffffffffffffffffffffffffffffffff1673ffffffffffffffffffffffffffffffffffffffff163373ffffffffffffffffffffffffffffffffffffffff16146119f4576040517f08c379a00000000000000000000000000000000000000000000000000000000081526004016119eb9061340b565b60405180910390fd5b609f6000848152602001908152602001600020600401600c9054906101000a900460ff1615611a58576040517f08c379a0000000000000000000000000000000000000000000000000000000008152600401611a4f90613477565b60405180910390fd5b6001609f6000858152602001908152602001600020600401600c6101000a81548160ff0219169083151502179055506000609f600085815260200190815260200160002060050160146101000a8154816bffffffffffffffffffffffff02191690836bffffffffffffffffffffffff160217905550609f600084815260200190815260200160002060010160009054906101000a900473ffffffffffffffffffffffffffffffffffffffff1673ffffffffffffffffffffffffffffffffffffffff1663a9059cbb609f600086815260200190815260200160002060050160009054906101000a900473ffffffffffffffffffffffffffffffffffffffff16609f6000878152602001908152602001600020600601546040518363ffffffff1660e01b8152600401611b8a929190613271565b6020604051808303816000875af1158015611ba9573d6000803e3d6000fd5b505050506040513d601f19601f82011682018060405250810190611bcd91906131fc565b50827e7c875846b687732a7579c19bb1dade66cd14e9f4f809565e2b2b5e76c72b4f83604051611bfd9190612832565b60405180910390a26001905092915050565b6000606760009054906101000a900473ffffffffffffffffffffffffffffffffffffffff16905090565b611c41611ecb565b600073ffffffffffffffffffffffffffffffffffffffff168173ffffffffffffffffffffffffffffffffffffffff1603611cb0576040517f08c379a0000000000000000000000000000000000000000000000000000000008152600401611ca790613a32565b60405180910390fd5b611cb9816121ae565b50565b609b60008673ffffffffffffffffffffffffffffffffffffffff1673ffffffffffffffffffffffffffffffffffffffff16815260200190815260200160002060009054906101000a900460ff16611d48576040517f08c379a0000000000000000000000000000000000000000000000000000000008152600401611d3f90613a9e565b60405180910390fd5b60008411611d8b576040517f08c379a0000000000000000000000000000000000000000000000000000000008152600401611d8290613b0a565b60405180910390fd5b600073ffffffffffffffffffffffffffffffffffffffff168373ffffffffffffffffffffffffffffffffffffffff1603611dfa576040517f08c379a0000000000000000000000000000000000000000000000000000000008152600401611df190613b76565b60405180910390fd5b600073ffffffffffffffffffffffffffffffffffffffff168273ffffffffffffffffffffffffffffffffffffffff1603611e69576040517f08c379a0000000000000000000000000000000000000000000000000000000008152600401611e6090613b76565b60405180910390fd5b6000801b609e60008381526020019081526020016000206000015403611ec4576040517f08c379a0000000000000000000000000000000000000000000000000000000008152600401611ebb90613be2565b60405180910390fd5b5050505050565b611ed36122f0565b73ffffffffffffffffffffffffffffffffffffffff16611ef1611459565b73ffffffffffffffffffffffffffffffffffffffff1614611f47576040517f08c379a0000000000000000000000000000000000000000000000000000000008152600401611f3e90613c4e565b60405180910390fd5b565b611f5161245b565b6000609f6000868152602001908152602001600020600601549050609f60008681526020019081526020016000206003015481611f8e9190613c6e565b9050606554846bffffffffffffffffffffffff1682611fad9190613091565b611fb79190613102565b826020018181525050606554606660009054906101000a900467ffffffffffffffff1667ffffffffffffffff168360200151611ff39190613091565b611ffd9190613102565b8260000181815250508160000151826020015161201a9190613c6e565b82602001818152505082156120525781600001518260200181815161203f9190613ca2565b9150818152505060008260000181815250505b509392505050565b6000609f600083815260200190815260200160002060020160009054906101000a900473ffffffffffffffffffffffffffffffffffffffff1690506000609f6000848152602001908152602001600020600301549050609f600084815260200190815260200160002060010160009054906101000a900473ffffffffffffffffffffffffffffffffffffffff1673ffffffffffffffffffffffffffffffffffffffff1663a9059cbb83836040518363ffffffff1660e01b8152600401612121929190613271565b6020604051808303816000875af1158015612140573d6000803e3d6000fd5b505050506040513d601f19601f8201168201806040525081019061216491906131fc565b50808273ffffffffffffffffffffffffffffffffffffffff167f96c76d5aec8a8c11a9c8e02768e3fa309347330d08961e0cf9fd43b349b684c260405160405180910390a3505050565b6000603360009054906101000a900473ffffffffffffffffffffffffffffffffffffffff16905081603360006101000a81548173ffffffffffffffffffffffffffffffffffffffff021916908373ffffffffffffffffffffffffffffffffffffffff1602179055508173ffffffffffffffffffffffffffffffffffffffff168173ffffffffffffffffffffffffffffffffffffffff167f8be0079c531659141344cd1fd0a4f28419497f9722a3daafe3b4186f6b6457e060405160405180910390a35050565b6000808273ffffffffffffffffffffffffffffffffffffffff163b119050919050565b600060019054906101000a900460ff166122e6576040517f08c379a00000000000000000000000000000000000000000000000000000000081526004016122dd90613d48565b60405180910390fd5b6122ee6122f8565b565b600033905090565b600060019054906101000a900460ff16612347576040517f08c379a000000000000000000000000000000000000000000000000000000000815260040161233e90613d48565b60405180910390fd5b6123576123526122f0565b6121ae565b565b604051806040016040528060008019168152602001600080191681525090565b604051806101200160405280600073ffffffffffffffffffffffffffffffffffffffff168152602001600073ffffffffffffffffffffffffffffffffffffffff168152602001600073ffffffffffffffffffffffffffffffffffffffff1681526020016000815260200160006bffffffffffffffffffffffff168152602001600015158152602001600073ffffffffffffffffffffffffffffffffffffffff16815260200160006bffffffffffffffffffffffff168152602001600081525090565b604051806040016040528060008019168152602001600080191681525090565b604051806040016040528060008152602001600081525090565b6000604051905090565b600080fd5b600080fd5b6000819050919050565b61249c81612489565b81146124a757600080fd5b50565b6000813590506124b981612493565b92915050565b6000602082840312156124d5576124d461247f565b5b60006124e3848285016124aa565b91505092915050565b600081519050919050565b600082825260208201905092915050565b6000819050602082019050919050565b61252181612489565b82525050565b60408201600082015161253d6000850182612518565b5060208201516125506020850182612518565b50505050565b60006125628383612527565b60408301905092915050565b6000602082019050919050565b6000612586826124ec565b61259081856124f7565b935061259b83612508565b8060005b838110156125cc5781516125b38882612556565b97506125be8361256e565b92505060018101905061259f565b5085935050505092915050565b600060208201905081810360008301526125f3818461257b565b905092915050565b600073ffffffffffffffffffffffffffffffffffffffff82169050919050565b6000612626826125fb565b9050919050565b6126368161261b565b811461264157600080fd5b50565b6000813590506126538161262d565b92915050565b6000819050919050565b61266c81612659565b811461267757600080fd5b50565b60008135905061268981612663565b92915050565b60006bffffffffffffffffffffffff82169050919050565b6126b08161268f565b81146126bb57600080fd5b50565b6000813590506126cd816126a7565b92915050565b600080fd5b600080fd5b600080fd5b60008083601f8401126126f8576126f76126d3565b5b8235905067ffffffffffffffff811115612715576127146126d8565b5b602083019150836001820283011115612731576127306126dd565b5b9250929050565b6000806000806000806000806000806101208b8d03121561275c5761275b61247f565b5b600061276a8d828e01612644565b9a5050602061277b8d828e0161267a565b995050604061278c8d828e016124aa565b985050606061279d8d828e016124aa565b97505060806127ae8d828e016126be565b96505060a06127bf8d828e01612644565b95505060c06127d08d828e0161267a565b94505060e06127e18d828e01612644565b9350506101008b013567ffffffffffffffff81111561280357612802612484565b5b61280f8d828e016126e2565b92509250509295989b9194979a5092959850565b61282c81612489565b82525050565b60006020820190506128476000830184612823565b92915050565b6000601f19601f8301169050919050565b7f4e487b7100000000000000000000000000000000000000000000000000000000600052604160045260246000fd5b6128968261284d565b810181811067ffffffffffffffff821117156128b5576128b461285e565b5b80604052505050565b60006128c8612475565b90506128d4828261288d565b919050565b600067ffffffffffffffff8211156128f4576128f361285e565b5b602082029050602081019050919050565b600080fd5b6000604082840312156129205761291f612905565b5b61292a60406128be565b9050600061293a848285016124aa565b600083015250602061294e848285016124aa565b60208301525092915050565b600061296d612968846128d9565b6128be565b905080838252602082019050604084028301858111156129905761298f6126dd565b5b835b818110156129b957806129a5888261290a565b845260208401935050604081019050612992565b5050509392505050565b600082601f8301126129d8576129d76126d3565b5b81356129e884826020860161295a565b91505092915050565b60008060408385031215612a0857612a0761247f565b5b6000612a16858286016124aa565b925050602083013567ffffffffffffffff811115612a3757612a36612484565b5b612a43858286016129c3565b9150509250929050565b600081519050919050565b600082825260208201905092915050565b60005b83811015612a87578082015181840152602081019050612a6c565b60008484015250505050565b6000612a9e82612a4d565b612aa88185612a58565b9350612ab8818560208601612a69565b612ac18161284d565b840191505092915050565b60006020820190508181036000830152612ae68184612a93565b905092915050565b600067ffffffffffffffff82169050919050565b612b0b81612aee565b8114612b1657600080fd5b50565b600081359050612b2881612b02565b92915050565b60008115159050919050565b612b4381612b2e565b8114612b4e57600080fd5b50565b600081359050612b6081612b3a565b92915050565b60008060008060008060c08789031215612b8357612b8261247f565b5b6000612b9189828a016124aa565b9650506020612ba289828a016124aa565b9550506040612bb389828a016124aa565b9450506060612bc489828a01612644565b9350506080612bd589828a01612b19565b92505060a0612be689828a01612b51565b9150509295509295509295565b612bfc8161261b565b82525050565b6000604082019050612c176000830185612823565b612c246020830184612bf3565b9392505050565b600060208284031215612c4157612c4061247f565b5b6000612c4f84828501612644565b91505092915050565b612c6181612b2e565b82525050565b6000602082019050612c7c6000830184612c58565b92915050565b612c8b8161261b565b82525050565b612c9a81612659565b82525050565b612ca98161268f565b82525050565b612cb881612b2e565b82525050565b61012082016000820151612cd56000850182612c82565b506020820151612ce86020850182612c82565b506040820151612cfb6040850182612c82565b506060820151612d0e6060850182612c91565b506080820151612d216080850182612ca0565b5060a0820151612d3460a0850182612caf565b5060c0820151612d4760c0850182612c82565b5060e0820151612d5a60e0850182612ca0565b50610100820151612d6f610100850182612c91565b50505050565b600061012082019050612d8b6000830184612cbe565b92915050565b60008060408385031215612da857612da761247f565b5b6000612db6858286016124aa565b9250506020612dc785828601612644565b9150509250929050565b600060208284031215612de757612de661247f565b5b6000612df584828501612b19565b91505092915050565b604082016000820151612e146000850182612518565b506020820151612e276020850182612518565b50505050565b6000604082019050612e426000830184612dfe565b92915050565b6000602082019050612e5d6000830184612bf3565b92915050565b600080600060608486031215612e7c57612e7b61247f565b5b6000612e8a868287016124aa565b9350506020612e9b86828701612644565b9250506040612eac86828701612b51565b9150509250925092565b612ebf81612aee565b82525050565b612ece81612659565b82525050565b6000604082019050612ee96000830185612eb6565b612ef66020830184612ec5565b9392505050565b60008083601f840112612f1357612f126126d3565b5b8235905067ffffffffffffffff811115612f3057612f2f6126d8565b5b602083019150836001820283011115612f4c57612f4b6126dd565b5b9250929050565b60008060208385031215612f6a57612f6961247f565b5b600083013567ffffffffffffffff811115612f8857612f87612484565b5b612f9485828601612efd565b92509250509250929050565b600080600060608486031215612fb957612fb861247f565b5b6000612fc786828701612644565b9350506020612fd886828701612644565b9250506040612fe98682870161267a565b9150509250925092565b6000806040838503121561300a5761300961247f565b5b6000613018858286016124aa565b9250506020613029858286016124aa565b9150509250929050565b7f4e487b7100000000000000000000000000000000000000000000000000000000600052603260045260246000fd5b7f4e487b7100000000000000000000000000000000000000000000000000000000600052601160045260246000fd5b600061309c82612659565b91506130a783612659565b92508282026130b581612659565b915082820484148315176130cc576130cb613062565b5b5092915050565b7f4e487b7100000000000000000000000000000000000000000000000000000000600052601260045260246000fd5b600061310d82612659565b915061311883612659565b925082613128576131276130d3565b5b828204905092915050565b600082825260208201905092915050565b7f53656e646572466565546f6f4869676800000000000000000000000000000000600082015250565b600061317a601083613133565b915061318582613144565b602082019050919050565b600060208201905081810360008301526131a98161316d565b9050919050565b60006060820190506131c56000830186612bf3565b6131d26020830185612bf3565b6131df6040830184612ec5565b949350505050565b6000815190506131f681612b3a565b92915050565b6000602082840312156132125761321161247f565b5b6000613220848285016131e7565b91505092915050565b600061323482612659565b91507fffffffffffffffffffffffffffffffffffffffffffffffffffffffffffffffff820361326657613265613062565b5b600182019050919050565b60006040820190506132866000830185612bf3565b6132936020830184612ec5565b9392505050565b6000819050919050565b60006132bf6132ba6132b58461268f565b61329a565b612659565b9050919050565b6132cf816132a4565b82525050565b82818337600083830152505050565b60006132f08385613133565b93506132fd8385846132d5565b6133068361284d565b840190509392505050565b600060808201905061332660008301886132c6565b6133336020830187612823565b6133406040830186612823565b81810360608301526133538184866132e4565b90509695505050505050565b7f4e487b7100000000000000000000000000000000000000000000000000000000600052602260045260246000fd5b600060028204905060018216806133a657607f821691505b6020821081036133b9576133b861335f565b5b50919050565b7f4f6e6c7941676772656761746f72000000000000000000000000000000000000600082015250565b60006133f5600e83613133565b9150613400826133bf565b602082019050919050565b60006020820190508181036000830152613424816133e8565b9050919050565b7f4f7264657246756c66696c6c6564000000000000000000000000000000000000600082015250565b6000613461600e83613133565b915061346c8261342b565b602082019050919050565b6000602082019050818103600083015261349081613454565b9050919050565b60006134a28261268f565b91506134ad8361268f565b925082820390506bffffffffffffffffffffffff8111156134d1576134d0613062565b5b92915050565b60006134f26134ed6134e884612aee565b61329a565b61268f565b9050919050565b613502816134d7565b82525050565b600060608201905061351d6000830186612823565b61352a6020830185612823565b61353760408301846134f9565b949350505050565b7f50617963726573743a207a65726f206164647265737300000000000000000000600082015250565b6000613575601683613133565b91506135808261353f565b602082019050919050565b600060208201905081810360008301526135a481613568565b9050919050565b60006020820190506135c06000830184612eb6565b92915050565b60006060820190506135db6000830186612823565b6135e86020830185612bf3565b6135f56040830184612c58565b949350505050565b7f496e697469616c697a61626c653a20636f6e747261637420697320616c72656160008201527f647920696e697469616c697a6564000000000000000000000000000000000000602082015250565b6000613659602e83613133565b9150613664826135fd565b604082019050919050565b600060208201905081810360008301526136888161364c565b9050919050565b6000819050919050565b600060ff82169050919050565b60006136c16136bc6136b78461368f565b61329a565b613699565b9050919050565b6136d1816136a6565b82525050565b60006020820190506136ec60008301846136c8565b92915050565b600082905092915050565b60008190508160005260206000209050919050565b60006020601f8301049050919050565b600082821b905092915050565b60006008830261375f7fffffffffffffffffffffffffffffffffffffffffffffffffffffffffffffffff82613722565b6137698683613722565b95508019841693508086168417925050509392505050565b600061379c61379761379284612659565b61329a565b612659565b9050919050565b6000819050919050565b6137b683613781565b6137ca6137c2826137a3565b84845461372f565b825550505050565b600090565b6137df6137d2565b6137ea8184846137ad565b505050565b5b8181101561380e576138036000826137d7565b6001810190506137f0565b5050565b601f82111561385357613824816136fd565b61382d84613712565b8101602085101561383c578190505b61385061384885613712565b8301826137ef565b50505b505050565b600082821c905092915050565b600061387660001984600802613858565b1980831691505092915050565b600061388f8383613865565b9150826002028217905092915050565b6138a983836136f2565b67ffffffffffffffff8111156138c2576138c161285e565b5b6138cc825461338e565b6138d7828285613812565b6000601f83116001811461390657600084156138f4578287013590505b6138fe8582613883565b865550613966565b601f198416613914866136fd565b60005b8281101561393c57848901358255600182019150602085019450602081019050613917565b868310156139595784890135613955601f891682613865565b8355505b6001600288020188555050505b50505050505050565b600061397b8385612a58565b93506139888385846132d5565b6139918361284d565b840190509392505050565b600060208201905081810360008301526139b781848661396f565b90509392505050565b7f4f776e61626c653a206e6577206f776e657220697320746865207a65726f206160008201527f6464726573730000000000000000000000000000000000000000000000000000602082015250565b6000613a1c602683613133565b9150613a27826139c0565b604082019050919050565b60006020820190508181036000830152613a4b81613a0f565b9050919050565b7f546f6b656e4e6f74537570706f72746564000000000000000000000000000000600082015250565b6000613a88601183613133565b9150613a9382613a52565b602082019050919050565b60006020820190508181036000830152613ab781613a7b565b9050919050565b7f416d6f756e7449735a65726f0000000000000000000000000000000000000000600082015250565b6000613af4600c83613133565b9150613aff82613abe565b602082019050919050565b60006020820190508181036000830152613b2381613ae7565b9050919050565b7f5468726f775a65726f4164647265737300000000000000000000000000000000600082015250565b6000613b60601083613133565b9150613b6b82613b2a565b602082019050919050565b60006020820190508181036000830152613b8f81613b53565b9050919050565b7f496e76616c6964496e737469747574696f6e436f646500000000000000000000600082015250565b6000613bcc601683613133565b9150613bd782613b96565b602082019050919050565b60006020820190508181036000830152613bfb81613bbf565b9050919050565b7f4f776e61626c653a2063616c6c6572206973206e6f7420746865206f776e6572600082015250565b6000613c38602083613133565b9150613c4382613c02565b602082019050919050565b60006020820190508181036000830152613c6781613c2b565b9050919050565b6000613c7982612659565b9150613c8483612659565b9250828203905081811115613c9c57613c9b613062565b5b92915050565b6000613cad82612659565b9150613cb883612659565b9250828201905080821115613cd057613ccf613062565b5b92915050565b7f496e697469616c697a61626c653a20636f6e7472616374206973206e6f74206960008201527f6e697469616c697a696e67000000000000000000000000000000000000000000602082015250565b6000613d32602b83613133565b9150613d3d82613cd6565b604082019050919050565b60006020820190508181036000830152613d6181613d25565b905091905056fea2646970667358221220f803c3247b0b726c64865b7a580dd6d825218d8aa6f111de58c8caa232a024ab64736f6c63430008120033",
  "linkReferences": {},
  "deployedLinkReferences": {}
}