{
  "_format": "hh-sol-artifact-1",
  "contractName": "GatewayV2",
  "sourceName": "contracts/GatewayV2.sol",
  "abi": [
    {
      "inputs": [],
      "stateMutability": "nonpayable",
      "type": "constructor"
    },
    {
      "anonymous": false,
      "inputs": [
        {
          "indexed": false,
          "internalType": "uint8",
          "name": "version",
          "type": "uint8"
        }
      ],
      "name": "Initialized",
      "type": "event"
    },
    {
      "anonymous": false,
      "inputs": [
        {
          "indexed": true,
          "internalType": "address",
          "name": "sender",
          "type": "address"
        },
        {
          "indexed": true,
          "internalType": "address",
          "name": "token",
          "type": "address"
        },
        {
          "indexed": true,
          "internalType": "uint256",
          "name": "amount",
          "type": "uint256"
        },
        {
          "indexed": false,
          "internalType": "uint256",
          "name": "protocolFee",
          "type": "uint256"
        },
        {
          "indexed": false,
          "internalType": "bytes32",
          "name": "orderId",
          "type": "bytes32"
        },
        {
          "indexed": false,
          "internalType": "uint256",
          "name": "rate",
          "type": "uint256"
        },
        {
          "indexed": false,
          "internalType": "bytes32",
          "name": "institutionCode",
          "type": "bytes32"
        },
        {
          "indexed": false,
          "internalType": "string",
          "name": "messageHash",
          "type": "string"
        }
      ],
      "name": "OrderCreated",
      "type": "event"
    },
    {
      "anonymous": false,
      "inputs": [
        {
          "indexed": false,
          "internalType": "uint256",
          "name": "fee",
          "type": "uint256"
        },
        {
          "indexed": true,
          "internalType": "bytes32",
          "name": "orderId",
          "type": "bytes32"
        }
      ],
      "name": "OrderRefunded",
      "type": "event"
    },
    {
      "anonymous": false,
      "inputs": [
        {
          "indexed": false,
          "internalType": "bytes32",
          "name": "splitOrderId",
          "type": "bytes32"
        },
        {
          "indexed": true,
          "internalType": "bytes32",
          "name": "orderId",
          "type": "bytes32"
        },
        {
          "indexed": true,
          "internalType": "address",
          "name": "liquidityProvider",
          "type": "address"
        },
        {
          "indexed": false,
          "internalType": "uint96",
          "name": "settlePercent",
          "type": "uint96"
        }
      ],
      "name": "OrderSettled",
      "type": "event"
    },
    {
      "anonymous": false,
      "inputs": [
        {
          "indexed": true,
          "internalType": "address",
          "name": "previousOwner",
          "type": "address"
        },
        {
          "indexed": true,
          "internalType": "address",
          "name": "newOwner",
          "type": "address"
        }
      ],
      "name": "OwnershipTransferStarted",
      "type": "event"
    },
    {
      "anonymous": false,
      "inputs": [
        {
          "indexed": true,
          "internalType": "address",
          "name": "previousOwner",
          "type": "address"
        },
        {
          "indexed": true,
          "internalType": "address",
          "name": "newOwner",
          "type": "address"
        }
      ],
      "name": "OwnershipTransferred",
      "type": "event"
    },
    {
      "anonymous": false,
      "inputs": [
        {
          "indexed": false,
          "internalType": "address",
          "name": "account",
          "type": "address"
        }
      ],
      "name": "Paused",
      "type": "event"
    },
    {
      "anonymous": false,
      "inputs": [
        {
          "indexed": true,
          "internalType": "bytes32",
          "name": "what",
          "type": "bytes32"
        },
        {
          "indexed": true,
          "internalType": "address",
          "name": "treasuryAddress",
          "type": "address"
        }
      ],
      "name": "ProtocolAddressUpdated",
      "type": "event"
    },
    {
      "anonymous": false,
      "inputs": [
        {
          "indexed": false,
          "internalType": "uint64",
          "name": "protocolFee",
          "type": "uint64"
        }
      ],
      "name": "ProtocolFeeUpdated",
      "type": "event"
    },
    {
      "anonymous": false,
      "inputs": [
        {
          "indexed": true,
          "internalType": "address",
          "name": "sender",
          "type": "address"
        },
        {
          "indexed": true,
          "internalType": "uint256",
          "name": "amount",
          "type": "uint256"
        }
      ],
      "name": "SenderFeeTransferred",
      "type": "event"
    },
    {
      "anonymous": false,
      "inputs": [
        {
          "indexed": true,
          "internalType": "address",
          "name": "treasuryAddress",
          "type": "address"
        }
      ],
      "name": "SetFeeRecipient",
      "type": "event"
    },
    {
      "anonymous": false,
      "inputs": [
        {
          "indexed": true,
          "internalType": "bytes32",
          "name": "what",
          "type": "bytes32"
        },
        {
          "indexed": true,
          "internalType": "address",
          "name": "value",
          "type": "address"
        },
        {
          "indexed": false,
          "internalType": "uint256",
          "name": "status",
          "type": "uint256"
        }
      ],
      "name": "SettingManagerBool",
      "type": "event"
    },
    {
      "anonymous": false,
      "inputs": [
        {
          "indexed": true,
          "internalType": "bytes32",
          "name": "currency",
          "type": "bytes32"
        },
        {
          "components": [
            {
              "internalType": "bytes32",
              "name": "code",
              "type": "bytes32"
            },
            {
              "internalType": "bytes32",
              "name": "name",
              "type": "bytes32"
            }
          ],
          "indexed": false,
          "internalType": "struct SharedStructs.Institution[]",
          "name": "institutions",
          "type": "tuple[]"
        }
      ],
      "name": "SupportedInstitutionsUpdated",
      "type": "event"
    },
    {
      "anonymous": false,
      "inputs": [
        {
          "indexed": false,
          "internalType": "address",
          "name": "account",
          "type": "address"
        }
      ],
      "name": "Unpaused",
      "type": "event"
    },
    {
      "inputs": [],
      "name": "acceptOwnership",
      "outputs": [],
      "stateMutability": "nonpayable",
      "type": "function"
    },
    {
      "inputs": [
        {
          "internalType": "address",
          "name": "_token",
          "type": "address"
        },
        {
          "internalType": "uint256",
          "name": "_amount",
          "type": "uint256"
        },
        {
          "internalType": "bytes32",
          "name": "_institutionCode",
          "type": "bytes32"
        },
        {
          "internalType": "uint96",
          "name": "_rate",
          "type": "uint96"
        },
        {
          "internalType": "address",
          "name": "_senderFeeRecipient",
          "type": "address"
        },
        {
          "internalType": "uint256",
          "name": "_senderFee",
          "type": "uint256"
        },
        {
          "internalType": "address",
          "name": "_refundAddress",
          "type": "address"
        },
        {
          "internalType": "string",
          "name": "messageHash",
          "type": "string"
        }
      ],
      "name": "createOrder",
      "outputs": [
        {
          "internalType": "bytes32",
          "name": "orderId",
          "type": "bytes32"
        }
      ],
      "stateMutability": "nonpayable",
      "type": "function"
    },
    {
      "inputs": [],
      "name": "getFeeDetails",
      "outputs": [
        {
          "internalType": "uint64",
          "name": "",
          "type": "uint64"
        },
        {
          "internalType": "uint256",
          "name": "",
          "type": "uint256"
        }
      ],
      "stateMutability": "view",
      "type": "function"
    },
    {
      "inputs": [
        {
          "internalType": "bytes32",
          "name": "_orderId",
          "type": "bytes32"
        }
      ],
      "name": "getOrderInfo",
      "outputs": [
        {
          "components": [
            {
              "internalType": "address",
              "name": "sender",
              "type": "address"
            },
            {
              "internalType": "address",
              "name": "token",
              "type": "address"
            },
            {
              "internalType": "address",
              "name": "senderFeeRecipient",
              "type": "address"
            },
            {
              "internalType": "uint256",
              "name": "senderFee",
              "type": "uint256"
            },
            {
              "internalType": "uint256",
              "name": "protocolFee",
              "type": "uint256"
            },
            {
              "internalType": "bool",
              "name": "isFulfilled",
              "type": "bool"
            },
            {
              "internalType": "bool",
              "name": "isRefunded",
              "type": "bool"
            },
            {
              "internalType": "address",
              "name": "refundAddress",
              "type": "address"
            },
            {
              "internalType": "uint96",
              "name": "currentBPS",
              "type": "uint96"
            },
            {
              "internalType": "uint256",
              "name": "amount",
              "type": "uint256"
            }
          ],
          "internalType": "struct IGateway.Order",
          "name": "",
          "type": "tuple"
        }
      ],
      "stateMutability": "view",
      "type": "function"
    },
    {
      "inputs": [
        {
          "internalType": "bytes32",
          "name": "_code",
          "type": "bytes32"
        }
      ],
      "name": "getSupportedInstitutionByCode",
      "outputs": [
        {
          "components": [
            {
              "internalType": "bytes32",
              "name": "name",
              "type": "bytes32"
            },
            {
              "internalType": "bytes32",
              "name": "currency",
              "type": "bytes32"
            }
          ],
          "internalType": "struct SharedStructs.InstitutionByCode",
          "name": "",
          "type": "tuple"
        }
      ],
      "stateMutability": "view",
      "type": "function"
    },
    {
      "inputs": [
        {
          "internalType": "bytes32",
          "name": "_currency",
          "type": "bytes32"
        }
      ],
      "name": "getSupportedInstitutions",
      "outputs": [
        {
          "components": [
            {
              "internalType": "bytes32",
              "name": "code",
              "type": "bytes32"
            },
            {
              "internalType": "bytes32",
              "name": "name",
              "type": "bytes32"
            }
          ],
          "internalType": "struct SharedStructs.Institution[]",
          "name": "",
          "type": "tuple[]"
        }
      ],
      "stateMutability": "view",
      "type": "function"
    },
    {
      "inputs": [],
      "name": "initialize",
      "outputs": [],
      "stateMutability": "nonpayable",
      "type": "function"
    },
    {
      "inputs": [
        {
          "internalType": "address",
          "name": "_token",
          "type": "address"
        }
      ],
      "name": "isTokenSupported",
      "outputs": [
        {
          "internalType": "bool",
          "name": "",
          "type": "bool"
        }
      ],
      "stateMutability": "view",
      "type": "function"
    },
    {
      "inputs": [],
      "name": "owner",
      "outputs": [
        {
          "internalType": "address",
          "name": "",
          "type": "address"
        }
      ],
      "stateMutability": "view",
      "type": "function"
    },
    {
      "inputs": [],
      "name": "pause",
      "outputs": [],
      "stateMutability": "nonpayable",
      "type": "function"
    },
    {
      "inputs": [],
      "name": "paused",
      "outputs": [
        {
          "internalType": "bool",
          "name": "",
          "type": "bool"
        }
      ],
      "stateMutability": "view",
      "type": "function"
    },
    {
      "inputs": [],
      "name": "pendingOwner",
      "outputs": [
        {
          "internalType": "address",
          "name": "",
          "type": "address"
        }
      ],
      "stateMutability": "view",
      "type": "function"
    },
    {
      "inputs": [
        {
          "internalType": "uint256",
          "name": "_fee",
          "type": "uint256"
        },
        {
          "internalType": "bytes32",
          "name": "_orderId",
          "type": "bytes32"
        }
      ],
      "name": "refund",
      "outputs": [
        {
          "internalType": "bool",
          "name": "",
          "type": "bool"
        }
      ],
      "stateMutability": "nonpayable",
      "type": "function"
    },
    {
      "inputs": [],
      "name": "renounceOwnership",
      "outputs": [],
      "stateMutability": "nonpayable",
      "type": "function"
    },
    {
      "inputs": [
        {
          "internalType": "bytes32",
          "name": "currency",
          "type": "bytes32"
        },
        {
          "components": [
            {
              "internalType": "bytes32",
              "name": "code",
              "type": "bytes32"
            },
            {
              "internalType": "bytes32",
              "name": "name",
              "type": "bytes32"
            }
          ],
          "internalType": "struct SharedStructs.Institution[]",
          "name": "institutions",
          "type": "tuple[]"
        }
      ],
      "name": "setSupportedInstitutions",
      "outputs": [],
      "stateMutability": "nonpayable",
      "type": "function"
    },
    {
      "inputs": [
        {
          "internalType": "bytes32",
          "name": "what",
          "type": "bytes32"
        },
        {
          "internalType": "address",
          "name": "value",
          "type": "address"
        },
        {
          "internalType": "uint256",
          "name": "status",
          "type": "uint256"
        }
      ],
      "name": "settingManagerBool",
      "outputs": [],
      "stateMutability": "nonpayable",
      "type": "function"
    },
    {
      "inputs": [
        {
          "internalType": "bytes32",
          "name": "_splitOrderId",
          "type": "bytes32"
        },
        {
          "internalType": "bytes32",
          "name": "_orderId",
          "type": "bytes32"
        },
        {
          "internalType": "address",
          "name": "_liquidityProvider",
          "type": "address"
        },
        {
          "internalType": "uint64",
          "name": "_settlePercent",
          "type": "uint64"
        }
      ],
      "name": "settle",
      "outputs": [
        {
          "internalType": "bool",
          "name": "",
          "type": "bool"
        }
      ],
      "stateMutability": "nonpayable",
      "type": "function"
    },
    {
      "inputs": [
        {
          "internalType": "address",
          "name": "newOwner",
          "type": "address"
        }
      ],
      "name": "transferOwnership",
      "outputs": [],
      "stateMutability": "nonpayable",
      "type": "function"
    },
    {
      "inputs": [],
      "name": "unpause",
      "outputs": [],
      "stateMutability": "nonpayable",
      "type": "function"
    },
    {
      "inputs": [
        {
          "internalType": "bytes32",
          "name": "what",
          "type": "bytes32"
        },
        {
          "internalType": "address",
          "name": "value",
          "type": "address"
        }
      ],
      "name": "updateProtocolAddress",
      "outputs": [],
      "stateMutability": "nonpayable",
      "type": "function"
    },
    {
      "inputs": [
        {
          "internalType": "uint64",
          "name": "_protocolFeePercent",
          "type": "uint64"
        }
      ],
      "name": "updateProtocolFee",
      "outputs": [],
      "stateMutability": "nonpayable",
      "type": "function"
    }
  ],
  "bytecode": "0x60806040523480156200001157600080fd5b50620000226200002860201b60201c565b620001d2565b600060019054906101000a900460ff16156200007b576040517f08c379a0000000000000000000000000000000000000000000000000000000008152600401620000729062000175565b60405180910390fd5b60ff801660008054906101000a900460ff1660ff1614620000ec5760ff6000806101000a81548160ff021916908360ff1602179055507f7f26b83ff96e1f2b6a682f133852f6798a09c465da95921460cefb384740249860ff604051620000e39190620001b5565b60405180910390a15b565b600082825260208201905092915050565b7f496e697469616c697a61626c653a20636f6e747261637420697320696e69746960008201527f616c697a696e6700000000000000000000000000000000000000000000000000602082015250565b60006200015d602783620000ee565b91506200016a82620000ff565b604082019050919050565b6000602082019050818103600083015262000190816200014e565b9050919050565b600060ff82169050919050565b620001af8162000197565b82525050565b6000602082019050620001cc6000830184620001a4565b92915050565b61407380620001e26000396000f3fe608060405234801561001057600080fd5b50600436106101375760003560e01c806379ba5097116100b8578063c22801031161007c578063c2280103146102dd578063cd9924001461030d578063d12ff20a14610329578063e30c397814610359578063f22ee70414610377578063f2fde38b146103a757610137565b806379ba5097146102825780638129fc1c1461028c5780638456cb59146102965780638da5cb5b146102a0578063b810c636146102be57610137565b80635c975abb116100ff5780635c975abb146101ca578063715018a6146101e857806371eedb88146101f257806375151b6314610222578063768c6ec01461025257610137565b8063026213381461013c578063322008821461016c5780633f4ba83a1461018857806340ebc6771461019257806347094e2e146101ae575b600080fd5b6101566004803603810190610151919061285d565b6103c3565b6040516101639190612977565b60405180910390f35b61018660048036038101906101819190612b47565b610449565b005b6101906105be565b005b6101ac60048036038101906101a79190612c01565b6105d0565b005b6101c860048036038101906101c39190612c81565b610898565b005b6101d2610903565b6040516101df9190612cc9565b60405180910390f35b6101f061091a565b005b61020c60048036038101906102079190612d1a565b61092e565b6040516102199190612cc9565b60405180910390f35b61023c60048036038101906102379190612d5a565b610dce565b6040516102499190612cc9565b60405180910390f35b61026c6004803603810190610267919061285d565b610e2a565b6040516102799190612ea7565b60405180910390f35b61028a611043565b005b6102946110d0565b005b61029e611220565b005b6102a8611232565b6040516102b59190612ed2565b60405180910390f35b6102c661125c565b6040516102d4929190612f0b565b60405180910390f35b6102f760048036038101906102f2919061285d565b611281565b6040516103049190612f63565b60405180910390f35b61032760048036038101906103229190612f7e565b6112c2565b005b610343600480360381019061033e9190613058565b611447565b604051610350919061313d565b60405180910390f35b61036161198d565b60405161036e9190612ed2565b60405180910390f35b610391600480360381019061038c9190613158565b6119b7565b60405161039e9190612cc9565b60405180910390f35b6103c160048036038101906103bc9190612d5a565b612013565b005b606060cd6000838152602001908152602001600020805480602002602001604051908101604052809291908181526020016000905b8282101561043e578382906000526020600020906002020160405180604001604052908160008201548152602001600182015481525050815260200190600101906103f8565b505050509050919050565b6104516120c0565b60cd6000838152602001908152602001600020600061047091906126eb565b60005b815181101561056f5760cd60008481526020019081526020016000208282815181106104a2576104a16131bf565b5b60200260200101519080600181540180825580915050600190039060005260206000209060020201600090919091909150600082015181600001556020820151816001015550506040518060400160405280838381518110610507576105066131bf565b5b60200260200101516020015181526020018481525060ce6000848481518110610533576105326131bf565b5b60200260200101516000015181526020019081526020016000206000820151816000015560208201518160010155905050806001019050610473565b50817f58f3a30ec15a8d3e09fa65f9ef10219bc7a9a99d872a4ed895c37c2e761ac2ac60cd60008581526020019081526020016000206040516105b29190613308565b60405180910390a25050565b6105c66120c0565b6105ce61213e565b565b6105d86120c0565b600073ffffffffffffffffffffffffffffffffffffffff168173ffffffffffffffffffffffffffffffffffffffff1603610647576040517f08c379a000000000000000000000000000000000000000000000000000000000815260040161063e90613387565b60405180910390fd5b60007f7472656173757279000000000000000000000000000000000000000000000000830361074a578173ffffffffffffffffffffffffffffffffffffffff16609860089054906101000a900473ffffffffffffffffffffffffffffffffffffffff1673ffffffffffffffffffffffffffffffffffffffff1603610700576040517f08c379a00000000000000000000000000000000000000000000000000000000081526004016106f790613419565b60405180910390fd5b81609860086101000a81548173ffffffffffffffffffffffffffffffffffffffff021916908373ffffffffffffffffffffffffffffffffffffffff16021790555060019050610848565b7f61676772656761746f72000000000000000000000000000000000000000000008303610847578173ffffffffffffffffffffffffffffffffffffffff16609960009054906101000a900473ffffffffffffffffffffffffffffffffffffffff1673ffffffffffffffffffffffffffffffffffffffff1603610801576040517f08c379a00000000000000000000000000000000000000000000000000000000081526004016107f8906134ab565b60405180910390fd5b81609960006101000a81548173ffffffffffffffffffffffffffffffffffffffff021916908373ffffffffffffffffffffffffffffffffffffffff160217905550600190505b5b8015610893578173ffffffffffffffffffffffffffffffffffffffff16837fbbc5b96e57cfecb3dbeeadf92e87f15e58e64fcd75cbe256dcc5d9ef2e51e8a460405160405180910390a35b505050565b6108a06120c0565b80609860006101000a81548167ffffffffffffffff021916908367ffffffffffffffff1602179055507f1ce29a697a4765bd17d91df93ba75b250b629ecf030553ff1f6ab59f15ae6c7b816040516108f891906134cb565b60405180910390a150565b600060cf60009054906101000a900460ff16905090565b6109226120c0565b61092c60006121a1565b565b6000609960009054906101000a900473ffffffffffffffffffffffffffffffffffffffff1673ffffffffffffffffffffffffffffffffffffffff163373ffffffffffffffffffffffffffffffffffffffff16146109c0576040517f08c379a00000000000000000000000000000000000000000000000000000000081526004016109b790613532565b60405180910390fd5b610101600083815260200190815260200160002060050160009054906101000a900460ff1615610a25576040517f08c379a0000000000000000000000000000000000000000000000000000000008152600401610a1c9061359e565b60405180910390fd5b610101600083815260200190815260200160002060050160019054906101000a900460ff1615610a8a576040517f08c379a0000000000000000000000000000000000000000000000000000000008152600401610a819061360a565b60405180910390fd5b826101016000848152602001908152602001600020600401541015610ae4576040517f08c379a0000000000000000000000000000000000000000000000000000000008152600401610adb90613676565b60405180910390fd5b610101600083815260200190815260200160002060010160009054906101000a900473ffffffffffffffffffffffffffffffffffffffff1673ffffffffffffffffffffffffffffffffffffffff1663a9059cbb609860089054906101000a900473ffffffffffffffffffffffffffffffffffffffff16856040518363ffffffff1660e01b8152600401610b78929190613696565b6020604051808303816000875af1158015610b97573d6000803e3d6000fd5b505050506040513d601f19601f82011682018060405250810190610bbb91906136eb565b506001610101600084815260200190815260200160002060050160016101000a81548160ff0219169083151502179055506000610101600084815260200190815260200160002060060160006101000a8154816bffffffffffffffffffffffff02191690836bffffffffffffffffffffffff160217905550600083610101600085815260200190815260200160002060040154610101600086815260200190815260200160002060070154610c709190613747565b610c7a919061377b565b9050610101600084815260200190815260200160002060010160009054906101000a900473ffffffffffffffffffffffffffffffffffffffff1673ffffffffffffffffffffffffffffffffffffffff1663a9059cbb610101600086815260200190815260200160002060050160029054906101000a900473ffffffffffffffffffffffffffffffffffffffff1661010160008781526020019081526020016000206003015484610d2a9190613747565b6040518363ffffffff1660e01b8152600401610d47929190613696565b6020604051808303816000875af1158015610d66573d6000803e3d6000fd5b505050506040513d601f19601f82011682018060405250810190610d8a91906136eb565b50827f0736fe428e1747ca8d387c2e6fa1a31a0cde62d3a167c40a46ade59a3cdc828e85604051610dbb91906137af565b60405180910390a2600191505092915050565b6000600160cc60008473ffffffffffffffffffffffffffffffffffffffff1673ffffffffffffffffffffffffffffffffffffffff1681526020019081526020016000205403610e205760019050610e25565b600090505b919050565b610e3261270f565b6101016000838152602001908152602001600020604051806101400160405290816000820160009054906101000a900473ffffffffffffffffffffffffffffffffffffffff1673ffffffffffffffffffffffffffffffffffffffff1673ffffffffffffffffffffffffffffffffffffffff1681526020016001820160009054906101000a900473ffffffffffffffffffffffffffffffffffffffff1673ffffffffffffffffffffffffffffffffffffffff1673ffffffffffffffffffffffffffffffffffffffff1681526020016002820160009054906101000a900473ffffffffffffffffffffffffffffffffffffffff1673ffffffffffffffffffffffffffffffffffffffff1673ffffffffffffffffffffffffffffffffffffffff16815260200160038201548152602001600482015481526020016005820160009054906101000a900460ff161515151581526020016005820160019054906101000a900460ff161515151581526020016005820160029054906101000a900473ffffffffffffffffffffffffffffffffffffffff1673ffffffffffffffffffffffffffffffffffffffff1673ffffffffffffffffffffffffffffffffffffffff1681526020016006820160009054906101000a90046bffffffffffffffffffffffff166bffffffffffffffffffffffff166bffffffffffffffffffffffff1681526020016007820154815250509050919050565b600061104d6121d2565b90508073ffffffffffffffffffffffffffffffffffffffff1661106e61198d565b73ffffffffffffffffffffffffffffffffffffffff16146110c4576040517f08c379a00000000000000000000000000000000000000000000000000000000081526004016110bb9061383c565b60405180910390fd5b6110cd816121a1565b50565b60008060019054906101000a900460ff161590508080156111015750600160008054906101000a900460ff1660ff16105b8061112e5750611110306121da565b15801561112d5750600160008054906101000a900460ff1660ff16145b5b61116d576040517f08c379a0000000000000000000000000000000000000000000000000000000008152600401611164906138ce565b60405180910390fd5b60016000806101000a81548160ff021916908360ff16021790555080156111aa576001600060016101000a81548160ff0219169083151502179055505b620186a06097819055506111bc6121fd565b6111c4612256565b801561121d5760008060016101000a81548160ff0219169083151502179055507f7f26b83ff96e1f2b6a682f133852f6798a09c465da95921460cefb384740249860016040516112149190613940565b60405180910390a15b50565b6112286120c0565b6112306122af565b565b6000603360009054906101000a900473ffffffffffffffffffffffffffffffffffffffff16905090565b600080609860009054906101000a900467ffffffffffffffff16609754915091509091565b6112896127cc565b60ce6000838152602001908152602001600020604051806040016040529081600082015481526020016001820154815250509050919050565b6112ca6120c0565b600073ffffffffffffffffffffffffffffffffffffffff168273ffffffffffffffffffffffffffffffffffffffff1603611339576040517f08c379a000000000000000000000000000000000000000000000000000000000815260040161133090613387565b60405180910390fd5b60018114806113485750600281145b611387576040517f08c379a000000000000000000000000000000000000000000000000000000000815260040161137e906139a7565b60405180910390fd5b7f746f6b656e0000000000000000000000000000000000000000000000000000008303611442578060cc60008473ffffffffffffffffffffffffffffffffffffffff1673ffffffffffffffffffffffffffffffffffffffff168152602001908152602001600020819055508173ffffffffffffffffffffffffffffffffffffffff16837fcfa976492af7c14a916cc3a239f4c9c75bbd7f5f0e398beb41d892c7eeccae4c8360405161143991906137af565b60405180910390a35b505050565b6000611451612312565b61145e8a8a86898961235c565b600083839050036114a4576040517f08c379a000000000000000000000000000000000000000000000000000000000815260040161149b90613a13565b60405180910390fd5b8973ffffffffffffffffffffffffffffffffffffffff166323b872dd3330888d6114ce9190613747565b6040518463ffffffff1660e01b81526004016114ec93929190613a33565b6020604051808303816000875af115801561150b573d6000803e3d6000fd5b505050506040513d601f19601f8201168201806040525081019061152f91906136eb565b5061010260003373ffffffffffffffffffffffffffffffffffffffff1673ffffffffffffffffffffffffffffffffffffffff168152602001908152602001600020600081548092919061158190613a6a565b91905055503361010260003373ffffffffffffffffffffffffffffffffffffffff1673ffffffffffffffffffffffffffffffffffffffff168152602001908152602001600020546040516020016115d9929190613696565b6040516020818303038152906040528051906020012090506000609754609860009054906101000a900467ffffffffffffffff1667ffffffffffffffff168b6116229190613ab2565b61162c9190613b23565b90506040518061014001604052803373ffffffffffffffffffffffffffffffffffffffff1681526020018c73ffffffffffffffffffffffffffffffffffffffff1681526020018873ffffffffffffffffffffffffffffffffffffffff1681526020018781526020018281526020016000151581526020016000151581526020018673ffffffffffffffffffffffffffffffffffffffff16815260200160975467ffffffffffffffff166bffffffffffffffffffffffff168152602001828c6116f4919061377b565b815250610101600084815260200190815260200160002060008201518160000160006101000a81548173ffffffffffffffffffffffffffffffffffffffff021916908373ffffffffffffffffffffffffffffffffffffffff16021790555060208201518160010160006101000a81548173ffffffffffffffffffffffffffffffffffffffff021916908373ffffffffffffffffffffffffffffffffffffffff16021790555060408201518160020160006101000a81548173ffffffffffffffffffffffffffffffffffffffff021916908373ffffffffffffffffffffffffffffffffffffffff160217905550606082015181600301556080820151816004015560a08201518160050160006101000a81548160ff02191690831515021790555060c08201518160050160016101000a81548160ff02191690831515021790555060e08201518160050160026101000a81548173ffffffffffffffffffffffffffffffffffffffff021916908373ffffffffffffffffffffffffffffffffffffffff1602179055506101008201518160060160006101000a8154816bffffffffffffffffffffffff02191690836bffffffffffffffffffffffff16021790555061012082015181600701559050506101016000838152602001908152602001600020600701548b73ffffffffffffffffffffffffffffffffffffffff16610101600085815260200190815260200160002060000160009054906101000a900473ffffffffffffffffffffffffffffffffffffffff1673ffffffffffffffffffffffffffffffffffffffff167f3bdd0d86e09a22d7ce596118bd3ca5ec73ea47533a465be37621e913ed2bf33384868d8f8b8b60405161197796959493929190613bc1565b60405180910390a4509998505050505050505050565b6000606560009054906101000a900473ffffffffffffffffffffffffffffffffffffffff16905090565b6000609960009054906101000a900473ffffffffffffffffffffffffffffffffffffffff1673ffffffffffffffffffffffffffffffffffffffff163373ffffffffffffffffffffffffffffffffffffffff1614611a49576040517f08c379a0000000000000000000000000000000000000000000000000000000008152600401611a4090613532565b60405180910390fd5b610101600085815260200190815260200160002060050160009054906101000a900460ff1615611aae576040517f08c379a0000000000000000000000000000000000000000000000000000000008152600401611aa59061359e565b60405180910390fd5b610101600085815260200190815260200160002060050160019054906101000a900460ff1615611b13576040517f08c379a0000000000000000000000000000000000000000000000000000000008152600401611b0a9061360a565b60405180910390fd5b6000610101600086815260200190815260200160002060010160009054906101000a900473ffffffffffffffffffffffffffffffffffffffff1690508267ffffffffffffffff16610101600087815260200190815260200160002060060160008282829054906101000a90046bffffffffffffffffffffffff16611b979190613c1d565b92506101000a8154816bffffffffffffffffffffffff02191690836bffffffffffffffffffffffff1602179055506000610101600087815260200190815260200160002060060160009054906101000a90046bffffffffffffffffffffffff166bffffffffffffffffffffffff1603611ec9576001610101600087815260200190815260200160002060050160006101000a81548160ff021916908315150217905550600061010160008781526020019081526020016000206003015414611df057610101600086815260200190815260200160002060010160009054906101000a900473ffffffffffffffffffffffffffffffffffffffff1673ffffffffffffffffffffffffffffffffffffffff1663a9059cbb610101600088815260200190815260200160002060020160009054906101000a900473ffffffffffffffffffffffffffffffffffffffff166101016000898152602001908152602001600020600301546040518363ffffffff1660e01b8152600401611d19929190613696565b6020604051808303816000875af1158015611d38573d6000803e3d6000fd5b505050506040513d601f19601f82011682018060405250810190611d5c91906136eb565b50610101600086815260200190815260200160002060030154610101600087815260200190815260200160002060020160009054906101000a900473ffffffffffffffffffffffffffffffffffffffff1673ffffffffffffffffffffffffffffffffffffffff167f44f6938ca4a10313aabb76f874cced61e35710a734a126e4afb34461bf8c250160405160405180910390a35b600061010160008781526020019081526020016000206004015414611ec8578073ffffffffffffffffffffffffffffffffffffffff1663a9059cbb609860089054906101000a900473ffffffffffffffffffffffffffffffffffffffff166101016000898152602001908152602001600020600401546040518363ffffffff1660e01b8152600401611e83929190613696565b6020604051808303816000875af1158015611ea2573d6000803e3d6000fd5b505050506040513d601f19601f82011682018060405250810190611ec691906136eb565b505b5b60006097548467ffffffffffffffff16610101600089815260200190815260200160002060070154611efb9190613ab2565b611f059190613b23565b90508061010160008881526020019081526020016000206007016000828254611f2e919061377b565b925050819055508173ffffffffffffffffffffffffffffffffffffffff1663a9059cbb86836040518363ffffffff1660e01b8152600401611f70929190613696565b6020604051808303816000875af1158015611f8f573d6000803e3d6000fd5b505050506040513d601f19601f82011682018060405250810190611fb391906136eb565b508473ffffffffffffffffffffffffffffffffffffffff16867f98ece21e01a01cbe1d1c0dad3b053c8fbd368f99be78be958fcf1d1d13fd249a8987604051611ffd929190613c8e565b60405180910390a3600192505050949350505050565b61201b6120c0565b80606560006101000a81548173ffffffffffffffffffffffffffffffffffffffff021916908373ffffffffffffffffffffffffffffffffffffffff1602179055508073ffffffffffffffffffffffffffffffffffffffff1661207b611232565b73ffffffffffffffffffffffffffffffffffffffff167f38d16b8cac22d99fc7c124b9cd0de2d3fa1faef420bfe791d8c362d765e2270060405160405180910390a350565b6120c86121d2565b73ffffffffffffffffffffffffffffffffffffffff166120e6611232565b73ffffffffffffffffffffffffffffffffffffffff161461213c576040517f08c379a000000000000000000000000000000000000000000000000000000000815260040161213390613d03565b60405180910390fd5b565b61214661250f565b600060cf60006101000a81548160ff0219169083151502179055507f5db9ee0a495bf2e6ff9c91a7834c1ba4fdd244a5e8aa4e537bd38aeae4b073aa61218a6121d2565b6040516121979190612ed2565b60405180910390a1565b606560006101000a81549073ffffffffffffffffffffffffffffffffffffffff02191690556121cf81612558565b50565b600033905090565b6000808273ffffffffffffffffffffffffffffffffffffffff163b119050919050565b600060019054906101000a900460ff1661224c576040517f08c379a000000000000000000000000000000000000000000000000000000000815260040161224390613d95565b60405180910390fd5b61225461261e565b565b600060019054906101000a900460ff166122a5576040517f08c379a000000000000000000000000000000000000000000000000000000000815260040161229c90613d95565b60405180910390fd5b6122ad61267f565b565b6122b7612312565b600160cf60006101000a81548160ff0219169083151502179055507f62e78cea01bee320cd4e420270b5ea74000d11b0c9f74754ebdbfc544b05a2586122fb6121d2565b6040516123089190612ed2565b60405180910390a1565b61231a610903565b1561235a576040517f08c379a000000000000000000000000000000000000000000000000000000000815260040161235190613e01565b60405180910390fd5b565b600160cc60008773ffffffffffffffffffffffffffffffffffffffff1673ffffffffffffffffffffffffffffffffffffffff16815260200190815260200160002054146123de576040517f08c379a00000000000000000000000000000000000000000000000000000000081526004016123d590613e6d565b60405180910390fd5b60008403612421576040517f08c379a000000000000000000000000000000000000000000000000000000000815260040161241890613ed9565b60405180910390fd5b600073ffffffffffffffffffffffffffffffffffffffff168373ffffffffffffffffffffffffffffffffffffffff1603612490576040517f08c379a000000000000000000000000000000000000000000000000000000000815260040161248790613f45565b60405180910390fd5b6000811461250857600073ffffffffffffffffffffffffffffffffffffffff168273ffffffffffffffffffffffffffffffffffffffff1603612507576040517f08c379a00000000000000000000000000000000000000000000000000000000081526004016124fe90613fb1565b60405180910390fd5b5b5050505050565b612517610903565b612556576040517f08c379a000000000000000000000000000000000000000000000000000000000815260040161254d9061401d565b60405180910390fd5b565b6000603360009054906101000a900473ffffffffffffffffffffffffffffffffffffffff16905081603360006101000a81548173ffffffffffffffffffffffffffffffffffffffff021916908373ffffffffffffffffffffffffffffffffffffffff1602179055508173ffffffffffffffffffffffffffffffffffffffff168173ffffffffffffffffffffffffffffffffffffffff167f8be0079c531659141344cd1fd0a4f28419497f9722a3daafe3b4186f6b6457e060405160405180910390a35050565b600060019054906101000a900460ff1661266d576040517f08c379a000000000000000000000000000000000000000000000000000000000815260040161266490613d95565b60405180910390fd5b61267d6126786121d2565b6121a1565b565b600060019054906101000a900460ff166126ce576040517f08c379a00000000000000000000000000000000000000000000000000000000081526004016126c590613d95565b60405180910390fd5b600060cf60006101000a81548160ff021916908315150217905550565b508054600082556002029060005260206000209081019061270c91906127ec565b50565b604051806101400160405280600073ffffffffffffffffffffffffffffffffffffffff168152602001600073ffffffffffffffffffffffffffffffffffffffff168152602001600073ffffffffffffffffffffffffffffffffffffffff1681526020016000815260200160008152602001600015158152602001600015158152602001600073ffffffffffffffffffffffffffffffffffffffff16815260200160006bffffffffffffffffffffffff168152602001600081525090565b604051806040016040528060008019168152602001600080191681525090565b5b8082111561280f576000808201600090556001820160009055506002016127ed565b5090565b6000604051905090565b600080fd5b600080fd5b6000819050919050565b61283a81612827565b811461284557600080fd5b50565b60008135905061285781612831565b92915050565b6000602082840312156128735761287261281d565b5b600061288184828501612848565b91505092915050565b600081519050919050565b600082825260208201905092915050565b6000819050602082019050919050565b6128bf81612827565b82525050565b6040820160008201516128db60008501826128b6565b5060208201516128ee60208501826128b6565b50505050565b600061290083836128c5565b60408301905092915050565b6000602082019050919050565b60006129248261288a565b61292e8185612895565b9350612939836128a6565b8060005b8381101561296a57815161295188826128f4565b975061295c8361290c565b92505060018101905061293d565b5085935050505092915050565b600060208201905081810360008301526129918184612919565b905092915050565b600080fd5b6000601f19601f8301169050919050565b7f4e487b7100000000000000000000000000000000000000000000000000000000600052604160045260246000fd5b6129e78261299e565b810181811067ffffffffffffffff82111715612a0657612a056129af565b5b80604052505050565b6000612a19612813565b9050612a2582826129de565b919050565b600067ffffffffffffffff821115612a4557612a446129af565b5b602082029050602081019050919050565b600080fd5b600080fd5b600060408284031215612a7657612a75612a5b565b5b612a806040612a0f565b90506000612a9084828501612848565b6000830152506020612aa484828501612848565b60208301525092915050565b6000612ac3612abe84612a2a565b612a0f565b90508083825260208201905060408402830185811115612ae657612ae5612a56565b5b835b81811015612b0f5780612afb8882612a60565b845260208401935050604081019050612ae8565b5050509392505050565b600082601f830112612b2e57612b2d612999565b5b8135612b3e848260208601612ab0565b91505092915050565b60008060408385031215612b5e57612b5d61281d565b5b6000612b6c85828601612848565b925050602083013567ffffffffffffffff811115612b8d57612b8c612822565b5b612b9985828601612b19565b9150509250929050565b600073ffffffffffffffffffffffffffffffffffffffff82169050919050565b6000612bce82612ba3565b9050919050565b612bde81612bc3565b8114612be957600080fd5b50565b600081359050612bfb81612bd5565b92915050565b60008060408385031215612c1857612c1761281d565b5b6000612c2685828601612848565b9250506020612c3785828601612bec565b9150509250929050565b600067ffffffffffffffff82169050919050565b612c5e81612c41565b8114612c6957600080fd5b50565b600081359050612c7b81612c55565b92915050565b600060208284031215612c9757612c9661281d565b5b6000612ca584828501612c6c565b91505092915050565b60008115159050919050565b612cc381612cae565b82525050565b6000602082019050612cde6000830184612cba565b92915050565b6000819050919050565b612cf781612ce4565b8114612d0257600080fd5b50565b600081359050612d1481612cee565b92915050565b60008060408385031215612d3157612d3061281d565b5b6000612d3f85828601612d05565b9250506020612d5085828601612848565b9150509250929050565b600060208284031215612d7057612d6f61281d565b5b6000612d7e84828501612bec565b91505092915050565b612d9081612bc3565b82525050565b612d9f81612ce4565b82525050565b612dae81612cae565b82525050565b60006bffffffffffffffffffffffff82169050919050565b612dd581612db4565b82525050565b61014082016000820151612df26000850182612d87565b506020820151612e056020850182612d87565b506040820151612e186040850182612d87565b506060820151612e2b6060850182612d96565b506080820151612e3e6080850182612d96565b5060a0820151612e5160a0850182612da5565b5060c0820151612e6460c0850182612da5565b5060e0820151612e7760e0850182612d87565b50610100820151612e8c610100850182612dcc565b50610120820151612ea1610120850182612d96565b50505050565b600061014082019050612ebd6000830184612ddb565b92915050565b612ecc81612bc3565b82525050565b6000602082019050612ee76000830184612ec3565b92915050565b612ef681612c41565b82525050565b612f0581612ce4565b82525050565b6000604082019050612f206000830185612eed565b612f2d6020830184612efc565b9392505050565b604082016000820151612f4a60008501826128b6565b506020820151612f5d60208501826128b6565b50505050565b6000604082019050612f786000830184612f34565b92915050565b600080600060608486031215612f9757612f9661281d565b5b6000612fa586828701612848565b9350506020612fb686828701612bec565b9250506040612fc786828701612d05565b9150509250925092565b612fda81612db4565b8114612fe557600080fd5b50565b600081359050612ff781612fd1565b92915050565b600080fd5b60008083601f84011261301857613017612999565b5b8235905067ffffffffffffffff81111561303557613034612ffd565b5b60208301915083600182028301111561305157613050612a56565b5b9250929050565b60008060008060008060008060006101008a8c03121561307b5761307a61281d565b5b60006130898c828d01612bec565b995050602061309a8c828d01612d05565b98505060406130ab8c828d01612848565b97505060606130bc8c828d01612fe8565b96505060806130cd8c828d01612bec565b95505060a06130de8c828d01612d05565b94505060c06130ef8c828d01612bec565b93505060e08a013567ffffffffffffffff8111156131105761310f612822565b5b61311c8c828d01613002565b92509250509295985092959850929598565b61313781612827565b82525050565b6000602082019050613152600083018461312e565b92915050565b600080600080608085870312156131725761317161281d565b5b600061318087828801612848565b945050602061319187828801612848565b93505060406131a287828801612bec565b92505060606131b387828801612c6c565b91505092959194509250565b7f4e487b7100000000000000000000000000000000000000000000000000000000600052603260045260246000fd5b600081549050919050565b60008190508160005260206000209050919050565b60008160001c9050919050565b6000819050919050565b60006132386132338361320e565b61321b565b9050919050565b60408201600080830154905061325481613225565b61326160008601826128b6565b506001830154905061327281613225565b61327f60208601826128b6565b5050505050565b6000613292838361323f565b60408301905092915050565b6000600282019050919050565b60006132b6826131ee565b6132c08185612895565b93506132cb836131f9565b8060005b838110156132fb57816132e28882613286565b97506132ed8361329e565b9250506001810190506132cf565b5085935050505092915050565b6000602082019050818103600083015261332281846132ab565b905092915050565b600082825260208201905092915050565b7f476174657761793a207a65726f20616464726573730000000000000000000000600082015250565b600061337160158361332a565b915061337c8261333b565b602082019050919050565b600060208201905081810360008301526133a081613364565b9050919050565b7f476174657761793a207472656173757279206164647265737320616c7265616460008201527f7920736574000000000000000000000000000000000000000000000000000000602082015250565b600061340360258361332a565b915061340e826133a7565b604082019050919050565b60006020820190508181036000830152613432816133f6565b9050919050565b7f476174657761793a2061676772656761746f72206164647265737320616c726560008201527f6164792073657400000000000000000000000000000000000000000000000000602082015250565b600061349560278361332a565b91506134a082613439565b604082019050919050565b600060208201905081810360008301526134c481613488565b9050919050565b60006020820190506134e06000830184612eed565b92915050565b7f4f6e6c7941676772656761746f72000000000000000000000000000000000000600082015250565b600061351c600e8361332a565b9150613527826134e6565b602082019050919050565b6000602082019050818103600083015261354b8161350f565b9050919050565b7f4f7264657246756c66696c6c6564000000000000000000000000000000000000600082015250565b6000613588600e8361332a565b915061359382613552565b602082019050919050565b600060208201905081810360008301526135b78161357b565b9050919050565b7f4f72646572526566756e64656400000000000000000000000000000000000000600082015250565b60006135f4600d8361332a565b91506135ff826135be565b602082019050919050565b60006020820190508181036000830152613623816135e7565b9050919050565b7f4665654578636565647350726f746f636f6c4665650000000000000000000000600082015250565b600061366060158361332a565b915061366b8261362a565b602082019050919050565b6000602082019050818103600083015261368f81613653565b9050919050565b60006040820190506136ab6000830185612ec3565b6136b86020830184612efc565b9392505050565b6136c881612cae565b81146136d357600080fd5b50565b6000815190506136e5816136bf565b92915050565b6000602082840312156137015761370061281d565b5b600061370f848285016136d6565b91505092915050565b7f4e487b7100000000000000000000000000000000000000000000000000000000600052601160045260246000fd5b600061375282612ce4565b915061375d83612ce4565b925082820190508082111561377557613774613718565b5b92915050565b600061378682612ce4565b915061379183612ce4565b92508282039050818111156137a9576137a8613718565b5b92915050565b60006020820190506137c46000830184612efc565b92915050565b7f4f776e61626c6532537465703a2063616c6c6572206973206e6f74207468652060008201527f6e6577206f776e65720000000000000000000000000000000000000000000000602082015250565b600061382660298361332a565b9150613831826137ca565b604082019050919050565b6000602082019050818103600083015261385581613819565b9050919050565b7f496e697469616c697a61626c653a20636f6e747261637420697320616c72656160008201527f647920696e697469616c697a6564000000000000000000000000000000000000602082015250565b60006138b8602e8361332a565b91506138c38261385c565b604082019050919050565b600060208201905081810360008301526138e7816138ab565b9050919050565b6000819050919050565b600060ff82169050919050565b6000819050919050565b600061392a613925613920846138ee565b613905565b6138f8565b9050919050565b61393a8161390f565b82525050565b60006020820190506139556000830184613931565b92915050565b7f476174657761793a20696e76616c696420737461747573000000000000000000600082015250565b600061399160178361332a565b915061399c8261395b565b602082019050919050565b600060208201905081810360008301526139c081613984565b9050919050565b7f496e76616c69644d657373616765486173680000000000000000000000000000600082015250565b60006139fd60128361332a565b9150613a08826139c7565b602082019050919050565b60006020820190508181036000830152613a2c816139f0565b9050919050565b6000606082019050613a486000830186612ec3565b613a556020830185612ec3565b613a626040830184612efc565b949350505050565b6000613a7582612ce4565b91507fffffffffffffffffffffffffffffffffffffffffffffffffffffffffffffffff8203613aa757613aa6613718565b5b600182019050919050565b6000613abd82612ce4565b9150613ac883612ce4565b9250828202613ad681612ce4565b91508282048414831517613aed57613aec613718565b5b5092915050565b7f4e487b7100000000000000000000000000000000000000000000000000000000600052601260045260246000fd5b6000613b2e82612ce4565b9150613b3983612ce4565b925082613b4957613b48613af4565b5b828204905092915050565b6000613b6f613b6a613b6584612db4565b613905565b612ce4565b9050919050565b613b7f81613b54565b82525050565b82818337600083830152505050565b6000613ba0838561332a565b9350613bad838584613b85565b613bb68361299e565b840190509392505050565b600060a082019050613bd66000830189612efc565b613be3602083018861312e565b613bf06040830187613b76565b613bfd606083018661312e565b8181036080830152613c10818486613b94565b9050979650505050505050565b6000613c2882612db4565b9150613c3383612db4565b925082820390506bffffffffffffffffffffffff811115613c5757613c56613718565b5b92915050565b6000613c78613c73613c6e84612c41565b613905565b612db4565b9050919050565b613c8881613c5d565b82525050565b6000604082019050613ca3600083018561312e565b613cb06020830184613c7f565b9392505050565b7f4f776e61626c653a2063616c6c6572206973206e6f7420746865206f776e6572600082015250565b6000613ced60208361332a565b9150613cf882613cb7565b602082019050919050565b60006020820190508181036000830152613d1c81613ce0565b9050919050565b7f496e697469616c697a61626c653a20636f6e7472616374206973206e6f74206960008201527f6e697469616c697a696e67000000000000000000000000000000000000000000602082015250565b6000613d7f602b8361332a565b9150613d8a82613d23565b604082019050919050565b60006020820190508181036000830152613dae81613d72565b9050919050565b7f5061757361626c653a2070617573656400000000000000000000000000000000600082015250565b6000613deb60108361332a565b9150613df682613db5565b602082019050919050565b60006020820190508181036000830152613e1a81613dde565b9050919050565b7f546f6b656e4e6f74537570706f72746564000000000000000000000000000000600082015250565b6000613e5760118361332a565b9150613e6282613e21565b602082019050919050565b60006020820190508181036000830152613e8681613e4a565b9050919050565b7f416d6f756e7449735a65726f0000000000000000000000000000000000000000600082015250565b6000613ec3600c8361332a565b9150613ece82613e8d565b602082019050919050565b60006020820190508181036000830152613ef281613eb6565b9050919050565b7f5468726f775a65726f4164647265737300000000000000000000000000000000600082015250565b6000613f2f60108361332a565b9150613f3a82613ef9565b602082019050919050565b60006020820190508181036000830152613f5e81613f22565b9050919050565b7f496e76616c696453656e646572466565526563697069656e7400000000000000600082015250565b6000613f9b60198361332a565b9150613fa682613f65565b602082019050919050565b60006020820190508181036000830152613fca81613f8e565b9050919050565b7f5061757361626c653a206e6f7420706175736564000000000000000000000000600082015250565b600061400760148361332a565b915061401282613fd1565b602082019050919050565b6000602082019050818103600083015261403681613ffa565b905091905056fea2646970667358221220c467be0a596d20a784e5d953a96c1fae98672bb61c7dd20c3564dac53e2a2ddb64736f6c63430008120033",
  "linkReferences": {},
  "deployedLinkReferences": {}
}