{
  "_format": "hh-sol-artifact-1",
  "contractName": "GatewayV2",
  "sourceName": "contracts/GatewayV2.sol",
  "abi": [
    {
      "inputs": [],
      "stateMutability": "nonpayable",
      "type": "constructor"
    },
    {
      "anonymous": false,
      "inputs": [
        {
          "indexed": false,
          "internalType": "uint8",
          "name": "version",
          "type": "uint8"
        }
      ],
      "name": "Initialized",
      "type": "event"
    },
    {
      "anonymous": false,
      "inputs": [
        {
          "indexed": true,
          "internalType": "address",
          "name": "sender",
          "type": "address"
        },
        {
          "indexed": true,
          "internalType": "address",
          "name": "token",
          "type": "address"
        },
        {
          "indexed": true,
          "internalType": "uint256",
          "name": "amount",
          "type": "uint256"
        },
        {
          "indexed": false,
          "internalType": "uint256",
          "name": "protocolFee",
          "type": "uint256"
        },
        {
          "indexed": false,
          "internalType": "bytes32",
          "name": "orderId",
          "type": "bytes32"
        },
        {
          "indexed": false,
          "internalType": "uint256",
          "name": "rate",
          "type": "uint256"
        },
        {
          "indexed": false,
          "internalType": "bytes32",
          "name": "institutionCode",
          "type": "bytes32"
        },
        {
          "indexed": false,
          "internalType": "string",
          "name": "messageHash",
          "type": "string"
        }
      ],
      "name": "OrderCreated",
      "type": "event"
    },
    {
      "anonymous": false,
      "inputs": [
        {
          "indexed": false,
          "internalType": "uint256",
          "name": "fee",
          "type": "uint256"
        },
        {
          "indexed": true,
          "internalType": "bytes32",
          "name": "orderId",
          "type": "bytes32"
        }
      ],
      "name": "OrderRefunded",
      "type": "event"
    },
    {
      "anonymous": false,
      "inputs": [
        {
          "indexed": false,
          "internalType": "bytes32",
          "name": "splitOrderId",
          "type": "bytes32"
        },
        {
          "indexed": true,
          "internalType": "bytes32",
          "name": "orderId",
          "type": "bytes32"
        },
        {
          "indexed": true,
          "internalType": "address",
          "name": "liquidityProvider",
          "type": "address"
        },
        {
          "indexed": false,
          "internalType": "uint96",
          "name": "settlePercent",
          "type": "uint96"
        }
      ],
      "name": "OrderSettled",
      "type": "event"
    },
    {
      "anonymous": false,
      "inputs": [
        {
          "indexed": true,
          "internalType": "address",
          "name": "previousOwner",
          "type": "address"
        },
        {
          "indexed": true,
          "internalType": "address",
          "name": "newOwner",
          "type": "address"
        }
      ],
      "name": "OwnershipTransferStarted",
      "type": "event"
    },
    {
      "anonymous": false,
      "inputs": [
        {
          "indexed": true,
          "internalType": "address",
          "name": "previousOwner",
          "type": "address"
        },
        {
          "indexed": true,
          "internalType": "address",
          "name": "newOwner",
          "type": "address"
        }
      ],
      "name": "OwnershipTransferred",
      "type": "event"
    },
    {
      "anonymous": false,
      "inputs": [
        {
          "indexed": false,
          "internalType": "address",
          "name": "account",
          "type": "address"
        }
      ],
      "name": "Paused",
      "type": "event"
    },
    {
      "anonymous": false,
      "inputs": [
        {
          "indexed": true,
          "internalType": "bytes32",
          "name": "what",
          "type": "bytes32"
        },
        {
          "indexed": true,
          "internalType": "address",
          "name": "treasuryAddress",
          "type": "address"
        }
      ],
      "name": "ProtocolAddressUpdated",
      "type": "event"
    },
    {
      "anonymous": false,
      "inputs": [
        {
          "indexed": false,
          "internalType": "uint64",
          "name": "protocolFee",
          "type": "uint64"
        }
      ],
      "name": "ProtocolFeeUpdated",
      "type": "event"
    },
    {
      "anonymous": false,
      "inputs": [
        {
          "indexed": true,
          "internalType": "address",
          "name": "sender",
          "type": "address"
        },
        {
          "indexed": true,
          "internalType": "uint256",
          "name": "amount",
          "type": "uint256"
        }
      ],
      "name": "SenderFeeTransferred",
      "type": "event"
    },
    {
      "anonymous": false,
      "inputs": [
        {
          "indexed": true,
          "internalType": "address",
          "name": "treasuryAddress",
          "type": "address"
        }
      ],
      "name": "SetFeeRecipient",
      "type": "event"
    },
    {
      "anonymous": false,
      "inputs": [
        {
          "indexed": true,
          "internalType": "bytes32",
          "name": "what",
          "type": "bytes32"
        },
        {
          "indexed": true,
          "internalType": "address",
          "name": "value",
          "type": "address"
        },
        {
          "indexed": false,
          "internalType": "uint256",
          "name": "status",
          "type": "uint256"
        }
      ],
      "name": "SettingManagerBool",
      "type": "event"
    },
    {
      "anonymous": false,
      "inputs": [
        {
          "indexed": true,
          "internalType": "bytes32",
          "name": "currency",
          "type": "bytes32"
        },
        {
          "components": [
            {
              "internalType": "bytes32",
              "name": "code",
              "type": "bytes32"
            },
            {
              "internalType": "bytes32",
              "name": "name",
              "type": "bytes32"
            }
          ],
          "indexed": false,
          "internalType": "struct SharedStructs.Institution[]",
          "name": "institutions",
          "type": "tuple[]"
        }
      ],
      "name": "SupportedInstitutionsUpdated",
      "type": "event"
    },
    {
      "anonymous": false,
      "inputs": [
        {
          "indexed": false,
          "internalType": "address",
          "name": "account",
          "type": "address"
        }
      ],
      "name": "Unpaused",
      "type": "event"
    },
    {
      "inputs": [],
      "name": "acceptOwnership",
      "outputs": [],
      "stateMutability": "nonpayable",
      "type": "function"
    },
    {
      "inputs": [
        {
          "internalType": "address",
          "name": "_token",
          "type": "address"
        },
        {
          "internalType": "uint256",
          "name": "_amount",
          "type": "uint256"
        },
        {
          "internalType": "bytes32",
          "name": "_institutionCode",
          "type": "bytes32"
        },
        {
          "internalType": "uint96",
          "name": "_rate",
          "type": "uint96"
        },
        {
          "internalType": "address",
          "name": "_senderFeeRecipient",
          "type": "address"
        },
        {
          "internalType": "uint256",
          "name": "_senderFee",
          "type": "uint256"
        },
        {
          "internalType": "address",
          "name": "_refundAddress",
          "type": "address"
        },
        {
          "internalType": "string",
          "name": "messageHash",
          "type": "string"
        }
      ],
      "name": "createOrder",
      "outputs": [
        {
          "internalType": "bytes32",
          "name": "orderId",
          "type": "bytes32"
        }
      ],
      "stateMutability": "nonpayable",
      "type": "function"
    },
    {
      "inputs": [],
      "name": "getFeeDetails",
      "outputs": [
        {
          "internalType": "uint64",
          "name": "",
          "type": "uint64"
        },
        {
          "internalType": "uint256",
          "name": "",
          "type": "uint256"
        }
      ],
      "stateMutability": "view",
      "type": "function"
    },
    {
      "inputs": [
        {
          "internalType": "bytes32",
          "name": "_orderId",
          "type": "bytes32"
        }
      ],
      "name": "getOrderInfo",
      "outputs": [
        {
          "components": [
            {
              "internalType": "address",
              "name": "sender",
              "type": "address"
            },
            {
              "internalType": "address",
              "name": "token",
              "type": "address"
            },
            {
              "internalType": "address",
              "name": "senderFeeRecipient",
              "type": "address"
            },
            {
              "internalType": "uint256",
              "name": "senderFee",
              "type": "uint256"
            },
            {
              "internalType": "uint256",
              "name": "protocolFee",
              "type": "uint256"
            },
            {
              "internalType": "bool",
              "name": "isFulfilled",
              "type": "bool"
            },
            {
              "internalType": "bool",
              "name": "isRefunded",
              "type": "bool"
            },
            {
              "internalType": "address",
              "name": "refundAddress",
              "type": "address"
            },
            {
              "internalType": "uint96",
              "name": "currentBPS",
              "type": "uint96"
            },
            {
              "internalType": "uint256",
              "name": "amount",
              "type": "uint256"
            }
          ],
          "internalType": "struct IGatewayV2.Order",
          "name": "",
          "type": "tuple"
        }
      ],
      "stateMutability": "view",
      "type": "function"
    },
    {
      "inputs": [],
      "name": "initialize",
      "outputs": [],
      "stateMutability": "nonpayable",
      "type": "function"
    },
    {
      "inputs": [
        {
          "internalType": "address",
          "name": "_token",
          "type": "address"
        }
      ],
      "name": "isTokenSupported",
      "outputs": [
        {
          "internalType": "bool",
          "name": "",
          "type": "bool"
        }
      ],
      "stateMutability": "view",
      "type": "function"
    },
    {
      "inputs": [],
      "name": "owner",
      "outputs": [
        {
          "internalType": "address",
          "name": "",
          "type": "address"
        }
      ],
      "stateMutability": "view",
      "type": "function"
    },
    {
      "inputs": [],
      "name": "pause",
      "outputs": [],
      "stateMutability": "nonpayable",
      "type": "function"
    },
    {
      "inputs": [],
      "name": "paused",
      "outputs": [
        {
          "internalType": "bool",
          "name": "",
          "type": "bool"
        }
      ],
      "stateMutability": "view",
      "type": "function"
    },
    {
      "inputs": [],
      "name": "pendingOwner",
      "outputs": [
        {
          "internalType": "address",
          "name": "",
          "type": "address"
        }
      ],
      "stateMutability": "view",
      "type": "function"
    },
    {
      "inputs": [
        {
          "internalType": "uint256",
          "name": "_fee",
          "type": "uint256"
        },
        {
          "internalType": "bytes32",
          "name": "_orderId",
          "type": "bytes32"
        }
      ],
      "name": "refund",
      "outputs": [
        {
          "internalType": "bool",
          "name": "",
          "type": "bool"
        }
      ],
      "stateMutability": "nonpayable",
      "type": "function"
    },
    {
      "inputs": [],
      "name": "renounceOwnership",
      "outputs": [],
      "stateMutability": "nonpayable",
      "type": "function"
    },
    {
      "inputs": [
        {
          "internalType": "bytes32",
          "name": "currency",
          "type": "bytes32"
        },
        {
          "components": [
            {
              "internalType": "bytes32",
              "name": "code",
              "type": "bytes32"
            },
            {
              "internalType": "bytes32",
              "name": "name",
              "type": "bytes32"
            }
          ],
          "internalType": "struct SharedStructs.Institution[]",
          "name": "institutions",
          "type": "tuple[]"
        }
      ],
      "name": "setSupportedInstitutions",
      "outputs": [],
      "stateMutability": "nonpayable",
      "type": "function"
    },
    {
      "inputs": [
        {
          "internalType": "bytes32",
          "name": "what",
          "type": "bytes32"
        },
        {
          "internalType": "address",
          "name": "value",
          "type": "address"
        },
        {
          "internalType": "uint256",
          "name": "status",
          "type": "uint256"
        }
      ],
      "name": "settingManagerBool",
      "outputs": [],
      "stateMutability": "nonpayable",
      "type": "function"
    },
    {
      "inputs": [
        {
          "internalType": "bytes32",
          "name": "_splitOrderId",
          "type": "bytes32"
        },
        {
          "internalType": "bytes32",
          "name": "_orderId",
          "type": "bytes32"
        },
        {
          "internalType": "address",
          "name": "_liquidityProvider",
          "type": "address"
        },
        {
          "internalType": "uint64",
          "name": "_settlePercent",
          "type": "uint64"
        }
      ],
      "name": "settle",
      "outputs": [
        {
          "internalType": "bool",
          "name": "",
          "type": "bool"
        }
      ],
      "stateMutability": "nonpayable",
      "type": "function"
    },
    {
      "inputs": [
        {
          "internalType": "address",
          "name": "newOwner",
          "type": "address"
        }
      ],
      "name": "transferOwnership",
      "outputs": [],
      "stateMutability": "nonpayable",
      "type": "function"
    },
    {
      "inputs": [],
      "name": "unpause",
      "outputs": [],
      "stateMutability": "nonpayable",
      "type": "function"
    },
    {
      "inputs": [
        {
          "internalType": "bytes32",
          "name": "what",
          "type": "bytes32"
        },
        {
          "internalType": "address",
          "name": "value",
          "type": "address"
        }
      ],
      "name": "updateProtocolAddress",
      "outputs": [],
      "stateMutability": "nonpayable",
      "type": "function"
    },
    {
      "inputs": [
        {
          "internalType": "uint64",
          "name": "_protocolFeePercent",
          "type": "uint64"
        }
      ],
      "name": "updateProtocolFee",
      "outputs": [],
      "stateMutability": "nonpayable",
      "type": "function"
    }
  ],
  "bytecode": "0x60806040523480156200001157600080fd5b50620000226200002860201b60201c565b620001d2565b600060019054906101000a900460ff16156200007b576040517f08c379a0000000000000000000000000000000000000000000000000000000008152600401620000729062000175565b60405180910390fd5b60ff801660008054906101000a900460ff1660ff1614620000ec5760ff6000806101000a81548160ff021916908360ff1602179055507f7f26b83ff96e1f2b6a682f133852f6798a09c465da95921460cefb384740249860ff604051620000e39190620001b5565b60405180910390a15b565b600082825260208201905092915050565b7f496e697469616c697a61626c653a20636f6e747261637420697320696e69746960008201527f616c697a696e6700000000000000000000000000000000000000000000000000602082015250565b60006200015d602783620000ee565b91506200016a82620000ff565b604082019050919050565b6000602082019050818103600083015262000190816200014e565b9050919050565b600060ff82169050919050565b620001af8162000197565b82525050565b6000602082019050620001cc6000830184620001a4565b92915050565b613e9280620001e26000396000f3fe608060405234801561001057600080fd5b50600436106101215760003560e01c806379ba5097116100ad578063cd99240011610071578063cd99240014610297578063d12ff20a146102b3578063e30c3978146102e3578063f22ee70414610301578063f2fde38b1461033157610121565b806379ba50971461023c5780638129fc1c146102465780638456cb59146102505780638da5cb5b1461025a578063b810c6361461027857610121565b80635c975abb116100f45780635c975abb14610184578063715018a6146101a257806371eedb88146101ac57806375151b63146101dc578063768c6ec01461020c57610121565b806332200882146101265780633f4ba83a1461014257806340ebc6771461014c57806347094e2e14610168575b600080fd5b610140600480360381019061013b91906128f7565b61034d565b005b61014a6104c2565b005b610166600480360381019061016191906129b1565b6104d4565b005b610182600480360381019061017d9190612a31565b61079c565b005b61018c610807565b6040516101999190612a79565b60405180910390f35b6101aa61081e565b005b6101c660048036038101906101c19190612aca565b610832565b6040516101d39190612a79565b60405180910390f35b6101f660048036038101906101f19190612b0a565b610cd2565b6040516102039190612a79565b60405180910390f35b61022660048036038101906102219190612b37565b610d2e565b6040516102339190612c84565b60405180910390f35b610244610f47565b005b61024e610fd4565b005b610258611124565b005b610262611136565b60405161026f9190612caf565b60405180910390f35b610280611160565b60405161028e929190612ce8565b60405180910390f35b6102b160048036038101906102ac9190612d11565b611185565b005b6102cd60048036038101906102c89190612deb565b61130a565b6040516102da9190612ed0565b60405180910390f35b6102eb611851565b6040516102f89190612caf565b60405180910390f35b61031b60048036038101906103169190612eeb565b61187b565b6040516103289190612a79565b60405180910390f35b61034b60048036038101906103469190612b0a565b611ed7565b005b610355611f84565b60cd6000838152602001908152602001600020600061037491906125f7565b60005b81518110156104735760cd60008481526020019081526020016000208282815181106103a6576103a5612f52565b5b6020026020010151908060018154018082558091505060019003906000526020600020906002020160009091909190915060008201518160000155602082015181600101555050604051806040016040528083838151811061040b5761040a612f52565b5b60200260200101516020015181526020018481525060ce600084848151811061043757610436612f52565b5b60200260200101516000015181526020019081526020016000206000820151816000015560208201518160010155905050806001019050610377565b50817f58f3a30ec15a8d3e09fa65f9ef10219bc7a9a99d872a4ed895c37c2e761ac2ac60cd60008581526020019081526020016000206040516104b691906130bb565b60405180910390a25050565b6104ca611f84565b6104d2612002565b565b6104dc611f84565b600073ffffffffffffffffffffffffffffffffffffffff168173ffffffffffffffffffffffffffffffffffffffff160361054b576040517f08c379a00000000000000000000000000000000000000000000000000000000081526004016105429061313a565b60405180910390fd5b60007f7472656173757279000000000000000000000000000000000000000000000000830361064e578173ffffffffffffffffffffffffffffffffffffffff16609860089054906101000a900473ffffffffffffffffffffffffffffffffffffffff1673ffffffffffffffffffffffffffffffffffffffff1603610604576040517f08c379a00000000000000000000000000000000000000000000000000000000081526004016105fb906131cc565b60405180910390fd5b81609860086101000a81548173ffffffffffffffffffffffffffffffffffffffff021916908373ffffffffffffffffffffffffffffffffffffffff1602179055506001905061074c565b7f61676772656761746f7200000000000000000000000000000000000000000000830361074b578173ffffffffffffffffffffffffffffffffffffffff16609960009054906101000a900473ffffffffffffffffffffffffffffffffffffffff1673ffffffffffffffffffffffffffffffffffffffff1603610705576040517f08c379a00000000000000000000000000000000000000000000000000000000081526004016106fc9061325e565b60405180910390fd5b81609960006101000a81548173ffffffffffffffffffffffffffffffffffffffff021916908373ffffffffffffffffffffffffffffffffffffffff160217905550600190505b5b8015610797578173ffffffffffffffffffffffffffffffffffffffff16837fbbc5b96e57cfecb3dbeeadf92e87f15e58e64fcd75cbe256dcc5d9ef2e51e8a460405160405180910390a35b505050565b6107a4611f84565b80609860006101000a81548167ffffffffffffffff021916908367ffffffffffffffff1602179055507f1ce29a697a4765bd17d91df93ba75b250b629ecf030553ff1f6ab59f15ae6c7b816040516107fc919061327e565b60405180910390a150565b600060cf60009054906101000a900460ff16905090565b610826611f84565b6108306000612065565b565b6000609960009054906101000a900473ffffffffffffffffffffffffffffffffffffffff1673ffffffffffffffffffffffffffffffffffffffff163373ffffffffffffffffffffffffffffffffffffffff16146108c4576040517f08c379a00000000000000000000000000000000000000000000000000000000081526004016108bb906132e5565b60405180910390fd5b610101600083815260200190815260200160002060050160009054906101000a900460ff1615610929576040517f08c379a000000000000000000000000000000000000000000000000000000000815260040161092090613351565b60405180910390fd5b610101600083815260200190815260200160002060050160019054906101000a900460ff161561098e576040517f08c379a0000000000000000000000000000000000000000000000000000000008152600401610985906133bd565b60405180910390fd5b8261010160008481526020019081526020016000206004015410156109e8576040517f08c379a00000000000000000000000000000000000000000000000000000000081526004016109df90613429565b60405180910390fd5b610101600083815260200190815260200160002060010160009054906101000a900473ffffffffffffffffffffffffffffffffffffffff1673ffffffffffffffffffffffffffffffffffffffff1663a9059cbb609860089054906101000a900473ffffffffffffffffffffffffffffffffffffffff16856040518363ffffffff1660e01b8152600401610a7c929190613449565b6020604051808303816000875af1158015610a9b573d6000803e3d6000fd5b505050506040513d601f19601f82011682018060405250810190610abf919061349e565b506001610101600084815260200190815260200160002060050160016101000a81548160ff0219169083151502179055506000610101600084815260200190815260200160002060060160006101000a8154816bffffffffffffffffffffffff02191690836bffffffffffffffffffffffff160217905550600083610101600085815260200190815260200160002060040154610101600086815260200190815260200160002060070154610b7491906134fa565b610b7e919061352e565b9050610101600084815260200190815260200160002060010160009054906101000a900473ffffffffffffffffffffffffffffffffffffffff1673ffffffffffffffffffffffffffffffffffffffff1663a9059cbb610101600086815260200190815260200160002060050160029054906101000a900473ffffffffffffffffffffffffffffffffffffffff1661010160008781526020019081526020016000206003015484610c2e91906134fa565b6040518363ffffffff1660e01b8152600401610c4b929190613449565b6020604051808303816000875af1158015610c6a573d6000803e3d6000fd5b505050506040513d601f19601f82011682018060405250810190610c8e919061349e565b50827f0736fe428e1747ca8d387c2e6fa1a31a0cde62d3a167c40a46ade59a3cdc828e85604051610cbf9190613562565b60405180910390a2600191505092915050565b6000600160cc60008473ffffffffffffffffffffffffffffffffffffffff1673ffffffffffffffffffffffffffffffffffffffff1681526020019081526020016000205403610d245760019050610d29565b600090505b919050565b610d3661261b565b6101016000838152602001908152602001600020604051806101400160405290816000820160009054906101000a900473ffffffffffffffffffffffffffffffffffffffff1673ffffffffffffffffffffffffffffffffffffffff1673ffffffffffffffffffffffffffffffffffffffff1681526020016001820160009054906101000a900473ffffffffffffffffffffffffffffffffffffffff1673ffffffffffffffffffffffffffffffffffffffff1673ffffffffffffffffffffffffffffffffffffffff1681526020016002820160009054906101000a900473ffffffffffffffffffffffffffffffffffffffff1673ffffffffffffffffffffffffffffffffffffffff1673ffffffffffffffffffffffffffffffffffffffff16815260200160038201548152602001600482015481526020016005820160009054906101000a900460ff161515151581526020016005820160019054906101000a900460ff161515151581526020016005820160029054906101000a900473ffffffffffffffffffffffffffffffffffffffff1673ffffffffffffffffffffffffffffffffffffffff1673ffffffffffffffffffffffffffffffffffffffff1681526020016006820160009054906101000a90046bffffffffffffffffffffffff166bffffffffffffffffffffffff166bffffffffffffffffffffffff1681526020016007820154815250509050919050565b6000610f51612096565b90508073ffffffffffffffffffffffffffffffffffffffff16610f72611851565b73ffffffffffffffffffffffffffffffffffffffff1614610fc8576040517f08c379a0000000000000000000000000000000000000000000000000000000008152600401610fbf906135ef565b60405180910390fd5b610fd181612065565b50565b60008060019054906101000a900460ff161590508080156110055750600160008054906101000a900460ff1660ff16105b8061103257506110143061209e565b1580156110315750600160008054906101000a900460ff1660ff16145b5b611071576040517f08c379a000000000000000000000000000000000000000000000000000000000815260040161106890613681565b60405180910390fd5b60016000806101000a81548160ff021916908360ff16021790555080156110ae576001600060016101000a81548160ff0219169083151502179055505b620186a06097819055506110c06120c1565b6110c861211a565b80156111215760008060016101000a81548160ff0219169083151502179055507f7f26b83ff96e1f2b6a682f133852f6798a09c465da95921460cefb3847402498600160405161111891906136f3565b60405180910390a15b50565b61112c611f84565b611134612173565b565b6000603360009054906101000a900473ffffffffffffffffffffffffffffffffffffffff16905090565b600080609860009054906101000a900467ffffffffffffffff16609754915091509091565b61118d611f84565b600073ffffffffffffffffffffffffffffffffffffffff168273ffffffffffffffffffffffffffffffffffffffff16036111fc576040517f08c379a00000000000000000000000000000000000000000000000000000000081526004016111f39061313a565b60405180910390fd5b600181148061120b5750600281145b61124a576040517f08c379a00000000000000000000000000000000000000000000000000000000081526004016112419061375a565b60405180910390fd5b7f746f6b656e0000000000000000000000000000000000000000000000000000008303611305578060cc60008473ffffffffffffffffffffffffffffffffffffffff1673ffffffffffffffffffffffffffffffffffffffff168152602001908152602001600020819055508173ffffffffffffffffffffffffffffffffffffffff16837fcfa976492af7c14a916cc3a239f4c9c75bbd7f5f0e398beb41d892c7eeccae4c836040516112fc9190613562565b60405180910390a35b505050565b60006113146121d6565b6113228a8a8689898d612220565b60008383905003611368576040517f08c379a000000000000000000000000000000000000000000000000000000000815260040161135f906137c6565b60405180910390fd5b8973ffffffffffffffffffffffffffffffffffffffff166323b872dd3330888d61139291906134fa565b6040518463ffffffff1660e01b81526004016113b0939291906137e6565b6020604051808303816000875af11580156113cf573d6000803e3d6000fd5b505050506040513d601f19601f820116820180604052508101906113f3919061349e565b5061010260003373ffffffffffffffffffffffffffffffffffffffff1673ffffffffffffffffffffffffffffffffffffffff16815260200190815260200160002060008154809291906114459061381d565b91905055503361010260003373ffffffffffffffffffffffffffffffffffffffff1673ffffffffffffffffffffffffffffffffffffffff1681526020019081526020016000205460405160200161149d929190613449565b6040516020818303038152906040528051906020012090506000609754609860009054906101000a900467ffffffffffffffff1667ffffffffffffffff168b6114e69190613865565b6114f091906138d6565b90506040518061014001604052803373ffffffffffffffffffffffffffffffffffffffff1681526020018c73ffffffffffffffffffffffffffffffffffffffff1681526020018873ffffffffffffffffffffffffffffffffffffffff1681526020018781526020018281526020016000151581526020016000151581526020018673ffffffffffffffffffffffffffffffffffffffff16815260200160975467ffffffffffffffff166bffffffffffffffffffffffff168152602001828c6115b8919061352e565b815250610101600084815260200190815260200160002060008201518160000160006101000a81548173ffffffffffffffffffffffffffffffffffffffff021916908373ffffffffffffffffffffffffffffffffffffffff16021790555060208201518160010160006101000a81548173ffffffffffffffffffffffffffffffffffffffff021916908373ffffffffffffffffffffffffffffffffffffffff16021790555060408201518160020160006101000a81548173ffffffffffffffffffffffffffffffffffffffff021916908373ffffffffffffffffffffffffffffffffffffffff160217905550606082015181600301556080820151816004015560a08201518160050160006101000a81548160ff02191690831515021790555060c08201518160050160016101000a81548160ff02191690831515021790555060e08201518160050160026101000a81548173ffffffffffffffffffffffffffffffffffffffff021916908373ffffffffffffffffffffffffffffffffffffffff1602179055506101008201518160060160006101000a8154816bffffffffffffffffffffffff02191690836bffffffffffffffffffffffff16021790555061012082015181600701559050506101016000838152602001908152602001600020600701548b73ffffffffffffffffffffffffffffffffffffffff16610101600085815260200190815260200160002060000160009054906101000a900473ffffffffffffffffffffffffffffffffffffffff1673ffffffffffffffffffffffffffffffffffffffff167f3bdd0d86e09a22d7ce596118bd3ca5ec73ea47533a465be37621e913ed2bf33384868d8f8b8b60405161183b96959493929190613974565b60405180910390a4509998505050505050505050565b6000606560009054906101000a900473ffffffffffffffffffffffffffffffffffffffff16905090565b6000609960009054906101000a900473ffffffffffffffffffffffffffffffffffffffff1673ffffffffffffffffffffffffffffffffffffffff163373ffffffffffffffffffffffffffffffffffffffff161461190d576040517f08c379a0000000000000000000000000000000000000000000000000000000008152600401611904906132e5565b60405180910390fd5b610101600085815260200190815260200160002060050160009054906101000a900460ff1615611972576040517f08c379a000000000000000000000000000000000000000000000000000000000815260040161196990613351565b60405180910390fd5b610101600085815260200190815260200160002060050160019054906101000a900460ff16156119d7576040517f08c379a00000000000000000000000000000000000000000000000000000000081526004016119ce906133bd565b60405180910390fd5b6000610101600086815260200190815260200160002060010160009054906101000a900473ffffffffffffffffffffffffffffffffffffffff1690508267ffffffffffffffff16610101600087815260200190815260200160002060060160008282829054906101000a90046bffffffffffffffffffffffff16611a5b91906139d0565b92506101000a8154816bffffffffffffffffffffffff02191690836bffffffffffffffffffffffff1602179055506000610101600087815260200190815260200160002060060160009054906101000a90046bffffffffffffffffffffffff166bffffffffffffffffffffffff1603611d8d576001610101600087815260200190815260200160002060050160006101000a81548160ff021916908315150217905550600061010160008781526020019081526020016000206003015414611cb457610101600086815260200190815260200160002060010160009054906101000a900473ffffffffffffffffffffffffffffffffffffffff1673ffffffffffffffffffffffffffffffffffffffff1663a9059cbb610101600088815260200190815260200160002060020160009054906101000a900473ffffffffffffffffffffffffffffffffffffffff166101016000898152602001908152602001600020600301546040518363ffffffff1660e01b8152600401611bdd929190613449565b6020604051808303816000875af1158015611bfc573d6000803e3d6000fd5b505050506040513d601f19601f82011682018060405250810190611c20919061349e565b50610101600086815260200190815260200160002060030154610101600087815260200190815260200160002060020160009054906101000a900473ffffffffffffffffffffffffffffffffffffffff1673ffffffffffffffffffffffffffffffffffffffff167f44f6938ca4a10313aabb76f874cced61e35710a734a126e4afb34461bf8c250160405160405180910390a35b600061010160008781526020019081526020016000206004015414611d8c578073ffffffffffffffffffffffffffffffffffffffff1663a9059cbb609860089054906101000a900473ffffffffffffffffffffffffffffffffffffffff166101016000898152602001908152602001600020600401546040518363ffffffff1660e01b8152600401611d47929190613449565b6020604051808303816000875af1158015611d66573d6000803e3d6000fd5b505050506040513d601f19601f82011682018060405250810190611d8a919061349e565b505b5b60006097548467ffffffffffffffff16610101600089815260200190815260200160002060070154611dbf9190613865565b611dc991906138d6565b90508061010160008881526020019081526020016000206007016000828254611df2919061352e565b925050819055508173ffffffffffffffffffffffffffffffffffffffff1663a9059cbb86836040518363ffffffff1660e01b8152600401611e34929190613449565b6020604051808303816000875af1158015611e53573d6000803e3d6000fd5b505050506040513d601f19601f82011682018060405250810190611e77919061349e565b508473ffffffffffffffffffffffffffffffffffffffff16867f98ece21e01a01cbe1d1c0dad3b053c8fbd368f99be78be958fcf1d1d13fd249a8987604051611ec1929190613a41565b60405180910390a3600192505050949350505050565b611edf611f84565b80606560006101000a81548173ffffffffffffffffffffffffffffffffffffffff021916908373ffffffffffffffffffffffffffffffffffffffff1602179055508073ffffffffffffffffffffffffffffffffffffffff16611f3f611136565b73ffffffffffffffffffffffffffffffffffffffff167f38d16b8cac22d99fc7c124b9cd0de2d3fa1faef420bfe791d8c362d765e2270060405160405180910390a350565b611f8c612096565b73ffffffffffffffffffffffffffffffffffffffff16611faa611136565b73ffffffffffffffffffffffffffffffffffffffff1614612000576040517f08c379a0000000000000000000000000000000000000000000000000000000008152600401611ff790613ab6565b60405180910390fd5b565b61200a61241b565b600060cf60006101000a81548160ff0219169083151502179055507f5db9ee0a495bf2e6ff9c91a7834c1ba4fdd244a5e8aa4e537bd38aeae4b073aa61204e612096565b60405161205b9190612caf565b60405180910390a1565b606560006101000a81549073ffffffffffffffffffffffffffffffffffffffff021916905561209381612464565b50565b600033905090565b6000808273ffffffffffffffffffffffffffffffffffffffff163b119050919050565b600060019054906101000a900460ff16612110576040517f08c379a000000000000000000000000000000000000000000000000000000000815260040161210790613b48565b60405180910390fd5b61211861252a565b565b600060019054906101000a900460ff16612169576040517f08c379a000000000000000000000000000000000000000000000000000000000815260040161216090613b48565b60405180910390fd5b61217161258b565b565b61217b6121d6565b600160cf60006101000a81548160ff0219169083151502179055507f62e78cea01bee320cd4e420270b5ea74000d11b0c9f74754ebdbfc544b05a2586121bf612096565b6040516121cc9190612caf565b60405180910390a1565b6121de610807565b1561221e576040517f08c379a000000000000000000000000000000000000000000000000000000000815260040161221590613bb4565b60405180910390fd5b565b600160cc60008873ffffffffffffffffffffffffffffffffffffffff1673ffffffffffffffffffffffffffffffffffffffff16815260200190815260200160002054146122a2576040517f08c379a000000000000000000000000000000000000000000000000000000000815260040161229990613c20565b60405180910390fd5b600085036122e5576040517f08c379a00000000000000000000000000000000000000000000000000000000081526004016122dc90613c8c565b60405180910390fd5b600073ffffffffffffffffffffffffffffffffffffffff168473ffffffffffffffffffffffffffffffffffffffff1603612354576040517f08c379a000000000000000000000000000000000000000000000000000000000815260040161234b90613cf8565b60405180910390fd5b6000602060ff161161239b576040517f08c379a000000000000000000000000000000000000000000000000000000000815260040161239290613d64565b60405180910390fd5b6000821461241357600073ffffffffffffffffffffffffffffffffffffffff168373ffffffffffffffffffffffffffffffffffffffff1603612412576040517f08c379a000000000000000000000000000000000000000000000000000000000815260040161240990613dd0565b60405180910390fd5b5b505050505050565b612423610807565b612462576040517f08c379a000000000000000000000000000000000000000000000000000000000815260040161245990613e3c565b60405180910390fd5b565b6000603360009054906101000a900473ffffffffffffffffffffffffffffffffffffffff16905081603360006101000a81548173ffffffffffffffffffffffffffffffffffffffff021916908373ffffffffffffffffffffffffffffffffffffffff1602179055508173ffffffffffffffffffffffffffffffffffffffff168173ffffffffffffffffffffffffffffffffffffffff167f8be0079c531659141344cd1fd0a4f28419497f9722a3daafe3b4186f6b6457e060405160405180910390a35050565b600060019054906101000a900460ff16612579576040517f08c379a000000000000000000000000000000000000000000000000000000000815260040161257090613b48565b60405180910390fd5b612589612584612096565b612065565b565b600060019054906101000a900460ff166125da576040517f08c379a00000000000000000000000000000000000000000000000000000000081526004016125d190613b48565b60405180910390fd5b600060cf60006101000a81548160ff021916908315150217905550565b508054600082556002029060005260206000209081019061261891906126d8565b50565b604051806101400160405280600073ffffffffffffffffffffffffffffffffffffffff168152602001600073ffffffffffffffffffffffffffffffffffffffff168152602001600073ffffffffffffffffffffffffffffffffffffffff1681526020016000815260200160008152602001600015158152602001600015158152602001600073ffffffffffffffffffffffffffffffffffffffff16815260200160006bffffffffffffffffffffffff168152602001600081525090565b5b808211156126fb576000808201600090556001820160009055506002016126d9565b5090565b6000604051905090565b600080fd5b600080fd5b6000819050919050565b61272681612713565b811461273157600080fd5b50565b6000813590506127438161271d565b92915050565b600080fd5b6000601f19601f8301169050919050565b7f4e487b7100000000000000000000000000000000000000000000000000000000600052604160045260246000fd5b6127978261274e565b810181811067ffffffffffffffff821117156127b6576127b561275f565b5b80604052505050565b60006127c96126ff565b90506127d5828261278e565b919050565b600067ffffffffffffffff8211156127f5576127f461275f565b5b602082029050602081019050919050565b600080fd5b600080fd5b6000604082840312156128265761282561280b565b5b61283060406127bf565b9050600061284084828501612734565b600083015250602061285484828501612734565b60208301525092915050565b600061287361286e846127da565b6127bf565b9050808382526020820190506040840283018581111561289657612895612806565b5b835b818110156128bf57806128ab8882612810565b845260208401935050604081019050612898565b5050509392505050565b600082601f8301126128de576128dd612749565b5b81356128ee848260208601612860565b91505092915050565b6000806040838503121561290e5761290d612709565b5b600061291c85828601612734565b925050602083013567ffffffffffffffff81111561293d5761293c61270e565b5b612949858286016128c9565b9150509250929050565b600073ffffffffffffffffffffffffffffffffffffffff82169050919050565b600061297e82612953565b9050919050565b61298e81612973565b811461299957600080fd5b50565b6000813590506129ab81612985565b92915050565b600080604083850312156129c8576129c7612709565b5b60006129d685828601612734565b92505060206129e78582860161299c565b9150509250929050565b600067ffffffffffffffff82169050919050565b612a0e816129f1565b8114612a1957600080fd5b50565b600081359050612a2b81612a05565b92915050565b600060208284031215612a4757612a46612709565b5b6000612a5584828501612a1c565b91505092915050565b60008115159050919050565b612a7381612a5e565b82525050565b6000602082019050612a8e6000830184612a6a565b92915050565b6000819050919050565b612aa781612a94565b8114612ab257600080fd5b50565b600081359050612ac481612a9e565b92915050565b60008060408385031215612ae157612ae0612709565b5b6000612aef85828601612ab5565b9250506020612b0085828601612734565b9150509250929050565b600060208284031215612b2057612b1f612709565b5b6000612b2e8482850161299c565b91505092915050565b600060208284031215612b4d57612b4c612709565b5b6000612b5b84828501612734565b91505092915050565b612b6d81612973565b82525050565b612b7c81612a94565b82525050565b612b8b81612a5e565b82525050565b60006bffffffffffffffffffffffff82169050919050565b612bb281612b91565b82525050565b61014082016000820151612bcf6000850182612b64565b506020820151612be26020850182612b64565b506040820151612bf56040850182612b64565b506060820151612c086060850182612b73565b506080820151612c1b6080850182612b73565b5060a0820151612c2e60a0850182612b82565b5060c0820151612c4160c0850182612b82565b5060e0820151612c5460e0850182612b64565b50610100820151612c69610100850182612ba9565b50610120820151612c7e610120850182612b73565b50505050565b600061014082019050612c9a6000830184612bb8565b92915050565b612ca981612973565b82525050565b6000602082019050612cc46000830184612ca0565b92915050565b612cd3816129f1565b82525050565b612ce281612a94565b82525050565b6000604082019050612cfd6000830185612cca565b612d0a6020830184612cd9565b9392505050565b600080600060608486031215612d2a57612d29612709565b5b6000612d3886828701612734565b9350506020612d498682870161299c565b9250506040612d5a86828701612ab5565b9150509250925092565b612d6d81612b91565b8114612d7857600080fd5b50565b600081359050612d8a81612d64565b92915050565b600080fd5b60008083601f840112612dab57612daa612749565b5b8235905067ffffffffffffffff811115612dc857612dc7612d90565b5b602083019150836001820283011115612de457612de3612806565b5b9250929050565b60008060008060008060008060006101008a8c031215612e0e57612e0d612709565b5b6000612e1c8c828d0161299c565b9950506020612e2d8c828d01612ab5565b9850506040612e3e8c828d01612734565b9750506060612e4f8c828d01612d7b565b9650506080612e608c828d0161299c565b95505060a0612e718c828d01612ab5565b94505060c0612e828c828d0161299c565b93505060e08a013567ffffffffffffffff811115612ea357612ea261270e565b5b612eaf8c828d01612d95565b92509250509295985092959850929598565b612eca81612713565b82525050565b6000602082019050612ee56000830184612ec1565b92915050565b60008060008060808587031215612f0557612f04612709565b5b6000612f1387828801612734565b9450506020612f2487828801612734565b9350506040612f358782880161299c565b9250506060612f4687828801612a1c565b91505092959194509250565b7f4e487b7100000000000000000000000000000000000000000000000000000000600052603260045260246000fd5b600081549050919050565b600082825260208201905092915050565b60008190508160005260206000209050919050565b60008160001c9050919050565b6000819050919050565b6000612fdc612fd783612fb2565b612fbf565b9050919050565b612fec81612713565b82525050565b60408201600080830154905061300781612fc9565b6130146000860182612fe3565b506001830154905061302581612fc9565b6130326020860182612fe3565b5050505050565b60006130458383612ff2565b60408301905092915050565b6000600282019050919050565b600061306982612f81565b6130738185612f8c565b935061307e83612f9d565b8060005b838110156130ae57816130958882613039565b97506130a083613051565b925050600181019050613082565b5085935050505092915050565b600060208201905081810360008301526130d5818461305e565b905092915050565b600082825260208201905092915050565b7f476174657761793a207a65726f20616464726573730000000000000000000000600082015250565b60006131246015836130dd565b915061312f826130ee565b602082019050919050565b6000602082019050818103600083015261315381613117565b9050919050565b7f476174657761793a207472656173757279206164647265737320616c7265616460008201527f7920736574000000000000000000000000000000000000000000000000000000602082015250565b60006131b66025836130dd565b91506131c18261315a565b604082019050919050565b600060208201905081810360008301526131e5816131a9565b9050919050565b7f476174657761793a2061676772656761746f72206164647265737320616c726560008201527f6164792073657400000000000000000000000000000000000000000000000000602082015250565b60006132486027836130dd565b9150613253826131ec565b604082019050919050565b600060208201905081810360008301526132778161323b565b9050919050565b60006020820190506132936000830184612cca565b92915050565b7f4f6e6c7941676772656761746f72000000000000000000000000000000000000600082015250565b60006132cf600e836130dd565b91506132da82613299565b602082019050919050565b600060208201905081810360008301526132fe816132c2565b9050919050565b7f4f7264657246756c66696c6c6564000000000000000000000000000000000000600082015250565b600061333b600e836130dd565b915061334682613305565b602082019050919050565b6000602082019050818103600083015261336a8161332e565b9050919050565b7f4f72646572526566756e64656400000000000000000000000000000000000000600082015250565b60006133a7600d836130dd565b91506133b282613371565b602082019050919050565b600060208201905081810360008301526133d68161339a565b9050919050565b7f4665654578636565647350726f746f636f6c4665650000000000000000000000600082015250565b60006134136015836130dd565b915061341e826133dd565b602082019050919050565b6000602082019050818103600083015261344281613406565b9050919050565b600060408201905061345e6000830185612ca0565b61346b6020830184612cd9565b9392505050565b61347b81612a5e565b811461348657600080fd5b50565b60008151905061349881613472565b92915050565b6000602082840312156134b4576134b3612709565b5b60006134c284828501613489565b91505092915050565b7f4e487b7100000000000000000000000000000000000000000000000000000000600052601160045260246000fd5b600061350582612a94565b915061351083612a94565b9250828201905080821115613528576135276134cb565b5b92915050565b600061353982612a94565b915061354483612a94565b925082820390508181111561355c5761355b6134cb565b5b92915050565b60006020820190506135776000830184612cd9565b92915050565b7f4f776e61626c6532537465703a2063616c6c6572206973206e6f74207468652060008201527f6e6577206f776e65720000000000000000000000000000000000000000000000602082015250565b60006135d96029836130dd565b91506135e48261357d565b604082019050919050565b60006020820190508181036000830152613608816135cc565b9050919050565b7f496e697469616c697a61626c653a20636f6e747261637420697320616c72656160008201527f647920696e697469616c697a6564000000000000000000000000000000000000602082015250565b600061366b602e836130dd565b91506136768261360f565b604082019050919050565b6000602082019050818103600083015261369a8161365e565b9050919050565b6000819050919050565b600060ff82169050919050565b6000819050919050565b60006136dd6136d86136d3846136a1565b6136b8565b6136ab565b9050919050565b6136ed816136c2565b82525050565b600060208201905061370860008301846136e4565b92915050565b7f476174657761793a20696e76616c696420737461747573000000000000000000600082015250565b60006137446017836130dd565b915061374f8261370e565b602082019050919050565b6000602082019050818103600083015261377381613737565b9050919050565b7f496e76616c69644d657373616765486173680000000000000000000000000000600082015250565b60006137b06012836130dd565b91506137bb8261377a565b602082019050919050565b600060208201905081810360008301526137df816137a3565b9050919050565b60006060820190506137fb6000830186612ca0565b6138086020830185612ca0565b6138156040830184612cd9565b949350505050565b600061382882612a94565b91507fffffffffffffffffffffffffffffffffffffffffffffffffffffffffffffffff820361385a576138596134cb565b5b600182019050919050565b600061387082612a94565b915061387b83612a94565b925082820261388981612a94565b915082820484148315176138a05761389f6134cb565b5b5092915050565b7f4e487b7100000000000000000000000000000000000000000000000000000000600052601260045260246000fd5b60006138e182612a94565b91506138ec83612a94565b9250826138fc576138fb6138a7565b5b828204905092915050565b600061392261391d61391884612b91565b6136b8565b612a94565b9050919050565b61393281613907565b82525050565b82818337600083830152505050565b600061395383856130dd565b9350613960838584613938565b6139698361274e565b840190509392505050565b600060a0820190506139896000830189612cd9565b6139966020830188612ec1565b6139a36040830187613929565b6139b06060830186612ec1565b81810360808301526139c3818486613947565b9050979650505050505050565b60006139db82612b91565b91506139e683612b91565b925082820390506bffffffffffffffffffffffff811115613a0a57613a096134cb565b5b92915050565b6000613a2b613a26613a21846129f1565b6136b8565b612b91565b9050919050565b613a3b81613a10565b82525050565b6000604082019050613a566000830185612ec1565b613a636020830184613a32565b9392505050565b7f4f776e61626c653a2063616c6c6572206973206e6f7420746865206f776e6572600082015250565b6000613aa06020836130dd565b9150613aab82613a6a565b602082019050919050565b60006020820190508181036000830152613acf81613a93565b9050919050565b7f496e697469616c697a61626c653a20636f6e7472616374206973206e6f74206960008201527f6e697469616c697a696e67000000000000000000000000000000000000000000602082015250565b6000613b32602b836130dd565b9150613b3d82613ad6565b604082019050919050565b60006020820190508181036000830152613b6181613b25565b9050919050565b7f5061757361626c653a2070617573656400000000000000000000000000000000600082015250565b6000613b9e6010836130dd565b9150613ba982613b68565b602082019050919050565b60006020820190508181036000830152613bcd81613b91565b9050919050565b7f546f6b656e4e6f74537570706f72746564000000000000000000000000000000600082015250565b6000613c0a6011836130dd565b9150613c1582613bd4565b602082019050919050565b60006020820190508181036000830152613c3981613bfd565b9050919050565b7f416d6f756e7449735a65726f0000000000000000000000000000000000000000600082015250565b6000613c76600c836130dd565b9150613c8182613c40565b602082019050919050565b60006020820190508181036000830152613ca581613c69565b9050919050565b7f5468726f775a65726f4164647265737300000000000000000000000000000000600082015250565b6000613ce26010836130dd565b9150613ced82613cac565b602082019050919050565b60006020820190508181036000830152613d1181613cd5565b9050919050565b7f496e76616c6964496e737469747574696f6e436f646500000000000000000000600082015250565b6000613d4e6016836130dd565b9150613d5982613d18565b602082019050919050565b60006020820190508181036000830152613d7d81613d41565b9050919050565b7f496e76616c696453656e646572466565526563697069656e7400000000000000600082015250565b6000613dba6019836130dd565b9150613dc582613d84565b602082019050919050565b60006020820190508181036000830152613de981613dad565b9050919050565b7f5061757361626c653a206e6f7420706175736564000000000000000000000000600082015250565b6000613e266014836130dd565b9150613e3182613df0565b602082019050919050565b60006020820190508181036000830152613e5581613e19565b905091905056fea26469706673582212207052e17dbf1c403e694b894ce0e7c48def05964824c5ca61166978940a74897964736f6c63430008120033",
  "linkReferences": {},
  "deployedLinkReferences": {}
}