{
  "_format": "hh-sol-artifact-1",
  "contractName": "Gateway",
  "sourceName": "contracts/Gateway.sol",
  "abi": [
    {
      "inputs": [],
      "stateMutability": "nonpayable",
      "type": "constructor"
    },
    {
      "anonymous": false,
      "inputs": [
        {
          "indexed": true,
          "internalType": "bytes32",
          "name": "orderId",
          "type": "bytes32"
        },
        {
          "indexed": false,
          "internalType": "uint256",
          "name": "senderAmount",
          "type": "uint256"
        },
        {
          "indexed": false,
          "internalType": "uint256",
          "name": "aggregatorAmount",
          "type": "uint256"
        }
      ],
      "name": "FxTransferFeeSplit",
      "type": "event"
    },
    {
      "anonymous": false,
      "inputs": [
        {
          "indexed": false,
          "internalType": "uint8",
          "name": "version",
          "type": "uint8"
        }
      ],
      "name": "Initialized",
      "type": "event"
    },
    {
      "anonymous": false,
      "inputs": [
        {
          "indexed": true,
          "internalType": "bytes32",
          "name": "orderId",
          "type": "bytes32"
        },
        {
          "indexed": false,
          "internalType": "uint256",
          "name": "senderAmount",
          "type": "uint256"
        },
        {
          "indexed": false,
          "internalType": "uint256",
          "name": "providerAmount",
          "type": "uint256"
        },
        {
          "indexed": false,
          "internalType": "uint256",
          "name": "aggregatorAmount",
          "type": "uint256"
        }
      ],
      "name": "LocalTransferFeeSplit",
      "type": "event"
    },
    {
      "anonymous": false,
      "inputs": [
        {
          "indexed": true,
          "internalType": "address",
          "name": "sender",
          "type": "address"
        },
        {
          "indexed": true,
          "internalType": "address",
          "name": "token",
          "type": "address"
        },
        {
          "indexed": true,
          "internalType": "uint256",
          "name": "amount",
          "type": "uint256"
        },
        {
          "indexed": false,
          "internalType": "uint256",
          "name": "protocolFee",
          "type": "uint256"
        },
        {
          "indexed": false,
          "internalType": "bytes32",
          "name": "orderId",
          "type": "bytes32"
        },
        {
          "indexed": false,
          "internalType": "uint256",
          "name": "rate",
          "type": "uint256"
        },
        {
          "indexed": false,
          "internalType": "string",
          "name": "messageHash",
          "type": "string"
        }
      ],
      "name": "OrderCreated",
      "type": "event"
    },
    {
      "anonymous": false,
      "inputs": [
        {
          "indexed": false,
          "internalType": "uint256",
          "name": "fee",
          "type": "uint256"
        },
        {
          "indexed": true,
          "internalType": "bytes32",
          "name": "orderId",
          "type": "bytes32"
        }
      ],
      "name": "OrderRefunded",
      "type": "event"
    },
    {
      "anonymous": false,
      "inputs": [
        {
          "indexed": false,
          "internalType": "bytes32",
          "name": "splitOrderId",
          "type": "bytes32"
        },
        {
          "indexed": true,
          "internalType": "bytes32",
          "name": "orderId",
          "type": "bytes32"
        },
        {
          "indexed": true,
          "internalType": "address",
          "name": "liquidityProvider",
          "type": "address"
        },
        {
          "indexed": false,
          "internalType": "uint96",
          "name": "settlePercent",
          "type": "uint96"
        }
      ],
      "name": "OrderSettled",
      "type": "event"
    },
    {
      "anonymous": false,
      "inputs": [
        {
          "indexed": true,
          "internalType": "address",
          "name": "previousOwner",
          "type": "address"
        },
        {
          "indexed": true,
          "internalType": "address",
          "name": "newOwner",
          "type": "address"
        }
      ],
      "name": "OwnershipTransferStarted",
      "type": "event"
    },
    {
      "anonymous": false,
      "inputs": [
        {
          "indexed": true,
          "internalType": "address",
          "name": "previousOwner",
          "type": "address"
        },
        {
          "indexed": true,
          "internalType": "address",
          "name": "newOwner",
          "type": "address"
        }
      ],
      "name": "OwnershipTransferred",
      "type": "event"
    },
    {
      "anonymous": false,
      "inputs": [
        {
          "indexed": false,
          "internalType": "address",
          "name": "account",
          "type": "address"
        }
      ],
      "name": "Paused",
      "type": "event"
    },
    {
      "anonymous": false,
      "inputs": [
        {
          "indexed": true,
          "internalType": "bytes32",
          "name": "what",
          "type": "bytes32"
        },
        {
          "indexed": true,
          "internalType": "address",
          "name": "treasuryAddress",
          "type": "address"
        }
      ],
      "name": "ProtocolAddressUpdated",
      "type": "event"
    },
    {
      "anonymous": false,
      "inputs": [
        {
          "indexed": true,
          "internalType": "address",
          "name": "sender",
          "type": "address"
        },
        {
          "indexed": true,
          "internalType": "uint256",
          "name": "amount",
          "type": "uint256"
        }
      ],
      "name": "SenderFeeTransferred",
      "type": "event"
    },
    {
      "anonymous": false,
      "inputs": [
        {
          "indexed": true,
          "internalType": "address",
          "name": "treasuryAddress",
          "type": "address"
        }
      ],
      "name": "SetFeeRecipient",
      "type": "event"
    },
    {
      "anonymous": false,
      "inputs": [
        {
          "indexed": true,
          "internalType": "bytes32",
          "name": "what",
          "type": "bytes32"
        },
        {
          "indexed": true,
          "internalType": "address",
          "name": "value",
          "type": "address"
        },
        {
          "indexed": false,
          "internalType": "uint256",
          "name": "status",
          "type": "uint256"
        }
      ],
      "name": "SettingManagerBool",
      "type": "event"
    },
    {
      "anonymous": false,
      "inputs": [
        {
          "indexed": true,
          "internalType": "address",
          "name": "token",
          "type": "address"
        },
        {
          "indexed": false,
          "internalType": "uint256",
          "name": "senderToProvider",
          "type": "uint256"
        },
        {
          "indexed": false,
          "internalType": "uint256",
          "name": "providerToAggregator",
          "type": "uint256"
        },
        {
          "indexed": false,
          "internalType": "uint256",
          "name": "senderToAggregator",
          "type": "uint256"
        },
        {
          "indexed": false,
          "internalType": "uint256",
          "name": "providerToAggregatorFx",
          "type": "uint256"
        }
      ],
      "name": "TokenFeeSettingsUpdated",
      "type": "event"
    },
    {
      "anonymous": false,
      "inputs": [
        {
          "indexed": false,
          "internalType": "address",
          "name": "account",
          "type": "address"
        }
      ],
      "name": "Unpaused",
      "type": "event"
    },
    {
      "inputs": [],
      "name": "acceptOwnership",
      "outputs": [],
      "stateMutability": "nonpayable",
      "type": "function"
    },
    {
      "inputs": [
        {
          "internalType": "address",
          "name": "_token",
          "type": "address"
        },
        {
          "internalType": "uint256",
          "name": "_amount",
          "type": "uint256"
        },
        {
          "internalType": "uint96",
          "name": "_rate",
          "type": "uint96"
        },
        {
          "internalType": "address",
          "name": "_senderFeeRecipient",
          "type": "address"
        },
        {
          "internalType": "uint256",
          "name": "_senderFee",
          "type": "uint256"
        },
        {
          "internalType": "address",
          "name": "_refundAddress",
          "type": "address"
        },
        {
          "internalType": "string",
          "name": "messageHash",
          "type": "string"
        }
      ],
      "name": "createOrder",
      "outputs": [
        {
          "internalType": "bytes32",
          "name": "orderId",
          "type": "bytes32"
        }
      ],
      "stateMutability": "nonpayable",
      "type": "function"
    },
    {
      "inputs": [
        {
          "internalType": "bytes32",
          "name": "_orderId",
          "type": "bytes32"
        }
      ],
      "name": "getOrderInfo",
      "outputs": [
        {
          "components": [
            {
              "internalType": "address",
              "name": "sender",
              "type": "address"
            },
            {
              "internalType": "address",
              "name": "token",
              "type": "address"
            },
            {
              "internalType": "address",
              "name": "senderFeeRecipient",
              "type": "address"
            },
            {
              "internalType": "uint256",
              "name": "senderFee",
              "type": "uint256"
            },
            {
              "internalType": "uint256",
              "name": "protocolFee",
              "type": "uint256"
            },
            {
              "internalType": "bool",
              "name": "isFulfilled",
              "type": "bool"
            },
            {
              "internalType": "bool",
              "name": "isRefunded",
              "type": "bool"
            },
            {
              "internalType": "address",
              "name": "refundAddress",
              "type": "address"
            },
            {
              "internalType": "uint96",
              "name": "currentBPS",
              "type": "uint96"
            },
            {
              "internalType": "uint256",
              "name": "amount",
              "type": "uint256"
            }
          ],
          "internalType": "struct IGateway.Order",
          "name": "",
          "type": "tuple"
        }
      ],
      "stateMutability": "view",
      "type": "function"
    },
    {
      "inputs": [
        {
          "internalType": "address",
          "name": "token",
          "type": "address"
        }
      ],
      "name": "getTokenFeeSettings",
      "outputs": [
        {
          "components": [
            {
              "internalType": "uint256",
              "name": "senderToProvider",
              "type": "uint256"
            },
            {
              "internalType": "uint256",
              "name": "providerToAggregator",
              "type": "uint256"
            },
            {
              "internalType": "uint256",
              "name": "senderToAggregator",
              "type": "uint256"
            },
            {
              "internalType": "uint256",
              "name": "providerToAggregatorFx",
              "type": "uint256"
            }
          ],
          "internalType": "struct GatewaySettingManager.TokenFeeSettings",
          "name": "",
          "type": "tuple"
        }
      ],
      "stateMutability": "view",
      "type": "function"
    },
    {
      "inputs": [],
      "name": "initialize",
      "outputs": [],
      "stateMutability": "nonpayable",
      "type": "function"
    },
    {
      "inputs": [
        {
          "internalType": "address",
          "name": "_token",
          "type": "address"
        }
      ],
      "name": "isTokenSupported",
      "outputs": [
        {
          "internalType": "bool",
          "name": "",
          "type": "bool"
        }
      ],
      "stateMutability": "view",
      "type": "function"
    },
    {
      "inputs": [],
      "name": "owner",
      "outputs": [
        {
          "internalType": "address",
          "name": "",
          "type": "address"
        }
      ],
      "stateMutability": "view",
      "type": "function"
    },
    {
      "inputs": [],
      "name": "pause",
      "outputs": [],
      "stateMutability": "nonpayable",
      "type": "function"
    },
    {
      "inputs": [],
      "name": "paused",
      "outputs": [
        {
          "internalType": "bool",
          "name": "",
          "type": "bool"
        }
      ],
      "stateMutability": "view",
      "type": "function"
    },
    {
      "inputs": [],
      "name": "pendingOwner",
      "outputs": [
        {
          "internalType": "address",
          "name": "",
          "type": "address"
        }
      ],
      "stateMutability": "view",
      "type": "function"
    },
    {
      "inputs": [
        {
          "internalType": "uint256",
          "name": "_fee",
          "type": "uint256"
        },
        {
          "internalType": "bytes32",
          "name": "_orderId",
          "type": "bytes32"
        }
      ],
      "name": "refund",
      "outputs": [
        {
          "internalType": "bool",
          "name": "",
          "type": "bool"
        }
      ],
      "stateMutability": "nonpayable",
      "type": "function"
    },
    {
      "inputs": [],
      "name": "renounceOwnership",
      "outputs": [],
      "stateMutability": "nonpayable",
      "type": "function"
    },
    {
      "inputs": [
        {
          "internalType": "address",
          "name": "token",
          "type": "address"
        },
        {
          "internalType": "uint256",
          "name": "senderToProvider",
          "type": "uint256"
        },
        {
          "internalType": "uint256",
          "name": "providerToAggregator",
          "type": "uint256"
        },
        {
          "internalType": "uint256",
          "name": "senderToAggregator",
          "type": "uint256"
        },
        {
          "internalType": "uint256",
          "name": "providerToAggregatorFx",
          "type": "uint256"
        }
      ],
      "name": "setTokenFeeSettings",
      "outputs": [],
      "stateMutability": "nonpayable",
      "type": "function"
    },
    {
      "inputs": [
        {
          "internalType": "bytes32",
          "name": "what",
          "type": "bytes32"
        },
        {
          "internalType": "address",
          "name": "value",
          "type": "address"
        },
        {
          "internalType": "uint256",
          "name": "status",
          "type": "uint256"
        }
      ],
      "name": "settingManagerBool",
      "outputs": [],
      "stateMutability": "nonpayable",
      "type": "function"
    },
    {
      "inputs": [
        {
          "internalType": "bytes32",
          "name": "_splitOrderId",
          "type": "bytes32"
        },
        {
          "internalType": "bytes32",
          "name": "_orderId",
          "type": "bytes32"
        },
        {
          "internalType": "address",
          "name": "_liquidityProvider",
          "type": "address"
        },
        {
          "internalType": "uint64",
          "name": "_settlePercent",
          "type": "uint64"
        }
      ],
      "name": "settle",
      "outputs": [
        {
          "internalType": "bool",
          "name": "",
          "type": "bool"
        }
      ],
      "stateMutability": "nonpayable",
      "type": "function"
    },
    {
      "inputs": [
        {
          "internalType": "address",
          "name": "newOwner",
          "type": "address"
        }
      ],
      "name": "transferOwnership",
      "outputs": [],
      "stateMutability": "nonpayable",
      "type": "function"
    },
    {
      "inputs": [],
      "name": "unpause",
      "outputs": [],
      "stateMutability": "nonpayable",
      "type": "function"
    },
    {
      "inputs": [
        {
          "internalType": "bytes32",
          "name": "what",
          "type": "bytes32"
        },
        {
          "internalType": "address",
          "name": "value",
          "type": "address"
        }
      ],
      "name": "updateProtocolAddress",
      "outputs": [],
      "stateMutability": "nonpayable",
      "type": "function"
    }
  ],
  "bytecode": "0x608060405234801562000010575f80fd5b50620000216200002760201b60201c565b620001c6565b5f60019054906101000a900460ff161562000079576040517f08c379a000000000000000000000000000000000000000000000000000000000815260040162000070906200016e565b60405180910390fd5b60ff80165f8054906101000a900460ff1660ff1614620000e85760ff5f806101000a81548160ff021916908360ff1602179055507f7f26b83ff96e1f2b6a682f133852f6798a09c465da95921460cefb384740249860ff604051620000df9190620001ab565b60405180910390a15b565b5f82825260208201905092915050565b7f496e697469616c697a61626c653a20636f6e747261637420697320696e6974695f8201527f616c697a696e6700000000000000000000000000000000000000000000000000602082015250565b5f62000156602783620000ea565b91506200016382620000fa565b604082019050919050565b5f6020820190508181035f830152620001878162000148565b9050919050565b5f60ff82169050919050565b620001a5816200018e565b82525050565b5f602082019050620001c05f8301846200019a565b92915050565b61474280620001d45f395ff3fe608060405234801561000f575f80fd5b5060043610610114575f3560e01c80638129fc1c116100a05780638da5cb5b1161006f5780638da5cb5b14610290578063cd992400146102ae578063e30c3978146102ca578063f22ee704146102e8578063f2fde38b1461031857610114565b80638129fc1c146102305780638456cb591461023a578063898861b0146102445780638bfa05491461026057610114565b806371eedb88116100e757806371eedb881461016657806375151b6314610196578063768c6ec0146101c657806379ba5097146101f6578063809804f71461020057610114565b80633f4ba83a1461011857806340ebc677146101225780635c975abb1461013e578063715018a61461015c575b5f80fd5b610120610334565b005b61013c60048036038101906101379190613053565b610346565b005b61014661060a565b60405161015391906130ab565b60405180910390f35b61016461061f565b005b610180600480360381019061017b91906130f7565b610632565b60405161018d91906130ab565b60405180910390f35b6101b060048036038101906101ab9190613135565b610a8d565b6040516101bd91906130ab565b60405180910390f35b6101e060048036038101906101db9190613160565b610ae5565b6040516101ed91906132a8565b60405180910390f35b6101fe610cf5565b005b61021a6004803603810190610215919061334d565b610d81565b6040516102279190613419565b60405180910390f35b6102386113c6565b005b610242611510565b005b61025e60048036038101906102599190613432565b611522565b005b61027a60048036038101906102759190613135565b6117a0565b60405161028791906134fc565b60405180910390f35b61029861181e565b6040516102a59190613524565b60405180910390f35b6102c860048036038101906102c3919061353d565b611846565b005b6102d26119c8565b6040516102df9190613524565b60405180910390f35b61030260048036038101906102fd91906135ca565b6119f0565b60405161030f91906130ab565b60405180910390f35b610332600480360381019061032d9190613135565b611ff2565b005b61033c61209e565b61034461211c565b565b61034e61209e565b5f73ffffffffffffffffffffffffffffffffffffffff168173ffffffffffffffffffffffffffffffffffffffff16036103bc576040517f08c379a00000000000000000000000000000000000000000000000000000000081526004016103b390613688565b60405180910390fd5b5f7f747265617375727900000000000000000000000000000000000000000000000083036104be578173ffffffffffffffffffffffffffffffffffffffff16609860089054906101000a900473ffffffffffffffffffffffffffffffffffffffff1673ffffffffffffffffffffffffffffffffffffffff1603610474576040517f08c379a000000000000000000000000000000000000000000000000000000000815260040161046b90613716565b60405180910390fd5b81609860086101000a81548173ffffffffffffffffffffffffffffffffffffffff021916908373ffffffffffffffffffffffffffffffffffffffff160217905550600190506105ba565b7f61676772656761746f720000000000000000000000000000000000000000000083036105b9578173ffffffffffffffffffffffffffffffffffffffff1660995f9054906101000a900473ffffffffffffffffffffffffffffffffffffffff1673ffffffffffffffffffffffffffffffffffffffff1603610574576040517f08c379a000000000000000000000000000000000000000000000000000000000815260040161056b906137a4565b60405180910390fd5b8160995f6101000a81548173ffffffffffffffffffffffffffffffffffffffff021916908373ffffffffffffffffffffffffffffffffffffffff160217905550600190505b5b8015610605578173ffffffffffffffffffffffffffffffffffffffff16837fbbc5b96e57cfecb3dbeeadf92e87f15e58e64fcd75cbe256dcc5d9ef2e51e8a460405160405180910390a35b505050565b5f60cd5f9054906101000a900460ff16905090565b61062761209e565b6106305f61217d565b565b5f60995f9054906101000a900473ffffffffffffffffffffffffffffffffffffffff1673ffffffffffffffffffffffffffffffffffffffff163373ffffffffffffffffffffffffffffffffffffffff16146106c2576040517f08c379a00000000000000000000000000000000000000000000000000000000081526004016106b99061380c565b60405180910390fd5b60ff5f8381526020019081526020015f206005015f9054906101000a900460ff1615610723576040517f08c379a000000000000000000000000000000000000000000000000000000000815260040161071a90613874565b60405180910390fd5b60ff5f8381526020019081526020015f2060050160019054906101000a900460ff1615610785576040517f08c379a000000000000000000000000000000000000000000000000000000000815260040161077c906138dc565b60405180910390fd5b8260ff5f8481526020019081526020015f206004015410156107dc576040517f08c379a00000000000000000000000000000000000000000000000000000000081526004016107d390613944565b60405180910390fd5b5f8311156108b65760ff5f8381526020019081526020015f206001015f9054906101000a900473ffffffffffffffffffffffffffffffffffffffff1673ffffffffffffffffffffffffffffffffffffffff1663a9059cbb609860089054906101000a900473ffffffffffffffffffffffffffffffffffffffff16856040518363ffffffff1660e01b8152600401610874929190613971565b6020604051808303815f875af1158015610890573d5f803e3d5ffd5b505050506040513d601f19601f820116820180604052508101906108b491906139c2565b505b600160ff5f8481526020019081526020015f2060050160016101000a81548160ff0219169083151502179055505f60ff5f8481526020019081526020015f206006015f6101000a8154816bffffffffffffffffffffffff02191690836bffffffffffffffffffffffff1602179055505f8360ff5f8581526020019081526020015f20600701546109469190613a1a565b905060ff5f8481526020019081526020015f206001015f9054906101000a900473ffffffffffffffffffffffffffffffffffffffff1673ffffffffffffffffffffffffffffffffffffffff1663a9059cbb60ff5f8681526020019081526020015f2060050160029054906101000a900473ffffffffffffffffffffffffffffffffffffffff1660ff5f8781526020019081526020015f2060030154846109ec9190613a4d565b6040518363ffffffff1660e01b8152600401610a09929190613971565b6020604051808303815f875af1158015610a25573d5f803e3d5ffd5b505050506040513d601f19601f82011682018060405250810190610a4991906139c2565b50827f0736fe428e1747ca8d387c2e6fa1a31a0cde62d3a167c40a46ade59a3cdc828e85604051610a7a9190613a80565b60405180910390a2600191505092915050565b5f6001609a5f8473ffffffffffffffffffffffffffffffffffffffff1673ffffffffffffffffffffffffffffffffffffffff1681526020019081526020015f205403610adc5760019050610ae0565b5f90505b919050565b610aed612ee7565b60ff5f8381526020019081526020015f20604051806101400160405290815f82015f9054906101000a900473ffffffffffffffffffffffffffffffffffffffff1673ffffffffffffffffffffffffffffffffffffffff1673ffffffffffffffffffffffffffffffffffffffff168152602001600182015f9054906101000a900473ffffffffffffffffffffffffffffffffffffffff1673ffffffffffffffffffffffffffffffffffffffff1673ffffffffffffffffffffffffffffffffffffffff168152602001600282015f9054906101000a900473ffffffffffffffffffffffffffffffffffffffff1673ffffffffffffffffffffffffffffffffffffffff1673ffffffffffffffffffffffffffffffffffffffff1681526020016003820154815260200160048201548152602001600582015f9054906101000a900460ff161515151581526020016005820160019054906101000a900460ff161515151581526020016005820160029054906101000a900473ffffffffffffffffffffffffffffffffffffffff1673ffffffffffffffffffffffffffffffffffffffff1673ffffffffffffffffffffffffffffffffffffffff168152602001600682015f9054906101000a90046bffffffffffffffffffffffff166bffffffffffffffffffffffff166bffffffffffffffffffffffff1681526020016007820154815250509050919050565b5f610cfe6121ad565b90508073ffffffffffffffffffffffffffffffffffffffff16610d1f6119c8565b73ffffffffffffffffffffffffffffffffffffffff1614610d75576040517f08c379a0000000000000000000000000000000000000000000000000000000008152600401610d6c90613b09565b60405180910390fd5b610d7e8161217d565b50565b5f610d8a6121b4565b610d9789898689896121fe565b5f8383905003610ddc576040517f08c379a0000000000000000000000000000000000000000000000000000000008152600401610dd390613b71565b60405180910390fd5b8873ffffffffffffffffffffffffffffffffffffffff166323b872dd3330888c610e069190613a4d565b6040518463ffffffff1660e01b8152600401610e2493929190613b8f565b6020604051808303815f875af1158015610e40573d5f803e3d5ffd5b505050506040513d601f19601f82011682018060405250810190610e6491906139c2565b506101005f3373ffffffffffffffffffffffffffffffffffffffff1673ffffffffffffffffffffffffffffffffffffffff1681526020019081526020015f205f815480929190610eb390613bc4565b9190505550336101005f3373ffffffffffffffffffffffffffffffffffffffff1673ffffffffffffffffffffffffffffffffffffffff1681526020019081526020015f205446604051602001610f0b93929190613c0b565b6040516020818303038152906040528051906020012090505f73ffffffffffffffffffffffffffffffffffffffff1660ff5f8381526020019081526020015f205f015f9054906101000a900473ffffffffffffffffffffffffffffffffffffffff1673ffffffffffffffffffffffffffffffffffffffff1614610fc3576040517f08c379a0000000000000000000000000000000000000000000000000000000008152600401610fba90613c8a565b60405180910390fd5b5f6064886bffffffffffffffffffffffff1603610fe2575f90506110bb565b5f609b5f8c73ffffffffffffffffffffffffffffffffffffffff1673ffffffffffffffffffffffffffffffffffffffff1681526020019081526020015f206040518060800160405290815f8201548152602001600182015481526020016002820154815260200160038201548152505090505f81606001511161109a576040517f08c379a000000000000000000000000000000000000000000000000000000000815260040161109190613cf2565b60405180910390fd5b60975481606001518b6110ad9190613d10565b6110b79190613d7e565b9150505b6040518061014001604052803373ffffffffffffffffffffffffffffffffffffffff1681526020018b73ffffffffffffffffffffffffffffffffffffffff1681526020018873ffffffffffffffffffffffffffffffffffffffff1681526020018781526020018281526020015f151581526020015f151581526020018673ffffffffffffffffffffffffffffffffffffffff16815260200160975467ffffffffffffffff166bffffffffffffffffffffffff1681526020018a81525060ff5f8481526020019081526020015f205f820151815f015f6101000a81548173ffffffffffffffffffffffffffffffffffffffff021916908373ffffffffffffffffffffffffffffffffffffffff1602179055506020820151816001015f6101000a81548173ffffffffffffffffffffffffffffffffffffffff021916908373ffffffffffffffffffffffffffffffffffffffff1602179055506040820151816002015f6101000a81548173ffffffffffffffffffffffffffffffffffffffff021916908373ffffffffffffffffffffffffffffffffffffffff160217905550606082015181600301556080820151816004015560a0820151816005015f6101000a81548160ff02191690831515021790555060c08201518160050160016101000a81548160ff02191690831515021790555060e08201518160050160026101000a81548173ffffffffffffffffffffffffffffffffffffffff021916908373ffffffffffffffffffffffffffffffffffffffff160217905550610100820151816006015f6101000a8154816bffffffffffffffffffffffff02191690836bffffffffffffffffffffffff160217905550610120820151816007015590505060ff5f8381526020019081526020015f20600701548a73ffffffffffffffffffffffffffffffffffffffff168673ffffffffffffffffffffffffffffffffffffffff167f40ccd1ceb111a3c186ef9911e1b876dc1f789ed331b86097b3b8851055b6a13784868d8a8a6040516113b1959493929190613e31565b60405180910390a45098975050505050505050565b5f8060019054906101000a900460ff161590508080156113f5575060015f8054906101000a900460ff1660ff16105b806114215750611404306123ab565b158015611420575060015f8054906101000a900460ff1660ff16145b5b611460576040517f08c379a000000000000000000000000000000000000000000000000000000000815260040161145790613eed565b60405180910390fd5b60015f806101000a81548160ff021916908360ff160217905550801561149b5760015f60016101000a81548160ff0219169083151502179055505b620186a06097819055506114ad6123cd565b6114b5612425565b801561150d575f8060016101000a81548160ff0219169083151502179055507f7f26b83ff96e1f2b6a682f133852f6798a09c465da95921460cefb384740249860016040516115049190613f50565b60405180910390a15b50565b61151861209e565b61152061247d565b565b61152a61209e565b6001609a5f8773ffffffffffffffffffffffffffffffffffffffff1673ffffffffffffffffffffffffffffffffffffffff1681526020019081526020015f2054146115aa576040517f08c379a00000000000000000000000000000000000000000000000000000000081526004016115a190613fb3565b60405180910390fd5b6097548411156115ef576040517f08c379a00000000000000000000000000000000000000000000000000000000081526004016115e690614041565b60405180910390fd5b609754831115611634576040517f08c379a000000000000000000000000000000000000000000000000000000000815260040161162b906140cf565b60405180910390fd5b609754821115611679576040517f08c379a00000000000000000000000000000000000000000000000000000000081526004016116709061415d565b60405180910390fd5b6097548111156116be576040517f08c379a00000000000000000000000000000000000000000000000000000000081526004016116b5906141eb565b60405180910390fd5b604051806080016040528085815260200184815260200183815260200182815250609b5f8773ffffffffffffffffffffffffffffffffffffffff1673ffffffffffffffffffffffffffffffffffffffff1681526020019081526020015f205f820151815f01556020820151816001015560408201518160020155606082015181600301559050508473ffffffffffffffffffffffffffffffffffffffff167fd4d646cffa66ebf695b792bd660c97076ed45a889e14d544eb8ab8a44b34a59c858585856040516117919493929190614209565b60405180910390a25050505050565b6117a8612f9a565b609b5f8373ffffffffffffffffffffffffffffffffffffffff1673ffffffffffffffffffffffffffffffffffffffff1681526020019081526020015f206040518060800160405290815f820154815260200160018201548152602001600282015481526020016003820154815250509050919050565b5f60335f9054906101000a900473ffffffffffffffffffffffffffffffffffffffff16905090565b61184e61209e565b5f73ffffffffffffffffffffffffffffffffffffffff168273ffffffffffffffffffffffffffffffffffffffff16036118bc576040517f08c379a00000000000000000000000000000000000000000000000000000000081526004016118b390613688565b60405180910390fd5b60018114806118cb5750600281145b61190a576040517f08c379a000000000000000000000000000000000000000000000000000000000815260040161190190614296565b60405180910390fd5b7f746f6b656e00000000000000000000000000000000000000000000000000000083036119c35780609a5f8473ffffffffffffffffffffffffffffffffffffffff1673ffffffffffffffffffffffffffffffffffffffff1681526020019081526020015f20819055508173ffffffffffffffffffffffffffffffffffffffff16837fcfa976492af7c14a916cc3a239f4c9c75bbd7f5f0e398beb41d892c7eeccae4c836040516119ba9190613a80565b60405180910390a35b505050565b5f60655f9054906101000a900473ffffffffffffffffffffffffffffffffffffffff16905090565b5f60995f9054906101000a900473ffffffffffffffffffffffffffffffffffffffff1673ffffffffffffffffffffffffffffffffffffffff163373ffffffffffffffffffffffffffffffffffffffff1614611a80576040517f08c379a0000000000000000000000000000000000000000000000000000000008152600401611a779061380c565b60405180910390fd5b60ff5f8581526020019081526020015f206005015f9054906101000a900460ff1615611ae1576040517f08c379a0000000000000000000000000000000000000000000000000000000008152600401611ad890613874565b60405180910390fd5b60ff5f8581526020019081526020015f2060050160019054906101000a900460ff1615611b43576040517f08c379a0000000000000000000000000000000000000000000000000000000008152600401611b3a906138dc565b60405180910390fd5b5f60ff5f8681526020019081526020015f206001015f9054906101000a900473ffffffffffffffffffffffffffffffffffffffff1690505f60ff5f8781526020019081526020015f206006015f9054906101000a90046bffffffffffffffffffffffff166bffffffffffffffffffffffff1690508367ffffffffffffffff1660ff5f8881526020019081526020015f206006015f8282829054906101000a90046bffffffffffffffffffffffff16611bfb91906142b4565b92506101000a8154816bffffffffffffffffffffffff02191690836bffffffffffffffffffffffff1602179055505f60ff5f8881526020019081526020015f206006015f9054906101000a90046bffffffffffffffffffffffff166bffffffffffffffffffffffff1603611cdd57600160ff5f8881526020019081526020015f206005015f6101000a81548160ff0219169083151502179055505f60ff5f8881526020019081526020015f206003015414158015611ccd57505f60ff5f8881526020019081526020015f206004015414155b15611cdc57611cdb866124df565b5b5b5f60ff5f8881526020019081526020015f206003015414158015611d1457505f60ff5f8881526020019081526020015f2060040154145b15611d2557611d24868686612855565b5b5f818567ffffffffffffffff1660ff5f8a81526020019081526020015f2060070154611d519190613d10565b611d5b9190613d7e565b90508060ff5f8981526020019081526020015f206007015f828254611d809190613a1a565b925050819055505f60ff5f8981526020019081526020015f206004015414611f16575f609b5f60ff5f8b81526020019081526020015f206001015f9054906101000a900473ffffffffffffffffffffffffffffffffffffffff1673ffffffffffffffffffffffffffffffffffffffff1673ffffffffffffffffffffffffffffffffffffffff1681526020019081526020015f206040518060800160405290815f8201548152602001600182015481526020016002820154815260200160038201548152505090505f609754826060015184611e5b9190613d10565b611e659190613d7e565b90508083611e739190613a1a565b92508473ffffffffffffffffffffffffffffffffffffffff1663a9059cbb609860089054906101000a900473ffffffffffffffffffffffffffffffffffffffff16836040518363ffffffff1660e01b8152600401611ed2929190613971565b6020604051808303815f875af1158015611eee573d5f803e3d5ffd5b505050506040513d601f19601f82011682018060405250810190611f1291906139c2565b5050505b8273ffffffffffffffffffffffffffffffffffffffff1663a9059cbb87836040518363ffffffff1660e01b8152600401611f51929190613971565b6020604051808303815f875af1158015611f6d573d5f803e3d5ffd5b505050506040513d601f19601f82011682018060405250810190611f9191906139c2565b508573ffffffffffffffffffffffffffffffffffffffff16877f98ece21e01a01cbe1d1c0dad3b053c8fbd368f99be78be958fcf1d1d13fd249a8a88604051611fdb929190614323565b60405180910390a360019350505050949350505050565b611ffa61209e565b8060655f6101000a81548173ffffffffffffffffffffffffffffffffffffffff021916908373ffffffffffffffffffffffffffffffffffffffff1602179055508073ffffffffffffffffffffffffffffffffffffffff1661205961181e565b73ffffffffffffffffffffffffffffffffffffffff167f38d16b8cac22d99fc7c124b9cd0de2d3fa1faef420bfe791d8c362d765e2270060405160405180910390a350565b6120a66121ad565b73ffffffffffffffffffffffffffffffffffffffff166120c461181e565b73ffffffffffffffffffffffffffffffffffffffff161461211a576040517f08c379a000000000000000000000000000000000000000000000000000000000815260040161211190614394565b60405180910390fd5b565b612124612d12565b5f60cd5f6101000a81548160ff0219169083151502179055507f5db9ee0a495bf2e6ff9c91a7834c1ba4fdd244a5e8aa4e537bd38aeae4b073aa6121666121ad565b6040516121739190613524565b60405180910390a1565b60655f6101000a81549073ffffffffffffffffffffffffffffffffffffffff02191690556121aa81612d5b565b50565b5f33905090565b6121bc61060a565b156121fc576040517f08c379a00000000000000000000000000000000000000000000000000000000081526004016121f3906143fc565b60405180910390fd5b565b6001609a5f8773ffffffffffffffffffffffffffffffffffffffff1673ffffffffffffffffffffffffffffffffffffffff1681526020019081526020015f20541461227e576040517f08c379a000000000000000000000000000000000000000000000000000000000815260040161227590614464565b60405180910390fd5b5f84036122c0576040517f08c379a00000000000000000000000000000000000000000000000000000000081526004016122b7906144cc565b60405180910390fd5b5f73ffffffffffffffffffffffffffffffffffffffff168373ffffffffffffffffffffffffffffffffffffffff160361232e576040517f08c379a000000000000000000000000000000000000000000000000000000000815260040161232590614534565b60405180910390fd5b5f81146123a4575f73ffffffffffffffffffffffffffffffffffffffff168273ffffffffffffffffffffffffffffffffffffffff16036123a3576040517f08c379a000000000000000000000000000000000000000000000000000000000815260040161239a9061459c565b60405180910390fd5b5b5050505050565b5f808273ffffffffffffffffffffffffffffffffffffffff163b119050919050565b5f60019054906101000a900460ff1661241b576040517f08c379a00000000000000000000000000000000000000000000000000000000081526004016124129061462a565b60405180910390fd5b612423612e1e565b565b5f60019054906101000a900460ff16612473576040517f08c379a000000000000000000000000000000000000000000000000000000000815260040161246a9061462a565b60405180910390fd5b61247b612e7e565b565b6124856121b4565b600160cd5f6101000a81548160ff0219169083151502179055507f62e78cea01bee320cd4e420270b5ea74000d11b0c9f74754ebdbfc544b05a2586124c86121ad565b6040516124d59190613524565b60405180910390a1565b5f609b5f60ff5f8581526020019081526020015f206001015f9054906101000a900473ffffffffffffffffffffffffffffffffffffffff1673ffffffffffffffffffffffffffffffffffffffff1673ffffffffffffffffffffffffffffffffffffffff1681526020019081526020015f206040518060800160405290815f8201548152602001600182015481526020016002820154815260200160038201548152505090505f60ff5f8481526020019081526020015f206003015490505f60975483604001516097546125b29190613a1a565b836125bd9190613d10565b6125c79190613d7e565b90505f81836125d69190613a1a565b90505f8211156126c35760ff5f8681526020019081526020015f206001015f9054906101000a900473ffffffffffffffffffffffffffffffffffffffff1673ffffffffffffffffffffffffffffffffffffffff1663a9059cbb60ff5f8881526020019081526020015f206002015f9054906101000a900473ffffffffffffffffffffffffffffffffffffffff16846040518363ffffffff1660e01b8152600401612681929190613971565b6020604051808303815f875af115801561269d573d5f803e3d5ffd5b505050506040513d601f19601f820116820180604052508101906126c191906139c2565b505b5f81111561279d5760ff5f8681526020019081526020015f206001015f9054906101000a900473ffffffffffffffffffffffffffffffffffffffff1673ffffffffffffffffffffffffffffffffffffffff1663a9059cbb609860089054906101000a900473ffffffffffffffffffffffffffffffffffffffff16836040518363ffffffff1660e01b815260040161275b929190613971565b6020604051808303815f875af1158015612777573d5f803e3d5ffd5b505050506040513d601f19601f8201168201806040525081019061279b91906139c2565b505b8160ff5f8781526020019081526020015f206002015f9054906101000a900473ffffffffffffffffffffffffffffffffffffffff1673ffffffffffffffffffffffffffffffffffffffff167f44f6938ca4a10313aabb76f874cced61e35710a734a126e4afb34461bf8c250160405160405180910390a3847f88592047496a7850992dc5e8cd92a9b633cef0d191a4f5e87fd745c7d382630a8383604051612846929190614648565b60405180910390a25050505050565b5f609b5f60ff5f8781526020019081526020015f206001015f9054906101000a900473ffffffffffffffffffffffffffffffffffffffff1673ffffffffffffffffffffffffffffffffffffffff1673ffffffffffffffffffffffffffffffffffffffff1681526020019081526020015f206040518060800160405290815f8201548152602001600182015481526020016002820154815260200160038201548152505090505f60ff5f8681526020019081526020015f206003015490505f609754835f0151836129259190613d10565b61292f9190613d7e565b90505f6097548567ffffffffffffffff168361294b9190613d10565b6129559190613d7e565b90505f60975485602001518361296b9190613d10565b6129759190613d7e565b90505f83856129849190613a1a565b90505f81141580156129ce57505f60ff5f8b81526020019081526020015f206006015f9054906101000a90046bffffffffffffffffffffffff166bffffffffffffffffffffffff16145b15612ab65760ff5f8a81526020019081526020015f206001015f9054906101000a900473ffffffffffffffffffffffffffffffffffffffff1673ffffffffffffffffffffffffffffffffffffffff1663a9059cbb60ff5f8c81526020019081526020015f206002015f9054906101000a900473ffffffffffffffffffffffffffffffffffffffff16836040518363ffffffff1660e01b8152600401612a74929190613971565b6020604051808303815f875af1158015612a90573d5f803e3d5ffd5b505050506040513d601f19601f82011682018060405250810190612ab491906139c2565b505b5f8214612b8f5760ff5f8a81526020019081526020015f206001015f9054906101000a900473ffffffffffffffffffffffffffffffffffffffff1673ffffffffffffffffffffffffffffffffffffffff1663a9059cbb609860089054906101000a900473ffffffffffffffffffffffffffffffffffffffff16846040518363ffffffff1660e01b8152600401612b4d929190613971565b6020604051808303815f875af1158015612b69573d5f803e3d5ffd5b505050506040513d601f19601f82011682018060405250810190612b8d91906139c2565b505b8183612b9b9190613a1a565b92505f8314612c545760ff5f8a81526020019081526020015f206001015f9054906101000a900473ffffffffffffffffffffffffffffffffffffffff1673ffffffffffffffffffffffffffffffffffffffff1663a9059cbb89856040518363ffffffff1660e01b8152600401612c12929190613971565b6020604051808303815f875af1158015612c2e573d5f803e3d5ffd5b505050506040513d601f19601f82011682018060405250810190612c5291906139c2565b505b8060ff5f8b81526020019081526020015f206002015f9054906101000a900473ffffffffffffffffffffffffffffffffffffffff1673ffffffffffffffffffffffffffffffffffffffff167f44f6938ca4a10313aabb76f874cced61e35710a734a126e4afb34461bf8c250160405160405180910390a3887f831c7cc0006d91462607c476603366c48469d125de6228c0791a7090efd7f7a4828585604051612cff9392919061466f565b60405180910390a2505050505050505050565b612d1a61060a565b612d59576040517f08c379a0000000000000000000000000000000000000000000000000000000008152600401612d50906146ee565b60405180910390fd5b565b5f60335f9054906101000a900473ffffffffffffffffffffffffffffffffffffffff1690508160335f6101000a81548173ffffffffffffffffffffffffffffffffffffffff021916908373ffffffffffffffffffffffffffffffffffffffff1602179055508173ffffffffffffffffffffffffffffffffffffffff168173ffffffffffffffffffffffffffffffffffffffff167f8be0079c531659141344cd1fd0a4f28419497f9722a3daafe3b4186f6b6457e060405160405180910390a35050565b5f60019054906101000a900460ff16612e6c576040517f08c379a0000000000000000000000000000000000000000000000000000000008152600401612e639061462a565b60405180910390fd5b612e7c612e776121ad565b61217d565b565b5f60019054906101000a900460ff16612ecc576040517f08c379a0000000000000000000000000000000000000000000000000000000008152600401612ec39061462a565b60405180910390fd5b5f60cd5f6101000a81548160ff021916908315150217905550565b6040518061014001604052805f73ffffffffffffffffffffffffffffffffffffffff1681526020015f73ffffffffffffffffffffffffffffffffffffffff1681526020015f73ffffffffffffffffffffffffffffffffffffffff1681526020015f81526020015f81526020015f151581526020015f151581526020015f73ffffffffffffffffffffffffffffffffffffffff1681526020015f6bffffffffffffffffffffffff1681526020015f81525090565b60405180608001604052805f81526020015f81526020015f81526020015f81525090565b5f80fd5b5f80fd5b5f819050919050565b612fd881612fc6565b8114612fe2575f80fd5b50565b5f81359050612ff381612fcf565b92915050565b5f73ffffffffffffffffffffffffffffffffffffffff82169050919050565b5f61302282612ff9565b9050919050565b61303281613018565b811461303c575f80fd5b50565b5f8135905061304d81613029565b92915050565b5f806040838503121561306957613068612fbe565b5b5f61307685828601612fe5565b92505060206130878582860161303f565b9150509250929050565b5f8115159050919050565b6130a581613091565b82525050565b5f6020820190506130be5f83018461309c565b92915050565b5f819050919050565b6130d6816130c4565b81146130e0575f80fd5b50565b5f813590506130f1816130cd565b92915050565b5f806040838503121561310d5761310c612fbe565b5b5f61311a858286016130e3565b925050602061312b85828601612fe5565b9150509250929050565b5f6020828403121561314a57613149612fbe565b5b5f6131578482850161303f565b91505092915050565b5f6020828403121561317557613174612fbe565b5b5f61318284828501612fe5565b91505092915050565b61319481613018565b82525050565b6131a3816130c4565b82525050565b6131b281613091565b82525050565b5f6bffffffffffffffffffffffff82169050919050565b6131d8816131b8565b82525050565b61014082015f8201516131f35f85018261318b565b506020820151613206602085018261318b565b506040820151613219604085018261318b565b50606082015161322c606085018261319a565b50608082015161323f608085018261319a565b5060a082015161325260a08501826131a9565b5060c082015161326560c08501826131a9565b5060e082015161327860e085018261318b565b5061010082015161328d6101008501826131cf565b506101208201516132a261012085018261319a565b50505050565b5f610140820190506132bc5f8301846131de565b92915050565b6132cb816131b8565b81146132d5575f80fd5b50565b5f813590506132e6816132c2565b92915050565b5f80fd5b5f80fd5b5f80fd5b5f8083601f84011261330d5761330c6132ec565b5b8235905067ffffffffffffffff81111561332a576133296132f0565b5b602083019150836001820283011115613346576133456132f4565b5b9250929050565b5f805f805f805f8060e0898b03121561336957613368612fbe565b5b5f6133768b828c0161303f565b98505060206133878b828c016130e3565b97505060406133988b828c016132d8565b96505060606133a98b828c0161303f565b95505060806133ba8b828c016130e3565b94505060a06133cb8b828c0161303f565b93505060c089013567ffffffffffffffff8111156133ec576133eb612fc2565b5b6133f88b828c016132f8565b92509250509295985092959890939650565b61341381612fc6565b82525050565b5f60208201905061342c5f83018461340a565b92915050565b5f805f805f60a0868803121561344b5761344a612fbe565b5b5f6134588882890161303f565b9550506020613469888289016130e3565b945050604061347a888289016130e3565b935050606061348b888289016130e3565b925050608061349c888289016130e3565b9150509295509295909350565b608082015f8201516134bd5f85018261319a565b5060208201516134d0602085018261319a565b5060408201516134e3604085018261319a565b5060608201516134f6606085018261319a565b50505050565b5f60808201905061350f5f8301846134a9565b92915050565b61351e81613018565b82525050565b5f6020820190506135375f830184613515565b92915050565b5f805f6060848603121561355457613553612fbe565b5b5f61356186828701612fe5565b93505060206135728682870161303f565b9250506040613583868287016130e3565b9150509250925092565b5f67ffffffffffffffff82169050919050565b6135a98161358d565b81146135b3575f80fd5b50565b5f813590506135c4816135a0565b92915050565b5f805f80608085870312156135e2576135e1612fbe565b5b5f6135ef87828801612fe5565b945050602061360087828801612fe5565b93505060406136118782880161303f565b9250506060613622878288016135b6565b91505092959194509250565b5f82825260208201905092915050565b7f476174657761793a207a65726f206164647265737300000000000000000000005f82015250565b5f61367260158361362e565b915061367d8261363e565b602082019050919050565b5f6020820190508181035f83015261369f81613666565b9050919050565b7f476174657761793a207472656173757279206164647265737320616c726561645f8201527f7920736574000000000000000000000000000000000000000000000000000000602082015250565b5f61370060258361362e565b915061370b826136a6565b604082019050919050565b5f6020820190508181035f83015261372d816136f4565b9050919050565b7f476174657761793a2061676772656761746f72206164647265737320616c72655f8201527f6164792073657400000000000000000000000000000000000000000000000000602082015250565b5f61378e60278361362e565b915061379982613734565b604082019050919050565b5f6020820190508181035f8301526137bb81613782565b9050919050565b7f4f6e6c7941676772656761746f720000000000000000000000000000000000005f82015250565b5f6137f6600e8361362e565b9150613801826137c2565b602082019050919050565b5f6020820190508181035f830152613823816137ea565b9050919050565b7f4f7264657246756c66696c6c65640000000000000000000000000000000000005f82015250565b5f61385e600e8361362e565b91506138698261382a565b602082019050919050565b5f6020820190508181035f83015261388b81613852565b9050919050565b7f4f72646572526566756e646564000000000000000000000000000000000000005f82015250565b5f6138c6600d8361362e565b91506138d182613892565b602082019050919050565b5f6020820190508181035f8301526138f3816138ba565b9050919050565b7f4665654578636565647350726f746f636f6c46656500000000000000000000005f82015250565b5f61392e60158361362e565b9150613939826138fa565b602082019050919050565b5f6020820190508181035f83015261395b81613922565b9050919050565b61396b816130c4565b82525050565b5f6040820190506139845f830185613515565b6139916020830184613962565b9392505050565b6139a181613091565b81146139ab575f80fd5b50565b5f815190506139bc81613998565b92915050565b5f602082840312156139d7576139d6612fbe565b5b5f6139e4848285016139ae565b91505092915050565b7f4e487b71000000000000000000000000000000000000000000000000000000005f52601160045260245ffd5b5f613a24826130c4565b9150613a2f836130c4565b9250828203905081811115613a4757613a466139ed565b5b92915050565b5f613a57826130c4565b9150613a62836130c4565b9250828201905080821115613a7a57613a796139ed565b5b92915050565b5f602082019050613a935f830184613962565b92915050565b7f4f776e61626c6532537465703a2063616c6c6572206973206e6f7420746865205f8201527f6e6577206f776e65720000000000000000000000000000000000000000000000602082015250565b5f613af360298361362e565b9150613afe82613a99565b604082019050919050565b5f6020820190508181035f830152613b2081613ae7565b9050919050565b7f496e76616c69644d6573736167654861736800000000000000000000000000005f82015250565b5f613b5b60128361362e565b9150613b6682613b27565b602082019050919050565b5f6020820190508181035f830152613b8881613b4f565b9050919050565b5f606082019050613ba25f830186613515565b613baf6020830185613515565b613bbc6040830184613962565b949350505050565b5f613bce826130c4565b91507fffffffffffffffffffffffffffffffffffffffffffffffffffffffffffffffff8203613c0057613bff6139ed565b5b600182019050919050565b5f606082019050613c1e5f830186613515565b613c2b6020830185613962565b613c386040830184613962565b949350505050565b7f4f72646572416c726561647945786973747300000000000000000000000000005f82015250565b5f613c7460128361362e565b9150613c7f82613c40565b602082019050919050565b5f6020820190508181035f830152613ca181613c68565b9050919050565b7f546f6b656e46656553657474696e67734e6f74436f6e666967757265640000005f82015250565b5f613cdc601d8361362e565b9150613ce782613ca8565b602082019050919050565b5f6020820190508181035f830152613d0981613cd0565b9050919050565b5f613d1a826130c4565b9150613d25836130c4565b9250828202613d33816130c4565b91508282048414831517613d4a57613d496139ed565b5b5092915050565b7f4e487b71000000000000000000000000000000000000000000000000000000005f52601260045260245ffd5b5f613d88826130c4565b9150613d93836130c4565b925082613da357613da2613d51565b5b828204905092915050565b5f819050919050565b5f613dd1613dcc613dc7846131b8565b613dae565b6130c4565b9050919050565b613de181613db7565b82525050565b828183375f83830152505050565b5f601f19601f8301169050919050565b5f613e10838561362e565b9350613e1d838584613de7565b613e2683613df5565b840190509392505050565b5f608082019050613e445f830188613962565b613e51602083018761340a565b613e5e6040830186613dd8565b8181036060830152613e71818486613e05565b90509695505050505050565b7f496e697469616c697a61626c653a20636f6e747261637420697320616c7265615f8201527f647920696e697469616c697a6564000000000000000000000000000000000000602082015250565b5f613ed7602e8361362e565b9150613ee282613e7d565b604082019050919050565b5f6020820190508181035f830152613f0481613ecb565b9050919050565b5f819050919050565b5f60ff82169050919050565b5f613f3a613f35613f3084613f0b565b613dae565b613f14565b9050919050565b613f4a81613f20565b82525050565b5f602082019050613f635f830184613f41565b92915050565b7f476174657761793a20746f6b656e206e6f7420737570706f72746564000000005f82015250565b5f613f9d601c8361362e565b9150613fa882613f69565b602082019050919050565b5f6020820190508181035f830152613fca81613f91565b9050919050565b7f476174657761793a20696e76616c69642073656e64657220746f2070726f76695f8201527f6465720000000000000000000000000000000000000000000000000000000000602082015250565b5f61402b60238361362e565b915061403682613fd1565b604082019050919050565b5f6020820190508181035f8301526140588161401f565b9050919050565b7f476174657761793a20696e76616c69642070726f766964657220746f206167675f8201527f72656761746f7200000000000000000000000000000000000000000000000000602082015250565b5f6140b960278361362e565b91506140c48261405f565b604082019050919050565b5f6020820190508181035f8301526140e6816140ad565b9050919050565b7f476174657761793a20696e76616c69642073656e64657220746f2061676772655f8201527f6761746f72000000000000000000000000000000000000000000000000000000602082015250565b5f61414760258361362e565b9150614152826140ed565b604082019050919050565b5f6020820190508181035f8301526141748161413b565b9050919050565b7f476174657761793a20696e76616c69642070726f766964657220746f206167675f8201527f72656761746f7220667800000000000000000000000000000000000000000000602082015250565b5f6141d5602a8361362e565b91506141e08261417b565b604082019050919050565b5f6020820190508181035f830152614202816141c9565b9050919050565b5f60808201905061421c5f830187613962565b6142296020830186613962565b6142366040830185613962565b6142436060830184613962565b95945050505050565b7f476174657761793a20696e76616c6964207374617475730000000000000000005f82015250565b5f61428060178361362e565b915061428b8261424c565b602082019050919050565b5f6020820190508181035f8301526142ad81614274565b9050919050565b5f6142be826131b8565b91506142c9836131b8565b925082820390506bffffffffffffffffffffffff8111156142ed576142ec6139ed565b5b92915050565b5f61430d6143086143038461358d565b613dae565b6131b8565b9050919050565b61431d816142f3565b82525050565b5f6040820190506143365f83018561340a565b6143436020830184614314565b9392505050565b7f4f776e61626c653a2063616c6c6572206973206e6f7420746865206f776e65725f82015250565b5f61437e60208361362e565b91506143898261434a565b602082019050919050565b5f6020820190508181035f8301526143ab81614372565b9050919050565b7f5061757361626c653a20706175736564000000000000000000000000000000005f82015250565b5f6143e660108361362e565b91506143f1826143b2565b602082019050919050565b5f6020820190508181035f830152614413816143da565b9050919050565b7f546f6b656e4e6f74537570706f727465640000000000000000000000000000005f82015250565b5f61444e60118361362e565b91506144598261441a565b602082019050919050565b5f6020820190508181035f83015261447b81614442565b9050919050565b7f416d6f756e7449735a65726f00000000000000000000000000000000000000005f82015250565b5f6144b6600c8361362e565b91506144c182614482565b602082019050919050565b5f6020820190508181035f8301526144e3816144aa565b9050919050565b7f5468726f775a65726f41646472657373000000000000000000000000000000005f82015250565b5f61451e60108361362e565b9150614529826144ea565b602082019050919050565b5f6020820190508181035f83015261454b81614512565b9050919050565b7f496e76616c696453656e646572466565526563697069656e74000000000000005f82015250565b5f61458660198361362e565b915061459182614552565b602082019050919050565b5f6020820190508181035f8301526145b38161457a565b9050919050565b7f496e697469616c697a61626c653a20636f6e7472616374206973206e6f7420695f8201527f6e697469616c697a696e67000000000000000000000000000000000000000000602082015250565b5f614614602b8361362e565b915061461f826145ba565b604082019050919050565b5f6020820190508181035f83015261464181614608565b9050919050565b5f60408201905061465b5f830185613962565b6146686020830184613962565b9392505050565b5f6060820190506146825f830186613962565b61468f6020830185613962565b61469c6040830184613962565b949350505050565b7f5061757361626c653a206e6f74207061757365640000000000000000000000005f82015250565b5f6146d860148361362e565b91506146e3826146a4565b602082019050919050565b5f6020820190508181035f830152614705816146cc565b905091905056fea2646970667358221220ffe72916bc4dbfe6628a11b9938835e26313fa9013fd8d77eb54b44bb883611664736f6c63430008140033",
  "linkReferences": {},
  "deployedLinkReferences": {}
}