{
  "_format": "hh-sol-artifact-1",
  "contractName": "Gateway",
  "sourceName": "contracts/Gateway.sol",
  "abi": [
    {
      "inputs": [],
      "stateMutability": "nonpayable",
      "type": "constructor"
    },
    {
      "anonymous": false,
      "inputs": [
        {
          "indexed": true,
          "internalType": "bytes32",
          "name": "orderId",
          "type": "bytes32"
        },
        {
          "indexed": false,
          "internalType": "uint256",
          "name": "senderAmount",
          "type": "uint256"
        },
        {
          "indexed": false,
          "internalType": "uint256",
          "name": "aggregatorAmount",
          "type": "uint256"
        }
      ],
      "name": "FxTransferFeeSplit",
      "type": "event"
    },
    {
      "anonymous": false,
      "inputs": [
        {
          "indexed": false,
          "internalType": "uint8",
          "name": "version",
          "type": "uint8"
        }
      ],
      "name": "Initialized",
      "type": "event"
    },
    {
      "anonymous": false,
      "inputs": [
        {
          "indexed": true,
          "internalType": "bytes32",
          "name": "orderId",
          "type": "bytes32"
        },
        {
          "indexed": false,
          "internalType": "uint256",
          "name": "senderAmount",
          "type": "uint256"
        },
        {
          "indexed": false,
          "internalType": "uint256",
          "name": "providerAmount",
          "type": "uint256"
        },
        {
          "indexed": false,
          "internalType": "uint256",
          "name": "aggregatorAmount",
          "type": "uint256"
        }
      ],
      "name": "LocalTransferFeeSplit",
      "type": "event"
    },
    {
      "anonymous": false,
      "inputs": [
        {
          "indexed": true,
          "internalType": "address",
          "name": "sender",
          "type": "address"
        },
        {
          "indexed": true,
          "internalType": "address",
          "name": "token",
          "type": "address"
        },
        {
          "indexed": true,
          "internalType": "uint256",
          "name": "amount",
          "type": "uint256"
        },
        {
          "indexed": false,
          "internalType": "uint256",
          "name": "protocolFee",
          "type": "uint256"
        },
        {
          "indexed": false,
          "internalType": "bytes32",
          "name": "orderId",
          "type": "bytes32"
        },
        {
          "indexed": false,
          "internalType": "uint256",
          "name": "rate",
          "type": "uint256"
        },
        {
          "indexed": false,
          "internalType": "string",
          "name": "messageHash",
          "type": "string"
        }
      ],
      "name": "OrderCreated",
      "type": "event"
    },
    {
      "anonymous": false,
      "inputs": [
        {
          "indexed": false,
          "internalType": "uint256",
          "name": "fee",
          "type": "uint256"
        },
        {
          "indexed": true,
          "internalType": "bytes32",
          "name": "orderId",
          "type": "bytes32"
        }
      ],
      "name": "OrderRefunded",
      "type": "event"
    },
    {
      "anonymous": false,
      "inputs": [
        {
          "indexed": false,
          "internalType": "bytes32",
          "name": "splitOrderId",
          "type": "bytes32"
        },
        {
          "indexed": true,
          "internalType": "bytes32",
          "name": "orderId",
          "type": "bytes32"
        },
        {
          "indexed": true,
          "internalType": "address",
          "name": "liquidityProvider",
          "type": "address"
        },
        {
          "indexed": false,
          "internalType": "uint96",
          "name": "settlePercent",
          "type": "uint96"
        }
      ],
      "name": "OrderSettled",
      "type": "event"
    },
    {
      "anonymous": false,
      "inputs": [
        {
          "indexed": true,
          "internalType": "address",
          "name": "previousOwner",
          "type": "address"
        },
        {
          "indexed": true,
          "internalType": "address",
          "name": "newOwner",
          "type": "address"
        }
      ],
      "name": "OwnershipTransferStarted",
      "type": "event"
    },
    {
      "anonymous": false,
      "inputs": [
        {
          "indexed": true,
          "internalType": "address",
          "name": "previousOwner",
          "type": "address"
        },
        {
          "indexed": true,
          "internalType": "address",
          "name": "newOwner",
          "type": "address"
        }
      ],
      "name": "OwnershipTransferred",
      "type": "event"
    },
    {
      "anonymous": false,
      "inputs": [
        {
          "indexed": false,
          "internalType": "address",
          "name": "account",
          "type": "address"
        }
      ],
      "name": "Paused",
      "type": "event"
    },
    {
      "anonymous": false,
      "inputs": [
        {
          "indexed": true,
          "internalType": "bytes32",
          "name": "what",
          "type": "bytes32"
        },
        {
          "indexed": true,
          "internalType": "address",
          "name": "treasuryAddress",
          "type": "address"
        }
      ],
      "name": "ProtocolAddressUpdated",
      "type": "event"
    },
    {
      "anonymous": false,
      "inputs": [
        {
          "indexed": true,
          "internalType": "address",
          "name": "sender",
          "type": "address"
        },
        {
          "indexed": true,
          "internalType": "uint256",
          "name": "amount",
          "type": "uint256"
        }
      ],
      "name": "SenderFeeTransferred",
      "type": "event"
    },
    {
      "anonymous": false,
      "inputs": [
        {
          "indexed": true,
          "internalType": "address",
          "name": "treasuryAddress",
          "type": "address"
        }
      ],
      "name": "SetFeeRecipient",
      "type": "event"
    },
    {
      "anonymous": false,
      "inputs": [
        {
          "indexed": true,
          "internalType": "bytes32",
          "name": "what",
          "type": "bytes32"
        },
        {
          "indexed": true,
          "internalType": "address",
          "name": "value",
          "type": "address"
        },
        {
          "indexed": false,
          "internalType": "uint256",
          "name": "status",
          "type": "uint256"
        }
      ],
      "name": "SettingManagerBool",
      "type": "event"
    },
    {
      "anonymous": false,
      "inputs": [
        {
          "indexed": true,
          "internalType": "address",
          "name": "token",
          "type": "address"
        },
        {
          "indexed": false,
          "internalType": "uint256",
          "name": "senderToProvider",
          "type": "uint256"
        },
        {
          "indexed": false,
          "internalType": "uint256",
          "name": "providerToAggregator",
          "type": "uint256"
        },
        {
          "indexed": false,
          "internalType": "uint256",
          "name": "senderToAggregator",
          "type": "uint256"
        },
        {
          "indexed": false,
          "internalType": "uint256",
          "name": "providerToAggregatorFx",
          "type": "uint256"
        }
      ],
      "name": "TokenFeeSettingsUpdated",
      "type": "event"
    },
    {
      "anonymous": false,
      "inputs": [
        {
          "indexed": false,
          "internalType": "address",
          "name": "account",
          "type": "address"
        }
      ],
      "name": "Unpaused",
      "type": "event"
    },
    {
      "inputs": [],
      "name": "acceptOwnership",
      "outputs": [],
      "stateMutability": "nonpayable",
      "type": "function"
    },
    {
      "inputs": [
        {
          "internalType": "address",
          "name": "_token",
          "type": "address"
        },
        {
          "internalType": "uint256",
          "name": "_amount",
          "type": "uint256"
        },
        {
          "internalType": "uint96",
          "name": "_rate",
          "type": "uint96"
        },
        {
          "internalType": "address",
          "name": "_senderFeeRecipient",
          "type": "address"
        },
        {
          "internalType": "uint256",
          "name": "_senderFee",
          "type": "uint256"
        },
        {
          "internalType": "address",
          "name": "_refundAddress",
          "type": "address"
        },
        {
          "internalType": "string",
          "name": "messageHash",
          "type": "string"
        }
      ],
      "name": "createOrder",
      "outputs": [
        {
          "internalType": "bytes32",
          "name": "orderId",
          "type": "bytes32"
        }
      ],
      "stateMutability": "nonpayable",
      "type": "function"
    },
    {
      "inputs": [
        {
          "internalType": "bytes32",
          "name": "_orderId",
          "type": "bytes32"
        }
      ],
      "name": "getOrderInfo",
      "outputs": [
        {
          "components": [
            {
              "internalType": "address",
              "name": "sender",
              "type": "address"
            },
            {
              "internalType": "address",
              "name": "token",
              "type": "address"
            },
            {
              "internalType": "address",
              "name": "senderFeeRecipient",
              "type": "address"
            },
            {
              "internalType": "uint256",
              "name": "senderFee",
              "type": "uint256"
            },
            {
              "internalType": "uint256",
              "name": "protocolFee",
              "type": "uint256"
            },
            {
              "internalType": "bool",
              "name": "isFulfilled",
              "type": "bool"
            },
            {
              "internalType": "bool",
              "name": "isRefunded",
              "type": "bool"
            },
            {
              "internalType": "address",
              "name": "refundAddress",
              "type": "address"
            },
            {
              "internalType": "uint96",
              "name": "currentBPS",
              "type": "uint96"
            },
            {
              "internalType": "uint256",
              "name": "amount",
              "type": "uint256"
            }
          ],
          "internalType": "struct IGateway.Order",
          "name": "",
          "type": "tuple"
        }
      ],
      "stateMutability": "view",
      "type": "function"
    },
    {
      "inputs": [
        {
          "internalType": "address",
          "name": "token",
          "type": "address"
        }
      ],
      "name": "getTokenFeeSettings",
      "outputs": [
        {
          "components": [
            {
              "internalType": "uint256",
              "name": "senderToProvider",
              "type": "uint256"
            },
            {
              "internalType": "uint256",
              "name": "providerToAggregator",
              "type": "uint256"
            },
            {
              "internalType": "uint256",
              "name": "senderToAggregator",
              "type": "uint256"
            },
            {
              "internalType": "uint256",
              "name": "providerToAggregatorFx",
              "type": "uint256"
            }
          ],
          "internalType": "struct GatewaySettingManager.TokenFeeSettings",
          "name": "",
          "type": "tuple"
        }
      ],
      "stateMutability": "view",
      "type": "function"
    },
    {
      "inputs": [],
      "name": "initialize",
      "outputs": [],
      "stateMutability": "nonpayable",
      "type": "function"
    },
    {
      "inputs": [
        {
          "internalType": "address",
          "name": "_token",
          "type": "address"
        }
      ],
      "name": "isTokenSupported",
      "outputs": [
        {
          "internalType": "bool",
          "name": "",
          "type": "bool"
        }
      ],
      "stateMutability": "view",
      "type": "function"
    },
    {
      "inputs": [],
      "name": "owner",
      "outputs": [
        {
          "internalType": "address",
          "name": "",
          "type": "address"
        }
      ],
      "stateMutability": "view",
      "type": "function"
    },
    {
      "inputs": [],
      "name": "pause",
      "outputs": [],
      "stateMutability": "nonpayable",
      "type": "function"
    },
    {
      "inputs": [],
      "name": "paused",
      "outputs": [
        {
          "internalType": "bool",
          "name": "",
          "type": "bool"
        }
      ],
      "stateMutability": "view",
      "type": "function"
    },
    {
      "inputs": [],
      "name": "pendingOwner",
      "outputs": [
        {
          "internalType": "address",
          "name": "",
          "type": "address"
        }
      ],
      "stateMutability": "view",
      "type": "function"
    },
    {
      "inputs": [
        {
          "internalType": "uint256",
          "name": "_fee",
          "type": "uint256"
        },
        {
          "internalType": "bytes32",
          "name": "_orderId",
          "type": "bytes32"
        }
      ],
      "name": "refund",
      "outputs": [
        {
          "internalType": "bool",
          "name": "",
          "type": "bool"
        }
      ],
      "stateMutability": "nonpayable",
      "type": "function"
    },
    {
      "inputs": [],
      "name": "renounceOwnership",
      "outputs": [],
      "stateMutability": "nonpayable",
      "type": "function"
    },
    {
      "inputs": [
        {
          "internalType": "address",
          "name": "token",
          "type": "address"
        },
        {
          "internalType": "uint256",
          "name": "senderToProvider",
          "type": "uint256"
        },
        {
          "internalType": "uint256",
          "name": "providerToAggregator",
          "type": "uint256"
        },
        {
          "internalType": "uint256",
          "name": "senderToAggregator",
          "type": "uint256"
        },
        {
          "internalType": "uint256",
          "name": "providerToAggregatorFx",
          "type": "uint256"
        }
      ],
      "name": "setTokenFeeSettings",
      "outputs": [],
      "stateMutability": "nonpayable",
      "type": "function"
    },
    {
      "inputs": [
        {
          "internalType": "bytes32",
          "name": "what",
          "type": "bytes32"
        },
        {
          "internalType": "address",
          "name": "value",
          "type": "address"
        },
        {
          "internalType": "uint256",
          "name": "status",
          "type": "uint256"
        }
      ],
      "name": "settingManagerBool",
      "outputs": [],
      "stateMutability": "nonpayable",
      "type": "function"
    },
    {
      "inputs": [
        {
          "internalType": "bytes32",
          "name": "_splitOrderId",
          "type": "bytes32"
        },
        {
          "internalType": "bytes32",
          "name": "_orderId",
          "type": "bytes32"
        },
        {
          "internalType": "address",
          "name": "_liquidityProvider",
          "type": "address"
        },
        {
          "internalType": "uint64",
          "name": "_settlePercent",
          "type": "uint64"
        }
      ],
      "name": "settle",
      "outputs": [
        {
          "internalType": "bool",
          "name": "",
          "type": "bool"
        }
      ],
      "stateMutability": "nonpayable",
      "type": "function"
    },
    {
      "inputs": [
        {
          "internalType": "address",
          "name": "newOwner",
          "type": "address"
        }
      ],
      "name": "transferOwnership",
      "outputs": [],
      "stateMutability": "nonpayable",
      "type": "function"
    },
    {
      "inputs": [],
      "name": "unpause",
      "outputs": [],
      "stateMutability": "nonpayable",
      "type": "function"
    },
    {
      "inputs": [
        {
          "internalType": "bytes32",
          "name": "what",
          "type": "bytes32"
        },
        {
          "internalType": "address",
          "name": "value",
          "type": "address"
        }
      ],
      "name": "updateProtocolAddress",
      "outputs": [],
      "stateMutability": "nonpayable",
      "type": "function"
    }
  ],
  "bytecode": "0x608060405234801562000010575f80fd5b50620000216200002760201b60201c565b620001c6565b5f60019054906101000a900460ff161562000079576040517f08c379a000000000000000000000000000000000000000000000000000000000815260040162000070906200016e565b60405180910390fd5b60ff80165f8054906101000a900460ff1660ff1614620000e85760ff5f806101000a81548160ff021916908360ff1602179055507f7f26b83ff96e1f2b6a682f133852f6798a09c465da95921460cefb384740249860ff604051620000df9190620001ab565b60405180910390a15b565b5f82825260208201905092915050565b7f496e697469616c697a61626c653a20636f6e747261637420697320696e6974695f8201527f616c697a696e6700000000000000000000000000000000000000000000000000602082015250565b5f62000156602783620000ea565b91506200016382620000fa565b604082019050919050565b5f6020820190508181035f830152620001878162000148565b9050919050565b5f60ff82169050919050565b620001a5816200018e565b82525050565b5f602082019050620001c05f8301846200019a565b92915050565b6146ac80620001d45f395ff3fe608060405234801561000f575f80fd5b5060043610610114575f3560e01c80638129fc1c116100a05780638da5cb5b1161006f5780638da5cb5b14610290578063cd992400146102ae578063e30c3978146102ca578063f22ee704146102e8578063f2fde38b1461031857610114565b80638129fc1c146102305780638456cb591461023a578063898861b0146102445780638bfa05491461026057610114565b806371eedb88116100e757806371eedb881461016657806375151b6314610196578063768c6ec0146101c657806379ba5097146101f6578063809804f71461020057610114565b80633f4ba83a1461011857806340ebc677146101225780635c975abb1461013e578063715018a61461015c575b5f80fd5b610120610334565b005b61013c60048036038101906101379190612fbd565b610346565b005b61014661060a565b6040516101539190613015565b60405180910390f35b61016461061f565b005b610180600480360381019061017b9190613061565b610632565b60405161018d9190613015565b60405180910390f35b6101b060048036038101906101ab919061309f565b610a8d565b6040516101bd9190613015565b60405180910390f35b6101e060048036038101906101db91906130ca565b610ae5565b6040516101ed9190613212565b60405180910390f35b6101fe610cf5565b005b61021a600480360381019061021591906132b7565b610d81565b6040516102279190613383565b60405180910390f35b6102386113c6565b005b610242611510565b005b61025e6004803603810190610259919061339c565b611522565b005b61027a6004803603810190610275919061309f565b6117a0565b6040516102879190613466565b60405180910390f35b61029861181e565b6040516102a5919061348e565b60405180910390f35b6102c860048036038101906102c391906134a7565b611846565b005b6102d26119c8565b6040516102df919061348e565b60405180910390f35b61030260048036038101906102fd9190613534565b6119f0565b60405161030f9190613015565b60405180910390f35b610332600480360381019061032d919061309f565b611fb4565b005b61033c612060565b6103446120de565b565b61034e612060565b5f73ffffffffffffffffffffffffffffffffffffffff168173ffffffffffffffffffffffffffffffffffffffff16036103bc576040517f08c379a00000000000000000000000000000000000000000000000000000000081526004016103b3906135f2565b60405180910390fd5b5f7f747265617375727900000000000000000000000000000000000000000000000083036104be578173ffffffffffffffffffffffffffffffffffffffff16609860089054906101000a900473ffffffffffffffffffffffffffffffffffffffff1673ffffffffffffffffffffffffffffffffffffffff1603610474576040517f08c379a000000000000000000000000000000000000000000000000000000000815260040161046b90613680565b60405180910390fd5b81609860086101000a81548173ffffffffffffffffffffffffffffffffffffffff021916908373ffffffffffffffffffffffffffffffffffffffff160217905550600190506105ba565b7f61676772656761746f720000000000000000000000000000000000000000000083036105b9578173ffffffffffffffffffffffffffffffffffffffff1660995f9054906101000a900473ffffffffffffffffffffffffffffffffffffffff1673ffffffffffffffffffffffffffffffffffffffff1603610574576040517f08c379a000000000000000000000000000000000000000000000000000000000815260040161056b9061370e565b60405180910390fd5b8160995f6101000a81548173ffffffffffffffffffffffffffffffffffffffff021916908373ffffffffffffffffffffffffffffffffffffffff160217905550600190505b5b8015610605578173ffffffffffffffffffffffffffffffffffffffff16837fbbc5b96e57cfecb3dbeeadf92e87f15e58e64fcd75cbe256dcc5d9ef2e51e8a460405160405180910390a35b505050565b5f60cd5f9054906101000a900460ff16905090565b610627612060565b6106305f61213f565b565b5f60995f9054906101000a900473ffffffffffffffffffffffffffffffffffffffff1673ffffffffffffffffffffffffffffffffffffffff163373ffffffffffffffffffffffffffffffffffffffff16146106c2576040517f08c379a00000000000000000000000000000000000000000000000000000000081526004016106b990613776565b60405180910390fd5b60ff5f8381526020019081526020015f206005015f9054906101000a900460ff1615610723576040517f08c379a000000000000000000000000000000000000000000000000000000000815260040161071a906137de565b60405180910390fd5b60ff5f8381526020019081526020015f2060050160019054906101000a900460ff1615610785576040517f08c379a000000000000000000000000000000000000000000000000000000000815260040161077c90613846565b60405180910390fd5b8260ff5f8481526020019081526020015f206004015410156107dc576040517f08c379a00000000000000000000000000000000000000000000000000000000081526004016107d3906138ae565b60405180910390fd5b5f8311156108b65760ff5f8381526020019081526020015f206001015f9054906101000a900473ffffffffffffffffffffffffffffffffffffffff1673ffffffffffffffffffffffffffffffffffffffff1663a9059cbb609860089054906101000a900473ffffffffffffffffffffffffffffffffffffffff16856040518363ffffffff1660e01b81526004016108749291906138db565b6020604051808303815f875af1158015610890573d5f803e3d5ffd5b505050506040513d601f19601f820116820180604052508101906108b4919061392c565b505b600160ff5f8481526020019081526020015f2060050160016101000a81548160ff0219169083151502179055505f60ff5f8481526020019081526020015f206006015f6101000a8154816bffffffffffffffffffffffff02191690836bffffffffffffffffffffffff1602179055505f8360ff5f8581526020019081526020015f20600701546109469190613984565b905060ff5f8481526020019081526020015f206001015f9054906101000a900473ffffffffffffffffffffffffffffffffffffffff1673ffffffffffffffffffffffffffffffffffffffff1663a9059cbb60ff5f8681526020019081526020015f2060050160029054906101000a900473ffffffffffffffffffffffffffffffffffffffff1660ff5f8781526020019081526020015f2060030154846109ec91906139b7565b6040518363ffffffff1660e01b8152600401610a099291906138db565b6020604051808303815f875af1158015610a25573d5f803e3d5ffd5b505050506040513d601f19601f82011682018060405250810190610a49919061392c565b50827f0736fe428e1747ca8d387c2e6fa1a31a0cde62d3a167c40a46ade59a3cdc828e85604051610a7a91906139ea565b60405180910390a2600191505092915050565b5f6001609a5f8473ffffffffffffffffffffffffffffffffffffffff1673ffffffffffffffffffffffffffffffffffffffff1681526020019081526020015f205403610adc5760019050610ae0565b5f90505b919050565b610aed612e51565b60ff5f8381526020019081526020015f20604051806101400160405290815f82015f9054906101000a900473ffffffffffffffffffffffffffffffffffffffff1673ffffffffffffffffffffffffffffffffffffffff1673ffffffffffffffffffffffffffffffffffffffff168152602001600182015f9054906101000a900473ffffffffffffffffffffffffffffffffffffffff1673ffffffffffffffffffffffffffffffffffffffff1673ffffffffffffffffffffffffffffffffffffffff168152602001600282015f9054906101000a900473ffffffffffffffffffffffffffffffffffffffff1673ffffffffffffffffffffffffffffffffffffffff1673ffffffffffffffffffffffffffffffffffffffff1681526020016003820154815260200160048201548152602001600582015f9054906101000a900460ff161515151581526020016005820160019054906101000a900460ff161515151581526020016005820160029054906101000a900473ffffffffffffffffffffffffffffffffffffffff1673ffffffffffffffffffffffffffffffffffffffff1673ffffffffffffffffffffffffffffffffffffffff168152602001600682015f9054906101000a90046bffffffffffffffffffffffff166bffffffffffffffffffffffff166bffffffffffffffffffffffff1681526020016007820154815250509050919050565b5f610cfe61216f565b90508073ffffffffffffffffffffffffffffffffffffffff16610d1f6119c8565b73ffffffffffffffffffffffffffffffffffffffff1614610d75576040517f08c379a0000000000000000000000000000000000000000000000000000000008152600401610d6c90613a73565b60405180910390fd5b610d7e8161213f565b50565b5f610d8a612176565b610d9789898689896121c0565b5f8383905003610ddc576040517f08c379a0000000000000000000000000000000000000000000000000000000008152600401610dd390613adb565b60405180910390fd5b8873ffffffffffffffffffffffffffffffffffffffff166323b872dd3330888c610e0691906139b7565b6040518463ffffffff1660e01b8152600401610e2493929190613af9565b6020604051808303815f875af1158015610e40573d5f803e3d5ffd5b505050506040513d601f19601f82011682018060405250810190610e64919061392c565b506101005f3373ffffffffffffffffffffffffffffffffffffffff1673ffffffffffffffffffffffffffffffffffffffff1681526020019081526020015f205f815480929190610eb390613b2e565b9190505550336101005f3373ffffffffffffffffffffffffffffffffffffffff1673ffffffffffffffffffffffffffffffffffffffff1681526020019081526020015f205446604051602001610f0b93929190613b75565b6040516020818303038152906040528051906020012090505f73ffffffffffffffffffffffffffffffffffffffff1660ff5f8381526020019081526020015f205f015f9054906101000a900473ffffffffffffffffffffffffffffffffffffffff1673ffffffffffffffffffffffffffffffffffffffff1614610fc3576040517f08c379a0000000000000000000000000000000000000000000000000000000008152600401610fba90613bf4565b60405180910390fd5b5f6064886bffffffffffffffffffffffff1603610fe2575f90506110bb565b5f609b5f8c73ffffffffffffffffffffffffffffffffffffffff1673ffffffffffffffffffffffffffffffffffffffff1681526020019081526020015f206040518060800160405290815f8201548152602001600182015481526020016002820154815260200160038201548152505090505f81606001511161109a576040517f08c379a000000000000000000000000000000000000000000000000000000000815260040161109190613c5c565b60405180910390fd5b60975481606001518b6110ad9190613c7a565b6110b79190613ce8565b9150505b6040518061014001604052803373ffffffffffffffffffffffffffffffffffffffff1681526020018b73ffffffffffffffffffffffffffffffffffffffff1681526020018873ffffffffffffffffffffffffffffffffffffffff1681526020018781526020018281526020015f151581526020015f151581526020018673ffffffffffffffffffffffffffffffffffffffff16815260200160975467ffffffffffffffff166bffffffffffffffffffffffff1681526020018a81525060ff5f8481526020019081526020015f205f820151815f015f6101000a81548173ffffffffffffffffffffffffffffffffffffffff021916908373ffffffffffffffffffffffffffffffffffffffff1602179055506020820151816001015f6101000a81548173ffffffffffffffffffffffffffffffffffffffff021916908373ffffffffffffffffffffffffffffffffffffffff1602179055506040820151816002015f6101000a81548173ffffffffffffffffffffffffffffffffffffffff021916908373ffffffffffffffffffffffffffffffffffffffff160217905550606082015181600301556080820151816004015560a0820151816005015f6101000a81548160ff02191690831515021790555060c08201518160050160016101000a81548160ff02191690831515021790555060e08201518160050160026101000a81548173ffffffffffffffffffffffffffffffffffffffff021916908373ffffffffffffffffffffffffffffffffffffffff160217905550610100820151816006015f6101000a8154816bffffffffffffffffffffffff02191690836bffffffffffffffffffffffff160217905550610120820151816007015590505060ff5f8381526020019081526020015f20600701548a73ffffffffffffffffffffffffffffffffffffffff168673ffffffffffffffffffffffffffffffffffffffff167f40ccd1ceb111a3c186ef9911e1b876dc1f789ed331b86097b3b8851055b6a13784868d8a8a6040516113b1959493929190613d9b565b60405180910390a45098975050505050505050565b5f8060019054906101000a900460ff161590508080156113f5575060015f8054906101000a900460ff1660ff16105b8061142157506114043061236d565b158015611420575060015f8054906101000a900460ff1660ff16145b5b611460576040517f08c379a000000000000000000000000000000000000000000000000000000000815260040161145790613e57565b60405180910390fd5b60015f806101000a81548160ff021916908360ff160217905550801561149b5760015f60016101000a81548160ff0219169083151502179055505b620186a06097819055506114ad61238f565b6114b56123e7565b801561150d575f8060016101000a81548160ff0219169083151502179055507f7f26b83ff96e1f2b6a682f133852f6798a09c465da95921460cefb384740249860016040516115049190613eba565b60405180910390a15b50565b611518612060565b61152061243f565b565b61152a612060565b6001609a5f8773ffffffffffffffffffffffffffffffffffffffff1673ffffffffffffffffffffffffffffffffffffffff1681526020019081526020015f2054146115aa576040517f08c379a00000000000000000000000000000000000000000000000000000000081526004016115a190613f1d565b60405180910390fd5b6097548411156115ef576040517f08c379a00000000000000000000000000000000000000000000000000000000081526004016115e690613fab565b60405180910390fd5b609754831115611634576040517f08c379a000000000000000000000000000000000000000000000000000000000815260040161162b90614039565b60405180910390fd5b609754821115611679576040517f08c379a0000000000000000000000000000000000000000000000000000000008152600401611670906140c7565b60405180910390fd5b6097548111156116be576040517f08c379a00000000000000000000000000000000000000000000000000000000081526004016116b590614155565b60405180910390fd5b604051806080016040528085815260200184815260200183815260200182815250609b5f8773ffffffffffffffffffffffffffffffffffffffff1673ffffffffffffffffffffffffffffffffffffffff1681526020019081526020015f205f820151815f01556020820151816001015560408201518160020155606082015181600301559050508473ffffffffffffffffffffffffffffffffffffffff167fd4d646cffa66ebf695b792bd660c97076ed45a889e14d544eb8ab8a44b34a59c858585856040516117919493929190614173565b60405180910390a25050505050565b6117a8612f04565b609b5f8373ffffffffffffffffffffffffffffffffffffffff1673ffffffffffffffffffffffffffffffffffffffff1681526020019081526020015f206040518060800160405290815f820154815260200160018201548152602001600282015481526020016003820154815250509050919050565b5f60335f9054906101000a900473ffffffffffffffffffffffffffffffffffffffff16905090565b61184e612060565b5f73ffffffffffffffffffffffffffffffffffffffff168273ffffffffffffffffffffffffffffffffffffffff16036118bc576040517f08c379a00000000000000000000000000000000000000000000000000000000081526004016118b3906135f2565b60405180910390fd5b60018114806118cb5750600281145b61190a576040517f08c379a000000000000000000000000000000000000000000000000000000000815260040161190190614200565b60405180910390fd5b7f746f6b656e00000000000000000000000000000000000000000000000000000083036119c35780609a5f8473ffffffffffffffffffffffffffffffffffffffff1673ffffffffffffffffffffffffffffffffffffffff1681526020019081526020015f20819055508173ffffffffffffffffffffffffffffffffffffffff16837fcfa976492af7c14a916cc3a239f4c9c75bbd7f5f0e398beb41d892c7eeccae4c836040516119ba91906139ea565b60405180910390a35b505050565b5f60655f9054906101000a900473ffffffffffffffffffffffffffffffffffffffff16905090565b5f60995f9054906101000a900473ffffffffffffffffffffffffffffffffffffffff1673ffffffffffffffffffffffffffffffffffffffff163373ffffffffffffffffffffffffffffffffffffffff1614611a80576040517f08c379a0000000000000000000000000000000000000000000000000000000008152600401611a7790613776565b60405180910390fd5b60ff5f8581526020019081526020015f206005015f9054906101000a900460ff1615611ae1576040517f08c379a0000000000000000000000000000000000000000000000000000000008152600401611ad8906137de565b60405180910390fd5b60ff5f8581526020019081526020015f2060050160019054906101000a900460ff1615611b43576040517f08c379a0000000000000000000000000000000000000000000000000000000008152600401611b3a90613846565b60405180910390fd5b5f60ff5f8681526020019081526020015f206001015f9054906101000a900473ffffffffffffffffffffffffffffffffffffffff1690505f60ff5f8781526020019081526020015f206006015f9054906101000a90046bffffffffffffffffffffffff166bffffffffffffffffffffffff1690508367ffffffffffffffff1660ff5f8881526020019081526020015f206006015f8282829054906101000a90046bffffffffffffffffffffffff16611bfb919061421e565b92506101000a8154816bffffffffffffffffffffffff02191690836bffffffffffffffffffffffff1602179055505f60ff5f8881526020019081526020015f206006015f9054906101000a90046bffffffffffffffffffffffff166bffffffffffffffffffffffff1603611ce657600160ff5f8881526020019081526020015f206005015f6101000a81548160ff0219169083151502179055505f60ff5f8881526020019081526020015f206003015414611ce5575f60ff5f8881526020019081526020015f206004015403611cda57611cd586866124a1565b611ce4565b611ce386612906565b5b5b5b5f818567ffffffffffffffff1660ff5f8a81526020019081526020015f2060070154611d129190613c7a565b611d1c9190613ce8565b90508060ff5f8981526020019081526020015f206007015f828254611d419190613984565b925050819055505f60ff5f8981526020019081526020015f20600401541115611ed8575f609b5f60ff5f8b81526020019081526020015f206001015f9054906101000a900473ffffffffffffffffffffffffffffffffffffffff1673ffffffffffffffffffffffffffffffffffffffff1673ffffffffffffffffffffffffffffffffffffffff1681526020019081526020015f206040518060800160405290815f8201548152602001600182015481526020016002820154815260200160038201548152505090505f609754826060015184611e1d9190613c7a565b611e279190613ce8565b90508083611e359190613984565b92508473ffffffffffffffffffffffffffffffffffffffff1663a9059cbb609860089054906101000a900473ffffffffffffffffffffffffffffffffffffffff16836040518363ffffffff1660e01b8152600401611e949291906138db565b6020604051808303815f875af1158015611eb0573d5f803e3d5ffd5b505050506040513d601f19601f82011682018060405250810190611ed4919061392c565b5050505b8273ffffffffffffffffffffffffffffffffffffffff1663a9059cbb87836040518363ffffffff1660e01b8152600401611f139291906138db565b6020604051808303815f875af1158015611f2f573d5f803e3d5ffd5b505050506040513d601f19601f82011682018060405250810190611f53919061392c565b508573ffffffffffffffffffffffffffffffffffffffff16877f98ece21e01a01cbe1d1c0dad3b053c8fbd368f99be78be958fcf1d1d13fd249a8a88604051611f9d92919061428d565b60405180910390a360019350505050949350505050565b611fbc612060565b8060655f6101000a81548173ffffffffffffffffffffffffffffffffffffffff021916908373ffffffffffffffffffffffffffffffffffffffff1602179055508073ffffffffffffffffffffffffffffffffffffffff1661201b61181e565b73ffffffffffffffffffffffffffffffffffffffff167f38d16b8cac22d99fc7c124b9cd0de2d3fa1faef420bfe791d8c362d765e2270060405160405180910390a350565b61206861216f565b73ffffffffffffffffffffffffffffffffffffffff1661208661181e565b73ffffffffffffffffffffffffffffffffffffffff16146120dc576040517f08c379a00000000000000000000000000000000000000000000000000000000081526004016120d3906142fe565b60405180910390fd5b565b6120e6612c7c565b5f60cd5f6101000a81548160ff0219169083151502179055507f5db9ee0a495bf2e6ff9c91a7834c1ba4fdd244a5e8aa4e537bd38aeae4b073aa61212861216f565b604051612135919061348e565b60405180910390a1565b60655f6101000a81549073ffffffffffffffffffffffffffffffffffffffff021916905561216c81612cc5565b50565b5f33905090565b61217e61060a565b156121be576040517f08c379a00000000000000000000000000000000000000000000000000000000081526004016121b590614366565b60405180910390fd5b565b6001609a5f8773ffffffffffffffffffffffffffffffffffffffff1673ffffffffffffffffffffffffffffffffffffffff1681526020019081526020015f205414612240576040517f08c379a0000000000000000000000000000000000000000000000000000000008152600401612237906143ce565b60405180910390fd5b5f8403612282576040517f08c379a000000000000000000000000000000000000000000000000000000000815260040161227990614436565b60405180910390fd5b5f73ffffffffffffffffffffffffffffffffffffffff168373ffffffffffffffffffffffffffffffffffffffff16036122f0576040517f08c379a00000000000000000000000000000000000000000000000000000000081526004016122e79061449e565b60405180910390fd5b5f8114612366575f73ffffffffffffffffffffffffffffffffffffffff168273ffffffffffffffffffffffffffffffffffffffff1603612365576040517f08c379a000000000000000000000000000000000000000000000000000000000815260040161235c90614506565b60405180910390fd5b5b5050505050565b5f808273ffffffffffffffffffffffffffffffffffffffff163b119050919050565b5f60019054906101000a900460ff166123dd576040517f08c379a00000000000000000000000000000000000000000000000000000000081526004016123d490614594565b60405180910390fd5b6123e5612d88565b565b5f60019054906101000a900460ff16612435576040517f08c379a000000000000000000000000000000000000000000000000000000000815260040161242c90614594565b60405180910390fd5b61243d612de8565b565b612447612176565b600160cd5f6101000a81548160ff0219169083151502179055507f62e78cea01bee320cd4e420270b5ea74000d11b0c9f74754ebdbfc544b05a25861248a61216f565b604051612497919061348e565b60405180910390a1565b5f609b5f60ff5f8681526020019081526020015f206001015f9054906101000a900473ffffffffffffffffffffffffffffffffffffffff1673ffffffffffffffffffffffffffffffffffffffff1673ffffffffffffffffffffffffffffffffffffffff1681526020019081526020015f206040518060800160405290815f8201548152602001600182015481526020016002820154815260200160038201548152505090505f60ff5f8581526020019081526020015f206003015490505f609754835f0151836125719190613c7a565b61257b9190613ce8565b90505f6097548460200151836125919190613c7a565b61259b9190613ce8565b90505f82846125aa9190613984565b90505f8111156126975760ff5f8881526020019081526020015f206001015f9054906101000a900473ffffffffffffffffffffffffffffffffffffffff1673ffffffffffffffffffffffffffffffffffffffff1663a9059cbb60ff5f8a81526020019081526020015f206002015f9054906101000a900473ffffffffffffffffffffffffffffffffffffffff16836040518363ffffffff1660e01b81526004016126559291906138db565b6020604051808303815f875af1158015612671573d5f803e3d5ffd5b505050506040513d601f19601f82011682018060405250810190612695919061392c565b505b5f82846126a49190613984565b11156127655760ff5f8881526020019081526020015f206001015f9054906101000a900473ffffffffffffffffffffffffffffffffffffffff1673ffffffffffffffffffffffffffffffffffffffff1663a9059cbb8784866127069190613984565b6040518363ffffffff1660e01b81526004016127239291906138db565b6020604051808303815f875af115801561273f573d5f803e3d5ffd5b505050506040513d601f19601f82011682018060405250810190612763919061392c565b505b5f82111561283f5760ff5f8881526020019081526020015f206001015f9054906101000a900473ffffffffffffffffffffffffffffffffffffffff1673ffffffffffffffffffffffffffffffffffffffff1663a9059cbb609860089054906101000a900473ffffffffffffffffffffffffffffffffffffffff16846040518363ffffffff1660e01b81526004016127fd9291906138db565b6020604051808303815f875af1158015612819573d5f803e3d5ffd5b505050506040513d601f19601f8201168201806040525081019061283d919061392c565b505b8060ff5f8981526020019081526020015f206002015f9054906101000a900473ffffffffffffffffffffffffffffffffffffffff1673ffffffffffffffffffffffffffffffffffffffff167f44f6938ca4a10313aabb76f874cced61e35710a734a126e4afb34461bf8c250160405160405180910390a3867f831c7cc0006d91462607c476603366c48469d125de6228c0791a7090efd7f7a48284866128e59190613984565b856040516128f5939291906145b2565b60405180910390a250505050505050565b5f609b5f60ff5f8581526020019081526020015f206001015f9054906101000a900473ffffffffffffffffffffffffffffffffffffffff1673ffffffffffffffffffffffffffffffffffffffff1673ffffffffffffffffffffffffffffffffffffffff1681526020019081526020015f206040518060800160405290815f8201548152602001600182015481526020016002820154815260200160038201548152505090505f60ff5f8481526020019081526020015f206003015490505f60975483604001516097546129d99190613984565b836129e49190613c7a565b6129ee9190613ce8565b90505f81836129fd9190613984565b90505f821115612aea5760ff5f8681526020019081526020015f206001015f9054906101000a900473ffffffffffffffffffffffffffffffffffffffff1673ffffffffffffffffffffffffffffffffffffffff1663a9059cbb60ff5f8881526020019081526020015f206002015f9054906101000a900473ffffffffffffffffffffffffffffffffffffffff16846040518363ffffffff1660e01b8152600401612aa89291906138db565b6020604051808303815f875af1158015612ac4573d5f803e3d5ffd5b505050506040513d601f19601f82011682018060405250810190612ae8919061392c565b505b5f811115612bc45760ff5f8681526020019081526020015f206001015f9054906101000a900473ffffffffffffffffffffffffffffffffffffffff1673ffffffffffffffffffffffffffffffffffffffff1663a9059cbb609860089054906101000a900473ffffffffffffffffffffffffffffffffffffffff16836040518363ffffffff1660e01b8152600401612b829291906138db565b6020604051808303815f875af1158015612b9e573d5f803e3d5ffd5b505050506040513d601f19601f82011682018060405250810190612bc2919061392c565b505b8160ff5f8781526020019081526020015f206002015f9054906101000a900473ffffffffffffffffffffffffffffffffffffffff1673ffffffffffffffffffffffffffffffffffffffff167f44f6938ca4a10313aabb76f874cced61e35710a734a126e4afb34461bf8c250160405160405180910390a3847f88592047496a7850992dc5e8cd92a9b633cef0d191a4f5e87fd745c7d382630a8383604051612c6d9291906145e7565b60405180910390a25050505050565b612c8461060a565b612cc3576040517f08c379a0000000000000000000000000000000000000000000000000000000008152600401612cba90614658565b60405180910390fd5b565b5f60335f9054906101000a900473ffffffffffffffffffffffffffffffffffffffff1690508160335f6101000a81548173ffffffffffffffffffffffffffffffffffffffff021916908373ffffffffffffffffffffffffffffffffffffffff1602179055508173ffffffffffffffffffffffffffffffffffffffff168173ffffffffffffffffffffffffffffffffffffffff167f8be0079c531659141344cd1fd0a4f28419497f9722a3daafe3b4186f6b6457e060405160405180910390a35050565b5f60019054906101000a900460ff16612dd6576040517f08c379a0000000000000000000000000000000000000000000000000000000008152600401612dcd90614594565b60405180910390fd5b612de6612de161216f565b61213f565b565b5f60019054906101000a900460ff16612e36576040517f08c379a0000000000000000000000000000000000000000000000000000000008152600401612e2d90614594565b60405180910390fd5b5f60cd5f6101000a81548160ff021916908315150217905550565b6040518061014001604052805f73ffffffffffffffffffffffffffffffffffffffff1681526020015f73ffffffffffffffffffffffffffffffffffffffff1681526020015f73ffffffffffffffffffffffffffffffffffffffff1681526020015f81526020015f81526020015f151581526020015f151581526020015f73ffffffffffffffffffffffffffffffffffffffff1681526020015f6bffffffffffffffffffffffff1681526020015f81525090565b60405180608001604052805f81526020015f81526020015f81526020015f81525090565b5f80fd5b5f80fd5b5f819050919050565b612f4281612f30565b8114612f4c575f80fd5b50565b5f81359050612f5d81612f39565b92915050565b5f73ffffffffffffffffffffffffffffffffffffffff82169050919050565b5f612f8c82612f63565b9050919050565b612f9c81612f82565b8114612fa6575f80fd5b50565b5f81359050612fb781612f93565b92915050565b5f8060408385031215612fd357612fd2612f28565b5b5f612fe085828601612f4f565b9250506020612ff185828601612fa9565b9150509250929050565b5f8115159050919050565b61300f81612ffb565b82525050565b5f6020820190506130285f830184613006565b92915050565b5f819050919050565b6130408161302e565b811461304a575f80fd5b50565b5f8135905061305b81613037565b92915050565b5f806040838503121561307757613076612f28565b5b5f6130848582860161304d565b925050602061309585828601612f4f565b9150509250929050565b5f602082840312156130b4576130b3612f28565b5b5f6130c184828501612fa9565b91505092915050565b5f602082840312156130df576130de612f28565b5b5f6130ec84828501612f4f565b91505092915050565b6130fe81612f82565b82525050565b61310d8161302e565b82525050565b61311c81612ffb565b82525050565b5f6bffffffffffffffffffffffff82169050919050565b61314281613122565b82525050565b61014082015f82015161315d5f8501826130f5565b50602082015161317060208501826130f5565b50604082015161318360408501826130f5565b5060608201516131966060850182613104565b5060808201516131a96080850182613104565b5060a08201516131bc60a0850182613113565b5060c08201516131cf60c0850182613113565b5060e08201516131e260e08501826130f5565b506101008201516131f7610100850182613139565b5061012082015161320c610120850182613104565b50505050565b5f610140820190506132265f830184613148565b92915050565b61323581613122565b811461323f575f80fd5b50565b5f813590506132508161322c565b92915050565b5f80fd5b5f80fd5b5f80fd5b5f8083601f84011261327757613276613256565b5b8235905067ffffffffffffffff8111156132945761329361325a565b5b6020830191508360018202830111156132b0576132af61325e565b5b9250929050565b5f805f805f805f8060e0898b0312156132d3576132d2612f28565b5b5f6132e08b828c01612fa9565b98505060206132f18b828c0161304d565b97505060406133028b828c01613242565b96505060606133138b828c01612fa9565b95505060806133248b828c0161304d565b94505060a06133358b828c01612fa9565b93505060c089013567ffffffffffffffff81111561335657613355612f2c565b5b6133628b828c01613262565b92509250509295985092959890939650565b61337d81612f30565b82525050565b5f6020820190506133965f830184613374565b92915050565b5f805f805f60a086880312156133b5576133b4612f28565b5b5f6133c288828901612fa9565b95505060206133d38882890161304d565b94505060406133e48882890161304d565b93505060606133f58882890161304d565b92505060806134068882890161304d565b9150509295509295909350565b608082015f8201516134275f850182613104565b50602082015161343a6020850182613104565b50604082015161344d6040850182613104565b5060608201516134606060850182613104565b50505050565b5f6080820190506134795f830184613413565b92915050565b61348881612f82565b82525050565b5f6020820190506134a15f83018461347f565b92915050565b5f805f606084860312156134be576134bd612f28565b5b5f6134cb86828701612f4f565b93505060206134dc86828701612fa9565b92505060406134ed8682870161304d565b9150509250925092565b5f67ffffffffffffffff82169050919050565b613513816134f7565b811461351d575f80fd5b50565b5f8135905061352e8161350a565b92915050565b5f805f806080858703121561354c5761354b612f28565b5b5f61355987828801612f4f565b945050602061356a87828801612f4f565b935050604061357b87828801612fa9565b925050606061358c87828801613520565b91505092959194509250565b5f82825260208201905092915050565b7f476174657761793a207a65726f206164647265737300000000000000000000005f82015250565b5f6135dc601583613598565b91506135e7826135a8565b602082019050919050565b5f6020820190508181035f830152613609816135d0565b9050919050565b7f476174657761793a207472656173757279206164647265737320616c726561645f8201527f7920736574000000000000000000000000000000000000000000000000000000602082015250565b5f61366a602583613598565b915061367582613610565b604082019050919050565b5f6020820190508181035f8301526136978161365e565b9050919050565b7f476174657761793a2061676772656761746f72206164647265737320616c72655f8201527f6164792073657400000000000000000000000000000000000000000000000000602082015250565b5f6136f8602783613598565b91506137038261369e565b604082019050919050565b5f6020820190508181035f830152613725816136ec565b9050919050565b7f4f6e6c7941676772656761746f720000000000000000000000000000000000005f82015250565b5f613760600e83613598565b915061376b8261372c565b602082019050919050565b5f6020820190508181035f83015261378d81613754565b9050919050565b7f4f7264657246756c66696c6c65640000000000000000000000000000000000005f82015250565b5f6137c8600e83613598565b91506137d382613794565b602082019050919050565b5f6020820190508181035f8301526137f5816137bc565b9050919050565b7f4f72646572526566756e646564000000000000000000000000000000000000005f82015250565b5f613830600d83613598565b915061383b826137fc565b602082019050919050565b5f6020820190508181035f83015261385d81613824565b9050919050565b7f4665654578636565647350726f746f636f6c46656500000000000000000000005f82015250565b5f613898601583613598565b91506138a382613864565b602082019050919050565b5f6020820190508181035f8301526138c58161388c565b9050919050565b6138d58161302e565b82525050565b5f6040820190506138ee5f83018561347f565b6138fb60208301846138cc565b9392505050565b61390b81612ffb565b8114613915575f80fd5b50565b5f8151905061392681613902565b92915050565b5f6020828403121561394157613940612f28565b5b5f61394e84828501613918565b91505092915050565b7f4e487b71000000000000000000000000000000000000000000000000000000005f52601160045260245ffd5b5f61398e8261302e565b91506139998361302e565b92508282039050818111156139b1576139b0613957565b5b92915050565b5f6139c18261302e565b91506139cc8361302e565b92508282019050808211156139e4576139e3613957565b5b92915050565b5f6020820190506139fd5f8301846138cc565b92915050565b7f4f776e61626c6532537465703a2063616c6c6572206973206e6f7420746865205f8201527f6e6577206f776e65720000000000000000000000000000000000000000000000602082015250565b5f613a5d602983613598565b9150613a6882613a03565b604082019050919050565b5f6020820190508181035f830152613a8a81613a51565b9050919050565b7f496e76616c69644d6573736167654861736800000000000000000000000000005f82015250565b5f613ac5601283613598565b9150613ad082613a91565b602082019050919050565b5f6020820190508181035f830152613af281613ab9565b9050919050565b5f606082019050613b0c5f83018661347f565b613b19602083018561347f565b613b2660408301846138cc565b949350505050565b5f613b388261302e565b91507fffffffffffffffffffffffffffffffffffffffffffffffffffffffffffffffff8203613b6a57613b69613957565b5b600182019050919050565b5f606082019050613b885f83018661347f565b613b9560208301856138cc565b613ba260408301846138cc565b949350505050565b7f4f72646572416c726561647945786973747300000000000000000000000000005f82015250565b5f613bde601283613598565b9150613be982613baa565b602082019050919050565b5f6020820190508181035f830152613c0b81613bd2565b9050919050565b7f546f6b656e46656553657474696e67734e6f74436f6e666967757265640000005f82015250565b5f613c46601d83613598565b9150613c5182613c12565b602082019050919050565b5f6020820190508181035f830152613c7381613c3a565b9050919050565b5f613c848261302e565b9150613c8f8361302e565b9250828202613c9d8161302e565b91508282048414831517613cb457613cb3613957565b5b5092915050565b7f4e487b71000000000000000000000000000000000000000000000000000000005f52601260045260245ffd5b5f613cf28261302e565b9150613cfd8361302e565b925082613d0d57613d0c613cbb565b5b828204905092915050565b5f819050919050565b5f613d3b613d36613d3184613122565b613d18565b61302e565b9050919050565b613d4b81613d21565b82525050565b828183375f83830152505050565b5f601f19601f8301169050919050565b5f613d7a8385613598565b9350613d87838584613d51565b613d9083613d5f565b840190509392505050565b5f608082019050613dae5f8301886138cc565b613dbb6020830187613374565b613dc86040830186613d42565b8181036060830152613ddb818486613d6f565b90509695505050505050565b7f496e697469616c697a61626c653a20636f6e747261637420697320616c7265615f8201527f647920696e697469616c697a6564000000000000000000000000000000000000602082015250565b5f613e41602e83613598565b9150613e4c82613de7565b604082019050919050565b5f6020820190508181035f830152613e6e81613e35565b9050919050565b5f819050919050565b5f60ff82169050919050565b5f613ea4613e9f613e9a84613e75565b613d18565b613e7e565b9050919050565b613eb481613e8a565b82525050565b5f602082019050613ecd5f830184613eab565b92915050565b7f476174657761793a20746f6b656e206e6f7420737570706f72746564000000005f82015250565b5f613f07601c83613598565b9150613f1282613ed3565b602082019050919050565b5f6020820190508181035f830152613f3481613efb565b9050919050565b7f476174657761793a20696e76616c69642073656e64657220746f2070726f76695f8201527f6465720000000000000000000000000000000000000000000000000000000000602082015250565b5f613f95602383613598565b9150613fa082613f3b565b604082019050919050565b5f6020820190508181035f830152613fc281613f89565b9050919050565b7f476174657761793a20696e76616c69642070726f766964657220746f206167675f8201527f72656761746f7200000000000000000000000000000000000000000000000000602082015250565b5f614023602783613598565b915061402e82613fc9565b604082019050919050565b5f6020820190508181035f83015261405081614017565b9050919050565b7f476174657761793a20696e76616c69642073656e64657220746f2061676772655f8201527f6761746f72000000000000000000000000000000000000000000000000000000602082015250565b5f6140b1602583613598565b91506140bc82614057565b604082019050919050565b5f6020820190508181035f8301526140de816140a5565b9050919050565b7f476174657761793a20696e76616c69642070726f766964657220746f206167675f8201527f72656761746f7220667800000000000000000000000000000000000000000000602082015250565b5f61413f602a83613598565b915061414a826140e5565b604082019050919050565b5f6020820190508181035f83015261416c81614133565b9050919050565b5f6080820190506141865f8301876138cc565b61419360208301866138cc565b6141a060408301856138cc565b6141ad60608301846138cc565b95945050505050565b7f476174657761793a20696e76616c6964207374617475730000000000000000005f82015250565b5f6141ea601783613598565b91506141f5826141b6565b602082019050919050565b5f6020820190508181035f830152614217816141de565b9050919050565b5f61422882613122565b915061423383613122565b925082820390506bffffffffffffffffffffffff81111561425757614256613957565b5b92915050565b5f61427761427261426d846134f7565b613d18565b613122565b9050919050565b6142878161425d565b82525050565b5f6040820190506142a05f830185613374565b6142ad602083018461427e565b9392505050565b7f4f776e61626c653a2063616c6c6572206973206e6f7420746865206f776e65725f82015250565b5f6142e8602083613598565b91506142f3826142b4565b602082019050919050565b5f6020820190508181035f830152614315816142dc565b9050919050565b7f5061757361626c653a20706175736564000000000000000000000000000000005f82015250565b5f614350601083613598565b915061435b8261431c565b602082019050919050565b5f6020820190508181035f83015261437d81614344565b9050919050565b7f546f6b656e4e6f74537570706f727465640000000000000000000000000000005f82015250565b5f6143b8601183613598565b91506143c382614384565b602082019050919050565b5f6020820190508181035f8301526143e5816143ac565b9050919050565b7f416d6f756e7449735a65726f00000000000000000000000000000000000000005f82015250565b5f614420600c83613598565b915061442b826143ec565b602082019050919050565b5f6020820190508181035f83015261444d81614414565b9050919050565b7f5468726f775a65726f41646472657373000000000000000000000000000000005f82015250565b5f614488601083613598565b915061449382614454565b602082019050919050565b5f6020820190508181035f8301526144b58161447c565b9050919050565b7f496e76616c696453656e646572466565526563697069656e74000000000000005f82015250565b5f6144f0601983613598565b91506144fb826144bc565b602082019050919050565b5f6020820190508181035f83015261451d816144e4565b9050919050565b7f496e697469616c697a61626c653a20636f6e7472616374206973206e6f7420695f8201527f6e697469616c697a696e67000000000000000000000000000000000000000000602082015250565b5f61457e602b83613598565b915061458982614524565b604082019050919050565b5f6020820190508181035f8301526145ab81614572565b9050919050565b5f6060820190506145c55f8301866138cc565b6145d260208301856138cc565b6145df60408301846138cc565b949350505050565b5f6040820190506145fa5f8301856138cc565b61460760208301846138cc565b9392505050565b7f5061757361626c653a206e6f74207061757365640000000000000000000000005f82015250565b5f614642601483613598565b915061464d8261460e565b602082019050919050565b5f6020820190508181035f83015261466f81614636565b905091905056fea26469706673582212205a5a61868504775f9a71fa08d59e6dba2f402873cd6482522572b3c08a72d7c264736f6c63430008140033",
  "linkReferences": {},
  "deployedLinkReferences": {}
}