{
  "_format": "hh-sol-artifact-1",
  "contractName": "Gateway",
  "sourceName": "contracts/Gateway.sol",
  "abi": [
    {
      "inputs": [],
      "stateMutability": "nonpayable",
      "type": "constructor"
    },
    {
      "anonymous": false,
      "inputs": [
        {
          "indexed": true,
          "internalType": "address",
          "name": "sender",
          "type": "address"
        },
        {
          "indexed": true,
          "internalType": "address",
          "name": "token",
          "type": "address"
        },
        {
          "indexed": true,
          "internalType": "uint256",
          "name": "amount",
          "type": "uint256"
        }
      ],
      "name": "Deposit",
      "type": "event"
    },
    {
      "anonymous": false,
      "inputs": [
        {
          "indexed": false,
          "internalType": "uint8",
          "name": "version",
          "type": "uint8"
        }
      ],
      "name": "Initialized",
      "type": "event"
    },
    {
      "anonymous": false,
      "inputs": [
        {
          "indexed": true,
          "internalType": "address",
          "name": "sender",
          "type": "address"
        },
        {
          "indexed": true,
          "internalType": "address",
          "name": "token",
          "type": "address"
        },
        {
          "indexed": true,
          "internalType": "uint256",
          "name": "amount",
          "type": "uint256"
        },
        {
          "indexed": false,
          "internalType": "uint256",
          "name": "protocolFee",
          "type": "uint256"
        },
        {
          "indexed": false,
          "internalType": "bytes32",
          "name": "orderId",
          "type": "bytes32"
        },
        {
          "indexed": false,
          "internalType": "uint256",
          "name": "rate",
          "type": "uint256"
        },
        {
          "indexed": false,
          "internalType": "string",
          "name": "messageHash",
          "type": "string"
        }
      ],
      "name": "OrderCreated",
      "type": "event"
    },
    {
      "anonymous": false,
      "inputs": [
        {
          "indexed": false,
          "internalType": "uint256",
          "name": "fee",
          "type": "uint256"
        },
        {
          "indexed": true,
          "internalType": "bytes32",
          "name": "orderId",
          "type": "bytes32"
        }
      ],
      "name": "OrderRefunded",
      "type": "event"
    },
    {
      "anonymous": false,
      "inputs": [
        {
          "indexed": true,
          "internalType": "address",
          "name": "provider",
          "type": "address"
        },
        {
          "indexed": true,
          "internalType": "address",
          "name": "senderAddress",
          "type": "address"
        },
        {
          "indexed": true,
          "internalType": "uint256",
          "name": "amount",
          "type": "uint256"
        },
        {
          "indexed": false,
          "internalType": "address",
          "name": "token",
          "type": "address"
        },
        {
          "indexed": false,
          "internalType": "bytes32",
          "name": "orderId",
          "type": "bytes32"
        }
      ],
      "name": "OrderSettledIn",
      "type": "event"
    },
    {
      "anonymous": false,
      "inputs": [
        {
          "indexed": false,
          "internalType": "bytes32",
          "name": "splitOrderId",
          "type": "bytes32"
        },
        {
          "indexed": true,
          "internalType": "bytes32",
          "name": "orderId",
          "type": "bytes32"
        },
        {
          "indexed": true,
          "internalType": "address",
          "name": "liquidityProvider",
          "type": "address"
        },
        {
          "indexed": false,
          "internalType": "uint96",
          "name": "settlePercent",
          "type": "uint96"
        }
      ],
      "name": "OrderSettledOut",
      "type": "event"
    },
    {
      "anonymous": false,
      "inputs": [
        {
          "indexed": true,
          "internalType": "address",
          "name": "previousOwner",
          "type": "address"
        },
        {
          "indexed": true,
          "internalType": "address",
          "name": "newOwner",
          "type": "address"
        }
      ],
      "name": "OwnershipTransferStarted",
      "type": "event"
    },
    {
      "anonymous": false,
      "inputs": [
        {
          "indexed": true,
          "internalType": "address",
          "name": "previousOwner",
          "type": "address"
        },
        {
          "indexed": true,
          "internalType": "address",
          "name": "newOwner",
          "type": "address"
        }
      ],
      "name": "OwnershipTransferred",
      "type": "event"
    },
    {
      "anonymous": false,
      "inputs": [
        {
          "indexed": false,
          "internalType": "address",
          "name": "account",
          "type": "address"
        }
      ],
      "name": "Paused",
      "type": "event"
    },
    {
      "anonymous": false,
      "inputs": [
        {
          "indexed": true,
          "internalType": "bytes32",
          "name": "what",
          "type": "bytes32"
        },
        {
          "indexed": true,
          "internalType": "address",
          "name": "treasuryAddress",
          "type": "address"
        }
      ],
      "name": "ProtocolAddressUpdated",
      "type": "event"
    },
    {
      "anonymous": false,
      "inputs": [
        {
          "indexed": false,
          "internalType": "uint64",
          "name": "protocolFee",
          "type": "uint64"
        }
      ],
      "name": "ProtocolFeeUpdated",
      "type": "event"
    },
    {
      "anonymous": false,
      "inputs": [
        {
          "indexed": true,
          "internalType": "address",
          "name": "sender",
          "type": "address"
        },
        {
          "indexed": true,
          "internalType": "uint256",
          "name": "amount",
          "type": "uint256"
        }
      ],
      "name": "SenderFeeTransferred",
      "type": "event"
    },
    {
      "anonymous": false,
      "inputs": [
        {
          "indexed": true,
          "internalType": "address",
          "name": "treasuryAddress",
          "type": "address"
        }
      ],
      "name": "SetFeeRecipient",
      "type": "event"
    },
    {
      "anonymous": false,
      "inputs": [
        {
          "indexed": true,
          "internalType": "bytes32",
          "name": "what",
          "type": "bytes32"
        },
        {
          "indexed": true,
          "internalType": "address",
          "name": "value",
          "type": "address"
        },
        {
          "indexed": false,
          "internalType": "uint256",
          "name": "status",
          "type": "uint256"
        }
      ],
      "name": "SettingManagerBool",
      "type": "event"
    },
    {
      "anonymous": false,
      "inputs": [
        {
          "indexed": false,
          "internalType": "address",
          "name": "account",
          "type": "address"
        }
      ],
      "name": "Unpaused",
      "type": "event"
    },
    {
      "anonymous": false,
      "inputs": [
        {
          "indexed": true,
          "internalType": "address",
          "name": "provider",
          "type": "address"
        },
        {
          "indexed": true,
          "internalType": "address",
          "name": "sender",
          "type": "address"
        },
        {
          "indexed": false,
          "internalType": "uint256",
          "name": "amount",
          "type": "uint256"
        },
        {
          "indexed": true,
          "internalType": "address",
          "name": "token",
          "type": "address"
        }
      ],
      "name": "Withdrawn",
      "type": "event"
    },
    {
      "inputs": [],
      "name": "acceptOwnership",
      "outputs": [],
      "stateMutability": "nonpayable",
      "type": "function"
    },
    {
      "inputs": [
        {
          "internalType": "address",
          "name": "_token",
          "type": "address"
        },
        {
          "internalType": "uint256",
          "name": "_amount",
          "type": "uint256"
        },
        {
          "internalType": "uint96",
          "name": "_rate",
          "type": "uint96"
        },
        {
          "internalType": "address",
          "name": "_senderFeeRecipient",
          "type": "address"
        },
        {
          "internalType": "uint256",
          "name": "_senderFee",
          "type": "uint256"
        },
        {
          "internalType": "address",
          "name": "_refundAddress",
          "type": "address"
        },
        {
          "internalType": "string",
          "name": "messageHash",
          "type": "string"
        }
      ],
      "name": "createOrder",
      "outputs": [
        {
          "internalType": "bytes32",
          "name": "orderId",
          "type": "bytes32"
        }
      ],
      "stateMutability": "nonpayable",
      "type": "function"
    },
    {
      "inputs": [
        {
          "internalType": "address",
          "name": "_token",
          "type": "address"
        },
        {
          "internalType": "uint256",
          "name": "_amount",
          "type": "uint256"
        }
      ],
      "name": "deposit",
      "outputs": [
        {
          "internalType": "bool",
          "name": "",
          "type": "bool"
        }
      ],
      "stateMutability": "nonpayable",
      "type": "function"
    },
    {
      "inputs": [
        {
          "internalType": "address",
          "name": "_token",
          "type": "address"
        },
        {
          "internalType": "address",
          "name": "_provider",
          "type": "address"
        }
      ],
      "name": "getBalance",
      "outputs": [
        {
          "internalType": "uint256",
          "name": "",
          "type": "uint256"
        }
      ],
      "stateMutability": "view",
      "type": "function"
    },
    {
      "inputs": [],
      "name": "getFeeDetails",
      "outputs": [
        {
          "internalType": "uint64",
          "name": "",
          "type": "uint64"
        },
        {
          "internalType": "uint256",
          "name": "",
          "type": "uint256"
        }
      ],
      "stateMutability": "view",
      "type": "function"
    },
    {
      "inputs": [
        {
          "internalType": "bytes32",
          "name": "_orderId",
          "type": "bytes32"
        }
      ],
      "name": "getOrderInfoIn",
      "outputs": [
        {
          "components": [
            {
              "internalType": "uint256",
              "name": "amount",
              "type": "uint256"
            },
            {
              "internalType": "address",
              "name": "provider",
              "type": "address"
            },
            {
              "internalType": "address",
              "name": "sender",
              "type": "address"
            },
            {
              "internalType": "address",
              "name": "token",
              "type": "address"
            },
            {
              "internalType": "bytes32",
              "name": "orderId",
              "type": "bytes32"
            }
          ],
          "internalType": "struct IGateway.OrderIn",
          "name": "",
          "type": "tuple"
        }
      ],
      "stateMutability": "view",
      "type": "function"
    },
    {
      "inputs": [
        {
          "internalType": "bytes32",
          "name": "_orderId",
          "type": "bytes32"
        }
      ],
      "name": "getOrderInfoOut",
      "outputs": [
        {
          "components": [
            {
              "internalType": "address",
              "name": "sender",
              "type": "address"
            },
            {
              "internalType": "address",
              "name": "token",
              "type": "address"
            },
            {
              "internalType": "address",
              "name": "senderFeeRecipient",
              "type": "address"
            },
            {
              "internalType": "uint256",
              "name": "senderFee",
              "type": "uint256"
            },
            {
              "internalType": "uint256",
              "name": "protocolFee",
              "type": "uint256"
            },
            {
              "internalType": "bool",
              "name": "isFulfilled",
              "type": "bool"
            },
            {
              "internalType": "bool",
              "name": "isRefunded",
              "type": "bool"
            },
            {
              "internalType": "address",
              "name": "refundAddress",
              "type": "address"
            },
            {
              "internalType": "uint96",
              "name": "currentBPS",
              "type": "uint96"
            },
            {
              "internalType": "uint256",
              "name": "amount",
              "type": "uint256"
            }
          ],
          "internalType": "struct IGateway.OrderOut",
          "name": "",
          "type": "tuple"
        }
      ],
      "stateMutability": "view",
      "type": "function"
    },
    {
      "inputs": [],
      "name": "initialize",
      "outputs": [],
      "stateMutability": "nonpayable",
      "type": "function"
    },
    {
      "inputs": [
        {
          "internalType": "bytes32",
          "name": "_orderId",
          "type": "bytes32"
        }
      ],
      "name": "isOrderProcessed",
      "outputs": [
        {
          "internalType": "bool",
          "name": "",
          "type": "bool"
        }
      ],
      "stateMutability": "view",
      "type": "function"
    },
    {
      "inputs": [
        {
          "internalType": "address",
          "name": "_token",
          "type": "address"
        }
      ],
      "name": "isTokenSupported",
      "outputs": [
        {
          "internalType": "bool",
          "name": "",
          "type": "bool"
        }
      ],
      "stateMutability": "view",
      "type": "function"
    },
    {
      "inputs": [],
      "name": "owner",
      "outputs": [
        {
          "internalType": "address",
          "name": "",
          "type": "address"
        }
      ],
      "stateMutability": "view",
      "type": "function"
    },
    {
      "inputs": [],
      "name": "pause",
      "outputs": [],
      "stateMutability": "nonpayable",
      "type": "function"
    },
    {
      "inputs": [],
      "name": "paused",
      "outputs": [
        {
          "internalType": "bool",
          "name": "",
          "type": "bool"
        }
      ],
      "stateMutability": "view",
      "type": "function"
    },
    {
      "inputs": [],
      "name": "pendingOwner",
      "outputs": [
        {
          "internalType": "address",
          "name": "",
          "type": "address"
        }
      ],
      "stateMutability": "view",
      "type": "function"
    },
    {
      "inputs": [
        {
          "internalType": "uint256",
          "name": "_fee",
          "type": "uint256"
        },
        {
          "internalType": "bytes32",
          "name": "_orderId",
          "type": "bytes32"
        }
      ],
      "name": "refundOrder",
      "outputs": [
        {
          "internalType": "bool",
          "name": "",
          "type": "bool"
        }
      ],
      "stateMutability": "nonpayable",
      "type": "function"
    },
    {
      "inputs": [],
      "name": "renounceOwnership",
      "outputs": [],
      "stateMutability": "nonpayable",
      "type": "function"
    },
    {
      "inputs": [
        {
          "internalType": "bytes32",
          "name": "what",
          "type": "bytes32"
        },
        {
          "internalType": "address",
          "name": "value",
          "type": "address"
        },
        {
          "internalType": "uint256",
          "name": "status",
          "type": "uint256"
        }
      ],
      "name": "settingManagerBool",
      "outputs": [],
      "stateMutability": "nonpayable",
      "type": "function"
    },
    {
      "inputs": [
        {
          "internalType": "bytes32",
          "name": "_orderId",
          "type": "bytes32"
        },
        {
          "internalType": "bytes",
          "name": "_signature",
          "type": "bytes"
        },
        {
          "internalType": "address",
          "name": "_provider",
          "type": "address"
        },
        {
          "internalType": "address",
          "name": "_sender",
          "type": "address"
        },
        {
          "internalType": "address",
          "name": "_token",
          "type": "address"
        },
        {
          "internalType": "uint256",
          "name": "_amount",
          "type": "uint256"
        }
      ],
      "name": "settleOrderIn",
      "outputs": [],
      "stateMutability": "nonpayable",
      "type": "function"
    },
    {
      "inputs": [
        {
          "internalType": "bytes32",
          "name": "_splitOrderId",
          "type": "bytes32"
        },
        {
          "internalType": "bytes32",
          "name": "_orderId",
          "type": "bytes32"
        },
        {
          "internalType": "address",
          "name": "_provider",
          "type": "address"
        },
        {
          "internalType": "uint64",
          "name": "_settlePercent",
          "type": "uint64"
        }
      ],
      "name": "settleOrderOut",
      "outputs": [
        {
          "internalType": "bool",
          "name": "",
          "type": "bool"
        }
      ],
      "stateMutability": "nonpayable",
      "type": "function"
    },
    {
      "inputs": [
        {
          "internalType": "address",
          "name": "newOwner",
          "type": "address"
        }
      ],
      "name": "transferOwnership",
      "outputs": [],
      "stateMutability": "nonpayable",
      "type": "function"
    },
    {
      "inputs": [],
      "name": "unpause",
      "outputs": [],
      "stateMutability": "nonpayable",
      "type": "function"
    },
    {
      "inputs": [
        {
          "internalType": "bytes32",
          "name": "what",
          "type": "bytes32"
        },
        {
          "internalType": "address",
          "name": "value",
          "type": "address"
        }
      ],
      "name": "updateProtocolAddress",
      "outputs": [],
      "stateMutability": "nonpayable",
      "type": "function"
    },
    {
      "inputs": [
        {
          "internalType": "uint64",
          "name": "_protocolFeePercent",
          "type": "uint64"
        }
      ],
      "name": "updateProtocolFee",
      "outputs": [],
      "stateMutability": "nonpayable",
      "type": "function"
    },
    {
      "inputs": [
        {
          "internalType": "address",
          "name": "provider",
          "type": "address"
        },
        {
          "internalType": "address",
          "name": "recipient",
          "type": "address"
        },
        {
          "internalType": "uint256",
          "name": "_amount",
          "type": "uint256"
        },
        {
          "internalType": "address",
          "name": "_token",
          "type": "address"
        },
        {
          "internalType": "bytes",
          "name": "_signature",
          "type": "bytes"
        }
      ],
      "name": "withdrawFrom",
      "outputs": [
        {
          "internalType": "bool",
          "name": "",
          "type": "bool"
        }
      ],
      "stateMutability": "nonpayable",
      "type": "function"
    }
  ],
  "bytecode": "0x60806040523480156200001157600080fd5b50620000226200002860201b60201c565b620001d2565b600060019054906101000a900460ff16156200007b576040517f08c379a0000000000000000000000000000000000000000000000000000000008152600401620000729062000175565b60405180910390fd5b60ff801660008054906101000a900460ff1660ff1614620000ec5760ff6000806101000a81548160ff021916908360ff1602179055507f7f26b83ff96e1f2b6a682f133852f6798a09c465da95921460cefb384740249860ff604051620000e39190620001b5565b60405180910390a15b565b600082825260208201905092915050565b7f496e697469616c697a61626c653a20636f6e747261637420697320696e69746960008201527f616c697a696e6700000000000000000000000000000000000000000000000000602082015250565b60006200015d602783620000ee565b91506200016a82620000ff565b604082019050919050565b6000602082019050818103600083015262000190816200014e565b9050919050565b600060ff82169050919050565b620001af8162000197565b82525050565b6000602082019050620001cc6000830184620001a4565b92915050565b61565f80620001e26000396000f3fe608060405234801561001057600080fd5b50600436106101575760003560e01c80638129fc1c116100c3578063b682b6671161007c578063b682b667146103b2578063b810c636146103ce578063cd992400146103ed578063d4fac45d14610409578063e30c397814610439578063f2fde38b1461045757610157565b80638129fc1c146102f05780638456cb59146102fa5780638da5cb5b146103045780639a06601f146103225780639bb39e13146103525780639c0fea2c1461038257610157565b806347e7ef241161011557806347e7ef241461022e5780635c975abb1461025e578063715018a61461027c57806375151b631461028657806379ba5097146102b6578063809804f7146102c057610157565b8062b727da1461015c5780631e8e71ec1461018c5780633f4ba83a146101bc57806340ebc677146101c657806347094e2e146101e257806347b0f1cd146101fe575b600080fd5b6101766004803603810190610171919061396a565b610473565b60405161018391906139b2565b60405180910390f35b6101a660048036038101906101a19190613ba7565b61049e565b6040516101b391906139b2565b60405180910390f35b6101c4610897565b005b6101e060048036038101906101db9190613c3e565b6108a9565b005b6101fc60048036038101906101f79190613cbe565b610b71565b005b61021860048036038101906102139190613ceb565b610bdc565b60405161022591906139b2565b60405180910390f35b61024860048036038101906102439190613d2b565b61105a565b60405161025591906139b2565b60405180910390f35b6102666112ac565b60405161027391906139b2565b60405180910390f35b6102846112c3565b005b6102a0600480360381019061029b9190613d6b565b6112d7565b6040516102ad91906139b2565b60405180910390f35b6102be611333565b005b6102da60048036038101906102d59190613e3c565b6113c0565b6040516102e79190613f0d565b60405180910390f35b6102f86118bf565b005b610302611a0f565b005b61030c611a21565b6040516103199190613f37565b60405180910390f35b61033c60048036038101906103379190613f52565b611a4b565b60405161034991906139b2565b60405180910390f35b61036c6004803603810190610367919061396a565b6120af565b60405161037991906140c1565b60405180910390f35b61039c6004803603810190610397919061396a565b6122c7565b6040516103a99190614154565b60405180910390f35b6103cc60048036038101906103c7919061416f565b61240b565b005b6103d6612bc0565b6040516103e4929190614236565b60405180910390f35b6104076004803603810190610402919061425f565b612be5565b005b610423600480360381019061041e91906142b2565b612d6a565b60405161043091906142f2565b60405180910390f35b610441612df2565b60405161044e9190613f37565b60405180910390f35b610471600480360381019061046c9190613d6b565b612e1c565b005b6000610103600083815260200190815260200160002060009054906101000a900460ff169050919050565b600083600081116104e4576040517f08c379a00000000000000000000000000000000000000000000000000000000081526004016104db9061436a565b60405180910390fd5b609960009054906101000a900473ffffffffffffffffffffffffffffffffffffffff1673ffffffffffffffffffffffffffffffffffffffff163373ffffffffffffffffffffffffffffffffffffffff1614610574576040517f08c379a000000000000000000000000000000000000000000000000000000000815260040161056b906143d6565b60405180910390fd5b60008787878760405160200161058d949392919061445f565b60405160208183030381529060405280519060200120905060006105b082612ec9565b905060006105c78683612eff90919063ffffffff16565b90508973ffffffffffffffffffffffffffffffffffffffff168173ffffffffffffffffffffffffffffffffffffffff1614610637576040517f08c379a000000000000000000000000000000000000000000000000000000000815260040161062e906144f9565b60405180910390fd5b8761010260008973ffffffffffffffffffffffffffffffffffffffff1673ffffffffffffffffffffffffffffffffffffffff16815260200190815260200160002060008c73ffffffffffffffffffffffffffffffffffffffff1673ffffffffffffffffffffffffffffffffffffffff1681526020019081526020016000205410156106f7576040517f08c379a00000000000000000000000000000000000000000000000000000000081526004016106ee90614565565b60405180910390fd5b8761010260008973ffffffffffffffffffffffffffffffffffffffff1673ffffffffffffffffffffffffffffffffffffffff16815260200190815260200160002060008c73ffffffffffffffffffffffffffffffffffffffff1673ffffffffffffffffffffffffffffffffffffffff168152602001908152602001600020600082825461078491906145b4565b925050819055508673ffffffffffffffffffffffffffffffffffffffff1663a9059cbb8a8a6040518363ffffffff1660e01b81526004016107c69291906145e8565b6020604051808303816000875af11580156107e5573d6000803e3d6000fd5b505050506040513d601f19601f82011682018060405250810190610809919061463d565b508673ffffffffffffffffffffffffffffffffffffffff168973ffffffffffffffffffffffffffffffffffffffff168b73ffffffffffffffffffffffffffffffffffffffff167f889d364b5102aee044ff370e2e6a836584e5618a16dce4f5b191459cf3903e588b60405161087e91906142f2565b60405180910390a4600194505050505095945050505050565b61089f612f26565b6108a7612fa4565b565b6108b1612f26565b600073ffffffffffffffffffffffffffffffffffffffff168173ffffffffffffffffffffffffffffffffffffffff1603610920576040517f08c379a0000000000000000000000000000000000000000000000000000000008152600401610917906146b6565b60405180910390fd5b60007f74726561737572790000000000000000000000000000000000000000000000008303610a23578173ffffffffffffffffffffffffffffffffffffffff16609860089054906101000a900473ffffffffffffffffffffffffffffffffffffffff1673ffffffffffffffffffffffffffffffffffffffff16036109d9576040517f08c379a00000000000000000000000000000000000000000000000000000000081526004016109d090614748565b60405180910390fd5b81609860086101000a81548173ffffffffffffffffffffffffffffffffffffffff021916908373ffffffffffffffffffffffffffffffffffffffff16021790555060019050610b21565b7f61676772656761746f72000000000000000000000000000000000000000000008303610b20578173ffffffffffffffffffffffffffffffffffffffff16609960009054906101000a900473ffffffffffffffffffffffffffffffffffffffff1673ffffffffffffffffffffffffffffffffffffffff1603610ada576040517f08c379a0000000000000000000000000000000000000000000000000000000008152600401610ad1906147da565b60405180910390fd5b81609960006101000a81548173ffffffffffffffffffffffffffffffffffffffff021916908373ffffffffffffffffffffffffffffffffffffffff160217905550600190505b5b8015610b6c578173ffffffffffffffffffffffffffffffffffffffff16837fbbc5b96e57cfecb3dbeeadf92e87f15e58e64fcd75cbe256dcc5d9ef2e51e8a460405160405180910390a35b505050565b610b79612f26565b80609860006101000a81548167ffffffffffffffff021916908367ffffffffffffffff1602179055507f1ce29a697a4765bd17d91df93ba75b250b629ecf030553ff1f6ab59f15ae6c7b81604051610bd191906147fa565b60405180910390a150565b6000609960009054906101000a900473ffffffffffffffffffffffffffffffffffffffff1673ffffffffffffffffffffffffffffffffffffffff163373ffffffffffffffffffffffffffffffffffffffff1614610c6e576040517f08c379a0000000000000000000000000000000000000000000000000000000008152600401610c65906143d6565b60405180910390fd5b60ff600083815260200190815260200160002060050160009054906101000a900460ff1615610cd2576040517f08c379a0000000000000000000000000000000000000000000000000000000008152600401610cc990614861565b60405180910390fd5b60ff600083815260200190815260200160002060050160019054906101000a900460ff1615610d36576040517f08c379a0000000000000000000000000000000000000000000000000000000008152600401610d2d906148cd565b60405180910390fd5b8260ff6000848152602001908152602001600020600401541015610d8f576040517f08c379a0000000000000000000000000000000000000000000000000000000008152600401610d8690614939565b60405180910390fd5b6000831115610e705760ff600083815260200190815260200160002060010160009054906101000a900473ffffffffffffffffffffffffffffffffffffffff1673ffffffffffffffffffffffffffffffffffffffff1663a9059cbb609860089054906101000a900473ffffffffffffffffffffffffffffffffffffffff16856040518363ffffffff1660e01b8152600401610e2b9291906145e8565b6020604051808303816000875af1158015610e4a573d6000803e3d6000fd5b505050506040513d601f19601f82011682018060405250810190610e6e919061463d565b505b600160ff600084815260200190815260200160002060050160016101000a81548160ff021916908315150217905550600060ff600084815260200190815260200160002060060160006101000a8154816bffffffffffffffffffffffff02191690836bffffffffffffffffffffffff16021790555060008360ff600085815260200190815260200160002060070154610f0991906145b4565b905060ff600084815260200190815260200160002060010160009054906101000a900473ffffffffffffffffffffffffffffffffffffffff1673ffffffffffffffffffffffffffffffffffffffff1663a9059cbb60ff600086815260200190815260200160002060050160029054906101000a900473ffffffffffffffffffffffffffffffffffffffff1660ff60008781526020019081526020016000206003015484610fb69190614959565b6040518363ffffffff1660e01b8152600401610fd39291906145e8565b6020604051808303816000875af1158015610ff2573d6000803e3d6000fd5b505050506040513d601f19601f82011682018060405250810190611016919061463d565b50827f0736fe428e1747ca8d387c2e6fa1a31a0cde62d3a167c40a46ade59a3cdc828e8560405161104791906142f2565b60405180910390a2600191505092915050565b6000826001609a60008373ffffffffffffffffffffffffffffffffffffffff1673ffffffffffffffffffffffffffffffffffffffff16815260200190815260200160002054146110df576040517f08c379a00000000000000000000000000000000000000000000000000000000081526004016110d6906149d9565b60405180910390fd5b8260008111611123576040517f08c379a000000000000000000000000000000000000000000000000000000000815260040161111a9061436a565b60405180910390fd5b600061112d613007565b90508573ffffffffffffffffffffffffffffffffffffffff166323b872dd8230886040518463ffffffff1660e01b815260040161116c939291906149f9565b6020604051808303816000875af115801561118b573d6000803e3d6000fd5b505050506040513d601f19601f820116820180604052508101906111af919061463d565b508461010260008873ffffffffffffffffffffffffffffffffffffffff1673ffffffffffffffffffffffffffffffffffffffff16815260200190815260200160002060008373ffffffffffffffffffffffffffffffffffffffff1673ffffffffffffffffffffffffffffffffffffffff168152602001908152602001600020600082825461123d9190614959565b92505081905550848673ffffffffffffffffffffffffffffffffffffffff168273ffffffffffffffffffffffffffffffffffffffff167f5548c837ab068cf56a2c2479df0882a4922fd203edb7517321831d95078c5f6260405160405180910390a46001935050505092915050565b600060cd60009054906101000a900460ff16905090565b6112cb612f26565b6112d5600061300f565b565b60006001609a60008473ffffffffffffffffffffffffffffffffffffffff1673ffffffffffffffffffffffffffffffffffffffff1681526020019081526020016000205403611329576001905061132e565b600090505b919050565b600061133d613007565b90508073ffffffffffffffffffffffffffffffffffffffff1661135e612df2565b73ffffffffffffffffffffffffffffffffffffffff16146113b4576040517f08c379a00000000000000000000000000000000000000000000000000000000081526004016113ab90614aa2565b60405180910390fd5b6113bd8161300f565b50565b60006113ca613040565b6113d7898986898961308a565b6000838390501161141d576040517f08c379a000000000000000000000000000000000000000000000000000000000815260040161141490614b0e565b60405180910390fd5b8873ffffffffffffffffffffffffffffffffffffffff166323b872dd3330888c6114479190614959565b6040518463ffffffff1660e01b8152600401611465939291906149f9565b6020604051808303816000875af1158015611484573d6000803e3d6000fd5b505050506040513d601f19601f820116820180604052508101906114a8919061463d565b5061010160003373ffffffffffffffffffffffffffffffffffffffff1673ffffffffffffffffffffffffffffffffffffffff16815260200190815260200160002060008154809291906114fa90614b2e565b91905055503361010160003373ffffffffffffffffffffffffffffffffffffffff1673ffffffffffffffffffffffffffffffffffffffff168152602001908152602001600020546040516020016115529291906145e8565b6040516020818303038152906040528051906020012090506000609754609860009054906101000a900467ffffffffffffffff1667ffffffffffffffff168a61159b9190614b76565b6115a59190614be7565b90506040518061014001604052803373ffffffffffffffffffffffffffffffffffffffff1681526020018b73ffffffffffffffffffffffffffffffffffffffff1681526020018873ffffffffffffffffffffffffffffffffffffffff1681526020018781526020018281526020016000151581526020016000151581526020018673ffffffffffffffffffffffffffffffffffffffff16815260200160975467ffffffffffffffff166bffffffffffffffffffffffff1681526020018a81525060ff600084815260200190815260200160002060008201518160000160006101000a81548173ffffffffffffffffffffffffffffffffffffffff021916908373ffffffffffffffffffffffffffffffffffffffff16021790555060208201518160010160006101000a81548173ffffffffffffffffffffffffffffffffffffffff021916908373ffffffffffffffffffffffffffffffffffffffff16021790555060408201518160020160006101000a81548173ffffffffffffffffffffffffffffffffffffffff021916908373ffffffffffffffffffffffffffffffffffffffff160217905550606082015181600301556080820151816004015560a08201518160050160006101000a81548160ff02191690831515021790555060c08201518160050160016101000a81548160ff02191690831515021790555060e08201518160050160026101000a81548173ffffffffffffffffffffffffffffffffffffffff021916908373ffffffffffffffffffffffffffffffffffffffff1602179055506101008201518160060160006101000a8154816bffffffffffffffffffffffff02191690836bffffffffffffffffffffffff160217905550610120820151816007015590505060ff6000838152602001908152602001600020600701548a73ffffffffffffffffffffffffffffffffffffffff168673ffffffffffffffffffffffffffffffffffffffff167f40ccd1ceb111a3c186ef9911e1b876dc1f789ed331b86097b3b8851055b6a13784868d8a8a6040516118aa959493929190614c80565b60405180910390a45098975050505050505050565b60008060019054906101000a900460ff161590508080156118f05750600160008054906101000a900460ff1660ff16105b8061191d57506118ff30613242565b15801561191c5750600160008054906101000a900460ff1660ff16145b5b61195c576040517f08c379a000000000000000000000000000000000000000000000000000000000815260040161195390614d40565b60405180910390fd5b60016000806101000a81548160ff021916908360ff1602179055508015611999576001600060016101000a81548160ff0219169083151502179055505b620186a06097819055506119ab613265565b6119b36132be565b8015611a0c5760008060016101000a81548160ff0219169083151502179055507f7f26b83ff96e1f2b6a682f133852f6798a09c465da95921460cefb38474024986001604051611a039190614da8565b60405180910390a15b50565b611a17612f26565b611a1f613317565b565b6000603360009054906101000a900473ffffffffffffffffffffffffffffffffffffffff16905090565b6000609960009054906101000a900473ffffffffffffffffffffffffffffffffffffffff1673ffffffffffffffffffffffffffffffffffffffff163373ffffffffffffffffffffffffffffffffffffffff1614611add576040517f08c379a0000000000000000000000000000000000000000000000000000000008152600401611ad4906143d6565b60405180910390fd5b60ff600085815260200190815260200160002060050160009054906101000a900460ff1615611b41576040517f08c379a0000000000000000000000000000000000000000000000000000000008152600401611b3890614861565b60405180910390fd5b60ff600085815260200190815260200160002060050160019054906101000a900460ff1615611ba5576040517f08c379a0000000000000000000000000000000000000000000000000000000008152600401611b9c906148cd565b60405180910390fd5b600060ff600086815260200190815260200160002060010160009054906101000a900473ffffffffffffffffffffffffffffffffffffffff1690508267ffffffffffffffff1660ff600087815260200190815260200160002060060160008282829054906101000a90046bffffffffffffffffffffffff16611c279190614dc3565b92506101000a8154816bffffffffffffffffffffffff02191690836bffffffffffffffffffffffff160217905550600060ff600087815260200190815260200160002060060160009054906101000a90046bffffffffffffffffffffffff166bffffffffffffffffffffffff1603611e7a57600160ff600087815260200190815260200160002060050160006101000a81548160ff021916908315150217905550600060ff6000878152602001908152602001600020600301541115611e795760ff600086815260200190815260200160002060010160009054906101000a900473ffffffffffffffffffffffffffffffffffffffff1673ffffffffffffffffffffffffffffffffffffffff1663a9059cbb60ff600088815260200190815260200160002060020160009054906101000a900473ffffffffffffffffffffffffffffffffffffffff1660ff6000898152602001908152602001600020600301546040518363ffffffff1660e01b8152600401611da49291906145e8565b6020604051808303816000875af1158015611dc3573d6000803e3d6000fd5b505050506040513d601f19601f82011682018060405250810190611de7919061463d565b5060ff60008681526020019081526020016000206003015460ff600087815260200190815260200160002060020160009054906101000a900473ffffffffffffffffffffffffffffffffffffffff1673ffffffffffffffffffffffffffffffffffffffff167f44f6938ca4a10313aabb76f874cced61e35710a734a126e4afb34461bf8c250160405160405180910390a35b5b60006097548467ffffffffffffffff1660ff600089815260200190815260200160002060070154611eab9190614b76565b611eb59190614be7565b90508060ff60008881526020019081526020016000206007016000828254611edd91906145b4565b925050819055506000609754609860009054906101000a900467ffffffffffffffff1667ffffffffffffffff1683611f159190614b76565b611f1f9190614be7565b90508082611f2d91906145b4565b91508273ffffffffffffffffffffffffffffffffffffffff1663a9059cbb609860089054906101000a900473ffffffffffffffffffffffffffffffffffffffff16836040518363ffffffff1660e01b8152600401611f8c9291906145e8565b6020604051808303816000875af1158015611fab573d6000803e3d6000fd5b505050506040513d601f19601f82011682018060405250810190611fcf919061463d565b508273ffffffffffffffffffffffffffffffffffffffff1663a9059cbb87846040518363ffffffff1660e01b815260040161200b9291906145e8565b6020604051808303816000875af115801561202a573d6000803e3d6000fd5b505050506040513d601f19601f8201168201806040525081019061204e919061463d565b508573ffffffffffffffffffffffffffffffffffffffff16877fd466be5516d4d2372b27b6e13104cd3f5d1656e5c9e5ae9a6939da8cf62dbbde8a88604051612098929190614e34565b60405180910390a360019350505050949350505050565b6120b76137ef565b60ff6000838152602001908152602001600020604051806101400160405290816000820160009054906101000a900473ffffffffffffffffffffffffffffffffffffffff1673ffffffffffffffffffffffffffffffffffffffff1673ffffffffffffffffffffffffffffffffffffffff1681526020016001820160009054906101000a900473ffffffffffffffffffffffffffffffffffffffff1673ffffffffffffffffffffffffffffffffffffffff1673ffffffffffffffffffffffffffffffffffffffff1681526020016002820160009054906101000a900473ffffffffffffffffffffffffffffffffffffffff1673ffffffffffffffffffffffffffffffffffffffff1673ffffffffffffffffffffffffffffffffffffffff16815260200160038201548152602001600482015481526020016005820160009054906101000a900460ff161515151581526020016005820160019054906101000a900460ff161515151581526020016005820160029054906101000a900473ffffffffffffffffffffffffffffffffffffffff1673ffffffffffffffffffffffffffffffffffffffff1673ffffffffffffffffffffffffffffffffffffffff1681526020016006820160009054906101000a90046bffffffffffffffffffffffff166bffffffffffffffffffffffff166bffffffffffffffffffffffff1681526020016007820154815250509050919050565b6122cf6138ac565b61010060008381526020019081526020016000206040518060a0016040529081600082015481526020016001820160009054906101000a900473ffffffffffffffffffffffffffffffffffffffff1673ffffffffffffffffffffffffffffffffffffffff1673ffffffffffffffffffffffffffffffffffffffff1681526020016002820160009054906101000a900473ffffffffffffffffffffffffffffffffffffffff1673ffffffffffffffffffffffffffffffffffffffff1673ffffffffffffffffffffffffffffffffffffffff1681526020016003820160009054906101000a900473ffffffffffffffffffffffffffffffffffffffff1673ffffffffffffffffffffffffffffffffffffffff1673ffffffffffffffffffffffffffffffffffffffff1681526020016004820154815250509050919050565b609960009054906101000a900473ffffffffffffffffffffffffffffffffffffffff1673ffffffffffffffffffffffffffffffffffffffff163373ffffffffffffffffffffffffffffffffffffffff161461249b576040517f08c379a0000000000000000000000000000000000000000000000000000000008152600401612492906143d6565b60405180910390fd5b80600081116124df576040517f08c379a00000000000000000000000000000000000000000000000000000000081526004016124d69061436a565b60405180910390fd5b610103600088815260200190815260200160002060009054906101000a900460ff1615612541576040517f08c379a000000000000000000000000000000000000000000000000000000000815260040161253890614ea9565b60405180910390fd5b600073ffffffffffffffffffffffffffffffffffffffff168573ffffffffffffffffffffffffffffffffffffffff16036125b0576040517f08c379a00000000000000000000000000000000000000000000000000000000081526004016125a790614f15565b60405180910390fd5b600073ffffffffffffffffffffffffffffffffffffffff168473ffffffffffffffffffffffffffffffffffffffff160361261f576040517f08c379a000000000000000000000000000000000000000000000000000000000815260040161261690614f81565b60405180910390fd5b6000878686868660405160200161263a959493929190614fc2565b604051602081830303815290604052805190602001209050600061265d82612ec9565b905060006126748983612eff90919063ffffffff16565b90508773ffffffffffffffffffffffffffffffffffffffff168173ffffffffffffffffffffffffffffffffffffffff16146126e4576040517f08c379a00000000000000000000000000000000000000000000000000000000081526004016126db9061506d565b60405180910390fd5b6000609754609860009054906101000a900467ffffffffffffffff1667ffffffffffffffff16876127159190614b76565b61271f9190614be7565b9050808661272d9190614959565b61010260008973ffffffffffffffffffffffffffffffffffffffff1673ffffffffffffffffffffffffffffffffffffffff16815260200190815260200160002060008b73ffffffffffffffffffffffffffffffffffffffff1673ffffffffffffffffffffffffffffffffffffffff1681526020019081526020016000205410156127ec576040517f08c379a00000000000000000000000000000000000000000000000000000000081526004016127e3906150d9565b60405180910390fd5b600161010360008d815260200190815260200160002060006101000a81548160ff02191690831515021790555080866128259190614959565b61010260008973ffffffffffffffffffffffffffffffffffffffff1673ffffffffffffffffffffffffffffffffffffffff16815260200190815260200160002060008b73ffffffffffffffffffffffffffffffffffffffff1673ffffffffffffffffffffffffffffffffffffffff16815260200190815260200160002060008282546128b191906145b4565b925050819055506040518060a001604052808781526020018a73ffffffffffffffffffffffffffffffffffffffff1681526020018973ffffffffffffffffffffffffffffffffffffffff1681526020018873ffffffffffffffffffffffffffffffffffffffff1681526020018c81525061010060008d81526020019081526020016000206000820151816000015560208201518160010160006101000a81548173ffffffffffffffffffffffffffffffffffffffff021916908373ffffffffffffffffffffffffffffffffffffffff16021790555060408201518160020160006101000a81548173ffffffffffffffffffffffffffffffffffffffff021916908373ffffffffffffffffffffffffffffffffffffffff16021790555060608201518160030160006101000a81548173ffffffffffffffffffffffffffffffffffffffff021916908373ffffffffffffffffffffffffffffffffffffffff160217905550608082015181600401559050508673ffffffffffffffffffffffffffffffffffffffff1663a9059cbb89886040518363ffffffff1660e01b8152600401612a5c9291906145e8565b6020604051808303816000875af1158015612a7b573d6000803e3d6000fd5b505050506040513d601f19601f82011682018060405250810190612a9f919061463d565b506000811115612b4b578673ffffffffffffffffffffffffffffffffffffffff1663a9059cbb609860089054906101000a900473ffffffffffffffffffffffffffffffffffffffff16836040518363ffffffff1660e01b8152600401612b069291906145e8565b6020604051808303816000875af1158015612b25573d6000803e3d6000fd5b505050506040513d601f19601f82011682018060405250810190612b49919061463d565b505b858873ffffffffffffffffffffffffffffffffffffffff168a73ffffffffffffffffffffffffffffffffffffffff167f6e169b3fe3601f2c225fbdb8de390eccb476ad5a83176809af89dab4a7bea32e8a8f604051612bab9291906150f9565b60405180910390a45050505050505050505050565b600080609860009054906101000a900467ffffffffffffffff16609754915091509091565b612bed612f26565b600073ffffffffffffffffffffffffffffffffffffffff168273ffffffffffffffffffffffffffffffffffffffff1603612c5c576040517f08c379a0000000000000000000000000000000000000000000000000000000008152600401612c53906146b6565b60405180910390fd5b6001811480612c6b5750600281145b612caa576040517f08c379a0000000000000000000000000000000000000000000000000000000008152600401612ca19061516e565b60405180910390fd5b7f746f6b656e0000000000000000000000000000000000000000000000000000008303612d655780609a60008473ffffffffffffffffffffffffffffffffffffffff1673ffffffffffffffffffffffffffffffffffffffff168152602001908152602001600020819055508173ffffffffffffffffffffffffffffffffffffffff16837fcfa976492af7c14a916cc3a239f4c9c75bbd7f5f0e398beb41d892c7eeccae4c83604051612d5c91906142f2565b60405180910390a35b505050565b600061010260008473ffffffffffffffffffffffffffffffffffffffff1673ffffffffffffffffffffffffffffffffffffffff16815260200190815260200160002060008373ffffffffffffffffffffffffffffffffffffffff1673ffffffffffffffffffffffffffffffffffffffff16815260200190815260200160002054905092915050565b6000606560009054906101000a900473ffffffffffffffffffffffffffffffffffffffff16905090565b612e24612f26565b80606560006101000a81548173ffffffffffffffffffffffffffffffffffffffff021916908373ffffffffffffffffffffffffffffffffffffffff1602179055508073ffffffffffffffffffffffffffffffffffffffff16612e84611a21565b73ffffffffffffffffffffffffffffffffffffffff167f38d16b8cac22d99fc7c124b9cd0de2d3fa1faef420bfe791d8c362d765e2270060405160405180910390a350565b60007f19457468657265756d205369676e6564204d6573736167653a0a33320000000060005281601c52603c6000209050919050565b6000806000612f0e858561337a565b91509150612f1b816133cb565b819250505092915050565b612f2e613007565b73ffffffffffffffffffffffffffffffffffffffff16612f4c611a21565b73ffffffffffffffffffffffffffffffffffffffff1614612fa2576040517f08c379a0000000000000000000000000000000000000000000000000000000008152600401612f99906151da565b60405180910390fd5b565b612fac613531565b600060cd60006101000a81548160ff0219169083151502179055507f5db9ee0a495bf2e6ff9c91a7834c1ba4fdd244a5e8aa4e537bd38aeae4b073aa612ff0613007565b604051612ffd9190613f37565b60405180910390a1565b600033905090565b606560006101000a81549073ffffffffffffffffffffffffffffffffffffffff021916905561303d8161357a565b50565b6130486112ac565b15613088576040517f08c379a000000000000000000000000000000000000000000000000000000000815260040161307f90615246565b60405180910390fd5b565b846001609a60008373ffffffffffffffffffffffffffffffffffffffff1673ffffffffffffffffffffffffffffffffffffffff168152602001908152602001600020541461310d576040517f08c379a0000000000000000000000000000000000000000000000000000000008152600401613104906149d9565b60405180910390fd5b8460008111613151576040517f08c379a00000000000000000000000000000000000000000000000000000000081526004016131489061436a565b60405180910390fd5b600073ffffffffffffffffffffffffffffffffffffffff168573ffffffffffffffffffffffffffffffffffffffff16036131c0576040517f08c379a00000000000000000000000000000000000000000000000000000000081526004016131b7906152b2565b60405180910390fd5b600083111561323957600073ffffffffffffffffffffffffffffffffffffffff168473ffffffffffffffffffffffffffffffffffffffff1603613238576040517f08c379a000000000000000000000000000000000000000000000000000000000815260040161322f9061531e565b60405180910390fd5b5b50505050505050565b6000808273ffffffffffffffffffffffffffffffffffffffff163b119050919050565b600060019054906101000a900460ff166132b4576040517f08c379a00000000000000000000000000000000000000000000000000000000081526004016132ab906153b0565b60405180910390fd5b6132bc613640565b565b600060019054906101000a900460ff1661330d576040517f08c379a0000000000000000000000000000000000000000000000000000000008152600401613304906153b0565b60405180910390fd5b6133156136a1565b565b61331f613040565b600160cd60006101000a81548160ff0219169083151502179055507f62e78cea01bee320cd4e420270b5ea74000d11b0c9f74754ebdbfc544b05a258613363613007565b6040516133709190613f37565b60405180910390a1565b60008060418351036133bb5760008060006020860151925060408601519150606086015160001a90506133af8782858561370d565b945094505050506133c4565b60006002915091505b9250929050565b600060048111156133df576133de6153d0565b5b8160048111156133f2576133f16153d0565b5b031561352e576001600481111561340c5761340b6153d0565b5b81600481111561341f5761341e6153d0565b5b0361345f576040517f08c379a00000000000000000000000000000000000000000000000000000000081526004016134569061544b565b60405180910390fd5b60026004811115613473576134726153d0565b5b816004811115613486576134856153d0565b5b036134c6576040517f08c379a00000000000000000000000000000000000000000000000000000000081526004016134bd906154b7565b60405180910390fd5b600360048111156134da576134d96153d0565b5b8160048111156134ed576134ec6153d0565b5b0361352d576040517f08c379a000000000000000000000000000000000000000000000000000000000815260040161352490615549565b60405180910390fd5b5b50565b6135396112ac565b613578576040517f08c379a000000000000000000000000000000000000000000000000000000000815260040161356f906155b5565b60405180910390fd5b565b6000603360009054906101000a900473ffffffffffffffffffffffffffffffffffffffff16905081603360006101000a81548173ffffffffffffffffffffffffffffffffffffffff021916908373ffffffffffffffffffffffffffffffffffffffff1602179055508173ffffffffffffffffffffffffffffffffffffffff168173ffffffffffffffffffffffffffffffffffffffff167f8be0079c531659141344cd1fd0a4f28419497f9722a3daafe3b4186f6b6457e060405160405180910390a35050565b600060019054906101000a900460ff1661368f576040517f08c379a0000000000000000000000000000000000000000000000000000000008152600401613686906153b0565b60405180910390fd5b61369f61369a613007565b61300f565b565b600060019054906101000a900460ff166136f0576040517f08c379a00000000000000000000000000000000000000000000000000000000081526004016136e7906153b0565b60405180910390fd5b600060cd60006101000a81548160ff021916908315150217905550565b6000807f7fffffffffffffffffffffffffffffff5d576e7357a4501ddfe92f46681b20a08360001c11156137485760006003915091506137e6565b60006001878787876040516000815260200160405260405161376d94939291906155e4565b6020604051602081039080840390855afa15801561378f573d6000803e3d6000fd5b505050602060405103519050600073ffffffffffffffffffffffffffffffffffffffff168173ffffffffffffffffffffffffffffffffffffffff16036137dd576000600192509250506137e6565b80600092509250505b94509492505050565b604051806101400160405280600073ffffffffffffffffffffffffffffffffffffffff168152602001600073ffffffffffffffffffffffffffffffffffffffff168152602001600073ffffffffffffffffffffffffffffffffffffffff1681526020016000815260200160008152602001600015158152602001600015158152602001600073ffffffffffffffffffffffffffffffffffffffff16815260200160006bffffffffffffffffffffffff168152602001600081525090565b6040518060a0016040528060008152602001600073ffffffffffffffffffffffffffffffffffffffff168152602001600073ffffffffffffffffffffffffffffffffffffffff168152602001600073ffffffffffffffffffffffffffffffffffffffff168152602001600080191681525090565b6000604051905090565b600080fd5b600080fd5b6000819050919050565b61394781613934565b811461395257600080fd5b50565b6000813590506139648161393e565b92915050565b6000602082840312156139805761397f61392a565b5b600061398e84828501613955565b91505092915050565b60008115159050919050565b6139ac81613997565b82525050565b60006020820190506139c760008301846139a3565b92915050565b600073ffffffffffffffffffffffffffffffffffffffff82169050919050565b60006139f8826139cd565b9050919050565b613a08816139ed565b8114613a1357600080fd5b50565b600081359050613a25816139ff565b92915050565b6000819050919050565b613a3e81613a2b565b8114613a4957600080fd5b50565b600081359050613a5b81613a35565b92915050565b600080fd5b600080fd5b6000601f19601f8301169050919050565b7f4e487b7100000000000000000000000000000000000000000000000000000000600052604160045260246000fd5b613ab482613a6b565b810181811067ffffffffffffffff82111715613ad357613ad2613a7c565b5b80604052505050565b6000613ae6613920565b9050613af28282613aab565b919050565b600067ffffffffffffffff821115613b1257613b11613a7c565b5b613b1b82613a6b565b9050602081019050919050565b82818337600083830152505050565b6000613b4a613b4584613af7565b613adc565b905082815260208101848484011115613b6657613b65613a66565b5b613b71848285613b28565b509392505050565b600082601f830112613b8e57613b8d613a61565b5b8135613b9e848260208601613b37565b91505092915050565b600080600080600060a08688031215613bc357613bc261392a565b5b6000613bd188828901613a16565b9550506020613be288828901613a16565b9450506040613bf388828901613a4c565b9350506060613c0488828901613a16565b925050608086013567ffffffffffffffff811115613c2557613c2461392f565b5b613c3188828901613b79565b9150509295509295909350565b60008060408385031215613c5557613c5461392a565b5b6000613c6385828601613955565b9250506020613c7485828601613a16565b9150509250929050565b600067ffffffffffffffff82169050919050565b613c9b81613c7e565b8114613ca657600080fd5b50565b600081359050613cb881613c92565b92915050565b600060208284031215613cd457613cd361392a565b5b6000613ce284828501613ca9565b91505092915050565b60008060408385031215613d0257613d0161392a565b5b6000613d1085828601613a4c565b9250506020613d2185828601613955565b9150509250929050565b60008060408385031215613d4257613d4161392a565b5b6000613d5085828601613a16565b9250506020613d6185828601613a4c565b9150509250929050565b600060208284031215613d8157613d8061392a565b5b6000613d8f84828501613a16565b91505092915050565b60006bffffffffffffffffffffffff82169050919050565b613db981613d98565b8114613dc457600080fd5b50565b600081359050613dd681613db0565b92915050565b600080fd5b600080fd5b60008083601f840112613dfc57613dfb613a61565b5b8235905067ffffffffffffffff811115613e1957613e18613ddc565b5b602083019150836001820283011115613e3557613e34613de1565b5b9250929050565b60008060008060008060008060e0898b031215613e5c57613e5b61392a565b5b6000613e6a8b828c01613a16565b9850506020613e7b8b828c01613a4c565b9750506040613e8c8b828c01613dc7565b9650506060613e9d8b828c01613a16565b9550506080613eae8b828c01613a4c565b94505060a0613ebf8b828c01613a16565b93505060c089013567ffffffffffffffff811115613ee057613edf61392f565b5b613eec8b828c01613de6565b92509250509295985092959890939650565b613f0781613934565b82525050565b6000602082019050613f226000830184613efe565b92915050565b613f31816139ed565b82525050565b6000602082019050613f4c6000830184613f28565b92915050565b60008060008060808587031215613f6c57613f6b61392a565b5b6000613f7a87828801613955565b9450506020613f8b87828801613955565b9350506040613f9c87828801613a16565b9250506060613fad87828801613ca9565b91505092959194509250565b613fc2816139ed565b82525050565b613fd181613a2b565b82525050565b613fe081613997565b82525050565b613fef81613d98565b82525050565b6101408201600082015161400c6000850182613fb9565b50602082015161401f6020850182613fb9565b5060408201516140326040850182613fb9565b5060608201516140456060850182613fc8565b5060808201516140586080850182613fc8565b5060a082015161406b60a0850182613fd7565b5060c082015161407e60c0850182613fd7565b5060e082015161409160e0850182613fb9565b506101008201516140a6610100850182613fe6565b506101208201516140bb610120850182613fc8565b50505050565b6000610140820190506140d76000830184613ff5565b92915050565b6140e681613934565b82525050565b60a0820160008201516141026000850182613fc8565b5060208201516141156020850182613fb9565b5060408201516141286040850182613fb9565b50606082015161413b6060850182613fb9565b50608082015161414e60808501826140dd565b50505050565b600060a08201905061416960008301846140ec565b92915050565b60008060008060008060c0878903121561418c5761418b61392a565b5b600061419a89828a01613955565b965050602087013567ffffffffffffffff8111156141bb576141ba61392f565b5b6141c789828a01613b79565b95505060406141d889828a01613a16565b94505060606141e989828a01613a16565b93505060806141fa89828a01613a16565b92505060a061420b89828a01613a4c565b9150509295509295509295565b61422181613c7e565b82525050565b61423081613a2b565b82525050565b600060408201905061424b6000830185614218565b6142586020830184614227565b9392505050565b6000806000606084860312156142785761427761392a565b5b600061428686828701613955565b935050602061429786828701613a16565b92505060406142a886828701613a4c565b9150509250925092565b600080604083850312156142c9576142c861392a565b5b60006142d785828601613a16565b92505060206142e885828601613a16565b9150509250929050565b60006020820190506143076000830184614227565b92915050565b600082825260208201905092915050565b7f416d6f756e7449735a65726f0000000000000000000000000000000000000000600082015250565b6000614354600c8361430d565b915061435f8261431e565b602082019050919050565b6000602082019050818103600083015261438381614347565b9050919050565b7f4f6e6c7941676772656761746f72000000000000000000000000000000000000600082015250565b60006143c0600e8361430d565b91506143cb8261438a565b602082019050919050565b600060208201905081810360008301526143ef816143b3565b9050919050565b60008160601b9050919050565b600061440e826143f6565b9050919050565b600061442082614403565b9050919050565b614438614433826139ed565b614415565b82525050565b6000819050919050565b61445961445482613a2b565b61443e565b82525050565b600061446b8287614427565b60148201915061447b8286614427565b60148201915061448b8285614448565b60208201915061449b8284614427565b60148201915081905095945050505050565b7f496e76616c69645369676e617475726500000000000000000000000000000000600082015250565b60006144e360108361430d565b91506144ee826144ad565b602082019050919050565b60006020820190508181036000830152614512816144d6565b9050919050565b7f496e73756666696369656e7442616c616e636500000000000000000000000000600082015250565b600061454f60138361430d565b915061455a82614519565b602082019050919050565b6000602082019050818103600083015261457e81614542565b9050919050565b7f4e487b7100000000000000000000000000000000000000000000000000000000600052601160045260246000fd5b60006145bf82613a2b565b91506145ca83613a2b565b92508282039050818111156145e2576145e1614585565b5b92915050565b60006040820190506145fd6000830185613f28565b61460a6020830184614227565b9392505050565b61461a81613997565b811461462557600080fd5b50565b60008151905061463781614611565b92915050565b6000602082840312156146535761465261392a565b5b600061466184828501614628565b91505092915050565b7f476174657761793a207a65726f20616464726573730000000000000000000000600082015250565b60006146a060158361430d565b91506146ab8261466a565b602082019050919050565b600060208201905081810360008301526146cf81614693565b9050919050565b7f476174657761793a207472656173757279206164647265737320616c7265616460008201527f7920736574000000000000000000000000000000000000000000000000000000602082015250565b600061473260258361430d565b915061473d826146d6565b604082019050919050565b6000602082019050818103600083015261476181614725565b9050919050565b7f476174657761793a2061676772656761746f72206164647265737320616c726560008201527f6164792073657400000000000000000000000000000000000000000000000000602082015250565b60006147c460278361430d565b91506147cf82614768565b604082019050919050565b600060208201905081810360008301526147f3816147b7565b9050919050565b600060208201905061480f6000830184614218565b92915050565b7f4f7264657246756c66696c6c6564000000000000000000000000000000000000600082015250565b600061484b600e8361430d565b915061485682614815565b602082019050919050565b6000602082019050818103600083015261487a8161483e565b9050919050565b7f4f72646572526566756e64656400000000000000000000000000000000000000600082015250565b60006148b7600d8361430d565b91506148c282614881565b602082019050919050565b600060208201905081810360008301526148e6816148aa565b9050919050565b7f4665654578636565647350726f746f636f6c4665650000000000000000000000600082015250565b600061492360158361430d565b915061492e826148ed565b602082019050919050565b6000602082019050818103600083015261495281614916565b9050919050565b600061496482613a2b565b915061496f83613a2b565b925082820190508082111561498757614986614585565b5b92915050565b7f546f6b656e4e6f74537570706f72746564000000000000000000000000000000600082015250565b60006149c360118361430d565b91506149ce8261498d565b602082019050919050565b600060208201905081810360008301526149f2816149b6565b9050919050565b6000606082019050614a0e6000830186613f28565b614a1b6020830185613f28565b614a286040830184614227565b949350505050565b7f4f776e61626c6532537465703a2063616c6c6572206973206e6f74207468652060008201527f6e6577206f776e65720000000000000000000000000000000000000000000000602082015250565b6000614a8c60298361430d565b9150614a9782614a30565b604082019050919050565b60006020820190508181036000830152614abb81614a7f565b9050919050565b7f496e76616c69644d657373616765486173680000000000000000000000000000600082015250565b6000614af860128361430d565b9150614b0382614ac2565b602082019050919050565b60006020820190508181036000830152614b2781614aeb565b9050919050565b6000614b3982613a2b565b91507fffffffffffffffffffffffffffffffffffffffffffffffffffffffffffffffff8203614b6b57614b6a614585565b5b600182019050919050565b6000614b8182613a2b565b9150614b8c83613a2b565b9250828202614b9a81613a2b565b91508282048414831517614bb157614bb0614585565b5b5092915050565b7f4e487b7100000000000000000000000000000000000000000000000000000000600052601260045260246000fd5b6000614bf282613a2b565b9150614bfd83613a2b565b925082614c0d57614c0c614bb8565b5b828204905092915050565b6000819050919050565b6000614c3d614c38614c3384613d98565b614c18565b613a2b565b9050919050565b614c4d81614c22565b82525050565b6000614c5f838561430d565b9350614c6c838584613b28565b614c7583613a6b565b840190509392505050565b6000608082019050614c956000830188614227565b614ca26020830187613efe565b614caf6040830186614c44565b8181036060830152614cc2818486614c53565b90509695505050505050565b7f496e697469616c697a61626c653a20636f6e747261637420697320616c72656160008201527f647920696e697469616c697a6564000000000000000000000000000000000000602082015250565b6000614d2a602e8361430d565b9150614d3582614cce565b604082019050919050565b60006020820190508181036000830152614d5981614d1d565b9050919050565b6000819050919050565b600060ff82169050919050565b6000614d92614d8d614d8884614d60565b614c18565b614d6a565b9050919050565b614da281614d77565b82525050565b6000602082019050614dbd6000830184614d99565b92915050565b6000614dce82613d98565b9150614dd983613d98565b925082820390506bffffffffffffffffffffffff811115614dfd57614dfc614585565b5b92915050565b6000614e1e614e19614e1484613c7e565b614c18565b613d98565b9050919050565b614e2e81614e03565b82525050565b6000604082019050614e496000830185613efe565b614e566020830184614e25565b9392505050565b7f4f7264657220616c72656164792070726f636573736564000000000000000000600082015250565b6000614e9360178361430d565b9150614e9e82614e5d565b602082019050919050565b60006020820190508181036000830152614ec281614e86565b9050919050565b7f496e76616c69642070726f766964657220616464726573730000000000000000600082015250565b6000614eff60188361430d565b9150614f0a82614ec9565b602082019050919050565b60006020820190508181036000830152614f2e81614ef2565b9050919050565b7f496e76616c69642073656e646572206164647265737300000000000000000000600082015250565b6000614f6b60168361430d565b9150614f7682614f35565b602082019050919050565b60006020820190508181036000830152614f9a81614f5e565b9050919050565b6000819050919050565b614fbc614fb782613934565b614fa1565b82525050565b6000614fce8288614fab565b602082019150614fde8287614427565b601482019150614fee8286614427565b601482019150614ffe8285614427565b60148201915061500e8284614448565b6020820191508190509695505050505050565b7f496e76616c6964207369676e6174757265000000000000000000000000000000600082015250565b600061505760118361430d565b915061506282615021565b602082019050919050565b600060208201905081810360008301526150868161504a565b9050919050565b7f496e73756666696369656e742062616c616e6365000000000000000000000000600082015250565b60006150c360148361430d565b91506150ce8261508d565b602082019050919050565b600060208201905081810360008301526150f2816150b6565b9050919050565b600060408201905061510e6000830185613f28565b61511b6020830184613efe565b9392505050565b7f476174657761793a20696e76616c696420737461747573000000000000000000600082015250565b600061515860178361430d565b915061516382615122565b602082019050919050565b600060208201905081810360008301526151878161514b565b9050919050565b7f4f776e61626c653a2063616c6c6572206973206e6f7420746865206f776e6572600082015250565b60006151c460208361430d565b91506151cf8261518e565b602082019050919050565b600060208201905081810360008301526151f3816151b7565b9050919050565b7f5061757361626c653a2070617573656400000000000000000000000000000000600082015250565b600061523060108361430d565b915061523b826151fa565b602082019050919050565b6000602082019050818103600083015261525f81615223565b9050919050565b7f5468726f775a65726f4164647265737300000000000000000000000000000000600082015250565b600061529c60108361430d565b91506152a782615266565b602082019050919050565b600060208201905081810360008301526152cb8161528f565b9050919050565b7f496e76616c696453656e646572466565526563697069656e7400000000000000600082015250565b600061530860198361430d565b9150615313826152d2565b602082019050919050565b60006020820190508181036000830152615337816152fb565b9050919050565b7f496e697469616c697a61626c653a20636f6e7472616374206973206e6f74206960008201527f6e697469616c697a696e67000000000000000000000000000000000000000000602082015250565b600061539a602b8361430d565b91506153a58261533e565b604082019050919050565b600060208201905081810360008301526153c98161538d565b9050919050565b7f4e487b7100000000000000000000000000000000000000000000000000000000600052602160045260246000fd5b7f45434453413a20696e76616c6964207369676e61747572650000000000000000600082015250565b600061543560188361430d565b9150615440826153ff565b602082019050919050565b6000602082019050818103600083015261546481615428565b9050919050565b7f45434453413a20696e76616c6964207369676e6174757265206c656e67746800600082015250565b60006154a1601f8361430d565b91506154ac8261546b565b602082019050919050565b600060208201905081810360008301526154d081615494565b9050919050565b7f45434453413a20696e76616c6964207369676e6174757265202773272076616c60008201527f7565000000000000000000000000000000000000000000000000000000000000602082015250565b600061553360228361430d565b915061553e826154d7565b604082019050919050565b6000602082019050818103600083015261556281615526565b9050919050565b7f5061757361626c653a206e6f7420706175736564000000000000000000000000600082015250565b600061559f60148361430d565b91506155aa82615569565b602082019050919050565b600060208201905081810360008301526155ce81615592565b9050919050565b6155de81614d6a565b82525050565b60006080820190506155f96000830187613efe565b61560660208301866155d5565b6156136040830185613efe565b6156206060830184613efe565b9594505050505056fea26469706673582212201da99112dcc774691f8a632dd826ab4eae984681dce2de6772c6c024e3bb2c4764736f6c63430008120033",
  "linkReferences": {},
  "deployedLinkReferences": {}
}