{
  "_format": "hh-sol-artifact-1",
  "contractName": "Gateway",
  "sourceName": "contracts/Gateway.sol",
  "abi": [
    {
      "inputs": [],
      "stateMutability": "nonpayable",
      "type": "constructor"
    },
    {
      "anonymous": false,
      "inputs": [
        {
          "indexed": true,
          "internalType": "bytes32",
          "name": "orderId",
          "type": "bytes32"
        },
        {
          "indexed": false,
          "internalType": "uint256",
          "name": "senderAmount",
          "type": "uint256"
        },
        {
          "indexed": false,
          "internalType": "uint256",
          "name": "aggregatorAmount",
          "type": "uint256"
        }
      ],
      "name": "FxTransferFeeSplit",
      "type": "event"
    },
    {
      "anonymous": false,
      "inputs": [
        {
          "indexed": false,
          "internalType": "uint8",
          "name": "version",
          "type": "uint8"
        }
      ],
      "name": "Initialized",
      "type": "event"
    },
    {
      "anonymous": false,
      "inputs": [
        {
          "indexed": true,
          "internalType": "bytes32",
          "name": "orderId",
          "type": "bytes32"
        },
        {
          "indexed": false,
          "internalType": "uint256",
          "name": "senderAmount",
          "type": "uint256"
        },
        {
          "indexed": false,
          "internalType": "uint256",
          "name": "providerAmount",
          "type": "uint256"
        },
        {
          "indexed": false,
          "internalType": "uint256",
          "name": "aggregatorAmount",
          "type": "uint256"
        }
      ],
      "name": "LocalTransferFeeSplit",
      "type": "event"
    },
    {
      "anonymous": false,
      "inputs": [
        {
          "indexed": true,
          "internalType": "address",
          "name": "sender",
          "type": "address"
        },
        {
          "indexed": true,
          "internalType": "address",
          "name": "token",
          "type": "address"
        },
        {
          "indexed": true,
          "internalType": "uint256",
          "name": "amount",
          "type": "uint256"
        },
        {
          "indexed": false,
          "internalType": "uint256",
          "name": "protocolFee",
          "type": "uint256"
        },
        {
          "indexed": false,
          "internalType": "bytes32",
          "name": "orderId",
          "type": "bytes32"
        },
        {
          "indexed": false,
          "internalType": "uint256",
          "name": "rate",
          "type": "uint256"
        },
        {
          "indexed": false,
          "internalType": "string",
          "name": "messageHash",
          "type": "string"
        }
      ],
      "name": "OrderCreated",
      "type": "event"
    },
    {
      "anonymous": false,
      "inputs": [
        {
          "indexed": false,
          "internalType": "uint256",
          "name": "fee",
          "type": "uint256"
        },
        {
          "indexed": true,
          "internalType": "bytes32",
          "name": "orderId",
          "type": "bytes32"
        }
      ],
      "name": "OrderRefunded",
      "type": "event"
    },
    {
      "anonymous": false,
      "inputs": [
        {
          "indexed": false,
          "internalType": "bytes32",
          "name": "splitOrderId",
          "type": "bytes32"
        },
        {
          "indexed": true,
          "internalType": "bytes32",
          "name": "orderId",
          "type": "bytes32"
        },
        {
          "indexed": true,
          "internalType": "address",
          "name": "liquidityProvider",
          "type": "address"
        },
        {
          "indexed": false,
          "internalType": "uint64",
          "name": "settlePercent",
          "type": "uint64"
        },
        {
          "indexed": false,
          "internalType": "uint64",
          "name": "rebatePercent",
          "type": "uint64"
        }
      ],
      "name": "OrderSettled",
      "type": "event"
    },
    {
      "anonymous": false,
      "inputs": [
        {
          "indexed": true,
          "internalType": "address",
          "name": "previousOwner",
          "type": "address"
        },
        {
          "indexed": true,
          "internalType": "address",
          "name": "newOwner",
          "type": "address"
        }
      ],
      "name": "OwnershipTransferStarted",
      "type": "event"
    },
    {
      "anonymous": false,
      "inputs": [
        {
          "indexed": true,
          "internalType": "address",
          "name": "previousOwner",
          "type": "address"
        },
        {
          "indexed": true,
          "internalType": "address",
          "name": "newOwner",
          "type": "address"
        }
      ],
      "name": "OwnershipTransferred",
      "type": "event"
    },
    {
      "anonymous": false,
      "inputs": [
        {
          "indexed": false,
          "internalType": "address",
          "name": "account",
          "type": "address"
        }
      ],
      "name": "Paused",
      "type": "event"
    },
    {
      "anonymous": false,
      "inputs": [
        {
          "indexed": true,
          "internalType": "bytes32",
          "name": "what",
          "type": "bytes32"
        },
        {
          "indexed": true,
          "internalType": "address",
          "name": "treasuryAddress",
          "type": "address"
        }
      ],
      "name": "ProtocolAddressUpdated",
      "type": "event"
    },
    {
      "anonymous": false,
      "inputs": [
        {
          "indexed": true,
          "internalType": "address",
          "name": "sender",
          "type": "address"
        },
        {
          "indexed": true,
          "internalType": "uint256",
          "name": "amount",
          "type": "uint256"
        }
      ],
      "name": "SenderFeeTransferred",
      "type": "event"
    },
    {
      "anonymous": false,
      "inputs": [
        {
          "indexed": true,
          "internalType": "address",
          "name": "treasuryAddress",
          "type": "address"
        }
      ],
      "name": "SetFeeRecipient",
      "type": "event"
    },
    {
      "anonymous": false,
      "inputs": [
        {
          "indexed": true,
          "internalType": "bytes32",
          "name": "what",
          "type": "bytes32"
        },
        {
          "indexed": true,
          "internalType": "address",
          "name": "value",
          "type": "address"
        },
        {
          "indexed": false,
          "internalType": "uint256",
          "name": "status",
          "type": "uint256"
        }
      ],
      "name": "SettingManagerBool",
      "type": "event"
    },
    {
      "anonymous": false,
      "inputs": [
        {
          "indexed": true,
          "internalType": "address",
          "name": "token",
          "type": "address"
        },
        {
          "indexed": false,
          "internalType": "uint256",
          "name": "senderToProvider",
          "type": "uint256"
        },
        {
          "indexed": false,
          "internalType": "uint256",
          "name": "providerToAggregator",
          "type": "uint256"
        },
        {
          "indexed": false,
          "internalType": "uint256",
          "name": "senderToAggregator",
          "type": "uint256"
        },
        {
          "indexed": false,
          "internalType": "uint256",
          "name": "providerToAggregatorFx",
          "type": "uint256"
        }
      ],
      "name": "TokenFeeSettingsUpdated",
      "type": "event"
    },
    {
      "anonymous": false,
      "inputs": [
        {
          "indexed": false,
          "internalType": "address",
          "name": "account",
          "type": "address"
        }
      ],
      "name": "Unpaused",
      "type": "event"
    },
    {
      "inputs": [],
      "name": "acceptOwnership",
      "outputs": [],
      "stateMutability": "nonpayable",
      "type": "function"
    },
    {
      "inputs": [
        {
          "internalType": "address",
          "name": "_token",
          "type": "address"
        },
        {
          "internalType": "uint256",
          "name": "_amount",
          "type": "uint256"
        },
        {
          "internalType": "uint96",
          "name": "_rate",
          "type": "uint96"
        },
        {
          "internalType": "address",
          "name": "_senderFeeRecipient",
          "type": "address"
        },
        {
          "internalType": "uint256",
          "name": "_senderFee",
          "type": "uint256"
        },
        {
          "internalType": "address",
          "name": "_refundAddress",
          "type": "address"
        },
        {
          "internalType": "string",
          "name": "messageHash",
          "type": "string"
        }
      ],
      "name": "createOrder",
      "outputs": [
        {
          "internalType": "bytes32",
          "name": "orderId",
          "type": "bytes32"
        }
      ],
      "stateMutability": "nonpayable",
      "type": "function"
    },
    {
      "inputs": [
        {
          "internalType": "bytes32",
          "name": "_orderId",
          "type": "bytes32"
        }
      ],
      "name": "getOrderInfo",
      "outputs": [
        {
          "components": [
            {
              "internalType": "address",
              "name": "sender",
              "type": "address"
            },
            {
              "internalType": "address",
              "name": "token",
              "type": "address"
            },
            {
              "internalType": "address",
              "name": "senderFeeRecipient",
              "type": "address"
            },
            {
              "internalType": "uint256",
              "name": "senderFee",
              "type": "uint256"
            },
            {
              "internalType": "uint256",
              "name": "protocolFee",
              "type": "uint256"
            },
            {
              "internalType": "bool",
              "name": "isFulfilled",
              "type": "bool"
            },
            {
              "internalType": "bool",
              "name": "isRefunded",
              "type": "bool"
            },
            {
              "internalType": "address",
              "name": "refundAddress",
              "type": "address"
            },
            {
              "internalType": "uint96",
              "name": "currentBPS",
              "type": "uint96"
            },
            {
              "internalType": "uint256",
              "name": "amount",
              "type": "uint256"
            }
          ],
          "internalType": "struct IGateway.Order",
          "name": "",
          "type": "tuple"
        }
      ],
      "stateMutability": "view",
      "type": "function"
    },
    {
      "inputs": [
        {
          "internalType": "address",
          "name": "token",
          "type": "address"
        }
      ],
      "name": "getTokenFeeSettings",
      "outputs": [
        {
          "components": [
            {
              "internalType": "uint256",
              "name": "senderToProvider",
              "type": "uint256"
            },
            {
              "internalType": "uint256",
              "name": "providerToAggregator",
              "type": "uint256"
            },
            {
              "internalType": "uint256",
              "name": "senderToAggregator",
              "type": "uint256"
            },
            {
              "internalType": "uint256",
              "name": "providerToAggregatorFx",
              "type": "uint256"
            }
          ],
          "internalType": "struct GatewaySettingManager.TokenFeeSettings",
          "name": "",
          "type": "tuple"
        }
      ],
      "stateMutability": "view",
      "type": "function"
    },
    {
      "inputs": [],
      "name": "initialize",
      "outputs": [],
      "stateMutability": "nonpayable",
      "type": "function"
    },
    {
      "inputs": [
        {
          "internalType": "address",
          "name": "_token",
          "type": "address"
        }
      ],
      "name": "isTokenSupported",
      "outputs": [
        {
          "internalType": "bool",
          "name": "",
          "type": "bool"
        }
      ],
      "stateMutability": "view",
      "type": "function"
    },
    {
      "inputs": [],
      "name": "owner",
      "outputs": [
        {
          "internalType": "address",
          "name": "",
          "type": "address"
        }
      ],
      "stateMutability": "view",
      "type": "function"
    },
    {
      "inputs": [],
      "name": "pause",
      "outputs": [],
      "stateMutability": "nonpayable",
      "type": "function"
    },
    {
      "inputs": [],
      "name": "paused",
      "outputs": [
        {
          "internalType": "bool",
          "name": "",
          "type": "bool"
        }
      ],
      "stateMutability": "view",
      "type": "function"
    },
    {
      "inputs": [],
      "name": "pendingOwner",
      "outputs": [
        {
          "internalType": "address",
          "name": "",
          "type": "address"
        }
      ],
      "stateMutability": "view",
      "type": "function"
    },
    {
      "inputs": [
        {
          "internalType": "uint256",
          "name": "_fee",
          "type": "uint256"
        },
        {
          "internalType": "bytes32",
          "name": "_orderId",
          "type": "bytes32"
        }
      ],
      "name": "refund",
      "outputs": [
        {
          "internalType": "bool",
          "name": "",
          "type": "bool"
        }
      ],
      "stateMutability": "nonpayable",
      "type": "function"
    },
    {
      "inputs": [],
      "name": "renounceOwnership",
      "outputs": [],
      "stateMutability": "nonpayable",
      "type": "function"
    },
    {
      "inputs": [
        {
          "internalType": "address",
          "name": "token",
          "type": "address"
        },
        {
          "internalType": "uint256",
          "name": "senderToProvider",
          "type": "uint256"
        },
        {
          "internalType": "uint256",
          "name": "providerToAggregator",
          "type": "uint256"
        },
        {
          "internalType": "uint256",
          "name": "senderToAggregator",
          "type": "uint256"
        },
        {
          "internalType": "uint256",
          "name": "providerToAggregatorFx",
          "type": "uint256"
        }
      ],
      "name": "setTokenFeeSettings",
      "outputs": [],
      "stateMutability": "nonpayable",
      "type": "function"
    },
    {
      "inputs": [
        {
          "internalType": "bytes32",
          "name": "what",
          "type": "bytes32"
        },
        {
          "internalType": "address",
          "name": "value",
          "type": "address"
        },
        {
          "internalType": "uint256",
          "name": "status",
          "type": "uint256"
        }
      ],
      "name": "settingManagerBool",
      "outputs": [],
      "stateMutability": "nonpayable",
      "type": "function"
    },
    {
      "inputs": [
        {
          "internalType": "bytes32",
          "name": "_splitOrderId",
          "type": "bytes32"
        },
        {
          "internalType": "bytes32",
          "name": "_orderId",
          "type": "bytes32"
        },
        {
          "internalType": "address",
          "name": "_liquidityProvider",
          "type": "address"
        },
        {
          "internalType": "uint64",
          "name": "_settlePercent",
          "type": "uint64"
        },
        {
          "internalType": "uint64",
          "name": "_rebatePercent",
          "type": "uint64"
        }
      ],
      "name": "settle",
      "outputs": [
        {
          "internalType": "bool",
          "name": "",
          "type": "bool"
        }
      ],
      "stateMutability": "nonpayable",
      "type": "function"
    },
    {
      "inputs": [
        {
          "internalType": "address",
          "name": "newOwner",
          "type": "address"
        }
      ],
      "name": "transferOwnership",
      "outputs": [],
      "stateMutability": "nonpayable",
      "type": "function"
    },
    {
      "inputs": [],
      "name": "unpause",
      "outputs": [],
      "stateMutability": "nonpayable",
      "type": "function"
    },
    {
      "inputs": [
        {
          "internalType": "bytes32",
          "name": "what",
          "type": "bytes32"
        },
        {
          "internalType": "address",
          "name": "value",
          "type": "address"
        }
      ],
      "name": "updateProtocolAddress",
      "outputs": [],
      "stateMutability": "nonpayable",
      "type": "function"
    }
  ],
  "bytecode": "0x608060405234801562000010575f80fd5b50620000216200002760201b60201c565b620001c6565b5f60019054906101000a900460ff161562000079576040517f08c379a000000000000000000000000000000000000000000000000000000000815260040162000070906200016e565b60405180910390fd5b60ff80165f8054906101000a900460ff1660ff1614620000e85760ff5f806101000a81548160ff021916908360ff1602179055507f7f26b83ff96e1f2b6a682f133852f6798a09c465da95921460cefb384740249860ff604051620000df9190620001ab565b60405180910390a15b565b5f82825260208201905092915050565b7f496e697469616c697a61626c653a20636f6e747261637420697320696e6974695f8201527f616c697a696e6700000000000000000000000000000000000000000000000000602082015250565b5f62000156602783620000ea565b91506200016382620000fa565b604082019050919050565b5f6020820190508181035f830152620001878162000148565b9050919050565b5f60ff82169050919050565b620001a5816200018e565b82525050565b5f602082019050620001c05f8301846200019a565b92915050565b6148fb80620001d45f395ff3fe608060405234801561000f575f80fd5b5060043610610114575f3560e01c80638129fc1c116100a05780638da5cb5b1161006f5780638da5cb5b14610290578063cd992400146102ae578063df51b359146102ca578063e30c3978146102fa578063f2fde38b1461031857610114565b80638129fc1c146102305780638456cb591461023a578063898861b0146102445780638bfa05491461026057610114565b806371eedb88116100e757806371eedb881461016657806375151b6314610196578063768c6ec0146101c657806379ba5097146101f6578063809804f71461020057610114565b80633f4ba83a1461011857806340ebc677146101225780635c975abb1461013e578063715018a61461015c575b5f80fd5b610120610334565b005b61013c6004803603810190610137919061313c565b610346565b005b61014661060a565b6040516101539190613194565b60405180910390f35b61016461061f565b005b610180600480360381019061017b91906131e0565b610632565b60405161018d9190613194565b60405180910390f35b6101b060048036038101906101ab919061321e565b610a8d565b6040516101bd9190613194565b60405180910390f35b6101e060048036038101906101db9190613249565b610ae5565b6040516101ed9190613391565b60405180910390f35b6101fe610cf5565b005b61021a60048036038101906102159190613436565b610d81565b6040516102279190613502565b60405180910390f35b610238611408565b005b610242611552565b005b61025e6004803603810190610259919061351b565b611564565b005b61027a6004803603810190610275919061321e565b6117e2565b60405161028791906135e5565b60405180910390f35b610298611860565b6040516102a5919061360d565b60405180910390f35b6102c860048036038101906102c39190613626565b611888565b005b6102e460048036038101906102df91906136b3565b611a0a565b6040516102f19190613194565b60405180910390f35b6103026120b3565b60405161030f919061360d565b60405180910390f35b610332600480360381019061032d919061321e565b6120db565b005b61033c612187565b610344612205565b565b61034e612187565b5f73ffffffffffffffffffffffffffffffffffffffff168173ffffffffffffffffffffffffffffffffffffffff16036103bc576040517f08c379a00000000000000000000000000000000000000000000000000000000081526004016103b390613784565b60405180910390fd5b5f7f747265617375727900000000000000000000000000000000000000000000000083036104be578173ffffffffffffffffffffffffffffffffffffffff16609860089054906101000a900473ffffffffffffffffffffffffffffffffffffffff1673ffffffffffffffffffffffffffffffffffffffff1603610474576040517f08c379a000000000000000000000000000000000000000000000000000000000815260040161046b90613812565b60405180910390fd5b81609860086101000a81548173ffffffffffffffffffffffffffffffffffffffff021916908373ffffffffffffffffffffffffffffffffffffffff160217905550600190506105ba565b7f61676772656761746f720000000000000000000000000000000000000000000083036105b9578173ffffffffffffffffffffffffffffffffffffffff1660995f9054906101000a900473ffffffffffffffffffffffffffffffffffffffff1673ffffffffffffffffffffffffffffffffffffffff1603610574576040517f08c379a000000000000000000000000000000000000000000000000000000000815260040161056b906138a0565b60405180910390fd5b8160995f6101000a81548173ffffffffffffffffffffffffffffffffffffffff021916908373ffffffffffffffffffffffffffffffffffffffff160217905550600190505b5b8015610605578173ffffffffffffffffffffffffffffffffffffffff16837fbbc5b96e57cfecb3dbeeadf92e87f15e58e64fcd75cbe256dcc5d9ef2e51e8a460405160405180910390a35b505050565b5f60cd5f9054906101000a900460ff16905090565b610627612187565b6106305f612266565b565b5f60995f9054906101000a900473ffffffffffffffffffffffffffffffffffffffff1673ffffffffffffffffffffffffffffffffffffffff163373ffffffffffffffffffffffffffffffffffffffff16146106c2576040517f08c379a00000000000000000000000000000000000000000000000000000000081526004016106b990613908565b60405180910390fd5b60ff5f8381526020019081526020015f206005015f9054906101000a900460ff1615610723576040517f08c379a000000000000000000000000000000000000000000000000000000000815260040161071a90613970565b60405180910390fd5b60ff5f8381526020019081526020015f2060050160019054906101000a900460ff1615610785576040517f08c379a000000000000000000000000000000000000000000000000000000000815260040161077c906139d8565b60405180910390fd5b8260ff5f8481526020019081526020015f206004015410156107dc576040517f08c379a00000000000000000000000000000000000000000000000000000000081526004016107d390613a40565b60405180910390fd5b5f8311156108b65760ff5f8381526020019081526020015f206001015f9054906101000a900473ffffffffffffffffffffffffffffffffffffffff1673ffffffffffffffffffffffffffffffffffffffff1663a9059cbb609860089054906101000a900473ffffffffffffffffffffffffffffffffffffffff16856040518363ffffffff1660e01b8152600401610874929190613a6d565b6020604051808303815f875af1158015610890573d5f803e3d5ffd5b505050506040513d601f19601f820116820180604052508101906108b49190613abe565b505b600160ff5f8481526020019081526020015f2060050160016101000a81548160ff0219169083151502179055505f60ff5f8481526020019081526020015f206006015f6101000a8154816bffffffffffffffffffffffff02191690836bffffffffffffffffffffffff1602179055505f8360ff5f8581526020019081526020015f20600701546109469190613b16565b905060ff5f8481526020019081526020015f206001015f9054906101000a900473ffffffffffffffffffffffffffffffffffffffff1673ffffffffffffffffffffffffffffffffffffffff1663a9059cbb60ff5f8681526020019081526020015f2060050160029054906101000a900473ffffffffffffffffffffffffffffffffffffffff1660ff5f8781526020019081526020015f2060030154846109ec9190613b49565b6040518363ffffffff1660e01b8152600401610a09929190613a6d565b6020604051808303815f875af1158015610a25573d5f803e3d5ffd5b505050506040513d601f19601f82011682018060405250810190610a499190613abe565b50827f0736fe428e1747ca8d387c2e6fa1a31a0cde62d3a167c40a46ade59a3cdc828e85604051610a7a9190613b7c565b60405180910390a2600191505092915050565b5f6001609a5f8473ffffffffffffffffffffffffffffffffffffffff1673ffffffffffffffffffffffffffffffffffffffff1681526020019081526020015f205403610adc5760019050610ae0565b5f90505b919050565b610aed612fd0565b60ff5f8381526020019081526020015f20604051806101400160405290815f82015f9054906101000a900473ffffffffffffffffffffffffffffffffffffffff1673ffffffffffffffffffffffffffffffffffffffff1673ffffffffffffffffffffffffffffffffffffffff168152602001600182015f9054906101000a900473ffffffffffffffffffffffffffffffffffffffff1673ffffffffffffffffffffffffffffffffffffffff1673ffffffffffffffffffffffffffffffffffffffff168152602001600282015f9054906101000a900473ffffffffffffffffffffffffffffffffffffffff1673ffffffffffffffffffffffffffffffffffffffff1673ffffffffffffffffffffffffffffffffffffffff1681526020016003820154815260200160048201548152602001600582015f9054906101000a900460ff161515151581526020016005820160019054906101000a900460ff161515151581526020016005820160029054906101000a900473ffffffffffffffffffffffffffffffffffffffff1673ffffffffffffffffffffffffffffffffffffffff1673ffffffffffffffffffffffffffffffffffffffff168152602001600682015f9054906101000a90046bffffffffffffffffffffffff166bffffffffffffffffffffffff166bffffffffffffffffffffffff1681526020016007820154815250509050919050565b5f610cfe612296565b90508073ffffffffffffffffffffffffffffffffffffffff16610d1f6120b3565b73ffffffffffffffffffffffffffffffffffffffff1614610d75576040517f08c379a0000000000000000000000000000000000000000000000000000000008152600401610d6c90613c05565b60405180910390fd5b610d7e81612266565b50565b5f610d8a61229d565b610d9789898689896122e7565b5f8383905003610ddc576040517f08c379a0000000000000000000000000000000000000000000000000000000008152600401610dd390613c6d565b60405180910390fd5b8873ffffffffffffffffffffffffffffffffffffffff166323b872dd3330888c610e069190613b49565b6040518463ffffffff1660e01b8152600401610e2493929190613c8b565b6020604051808303815f875af1158015610e40573d5f803e3d5ffd5b505050506040513d601f19601f82011682018060405250810190610e649190613abe565b506101005f3373ffffffffffffffffffffffffffffffffffffffff1673ffffffffffffffffffffffffffffffffffffffff1681526020019081526020015f205f815480929190610eb390613cc0565b9190505550336101005f3373ffffffffffffffffffffffffffffffffffffffff1673ffffffffffffffffffffffffffffffffffffffff1681526020019081526020015f205446604051602001610f0b93929190613d07565b6040516020818303038152906040528051906020012090505f73ffffffffffffffffffffffffffffffffffffffff1660ff5f8381526020019081526020015f205f015f9054906101000a900473ffffffffffffffffffffffffffffffffffffffff1673ffffffffffffffffffffffffffffffffffffffff1614610fc3576040517f08c379a0000000000000000000000000000000000000000000000000000000008152600401610fba90613d86565b60405180910390fd5b5f6064886bffffffffffffffffffffffff1603611024575f90505f861161101f576040517f08c379a000000000000000000000000000000000000000000000000000000000815260040161101690613dee565b60405180910390fd5b6110fd565b5f609b5f8c73ffffffffffffffffffffffffffffffffffffffff1673ffffffffffffffffffffffffffffffffffffffff1681526020019081526020015f206040518060800160405290815f8201548152602001600182015481526020016002820154815260200160038201548152505090505f8160600151116110dc576040517f08c379a00000000000000000000000000000000000000000000000000000000081526004016110d390613e56565b60405180910390fd5b60975481606001518b6110ef9190613e74565b6110f99190613ee2565b9150505b6040518061014001604052803373ffffffffffffffffffffffffffffffffffffffff1681526020018b73ffffffffffffffffffffffffffffffffffffffff1681526020018873ffffffffffffffffffffffffffffffffffffffff1681526020018781526020018281526020015f151581526020015f151581526020018673ffffffffffffffffffffffffffffffffffffffff16815260200160975467ffffffffffffffff166bffffffffffffffffffffffff1681526020018a81525060ff5f8481526020019081526020015f205f820151815f015f6101000a81548173ffffffffffffffffffffffffffffffffffffffff021916908373ffffffffffffffffffffffffffffffffffffffff1602179055506020820151816001015f6101000a81548173ffffffffffffffffffffffffffffffffffffffff021916908373ffffffffffffffffffffffffffffffffffffffff1602179055506040820151816002015f6101000a81548173ffffffffffffffffffffffffffffffffffffffff021916908373ffffffffffffffffffffffffffffffffffffffff160217905550606082015181600301556080820151816004015560a0820151816005015f6101000a81548160ff02191690831515021790555060c08201518160050160016101000a81548160ff02191690831515021790555060e08201518160050160026101000a81548173ffffffffffffffffffffffffffffffffffffffff021916908373ffffffffffffffffffffffffffffffffffffffff160217905550610100820151816006015f6101000a8154816bffffffffffffffffffffffff02191690836bffffffffffffffffffffffff160217905550610120820151816007015590505060ff5f8381526020019081526020015f20600701548a73ffffffffffffffffffffffffffffffffffffffff168673ffffffffffffffffffffffffffffffffffffffff167f40ccd1ceb111a3c186ef9911e1b876dc1f789ed331b86097b3b8851055b6a13784868d8a8a6040516113f3959493929190613f95565b60405180910390a45098975050505050505050565b5f8060019054906101000a900460ff16159050808015611437575060015f8054906101000a900460ff1660ff16105b80611463575061144630612494565b158015611462575060015f8054906101000a900460ff1660ff16145b5b6114a2576040517f08c379a000000000000000000000000000000000000000000000000000000000815260040161149990614051565b60405180910390fd5b60015f806101000a81548160ff021916908360ff16021790555080156114dd5760015f60016101000a81548160ff0219169083151502179055505b620186a06097819055506114ef6124b6565b6114f761250e565b801561154f575f8060016101000a81548160ff0219169083151502179055507f7f26b83ff96e1f2b6a682f133852f6798a09c465da95921460cefb3847402498600160405161154691906140b4565b60405180910390a15b50565b61155a612187565b611562612566565b565b61156c612187565b6001609a5f8773ffffffffffffffffffffffffffffffffffffffff1673ffffffffffffffffffffffffffffffffffffffff1681526020019081526020015f2054146115ec576040517f08c379a00000000000000000000000000000000000000000000000000000000081526004016115e390614117565b60405180910390fd5b609754841115611631576040517f08c379a0000000000000000000000000000000000000000000000000000000008152600401611628906141a5565b60405180910390fd5b609754831115611676576040517f08c379a000000000000000000000000000000000000000000000000000000000815260040161166d90614233565b60405180910390fd5b6097548211156116bb576040517f08c379a00000000000000000000000000000000000000000000000000000000081526004016116b2906142c1565b60405180910390fd5b609754811115611700576040517f08c379a00000000000000000000000000000000000000000000000000000000081526004016116f79061434f565b60405180910390fd5b604051806080016040528085815260200184815260200183815260200182815250609b5f8773ffffffffffffffffffffffffffffffffffffffff1673ffffffffffffffffffffffffffffffffffffffff1681526020019081526020015f205f820151815f01556020820151816001015560408201518160020155606082015181600301559050508473ffffffffffffffffffffffffffffffffffffffff167fd4d646cffa66ebf695b792bd660c97076ed45a889e14d544eb8ab8a44b34a59c858585856040516117d3949392919061436d565b60405180910390a25050505050565b6117ea613083565b609b5f8373ffffffffffffffffffffffffffffffffffffffff1673ffffffffffffffffffffffffffffffffffffffff1681526020019081526020015f206040518060800160405290815f820154815260200160018201548152602001600282015481526020016003820154815250509050919050565b5f60335f9054906101000a900473ffffffffffffffffffffffffffffffffffffffff16905090565b611890612187565b5f73ffffffffffffffffffffffffffffffffffffffff168273ffffffffffffffffffffffffffffffffffffffff16036118fe576040517f08c379a00000000000000000000000000000000000000000000000000000000081526004016118f590613784565b60405180910390fd5b600181148061190d5750600281145b61194c576040517f08c379a0000000000000000000000000000000000000000000000000000000008152600401611943906143fa565b60405180910390fd5b7f746f6b656e0000000000000000000000000000000000000000000000000000008303611a055780609a5f8473ffffffffffffffffffffffffffffffffffffffff1673ffffffffffffffffffffffffffffffffffffffff1681526020019081526020015f20819055508173ffffffffffffffffffffffffffffffffffffffff16837fcfa976492af7c14a916cc3a239f4c9c75bbd7f5f0e398beb41d892c7eeccae4c836040516119fc9190613b7c565b60405180910390a35b505050565b5f60995f9054906101000a900473ffffffffffffffffffffffffffffffffffffffff1673ffffffffffffffffffffffffffffffffffffffff163373ffffffffffffffffffffffffffffffffffffffff1614611a9a576040517f08c379a0000000000000000000000000000000000000000000000000000000008152600401611a9190613908565b60405180910390fd5b60ff5f8681526020019081526020015f206005015f9054906101000a900460ff1615611afb576040517f08c379a0000000000000000000000000000000000000000000000000000000008152600401611af290613970565b60405180910390fd5b60ff5f8681526020019081526020015f2060050160019054906101000a900460ff1615611b5d576040517f08c379a0000000000000000000000000000000000000000000000000000000008152600401611b54906139d8565b60405180910390fd5b6097548267ffffffffffffffff161115611bac576040517f08c379a0000000000000000000000000000000000000000000000000000000008152600401611ba390614462565b60405180910390fd5b5f60ff5f8781526020019081526020015f206001015f9054906101000a900473ffffffffffffffffffffffffffffffffffffffff1690505f60ff5f8881526020019081526020015f206006015f9054906101000a90046bffffffffffffffffffffffff166bffffffffffffffffffffffff1690508467ffffffffffffffff1660ff5f8981526020019081526020015f206006015f8282829054906101000a90046bffffffffffffffffffffffff16611c649190614480565b92506101000a8154816bffffffffffffffffffffffff02191690836bffffffffffffffffffffffff1602179055505f60ff5f8981526020019081526020015f206006015f9054906101000a90046bffffffffffffffffffffffff166bffffffffffffffffffffffff1603611d4657600160ff5f8981526020019081526020015f206005015f6101000a81548160ff0219169083151502179055505f60ff5f8981526020019081526020015f206003015414158015611d3657505f60ff5f8981526020019081526020015f206004015414155b15611d4557611d44876125c8565b5b5b5f60ff5f8981526020019081526020015f206003015414158015611d7d57505f60ff5f8981526020019081526020015f2060040154145b15611d8e57611d8d87878761293e565b5b5f818667ffffffffffffffff1660ff5f8b81526020019081526020015f2060070154611dba9190613e74565b611dc49190613ee2565b90508060ff5f8a81526020019081526020015f206007015f828254611de99190613b16565b925050819055505f60ff5f8a81526020019081526020015f206004015414611fd4575f609b5f60ff5f8c81526020019081526020015f206001015f9054906101000a900473ffffffffffffffffffffffffffffffffffffffff1673ffffffffffffffffffffffffffffffffffffffff1673ffffffffffffffffffffffffffffffffffffffff1681526020019081526020015f206040518060800160405290815f8201548152602001600182015481526020016002820154815260200160038201548152505090505f609754826060015184611ec49190613e74565b611ece9190613ee2565b90508083611edc9190613b16565b92505f8767ffffffffffffffff1614611f33575f6097548867ffffffffffffffff1683611f099190613e74565b611f139190613ee2565b90508082611f219190613b16565b91508084611f2f9190613b49565b9350505b8473ffffffffffffffffffffffffffffffffffffffff1663a9059cbb609860089054906101000a900473ffffffffffffffffffffffffffffffffffffffff16836040518363ffffffff1660e01b8152600401611f90929190613a6d565b6020604051808303815f875af1158015611fac573d5f803e3d5ffd5b505050506040513d601f19601f82011682018060405250810190611fd09190613abe565b5050505b8273ffffffffffffffffffffffffffffffffffffffff1663a9059cbb88836040518363ffffffff1660e01b815260040161200f929190613a6d565b6020604051808303815f875af115801561202b573d5f803e3d5ffd5b505050506040513d601f19601f8201168201806040525081019061204f9190613abe565b508673ffffffffffffffffffffffffffffffffffffffff16887f57c683de2e7c8263c7f57fd108416b9bdaa7a6e7f2e4e7102c3b6f9e37f1cc378b898960405161209b939291906144ce565b60405180910390a36001935050505095945050505050565b5f60655f9054906101000a900473ffffffffffffffffffffffffffffffffffffffff16905090565b6120e3612187565b8060655f6101000a81548173ffffffffffffffffffffffffffffffffffffffff021916908373ffffffffffffffffffffffffffffffffffffffff1602179055508073ffffffffffffffffffffffffffffffffffffffff16612142611860565b73ffffffffffffffffffffffffffffffffffffffff167f38d16b8cac22d99fc7c124b9cd0de2d3fa1faef420bfe791d8c362d765e2270060405160405180910390a350565b61218f612296565b73ffffffffffffffffffffffffffffffffffffffff166121ad611860565b73ffffffffffffffffffffffffffffffffffffffff1614612203576040517f08c379a00000000000000000000000000000000000000000000000000000000081526004016121fa9061454d565b60405180910390fd5b565b61220d612dfb565b5f60cd5f6101000a81548160ff0219169083151502179055507f5db9ee0a495bf2e6ff9c91a7834c1ba4fdd244a5e8aa4e537bd38aeae4b073aa61224f612296565b60405161225c919061360d565b60405180910390a1565b60655f6101000a81549073ffffffffffffffffffffffffffffffffffffffff021916905561229381612e44565b50565b5f33905090565b6122a561060a565b156122e5576040517f08c379a00000000000000000000000000000000000000000000000000000000081526004016122dc906145b5565b60405180910390fd5b565b6001609a5f8773ffffffffffffffffffffffffffffffffffffffff1673ffffffffffffffffffffffffffffffffffffffff1681526020019081526020015f205414612367576040517f08c379a000000000000000000000000000000000000000000000000000000000815260040161235e9061461d565b60405180910390fd5b5f84036123a9576040517f08c379a00000000000000000000000000000000000000000000000000000000081526004016123a090614685565b60405180910390fd5b5f73ffffffffffffffffffffffffffffffffffffffff168373ffffffffffffffffffffffffffffffffffffffff1603612417576040517f08c379a000000000000000000000000000000000000000000000000000000000815260040161240e906146ed565b60405180910390fd5b5f811461248d575f73ffffffffffffffffffffffffffffffffffffffff168273ffffffffffffffffffffffffffffffffffffffff160361248c576040517f08c379a000000000000000000000000000000000000000000000000000000000815260040161248390614755565b60405180910390fd5b5b5050505050565b5f808273ffffffffffffffffffffffffffffffffffffffff163b119050919050565b5f60019054906101000a900460ff16612504576040517f08c379a00000000000000000000000000000000000000000000000000000000081526004016124fb906147e3565b60405180910390fd5b61250c612f07565b565b5f60019054906101000a900460ff1661255c576040517f08c379a0000000000000000000000000000000000000000000000000000000008152600401612553906147e3565b60405180910390fd5b612564612f67565b565b61256e61229d565b600160cd5f6101000a81548160ff0219169083151502179055507f62e78cea01bee320cd4e420270b5ea74000d11b0c9f74754ebdbfc544b05a2586125b1612296565b6040516125be919061360d565b60405180910390a1565b5f609b5f60ff5f8581526020019081526020015f206001015f9054906101000a900473ffffffffffffffffffffffffffffffffffffffff1673ffffffffffffffffffffffffffffffffffffffff1673ffffffffffffffffffffffffffffffffffffffff1681526020019081526020015f206040518060800160405290815f8201548152602001600182015481526020016002820154815260200160038201548152505090505f60ff5f8481526020019081526020015f206003015490505f609754836040015160975461269b9190613b16565b836126a69190613e74565b6126b09190613ee2565b90505f81836126bf9190613b16565b90505f8211156127ac5760ff5f8681526020019081526020015f206001015f9054906101000a900473ffffffffffffffffffffffffffffffffffffffff1673ffffffffffffffffffffffffffffffffffffffff1663a9059cbb60ff5f8881526020019081526020015f206002015f9054906101000a900473ffffffffffffffffffffffffffffffffffffffff16846040518363ffffffff1660e01b815260040161276a929190613a6d565b6020604051808303815f875af1158015612786573d5f803e3d5ffd5b505050506040513d601f19601f820116820180604052508101906127aa9190613abe565b505b5f8111156128865760ff5f8681526020019081526020015f206001015f9054906101000a900473ffffffffffffffffffffffffffffffffffffffff1673ffffffffffffffffffffffffffffffffffffffff1663a9059cbb609860089054906101000a900473ffffffffffffffffffffffffffffffffffffffff16836040518363ffffffff1660e01b8152600401612844929190613a6d565b6020604051808303815f875af1158015612860573d5f803e3d5ffd5b505050506040513d601f19601f820116820180604052508101906128849190613abe565b505b8160ff5f8781526020019081526020015f206002015f9054906101000a900473ffffffffffffffffffffffffffffffffffffffff1673ffffffffffffffffffffffffffffffffffffffff167f44f6938ca4a10313aabb76f874cced61e35710a734a126e4afb34461bf8c250160405160405180910390a3847f88592047496a7850992dc5e8cd92a9b633cef0d191a4f5e87fd745c7d382630a838360405161292f929190614801565b60405180910390a25050505050565b5f609b5f60ff5f8781526020019081526020015f206001015f9054906101000a900473ffffffffffffffffffffffffffffffffffffffff1673ffffffffffffffffffffffffffffffffffffffff1673ffffffffffffffffffffffffffffffffffffffff1681526020019081526020015f206040518060800160405290815f8201548152602001600182015481526020016002820154815260200160038201548152505090505f60ff5f8681526020019081526020015f206003015490505f609754835f015183612a0e9190613e74565b612a189190613ee2565b90505f6097548567ffffffffffffffff1683612a349190613e74565b612a3e9190613ee2565b90505f609754856020015183612a549190613e74565b612a5e9190613ee2565b90505f8385612a6d9190613b16565b90505f8114158015612ab757505f60ff5f8b81526020019081526020015f206006015f9054906101000a90046bffffffffffffffffffffffff166bffffffffffffffffffffffff16145b15612b9f5760ff5f8a81526020019081526020015f206001015f9054906101000a900473ffffffffffffffffffffffffffffffffffffffff1673ffffffffffffffffffffffffffffffffffffffff1663a9059cbb60ff5f8c81526020019081526020015f206002015f9054906101000a900473ffffffffffffffffffffffffffffffffffffffff16836040518363ffffffff1660e01b8152600401612b5d929190613a6d565b6020604051808303815f875af1158015612b79573d5f803e3d5ffd5b505050506040513d601f19601f82011682018060405250810190612b9d9190613abe565b505b5f8214612c785760ff5f8a81526020019081526020015f206001015f9054906101000a900473ffffffffffffffffffffffffffffffffffffffff1673ffffffffffffffffffffffffffffffffffffffff1663a9059cbb609860089054906101000a900473ffffffffffffffffffffffffffffffffffffffff16846040518363ffffffff1660e01b8152600401612c36929190613a6d565b6020604051808303815f875af1158015612c52573d5f803e3d5ffd5b505050506040513d601f19601f82011682018060405250810190612c769190613abe565b505b8183612c849190613b16565b92505f8314612d3d5760ff5f8a81526020019081526020015f206001015f9054906101000a900473ffffffffffffffffffffffffffffffffffffffff1673ffffffffffffffffffffffffffffffffffffffff1663a9059cbb89856040518363ffffffff1660e01b8152600401612cfb929190613a6d565b6020604051808303815f875af1158015612d17573d5f803e3d5ffd5b505050506040513d601f19601f82011682018060405250810190612d3b9190613abe565b505b8060ff5f8b81526020019081526020015f206002015f9054906101000a900473ffffffffffffffffffffffffffffffffffffffff1673ffffffffffffffffffffffffffffffffffffffff167f44f6938ca4a10313aabb76f874cced61e35710a734a126e4afb34461bf8c250160405160405180910390a3887f831c7cc0006d91462607c476603366c48469d125de6228c0791a7090efd7f7a4828585604051612de893929190614828565b60405180910390a2505050505050505050565b612e0361060a565b612e42576040517f08c379a0000000000000000000000000000000000000000000000000000000008152600401612e39906148a7565b60405180910390fd5b565b5f60335f9054906101000a900473ffffffffffffffffffffffffffffffffffffffff1690508160335f6101000a81548173ffffffffffffffffffffffffffffffffffffffff021916908373ffffffffffffffffffffffffffffffffffffffff1602179055508173ffffffffffffffffffffffffffffffffffffffff168173ffffffffffffffffffffffffffffffffffffffff167f8be0079c531659141344cd1fd0a4f28419497f9722a3daafe3b4186f6b6457e060405160405180910390a35050565b5f60019054906101000a900460ff16612f55576040517f08c379a0000000000000000000000000000000000000000000000000000000008152600401612f4c906147e3565b60405180910390fd5b612f65612f60612296565b612266565b565b5f60019054906101000a900460ff16612fb5576040517f08c379a0000000000000000000000000000000000000000000000000000000008152600401612fac906147e3565b60405180910390fd5b5f60cd5f6101000a81548160ff021916908315150217905550565b6040518061014001604052805f73ffffffffffffffffffffffffffffffffffffffff1681526020015f73ffffffffffffffffffffffffffffffffffffffff1681526020015f73ffffffffffffffffffffffffffffffffffffffff1681526020015f81526020015f81526020015f151581526020015f151581526020015f73ffffffffffffffffffffffffffffffffffffffff1681526020015f6bffffffffffffffffffffffff1681526020015f81525090565b60405180608001604052805f81526020015f81526020015f81526020015f81525090565b5f80fd5b5f80fd5b5f819050919050565b6130c1816130af565b81146130cb575f80fd5b50565b5f813590506130dc816130b8565b92915050565b5f73ffffffffffffffffffffffffffffffffffffffff82169050919050565b5f61310b826130e2565b9050919050565b61311b81613101565b8114613125575f80fd5b50565b5f8135905061313681613112565b92915050565b5f8060408385031215613152576131516130a7565b5b5f61315f858286016130ce565b925050602061317085828601613128565b9150509250929050565b5f8115159050919050565b61318e8161317a565b82525050565b5f6020820190506131a75f830184613185565b92915050565b5f819050919050565b6131bf816131ad565b81146131c9575f80fd5b50565b5f813590506131da816131b6565b92915050565b5f80604083850312156131f6576131f56130a7565b5b5f613203858286016131cc565b9250506020613214858286016130ce565b9150509250929050565b5f60208284031215613233576132326130a7565b5b5f61324084828501613128565b91505092915050565b5f6020828403121561325e5761325d6130a7565b5b5f61326b848285016130ce565b91505092915050565b61327d81613101565b82525050565b61328c816131ad565b82525050565b61329b8161317a565b82525050565b5f6bffffffffffffffffffffffff82169050919050565b6132c1816132a1565b82525050565b61014082015f8201516132dc5f850182613274565b5060208201516132ef6020850182613274565b5060408201516133026040850182613274565b5060608201516133156060850182613283565b5060808201516133286080850182613283565b5060a082015161333b60a0850182613292565b5060c082015161334e60c0850182613292565b5060e082015161336160e0850182613274565b506101008201516133766101008501826132b8565b5061012082015161338b610120850182613283565b50505050565b5f610140820190506133a55f8301846132c7565b92915050565b6133b4816132a1565b81146133be575f80fd5b50565b5f813590506133cf816133ab565b92915050565b5f80fd5b5f80fd5b5f80fd5b5f8083601f8401126133f6576133f56133d5565b5b8235905067ffffffffffffffff811115613413576134126133d9565b5b60208301915083600182028301111561342f5761342e6133dd565b5b9250929050565b5f805f805f805f8060e0898b031215613452576134516130a7565b5b5f61345f8b828c01613128565b98505060206134708b828c016131cc565b97505060406134818b828c016133c1565b96505060606134928b828c01613128565b95505060806134a38b828c016131cc565b94505060a06134b48b828c01613128565b93505060c089013567ffffffffffffffff8111156134d5576134d46130ab565b5b6134e18b828c016133e1565b92509250509295985092959890939650565b6134fc816130af565b82525050565b5f6020820190506135155f8301846134f3565b92915050565b5f805f805f60a08688031215613534576135336130a7565b5b5f61354188828901613128565b9550506020613552888289016131cc565b9450506040613563888289016131cc565b9350506060613574888289016131cc565b9250506080613585888289016131cc565b9150509295509295909350565b608082015f8201516135a65f850182613283565b5060208201516135b96020850182613283565b5060408201516135cc6040850182613283565b5060608201516135df6060850182613283565b50505050565b5f6080820190506135f85f830184613592565b92915050565b61360781613101565b82525050565b5f6020820190506136205f8301846135fe565b92915050565b5f805f6060848603121561363d5761363c6130a7565b5b5f61364a868287016130ce565b935050602061365b86828701613128565b925050604061366c868287016131cc565b9150509250925092565b5f67ffffffffffffffff82169050919050565b61369281613676565b811461369c575f80fd5b50565b5f813590506136ad81613689565b92915050565b5f805f805f60a086880312156136cc576136cb6130a7565b5b5f6136d9888289016130ce565b95505060206136ea888289016130ce565b94505060406136fb88828901613128565b935050606061370c8882890161369f565b925050608061371d8882890161369f565b9150509295509295909350565b5f82825260208201905092915050565b7f476174657761793a207a65726f206164647265737300000000000000000000005f82015250565b5f61376e60158361372a565b91506137798261373a565b602082019050919050565b5f6020820190508181035f83015261379b81613762565b9050919050565b7f476174657761793a207472656173757279206164647265737320616c726561645f8201527f7920736574000000000000000000000000000000000000000000000000000000602082015250565b5f6137fc60258361372a565b9150613807826137a2565b604082019050919050565b5f6020820190508181035f830152613829816137f0565b9050919050565b7f476174657761793a2061676772656761746f72206164647265737320616c72655f8201527f6164792073657400000000000000000000000000000000000000000000000000602082015250565b5f61388a60278361372a565b915061389582613830565b604082019050919050565b5f6020820190508181035f8301526138b78161387e565b9050919050565b7f4f6e6c7941676772656761746f720000000000000000000000000000000000005f82015250565b5f6138f2600e8361372a565b91506138fd826138be565b602082019050919050565b5f6020820190508181035f83015261391f816138e6565b9050919050565b7f4f7264657246756c66696c6c65640000000000000000000000000000000000005f82015250565b5f61395a600e8361372a565b915061396582613926565b602082019050919050565b5f6020820190508181035f8301526139878161394e565b9050919050565b7f4f72646572526566756e646564000000000000000000000000000000000000005f82015250565b5f6139c2600d8361372a565b91506139cd8261398e565b602082019050919050565b5f6020820190508181035f8301526139ef816139b6565b9050919050565b7f4665654578636565647350726f746f636f6c46656500000000000000000000005f82015250565b5f613a2a60158361372a565b9150613a35826139f6565b602082019050919050565b5f6020820190508181035f830152613a5781613a1e565b9050919050565b613a67816131ad565b82525050565b5f604082019050613a805f8301856135fe565b613a8d6020830184613a5e565b9392505050565b613a9d8161317a565b8114613aa7575f80fd5b50565b5f81519050613ab881613a94565b92915050565b5f60208284031215613ad357613ad26130a7565b5b5f613ae084828501613aaa565b91505092915050565b7f4e487b71000000000000000000000000000000000000000000000000000000005f52601160045260245ffd5b5f613b20826131ad565b9150613b2b836131ad565b9250828203905081811115613b4357613b42613ae9565b5b92915050565b5f613b53826131ad565b9150613b5e836131ad565b9250828201905080821115613b7657613b75613ae9565b5b92915050565b5f602082019050613b8f5f830184613a5e565b92915050565b7f4f776e61626c6532537465703a2063616c6c6572206973206e6f7420746865205f8201527f6e6577206f776e65720000000000000000000000000000000000000000000000602082015250565b5f613bef60298361372a565b9150613bfa82613b95565b604082019050919050565b5f6020820190508181035f830152613c1c81613be3565b9050919050565b7f496e76616c69644d6573736167654861736800000000000000000000000000005f82015250565b5f613c5760128361372a565b9150613c6282613c23565b602082019050919050565b5f6020820190508181035f830152613c8481613c4b565b9050919050565b5f606082019050613c9e5f8301866135fe565b613cab60208301856135fe565b613cb86040830184613a5e565b949350505050565b5f613cca826131ad565b91507fffffffffffffffffffffffffffffffffffffffffffffffffffffffffffffffff8203613cfc57613cfb613ae9565b5b600182019050919050565b5f606082019050613d1a5f8301866135fe565b613d276020830185613a5e565b613d346040830184613a5e565b949350505050565b7f4f72646572416c726561647945786973747300000000000000000000000000005f82015250565b5f613d7060128361372a565b9150613d7b82613d3c565b602082019050919050565b5f6020820190508181035f830152613d9d81613d64565b9050919050565b7f53656e64657246656549735a65726f00000000000000000000000000000000005f82015250565b5f613dd8600f8361372a565b9150613de382613da4565b602082019050919050565b5f6020820190508181035f830152613e0581613dcc565b9050919050565b7f546f6b656e46656553657474696e67734e6f74436f6e666967757265640000005f82015250565b5f613e40601d8361372a565b9150613e4b82613e0c565b602082019050919050565b5f6020820190508181035f830152613e6d81613e34565b9050919050565b5f613e7e826131ad565b9150613e89836131ad565b9250828202613e97816131ad565b91508282048414831517613eae57613ead613ae9565b5b5092915050565b7f4e487b71000000000000000000000000000000000000000000000000000000005f52601260045260245ffd5b5f613eec826131ad565b9150613ef7836131ad565b925082613f0757613f06613eb5565b5b828204905092915050565b5f819050919050565b5f613f35613f30613f2b846132a1565b613f12565b6131ad565b9050919050565b613f4581613f1b565b82525050565b828183375f83830152505050565b5f601f19601f8301169050919050565b5f613f74838561372a565b9350613f81838584613f4b565b613f8a83613f59565b840190509392505050565b5f608082019050613fa85f830188613a5e565b613fb560208301876134f3565b613fc26040830186613f3c565b8181036060830152613fd5818486613f69565b90509695505050505050565b7f496e697469616c697a61626c653a20636f6e747261637420697320616c7265615f8201527f647920696e697469616c697a6564000000000000000000000000000000000000602082015250565b5f61403b602e8361372a565b915061404682613fe1565b604082019050919050565b5f6020820190508181035f8301526140688161402f565b9050919050565b5f819050919050565b5f60ff82169050919050565b5f61409e6140996140948461406f565b613f12565b614078565b9050919050565b6140ae81614084565b82525050565b5f6020820190506140c75f8301846140a5565b92915050565b7f476174657761793a20746f6b656e206e6f7420737570706f72746564000000005f82015250565b5f614101601c8361372a565b915061410c826140cd565b602082019050919050565b5f6020820190508181035f83015261412e816140f5565b9050919050565b7f476174657761793a20696e76616c69642073656e64657220746f2070726f76695f8201527f6465720000000000000000000000000000000000000000000000000000000000602082015250565b5f61418f60238361372a565b915061419a82614135565b604082019050919050565b5f6020820190508181035f8301526141bc81614183565b9050919050565b7f476174657761793a20696e76616c69642070726f766964657220746f206167675f8201527f72656761746f7200000000000000000000000000000000000000000000000000602082015250565b5f61421d60278361372a565b9150614228826141c3565b604082019050919050565b5f6020820190508181035f83015261424a81614211565b9050919050565b7f476174657761793a20696e76616c69642073656e64657220746f2061676772655f8201527f6761746f72000000000000000000000000000000000000000000000000000000602082015250565b5f6142ab60258361372a565b91506142b682614251565b604082019050919050565b5f6020820190508181035f8301526142d88161429f565b9050919050565b7f476174657761793a20696e76616c69642070726f766964657220746f206167675f8201527f72656761746f7220667800000000000000000000000000000000000000000000602082015250565b5f614339602a8361372a565b9150614344826142df565b604082019050919050565b5f6020820190508181035f8301526143668161432d565b9050919050565b5f6080820190506143805f830187613a5e565b61438d6020830186613a5e565b61439a6040830185613a5e565b6143a76060830184613a5e565b95945050505050565b7f476174657761793a20696e76616c6964207374617475730000000000000000005f82015250565b5f6143e460178361372a565b91506143ef826143b0565b602082019050919050565b5f6020820190508181035f830152614411816143d8565b9050919050565b7f496e76616c696452656261746550657263656e740000000000000000000000005f82015250565b5f61444c60148361372a565b915061445782614418565b602082019050919050565b5f6020820190508181035f83015261447981614440565b9050919050565b5f61448a826132a1565b9150614495836132a1565b925082820390506bffffffffffffffffffffffff8111156144b9576144b8613ae9565b5b92915050565b6144c881613676565b82525050565b5f6060820190506144e15f8301866134f3565b6144ee60208301856144bf565b6144fb60408301846144bf565b949350505050565b7f4f776e61626c653a2063616c6c6572206973206e6f7420746865206f776e65725f82015250565b5f61453760208361372a565b915061454282614503565b602082019050919050565b5f6020820190508181035f8301526145648161452b565b9050919050565b7f5061757361626c653a20706175736564000000000000000000000000000000005f82015250565b5f61459f60108361372a565b91506145aa8261456b565b602082019050919050565b5f6020820190508181035f8301526145cc81614593565b9050919050565b7f546f6b656e4e6f74537570706f727465640000000000000000000000000000005f82015250565b5f61460760118361372a565b9150614612826145d3565b602082019050919050565b5f6020820190508181035f830152614634816145fb565b9050919050565b7f416d6f756e7449735a65726f00000000000000000000000000000000000000005f82015250565b5f61466f600c8361372a565b915061467a8261463b565b602082019050919050565b5f6020820190508181035f83015261469c81614663565b9050919050565b7f5468726f775a65726f41646472657373000000000000000000000000000000005f82015250565b5f6146d760108361372a565b91506146e2826146a3565b602082019050919050565b5f6020820190508181035f830152614704816146cb565b9050919050565b7f496e76616c696453656e646572466565526563697069656e74000000000000005f82015250565b5f61473f60198361372a565b915061474a8261470b565b602082019050919050565b5f6020820190508181035f83015261476c81614733565b9050919050565b7f496e697469616c697a61626c653a20636f6e7472616374206973206e6f7420695f8201527f6e697469616c697a696e67000000000000000000000000000000000000000000602082015250565b5f6147cd602b8361372a565b91506147d882614773565b604082019050919050565b5f6020820190508181035f8301526147fa816147c1565b9050919050565b5f6040820190506148145f830185613a5e565b6148216020830184613a5e565b9392505050565b5f60608201905061483b5f830186613a5e565b6148486020830185613a5e565b6148556040830184613a5e565b949350505050565b7f5061757361626c653a206e6f74207061757365640000000000000000000000005f82015250565b5f61489160148361372a565b915061489c8261485d565b602082019050919050565b5f6020820190508181035f8301526148be81614885565b905091905056fea2646970667358221220039a17c0ebb0f09c3837d6bfd7843968f1541a8d63bc2784f173950574c7bec164736f6c63430008140033",
  "linkReferences": {},
  "deployedLinkReferences": {}
}