{
  "_format": "hh-sol-artifact-1",
  "contractName": "Gateway",
  "sourceName": "contracts/Gateway.sol",
  "abi": [
    {
      "inputs": [],
      "stateMutability": "nonpayable",
      "type": "constructor"
    },
    {
      "anonymous": false,
      "inputs": [
        {
          "indexed": false,
          "internalType": "uint8",
          "name": "version",
          "type": "uint8"
        }
      ],
      "name": "Initialized",
      "type": "event"
    },
    {
      "anonymous": false,
      "inputs": [
        {
          "indexed": true,
          "internalType": "address",
          "name": "sender",
          "type": "address"
        },
        {
          "indexed": true,
          "internalType": "address",
          "name": "token",
          "type": "address"
        },
        {
          "indexed": true,
          "internalType": "uint256",
          "name": "amount",
          "type": "uint256"
        },
        {
          "indexed": false,
          "internalType": "uint256",
          "name": "protocolFee",
          "type": "uint256"
        },
        {
          "indexed": false,
          "internalType": "bytes32",
          "name": "orderId",
          "type": "bytes32"
        },
        {
          "indexed": false,
          "internalType": "uint256",
          "name": "rate",
          "type": "uint256"
        },
        {
          "indexed": false,
          "internalType": "string",
          "name": "messageHash",
          "type": "string"
        }
      ],
      "name": "OrderCreated",
      "type": "event"
    },
    {
      "anonymous": false,
      "inputs": [
        {
          "indexed": false,
          "internalType": "uint256",
          "name": "fee",
          "type": "uint256"
        },
        {
          "indexed": true,
          "internalType": "bytes32",
          "name": "orderId",
          "type": "bytes32"
        }
      ],
      "name": "OrderRefunded",
      "type": "event"
    },
    {
      "anonymous": false,
      "inputs": [
        {
          "indexed": false,
          "internalType": "bytes32",
          "name": "splitOrderId",
          "type": "bytes32"
        },
        {
          "indexed": true,
          "internalType": "bytes32",
          "name": "orderId",
          "type": "bytes32"
        },
        {
          "indexed": true,
          "internalType": "address",
          "name": "liquidityProvider",
          "type": "address"
        },
        {
          "indexed": false,
          "internalType": "uint96",
          "name": "settlePercent",
          "type": "uint96"
        }
      ],
      "name": "OrderSettled",
      "type": "event"
    },
    {
      "anonymous": false,
      "inputs": [
        {
          "indexed": true,
          "internalType": "address",
          "name": "previousOwner",
          "type": "address"
        },
        {
          "indexed": true,
          "internalType": "address",
          "name": "newOwner",
          "type": "address"
        }
      ],
      "name": "OwnershipTransferStarted",
      "type": "event"
    },
    {
      "anonymous": false,
      "inputs": [
        {
          "indexed": true,
          "internalType": "address",
          "name": "previousOwner",
          "type": "address"
        },
        {
          "indexed": true,
          "internalType": "address",
          "name": "newOwner",
          "type": "address"
        }
      ],
      "name": "OwnershipTransferred",
      "type": "event"
    },
    {
      "anonymous": false,
      "inputs": [
        {
          "indexed": false,
          "internalType": "address",
          "name": "account",
          "type": "address"
        }
      ],
      "name": "Paused",
      "type": "event"
    },
    {
      "anonymous": false,
      "inputs": [
        {
          "indexed": true,
          "internalType": "bytes32",
          "name": "orderId",
          "type": "bytes32"
        },
        {
          "indexed": true,
          "internalType": "uint256",
          "name": "amount",
          "type": "uint256"
        },
        {
          "indexed": true,
          "internalType": "address",
          "name": "recipient",
          "type": "address"
        },
        {
          "indexed": false,
          "internalType": "address",
          "name": "token",
          "type": "address"
        },
        {
          "indexed": false,
          "internalType": "address",
          "name": "senderFee",
          "type": "address"
        },
        {
          "indexed": false,
          "internalType": "address",
          "name": "liquidityProvider",
          "type": "address"
        },
        {
          "indexed": false,
          "internalType": "uint96",
          "name": "rate",
          "type": "uint96"
        },
        {
          "indexed": false,
          "internalType": "string",
          "name": "messageHash",
          "type": "string"
        }
      ],
      "name": "ProcessSettlement",
      "type": "event"
    },
    {
      "anonymous": false,
      "inputs": [
        {
          "indexed": true,
          "internalType": "bytes32",
          "name": "what",
          "type": "bytes32"
        },
        {
          "indexed": true,
          "internalType": "address",
          "name": "treasuryAddress",
          "type": "address"
        }
      ],
      "name": "ProtocolAddressUpdated",
      "type": "event"
    },
    {
      "anonymous": false,
      "inputs": [
        {
          "indexed": false,
          "internalType": "uint64",
          "name": "protocolFee",
          "type": "uint64"
        }
      ],
      "name": "ProtocolFeeUpdated",
      "type": "event"
    },
    {
      "anonymous": false,
      "inputs": [
        {
          "indexed": true,
          "internalType": "address",
          "name": "sender",
          "type": "address"
        },
        {
          "indexed": true,
          "internalType": "uint256",
          "name": "amount",
          "type": "uint256"
        }
      ],
      "name": "SenderFeeTransferred",
      "type": "event"
    },
    {
      "anonymous": false,
      "inputs": [
        {
          "indexed": true,
          "internalType": "address",
          "name": "treasuryAddress",
          "type": "address"
        }
      ],
      "name": "SetFeeRecipient",
      "type": "event"
    },
    {
      "anonymous": false,
      "inputs": [
        {
          "indexed": true,
          "internalType": "bytes32",
          "name": "what",
          "type": "bytes32"
        },
        {
          "indexed": true,
          "internalType": "address",
          "name": "value",
          "type": "address"
        },
        {
          "indexed": false,
          "internalType": "uint256",
          "name": "status",
          "type": "uint256"
        }
      ],
      "name": "SettingManagerBool",
      "type": "event"
    },
    {
      "anonymous": false,
      "inputs": [
        {
          "indexed": false,
          "internalType": "address",
          "name": "account",
          "type": "address"
        }
      ],
      "name": "Unpaused",
      "type": "event"
    },
    {
      "inputs": [],
      "name": "acceptOwnership",
      "outputs": [],
      "stateMutability": "nonpayable",
      "type": "function"
    },
    {
      "inputs": [
        {
          "internalType": "address",
          "name": "_token",
          "type": "address"
        },
        {
          "internalType": "uint256",
          "name": "_amount",
          "type": "uint256"
        },
        {
          "internalType": "uint96",
          "name": "_rate",
          "type": "uint96"
        },
        {
          "internalType": "address",
          "name": "_senderFeeRecipient",
          "type": "address"
        },
        {
          "internalType": "uint256",
          "name": "_senderFee",
          "type": "uint256"
        },
        {
          "internalType": "address",
          "name": "_refundAddress",
          "type": "address"
        },
        {
          "internalType": "string",
          "name": "messageHash",
          "type": "string"
        }
      ],
      "name": "createOrder",
      "outputs": [
        {
          "internalType": "bytes32",
          "name": "orderId",
          "type": "bytes32"
        }
      ],
      "stateMutability": "nonpayable",
      "type": "function"
    },
    {
      "inputs": [],
      "name": "getFeeDetails",
      "outputs": [
        {
          "internalType": "uint64",
          "name": "",
          "type": "uint64"
        },
        {
          "internalType": "uint256",
          "name": "",
          "type": "uint256"
        }
      ],
      "stateMutability": "view",
      "type": "function"
    },
    {
      "inputs": [
        {
          "internalType": "bytes32",
          "name": "_orderId",
          "type": "bytes32"
        }
      ],
      "name": "getOrderInfo",
      "outputs": [
        {
          "components": [
            {
              "internalType": "address",
              "name": "sender",
              "type": "address"
            },
            {
              "internalType": "address",
              "name": "token",
              "type": "address"
            },
            {
              "internalType": "address",
              "name": "senderFeeRecipient",
              "type": "address"
            },
            {
              "internalType": "uint256",
              "name": "senderFee",
              "type": "uint256"
            },
            {
              "internalType": "uint256",
              "name": "protocolFee",
              "type": "uint256"
            },
            {
              "internalType": "bool",
              "name": "isFulfilled",
              "type": "bool"
            },
            {
              "internalType": "bool",
              "name": "isRefunded",
              "type": "bool"
            },
            {
              "internalType": "address",
              "name": "refundAddress",
              "type": "address"
            },
            {
              "internalType": "uint96",
              "name": "currentBPS",
              "type": "uint96"
            },
            {
              "internalType": "uint256",
              "name": "amount",
              "type": "uint256"
            }
          ],
          "internalType": "struct IGateway.Order",
          "name": "",
          "type": "tuple"
        }
      ],
      "stateMutability": "view",
      "type": "function"
    },
    {
      "inputs": [],
      "name": "initialize",
      "outputs": [],
      "stateMutability": "nonpayable",
      "type": "function"
    },
    {
      "inputs": [
        {
          "internalType": "address",
          "name": "_token",
          "type": "address"
        }
      ],
      "name": "isTokenSupported",
      "outputs": [
        {
          "internalType": "bool",
          "name": "",
          "type": "bool"
        }
      ],
      "stateMutability": "view",
      "type": "function"
    },
    {
      "inputs": [],
      "name": "owner",
      "outputs": [
        {
          "internalType": "address",
          "name": "",
          "type": "address"
        }
      ],
      "stateMutability": "view",
      "type": "function"
    },
    {
      "inputs": [],
      "name": "pause",
      "outputs": [],
      "stateMutability": "nonpayable",
      "type": "function"
    },
    {
      "inputs": [],
      "name": "paused",
      "outputs": [
        {
          "internalType": "bool",
          "name": "",
          "type": "bool"
        }
      ],
      "stateMutability": "view",
      "type": "function"
    },
    {
      "inputs": [],
      "name": "pendingOwner",
      "outputs": [
        {
          "internalType": "address",
          "name": "",
          "type": "address"
        }
      ],
      "stateMutability": "view",
      "type": "function"
    },
    {
      "inputs": [
        {
          "internalType": "bytes32",
          "name": "_orderId",
          "type": "bytes32"
        },
        {
          "internalType": "address",
          "name": "_token",
          "type": "address"
        },
        {
          "internalType": "uint256",
          "name": "_amount",
          "type": "uint256"
        },
        {
          "internalType": "address",
          "name": "_senderFeeRecipient",
          "type": "address"
        },
        {
          "internalType": "uint96",
          "name": "_senderFee",
          "type": "uint96"
        },
        {
          "internalType": "address",
          "name": "_liquidityProvider",
          "type": "address"
        },
        {
          "internalType": "uint96",
          "name": "_protocolFee",
          "type": "uint96"
        },
        {
          "internalType": "address",
          "name": "_recipient",
          "type": "address"
        },
        {
          "internalType": "uint96",
          "name": "_rate",
          "type": "uint96"
        },
        {
          "internalType": "string",
          "name": "_messageHash",
          "type": "string"
        }
      ],
      "name": "processSettlement",
      "outputs": [
        {
          "internalType": "bool",
          "name": "",
          "type": "bool"
        }
      ],
      "stateMutability": "nonpayable",
      "type": "function"
    },
    {
      "inputs": [
        {
          "internalType": "uint256",
          "name": "_fee",
          "type": "uint256"
        },
        {
          "internalType": "bytes32",
          "name": "_orderId",
          "type": "bytes32"
        }
      ],
      "name": "refund",
      "outputs": [
        {
          "internalType": "bool",
          "name": "",
          "type": "bool"
        }
      ],
      "stateMutability": "nonpayable",
      "type": "function"
    },
    {
      "inputs": [],
      "name": "renounceOwnership",
      "outputs": [],
      "stateMutability": "nonpayable",
      "type": "function"
    },
    {
      "inputs": [
        {
          "internalType": "bytes32",
          "name": "what",
          "type": "bytes32"
        },
        {
          "internalType": "address",
          "name": "value",
          "type": "address"
        },
        {
          "internalType": "uint256",
          "name": "status",
          "type": "uint256"
        }
      ],
      "name": "settingManagerBool",
      "outputs": [],
      "stateMutability": "nonpayable",
      "type": "function"
    },
    {
      "inputs": [
        {
          "internalType": "bytes32",
          "name": "_splitOrderId",
          "type": "bytes32"
        },
        {
          "internalType": "bytes32",
          "name": "_orderId",
          "type": "bytes32"
        },
        {
          "internalType": "address",
          "name": "_liquidityProvider",
          "type": "address"
        },
        {
          "internalType": "uint64",
          "name": "_settlePercent",
          "type": "uint64"
        }
      ],
      "name": "settle",
      "outputs": [
        {
          "internalType": "bool",
          "name": "",
          "type": "bool"
        }
      ],
      "stateMutability": "nonpayable",
      "type": "function"
    },
    {
      "inputs": [
        {
          "internalType": "address",
          "name": "newOwner",
          "type": "address"
        }
      ],
      "name": "transferOwnership",
      "outputs": [],
      "stateMutability": "nonpayable",
      "type": "function"
    },
    {
      "inputs": [],
      "name": "unpause",
      "outputs": [],
      "stateMutability": "nonpayable",
      "type": "function"
    },
    {
      "inputs": [
        {
          "internalType": "bytes32",
          "name": "what",
          "type": "bytes32"
        },
        {
          "internalType": "address",
          "name": "value",
          "type": "address"
        }
      ],
      "name": "updateProtocolAddress",
      "outputs": [],
      "stateMutability": "nonpayable",
      "type": "function"
    },
    {
      "inputs": [
        {
          "internalType": "uint64",
          "name": "_protocolFeePercent",
          "type": "uint64"
        }
      ],
      "name": "updateProtocolFee",
      "outputs": [],
      "stateMutability": "nonpayable",
      "type": "function"
    }
  ],
  "bytecode": "0x60806040523480156200001157600080fd5b50620000226200002860201b60201c565b620001d2565b600060019054906101000a900460ff16156200007b576040517f08c379a0000000000000000000000000000000000000000000000000000000008152600401620000729062000175565b60405180910390fd5b60ff801660008054906101000a900460ff1660ff1614620000ec5760ff6000806101000a81548160ff021916908360ff1602179055507f7f26b83ff96e1f2b6a682f133852f6798a09c465da95921460cefb384740249860ff604051620000e39190620001b5565b60405180910390a15b565b600082825260208201905092915050565b7f496e697469616c697a61626c653a20636f6e747261637420697320696e69746960008201527f616c697a696e6700000000000000000000000000000000000000000000000000602082015250565b60006200015d602783620000ee565b91506200016a82620000ff565b604082019050919050565b6000602082019050818103600083015262000190816200014e565b9050919050565b600060ff82169050919050565b620001af8162000197565b82525050565b6000602082019050620001cc6000830184620001a4565b92915050565b61416b80620001e26000396000f3fe608060405234801561001057600080fd5b50600436106101215760003560e01c806379ec5809116100ad578063b810c63611610071578063b810c636146102bc578063cd992400146102db578063e30c3978146102f7578063f22ee70414610315578063f2fde38b1461034557610121565b806379ec58091461022a578063809804f71461025a5780638129fc1c1461028a5780638456cb59146102945780638da5cb5b1461029e57610121565b8063715018a6116100f4578063715018a61461018657806371eedb881461019057806375151b63146101c0578063768c6ec0146101f057806379ba50971461022057610121565b80633f4ba83a1461012657806340ebc6771461013057806347094e2e1461014c5780635c975abb14610168575b600080fd5b61012e610361565b005b61014a60048036038101906101459190612bb0565b610373565b005b61016660048036038101906101619190612c30565b61063b565b005b6101706106a6565b60405161017d9190612c78565b60405180910390f35b61018e6106bd565b005b6101aa60048036038101906101a59190612cc9565b6106d1565b6040516101b79190612c78565b60405180910390f35b6101da60048036038101906101d59190612d09565b610b4f565b6040516101e79190612c78565b60405180910390f35b61020a60048036038101906102059190612d36565b610bab565b6040516102179190612e83565b60405180910390f35b610228610dc3565b005b610244600480360381019061023f9190612f30565b610e50565b6040516102519190612c78565b60405180910390f35b610274600480360381019061026f9190613030565b6114b1565b6040516102819190613101565b60405180910390f35b6102926119b0565b005b61029c611b00565b005b6102a6611b12565b6040516102b3919061312b565b60405180910390f35b6102c4611b3c565b6040516102d2929190613164565b60405180910390f35b6102f560048036038101906102f0919061318d565b611b61565b005b6102ff611ce6565b60405161030c919061312b565b60405180910390f35b61032f600480360381019061032a91906131e0565b611d10565b60405161033c9190612c78565b60405180910390f35b61035f600480360381019061035a9190612d09565b61237d565b005b61036961242a565b6103716124a8565b565b61037b61242a565b600073ffffffffffffffffffffffffffffffffffffffff168173ffffffffffffffffffffffffffffffffffffffff16036103ea576040517f08c379a00000000000000000000000000000000000000000000000000000000081526004016103e1906132a4565b60405180910390fd5b60007f747265617375727900000000000000000000000000000000000000000000000083036104ed578173ffffffffffffffffffffffffffffffffffffffff16609860089054906101000a900473ffffffffffffffffffffffffffffffffffffffff1673ffffffffffffffffffffffffffffffffffffffff16036104a3576040517f08c379a000000000000000000000000000000000000000000000000000000000815260040161049a90613336565b60405180910390fd5b81609860086101000a81548173ffffffffffffffffffffffffffffffffffffffff021916908373ffffffffffffffffffffffffffffffffffffffff160217905550600190506105eb565b7f61676772656761746f720000000000000000000000000000000000000000000083036105ea578173ffffffffffffffffffffffffffffffffffffffff16609960009054906101000a900473ffffffffffffffffffffffffffffffffffffffff1673ffffffffffffffffffffffffffffffffffffffff16036105a4576040517f08c379a000000000000000000000000000000000000000000000000000000000815260040161059b906133c8565b60405180910390fd5b81609960006101000a81548173ffffffffffffffffffffffffffffffffffffffff021916908373ffffffffffffffffffffffffffffffffffffffff160217905550600190505b5b8015610636578173ffffffffffffffffffffffffffffffffffffffff16837fbbc5b96e57cfecb3dbeeadf92e87f15e58e64fcd75cbe256dcc5d9ef2e51e8a460405160405180910390a35b505050565b61064361242a565b80609860006101000a81548167ffffffffffffffff021916908367ffffffffffffffff1602179055507f1ce29a697a4765bd17d91df93ba75b250b629ecf030553ff1f6ab59f15ae6c7b8160405161069b91906133e8565b60405180910390a150565b600060cd60009054906101000a900460ff16905090565b6106c561242a565b6106cf600061250b565b565b6000609960009054906101000a900473ffffffffffffffffffffffffffffffffffffffff1673ffffffffffffffffffffffffffffffffffffffff163373ffffffffffffffffffffffffffffffffffffffff1614610763576040517f08c379a000000000000000000000000000000000000000000000000000000000815260040161075a9061344f565b60405180910390fd5b60ff600083815260200190815260200160002060050160009054906101000a900460ff16156107c7576040517f08c379a00000000000000000000000000000000000000000000000000000000081526004016107be906134bb565b60405180910390fd5b60ff600083815260200190815260200160002060050160019054906101000a900460ff161561082b576040517f08c379a000000000000000000000000000000000000000000000000000000000815260040161082290613527565b60405180910390fd5b8260ff6000848152602001908152602001600020600401541015610884576040517f08c379a000000000000000000000000000000000000000000000000000000000815260040161087b90613593565b60405180910390fd5b60008311156109655760ff600083815260200190815260200160002060010160009054906101000a900473ffffffffffffffffffffffffffffffffffffffff1673ffffffffffffffffffffffffffffffffffffffff1663a9059cbb609860089054906101000a900473ffffffffffffffffffffffffffffffffffffffff16856040518363ffffffff1660e01b81526004016109209291906135b3565b6020604051808303816000875af115801561093f573d6000803e3d6000fd5b505050506040513d601f19601f820116820180604052508101906109639190613608565b505b600160ff600084815260200190815260200160002060050160016101000a81548160ff021916908315150217905550600060ff600084815260200190815260200160002060060160006101000a8154816bffffffffffffffffffffffff02191690836bffffffffffffffffffffffff16021790555060008360ff6000858152602001908152602001600020600701546109fe9190613664565b905060ff600084815260200190815260200160002060010160009054906101000a900473ffffffffffffffffffffffffffffffffffffffff1673ffffffffffffffffffffffffffffffffffffffff1663a9059cbb60ff600086815260200190815260200160002060050160029054906101000a900473ffffffffffffffffffffffffffffffffffffffff1660ff60008781526020019081526020016000206003015484610aab9190613698565b6040518363ffffffff1660e01b8152600401610ac89291906135b3565b6020604051808303816000875af1158015610ae7573d6000803e3d6000fd5b505050506040513d601f19601f82011682018060405250810190610b0b9190613608565b50827f0736fe428e1747ca8d387c2e6fa1a31a0cde62d3a167c40a46ade59a3cdc828e85604051610b3c91906136cc565b60405180910390a2600191505092915050565b60006001609a60008473ffffffffffffffffffffffffffffffffffffffff1673ffffffffffffffffffffffffffffffffffffffff1681526020019081526020016000205403610ba15760019050610ba6565b600090505b919050565b610bb3612a55565b60ff6000838152602001908152602001600020604051806101400160405290816000820160009054906101000a900473ffffffffffffffffffffffffffffffffffffffff1673ffffffffffffffffffffffffffffffffffffffff1673ffffffffffffffffffffffffffffffffffffffff1681526020016001820160009054906101000a900473ffffffffffffffffffffffffffffffffffffffff1673ffffffffffffffffffffffffffffffffffffffff1673ffffffffffffffffffffffffffffffffffffffff1681526020016002820160009054906101000a900473ffffffffffffffffffffffffffffffffffffffff1673ffffffffffffffffffffffffffffffffffffffff1673ffffffffffffffffffffffffffffffffffffffff16815260200160038201548152602001600482015481526020016005820160009054906101000a900460ff161515151581526020016005820160019054906101000a900460ff161515151581526020016005820160029054906101000a900473ffffffffffffffffffffffffffffffffffffffff1673ffffffffffffffffffffffffffffffffffffffff1673ffffffffffffffffffffffffffffffffffffffff1681526020016006820160009054906101000a90046bffffffffffffffffffffffff166bffffffffffffffffffffffff166bffffffffffffffffffffffff1681526020016007820154815250509050919050565b6000610dcd61253c565b90508073ffffffffffffffffffffffffffffffffffffffff16610dee611ce6565b73ffffffffffffffffffffffffffffffffffffffff1614610e44576040517f08c379a0000000000000000000000000000000000000000000000000000000008152600401610e3b90613759565b60405180910390fd5b610e4d8161250b565b50565b6000609960009054906101000a900473ffffffffffffffffffffffffffffffffffffffff1673ffffffffffffffffffffffffffffffffffffffff163373ffffffffffffffffffffffffffffffffffffffff1614610ee2576040517f08c379a0000000000000000000000000000000000000000000000000000000008152600401610ed99061344f565b60405180910390fd5b60ff60008d815260200190815260200160002060050160009054906101000a900460ff1615610f46576040517f08c379a0000000000000000000000000000000000000000000000000000000008152600401610f3d906137c5565b60405180910390fd5b60008a11610f89576040517f08c379a0000000000000000000000000000000000000000000000000000000008152600401610f8090613831565b60405180910390fd5b600073ffffffffffffffffffffffffffffffffffffffff168573ffffffffffffffffffffffffffffffffffffffff1603610ff8576040517f08c379a0000000000000000000000000000000000000000000000000000000008152600401610fef9061389d565b60405180910390fd5b60008a90506000896bffffffffffffffffffffffff161461117057600073ffffffffffffffffffffffffffffffffffffffff168a73ffffffffffffffffffffffffffffffffffffffff1603611082576040517f08c379a000000000000000000000000000000000000000000000000000000000815260040161107990613909565b60405180910390fd5b886bffffffffffffffffffffffff168161109c9190613664565b90508b73ffffffffffffffffffffffffffffffffffffffff1663a9059cbb8b8b6040518363ffffffff1660e01b81526004016110d9929190613964565b6020604051808303816000875af11580156110f8573d6000803e3d6000fd5b505050506040513d601f19601f8201168201806040525081019061111c9190613608565b50886bffffffffffffffffffffffff168a73ffffffffffffffffffffffffffffffffffffffff167f44f6938ca4a10313aabb76f874cced61e35710a734a126e4afb34461bf8c250160405160405180910390a35b6000876bffffffffffffffffffffffff161115611229578b73ffffffffffffffffffffffffffffffffffffffff1663a9059cbb609860089054906101000a900473ffffffffffffffffffffffffffffffffffffffff16896040518363ffffffff1660e01b81526004016111e4929190613964565b6020604051808303816000875af1158015611203573d6000803e3d6000fd5b505050506040513d601f19601f820116820180604052508101906112279190613608565b505b8b73ffffffffffffffffffffffffffffffffffffffff1663a9059cbb87836040518363ffffffff1660e01b81526004016112649291906135b3565b6020604051808303816000875af1158015611283573d6000803e3d6000fd5b505050506040513d601f19601f820116820180604052508101906112a79190613608565b508560ff60008f815260200190815260200160002060000160006101000a81548173ffffffffffffffffffffffffffffffffffffffff021916908373ffffffffffffffffffffffffffffffffffffffff1602179055508b60ff60008f815260200190815260200160002060010160006101000a81548173ffffffffffffffffffffffffffffffffffffffff021916908373ffffffffffffffffffffffffffffffffffffffff1602179055508960ff60008f815260200190815260200160002060020160006101000a81548173ffffffffffffffffffffffffffffffffffffffff021916908373ffffffffffffffffffffffffffffffffffffffff160217905550886bffffffffffffffffffffffff1660ff60008f815260200190815260200160002060030181905550866bffffffffffffffffffffffff1660ff60008f815260200190815260200160002060040181905550600160ff60008f815260200190815260200160002060050160006101000a81548160ff0219169083151502179055508060ff60008f8152602001908152602001600020600701819055508573ffffffffffffffffffffffffffffffffffffffff168b8e7f8658aa8a4a6ef641d1fd3b5bb33205d173a5404ab1f7cd1a81d2828f94b8bf028f8e8d8b8b8b604051611495969594939291906139e9565b60405180910390a460019150509b9a5050505050505050505050565b60006114bb612544565b6114c8898986898961258e565b6000838390500361150e576040517f08c379a000000000000000000000000000000000000000000000000000000000815260040161150590613a91565b60405180910390fd5b8873ffffffffffffffffffffffffffffffffffffffff166323b872dd3330888c6115389190613698565b6040518463ffffffff1660e01b815260040161155693929190613ab1565b6020604051808303816000875af1158015611575573d6000803e3d6000fd5b505050506040513d601f19601f820116820180604052508101906115999190613608565b5061010060003373ffffffffffffffffffffffffffffffffffffffff1673ffffffffffffffffffffffffffffffffffffffff16815260200190815260200160002060008154809291906115eb90613ae8565b91905055503361010060003373ffffffffffffffffffffffffffffffffffffffff1673ffffffffffffffffffffffffffffffffffffffff168152602001908152602001600020546040516020016116439291906135b3565b6040516020818303038152906040528051906020012090506000609754609860009054906101000a900467ffffffffffffffff1667ffffffffffffffff168a61168c9190613b30565b6116969190613ba1565b90506040518061014001604052803373ffffffffffffffffffffffffffffffffffffffff1681526020018b73ffffffffffffffffffffffffffffffffffffffff1681526020018873ffffffffffffffffffffffffffffffffffffffff1681526020018781526020018281526020016000151581526020016000151581526020018673ffffffffffffffffffffffffffffffffffffffff16815260200160975467ffffffffffffffff166bffffffffffffffffffffffff1681526020018a81525060ff600084815260200190815260200160002060008201518160000160006101000a81548173ffffffffffffffffffffffffffffffffffffffff021916908373ffffffffffffffffffffffffffffffffffffffff16021790555060208201518160010160006101000a81548173ffffffffffffffffffffffffffffffffffffffff021916908373ffffffffffffffffffffffffffffffffffffffff16021790555060408201518160020160006101000a81548173ffffffffffffffffffffffffffffffffffffffff021916908373ffffffffffffffffffffffffffffffffffffffff160217905550606082015181600301556080820151816004015560a08201518160050160006101000a81548160ff02191690831515021790555060c08201518160050160016101000a81548160ff02191690831515021790555060e08201518160050160026101000a81548173ffffffffffffffffffffffffffffffffffffffff021916908373ffffffffffffffffffffffffffffffffffffffff1602179055506101008201518160060160006101000a8154816bffffffffffffffffffffffff02191690836bffffffffffffffffffffffff160217905550610120820151816007015590505060ff6000838152602001908152602001600020600701548a73ffffffffffffffffffffffffffffffffffffffff168673ffffffffffffffffffffffffffffffffffffffff167f40ccd1ceb111a3c186ef9911e1b876dc1f789ed331b86097b3b8851055b6a13784868d8a8a60405161199b959493929190613bd2565b60405180910390a45098975050505050505050565b60008060019054906101000a900460ff161590508080156119e15750600160008054906101000a900460ff1660ff16105b80611a0e57506119f030612741565b158015611a0d5750600160008054906101000a900460ff1660ff16145b5b611a4d576040517f08c379a0000000000000000000000000000000000000000000000000000000008152600401611a4490613c92565b60405180910390fd5b60016000806101000a81548160ff021916908360ff1602179055508015611a8a576001600060016101000a81548160ff0219169083151502179055505b620186a0609781905550611a9c612764565b611aa46127bd565b8015611afd5760008060016101000a81548160ff0219169083151502179055507f7f26b83ff96e1f2b6a682f133852f6798a09c465da95921460cefb38474024986001604051611af49190613cfa565b60405180910390a15b50565b611b0861242a565b611b10612816565b565b6000603360009054906101000a900473ffffffffffffffffffffffffffffffffffffffff16905090565b600080609860009054906101000a900467ffffffffffffffff16609754915091509091565b611b6961242a565b600073ffffffffffffffffffffffffffffffffffffffff168273ffffffffffffffffffffffffffffffffffffffff1603611bd8576040517f08c379a0000000000000000000000000000000000000000000000000000000008152600401611bcf906132a4565b60405180910390fd5b6001811480611be75750600281145b611c26576040517f08c379a0000000000000000000000000000000000000000000000000000000008152600401611c1d90613d61565b60405180910390fd5b7f746f6b656e0000000000000000000000000000000000000000000000000000008303611ce15780609a60008473ffffffffffffffffffffffffffffffffffffffff1673ffffffffffffffffffffffffffffffffffffffff168152602001908152602001600020819055508173ffffffffffffffffffffffffffffffffffffffff16837fcfa976492af7c14a916cc3a239f4c9c75bbd7f5f0e398beb41d892c7eeccae4c83604051611cd891906136cc565b60405180910390a35b505050565b6000606560009054906101000a900473ffffffffffffffffffffffffffffffffffffffff16905090565b6000609960009054906101000a900473ffffffffffffffffffffffffffffffffffffffff1673ffffffffffffffffffffffffffffffffffffffff163373ffffffffffffffffffffffffffffffffffffffff1614611da2576040517f08c379a0000000000000000000000000000000000000000000000000000000008152600401611d999061344f565b60405180910390fd5b60ff600085815260200190815260200160002060050160009054906101000a900460ff1615611e06576040517f08c379a0000000000000000000000000000000000000000000000000000000008152600401611dfd906134bb565b60405180910390fd5b60ff600085815260200190815260200160002060050160019054906101000a900460ff1615611e6a576040517f08c379a0000000000000000000000000000000000000000000000000000000008152600401611e6190613527565b60405180910390fd5b600060ff600086815260200190815260200160002060010160009054906101000a900473ffffffffffffffffffffffffffffffffffffffff1690508267ffffffffffffffff1660ff600087815260200190815260200160002060060160008282829054906101000a90046bffffffffffffffffffffffff16611eec9190613d81565b92506101000a8154816bffffffffffffffffffffffff02191690836bffffffffffffffffffffffff160217905550600060ff600087815260200190815260200160002060060160009054906101000a90046bffffffffffffffffffffffff166bffffffffffffffffffffffff160361213e57600160ff600087815260200190815260200160002060050160006101000a81548160ff021916908315150217905550600060ff6000878152602001908152602001600020600301541461213d5760ff600086815260200190815260200160002060010160009054906101000a900473ffffffffffffffffffffffffffffffffffffffff1673ffffffffffffffffffffffffffffffffffffffff1663a9059cbb60ff600088815260200190815260200160002060020160009054906101000a900473ffffffffffffffffffffffffffffffffffffffff1660ff6000898152602001908152602001600020600301546040518363ffffffff1660e01b81526004016120689291906135b3565b6020604051808303816000875af1158015612087573d6000803e3d6000fd5b505050506040513d601f19601f820116820180604052508101906120ab9190613608565b5060ff60008681526020019081526020016000206003015460ff600087815260200190815260200160002060020160009054906101000a900473ffffffffffffffffffffffffffffffffffffffff1673ffffffffffffffffffffffffffffffffffffffff167f44f6938ca4a10313aabb76f874cced61e35710a734a126e4afb34461bf8c250160405160405180910390a35b5b60006097548467ffffffffffffffff1660ff60008981526020019081526020016000206007015461216f9190613b30565b6121799190613ba1565b90508060ff600088815260200190815260200160002060070160008282546121a19190613664565b925050819055506000609754609860009054906101000a900467ffffffffffffffff1667ffffffffffffffff16836121d99190613b30565b6121e39190613ba1565b905080826121f19190613664565b9150600081111561229e578273ffffffffffffffffffffffffffffffffffffffff1663a9059cbb609860089054906101000a900473ffffffffffffffffffffffffffffffffffffffff16836040518363ffffffff1660e01b81526004016122599291906135b3565b6020604051808303816000875af1158015612278573d6000803e3d6000fd5b505050506040513d601f19601f8201168201806040525081019061229c9190613608565b505b8273ffffffffffffffffffffffffffffffffffffffff1663a9059cbb87846040518363ffffffff1660e01b81526004016122d99291906135b3565b6020604051808303816000875af11580156122f8573d6000803e3d6000fd5b505050506040513d601f19601f8201168201806040525081019061231c9190613608565b508573ffffffffffffffffffffffffffffffffffffffff16877f98ece21e01a01cbe1d1c0dad3b053c8fbd368f99be78be958fcf1d1d13fd249a8a88604051612366929190613df2565b60405180910390a360019350505050949350505050565b61238561242a565b80606560006101000a81548173ffffffffffffffffffffffffffffffffffffffff021916908373ffffffffffffffffffffffffffffffffffffffff1602179055508073ffffffffffffffffffffffffffffffffffffffff166123e5611b12565b73ffffffffffffffffffffffffffffffffffffffff167f38d16b8cac22d99fc7c124b9cd0de2d3fa1faef420bfe791d8c362d765e2270060405160405180910390a350565b61243261253c565b73ffffffffffffffffffffffffffffffffffffffff16612450611b12565b73ffffffffffffffffffffffffffffffffffffffff16146124a6576040517f08c379a000000000000000000000000000000000000000000000000000000000815260040161249d90613e67565b60405180910390fd5b565b6124b0612879565b600060cd60006101000a81548160ff0219169083151502179055507f5db9ee0a495bf2e6ff9c91a7834c1ba4fdd244a5e8aa4e537bd38aeae4b073aa6124f461253c565b604051612501919061312b565b60405180910390a1565b606560006101000a81549073ffffffffffffffffffffffffffffffffffffffff0219169055612539816128c2565b50565b600033905090565b61254c6106a6565b1561258c576040517f08c379a000000000000000000000000000000000000000000000000000000000815260040161258390613ed3565b60405180910390fd5b565b6001609a60008773ffffffffffffffffffffffffffffffffffffffff1673ffffffffffffffffffffffffffffffffffffffff1681526020019081526020016000205414612610576040517f08c379a000000000000000000000000000000000000000000000000000000000815260040161260790613f3f565b60405180910390fd5b60008403612653576040517f08c379a000000000000000000000000000000000000000000000000000000000815260040161264a90613831565b60405180910390fd5b600073ffffffffffffffffffffffffffffffffffffffff168373ffffffffffffffffffffffffffffffffffffffff16036126c2576040517f08c379a00000000000000000000000000000000000000000000000000000000081526004016126b990613fab565b60405180910390fd5b6000811461273a57600073ffffffffffffffffffffffffffffffffffffffff168273ffffffffffffffffffffffffffffffffffffffff1603612739576040517f08c379a000000000000000000000000000000000000000000000000000000000815260040161273090614017565b60405180910390fd5b5b5050505050565b6000808273ffffffffffffffffffffffffffffffffffffffff163b119050919050565b600060019054906101000a900460ff166127b3576040517f08c379a00000000000000000000000000000000000000000000000000000000081526004016127aa906140a9565b60405180910390fd5b6127bb612988565b565b600060019054906101000a900460ff1661280c576040517f08c379a0000000000000000000000000000000000000000000000000000000008152600401612803906140a9565b60405180910390fd5b6128146129e9565b565b61281e612544565b600160cd60006101000a81548160ff0219169083151502179055507f62e78cea01bee320cd4e420270b5ea74000d11b0c9f74754ebdbfc544b05a25861286261253c565b60405161286f919061312b565b60405180910390a1565b6128816106a6565b6128c0576040517f08c379a00000000000000000000000000000000000000000000000000000000081526004016128b790614115565b60405180910390fd5b565b6000603360009054906101000a900473ffffffffffffffffffffffffffffffffffffffff16905081603360006101000a81548173ffffffffffffffffffffffffffffffffffffffff021916908373ffffffffffffffffffffffffffffffffffffffff1602179055508173ffffffffffffffffffffffffffffffffffffffff168173ffffffffffffffffffffffffffffffffffffffff167f8be0079c531659141344cd1fd0a4f28419497f9722a3daafe3b4186f6b6457e060405160405180910390a35050565b600060019054906101000a900460ff166129d7576040517f08c379a00000000000000000000000000000000000000000000000000000000081526004016129ce906140a9565b60405180910390fd5b6129e76129e261253c565b61250b565b565b600060019054906101000a900460ff16612a38576040517f08c379a0000000000000000000000000000000000000000000000000000000008152600401612a2f906140a9565b60405180910390fd5b600060cd60006101000a81548160ff021916908315150217905550565b604051806101400160405280600073ffffffffffffffffffffffffffffffffffffffff168152602001600073ffffffffffffffffffffffffffffffffffffffff168152602001600073ffffffffffffffffffffffffffffffffffffffff1681526020016000815260200160008152602001600015158152602001600015158152602001600073ffffffffffffffffffffffffffffffffffffffff16815260200160006bffffffffffffffffffffffff168152602001600081525090565b600080fd5b600080fd5b6000819050919050565b612b2f81612b1c565b8114612b3a57600080fd5b50565b600081359050612b4c81612b26565b92915050565b600073ffffffffffffffffffffffffffffffffffffffff82169050919050565b6000612b7d82612b52565b9050919050565b612b8d81612b72565b8114612b9857600080fd5b50565b600081359050612baa81612b84565b92915050565b60008060408385031215612bc757612bc6612b12565b5b6000612bd585828601612b3d565b9250506020612be685828601612b9b565b9150509250929050565b600067ffffffffffffffff82169050919050565b612c0d81612bf0565b8114612c1857600080fd5b50565b600081359050612c2a81612c04565b92915050565b600060208284031215612c4657612c45612b12565b5b6000612c5484828501612c1b565b91505092915050565b60008115159050919050565b612c7281612c5d565b82525050565b6000602082019050612c8d6000830184612c69565b92915050565b6000819050919050565b612ca681612c93565b8114612cb157600080fd5b50565b600081359050612cc381612c9d565b92915050565b60008060408385031215612ce057612cdf612b12565b5b6000612cee85828601612cb4565b9250506020612cff85828601612b3d565b9150509250929050565b600060208284031215612d1f57612d1e612b12565b5b6000612d2d84828501612b9b565b91505092915050565b600060208284031215612d4c57612d4b612b12565b5b6000612d5a84828501612b3d565b91505092915050565b612d6c81612b72565b82525050565b612d7b81612c93565b82525050565b612d8a81612c5d565b82525050565b60006bffffffffffffffffffffffff82169050919050565b612db181612d90565b82525050565b61014082016000820151612dce6000850182612d63565b506020820151612de16020850182612d63565b506040820151612df46040850182612d63565b506060820151612e076060850182612d72565b506080820151612e1a6080850182612d72565b5060a0820151612e2d60a0850182612d81565b5060c0820151612e4060c0850182612d81565b5060e0820151612e5360e0850182612d63565b50610100820151612e68610100850182612da8565b50610120820151612e7d610120850182612d72565b50505050565b600061014082019050612e996000830184612db7565b92915050565b612ea881612d90565b8114612eb357600080fd5b50565b600081359050612ec581612e9f565b92915050565b600080fd5b600080fd5b600080fd5b60008083601f840112612ef057612eef612ecb565b5b8235905067ffffffffffffffff811115612f0d57612f0c612ed0565b5b602083019150836001820283011115612f2957612f28612ed5565b5b9250929050565b60008060008060008060008060008060006101408c8e031215612f5657612f55612b12565b5b6000612f648e828f01612b3d565b9b50506020612f758e828f01612b9b565b9a50506040612f868e828f01612cb4565b9950506060612f978e828f01612b9b565b9850506080612fa88e828f01612eb6565b97505060a0612fb98e828f01612b9b565b96505060c0612fca8e828f01612eb6565b95505060e0612fdb8e828f01612b9b565b945050610100612fed8e828f01612eb6565b9350506101208c013567ffffffffffffffff81111561300f5761300e612b17565b5b61301b8e828f01612eda565b92509250509295989b509295989b9093969950565b60008060008060008060008060e0898b0312156130505761304f612b12565b5b600061305e8b828c01612b9b565b985050602061306f8b828c01612cb4565b97505060406130808b828c01612eb6565b96505060606130918b828c01612b9b565b95505060806130a28b828c01612cb4565b94505060a06130b38b828c01612b9b565b93505060c089013567ffffffffffffffff8111156130d4576130d3612b17565b5b6130e08b828c01612eda565b92509250509295985092959890939650565b6130fb81612b1c565b82525050565b600060208201905061311660008301846130f2565b92915050565b61312581612b72565b82525050565b6000602082019050613140600083018461311c565b92915050565b61314f81612bf0565b82525050565b61315e81612c93565b82525050565b60006040820190506131796000830185613146565b6131866020830184613155565b9392505050565b6000806000606084860312156131a6576131a5612b12565b5b60006131b486828701612b3d565b93505060206131c586828701612b9b565b92505060406131d686828701612cb4565b9150509250925092565b600080600080608085870312156131fa576131f9612b12565b5b600061320887828801612b3d565b945050602061321987828801612b3d565b935050604061322a87828801612b9b565b925050606061323b87828801612c1b565b91505092959194509250565b600082825260208201905092915050565b7f476174657761793a207a65726f20616464726573730000000000000000000000600082015250565b600061328e601583613247565b915061329982613258565b602082019050919050565b600060208201905081810360008301526132bd81613281565b9050919050565b7f476174657761793a207472656173757279206164647265737320616c7265616460008201527f7920736574000000000000000000000000000000000000000000000000000000602082015250565b6000613320602583613247565b915061332b826132c4565b604082019050919050565b6000602082019050818103600083015261334f81613313565b9050919050565b7f476174657761793a2061676772656761746f72206164647265737320616c726560008201527f6164792073657400000000000000000000000000000000000000000000000000602082015250565b60006133b2602783613247565b91506133bd82613356565b604082019050919050565b600060208201905081810360008301526133e1816133a5565b9050919050565b60006020820190506133fd6000830184613146565b92915050565b7f4f6e6c7941676772656761746f72000000000000000000000000000000000000600082015250565b6000613439600e83613247565b915061344482613403565b602082019050919050565b600060208201905081810360008301526134688161342c565b9050919050565b7f4f7264657246756c66696c6c6564000000000000000000000000000000000000600082015250565b60006134a5600e83613247565b91506134b08261346f565b602082019050919050565b600060208201905081810360008301526134d481613498565b9050919050565b7f4f72646572526566756e64656400000000000000000000000000000000000000600082015250565b6000613511600d83613247565b915061351c826134db565b602082019050919050565b6000602082019050818103600083015261354081613504565b9050919050565b7f4665654578636565647350726f746f636f6c4665650000000000000000000000600082015250565b600061357d601583613247565b915061358882613547565b602082019050919050565b600060208201905081810360008301526135ac81613570565b9050919050565b60006040820190506135c8600083018561311c565b6135d56020830184613155565b9392505050565b6135e581612c5d565b81146135f057600080fd5b50565b600081519050613602816135dc565b92915050565b60006020828403121561361e5761361d612b12565b5b600061362c848285016135f3565b91505092915050565b7f4e487b7100000000000000000000000000000000000000000000000000000000600052601160045260246000fd5b600061366f82612c93565b915061367a83612c93565b925082820390508181111561369257613691613635565b5b92915050565b60006136a382612c93565b91506136ae83612c93565b92508282019050808211156136c6576136c5613635565b5b92915050565b60006020820190506136e16000830184613155565b92915050565b7f4f776e61626c6532537465703a2063616c6c6572206973206e6f74207468652060008201527f6e6577206f776e65720000000000000000000000000000000000000000000000602082015250565b6000613743602983613247565b915061374e826136e7565b604082019050919050565b6000602082019050818103600083015261377281613736565b9050919050565b7f4f726465724e6f7446756c66696c6c6564000000000000000000000000000000600082015250565b60006137af601183613247565b91506137ba82613779565b602082019050919050565b600060208201905081810360008301526137de816137a2565b9050919050565b7f416d6f756e7449735a65726f0000000000000000000000000000000000000000600082015250565b600061381b600c83613247565b9150613826826137e5565b602082019050919050565b6000602082019050818103600083015261384a8161380e565b9050919050565b7f526563697069656e7449735a65726f4164647265737300000000000000000000600082015250565b6000613887601683613247565b915061389282613851565b602082019050919050565b600060208201905081810360008301526138b68161387a565b9050919050565b7f53656e646572466565526563697069656e7449735a65726f4164647265737300600082015250565b60006138f3601f83613247565b91506138fe826138bd565b602082019050919050565b60006020820190508181036000830152613922816138e6565b9050919050565b6000819050919050565b600061394e61394961394484612d90565b613929565b612c93565b9050919050565b61395e81613933565b82525050565b6000604082019050613979600083018561311c565b6139866020830184613955565b9392505050565b61399681612d90565b82525050565b82818337600083830152505050565b6000601f19601f8301169050919050565b60006139c88385613247565b93506139d583858461399c565b6139de836139ab565b840190509392505050565b600060a0820190506139fe600083018961311c565b613a0b602083018861311c565b613a18604083018761311c565b613a25606083018661398d565b8181036080830152613a388184866139bc565b9050979650505050505050565b7f496e76616c69644d657373616765486173680000000000000000000000000000600082015250565b6000613a7b601283613247565b9150613a8682613a45565b602082019050919050565b60006020820190508181036000830152613aaa81613a6e565b9050919050565b6000606082019050613ac6600083018661311c565b613ad3602083018561311c565b613ae06040830184613155565b949350505050565b6000613af382612c93565b91507fffffffffffffffffffffffffffffffffffffffffffffffffffffffffffffffff8203613b2557613b24613635565b5b600182019050919050565b6000613b3b82612c93565b9150613b4683612c93565b9250828202613b5481612c93565b91508282048414831517613b6b57613b6a613635565b5b5092915050565b7f4e487b7100000000000000000000000000000000000000000000000000000000600052601260045260246000fd5b6000613bac82612c93565b9150613bb783612c93565b925082613bc757613bc6613b72565b5b828204905092915050565b6000608082019050613be76000830188613155565b613bf460208301876130f2565b613c016040830186613955565b8181036060830152613c148184866139bc565b90509695505050505050565b7f496e697469616c697a61626c653a20636f6e747261637420697320616c72656160008201527f647920696e697469616c697a6564000000000000000000000000000000000000602082015250565b6000613c7c602e83613247565b9150613c8782613c20565b604082019050919050565b60006020820190508181036000830152613cab81613c6f565b9050919050565b6000819050919050565b600060ff82169050919050565b6000613ce4613cdf613cda84613cb2565b613929565b613cbc565b9050919050565b613cf481613cc9565b82525050565b6000602082019050613d0f6000830184613ceb565b92915050565b7f476174657761793a20696e76616c696420737461747573000000000000000000600082015250565b6000613d4b601783613247565b9150613d5682613d15565b602082019050919050565b60006020820190508181036000830152613d7a81613d3e565b9050919050565b6000613d8c82612d90565b9150613d9783612d90565b925082820390506bffffffffffffffffffffffff811115613dbb57613dba613635565b5b92915050565b6000613ddc613dd7613dd284612bf0565b613929565b612d90565b9050919050565b613dec81613dc1565b82525050565b6000604082019050613e0760008301856130f2565b613e146020830184613de3565b9392505050565b7f4f776e61626c653a2063616c6c6572206973206e6f7420746865206f776e6572600082015250565b6000613e51602083613247565b9150613e5c82613e1b565b602082019050919050565b60006020820190508181036000830152613e8081613e44565b9050919050565b7f5061757361626c653a2070617573656400000000000000000000000000000000600082015250565b6000613ebd601083613247565b9150613ec882613e87565b602082019050919050565b60006020820190508181036000830152613eec81613eb0565b9050919050565b7f546f6b656e4e6f74537570706f72746564000000000000000000000000000000600082015250565b6000613f29601183613247565b9150613f3482613ef3565b602082019050919050565b60006020820190508181036000830152613f5881613f1c565b9050919050565b7f5468726f775a65726f4164647265737300000000000000000000000000000000600082015250565b6000613f95601083613247565b9150613fa082613f5f565b602082019050919050565b60006020820190508181036000830152613fc481613f88565b9050919050565b7f496e76616c696453656e646572466565526563697069656e7400000000000000600082015250565b6000614001601983613247565b915061400c82613fcb565b602082019050919050565b6000602082019050818103600083015261403081613ff4565b9050919050565b7f496e697469616c697a61626c653a20636f6e7472616374206973206e6f74206960008201527f6e697469616c697a696e67000000000000000000000000000000000000000000602082015250565b6000614093602b83613247565b915061409e82614037565b604082019050919050565b600060208201905081810360008301526140c281614086565b9050919050565b7f5061757361626c653a206e6f7420706175736564000000000000000000000000600082015250565b60006140ff601483613247565b915061410a826140c9565b602082019050919050565b6000602082019050818103600083015261412e816140f2565b905091905056fea26469706673582212205175adabb80fc697577424a466888e0a017043c5a1e54056637096b25deffed964736f6c63430008120033",
  "linkReferences": {},
  "deployedLinkReferences": {}
}