{
  "_format": "hh-sol-artifact-1",
  "contractName": "Gateway",
  "sourceName": "contracts/Gateway.sol",
  "abi": [
    {
      "inputs": [],
      "stateMutability": "nonpayable",
      "type": "constructor"
    },
    {
      "anonymous": false,
      "inputs": [
        {
          "indexed": false,
          "internalType": "uint8",
          "name": "version",
          "type": "uint8"
        }
      ],
      "name": "Initialized",
      "type": "event"
    },
    {
      "anonymous": false,
      "inputs": [
        {
          "indexed": true,
          "internalType": "address",
          "name": "sender",
          "type": "address"
        },
        {
          "indexed": true,
          "internalType": "address",
          "name": "token",
          "type": "address"
        },
        {
          "indexed": true,
          "internalType": "uint256",
          "name": "amount",
          "type": "uint256"
        },
        {
          "indexed": false,
          "internalType": "uint256",
          "name": "protocolFee",
          "type": "uint256"
        },
        {
          "indexed": false,
          "internalType": "bytes32",
          "name": "orderId",
          "type": "bytes32"
        },
        {
          "indexed": false,
          "internalType": "uint256",
          "name": "rate",
          "type": "uint256"
        },
        {
          "indexed": false,
          "internalType": "string",
          "name": "messageHash",
          "type": "string"
        }
      ],
      "name": "OrderCreated",
      "type": "event"
    },
    {
      "anonymous": false,
      "inputs": [
        {
          "indexed": false,
          "internalType": "uint256",
          "name": "fee",
          "type": "uint256"
        },
        {
          "indexed": true,
          "internalType": "bytes32",
          "name": "orderId",
          "type": "bytes32"
        }
      ],
      "name": "OrderRefunded",
      "type": "event"
    },
    {
      "anonymous": false,
      "inputs": [
        {
          "indexed": true,
          "internalType": "address",
          "name": "previousOwner",
          "type": "address"
        },
        {
          "indexed": true,
          "internalType": "address",
          "name": "newOwner",
          "type": "address"
        }
      ],
      "name": "OwnershipTransferStarted",
      "type": "event"
    },
    {
      "anonymous": false,
      "inputs": [
        {
          "indexed": true,
          "internalType": "address",
          "name": "previousOwner",
          "type": "address"
        },
        {
          "indexed": true,
          "internalType": "address",
          "name": "newOwner",
          "type": "address"
        }
      ],
      "name": "OwnershipTransferred",
      "type": "event"
    },
    {
      "anonymous": false,
      "inputs": [
        {
          "indexed": false,
          "internalType": "address",
          "name": "account",
          "type": "address"
        }
      ],
      "name": "Paused",
      "type": "event"
    },
    {
      "anonymous": false,
      "inputs": [
        {
          "indexed": true,
          "internalType": "bytes32",
          "name": "what",
          "type": "bytes32"
        },
        {
          "indexed": true,
          "internalType": "address",
          "name": "treasuryAddress",
          "type": "address"
        }
      ],
      "name": "ProtocolAddressUpdated",
      "type": "event"
    },
    {
      "anonymous": false,
      "inputs": [
        {
          "indexed": false,
          "internalType": "uint64",
          "name": "protocolFee",
          "type": "uint64"
        }
      ],
      "name": "ProtocolFeeUpdated",
      "type": "event"
    },
    {
      "anonymous": false,
      "inputs": [
        {
          "indexed": true,
          "internalType": "address",
          "name": "sender",
          "type": "address"
        },
        {
          "indexed": true,
          "internalType": "uint256",
          "name": "amount",
          "type": "uint256"
        }
      ],
      "name": "SenderFeeTransferred",
      "type": "event"
    },
    {
      "anonymous": false,
      "inputs": [
        {
          "indexed": true,
          "internalType": "address",
          "name": "treasuryAddress",
          "type": "address"
        }
      ],
      "name": "SetFeeRecipient",
      "type": "event"
    },
    {
      "anonymous": false,
      "inputs": [
        {
          "indexed": true,
          "internalType": "bytes32",
          "name": "what",
          "type": "bytes32"
        },
        {
          "indexed": true,
          "internalType": "address",
          "name": "value",
          "type": "address"
        },
        {
          "indexed": false,
          "internalType": "uint256",
          "name": "status",
          "type": "uint256"
        }
      ],
      "name": "SettingManagerBool",
      "type": "event"
    },
    {
      "anonymous": false,
      "inputs": [
        {
          "indexed": true,
          "internalType": "bytes32",
          "name": "orderId",
          "type": "bytes32"
        },
        {
          "indexed": true,
          "internalType": "uint256",
          "name": "amount",
          "type": "uint256"
        },
        {
          "indexed": true,
          "internalType": "address",
          "name": "recipient",
          "type": "address"
        },
        {
          "indexed": false,
          "internalType": "address",
          "name": "token",
          "type": "address"
        },
        {
          "indexed": false,
          "internalType": "address",
          "name": "senderFee",
          "type": "address"
        },
        {
          "indexed": false,
          "internalType": "uint96",
          "name": "rate",
          "type": "uint96"
        },
        {
          "indexed": false,
          "internalType": "string",
          "name": "messageHash",
          "type": "string"
        }
      ],
      "name": "SettleIn",
      "type": "event"
    },
    {
      "anonymous": false,
      "inputs": [
        {
          "indexed": false,
          "internalType": "bytes32",
          "name": "splitOrderId",
          "type": "bytes32"
        },
        {
          "indexed": true,
          "internalType": "bytes32",
          "name": "orderId",
          "type": "bytes32"
        },
        {
          "indexed": true,
          "internalType": "address",
          "name": "liquidityProvider",
          "type": "address"
        },
        {
          "indexed": false,
          "internalType": "uint96",
          "name": "settlePercent",
          "type": "uint96"
        }
      ],
      "name": "SettleOut",
      "type": "event"
    },
    {
      "anonymous": false,
      "inputs": [
        {
          "indexed": false,
          "internalType": "address",
          "name": "account",
          "type": "address"
        }
      ],
      "name": "Unpaused",
      "type": "event"
    },
    {
      "inputs": [],
      "name": "acceptOwnership",
      "outputs": [],
      "stateMutability": "nonpayable",
      "type": "function"
    },
    {
      "inputs": [
        {
          "internalType": "address",
          "name": "_token",
          "type": "address"
        },
        {
          "internalType": "uint256",
          "name": "_amount",
          "type": "uint256"
        },
        {
          "internalType": "uint96",
          "name": "_rate",
          "type": "uint96"
        },
        {
          "internalType": "address",
          "name": "_senderFeeRecipient",
          "type": "address"
        },
        {
          "internalType": "uint256",
          "name": "_senderFee",
          "type": "uint256"
        },
        {
          "internalType": "address",
          "name": "_refundAddress",
          "type": "address"
        },
        {
          "internalType": "string",
          "name": "messageHash",
          "type": "string"
        }
      ],
      "name": "createOrder",
      "outputs": [
        {
          "internalType": "bytes32",
          "name": "orderId",
          "type": "bytes32"
        }
      ],
      "stateMutability": "nonpayable",
      "type": "function"
    },
    {
      "inputs": [],
      "name": "getAggregator",
      "outputs": [
        {
          "internalType": "address",
          "name": "",
          "type": "address"
        }
      ],
      "stateMutability": "view",
      "type": "function"
    },
    {
      "inputs": [],
      "name": "getFeeDetails",
      "outputs": [
        {
          "internalType": "uint64",
          "name": "",
          "type": "uint64"
        },
        {
          "internalType": "uint256",
          "name": "",
          "type": "uint256"
        }
      ],
      "stateMutability": "view",
      "type": "function"
    },
    {
      "inputs": [
        {
          "internalType": "bytes32",
          "name": "_orderId",
          "type": "bytes32"
        }
      ],
      "name": "getOrderInfo",
      "outputs": [
        {
          "components": [
            {
              "internalType": "address",
              "name": "sender",
              "type": "address"
            },
            {
              "internalType": "address",
              "name": "token",
              "type": "address"
            },
            {
              "internalType": "address",
              "name": "senderFeeRecipient",
              "type": "address"
            },
            {
              "internalType": "uint256",
              "name": "senderFee",
              "type": "uint256"
            },
            {
              "internalType": "uint256",
              "name": "protocolFee",
              "type": "uint256"
            },
            {
              "internalType": "bool",
              "name": "isFulfilled",
              "type": "bool"
            },
            {
              "internalType": "bool",
              "name": "isRefunded",
              "type": "bool"
            },
            {
              "internalType": "address",
              "name": "refundAddress",
              "type": "address"
            },
            {
              "internalType": "uint96",
              "name": "currentBPS",
              "type": "uint96"
            },
            {
              "internalType": "uint256",
              "name": "amount",
              "type": "uint256"
            }
          ],
          "internalType": "struct IGateway.Order",
          "name": "",
          "type": "tuple"
        }
      ],
      "stateMutability": "view",
      "type": "function"
    },
    {
      "inputs": [],
      "name": "initialize",
      "outputs": [],
      "stateMutability": "nonpayable",
      "type": "function"
    },
    {
      "inputs": [
        {
          "internalType": "address",
          "name": "_token",
          "type": "address"
        }
      ],
      "name": "isTokenSupported",
      "outputs": [
        {
          "internalType": "bool",
          "name": "",
          "type": "bool"
        }
      ],
      "stateMutability": "view",
      "type": "function"
    },
    {
      "inputs": [],
      "name": "owner",
      "outputs": [
        {
          "internalType": "address",
          "name": "",
          "type": "address"
        }
      ],
      "stateMutability": "view",
      "type": "function"
    },
    {
      "inputs": [],
      "name": "pause",
      "outputs": [],
      "stateMutability": "nonpayable",
      "type": "function"
    },
    {
      "inputs": [],
      "name": "paused",
      "outputs": [
        {
          "internalType": "bool",
          "name": "",
          "type": "bool"
        }
      ],
      "stateMutability": "view",
      "type": "function"
    },
    {
      "inputs": [],
      "name": "pendingOwner",
      "outputs": [
        {
          "internalType": "address",
          "name": "",
          "type": "address"
        }
      ],
      "stateMutability": "view",
      "type": "function"
    },
    {
      "inputs": [
        {
          "internalType": "uint256",
          "name": "_fee",
          "type": "uint256"
        },
        {
          "internalType": "bytes32",
          "name": "_orderId",
          "type": "bytes32"
        }
      ],
      "name": "refund",
      "outputs": [
        {
          "internalType": "bool",
          "name": "",
          "type": "bool"
        }
      ],
      "stateMutability": "nonpayable",
      "type": "function"
    },
    {
      "inputs": [],
      "name": "renounceOwnership",
      "outputs": [],
      "stateMutability": "nonpayable",
      "type": "function"
    },
    {
      "inputs": [
        {
          "internalType": "bytes32",
          "name": "what",
          "type": "bytes32"
        },
        {
          "internalType": "address",
          "name": "value",
          "type": "address"
        },
        {
          "internalType": "uint256",
          "name": "status",
          "type": "uint256"
        }
      ],
      "name": "settingManagerBool",
      "outputs": [],
      "stateMutability": "nonpayable",
      "type": "function"
    },
    {
      "inputs": [
        {
          "internalType": "bytes32",
          "name": "_orderId",
          "type": "bytes32"
        },
        {
          "internalType": "address",
          "name": "_token",
          "type": "address"
        },
        {
          "internalType": "uint256",
          "name": "_amount",
          "type": "uint256"
        },
        {
          "internalType": "address",
          "name": "_senderFeeRecipient",
          "type": "address"
        },
        {
          "internalType": "uint96",
          "name": "_senderFee",
          "type": "uint96"
        },
        {
          "internalType": "address",
          "name": "_recipient",
          "type": "address"
        },
        {
          "internalType": "uint96",
          "name": "_rate",
          "type": "uint96"
        },
        {
          "internalType": "string",
          "name": "_messageHash",
          "type": "string"
        }
      ],
      "name": "settleIn",
      "outputs": [
        {
          "internalType": "bool",
          "name": "",
          "type": "bool"
        }
      ],
      "stateMutability": "nonpayable",
      "type": "function"
    },
    {
      "inputs": [
        {
          "internalType": "bytes32",
          "name": "_splitOrderId",
          "type": "bytes32"
        },
        {
          "internalType": "bytes32",
          "name": "_orderId",
          "type": "bytes32"
        },
        {
          "internalType": "address",
          "name": "_liquidityProvider",
          "type": "address"
        },
        {
          "internalType": "uint64",
          "name": "_settlePercent",
          "type": "uint64"
        }
      ],
      "name": "settleOut",
      "outputs": [
        {
          "internalType": "bool",
          "name": "",
          "type": "bool"
        }
      ],
      "stateMutability": "nonpayable",
      "type": "function"
    },
    {
      "inputs": [
        {
          "internalType": "address",
          "name": "newOwner",
          "type": "address"
        }
      ],
      "name": "transferOwnership",
      "outputs": [],
      "stateMutability": "nonpayable",
      "type": "function"
    },
    {
      "inputs": [],
      "name": "unpause",
      "outputs": [],
      "stateMutability": "nonpayable",
      "type": "function"
    },
    {
      "inputs": [
        {
          "internalType": "bytes32",
          "name": "what",
          "type": "bytes32"
        },
        {
          "internalType": "address",
          "name": "value",
          "type": "address"
        }
      ],
      "name": "updateProtocolAddress",
      "outputs": [],
      "stateMutability": "nonpayable",
      "type": "function"
    },
    {
      "inputs": [
        {
          "internalType": "uint64",
          "name": "_protocolFeePercent",
          "type": "uint64"
        }
      ],
      "name": "updateProtocolFee",
      "outputs": [],
      "stateMutability": "nonpayable",
      "type": "function"
    }
  ],
  "bytecode": "0x60806040523480156200001157600080fd5b50620000226200002860201b60201c565b620001d2565b600060019054906101000a900460ff16156200007b576040517f08c379a0000000000000000000000000000000000000000000000000000000008152600401620000729062000175565b60405180910390fd5b60ff801660008054906101000a900460ff1660ff1614620000ec5760ff6000806101000a81548160ff021916908360ff1602179055507f7f26b83ff96e1f2b6a682f133852f6798a09c465da95921460cefb384740249860ff604051620000e39190620001b5565b60405180910390a15b565b600082825260208201905092915050565b7f496e697469616c697a61626c653a20636f6e747261637420697320696e69746960008201527f616c697a696e6700000000000000000000000000000000000000000000000000602082015250565b60006200015d602783620000ee565b91506200016a82620000ff565b604082019050919050565b6000602082019050818103600083015262000190816200014e565b9050919050565b600060ff82169050919050565b620001af8162000197565b82525050565b6000602082019050620001cc6000830184620001a4565b92915050565b61401180620001e26000396000f3fe608060405234801561001057600080fd5b506004361061012c5760003560e01c806379ba5097116100ad5780638da5cb5b116100715780638da5cb5b146102f7578063b810c63614610315578063cd99240014610334578063e30c397814610350578063f2fde38b1461036e5761012c565b806379ba509714610279578063809804f7146102835780638129fc1c146102b35780638456cb59146102bd5780638995762e146102c75761012c565b80635c975abb116100f45780635c975abb146101c1578063715018a6146101df57806371eedb88146101e957806375151b6314610219578063768c6ec0146102495761012c565b80633ad59dbc146101315780633f4ba83a1461014f57806340ebc6771461015957806341eb9b1f1461017557806347094e2e146101a5575b600080fd5b61013961038a565b6040516101469190612b09565b60405180910390f35b6101576103b4565b005b610173600480360381019061016e9190612b90565b6103c6565b005b61018f600480360381019061018a9190612c10565b61068e565b60405161019c9190612c92565b60405180910390f35b6101bf60048036038101906101ba9190612cad565b610cfb565b005b6101c9610d66565b6040516101d69190612c92565b60405180910390f35b6101e7610d7d565b005b61020360048036038101906101fe9190612d10565b610d91565b6040516102109190612c92565b60405180910390f35b610233600480360381019061022e9190612d50565b61120f565b6040516102409190612c92565b60405180910390f35b610263600480360381019061025e9190612d7d565b61126b565b6040516102709190612eca565b60405180910390f35b610281611483565b005b61029d60048036038101906102989190612f77565b611510565b6040516102aa9190613048565b60405180910390f35b6102bb611a0f565b005b6102c5611b5f565b005b6102e160048036038101906102dc9190613063565b611b71565b6040516102ee9190612c92565b60405180910390f35b6102ff612135565b60405161030c9190612b09565b60405180910390f35b61031d61215f565b60405161032b929190613157565b60405180910390f35b61034e60048036038101906103499190613180565b612184565b005b610358612309565b6040516103659190612b09565b60405180910390f35b61038860048036038101906103839190612d50565b612333565b005b6000609960009054906101000a900473ffffffffffffffffffffffffffffffffffffffff16905090565b6103bc6123e0565b6103c461245e565b565b6103ce6123e0565b600073ffffffffffffffffffffffffffffffffffffffff168173ffffffffffffffffffffffffffffffffffffffff160361043d576040517f08c379a000000000000000000000000000000000000000000000000000000000815260040161043490613230565b60405180910390fd5b60007f74726561737572790000000000000000000000000000000000000000000000008303610540578173ffffffffffffffffffffffffffffffffffffffff16609860089054906101000a900473ffffffffffffffffffffffffffffffffffffffff1673ffffffffffffffffffffffffffffffffffffffff16036104f6576040517f08c379a00000000000000000000000000000000000000000000000000000000081526004016104ed906132c2565b60405180910390fd5b81609860086101000a81548173ffffffffffffffffffffffffffffffffffffffff021916908373ffffffffffffffffffffffffffffffffffffffff1602179055506001905061063e565b7f61676772656761746f7200000000000000000000000000000000000000000000830361063d578173ffffffffffffffffffffffffffffffffffffffff16609960009054906101000a900473ffffffffffffffffffffffffffffffffffffffff1673ffffffffffffffffffffffffffffffffffffffff16036105f7576040517f08c379a00000000000000000000000000000000000000000000000000000000081526004016105ee90613354565b60405180910390fd5b81609960006101000a81548173ffffffffffffffffffffffffffffffffffffffff021916908373ffffffffffffffffffffffffffffffffffffffff160217905550600190505b5b8015610689578173ffffffffffffffffffffffffffffffffffffffff16837fbbc5b96e57cfecb3dbeeadf92e87f15e58e64fcd75cbe256dcc5d9ef2e51e8a460405160405180910390a35b505050565b6000609960009054906101000a900473ffffffffffffffffffffffffffffffffffffffff1673ffffffffffffffffffffffffffffffffffffffff163373ffffffffffffffffffffffffffffffffffffffff1614610720576040517f08c379a0000000000000000000000000000000000000000000000000000000008152600401610717906133c0565b60405180910390fd5b60ff600085815260200190815260200160002060050160009054906101000a900460ff1615610784576040517f08c379a000000000000000000000000000000000000000000000000000000000815260040161077b9061342c565b60405180910390fd5b60ff600085815260200190815260200160002060050160019054906101000a900460ff16156107e8576040517f08c379a00000000000000000000000000000000000000000000000000000000081526004016107df90613498565b60405180910390fd5b600060ff600086815260200190815260200160002060010160009054906101000a900473ffffffffffffffffffffffffffffffffffffffff1690508267ffffffffffffffff1660ff600087815260200190815260200160002060060160008282829054906101000a90046bffffffffffffffffffffffff1661086a91906134e7565b92506101000a8154816bffffffffffffffffffffffff02191690836bffffffffffffffffffffffff160217905550600060ff600087815260200190815260200160002060060160009054906101000a90046bffffffffffffffffffffffff166bffffffffffffffffffffffff1603610abc57600160ff600087815260200190815260200160002060050160006101000a81548160ff021916908315150217905550600060ff60008781526020019081526020016000206003015414610abb5760ff600086815260200190815260200160002060010160009054906101000a900473ffffffffffffffffffffffffffffffffffffffff1673ffffffffffffffffffffffffffffffffffffffff1663a9059cbb60ff600088815260200190815260200160002060020160009054906101000a900473ffffffffffffffffffffffffffffffffffffffff1660ff6000898152602001908152602001600020600301546040518363ffffffff1660e01b81526004016109e6929190613527565b6020604051808303816000875af1158015610a05573d6000803e3d6000fd5b505050506040513d601f19601f82011682018060405250810190610a29919061357c565b5060ff60008681526020019081526020016000206003015460ff600087815260200190815260200160002060020160009054906101000a900473ffffffffffffffffffffffffffffffffffffffff1673ffffffffffffffffffffffffffffffffffffffff167f44f6938ca4a10313aabb76f874cced61e35710a734a126e4afb34461bf8c250160405160405180910390a35b5b60006097548467ffffffffffffffff1660ff600089815260200190815260200160002060070154610aed91906135a9565b610af7919061361a565b90508060ff60008881526020019081526020016000206007016000828254610b1f919061364b565b925050819055506000609754609860009054906101000a900467ffffffffffffffff1667ffffffffffffffff1683610b5791906135a9565b610b61919061361a565b90508082610b6f919061364b565b91506000811115610c1c578273ffffffffffffffffffffffffffffffffffffffff1663a9059cbb609860089054906101000a900473ffffffffffffffffffffffffffffffffffffffff16836040518363ffffffff1660e01b8152600401610bd7929190613527565b6020604051808303816000875af1158015610bf6573d6000803e3d6000fd5b505050506040513d601f19601f82011682018060405250810190610c1a919061357c565b505b8273ffffffffffffffffffffffffffffffffffffffff1663a9059cbb87846040518363ffffffff1660e01b8152600401610c57929190613527565b6020604051808303816000875af1158015610c76573d6000803e3d6000fd5b505050506040513d601f19601f82011682018060405250810190610c9a919061357c565b508573ffffffffffffffffffffffffffffffffffffffff16877f853201151e3402dc7ce8cead5a0e2fff33a582c52edf0a15e36ac6bd2814a7408a88604051610ce49291906136ba565b60405180910390a360019350505050949350505050565b610d036123e0565b80609860006101000a81548167ffffffffffffffff021916908367ffffffffffffffff1602179055507f1ce29a697a4765bd17d91df93ba75b250b629ecf030553ff1f6ab59f15ae6c7b81604051610d5b91906136e3565b60405180910390a150565b600060cd60009054906101000a900460ff16905090565b610d856123e0565b610d8f60006124c1565b565b6000609960009054906101000a900473ffffffffffffffffffffffffffffffffffffffff1673ffffffffffffffffffffffffffffffffffffffff163373ffffffffffffffffffffffffffffffffffffffff1614610e23576040517f08c379a0000000000000000000000000000000000000000000000000000000008152600401610e1a906133c0565b60405180910390fd5b60ff600083815260200190815260200160002060050160009054906101000a900460ff1615610e87576040517f08c379a0000000000000000000000000000000000000000000000000000000008152600401610e7e9061342c565b60405180910390fd5b60ff600083815260200190815260200160002060050160019054906101000a900460ff1615610eeb576040517f08c379a0000000000000000000000000000000000000000000000000000000008152600401610ee290613498565b60405180910390fd5b8260ff6000848152602001908152602001600020600401541015610f44576040517f08c379a0000000000000000000000000000000000000000000000000000000008152600401610f3b9061374a565b60405180910390fd5b60008311156110255760ff600083815260200190815260200160002060010160009054906101000a900473ffffffffffffffffffffffffffffffffffffffff1673ffffffffffffffffffffffffffffffffffffffff1663a9059cbb609860089054906101000a900473ffffffffffffffffffffffffffffffffffffffff16856040518363ffffffff1660e01b8152600401610fe0929190613527565b6020604051808303816000875af1158015610fff573d6000803e3d6000fd5b505050506040513d601f19601f82011682018060405250810190611023919061357c565b505b600160ff600084815260200190815260200160002060050160016101000a81548160ff021916908315150217905550600060ff600084815260200190815260200160002060060160006101000a8154816bffffffffffffffffffffffff02191690836bffffffffffffffffffffffff16021790555060008360ff6000858152602001908152602001600020600701546110be919061364b565b905060ff600084815260200190815260200160002060010160009054906101000a900473ffffffffffffffffffffffffffffffffffffffff1673ffffffffffffffffffffffffffffffffffffffff1663a9059cbb60ff600086815260200190815260200160002060050160029054906101000a900473ffffffffffffffffffffffffffffffffffffffff1660ff6000878152602001908152602001600020600301548461116b919061376a565b6040518363ffffffff1660e01b8152600401611188929190613527565b6020604051808303816000875af11580156111a7573d6000803e3d6000fd5b505050506040513d601f19601f820116820180604052508101906111cb919061357c565b50827f0736fe428e1747ca8d387c2e6fa1a31a0cde62d3a167c40a46ade59a3cdc828e856040516111fc919061379e565b60405180910390a2600191505092915050565b60006001609a60008473ffffffffffffffffffffffffffffffffffffffff1673ffffffffffffffffffffffffffffffffffffffff16815260200190815260200160002054036112615760019050611266565b600090505b919050565b611273612a0b565b60ff6000838152602001908152602001600020604051806101400160405290816000820160009054906101000a900473ffffffffffffffffffffffffffffffffffffffff1673ffffffffffffffffffffffffffffffffffffffff1673ffffffffffffffffffffffffffffffffffffffff1681526020016001820160009054906101000a900473ffffffffffffffffffffffffffffffffffffffff1673ffffffffffffffffffffffffffffffffffffffff1673ffffffffffffffffffffffffffffffffffffffff1681526020016002820160009054906101000a900473ffffffffffffffffffffffffffffffffffffffff1673ffffffffffffffffffffffffffffffffffffffff1673ffffffffffffffffffffffffffffffffffffffff16815260200160038201548152602001600482015481526020016005820160009054906101000a900460ff161515151581526020016005820160019054906101000a900460ff161515151581526020016005820160029054906101000a900473ffffffffffffffffffffffffffffffffffffffff1673ffffffffffffffffffffffffffffffffffffffff1673ffffffffffffffffffffffffffffffffffffffff1681526020016006820160009054906101000a90046bffffffffffffffffffffffff166bffffffffffffffffffffffff166bffffffffffffffffffffffff1681526020016007820154815250509050919050565b600061148d6124f2565b90508073ffffffffffffffffffffffffffffffffffffffff166114ae612309565b73ffffffffffffffffffffffffffffffffffffffff1614611504576040517f08c379a00000000000000000000000000000000000000000000000000000000081526004016114fb9061382b565b60405180910390fd5b61150d816124c1565b50565b600061151a6124fa565b6115278989868989612544565b6000838390500361156d576040517f08c379a000000000000000000000000000000000000000000000000000000000815260040161156490613897565b60405180910390fd5b8873ffffffffffffffffffffffffffffffffffffffff166323b872dd3330888c611597919061376a565b6040518463ffffffff1660e01b81526004016115b5939291906138b7565b6020604051808303816000875af11580156115d4573d6000803e3d6000fd5b505050506040513d601f19601f820116820180604052508101906115f8919061357c565b5061010060003373ffffffffffffffffffffffffffffffffffffffff1673ffffffffffffffffffffffffffffffffffffffff168152602001908152602001600020600081548092919061164a906138ee565b91905055503361010060003373ffffffffffffffffffffffffffffffffffffffff1673ffffffffffffffffffffffffffffffffffffffff168152602001908152602001600020546040516020016116a2929190613527565b6040516020818303038152906040528051906020012090506000609754609860009054906101000a900467ffffffffffffffff1667ffffffffffffffff168a6116eb91906135a9565b6116f5919061361a565b90506040518061014001604052803373ffffffffffffffffffffffffffffffffffffffff1681526020018b73ffffffffffffffffffffffffffffffffffffffff1681526020018873ffffffffffffffffffffffffffffffffffffffff1681526020018781526020018281526020016000151581526020016000151581526020018673ffffffffffffffffffffffffffffffffffffffff16815260200160975467ffffffffffffffff166bffffffffffffffffffffffff1681526020018a81525060ff600084815260200190815260200160002060008201518160000160006101000a81548173ffffffffffffffffffffffffffffffffffffffff021916908373ffffffffffffffffffffffffffffffffffffffff16021790555060208201518160010160006101000a81548173ffffffffffffffffffffffffffffffffffffffff021916908373ffffffffffffffffffffffffffffffffffffffff16021790555060408201518160020160006101000a81548173ffffffffffffffffffffffffffffffffffffffff021916908373ffffffffffffffffffffffffffffffffffffffff160217905550606082015181600301556080820151816004015560a08201518160050160006101000a81548160ff02191690831515021790555060c08201518160050160016101000a81548160ff02191690831515021790555060e08201518160050160026101000a81548173ffffffffffffffffffffffffffffffffffffffff021916908373ffffffffffffffffffffffffffffffffffffffff1602179055506101008201518160060160006101000a8154816bffffffffffffffffffffffff02191690836bffffffffffffffffffffffff160217905550610120820151816007015590505060ff6000838152602001908152602001600020600701548a73ffffffffffffffffffffffffffffffffffffffff168673ffffffffffffffffffffffffffffffffffffffff167f40ccd1ceb111a3c186ef9911e1b876dc1f789ed331b86097b3b8851055b6a13784868d8a8a6040516119fa9594939291906139b4565b60405180910390a45098975050505050505050565b60008060019054906101000a900460ff16159050808015611a405750600160008054906101000a900460ff1660ff16105b80611a6d5750611a4f306126f7565b158015611a6c5750600160008054906101000a900460ff1660ff16145b5b611aac576040517f08c379a0000000000000000000000000000000000000000000000000000000008152600401611aa390613a74565b60405180910390fd5b60016000806101000a81548160ff021916908360ff1602179055508015611ae9576001600060016101000a81548160ff0219169083151502179055505b620186a0609781905550611afb61271a565b611b03612773565b8015611b5c5760008060016101000a81548160ff0219169083151502179055507f7f26b83ff96e1f2b6a682f133852f6798a09c465da95921460cefb38474024986001604051611b539190613adc565b60405180910390a15b50565b611b676123e0565b611b6f6127cc565b565b6000611b7b6124fa565b60ff60008b815260200190815260200160002060050160009054906101000a900460ff1615611bdf576040517f08c379a0000000000000000000000000000000000000000000000000000000008152600401611bd690613b43565b60405180910390fd5b6097548811611c23576040517f08c379a0000000000000000000000000000000000000000000000000000000008152600401611c1a90613baf565b60405180910390fd5b611c3e8989878a8a6bffffffffffffffffffffffff16612544565b8873ffffffffffffffffffffffffffffffffffffffff166323b872dd33308b6040518463ffffffff1660e01b8152600401611c7b939291906138b7565b6020604051808303816000875af1158015611c9a573d6000803e3d6000fd5b505050506040513d601f19601f82011682018060405250810190611cbe919061357c565b5060008890506000876bffffffffffffffffffffffff1614611dc857866bffffffffffffffffffffffff1681611cf4919061364b565b90508973ffffffffffffffffffffffffffffffffffffffff1663a9059cbb89896040518363ffffffff1660e01b8152600401611d31929190613bcf565b6020604051808303816000875af1158015611d50573d6000803e3d6000fd5b505050506040513d601f19601f82011682018060405250810190611d74919061357c565b50866bffffffffffffffffffffffff168873ffffffffffffffffffffffffffffffffffffffff167f44f6938ca4a10313aabb76f874cced61e35710a734a126e4afb34461bf8c250160405160405180910390a35b6000609754609860009054906101000a900467ffffffffffffffff1667ffffffffffffffff168b611df991906135a9565b611e03919061361a565b90506000811115611ebe578082611e1a919061364b565b91508a73ffffffffffffffffffffffffffffffffffffffff1663a9059cbb609860089054906101000a900473ffffffffffffffffffffffffffffffffffffffff16836040518363ffffffff1660e01b8152600401611e79929190613527565b6020604051808303816000875af1158015611e98573d6000803e3d6000fd5b505050506040513d601f19601f82011682018060405250810190611ebc919061357c565b505b8a73ffffffffffffffffffffffffffffffffffffffff1663a9059cbb88846040518363ffffffff1660e01b8152600401611ef9929190613527565b6020604051808303816000875af1158015611f18573d6000803e3d6000fd5b505050506040513d601f19601f82011682018060405250810190611f3c919061357c565b508660ff60008e815260200190815260200160002060000160006101000a81548173ffffffffffffffffffffffffffffffffffffffff021916908373ffffffffffffffffffffffffffffffffffffffff1602179055508a60ff60008e815260200190815260200160002060010160006101000a81548173ffffffffffffffffffffffffffffffffffffffff021916908373ffffffffffffffffffffffffffffffffffffffff1602179055508860ff60008e815260200190815260200160002060020160006101000a81548173ffffffffffffffffffffffffffffffffffffffff021916908373ffffffffffffffffffffffffffffffffffffffff160217905550876bffffffffffffffffffffffff1660ff60008e8152602001908152602001600020600301819055508060ff60008e815260200190815260200160002060040181905550600160ff60008e815260200190815260200160002060050160006101000a81548160ff0219169083151502179055508160ff60008e8152602001908152602001600020600701819055508673ffffffffffffffffffffffffffffffffffffffff168a8d7f9526aaa84e50f6ef468dfbaa9f23142f7d05aad28d602095429e99a26ca56ae28e8d8b8b8b60405161211a959493929190613c07565b60405180910390a46001925050509998505050505050505050565b6000603360009054906101000a900473ffffffffffffffffffffffffffffffffffffffff16905090565b600080609860009054906101000a900467ffffffffffffffff16609754915091509091565b61218c6123e0565b600073ffffffffffffffffffffffffffffffffffffffff168273ffffffffffffffffffffffffffffffffffffffff16036121fb576040517f08c379a00000000000000000000000000000000000000000000000000000000081526004016121f290613230565b60405180910390fd5b600181148061220a5750600281145b612249576040517f08c379a000000000000000000000000000000000000000000000000000000000815260040161224090613ca1565b60405180910390fd5b7f746f6b656e00000000000000000000000000000000000000000000000000000083036123045780609a60008473ffffffffffffffffffffffffffffffffffffffff1673ffffffffffffffffffffffffffffffffffffffff168152602001908152602001600020819055508173ffffffffffffffffffffffffffffffffffffffff16837fcfa976492af7c14a916cc3a239f4c9c75bbd7f5f0e398beb41d892c7eeccae4c836040516122fb919061379e565b60405180910390a35b505050565b6000606560009054906101000a900473ffffffffffffffffffffffffffffffffffffffff16905090565b61233b6123e0565b80606560006101000a81548173ffffffffffffffffffffffffffffffffffffffff021916908373ffffffffffffffffffffffffffffffffffffffff1602179055508073ffffffffffffffffffffffffffffffffffffffff1661239b612135565b73ffffffffffffffffffffffffffffffffffffffff167f38d16b8cac22d99fc7c124b9cd0de2d3fa1faef420bfe791d8c362d765e2270060405160405180910390a350565b6123e86124f2565b73ffffffffffffffffffffffffffffffffffffffff16612406612135565b73ffffffffffffffffffffffffffffffffffffffff161461245c576040517f08c379a000000000000000000000000000000000000000000000000000000000815260040161245390613d0d565b60405180910390fd5b565b61246661282f565b600060cd60006101000a81548160ff0219169083151502179055507f5db9ee0a495bf2e6ff9c91a7834c1ba4fdd244a5e8aa4e537bd38aeae4b073aa6124aa6124f2565b6040516124b79190612b09565b60405180910390a1565b606560006101000a81549073ffffffffffffffffffffffffffffffffffffffff02191690556124ef81612878565b50565b600033905090565b612502610d66565b15612542576040517f08c379a000000000000000000000000000000000000000000000000000000000815260040161253990613d79565b60405180910390fd5b565b6001609a60008773ffffffffffffffffffffffffffffffffffffffff1673ffffffffffffffffffffffffffffffffffffffff16815260200190815260200160002054146125c6576040517f08c379a00000000000000000000000000000000000000000000000000000000081526004016125bd90613de5565b60405180910390fd5b60008403612609576040517f08c379a000000000000000000000000000000000000000000000000000000000815260040161260090613baf565b60405180910390fd5b600073ffffffffffffffffffffffffffffffffffffffff168373ffffffffffffffffffffffffffffffffffffffff1603612678576040517f08c379a000000000000000000000000000000000000000000000000000000000815260040161266f90613e51565b60405180910390fd5b600081146126f057600073ffffffffffffffffffffffffffffffffffffffff168273ffffffffffffffffffffffffffffffffffffffff16036126ef576040517f08c379a00000000000000000000000000000000000000000000000000000000081526004016126e690613ebd565b60405180910390fd5b5b5050505050565b6000808273ffffffffffffffffffffffffffffffffffffffff163b119050919050565b600060019054906101000a900460ff16612769576040517f08c379a000000000000000000000000000000000000000000000000000000000815260040161276090613f4f565b60405180910390fd5b61277161293e565b565b600060019054906101000a900460ff166127c2576040517f08c379a00000000000000000000000000000000000000000000000000000000081526004016127b990613f4f565b60405180910390fd5b6127ca61299f565b565b6127d46124fa565b600160cd60006101000a81548160ff0219169083151502179055507f62e78cea01bee320cd4e420270b5ea74000d11b0c9f74754ebdbfc544b05a2586128186124f2565b6040516128259190612b09565b60405180910390a1565b612837610d66565b612876576040517f08c379a000000000000000000000000000000000000000000000000000000000815260040161286d90613fbb565b60405180910390fd5b565b6000603360009054906101000a900473ffffffffffffffffffffffffffffffffffffffff16905081603360006101000a81548173ffffffffffffffffffffffffffffffffffffffff021916908373ffffffffffffffffffffffffffffffffffffffff1602179055508173ffffffffffffffffffffffffffffffffffffffff168173ffffffffffffffffffffffffffffffffffffffff167f8be0079c531659141344cd1fd0a4f28419497f9722a3daafe3b4186f6b6457e060405160405180910390a35050565b600060019054906101000a900460ff1661298d576040517f08c379a000000000000000000000000000000000000000000000000000000000815260040161298490613f4f565b60405180910390fd5b61299d6129986124f2565b6124c1565b565b600060019054906101000a900460ff166129ee576040517f08c379a00000000000000000000000000000000000000000000000000000000081526004016129e590613f4f565b60405180910390fd5b600060cd60006101000a81548160ff021916908315150217905550565b604051806101400160405280600073ffffffffffffffffffffffffffffffffffffffff168152602001600073ffffffffffffffffffffffffffffffffffffffff168152602001600073ffffffffffffffffffffffffffffffffffffffff1681526020016000815260200160008152602001600015158152602001600015158152602001600073ffffffffffffffffffffffffffffffffffffffff16815260200160006bffffffffffffffffffffffff168152602001600081525090565b600073ffffffffffffffffffffffffffffffffffffffff82169050919050565b6000612af382612ac8565b9050919050565b612b0381612ae8565b82525050565b6000602082019050612b1e6000830184612afa565b92915050565b600080fd5b600080fd5b6000819050919050565b612b4181612b2e565b8114612b4c57600080fd5b50565b600081359050612b5e81612b38565b92915050565b612b6d81612ae8565b8114612b7857600080fd5b50565b600081359050612b8a81612b64565b92915050565b60008060408385031215612ba757612ba6612b24565b5b6000612bb585828601612b4f565b9250506020612bc685828601612b7b565b9150509250929050565b600067ffffffffffffffff82169050919050565b612bed81612bd0565b8114612bf857600080fd5b50565b600081359050612c0a81612be4565b92915050565b60008060008060808587031215612c2a57612c29612b24565b5b6000612c3887828801612b4f565b9450506020612c4987828801612b4f565b9350506040612c5a87828801612b7b565b9250506060612c6b87828801612bfb565b91505092959194509250565b60008115159050919050565b612c8c81612c77565b82525050565b6000602082019050612ca76000830184612c83565b92915050565b600060208284031215612cc357612cc2612b24565b5b6000612cd184828501612bfb565b91505092915050565b6000819050919050565b612ced81612cda565b8114612cf857600080fd5b50565b600081359050612d0a81612ce4565b92915050565b60008060408385031215612d2757612d26612b24565b5b6000612d3585828601612cfb565b9250506020612d4685828601612b4f565b9150509250929050565b600060208284031215612d6657612d65612b24565b5b6000612d7484828501612b7b565b91505092915050565b600060208284031215612d9357612d92612b24565b5b6000612da184828501612b4f565b91505092915050565b612db381612ae8565b82525050565b612dc281612cda565b82525050565b612dd181612c77565b82525050565b60006bffffffffffffffffffffffff82169050919050565b612df881612dd7565b82525050565b61014082016000820151612e156000850182612daa565b506020820151612e286020850182612daa565b506040820151612e3b6040850182612daa565b506060820151612e4e6060850182612db9565b506080820151612e616080850182612db9565b5060a0820151612e7460a0850182612dc8565b5060c0820151612e8760c0850182612dc8565b5060e0820151612e9a60e0850182612daa565b50610100820151612eaf610100850182612def565b50610120820151612ec4610120850182612db9565b50505050565b600061014082019050612ee06000830184612dfe565b92915050565b612eef81612dd7565b8114612efa57600080fd5b50565b600081359050612f0c81612ee6565b92915050565b600080fd5b600080fd5b600080fd5b60008083601f840112612f3757612f36612f12565b5b8235905067ffffffffffffffff811115612f5457612f53612f17565b5b602083019150836001820283011115612f7057612f6f612f1c565b5b9250929050565b60008060008060008060008060e0898b031215612f9757612f96612b24565b5b6000612fa58b828c01612b7b565b9850506020612fb68b828c01612cfb565b9750506040612fc78b828c01612efd565b9650506060612fd88b828c01612b7b565b9550506080612fe98b828c01612cfb565b94505060a0612ffa8b828c01612b7b565b93505060c089013567ffffffffffffffff81111561301b5761301a612b29565b5b6130278b828c01612f21565b92509250509295985092959890939650565b61304281612b2e565b82525050565b600060208201905061305d6000830184613039565b92915050565b60008060008060008060008060006101008a8c03121561308657613085612b24565b5b60006130948c828d01612b4f565b99505060206130a58c828d01612b7b565b98505060406130b68c828d01612cfb565b97505060606130c78c828d01612b7b565b96505060806130d88c828d01612efd565b95505060a06130e98c828d01612b7b565b94505060c06130fa8c828d01612efd565b93505060e08a013567ffffffffffffffff81111561311b5761311a612b29565b5b6131278c828d01612f21565b92509250509295985092959850929598565b61314281612bd0565b82525050565b61315181612cda565b82525050565b600060408201905061316c6000830185613139565b6131796020830184613148565b9392505050565b60008060006060848603121561319957613198612b24565b5b60006131a786828701612b4f565b93505060206131b886828701612b7b565b92505060406131c986828701612cfb565b9150509250925092565b600082825260208201905092915050565b7f476174657761793a207a65726f20616464726573730000000000000000000000600082015250565b600061321a6015836131d3565b9150613225826131e4565b602082019050919050565b600060208201905081810360008301526132498161320d565b9050919050565b7f476174657761793a207472656173757279206164647265737320616c7265616460008201527f7920736574000000000000000000000000000000000000000000000000000000602082015250565b60006132ac6025836131d3565b91506132b782613250565b604082019050919050565b600060208201905081810360008301526132db8161329f565b9050919050565b7f476174657761793a2061676772656761746f72206164647265737320616c726560008201527f6164792073657400000000000000000000000000000000000000000000000000602082015250565b600061333e6027836131d3565b9150613349826132e2565b604082019050919050565b6000602082019050818103600083015261336d81613331565b9050919050565b7f4f6e6c7941676772656761746f72000000000000000000000000000000000000600082015250565b60006133aa600e836131d3565b91506133b582613374565b602082019050919050565b600060208201905081810360008301526133d98161339d565b9050919050565b7f4f7264657246756c66696c6c6564000000000000000000000000000000000000600082015250565b6000613416600e836131d3565b9150613421826133e0565b602082019050919050565b6000602082019050818103600083015261344581613409565b9050919050565b7f4f72646572526566756e64656400000000000000000000000000000000000000600082015250565b6000613482600d836131d3565b915061348d8261344c565b602082019050919050565b600060208201905081810360008301526134b181613475565b9050919050565b7f4e487b7100000000000000000000000000000000000000000000000000000000600052601160045260246000fd5b60006134f282612dd7565b91506134fd83612dd7565b925082820390506bffffffffffffffffffffffff811115613521576135206134b8565b5b92915050565b600060408201905061353c6000830185612afa565b6135496020830184613148565b9392505050565b61355981612c77565b811461356457600080fd5b50565b60008151905061357681613550565b92915050565b60006020828403121561359257613591612b24565b5b60006135a084828501613567565b91505092915050565b60006135b482612cda565b91506135bf83612cda565b92508282026135cd81612cda565b915082820484148315176135e4576135e36134b8565b5b5092915050565b7f4e487b7100000000000000000000000000000000000000000000000000000000600052601260045260246000fd5b600061362582612cda565b915061363083612cda565b9250826136405761363f6135eb565b5b828204905092915050565b600061365682612cda565b915061366183612cda565b9250828203905081811115613679576136786134b8565b5b92915050565b6000819050919050565b60006136a461369f61369a84612bd0565b61367f565b612dd7565b9050919050565b6136b481613689565b82525050565b60006040820190506136cf6000830185613039565b6136dc60208301846136ab565b9392505050565b60006020820190506136f86000830184613139565b92915050565b7f4665654578636565647350726f746f636f6c4665650000000000000000000000600082015250565b60006137346015836131d3565b915061373f826136fe565b602082019050919050565b6000602082019050818103600083015261376381613727565b9050919050565b600061377582612cda565b915061378083612cda565b9250828201905080821115613798576137976134b8565b5b92915050565b60006020820190506137b36000830184613148565b92915050565b7f4f776e61626c6532537465703a2063616c6c6572206973206e6f74207468652060008201527f6e6577206f776e65720000000000000000000000000000000000000000000000602082015250565b60006138156029836131d3565b9150613820826137b9565b604082019050919050565b6000602082019050818103600083015261384481613808565b9050919050565b7f496e76616c69644d657373616765486173680000000000000000000000000000600082015250565b60006138816012836131d3565b915061388c8261384b565b602082019050919050565b600060208201905081810360008301526138b081613874565b9050919050565b60006060820190506138cc6000830186612afa565b6138d96020830185612afa565b6138e66040830184613148565b949350505050565b60006138f982612cda565b91507fffffffffffffffffffffffffffffffffffffffffffffffffffffffffffffffff820361392b5761392a6134b8565b5b600182019050919050565b600061395161394c61394784612dd7565b61367f565b612cda565b9050919050565b61396181613936565b82525050565b82818337600083830152505050565b6000601f19601f8301169050919050565b600061399383856131d3565b93506139a0838584613967565b6139a983613976565b840190509392505050565b60006080820190506139c96000830188613148565b6139d66020830187613039565b6139e36040830186613958565b81810360608301526139f6818486613987565b90509695505050505050565b7f496e697469616c697a61626c653a20636f6e747261637420697320616c72656160008201527f647920696e697469616c697a6564000000000000000000000000000000000000602082015250565b6000613a5e602e836131d3565b9150613a6982613a02565b604082019050919050565b60006020820190508181036000830152613a8d81613a51565b9050919050565b6000819050919050565b600060ff82169050919050565b6000613ac6613ac1613abc84613a94565b61367f565b613a9e565b9050919050565b613ad681613aab565b82525050565b6000602082019050613af16000830184613acd565b92915050565b7f4f726465724e6f7446756c66696c6c6564000000000000000000000000000000600082015250565b6000613b2d6011836131d3565b9150613b3882613af7565b602082019050919050565b60006020820190508181036000830152613b5c81613b20565b9050919050565b7f416d6f756e7449735a65726f0000000000000000000000000000000000000000600082015250565b6000613b99600c836131d3565b9150613ba482613b63565b602082019050919050565b60006020820190508181036000830152613bc881613b8c565b9050919050565b6000604082019050613be46000830185612afa565b613bf16020830184613958565b9392505050565b613c0181612dd7565b82525050565b6000608082019050613c1c6000830188612afa565b613c296020830187612afa565b613c366040830186613bf8565b8181036060830152613c49818486613987565b90509695505050505050565b7f476174657761793a20696e76616c696420737461747573000000000000000000600082015250565b6000613c8b6017836131d3565b9150613c9682613c55565b602082019050919050565b60006020820190508181036000830152613cba81613c7e565b9050919050565b7f4f776e61626c653a2063616c6c6572206973206e6f7420746865206f776e6572600082015250565b6000613cf76020836131d3565b9150613d0282613cc1565b602082019050919050565b60006020820190508181036000830152613d2681613cea565b9050919050565b7f5061757361626c653a2070617573656400000000000000000000000000000000600082015250565b6000613d636010836131d3565b9150613d6e82613d2d565b602082019050919050565b60006020820190508181036000830152613d9281613d56565b9050919050565b7f546f6b656e4e6f74537570706f72746564000000000000000000000000000000600082015250565b6000613dcf6011836131d3565b9150613dda82613d99565b602082019050919050565b60006020820190508181036000830152613dfe81613dc2565b9050919050565b7f5468726f775a65726f4164647265737300000000000000000000000000000000600082015250565b6000613e3b6010836131d3565b9150613e4682613e05565b602082019050919050565b60006020820190508181036000830152613e6a81613e2e565b9050919050565b7f496e76616c696453656e646572466565526563697069656e7400000000000000600082015250565b6000613ea76019836131d3565b9150613eb282613e71565b602082019050919050565b60006020820190508181036000830152613ed681613e9a565b9050919050565b7f496e697469616c697a61626c653a20636f6e7472616374206973206e6f74206960008201527f6e697469616c697a696e67000000000000000000000000000000000000000000602082015250565b6000613f39602b836131d3565b9150613f4482613edd565b604082019050919050565b60006020820190508181036000830152613f6881613f2c565b9050919050565b7f5061757361626c653a206e6f7420706175736564000000000000000000000000600082015250565b6000613fa56014836131d3565b9150613fb082613f6f565b602082019050919050565b60006020820190508181036000830152613fd481613f98565b905091905056fea2646970667358221220f0e4b29996c8050ff4e646417bb5355fa8dd316ded1dba0fe3164b21554b556664736f6c63430008120033",
  "linkReferences": {},
  "deployedLinkReferences": {}
}