{
  "_format": "hh-sol-artifact-1",
  "contractName": "Gateway",
  "sourceName": "contracts/Gateway.sol",
  "abi": [
    {
      "inputs": [],
      "stateMutability": "nonpayable",
      "type": "constructor"
    },
    {
      "anonymous": false,
      "inputs": [
        {
          "indexed": false,
          "internalType": "uint8",
          "name": "version",
          "type": "uint8"
        }
      ],
      "name": "Initialized",
      "type": "event"
    },
    {
      "anonymous": false,
      "inputs": [
        {
          "indexed": true,
          "internalType": "address",
          "name": "sender",
          "type": "address"
        },
        {
          "indexed": true,
          "internalType": "address",
          "name": "token",
          "type": "address"
        },
        {
          "indexed": true,
          "internalType": "uint256",
          "name": "amount",
          "type": "uint256"
        },
        {
          "indexed": false,
          "internalType": "uint256",
          "name": "protocolFee",
          "type": "uint256"
        },
        {
          "indexed": false,
          "internalType": "bytes32",
          "name": "orderId",
          "type": "bytes32"
        },
        {
          "indexed": false,
          "internalType": "uint256",
          "name": "rate",
          "type": "uint256"
        },
        {
          "indexed": false,
          "internalType": "string",
          "name": "messageHash",
          "type": "string"
        }
      ],
      "name": "OrderCreated",
      "type": "event"
    },
    {
      "anonymous": false,
      "inputs": [
        {
          "indexed": false,
          "internalType": "uint256",
          "name": "fee",
          "type": "uint256"
        },
        {
          "indexed": true,
          "internalType": "bytes32",
          "name": "orderId",
          "type": "bytes32"
        }
      ],
      "name": "OrderRefunded",
      "type": "event"
    },
    {
      "anonymous": false,
      "inputs": [
        {
          "indexed": true,
          "internalType": "address",
          "name": "previousOwner",
          "type": "address"
        },
        {
          "indexed": true,
          "internalType": "address",
          "name": "newOwner",
          "type": "address"
        }
      ],
      "name": "OwnershipTransferStarted",
      "type": "event"
    },
    {
      "anonymous": false,
      "inputs": [
        {
          "indexed": true,
          "internalType": "address",
          "name": "previousOwner",
          "type": "address"
        },
        {
          "indexed": true,
          "internalType": "address",
          "name": "newOwner",
          "type": "address"
        }
      ],
      "name": "OwnershipTransferred",
      "type": "event"
    },
    {
      "anonymous": false,
      "inputs": [
        {
          "indexed": false,
          "internalType": "address",
          "name": "account",
          "type": "address"
        }
      ],
      "name": "Paused",
      "type": "event"
    },
    {
      "anonymous": false,
      "inputs": [
        {
          "indexed": true,
          "internalType": "bytes32",
          "name": "what",
          "type": "bytes32"
        },
        {
          "indexed": true,
          "internalType": "address",
          "name": "treasuryAddress",
          "type": "address"
        }
      ],
      "name": "ProtocolAddressUpdated",
      "type": "event"
    },
    {
      "anonymous": false,
      "inputs": [
        {
          "indexed": false,
          "internalType": "uint64",
          "name": "protocolFee",
          "type": "uint64"
        }
      ],
      "name": "ProtocolFeeUpdated",
      "type": "event"
    },
    {
      "anonymous": false,
      "inputs": [
        {
          "indexed": true,
          "internalType": "address",
          "name": "sender",
          "type": "address"
        },
        {
          "indexed": true,
          "internalType": "uint256",
          "name": "amount",
          "type": "uint256"
        }
      ],
      "name": "SenderFeeTransferred",
      "type": "event"
    },
    {
      "anonymous": false,
      "inputs": [
        {
          "indexed": true,
          "internalType": "address",
          "name": "treasuryAddress",
          "type": "address"
        }
      ],
      "name": "SetFeeRecipient",
      "type": "event"
    },
    {
      "anonymous": false,
      "inputs": [
        {
          "indexed": true,
          "internalType": "bytes32",
          "name": "what",
          "type": "bytes32"
        },
        {
          "indexed": true,
          "internalType": "address",
          "name": "value",
          "type": "address"
        },
        {
          "indexed": false,
          "internalType": "uint256",
          "name": "status",
          "type": "uint256"
        }
      ],
      "name": "SettingManagerBool",
      "type": "event"
    },
    {
      "anonymous": false,
      "inputs": [
        {
          "indexed": true,
          "internalType": "bytes32",
          "name": "orderId",
          "type": "bytes32"
        },
        {
          "indexed": true,
          "internalType": "uint256",
          "name": "amount",
          "type": "uint256"
        },
        {
          "indexed": true,
          "internalType": "address",
          "name": "recipient",
          "type": "address"
        },
        {
          "indexed": false,
          "internalType": "address",
          "name": "token",
          "type": "address"
        },
        {
          "indexed": false,
          "internalType": "address",
          "name": "senderFee",
          "type": "address"
        },
        {
          "indexed": false,
          "internalType": "address",
          "name": "liquidityProvider",
          "type": "address"
        },
        {
          "indexed": false,
          "internalType": "uint96",
          "name": "rate",
          "type": "uint96"
        },
        {
          "indexed": false,
          "internalType": "string",
          "name": "messageHash",
          "type": "string"
        }
      ],
      "name": "SettleIn",
      "type": "event"
    },
    {
      "anonymous": false,
      "inputs": [
        {
          "indexed": false,
          "internalType": "bytes32",
          "name": "splitOrderId",
          "type": "bytes32"
        },
        {
          "indexed": true,
          "internalType": "bytes32",
          "name": "orderId",
          "type": "bytes32"
        },
        {
          "indexed": true,
          "internalType": "address",
          "name": "liquidityProvider",
          "type": "address"
        },
        {
          "indexed": false,
          "internalType": "uint96",
          "name": "settlePercent",
          "type": "uint96"
        }
      ],
      "name": "SettleOut",
      "type": "event"
    },
    {
      "anonymous": false,
      "inputs": [
        {
          "indexed": false,
          "internalType": "address",
          "name": "account",
          "type": "address"
        }
      ],
      "name": "Unpaused",
      "type": "event"
    },
    {
      "inputs": [],
      "name": "acceptOwnership",
      "outputs": [],
      "stateMutability": "nonpayable",
      "type": "function"
    },
    {
      "inputs": [
        {
          "internalType": "address",
          "name": "_token",
          "type": "address"
        },
        {
          "internalType": "uint256",
          "name": "_amount",
          "type": "uint256"
        },
        {
          "internalType": "uint96",
          "name": "_rate",
          "type": "uint96"
        },
        {
          "internalType": "address",
          "name": "_senderFeeRecipient",
          "type": "address"
        },
        {
          "internalType": "uint256",
          "name": "_senderFee",
          "type": "uint256"
        },
        {
          "internalType": "address",
          "name": "_refundAddress",
          "type": "address"
        },
        {
          "internalType": "string",
          "name": "messageHash",
          "type": "string"
        }
      ],
      "name": "createOrder",
      "outputs": [
        {
          "internalType": "bytes32",
          "name": "orderId",
          "type": "bytes32"
        }
      ],
      "stateMutability": "nonpayable",
      "type": "function"
    },
    {
      "inputs": [],
      "name": "getFeeDetails",
      "outputs": [
        {
          "internalType": "uint64",
          "name": "",
          "type": "uint64"
        },
        {
          "internalType": "uint256",
          "name": "",
          "type": "uint256"
        }
      ],
      "stateMutability": "view",
      "type": "function"
    },
    {
      "inputs": [
        {
          "internalType": "bytes32",
          "name": "_orderId",
          "type": "bytes32"
        }
      ],
      "name": "getOrderInfo",
      "outputs": [
        {
          "components": [
            {
              "internalType": "address",
              "name": "sender",
              "type": "address"
            },
            {
              "internalType": "address",
              "name": "token",
              "type": "address"
            },
            {
              "internalType": "address",
              "name": "senderFeeRecipient",
              "type": "address"
            },
            {
              "internalType": "uint256",
              "name": "senderFee",
              "type": "uint256"
            },
            {
              "internalType": "uint256",
              "name": "protocolFee",
              "type": "uint256"
            },
            {
              "internalType": "bool",
              "name": "isFulfilled",
              "type": "bool"
            },
            {
              "internalType": "bool",
              "name": "isRefunded",
              "type": "bool"
            },
            {
              "internalType": "address",
              "name": "refundAddress",
              "type": "address"
            },
            {
              "internalType": "uint96",
              "name": "currentBPS",
              "type": "uint96"
            },
            {
              "internalType": "uint256",
              "name": "amount",
              "type": "uint256"
            }
          ],
          "internalType": "struct IGateway.Order",
          "name": "",
          "type": "tuple"
        }
      ],
      "stateMutability": "view",
      "type": "function"
    },
    {
      "inputs": [],
      "name": "initialize",
      "outputs": [],
      "stateMutability": "nonpayable",
      "type": "function"
    },
    {
      "inputs": [
        {
          "internalType": "address",
          "name": "_token",
          "type": "address"
        }
      ],
      "name": "isTokenSupported",
      "outputs": [
        {
          "internalType": "bool",
          "name": "",
          "type": "bool"
        }
      ],
      "stateMutability": "view",
      "type": "function"
    },
    {
      "inputs": [],
      "name": "owner",
      "outputs": [
        {
          "internalType": "address",
          "name": "",
          "type": "address"
        }
      ],
      "stateMutability": "view",
      "type": "function"
    },
    {
      "inputs": [],
      "name": "pause",
      "outputs": [],
      "stateMutability": "nonpayable",
      "type": "function"
    },
    {
      "inputs": [],
      "name": "paused",
      "outputs": [
        {
          "internalType": "bool",
          "name": "",
          "type": "bool"
        }
      ],
      "stateMutability": "view",
      "type": "function"
    },
    {
      "inputs": [],
      "name": "pendingOwner",
      "outputs": [
        {
          "internalType": "address",
          "name": "",
          "type": "address"
        }
      ],
      "stateMutability": "view",
      "type": "function"
    },
    {
      "inputs": [
        {
          "internalType": "uint256",
          "name": "_fee",
          "type": "uint256"
        },
        {
          "internalType": "bytes32",
          "name": "_orderId",
          "type": "bytes32"
        }
      ],
      "name": "refund",
      "outputs": [
        {
          "internalType": "bool",
          "name": "",
          "type": "bool"
        }
      ],
      "stateMutability": "nonpayable",
      "type": "function"
    },
    {
      "inputs": [],
      "name": "renounceOwnership",
      "outputs": [],
      "stateMutability": "nonpayable",
      "type": "function"
    },
    {
      "inputs": [
        {
          "internalType": "bytes32",
          "name": "what",
          "type": "bytes32"
        },
        {
          "internalType": "address",
          "name": "value",
          "type": "address"
        },
        {
          "internalType": "uint256",
          "name": "status",
          "type": "uint256"
        }
      ],
      "name": "settingManagerBool",
      "outputs": [],
      "stateMutability": "nonpayable",
      "type": "function"
    },
    {
      "inputs": [
        {
          "internalType": "bytes32",
          "name": "_orderId",
          "type": "bytes32"
        },
        {
          "internalType": "address",
          "name": "_token",
          "type": "address"
        },
        {
          "internalType": "uint256",
          "name": "_amount",
          "type": "uint256"
        },
        {
          "internalType": "address",
          "name": "_senderFeeRecipient",
          "type": "address"
        },
        {
          "internalType": "uint96",
          "name": "_senderFee",
          "type": "uint96"
        },
        {
          "internalType": "address",
          "name": "_liquidityProvider",
          "type": "address"
        },
        {
          "internalType": "uint96",
          "name": "_protocolFee",
          "type": "uint96"
        },
        {
          "internalType": "address",
          "name": "_recipient",
          "type": "address"
        },
        {
          "internalType": "uint96",
          "name": "_rate",
          "type": "uint96"
        },
        {
          "internalType": "string",
          "name": "_messageHash",
          "type": "string"
        }
      ],
      "name": "settleIn",
      "outputs": [
        {
          "internalType": "bool",
          "name": "",
          "type": "bool"
        }
      ],
      "stateMutability": "nonpayable",
      "type": "function"
    },
    {
      "inputs": [
        {
          "internalType": "bytes32",
          "name": "_splitOrderId",
          "type": "bytes32"
        },
        {
          "internalType": "bytes32",
          "name": "_orderId",
          "type": "bytes32"
        },
        {
          "internalType": "address",
          "name": "_liquidityProvider",
          "type": "address"
        },
        {
          "internalType": "uint64",
          "name": "_settlePercent",
          "type": "uint64"
        }
      ],
      "name": "settleOut",
      "outputs": [
        {
          "internalType": "bool",
          "name": "",
          "type": "bool"
        }
      ],
      "stateMutability": "nonpayable",
      "type": "function"
    },
    {
      "inputs": [
        {
          "internalType": "address",
          "name": "newOwner",
          "type": "address"
        }
      ],
      "name": "transferOwnership",
      "outputs": [],
      "stateMutability": "nonpayable",
      "type": "function"
    },
    {
      "inputs": [],
      "name": "unpause",
      "outputs": [],
      "stateMutability": "nonpayable",
      "type": "function"
    },
    {
      "inputs": [
        {
          "internalType": "bytes32",
          "name": "what",
          "type": "bytes32"
        },
        {
          "internalType": "address",
          "name": "value",
          "type": "address"
        }
      ],
      "name": "updateProtocolAddress",
      "outputs": [],
      "stateMutability": "nonpayable",
      "type": "function"
    },
    {
      "inputs": [
        {
          "internalType": "uint64",
          "name": "_protocolFeePercent",
          "type": "uint64"
        }
      ],
      "name": "updateProtocolFee",
      "outputs": [],
      "stateMutability": "nonpayable",
      "type": "function"
    }
  ],
  "bytecode": "0x60806040523480156200001157600080fd5b50620000226200002860201b60201c565b620001d2565b600060019054906101000a900460ff16156200007b576040517f08c379a0000000000000000000000000000000000000000000000000000000008152600401620000729062000175565b60405180910390fd5b60ff801660008054906101000a900460ff1660ff1614620000ec5760ff6000806101000a81548160ff021916908360ff1602179055507f7f26b83ff96e1f2b6a682f133852f6798a09c465da95921460cefb384740249860ff604051620000e39190620001b5565b60405180910390a15b565b600082825260208201905092915050565b7f496e697469616c697a61626c653a20636f6e747261637420697320696e69746960008201527f616c697a696e6700000000000000000000000000000000000000000000000000602082015250565b60006200015d602783620000ee565b91506200016a82620000ff565b604082019050919050565b6000602082019050818103600083015262000190816200014e565b9050919050565b600060ff82169050919050565b620001af8162000197565b82525050565b6000602082019050620001cc6000830184620001a4565b92915050565b61416b80620001e26000396000f3fe608060405234801561001057600080fd5b50600436106101215760003560e01c8063768c6ec0116100ad5780638da5cb5b116100715780638da5cb5b146102ce578063b810c636146102ec578063cd9924001461030b578063e30c397814610327578063f2fde38b1461034557610121565b8063768c6ec01461025057806379ba509714610280578063809804f71461028a5780638129fc1c146102ba5780638456cb59146102c457610121565b806347094e2e116100f457806347094e2e146101ac5780635c975abb146101c8578063715018a6146101e657806371eedb88146101f057806375151b631461022057610121565b80632dd2dbcd146101265780633f4ba83a1461015657806340ebc6771461016057806341eb9b1f1461017c575b600080fd5b610140600480360381019061013b9190612c8f565b610361565b60405161014d9190612daa565b60405180910390f35b61015e6109c2565b005b61017a60048036038101906101759190612dc5565b6109d4565b005b61019660048036038101906101919190612e45565b610c9c565b6040516101a39190612daa565b60405180910390f35b6101c660048036038101906101c19190612eac565b611309565b005b6101d0611374565b6040516101dd9190612daa565b60405180910390f35b6101ee61138b565b005b61020a60048036038101906102059190612ed9565b61139f565b6040516102179190612daa565b60405180910390f35b61023a60048036038101906102359190612f19565b61181d565b6040516102479190612daa565b60405180910390f35b61026a60048036038101906102659190612f46565b611879565b604051610277919061307b565b60405180910390f35b610288611a91565b005b6102a4600480360381019061029f9190613097565b611b1e565b6040516102b19190613168565b60405180910390f35b6102c261201d565b005b6102cc61216d565b005b6102d661217f565b6040516102e39190613192565b60405180910390f35b6102f46121a9565b6040516103029291906131cb565b60405180910390f35b610325600480360381019061032091906131f4565b6121ce565b005b61032f612353565b60405161033c9190613192565b60405180910390f35b61035f600480360381019061035a9190612f19565b61237d565b005b6000609960009054906101000a900473ffffffffffffffffffffffffffffffffffffffff1673ffffffffffffffffffffffffffffffffffffffff163373ffffffffffffffffffffffffffffffffffffffff16146103f3576040517f08c379a00000000000000000000000000000000000000000000000000000000081526004016103ea906132a4565b60405180910390fd5b60ff60008d815260200190815260200160002060050160009054906101000a900460ff1615610457576040517f08c379a000000000000000000000000000000000000000000000000000000000815260040161044e90613310565b60405180910390fd5b60008a1161049a576040517f08c379a00000000000000000000000000000000000000000000000000000000081526004016104919061337c565b60405180910390fd5b600073ffffffffffffffffffffffffffffffffffffffff168573ffffffffffffffffffffffffffffffffffffffff1603610509576040517f08c379a0000000000000000000000000000000000000000000000000000000008152600401610500906133e8565b60405180910390fd5b60008a90506000896bffffffffffffffffffffffff161461068157600073ffffffffffffffffffffffffffffffffffffffff168a73ffffffffffffffffffffffffffffffffffffffff1603610593576040517f08c379a000000000000000000000000000000000000000000000000000000000815260040161058a90613454565b60405180910390fd5b886bffffffffffffffffffffffff16816105ad91906134a3565b90508b73ffffffffffffffffffffffffffffffffffffffff1663a9059cbb8b8b6040518363ffffffff1660e01b81526004016105ea929190613512565b6020604051808303816000875af1158015610609573d6000803e3d6000fd5b505050506040513d601f19601f8201168201806040525081019061062d9190613567565b50886bffffffffffffffffffffffff168a73ffffffffffffffffffffffffffffffffffffffff167f44f6938ca4a10313aabb76f874cced61e35710a734a126e4afb34461bf8c250160405160405180910390a35b6000876bffffffffffffffffffffffff16111561073a578b73ffffffffffffffffffffffffffffffffffffffff1663a9059cbb609860089054906101000a900473ffffffffffffffffffffffffffffffffffffffff16896040518363ffffffff1660e01b81526004016106f5929190613512565b6020604051808303816000875af1158015610714573d6000803e3d6000fd5b505050506040513d601f19601f820116820180604052508101906107389190613567565b505b8b73ffffffffffffffffffffffffffffffffffffffff1663a9059cbb87836040518363ffffffff1660e01b8152600401610775929190613594565b6020604051808303816000875af1158015610794573d6000803e3d6000fd5b505050506040513d601f19601f820116820180604052508101906107b89190613567565b508560ff60008f815260200190815260200160002060000160006101000a81548173ffffffffffffffffffffffffffffffffffffffff021916908373ffffffffffffffffffffffffffffffffffffffff1602179055508b60ff60008f815260200190815260200160002060010160006101000a81548173ffffffffffffffffffffffffffffffffffffffff021916908373ffffffffffffffffffffffffffffffffffffffff1602179055508960ff60008f815260200190815260200160002060020160006101000a81548173ffffffffffffffffffffffffffffffffffffffff021916908373ffffffffffffffffffffffffffffffffffffffff160217905550886bffffffffffffffffffffffff1660ff60008f815260200190815260200160002060030181905550866bffffffffffffffffffffffff1660ff60008f815260200190815260200160002060040181905550600160ff60008f815260200190815260200160002060050160006101000a81548160ff0219169083151502179055508060ff60008f8152602001908152602001600020600701819055508573ffffffffffffffffffffffffffffffffffffffff168b8e7fa8abbacc3a553c5452fd3cde9c7c98f3d384b275852658618d9e7419eee246298f8e8d8b8b8b6040516109a696959493929190613619565b60405180910390a460019150509b9a5050505050505050505050565b6109ca61242a565b6109d26124a8565b565b6109dc61242a565b600073ffffffffffffffffffffffffffffffffffffffff168173ffffffffffffffffffffffffffffffffffffffff1603610a4b576040517f08c379a0000000000000000000000000000000000000000000000000000000008152600401610a42906136c1565b60405180910390fd5b60007f74726561737572790000000000000000000000000000000000000000000000008303610b4e578173ffffffffffffffffffffffffffffffffffffffff16609860089054906101000a900473ffffffffffffffffffffffffffffffffffffffff1673ffffffffffffffffffffffffffffffffffffffff1603610b04576040517f08c379a0000000000000000000000000000000000000000000000000000000008152600401610afb90613753565b60405180910390fd5b81609860086101000a81548173ffffffffffffffffffffffffffffffffffffffff021916908373ffffffffffffffffffffffffffffffffffffffff16021790555060019050610c4c565b7f61676772656761746f72000000000000000000000000000000000000000000008303610c4b578173ffffffffffffffffffffffffffffffffffffffff16609960009054906101000a900473ffffffffffffffffffffffffffffffffffffffff1673ffffffffffffffffffffffffffffffffffffffff1603610c05576040517f08c379a0000000000000000000000000000000000000000000000000000000008152600401610bfc906137e5565b60405180910390fd5b81609960006101000a81548173ffffffffffffffffffffffffffffffffffffffff021916908373ffffffffffffffffffffffffffffffffffffffff160217905550600190505b5b8015610c97578173ffffffffffffffffffffffffffffffffffffffff16837fbbc5b96e57cfecb3dbeeadf92e87f15e58e64fcd75cbe256dcc5d9ef2e51e8a460405160405180910390a35b505050565b6000609960009054906101000a900473ffffffffffffffffffffffffffffffffffffffff1673ffffffffffffffffffffffffffffffffffffffff163373ffffffffffffffffffffffffffffffffffffffff1614610d2e576040517f08c379a0000000000000000000000000000000000000000000000000000000008152600401610d25906132a4565b60405180910390fd5b60ff600085815260200190815260200160002060050160009054906101000a900460ff1615610d92576040517f08c379a0000000000000000000000000000000000000000000000000000000008152600401610d8990613851565b60405180910390fd5b60ff600085815260200190815260200160002060050160019054906101000a900460ff1615610df6576040517f08c379a0000000000000000000000000000000000000000000000000000000008152600401610ded906138bd565b60405180910390fd5b600060ff600086815260200190815260200160002060010160009054906101000a900473ffffffffffffffffffffffffffffffffffffffff1690508267ffffffffffffffff1660ff600087815260200190815260200160002060060160008282829054906101000a90046bffffffffffffffffffffffff16610e7891906138dd565b92506101000a8154816bffffffffffffffffffffffff02191690836bffffffffffffffffffffffff160217905550600060ff600087815260200190815260200160002060060160009054906101000a90046bffffffffffffffffffffffff166bffffffffffffffffffffffff16036110ca57600160ff600087815260200190815260200160002060050160006101000a81548160ff021916908315150217905550600060ff600087815260200190815260200160002060030154146110c95760ff600086815260200190815260200160002060010160009054906101000a900473ffffffffffffffffffffffffffffffffffffffff1673ffffffffffffffffffffffffffffffffffffffff1663a9059cbb60ff600088815260200190815260200160002060020160009054906101000a900473ffffffffffffffffffffffffffffffffffffffff1660ff6000898152602001908152602001600020600301546040518363ffffffff1660e01b8152600401610ff4929190613594565b6020604051808303816000875af1158015611013573d6000803e3d6000fd5b505050506040513d601f19601f820116820180604052508101906110379190613567565b5060ff60008681526020019081526020016000206003015460ff600087815260200190815260200160002060020160009054906101000a900473ffffffffffffffffffffffffffffffffffffffff1673ffffffffffffffffffffffffffffffffffffffff167f44f6938ca4a10313aabb76f874cced61e35710a734a126e4afb34461bf8c250160405160405180910390a35b5b60006097548467ffffffffffffffff1660ff6000898152602001908152602001600020600701546110fb919061391d565b611105919061398e565b90508060ff6000888152602001908152602001600020600701600082825461112d91906134a3565b925050819055506000609754609860009054906101000a900467ffffffffffffffff1667ffffffffffffffff1683611165919061391d565b61116f919061398e565b9050808261117d91906134a3565b9150600081111561122a578273ffffffffffffffffffffffffffffffffffffffff1663a9059cbb609860089054906101000a900473ffffffffffffffffffffffffffffffffffffffff16836040518363ffffffff1660e01b81526004016111e5929190613594565b6020604051808303816000875af1158015611204573d6000803e3d6000fd5b505050506040513d601f19601f820116820180604052508101906112289190613567565b505b8273ffffffffffffffffffffffffffffffffffffffff1663a9059cbb87846040518363ffffffff1660e01b8152600401611265929190613594565b6020604051808303816000875af1158015611284573d6000803e3d6000fd5b505050506040513d601f19601f820116820180604052508101906112a89190613567565b508573ffffffffffffffffffffffffffffffffffffffff16877f853201151e3402dc7ce8cead5a0e2fff33a582c52edf0a15e36ac6bd2814a7408a886040516112f29291906139f0565b60405180910390a360019350505050949350505050565b61131161242a565b80609860006101000a81548167ffffffffffffffff021916908367ffffffffffffffff1602179055507f1ce29a697a4765bd17d91df93ba75b250b629ecf030553ff1f6ab59f15ae6c7b816040516113699190613a19565b60405180910390a150565b600060cd60009054906101000a900460ff16905090565b61139361242a565b61139d600061250b565b565b6000609960009054906101000a900473ffffffffffffffffffffffffffffffffffffffff1673ffffffffffffffffffffffffffffffffffffffff163373ffffffffffffffffffffffffffffffffffffffff1614611431576040517f08c379a0000000000000000000000000000000000000000000000000000000008152600401611428906132a4565b60405180910390fd5b60ff600083815260200190815260200160002060050160009054906101000a900460ff1615611495576040517f08c379a000000000000000000000000000000000000000000000000000000000815260040161148c90613851565b60405180910390fd5b60ff600083815260200190815260200160002060050160019054906101000a900460ff16156114f9576040517f08c379a00000000000000000000000000000000000000000000000000000000081526004016114f0906138bd565b60405180910390fd5b8260ff6000848152602001908152602001600020600401541015611552576040517f08c379a000000000000000000000000000000000000000000000000000000000815260040161154990613a80565b60405180910390fd5b60008311156116335760ff600083815260200190815260200160002060010160009054906101000a900473ffffffffffffffffffffffffffffffffffffffff1673ffffffffffffffffffffffffffffffffffffffff1663a9059cbb609860089054906101000a900473ffffffffffffffffffffffffffffffffffffffff16856040518363ffffffff1660e01b81526004016115ee929190613594565b6020604051808303816000875af115801561160d573d6000803e3d6000fd5b505050506040513d601f19601f820116820180604052508101906116319190613567565b505b600160ff600084815260200190815260200160002060050160016101000a81548160ff021916908315150217905550600060ff600084815260200190815260200160002060060160006101000a8154816bffffffffffffffffffffffff02191690836bffffffffffffffffffffffff16021790555060008360ff6000858152602001908152602001600020600701546116cc91906134a3565b905060ff600084815260200190815260200160002060010160009054906101000a900473ffffffffffffffffffffffffffffffffffffffff1673ffffffffffffffffffffffffffffffffffffffff1663a9059cbb60ff600086815260200190815260200160002060050160029054906101000a900473ffffffffffffffffffffffffffffffffffffffff1660ff600087815260200190815260200160002060030154846117799190613aa0565b6040518363ffffffff1660e01b8152600401611796929190613594565b6020604051808303816000875af11580156117b5573d6000803e3d6000fd5b505050506040513d601f19601f820116820180604052508101906117d99190613567565b50827f0736fe428e1747ca8d387c2e6fa1a31a0cde62d3a167c40a46ade59a3cdc828e8560405161180a9190613ad4565b60405180910390a2600191505092915050565b60006001609a60008473ffffffffffffffffffffffffffffffffffffffff1673ffffffffffffffffffffffffffffffffffffffff168152602001908152602001600020540361186f5760019050611874565b600090505b919050565b611881612a55565b60ff6000838152602001908152602001600020604051806101400160405290816000820160009054906101000a900473ffffffffffffffffffffffffffffffffffffffff1673ffffffffffffffffffffffffffffffffffffffff1673ffffffffffffffffffffffffffffffffffffffff1681526020016001820160009054906101000a900473ffffffffffffffffffffffffffffffffffffffff1673ffffffffffffffffffffffffffffffffffffffff1673ffffffffffffffffffffffffffffffffffffffff1681526020016002820160009054906101000a900473ffffffffffffffffffffffffffffffffffffffff1673ffffffffffffffffffffffffffffffffffffffff1673ffffffffffffffffffffffffffffffffffffffff16815260200160038201548152602001600482015481526020016005820160009054906101000a900460ff161515151581526020016005820160019054906101000a900460ff161515151581526020016005820160029054906101000a900473ffffffffffffffffffffffffffffffffffffffff1673ffffffffffffffffffffffffffffffffffffffff1673ffffffffffffffffffffffffffffffffffffffff1681526020016006820160009054906101000a90046bffffffffffffffffffffffff166bffffffffffffffffffffffff166bffffffffffffffffffffffff1681526020016007820154815250509050919050565b6000611a9b61253c565b90508073ffffffffffffffffffffffffffffffffffffffff16611abc612353565b73ffffffffffffffffffffffffffffffffffffffff1614611b12576040517f08c379a0000000000000000000000000000000000000000000000000000000008152600401611b0990613b61565b60405180910390fd5b611b1b8161250b565b50565b6000611b28612544565b611b35898986898961258e565b60008383905003611b7b576040517f08c379a0000000000000000000000000000000000000000000000000000000008152600401611b7290613bcd565b60405180910390fd5b8873ffffffffffffffffffffffffffffffffffffffff166323b872dd3330888c611ba59190613aa0565b6040518463ffffffff1660e01b8152600401611bc393929190613bed565b6020604051808303816000875af1158015611be2573d6000803e3d6000fd5b505050506040513d601f19601f82011682018060405250810190611c069190613567565b5061010060003373ffffffffffffffffffffffffffffffffffffffff1673ffffffffffffffffffffffffffffffffffffffff1681526020019081526020016000206000815480929190611c5890613c24565b91905055503361010060003373ffffffffffffffffffffffffffffffffffffffff1673ffffffffffffffffffffffffffffffffffffffff16815260200190815260200160002054604051602001611cb0929190613594565b6040516020818303038152906040528051906020012090506000609754609860009054906101000a900467ffffffffffffffff1667ffffffffffffffff168a611cf9919061391d565b611d03919061398e565b90506040518061014001604052803373ffffffffffffffffffffffffffffffffffffffff1681526020018b73ffffffffffffffffffffffffffffffffffffffff1681526020018873ffffffffffffffffffffffffffffffffffffffff1681526020018781526020018281526020016000151581526020016000151581526020018673ffffffffffffffffffffffffffffffffffffffff16815260200160975467ffffffffffffffff166bffffffffffffffffffffffff1681526020018a81525060ff600084815260200190815260200160002060008201518160000160006101000a81548173ffffffffffffffffffffffffffffffffffffffff021916908373ffffffffffffffffffffffffffffffffffffffff16021790555060208201518160010160006101000a81548173ffffffffffffffffffffffffffffffffffffffff021916908373ffffffffffffffffffffffffffffffffffffffff16021790555060408201518160020160006101000a81548173ffffffffffffffffffffffffffffffffffffffff021916908373ffffffffffffffffffffffffffffffffffffffff160217905550606082015181600301556080820151816004015560a08201518160050160006101000a81548160ff02191690831515021790555060c08201518160050160016101000a81548160ff02191690831515021790555060e08201518160050160026101000a81548173ffffffffffffffffffffffffffffffffffffffff021916908373ffffffffffffffffffffffffffffffffffffffff1602179055506101008201518160060160006101000a8154816bffffffffffffffffffffffff02191690836bffffffffffffffffffffffff160217905550610120820151816007015590505060ff6000838152602001908152602001600020600701548a73ffffffffffffffffffffffffffffffffffffffff168673ffffffffffffffffffffffffffffffffffffffff167f40ccd1ceb111a3c186ef9911e1b876dc1f789ed331b86097b3b8851055b6a13784868d8a8a604051612008959493929190613c6c565b60405180910390a45098975050505050505050565b60008060019054906101000a900460ff1615905080801561204e5750600160008054906101000a900460ff1660ff16105b8061207b575061205d30612741565b15801561207a5750600160008054906101000a900460ff1660ff16145b5b6120ba576040517f08c379a00000000000000000000000000000000000000000000000000000000081526004016120b190613d2c565b60405180910390fd5b60016000806101000a81548160ff021916908360ff16021790555080156120f7576001600060016101000a81548160ff0219169083151502179055505b620186a0609781905550612109612764565b6121116127bd565b801561216a5760008060016101000a81548160ff0219169083151502179055507f7f26b83ff96e1f2b6a682f133852f6798a09c465da95921460cefb384740249860016040516121619190613d94565b60405180910390a15b50565b61217561242a565b61217d612816565b565b6000603360009054906101000a900473ffffffffffffffffffffffffffffffffffffffff16905090565b600080609860009054906101000a900467ffffffffffffffff16609754915091509091565b6121d661242a565b600073ffffffffffffffffffffffffffffffffffffffff168273ffffffffffffffffffffffffffffffffffffffff1603612245576040517f08c379a000000000000000000000000000000000000000000000000000000000815260040161223c906136c1565b60405180910390fd5b60018114806122545750600281145b612293576040517f08c379a000000000000000000000000000000000000000000000000000000000815260040161228a90613dfb565b60405180910390fd5b7f746f6b656e000000000000000000000000000000000000000000000000000000830361234e5780609a60008473ffffffffffffffffffffffffffffffffffffffff1673ffffffffffffffffffffffffffffffffffffffff168152602001908152602001600020819055508173ffffffffffffffffffffffffffffffffffffffff16837fcfa976492af7c14a916cc3a239f4c9c75bbd7f5f0e398beb41d892c7eeccae4c836040516123459190613ad4565b60405180910390a35b505050565b6000606560009054906101000a900473ffffffffffffffffffffffffffffffffffffffff16905090565b61238561242a565b80606560006101000a81548173ffffffffffffffffffffffffffffffffffffffff021916908373ffffffffffffffffffffffffffffffffffffffff1602179055508073ffffffffffffffffffffffffffffffffffffffff166123e561217f565b73ffffffffffffffffffffffffffffffffffffffff167f38d16b8cac22d99fc7c124b9cd0de2d3fa1faef420bfe791d8c362d765e2270060405160405180910390a350565b61243261253c565b73ffffffffffffffffffffffffffffffffffffffff1661245061217f565b73ffffffffffffffffffffffffffffffffffffffff16146124a6576040517f08c379a000000000000000000000000000000000000000000000000000000000815260040161249d90613e67565b60405180910390fd5b565b6124b0612879565b600060cd60006101000a81548160ff0219169083151502179055507f5db9ee0a495bf2e6ff9c91a7834c1ba4fdd244a5e8aa4e537bd38aeae4b073aa6124f461253c565b6040516125019190613192565b60405180910390a1565b606560006101000a81549073ffffffffffffffffffffffffffffffffffffffff0219169055612539816128c2565b50565b600033905090565b61254c611374565b1561258c576040517f08c379a000000000000000000000000000000000000000000000000000000000815260040161258390613ed3565b60405180910390fd5b565b6001609a60008773ffffffffffffffffffffffffffffffffffffffff1673ffffffffffffffffffffffffffffffffffffffff1681526020019081526020016000205414612610576040517f08c379a000000000000000000000000000000000000000000000000000000000815260040161260790613f3f565b60405180910390fd5b60008403612653576040517f08c379a000000000000000000000000000000000000000000000000000000000815260040161264a9061337c565b60405180910390fd5b600073ffffffffffffffffffffffffffffffffffffffff168373ffffffffffffffffffffffffffffffffffffffff16036126c2576040517f08c379a00000000000000000000000000000000000000000000000000000000081526004016126b990613fab565b60405180910390fd5b6000811461273a57600073ffffffffffffffffffffffffffffffffffffffff168273ffffffffffffffffffffffffffffffffffffffff1603612739576040517f08c379a000000000000000000000000000000000000000000000000000000000815260040161273090614017565b60405180910390fd5b5b5050505050565b6000808273ffffffffffffffffffffffffffffffffffffffff163b119050919050565b600060019054906101000a900460ff166127b3576040517f08c379a00000000000000000000000000000000000000000000000000000000081526004016127aa906140a9565b60405180910390fd5b6127bb612988565b565b600060019054906101000a900460ff1661280c576040517f08c379a0000000000000000000000000000000000000000000000000000000008152600401612803906140a9565b60405180910390fd5b6128146129e9565b565b61281e612544565b600160cd60006101000a81548160ff0219169083151502179055507f62e78cea01bee320cd4e420270b5ea74000d11b0c9f74754ebdbfc544b05a25861286261253c565b60405161286f9190613192565b60405180910390a1565b612881611374565b6128c0576040517f08c379a00000000000000000000000000000000000000000000000000000000081526004016128b790614115565b60405180910390fd5b565b6000603360009054906101000a900473ffffffffffffffffffffffffffffffffffffffff16905081603360006101000a81548173ffffffffffffffffffffffffffffffffffffffff021916908373ffffffffffffffffffffffffffffffffffffffff1602179055508173ffffffffffffffffffffffffffffffffffffffff168173ffffffffffffffffffffffffffffffffffffffff167f8be0079c531659141344cd1fd0a4f28419497f9722a3daafe3b4186f6b6457e060405160405180910390a35050565b600060019054906101000a900460ff166129d7576040517f08c379a00000000000000000000000000000000000000000000000000000000081526004016129ce906140a9565b60405180910390fd5b6129e76129e261253c565b61250b565b565b600060019054906101000a900460ff16612a38576040517f08c379a0000000000000000000000000000000000000000000000000000000008152600401612a2f906140a9565b60405180910390fd5b600060cd60006101000a81548160ff021916908315150217905550565b604051806101400160405280600073ffffffffffffffffffffffffffffffffffffffff168152602001600073ffffffffffffffffffffffffffffffffffffffff168152602001600073ffffffffffffffffffffffffffffffffffffffff1681526020016000815260200160008152602001600015158152602001600015158152602001600073ffffffffffffffffffffffffffffffffffffffff16815260200160006bffffffffffffffffffffffff168152602001600081525090565b600080fd5b600080fd5b6000819050919050565b612b2f81612b1c565b8114612b3a57600080fd5b50565b600081359050612b4c81612b26565b92915050565b600073ffffffffffffffffffffffffffffffffffffffff82169050919050565b6000612b7d82612b52565b9050919050565b612b8d81612b72565b8114612b9857600080fd5b50565b600081359050612baa81612b84565b92915050565b6000819050919050565b612bc381612bb0565b8114612bce57600080fd5b50565b600081359050612be081612bba565b92915050565b60006bffffffffffffffffffffffff82169050919050565b612c0781612be6565b8114612c1257600080fd5b50565b600081359050612c2481612bfe565b92915050565b600080fd5b600080fd5b600080fd5b60008083601f840112612c4f57612c4e612c2a565b5b8235905067ffffffffffffffff811115612c6c57612c6b612c2f565b5b602083019150836001820283011115612c8857612c87612c34565b5b9250929050565b60008060008060008060008060008060006101408c8e031215612cb557612cb4612b12565b5b6000612cc38e828f01612b3d565b9b50506020612cd48e828f01612b9b565b9a50506040612ce58e828f01612bd1565b9950506060612cf68e828f01612b9b565b9850506080612d078e828f01612c15565b97505060a0612d188e828f01612b9b565b96505060c0612d298e828f01612c15565b95505060e0612d3a8e828f01612b9b565b945050610100612d4c8e828f01612c15565b9350506101208c013567ffffffffffffffff811115612d6e57612d6d612b17565b5b612d7a8e828f01612c39565b92509250509295989b509295989b9093969950565b60008115159050919050565b612da481612d8f565b82525050565b6000602082019050612dbf6000830184612d9b565b92915050565b60008060408385031215612ddc57612ddb612b12565b5b6000612dea85828601612b3d565b9250506020612dfb85828601612b9b565b9150509250929050565b600067ffffffffffffffff82169050919050565b612e2281612e05565b8114612e2d57600080fd5b50565b600081359050612e3f81612e19565b92915050565b60008060008060808587031215612e5f57612e5e612b12565b5b6000612e6d87828801612b3d565b9450506020612e7e87828801612b3d565b9350506040612e8f87828801612b9b565b9250506060612ea087828801612e30565b91505092959194509250565b600060208284031215612ec257612ec1612b12565b5b6000612ed084828501612e30565b91505092915050565b60008060408385031215612ef057612eef612b12565b5b6000612efe85828601612bd1565b9250506020612f0f85828601612b3d565b9150509250929050565b600060208284031215612f2f57612f2e612b12565b5b6000612f3d84828501612b9b565b91505092915050565b600060208284031215612f5c57612f5b612b12565b5b6000612f6a84828501612b3d565b91505092915050565b612f7c81612b72565b82525050565b612f8b81612bb0565b82525050565b612f9a81612d8f565b82525050565b612fa981612be6565b82525050565b61014082016000820151612fc66000850182612f73565b506020820151612fd96020850182612f73565b506040820151612fec6040850182612f73565b506060820151612fff6060850182612f82565b5060808201516130126080850182612f82565b5060a082015161302560a0850182612f91565b5060c082015161303860c0850182612f91565b5060e082015161304b60e0850182612f73565b50610100820151613060610100850182612fa0565b50610120820151613075610120850182612f82565b50505050565b6000610140820190506130916000830184612faf565b92915050565b60008060008060008060008060e0898b0312156130b7576130b6612b12565b5b60006130c58b828c01612b9b565b98505060206130d68b828c01612bd1565b97505060406130e78b828c01612c15565b96505060606130f88b828c01612b9b565b95505060806131098b828c01612bd1565b94505060a061311a8b828c01612b9b565b93505060c089013567ffffffffffffffff81111561313b5761313a612b17565b5b6131478b828c01612c39565b92509250509295985092959890939650565b61316281612b1c565b82525050565b600060208201905061317d6000830184613159565b92915050565b61318c81612b72565b82525050565b60006020820190506131a76000830184613183565b92915050565b6131b681612e05565b82525050565b6131c581612bb0565b82525050565b60006040820190506131e060008301856131ad565b6131ed60208301846131bc565b9392505050565b60008060006060848603121561320d5761320c612b12565b5b600061321b86828701612b3d565b935050602061322c86828701612b9b565b925050604061323d86828701612bd1565b9150509250925092565b600082825260208201905092915050565b7f4f6e6c7941676772656761746f72000000000000000000000000000000000000600082015250565b600061328e600e83613247565b915061329982613258565b602082019050919050565b600060208201905081810360008301526132bd81613281565b9050919050565b7f4f726465724e6f7446756c66696c6c6564000000000000000000000000000000600082015250565b60006132fa601183613247565b9150613305826132c4565b602082019050919050565b60006020820190508181036000830152613329816132ed565b9050919050565b7f416d6f756e7449735a65726f0000000000000000000000000000000000000000600082015250565b6000613366600c83613247565b915061337182613330565b602082019050919050565b6000602082019050818103600083015261339581613359565b9050919050565b7f526563697069656e7449735a65726f4164647265737300000000000000000000600082015250565b60006133d2601683613247565b91506133dd8261339c565b602082019050919050565b60006020820190508181036000830152613401816133c5565b9050919050565b7f53656e646572466565526563697069656e7449735a65726f4164647265737300600082015250565b600061343e601f83613247565b915061344982613408565b602082019050919050565b6000602082019050818103600083015261346d81613431565b9050919050565b7f4e487b7100000000000000000000000000000000000000000000000000000000600052601160045260246000fd5b60006134ae82612bb0565b91506134b983612bb0565b92508282039050818111156134d1576134d0613474565b5b92915050565b6000819050919050565b60006134fc6134f76134f284612be6565b6134d7565b612bb0565b9050919050565b61350c816134e1565b82525050565b60006040820190506135276000830185613183565b6135346020830184613503565b9392505050565b61354481612d8f565b811461354f57600080fd5b50565b6000815190506135618161353b565b92915050565b60006020828403121561357d5761357c612b12565b5b600061358b84828501613552565b91505092915050565b60006040820190506135a96000830185613183565b6135b660208301846131bc565b9392505050565b6135c681612be6565b82525050565b82818337600083830152505050565b6000601f19601f8301169050919050565b60006135f88385613247565b93506136058385846135cc565b61360e836135db565b840190509392505050565b600060a08201905061362e6000830189613183565b61363b6020830188613183565b6136486040830187613183565b61365560608301866135bd565b81810360808301526136688184866135ec565b9050979650505050505050565b7f476174657761793a207a65726f20616464726573730000000000000000000000600082015250565b60006136ab601583613247565b91506136b682613675565b602082019050919050565b600060208201905081810360008301526136da8161369e565b9050919050565b7f476174657761793a207472656173757279206164647265737320616c7265616460008201527f7920736574000000000000000000000000000000000000000000000000000000602082015250565b600061373d602583613247565b9150613748826136e1565b604082019050919050565b6000602082019050818103600083015261376c81613730565b9050919050565b7f476174657761793a2061676772656761746f72206164647265737320616c726560008201527f6164792073657400000000000000000000000000000000000000000000000000602082015250565b60006137cf602783613247565b91506137da82613773565b604082019050919050565b600060208201905081810360008301526137fe816137c2565b9050919050565b7f4f7264657246756c66696c6c6564000000000000000000000000000000000000600082015250565b600061383b600e83613247565b915061384682613805565b602082019050919050565b6000602082019050818103600083015261386a8161382e565b9050919050565b7f4f72646572526566756e64656400000000000000000000000000000000000000600082015250565b60006138a7600d83613247565b91506138b282613871565b602082019050919050565b600060208201905081810360008301526138d68161389a565b9050919050565b60006138e882612be6565b91506138f383612be6565b925082820390506bffffffffffffffffffffffff81111561391757613916613474565b5b92915050565b600061392882612bb0565b915061393383612bb0565b925082820261394181612bb0565b9150828204841483151761395857613957613474565b5b5092915050565b7f4e487b7100000000000000000000000000000000000000000000000000000000600052601260045260246000fd5b600061399982612bb0565b91506139a483612bb0565b9250826139b4576139b361395f565b5b828204905092915050565b60006139da6139d56139d084612e05565b6134d7565b612be6565b9050919050565b6139ea816139bf565b82525050565b6000604082019050613a056000830185613159565b613a1260208301846139e1565b9392505050565b6000602082019050613a2e60008301846131ad565b92915050565b7f4665654578636565647350726f746f636f6c4665650000000000000000000000600082015250565b6000613a6a601583613247565b9150613a7582613a34565b602082019050919050565b60006020820190508181036000830152613a9981613a5d565b9050919050565b6000613aab82612bb0565b9150613ab683612bb0565b9250828201905080821115613ace57613acd613474565b5b92915050565b6000602082019050613ae960008301846131bc565b92915050565b7f4f776e61626c6532537465703a2063616c6c6572206973206e6f74207468652060008201527f6e6577206f776e65720000000000000000000000000000000000000000000000602082015250565b6000613b4b602983613247565b9150613b5682613aef565b604082019050919050565b60006020820190508181036000830152613b7a81613b3e565b9050919050565b7f496e76616c69644d657373616765486173680000000000000000000000000000600082015250565b6000613bb7601283613247565b9150613bc282613b81565b602082019050919050565b60006020820190508181036000830152613be681613baa565b9050919050565b6000606082019050613c026000830186613183565b613c0f6020830185613183565b613c1c60408301846131bc565b949350505050565b6000613c2f82612bb0565b91507fffffffffffffffffffffffffffffffffffffffffffffffffffffffffffffffff8203613c6157613c60613474565b5b600182019050919050565b6000608082019050613c8160008301886131bc565b613c8e6020830187613159565b613c9b6040830186613503565b8181036060830152613cae8184866135ec565b90509695505050505050565b7f496e697469616c697a61626c653a20636f6e747261637420697320616c72656160008201527f647920696e697469616c697a6564000000000000000000000000000000000000602082015250565b6000613d16602e83613247565b9150613d2182613cba565b604082019050919050565b60006020820190508181036000830152613d4581613d09565b9050919050565b6000819050919050565b600060ff82169050919050565b6000613d7e613d79613d7484613d4c565b6134d7565b613d56565b9050919050565b613d8e81613d63565b82525050565b6000602082019050613da96000830184613d85565b92915050565b7f476174657761793a20696e76616c696420737461747573000000000000000000600082015250565b6000613de5601783613247565b9150613df082613daf565b602082019050919050565b60006020820190508181036000830152613e1481613dd8565b9050919050565b7f4f776e61626c653a2063616c6c6572206973206e6f7420746865206f776e6572600082015250565b6000613e51602083613247565b9150613e5c82613e1b565b602082019050919050565b60006020820190508181036000830152613e8081613e44565b9050919050565b7f5061757361626c653a2070617573656400000000000000000000000000000000600082015250565b6000613ebd601083613247565b9150613ec882613e87565b602082019050919050565b60006020820190508181036000830152613eec81613eb0565b9050919050565b7f546f6b656e4e6f74537570706f72746564000000000000000000000000000000600082015250565b6000613f29601183613247565b9150613f3482613ef3565b602082019050919050565b60006020820190508181036000830152613f5881613f1c565b9050919050565b7f5468726f775a65726f4164647265737300000000000000000000000000000000600082015250565b6000613f95601083613247565b9150613fa082613f5f565b602082019050919050565b60006020820190508181036000830152613fc481613f88565b9050919050565b7f496e76616c696453656e646572466565526563697069656e7400000000000000600082015250565b6000614001601983613247565b915061400c82613fcb565b602082019050919050565b6000602082019050818103600083015261403081613ff4565b9050919050565b7f496e697469616c697a61626c653a20636f6e7472616374206973206e6f74206960008201527f6e697469616c697a696e67000000000000000000000000000000000000000000602082015250565b6000614093602b83613247565b915061409e82614037565b604082019050919050565b600060208201905081810360008301526140c281614086565b9050919050565b7f5061757361626c653a206e6f7420706175736564000000000000000000000000600082015250565b60006140ff601483613247565b915061410a826140c9565b602082019050919050565b6000602082019050818103600083015261412e816140f2565b905091905056fea264697066735822122015aaf5eb3028e7cf292b4d3574a0a06e59d34e87e16e5d825ba644b1c746be3964736f6c63430008120033",
  "linkReferences": {},
  "deployedLinkReferences": {}
}