{
  "_format": "hh-sol-artifact-1",
  "contractName": "Gateway",
  "sourceName": "contracts/Gateway.sol",
  "abi": [
    {
      "inputs": [],
      "stateMutability": "nonpayable",
      "type": "constructor"
    },
    {
      "anonymous": false,
      "inputs": [
        {
          "indexed": false,
          "internalType": "uint8",
          "name": "version",
          "type": "uint8"
        }
      ],
      "name": "Initialized",
      "type": "event"
    },
    {
      "anonymous": false,
      "inputs": [
        {
          "indexed": true,
          "internalType": "address",
          "name": "sender",
          "type": "address"
        },
        {
          "indexed": true,
          "internalType": "address",
          "name": "token",
          "type": "address"
        },
        {
          "indexed": true,
          "internalType": "uint256",
          "name": "amount",
          "type": "uint256"
        },
        {
          "indexed": false,
          "internalType": "uint256",
          "name": "protocolFee",
          "type": "uint256"
        },
        {
          "indexed": false,
          "internalType": "bytes32",
          "name": "orderId",
          "type": "bytes32"
        },
        {
          "indexed": false,
          "internalType": "uint256",
          "name": "rate",
          "type": "uint256"
        },
        {
          "indexed": false,
          "internalType": "bytes32",
          "name": "institutionCode",
          "type": "bytes32"
        },
        {
          "indexed": false,
          "internalType": "string",
          "name": "messageHash",
          "type": "string"
        }
      ],
      "name": "OrderCreated",
      "type": "event"
    },
    {
      "anonymous": false,
      "inputs": [
        {
          "indexed": false,
          "internalType": "uint256",
          "name": "fee",
          "type": "uint256"
        },
        {
          "indexed": true,
          "internalType": "bytes32",
          "name": "orderId",
          "type": "bytes32"
        }
      ],
      "name": "OrderRefunded",
      "type": "event"
    },
    {
      "anonymous": false,
      "inputs": [
        {
          "indexed": false,
          "internalType": "bytes32",
          "name": "splitOrderId",
          "type": "bytes32"
        },
        {
          "indexed": true,
          "internalType": "bytes32",
          "name": "orderId",
          "type": "bytes32"
        },
        {
          "indexed": true,
          "internalType": "address",
          "name": "liquidityProvider",
          "type": "address"
        },
        {
          "indexed": false,
          "internalType": "uint96",
          "name": "settlePercent",
          "type": "uint96"
        }
      ],
      "name": "OrderSettled",
      "type": "event"
    },
    {
      "anonymous": false,
      "inputs": [
        {
          "indexed": true,
          "internalType": "address",
          "name": "previousOwner",
          "type": "address"
        },
        {
          "indexed": true,
          "internalType": "address",
          "name": "newOwner",
          "type": "address"
        }
      ],
      "name": "OwnershipTransferStarted",
      "type": "event"
    },
    {
      "anonymous": false,
      "inputs": [
        {
          "indexed": true,
          "internalType": "address",
          "name": "previousOwner",
          "type": "address"
        },
        {
          "indexed": true,
          "internalType": "address",
          "name": "newOwner",
          "type": "address"
        }
      ],
      "name": "OwnershipTransferred",
      "type": "event"
    },
    {
      "anonymous": false,
      "inputs": [
        {
          "indexed": false,
          "internalType": "address",
          "name": "account",
          "type": "address"
        }
      ],
      "name": "Paused",
      "type": "event"
    },
    {
      "anonymous": false,
      "inputs": [
        {
          "indexed": true,
          "internalType": "bytes32",
          "name": "what",
          "type": "bytes32"
        },
        {
          "indexed": true,
          "internalType": "address",
          "name": "treasuryAddress",
          "type": "address"
        }
      ],
      "name": "ProtocolAddressUpdated",
      "type": "event"
    },
    {
      "anonymous": false,
      "inputs": [
        {
          "indexed": false,
          "internalType": "uint64",
          "name": "protocolFee",
          "type": "uint64"
        }
      ],
      "name": "ProtocolFeeUpdated",
      "type": "event"
    },
    {
      "anonymous": false,
      "inputs": [
        {
          "indexed": true,
          "internalType": "address",
          "name": "sender",
          "type": "address"
        },
        {
          "indexed": true,
          "internalType": "uint256",
          "name": "amount",
          "type": "uint256"
        }
      ],
      "name": "SenderFeeTransferred",
      "type": "event"
    },
    {
      "anonymous": false,
      "inputs": [
        {
          "indexed": true,
          "internalType": "address",
          "name": "treasuryAddress",
          "type": "address"
        }
      ],
      "name": "SetFeeRecipient",
      "type": "event"
    },
    {
      "anonymous": false,
      "inputs": [
        {
          "indexed": true,
          "internalType": "bytes32",
          "name": "what",
          "type": "bytes32"
        },
        {
          "indexed": true,
          "internalType": "address",
          "name": "value",
          "type": "address"
        },
        {
          "indexed": false,
          "internalType": "uint256",
          "name": "status",
          "type": "uint256"
        }
      ],
      "name": "SettingManagerBool",
      "type": "event"
    },
    {
      "anonymous": false,
      "inputs": [
        {
          "indexed": true,
          "internalType": "bytes32",
          "name": "currency",
          "type": "bytes32"
        },
        {
          "components": [
            {
              "internalType": "bytes32",
              "name": "code",
              "type": "bytes32"
            },
            {
              "internalType": "bytes32",
              "name": "name",
              "type": "bytes32"
            }
          ],
          "indexed": false,
          "internalType": "struct SharedStructs.Institution[]",
          "name": "institutions",
          "type": "tuple[]"
        }
      ],
      "name": "SupportedInstitutionsUpdated",
      "type": "event"
    },
    {
      "anonymous": false,
      "inputs": [
        {
          "indexed": false,
          "internalType": "address",
          "name": "account",
          "type": "address"
        }
      ],
      "name": "Unpaused",
      "type": "event"
    },
    {
      "inputs": [],
      "name": "acceptOwnership",
      "outputs": [],
      "stateMutability": "nonpayable",
      "type": "function"
    },
    {
      "inputs": [
        {
          "internalType": "address",
          "name": "_token",
          "type": "address"
        },
        {
          "internalType": "uint256",
          "name": "_amount",
          "type": "uint256"
        },
        {
          "internalType": "bytes32",
          "name": "_institutionCode",
          "type": "bytes32"
        },
        {
          "internalType": "uint96",
          "name": "_rate",
          "type": "uint96"
        },
        {
          "internalType": "address",
          "name": "_senderFeeRecipient",
          "type": "address"
        },
        {
          "internalType": "uint256",
          "name": "_senderFee",
          "type": "uint256"
        },
        {
          "internalType": "address",
          "name": "_refundAddress",
          "type": "address"
        },
        {
          "internalType": "string",
          "name": "messageHash",
          "type": "string"
        }
      ],
      "name": "createOrder",
      "outputs": [
        {
          "internalType": "bytes32",
          "name": "orderId",
          "type": "bytes32"
        }
      ],
      "stateMutability": "nonpayable",
      "type": "function"
    },
    {
      "inputs": [],
      "name": "getFeeDetails",
      "outputs": [
        {
          "internalType": "uint64",
          "name": "",
          "type": "uint64"
        },
        {
          "internalType": "uint256",
          "name": "",
          "type": "uint256"
        }
      ],
      "stateMutability": "view",
      "type": "function"
    },
    {
      "inputs": [
        {
          "internalType": "bytes32",
          "name": "_orderId",
          "type": "bytes32"
        }
      ],
      "name": "getOrderInfo",
      "outputs": [
        {
          "components": [
            {
              "internalType": "address",
              "name": "sender",
              "type": "address"
            },
            {
              "internalType": "address",
              "name": "token",
              "type": "address"
            },
            {
              "internalType": "address",
              "name": "senderFeeRecipient",
              "type": "address"
            },
            {
              "internalType": "uint256",
              "name": "senderFee",
              "type": "uint256"
            },
            {
              "internalType": "uint256",
              "name": "protocolFee",
              "type": "uint256"
            },
            {
              "internalType": "bool",
              "name": "isFulfilled",
              "type": "bool"
            },
            {
              "internalType": "bool",
              "name": "isRefunded",
              "type": "bool"
            },
            {
              "internalType": "address",
              "name": "refundAddress",
              "type": "address"
            },
            {
              "internalType": "uint96",
              "name": "currentBPS",
              "type": "uint96"
            },
            {
              "internalType": "uint256",
              "name": "amount",
              "type": "uint256"
            }
          ],
          "internalType": "struct IGateway.Order",
          "name": "",
          "type": "tuple"
        }
      ],
      "stateMutability": "view",
      "type": "function"
    },
    {
      "inputs": [
        {
          "internalType": "bytes32",
          "name": "_code",
          "type": "bytes32"
        }
      ],
      "name": "getSupportedInstitutionByCode",
      "outputs": [
        {
          "components": [
            {
              "internalType": "bytes32",
              "name": "name",
              "type": "bytes32"
            },
            {
              "internalType": "bytes32",
              "name": "currency",
              "type": "bytes32"
            }
          ],
          "internalType": "struct SharedStructs.InstitutionByCode",
          "name": "",
          "type": "tuple"
        }
      ],
      "stateMutability": "view",
      "type": "function"
    },
    {
      "inputs": [
        {
          "internalType": "bytes32",
          "name": "_currency",
          "type": "bytes32"
        }
      ],
      "name": "getSupportedInstitutions",
      "outputs": [
        {
          "components": [
            {
              "internalType": "bytes32",
              "name": "code",
              "type": "bytes32"
            },
            {
              "internalType": "bytes32",
              "name": "name",
              "type": "bytes32"
            }
          ],
          "internalType": "struct SharedStructs.Institution[]",
          "name": "",
          "type": "tuple[]"
        }
      ],
      "stateMutability": "view",
      "type": "function"
    },
    {
      "inputs": [],
      "name": "initialize",
      "outputs": [],
      "stateMutability": "nonpayable",
      "type": "function"
    },
    {
      "inputs": [
        {
          "internalType": "address",
          "name": "_token",
          "type": "address"
        }
      ],
      "name": "isTokenSupported",
      "outputs": [
        {
          "internalType": "bool",
          "name": "",
          "type": "bool"
        }
      ],
      "stateMutability": "view",
      "type": "function"
    },
    {
      "inputs": [],
      "name": "owner",
      "outputs": [
        {
          "internalType": "address",
          "name": "",
          "type": "address"
        }
      ],
      "stateMutability": "view",
      "type": "function"
    },
    {
      "inputs": [],
      "name": "pause",
      "outputs": [],
      "stateMutability": "nonpayable",
      "type": "function"
    },
    {
      "inputs": [],
      "name": "paused",
      "outputs": [
        {
          "internalType": "bool",
          "name": "",
          "type": "bool"
        }
      ],
      "stateMutability": "view",
      "type": "function"
    },
    {
      "inputs": [],
      "name": "pendingOwner",
      "outputs": [
        {
          "internalType": "address",
          "name": "",
          "type": "address"
        }
      ],
      "stateMutability": "view",
      "type": "function"
    },
    {
      "inputs": [
        {
          "internalType": "uint256",
          "name": "_fee",
          "type": "uint256"
        },
        {
          "internalType": "bytes32",
          "name": "_orderId",
          "type": "bytes32"
        }
      ],
      "name": "refund",
      "outputs": [
        {
          "internalType": "bool",
          "name": "",
          "type": "bool"
        }
      ],
      "stateMutability": "nonpayable",
      "type": "function"
    },
    {
      "inputs": [],
      "name": "renounceOwnership",
      "outputs": [],
      "stateMutability": "nonpayable",
      "type": "function"
    },
    {
      "inputs": [
        {
          "internalType": "bytes32",
          "name": "currency",
          "type": "bytes32"
        },
        {
          "components": [
            {
              "internalType": "bytes32",
              "name": "code",
              "type": "bytes32"
            },
            {
              "internalType": "bytes32",
              "name": "name",
              "type": "bytes32"
            }
          ],
          "internalType": "struct SharedStructs.Institution[]",
          "name": "institutions",
          "type": "tuple[]"
        }
      ],
      "name": "setSupportedInstitutions",
      "outputs": [],
      "stateMutability": "nonpayable",
      "type": "function"
    },
    {
      "inputs": [
        {
          "internalType": "bytes32",
          "name": "what",
          "type": "bytes32"
        },
        {
          "internalType": "address",
          "name": "value",
          "type": "address"
        },
        {
          "internalType": "uint256",
          "name": "status",
          "type": "uint256"
        }
      ],
      "name": "settingManagerBool",
      "outputs": [],
      "stateMutability": "nonpayable",
      "type": "function"
    },
    {
      "inputs": [
        {
          "internalType": "bytes32",
          "name": "_splitOrderId",
          "type": "bytes32"
        },
        {
          "internalType": "bytes32",
          "name": "_orderId",
          "type": "bytes32"
        },
        {
          "internalType": "address",
          "name": "_liquidityProvider",
          "type": "address"
        },
        {
          "internalType": "uint64",
          "name": "_settlePercent",
          "type": "uint64"
        }
      ],
      "name": "settle",
      "outputs": [
        {
          "internalType": "bool",
          "name": "",
          "type": "bool"
        }
      ],
      "stateMutability": "nonpayable",
      "type": "function"
    },
    {
      "inputs": [
        {
          "internalType": "address",
          "name": "newOwner",
          "type": "address"
        }
      ],
      "name": "transferOwnership",
      "outputs": [],
      "stateMutability": "nonpayable",
      "type": "function"
    },
    {
      "inputs": [],
      "name": "unpause",
      "outputs": [],
      "stateMutability": "nonpayable",
      "type": "function"
    },
    {
      "inputs": [
        {
          "internalType": "bytes32",
          "name": "what",
          "type": "bytes32"
        },
        {
          "internalType": "address",
          "name": "value",
          "type": "address"
        }
      ],
      "name": "updateProtocolAddress",
      "outputs": [],
      "stateMutability": "nonpayable",
      "type": "function"
    },
    {
      "inputs": [
        {
          "internalType": "uint64",
          "name": "_protocolFeePercent",
          "type": "uint64"
        }
      ],
      "name": "updateProtocolFee",
      "outputs": [],
      "stateMutability": "nonpayable",
      "type": "function"
    }
  ],
  "bytecode": "0x60806040523480156200001157600080fd5b50620000226200002860201b60201c565b620001d2565b600060019054906101000a900460ff16156200007b576040517f08c379a0000000000000000000000000000000000000000000000000000000008152600401620000729062000175565b60405180910390fd5b60ff801660008054906101000a900460ff1660ff1614620000ec5760ff6000806101000a81548160ff021916908360ff1602179055507f7f26b83ff96e1f2b6a682f133852f6798a09c465da95921460cefb384740249860ff604051620000e39190620001b5565b60405180910390a15b565b600082825260208201905092915050565b7f496e697469616c697a61626c653a20636f6e747261637420697320696e69746960008201527f616c697a696e6700000000000000000000000000000000000000000000000000602082015250565b60006200015d602783620000ee565b91506200016a82620000ff565b604082019050919050565b6000602082019050818103600083015262000190816200014e565b9050919050565b600060ff82169050919050565b620001af8162000197565b82525050565b6000602082019050620001cc6000830184620001a4565b92915050565b61413c80620001e26000396000f3fe608060405234801561001057600080fd5b50600436106101375760003560e01c806379ba5097116100b8578063c22801031161007c578063c2280103146102dd578063cd9924001461030d578063d12ff20a14610329578063e30c397814610359578063f22ee70414610377578063f2fde38b146103a757610137565b806379ba5097146102825780638129fc1c1461028c5780638456cb59146102965780638da5cb5b146102a0578063b810c636146102be57610137565b80635c975abb116100ff5780635c975abb146101ca578063715018a6146101e857806371eedb88146101f257806375151b6314610222578063768c6ec01461025257610137565b8063026213381461013c578063322008821461016c5780633f4ba83a1461018857806340ebc6771461019257806347094e2e146101ae575b600080fd5b610156600480360381019061015191906128ba565b6103c3565b60405161016391906129d4565b60405180910390f35b61018660048036038101906101819190612ba4565b610449565b005b6101906105be565b005b6101ac60048036038101906101a79190612c5e565b6105d0565b005b6101c860048036038101906101c39190612cde565b610898565b005b6101d2610903565b6040516101df9190612d26565b60405180910390f35b6101f061091a565b005b61020c60048036038101906102079190612d77565b61092e565b6040516102199190612d26565b60405180910390f35b61023c60048036038101906102379190612db7565b610dce565b6040516102499190612d26565b60405180910390f35b61026c600480360381019061026791906128ba565b610e2a565b6040516102799190612f04565b60405180910390f35b61028a611043565b005b6102946110d0565b005b61029e611220565b005b6102a8611232565b6040516102b59190612f2f565b60405180910390f35b6102c661125c565b6040516102d4929190612f68565b60405180910390f35b6102f760048036038101906102f291906128ba565b611281565b6040516103049190612fc0565b60405180910390f35b61032760048036038101906103229190612fdb565b6112c2565b005b610343600480360381019061033e91906130b5565b611447565b604051610350919061319a565b60405180910390f35b61036161198e565b60405161036e9190612f2f565b60405180910390f35b610391600480360381019061038c91906131b5565b6119b8565b60405161039e9190612d26565b60405180910390f35b6103c160048036038101906103bc9190612db7565b612014565b005b606060cd6000838152602001908152602001600020805480602002602001604051908101604052809291908181526020016000905b8282101561043e578382906000526020600020906002020160405180604001604052908160008201548152602001600182015481525050815260200190600101906103f8565b505050509050919050565b6104516120c1565b60cd600083815260200190815260200160002060006104709190612748565b60005b815181101561056f5760cd60008481526020019081526020016000208282815181106104a2576104a161321c565b5b602002602001015190806001815401808255809150506001900390600052602060002090600202016000909190919091506000820151816000015560208201518160010155505060405180604001604052808383815181106105075761050661321c565b5b60200260200101516020015181526020018481525060ce60008484815181106105335761053261321c565b5b60200260200101516000015181526020019081526020016000206000820151816000015560208201518160010155905050806001019050610473565b50817f58f3a30ec15a8d3e09fa65f9ef10219bc7a9a99d872a4ed895c37c2e761ac2ac60cd60008581526020019081526020016000206040516105b29190613365565b60405180910390a25050565b6105c66120c1565b6105ce61213f565b565b6105d86120c1565b600073ffffffffffffffffffffffffffffffffffffffff168173ffffffffffffffffffffffffffffffffffffffff1603610647576040517f08c379a000000000000000000000000000000000000000000000000000000000815260040161063e906133e4565b60405180910390fd5b60007f7472656173757279000000000000000000000000000000000000000000000000830361074a578173ffffffffffffffffffffffffffffffffffffffff16609860089054906101000a900473ffffffffffffffffffffffffffffffffffffffff1673ffffffffffffffffffffffffffffffffffffffff1603610700576040517f08c379a00000000000000000000000000000000000000000000000000000000081526004016106f790613476565b60405180910390fd5b81609860086101000a81548173ffffffffffffffffffffffffffffffffffffffff021916908373ffffffffffffffffffffffffffffffffffffffff16021790555060019050610848565b7f61676772656761746f72000000000000000000000000000000000000000000008303610847578173ffffffffffffffffffffffffffffffffffffffff16609960009054906101000a900473ffffffffffffffffffffffffffffffffffffffff1673ffffffffffffffffffffffffffffffffffffffff1603610801576040517f08c379a00000000000000000000000000000000000000000000000000000000081526004016107f890613508565b60405180910390fd5b81609960006101000a81548173ffffffffffffffffffffffffffffffffffffffff021916908373ffffffffffffffffffffffffffffffffffffffff160217905550600190505b5b8015610893578173ffffffffffffffffffffffffffffffffffffffff16837fbbc5b96e57cfecb3dbeeadf92e87f15e58e64fcd75cbe256dcc5d9ef2e51e8a460405160405180910390a35b505050565b6108a06120c1565b80609860006101000a81548167ffffffffffffffff021916908367ffffffffffffffff1602179055507f1ce29a697a4765bd17d91df93ba75b250b629ecf030553ff1f6ab59f15ae6c7b816040516108f89190613528565b60405180910390a150565b600060cf60009054906101000a900460ff16905090565b6109226120c1565b61092c60006121a2565b565b6000609960009054906101000a900473ffffffffffffffffffffffffffffffffffffffff1673ffffffffffffffffffffffffffffffffffffffff163373ffffffffffffffffffffffffffffffffffffffff16146109c0576040517f08c379a00000000000000000000000000000000000000000000000000000000081526004016109b79061358f565b60405180910390fd5b610101600083815260200190815260200160002060050160009054906101000a900460ff1615610a25576040517f08c379a0000000000000000000000000000000000000000000000000000000008152600401610a1c906135fb565b60405180910390fd5b610101600083815260200190815260200160002060050160019054906101000a900460ff1615610a8a576040517f08c379a0000000000000000000000000000000000000000000000000000000008152600401610a8190613667565b60405180910390fd5b826101016000848152602001908152602001600020600401541015610ae4576040517f08c379a0000000000000000000000000000000000000000000000000000000008152600401610adb906136d3565b60405180910390fd5b610101600083815260200190815260200160002060010160009054906101000a900473ffffffffffffffffffffffffffffffffffffffff1673ffffffffffffffffffffffffffffffffffffffff1663a9059cbb609860089054906101000a900473ffffffffffffffffffffffffffffffffffffffff16856040518363ffffffff1660e01b8152600401610b789291906136f3565b6020604051808303816000875af1158015610b97573d6000803e3d6000fd5b505050506040513d601f19601f82011682018060405250810190610bbb9190613748565b506001610101600084815260200190815260200160002060050160016101000a81548160ff0219169083151502179055506000610101600084815260200190815260200160002060060160006101000a8154816bffffffffffffffffffffffff02191690836bffffffffffffffffffffffff160217905550600083610101600085815260200190815260200160002060040154610101600086815260200190815260200160002060070154610c7091906137a4565b610c7a91906137d8565b9050610101600084815260200190815260200160002060010160009054906101000a900473ffffffffffffffffffffffffffffffffffffffff1673ffffffffffffffffffffffffffffffffffffffff1663a9059cbb610101600086815260200190815260200160002060050160029054906101000a900473ffffffffffffffffffffffffffffffffffffffff1661010160008781526020019081526020016000206003015484610d2a91906137a4565b6040518363ffffffff1660e01b8152600401610d479291906136f3565b6020604051808303816000875af1158015610d66573d6000803e3d6000fd5b505050506040513d601f19601f82011682018060405250810190610d8a9190613748565b50827f0736fe428e1747ca8d387c2e6fa1a31a0cde62d3a167c40a46ade59a3cdc828e85604051610dbb919061380c565b60405180910390a2600191505092915050565b6000600160cc60008473ffffffffffffffffffffffffffffffffffffffff1673ffffffffffffffffffffffffffffffffffffffff1681526020019081526020016000205403610e205760019050610e25565b600090505b919050565b610e3261276c565b6101016000838152602001908152602001600020604051806101400160405290816000820160009054906101000a900473ffffffffffffffffffffffffffffffffffffffff1673ffffffffffffffffffffffffffffffffffffffff1673ffffffffffffffffffffffffffffffffffffffff1681526020016001820160009054906101000a900473ffffffffffffffffffffffffffffffffffffffff1673ffffffffffffffffffffffffffffffffffffffff1673ffffffffffffffffffffffffffffffffffffffff1681526020016002820160009054906101000a900473ffffffffffffffffffffffffffffffffffffffff1673ffffffffffffffffffffffffffffffffffffffff1673ffffffffffffffffffffffffffffffffffffffff16815260200160038201548152602001600482015481526020016005820160009054906101000a900460ff161515151581526020016005820160019054906101000a900460ff161515151581526020016005820160029054906101000a900473ffffffffffffffffffffffffffffffffffffffff1673ffffffffffffffffffffffffffffffffffffffff1673ffffffffffffffffffffffffffffffffffffffff1681526020016006820160009054906101000a90046bffffffffffffffffffffffff166bffffffffffffffffffffffff166bffffffffffffffffffffffff1681526020016007820154815250509050919050565b600061104d6121d3565b90508073ffffffffffffffffffffffffffffffffffffffff1661106e61198e565b73ffffffffffffffffffffffffffffffffffffffff16146110c4576040517f08c379a00000000000000000000000000000000000000000000000000000000081526004016110bb90613899565b60405180910390fd5b6110cd816121a2565b50565b60008060019054906101000a900460ff161590508080156111015750600160008054906101000a900460ff1660ff16105b8061112e5750611110306121db565b15801561112d5750600160008054906101000a900460ff1660ff16145b5b61116d576040517f08c379a00000000000000000000000000000000000000000000000000000000081526004016111649061392b565b60405180910390fd5b60016000806101000a81548160ff021916908360ff16021790555080156111aa576001600060016101000a81548160ff0219169083151502179055505b620186a06097819055506111bc6121fe565b6111c4612257565b801561121d5760008060016101000a81548160ff0219169083151502179055507f7f26b83ff96e1f2b6a682f133852f6798a09c465da95921460cefb38474024986001604051611214919061399d565b60405180910390a15b50565b6112286120c1565b6112306122b0565b565b6000603360009054906101000a900473ffffffffffffffffffffffffffffffffffffffff16905090565b600080609860009054906101000a900467ffffffffffffffff16609754915091509091565b611289612829565b60ce6000838152602001908152602001600020604051806040016040529081600082015481526020016001820154815250509050919050565b6112ca6120c1565b600073ffffffffffffffffffffffffffffffffffffffff168273ffffffffffffffffffffffffffffffffffffffff1603611339576040517f08c379a0000000000000000000000000000000000000000000000000000000008152600401611330906133e4565b60405180910390fd5b60018114806113485750600281145b611387576040517f08c379a000000000000000000000000000000000000000000000000000000000815260040161137e90613a04565b60405180910390fd5b7f746f6b656e0000000000000000000000000000000000000000000000000000008303611442578060cc60008473ffffffffffffffffffffffffffffffffffffffff1673ffffffffffffffffffffffffffffffffffffffff168152602001908152602001600020819055508173ffffffffffffffffffffffffffffffffffffffff16837fcfa976492af7c14a916cc3a239f4c9c75bbd7f5f0e398beb41d892c7eeccae4c83604051611439919061380c565b60405180910390a35b505050565b6000611451612313565b61145f8a8a8689898d61235d565b600083839050036114a5576040517f08c379a000000000000000000000000000000000000000000000000000000000815260040161149c90613a70565b60405180910390fd5b8973ffffffffffffffffffffffffffffffffffffffff166323b872dd3330888d6114cf91906137a4565b6040518463ffffffff1660e01b81526004016114ed93929190613a90565b6020604051808303816000875af115801561150c573d6000803e3d6000fd5b505050506040513d601f19601f820116820180604052508101906115309190613748565b5061010260003373ffffffffffffffffffffffffffffffffffffffff1673ffffffffffffffffffffffffffffffffffffffff168152602001908152602001600020600081548092919061158290613ac7565b91905055503361010260003373ffffffffffffffffffffffffffffffffffffffff1673ffffffffffffffffffffffffffffffffffffffff168152602001908152602001600020546040516020016115da9291906136f3565b6040516020818303038152906040528051906020012090506000609754609860009054906101000a900467ffffffffffffffff1667ffffffffffffffff168b6116239190613b0f565b61162d9190613b80565b90506040518061014001604052803373ffffffffffffffffffffffffffffffffffffffff1681526020018c73ffffffffffffffffffffffffffffffffffffffff1681526020018873ffffffffffffffffffffffffffffffffffffffff1681526020018781526020018281526020016000151581526020016000151581526020018673ffffffffffffffffffffffffffffffffffffffff16815260200160975467ffffffffffffffff166bffffffffffffffffffffffff168152602001828c6116f591906137d8565b815250610101600084815260200190815260200160002060008201518160000160006101000a81548173ffffffffffffffffffffffffffffffffffffffff021916908373ffffffffffffffffffffffffffffffffffffffff16021790555060208201518160010160006101000a81548173ffffffffffffffffffffffffffffffffffffffff021916908373ffffffffffffffffffffffffffffffffffffffff16021790555060408201518160020160006101000a81548173ffffffffffffffffffffffffffffffffffffffff021916908373ffffffffffffffffffffffffffffffffffffffff160217905550606082015181600301556080820151816004015560a08201518160050160006101000a81548160ff02191690831515021790555060c08201518160050160016101000a81548160ff02191690831515021790555060e08201518160050160026101000a81548173ffffffffffffffffffffffffffffffffffffffff021916908373ffffffffffffffffffffffffffffffffffffffff1602179055506101008201518160060160006101000a8154816bffffffffffffffffffffffff02191690836bffffffffffffffffffffffff16021790555061012082015181600701559050506101016000838152602001908152602001600020600701548b73ffffffffffffffffffffffffffffffffffffffff16610101600085815260200190815260200160002060000160009054906101000a900473ffffffffffffffffffffffffffffffffffffffff1673ffffffffffffffffffffffffffffffffffffffff167f3bdd0d86e09a22d7ce596118bd3ca5ec73ea47533a465be37621e913ed2bf33384868d8f8b8b60405161197896959493929190613c1e565b60405180910390a4509998505050505050505050565b6000606560009054906101000a900473ffffffffffffffffffffffffffffffffffffffff16905090565b6000609960009054906101000a900473ffffffffffffffffffffffffffffffffffffffff1673ffffffffffffffffffffffffffffffffffffffff163373ffffffffffffffffffffffffffffffffffffffff1614611a4a576040517f08c379a0000000000000000000000000000000000000000000000000000000008152600401611a419061358f565b60405180910390fd5b610101600085815260200190815260200160002060050160009054906101000a900460ff1615611aaf576040517f08c379a0000000000000000000000000000000000000000000000000000000008152600401611aa6906135fb565b60405180910390fd5b610101600085815260200190815260200160002060050160019054906101000a900460ff1615611b14576040517f08c379a0000000000000000000000000000000000000000000000000000000008152600401611b0b90613667565b60405180910390fd5b6000610101600086815260200190815260200160002060010160009054906101000a900473ffffffffffffffffffffffffffffffffffffffff1690508267ffffffffffffffff16610101600087815260200190815260200160002060060160008282829054906101000a90046bffffffffffffffffffffffff16611b989190613c7a565b92506101000a8154816bffffffffffffffffffffffff02191690836bffffffffffffffffffffffff1602179055506000610101600087815260200190815260200160002060060160009054906101000a90046bffffffffffffffffffffffff166bffffffffffffffffffffffff1603611eca576001610101600087815260200190815260200160002060050160006101000a81548160ff021916908315150217905550600061010160008781526020019081526020016000206003015414611df157610101600086815260200190815260200160002060010160009054906101000a900473ffffffffffffffffffffffffffffffffffffffff1673ffffffffffffffffffffffffffffffffffffffff1663a9059cbb610101600088815260200190815260200160002060020160009054906101000a900473ffffffffffffffffffffffffffffffffffffffff166101016000898152602001908152602001600020600301546040518363ffffffff1660e01b8152600401611d1a9291906136f3565b6020604051808303816000875af1158015611d39573d6000803e3d6000fd5b505050506040513d601f19601f82011682018060405250810190611d5d9190613748565b50610101600086815260200190815260200160002060030154610101600087815260200190815260200160002060020160009054906101000a900473ffffffffffffffffffffffffffffffffffffffff1673ffffffffffffffffffffffffffffffffffffffff167f44f6938ca4a10313aabb76f874cced61e35710a734a126e4afb34461bf8c250160405160405180910390a35b600061010160008781526020019081526020016000206004015414611ec9578073ffffffffffffffffffffffffffffffffffffffff1663a9059cbb609860089054906101000a900473ffffffffffffffffffffffffffffffffffffffff166101016000898152602001908152602001600020600401546040518363ffffffff1660e01b8152600401611e849291906136f3565b6020604051808303816000875af1158015611ea3573d6000803e3d6000fd5b505050506040513d601f19601f82011682018060405250810190611ec79190613748565b505b5b60006097548467ffffffffffffffff16610101600089815260200190815260200160002060070154611efc9190613b0f565b611f069190613b80565b90508061010160008881526020019081526020016000206007016000828254611f2f91906137d8565b925050819055508173ffffffffffffffffffffffffffffffffffffffff1663a9059cbb86836040518363ffffffff1660e01b8152600401611f719291906136f3565b6020604051808303816000875af1158015611f90573d6000803e3d6000fd5b505050506040513d601f19601f82011682018060405250810190611fb49190613748565b508473ffffffffffffffffffffffffffffffffffffffff16867f98ece21e01a01cbe1d1c0dad3b053c8fbd368f99be78be958fcf1d1d13fd249a8987604051611ffe929190613ceb565b60405180910390a3600192505050949350505050565b61201c6120c1565b80606560006101000a81548173ffffffffffffffffffffffffffffffffffffffff021916908373ffffffffffffffffffffffffffffffffffffffff1602179055508073ffffffffffffffffffffffffffffffffffffffff1661207c611232565b73ffffffffffffffffffffffffffffffffffffffff167f38d16b8cac22d99fc7c124b9cd0de2d3fa1faef420bfe791d8c362d765e2270060405160405180910390a350565b6120c96121d3565b73ffffffffffffffffffffffffffffffffffffffff166120e7611232565b73ffffffffffffffffffffffffffffffffffffffff161461213d576040517f08c379a000000000000000000000000000000000000000000000000000000000815260040161213490613d60565b60405180910390fd5b565b61214761256c565b600060cf60006101000a81548160ff0219169083151502179055507f5db9ee0a495bf2e6ff9c91a7834c1ba4fdd244a5e8aa4e537bd38aeae4b073aa61218b6121d3565b6040516121989190612f2f565b60405180910390a1565b606560006101000a81549073ffffffffffffffffffffffffffffffffffffffff02191690556121d0816125b5565b50565b600033905090565b6000808273ffffffffffffffffffffffffffffffffffffffff163b119050919050565b600060019054906101000a900460ff1661224d576040517f08c379a000000000000000000000000000000000000000000000000000000000815260040161224490613df2565b60405180910390fd5b61225561267b565b565b600060019054906101000a900460ff166122a6576040517f08c379a000000000000000000000000000000000000000000000000000000000815260040161229d90613df2565b60405180910390fd5b6122ae6126dc565b565b6122b8612313565b600160cf60006101000a81548160ff0219169083151502179055507f62e78cea01bee320cd4e420270b5ea74000d11b0c9f74754ebdbfc544b05a2586122fc6121d3565b6040516123099190612f2f565b60405180910390a1565b61231b610903565b1561235b576040517f08c379a000000000000000000000000000000000000000000000000000000000815260040161235290613e5e565b60405180910390fd5b565b600160cc60008873ffffffffffffffffffffffffffffffffffffffff1673ffffffffffffffffffffffffffffffffffffffff16815260200190815260200160002054146123df576040517f08c379a00000000000000000000000000000000000000000000000000000000081526004016123d690613eca565b60405180910390fd5b60008503612422576040517f08c379a000000000000000000000000000000000000000000000000000000000815260040161241990613f36565b60405180910390fd5b600073ffffffffffffffffffffffffffffffffffffffff168473ffffffffffffffffffffffffffffffffffffffff1603612491576040517f08c379a000000000000000000000000000000000000000000000000000000000815260040161248890613fa2565b60405180910390fd5b6000801b60ce600083815260200190815260200160002060000154036124ec576040517f08c379a00000000000000000000000000000000000000000000000000000000081526004016124e39061400e565b60405180910390fd5b6000821461256457600073ffffffffffffffffffffffffffffffffffffffff168373ffffffffffffffffffffffffffffffffffffffff1603612563576040517f08c379a000000000000000000000000000000000000000000000000000000000815260040161255a9061407a565b60405180910390fd5b5b505050505050565b612574610903565b6125b3576040517f08c379a00000000000000000000000000000000000000000000000000000000081526004016125aa906140e6565b60405180910390fd5b565b6000603360009054906101000a900473ffffffffffffffffffffffffffffffffffffffff16905081603360006101000a81548173ffffffffffffffffffffffffffffffffffffffff021916908373ffffffffffffffffffffffffffffffffffffffff1602179055508173ffffffffffffffffffffffffffffffffffffffff168173ffffffffffffffffffffffffffffffffffffffff167f8be0079c531659141344cd1fd0a4f28419497f9722a3daafe3b4186f6b6457e060405160405180910390a35050565b600060019054906101000a900460ff166126ca576040517f08c379a00000000000000000000000000000000000000000000000000000000081526004016126c190613df2565b60405180910390fd5b6126da6126d56121d3565b6121a2565b565b600060019054906101000a900460ff1661272b576040517f08c379a000000000000000000000000000000000000000000000000000000000815260040161272290613df2565b60405180910390fd5b600060cf60006101000a81548160ff021916908315150217905550565b50805460008255600202906000526020600020908101906127699190612849565b50565b604051806101400160405280600073ffffffffffffffffffffffffffffffffffffffff168152602001600073ffffffffffffffffffffffffffffffffffffffff168152602001600073ffffffffffffffffffffffffffffffffffffffff1681526020016000815260200160008152602001600015158152602001600015158152602001600073ffffffffffffffffffffffffffffffffffffffff16815260200160006bffffffffffffffffffffffff168152602001600081525090565b604051806040016040528060008019168152602001600080191681525090565b5b8082111561286c5760008082016000905560018201600090555060020161284a565b5090565b6000604051905090565b600080fd5b600080fd5b6000819050919050565b61289781612884565b81146128a257600080fd5b50565b6000813590506128b48161288e565b92915050565b6000602082840312156128d0576128cf61287a565b5b60006128de848285016128a5565b91505092915050565b600081519050919050565b600082825260208201905092915050565b6000819050602082019050919050565b61291c81612884565b82525050565b6040820160008201516129386000850182612913565b50602082015161294b6020850182612913565b50505050565b600061295d8383612922565b60408301905092915050565b6000602082019050919050565b6000612981826128e7565b61298b81856128f2565b935061299683612903565b8060005b838110156129c75781516129ae8882612951565b97506129b983612969565b92505060018101905061299a565b5085935050505092915050565b600060208201905081810360008301526129ee8184612976565b905092915050565b600080fd5b6000601f19601f8301169050919050565b7f4e487b7100000000000000000000000000000000000000000000000000000000600052604160045260246000fd5b612a44826129fb565b810181811067ffffffffffffffff82111715612a6357612a62612a0c565b5b80604052505050565b6000612a76612870565b9050612a828282612a3b565b919050565b600067ffffffffffffffff821115612aa257612aa1612a0c565b5b602082029050602081019050919050565b600080fd5b600080fd5b600060408284031215612ad357612ad2612ab8565b5b612add6040612a6c565b90506000612aed848285016128a5565b6000830152506020612b01848285016128a5565b60208301525092915050565b6000612b20612b1b84612a87565b612a6c565b90508083825260208201905060408402830185811115612b4357612b42612ab3565b5b835b81811015612b6c5780612b588882612abd565b845260208401935050604081019050612b45565b5050509392505050565b600082601f830112612b8b57612b8a6129f6565b5b8135612b9b848260208601612b0d565b91505092915050565b60008060408385031215612bbb57612bba61287a565b5b6000612bc9858286016128a5565b925050602083013567ffffffffffffffff811115612bea57612be961287f565b5b612bf685828601612b76565b9150509250929050565b600073ffffffffffffffffffffffffffffffffffffffff82169050919050565b6000612c2b82612c00565b9050919050565b612c3b81612c20565b8114612c4657600080fd5b50565b600081359050612c5881612c32565b92915050565b60008060408385031215612c7557612c7461287a565b5b6000612c83858286016128a5565b9250506020612c9485828601612c49565b9150509250929050565b600067ffffffffffffffff82169050919050565b612cbb81612c9e565b8114612cc657600080fd5b50565b600081359050612cd881612cb2565b92915050565b600060208284031215612cf457612cf361287a565b5b6000612d0284828501612cc9565b91505092915050565b60008115159050919050565b612d2081612d0b565b82525050565b6000602082019050612d3b6000830184612d17565b92915050565b6000819050919050565b612d5481612d41565b8114612d5f57600080fd5b50565b600081359050612d7181612d4b565b92915050565b60008060408385031215612d8e57612d8d61287a565b5b6000612d9c85828601612d62565b9250506020612dad858286016128a5565b9150509250929050565b600060208284031215612dcd57612dcc61287a565b5b6000612ddb84828501612c49565b91505092915050565b612ded81612c20565b82525050565b612dfc81612d41565b82525050565b612e0b81612d0b565b82525050565b60006bffffffffffffffffffffffff82169050919050565b612e3281612e11565b82525050565b61014082016000820151612e4f6000850182612de4565b506020820151612e626020850182612de4565b506040820151612e756040850182612de4565b506060820151612e886060850182612df3565b506080820151612e9b6080850182612df3565b5060a0820151612eae60a0850182612e02565b5060c0820151612ec160c0850182612e02565b5060e0820151612ed460e0850182612de4565b50610100820151612ee9610100850182612e29565b50610120820151612efe610120850182612df3565b50505050565b600061014082019050612f1a6000830184612e38565b92915050565b612f2981612c20565b82525050565b6000602082019050612f446000830184612f20565b92915050565b612f5381612c9e565b82525050565b612f6281612d41565b82525050565b6000604082019050612f7d6000830185612f4a565b612f8a6020830184612f59565b9392505050565b604082016000820151612fa76000850182612913565b506020820151612fba6020850182612913565b50505050565b6000604082019050612fd56000830184612f91565b92915050565b600080600060608486031215612ff457612ff361287a565b5b6000613002868287016128a5565b935050602061301386828701612c49565b925050604061302486828701612d62565b9150509250925092565b61303781612e11565b811461304257600080fd5b50565b6000813590506130548161302e565b92915050565b600080fd5b60008083601f840112613075576130746129f6565b5b8235905067ffffffffffffffff8111156130925761309161305a565b5b6020830191508360018202830111156130ae576130ad612ab3565b5b9250929050565b60008060008060008060008060006101008a8c0312156130d8576130d761287a565b5b60006130e68c828d01612c49565b99505060206130f78c828d01612d62565b98505060406131088c828d016128a5565b97505060606131198c828d01613045565b965050608061312a8c828d01612c49565b95505060a061313b8c828d01612d62565b94505060c061314c8c828d01612c49565b93505060e08a013567ffffffffffffffff81111561316d5761316c61287f565b5b6131798c828d0161305f565b92509250509295985092959850929598565b61319481612884565b82525050565b60006020820190506131af600083018461318b565b92915050565b600080600080608085870312156131cf576131ce61287a565b5b60006131dd878288016128a5565b94505060206131ee878288016128a5565b93505060406131ff87828801612c49565b925050606061321087828801612cc9565b91505092959194509250565b7f4e487b7100000000000000000000000000000000000000000000000000000000600052603260045260246000fd5b600081549050919050565b60008190508160005260206000209050919050565b60008160001c9050919050565b6000819050919050565b60006132956132908361326b565b613278565b9050919050565b6040820160008083015490506132b181613282565b6132be6000860182612913565b50600183015490506132cf81613282565b6132dc6020860182612913565b5050505050565b60006132ef838361329c565b60408301905092915050565b6000600282019050919050565b60006133138261324b565b61331d81856128f2565b935061332883613256565b8060005b83811015613358578161333f88826132e3565b975061334a836132fb565b92505060018101905061332c565b5085935050505092915050565b6000602082019050818103600083015261337f8184613308565b905092915050565b600082825260208201905092915050565b7f476174657761793a207a65726f20616464726573730000000000000000000000600082015250565b60006133ce601583613387565b91506133d982613398565b602082019050919050565b600060208201905081810360008301526133fd816133c1565b9050919050565b7f476174657761793a207472656173757279206164647265737320616c7265616460008201527f7920736574000000000000000000000000000000000000000000000000000000602082015250565b6000613460602583613387565b915061346b82613404565b604082019050919050565b6000602082019050818103600083015261348f81613453565b9050919050565b7f476174657761793a2061676772656761746f72206164647265737320616c726560008201527f6164792073657400000000000000000000000000000000000000000000000000602082015250565b60006134f2602783613387565b91506134fd82613496565b604082019050919050565b60006020820190508181036000830152613521816134e5565b9050919050565b600060208201905061353d6000830184612f4a565b92915050565b7f4f6e6c7941676772656761746f72000000000000000000000000000000000000600082015250565b6000613579600e83613387565b915061358482613543565b602082019050919050565b600060208201905081810360008301526135a88161356c565b9050919050565b7f4f7264657246756c66696c6c6564000000000000000000000000000000000000600082015250565b60006135e5600e83613387565b91506135f0826135af565b602082019050919050565b60006020820190508181036000830152613614816135d8565b9050919050565b7f4f72646572526566756e64656400000000000000000000000000000000000000600082015250565b6000613651600d83613387565b915061365c8261361b565b602082019050919050565b6000602082019050818103600083015261368081613644565b9050919050565b7f4665654578636565647350726f746f636f6c4665650000000000000000000000600082015250565b60006136bd601583613387565b91506136c882613687565b602082019050919050565b600060208201905081810360008301526136ec816136b0565b9050919050565b60006040820190506137086000830185612f20565b6137156020830184612f59565b9392505050565b61372581612d0b565b811461373057600080fd5b50565b6000815190506137428161371c565b92915050565b60006020828403121561375e5761375d61287a565b5b600061376c84828501613733565b91505092915050565b7f4e487b7100000000000000000000000000000000000000000000000000000000600052601160045260246000fd5b60006137af82612d41565b91506137ba83612d41565b92508282019050808211156137d2576137d1613775565b5b92915050565b60006137e382612d41565b91506137ee83612d41565b925082820390508181111561380657613805613775565b5b92915050565b60006020820190506138216000830184612f59565b92915050565b7f4f776e61626c6532537465703a2063616c6c6572206973206e6f74207468652060008201527f6e6577206f776e65720000000000000000000000000000000000000000000000602082015250565b6000613883602983613387565b915061388e82613827565b604082019050919050565b600060208201905081810360008301526138b281613876565b9050919050565b7f496e697469616c697a61626c653a20636f6e747261637420697320616c72656160008201527f647920696e697469616c697a6564000000000000000000000000000000000000602082015250565b6000613915602e83613387565b9150613920826138b9565b604082019050919050565b6000602082019050818103600083015261394481613908565b9050919050565b6000819050919050565b600060ff82169050919050565b6000819050919050565b600061398761398261397d8461394b565b613962565b613955565b9050919050565b6139978161396c565b82525050565b60006020820190506139b2600083018461398e565b92915050565b7f476174657761793a20696e76616c696420737461747573000000000000000000600082015250565b60006139ee601783613387565b91506139f9826139b8565b602082019050919050565b60006020820190508181036000830152613a1d816139e1565b9050919050565b7f496e76616c69644d657373616765486173680000000000000000000000000000600082015250565b6000613a5a601283613387565b9150613a6582613a24565b602082019050919050565b60006020820190508181036000830152613a8981613a4d565b9050919050565b6000606082019050613aa56000830186612f20565b613ab26020830185612f20565b613abf6040830184612f59565b949350505050565b6000613ad282612d41565b91507fffffffffffffffffffffffffffffffffffffffffffffffffffffffffffffffff8203613b0457613b03613775565b5b600182019050919050565b6000613b1a82612d41565b9150613b2583612d41565b9250828202613b3381612d41565b91508282048414831517613b4a57613b49613775565b5b5092915050565b7f4e487b7100000000000000000000000000000000000000000000000000000000600052601260045260246000fd5b6000613b8b82612d41565b9150613b9683612d41565b925082613ba657613ba5613b51565b5b828204905092915050565b6000613bcc613bc7613bc284612e11565b613962565b612d41565b9050919050565b613bdc81613bb1565b82525050565b82818337600083830152505050565b6000613bfd8385613387565b9350613c0a838584613be2565b613c13836129fb565b840190509392505050565b600060a082019050613c336000830189612f59565b613c40602083018861318b565b613c4d6040830187613bd3565b613c5a606083018661318b565b8181036080830152613c6d818486613bf1565b9050979650505050505050565b6000613c8582612e11565b9150613c9083612e11565b925082820390506bffffffffffffffffffffffff811115613cb457613cb3613775565b5b92915050565b6000613cd5613cd0613ccb84612c9e565b613962565b612e11565b9050919050565b613ce581613cba565b82525050565b6000604082019050613d00600083018561318b565b613d0d6020830184613cdc565b9392505050565b7f4f776e61626c653a2063616c6c6572206973206e6f7420746865206f776e6572600082015250565b6000613d4a602083613387565b9150613d5582613d14565b602082019050919050565b60006020820190508181036000830152613d7981613d3d565b9050919050565b7f496e697469616c697a61626c653a20636f6e7472616374206973206e6f74206960008201527f6e697469616c697a696e67000000000000000000000000000000000000000000602082015250565b6000613ddc602b83613387565b9150613de782613d80565b604082019050919050565b60006020820190508181036000830152613e0b81613dcf565b9050919050565b7f5061757361626c653a2070617573656400000000000000000000000000000000600082015250565b6000613e48601083613387565b9150613e5382613e12565b602082019050919050565b60006020820190508181036000830152613e7781613e3b565b9050919050565b7f546f6b656e4e6f74537570706f72746564000000000000000000000000000000600082015250565b6000613eb4601183613387565b9150613ebf82613e7e565b602082019050919050565b60006020820190508181036000830152613ee381613ea7565b9050919050565b7f416d6f756e7449735a65726f0000000000000000000000000000000000000000600082015250565b6000613f20600c83613387565b9150613f2b82613eea565b602082019050919050565b60006020820190508181036000830152613f4f81613f13565b9050919050565b7f5468726f775a65726f4164647265737300000000000000000000000000000000600082015250565b6000613f8c601083613387565b9150613f9782613f56565b602082019050919050565b60006020820190508181036000830152613fbb81613f7f565b9050919050565b7f496e76616c6964496e737469747574696f6e436f646500000000000000000000600082015250565b6000613ff8601683613387565b915061400382613fc2565b602082019050919050565b6000602082019050818103600083015261402781613feb565b9050919050565b7f496e76616c696453656e646572466565526563697069656e7400000000000000600082015250565b6000614064601983613387565b915061406f8261402e565b602082019050919050565b6000602082019050818103600083015261409381614057565b9050919050565b7f5061757361626c653a206e6f7420706175736564000000000000000000000000600082015250565b60006140d0601483613387565b91506140db8261409a565b602082019050919050565b600060208201905081810360008301526140ff816140c3565b905091905056fea2646970667358221220fee3294c2f69793b2e26bb4e5f221157c1cd6bc38f3eb8791e7a14bfdc07077d64736f6c63430008120033",
  "linkReferences": {},
  "deployedLinkReferences": {}
}