{
  "_format": "hh-sol-artifact-1",
  "contractName": "ProviderBatchCallAndSponsor",
  "sourceName": "contracts/ProviderBatchCallAndSponsore.sol",
  "abi": [
    {
      "anonymous": false,
      "inputs": [
        {
          "indexed": true,
          "internalType": "uint256",
          "name": "nonce",
          "type": "uint256"
        },
        {
          "components": [
            {
              "internalType": "address",
              "name": "to",
              "type": "address"
            },
            {
              "internalType": "uint256",
              "name": "value",
              "type": "uint256"
            },
            {
              "internalType": "bytes",
              "name": "data",
              "type": "bytes"
            }
          ],
          "indexed": false,
          "internalType": "struct ProviderBatchCallAndSponsor.Call[]",
          "name": "calls",
          "type": "tuple[]"
        }
      ],
      "name": "BatchExecuted",
      "type": "event"
    },
    {
      "anonymous": false,
      "inputs": [
        {
          "indexed": true,
          "internalType": "address",
          "name": "sender",
          "type": "address"
        },
        {
          "indexed": true,
          "internalType": "address",
          "name": "to",
          "type": "address"
        },
        {
          "indexed": false,
          "internalType": "uint256",
          "name": "value",
          "type": "uint256"
        },
        {
          "indexed": false,
          "internalType": "bytes",
          "name": "data",
          "type": "bytes"
        }
      ],
      "name": "CallExecuted",
      "type": "event"
    },
    {
      "stateMutability": "payable",
      "type": "fallback"
    },
    {
      "inputs": [
        {
          "components": [
            {
              "internalType": "address",
              "name": "to",
              "type": "address"
            },
            {
              "internalType": "uint256",
              "name": "value",
              "type": "uint256"
            },
            {
              "internalType": "bytes",
              "name": "data",
              "type": "bytes"
            }
          ],
          "internalType": "struct ProviderBatchCallAndSponsor.Call[]",
          "name": "calls",
          "type": "tuple[]"
        }
      ],
      "name": "execute",
      "outputs": [],
      "stateMutability": "payable",
      "type": "function"
    },
    {
      "inputs": [
        {
          "components": [
            {
              "internalType": "address",
              "name": "to",
              "type": "address"
            },
            {
              "internalType": "uint256",
              "name": "value",
              "type": "uint256"
            },
            {
              "internalType": "bytes",
              "name": "data",
              "type": "bytes"
            }
          ],
          "internalType": "struct ProviderBatchCallAndSponsor.Call[]",
          "name": "calls",
          "type": "tuple[]"
        },
        {
          "internalType": "bytes",
          "name": "signature",
          "type": "bytes"
        }
      ],
      "name": "execute",
      "outputs": [],
      "stateMutability": "payable",
      "type": "function"
    },
    {
      "inputs": [],
      "name": "gatewayAddress",
      "outputs": [
        {
          "internalType": "address",
          "name": "",
          "type": "address"
        }
      ],
      "stateMutability": "view",
      "type": "function"
    },
    {
      "inputs": [],
      "name": "nonce",
      "outputs": [
        {
          "internalType": "uint256",
          "name": "",
          "type": "uint256"
        }
      ],
      "stateMutability": "view",
      "type": "function"
    },
    {
      "stateMutability": "payable",
      "type": "receive"
    }
  ],
  "bytecode": "0x608060405234801561001057600080fd5b506115c4806100206000396000f3fe6080604052600436106100435760003560e01c80633f707e6b1461004c5780636171d1c9146100685780638b851b9514610084578063affed0e0146100af5761004a565b3661004a57005b005b61006660048036038101906100619190610985565b6100da565b005b610082600480360381019061007d9190610a28565b610115565b005b34801561009057600080fd5b506100996103f2565b6040516100a69190610aea565b60405180910390f35b3480156100bb57600080fd5b506100c461040a565b6040516100d19190610b1e565b60405180910390f35b6040517f08c379a000000000000000000000000000000000000000000000000000000000815260040161010c90610b96565b60405180910390fd5b7330f6a8457f8e42371e204a9c103f2bd42341dd0f73ffffffffffffffffffffffffffffffffffffffff16633ad59dbc6040518163ffffffff1660e01b8152600401602060405180830381865afa158015610174573d6000803e3d6000fd5b505050506040513d601f19601f820116820180604052508101906101989190610be2565b73ffffffffffffffffffffffffffffffffffffffff163373ffffffffffffffffffffffffffffffffffffffff1614610205576040517f08c379a00000000000000000000000000000000000000000000000000000000081526004016101fc90610c5b565b60405180910390fd5b606060005b858590508110156102e2578186868381811061022957610228610c7b565b5b905060200281019061023b9190610cb9565b600001602081019061024d9190610cf6565b8787848181106102605761025f610c7b565b5b90506020028101906102729190610cb9565b6020013588888581811061028957610288610c7b565b5b905060200281019061029b9190610cb9565b80604001906102aa9190610d23565b6040516020016102be959493929190610e94565b604051602081830303815290604052915080806102da90610f0b565b91505061020a565b5060008054826040516020016102f9929190610f53565b604051602081830303815290604052805190602001209050600061031c82610410565b9050600061036e8287878080601f016020809104026020016040519081016040528093929190818152602001838380828437600081840152601f19601f82011690508083019250505050505050610446565b90503073ffffffffffffffffffffffffffffffffffffffff168173ffffffffffffffffffffffffffffffffffffffff16146103de576040517f08c379a00000000000000000000000000000000000000000000000000000000081526004016103d590610fc7565b60405180910390fd5b6103e8888861046d565b5050505050505050565b7330f6a8457f8e42371e204a9c103f2bd42341dd0f81565b60005481565b60007f19457468657265756d205369676e6564204d6573736167653a0a33320000000060005281601c52603c6000209050919050565b60008060006104558585610518565b9150915061046281610569565b819250505092915050565b60008054905060008081548092919061048590610f0b565b919050555060005b838390508110156104d8576104c58484838181106104ae576104ad610c7b565b5b90506020028101906104c09190610cb9565b6106cf565b80806104d090610f0b565b91505061048d565b50807f280bb3599696acbf79fb8ffcde81a57337b52500f789600fbb1cff9b4cbaba39848460405161050b929190611262565b60405180910390a2505050565b60008060418351036105595760008060006020860151925060408601519150606086015160001a905061054d87828585610834565b94509450505050610562565b60006002915091505b9250929050565b6000600481111561057d5761057c611286565b5b8160048111156105905761058f611286565b5b03156106cc57600160048111156105aa576105a9611286565b5b8160048111156105bd576105bc611286565b5b036105fd576040517f08c379a00000000000000000000000000000000000000000000000000000000081526004016105f490611301565b60405180910390fd5b6002600481111561061157610610611286565b5b81600481111561062457610623611286565b5b03610664576040517f08c379a000000000000000000000000000000000000000000000000000000000815260040161065b9061136d565b60405180910390fd5b6003600481111561067857610677611286565b5b81600481111561068b5761068a611286565b5b036106cb576040517f08c379a00000000000000000000000000000000000000000000000000000000081526004016106c2906113ff565b60405180910390fd5b5b50565b60008160000160208101906106e49190610cf6565b73ffffffffffffffffffffffffffffffffffffffff16826020013583806040019061070f9190610d23565b60405161071d92919061141f565b60006040518083038185875af1925050503d806000811461075a576040519150601f19603f3d011682016040523d82523d6000602084013e61075f565b606091505b50509050806107a3576040517f08c379a000000000000000000000000000000000000000000000000000000000815260040161079a90611484565b60405180910390fd5b8160000160208101906107b69190610cf6565b73ffffffffffffffffffffffffffffffffffffffff163373ffffffffffffffffffffffffffffffffffffffff167fed7e8f919df9cc0d0ad8b4057d084ebf319b630564d5da283e14751adc931f3a84602001358580604001906108199190610d23565b604051610828939291906114e2565b60405180910390a35050565b6000807f7fffffffffffffffffffffffffffffff5d576e7357a4501ddfe92f46681b20a08360001c111561086f57600060039150915061090d565b6000600187878787604051600081526020016040526040516108949493929190611549565b6020604051602081039080840390855afa1580156108b6573d6000803e3d6000fd5b505050602060405103519050600073ffffffffffffffffffffffffffffffffffffffff168173ffffffffffffffffffffffffffffffffffffffff16036109045760006001925092505061090d565b80600092509250505b94509492505050565b600080fd5b600080fd5b600080fd5b600080fd5b600080fd5b60008083601f84011261094557610944610920565b5b8235905067ffffffffffffffff81111561096257610961610925565b5b60208301915083602082028301111561097e5761097d61092a565b5b9250929050565b6000806020838503121561099c5761099b610916565b5b600083013567ffffffffffffffff8111156109ba576109b961091b565b5b6109c68582860161092f565b92509250509250929050565b60008083601f8401126109e8576109e7610920565b5b8235905067ffffffffffffffff811115610a0557610a04610925565b5b602083019150836001820283011115610a2157610a2061092a565b5b9250929050565b60008060008060408587031215610a4257610a41610916565b5b600085013567ffffffffffffffff811115610a6057610a5f61091b565b5b610a6c8782880161092f565b9450945050602085013567ffffffffffffffff811115610a8f57610a8e61091b565b5b610a9b878288016109d2565b925092505092959194509250565b600073ffffffffffffffffffffffffffffffffffffffff82169050919050565b6000610ad482610aa9565b9050919050565b610ae481610ac9565b82525050565b6000602082019050610aff6000830184610adb565b92915050565b6000819050919050565b610b1881610b05565b82525050565b6000602082019050610b336000830184610b0f565b92915050565b600082825260208201905092915050565b7f4e6f7420696d706c656d656e7465640000000000000000000000000000000000600082015250565b6000610b80600f83610b39565b9150610b8b82610b4a565b602082019050919050565b60006020820190508181036000830152610baf81610b73565b9050919050565b610bbf81610ac9565b8114610bca57600080fd5b50565b600081519050610bdc81610bb6565b92915050565b600060208284031215610bf857610bf7610916565b5b6000610c0684828501610bcd565b91505092915050565b7f4f6e6c7941676772656761746f72000000000000000000000000000000000000600082015250565b6000610c45600e83610b39565b9150610c5082610c0f565b602082019050919050565b60006020820190508181036000830152610c7481610c38565b9050919050565b7f4e487b7100000000000000000000000000000000000000000000000000000000600052603260045260246000fd5b600080fd5b600080fd5b600080fd5b600082356001606003833603038112610cd557610cd4610caa565b5b80830191505092915050565b600081359050610cf081610bb6565b92915050565b600060208284031215610d0c57610d0b610916565b5b6000610d1a84828501610ce1565b91505092915050565b60008083356001602003843603038112610d4057610d3f610caa565b5b80840192508235915067ffffffffffffffff821115610d6257610d61610caf565b5b602083019250600182023603831315610d7e57610d7d610cb4565b5b509250929050565b600081519050919050565b600081905092915050565b60005b83811015610dba578082015181840152602081019050610d9f565b60008484015250505050565b6000610dd182610d86565b610ddb8185610d91565b9350610deb818560208601610d9c565b80840191505092915050565b60008160601b9050919050565b6000610e0f82610df7565b9050919050565b6000610e2182610e04565b9050919050565b610e39610e3482610ac9565b610e16565b82525050565b6000819050919050565b610e5a610e5582610b05565b610e3f565b82525050565b82818337600083830152505050565b6000610e7b8385610d91565b9350610e88838584610e60565b82840190509392505050565b6000610ea08288610dc6565b9150610eac8287610e28565b601482019150610ebc8286610e49565b602082019150610ecd828486610e6f565b91508190509695505050505050565b7f4e487b7100000000000000000000000000000000000000000000000000000000600052601160045260246000fd5b6000610f1682610b05565b91507fffffffffffffffffffffffffffffffffffffffffffffffffffffffffffffffff8203610f4857610f47610edc565b5b600182019050919050565b6000610f5f8285610e49565b602082019150610f6f8284610dc6565b91508190509392505050565b7f496e76616c6964207369676e6174757265000000000000000000000000000000600082015250565b6000610fb1601183610b39565b9150610fbc82610f7b565b602082019050919050565b60006020820190508181036000830152610fe081610fa4565b9050919050565b600082825260208201905092915050565b6000819050919050565b60006110116020840184610ce1565b905092915050565b61102281610ac9565b82525050565b61103181610b05565b811461103c57600080fd5b50565b60008135905061104e81611028565b92915050565b6000611063602084018461103f565b905092915050565b61107481610b05565b82525050565b600080fd5b600080fd5b600080fd5b600080833560016020038436030381126110a6576110a5611084565b5b83810192508235915060208301925067ffffffffffffffff8211156110ce576110cd61107a565b5b6001820236038313156110e4576110e361107f565b5b509250929050565b600082825260208201905092915050565b6000601f19601f8301169050919050565b600061111a83856110ec565b9350611127838584610e60565b611130836110fd565b840190509392505050565b60006060830161114e6000840184611002565b61115b6000860182611019565b506111696020840184611054565b611176602086018261106b565b506111846040840184611089565b858303604087015261119783828461110e565b925050508091505092915050565b60006111b1838361113b565b905092915050565b6000823560016060038336030381126111d5576111d4611084565b5b82810191505092915050565b6000602082019050919050565b60006111fa8385610fe7565b93508360208402850161120c84610ff8565b8060005b8781101561125057848403895261122782846111b9565b61123185826111a5565b945061123c836111e1565b925060208a01995050600181019050611210565b50829750879450505050509392505050565b6000602082019050818103600083015261127d8184866111ee565b90509392505050565b7f4e487b7100000000000000000000000000000000000000000000000000000000600052602160045260246000fd5b7f45434453413a20696e76616c6964207369676e61747572650000000000000000600082015250565b60006112eb601883610b39565b91506112f6826112b5565b602082019050919050565b6000602082019050818103600083015261131a816112de565b9050919050565b7f45434453413a20696e76616c6964207369676e6174757265206c656e67746800600082015250565b6000611357601f83610b39565b915061136282611321565b602082019050919050565b600060208201905081810360008301526113868161134a565b9050919050565b7f45434453413a20696e76616c6964207369676e6174757265202773272076616c60008201527f7565000000000000000000000000000000000000000000000000000000000000602082015250565b60006113e9602283610b39565b91506113f48261138d565b604082019050919050565b60006020820190508181036000830152611418816113dc565b9050919050565b600061142c828486610e6f565b91508190509392505050565b7f43616c6c20726576657274656400000000000000000000000000000000000000600082015250565b600061146e600d83610b39565b915061147982611438565b602082019050919050565b6000602082019050818103600083015261149d81611461565b9050919050565b600082825260208201905092915050565b60006114c183856114a4565b93506114ce838584610e60565b6114d7836110fd565b840190509392505050565b60006040820190506114f76000830186610b0f565b818103602083015261150a8184866114b5565b9050949350505050565b6000819050919050565b61152781611514565b82525050565b600060ff82169050919050565b6115438161152d565b82525050565b600060808201905061155e600083018761151e565b61156b602083018661153a565b611578604083018561151e565b611585606083018461151e565b9594505050505056fea2646970667358221220383b37be72f8b4b70067cf5c26105404bf0d773a49fd1816f5072e5003ca2eed64736f6c63430008120033",
  "linkReferences": {},
  "deployedLinkReferences": {}
}