{
  "contractName": "GatewaySettingManager",
  "abi": [
    {
      "anonymous": false,
      "inputs": [
        {
          "indexed": false,
          "internalType": "uint8",
          "name": "version",
          "type": "uint8"
        }
      ],
      "name": "Initialized",
      "type": "event"
    },
    {
      "anonymous": false,
      "inputs": [
        {
          "indexed": true,
          "internalType": "address",
          "name": "previousOwner",
          "type": "address"
        },
        {
          "indexed": true,
          "internalType": "address",
          "name": "newOwner",
          "type": "address"
        }
      ],
      "name": "OwnershipTransferStarted",
      "type": "event"
    },
    {
      "anonymous": false,
      "inputs": [
        {
          "indexed": true,
          "internalType": "address",
          "name": "previousOwner",
          "type": "address"
        },
        {
          "indexed": true,
          "internalType": "address",
          "name": "newOwner",
          "type": "address"
        }
      ],
      "name": "OwnershipTransferred",
      "type": "event"
    },
    {
      "anonymous": false,
      "inputs": [
        {
          "indexed": true,
          "internalType": "bytes32",
          "name": "what",
          "type": "bytes32"
        },
        {
          "indexed": true,
          "internalType": "address",
          "name": "treasuryAddress",
          "type": "address"
        }
      ],
      "name": "ProtocolAddressUpdated",
      "type": "event"
    },
    {
      "anonymous": false,
      "inputs": [
        {
          "indexed": false,
          "internalType": "uint64",
          "name": "protocolFee",
          "type": "uint64"
        }
      ],
      "name": "ProtocolFeeUpdated",
      "type": "event"
    },
    {
      "anonymous": false,
      "inputs": [
        {
          "indexed": true,
          "internalType": "address",
          "name": "treasuryAddress",
          "type": "address"
        }
      ],
      "name": "SetFeeRecipient",
      "type": "event"
    },
    {
      "anonymous": false,
      "inputs": [
        {
          "indexed": true,
          "internalType": "bytes32",
          "name": "what",
          "type": "bytes32"
        },
        {
          "indexed": true,
          "internalType": "address",
          "name": "value",
          "type": "address"
        },
        {
          "indexed": false,
          "internalType": "uint256",
          "name": "status",
          "type": "uint256"
        }
      ],
      "name": "SettingManagerBool",
      "type": "event"
    },
    {
      "inputs": [],
      "name": "acceptOwnership",
      "outputs": [],
      "stateMutability": "nonpayable",
      "type": "function"
    },
    {
      "inputs": [],
      "name": "owner",
      "outputs": [
        {
          "internalType": "address",
          "name": "",
          "type": "address"
        }
      ],
      "stateMutability": "view",
      "type": "function"
    },
    {
      "inputs": [],
      "name": "pendingOwner",
      "outputs": [
        {
          "internalType": "address",
          "name": "",
          "type": "address"
        }
      ],
      "stateMutability": "view",
      "type": "function"
    },
    {
      "inputs": [],
      "name": "renounceOwnership",
      "outputs": [],
      "stateMutability": "nonpayable",
      "type": "function"
    },
    {
      "inputs": [
        {
          "internalType": "bytes32",
          "name": "what",
          "type": "bytes32"
        },
        {
          "internalType": "address",
          "name": "value",
          "type": "address"
        },
        {
          "internalType": "uint256",
          "name": "status",
          "type": "uint256"
        }
      ],
      "name": "settingManagerBool",
      "outputs": [],
      "stateMutability": "nonpayable",
      "type": "function"
    },
    {
      "inputs": [
        {
          "internalType": "address",
          "name": "newOwner",
          "type": "address"
        }
      ],
      "name": "transferOwnership",
      "outputs": [],
      "stateMutability": "nonpayable",
      "type": "function"
    },
    {
      "inputs": [
        {
          "internalType": "bytes32",
          "name": "what",
          "type": "bytes32"
        },
        {
          "internalType": "address",
          "name": "value",
          "type": "address"
        }
      ],
      "name": "updateProtocolAddress",
      "outputs": [],
      "stateMutability": "nonpayable",
      "type": "function"
    },
    {
      "inputs": [
        {
          "internalType": "uint64",
          "name": "_protocolFeePercent",
          "type": "uint64"
        }
      ],
      "name": "updateProtocolFee",
      "outputs": [],
      "stateMutability": "nonpayable",
      "type": "function"
    }
  ],
  "bytecode": "0x608060405234801561001057600080fd5b50d3801561001d57600080fd5b50d2801561002a57600080fd5b50610f258061003a6000396000f3fe608060405234801561001057600080fd5b50d3801561001d57600080fd5b50d2801561002a57600080fd5b50600436106100a25760003560e01c80638da5cb5b116100755780638da5cb5b146100f3578063cd99240014610111578063e30c39781461012d578063f2fde38b1461014b576100a2565b806340ebc677146100a757806347094e2e146100c3578063715018a6146100df57806379ba5097146100e9575b600080fd5b6100c160048036038101906100bc9190610a03565b610167565b005b6100dd60048036038101906100d89190610a83565b61042f565b005b6100e761049a565b005b6100f16104ae565b005b6100fb61053b565b6040516101089190610abf565b60405180910390f35b61012b60048036038101906101269190610b10565b610565565b005b6101356106ea565b6040516101429190610abf565b60405180910390f35b61016560048036038101906101609190610b63565b610714565b005b61016f6107c1565b600073ffffffffffffffffffffffffffffffffffffffff168173ffffffffffffffffffffffffffffffffffffffff16036101de576040517f08c379a00000000000000000000000000000000000000000000000000000000081526004016101d590610bed565b60405180910390fd5b60007f747265617375727900000000000000000000000000000000000000000000000083036102e1578173ffffffffffffffffffffffffffffffffffffffff16609860089054906101000a900473ffffffffffffffffffffffffffffffffffffffff1673ffffffffffffffffffffffffffffffffffffffff1603610297576040517f08c379a000000000000000000000000000000000000000000000000000000000815260040161028e90610c7f565b60405180910390fd5b81609860086101000a81548173ffffffffffffffffffffffffffffffffffffffff021916908373ffffffffffffffffffffffffffffffffffffffff160217905550600190506103df565b7f61676772656761746f720000000000000000000000000000000000000000000083036103de578173ffffffffffffffffffffffffffffffffffffffff16609960009054906101000a900473ffffffffffffffffffffffffffffffffffffffff1673ffffffffffffffffffffffffffffffffffffffff1603610398576040517f08c379a000000000000000000000000000000000000000000000000000000000815260040161038f90610d11565b60405180910390fd5b81609960006101000a81548173ffffffffffffffffffffffffffffffffffffffff021916908373ffffffffffffffffffffffffffffffffffffffff160217905550600190505b5b801561042a578173ffffffffffffffffffffffffffffffffffffffff16837fbbc5b96e57cfecb3dbeeadf92e87f15e58e64fcd75cbe256dcc5d9ef2e51e8a460405160405180910390a35b505050565b6104376107c1565b80609860006101000a81548167ffffffffffffffff021916908367ffffffffffffffff1602179055507f1ce29a697a4765bd17d91df93ba75b250b629ecf030553ff1f6ab59f15ae6c7b8160405161048f9190610d40565b60405180910390a150565b6104a26107c1565b6104ac600061083f565b565b60006104b8610870565b90508073ffffffffffffffffffffffffffffffffffffffff166104d96106ea565b73ffffffffffffffffffffffffffffffffffffffff161461052f576040517f08c379a000000000000000000000000000000000000000000000000000000000815260040161052690610dcd565b60405180910390fd5b6105388161083f565b50565b6000603360009054906101000a900473ffffffffffffffffffffffffffffffffffffffff16905090565b61056d6107c1565b600073ffffffffffffffffffffffffffffffffffffffff168273ffffffffffffffffffffffffffffffffffffffff16036105dc576040517f08c379a00000000000000000000000000000000000000000000000000000000081526004016105d390610bed565b60405180910390fd5b60018114806105eb5750600281145b61062a576040517f08c379a000000000000000000000000000000000000000000000000000000000815260040161062190610e39565b60405180910390fd5b7f746f6b656e00000000000000000000000000000000000000000000000000000083036106e55780609a60008473ffffffffffffffffffffffffffffffffffffffff1673ffffffffffffffffffffffffffffffffffffffff168152602001908152602001600020819055508173ffffffffffffffffffffffffffffffffffffffff16837fcfa976492af7c14a916cc3a239f4c9c75bbd7f5f0e398beb41d892c7eeccae4c836040516106dc9190610e68565b60405180910390a35b505050565b6000606560009054906101000a900473ffffffffffffffffffffffffffffffffffffffff16905090565b61071c6107c1565b80606560006101000a81548173ffffffffffffffffffffffffffffffffffffffff021916908373ffffffffffffffffffffffffffffffffffffffff1602179055508073ffffffffffffffffffffffffffffffffffffffff1661077c61053b565b73ffffffffffffffffffffffffffffffffffffffff167f38d16b8cac22d99fc7c124b9cd0de2d3fa1faef420bfe791d8c362d765e2270060405160405180910390a350565b6107c9610870565b73ffffffffffffffffffffffffffffffffffffffff166107e761053b565b73ffffffffffffffffffffffffffffffffffffffff161461083d576040517f08c379a000000000000000000000000000000000000000000000000000000000815260040161083490610ecf565b60405180910390fd5b565b606560006101000a81549073ffffffffffffffffffffffffffffffffffffffff021916905561086d81610878565b50565b600033905090565b6000603360009054906101000a900473ffffffffffffffffffffffffffffffffffffffff16905081603360006101000a81548173ffffffffffffffffffffffffffffffffffffffff021916908373ffffffffffffffffffffffffffffffffffffffff1602179055508173ffffffffffffffffffffffffffffffffffffffff168173ffffffffffffffffffffffffffffffffffffffff167f8be0079c531659141344cd1fd0a4f28419497f9722a3daafe3b4186f6b6457e060405160405180910390a35050565b600080fd5b6000819050919050565b61095681610943565b811461096157600080fd5b50565b6000813590506109738161094d565b92915050565b600074ffffffffffffffffffffffffffffffffffffffffff82169050919050565b6109a381610979565b81146109ae57600080fd5b50565b600073ffffffffffffffffffffffffffffffffffffffff82169050919050565b60006109dc826109b1565b9050919050565b6000813590506109f28161099a565b6109fb816109d1565b905092915050565b60008060408385031215610a1a57610a1961093e565b5b6000610a2885828601610964565b9250506020610a39858286016109e3565b9150509250929050565b600067ffffffffffffffff82169050919050565b610a6081610a43565b8114610a6b57600080fd5b50565b600081359050610a7d81610a57565b92915050565b600060208284031215610a9957610a9861093e565b5b6000610aa784828501610a6e565b91505092915050565b610ab9816109d1565b82525050565b6000602082019050610ad46000830184610ab0565b92915050565b6000819050919050565b610aed81610ada565b8114610af857600080fd5b50565b600081359050610b0a81610ae4565b92915050565b600080600060608486031215610b2957610b2861093e565b5b6000610b3786828701610964565b9350506020610b48868287016109e3565b9250506040610b5986828701610afb565b9150509250925092565b600060208284031215610b7957610b7861093e565b5b6000610b87848285016109e3565b91505092915050565b600082825260208201905092915050565b7f476174657761793a207a65726f20616464726573730000000000000000000000600082015250565b6000610bd7601583610b90565b9150610be282610ba1565b602082019050919050565b60006020820190508181036000830152610c0681610bca565b9050919050565b7f476174657761793a207472656173757279206164647265737320616c7265616460008201527f7920736574000000000000000000000000000000000000000000000000000000602082015250565b6000610c69602583610b90565b9150610c7482610c0d565b604082019050919050565b60006020820190508181036000830152610c9881610c5c565b9050919050565b7f476174657761793a2061676772656761746f72206164647265737320616c726560008201527f6164792073657400000000000000000000000000000000000000000000000000602082015250565b6000610cfb602783610b90565b9150610d0682610c9f565b604082019050919050565b60006020820190508181036000830152610d2a81610cee565b9050919050565b610d3a81610a43565b82525050565b6000602082019050610d556000830184610d31565b92915050565b7f4f776e61626c6532537465703a2063616c6c6572206973206e6f74207468652060008201527f6e6577206f776e65720000000000000000000000000000000000000000000000602082015250565b6000610db7602983610b90565b9150610dc282610d5b565b604082019050919050565b60006020820190508181036000830152610de681610daa565b9050919050565b7f476174657761793a20696e76616c696420737461747573000000000000000000600082015250565b6000610e23601783610b90565b9150610e2e82610ded565b602082019050919050565b60006020820190508181036000830152610e5281610e16565b9050919050565b610e6281610ada565b82525050565b6000602082019050610e7d6000830184610e59565b92915050565b7f4f776e61626c653a2063616c6c6572206973206e6f7420746865206f776e6572600082015250565b6000610eb9602083610b90565b9150610ec482610e83565b602082019050919050565b60006020820190508181036000830152610ee881610eac565b905091905056fea26474726f6e5822122084585c73b69ab002121d8f9d4e059d774f68857675dcea5e9a31e9954eff8ac964736f6c63430008120033",
  "source": "// SPDX-License-Identifier: UNLICENSED\n\n/**\n * @title GatewaySettingManager\n * @dev This contract manages the settings and configurations for the Gateway protocol.\n */\npragma solidity ^0.8.18;\n\nimport '@openzeppelin/contracts-upgradeable/access/Ownable2StepUpgradeable.sol';\n\ncontract GatewaySettingManager is Ownable2StepUpgradeable {\n\tuint256 internal MAX_BPS;\n\tuint64 internal protocolFeePercent;\n\taddress internal treasuryAddress;\n\taddress internal _aggregatorAddress;\n\tmapping(address => uint256) internal _isTokenSupported;\n\n\t// this should decrease if more slots are needed on this contract to avoid collisions with base contract\n\tuint256[50] private __gap;\n\n\n\tevent SettingManagerBool(bytes32 indexed what, address indexed value, uint256 status);\n\tevent ProtocolFeeUpdated(uint64 protocolFee);\n\tevent ProtocolAddressUpdated(bytes32 indexed what, address indexed treasuryAddress);\n\tevent SetFeeRecipient(address indexed treasuryAddress);\n\n\t/* ##################################################################\n                                OWNER FUNCTIONS\n    ################################################################## */\n\n\t/**\n\t * @dev Sets the boolean value for a specific setting.\n\t * @param what The setting to be updated.\n\t * @param value The address or value associated with the setting.\n\t * @param status The boolean value to be set.\n\t * Requirements:\n\t * - The value must not be a zero address.\n\t */\n\tfunction settingManagerBool(bytes32 what, address value, uint256 status) external onlyOwner {\n\t\trequire(value != address(0), 'Gateway: zero address');\n\t\trequire(status == 1 || status == 2, 'Gateway: invalid status');\n\t\tif (what == 'token') {\n\t\t\t_isTokenSupported[value] = status;\n\t\t\temit SettingManagerBool(what, value, status);\n\t\t}\n\t}\n\n\t/**\n\t * @dev Updates the protocol fee percentage.\n\t * @param _protocolFeePercent The new protocol fee percentage to be set.\n\t */\n\tfunction updateProtocolFee(uint64 _protocolFeePercent) external onlyOwner {\n\t\tprotocolFeePercent = _protocolFeePercent;\n\t\temit ProtocolFeeUpdated(_protocolFeePercent);\n\t}\n\n\t/**\n\t * @dev Updates a protocol address.\n\t * @param what The address type to be updated (treasury or aggregator).\n\t * @param value The new address to be set.\n\t * Requirements:\n\t * - The value must not be a zero address.\n\t */\n\tfunction updateProtocolAddress(bytes32 what, address value) external onlyOwner {\n\t\trequire(value != address(0), 'Gateway: zero address');\n\t\tbool updated;\n\t\tif (what == 'treasury') {\n\t\t\trequire(treasuryAddress != value, 'Gateway: treasury address already set');\n\t\t\ttreasuryAddress = value;\n\t\t\tupdated = true;\n\t\t} else if (what == 'aggregator') {\n\t\t\trequire(_aggregatorAddress != value, 'Gateway: aggregator address already set');\n\t\t\t_aggregatorAddress = value;\n\t\t\tupdated = true;\n\t\t}\n\t\tif (updated) {\n\t\t\temit ProtocolAddressUpdated(what, value);\n\t\t}\n\t}\n}\n",
  "sourcePath": "/Users/encryption/Downloads/projects/paycrest/paycrestContract/contracts/GatewaySettingManager.sol",
  "compiler": {
    "name": "solc",
    "version": "0.8.18+commit.f18bedfe.Emscripten.clang"
  },
  "schemaVersion": "2.0.1",
  "updatedAt": "2024-07-04T18:51:17.136Z"
}