{
  "contractName": "GatewaySettingManager",
  "abi": [
    {
      "anonymous": false,
      "inputs": [
        {
          "indexed": false,
          "internalType": "uint8",
          "name": "version",
          "type": "uint8"
        }
      ],
      "name": "Initialized",
      "type": "event"
    },
    {
      "anonymous": false,
      "inputs": [
        {
          "indexed": true,
          "internalType": "address",
          "name": "previousOwner",
          "type": "address"
        },
        {
          "indexed": true,
          "internalType": "address",
          "name": "newOwner",
          "type": "address"
        }
      ],
      "name": "OwnershipTransferStarted",
      "type": "event"
    },
    {
      "anonymous": false,
      "inputs": [
        {
          "indexed": true,
          "internalType": "address",
          "name": "previousOwner",
          "type": "address"
        },
        {
          "indexed": true,
          "internalType": "address",
          "name": "newOwner",
          "type": "address"
        }
      ],
      "name": "OwnershipTransferred",
      "type": "event"
    },
    {
      "anonymous": false,
      "inputs": [
        {
          "indexed": true,
          "internalType": "bytes32",
          "name": "what",
          "type": "bytes32"
        },
        {
          "indexed": true,
          "internalType": "address",
          "name": "treasuryAddress",
          "type": "address"
        }
      ],
      "name": "ProtocolAddressUpdated",
      "type": "event"
    },
    {
      "anonymous": false,
      "inputs": [
        {
          "indexed": false,
          "internalType": "uint64",
          "name": "protocolFee",
          "type": "uint64"
        }
      ],
      "name": "ProtocolFeeUpdated",
      "type": "event"
    },
    {
      "anonymous": false,
      "inputs": [
        {
          "indexed": true,
          "internalType": "address",
          "name": "treasuryAddress",
          "type": "address"
        }
      ],
      "name": "SetFeeRecipient",
      "type": "event"
    },
    {
      "anonymous": false,
      "inputs": [
        {
          "indexed": true,
          "internalType": "bytes32",
          "name": "what",
          "type": "bytes32"
        },
        {
          "indexed": true,
          "internalType": "address",
          "name": "value",
          "type": "address"
        },
        {
          "indexed": false,
          "internalType": "uint256",
          "name": "status",
          "type": "uint256"
        }
      ],
      "name": "SettingManagerBool",
      "type": "event"
    },
    {
      "anonymous": false,
      "inputs": [
        {
          "indexed": true,
          "internalType": "bytes32",
          "name": "currency",
          "type": "bytes32"
        },
        {
          "components": [
            {
              "internalType": "bytes32",
              "name": "code",
              "type": "bytes32"
            },
            {
              "internalType": "bytes32",
              "name": "name",
              "type": "bytes32"
            }
          ],
          "indexed": false,
          "internalType": "struct SharedStructs.Institution[]",
          "name": "institutions",
          "type": "tuple[]"
        }
      ],
      "name": "SupportedInstitutionsUpdated",
      "type": "event"
    },
    {
      "inputs": [],
      "name": "acceptOwnership",
      "outputs": [],
      "stateMutability": "nonpayable",
      "type": "function"
    },
    {
      "inputs": [],
      "name": "owner",
      "outputs": [
        {
          "internalType": "address",
          "name": "",
          "type": "address"
        }
      ],
      "stateMutability": "view",
      "type": "function"
    },
    {
      "inputs": [],
      "name": "pendingOwner",
      "outputs": [
        {
          "internalType": "address",
          "name": "",
          "type": "address"
        }
      ],
      "stateMutability": "view",
      "type": "function"
    },
    {
      "inputs": [],
      "name": "renounceOwnership",
      "outputs": [],
      "stateMutability": "nonpayable",
      "type": "function"
    },
    {
      "inputs": [
        {
          "internalType": "bytes32",
          "name": "currency",
          "type": "bytes32"
        },
        {
          "components": [
            {
              "internalType": "bytes32",
              "name": "code",
              "type": "bytes32"
            },
            {
              "internalType": "bytes32",
              "name": "name",
              "type": "bytes32"
            }
          ],
          "internalType": "struct SharedStructs.Institution[]",
          "name": "institutions",
          "type": "tuple[]"
        }
      ],
      "name": "setSupportedInstitutions",
      "outputs": [],
      "stateMutability": "nonpayable",
      "type": "function"
    },
    {
      "inputs": [
        {
          "internalType": "bytes32",
          "name": "what",
          "type": "bytes32"
        },
        {
          "internalType": "address",
          "name": "value",
          "type": "address"
        },
        {
          "internalType": "uint256",
          "name": "status",
          "type": "uint256"
        }
      ],
      "name": "settingManagerBool",
      "outputs": [],
      "stateMutability": "nonpayable",
      "type": "function"
    },
    {
      "inputs": [
        {
          "internalType": "address",
          "name": "newOwner",
          "type": "address"
        }
      ],
      "name": "transferOwnership",
      "outputs": [],
      "stateMutability": "nonpayable",
      "type": "function"
    },
    {
      "inputs": [
        {
          "internalType": "bytes32",
          "name": "what",
          "type": "bytes32"
        },
        {
          "internalType": "address",
          "name": "value",
          "type": "address"
        }
      ],
      "name": "updateProtocolAddress",
      "outputs": [],
      "stateMutability": "nonpayable",
      "type": "function"
    },
    {
      "inputs": [
        {
          "internalType": "uint64",
          "name": "_protocolFeePercent",
          "type": "uint64"
        }
      ],
      "name": "updateProtocolFee",
      "outputs": [],
      "stateMutability": "nonpayable",
      "type": "function"
    }
  ],
  "bytecode": "0x608060405234801561001057600080fd5b50d3801561001d57600080fd5b50d2801561002a57600080fd5b506114b08061003a6000396000f3fe608060405234801561001057600080fd5b50d3801561001d57600080fd5b50d2801561002a57600080fd5b50600436106100ad5760003560e01c806379ba50971161008057806379ba5097146101105780638da5cb5b1461011a578063cd99240014610138578063e30c397814610154578063f2fde38b14610172576100ad565b806332200882146100b257806340ebc677146100ce57806347094e2e146100ea578063715018a614610106575b600080fd5b6100cc60048036038101906100c79190610d1d565b61018e565b005b6100e860048036038101906100e39190610e03565b610303565b005b61010460048036038101906100ff9190610e83565b6105cb565b005b61010e610636565b005b61011861064a565b005b6101226106d7565b60405161012f9190610ebf565b60405180910390f35b610152600480360381019061014d9190610f10565b610701565b005b61015c610886565b6040516101699190610ebf565b60405180910390f35b61018c60048036038101906101879190610f63565b6108b0565b005b61019661095d565b60cd600083815260200190815260200160002060006101b59190610ada565b60005b81518110156102b45760cd60008481526020019081526020016000208282815181106101e7576101e6610f90565b5b6020026020010151908060018154018082558091505060019003906000526020600020906002020160009091909190915060008201518160000155602082015181600101555050604051806040016040528083838151811061024c5761024b610f90565b5b60200260200101516020015181526020018481525060ce600084848151811061027857610277610f90565b5b602002602001015160000151815260200190815260200160002060008201518160000155602082015181600101559050508060010190506101b8565b50817f58f3a30ec15a8d3e09fa65f9ef10219bc7a9a99d872a4ed895c37c2e761ac2ac60cd60008581526020019081526020016000206040516102f791906110f9565b60405180910390a25050565b61030b61095d565b600073ffffffffffffffffffffffffffffffffffffffff168173ffffffffffffffffffffffffffffffffffffffff160361037a576040517f08c379a000000000000000000000000000000000000000000000000000000000815260040161037190611178565b60405180910390fd5b60007f7472656173757279000000000000000000000000000000000000000000000000830361047d578173ffffffffffffffffffffffffffffffffffffffff16609860089054906101000a900473ffffffffffffffffffffffffffffffffffffffff1673ffffffffffffffffffffffffffffffffffffffff1603610433576040517f08c379a000000000000000000000000000000000000000000000000000000000815260040161042a9061120a565b60405180910390fd5b81609860086101000a81548173ffffffffffffffffffffffffffffffffffffffff021916908373ffffffffffffffffffffffffffffffffffffffff1602179055506001905061057b565b7f61676772656761746f7200000000000000000000000000000000000000000000830361057a578173ffffffffffffffffffffffffffffffffffffffff16609960009054906101000a900473ffffffffffffffffffffffffffffffffffffffff1673ffffffffffffffffffffffffffffffffffffffff1603610534576040517f08c379a000000000000000000000000000000000000000000000000000000000815260040161052b9061129c565b60405180910390fd5b81609960006101000a81548173ffffffffffffffffffffffffffffffffffffffff021916908373ffffffffffffffffffffffffffffffffffffffff160217905550600190505b5b80156105c6578173ffffffffffffffffffffffffffffffffffffffff16837fbbc5b96e57cfecb3dbeeadf92e87f15e58e64fcd75cbe256dcc5d9ef2e51e8a460405160405180910390a35b505050565b6105d361095d565b80609860006101000a81548167ffffffffffffffff021916908367ffffffffffffffff1602179055507f1ce29a697a4765bd17d91df93ba75b250b629ecf030553ff1f6ab59f15ae6c7b8160405161062b91906112cb565b60405180910390a150565b61063e61095d565b61064860006109db565b565b6000610654610a0c565b90508073ffffffffffffffffffffffffffffffffffffffff16610675610886565b73ffffffffffffffffffffffffffffffffffffffff16146106cb576040517f08c379a00000000000000000000000000000000000000000000000000000000081526004016106c290611358565b60405180910390fd5b6106d4816109db565b50565b6000603360009054906101000a900473ffffffffffffffffffffffffffffffffffffffff16905090565b61070961095d565b600073ffffffffffffffffffffffffffffffffffffffff168273ffffffffffffffffffffffffffffffffffffffff1603610778576040517f08c379a000000000000000000000000000000000000000000000000000000000815260040161076f90611178565b60405180910390fd5b60018114806107875750600281145b6107c6576040517f08c379a00000000000000000000000000000000000000000000000000000000081526004016107bd906113c4565b60405180910390fd5b7f746f6b656e0000000000000000000000000000000000000000000000000000008303610881578060cc60008473ffffffffffffffffffffffffffffffffffffffff1673ffffffffffffffffffffffffffffffffffffffff168152602001908152602001600020819055508173ffffffffffffffffffffffffffffffffffffffff16837fcfa976492af7c14a916cc3a239f4c9c75bbd7f5f0e398beb41d892c7eeccae4c8360405161087891906113f3565b60405180910390a35b505050565b6000606560009054906101000a900473ffffffffffffffffffffffffffffffffffffffff16905090565b6108b861095d565b80606560006101000a81548173ffffffffffffffffffffffffffffffffffffffff021916908373ffffffffffffffffffffffffffffffffffffffff1602179055508073ffffffffffffffffffffffffffffffffffffffff166109186106d7565b73ffffffffffffffffffffffffffffffffffffffff167f38d16b8cac22d99fc7c124b9cd0de2d3fa1faef420bfe791d8c362d765e2270060405160405180910390a350565b610965610a0c565b73ffffffffffffffffffffffffffffffffffffffff166109836106d7565b73ffffffffffffffffffffffffffffffffffffffff16146109d9576040517f08c379a00000000000000000000000000000000000000000000000000000000081526004016109d09061145a565b60405180910390fd5b565b606560006101000a81549073ffffffffffffffffffffffffffffffffffffffff0219169055610a0981610a14565b50565b600033905090565b6000603360009054906101000a900473ffffffffffffffffffffffffffffffffffffffff16905081603360006101000a81548173ffffffffffffffffffffffffffffffffffffffff021916908373ffffffffffffffffffffffffffffffffffffffff1602179055508173ffffffffffffffffffffffffffffffffffffffff168173ffffffffffffffffffffffffffffffffffffffff167f8be0079c531659141344cd1fd0a4f28419497f9722a3daafe3b4186f6b6457e060405160405180910390a35050565b5080546000825560020290600052602060002090810190610afb9190610afe565b50565b5b80821115610b2157600080820160009055600182016000905550600201610aff565b5090565b6000604051905090565b600080fd5b600080fd5b6000819050919050565b610b4c81610b39565b8114610b5757600080fd5b50565b600081359050610b6981610b43565b92915050565b600080fd5b6000601f19601f8301169050919050565b7f4e487b7100000000000000000000000000000000000000000000000000000000600052604160045260246000fd5b610bbd82610b74565b810181811067ffffffffffffffff82111715610bdc57610bdb610b85565b5b80604052505050565b6000610bef610b25565b9050610bfb8282610bb4565b919050565b600067ffffffffffffffff821115610c1b57610c1a610b85565b5b602082029050602081019050919050565b600080fd5b600080fd5b600060408284031215610c4c57610c4b610c31565b5b610c566040610be5565b90506000610c6684828501610b5a565b6000830152506020610c7a84828501610b5a565b60208301525092915050565b6000610c99610c9484610c00565b610be5565b90508083825260208201905060408402830185811115610cbc57610cbb610c2c565b5b835b81811015610ce55780610cd18882610c36565b845260208401935050604081019050610cbe565b5050509392505050565b600082601f830112610d0457610d03610b6f565b5b8135610d14848260208601610c86565b91505092915050565b60008060408385031215610d3457610d33610b2f565b5b6000610d4285828601610b5a565b925050602083013567ffffffffffffffff811115610d6357610d62610b34565b5b610d6f85828601610cef565b9150509250929050565b600074ffffffffffffffffffffffffffffffffffffffffff82169050919050565b610da381610d79565b8114610dae57600080fd5b50565b600073ffffffffffffffffffffffffffffffffffffffff82169050919050565b6000610ddc82610db1565b9050919050565b600081359050610df281610d9a565b610dfb81610dd1565b905092915050565b60008060408385031215610e1a57610e19610b2f565b5b6000610e2885828601610b5a565b9250506020610e3985828601610de3565b9150509250929050565b600067ffffffffffffffff82169050919050565b610e6081610e43565b8114610e6b57600080fd5b50565b600081359050610e7d81610e57565b92915050565b600060208284031215610e9957610e98610b2f565b5b6000610ea784828501610e6e565b91505092915050565b610eb981610dd1565b82525050565b6000602082019050610ed46000830184610eb0565b92915050565b6000819050919050565b610eed81610eda565b8114610ef857600080fd5b50565b600081359050610f0a81610ee4565b92915050565b600080600060608486031215610f2957610f28610b2f565b5b6000610f3786828701610b5a565b9350506020610f4886828701610de3565b9250506040610f5986828701610efb565b9150509250925092565b600060208284031215610f7957610f78610b2f565b5b6000610f8784828501610de3565b91505092915050565b7f4e487b7100000000000000000000000000000000000000000000000000000000600052603260045260246000fd5b600081549050919050565b600082825260208201905092915050565b60008190508160005260206000209050919050565b60008160001c9050919050565b6000819050919050565b600061101a61101583610ff0565b610ffd565b9050919050565b61102a81610b39565b82525050565b60408201600080830154905061104581611007565b6110526000860182611021565b506001830154905061106381611007565b6110706020860182611021565b5050505050565b60006110838383611030565b60408301905092915050565b6000600282019050919050565b60006110a782610fbf565b6110b18185610fca565b93506110bc83610fdb565b8060005b838110156110ec57816110d38882611077565b97506110de8361108f565b9250506001810190506110c0565b5085935050505092915050565b60006020820190508181036000830152611113818461109c565b905092915050565b600082825260208201905092915050565b7f476174657761793a207a65726f20616464726573730000000000000000000000600082015250565b600061116260158361111b565b915061116d8261112c565b602082019050919050565b6000602082019050818103600083015261119181611155565b9050919050565b7f476174657761793a207472656173757279206164647265737320616c7265616460008201527f7920736574000000000000000000000000000000000000000000000000000000602082015250565b60006111f460258361111b565b91506111ff82611198565b604082019050919050565b60006020820190508181036000830152611223816111e7565b9050919050565b7f476174657761793a2061676772656761746f72206164647265737320616c726560008201527f6164792073657400000000000000000000000000000000000000000000000000602082015250565b600061128660278361111b565b91506112918261122a565b604082019050919050565b600060208201905081810360008301526112b581611279565b9050919050565b6112c581610e43565b82525050565b60006020820190506112e060008301846112bc565b92915050565b7f4f776e61626c6532537465703a2063616c6c6572206973206e6f74207468652060008201527f6e6577206f776e65720000000000000000000000000000000000000000000000602082015250565b600061134260298361111b565b915061134d826112e6565b604082019050919050565b6000602082019050818103600083015261137181611335565b9050919050565b7f476174657761793a20696e76616c696420737461747573000000000000000000600082015250565b60006113ae60178361111b565b91506113b982611378565b602082019050919050565b600060208201905081810360008301526113dd816113a1565b9050919050565b6113ed81610eda565b82525050565b600060208201905061140860008301846113e4565b92915050565b7f4f776e61626c653a2063616c6c6572206973206e6f7420746865206f776e6572600082015250565b600061144460208361111b565b915061144f8261140e565b602082019050919050565b6000602082019050818103600083015261147381611437565b905091905056fea26474726f6e58221220b2c20deb5c5a24a94c1b567279de82705147a34a41d87940532102d856d4e63764736f6c63430008120033",
  "source": "// SPDX-License-Identifier: UNLICENSED\n\n/**\n * @title GatewaySettingManager\n * @dev This contract manages the settings and configurations for the Gateway protocol.\n */\npragma solidity ^0.8.18;\n\nimport '@openzeppelin/contracts-upgradeable/access/Ownable2StepUpgradeable.sol';\n\nimport {SharedStructs} from './libraries/SharedStructs.sol';\n\ncontract GatewaySettingManager is Ownable2StepUpgradeable {\n\tuint256 internal MAX_BPS;\n\tuint64 internal protocolFeePercent;\n\taddress internal treasuryAddress;\n\taddress internal _aggregatorAddress;\n\n\t// this should decrease if more slots are needed on this contract to avoid collisions with base contract\n\tuint256[50] private __gap;\n\n\tmapping(address => uint256) internal _isTokenSupported;\n\n\tmapping(bytes32 => SharedStructs.Institution[]) internal supportedInstitutions;\n\tmapping(bytes32 => SharedStructs.InstitutionByCode) internal supportedInstitutionsByCode;\n\n\tevent SettingManagerBool(bytes32 indexed what, address indexed value, uint256 status);\n\tevent SupportedInstitutionsUpdated(\n\t\tbytes32 indexed currency,\n\t\tSharedStructs.Institution[] institutions\n\t);\n\tevent ProtocolFeeUpdated(uint64 protocolFee);\n\tevent ProtocolAddressUpdated(bytes32 indexed what, address indexed treasuryAddress);\n\tevent SetFeeRecipient(address indexed treasuryAddress);\n\n\t/* ##################################################################\n                                OWNER FUNCTIONS\n    ################################################################## */\n\n\t/**\n\t * @dev Sets the boolean value for a specific setting.\n\t * @param what The setting to be updated.\n\t * @param value The address or value associated with the setting.\n\t * @param status The boolean value to be set.\n\t * Requirements:\n\t * - The value must not be a zero address.\n\t */\n\tfunction settingManagerBool(bytes32 what, address value, uint256 status) external onlyOwner {\n\t\trequire(value != address(0), 'Gateway: zero address');\n\t\trequire(status == 1 || status == 2, 'Gateway: invalid status');\n\t\tif (what == 'token') {\n\t\t\t_isTokenSupported[value] = status;\n\t\t\temit SettingManagerBool(what, value, status);\n\t\t}\n\t}\n\n\t/**\n\t * @dev Sets the supported institutions for a specific currency.\n\t * @param currency The currency for which the institutions are being set.\n\t * @param institutions The array of institutions to be set.\n\t */\n\tfunction setSupportedInstitutions(\n\t\tbytes32 currency,\n\t\tSharedStructs.Institution[] memory institutions\n\t) external onlyOwner {\n\t\tdelete supportedInstitutions[currency];\n\t\tfor (uint i; i < institutions.length; ) {\n\t\t\tsupportedInstitutions[currency].push(institutions[i]);\n\t\t\tsupportedInstitutionsByCode[institutions[i].code] = SharedStructs.InstitutionByCode({\n\t\t\t\tname: institutions[i].name,\n\t\t\t\tcurrency: currency\n\t\t\t});\n\t\t\tunchecked {\n\t\t\t\t++i;\n\t\t\t}\n\t\t}\n\t\temit SupportedInstitutionsUpdated(currency, supportedInstitutions[currency]);\n\t}\n\n\t/**\n\t * @dev Updates the protocol fee percentage.\n\t * @param _protocolFeePercent The new protocol fee percentage to be set.\n\t */\n\tfunction updateProtocolFee(uint64 _protocolFeePercent) external onlyOwner {\n\t\tprotocolFeePercent = _protocolFeePercent;\n\t\temit ProtocolFeeUpdated(_protocolFeePercent);\n\t}\n\n\t/**\n\t * @dev Updates a protocol address.\n\t * @param what The address type to be updated (treasury or aggregator).\n\t * @param value The new address to be set.\n\t * Requirements:\n\t * - The value must not be a zero address.\n\t */\n\tfunction updateProtocolAddress(bytes32 what, address value) external onlyOwner {\n\t\trequire(value != address(0), 'Gateway: zero address');\n\t\tbool updated;\n\t\tif (what == 'treasury') {\n\t\t\trequire(treasuryAddress != value, 'Gateway: treasury address already set');\n\t\t\ttreasuryAddress = value;\n\t\t\tupdated = true;\n\t\t} else if (what == 'aggregator') {\n\t\t\trequire(_aggregatorAddress != value, 'Gateway: aggregator address already set');\n\t\t\t_aggregatorAddress = value;\n\t\t\tupdated = true;\n\t\t}\n\t\tif (updated) {\n\t\t\temit ProtocolAddressUpdated(what, value);\n\t\t}\n\t}\n}\n",
  "sourcePath": "/Users/encryption/Downloads/projects/paycrest/paycrestContract/contracts/GatewaySettingManager.sol",
  "compiler": {
    "name": "solc",
    "version": "0.8.18+commit.f18bedfe.Emscripten.clang"
  },
  "schemaVersion": "2.0.1",
  "updatedAt": "2024-06-10T18:09:17.295Z"
}