{
  "contractName": "GatewayV2",
  "abi": [
    {
      "inputs": [],
      "stateMutability": "nonpayable",
      "type": "constructor"
    },
    {
      "anonymous": false,
      "inputs": [
        {
          "indexed": false,
          "internalType": "uint8",
          "name": "version",
          "type": "uint8"
        }
      ],
      "name": "Initialized",
      "type": "event"
    },
    {
      "anonymous": false,
      "inputs": [
        {
          "indexed": true,
          "internalType": "address",
          "name": "sender",
          "type": "address"
        },
        {
          "indexed": true,
          "internalType": "address",
          "name": "token",
          "type": "address"
        },
        {
          "indexed": true,
          "internalType": "uint256",
          "name": "amount",
          "type": "uint256"
        },
        {
          "indexed": false,
          "internalType": "uint256",
          "name": "protocolFee",
          "type": "uint256"
        },
        {
          "indexed": false,
          "internalType": "bytes32",
          "name": "orderId",
          "type": "bytes32"
        },
        {
          "indexed": false,
          "internalType": "uint256",
          "name": "rate",
          "type": "uint256"
        },
        {
          "indexed": false,
          "internalType": "bytes32",
          "name": "institutionCode",
          "type": "bytes32"
        },
        {
          "indexed": false,
          "internalType": "string",
          "name": "messageHash",
          "type": "string"
        }
      ],
      "name": "OrderCreated",
      "type": "event"
    },
    {
      "anonymous": false,
      "inputs": [
        {
          "indexed": false,
          "internalType": "uint256",
          "name": "fee",
          "type": "uint256"
        },
        {
          "indexed": true,
          "internalType": "bytes32",
          "name": "orderId",
          "type": "bytes32"
        }
      ],
      "name": "OrderRefunded",
      "type": "event"
    },
    {
      "anonymous": false,
      "inputs": [
        {
          "indexed": false,
          "internalType": "bytes32",
          "name": "splitOrderId",
          "type": "bytes32"
        },
        {
          "indexed": true,
          "internalType": "bytes32",
          "name": "orderId",
          "type": "bytes32"
        },
        {
          "indexed": true,
          "internalType": "address",
          "name": "liquidityProvider",
          "type": "address"
        },
        {
          "indexed": false,
          "internalType": "uint96",
          "name": "settlePercent",
          "type": "uint96"
        }
      ],
      "name": "OrderSettled",
      "type": "event"
    },
    {
      "anonymous": false,
      "inputs": [
        {
          "indexed": true,
          "internalType": "address",
          "name": "previousOwner",
          "type": "address"
        },
        {
          "indexed": true,
          "internalType": "address",
          "name": "newOwner",
          "type": "address"
        }
      ],
      "name": "OwnershipTransferStarted",
      "type": "event"
    },
    {
      "anonymous": false,
      "inputs": [
        {
          "indexed": true,
          "internalType": "address",
          "name": "previousOwner",
          "type": "address"
        },
        {
          "indexed": true,
          "internalType": "address",
          "name": "newOwner",
          "type": "address"
        }
      ],
      "name": "OwnershipTransferred",
      "type": "event"
    },
    {
      "anonymous": false,
      "inputs": [
        {
          "indexed": false,
          "internalType": "address",
          "name": "account",
          "type": "address"
        }
      ],
      "name": "Paused",
      "type": "event"
    },
    {
      "anonymous": false,
      "inputs": [
        {
          "indexed": true,
          "internalType": "bytes32",
          "name": "what",
          "type": "bytes32"
        },
        {
          "indexed": true,
          "internalType": "address",
          "name": "treasuryAddress",
          "type": "address"
        }
      ],
      "name": "ProtocolAddressUpdated",
      "type": "event"
    },
    {
      "anonymous": false,
      "inputs": [
        {
          "indexed": false,
          "internalType": "uint64",
          "name": "protocolFee",
          "type": "uint64"
        }
      ],
      "name": "ProtocolFeeUpdated",
      "type": "event"
    },
    {
      "anonymous": false,
      "inputs": [
        {
          "indexed": true,
          "internalType": "address",
          "name": "sender",
          "type": "address"
        },
        {
          "indexed": true,
          "internalType": "uint256",
          "name": "amount",
          "type": "uint256"
        }
      ],
      "name": "SenderFeeTransferred",
      "type": "event"
    },
    {
      "anonymous": false,
      "inputs": [
        {
          "indexed": true,
          "internalType": "address",
          "name": "treasuryAddress",
          "type": "address"
        }
      ],
      "name": "SetFeeRecipient",
      "type": "event"
    },
    {
      "anonymous": false,
      "inputs": [
        {
          "indexed": true,
          "internalType": "bytes32",
          "name": "what",
          "type": "bytes32"
        },
        {
          "indexed": true,
          "internalType": "address",
          "name": "value",
          "type": "address"
        },
        {
          "indexed": false,
          "internalType": "uint256",
          "name": "status",
          "type": "uint256"
        }
      ],
      "name": "SettingManagerBool",
      "type": "event"
    },
    {
      "anonymous": false,
      "inputs": [
        {
          "indexed": true,
          "internalType": "bytes32",
          "name": "currency",
          "type": "bytes32"
        },
        {
          "components": [
            {
              "internalType": "bytes32",
              "name": "code",
              "type": "bytes32"
            },
            {
              "internalType": "bytes32",
              "name": "name",
              "type": "bytes32"
            }
          ],
          "indexed": false,
          "internalType": "struct SharedStructs.Institution[]",
          "name": "institutions",
          "type": "tuple[]"
        }
      ],
      "name": "SupportedInstitutionsUpdated",
      "type": "event"
    },
    {
      "anonymous": false,
      "inputs": [
        {
          "indexed": false,
          "internalType": "address",
          "name": "account",
          "type": "address"
        }
      ],
      "name": "Unpaused",
      "type": "event"
    },
    {
      "inputs": [],
      "name": "acceptOwnership",
      "outputs": [],
      "stateMutability": "nonpayable",
      "type": "function"
    },
    {
      "inputs": [
        {
          "internalType": "address",
          "name": "_token",
          "type": "address"
        },
        {
          "internalType": "uint256",
          "name": "_amount",
          "type": "uint256"
        },
        {
          "internalType": "bytes32",
          "name": "_institutionCode",
          "type": "bytes32"
        },
        {
          "internalType": "uint96",
          "name": "_rate",
          "type": "uint96"
        },
        {
          "internalType": "address",
          "name": "_senderFeeRecipient",
          "type": "address"
        },
        {
          "internalType": "uint256",
          "name": "_senderFee",
          "type": "uint256"
        },
        {
          "internalType": "address",
          "name": "_refundAddress",
          "type": "address"
        },
        {
          "internalType": "string",
          "name": "messageHash",
          "type": "string"
        }
      ],
      "name": "createOrder",
      "outputs": [
        {
          "internalType": "bytes32",
          "name": "orderId",
          "type": "bytes32"
        }
      ],
      "stateMutability": "nonpayable",
      "type": "function"
    },
    {
      "inputs": [],
      "name": "getFeeDetails",
      "outputs": [
        {
          "internalType": "uint64",
          "name": "",
          "type": "uint64"
        },
        {
          "internalType": "uint256",
          "name": "",
          "type": "uint256"
        }
      ],
      "stateMutability": "view",
      "type": "function"
    },
    {
      "inputs": [
        {
          "internalType": "bytes32",
          "name": "_orderId",
          "type": "bytes32"
        }
      ],
      "name": "getOrderInfo",
      "outputs": [
        {
          "components": [
            {
              "internalType": "address",
              "name": "sender",
              "type": "address"
            },
            {
              "internalType": "address",
              "name": "token",
              "type": "address"
            },
            {
              "internalType": "address",
              "name": "senderFeeRecipient",
              "type": "address"
            },
            {
              "internalType": "uint256",
              "name": "senderFee",
              "type": "uint256"
            },
            {
              "internalType": "uint256",
              "name": "protocolFee",
              "type": "uint256"
            },
            {
              "internalType": "bool",
              "name": "isFulfilled",
              "type": "bool"
            },
            {
              "internalType": "bool",
              "name": "isRefunded",
              "type": "bool"
            },
            {
              "internalType": "address",
              "name": "refundAddress",
              "type": "address"
            },
            {
              "internalType": "uint96",
              "name": "currentBPS",
              "type": "uint96"
            },
            {
              "internalType": "uint256",
              "name": "amount",
              "type": "uint256"
            }
          ],
          "internalType": "struct IGatewayV2.Order",
          "name": "",
          "type": "tuple"
        }
      ],
      "stateMutability": "view",
      "type": "function"
    },
    {
      "inputs": [],
      "name": "initialize",
      "outputs": [],
      "stateMutability": "nonpayable",
      "type": "function"
    },
    {
      "inputs": [
        {
          "internalType": "address",
          "name": "_token",
          "type": "address"
        }
      ],
      "name": "isTokenSupported",
      "outputs": [
        {
          "internalType": "bool",
          "name": "",
          "type": "bool"
        }
      ],
      "stateMutability": "view",
      "type": "function"
    },
    {
      "inputs": [],
      "name": "owner",
      "outputs": [
        {
          "internalType": "address",
          "name": "",
          "type": "address"
        }
      ],
      "stateMutability": "view",
      "type": "function"
    },
    {
      "inputs": [],
      "name": "pause",
      "outputs": [],
      "stateMutability": "nonpayable",
      "type": "function"
    },
    {
      "inputs": [],
      "name": "paused",
      "outputs": [
        {
          "internalType": "bool",
          "name": "",
          "type": "bool"
        }
      ],
      "stateMutability": "view",
      "type": "function"
    },
    {
      "inputs": [],
      "name": "pendingOwner",
      "outputs": [
        {
          "internalType": "address",
          "name": "",
          "type": "address"
        }
      ],
      "stateMutability": "view",
      "type": "function"
    },
    {
      "inputs": [
        {
          "internalType": "uint256",
          "name": "_fee",
          "type": "uint256"
        },
        {
          "internalType": "bytes32",
          "name": "_orderId",
          "type": "bytes32"
        }
      ],
      "name": "refund",
      "outputs": [
        {
          "internalType": "bool",
          "name": "",
          "type": "bool"
        }
      ],
      "stateMutability": "nonpayable",
      "type": "function"
    },
    {
      "inputs": [],
      "name": "renounceOwnership",
      "outputs": [],
      "stateMutability": "nonpayable",
      "type": "function"
    },
    {
      "inputs": [
        {
          "internalType": "bytes32",
          "name": "currency",
          "type": "bytes32"
        },
        {
          "components": [
            {
              "internalType": "bytes32",
              "name": "code",
              "type": "bytes32"
            },
            {
              "internalType": "bytes32",
              "name": "name",
              "type": "bytes32"
            }
          ],
          "internalType": "struct SharedStructs.Institution[]",
          "name": "institutions",
          "type": "tuple[]"
        }
      ],
      "name": "setSupportedInstitutions",
      "outputs": [],
      "stateMutability": "nonpayable",
      "type": "function"
    },
    {
      "inputs": [
        {
          "internalType": "bytes32",
          "name": "what",
          "type": "bytes32"
        },
        {
          "internalType": "address",
          "name": "value",
          "type": "address"
        },
        {
          "internalType": "uint256",
          "name": "status",
          "type": "uint256"
        }
      ],
      "name": "settingManagerBool",
      "outputs": [],
      "stateMutability": "nonpayable",
      "type": "function"
    },
    {
      "inputs": [
        {
          "internalType": "bytes32",
          "name": "_splitOrderId",
          "type": "bytes32"
        },
        {
          "internalType": "bytes32",
          "name": "_orderId",
          "type": "bytes32"
        },
        {
          "internalType": "address",
          "name": "_liquidityProvider",
          "type": "address"
        },
        {
          "internalType": "uint64",
          "name": "_settlePercent",
          "type": "uint64"
        }
      ],
      "name": "settle",
      "outputs": [
        {
          "internalType": "bool",
          "name": "",
          "type": "bool"
        }
      ],
      "stateMutability": "nonpayable",
      "type": "function"
    },
    {
      "inputs": [
        {
          "internalType": "address",
          "name": "newOwner",
          "type": "address"
        }
      ],
      "name": "transferOwnership",
      "outputs": [],
      "stateMutability": "nonpayable",
      "type": "function"
    },
    {
      "inputs": [],
      "name": "unpause",
      "outputs": [],
      "stateMutability": "nonpayable",
      "type": "function"
    },
    {
      "inputs": [
        {
          "internalType": "bytes32",
          "name": "what",
          "type": "bytes32"
        },
        {
          "internalType": "address",
          "name": "value",
          "type": "address"
        }
      ],
      "name": "updateProtocolAddress",
      "outputs": [],
      "stateMutability": "nonpayable",
      "type": "function"
    },
    {
      "inputs": [
        {
          "internalType": "uint64",
          "name": "_protocolFeePercent",
          "type": "uint64"
        }
      ],
      "name": "updateProtocolFee",
      "outputs": [],
      "stateMutability": "nonpayable",
      "type": "function"
    }
  ],
  "bytecode": "0x60806040523480156200001157600080fd5b50d380156200001f57600080fd5b50d280156200002d57600080fd5b506200003e6200004460201b60201c565b620001ee565b600060019054906101000a900460ff161562000097576040517f08c379a00000000000000000000000000000000000000000000000000000000081526004016200008e9062000191565b60405180910390fd5b60ff801660008054906101000a900460ff1660ff1614620001085760ff6000806101000a81548160ff021916908360ff1602179055507f7f26b83ff96e1f2b6a682f133852f6798a09c465da95921460cefb384740249860ff604051620000ff9190620001d1565b60405180910390a15b565b600082825260208201905092915050565b7f496e697469616c697a61626c653a20636f6e747261637420697320696e69746960008201527f616c697a696e6700000000000000000000000000000000000000000000000000602082015250565b6000620001796027836200010a565b915062000186826200011b565b604082019050919050565b60006020820190508181036000830152620001ac816200016a565b9050919050565b600060ff82169050919050565b620001cb81620001b3565b82525050565b6000602082019050620001e86000830184620001c0565b92915050565b613ed880620001fe6000396000f3fe608060405234801561001057600080fd5b50d3801561001d57600080fd5b50d2801561002a57600080fd5b506004361061013b5760003560e01c806379ba5097116100c7578063cd9924001161008b578063cd992400146102b1578063d12ff20a146102cd578063e30c3978146102fd578063f22ee7041461031b578063f2fde38b1461034b5761013b565b806379ba5097146102565780638129fc1c146102605780638456cb591461026a5780638da5cb5b14610274578063b810c636146102925761013b565b80635c975abb1161010e5780635c975abb1461019e578063715018a6146101bc57806371eedb88146101c657806375151b63146101f6578063768c6ec0146102265761013b565b806332200882146101405780633f4ba83a1461015c57806340ebc6771461016657806347094e2e14610182575b600080fd5b61015a60048036038101906101559190612911565b610367565b005b6101646104dc565b005b610180600480360381019061017b91906129f7565b6104ee565b005b61019c60048036038101906101979190612a77565b6107b6565b005b6101a6610821565b6040516101b39190612abf565b60405180910390f35b6101c4610838565b005b6101e060048036038101906101db9190612b10565b61084c565b6040516101ed9190612abf565b60405180910390f35b610210600480360381019061020b9190612b50565b610cec565b60405161021d9190612abf565b60405180910390f35b610240600480360381019061023b9190612b7d565b610d48565b60405161024d9190612cca565b60405180910390f35b61025e610f61565b005b610268610fee565b005b61027261113e565b005b61027c611150565b6040516102899190612cf5565b60405180910390f35b61029a61117a565b6040516102a8929190612d2e565b60405180910390f35b6102cb60048036038101906102c69190612d57565b61119f565b005b6102e760048036038101906102e29190612e31565b611324565b6040516102f49190612f16565b60405180910390f35b61030561186b565b6040516103129190612cf5565b60405180910390f35b61033560048036038101906103309190612f31565b611895565b6040516103429190612abf565b60405180910390f35b61036560048036038101906103609190612b50565b611ef1565b005b61036f611f9e565b60cd6000838152602001908152602001600020600061038e9190612611565b60005b815181101561048d5760cd60008481526020019081526020016000208282815181106103c0576103bf612f98565b5b6020026020010151908060018154018082558091505060019003906000526020600020906002020160009091909190915060008201518160000155602082015181600101555050604051806040016040528083838151811061042557610424612f98565b5b60200260200101516020015181526020018481525060ce600084848151811061045157610450612f98565b5b60200260200101516000015181526020019081526020016000206000820151816000015560208201518160010155905050806001019050610391565b50817f58f3a30ec15a8d3e09fa65f9ef10219bc7a9a99d872a4ed895c37c2e761ac2ac60cd60008581526020019081526020016000206040516104d09190613101565b60405180910390a25050565b6104e4611f9e565b6104ec61201c565b565b6104f6611f9e565b600073ffffffffffffffffffffffffffffffffffffffff168173ffffffffffffffffffffffffffffffffffffffff1603610565576040517f08c379a000000000000000000000000000000000000000000000000000000000815260040161055c90613180565b60405180910390fd5b60007f74726561737572790000000000000000000000000000000000000000000000008303610668578173ffffffffffffffffffffffffffffffffffffffff16609860089054906101000a900473ffffffffffffffffffffffffffffffffffffffff1673ffffffffffffffffffffffffffffffffffffffff160361061e576040517f08c379a000000000000000000000000000000000000000000000000000000000815260040161061590613212565b60405180910390fd5b81609860086101000a81548173ffffffffffffffffffffffffffffffffffffffff021916908373ffffffffffffffffffffffffffffffffffffffff16021790555060019050610766565b7f61676772656761746f72000000000000000000000000000000000000000000008303610765578173ffffffffffffffffffffffffffffffffffffffff16609960009054906101000a900473ffffffffffffffffffffffffffffffffffffffff1673ffffffffffffffffffffffffffffffffffffffff160361071f576040517f08c379a0000000000000000000000000000000000000000000000000000000008152600401610716906132a4565b60405180910390fd5b81609960006101000a81548173ffffffffffffffffffffffffffffffffffffffff021916908373ffffffffffffffffffffffffffffffffffffffff160217905550600190505b5b80156107b1578173ffffffffffffffffffffffffffffffffffffffff16837fbbc5b96e57cfecb3dbeeadf92e87f15e58e64fcd75cbe256dcc5d9ef2e51e8a460405160405180910390a35b505050565b6107be611f9e565b80609860006101000a81548167ffffffffffffffff021916908367ffffffffffffffff1602179055507f1ce29a697a4765bd17d91df93ba75b250b629ecf030553ff1f6ab59f15ae6c7b8160405161081691906132c4565b60405180910390a150565b600060cf60009054906101000a900460ff16905090565b610840611f9e565b61084a600061207f565b565b6000609960009054906101000a900473ffffffffffffffffffffffffffffffffffffffff1673ffffffffffffffffffffffffffffffffffffffff163373ffffffffffffffffffffffffffffffffffffffff16146108de576040517f08c379a00000000000000000000000000000000000000000000000000000000081526004016108d59061332b565b60405180910390fd5b610101600083815260200190815260200160002060050160009054906101000a900460ff1615610943576040517f08c379a000000000000000000000000000000000000000000000000000000000815260040161093a90613397565b60405180910390fd5b610101600083815260200190815260200160002060050160019054906101000a900460ff16156109a8576040517f08c379a000000000000000000000000000000000000000000000000000000000815260040161099f90613403565b60405180910390fd5b826101016000848152602001908152602001600020600401541015610a02576040517f08c379a00000000000000000000000000000000000000000000000000000000081526004016109f99061346f565b60405180910390fd5b610101600083815260200190815260200160002060010160009054906101000a900473ffffffffffffffffffffffffffffffffffffffff1673ffffffffffffffffffffffffffffffffffffffff1663a9059cbb609860089054906101000a900473ffffffffffffffffffffffffffffffffffffffff16856040518363ffffffff1660e01b8152600401610a9692919061348f565b6020604051808303816000875af1158015610ab5573d6000803e3d6000fd5b505050506040513d601f19601f82011682018060405250810190610ad991906134e4565b506001610101600084815260200190815260200160002060050160016101000a81548160ff0219169083151502179055506000610101600084815260200190815260200160002060060160006101000a8154816bffffffffffffffffffffffff02191690836bffffffffffffffffffffffff160217905550600083610101600085815260200190815260200160002060040154610101600086815260200190815260200160002060070154610b8e9190613540565b610b989190613574565b9050610101600084815260200190815260200160002060010160009054906101000a900473ffffffffffffffffffffffffffffffffffffffff1673ffffffffffffffffffffffffffffffffffffffff1663a9059cbb610101600086815260200190815260200160002060050160029054906101000a900473ffffffffffffffffffffffffffffffffffffffff1661010160008781526020019081526020016000206003015484610c489190613540565b6040518363ffffffff1660e01b8152600401610c6592919061348f565b6020604051808303816000875af1158015610c84573d6000803e3d6000fd5b505050506040513d601f19601f82011682018060405250810190610ca891906134e4565b50827f0736fe428e1747ca8d387c2e6fa1a31a0cde62d3a167c40a46ade59a3cdc828e85604051610cd991906135a8565b60405180910390a2600191505092915050565b6000600160cc60008473ffffffffffffffffffffffffffffffffffffffff1673ffffffffffffffffffffffffffffffffffffffff1681526020019081526020016000205403610d3e5760019050610d43565b600090505b919050565b610d50612635565b6101016000838152602001908152602001600020604051806101400160405290816000820160009054906101000a900473ffffffffffffffffffffffffffffffffffffffff1673ffffffffffffffffffffffffffffffffffffffff1673ffffffffffffffffffffffffffffffffffffffff1681526020016001820160009054906101000a900473ffffffffffffffffffffffffffffffffffffffff1673ffffffffffffffffffffffffffffffffffffffff1673ffffffffffffffffffffffffffffffffffffffff1681526020016002820160009054906101000a900473ffffffffffffffffffffffffffffffffffffffff1673ffffffffffffffffffffffffffffffffffffffff1673ffffffffffffffffffffffffffffffffffffffff16815260200160038201548152602001600482015481526020016005820160009054906101000a900460ff161515151581526020016005820160019054906101000a900460ff161515151581526020016005820160029054906101000a900473ffffffffffffffffffffffffffffffffffffffff1673ffffffffffffffffffffffffffffffffffffffff1673ffffffffffffffffffffffffffffffffffffffff1681526020016006820160009054906101000a90046bffffffffffffffffffffffff166bffffffffffffffffffffffff166bffffffffffffffffffffffff1681526020016007820154815250509050919050565b6000610f6b6120b0565b90508073ffffffffffffffffffffffffffffffffffffffff16610f8c61186b565b73ffffffffffffffffffffffffffffffffffffffff1614610fe2576040517f08c379a0000000000000000000000000000000000000000000000000000000008152600401610fd990613635565b60405180910390fd5b610feb8161207f565b50565b60008060019054906101000a900460ff1615905080801561101f5750600160008054906101000a900460ff1660ff16105b8061104c575061102e306120b8565b15801561104b5750600160008054906101000a900460ff1660ff16145b5b61108b576040517f08c379a0000000000000000000000000000000000000000000000000000000008152600401611082906136c7565b60405180910390fd5b60016000806101000a81548160ff021916908360ff16021790555080156110c8576001600060016101000a81548160ff0219169083151502179055505b620186a06097819055506110da6120db565b6110e2612134565b801561113b5760008060016101000a81548160ff0219169083151502179055507f7f26b83ff96e1f2b6a682f133852f6798a09c465da95921460cefb384740249860016040516111329190613739565b60405180910390a15b50565b611146611f9e565b61114e61218d565b565b6000603360009054906101000a900473ffffffffffffffffffffffffffffffffffffffff16905090565b600080609860009054906101000a900467ffffffffffffffff16609754915091509091565b6111a7611f9e565b600073ffffffffffffffffffffffffffffffffffffffff168273ffffffffffffffffffffffffffffffffffffffff1603611216576040517f08c379a000000000000000000000000000000000000000000000000000000000815260040161120d90613180565b60405180910390fd5b60018114806112255750600281145b611264576040517f08c379a000000000000000000000000000000000000000000000000000000000815260040161125b906137a0565b60405180910390fd5b7f746f6b656e000000000000000000000000000000000000000000000000000000830361131f578060cc60008473ffffffffffffffffffffffffffffffffffffffff1673ffffffffffffffffffffffffffffffffffffffff168152602001908152602001600020819055508173ffffffffffffffffffffffffffffffffffffffff16837fcfa976492af7c14a916cc3a239f4c9c75bbd7f5f0e398beb41d892c7eeccae4c8360405161131691906135a8565b60405180910390a35b505050565b600061132e6121f0565b61133c8a8a8689898d61223a565b60008383905003611382576040517f08c379a00000000000000000000000000000000000000000000000000000000081526004016113799061380c565b60405180910390fd5b8973ffffffffffffffffffffffffffffffffffffffff166323b872dd3330888d6113ac9190613540565b6040518463ffffffff1660e01b81526004016113ca9392919061382c565b6020604051808303816000875af11580156113e9573d6000803e3d6000fd5b505050506040513d601f19601f8201168201806040525081019061140d91906134e4565b5061010260003373ffffffffffffffffffffffffffffffffffffffff1673ffffffffffffffffffffffffffffffffffffffff168152602001908152602001600020600081548092919061145f90613863565b91905055503361010260003373ffffffffffffffffffffffffffffffffffffffff1673ffffffffffffffffffffffffffffffffffffffff168152602001908152602001600020546040516020016114b792919061348f565b6040516020818303038152906040528051906020012090506000609754609860009054906101000a900467ffffffffffffffff1667ffffffffffffffff168b61150091906138ab565b61150a919061391c565b90506040518061014001604052803373ffffffffffffffffffffffffffffffffffffffff1681526020018c73ffffffffffffffffffffffffffffffffffffffff1681526020018873ffffffffffffffffffffffffffffffffffffffff1681526020018781526020018281526020016000151581526020016000151581526020018673ffffffffffffffffffffffffffffffffffffffff16815260200160975467ffffffffffffffff166bffffffffffffffffffffffff168152602001828c6115d29190613574565b815250610101600084815260200190815260200160002060008201518160000160006101000a81548173ffffffffffffffffffffffffffffffffffffffff021916908373ffffffffffffffffffffffffffffffffffffffff16021790555060208201518160010160006101000a81548173ffffffffffffffffffffffffffffffffffffffff021916908373ffffffffffffffffffffffffffffffffffffffff16021790555060408201518160020160006101000a81548173ffffffffffffffffffffffffffffffffffffffff021916908373ffffffffffffffffffffffffffffffffffffffff160217905550606082015181600301556080820151816004015560a08201518160050160006101000a81548160ff02191690831515021790555060c08201518160050160016101000a81548160ff02191690831515021790555060e08201518160050160026101000a81548173ffffffffffffffffffffffffffffffffffffffff021916908373ffffffffffffffffffffffffffffffffffffffff1602179055506101008201518160060160006101000a8154816bffffffffffffffffffffffff02191690836bffffffffffffffffffffffff16021790555061012082015181600701559050506101016000838152602001908152602001600020600701548b73ffffffffffffffffffffffffffffffffffffffff16610101600085815260200190815260200160002060000160009054906101000a900473ffffffffffffffffffffffffffffffffffffffff1673ffffffffffffffffffffffffffffffffffffffff167f3bdd0d86e09a22d7ce596118bd3ca5ec73ea47533a465be37621e913ed2bf33384868d8f8b8b604051611855969594939291906139ba565b60405180910390a4509998505050505050505050565b6000606560009054906101000a900473ffffffffffffffffffffffffffffffffffffffff16905090565b6000609960009054906101000a900473ffffffffffffffffffffffffffffffffffffffff1673ffffffffffffffffffffffffffffffffffffffff163373ffffffffffffffffffffffffffffffffffffffff1614611927576040517f08c379a000000000000000000000000000000000000000000000000000000000815260040161191e9061332b565b60405180910390fd5b610101600085815260200190815260200160002060050160009054906101000a900460ff161561198c576040517f08c379a000000000000000000000000000000000000000000000000000000000815260040161198390613397565b60405180910390fd5b610101600085815260200190815260200160002060050160019054906101000a900460ff16156119f1576040517f08c379a00000000000000000000000000000000000000000000000000000000081526004016119e890613403565b60405180910390fd5b6000610101600086815260200190815260200160002060010160009054906101000a900473ffffffffffffffffffffffffffffffffffffffff1690508267ffffffffffffffff16610101600087815260200190815260200160002060060160008282829054906101000a90046bffffffffffffffffffffffff16611a759190613a16565b92506101000a8154816bffffffffffffffffffffffff02191690836bffffffffffffffffffffffff1602179055506000610101600087815260200190815260200160002060060160009054906101000a90046bffffffffffffffffffffffff166bffffffffffffffffffffffff1603611da7576001610101600087815260200190815260200160002060050160006101000a81548160ff021916908315150217905550600061010160008781526020019081526020016000206003015414611cce57610101600086815260200190815260200160002060010160009054906101000a900473ffffffffffffffffffffffffffffffffffffffff1673ffffffffffffffffffffffffffffffffffffffff1663a9059cbb610101600088815260200190815260200160002060020160009054906101000a900473ffffffffffffffffffffffffffffffffffffffff166101016000898152602001908152602001600020600301546040518363ffffffff1660e01b8152600401611bf792919061348f565b6020604051808303816000875af1158015611c16573d6000803e3d6000fd5b505050506040513d601f19601f82011682018060405250810190611c3a91906134e4565b50610101600086815260200190815260200160002060030154610101600087815260200190815260200160002060020160009054906101000a900473ffffffffffffffffffffffffffffffffffffffff1673ffffffffffffffffffffffffffffffffffffffff167f44f6938ca4a10313aabb76f874cced61e35710a734a126e4afb34461bf8c250160405160405180910390a35b600061010160008781526020019081526020016000206004015414611da6578073ffffffffffffffffffffffffffffffffffffffff1663a9059cbb609860089054906101000a900473ffffffffffffffffffffffffffffffffffffffff166101016000898152602001908152602001600020600401546040518363ffffffff1660e01b8152600401611d6192919061348f565b6020604051808303816000875af1158015611d80573d6000803e3d6000fd5b505050506040513d601f19601f82011682018060405250810190611da491906134e4565b505b5b60006097548467ffffffffffffffff16610101600089815260200190815260200160002060070154611dd991906138ab565b611de3919061391c565b90508061010160008881526020019081526020016000206007016000828254611e0c9190613574565b925050819055508173ffffffffffffffffffffffffffffffffffffffff1663a9059cbb86836040518363ffffffff1660e01b8152600401611e4e92919061348f565b6020604051808303816000875af1158015611e6d573d6000803e3d6000fd5b505050506040513d601f19601f82011682018060405250810190611e9191906134e4565b508473ffffffffffffffffffffffffffffffffffffffff16867f98ece21e01a01cbe1d1c0dad3b053c8fbd368f99be78be958fcf1d1d13fd249a8987604051611edb929190613a87565b60405180910390a3600192505050949350505050565b611ef9611f9e565b80606560006101000a81548173ffffffffffffffffffffffffffffffffffffffff021916908373ffffffffffffffffffffffffffffffffffffffff1602179055508073ffffffffffffffffffffffffffffffffffffffff16611f59611150565b73ffffffffffffffffffffffffffffffffffffffff167f38d16b8cac22d99fc7c124b9cd0de2d3fa1faef420bfe791d8c362d765e2270060405160405180910390a350565b611fa66120b0565b73ffffffffffffffffffffffffffffffffffffffff16611fc4611150565b73ffffffffffffffffffffffffffffffffffffffff161461201a576040517f08c379a000000000000000000000000000000000000000000000000000000000815260040161201190613afc565b60405180910390fd5b565b612024612435565b600060cf60006101000a81548160ff0219169083151502179055507f5db9ee0a495bf2e6ff9c91a7834c1ba4fdd244a5e8aa4e537bd38aeae4b073aa6120686120b0565b6040516120759190612cf5565b60405180910390a1565b606560006101000a81549073ffffffffffffffffffffffffffffffffffffffff02191690556120ad8161247e565b50565b600033905090565b6000808273ffffffffffffffffffffffffffffffffffffffff163b119050919050565b600060019054906101000a900460ff1661212a576040517f08c379a000000000000000000000000000000000000000000000000000000000815260040161212190613b8e565b60405180910390fd5b612132612544565b565b600060019054906101000a900460ff16612183576040517f08c379a000000000000000000000000000000000000000000000000000000000815260040161217a90613b8e565b60405180910390fd5b61218b6125a5565b565b6121956121f0565b600160cf60006101000a81548160ff0219169083151502179055507f62e78cea01bee320cd4e420270b5ea74000d11b0c9f74754ebdbfc544b05a2586121d96120b0565b6040516121e69190612cf5565b60405180910390a1565b6121f8610821565b15612238576040517f08c379a000000000000000000000000000000000000000000000000000000000815260040161222f90613bfa565b60405180910390fd5b565b600160cc60008873ffffffffffffffffffffffffffffffffffffffff1673ffffffffffffffffffffffffffffffffffffffff16815260200190815260200160002054146122bc576040517f08c379a00000000000000000000000000000000000000000000000000000000081526004016122b390613c66565b60405180910390fd5b600085036122ff576040517f08c379a00000000000000000000000000000000000000000000000000000000081526004016122f690613cd2565b60405180910390fd5b600073ffffffffffffffffffffffffffffffffffffffff168473ffffffffffffffffffffffffffffffffffffffff160361236e576040517f08c379a000000000000000000000000000000000000000000000000000000000815260040161236590613d3e565b60405180910390fd5b6000602060ff16116123b5576040517f08c379a00000000000000000000000000000000000000000000000000000000081526004016123ac90613daa565b60405180910390fd5b6000821461242d57600073ffffffffffffffffffffffffffffffffffffffff168373ffffffffffffffffffffffffffffffffffffffff160361242c576040517f08c379a000000000000000000000000000000000000000000000000000000000815260040161242390613e16565b60405180910390fd5b5b505050505050565b61243d610821565b61247c576040517f08c379a000000000000000000000000000000000000000000000000000000000815260040161247390613e82565b60405180910390fd5b565b6000603360009054906101000a900473ffffffffffffffffffffffffffffffffffffffff16905081603360006101000a81548173ffffffffffffffffffffffffffffffffffffffff021916908373ffffffffffffffffffffffffffffffffffffffff1602179055508173ffffffffffffffffffffffffffffffffffffffff168173ffffffffffffffffffffffffffffffffffffffff167f8be0079c531659141344cd1fd0a4f28419497f9722a3daafe3b4186f6b6457e060405160405180910390a35050565b600060019054906101000a900460ff16612593576040517f08c379a000000000000000000000000000000000000000000000000000000000815260040161258a90613b8e565b60405180910390fd5b6125a361259e6120b0565b61207f565b565b600060019054906101000a900460ff166125f4576040517f08c379a00000000000000000000000000000000000000000000000000000000081526004016125eb90613b8e565b60405180910390fd5b600060cf60006101000a81548160ff021916908315150217905550565b508054600082556002029060005260206000209081019061263291906126f2565b50565b604051806101400160405280600073ffffffffffffffffffffffffffffffffffffffff168152602001600073ffffffffffffffffffffffffffffffffffffffff168152602001600073ffffffffffffffffffffffffffffffffffffffff1681526020016000815260200160008152602001600015158152602001600015158152602001600073ffffffffffffffffffffffffffffffffffffffff16815260200160006bffffffffffffffffffffffff168152602001600081525090565b5b80821115612715576000808201600090556001820160009055506002016126f3565b5090565b6000604051905090565b600080fd5b600080fd5b6000819050919050565b6127408161272d565b811461274b57600080fd5b50565b60008135905061275d81612737565b92915050565b600080fd5b6000601f19601f8301169050919050565b7f4e487b7100000000000000000000000000000000000000000000000000000000600052604160045260246000fd5b6127b182612768565b810181811067ffffffffffffffff821117156127d0576127cf612779565b5b80604052505050565b60006127e3612719565b90506127ef82826127a8565b919050565b600067ffffffffffffffff82111561280f5761280e612779565b5b602082029050602081019050919050565b600080fd5b600080fd5b6000604082840312156128405761283f612825565b5b61284a60406127d9565b9050600061285a8482850161274e565b600083015250602061286e8482850161274e565b60208301525092915050565b600061288d612888846127f4565b6127d9565b905080838252602082019050604084028301858111156128b0576128af612820565b5b835b818110156128d957806128c5888261282a565b8452602084019350506040810190506128b2565b5050509392505050565b600082601f8301126128f8576128f7612763565b5b813561290884826020860161287a565b91505092915050565b6000806040838503121561292857612927612723565b5b60006129368582860161274e565b925050602083013567ffffffffffffffff81111561295757612956612728565b5b612963858286016128e3565b9150509250929050565b600074ffffffffffffffffffffffffffffffffffffffffff82169050919050565b6129978161296d565b81146129a257600080fd5b50565b600073ffffffffffffffffffffffffffffffffffffffff82169050919050565b60006129d0826129a5565b9050919050565b6000813590506129e68161298e565b6129ef816129c5565b905092915050565b60008060408385031215612a0e57612a0d612723565b5b6000612a1c8582860161274e565b9250506020612a2d858286016129d7565b9150509250929050565b600067ffffffffffffffff82169050919050565b612a5481612a37565b8114612a5f57600080fd5b50565b600081359050612a7181612a4b565b92915050565b600060208284031215612a8d57612a8c612723565b5b6000612a9b84828501612a62565b91505092915050565b60008115159050919050565b612ab981612aa4565b82525050565b6000602082019050612ad46000830184612ab0565b92915050565b6000819050919050565b612aed81612ada565b8114612af857600080fd5b50565b600081359050612b0a81612ae4565b92915050565b60008060408385031215612b2757612b26612723565b5b6000612b3585828601612afb565b9250506020612b468582860161274e565b9150509250929050565b600060208284031215612b6657612b65612723565b5b6000612b74848285016129d7565b91505092915050565b600060208284031215612b9357612b92612723565b5b6000612ba18482850161274e565b91505092915050565b612bb3816129c5565b82525050565b612bc281612ada565b82525050565b612bd181612aa4565b82525050565b60006bffffffffffffffffffffffff82169050919050565b612bf881612bd7565b82525050565b61014082016000820151612c156000850182612baa565b506020820151612c286020850182612baa565b506040820151612c3b6040850182612baa565b506060820151612c4e6060850182612bb9565b506080820151612c616080850182612bb9565b5060a0820151612c7460a0850182612bc8565b5060c0820151612c8760c0850182612bc8565b5060e0820151612c9a60e0850182612baa565b50610100820151612caf610100850182612bef565b50610120820151612cc4610120850182612bb9565b50505050565b600061014082019050612ce06000830184612bfe565b92915050565b612cef816129c5565b82525050565b6000602082019050612d0a6000830184612ce6565b92915050565b612d1981612a37565b82525050565b612d2881612ada565b82525050565b6000604082019050612d436000830185612d10565b612d506020830184612d1f565b9392505050565b600080600060608486031215612d7057612d6f612723565b5b6000612d7e8682870161274e565b9350506020612d8f868287016129d7565b9250506040612da086828701612afb565b9150509250925092565b612db381612bd7565b8114612dbe57600080fd5b50565b600081359050612dd081612daa565b92915050565b600080fd5b60008083601f840112612df157612df0612763565b5b8235905067ffffffffffffffff811115612e0e57612e0d612dd6565b5b602083019150836001820283011115612e2a57612e29612820565b5b9250929050565b60008060008060008060008060006101008a8c031215612e5457612e53612723565b5b6000612e628c828d016129d7565b9950506020612e738c828d01612afb565b9850506040612e848c828d0161274e565b9750506060612e958c828d01612dc1565b9650506080612ea68c828d016129d7565b95505060a0612eb78c828d01612afb565b94505060c0612ec88c828d016129d7565b93505060e08a013567ffffffffffffffff811115612ee957612ee8612728565b5b612ef58c828d01612ddb565b92509250509295985092959850929598565b612f108161272d565b82525050565b6000602082019050612f2b6000830184612f07565b92915050565b60008060008060808587031215612f4b57612f4a612723565b5b6000612f598782880161274e565b9450506020612f6a8782880161274e565b9350506040612f7b878288016129d7565b9250506060612f8c87828801612a62565b91505092959194509250565b7f4e487b7100000000000000000000000000000000000000000000000000000000600052603260045260246000fd5b600081549050919050565b600082825260208201905092915050565b60008190508160005260206000209050919050565b60008160001c9050919050565b6000819050919050565b600061302261301d83612ff8565b613005565b9050919050565b6130328161272d565b82525050565b60408201600080830154905061304d8161300f565b61305a6000860182613029565b506001830154905061306b8161300f565b6130786020860182613029565b5050505050565b600061308b8383613038565b60408301905092915050565b6000600282019050919050565b60006130af82612fc7565b6130b98185612fd2565b93506130c483612fe3565b8060005b838110156130f457816130db888261307f565b97506130e683613097565b9250506001810190506130c8565b5085935050505092915050565b6000602082019050818103600083015261311b81846130a4565b905092915050565b600082825260208201905092915050565b7f476174657761793a207a65726f20616464726573730000000000000000000000600082015250565b600061316a601583613123565b915061317582613134565b602082019050919050565b600060208201905081810360008301526131998161315d565b9050919050565b7f476174657761793a207472656173757279206164647265737320616c7265616460008201527f7920736574000000000000000000000000000000000000000000000000000000602082015250565b60006131fc602583613123565b9150613207826131a0565b604082019050919050565b6000602082019050818103600083015261322b816131ef565b9050919050565b7f476174657761793a2061676772656761746f72206164647265737320616c726560008201527f6164792073657400000000000000000000000000000000000000000000000000602082015250565b600061328e602783613123565b915061329982613232565b604082019050919050565b600060208201905081810360008301526132bd81613281565b9050919050565b60006020820190506132d96000830184612d10565b92915050565b7f4f6e6c7941676772656761746f72000000000000000000000000000000000000600082015250565b6000613315600e83613123565b9150613320826132df565b602082019050919050565b6000602082019050818103600083015261334481613308565b9050919050565b7f4f7264657246756c66696c6c6564000000000000000000000000000000000000600082015250565b6000613381600e83613123565b915061338c8261334b565b602082019050919050565b600060208201905081810360008301526133b081613374565b9050919050565b7f4f72646572526566756e64656400000000000000000000000000000000000000600082015250565b60006133ed600d83613123565b91506133f8826133b7565b602082019050919050565b6000602082019050818103600083015261341c816133e0565b9050919050565b7f4665654578636565647350726f746f636f6c4665650000000000000000000000600082015250565b6000613459601583613123565b915061346482613423565b602082019050919050565b600060208201905081810360008301526134888161344c565b9050919050565b60006040820190506134a46000830185612ce6565b6134b16020830184612d1f565b9392505050565b6134c181612aa4565b81146134cc57600080fd5b50565b6000815190506134de816134b8565b92915050565b6000602082840312156134fa576134f9612723565b5b6000613508848285016134cf565b91505092915050565b7f4e487b7100000000000000000000000000000000000000000000000000000000600052601160045260246000fd5b600061354b82612ada565b915061355683612ada565b925082820190508082111561356e5761356d613511565b5b92915050565b600061357f82612ada565b915061358a83612ada565b92508282039050818111156135a2576135a1613511565b5b92915050565b60006020820190506135bd6000830184612d1f565b92915050565b7f4f776e61626c6532537465703a2063616c6c6572206973206e6f74207468652060008201527f6e6577206f776e65720000000000000000000000000000000000000000000000602082015250565b600061361f602983613123565b915061362a826135c3565b604082019050919050565b6000602082019050818103600083015261364e81613612565b9050919050565b7f496e697469616c697a61626c653a20636f6e747261637420697320616c72656160008201527f647920696e697469616c697a6564000000000000000000000000000000000000602082015250565b60006136b1602e83613123565b91506136bc82613655565b604082019050919050565b600060208201905081810360008301526136e0816136a4565b9050919050565b6000819050919050565b600060ff82169050919050565b6000819050919050565b600061372361371e613719846136e7565b6136fe565b6136f1565b9050919050565b61373381613708565b82525050565b600060208201905061374e600083018461372a565b92915050565b7f476174657761793a20696e76616c696420737461747573000000000000000000600082015250565b600061378a601783613123565b915061379582613754565b602082019050919050565b600060208201905081810360008301526137b98161377d565b9050919050565b7f496e76616c69644d657373616765486173680000000000000000000000000000600082015250565b60006137f6601283613123565b9150613801826137c0565b602082019050919050565b60006020820190508181036000830152613825816137e9565b9050919050565b60006060820190506138416000830186612ce6565b61384e6020830185612ce6565b61385b6040830184612d1f565b949350505050565b600061386e82612ada565b91507fffffffffffffffffffffffffffffffffffffffffffffffffffffffffffffffff82036138a05761389f613511565b5b600182019050919050565b60006138b682612ada565b91506138c183612ada565b92508282026138cf81612ada565b915082820484148315176138e6576138e5613511565b5b5092915050565b7f4e487b7100000000000000000000000000000000000000000000000000000000600052601260045260246000fd5b600061392782612ada565b915061393283612ada565b925082613942576139416138ed565b5b828204905092915050565b600061396861396361395e84612bd7565b6136fe565b612ada565b9050919050565b6139788161394d565b82525050565b82818337600083830152505050565b60006139998385613123565b93506139a683858461397e565b6139af83612768565b840190509392505050565b600060a0820190506139cf6000830189612d1f565b6139dc6020830188612f07565b6139e9604083018761396f565b6139f66060830186612f07565b8181036080830152613a0981848661398d565b9050979650505050505050565b6000613a2182612bd7565b9150613a2c83612bd7565b925082820390506bffffffffffffffffffffffff811115613a5057613a4f613511565b5b92915050565b6000613a71613a6c613a6784612a37565b6136fe565b612bd7565b9050919050565b613a8181613a56565b82525050565b6000604082019050613a9c6000830185612f07565b613aa96020830184613a78565b9392505050565b7f4f776e61626c653a2063616c6c6572206973206e6f7420746865206f776e6572600082015250565b6000613ae6602083613123565b9150613af182613ab0565b602082019050919050565b60006020820190508181036000830152613b1581613ad9565b9050919050565b7f496e697469616c697a61626c653a20636f6e7472616374206973206e6f74206960008201527f6e697469616c697a696e67000000000000000000000000000000000000000000602082015250565b6000613b78602b83613123565b9150613b8382613b1c565b604082019050919050565b60006020820190508181036000830152613ba781613b6b565b9050919050565b7f5061757361626c653a2070617573656400000000000000000000000000000000600082015250565b6000613be4601083613123565b9150613bef82613bae565b602082019050919050565b60006020820190508181036000830152613c1381613bd7565b9050919050565b7f546f6b656e4e6f74537570706f72746564000000000000000000000000000000600082015250565b6000613c50601183613123565b9150613c5b82613c1a565b602082019050919050565b60006020820190508181036000830152613c7f81613c43565b9050919050565b7f416d6f756e7449735a65726f0000000000000000000000000000000000000000600082015250565b6000613cbc600c83613123565b9150613cc782613c86565b602082019050919050565b60006020820190508181036000830152613ceb81613caf565b9050919050565b7f5468726f775a65726f4164647265737300000000000000000000000000000000600082015250565b6000613d28601083613123565b9150613d3382613cf2565b602082019050919050565b60006020820190508181036000830152613d5781613d1b565b9050919050565b7f496e76616c6964496e737469747574696f6e436f646500000000000000000000600082015250565b6000613d94601683613123565b9150613d9f82613d5e565b602082019050919050565b60006020820190508181036000830152613dc381613d87565b9050919050565b7f496e76616c696453656e646572466565526563697069656e7400000000000000600082015250565b6000613e00601983613123565b9150613e0b82613dca565b602082019050919050565b60006020820190508181036000830152613e2f81613df3565b9050919050565b7f5061757361626c653a206e6f7420706175736564000000000000000000000000600082015250565b6000613e6c601483613123565b9150613e7782613e36565b602082019050919050565b60006020820190508181036000830152613e9b81613e5f565b905091905056fea26474726f6e582212201058400a286d8ad58ab5caaee0d5a8cbf57bb0088e11bf896517a56590174ac764736f6c63430008120033",
  "source": "// SPDX-License-Identifier: UNLICENSED\npragma solidity ^0.8.18;\n\nimport '@openzeppelin/contracts-upgradeable/security/PausableUpgradeable.sol';\n\nimport {GatewaySettingManager} from './GatewaySettingManager.sol';\nimport {IGatewayV2, IERC20} from './interfaces/IGatewayV2.sol';\n\n/**\n * @title Gateway\n * @notice This contract serves as a gateway for creating orders and managing settlements.\n */\ncontract GatewayV2 is IGatewayV2, GatewaySettingManager, PausableUpgradeable {\n\tstruct fee {\n\t\tuint256 protocolFee;\n\t\tuint256 liquidityProviderAmount;\n\t}\n\n\tmapping(bytes32 => Order) private order;\n\tmapping(address => uint256) private _nonce;\n\tuint256[50] private __gap;\n\n\t/// @custom:oz-upgrades-unsafe-allow constructor\n\tconstructor() {\n\t\t_disableInitializers();\n\t}\n\n\t/**\n\t * @dev Initialize function.\n\t */\n\tfunction initialize() external initializer {\n\t\tMAX_BPS = 100_000;\n\t\t__Ownable2Step_init();\n\t\t__Pausable_init();\n\t}\n\n\t/**\n\t * @dev Modifier that allows only the aggregator to call a function.\n\t */\n\tmodifier onlyAggregator() {\n\t\trequire(msg.sender == _aggregatorAddress, 'OnlyAggregator');\n\t\t_;\n\t}\n\n\t/* ##################################################################\n                                OWNER FUNCTIONS\n    ################################################################## */\n\t/**\n\t * @dev Pause the contract.\n\t */\n\tfunction pause() external onlyOwner {\n\t\t_pause();\n\t}\n\n\t/**\n\t * @dev Unpause the contract.\n\t */\n\tfunction unpause() external onlyOwner {\n\t\t_unpause();\n\t}\n\n\t/* ##################################################################\n                                USER CALLS\n    ################################################################## */\n\t/** @dev See {createOrder-IGateway}. */\n\tfunction createOrder(\n\t\taddress _token,\n\t\tuint256 _amount,\n\t\tbytes32 _institutionCode,\n\t\tuint96 _rate,\n\t\taddress _senderFeeRecipient,\n\t\tuint256 _senderFee,\n\t\taddress _refundAddress,\n\t\tstring calldata messageHash\n\t) external whenNotPaused returns (bytes32 orderId) {\n\t\t// checks that are required\n\t\t_handler(\n\t\t\t_token,\n\t\t\t_amount,\n\t\t\t_refundAddress,\n\t\t\t_senderFeeRecipient,\n\t\t\t_senderFee,\n\t\t\t_institutionCode\n\t\t);\n\n\t\t// validate messageHash\n\t\trequire(bytes(messageHash).length != 0, 'InvalidMessageHash');\n\n\t\t// transfer token from msg.sender to contract\n\t\tIERC20(_token).transferFrom(msg.sender, address(this), _amount + _senderFee);\n\n\t\t// increase users nonce to avoid replay attacks\n\t\t_nonce[msg.sender]++;\n\n\t\t// generate transaction id for the transaction\n\t\torderId = keccak256(abi.encode(msg.sender, _nonce[msg.sender]));\n\n\t\t// update transaction\n\t\tuint256 _protocolFee = (_amount * protocolFeePercent) / MAX_BPS;\n\t\torder[orderId] = Order({\n\t\t\tsender: msg.sender,\n\t\t\ttoken: _token,\n\t\t\tsenderFeeRecipient: _senderFeeRecipient,\n\t\t\tsenderFee: _senderFee,\n\t\t\tprotocolFee: _protocolFee,\n\t\t\tisFulfilled: false,\n\t\t\tisRefunded: false,\n\t\t\trefundAddress: _refundAddress,\n\t\t\tcurrentBPS: uint64(MAX_BPS),\n\t\t\tamount: _amount - _protocolFee\n\t\t});\n\n\t\t// emit order created event\n\t\temit OrderCreated(\n\t\t\torder[orderId].sender,\n\t\t\t_token,\n\t\t\torder[orderId].amount,\n\t\t\t_protocolFee,\n\t\t\torderId,\n\t\t\t_rate,\n\t\t\t_institutionCode,\n\t\t\tmessageHash\n\t\t);\n\t}\n\n\t/**\n\t * @dev Internal function to handle order creation.\n\t * @param _token The address of the token being traded.\n\t * @param _amount The amount of tokens being traded.\n\t * @param _refundAddress The address to refund the tokens in case of cancellation.\n\t * @param _senderFeeRecipient The address of the recipient for the sender fee.\n\t * @param _senderFee The amount of the sender fee.\n\t * @param _institutionCode The code of the institution associated with the order.\n\t */\n\tfunction _handler(\n\t\taddress _token,\n\t\tuint256 _amount,\n\t\taddress _refundAddress,\n\t\taddress _senderFeeRecipient,\n\t\tuint256 _senderFee,\n\t\tbytes32 _institutionCode\n\t) internal view {\n\t\trequire(_isTokenSupported[_token] == 1, 'TokenNotSupported');\n\t\trequire(_amount != 0, 'AmountIsZero');\n\t\trequire(_refundAddress != address(0), 'ThrowZeroAddress');\n\t\trequire(\n\t\t\t_institutionCode.length > 0,\n\t\t\t'InvalidInstitutionCode'\n\t\t);\n\n\t\tif (_senderFee != 0) {\n\t\t\trequire(_senderFeeRecipient != address(0), 'InvalidSenderFeeRecipient');\n\t\t}\n\t}\n\n\t/* ##################################################################\n                                AGGREGATOR FUNCTIONS\n    ################################################################## */\n\t/** @dev See {settle-IGateway}. */\n\tfunction settle(\n\t\tbytes32 _splitOrderId,\n\t\tbytes32 _orderId,\n\t\taddress _liquidityProvider,\n\t\tuint64 _settlePercent\n\t) external onlyAggregator returns (bool) {\n\t\t// ensure the transaction has not been fulfilled\n\t\trequire(!order[_orderId].isFulfilled, 'OrderFulfilled');\n\t\trequire(!order[_orderId].isRefunded, 'OrderRefunded');\n\n\t\t// load the token into memory\n\t\taddress token = order[_orderId].token;\n\n\t\t// subtract sum of amount based on the input _settlePercent\n\t\torder[_orderId].currentBPS -= _settlePercent;\n\n\t\tif (order[_orderId].currentBPS == 0) {\n\t\t\t// update the transaction to be fulfilled\n\t\t\torder[_orderId].isFulfilled = true;\n\n\t\t\tif (order[_orderId].senderFee != 0) {\n\t\t\t\t// transfer sender fee\n\t\t\t\tIERC20(order[_orderId].token).transfer(\n\t\t\t\t\torder[_orderId].senderFeeRecipient,\n\t\t\t\t\torder[_orderId].senderFee\n\t\t\t\t);\n\n\t\t\t\t// emit event\n\t\t\t\temit SenderFeeTransferred(\n\t\t\t\t\torder[_orderId].senderFeeRecipient,\n\t\t\t\t\torder[_orderId].senderFee\n\t\t\t\t);\n\t\t\t}\n\n\t\t\tif (order[_orderId].protocolFee != 0) {\n\t\t\t\t// transfer protocol fee\n\t\t\t\tIERC20(token).transfer(treasuryAddress, order[_orderId].protocolFee);\n\t\t\t}\n\t\t}\n\n\t\t// transfer to liquidity provider\n\t\tuint256 liquidityProviderAmount = (order[_orderId].amount * _settlePercent) / MAX_BPS;\n\t\torder[_orderId].amount -= liquidityProviderAmount;\n\t\tIERC20(token).transfer(_liquidityProvider, liquidityProviderAmount);\n\n\t\t// emit settled event\n\t\temit OrderSettled(_splitOrderId, _orderId, _liquidityProvider, _settlePercent);\n\n\t\treturn true;\n\t}\n\n\t/** @dev See {refund-IGateway}. */\n\tfunction refund(uint256 _fee, bytes32 _orderId) external onlyAggregator returns (bool) {\n\t\t// ensure the transaction has not been fulfilled\n\t\trequire(!order[_orderId].isFulfilled, 'OrderFulfilled');\n\t\trequire(!order[_orderId].isRefunded, 'OrderRefunded');\n\t\trequire(order[_orderId].protocolFee >= _fee, 'FeeExceedsProtocolFee');\n\n\t\t// transfer refund fee to the treasury\n\t\tIERC20(order[_orderId].token).transfer(treasuryAddress, _fee);\n\n\t\t// reset state values\n\t\torder[_orderId].isRefunded = true;\n\t\torder[_orderId].currentBPS = 0;\n\n\t\t// deduct fee from order amount\n\t\tuint256 refundAmount = order[_orderId].amount + order[_orderId].protocolFee - _fee;\n\n\t\t// transfer refund amount and sender fee to the refund address\n\t\tIERC20(order[_orderId].token).transfer(\n\t\t\torder[_orderId].refundAddress,\n\t\t\trefundAmount + order[_orderId].senderFee\n\t\t);\n\n\t\t// emit refunded event\n\t\temit OrderRefunded(_fee, _orderId);\n\n\t\treturn true;\n\t}\n\n\t/* ##################################################################\n                                VIEW CALLS\n    ################################################################## */\n\t/** @dev See {getOrderInfo-IGateway}. */\n\tfunction getOrderInfo(bytes32 _orderId) external view returns (Order memory) {\n\t\treturn order[_orderId];\n\t}\n\n\t/** @dev See {isTokenSupported-IGateway}. */\n\tfunction isTokenSupported(address _token) external view returns (bool) {\n\t\tif (_isTokenSupported[_token] == 1) return true;\n\t\treturn false;\n\t}\n\n\t/** @dev See {getFeeDetails-IGateway}. */\n\tfunction getFeeDetails() external view returns (uint64, uint256) {\n\t\treturn (protocolFeePercent, MAX_BPS);\n\t}\n}\n",
  "sourcePath": "/Users/encryption/Downloads/projects/paycrest/paycrestContract/contracts/GatewayV2.sol",
  "compiler": {
    "name": "solc",
    "version": "0.8.18+commit.f18bedfe.Emscripten.clang"
  },
  "schemaVersion": "2.0.1",
  "updatedAt": "2024-06-10T18:09:17.296Z"
}