{
  "_format": "hh-sol-artifact-1",
  "contractName": "PaycrestSettingManager",
  "sourceName": "contracts/PaycrestSettingManager.sol",
  "abi": [
    {
      "anonymous": false,
      "inputs": [
        {
          "indexed": false,
          "internalType": "uint8",
          "name": "version",
          "type": "uint8"
        }
      ],
      "name": "Initialized",
      "type": "event"
    },
    {
      "anonymous": false,
      "inputs": [
        {
          "indexed": true,
          "internalType": "address",
          "name": "previousOwner",
          "type": "address"
        },
        {
          "indexed": true,
          "internalType": "address",
          "name": "newOwner",
          "type": "address"
        }
      ],
      "name": "OwnershipTransferred",
      "type": "event"
    },
    {
      "anonymous": false,
      "inputs": [
        {
          "indexed": false,
          "internalType": "address",
          "name": "treasuryAddress",
          "type": "address"
        }
      ],
      "name": "ProtocolAddressesUpdated",
      "type": "event"
    },
    {
      "anonymous": false,
      "inputs": [
        {
          "indexed": false,
          "internalType": "uint64",
          "name": "protocolFee",
          "type": "uint64"
        }
      ],
      "name": "ProtocolFeesUpdated",
      "type": "event"
    },
    {
      "anonymous": false,
      "inputs": [
        {
          "indexed": false,
          "internalType": "bytes",
          "name": "aggregator",
          "type": "bytes"
        }
      ],
      "name": "SetAggregator",
      "type": "event"
    },
    {
      "anonymous": false,
      "inputs": [
        {
          "indexed": false,
          "internalType": "address",
          "name": "treasuryAddress",
          "type": "address"
        }
      ],
      "name": "SetFeeRecipient",
      "type": "event"
    },
    {
      "anonymous": false,
      "inputs": [
        {
          "indexed": false,
          "internalType": "bytes32",
          "name": "what",
          "type": "bytes32"
        },
        {
          "indexed": false,
          "internalType": "address",
          "name": "value",
          "type": "address"
        },
        {
          "indexed": false,
          "internalType": "bool",
          "name": "status",
          "type": "bool"
        }
      ],
      "name": "SettingManagerBool",
      "type": "event"
    },
    {
      "inputs": [],
      "name": "owner",
      "outputs": [
        {
          "internalType": "address",
          "name": "",
          "type": "address"
        }
      ],
      "stateMutability": "view",
      "type": "function"
    },
    {
      "inputs": [],
      "name": "renounceOwnership",
      "outputs": [],
      "stateMutability": "nonpayable",
      "type": "function"
    },
    {
      "inputs": [
        {
          "internalType": "bytes32",
          "name": "currency",
          "type": "bytes32"
        },
        {
          "components": [
            {
              "internalType": "bytes32",
              "name": "code",
              "type": "bytes32"
            },
            {
              "internalType": "bytes32",
              "name": "name",
              "type": "bytes32"
            }
          ],
          "internalType": "struct SharedStructs.Institution[]",
          "name": "institutions",
          "type": "tuple[]"
        }
      ],
      "name": "setSupportedInstitutions",
      "outputs": [],
      "stateMutability": "nonpayable",
      "type": "function"
    },
    {
      "inputs": [
        {
          "internalType": "bytes32",
          "name": "what",
          "type": "bytes32"
        },
        {
          "internalType": "address",
          "name": "value",
          "type": "address"
        },
        {
          "internalType": "bool",
          "name": "status",
          "type": "bool"
        }
      ],
      "name": "settingManagerBool",
      "outputs": [],
      "stateMutability": "nonpayable",
      "type": "function"
    },
    {
      "inputs": [
        {
          "internalType": "address",
          "name": "newOwner",
          "type": "address"
        }
      ],
      "name": "transferOwnership",
      "outputs": [],
      "stateMutability": "nonpayable",
      "type": "function"
    },
    {
      "inputs": [
        {
          "internalType": "bytes32",
          "name": "what",
          "type": "bytes32"
        },
        {
          "internalType": "address",
          "name": "value",
          "type": "address"
        }
      ],
      "name": "updateProtocolAddresses",
      "outputs": [],
      "stateMutability": "nonpayable",
      "type": "function"
    },
    {
      "inputs": [
        {
          "internalType": "bytes",
          "name": "aggregator",
          "type": "bytes"
        }
      ],
      "name": "updateProtocolAggregator",
      "outputs": [],
      "stateMutability": "nonpayable",
      "type": "function"
    },
    {
      "inputs": [
        {
          "internalType": "uint64",
          "name": "_protocolFeePercent",
          "type": "uint64"
        }
      ],
      "name": "updateProtocolFees",
      "outputs": [],
      "stateMutability": "nonpayable",
      "type": "function"
    }
  ],
  "bytecode": "0x608060405234801561001057600080fd5b506112c6806100206000396000f3fe608060405234801561001057600080fd5b50600436106100885760003560e01c80638da5cb5b1161005b5780638da5cb5b146100eb57806399e3c0b414610109578063cb79455b14610125578063f2fde38b1461014157610088565b8063322008821461008d578063715018a6146100a957806379a0effb146100b357806384630736146100cf575b600080fd5b6100a760048036038101906100a29190610a14565b61015d565b005b6100b1610271565b005b6100cd60048036038101906100c89190610ace565b610285565b005b6100e960048036038101906100e49190610b4e565b61042b565b005b6100f3610496565b6040516101009190610b8a565b60405180910390f35b610123600480360381019061011e9190610bdd565b6104c0565b005b61013f600480360381019061013a9190610c8b565b6105f6565b005b61015b60048036038101906101569190610cd8565b61064d565b005b6101656106d0565b60008151905060005b8181101561026b57609c600085815260200190815260200160002083828151811061019c5761019b610d05565b5b6020026020010151908060018154018082558091505060019003906000526020600020906002020160009091909190915060008201518160000155602082015181600101555050604051806040016040528084838151811061020157610200610d05565b5b602002602001015160200151815260200185815250609d600085848151811061022d5761022c610d05565b5b60200260200101516000015181526020019081526020016000206000820151816000015560208201518160010155905050808060010191505061016e565b50505050565b6102796106d0565b610283600061074e565b565b61028d6106d0565b600073ffffffffffffffffffffffffffffffffffffffff168173ffffffffffffffffffffffffffffffffffffffff16036102fc576040517f08c379a00000000000000000000000000000000000000000000000000000000081526004016102f390610d91565b60405180910390fd5b7f747265617375727900000000000000000000000000000000000000000000000082036103655780606660086101000a81548173ffffffffffffffffffffffffffffffffffffffff021916908373ffffffffffffffffffffffffffffffffffffffff1602179055505b7f61676772656761746f720000000000000000000000000000000000000000000082036103ce5780606760006101000a81548173ffffffffffffffffffffffffffffffffffffffff021916908373ffffffffffffffffffffffffffffffffffffffff1602179055505b7fd8ef77a7d69a6b79f131ecd9aa37060ba0853bbd37cb175ec1abd05738ce27cb606660089054906101000a900473ffffffffffffffffffffffffffffffffffffffff1660405161041f9190610b8a565b60405180910390a15050565b6104336106d0565b80606660006101000a81548167ffffffffffffffff021916908367ffffffffffffffff1602179055507fb94068a4bd2571acee6ac79acc9dcdcf10c31425d35f09e88f154ec520e264468160405161048b9190610dc0565b60405180910390a150565b6000603360009054906101000a900473ffffffffffffffffffffffffffffffffffffffff16905090565b6104c86106d0565b600073ffffffffffffffffffffffffffffffffffffffff168273ffffffffffffffffffffffffffffffffffffffff1603610537576040517f08c379a000000000000000000000000000000000000000000000000000000000815260040161052e90610d91565b60405180910390fd5b7f746f6b656e00000000000000000000000000000000000000000000000000000083036105b65780609b60008473ffffffffffffffffffffffffffffffffffffffff1673ffffffffffffffffffffffffffffffffffffffff16815260200190815260200160002060006101000a81548160ff0219169083151502179055505b7fe22cadcc5ddbc0a185e8920eaa6825bcc06dcd6b432988e7e9912caa59ace9308383836040516105e993929190610df9565b60405180910390a1505050565b6105fe6106d0565b81816068918261060f929190611051565b507f6a6600b7242975868d8321b5e64d0c9f2fcc92eb1af72254a6357be77ee7dcef828260405161064192919061116e565b60405180910390a15050565b6106556106d0565b600073ffffffffffffffffffffffffffffffffffffffff168173ffffffffffffffffffffffffffffffffffffffff16036106c4576040517f08c379a00000000000000000000000000000000000000000000000000000000081526004016106bb90611204565b60405180910390fd5b6106cd8161074e565b50565b6106d8610814565b73ffffffffffffffffffffffffffffffffffffffff166106f6610496565b73ffffffffffffffffffffffffffffffffffffffff161461074c576040517f08c379a000000000000000000000000000000000000000000000000000000000815260040161074390611270565b60405180910390fd5b565b6000603360009054906101000a900473ffffffffffffffffffffffffffffffffffffffff16905081603360006101000a81548173ffffffffffffffffffffffffffffffffffffffff021916908373ffffffffffffffffffffffffffffffffffffffff1602179055508173ffffffffffffffffffffffffffffffffffffffff168173ffffffffffffffffffffffffffffffffffffffff167f8be0079c531659141344cd1fd0a4f28419497f9722a3daafe3b4186f6b6457e060405160405180910390a35050565b600033905090565b6000604051905090565b600080fd5b600080fd5b6000819050919050565b61084381610830565b811461084e57600080fd5b50565b6000813590506108608161083a565b92915050565b600080fd5b6000601f19601f8301169050919050565b7f4e487b7100000000000000000000000000000000000000000000000000000000600052604160045260246000fd5b6108b48261086b565b810181811067ffffffffffffffff821117156108d3576108d261087c565b5b80604052505050565b60006108e661081c565b90506108f282826108ab565b919050565b600067ffffffffffffffff8211156109125761091161087c565b5b602082029050602081019050919050565b600080fd5b600080fd5b60006040828403121561094357610942610928565b5b61094d60406108dc565b9050600061095d84828501610851565b600083015250602061097184828501610851565b60208301525092915050565b600061099061098b846108f7565b6108dc565b905080838252602082019050604084028301858111156109b3576109b2610923565b5b835b818110156109dc57806109c8888261092d565b8452602084019350506040810190506109b5565b5050509392505050565b600082601f8301126109fb576109fa610866565b5b8135610a0b84826020860161097d565b91505092915050565b60008060408385031215610a2b57610a2a610826565b5b6000610a3985828601610851565b925050602083013567ffffffffffffffff811115610a5a57610a5961082b565b5b610a66858286016109e6565b9150509250929050565b600073ffffffffffffffffffffffffffffffffffffffff82169050919050565b6000610a9b82610a70565b9050919050565b610aab81610a90565b8114610ab657600080fd5b50565b600081359050610ac881610aa2565b92915050565b60008060408385031215610ae557610ae4610826565b5b6000610af385828601610851565b9250506020610b0485828601610ab9565b9150509250929050565b600067ffffffffffffffff82169050919050565b610b2b81610b0e565b8114610b3657600080fd5b50565b600081359050610b4881610b22565b92915050565b600060208284031215610b6457610b63610826565b5b6000610b7284828501610b39565b91505092915050565b610b8481610a90565b82525050565b6000602082019050610b9f6000830184610b7b565b92915050565b60008115159050919050565b610bba81610ba5565b8114610bc557600080fd5b50565b600081359050610bd781610bb1565b92915050565b600080600060608486031215610bf657610bf5610826565b5b6000610c0486828701610851565b9350506020610c1586828701610ab9565b9250506040610c2686828701610bc8565b9150509250925092565b600080fd5b60008083601f840112610c4b57610c4a610866565b5b8235905067ffffffffffffffff811115610c6857610c67610c30565b5b602083019150836001820283011115610c8457610c83610923565b5b9250929050565b60008060208385031215610ca257610ca1610826565b5b600083013567ffffffffffffffff811115610cc057610cbf61082b565b5b610ccc85828601610c35565b92509250509250929050565b600060208284031215610cee57610ced610826565b5b6000610cfc84828501610ab9565b91505092915050565b7f4e487b7100000000000000000000000000000000000000000000000000000000600052603260045260246000fd5b600082825260208201905092915050565b7f50617963726573743a207a65726f206164647265737300000000000000000000600082015250565b6000610d7b601683610d34565b9150610d8682610d45565b602082019050919050565b60006020820190508181036000830152610daa81610d6e565b9050919050565b610dba81610b0e565b82525050565b6000602082019050610dd56000830184610db1565b92915050565b610de481610830565b82525050565b610df381610ba5565b82525050565b6000606082019050610e0e6000830186610ddb565b610e1b6020830185610b7b565b610e286040830184610dea565b949350505050565b600082905092915050565b7f4e487b7100000000000000000000000000000000000000000000000000000000600052602260045260246000fd5b60006002820490506001821680610e8257607f821691505b602082108103610e9557610e94610e3b565b5b50919050565b60008190508160005260206000209050919050565b60006020601f8301049050919050565b600082821b905092915050565b600060088302610efd7fffffffffffffffffffffffffffffffffffffffffffffffffffffffffffffffff82610ec0565b610f078683610ec0565b95508019841693508086168417925050509392505050565b6000819050919050565b6000819050919050565b6000610f4e610f49610f4484610f1f565b610f29565b610f1f565b9050919050565b6000819050919050565b610f6883610f33565b610f7c610f7482610f55565b848454610ecd565b825550505050565b600090565b610f91610f84565b610f9c818484610f5f565b505050565b5b81811015610fc057610fb5600082610f89565b600181019050610fa2565b5050565b601f82111561100557610fd681610e9b565b610fdf84610eb0565b81016020851015610fee578190505b611002610ffa85610eb0565b830182610fa1565b50505b505050565b600082821c905092915050565b60006110286000198460080261100a565b1980831691505092915050565b60006110418383611017565b9150826002028217905092915050565b61105b8383610e30565b67ffffffffffffffff8111156110745761107361087c565b5b61107e8254610e6a565b611089828285610fc4565b6000601f8311600181146110b857600084156110a6578287013590505b6110b08582611035565b865550611118565b601f1984166110c686610e9b565b60005b828110156110ee578489013582556001820191506020850194506020810190506110c9565b8683101561110b5784890135611107601f891682611017565b8355505b6001600288020188555050505b50505050505050565b600082825260208201905092915050565b82818337600083830152505050565b600061114d8385611121565b935061115a838584611132565b6111638361086b565b840190509392505050565b60006020820190508181036000830152611189818486611141565b90509392505050565b7f4f776e61626c653a206e6577206f776e657220697320746865207a65726f206160008201527f6464726573730000000000000000000000000000000000000000000000000000602082015250565b60006111ee602683610d34565b91506111f982611192565b604082019050919050565b6000602082019050818103600083015261121d816111e1565b9050919050565b7f4f776e61626c653a2063616c6c6572206973206e6f7420746865206f776e6572600082015250565b600061125a602083610d34565b915061126582611224565b602082019050919050565b600060208201905081810360008301526112898161124d565b905091905056fea264697066735822122082dbc8b69f78264eabb9f71ca51f01f910551a57d38f8436e680f46621f14ff664736f6c63430008120033",
  "linkReferences": {},
  "deployedLinkReferences": {}
}