{
  "_format": "hh-sol-artifact-1",
  "contractName": "PaycrestSettingManager",
  "sourceName": "contracts/PaycrestSettingManager.sol",
  "abi": [
    {
      "anonymous": false,
      "inputs": [
        {
          "indexed": false,
          "internalType": "uint8",
          "name": "version",
          "type": "uint8"
        }
      ],
      "name": "Initialized",
      "type": "event"
    },
    {
      "anonymous": false,
      "inputs": [
        {
          "indexed": true,
          "internalType": "address",
          "name": "previousOwner",
          "type": "address"
        },
        {
          "indexed": true,
          "internalType": "address",
          "name": "newOwner",
          "type": "address"
        }
      ],
      "name": "OwnershipTransferStarted",
      "type": "event"
    },
    {
      "anonymous": false,
      "inputs": [
        {
          "indexed": true,
          "internalType": "address",
          "name": "previousOwner",
          "type": "address"
        },
        {
          "indexed": true,
          "internalType": "address",
          "name": "newOwner",
          "type": "address"
        }
      ],
      "name": "OwnershipTransferred",
      "type": "event"
    },
    {
      "anonymous": false,
      "inputs": [
        {
          "indexed": true,
          "internalType": "bytes32",
          "name": "what",
          "type": "bytes32"
        },
        {
          "indexed": true,
          "internalType": "address",
          "name": "treasuryAddress",
          "type": "address"
        }
      ],
      "name": "ProtocolAddressUpdated",
      "type": "event"
    },
    {
      "anonymous": false,
      "inputs": [
        {
          "indexed": false,
          "internalType": "uint64",
          "name": "protocolFee",
          "type": "uint64"
        }
      ],
      "name": "ProtocolFeesUpdated",
      "type": "event"
    },
    {
      "anonymous": false,
      "inputs": [
        {
          "indexed": true,
          "internalType": "bytes",
          "name": "aggregator",
          "type": "bytes"
        }
      ],
      "name": "SetAggregator",
      "type": "event"
    },
    {
      "anonymous": false,
      "inputs": [
        {
          "indexed": true,
          "internalType": "address",
          "name": "treasuryAddress",
          "type": "address"
        }
      ],
      "name": "SetFeeRecipient",
      "type": "event"
    },
    {
      "anonymous": false,
      "inputs": [
        {
          "indexed": true,
          "internalType": "bytes32",
          "name": "what",
          "type": "bytes32"
        },
        {
          "indexed": true,
          "internalType": "address",
          "name": "value",
          "type": "address"
        },
        {
          "indexed": false,
          "internalType": "uint256",
          "name": "status",
          "type": "uint256"
        }
      ],
      "name": "SettingManagerBool",
      "type": "event"
    },
    {
      "anonymous": false,
      "inputs": [
        {
          "indexed": true,
          "internalType": "bytes32",
          "name": "currency",
          "type": "bytes32"
        },
        {
          "components": [
            {
              "internalType": "bytes32",
              "name": "code",
              "type": "bytes32"
            },
            {
              "internalType": "bytes32",
              "name": "name",
              "type": "bytes32"
            }
          ],
          "indexed": false,
          "internalType": "struct SharedStructs.Institution[]",
          "name": "institutions",
          "type": "tuple[]"
        }
      ],
      "name": "SupportedInstitutionsUpdated",
      "type": "event"
    },
    {
      "inputs": [],
      "name": "acceptOwnership",
      "outputs": [],
      "stateMutability": "nonpayable",
      "type": "function"
    },
    {
      "inputs": [],
      "name": "owner",
      "outputs": [
        {
          "internalType": "address",
          "name": "",
          "type": "address"
        }
      ],
      "stateMutability": "view",
      "type": "function"
    },
    {
      "inputs": [],
      "name": "pendingOwner",
      "outputs": [
        {
          "internalType": "address",
          "name": "",
          "type": "address"
        }
      ],
      "stateMutability": "view",
      "type": "function"
    },
    {
      "inputs": [],
      "name": "renounceOwnership",
      "outputs": [],
      "stateMutability": "nonpayable",
      "type": "function"
    },
    {
      "inputs": [
        {
          "internalType": "bytes32",
          "name": "currency",
          "type": "bytes32"
        },
        {
          "components": [
            {
              "internalType": "bytes32",
              "name": "code",
              "type": "bytes32"
            },
            {
              "internalType": "bytes32",
              "name": "name",
              "type": "bytes32"
            }
          ],
          "internalType": "struct SharedStructs.Institution[]",
          "name": "institutions",
          "type": "tuple[]"
        }
      ],
      "name": "setSupportedInstitutions",
      "outputs": [],
      "stateMutability": "nonpayable",
      "type": "function"
    },
    {
      "inputs": [
        {
          "internalType": "bytes32",
          "name": "what",
          "type": "bytes32"
        },
        {
          "internalType": "address",
          "name": "value",
          "type": "address"
        },
        {
          "internalType": "uint256",
          "name": "status",
          "type": "uint256"
        }
      ],
      "name": "settingManagerBool",
      "outputs": [],
      "stateMutability": "nonpayable",
      "type": "function"
    },
    {
      "inputs": [
        {
          "internalType": "address",
          "name": "newOwner",
          "type": "address"
        }
      ],
      "name": "transferOwnership",
      "outputs": [],
      "stateMutability": "nonpayable",
      "type": "function"
    },
    {
      "inputs": [
        {
          "internalType": "bytes32",
          "name": "what",
          "type": "bytes32"
        },
        {
          "internalType": "address",
          "name": "value",
          "type": "address"
        }
      ],
      "name": "updateProtocolAddress",
      "outputs": [],
      "stateMutability": "nonpayable",
      "type": "function"
    },
    {
      "inputs": [
        {
          "internalType": "bytes",
          "name": "aggregator",
          "type": "bytes"
        }
      ],
      "name": "updateProtocolAggregator",
      "outputs": [],
      "stateMutability": "nonpayable",
      "type": "function"
    },
    {
      "inputs": [
        {
          "internalType": "uint64",
          "name": "_protocolFeePercent",
          "type": "uint64"
        }
      ],
      "name": "updateProtocolFees",
      "outputs": [],
      "stateMutability": "nonpayable",
      "type": "function"
    }
  ],
  "bytecode": "0x608060405234801561001057600080fd5b5061167f806100206000396000f3fe608060405234801561001057600080fd5b506004361061009e5760003560e01c80638da5cb5b116100665780638da5cb5b1461010b578063cb79455b14610129578063cd99240014610145578063e30c397814610161578063f2fde38b1461017f5761009e565b806332200882146100a357806340ebc677146100bf578063715018a6146100db57806379ba5097146100e557806384630736146100ef575b600080fd5b6100bd60048036038101906100b89190610c55565b61019b565b005b6100d960048036038101906100d49190610d0f565b610310565b005b6100e36104a1565b005b6100ed6104b5565b005b61010960048036038101906101049190610d8f565b610542565b005b6101136105ad565b6040516101209190610dcb565b60405180910390f35b610143600480360381019061013e9190610e41565b6105d7565b005b61015f600480360381019061015a9190610ec4565b610639565b005b6101696107be565b6040516101769190610dcb565b60405180910390f35b61019960048036038101906101949190610f17565b6107e8565b005b6101a3610895565b60ce600083815260200190815260200160002060006101c29190610a12565b60005b81518110156102c15760ce60008481526020019081526020016000208282815181106101f4576101f3610f44565b5b6020026020010151908060018154018082558091505060019003906000526020600020906002020160009091909190915060008201518160000155602082015181600101555050604051806040016040528083838151811061025957610258610f44565b5b60200260200101516020015181526020018481525060cf600084848151811061028557610284610f44565b5b602002602001015160000151815260200190815260200160002060008201518160000155602082015181600101559050508060010190506101c5565b50817f58f3a30ec15a8d3e09fa65f9ef10219bc7a9a99d872a4ed895c37c2e761ac2ac60ce600085815260200190815260200160002060405161030491906110ad565b60405180910390a25050565b610318610895565b600073ffffffffffffffffffffffffffffffffffffffff168173ffffffffffffffffffffffffffffffffffffffff1603610387576040517f08c379a000000000000000000000000000000000000000000000000000000000815260040161037e9061112c565b60405180910390fd5b7f747265617375727900000000000000000000000000000000000000000000000082036103f05780609860086101000a81548173ffffffffffffffffffffffffffffffffffffffff021916908373ffffffffffffffffffffffffffffffffffffffff1602179055505b7f61676772656761746f720000000000000000000000000000000000000000000082036104595780609960006101000a81548173ffffffffffffffffffffffffffffffffffffffff021916908373ffffffffffffffffffffffffffffffffffffffff1602179055505b8073ffffffffffffffffffffffffffffffffffffffff16827fbbc5b96e57cfecb3dbeeadf92e87f15e58e64fcd75cbe256dcc5d9ef2e51e8a460405160405180910390a35050565b6104a9610895565b6104b36000610913565b565b60006104bf610944565b90508073ffffffffffffffffffffffffffffffffffffffff166104e06107be565b73ffffffffffffffffffffffffffffffffffffffff1614610536576040517f08c379a000000000000000000000000000000000000000000000000000000000815260040161052d906111be565b60405180910390fd5b61053f81610913565b50565b61054a610895565b80609860006101000a81548167ffffffffffffffff021916908367ffffffffffffffff1602179055507fb94068a4bd2571acee6ac79acc9dcdcf10c31425d35f09e88f154ec520e26446816040516105a291906111ed565b60405180910390a150565b6000603360009054906101000a900473ffffffffffffffffffffffffffffffffffffffff16905090565b6105df610895565b8181609a91826105f092919061141f565b50818160405161060192919061152e565b60405180910390207f6a6600b7242975868d8321b5e64d0c9f2fcc92eb1af72254a6357be77ee7dcef60405160405180910390a25050565b610641610895565b600073ffffffffffffffffffffffffffffffffffffffff168273ffffffffffffffffffffffffffffffffffffffff16036106b0576040517f08c379a00000000000000000000000000000000000000000000000000000000081526004016106a79061112c565b60405180910390fd5b60018114806106bf5750600281145b6106fe576040517f08c379a00000000000000000000000000000000000000000000000000000000081526004016106f590611593565b60405180910390fd5b7f746f6b656e00000000000000000000000000000000000000000000000000000083036107b9578060cd60008473ffffffffffffffffffffffffffffffffffffffff1673ffffffffffffffffffffffffffffffffffffffff168152602001908152602001600020819055508173ffffffffffffffffffffffffffffffffffffffff16837fcfa976492af7c14a916cc3a239f4c9c75bbd7f5f0e398beb41d892c7eeccae4c836040516107b091906115c2565b60405180910390a35b505050565b6000606560009054906101000a900473ffffffffffffffffffffffffffffffffffffffff16905090565b6107f0610895565b80606560006101000a81548173ffffffffffffffffffffffffffffffffffffffff021916908373ffffffffffffffffffffffffffffffffffffffff1602179055508073ffffffffffffffffffffffffffffffffffffffff166108506105ad565b73ffffffffffffffffffffffffffffffffffffffff167f38d16b8cac22d99fc7c124b9cd0de2d3fa1faef420bfe791d8c362d765e2270060405160405180910390a350565b61089d610944565b73ffffffffffffffffffffffffffffffffffffffff166108bb6105ad565b73ffffffffffffffffffffffffffffffffffffffff1614610911576040517f08c379a000000000000000000000000000000000000000000000000000000000815260040161090890611629565b60405180910390fd5b565b606560006101000a81549073ffffffffffffffffffffffffffffffffffffffff02191690556109418161094c565b50565b600033905090565b6000603360009054906101000a900473ffffffffffffffffffffffffffffffffffffffff16905081603360006101000a81548173ffffffffffffffffffffffffffffffffffffffff021916908373ffffffffffffffffffffffffffffffffffffffff1602179055508173ffffffffffffffffffffffffffffffffffffffff168173ffffffffffffffffffffffffffffffffffffffff167f8be0079c531659141344cd1fd0a4f28419497f9722a3daafe3b4186f6b6457e060405160405180910390a35050565b5080546000825560020290600052602060002090810190610a339190610a36565b50565b5b80821115610a5957600080820160009055600182016000905550600201610a37565b5090565b6000604051905090565b600080fd5b600080fd5b6000819050919050565b610a8481610a71565b8114610a8f57600080fd5b50565b600081359050610aa181610a7b565b92915050565b600080fd5b6000601f19601f8301169050919050565b7f4e487b7100000000000000000000000000000000000000000000000000000000600052604160045260246000fd5b610af582610aac565b810181811067ffffffffffffffff82111715610b1457610b13610abd565b5b80604052505050565b6000610b27610a5d565b9050610b338282610aec565b919050565b600067ffffffffffffffff821115610b5357610b52610abd565b5b602082029050602081019050919050565b600080fd5b600080fd5b600060408284031215610b8457610b83610b69565b5b610b8e6040610b1d565b90506000610b9e84828501610a92565b6000830152506020610bb284828501610a92565b60208301525092915050565b6000610bd1610bcc84610b38565b610b1d565b90508083825260208201905060408402830185811115610bf457610bf3610b64565b5b835b81811015610c1d5780610c098882610b6e565b845260208401935050604081019050610bf6565b5050509392505050565b600082601f830112610c3c57610c3b610aa7565b5b8135610c4c848260208601610bbe565b91505092915050565b60008060408385031215610c6c57610c6b610a67565b5b6000610c7a85828601610a92565b925050602083013567ffffffffffffffff811115610c9b57610c9a610a6c565b5b610ca785828601610c27565b9150509250929050565b600073ffffffffffffffffffffffffffffffffffffffff82169050919050565b6000610cdc82610cb1565b9050919050565b610cec81610cd1565b8114610cf757600080fd5b50565b600081359050610d0981610ce3565b92915050565b60008060408385031215610d2657610d25610a67565b5b6000610d3485828601610a92565b9250506020610d4585828601610cfa565b9150509250929050565b600067ffffffffffffffff82169050919050565b610d6c81610d4f565b8114610d7757600080fd5b50565b600081359050610d8981610d63565b92915050565b600060208284031215610da557610da4610a67565b5b6000610db384828501610d7a565b91505092915050565b610dc581610cd1565b82525050565b6000602082019050610de06000830184610dbc565b92915050565b600080fd5b60008083601f840112610e0157610e00610aa7565b5b8235905067ffffffffffffffff811115610e1e57610e1d610de6565b5b602083019150836001820283011115610e3a57610e39610b64565b5b9250929050565b60008060208385031215610e5857610e57610a67565b5b600083013567ffffffffffffffff811115610e7657610e75610a6c565b5b610e8285828601610deb565b92509250509250929050565b6000819050919050565b610ea181610e8e565b8114610eac57600080fd5b50565b600081359050610ebe81610e98565b92915050565b600080600060608486031215610edd57610edc610a67565b5b6000610eeb86828701610a92565b9350506020610efc86828701610cfa565b9250506040610f0d86828701610eaf565b9150509250925092565b600060208284031215610f2d57610f2c610a67565b5b6000610f3b84828501610cfa565b91505092915050565b7f4e487b7100000000000000000000000000000000000000000000000000000000600052603260045260246000fd5b600081549050919050565b600082825260208201905092915050565b60008190508160005260206000209050919050565b60008160001c9050919050565b6000819050919050565b6000610fce610fc983610fa4565b610fb1565b9050919050565b610fde81610a71565b82525050565b604082016000808301549050610ff981610fbb565b6110066000860182610fd5565b506001830154905061101781610fbb565b6110246020860182610fd5565b5050505050565b60006110378383610fe4565b60408301905092915050565b6000600282019050919050565b600061105b82610f73565b6110658185610f7e565b935061107083610f8f565b8060005b838110156110a05781611087888261102b565b975061109283611043565b925050600181019050611074565b5085935050505092915050565b600060208201905081810360008301526110c78184611050565b905092915050565b600082825260208201905092915050565b7f50617963726573743a207a65726f206164647265737300000000000000000000600082015250565b60006111166016836110cf565b9150611121826110e0565b602082019050919050565b6000602082019050818103600083015261114581611109565b9050919050565b7f4f776e61626c6532537465703a2063616c6c6572206973206e6f74207468652060008201527f6e6577206f776e65720000000000000000000000000000000000000000000000602082015250565b60006111a86029836110cf565b91506111b38261114c565b604082019050919050565b600060208201905081810360008301526111d78161119b565b9050919050565b6111e781610d4f565b82525050565b600060208201905061120260008301846111de565b92915050565b600082905092915050565b7f4e487b7100000000000000000000000000000000000000000000000000000000600052602260045260246000fd5b6000600282049050600182168061125a57607f821691505b60208210810361126d5761126c611213565b5b50919050565b60008190508160005260206000209050919050565b60006020601f8301049050919050565b600082821b905092915050565b6000600883026112d57fffffffffffffffffffffffffffffffffffffffffffffffffffffffffffffffff82611298565b6112df8683611298565b95508019841693508086168417925050509392505050565b6000819050919050565b600061131c61131761131284610e8e565b6112f7565b610e8e565b9050919050565b6000819050919050565b61133683611301565b61134a61134282611323565b8484546112a5565b825550505050565b600090565b61135f611352565b61136a81848461132d565b505050565b5b8181101561138e57611383600082611357565b600181019050611370565b5050565b601f8211156113d3576113a481611273565b6113ad84611288565b810160208510156113bc578190505b6113d06113c885611288565b83018261136f565b50505b505050565b600082821c905092915050565b60006113f6600019846008026113d8565b1980831691505092915050565b600061140f83836113e5565b9150826002028217905092915050565b6114298383611208565b67ffffffffffffffff81111561144257611441610abd565b5b61144c8254611242565b611457828285611392565b6000601f8311600181146114865760008415611474578287013590505b61147e8582611403565b8655506114e6565b601f19841661149486611273565b60005b828110156114bc57848901358255600182019150602085019450602081019050611497565b868310156114d957848901356114d5601f8916826113e5565b8355505b6001600288020188555050505b50505050505050565b600081905092915050565b82818337600083830152505050565b600061151583856114ef565b93506115228385846114fa565b82840190509392505050565b600061153b828486611509565b91508190509392505050565b7f50617963726573743a20696e76616c6964207374617475730000000000000000600082015250565b600061157d6018836110cf565b915061158882611547565b602082019050919050565b600060208201905081810360008301526115ac81611570565b9050919050565b6115bc81610e8e565b82525050565b60006020820190506115d760008301846115b3565b92915050565b7f4f776e61626c653a2063616c6c6572206973206e6f7420746865206f776e6572600082015250565b60006116136020836110cf565b915061161e826115dd565b602082019050919050565b6000602082019050818103600083015261164281611606565b905091905056fea2646970667358221220d85397adb2d6d8b1021b51e2ed438cc9abca0696bf4dc0e69d15293cfc95711364736f6c63430008120033",
  "linkReferences": {},
  "deployedLinkReferences": {}
}