{
  "_format": "hh-sol-artifact-1",
  "contractName": "PaycrestSettingManager",
  "sourceName": "contracts/PaycrestSettingManager.sol",
  "abi": [
    {
      "anonymous": false,
      "inputs": [
        {
          "indexed": false,
          "internalType": "uint8",
          "name": "version",
          "type": "uint8"
        }
      ],
      "name": "Initialized",
      "type": "event"
    },
    {
      "anonymous": false,
      "inputs": [
        {
          "indexed": true,
          "internalType": "address",
          "name": "previousOwner",
          "type": "address"
        },
        {
          "indexed": true,
          "internalType": "address",
          "name": "newOwner",
          "type": "address"
        }
      ],
      "name": "OwnershipTransferred",
      "type": "event"
    },
    {
      "anonymous": false,
      "inputs": [
        {
          "indexed": false,
          "internalType": "uint128",
          "name": "protocolFee",
          "type": "uint128"
        },
        {
          "indexed": false,
          "internalType": "uint128",
          "name": "validatorFeePercent",
          "type": "uint128"
        }
      ],
      "name": "PaycrestFees",
      "type": "event"
    },
    {
      "anonymous": false,
      "inputs": [
        {
          "indexed": false,
          "internalType": "bytes",
          "name": "aggregator",
          "type": "bytes"
        }
      ],
      "name": "SetAggregator",
      "type": "event"
    },
    {
      "anonymous": false,
      "inputs": [
        {
          "indexed": false,
          "internalType": "address",
          "name": "feeRecipient",
          "type": "address"
        }
      ],
      "name": "SetFeeRecipient",
      "type": "event"
    },
    {
      "anonymous": false,
      "inputs": [
        {
          "indexed": false,
          "internalType": "bytes32",
          "name": "what",
          "type": "bytes32"
        },
        {
          "indexed": false,
          "internalType": "address",
          "name": "value",
          "type": "address"
        },
        {
          "indexed": false,
          "internalType": "bool",
          "name": "status",
          "type": "bool"
        }
      ],
      "name": "SettingManagerBool",
      "type": "event"
    },
    {
      "inputs": [],
      "name": "owner",
      "outputs": [
        {
          "internalType": "address",
          "name": "",
          "type": "address"
        }
      ],
      "stateMutability": "view",
      "type": "function"
    },
    {
      "inputs": [],
      "name": "renounceOwnership",
      "outputs": [],
      "stateMutability": "nonpayable",
      "type": "function"
    },
    {
      "inputs": [
        {
          "internalType": "bytes32",
          "name": "currency",
          "type": "bytes32"
        },
        {
          "components": [
            {
              "internalType": "bytes32",
              "name": "code",
              "type": "bytes32"
            },
            {
              "internalType": "bytes32",
              "name": "name",
              "type": "bytes32"
            }
          ],
          "internalType": "struct PaycrestSettingManager.Institution[]",
          "name": "institutions",
          "type": "tuple[]"
        }
      ],
      "name": "setSupportedInstitutions",
      "outputs": [],
      "stateMutability": "nonpayable",
      "type": "function"
    },
    {
      "inputs": [
        {
          "internalType": "bytes32",
          "name": "what",
          "type": "bytes32"
        },
        {
          "internalType": "address",
          "name": "value",
          "type": "address"
        },
        {
          "internalType": "bool",
          "name": "status",
          "type": "bool"
        }
      ],
      "name": "settingManagerBool",
      "outputs": [],
      "stateMutability": "nonpayable",
      "type": "function"
    },
    {
      "inputs": [
        {
          "internalType": "address",
          "name": "newOwner",
          "type": "address"
        }
      ],
      "name": "transferOwnership",
      "outputs": [],
      "stateMutability": "nonpayable",
      "type": "function"
    },
    {
      "inputs": [
        {
          "internalType": "bytes32",
          "name": "what",
          "type": "bytes32"
        },
        {
          "internalType": "address",
          "name": "value",
          "type": "address"
        }
      ],
      "name": "updateProtocolAddresses",
      "outputs": [],
      "stateMutability": "nonpayable",
      "type": "function"
    },
    {
      "inputs": [
        {
          "internalType": "bytes",
          "name": "aggregator",
          "type": "bytes"
        }
      ],
      "name": "updateProtocolAggregator",
      "outputs": [],
      "stateMutability": "nonpayable",
      "type": "function"
    },
    {
      "inputs": [
        {
          "internalType": "uint128",
          "name": "_protocolFeePercent",
          "type": "uint128"
        },
        {
          "internalType": "uint128",
          "name": "_validatorFeePercent",
          "type": "uint128"
        }
      ],
      "name": "updateProtocolFees",
      "outputs": [],
      "stateMutability": "nonpayable",
      "type": "function"
    }
  ],
  "bytecode": "0x608060405234801561001057600080fd5b50611361806100206000396000f3fe608060405234801561001057600080fd5b50600436106100885760003560e01c806399e3c0b41161005b57806399e3c0b4146100ed578063cb79455b14610109578063f2fde38b14610125578063f5326b191461014157610088565b8063322008821461008d578063715018a6146100a957806379a0effb146100b35780638da5cb5b146100cf575b600080fd5b6100a760048036038101906100a29190610a86565b61015d565b005b6100b1610271565b005b6100cd60048036038101906100c89190610b40565b610285565b005b6100d76103d2565b6040516100e49190610b8f565b60405180910390f35b61010760048036038101906101029190610be2565b6103fc565b005b610123600480360381019061011e9190610c90565b6105b1565b005b61013f600480360381019061013a9190610cdd565b610608565b005b61015b60048036038101906101569190610d52565b61068b565b005b610165610742565b60008151905060005b8181101561026b57609e600085815260200190815260200160002083828151811061019c5761019b610d92565b5b6020026020010151908060018154018082558091505060019003906000526020600020906002020160009091909190915060008201518160000155602082015181600101555050604051806040016040528084838151811061020157610200610d92565b5b602002602001015160200151815260200185815250609f600085848151811061022d5761022c610d92565b5b60200260200101516000015181526020019081526020016000206000820151816000015560208201518160010155905050808060010191505061016e565b50505050565b610279610742565b61028360006107c0565b565b61028d610742565b600073ffffffffffffffffffffffffffffffffffffffff168173ffffffffffffffffffffffffffffffffffffffff16036102fc576040517f08c379a00000000000000000000000000000000000000000000000000000000081526004016102f390610e1e565b60405180910390fd5b7f666565000000000000000000000000000000000000000000000000000000000082036103655780606760006101000a81548173ffffffffffffffffffffffffffffffffffffffff021916908373ffffffffffffffffffffffffffffffffffffffff1602179055505b7f61676772656761746f720000000000000000000000000000000000000000000082036103ce5780606860006101000a81548173ffffffffffffffffffffffffffffffffffffffff021916908373ffffffffffffffffffffffffffffffffffffffff1602179055505b5050565b6000603360009054906101000a900473ffffffffffffffffffffffffffffffffffffffff16905090565b610404610742565b600073ffffffffffffffffffffffffffffffffffffffff168273ffffffffffffffffffffffffffffffffffffffff1603610473576040517f08c379a000000000000000000000000000000000000000000000000000000000815260040161046a90610e1e565b60405180910390fd5b7f746f6b656e00000000000000000000000000000000000000000000000000000083036104f25780609c60008473ffffffffffffffffffffffffffffffffffffffff1673ffffffffffffffffffffffffffffffffffffffff16815260200190815260200160002060006101000a81548160ff0219169083151502179055505b7f77686974656c697374000000000000000000000000000000000000000000000083036105715780609d60008473ffffffffffffffffffffffffffffffffffffffff1673ffffffffffffffffffffffffffffffffffffffff16815260200190815260200160002060006101000a81548160ff0219169083151502179055505b7fe22cadcc5ddbc0a185e8920eaa6825bcc06dcd6b432988e7e9912caa59ace9308383836040516105a493929190610e5c565b60405180910390a1505050565b6105b9610742565b8181606991826105ca9291906110b4565b507f6a6600b7242975868d8321b5e64d0c9f2fcc92eb1af72254a6357be77ee7dcef82826040516105fc9291906111d1565b60405180910390a15050565b610610610742565b600073ffffffffffffffffffffffffffffffffffffffff168173ffffffffffffffffffffffffffffffffffffffff160361067f576040517f08c379a000000000000000000000000000000000000000000000000000000000815260040161067690611267565b60405180910390fd5b610688816107c0565b50565b610693610742565b81606660006101000a8154816fffffffffffffffffffffffffffffffff02191690836fffffffffffffffffffffffffffffffff16021790555080606660106101000a8154816fffffffffffffffffffffffffffffffff02191690836fffffffffffffffffffffffffffffffff1602179055507fe38926c5806b98a6fd00c5d791a36fbd196537fe48d11c45c9f1d0acd1ea74df8282604051610736929190611296565b60405180910390a15050565b61074a610886565b73ffffffffffffffffffffffffffffffffffffffff166107686103d2565b73ffffffffffffffffffffffffffffffffffffffff16146107be576040517f08c379a00000000000000000000000000000000000000000000000000000000081526004016107b59061130b565b60405180910390fd5b565b6000603360009054906101000a900473ffffffffffffffffffffffffffffffffffffffff16905081603360006101000a81548173ffffffffffffffffffffffffffffffffffffffff021916908373ffffffffffffffffffffffffffffffffffffffff1602179055508173ffffffffffffffffffffffffffffffffffffffff168173ffffffffffffffffffffffffffffffffffffffff167f8be0079c531659141344cd1fd0a4f28419497f9722a3daafe3b4186f6b6457e060405160405180910390a35050565b600033905090565b6000604051905090565b600080fd5b600080fd5b6000819050919050565b6108b5816108a2565b81146108c057600080fd5b50565b6000813590506108d2816108ac565b92915050565b600080fd5b6000601f19601f8301169050919050565b7f4e487b7100000000000000000000000000000000000000000000000000000000600052604160045260246000fd5b610926826108dd565b810181811067ffffffffffffffff82111715610945576109446108ee565b5b80604052505050565b600061095861088e565b9050610964828261091d565b919050565b600067ffffffffffffffff821115610984576109836108ee565b5b602082029050602081019050919050565b600080fd5b600080fd5b6000604082840312156109b5576109b461099a565b5b6109bf604061094e565b905060006109cf848285016108c3565b60008301525060206109e3848285016108c3565b60208301525092915050565b6000610a026109fd84610969565b61094e565b90508083825260208201905060408402830185811115610a2557610a24610995565b5b835b81811015610a4e5780610a3a888261099f565b845260208401935050604081019050610a27565b5050509392505050565b600082601f830112610a6d57610a6c6108d8565b5b8135610a7d8482602086016109ef565b91505092915050565b60008060408385031215610a9d57610a9c610898565b5b6000610aab858286016108c3565b925050602083013567ffffffffffffffff811115610acc57610acb61089d565b5b610ad885828601610a58565b9150509250929050565b600073ffffffffffffffffffffffffffffffffffffffff82169050919050565b6000610b0d82610ae2565b9050919050565b610b1d81610b02565b8114610b2857600080fd5b50565b600081359050610b3a81610b14565b92915050565b60008060408385031215610b5757610b56610898565b5b6000610b65858286016108c3565b9250506020610b7685828601610b2b565b9150509250929050565b610b8981610b02565b82525050565b6000602082019050610ba46000830184610b80565b92915050565b60008115159050919050565b610bbf81610baa565b8114610bca57600080fd5b50565b600081359050610bdc81610bb6565b92915050565b600080600060608486031215610bfb57610bfa610898565b5b6000610c09868287016108c3565b9350506020610c1a86828701610b2b565b9250506040610c2b86828701610bcd565b9150509250925092565b600080fd5b60008083601f840112610c5057610c4f6108d8565b5b8235905067ffffffffffffffff811115610c6d57610c6c610c35565b5b602083019150836001820283011115610c8957610c88610995565b5b9250929050565b60008060208385031215610ca757610ca6610898565b5b600083013567ffffffffffffffff811115610cc557610cc461089d565b5b610cd185828601610c3a565b92509250509250929050565b600060208284031215610cf357610cf2610898565b5b6000610d0184828501610b2b565b91505092915050565b60006fffffffffffffffffffffffffffffffff82169050919050565b610d2f81610d0a565b8114610d3a57600080fd5b50565b600081359050610d4c81610d26565b92915050565b60008060408385031215610d6957610d68610898565b5b6000610d7785828601610d3d565b9250506020610d8885828601610d3d565b9150509250929050565b7f4e487b7100000000000000000000000000000000000000000000000000000000600052603260045260246000fd5b600082825260208201905092915050565b7f50617963726573743a207a65726f206164647265737300000000000000000000600082015250565b6000610e08601683610dc1565b9150610e1382610dd2565b602082019050919050565b60006020820190508181036000830152610e3781610dfb565b9050919050565b610e47816108a2565b82525050565b610e5681610baa565b82525050565b6000606082019050610e716000830186610e3e565b610e7e6020830185610b80565b610e8b6040830184610e4d565b949350505050565b600082905092915050565b7f4e487b7100000000000000000000000000000000000000000000000000000000600052602260045260246000fd5b60006002820490506001821680610ee557607f821691505b602082108103610ef857610ef7610e9e565b5b50919050565b60008190508160005260206000209050919050565b60006020601f8301049050919050565b600082821b905092915050565b600060088302610f607fffffffffffffffffffffffffffffffffffffffffffffffffffffffffffffffff82610f23565b610f6a8683610f23565b95508019841693508086168417925050509392505050565b6000819050919050565b6000819050919050565b6000610fb1610fac610fa784610f82565b610f8c565b610f82565b9050919050565b6000819050919050565b610fcb83610f96565b610fdf610fd782610fb8565b848454610f30565b825550505050565b600090565b610ff4610fe7565b610fff818484610fc2565b505050565b5b8181101561102357611018600082610fec565b600181019050611005565b5050565b601f8211156110685761103981610efe565b61104284610f13565b81016020851015611051578190505b61106561105d85610f13565b830182611004565b50505b505050565b600082821c905092915050565b600061108b6000198460080261106d565b1980831691505092915050565b60006110a4838361107a565b9150826002028217905092915050565b6110be8383610e93565b67ffffffffffffffff8111156110d7576110d66108ee565b5b6110e18254610ecd565b6110ec828285611027565b6000601f83116001811461111b5760008415611109578287013590505b6111138582611098565b86555061117b565b601f19841661112986610efe565b60005b828110156111515784890135825560018201915060208501945060208101905061112c565b8683101561116e578489013561116a601f89168261107a565b8355505b6001600288020188555050505b50505050505050565b600082825260208201905092915050565b82818337600083830152505050565b60006111b08385611184565b93506111bd838584611195565b6111c6836108dd565b840190509392505050565b600060208201905081810360008301526111ec8184866111a4565b90509392505050565b7f4f776e61626c653a206e6577206f776e657220697320746865207a65726f206160008201527f6464726573730000000000000000000000000000000000000000000000000000602082015250565b6000611251602683610dc1565b915061125c826111f5565b604082019050919050565b6000602082019050818103600083015261128081611244565b9050919050565b61129081610d0a565b82525050565b60006040820190506112ab6000830185611287565b6112b86020830184611287565b9392505050565b7f4f776e61626c653a2063616c6c6572206973206e6f7420746865206f776e6572600082015250565b60006112f5602083610dc1565b9150611300826112bf565b602082019050919050565b60006020820190508181036000830152611324816112e8565b905091905056fea2646970667358221220519d0c70788b99a2d1848dfa65b13d3a2ef8458e73293529a114706c7123d96664736f6c63430008120033",
  "linkReferences": {},
  "deployedLinkReferences": {}
}