{
  "_format": "hh-sol-artifact-1",
  "contractName": "PaycrestSettingManager",
  "sourceName": "contracts/PaycrestSettingManager.sol",
  "abi": [
    {
      "anonymous": false,
      "inputs": [
        {
          "indexed": false,
          "internalType": "uint8",
          "name": "version",
          "type": "uint8"
        }
      ],
      "name": "Initialized",
      "type": "event"
    },
    {
      "anonymous": false,
      "inputs": [
        {
          "indexed": true,
          "internalType": "address",
          "name": "previousOwner",
          "type": "address"
        },
        {
          "indexed": true,
          "internalType": "address",
          "name": "newOwner",
          "type": "address"
        }
      ],
      "name": "OwnershipTransferred",
      "type": "event"
    },
    {
      "anonymous": false,
      "inputs": [
        {
          "indexed": false,
          "internalType": "address",
          "name": "treasuryAddress",
          "type": "address"
        }
      ],
      "name": "ProtocolAddressesUpdated",
      "type": "event"
    },
    {
      "anonymous": false,
      "inputs": [
        {
          "indexed": false,
          "internalType": "uint64",
          "name": "protocolFee",
          "type": "uint64"
        }
      ],
      "name": "ProtocolFeesUpdated",
      "type": "event"
    },
    {
      "anonymous": false,
      "inputs": [
        {
          "indexed": false,
          "internalType": "bytes",
          "name": "aggregator",
          "type": "bytes"
        }
      ],
      "name": "SetAggregator",
      "type": "event"
    },
    {
      "anonymous": false,
      "inputs": [
        {
          "indexed": false,
          "internalType": "address",
          "name": "treasuryAddress",
          "type": "address"
        }
      ],
      "name": "SetFeeRecipient",
      "type": "event"
    },
    {
      "anonymous": false,
      "inputs": [
        {
          "indexed": false,
          "internalType": "bytes32",
          "name": "what",
          "type": "bytes32"
        },
        {
          "indexed": false,
          "internalType": "address",
          "name": "value",
          "type": "address"
        },
        {
          "indexed": false,
          "internalType": "bool",
          "name": "status",
          "type": "bool"
        }
      ],
      "name": "SettingManagerBool",
      "type": "event"
    },
    {
      "inputs": [],
      "name": "owner",
      "outputs": [
        {
          "internalType": "address",
          "name": "",
          "type": "address"
        }
      ],
      "stateMutability": "view",
      "type": "function"
    },
    {
      "inputs": [],
      "name": "renounceOwnership",
      "outputs": [],
      "stateMutability": "nonpayable",
      "type": "function"
    },
    {
      "inputs": [
        {
          "internalType": "bytes32",
          "name": "currency",
          "type": "bytes32"
        },
        {
          "components": [
            {
              "internalType": "bytes32",
              "name": "code",
              "type": "bytes32"
            },
            {
              "internalType": "bytes32",
              "name": "name",
              "type": "bytes32"
            }
          ],
          "internalType": "struct PaycrestSettingManager.Institution[]",
          "name": "institutions",
          "type": "tuple[]"
        }
      ],
      "name": "setSupportedInstitutions",
      "outputs": [],
      "stateMutability": "nonpayable",
      "type": "function"
    },
    {
      "inputs": [
        {
          "internalType": "bytes32",
          "name": "what",
          "type": "bytes32"
        },
        {
          "internalType": "address",
          "name": "value",
          "type": "address"
        },
        {
          "internalType": "bool",
          "name": "status",
          "type": "bool"
        }
      ],
      "name": "settingManagerBool",
      "outputs": [],
      "stateMutability": "nonpayable",
      "type": "function"
    },
    {
      "inputs": [
        {
          "internalType": "address",
          "name": "newOwner",
          "type": "address"
        }
      ],
      "name": "transferOwnership",
      "outputs": [],
      "stateMutability": "nonpayable",
      "type": "function"
    },
    {
      "inputs": [
        {
          "internalType": "bytes32",
          "name": "what",
          "type": "bytes32"
        },
        {
          "internalType": "address",
          "name": "value",
          "type": "address"
        }
      ],
      "name": "updateProtocolAddresses",
      "outputs": [],
      "stateMutability": "nonpayable",
      "type": "function"
    },
    {
      "inputs": [
        {
          "internalType": "bytes",
          "name": "aggregator",
          "type": "bytes"
        }
      ],
      "name": "updateProtocolAggregator",
      "outputs": [],
      "stateMutability": "nonpayable",
      "type": "function"
    },
    {
      "inputs": [
        {
          "internalType": "uint64",
          "name": "_protocolFeePercent",
          "type": "uint64"
        }
      ],
      "name": "updateProtocolFees",
      "outputs": [],
      "stateMutability": "nonpayable",
      "type": "function"
    }
  ],
  "bytecode": "0x608060405234801561001057600080fd5b5061125d806100206000396000f3fe608060405234801561001057600080fd5b50600436106100885760003560e01c80638da5cb5b1161005b5780638da5cb5b146100eb57806399e3c0b414610109578063cb79455b14610125578063f2fde38b1461014157610088565b8063322008821461008d578063715018a6146100a957806379a0effb146100b357806384630736146100cf575b600080fd5b6100a760048036038101906100a291906109ab565b61015d565b005b6100b1610271565b005b6100cd60048036038101906100c89190610a65565b610285565b005b6100e960048036038101906100e49190610ae5565b6103c2565b005b6100f361042d565b6040516101009190610b21565b60405180910390f35b610123600480360381019061011e9190610b74565b610457565b005b61013f600480360381019061013a9190610c22565b61058d565b005b61015b60048036038101906101569190610c6f565b6105e4565b005b610165610667565b60008151905060005b8181101561026b57609c600085815260200190815260200160002083828151811061019c5761019b610c9c565b5b6020026020010151908060018154018082558091505060019003906000526020600020906002020160009091909190915060008201518160000155602082015181600101555050604051806040016040528084838151811061020157610200610c9c565b5b602002602001015160200151815260200185815250609d600085848151811061022d5761022c610c9c565b5b60200260200101516000015181526020019081526020016000206000820151816000015560208201518160010155905050808060010191505061016e565b50505050565b610279610667565b61028360006106e5565b565b61028d610667565b600073ffffffffffffffffffffffffffffffffffffffff168173ffffffffffffffffffffffffffffffffffffffff16036102fc576040517f08c379a00000000000000000000000000000000000000000000000000000000081526004016102f390610d28565b60405180910390fd5b7f747265617375727900000000000000000000000000000000000000000000000082036103655780606660086101000a81548173ffffffffffffffffffffffffffffffffffffffff021916908373ffffffffffffffffffffffffffffffffffffffff1602179055505b7fd8ef77a7d69a6b79f131ecd9aa37060ba0853bbd37cb175ec1abd05738ce27cb606660089054906101000a900473ffffffffffffffffffffffffffffffffffffffff166040516103b69190610b21565b60405180910390a15050565b6103ca610667565b80606660006101000a81548167ffffffffffffffff021916908367ffffffffffffffff1602179055507fb94068a4bd2571acee6ac79acc9dcdcf10c31425d35f09e88f154ec520e26446816040516104229190610d57565b60405180910390a150565b6000603360009054906101000a900473ffffffffffffffffffffffffffffffffffffffff16905090565b61045f610667565b600073ffffffffffffffffffffffffffffffffffffffff168273ffffffffffffffffffffffffffffffffffffffff16036104ce576040517f08c379a00000000000000000000000000000000000000000000000000000000081526004016104c590610d28565b60405180910390fd5b7f746f6b656e000000000000000000000000000000000000000000000000000000830361054d5780609b60008473ffffffffffffffffffffffffffffffffffffffff1673ffffffffffffffffffffffffffffffffffffffff16815260200190815260200160002060006101000a81548160ff0219169083151502179055505b7fe22cadcc5ddbc0a185e8920eaa6825bcc06dcd6b432988e7e9912caa59ace93083838360405161058093929190610d90565b60405180910390a1505050565b610595610667565b8181606891826105a6929190610fe8565b507f6a6600b7242975868d8321b5e64d0c9f2fcc92eb1af72254a6357be77ee7dcef82826040516105d8929190611105565b60405180910390a15050565b6105ec610667565b600073ffffffffffffffffffffffffffffffffffffffff168173ffffffffffffffffffffffffffffffffffffffff160361065b576040517f08c379a00000000000000000000000000000000000000000000000000000000081526004016106529061119b565b60405180910390fd5b610664816106e5565b50565b61066f6107ab565b73ffffffffffffffffffffffffffffffffffffffff1661068d61042d565b73ffffffffffffffffffffffffffffffffffffffff16146106e3576040517f08c379a00000000000000000000000000000000000000000000000000000000081526004016106da90611207565b60405180910390fd5b565b6000603360009054906101000a900473ffffffffffffffffffffffffffffffffffffffff16905081603360006101000a81548173ffffffffffffffffffffffffffffffffffffffff021916908373ffffffffffffffffffffffffffffffffffffffff1602179055508173ffffffffffffffffffffffffffffffffffffffff168173ffffffffffffffffffffffffffffffffffffffff167f8be0079c531659141344cd1fd0a4f28419497f9722a3daafe3b4186f6b6457e060405160405180910390a35050565b600033905090565b6000604051905090565b600080fd5b600080fd5b6000819050919050565b6107da816107c7565b81146107e557600080fd5b50565b6000813590506107f7816107d1565b92915050565b600080fd5b6000601f19601f8301169050919050565b7f4e487b7100000000000000000000000000000000000000000000000000000000600052604160045260246000fd5b61084b82610802565b810181811067ffffffffffffffff8211171561086a57610869610813565b5b80604052505050565b600061087d6107b3565b90506108898282610842565b919050565b600067ffffffffffffffff8211156108a9576108a8610813565b5b602082029050602081019050919050565b600080fd5b600080fd5b6000604082840312156108da576108d96108bf565b5b6108e46040610873565b905060006108f4848285016107e8565b6000830152506020610908848285016107e8565b60208301525092915050565b60006109276109228461088e565b610873565b9050808382526020820190506040840283018581111561094a576109496108ba565b5b835b81811015610973578061095f88826108c4565b84526020840193505060408101905061094c565b5050509392505050565b600082601f830112610992576109916107fd565b5b81356109a2848260208601610914565b91505092915050565b600080604083850312156109c2576109c16107bd565b5b60006109d0858286016107e8565b925050602083013567ffffffffffffffff8111156109f1576109f06107c2565b5b6109fd8582860161097d565b9150509250929050565b600073ffffffffffffffffffffffffffffffffffffffff82169050919050565b6000610a3282610a07565b9050919050565b610a4281610a27565b8114610a4d57600080fd5b50565b600081359050610a5f81610a39565b92915050565b60008060408385031215610a7c57610a7b6107bd565b5b6000610a8a858286016107e8565b9250506020610a9b85828601610a50565b9150509250929050565b600067ffffffffffffffff82169050919050565b610ac281610aa5565b8114610acd57600080fd5b50565b600081359050610adf81610ab9565b92915050565b600060208284031215610afb57610afa6107bd565b5b6000610b0984828501610ad0565b91505092915050565b610b1b81610a27565b82525050565b6000602082019050610b366000830184610b12565b92915050565b60008115159050919050565b610b5181610b3c565b8114610b5c57600080fd5b50565b600081359050610b6e81610b48565b92915050565b600080600060608486031215610b8d57610b8c6107bd565b5b6000610b9b868287016107e8565b9350506020610bac86828701610a50565b9250506040610bbd86828701610b5f565b9150509250925092565b600080fd5b60008083601f840112610be257610be16107fd565b5b8235905067ffffffffffffffff811115610bff57610bfe610bc7565b5b602083019150836001820283011115610c1b57610c1a6108ba565b5b9250929050565b60008060208385031215610c3957610c386107bd565b5b600083013567ffffffffffffffff811115610c5757610c566107c2565b5b610c6385828601610bcc565b92509250509250929050565b600060208284031215610c8557610c846107bd565b5b6000610c9384828501610a50565b91505092915050565b7f4e487b7100000000000000000000000000000000000000000000000000000000600052603260045260246000fd5b600082825260208201905092915050565b7f50617963726573743a207a65726f206164647265737300000000000000000000600082015250565b6000610d12601683610ccb565b9150610d1d82610cdc565b602082019050919050565b60006020820190508181036000830152610d4181610d05565b9050919050565b610d5181610aa5565b82525050565b6000602082019050610d6c6000830184610d48565b92915050565b610d7b816107c7565b82525050565b610d8a81610b3c565b82525050565b6000606082019050610da56000830186610d72565b610db26020830185610b12565b610dbf6040830184610d81565b949350505050565b600082905092915050565b7f4e487b7100000000000000000000000000000000000000000000000000000000600052602260045260246000fd5b60006002820490506001821680610e1957607f821691505b602082108103610e2c57610e2b610dd2565b5b50919050565b60008190508160005260206000209050919050565b60006020601f8301049050919050565b600082821b905092915050565b600060088302610e947fffffffffffffffffffffffffffffffffffffffffffffffffffffffffffffffff82610e57565b610e9e8683610e57565b95508019841693508086168417925050509392505050565b6000819050919050565b6000819050919050565b6000610ee5610ee0610edb84610eb6565b610ec0565b610eb6565b9050919050565b6000819050919050565b610eff83610eca565b610f13610f0b82610eec565b848454610e64565b825550505050565b600090565b610f28610f1b565b610f33818484610ef6565b505050565b5b81811015610f5757610f4c600082610f20565b600181019050610f39565b5050565b601f821115610f9c57610f6d81610e32565b610f7684610e47565b81016020851015610f85578190505b610f99610f9185610e47565b830182610f38565b50505b505050565b600082821c905092915050565b6000610fbf60001984600802610fa1565b1980831691505092915050565b6000610fd88383610fae565b9150826002028217905092915050565b610ff28383610dc7565b67ffffffffffffffff81111561100b5761100a610813565b5b6110158254610e01565b611020828285610f5b565b6000601f83116001811461104f576000841561103d578287013590505b6110478582610fcc565b8655506110af565b601f19841661105d86610e32565b60005b8281101561108557848901358255600182019150602085019450602081019050611060565b868310156110a2578489013561109e601f891682610fae565b8355505b6001600288020188555050505b50505050505050565b600082825260208201905092915050565b82818337600083830152505050565b60006110e483856110b8565b93506110f18385846110c9565b6110fa83610802565b840190509392505050565b600060208201905081810360008301526111208184866110d8565b90509392505050565b7f4f776e61626c653a206e6577206f776e657220697320746865207a65726f206160008201527f6464726573730000000000000000000000000000000000000000000000000000602082015250565b6000611185602683610ccb565b915061119082611129565b604082019050919050565b600060208201905081810360008301526111b481611178565b9050919050565b7f4f776e61626c653a2063616c6c6572206973206e6f7420746865206f776e6572600082015250565b60006111f1602083610ccb565b91506111fc826111bb565b602082019050919050565b60006020820190508181036000830152611220816111e4565b905091905056fea26469706673582212205c4d7fb3688e4fe75b161d2c3ce9baa20f4fc50bb4fb35ca8f6cccfd61324a4d64736f6c63430008120033",
  "linkReferences": {},
  "deployedLinkReferences": {}
}