{
  "_format": "hh-sol-artifact-1",
  "contractName": "PaycrestSettingManager",
  "sourceName": "contracts/PaycrestSettingManager.sol",
  "abi": [
    {
      "anonymous": false,
      "inputs": [
        {
          "indexed": false,
          "internalType": "uint8",
          "name": "version",
          "type": "uint8"
        }
      ],
      "name": "Initialized",
      "type": "event"
    },
    {
      "anonymous": false,
      "inputs": [
        {
          "indexed": true,
          "internalType": "address",
          "name": "previousOwner",
          "type": "address"
        },
        {
          "indexed": true,
          "internalType": "address",
          "name": "newOwner",
          "type": "address"
        }
      ],
      "name": "OwnershipTransferred",
      "type": "event"
    },
    {
      "anonymous": false,
      "inputs": [
        {
          "indexed": true,
          "internalType": "bytes32",
          "name": "what",
          "type": "bytes32"
        },
        {
          "indexed": true,
          "internalType": "address",
          "name": "treasuryAddress",
          "type": "address"
        }
      ],
      "name": "ProtocolAddressUpdated",
      "type": "event"
    },
    {
      "anonymous": false,
      "inputs": [
        {
          "indexed": false,
          "internalType": "uint64",
          "name": "protocolFee",
          "type": "uint64"
        }
      ],
      "name": "ProtocolFeesUpdated",
      "type": "event"
    },
    {
      "anonymous": false,
      "inputs": [
        {
          "indexed": true,
          "internalType": "bytes",
          "name": "aggregator",
          "type": "bytes"
        }
      ],
      "name": "SetAggregator",
      "type": "event"
    },
    {
      "anonymous": false,
      "inputs": [
        {
          "indexed": true,
          "internalType": "address",
          "name": "treasuryAddress",
          "type": "address"
        }
      ],
      "name": "SetFeeRecipient",
      "type": "event"
    },
    {
      "anonymous": false,
      "inputs": [
        {
          "indexed": true,
          "internalType": "bytes32",
          "name": "what",
          "type": "bytes32"
        },
        {
          "indexed": true,
          "internalType": "address",
          "name": "value",
          "type": "address"
        },
        {
          "indexed": false,
          "internalType": "uint256",
          "name": "status",
          "type": "uint256"
        }
      ],
      "name": "SettingManagerBool",
      "type": "event"
    },
    {
      "anonymous": false,
      "inputs": [
        {
          "indexed": true,
          "internalType": "bytes32",
          "name": "currency",
          "type": "bytes32"
        },
        {
          "components": [
            {
              "internalType": "bytes32",
              "name": "code",
              "type": "bytes32"
            },
            {
              "internalType": "bytes32",
              "name": "name",
              "type": "bytes32"
            }
          ],
          "indexed": false,
          "internalType": "struct SharedStructs.Institution[]",
          "name": "institutions",
          "type": "tuple[]"
        }
      ],
      "name": "SupportedInstitutionsUpdated",
      "type": "event"
    },
    {
      "inputs": [],
      "name": "owner",
      "outputs": [
        {
          "internalType": "address",
          "name": "",
          "type": "address"
        }
      ],
      "stateMutability": "view",
      "type": "function"
    },
    {
      "inputs": [],
      "name": "renounceOwnership",
      "outputs": [],
      "stateMutability": "nonpayable",
      "type": "function"
    },
    {
      "inputs": [
        {
          "internalType": "bytes32",
          "name": "currency",
          "type": "bytes32"
        },
        {
          "components": [
            {
              "internalType": "bytes32",
              "name": "code",
              "type": "bytes32"
            },
            {
              "internalType": "bytes32",
              "name": "name",
              "type": "bytes32"
            }
          ],
          "internalType": "struct SharedStructs.Institution[]",
          "name": "institutions",
          "type": "tuple[]"
        }
      ],
      "name": "setSupportedInstitutions",
      "outputs": [],
      "stateMutability": "nonpayable",
      "type": "function"
    },
    {
      "inputs": [
        {
          "internalType": "bytes32",
          "name": "what",
          "type": "bytes32"
        },
        {
          "internalType": "address",
          "name": "value",
          "type": "address"
        },
        {
          "internalType": "uint256",
          "name": "status",
          "type": "uint256"
        }
      ],
      "name": "settingManagerBool",
      "outputs": [],
      "stateMutability": "nonpayable",
      "type": "function"
    },
    {
      "inputs": [
        {
          "internalType": "address",
          "name": "newOwner",
          "type": "address"
        }
      ],
      "name": "transferOwnership",
      "outputs": [],
      "stateMutability": "nonpayable",
      "type": "function"
    },
    {
      "inputs": [
        {
          "internalType": "bytes32",
          "name": "what",
          "type": "bytes32"
        },
        {
          "internalType": "address",
          "name": "value",
          "type": "address"
        }
      ],
      "name": "updateProtocolAddress",
      "outputs": [],
      "stateMutability": "nonpayable",
      "type": "function"
    },
    {
      "inputs": [
        {
          "internalType": "bytes",
          "name": "aggregator",
          "type": "bytes"
        }
      ],
      "name": "updateProtocolAggregator",
      "outputs": [],
      "stateMutability": "nonpayable",
      "type": "function"
    },
    {
      "inputs": [
        {
          "internalType": "uint64",
          "name": "_protocolFeePercent",
          "type": "uint64"
        }
      ],
      "name": "updateProtocolFees",
      "outputs": [],
      "stateMutability": "nonpayable",
      "type": "function"
    }
  ],
  "bytecode": "0x608060405234801561001057600080fd5b5061152f806100206000396000f3fe608060405234801561001057600080fd5b50600436106100885760003560e01c80638da5cb5b1161005b5780638da5cb5b146100eb578063cb79455b14610109578063cd99240014610125578063f2fde38b1461014157610088565b8063322008821461008d57806340ebc677146100a9578063715018a6146100c557806384630736146100cf575b600080fd5b6100a760048036038101906100a29190610b05565b61015d565b005b6100c360048036038101906100be9190610bbf565b6102d2565b005b6100cd610463565b005b6100e960048036038101906100e49190610c3f565b610477565b005b6100f36104e2565b6040516101009190610c7b565b60405180910390f35b610123600480360381019061011e9190610cf1565b61050c565b005b61013f600480360381019061013a9190610d74565b61056e565b005b61015b60048036038101906101569190610dc7565b6106f3565b005b610165610776565b609c6000838152602001908152602001600020600061018491906108c2565b60005b815181101561028357609c60008481526020019081526020016000208282815181106101b6576101b5610df4565b5b6020026020010151908060018154018082558091505060019003906000526020600020906002020160009091909190915060008201518160000155602082015181600101555050604051806040016040528083838151811061021b5761021a610df4565b5b602002602001015160200151815260200184815250609d600084848151811061024757610246610df4565b5b60200260200101516000015181526020019081526020016000206000820151816000015560208201518160010155905050806001019050610187565b50817f58f3a30ec15a8d3e09fa65f9ef10219bc7a9a99d872a4ed895c37c2e761ac2ac609c60008581526020019081526020016000206040516102c69190610f5d565b60405180910390a25050565b6102da610776565b600073ffffffffffffffffffffffffffffffffffffffff168173ffffffffffffffffffffffffffffffffffffffff1603610349576040517f08c379a000000000000000000000000000000000000000000000000000000000815260040161034090610fdc565b60405180910390fd5b7f747265617375727900000000000000000000000000000000000000000000000082036103b25780606660086101000a81548173ffffffffffffffffffffffffffffffffffffffff021916908373ffffffffffffffffffffffffffffffffffffffff1602179055505b7f61676772656761746f7200000000000000000000000000000000000000000000820361041b5780606760006101000a81548173ffffffffffffffffffffffffffffffffffffffff021916908373ffffffffffffffffffffffffffffffffffffffff1602179055505b8073ffffffffffffffffffffffffffffffffffffffff16827fbbc5b96e57cfecb3dbeeadf92e87f15e58e64fcd75cbe256dcc5d9ef2e51e8a460405160405180910390a35050565b61046b610776565b61047560006107f4565b565b61047f610776565b80606660006101000a81548167ffffffffffffffff021916908367ffffffffffffffff1602179055507fb94068a4bd2571acee6ac79acc9dcdcf10c31425d35f09e88f154ec520e26446816040516104d7919061100b565b60405180910390a150565b6000603360009054906101000a900473ffffffffffffffffffffffffffffffffffffffff16905090565b610514610776565b81816068918261052592919061123d565b50818160405161053692919061134c565b60405180910390207f6a6600b7242975868d8321b5e64d0c9f2fcc92eb1af72254a6357be77ee7dcef60405160405180910390a25050565b610576610776565b600073ffffffffffffffffffffffffffffffffffffffff168273ffffffffffffffffffffffffffffffffffffffff16036105e5576040517f08c379a00000000000000000000000000000000000000000000000000000000081526004016105dc90610fdc565b60405180910390fd5b60018114806105f45750600281145b610633576040517f08c379a000000000000000000000000000000000000000000000000000000000815260040161062a906113b1565b60405180910390fd5b7f746f6b656e00000000000000000000000000000000000000000000000000000083036106ee5780609b60008473ffffffffffffffffffffffffffffffffffffffff1673ffffffffffffffffffffffffffffffffffffffff168152602001908152602001600020819055508173ffffffffffffffffffffffffffffffffffffffff16837fcfa976492af7c14a916cc3a239f4c9c75bbd7f5f0e398beb41d892c7eeccae4c836040516106e591906113e0565b60405180910390a35b505050565b6106fb610776565b600073ffffffffffffffffffffffffffffffffffffffff168173ffffffffffffffffffffffffffffffffffffffff160361076a576040517f08c379a00000000000000000000000000000000000000000000000000000000081526004016107619061146d565b60405180910390fd5b610773816107f4565b50565b61077e6108ba565b73ffffffffffffffffffffffffffffffffffffffff1661079c6104e2565b73ffffffffffffffffffffffffffffffffffffffff16146107f2576040517f08c379a00000000000000000000000000000000000000000000000000000000081526004016107e9906114d9565b60405180910390fd5b565b6000603360009054906101000a900473ffffffffffffffffffffffffffffffffffffffff16905081603360006101000a81548173ffffffffffffffffffffffffffffffffffffffff021916908373ffffffffffffffffffffffffffffffffffffffff1602179055508173ffffffffffffffffffffffffffffffffffffffff168173ffffffffffffffffffffffffffffffffffffffff167f8be0079c531659141344cd1fd0a4f28419497f9722a3daafe3b4186f6b6457e060405160405180910390a35050565b600033905090565b50805460008255600202906000526020600020908101906108e391906108e6565b50565b5b80821115610909576000808201600090556001820160009055506002016108e7565b5090565b6000604051905090565b600080fd5b600080fd5b6000819050919050565b61093481610921565b811461093f57600080fd5b50565b6000813590506109518161092b565b92915050565b600080fd5b6000601f19601f8301169050919050565b7f4e487b7100000000000000000000000000000000000000000000000000000000600052604160045260246000fd5b6109a58261095c565b810181811067ffffffffffffffff821117156109c4576109c361096d565b5b80604052505050565b60006109d761090d565b90506109e3828261099c565b919050565b600067ffffffffffffffff821115610a0357610a0261096d565b5b602082029050602081019050919050565b600080fd5b600080fd5b600060408284031215610a3457610a33610a19565b5b610a3e60406109cd565b90506000610a4e84828501610942565b6000830152506020610a6284828501610942565b60208301525092915050565b6000610a81610a7c846109e8565b6109cd565b90508083825260208201905060408402830185811115610aa457610aa3610a14565b5b835b81811015610acd5780610ab98882610a1e565b845260208401935050604081019050610aa6565b5050509392505050565b600082601f830112610aec57610aeb610957565b5b8135610afc848260208601610a6e565b91505092915050565b60008060408385031215610b1c57610b1b610917565b5b6000610b2a85828601610942565b925050602083013567ffffffffffffffff811115610b4b57610b4a61091c565b5b610b5785828601610ad7565b9150509250929050565b600073ffffffffffffffffffffffffffffffffffffffff82169050919050565b6000610b8c82610b61565b9050919050565b610b9c81610b81565b8114610ba757600080fd5b50565b600081359050610bb981610b93565b92915050565b60008060408385031215610bd657610bd5610917565b5b6000610be485828601610942565b9250506020610bf585828601610baa565b9150509250929050565b600067ffffffffffffffff82169050919050565b610c1c81610bff565b8114610c2757600080fd5b50565b600081359050610c3981610c13565b92915050565b600060208284031215610c5557610c54610917565b5b6000610c6384828501610c2a565b91505092915050565b610c7581610b81565b82525050565b6000602082019050610c906000830184610c6c565b92915050565b600080fd5b60008083601f840112610cb157610cb0610957565b5b8235905067ffffffffffffffff811115610cce57610ccd610c96565b5b602083019150836001820283011115610cea57610ce9610a14565b5b9250929050565b60008060208385031215610d0857610d07610917565b5b600083013567ffffffffffffffff811115610d2657610d2561091c565b5b610d3285828601610c9b565b92509250509250929050565b6000819050919050565b610d5181610d3e565b8114610d5c57600080fd5b50565b600081359050610d6e81610d48565b92915050565b600080600060608486031215610d8d57610d8c610917565b5b6000610d9b86828701610942565b9350506020610dac86828701610baa565b9250506040610dbd86828701610d5f565b9150509250925092565b600060208284031215610ddd57610ddc610917565b5b6000610deb84828501610baa565b91505092915050565b7f4e487b7100000000000000000000000000000000000000000000000000000000600052603260045260246000fd5b600081549050919050565b600082825260208201905092915050565b60008190508160005260206000209050919050565b60008160001c9050919050565b6000819050919050565b6000610e7e610e7983610e54565b610e61565b9050919050565b610e8e81610921565b82525050565b604082016000808301549050610ea981610e6b565b610eb66000860182610e85565b5060018301549050610ec781610e6b565b610ed46020860182610e85565b5050505050565b6000610ee78383610e94565b60408301905092915050565b6000600282019050919050565b6000610f0b82610e23565b610f158185610e2e565b9350610f2083610e3f565b8060005b83811015610f505781610f378882610edb565b9750610f4283610ef3565b925050600181019050610f24565b5085935050505092915050565b60006020820190508181036000830152610f778184610f00565b905092915050565b600082825260208201905092915050565b7f50617963726573743a207a65726f206164647265737300000000000000000000600082015250565b6000610fc6601683610f7f565b9150610fd182610f90565b602082019050919050565b60006020820190508181036000830152610ff581610fb9565b9050919050565b61100581610bff565b82525050565b60006020820190506110206000830184610ffc565b92915050565b600082905092915050565b7f4e487b7100000000000000000000000000000000000000000000000000000000600052602260045260246000fd5b6000600282049050600182168061107857607f821691505b60208210810361108b5761108a611031565b5b50919050565b60008190508160005260206000209050919050565b60006020601f8301049050919050565b600082821b905092915050565b6000600883026110f37fffffffffffffffffffffffffffffffffffffffffffffffffffffffffffffffff826110b6565b6110fd86836110b6565b95508019841693508086168417925050509392505050565b6000819050919050565b600061113a61113561113084610d3e565b611115565b610d3e565b9050919050565b6000819050919050565b6111548361111f565b61116861116082611141565b8484546110c3565b825550505050565b600090565b61117d611170565b61118881848461114b565b505050565b5b818110156111ac576111a1600082611175565b60018101905061118e565b5050565b601f8211156111f1576111c281611091565b6111cb846110a6565b810160208510156111da578190505b6111ee6111e6856110a6565b83018261118d565b50505b505050565b600082821c905092915050565b6000611214600019846008026111f6565b1980831691505092915050565b600061122d8383611203565b9150826002028217905092915050565b6112478383611026565b67ffffffffffffffff8111156112605761125f61096d565b5b61126a8254611060565b6112758282856111b0565b6000601f8311600181146112a45760008415611292578287013590505b61129c8582611221565b865550611304565b601f1984166112b286611091565b60005b828110156112da578489013582556001820191506020850194506020810190506112b5565b868310156112f757848901356112f3601f891682611203565b8355505b6001600288020188555050505b50505050505050565b600081905092915050565b82818337600083830152505050565b6000611333838561130d565b9350611340838584611318565b82840190509392505050565b6000611359828486611327565b91508190509392505050565b7f50617963726573743a20696e76616c6964207374617475730000000000000000600082015250565b600061139b601883610f7f565b91506113a682611365565b602082019050919050565b600060208201905081810360008301526113ca8161138e565b9050919050565b6113da81610d3e565b82525050565b60006020820190506113f560008301846113d1565b92915050565b7f4f776e61626c653a206e6577206f776e657220697320746865207a65726f206160008201527f6464726573730000000000000000000000000000000000000000000000000000602082015250565b6000611457602683610f7f565b9150611462826113fb565b604082019050919050565b600060208201905081810360008301526114868161144a565b9050919050565b7f4f776e61626c653a2063616c6c6572206973206e6f7420746865206f776e6572600082015250565b60006114c3602083610f7f565b91506114ce8261148d565b602082019050919050565b600060208201905081810360008301526114f2816114b6565b905091905056fea2646970667358221220864e38372370d7f16195e059acd5baec9d58bddec70010696608f58484aa273464736f6c63430008120033",
  "linkReferences": {},
  "deployedLinkReferences": {}
}