{
  "_format": "hh-sol-artifact-1",
  "contractName": "PaycrestSettingManager",
  "sourceName": "contracts/PaycrestSettingManager.sol",
  "abi": [
    {
      "anonymous": false,
      "inputs": [
        {
          "indexed": false,
          "internalType": "uint8",
          "name": "version",
          "type": "uint8"
        }
      ],
      "name": "Initialized",
      "type": "event"
    },
    {
      "anonymous": false,
      "inputs": [
        {
          "indexed": true,
          "internalType": "address",
          "name": "previousOwner",
          "type": "address"
        },
        {
          "indexed": true,
          "internalType": "address",
          "name": "newOwner",
          "type": "address"
        }
      ],
      "name": "OwnershipTransferStarted",
      "type": "event"
    },
    {
      "anonymous": false,
      "inputs": [
        {
          "indexed": true,
          "internalType": "address",
          "name": "previousOwner",
          "type": "address"
        },
        {
          "indexed": true,
          "internalType": "address",
          "name": "newOwner",
          "type": "address"
        }
      ],
      "name": "OwnershipTransferred",
      "type": "event"
    },
    {
      "anonymous": false,
      "inputs": [
        {
          "indexed": true,
          "internalType": "bytes32",
          "name": "what",
          "type": "bytes32"
        },
        {
          "indexed": true,
          "internalType": "address",
          "name": "treasuryAddress",
          "type": "address"
        }
      ],
      "name": "ProtocolAddressUpdated",
      "type": "event"
    },
    {
      "anonymous": false,
      "inputs": [
        {
          "indexed": false,
          "internalType": "uint64",
          "name": "protocolFee",
          "type": "uint64"
        }
      ],
      "name": "ProtocolFeesUpdated",
      "type": "event"
    },
    {
      "anonymous": false,
      "inputs": [
        {
          "indexed": true,
          "internalType": "bytes",
          "name": "aggregator",
          "type": "bytes"
        }
      ],
      "name": "SetAggregator",
      "type": "event"
    },
    {
      "anonymous": false,
      "inputs": [
        {
          "indexed": true,
          "internalType": "address",
          "name": "treasuryAddress",
          "type": "address"
        }
      ],
      "name": "SetFeeRecipient",
      "type": "event"
    },
    {
      "anonymous": false,
      "inputs": [
        {
          "indexed": true,
          "internalType": "bytes32",
          "name": "what",
          "type": "bytes32"
        },
        {
          "indexed": true,
          "internalType": "address",
          "name": "value",
          "type": "address"
        },
        {
          "indexed": false,
          "internalType": "uint256",
          "name": "status",
          "type": "uint256"
        }
      ],
      "name": "SettingManagerBool",
      "type": "event"
    },
    {
      "anonymous": false,
      "inputs": [
        {
          "indexed": true,
          "internalType": "bytes32",
          "name": "currency",
          "type": "bytes32"
        },
        {
          "components": [
            {
              "internalType": "bytes32",
              "name": "code",
              "type": "bytes32"
            },
            {
              "internalType": "bytes32",
              "name": "name",
              "type": "bytes32"
            }
          ],
          "indexed": false,
          "internalType": "struct SharedStructs.Institution[]",
          "name": "institutions",
          "type": "tuple[]"
        }
      ],
      "name": "SupportedInstitutionsUpdated",
      "type": "event"
    },
    {
      "inputs": [],
      "name": "acceptOwnership",
      "outputs": [],
      "stateMutability": "nonpayable",
      "type": "function"
    },
    {
      "inputs": [],
      "name": "owner",
      "outputs": [
        {
          "internalType": "address",
          "name": "",
          "type": "address"
        }
      ],
      "stateMutability": "view",
      "type": "function"
    },
    {
      "inputs": [],
      "name": "pendingOwner",
      "outputs": [
        {
          "internalType": "address",
          "name": "",
          "type": "address"
        }
      ],
      "stateMutability": "view",
      "type": "function"
    },
    {
      "inputs": [],
      "name": "renounceOwnership",
      "outputs": [],
      "stateMutability": "nonpayable",
      "type": "function"
    },
    {
      "inputs": [
        {
          "internalType": "bytes32",
          "name": "currency",
          "type": "bytes32"
        },
        {
          "components": [
            {
              "internalType": "bytes32",
              "name": "code",
              "type": "bytes32"
            },
            {
              "internalType": "bytes32",
              "name": "name",
              "type": "bytes32"
            }
          ],
          "internalType": "struct SharedStructs.Institution[]",
          "name": "institutions",
          "type": "tuple[]"
        }
      ],
      "name": "setSupportedInstitutions",
      "outputs": [],
      "stateMutability": "nonpayable",
      "type": "function"
    },
    {
      "inputs": [
        {
          "internalType": "bytes32",
          "name": "what",
          "type": "bytes32"
        },
        {
          "internalType": "address",
          "name": "value",
          "type": "address"
        },
        {
          "internalType": "uint256",
          "name": "status",
          "type": "uint256"
        }
      ],
      "name": "settingManagerBool",
      "outputs": [],
      "stateMutability": "nonpayable",
      "type": "function"
    },
    {
      "inputs": [
        {
          "internalType": "address",
          "name": "newOwner",
          "type": "address"
        }
      ],
      "name": "transferOwnership",
      "outputs": [],
      "stateMutability": "nonpayable",
      "type": "function"
    },
    {
      "inputs": [
        {
          "internalType": "bytes32",
          "name": "what",
          "type": "bytes32"
        },
        {
          "internalType": "address",
          "name": "value",
          "type": "address"
        }
      ],
      "name": "updateProtocolAddress",
      "outputs": [],
      "stateMutability": "nonpayable",
      "type": "function"
    },
    {
      "inputs": [
        {
          "internalType": "bytes",
          "name": "aggregator",
          "type": "bytes"
        }
      ],
      "name": "updateProtocolAggregator",
      "outputs": [],
      "stateMutability": "nonpayable",
      "type": "function"
    },
    {
      "inputs": [
        {
          "internalType": "uint64",
          "name": "_protocolFeePercent",
          "type": "uint64"
        }
      ],
      "name": "updateProtocolFees",
      "outputs": [],
      "stateMutability": "nonpayable",
      "type": "function"
    }
  ],
  "bytecode": "0x608060405234801561001057600080fd5b506118da806100206000396000f3fe608060405234801561001057600080fd5b506004361061009e5760003560e01c80638da5cb5b116100665780638da5cb5b1461010b578063cb79455b14610129578063cd99240014610145578063e30c397814610161578063f2fde38b1461017f5761009e565b806332200882146100a357806340ebc677146100bf578063715018a6146100db57806379ba5097146100e557806384630736146100ef575b600080fd5b6100bd60048036038101906100b89190610d8c565b61019b565b005b6100d960048036038101906100d49190610e46565b610310565b005b6100e36105d8565b005b6100ed6105ec565b005b61010960048036038101906101049190610ec6565b610679565b005b6101136106e4565b6040516101209190610f02565b60405180910390f35b610143600480360381019061013e9190610f78565b61070e565b005b61015f600480360381019061015a9190610ffb565b610770565b005b6101696108f5565b6040516101769190610f02565b60405180910390f35b6101996004803603810190610194919061104e565b61091f565b005b6101a36109cc565b60ce600083815260200190815260200160002060006101c29190610b49565b60005b81518110156102c15760ce60008481526020019081526020016000208282815181106101f4576101f361107b565b5b602002602001015190806001815401808255809150506001900390600052602060002090600202016000909190919091506000820151816000015560208201518160010155505060405180604001604052808383815181106102595761025861107b565b5b60200260200101516020015181526020018481525060cf60008484815181106102855761028461107b565b5b602002602001015160000151815260200190815260200160002060008201518160000155602082015181600101559050508060010190506101c5565b50817f58f3a30ec15a8d3e09fa65f9ef10219bc7a9a99d872a4ed895c37c2e761ac2ac60ce600085815260200190815260200160002060405161030491906111e4565b60405180910390a25050565b6103186109cc565b600073ffffffffffffffffffffffffffffffffffffffff168173ffffffffffffffffffffffffffffffffffffffff1603610387576040517f08c379a000000000000000000000000000000000000000000000000000000000815260040161037e90611263565b60405180910390fd5b60007f7472656173757279000000000000000000000000000000000000000000000000830361048a578173ffffffffffffffffffffffffffffffffffffffff16609860089054906101000a900473ffffffffffffffffffffffffffffffffffffffff1673ffffffffffffffffffffffffffffffffffffffff1603610440576040517f08c379a0000000000000000000000000000000000000000000000000000000008152600401610437906112f5565b60405180910390fd5b81609860086101000a81548173ffffffffffffffffffffffffffffffffffffffff021916908373ffffffffffffffffffffffffffffffffffffffff16021790555060019050610588565b7f61676772656761746f72000000000000000000000000000000000000000000008303610587578173ffffffffffffffffffffffffffffffffffffffff16609960009054906101000a900473ffffffffffffffffffffffffffffffffffffffff1673ffffffffffffffffffffffffffffffffffffffff1603610541576040517f08c379a000000000000000000000000000000000000000000000000000000000815260040161053890611387565b60405180910390fd5b81609960006101000a81548173ffffffffffffffffffffffffffffffffffffffff021916908373ffffffffffffffffffffffffffffffffffffffff160217905550600190505b5b80156105d3578173ffffffffffffffffffffffffffffffffffffffff16837fbbc5b96e57cfecb3dbeeadf92e87f15e58e64fcd75cbe256dcc5d9ef2e51e8a460405160405180910390a35b505050565b6105e06109cc565b6105ea6000610a4a565b565b60006105f6610a7b565b90508073ffffffffffffffffffffffffffffffffffffffff166106176108f5565b73ffffffffffffffffffffffffffffffffffffffff161461066d576040517f08c379a000000000000000000000000000000000000000000000000000000000815260040161066490611419565b60405180910390fd5b61067681610a4a565b50565b6106816109cc565b80609860006101000a81548167ffffffffffffffff021916908367ffffffffffffffff1602179055507fb94068a4bd2571acee6ac79acc9dcdcf10c31425d35f09e88f154ec520e26446816040516106d99190611448565b60405180910390a150565b6000603360009054906101000a900473ffffffffffffffffffffffffffffffffffffffff16905090565b6107166109cc565b8181609a918261072792919061167a565b508181604051610738929190611789565b60405180910390207f6a6600b7242975868d8321b5e64d0c9f2fcc92eb1af72254a6357be77ee7dcef60405160405180910390a25050565b6107786109cc565b600073ffffffffffffffffffffffffffffffffffffffff168273ffffffffffffffffffffffffffffffffffffffff16036107e7576040517f08c379a00000000000000000000000000000000000000000000000000000000081526004016107de90611263565b60405180910390fd5b60018114806107f65750600281145b610835576040517f08c379a000000000000000000000000000000000000000000000000000000000815260040161082c906117ee565b60405180910390fd5b7f746f6b656e00000000000000000000000000000000000000000000000000000083036108f0578060cd60008473ffffffffffffffffffffffffffffffffffffffff1673ffffffffffffffffffffffffffffffffffffffff168152602001908152602001600020819055508173ffffffffffffffffffffffffffffffffffffffff16837fcfa976492af7c14a916cc3a239f4c9c75bbd7f5f0e398beb41d892c7eeccae4c836040516108e7919061181d565b60405180910390a35b505050565b6000606560009054906101000a900473ffffffffffffffffffffffffffffffffffffffff16905090565b6109276109cc565b80606560006101000a81548173ffffffffffffffffffffffffffffffffffffffff021916908373ffffffffffffffffffffffffffffffffffffffff1602179055508073ffffffffffffffffffffffffffffffffffffffff166109876106e4565b73ffffffffffffffffffffffffffffffffffffffff167f38d16b8cac22d99fc7c124b9cd0de2d3fa1faef420bfe791d8c362d765e2270060405160405180910390a350565b6109d4610a7b565b73ffffffffffffffffffffffffffffffffffffffff166109f26106e4565b73ffffffffffffffffffffffffffffffffffffffff1614610a48576040517f08c379a0000000000000000000000000000000000000000000000000000000008152600401610a3f90611884565b60405180910390fd5b565b606560006101000a81549073ffffffffffffffffffffffffffffffffffffffff0219169055610a7881610a83565b50565b600033905090565b6000603360009054906101000a900473ffffffffffffffffffffffffffffffffffffffff16905081603360006101000a81548173ffffffffffffffffffffffffffffffffffffffff021916908373ffffffffffffffffffffffffffffffffffffffff1602179055508173ffffffffffffffffffffffffffffffffffffffff168173ffffffffffffffffffffffffffffffffffffffff167f8be0079c531659141344cd1fd0a4f28419497f9722a3daafe3b4186f6b6457e060405160405180910390a35050565b5080546000825560020290600052602060002090810190610b6a9190610b6d565b50565b5b80821115610b9057600080820160009055600182016000905550600201610b6e565b5090565b6000604051905090565b600080fd5b600080fd5b6000819050919050565b610bbb81610ba8565b8114610bc657600080fd5b50565b600081359050610bd881610bb2565b92915050565b600080fd5b6000601f19601f8301169050919050565b7f4e487b7100000000000000000000000000000000000000000000000000000000600052604160045260246000fd5b610c2c82610be3565b810181811067ffffffffffffffff82111715610c4b57610c4a610bf4565b5b80604052505050565b6000610c5e610b94565b9050610c6a8282610c23565b919050565b600067ffffffffffffffff821115610c8a57610c89610bf4565b5b602082029050602081019050919050565b600080fd5b600080fd5b600060408284031215610cbb57610cba610ca0565b5b610cc56040610c54565b90506000610cd584828501610bc9565b6000830152506020610ce984828501610bc9565b60208301525092915050565b6000610d08610d0384610c6f565b610c54565b90508083825260208201905060408402830185811115610d2b57610d2a610c9b565b5b835b81811015610d545780610d408882610ca5565b845260208401935050604081019050610d2d565b5050509392505050565b600082601f830112610d7357610d72610bde565b5b8135610d83848260208601610cf5565b91505092915050565b60008060408385031215610da357610da2610b9e565b5b6000610db185828601610bc9565b925050602083013567ffffffffffffffff811115610dd257610dd1610ba3565b5b610dde85828601610d5e565b9150509250929050565b600073ffffffffffffffffffffffffffffffffffffffff82169050919050565b6000610e1382610de8565b9050919050565b610e2381610e08565b8114610e2e57600080fd5b50565b600081359050610e4081610e1a565b92915050565b60008060408385031215610e5d57610e5c610b9e565b5b6000610e6b85828601610bc9565b9250506020610e7c85828601610e31565b9150509250929050565b600067ffffffffffffffff82169050919050565b610ea381610e86565b8114610eae57600080fd5b50565b600081359050610ec081610e9a565b92915050565b600060208284031215610edc57610edb610b9e565b5b6000610eea84828501610eb1565b91505092915050565b610efc81610e08565b82525050565b6000602082019050610f176000830184610ef3565b92915050565b600080fd5b60008083601f840112610f3857610f37610bde565b5b8235905067ffffffffffffffff811115610f5557610f54610f1d565b5b602083019150836001820283011115610f7157610f70610c9b565b5b9250929050565b60008060208385031215610f8f57610f8e610b9e565b5b600083013567ffffffffffffffff811115610fad57610fac610ba3565b5b610fb985828601610f22565b92509250509250929050565b6000819050919050565b610fd881610fc5565b8114610fe357600080fd5b50565b600081359050610ff581610fcf565b92915050565b60008060006060848603121561101457611013610b9e565b5b600061102286828701610bc9565b935050602061103386828701610e31565b925050604061104486828701610fe6565b9150509250925092565b60006020828403121561106457611063610b9e565b5b600061107284828501610e31565b91505092915050565b7f4e487b7100000000000000000000000000000000000000000000000000000000600052603260045260246000fd5b600081549050919050565b600082825260208201905092915050565b60008190508160005260206000209050919050565b60008160001c9050919050565b6000819050919050565b6000611105611100836110db565b6110e8565b9050919050565b61111581610ba8565b82525050565b604082016000808301549050611130816110f2565b61113d600086018261110c565b506001830154905061114e816110f2565b61115b602086018261110c565b5050505050565b600061116e838361111b565b60408301905092915050565b6000600282019050919050565b6000611192826110aa565b61119c81856110b5565b93506111a7836110c6565b8060005b838110156111d757816111be8882611162565b97506111c98361117a565b9250506001810190506111ab565b5085935050505092915050565b600060208201905081810360008301526111fe8184611187565b905092915050565b600082825260208201905092915050565b7f50617963726573743a207a65726f206164647265737300000000000000000000600082015250565b600061124d601683611206565b915061125882611217565b602082019050919050565b6000602082019050818103600083015261127c81611240565b9050919050565b7f50617963726573743a207472656173757279206164647265737320616c72656160008201527f6479207365740000000000000000000000000000000000000000000000000000602082015250565b60006112df602683611206565b91506112ea82611283565b604082019050919050565b6000602082019050818103600083015261130e816112d2565b9050919050565b7f50617963726573743a2061676772656761746f72206164647265737320616c7260008201527f6561647920736574000000000000000000000000000000000000000000000000602082015250565b6000611371602883611206565b915061137c82611315565b604082019050919050565b600060208201905081810360008301526113a081611364565b9050919050565b7f4f776e61626c6532537465703a2063616c6c6572206973206e6f74207468652060008201527f6e6577206f776e65720000000000000000000000000000000000000000000000602082015250565b6000611403602983611206565b915061140e826113a7565b604082019050919050565b60006020820190508181036000830152611432816113f6565b9050919050565b61144281610e86565b82525050565b600060208201905061145d6000830184611439565b92915050565b600082905092915050565b7f4e487b7100000000000000000000000000000000000000000000000000000000600052602260045260246000fd5b600060028204905060018216806114b557607f821691505b6020821081036114c8576114c761146e565b5b50919050565b60008190508160005260206000209050919050565b60006020601f8301049050919050565b600082821b905092915050565b6000600883026115307fffffffffffffffffffffffffffffffffffffffffffffffffffffffffffffffff826114f3565b61153a86836114f3565b95508019841693508086168417925050509392505050565b6000819050919050565b600061157761157261156d84610fc5565b611552565b610fc5565b9050919050565b6000819050919050565b6115918361155c565b6115a561159d8261157e565b848454611500565b825550505050565b600090565b6115ba6115ad565b6115c5818484611588565b505050565b5b818110156115e9576115de6000826115b2565b6001810190506115cb565b5050565b601f82111561162e576115ff816114ce565b611608846114e3565b81016020851015611617578190505b61162b611623856114e3565b8301826115ca565b50505b505050565b600082821c905092915050565b600061165160001984600802611633565b1980831691505092915050565b600061166a8383611640565b9150826002028217905092915050565b6116848383611463565b67ffffffffffffffff81111561169d5761169c610bf4565b5b6116a7825461149d565b6116b28282856115ed565b6000601f8311600181146116e157600084156116cf578287013590505b6116d9858261165e565b865550611741565b601f1984166116ef866114ce565b60005b82811015611717578489013582556001820191506020850194506020810190506116f2565b868310156117345784890135611730601f891682611640565b8355505b6001600288020188555050505b50505050505050565b600081905092915050565b82818337600083830152505050565b6000611770838561174a565b935061177d838584611755565b82840190509392505050565b6000611796828486611764565b91508190509392505050565b7f50617963726573743a20696e76616c6964207374617475730000000000000000600082015250565b60006117d8601883611206565b91506117e3826117a2565b602082019050919050565b60006020820190508181036000830152611807816117cb565b9050919050565b61181781610fc5565b82525050565b6000602082019050611832600083018461180e565b92915050565b7f4f776e61626c653a2063616c6c6572206973206e6f7420746865206f776e6572600082015250565b600061186e602083611206565b915061187982611838565b602082019050919050565b6000602082019050818103600083015261189d81611861565b905091905056fea26469706673582212204484adb6b139b7dac6bf4352504c4cb858ce1c84fc42880fd06391f6fc6b7e4d64736f6c63430008120033",
  "linkReferences": {},
  "deployedLinkReferences": {}
}