{
  "_format": "hh-sol-artifact-1",
  "contractName": "PaycrestSettingManager",
  "sourceName": "contracts/PaycrestSettingManager.sol",
  "abi": [
    {
      "inputs": [],
      "name": "AmountIsZero",
      "type": "error"
    },
    {
      "inputs": [
        {
          "internalType": "bytes32",
          "name": "what",
          "type": "bytes32"
        }
      ],
      "name": "InvalidParameter",
      "type": "error"
    },
    {
      "inputs": [],
      "name": "ThrowZeroAddress",
      "type": "error"
    },
    {
      "inputs": [],
      "name": "ThrowZeroValue",
      "type": "error"
    },
    {
      "inputs": [],
      "name": "TokenNotSupported",
      "type": "error"
    },
    {
      "anonymous": false,
      "inputs": [
        {
          "indexed": true,
          "internalType": "address",
          "name": "previousOwner",
          "type": "address"
        },
        {
          "indexed": true,
          "internalType": "address",
          "name": "newOwner",
          "type": "address"
        }
      ],
      "name": "OwnershipTransferred",
      "type": "event"
    },
    {
      "anonymous": false,
      "inputs": [
        {
          "indexed": false,
          "internalType": "uint64",
          "name": "protocolFee",
          "type": "uint64"
        },
        {
          "indexed": false,
          "internalType": "uint64",
          "name": "primaryValidator",
          "type": "uint64"
        },
        {
          "indexed": false,
          "internalType": "uint64",
          "name": "secondaryValidator",
          "type": "uint64"
        }
      ],
      "name": "PaycrestFees",
      "type": "event"
    },
    {
      "anonymous": false,
      "inputs": [
        {
          "indexed": false,
          "internalType": "bytes32",
          "name": "what",
          "type": "bytes32"
        },
        {
          "indexed": false,
          "internalType": "address",
          "name": "value",
          "type": "address"
        },
        {
          "indexed": false,
          "internalType": "bool",
          "name": "status",
          "type": "bool"
        }
      ],
      "name": "SettingManagerBool",
      "type": "event"
    },
    {
      "anonymous": false,
      "inputs": [
        {
          "indexed": false,
          "internalType": "bytes32",
          "name": "what",
          "type": "bytes32"
        },
        {
          "indexed": false,
          "internalType": "bytes8",
          "name": "value",
          "type": "bytes8"
        },
        {
          "indexed": false,
          "internalType": "bytes8",
          "name": "status",
          "type": "bytes8"
        }
      ],
      "name": "SettingManagerForInstitution",
      "type": "event"
    },
    {
      "inputs": [],
      "name": "owner",
      "outputs": [
        {
          "internalType": "address",
          "name": "",
          "type": "address"
        }
      ],
      "stateMutability": "view",
      "type": "function"
    },
    {
      "inputs": [],
      "name": "renounceOwnership",
      "outputs": [],
      "stateMutability": "nonpayable",
      "type": "function"
    },
    {
      "inputs": [
        {
          "internalType": "bytes32",
          "name": "currency",
          "type": "bytes32"
        },
        {
          "components": [
            {
              "internalType": "bytes32",
              "name": "code",
              "type": "bytes32"
            },
            {
              "internalType": "bytes32",
              "name": "name",
              "type": "bytes32"
            }
          ],
          "internalType": "struct PaycrestSettingManager.Institution[]",
          "name": "institutions",
          "type": "tuple[]"
        }
      ],
      "name": "setSupportedInstitutions",
      "outputs": [],
      "stateMutability": "nonpayable",
      "type": "function"
    },
    {
      "inputs": [
        {
          "internalType": "bytes32",
          "name": "what",
          "type": "bytes32"
        },
        {
          "internalType": "address",
          "name": "value",
          "type": "address"
        },
        {
          "internalType": "bool",
          "name": "status",
          "type": "bool"
        }
      ],
      "name": "settingManagerBool",
      "outputs": [],
      "stateMutability": "nonpayable",
      "type": "function"
    },
    {
      "inputs": [
        {
          "internalType": "address",
          "name": "newOwner",
          "type": "address"
        }
      ],
      "name": "transferOwnership",
      "outputs": [],
      "stateMutability": "nonpayable",
      "type": "function"
    },
    {
      "inputs": [
        {
          "internalType": "bytes32",
          "name": "what",
          "type": "bytes32"
        },
        {
          "internalType": "address",
          "name": "value",
          "type": "address"
        }
      ],
      "name": "updateFeeRecipient",
      "outputs": [],
      "stateMutability": "nonpayable",
      "type": "function"
    },
    {
      "inputs": [
        {
          "internalType": "uint64",
          "name": "_protocolFee",
          "type": "uint64"
        },
        {
          "internalType": "uint64",
          "name": "_primaryValidator",
          "type": "uint64"
        },
        {
          "internalType": "uint64",
          "name": "_secondaryValidator",
          "type": "uint64"
        }
      ],
      "name": "updateProtocolFees",
      "outputs": [],
      "stateMutability": "nonpayable",
      "type": "function"
    }
  ],
  "bytecode": "0x6080604052611388600060146101000a81548167ffffffffffffffff021916908367ffffffffffffffff1602179055506101f4600160006101000a81548167ffffffffffffffff021916908367ffffffffffffffff1602179055506101f4600160086101000a81548167ffffffffffffffff021916908367ffffffffffffffff16021790555034801561009157600080fd5b506100ae6100a36100b360201b60201c565b6100bb60201b60201c565b61017f565b600033905090565b60008060009054906101000a900473ffffffffffffffffffffffffffffffffffffffff169050816000806101000a81548173ffffffffffffffffffffffffffffffffffffffff021916908373ffffffffffffffffffffffffffffffffffffffff1602179055508173ffffffffffffffffffffffffffffffffffffffff168173ffffffffffffffffffffffffffffffffffffffff167f8be0079c531659141344cd1fd0a4f28419497f9722a3daafe3b4186f6b6457e060405160405180910390a35050565b610eb68061018e6000396000f3fe608060405234801561001057600080fd5b506004361061007d5760003560e01c8063764bc3551161005b578063764bc355146100c45780638da5cb5b146100e057806399e3c0b4146100fe578063f2fde38b1461011a5761007d565b806332200882146100825780633d8f8fb21461009e578063715018a6146100ba575b600080fd5b61009c60048036038101906100979190610a1d565b610136565b005b6100b860048036038101906100b39190610ad7565b610238565b005b6100c26103ea565b005b6100de60048036038101906100d99190610b57565b6103fe565b005b6100e86104c1565b6040516100f59190610bb9565b60405180910390f35b61011860048036038101906101139190610c0c565b6104ea565b005b610134600480360381019061012f9190610c5f565b610658565b005b61013e6106db565b60006006600084815260200190815260200160002080549050905060005b81811015610232576006600085815260200190815260200160002083828151811061018a57610189610c8c565b5b60200260200101519080600181540180825580915050600190039060005260206000209060020201600090919091909150600082015181600001556020820151816001015550508281815181106101e4576101e3610c8c565b5b6020026020010151602001516007600085848151811061020757610206610c8c565b5b602002602001015160000151815260200190815260200160002081905550808060010191505061015c565b50505050565b6102406106db565b600073ffffffffffffffffffffffffffffffffffffffff168173ffffffffffffffffffffffffffffffffffffffff16036102a6576040517f9c8e2b5d00000000000000000000000000000000000000000000000000000000815260040160405180910390fd5b7f6665650000000000000000000000000000000000000000000000000000000000820361030f5780600260006101000a81548173ffffffffffffffffffffffffffffffffffffffff021916908373ffffffffffffffffffffffffffffffffffffffff1602179055505b7f61676772656761746f7200000000000000000000000000000000000000000000820361037c5780600460006101000a81548173ffffffffffffffffffffffffffffffffffffffff021916908373ffffffffffffffffffffffffffffffffffffffff1602179055506103e6565b7f7374616b6500000000000000000000000000000000000000000000000000000082036103e55780600360006101000a81548173ffffffffffffffffffffffffffffffffffffffff021916908373ffffffffffffffffffffffffffffffffffffffff1602179055505b5b5050565b6103f26106db565b6103fc6000610759565b565b6104066106db565b82600060146101000a81548167ffffffffffffffff021916908367ffffffffffffffff16021790555081600160006101000a81548167ffffffffffffffff021916908367ffffffffffffffff16021790555080600160086101000a81548167ffffffffffffffff021916908367ffffffffffffffff1602179055507fced6b79f1325154aec329e6ff932857cb4f91fa8eb4c6791ce5b460f479957588383836040516104b493929190610cca565b60405180910390a1505050565b60008060009054906101000a900473ffffffffffffffffffffffffffffffffffffffff16905090565b6104f26106db565b600073ffffffffffffffffffffffffffffffffffffffff168273ffffffffffffffffffffffffffffffffffffffff1603610558576040517f9c8e2b5d00000000000000000000000000000000000000000000000000000000815260040160405180910390fd5b7f746f6b656e00000000000000000000000000000000000000000000000000000083036105db5780600560008473ffffffffffffffffffffffffffffffffffffffff1673ffffffffffffffffffffffffffffffffffffffff16815260200190815260200160002060006101000a81548160ff021916908315150217905550610618565b826040517f48bae5b800000000000000000000000000000000000000000000000000000000815260040161060f9190610d10565b60405180910390fd5b7fe22cadcc5ddbc0a185e8920eaa6825bcc06dcd6b432988e7e9912caa59ace93083838360405161064b93929190610d3a565b60405180910390a1505050565b6106606106db565b600073ffffffffffffffffffffffffffffffffffffffff168173ffffffffffffffffffffffffffffffffffffffff16036106cf576040517f08c379a00000000000000000000000000000000000000000000000000000000081526004016106c690610df4565b60405180910390fd5b6106d881610759565b50565b6106e361081d565b73ffffffffffffffffffffffffffffffffffffffff166107016104c1565b73ffffffffffffffffffffffffffffffffffffffff1614610757576040517f08c379a000000000000000000000000000000000000000000000000000000000815260040161074e90610e60565b60405180910390fd5b565b60008060009054906101000a900473ffffffffffffffffffffffffffffffffffffffff169050816000806101000a81548173ffffffffffffffffffffffffffffffffffffffff021916908373ffffffffffffffffffffffffffffffffffffffff1602179055508173ffffffffffffffffffffffffffffffffffffffff168173ffffffffffffffffffffffffffffffffffffffff167f8be0079c531659141344cd1fd0a4f28419497f9722a3daafe3b4186f6b6457e060405160405180910390a35050565b600033905090565b6000604051905090565b600080fd5b600080fd5b6000819050919050565b61084c81610839565b811461085757600080fd5b50565b60008135905061086981610843565b92915050565b600080fd5b6000601f19601f8301169050919050565b7f4e487b7100000000000000000000000000000000000000000000000000000000600052604160045260246000fd5b6108bd82610874565b810181811067ffffffffffffffff821117156108dc576108db610885565b5b80604052505050565b60006108ef610825565b90506108fb82826108b4565b919050565b600067ffffffffffffffff82111561091b5761091a610885565b5b602082029050602081019050919050565b600080fd5b600080fd5b60006040828403121561094c5761094b610931565b5b61095660406108e5565b905060006109668482850161085a565b600083015250602061097a8482850161085a565b60208301525092915050565b600061099961099484610900565b6108e5565b905080838252602082019050604084028301858111156109bc576109bb61092c565b5b835b818110156109e557806109d18882610936565b8452602084019350506040810190506109be565b5050509392505050565b600082601f830112610a0457610a0361086f565b5b8135610a14848260208601610986565b91505092915050565b60008060408385031215610a3457610a3361082f565b5b6000610a428582860161085a565b925050602083013567ffffffffffffffff811115610a6357610a62610834565b5b610a6f858286016109ef565b9150509250929050565b600073ffffffffffffffffffffffffffffffffffffffff82169050919050565b6000610aa482610a79565b9050919050565b610ab481610a99565b8114610abf57600080fd5b50565b600081359050610ad181610aab565b92915050565b60008060408385031215610aee57610aed61082f565b5b6000610afc8582860161085a565b9250506020610b0d85828601610ac2565b9150509250929050565b600067ffffffffffffffff82169050919050565b610b3481610b17565b8114610b3f57600080fd5b50565b600081359050610b5181610b2b565b92915050565b600080600060608486031215610b7057610b6f61082f565b5b6000610b7e86828701610b42565b9350506020610b8f86828701610b42565b9250506040610ba086828701610b42565b9150509250925092565b610bb381610a99565b82525050565b6000602082019050610bce6000830184610baa565b92915050565b60008115159050919050565b610be981610bd4565b8114610bf457600080fd5b50565b600081359050610c0681610be0565b92915050565b600080600060608486031215610c2557610c2461082f565b5b6000610c338682870161085a565b9350506020610c4486828701610ac2565b9250506040610c5586828701610bf7565b9150509250925092565b600060208284031215610c7557610c7461082f565b5b6000610c8384828501610ac2565b91505092915050565b7f4e487b7100000000000000000000000000000000000000000000000000000000600052603260045260246000fd5b610cc481610b17565b82525050565b6000606082019050610cdf6000830186610cbb565b610cec6020830185610cbb565b610cf96040830184610cbb565b949350505050565b610d0a81610839565b82525050565b6000602082019050610d256000830184610d01565b92915050565b610d3481610bd4565b82525050565b6000606082019050610d4f6000830186610d01565b610d5c6020830185610baa565b610d696040830184610d2b565b949350505050565b600082825260208201905092915050565b7f4f776e61626c653a206e6577206f776e657220697320746865207a65726f206160008201527f6464726573730000000000000000000000000000000000000000000000000000602082015250565b6000610dde602683610d71565b9150610de982610d82565b604082019050919050565b60006020820190508181036000830152610e0d81610dd1565b9050919050565b7f4f776e61626c653a2063616c6c6572206973206e6f7420746865206f776e6572600082015250565b6000610e4a602083610d71565b9150610e5582610e14565b602082019050919050565b60006020820190508181036000830152610e7981610e3d565b905091905056fea2646970667358221220f538b0582de9d6d945c719d3645477e40286b6f5ebe9e1c22e163754950f0f1e64736f6c63430008120033",
  "linkReferences": {},
  "deployedLinkReferences": {}
}